{
	"contracts/TestInterview.sol": {
		"TestInterview": {
			"abi": [
				{
					"inputs": [],
					"name": "createGatcha",
					"outputs": [],
					"stateMutability": "nonpayable",
					"type": "function"
				},
				{
					"inputs": [],
					"name": "ownerAddress",
					"outputs": [
						{
							"internalType": "address",
							"name": "",
							"type": "address"
						}
					],
					"stateMutability": "view",
					"type": "function"
				},
				{
					"inputs": [
						{
							"internalType": "uint256",
							"name": "",
							"type": "uint256"
						}
					],
					"name": "rarityList",
					"outputs": [
						{
							"internalType": "string",
							"name": "",
							"type": "string"
						}
					],
					"stateMutability": "view",
					"type": "function"
				},
				{
					"inputs": [],
					"name": "rarityListFunc",
					"outputs": [
						{
							"internalType": "string",
							"name": "",
							"type": "string"
						}
					],
					"stateMutability": "view",
					"type": "function"
				},
				{
					"inputs": [
						{
							"internalType": "string",
							"name": "_nameRarity",
							"type": "string"
						}
					],
					"name": "rarityRateFunc",
					"outputs": [
						{
							"internalType": "uint256",
							"name": "",
							"type": "uint256"
						}
					],
					"stateMutability": "view",
					"type": "function"
				},
				{
					"inputs": [
						{
							"internalType": "uint256",
							"name": "",
							"type": "uint256"
						}
					],
					"name": "registeredUsers",
					"outputs": [
						{
							"internalType": "address",
							"name": "userAddress",
							"type": "address"
						},
						{
							"internalType": "uint256",
							"name": "counterVisited",
							"type": "uint256"
						}
					],
					"stateMutability": "view",
					"type": "function"
				}
			],
			"devdoc": {
				"kind": "dev",
				"methods": {},
				"version": 1
			},
			"evm": {
				"assembly": "    /* \"contracts/TestInterview.sol\":208:1671  contract TestInterview {... */\n  mstore(0x40, 0x80)\n    /* \"contracts/TestInterview.sol\":291:333  0x50C7a09925375438D2cEe94C5c59266c6fFAAf8C */\n  0x50c7a09925375438d2cee94c5c59266c6ffaaf8c\n    /* \"contracts/TestInterview.sol\":271:334  INFT objINFT = INFT(0x50C7a09925375438D2cEe94C5c59266c6fFAAf8C) */\n  0x01\n  exp(0x0100, 0x00)\n  dup2\n  sload\n  dup2\n  0xffffffffffffffffffffffffffffffffffffffff\n  mul\n  not\n  and\n  swap1\n  dup4\n  0xffffffffffffffffffffffffffffffffffffffff\n  and\n  mul\n  or\n  swap1\n  sstore\n  pop\n    /* \"contracts/TestInterview.sol\":371:413  0xdBDdb8575F6bda11F1DC548A1B546463CC567C3d */\n  0xdbddb8575f6bda11f1dc548a1b546463cc567c3d\n    /* \"contracts/TestInterview.sol\":341:413  address public ownerAddress = 0xdBDdb8575F6bda11F1DC548A1B546463CC567C3d */\n  0x02\n  exp(0x0100, 0x00)\n  dup2\n  sload\n  dup2\n  0xffffffffffffffffffffffffffffffffffffffff\n  mul\n  not\n  and\n  swap1\n  dup4\n  0xffffffffffffffffffffffffffffffffffffffff\n  and\n  mul\n  or\n  swap1\n  sstore\n  pop\n    /* \"contracts/TestInterview.sol\":208:1671  contract TestInterview {... */\n  callvalue\n  dup1\n  iszero\n  tag_1\n  jumpi\n  0x00\n  dup1\n  revert\ntag_1:\n  pop\n  dataSize(sub_0)\n  dup1\n  dataOffset(sub_0)\n  0x00\n  codecopy\n  0x00\n  return\nstop\n\nsub_0: assembly {\n        /* \"contracts/TestInterview.sol\":208:1671  contract TestInterview {... */\n      mstore(0x40, 0x80)\n      callvalue\n      dup1\n      iszero\n      tag_1\n      jumpi\n      0x00\n      dup1\n      revert\n    tag_1:\n      pop\n      jumpi(tag_2, lt(calldatasize, 0x04))\n      shr(0xe0, calldataload(0x00))\n      dup1\n      0x6fd3d9e2\n      eq\n      tag_3\n      jumpi\n      dup1\n      0x7259e0f8\n      eq\n      tag_4\n      jumpi\n      dup1\n      0x8f84aa09\n      eq\n      tag_5\n      jumpi\n      dup1\n      0xa7beb5d0\n      eq\n      tag_6\n      jumpi\n      dup1\n      0xbb4a376b\n      eq\n      tag_7\n      jumpi\n      dup1\n      0xe917ec96\n      eq\n      tag_8\n      jumpi\n    tag_2:\n      0x00\n      dup1\n      revert\n        /* \"contracts/TestInterview.sol\":238:264  string[] public rarityList */\n    tag_3:\n      tag_9\n      0x04\n      dup1\n      calldatasize\n      sub\n      dup2\n      add\n      swap1\n      tag_10\n      swap2\n      swap1\n      tag_11\n      jump\t// in\n    tag_10:\n      tag_12\n      jump\t// in\n    tag_9:\n      mload(0x40)\n      tag_13\n      swap2\n      swap1\n      tag_14\n      jump\t// in\n    tag_13:\n      mload(0x40)\n      dup1\n      swap2\n      sub\n      swap1\n      return\n        /* \"contracts/TestInterview.sol\":523:562  RegisteredUser[] public registeredUsers */\n    tag_4:\n      tag_15\n      0x04\n      dup1\n      calldatasize\n      sub\n      dup2\n      add\n      swap1\n      tag_16\n      swap2\n      swap1\n      tag_11\n      jump\t// in\n    tag_16:\n      tag_17\n      jump\t// in\n    tag_15:\n      mload(0x40)\n      tag_18\n      swap3\n      swap2\n      swap1\n      tag_19\n      jump\t// in\n    tag_18:\n      mload(0x40)\n      dup1\n      swap2\n      sub\n      swap1\n      return\n        /* \"contracts/TestInterview.sol\":341:413  address public ownerAddress = 0xdBDdb8575F6bda11F1DC548A1B546463CC567C3d */\n    tag_5:\n      tag_20\n      tag_21\n      jump\t// in\n    tag_20:\n      mload(0x40)\n      tag_22\n      swap2\n      swap1\n      tag_23\n      jump\t// in\n    tag_22:\n      mload(0x40)\n      dup1\n      swap2\n      sub\n      swap1\n      return\n        /* \"contracts/TestInterview.sol\":758:899  function rarityRateFunc (string memory _nameRarity) public view returns(uint256) {... */\n    tag_6:\n      tag_24\n      0x04\n      dup1\n      calldatasize\n      sub\n      dup2\n      add\n      swap1\n      tag_25\n      swap2\n      swap1\n      tag_26\n      jump\t// in\n    tag_25:\n      tag_27\n      jump\t// in\n    tag_24:\n      mload(0x40)\n      tag_28\n      swap2\n      swap1\n      tag_29\n      jump\t// in\n    tag_28:\n      mload(0x40)\n      dup1\n      swap2\n      sub\n      swap1\n      return\n        /* \"contracts/TestInterview.sol\":573:750  function rarityListFunc () public view returns(string memory) {... */\n    tag_7:\n      tag_30\n      tag_31\n      jump\t// in\n    tag_30:\n      mload(0x40)\n      tag_32\n      swap2\n      swap1\n      tag_14\n      jump\t// in\n    tag_32:\n      mload(0x40)\n      dup1\n      swap2\n      sub\n      swap1\n      return\n        /* \"contracts/TestInterview.sol\":907:1560  function createGatcha () public {... */\n    tag_8:\n      tag_33\n      tag_34\n      jump\t// in\n    tag_33:\n      stop\n        /* \"contracts/TestInterview.sol\":238:264  string[] public rarityList */\n    tag_12:\n      0x00\n      dup2\n      dup2\n      sload\n      dup2\n      lt\n      tag_35\n      jumpi\n      0x00\n      dup1\n      revert\n    tag_35:\n      swap1\n      0x00\n      mstore\n      keccak256(0x00, 0x20)\n      add\n      0x00\n      swap2\n      pop\n      swap1\n      pop\n      dup1\n      sload\n      tag_37\n      swap1\n      tag_38\n      jump\t// in\n    tag_37:\n      dup1\n      0x1f\n      add\n      0x20\n      dup1\n      swap2\n      div\n      mul\n      0x20\n      add\n      mload(0x40)\n      swap1\n      dup2\n      add\n      0x40\n      mstore\n      dup1\n      swap3\n      swap2\n      swap1\n      dup2\n      dup2\n      mstore\n      0x20\n      add\n      dup3\n      dup1\n      sload\n      tag_39\n      swap1\n      tag_38\n      jump\t// in\n    tag_39:\n      dup1\n      iszero\n      tag_40\n      jumpi\n      dup1\n      0x1f\n      lt\n      tag_41\n      jumpi\n      0x0100\n      dup1\n      dup4\n      sload\n      div\n      mul\n      dup4\n      mstore\n      swap2\n      0x20\n      add\n      swap2\n      jump(tag_40)\n    tag_41:\n      dup3\n      add\n      swap2\n      swap1\n      0x00\n      mstore\n      keccak256(0x00, 0x20)\n      swap1\n    tag_42:\n      dup2\n      sload\n      dup2\n      mstore\n      swap1\n      0x01\n      add\n      swap1\n      0x20\n      add\n      dup1\n      dup4\n      gt\n      tag_42\n      jumpi\n      dup3\n      swap1\n      sub\n      0x1f\n      and\n      dup3\n      add\n      swap2\n    tag_40:\n      pop\n      pop\n      pop\n      pop\n      pop\n      dup2\n      jump\t// out\n        /* \"contracts/TestInterview.sol\":523:562  RegisteredUser[] public registeredUsers */\n    tag_17:\n      0x03\n      dup2\n      dup2\n      sload\n      dup2\n      lt\n      tag_43\n      jumpi\n      0x00\n      dup1\n      revert\n    tag_43:\n      swap1\n      0x00\n      mstore\n      keccak256(0x00, 0x20)\n      swap1\n      0x02\n      mul\n      add\n      0x00\n      swap2\n      pop\n      swap1\n      pop\n      dup1\n      0x00\n      add\n      0x00\n      swap1\n      sload\n      swap1\n      0x0100\n      exp\n      swap1\n      div\n      0xffffffffffffffffffffffffffffffffffffffff\n      and\n      swap1\n      dup1\n      0x01\n      add\n      sload\n      swap1\n      pop\n      dup3\n      jump\t// out\n        /* \"contracts/TestInterview.sol\":341:413  address public ownerAddress = 0xdBDdb8575F6bda11F1DC548A1B546463CC567C3d */\n    tag_21:\n      0x02\n      0x00\n      swap1\n      sload\n      swap1\n      0x0100\n      exp\n      swap1\n      div\n      0xffffffffffffffffffffffffffffffffffffffff\n      and\n      dup2\n      jump\t// out\n        /* \"contracts/TestInterview.sol\":758:899  function rarityRateFunc (string memory _nameRarity) public view returns(uint256) {... */\n    tag_27:\n        /* \"contracts/TestInterview.sol\":830:837  uint256 */\n      0x00\n        /* \"contracts/TestInterview.sol\":857:864  objINFT */\n      0x01\n      0x00\n      swap1\n      sload\n      swap1\n      0x0100\n      exp\n      swap1\n      div\n      0xffffffffffffffffffffffffffffffffffffffff\n      and\n        /* \"contracts/TestInterview.sol\":857:878  objINFT.getRarityRate */\n      0xffffffffffffffffffffffffffffffffffffffff\n      and\n      0x278a7f33\n        /* \"contracts/TestInterview.sol\":879:890  _nameRarity */\n      dup4\n        /* \"contracts/TestInterview.sol\":857:891  objINFT.getRarityRate(_nameRarity) */\n      mload(0x40)\n      dup3\n      0xffffffff\n      and\n      0xe0\n      shl\n      dup2\n      mstore\n      0x04\n      add\n      tag_46\n      swap2\n      swap1\n      tag_14\n      jump\t// in\n    tag_46:\n      0x20\n      mload(0x40)\n      dup1\n      dup4\n      sub\n      dup2\n      dup7\n      dup1\n      extcodesize\n      iszero\n      dup1\n      iszero\n      tag_47\n      jumpi\n      0x00\n      dup1\n      revert\n    tag_47:\n      pop\n      gas\n      staticcall\n      iszero\n      dup1\n      iszero\n      tag_49\n      jumpi\n      returndatasize\n      0x00\n      dup1\n      returndatacopy\n      revert(0x00, returndatasize)\n    tag_49:\n      pop\n      pop\n      pop\n      pop\n      mload(0x40)\n      returndatasize\n      not(0x1f)\n      0x1f\n      dup3\n      add\n      and\n      dup3\n      add\n      dup1\n      0x40\n      mstore\n      pop\n      dup2\n      add\n      swap1\n      tag_50\n      swap2\n      swap1\n      tag_51\n      jump\t// in\n    tag_50:\n        /* \"contracts/TestInterview.sol\":850:891  return objINFT.getRarityRate(_nameRarity) */\n      0xff\n      and\n      swap1\n      pop\n        /* \"contracts/TestInterview.sol\":758:899  function rarityRateFunc (string memory _nameRarity) public view returns(uint256) {... */\n      swap2\n      swap1\n      pop\n      jump\t// out\n        /* \"contracts/TestInterview.sol\":573:750  function rarityListFunc () public view returns(string memory) {... */\n    tag_31:\n        /* \"contracts/TestInterview.sol\":620:633  string memory */\n      0x60\n        /* \"contracts/TestInterview.sol\":646:678  string[3] memory localRarityList */\n      0x00\n        /* \"contracts/TestInterview.sol\":681:688  objINFT */\n      0x01\n      0x00\n      swap1\n      sload\n      swap1\n      0x0100\n      exp\n      swap1\n      div\n      0xffffffffffffffffffffffffffffffffffffffff\n      and\n        /* \"contracts/TestInterview.sol\":681:702  objINFT.getRarityList */\n      0xffffffffffffffffffffffffffffffffffffffff\n      and\n      0x48441d5f\n        /* \"contracts/TestInterview.sol\":681:704  objINFT.getRarityList() */\n      mload(0x40)\n      dup2\n      0xffffffff\n      and\n      0xe0\n      shl\n      dup2\n      mstore\n      0x04\n      add\n      0x00\n      mload(0x40)\n      dup1\n      dup4\n      sub\n      dup2\n      dup7\n      dup1\n      extcodesize\n      iszero\n      dup1\n      iszero\n      tag_53\n      jumpi\n      0x00\n      dup1\n      revert\n    tag_53:\n      pop\n      gas\n      staticcall\n      iszero\n      dup1\n      iszero\n      tag_55\n      jumpi\n      returndatasize\n      0x00\n      dup1\n      returndatacopy\n      revert(0x00, returndatasize)\n    tag_55:\n      pop\n      pop\n      pop\n      pop\n      mload(0x40)\n      returndatasize\n      0x00\n      dup3\n      returndatacopy\n      returndatasize\n      not(0x1f)\n      0x1f\n      dup3\n      add\n      and\n      dup3\n      add\n      dup1\n      0x40\n      mstore\n      pop\n      dup2\n      add\n      swap1\n      tag_56\n      swap2\n      swap1\n      tag_57\n      jump\t// in\n    tag_56:\n        /* \"contracts/TestInterview.sol\":646:704  string[3] memory localRarityList = objINFT.getRarityList() */\n      swap1\n      pop\n        /* \"contracts/TestInterview.sol\":724:739  localRarityList */\n      dup1\n        /* \"contracts/TestInterview.sol\":740:741  1 */\n      0x01\n        /* \"contracts/TestInterview.sol\":724:742  localRarityList[1] */\n      0x03\n      dup2\n      lt\n      tag_58\n      jumpi\n      tag_59\n      tag_60\n      jump\t// in\n    tag_59:\n    tag_58:\n      0x20\n      mul\n      add\n      mload\n        /* \"contracts/TestInterview.sol\":717:742  return localRarityList[1] */\n      swap2\n      pop\n      pop\n        /* \"contracts/TestInterview.sol\":573:750  function rarityListFunc () public view returns(string memory) {... */\n      swap1\n      jump\t// out\n        /* \"contracts/TestInterview.sol\":907:1560  function createGatcha () public {... */\n    tag_34:\n        /* \"contracts/TestInterview.sol\":986:998  bool isFound */\n      0x00\n        /* \"contracts/TestInterview.sol\":1021:1034  uint256 index */\n      dup1\n        /* \"contracts/TestInterview.sol\":1017:1346  for(uint256 index = 0; index < registeredUsers.length; index ++ ) {... */\n    tag_62:\n        /* \"contracts/TestInterview.sol\":1048:1063  registeredUsers */\n      0x03\n        /* \"contracts/TestInterview.sol\":1048:1070  registeredUsers.length */\n      dup1\n      sload\n      swap1\n      pop\n        /* \"contracts/TestInterview.sol\":1040:1045  index */\n      dup2\n        /* \"contracts/TestInterview.sol\":1040:1070  index < registeredUsers.length */\n      lt\n        /* \"contracts/TestInterview.sol\":1017:1346  for(uint256 index = 0; index < registeredUsers.length; index ++ ) {... */\n      iszero\n      tag_63\n      jumpi\n        /* \"contracts/TestInterview.sol\":1098:1135  RegisteredUser memory localRegistered */\n      0x00\n        /* \"contracts/TestInterview.sol\":1138:1153  registeredUsers */\n      0x03\n        /* \"contracts/TestInterview.sol\":1154:1159  index */\n      dup3\n        /* \"contracts/TestInterview.sol\":1138:1160  registeredUsers[index] */\n      dup2\n      sload\n      dup2\n      lt\n      tag_65\n      jumpi\n      tag_66\n      tag_60\n      jump\t// in\n    tag_66:\n    tag_65:\n      swap1\n      0x00\n      mstore\n      keccak256(0x00, 0x20)\n      swap1\n      0x02\n      mul\n      add\n        /* \"contracts/TestInterview.sol\":1098:1160  RegisteredUser memory localRegistered = registeredUsers[index] */\n      mload(0x40)\n      dup1\n      0x40\n      add\n      0x40\n      mstore\n      swap1\n      dup2\n      0x00\n      dup3\n      add\n      0x00\n      swap1\n      sload\n      swap1\n      0x0100\n      exp\n      swap1\n      div\n      0xffffffffffffffffffffffffffffffffffffffff\n      and\n      0xffffffffffffffffffffffffffffffffffffffff\n      and\n      0xffffffffffffffffffffffffffffffffffffffff\n      and\n      dup2\n      mstore\n      0x20\n      add\n      0x01\n      dup3\n      add\n      sload\n      dup2\n      mstore\n      pop\n      pop\n      swap1\n      pop\n        /* \"contracts/TestInterview.sol\":1209:1219  msg.sender */\n      caller\n        /* \"contracts/TestInterview.sol\":1178:1219  localRegistered.userAddress == msg.sender */\n      0xffffffffffffffffffffffffffffffffffffffff\n      and\n        /* \"contracts/TestInterview.sol\":1178:1193  localRegistered */\n      dup2\n        /* \"contracts/TestInterview.sol\":1178:1205  localRegistered.userAddress */\n      0x00\n      add\n      mload\n        /* \"contracts/TestInterview.sol\":1178:1219  localRegistered.userAddress == msg.sender */\n      0xffffffffffffffffffffffffffffffffffffffff\n      and\n      eq\n        /* \"contracts/TestInterview.sol\":1175:1335  if(localRegistered.userAddress == msg.sender)... */\n      iszero\n      tag_68\n      jumpi\n        /* \"contracts/TestInterview.sol\":1263:1267  true */\n      0x01\n        /* \"contracts/TestInterview.sol\":1253:1267  isFound = true */\n      swap3\n      pop\n        /* \"contracts/TestInterview.sol\":1286:1301  localRegistered */\n      dup1\n        /* \"contracts/TestInterview.sol\":1286:1316  localRegistered.counterVisited */\n      0x20\n      add\n        /* \"contracts/TestInterview.sol\":1286:1319  localRegistered.counterVisited ++ */\n      dup1\n      mload\n      dup1\n      swap2\n      swap1\n      tag_69\n      swap1\n      tag_70\n      jump\t// in\n    tag_69:\n      dup2\n      mstore\n      pop\n      pop\n        /* \"contracts/TestInterview.sol\":1175:1335  if(localRegistered.userAddress == msg.sender)... */\n    tag_68:\n        /* \"contracts/TestInterview.sol\":1083:1346  {... */\n      pop\n        /* \"contracts/TestInterview.sol\":1072:1080  index ++ */\n      dup1\n      dup1\n      tag_71\n      swap1\n      tag_70\n      jump\t// in\n    tag_71:\n      swap2\n      pop\n      pop\n        /* \"contracts/TestInterview.sol\":1017:1346  for(uint256 index = 0; index < registeredUsers.length; index ++ ) {... */\n      jump(tag_62)\n    tag_63:\n      pop\n        /* \"contracts/TestInterview.sol\":1362:1369  isFound */\n      dup1\n        /* \"contracts/TestInterview.sol\":1358:1543  if(!isFound) {... */\n      tag_72\n      jumpi\n        /* \"contracts/TestInterview.sol\":1386:1419  RegisteredUser memory newRegister */\n      0x00\n        /* \"contracts/TestInterview.sol\":1422:1483  RegisteredUser({userAddress : msg.sender, counterVisited :0}) */\n      mload(0x40)\n      dup1\n      0x40\n      add\n      0x40\n      mstore\n      dup1\n        /* \"contracts/TestInterview.sol\":1452:1462  msg.sender */\n      caller\n        /* \"contracts/TestInterview.sol\":1422:1483  RegisteredUser({userAddress : msg.sender, counterVisited :0}) */\n      0xffffffffffffffffffffffffffffffffffffffff\n      and\n      dup2\n      mstore\n      0x20\n      add\n        /* \"contracts/TestInterview.sol\":1480:1481  0 */\n      0x00\n        /* \"contracts/TestInterview.sol\":1422:1483  RegisteredUser({userAddress : msg.sender, counterVisited :0}) */\n      dup2\n      mstore\n      pop\n        /* \"contracts/TestInterview.sol\":1386:1483  RegisteredUser memory newRegister = RegisteredUser({userAddress : msg.sender, counterVisited :0}) */\n      swap1\n      pop\n        /* \"contracts/TestInterview.sol\":1498:1513  registeredUsers */\n      0x03\n        /* \"contracts/TestInterview.sol\":1519:1530  newRegister */\n      dup2\n        /* \"contracts/TestInterview.sol\":1498:1531  registeredUsers.push(newRegister) */\n      swap1\n      dup1\n      0x01\n      dup2\n      sload\n      add\n      dup1\n      dup3\n      sstore\n      dup1\n      swap2\n      pop\n      pop\n      0x01\n      swap1\n      sub\n      swap1\n      0x00\n      mstore\n      keccak256(0x00, 0x20)\n      swap1\n      0x02\n      mul\n      add\n      0x00\n      swap1\n      swap2\n      swap1\n      swap2\n      swap1\n      swap2\n      pop\n      0x00\n      dup3\n      add\n      mload\n      dup2\n      0x00\n      add\n      exp(0x0100, 0x00)\n      dup2\n      sload\n      dup2\n      0xffffffffffffffffffffffffffffffffffffffff\n      mul\n      not\n      and\n      swap1\n      dup4\n      0xffffffffffffffffffffffffffffffffffffffff\n      and\n      mul\n      or\n      swap1\n      sstore\n      pop\n      0x20\n      dup3\n      add\n      mload\n      dup2\n      0x01\n      add\n      sstore\n      pop\n      pop\n        /* \"contracts/TestInterview.sol\":1371:1543  {... */\n      pop\n        /* \"contracts/TestInterview.sol\":1358:1543  if(!isFound) {... */\n    tag_72:\n        /* \"contracts/TestInterview.sol\":939:1560  {... */\n      pop\n        /* \"contracts/TestInterview.sol\":907:1560  function createGatcha () public {... */\n      jump\t// out\n        /* \"#utility.yul\":7:82   */\n    tag_74:\n        /* \"#utility.yul\":40:46   */\n      0x00\n        /* \"#utility.yul\":73:75   */\n      0x40\n        /* \"#utility.yul\":67:76   */\n      mload\n        /* \"#utility.yul\":57:76   */\n      swap1\n      pop\n        /* \"#utility.yul\":7:82   */\n      swap1\n      jump\t// out\n        /* \"#utility.yul\":88:205   */\n    tag_75:\n        /* \"#utility.yul\":197:198   */\n      0x00\n        /* \"#utility.yul\":194:195   */\n      dup1\n        /* \"#utility.yul\":187:199   */\n      revert\n        /* \"#utility.yul\":211:328   */\n    tag_76:\n        /* \"#utility.yul\":320:321   */\n      0x00\n        /* \"#utility.yul\":317:318   */\n      dup1\n        /* \"#utility.yul\":310:322   */\n      revert\n        /* \"#utility.yul\":334:411   */\n    tag_77:\n        /* \"#utility.yul\":371:378   */\n      0x00\n        /* \"#utility.yul\":400:405   */\n      dup2\n        /* \"#utility.yul\":389:405   */\n      swap1\n      pop\n        /* \"#utility.yul\":334:411   */\n      swap2\n      swap1\n      pop\n      jump\t// out\n        /* \"#utility.yul\":417:539   */\n    tag_78:\n        /* \"#utility.yul\":490:514   */\n      tag_115\n        /* \"#utility.yul\":508:513   */\n      dup2\n        /* \"#utility.yul\":490:514   */\n      tag_77\n      jump\t// in\n    tag_115:\n        /* \"#utility.yul\":483:488   */\n      dup2\n        /* \"#utility.yul\":480:515   */\n      eq\n        /* \"#utility.yul\":470:533   */\n      tag_116\n      jumpi\n        /* \"#utility.yul\":529:530   */\n      0x00\n        /* \"#utility.yul\":526:527   */\n      dup1\n        /* \"#utility.yul\":519:531   */\n      revert\n        /* \"#utility.yul\":470:533   */\n    tag_116:\n        /* \"#utility.yul\":417:539   */\n      pop\n      jump\t// out\n        /* \"#utility.yul\":545:684   */\n    tag_79:\n        /* \"#utility.yul\":591:596   */\n      0x00\n        /* \"#utility.yul\":629:635   */\n      dup2\n        /* \"#utility.yul\":616:636   */\n      calldataload\n        /* \"#utility.yul\":607:636   */\n      swap1\n      pop\n        /* \"#utility.yul\":645:678   */\n      tag_118\n        /* \"#utility.yul\":672:677   */\n      dup2\n        /* \"#utility.yul\":645:678   */\n      tag_78\n      jump\t// in\n    tag_118:\n        /* \"#utility.yul\":545:684   */\n      swap3\n      swap2\n      pop\n      pop\n      jump\t// out\n        /* \"#utility.yul\":690:1019   */\n    tag_11:\n        /* \"#utility.yul\":749:755   */\n      0x00\n        /* \"#utility.yul\":798:800   */\n      0x20\n        /* \"#utility.yul\":786:795   */\n      dup3\n        /* \"#utility.yul\":777:784   */\n      dup5\n        /* \"#utility.yul\":773:796   */\n      sub\n        /* \"#utility.yul\":769:801   */\n      slt\n        /* \"#utility.yul\":766:885   */\n      iszero\n      tag_120\n      jumpi\n        /* \"#utility.yul\":804:883   */\n      tag_121\n      tag_75\n      jump\t// in\n    tag_121:\n        /* \"#utility.yul\":766:885   */\n    tag_120:\n        /* \"#utility.yul\":924:925   */\n      0x00\n        /* \"#utility.yul\":949:1002   */\n      tag_122\n        /* \"#utility.yul\":994:1001   */\n      dup5\n        /* \"#utility.yul\":985:991   */\n      dup3\n        /* \"#utility.yul\":974:983   */\n      dup6\n        /* \"#utility.yul\":970:992   */\n      add\n        /* \"#utility.yul\":949:1002   */\n      tag_79\n      jump\t// in\n    tag_122:\n        /* \"#utility.yul\":939:1002   */\n      swap2\n      pop\n        /* \"#utility.yul\":895:1012   */\n      pop\n        /* \"#utility.yul\":690:1019   */\n      swap3\n      swap2\n      pop\n      pop\n      jump\t// out\n        /* \"#utility.yul\":1025:1124   */\n    tag_80:\n        /* \"#utility.yul\":1077:1083   */\n      0x00\n        /* \"#utility.yul\":1111:1116   */\n      dup2\n        /* \"#utility.yul\":1105:1117   */\n      mload\n        /* \"#utility.yul\":1095:1117   */\n      swap1\n      pop\n        /* \"#utility.yul\":1025:1124   */\n      swap2\n      swap1\n      pop\n      jump\t// out\n        /* \"#utility.yul\":1130:1299   */\n    tag_81:\n        /* \"#utility.yul\":1214:1225   */\n      0x00\n        /* \"#utility.yul\":1248:1254   */\n      dup3\n        /* \"#utility.yul\":1243:1246   */\n      dup3\n        /* \"#utility.yul\":1236:1255   */\n      mstore\n        /* \"#utility.yul\":1288:1292   */\n      0x20\n        /* \"#utility.yul\":1283:1286   */\n      dup3\n        /* \"#utility.yul\":1279:1293   */\n      add\n        /* \"#utility.yul\":1264:1293   */\n      swap1\n      pop\n        /* \"#utility.yul\":1130:1299   */\n      swap3\n      swap2\n      pop\n      pop\n      jump\t// out\n        /* \"#utility.yul\":1305:1612   */\n    tag_82:\n        /* \"#utility.yul\":1373:1374   */\n      0x00\n        /* \"#utility.yul\":1383:1496   */\n    tag_126:\n        /* \"#utility.yul\":1397:1403   */\n      dup4\n        /* \"#utility.yul\":1394:1395   */\n      dup2\n        /* \"#utility.yul\":1391:1404   */\n      lt\n        /* \"#utility.yul\":1383:1496   */\n      iszero\n      tag_128\n      jumpi\n        /* \"#utility.yul\":1482:1483   */\n      dup1\n        /* \"#utility.yul\":1477:1480   */\n      dup3\n        /* \"#utility.yul\":1473:1484   */\n      add\n        /* \"#utility.yul\":1467:1485   */\n      mload\n        /* \"#utility.yul\":1463:1464   */\n      dup2\n        /* \"#utility.yul\":1458:1461   */\n      dup5\n        /* \"#utility.yul\":1454:1465   */\n      add\n        /* \"#utility.yul\":1447:1486   */\n      mstore\n        /* \"#utility.yul\":1419:1421   */\n      0x20\n        /* \"#utility.yul\":1416:1417   */\n      dup2\n        /* \"#utility.yul\":1412:1422   */\n      add\n        /* \"#utility.yul\":1407:1422   */\n      swap1\n      pop\n        /* \"#utility.yul\":1383:1496   */\n      jump(tag_126)\n    tag_128:\n        /* \"#utility.yul\":1514:1520   */\n      dup4\n        /* \"#utility.yul\":1511:1512   */\n      dup2\n        /* \"#utility.yul\":1508:1521   */\n      gt\n        /* \"#utility.yul\":1505:1606   */\n      iszero\n      tag_129\n      jumpi\n        /* \"#utility.yul\":1594:1595   */\n      0x00\n        /* \"#utility.yul\":1585:1591   */\n      dup5\n        /* \"#utility.yul\":1580:1583   */\n      dup5\n        /* \"#utility.yul\":1576:1592   */\n      add\n        /* \"#utility.yul\":1569:1596   */\n      mstore\n        /* \"#utility.yul\":1505:1606   */\n    tag_129:\n        /* \"#utility.yul\":1354:1612   */\n      pop\n        /* \"#utility.yul\":1305:1612   */\n      pop\n      pop\n      pop\n      jump\t// out\n        /* \"#utility.yul\":1618:1720   */\n    tag_83:\n        /* \"#utility.yul\":1659:1665   */\n      0x00\n        /* \"#utility.yul\":1710:1712   */\n      0x1f\n        /* \"#utility.yul\":1706:1713   */\n      not\n        /* \"#utility.yul\":1701:1703   */\n      0x1f\n        /* \"#utility.yul\":1694:1699   */\n      dup4\n        /* \"#utility.yul\":1690:1704   */\n      add\n        /* \"#utility.yul\":1686:1714   */\n      and\n        /* \"#utility.yul\":1676:1714   */\n      swap1\n      pop\n        /* \"#utility.yul\":1618:1720   */\n      swap2\n      swap1\n      pop\n      jump\t// out\n        /* \"#utility.yul\":1726:2090   */\n    tag_84:\n        /* \"#utility.yul\":1814:1817   */\n      0x00\n        /* \"#utility.yul\":1842:1881   */\n      tag_132\n        /* \"#utility.yul\":1875:1880   */\n      dup3\n        /* \"#utility.yul\":1842:1881   */\n      tag_80\n      jump\t// in\n    tag_132:\n        /* \"#utility.yul\":1897:1968   */\n      tag_133\n        /* \"#utility.yul\":1961:1967   */\n      dup2\n        /* \"#utility.yul\":1956:1959   */\n      dup6\n        /* \"#utility.yul\":1897:1968   */\n      tag_81\n      jump\t// in\n    tag_133:\n        /* \"#utility.yul\":1890:1968   */\n      swap4\n      pop\n        /* \"#utility.yul\":1977:2029   */\n      tag_134\n        /* \"#utility.yul\":2022:2028   */\n      dup2\n        /* \"#utility.yul\":2017:2020   */\n      dup6\n        /* \"#utility.yul\":2010:2014   */\n      0x20\n        /* \"#utility.yul\":2003:2008   */\n      dup7\n        /* \"#utility.yul\":1999:2015   */\n      add\n        /* \"#utility.yul\":1977:2029   */\n      tag_82\n      jump\t// in\n    tag_134:\n        /* \"#utility.yul\":2054:2083   */\n      tag_135\n        /* \"#utility.yul\":2076:2082   */\n      dup2\n        /* \"#utility.yul\":2054:2083   */\n      tag_83\n      jump\t// in\n    tag_135:\n        /* \"#utility.yul\":2049:2052   */\n      dup5\n        /* \"#utility.yul\":2045:2084   */\n      add\n        /* \"#utility.yul\":2038:2084   */\n      swap2\n      pop\n        /* \"#utility.yul\":1818:2090   */\n      pop\n        /* \"#utility.yul\":1726:2090   */\n      swap3\n      swap2\n      pop\n      pop\n      jump\t// out\n        /* \"#utility.yul\":2096:2409   */\n    tag_14:\n        /* \"#utility.yul\":2209:2213   */\n      0x00\n        /* \"#utility.yul\":2247:2249   */\n      0x20\n        /* \"#utility.yul\":2236:2245   */\n      dup3\n        /* \"#utility.yul\":2232:2250   */\n      add\n        /* \"#utility.yul\":2224:2250   */\n      swap1\n      pop\n        /* \"#utility.yul\":2296:2305   */\n      dup2\n        /* \"#utility.yul\":2290:2294   */\n      dup2\n        /* \"#utility.yul\":2286:2306   */\n      sub\n        /* \"#utility.yul\":2282:2283   */\n      0x00\n        /* \"#utility.yul\":2271:2280   */\n      dup4\n        /* \"#utility.yul\":2267:2284   */\n      add\n        /* \"#utility.yul\":2260:2307   */\n      mstore\n        /* \"#utility.yul\":2324:2402   */\n      tag_137\n        /* \"#utility.yul\":2397:2401   */\n      dup2\n        /* \"#utility.yul\":2388:2394   */\n      dup5\n        /* \"#utility.yul\":2324:2402   */\n      tag_84\n      jump\t// in\n    tag_137:\n        /* \"#utility.yul\":2316:2402   */\n      swap1\n      pop\n        /* \"#utility.yul\":2096:2409   */\n      swap3\n      swap2\n      pop\n      pop\n      jump\t// out\n        /* \"#utility.yul\":2415:2541   */\n    tag_85:\n        /* \"#utility.yul\":2452:2459   */\n      0x00\n        /* \"#utility.yul\":2492:2534   */\n      0xffffffffffffffffffffffffffffffffffffffff\n        /* \"#utility.yul\":2485:2490   */\n      dup3\n        /* \"#utility.yul\":2481:2535   */\n      and\n        /* \"#utility.yul\":2470:2535   */\n      swap1\n      pop\n        /* \"#utility.yul\":2415:2541   */\n      swap2\n      swap1\n      pop\n      jump\t// out\n        /* \"#utility.yul\":2547:2643   */\n    tag_86:\n        /* \"#utility.yul\":2584:2591   */\n      0x00\n        /* \"#utility.yul\":2613:2637   */\n      tag_140\n        /* \"#utility.yul\":2631:2636   */\n      dup3\n        /* \"#utility.yul\":2613:2637   */\n      tag_85\n      jump\t// in\n    tag_140:\n        /* \"#utility.yul\":2602:2637   */\n      swap1\n      pop\n        /* \"#utility.yul\":2547:2643   */\n      swap2\n      swap1\n      pop\n      jump\t// out\n        /* \"#utility.yul\":2649:2767   */\n    tag_87:\n        /* \"#utility.yul\":2736:2760   */\n      tag_142\n        /* \"#utility.yul\":2754:2759   */\n      dup2\n        /* \"#utility.yul\":2736:2760   */\n      tag_86\n      jump\t// in\n    tag_142:\n        /* \"#utility.yul\":2731:2734   */\n      dup3\n        /* \"#utility.yul\":2724:2761   */\n      mstore\n        /* \"#utility.yul\":2649:2767   */\n      pop\n      pop\n      jump\t// out\n        /* \"#utility.yul\":2773:2891   */\n    tag_88:\n        /* \"#utility.yul\":2860:2884   */\n      tag_144\n        /* \"#utility.yul\":2878:2883   */\n      dup2\n        /* \"#utility.yul\":2860:2884   */\n      tag_77\n      jump\t// in\n    tag_144:\n        /* \"#utility.yul\":2855:2858   */\n      dup3\n        /* \"#utility.yul\":2848:2885   */\n      mstore\n        /* \"#utility.yul\":2773:2891   */\n      pop\n      pop\n      jump\t// out\n        /* \"#utility.yul\":2897:3229   */\n    tag_19:\n        /* \"#utility.yul\":3018:3022   */\n      0x00\n        /* \"#utility.yul\":3056:3058   */\n      0x40\n        /* \"#utility.yul\":3045:3054   */\n      dup3\n        /* \"#utility.yul\":3041:3059   */\n      add\n        /* \"#utility.yul\":3033:3059   */\n      swap1\n      pop\n        /* \"#utility.yul\":3069:3140   */\n      tag_146\n        /* \"#utility.yul\":3137:3138   */\n      0x00\n        /* \"#utility.yul\":3126:3135   */\n      dup4\n        /* \"#utility.yul\":3122:3139   */\n      add\n        /* \"#utility.yul\":3113:3119   */\n      dup6\n        /* \"#utility.yul\":3069:3140   */\n      tag_87\n      jump\t// in\n    tag_146:\n        /* \"#utility.yul\":3150:3222   */\n      tag_147\n        /* \"#utility.yul\":3218:3220   */\n      0x20\n        /* \"#utility.yul\":3207:3216   */\n      dup4\n        /* \"#utility.yul\":3203:3221   */\n      add\n        /* \"#utility.yul\":3194:3200   */\n      dup5\n        /* \"#utility.yul\":3150:3222   */\n      tag_88\n      jump\t// in\n    tag_147:\n        /* \"#utility.yul\":2897:3229   */\n      swap4\n      swap3\n      pop\n      pop\n      pop\n      jump\t// out\n        /* \"#utility.yul\":3235:3457   */\n    tag_23:\n        /* \"#utility.yul\":3328:3332   */\n      0x00\n        /* \"#utility.yul\":3366:3368   */\n      0x20\n        /* \"#utility.yul\":3355:3364   */\n      dup3\n        /* \"#utility.yul\":3351:3369   */\n      add\n        /* \"#utility.yul\":3343:3369   */\n      swap1\n      pop\n        /* \"#utility.yul\":3379:3450   */\n      tag_149\n        /* \"#utility.yul\":3447:3448   */\n      0x00\n        /* \"#utility.yul\":3436:3445   */\n      dup4\n        /* \"#utility.yul\":3432:3449   */\n      add\n        /* \"#utility.yul\":3423:3429   */\n      dup5\n        /* \"#utility.yul\":3379:3450   */\n      tag_87\n      jump\t// in\n    tag_149:\n        /* \"#utility.yul\":3235:3457   */\n      swap3\n      swap2\n      pop\n      pop\n      jump\t// out\n        /* \"#utility.yul\":3463:3580   */\n    tag_89:\n        /* \"#utility.yul\":3572:3573   */\n      0x00\n        /* \"#utility.yul\":3569:3570   */\n      dup1\n        /* \"#utility.yul\":3562:3574   */\n      revert\n        /* \"#utility.yul\":3586:3703   */\n    tag_90:\n        /* \"#utility.yul\":3695:3696   */\n      0x00\n        /* \"#utility.yul\":3692:3693   */\n      dup1\n        /* \"#utility.yul\":3685:3697   */\n      revert\n        /* \"#utility.yul\":3709:3889   */\n    tag_91:\n        /* \"#utility.yul\":3757:3834   */\n      0x4e487b7100000000000000000000000000000000000000000000000000000000\n        /* \"#utility.yul\":3754:3755   */\n      0x00\n        /* \"#utility.yul\":3747:3835   */\n      mstore\n        /* \"#utility.yul\":3854:3858   */\n      0x41\n        /* \"#utility.yul\":3851:3852   */\n      0x04\n        /* \"#utility.yul\":3844:3859   */\n      mstore\n        /* \"#utility.yul\":3878:3882   */\n      0x24\n        /* \"#utility.yul\":3875:3876   */\n      0x00\n        /* \"#utility.yul\":3868:3883   */\n      revert\n        /* \"#utility.yul\":3895:4176   */\n    tag_92:\n        /* \"#utility.yul\":3978:4005   */\n      tag_154\n        /* \"#utility.yul\":4000:4004   */\n      dup3\n        /* \"#utility.yul\":3978:4005   */\n      tag_83\n      jump\t// in\n    tag_154:\n        /* \"#utility.yul\":3970:3976   */\n      dup2\n        /* \"#utility.yul\":3966:4006   */\n      add\n        /* \"#utility.yul\":4108:4114   */\n      dup2\n        /* \"#utility.yul\":4096:4106   */\n      dup2\n        /* \"#utility.yul\":4093:4115   */\n      lt\n        /* \"#utility.yul\":4072:4090   */\n      0xffffffffffffffff\n        /* \"#utility.yul\":4060:4070   */\n      dup3\n        /* \"#utility.yul\":4057:4091   */\n      gt\n        /* \"#utility.yul\":4054:4116   */\n      or\n        /* \"#utility.yul\":4051:4139   */\n      iszero\n      tag_155\n      jumpi\n        /* \"#utility.yul\":4119:4137   */\n      tag_156\n      tag_91\n      jump\t// in\n    tag_156:\n        /* \"#utility.yul\":4051:4139   */\n    tag_155:\n        /* \"#utility.yul\":4159:4169   */\n      dup1\n        /* \"#utility.yul\":4155:4157   */\n      0x40\n        /* \"#utility.yul\":4148:4170   */\n      mstore\n        /* \"#utility.yul\":3938:4176   */\n      pop\n        /* \"#utility.yul\":3895:4176   */\n      pop\n      pop\n      jump\t// out\n        /* \"#utility.yul\":4182:4311   */\n    tag_93:\n        /* \"#utility.yul\":4216:4222   */\n      0x00\n        /* \"#utility.yul\":4243:4263   */\n      tag_158\n      tag_74\n      jump\t// in\n    tag_158:\n        /* \"#utility.yul\":4233:4263   */\n      swap1\n      pop\n        /* \"#utility.yul\":4272:4305   */\n      tag_159\n        /* \"#utility.yul\":4300:4304   */\n      dup3\n        /* \"#utility.yul\":4292:4298   */\n      dup3\n        /* \"#utility.yul\":4272:4305   */\n      tag_92\n      jump\t// in\n    tag_159:\n        /* \"#utility.yul\":4182:4311   */\n      swap2\n      swap1\n      pop\n      jump\t// out\n        /* \"#utility.yul\":4317:4625   */\n    tag_94:\n        /* \"#utility.yul\":4379:4383   */\n      0x00\n        /* \"#utility.yul\":4469:4487   */\n      0xffffffffffffffff\n        /* \"#utility.yul\":4461:4467   */\n      dup3\n        /* \"#utility.yul\":4458:4488   */\n      gt\n        /* \"#utility.yul\":4455:4511   */\n      iszero\n      tag_161\n      jumpi\n        /* \"#utility.yul\":4491:4509   */\n      tag_162\n      tag_91\n      jump\t// in\n    tag_162:\n        /* \"#utility.yul\":4455:4511   */\n    tag_161:\n        /* \"#utility.yul\":4529:4558   */\n      tag_163\n        /* \"#utility.yul\":4551:4557   */\n      dup3\n        /* \"#utility.yul\":4529:4558   */\n      tag_83\n      jump\t// in\n    tag_163:\n        /* \"#utility.yul\":4521:4558   */\n      swap1\n      pop\n        /* \"#utility.yul\":4613:4617   */\n      0x20\n        /* \"#utility.yul\":4607:4611   */\n      dup2\n        /* \"#utility.yul\":4603:4618   */\n      add\n        /* \"#utility.yul\":4595:4618   */\n      swap1\n      pop\n        /* \"#utility.yul\":4317:4625   */\n      swap2\n      swap1\n      pop\n      jump\t// out\n        /* \"#utility.yul\":4631:4785   */\n    tag_95:\n        /* \"#utility.yul\":4715:4721   */\n      dup3\n        /* \"#utility.yul\":4710:4713   */\n      dup2\n        /* \"#utility.yul\":4705:4708   */\n      dup4\n        /* \"#utility.yul\":4692:4722   */\n      calldatacopy\n        /* \"#utility.yul\":4777:4778   */\n      0x00\n        /* \"#utility.yul\":4768:4774   */\n      dup4\n        /* \"#utility.yul\":4763:4766   */\n      dup4\n        /* \"#utility.yul\":4759:4775   */\n      add\n        /* \"#utility.yul\":4752:4779   */\n      mstore\n        /* \"#utility.yul\":4631:4785   */\n      pop\n      pop\n      pop\n      jump\t// out\n        /* \"#utility.yul\":4791:5203   */\n    tag_96:\n        /* \"#utility.yul\":4869:4874   */\n      0x00\n        /* \"#utility.yul\":4894:4960   */\n      tag_166\n        /* \"#utility.yul\":4910:4959   */\n      tag_167\n        /* \"#utility.yul\":4952:4958   */\n      dup5\n        /* \"#utility.yul\":4910:4959   */\n      tag_94\n      jump\t// in\n    tag_167:\n        /* \"#utility.yul\":4894:4960   */\n      tag_93\n      jump\t// in\n    tag_166:\n        /* \"#utility.yul\":4885:4960   */\n      swap1\n      pop\n        /* \"#utility.yul\":4983:4989   */\n      dup3\n        /* \"#utility.yul\":4976:4981   */\n      dup2\n        /* \"#utility.yul\":4969:4990   */\n      mstore\n        /* \"#utility.yul\":5021:5025   */\n      0x20\n        /* \"#utility.yul\":5014:5019   */\n      dup2\n        /* \"#utility.yul\":5010:5026   */\n      add\n        /* \"#utility.yul\":5059:5062   */\n      dup5\n        /* \"#utility.yul\":5050:5056   */\n      dup5\n        /* \"#utility.yul\":5045:5048   */\n      dup5\n        /* \"#utility.yul\":5041:5057   */\n      add\n        /* \"#utility.yul\":5038:5063   */\n      gt\n        /* \"#utility.yul\":5035:5147   */\n      iszero\n      tag_168\n      jumpi\n        /* \"#utility.yul\":5066:5145   */\n      tag_169\n      tag_90\n      jump\t// in\n    tag_169:\n        /* \"#utility.yul\":5035:5147   */\n    tag_168:\n        /* \"#utility.yul\":5156:5197   */\n      tag_170\n        /* \"#utility.yul\":5190:5196   */\n      dup5\n        /* \"#utility.yul\":5185:5188   */\n      dup3\n        /* \"#utility.yul\":5180:5183   */\n      dup6\n        /* \"#utility.yul\":5156:5197   */\n      tag_95\n      jump\t// in\n    tag_170:\n        /* \"#utility.yul\":4875:5203   */\n      pop\n        /* \"#utility.yul\":4791:5203   */\n      swap4\n      swap3\n      pop\n      pop\n      pop\n      jump\t// out\n        /* \"#utility.yul\":5223:5563   */\n    tag_97:\n        /* \"#utility.yul\":5279:5284   */\n      0x00\n        /* \"#utility.yul\":5328:5331   */\n      dup3\n        /* \"#utility.yul\":5321:5325   */\n      0x1f\n        /* \"#utility.yul\":5313:5319   */\n      dup4\n        /* \"#utility.yul\":5309:5326   */\n      add\n        /* \"#utility.yul\":5305:5332   */\n      slt\n        /* \"#utility.yul\":5295:5417   */\n      tag_172\n      jumpi\n        /* \"#utility.yul\":5336:5415   */\n      tag_173\n      tag_89\n      jump\t// in\n    tag_173:\n        /* \"#utility.yul\":5295:5417   */\n    tag_172:\n        /* \"#utility.yul\":5453:5459   */\n      dup2\n        /* \"#utility.yul\":5440:5460   */\n      calldataload\n        /* \"#utility.yul\":5478:5557   */\n      tag_174\n        /* \"#utility.yul\":5553:5556   */\n      dup5\n        /* \"#utility.yul\":5545:5551   */\n      dup3\n        /* \"#utility.yul\":5538:5542   */\n      0x20\n        /* \"#utility.yul\":5530:5536   */\n      dup7\n        /* \"#utility.yul\":5526:5543   */\n      add\n        /* \"#utility.yul\":5478:5557   */\n      tag_96\n      jump\t// in\n    tag_174:\n        /* \"#utility.yul\":5469:5557   */\n      swap2\n      pop\n        /* \"#utility.yul\":5285:5563   */\n      pop\n        /* \"#utility.yul\":5223:5563   */\n      swap3\n      swap2\n      pop\n      pop\n      jump\t// out\n        /* \"#utility.yul\":5569:6078   */\n    tag_26:\n        /* \"#utility.yul\":5638:5644   */\n      0x00\n        /* \"#utility.yul\":5687:5689   */\n      0x20\n        /* \"#utility.yul\":5675:5684   */\n      dup3\n        /* \"#utility.yul\":5666:5673   */\n      dup5\n        /* \"#utility.yul\":5662:5685   */\n      sub\n        /* \"#utility.yul\":5658:5690   */\n      slt\n        /* \"#utility.yul\":5655:5774   */\n      iszero\n      tag_176\n      jumpi\n        /* \"#utility.yul\":5693:5772   */\n      tag_177\n      tag_75\n      jump\t// in\n    tag_177:\n        /* \"#utility.yul\":5655:5774   */\n    tag_176:\n        /* \"#utility.yul\":5841:5842   */\n      0x00\n        /* \"#utility.yul\":5830:5839   */\n      dup3\n        /* \"#utility.yul\":5826:5843   */\n      add\n        /* \"#utility.yul\":5813:5844   */\n      calldataload\n        /* \"#utility.yul\":5871:5889   */\n      0xffffffffffffffff\n        /* \"#utility.yul\":5863:5869   */\n      dup2\n        /* \"#utility.yul\":5860:5890   */\n      gt\n        /* \"#utility.yul\":5857:5974   */\n      iszero\n      tag_178\n      jumpi\n        /* \"#utility.yul\":5893:5972   */\n      tag_179\n      tag_76\n      jump\t// in\n    tag_179:\n        /* \"#utility.yul\":5857:5974   */\n    tag_178:\n        /* \"#utility.yul\":5998:6061   */\n      tag_180\n        /* \"#utility.yul\":6053:6060   */\n      dup5\n        /* \"#utility.yul\":6044:6050   */\n      dup3\n        /* \"#utility.yul\":6033:6042   */\n      dup6\n        /* \"#utility.yul\":6029:6051   */\n      add\n        /* \"#utility.yul\":5998:6061   */\n      tag_97\n      jump\t// in\n    tag_180:\n        /* \"#utility.yul\":5988:6061   */\n      swap2\n      pop\n        /* \"#utility.yul\":5784:6071   */\n      pop\n        /* \"#utility.yul\":5569:6078   */\n      swap3\n      swap2\n      pop\n      pop\n      jump\t// out\n        /* \"#utility.yul\":6084:6306   */\n    tag_29:\n        /* \"#utility.yul\":6177:6181   */\n      0x00\n        /* \"#utility.yul\":6215:6217   */\n      0x20\n        /* \"#utility.yul\":6204:6213   */\n      dup3\n        /* \"#utility.yul\":6200:6218   */\n      add\n        /* \"#utility.yul\":6192:6218   */\n      swap1\n      pop\n        /* \"#utility.yul\":6228:6299   */\n      tag_182\n        /* \"#utility.yul\":6296:6297   */\n      0x00\n        /* \"#utility.yul\":6285:6294   */\n      dup4\n        /* \"#utility.yul\":6281:6298   */\n      add\n        /* \"#utility.yul\":6272:6278   */\n      dup5\n        /* \"#utility.yul\":6228:6299   */\n      tag_88\n      jump\t// in\n    tag_182:\n        /* \"#utility.yul\":6084:6306   */\n      swap3\n      swap2\n      pop\n      pop\n      jump\t// out\n        /* \"#utility.yul\":6312:6492   */\n    tag_98:\n        /* \"#utility.yul\":6360:6437   */\n      0x4e487b7100000000000000000000000000000000000000000000000000000000\n        /* \"#utility.yul\":6357:6358   */\n      0x00\n        /* \"#utility.yul\":6350:6438   */\n      mstore\n        /* \"#utility.yul\":6457:6461   */\n      0x22\n        /* \"#utility.yul\":6454:6455   */\n      0x04\n        /* \"#utility.yul\":6447:6462   */\n      mstore\n        /* \"#utility.yul\":6481:6485   */\n      0x24\n        /* \"#utility.yul\":6478:6479   */\n      0x00\n        /* \"#utility.yul\":6471:6486   */\n      revert\n        /* \"#utility.yul\":6498:6818   */\n    tag_38:\n        /* \"#utility.yul\":6542:6548   */\n      0x00\n        /* \"#utility.yul\":6579:6580   */\n      0x02\n        /* \"#utility.yul\":6573:6577   */\n      dup3\n        /* \"#utility.yul\":6569:6581   */\n      div\n        /* \"#utility.yul\":6559:6581   */\n      swap1\n      pop\n        /* \"#utility.yul\":6626:6627   */\n      0x01\n        /* \"#utility.yul\":6620:6624   */\n      dup3\n        /* \"#utility.yul\":6616:6628   */\n      and\n        /* \"#utility.yul\":6647:6665   */\n      dup1\n        /* \"#utility.yul\":6637:6718   */\n      tag_185\n      jumpi\n        /* \"#utility.yul\":6703:6707   */\n      0x7f\n        /* \"#utility.yul\":6695:6701   */\n      dup3\n        /* \"#utility.yul\":6691:6708   */\n      and\n        /* \"#utility.yul\":6681:6708   */\n      swap2\n      pop\n        /* \"#utility.yul\":6637:6718   */\n    tag_185:\n        /* \"#utility.yul\":6765:6767   */\n      0x20\n        /* \"#utility.yul\":6757:6763   */\n      dup3\n        /* \"#utility.yul\":6754:6768   */\n      lt\n        /* \"#utility.yul\":6734:6752   */\n      dup2\n        /* \"#utility.yul\":6731:6769   */\n      eq\n        /* \"#utility.yul\":6728:6812   */\n      iszero\n      tag_186\n      jumpi\n        /* \"#utility.yul\":6784:6802   */\n      tag_187\n      tag_98\n      jump\t// in\n    tag_187:\n        /* \"#utility.yul\":6728:6812   */\n    tag_186:\n        /* \"#utility.yul\":6549:6818   */\n      pop\n        /* \"#utility.yul\":6498:6818   */\n      swap2\n      swap1\n      pop\n      jump\t// out\n        /* \"#utility.yul\":6824:6910   */\n    tag_99:\n        /* \"#utility.yul\":6859:6866   */\n      0x00\n        /* \"#utility.yul\":6899:6903   */\n      0xff\n        /* \"#utility.yul\":6892:6897   */\n      dup3\n        /* \"#utility.yul\":6888:6904   */\n      and\n        /* \"#utility.yul\":6877:6904   */\n      swap1\n      pop\n        /* \"#utility.yul\":6824:6910   */\n      swap2\n      swap1\n      pop\n      jump\t// out\n        /* \"#utility.yul\":6916:7034   */\n    tag_100:\n        /* \"#utility.yul\":6987:7009   */\n      tag_190\n        /* \"#utility.yul\":7003:7008   */\n      dup2\n        /* \"#utility.yul\":6987:7009   */\n      tag_99\n      jump\t// in\n    tag_190:\n        /* \"#utility.yul\":6980:6985   */\n      dup2\n        /* \"#utility.yul\":6977:7010   */\n      eq\n        /* \"#utility.yul\":6967:7028   */\n      tag_191\n      jumpi\n        /* \"#utility.yul\":7024:7025   */\n      0x00\n        /* \"#utility.yul\":7021:7022   */\n      dup1\n        /* \"#utility.yul\":7014:7026   */\n      revert\n        /* \"#utility.yul\":6967:7028   */\n    tag_191:\n        /* \"#utility.yul\":6916:7034   */\n      pop\n      jump\t// out\n        /* \"#utility.yul\":7040:7179   */\n    tag_101:\n        /* \"#utility.yul\":7095:7100   */\n      0x00\n        /* \"#utility.yul\":7126:7132   */\n      dup2\n        /* \"#utility.yul\":7120:7133   */\n      mload\n        /* \"#utility.yul\":7111:7133   */\n      swap1\n      pop\n        /* \"#utility.yul\":7142:7173   */\n      tag_193\n        /* \"#utility.yul\":7167:7172   */\n      dup2\n        /* \"#utility.yul\":7142:7173   */\n      tag_100\n      jump\t// in\n    tag_193:\n        /* \"#utility.yul\":7040:7179   */\n      swap3\n      swap2\n      pop\n      pop\n      jump\t// out\n        /* \"#utility.yul\":7185:7532   */\n    tag_51:\n        /* \"#utility.yul\":7253:7259   */\n      0x00\n        /* \"#utility.yul\":7302:7304   */\n      0x20\n        /* \"#utility.yul\":7290:7299   */\n      dup3\n        /* \"#utility.yul\":7281:7288   */\n      dup5\n        /* \"#utility.yul\":7277:7300   */\n      sub\n        /* \"#utility.yul\":7273:7305   */\n      slt\n        /* \"#utility.yul\":7270:7389   */\n      iszero\n      tag_195\n      jumpi\n        /* \"#utility.yul\":7308:7387   */\n      tag_196\n      tag_75\n      jump\t// in\n    tag_196:\n        /* \"#utility.yul\":7270:7389   */\n    tag_195:\n        /* \"#utility.yul\":7428:7429   */\n      0x00\n        /* \"#utility.yul\":7453:7515   */\n      tag_197\n        /* \"#utility.yul\":7507:7514   */\n      dup5\n        /* \"#utility.yul\":7498:7504   */\n      dup3\n        /* \"#utility.yul\":7487:7496   */\n      dup6\n        /* \"#utility.yul\":7483:7505   */\n      add\n        /* \"#utility.yul\":7453:7515   */\n      tag_101\n      jump\t// in\n    tag_197:\n        /* \"#utility.yul\":7443:7515   */\n      swap2\n      pop\n        /* \"#utility.yul\":7399:7525   */\n      pop\n        /* \"#utility.yul\":7185:7532   */\n      swap3\n      swap2\n      pop\n      pop\n      jump\t// out\n        /* \"#utility.yul\":7538:7797   */\n    tag_102:\n        /* \"#utility.yul\":7623:7627   */\n      0x00\n        /* \"#utility.yul\":7713:7731   */\n      0xffffffffffffffff\n        /* \"#utility.yul\":7705:7711   */\n      dup3\n        /* \"#utility.yul\":7702:7732   */\n      gt\n        /* \"#utility.yul\":7699:7755   */\n      iszero\n      tag_199\n      jumpi\n        /* \"#utility.yul\":7735:7753   */\n      tag_200\n      tag_91\n      jump\t// in\n    tag_200:\n        /* \"#utility.yul\":7699:7755   */\n    tag_199:\n        /* \"#utility.yul\":7785:7789   */\n      0x20\n        /* \"#utility.yul\":7777:7783   */\n      dup3\n        /* \"#utility.yul\":7773:7790   */\n      mul\n        /* \"#utility.yul\":7765:7790   */\n      swap1\n      pop\n        /* \"#utility.yul\":7538:7797   */\n      swap2\n      swap1\n      pop\n      jump\t// out\n        /* \"#utility.yul\":7803:7920   */\n    tag_103:\n        /* \"#utility.yul\":7912:7913   */\n      0x00\n        /* \"#utility.yul\":7909:7910   */\n      dup1\n        /* \"#utility.yul\":7902:7914   */\n      revert\n        /* \"#utility.yul\":7926:8347   */\n    tag_104:\n        /* \"#utility.yul\":8015:8020   */\n      0x00\n        /* \"#utility.yul\":8040:8106   */\n      tag_203\n        /* \"#utility.yul\":8056:8105   */\n      tag_204\n        /* \"#utility.yul\":8098:8104   */\n      dup5\n        /* \"#utility.yul\":8056:8105   */\n      tag_94\n      jump\t// in\n    tag_204:\n        /* \"#utility.yul\":8040:8106   */\n      tag_93\n      jump\t// in\n    tag_203:\n        /* \"#utility.yul\":8031:8106   */\n      swap1\n      pop\n        /* \"#utility.yul\":8129:8135   */\n      dup3\n        /* \"#utility.yul\":8122:8127   */\n      dup2\n        /* \"#utility.yul\":8115:8136   */\n      mstore\n        /* \"#utility.yul\":8167:8171   */\n      0x20\n        /* \"#utility.yul\":8160:8165   */\n      dup2\n        /* \"#utility.yul\":8156:8172   */\n      add\n        /* \"#utility.yul\":8205:8208   */\n      dup5\n        /* \"#utility.yul\":8196:8202   */\n      dup5\n        /* \"#utility.yul\":8191:8194   */\n      dup5\n        /* \"#utility.yul\":8187:8203   */\n      add\n        /* \"#utility.yul\":8184:8209   */\n      gt\n        /* \"#utility.yul\":8181:8293   */\n      iszero\n      tag_205\n      jumpi\n        /* \"#utility.yul\":8212:8291   */\n      tag_206\n      tag_90\n      jump\t// in\n    tag_206:\n        /* \"#utility.yul\":8181:8293   */\n    tag_205:\n        /* \"#utility.yul\":8302:8341   */\n      tag_207\n        /* \"#utility.yul\":8334:8340   */\n      dup5\n        /* \"#utility.yul\":8329:8332   */\n      dup3\n        /* \"#utility.yul\":8324:8327   */\n      dup6\n        /* \"#utility.yul\":8302:8341   */\n      tag_82\n      jump\t// in\n    tag_207:\n        /* \"#utility.yul\":8021:8347   */\n      pop\n        /* \"#utility.yul\":7926:8347   */\n      swap4\n      swap3\n      pop\n      pop\n      pop\n      jump\t// out\n        /* \"#utility.yul\":8367:8722   */\n    tag_105:\n        /* \"#utility.yul\":8434:8439   */\n      0x00\n        /* \"#utility.yul\":8483:8486   */\n      dup3\n        /* \"#utility.yul\":8476:8480   */\n      0x1f\n        /* \"#utility.yul\":8468:8474   */\n      dup4\n        /* \"#utility.yul\":8464:8481   */\n      add\n        /* \"#utility.yul\":8460:8487   */\n      slt\n        /* \"#utility.yul\":8450:8572   */\n      tag_209\n      jumpi\n        /* \"#utility.yul\":8491:8570   */\n      tag_210\n      tag_89\n      jump\t// in\n    tag_210:\n        /* \"#utility.yul\":8450:8572   */\n    tag_209:\n        /* \"#utility.yul\":8601:8607   */\n      dup2\n        /* \"#utility.yul\":8595:8608   */\n      mload\n        /* \"#utility.yul\":8626:8716   */\n      tag_211\n        /* \"#utility.yul\":8712:8715   */\n      dup5\n        /* \"#utility.yul\":8704:8710   */\n      dup3\n        /* \"#utility.yul\":8697:8701   */\n      0x20\n        /* \"#utility.yul\":8689:8695   */\n      dup7\n        /* \"#utility.yul\":8685:8702   */\n      add\n        /* \"#utility.yul\":8626:8716   */\n      tag_104\n      jump\t// in\n    tag_211:\n        /* \"#utility.yul\":8617:8716   */\n      swap2\n      pop\n        /* \"#utility.yul\":8440:8722   */\n      pop\n        /* \"#utility.yul\":8367:8722   */\n      swap3\n      swap2\n      pop\n      pop\n      jump\t// out\n        /* \"#utility.yul\":8745:9638   */\n    tag_106:\n        /* \"#utility.yul\":8860:8865   */\n      0x00\n        /* \"#utility.yul\":8885:8974   */\n      tag_213\n        /* \"#utility.yul\":8901:8973   */\n      tag_214\n        /* \"#utility.yul\":8966:8972   */\n      dup5\n        /* \"#utility.yul\":8901:8973   */\n      tag_102\n      jump\t// in\n    tag_214:\n        /* \"#utility.yul\":8885:8974   */\n      tag_93\n      jump\t// in\n    tag_213:\n        /* \"#utility.yul\":8876:8974   */\n      swap1\n      pop\n        /* \"#utility.yul\":8994:8999   */\n      dup1\n        /* \"#utility.yul\":9047:9051   */\n      0x20\n        /* \"#utility.yul\":9039:9045   */\n      dup5\n        /* \"#utility.yul\":9035:9052   */\n      mul\n        /* \"#utility.yul\":9027:9033   */\n      dup4\n        /* \"#utility.yul\":9023:9053   */\n      add\n        /* \"#utility.yul\":9076:9079   */\n      dup6\n        /* \"#utility.yul\":9068:9074   */\n      dup2\n        /* \"#utility.yul\":9065:9080   */\n      gt\n        /* \"#utility.yul\":9062:9184   */\n      iszero\n      tag_215\n      jumpi\n        /* \"#utility.yul\":9095:9174   */\n      tag_216\n      tag_103\n      jump\t// in\n    tag_216:\n        /* \"#utility.yul\":9062:9184   */\n    tag_215:\n        /* \"#utility.yul\":9210:9216   */\n      dup4\n        /* \"#utility.yul\":9193:9632   */\n    tag_217:\n        /* \"#utility.yul\":9227:9233   */\n      dup2\n        /* \"#utility.yul\":9222:9225   */\n      dup2\n        /* \"#utility.yul\":9219:9234   */\n      lt\n        /* \"#utility.yul\":9193:9632   */\n      iszero\n      tag_219\n      jumpi\n        /* \"#utility.yul\":9309:9312   */\n      dup1\n        /* \"#utility.yul\":9303:9313   */\n      mload\n        /* \"#utility.yul\":9345:9363   */\n      0xffffffffffffffff\n        /* \"#utility.yul\":9332:9343   */\n      dup2\n        /* \"#utility.yul\":9329:9364   */\n      gt\n        /* \"#utility.yul\":9326:9448   */\n      iszero\n      tag_220\n      jumpi\n        /* \"#utility.yul\":9367:9446   */\n      tag_221\n      tag_89\n      jump\t// in\n    tag_221:\n        /* \"#utility.yul\":9326:9448   */\n    tag_220:\n        /* \"#utility.yul\":9491:9502   */\n      dup1\n        /* \"#utility.yul\":9483:9489   */\n      dup7\n        /* \"#utility.yul\":9479:9503   */\n      add\n        /* \"#utility.yul\":9529:9587   */\n      tag_222\n        /* \"#utility.yul\":9583:9586   */\n      dup10\n        /* \"#utility.yul\":9571:9581   */\n      dup3\n        /* \"#utility.yul\":9529:9587   */\n      tag_105\n      jump\t// in\n    tag_222:\n        /* \"#utility.yul\":9524:9527   */\n      dup6\n        /* \"#utility.yul\":9517:9588   */\n      mstore\n        /* \"#utility.yul\":9617:9621   */\n      0x20\n        /* \"#utility.yul\":9612:9615   */\n      dup6\n        /* \"#utility.yul\":9608:9622   */\n      add\n        /* \"#utility.yul\":9601:9622   */\n      swap5\n      pop\n        /* \"#utility.yul\":9269:9632   */\n      pop\n      pop\n        /* \"#utility.yul\":9253:9257   */\n      0x20\n        /* \"#utility.yul\":9248:9251   */\n      dup2\n        /* \"#utility.yul\":9244:9258   */\n      add\n        /* \"#utility.yul\":9237:9258   */\n      swap1\n      pop\n        /* \"#utility.yul\":9193:9632   */\n      jump(tag_217)\n    tag_219:\n        /* \"#utility.yul\":9197:9218   */\n      pop\n        /* \"#utility.yul\":8866:9638   */\n      pop\n      pop\n        /* \"#utility.yul\":8745:9638   */\n      swap4\n      swap3\n      pop\n      pop\n      pop\n      jump\t// out\n        /* \"#utility.yul\":9661:10042   */\n    tag_107:\n        /* \"#utility.yul\":9751:9756   */\n      0x00\n        /* \"#utility.yul\":9800:9803   */\n      dup3\n        /* \"#utility.yul\":9793:9797   */\n      0x1f\n        /* \"#utility.yul\":9785:9791   */\n      dup4\n        /* \"#utility.yul\":9781:9798   */\n      add\n        /* \"#utility.yul\":9777:9804   */\n      slt\n        /* \"#utility.yul\":9767:9889   */\n      tag_224\n      jumpi\n        /* \"#utility.yul\":9808:9887   */\n      tag_225\n      tag_89\n      jump\t// in\n    tag_225:\n        /* \"#utility.yul\":9767:9889   */\n    tag_224:\n        /* \"#utility.yul\":9912:9916   */\n      0x03\n        /* \"#utility.yul\":9934:10036   */\n      tag_226\n        /* \"#utility.yul\":10032:10035   */\n      dup5\n        /* \"#utility.yul\":10024:10030   */\n      dup3\n        /* \"#utility.yul\":10016:10022   */\n      dup6\n        /* \"#utility.yul\":9934:10036   */\n      tag_106\n      jump\t// in\n    tag_226:\n        /* \"#utility.yul\":9925:10036   */\n      swap2\n      pop\n        /* \"#utility.yul\":9757:10042   */\n      pop\n        /* \"#utility.yul\":9661:10042   */\n      swap3\n      swap2\n      pop\n      pop\n      jump\t// out\n        /* \"#utility.yul\":10048:10618   */\n    tag_57:\n        /* \"#utility.yul\":10151:10157   */\n      0x00\n        /* \"#utility.yul\":10200:10202   */\n      0x20\n        /* \"#utility.yul\":10188:10197   */\n      dup3\n        /* \"#utility.yul\":10179:10186   */\n      dup5\n        /* \"#utility.yul\":10175:10198   */\n      sub\n        /* \"#utility.yul\":10171:10203   */\n      slt\n        /* \"#utility.yul\":10168:10287   */\n      iszero\n      tag_228\n      jumpi\n        /* \"#utility.yul\":10206:10285   */\n      tag_229\n      tag_75\n      jump\t// in\n    tag_229:\n        /* \"#utility.yul\":10168:10287   */\n    tag_228:\n        /* \"#utility.yul\":10347:10348   */\n      0x00\n        /* \"#utility.yul\":10336:10345   */\n      dup3\n        /* \"#utility.yul\":10332:10349   */\n      add\n        /* \"#utility.yul\":10326:10350   */\n      mload\n        /* \"#utility.yul\":10377:10395   */\n      0xffffffffffffffff\n        /* \"#utility.yul\":10369:10375   */\n      dup2\n        /* \"#utility.yul\":10366:10396   */\n      gt\n        /* \"#utility.yul\":10363:10480   */\n      iszero\n      tag_230\n      jumpi\n        /* \"#utility.yul\":10399:10478   */\n      tag_231\n      tag_76\n      jump\t// in\n    tag_231:\n        /* \"#utility.yul\":10363:10480   */\n    tag_230:\n        /* \"#utility.yul\":10504:10601   */\n      tag_232\n        /* \"#utility.yul\":10593:10600   */\n      dup5\n        /* \"#utility.yul\":10584:10590   */\n      dup3\n        /* \"#utility.yul\":10573:10582   */\n      dup6\n        /* \"#utility.yul\":10569:10591   */\n      add\n        /* \"#utility.yul\":10504:10601   */\n      tag_107\n      jump\t// in\n    tag_232:\n        /* \"#utility.yul\":10494:10601   */\n      swap2\n      pop\n        /* \"#utility.yul\":10297:10611   */\n      pop\n        /* \"#utility.yul\":10048:10618   */\n      swap3\n      swap2\n      pop\n      pop\n      jump\t// out\n        /* \"#utility.yul\":10624:10804   */\n    tag_60:\n        /* \"#utility.yul\":10672:10749   */\n      0x4e487b7100000000000000000000000000000000000000000000000000000000\n        /* \"#utility.yul\":10669:10670   */\n      0x00\n        /* \"#utility.yul\":10662:10750   */\n      mstore\n        /* \"#utility.yul\":10769:10773   */\n      0x32\n        /* \"#utility.yul\":10766:10767   */\n      0x04\n        /* \"#utility.yul\":10759:10774   */\n      mstore\n        /* \"#utility.yul\":10793:10797   */\n      0x24\n        /* \"#utility.yul\":10790:10791   */\n      0x00\n        /* \"#utility.yul\":10783:10798   */\n      revert\n        /* \"#utility.yul\":10810:10990   */\n    tag_108:\n        /* \"#utility.yul\":10858:10935   */\n      0x4e487b7100000000000000000000000000000000000000000000000000000000\n        /* \"#utility.yul\":10855:10856   */\n      0x00\n        /* \"#utility.yul\":10848:10936   */\n      mstore\n        /* \"#utility.yul\":10955:10959   */\n      0x11\n        /* \"#utility.yul\":10952:10953   */\n      0x04\n        /* \"#utility.yul\":10945:10960   */\n      mstore\n        /* \"#utility.yul\":10979:10983   */\n      0x24\n        /* \"#utility.yul\":10976:10977   */\n      0x00\n        /* \"#utility.yul\":10969:10984   */\n      revert\n        /* \"#utility.yul\":10996:11229   */\n    tag_70:\n        /* \"#utility.yul\":11035:11038   */\n      0x00\n        /* \"#utility.yul\":11058:11082   */\n      tag_236\n        /* \"#utility.yul\":11076:11081   */\n      dup3\n        /* \"#utility.yul\":11058:11082   */\n      tag_77\n      jump\t// in\n    tag_236:\n        /* \"#utility.yul\":11049:11082   */\n      swap2\n      pop\n        /* \"#utility.yul\":11104:11170   */\n      0xffffffffffffffffffffffffffffffffffffffffffffffffffffffffffffffff\n        /* \"#utility.yul\":11097:11102   */\n      dup3\n        /* \"#utility.yul\":11094:11171   */\n      eq\n        /* \"#utility.yul\":11091:11194   */\n      iszero\n      tag_237\n      jumpi\n        /* \"#utility.yul\":11174:11192   */\n      tag_238\n      tag_108\n      jump\t// in\n    tag_238:\n        /* \"#utility.yul\":11091:11194   */\n    tag_237:\n        /* \"#utility.yul\":11221:11222   */\n      0x01\n        /* \"#utility.yul\":11214:11219   */\n      dup3\n        /* \"#utility.yul\":11210:11223   */\n      add\n        /* \"#utility.yul\":11203:11223   */\n      swap1\n      pop\n        /* \"#utility.yul\":10996:11229   */\n      swap2\n      swap1\n      pop\n      jump\t// out\n\n    auxdata: 0xa264697066735822122090fee14e9ffd89838388db518a8624412373ba83e012c093928053267306521464736f6c63430008080033\n}\n",
				"bytecode": {
					"linkReferences": {},
					"object": "60806040527350c7a09925375438d2cee94c5c59266c6ffaaf8c600160006101000a81548173ffffffffffffffffffffffffffffffffffffffff021916908373ffffffffffffffffffffffffffffffffffffffff16021790555073dbddb8575f6bda11f1dc548a1b546463cc567c3d600260006101000a81548173ffffffffffffffffffffffffffffffffffffffff021916908373ffffffffffffffffffffffffffffffffffffffff1602179055503480156100ba57600080fd5b50610c38806100ca6000396000f3fe608060405234801561001057600080fd5b50600436106100625760003560e01c80636fd3d9e2146100675780637259e0f8146100975780638f84aa09146100c8578063a7beb5d0146100e6578063bb4a376b14610116578063e917ec9614610134575b600080fd5b610081600480360381019061007c91906105f2565b61013e565b60405161008e91906106b8565b60405180910390f35b6100b160048036038101906100ac91906105f2565b6101ea565b6040516100bf92919061072a565b60405180910390f35b6100d061023e565b6040516100dd9190610753565b60405180910390f35b61010060048036038101906100fb91906108a3565b610264565b60405161010d91906108ec565b60405180910390f35b61011e61031b565b60405161012b91906106b8565b60405180910390f35b61013c6103e5565b005b6000818154811061014e57600080fd5b90600052602060002001600091509050805461016990610936565b80601f016020809104026020016040519081016040528092919081815260200182805461019590610936565b80156101e25780601f106101b7576101008083540402835291602001916101e2565b820191906000526020600020905b8154815290600101906020018083116101c557829003601f168201915b505050505081565b600381815481106101fa57600080fd5b90600052602060002090600202016000915090508060000160009054906101000a900473ffffffffffffffffffffffffffffffffffffffff16908060010154905082565b600260009054906101000a900473ffffffffffffffffffffffffffffffffffffffff1681565b6000600160009054906101000a900473ffffffffffffffffffffffffffffffffffffffff1673ffffffffffffffffffffffffffffffffffffffff1663278a7f33836040518263ffffffff1660e01b81526004016102c191906106b8565b60206040518083038186803b1580156102d957600080fd5b505afa1580156102ed573d6000803e3d6000fd5b505050506040513d601f19601f8201168201806040525081019061031191906109a1565b60ff169050919050565b60606000600160009054906101000a900473ffffffffffffffffffffffffffffffffffffffff1673ffffffffffffffffffffffffffffffffffffffff166348441d5f6040518163ffffffff1660e01b815260040160006040518083038186803b15801561038757600080fd5b505afa15801561039b573d6000803e3d6000fd5b505050506040513d6000823e3d601f19601f820116820180604052508101906103c49190610b12565b9050806001600381106103da576103d9610b5b565b5b602002015191505090565b6000805b6003805490508110156104ee5760006003828154811061040c5761040b610b5b565b5b90600052602060002090600202016040518060400160405290816000820160009054906101000a900473ffffffffffffffffffffffffffffffffffffffff1673ffffffffffffffffffffffffffffffffffffffff1673ffffffffffffffffffffffffffffffffffffffff16815260200160018201548152505090503373ffffffffffffffffffffffffffffffffffffffff16816000015173ffffffffffffffffffffffffffffffffffffffff1614156104da57600192508060200180518091906104d590610bb9565b815250505b5080806104e690610bb9565b9150506103e9565b50806105a557600060405180604001604052803373ffffffffffffffffffffffffffffffffffffffff16815260200160008152509050600381908060018154018082558091505060019003906000526020600020906002020160009091909190915060008201518160000160006101000a81548173ffffffffffffffffffffffffffffffffffffffff021916908373ffffffffffffffffffffffffffffffffffffffff160217905550602082015181600101555050505b50565b6000604051905090565b600080fd5b600080fd5b6000819050919050565b6105cf816105bc565b81146105da57600080fd5b50565b6000813590506105ec816105c6565b92915050565b600060208284031215610608576106076105b2565b5b6000610616848285016105dd565b91505092915050565b600081519050919050565b600082825260208201905092915050565b60005b8381101561065957808201518184015260208101905061063e565b83811115610668576000848401525b50505050565b6000601f19601f8301169050919050565b600061068a8261061f565b610694818561062a565b93506106a481856020860161063b565b6106ad8161066e565b840191505092915050565b600060208201905081810360008301526106d2818461067f565b905092915050565b600073ffffffffffffffffffffffffffffffffffffffff82169050919050565b6000610705826106da565b9050919050565b610715816106fa565b82525050565b610724816105bc565b82525050565b600060408201905061073f600083018561070c565b61074c602083018461071b565b9392505050565b6000602082019050610768600083018461070c565b92915050565b600080fd5b600080fd5b7f4e487b7100000000000000000000000000000000000000000000000000000000600052604160045260246000fd5b6107b08261066e565b810181811067ffffffffffffffff821117156107cf576107ce610778565b5b80604052505050565b60006107e26105a8565b90506107ee82826107a7565b919050565b600067ffffffffffffffff82111561080e5761080d610778565b5b6108178261066e565b9050602081019050919050565b82818337600083830152505050565b6000610846610841846107f3565b6107d8565b90508281526020810184848401111561086257610861610773565b5b61086d848285610824565b509392505050565b600082601f83011261088a5761088961076e565b5b813561089a848260208601610833565b91505092915050565b6000602082840312156108b9576108b86105b2565b5b600082013567ffffffffffffffff8111156108d7576108d66105b7565b5b6108e384828501610875565b91505092915050565b6000602082019050610901600083018461071b565b92915050565b7f4e487b7100000000000000000000000000000000000000000000000000000000600052602260045260246000fd5b6000600282049050600182168061094e57607f821691505b6020821081141561096257610961610907565b5b50919050565b600060ff82169050919050565b61097e81610968565b811461098957600080fd5b50565b60008151905061099b81610975565b92915050565b6000602082840312156109b7576109b66105b2565b5b60006109c58482850161098c565b91505092915050565b600067ffffffffffffffff8211156109e9576109e8610778565b5b602082029050919050565b600080fd5b6000610a0c610a07846107f3565b6107d8565b905082815260208101848484011115610a2857610a27610773565b5b610a3384828561063b565b509392505050565b600082601f830112610a5057610a4f61076e565b5b8151610a608482602086016109f9565b91505092915050565b6000610a7c610a77846109ce565b6107d8565b90508060208402830185811115610a9657610a956109f4565b5b835b81811015610add57805167ffffffffffffffff811115610abb57610aba61076e565b5b808601610ac88982610a3b565b85526020850194505050602081019050610a98565b5050509392505050565b600082601f830112610afc57610afb61076e565b5b6003610b09848285610a69565b91505092915050565b600060208284031215610b2857610b276105b2565b5b600082015167ffffffffffffffff811115610b4657610b456105b7565b5b610b5284828501610ae7565b91505092915050565b7f4e487b7100000000000000000000000000000000000000000000000000000000600052603260045260246000fd5b7f4e487b7100000000000000000000000000000000000000000000000000000000600052601160045260246000fd5b6000610bc4826105bc565b91507fffffffffffffffffffffffffffffffffffffffffffffffffffffffffffffffff821415610bf757610bf6610b8a565b5b60018201905091905056fea264697066735822122090fee14e9ffd89838388db518a8624412373ba83e012c093928053267306521464736f6c63430008080033",
					"opcodes": "PUSH1 0x80 PUSH1 0x40 MSTORE PUSH20 0x50C7A09925375438D2CEE94C5C59266C6FFAAF8C PUSH1 0x1 PUSH1 0x0 PUSH2 0x100 EXP DUP2 SLOAD DUP2 PUSH20 0xFFFFFFFFFFFFFFFFFFFFFFFFFFFFFFFFFFFFFFFF MUL NOT AND SWAP1 DUP4 PUSH20 0xFFFFFFFFFFFFFFFFFFFFFFFFFFFFFFFFFFFFFFFF AND MUL OR SWAP1 SSTORE POP PUSH20 0xDBDDB8575F6BDA11F1DC548A1B546463CC567C3D PUSH1 0x2 PUSH1 0x0 PUSH2 0x100 EXP DUP2 SLOAD DUP2 PUSH20 0xFFFFFFFFFFFFFFFFFFFFFFFFFFFFFFFFFFFFFFFF MUL NOT AND SWAP1 DUP4 PUSH20 0xFFFFFFFFFFFFFFFFFFFFFFFFFFFFFFFFFFFFFFFF AND MUL OR SWAP1 SSTORE POP CALLVALUE DUP1 ISZERO PUSH2 0xBA JUMPI PUSH1 0x0 DUP1 REVERT JUMPDEST POP PUSH2 0xC38 DUP1 PUSH2 0xCA PUSH1 0x0 CODECOPY PUSH1 0x0 RETURN INVALID PUSH1 0x80 PUSH1 0x40 MSTORE CALLVALUE DUP1 ISZERO PUSH2 0x10 JUMPI PUSH1 0x0 DUP1 REVERT JUMPDEST POP PUSH1 0x4 CALLDATASIZE LT PUSH2 0x62 JUMPI PUSH1 0x0 CALLDATALOAD PUSH1 0xE0 SHR DUP1 PUSH4 0x6FD3D9E2 EQ PUSH2 0x67 JUMPI DUP1 PUSH4 0x7259E0F8 EQ PUSH2 0x97 JUMPI DUP1 PUSH4 0x8F84AA09 EQ PUSH2 0xC8 JUMPI DUP1 PUSH4 0xA7BEB5D0 EQ PUSH2 0xE6 JUMPI DUP1 PUSH4 0xBB4A376B EQ PUSH2 0x116 JUMPI DUP1 PUSH4 0xE917EC96 EQ PUSH2 0x134 JUMPI JUMPDEST PUSH1 0x0 DUP1 REVERT JUMPDEST PUSH2 0x81 PUSH1 0x4 DUP1 CALLDATASIZE SUB DUP2 ADD SWAP1 PUSH2 0x7C SWAP2 SWAP1 PUSH2 0x5F2 JUMP JUMPDEST PUSH2 0x13E JUMP JUMPDEST PUSH1 0x40 MLOAD PUSH2 0x8E SWAP2 SWAP1 PUSH2 0x6B8 JUMP JUMPDEST PUSH1 0x40 MLOAD DUP1 SWAP2 SUB SWAP1 RETURN JUMPDEST PUSH2 0xB1 PUSH1 0x4 DUP1 CALLDATASIZE SUB DUP2 ADD SWAP1 PUSH2 0xAC SWAP2 SWAP1 PUSH2 0x5F2 JUMP JUMPDEST PUSH2 0x1EA JUMP JUMPDEST PUSH1 0x40 MLOAD PUSH2 0xBF SWAP3 SWAP2 SWAP1 PUSH2 0x72A JUMP JUMPDEST PUSH1 0x40 MLOAD DUP1 SWAP2 SUB SWAP1 RETURN JUMPDEST PUSH2 0xD0 PUSH2 0x23E JUMP JUMPDEST PUSH1 0x40 MLOAD PUSH2 0xDD SWAP2 SWAP1 PUSH2 0x753 JUMP JUMPDEST PUSH1 0x40 MLOAD DUP1 SWAP2 SUB SWAP1 RETURN JUMPDEST PUSH2 0x100 PUSH1 0x4 DUP1 CALLDATASIZE SUB DUP2 ADD SWAP1 PUSH2 0xFB SWAP2 SWAP1 PUSH2 0x8A3 JUMP JUMPDEST PUSH2 0x264 JUMP JUMPDEST PUSH1 0x40 MLOAD PUSH2 0x10D SWAP2 SWAP1 PUSH2 0x8EC JUMP JUMPDEST PUSH1 0x40 MLOAD DUP1 SWAP2 SUB SWAP1 RETURN JUMPDEST PUSH2 0x11E PUSH2 0x31B JUMP JUMPDEST PUSH1 0x40 MLOAD PUSH2 0x12B SWAP2 SWAP1 PUSH2 0x6B8 JUMP JUMPDEST PUSH1 0x40 MLOAD DUP1 SWAP2 SUB SWAP1 RETURN JUMPDEST PUSH2 0x13C PUSH2 0x3E5 JUMP JUMPDEST STOP JUMPDEST PUSH1 0x0 DUP2 DUP2 SLOAD DUP2 LT PUSH2 0x14E JUMPI PUSH1 0x0 DUP1 REVERT JUMPDEST SWAP1 PUSH1 0x0 MSTORE PUSH1 0x20 PUSH1 0x0 KECCAK256 ADD PUSH1 0x0 SWAP2 POP SWAP1 POP DUP1 SLOAD PUSH2 0x169 SWAP1 PUSH2 0x936 JUMP JUMPDEST DUP1 PUSH1 0x1F ADD PUSH1 0x20 DUP1 SWAP2 DIV MUL PUSH1 0x20 ADD PUSH1 0x40 MLOAD SWAP1 DUP2 ADD PUSH1 0x40 MSTORE DUP1 SWAP3 SWAP2 SWAP1 DUP2 DUP2 MSTORE PUSH1 0x20 ADD DUP3 DUP1 SLOAD PUSH2 0x195 SWAP1 PUSH2 0x936 JUMP JUMPDEST DUP1 ISZERO PUSH2 0x1E2 JUMPI DUP1 PUSH1 0x1F LT PUSH2 0x1B7 JUMPI PUSH2 0x100 DUP1 DUP4 SLOAD DIV MUL DUP4 MSTORE SWAP2 PUSH1 0x20 ADD SWAP2 PUSH2 0x1E2 JUMP JUMPDEST DUP3 ADD SWAP2 SWAP1 PUSH1 0x0 MSTORE PUSH1 0x20 PUSH1 0x0 KECCAK256 SWAP1 JUMPDEST DUP2 SLOAD DUP2 MSTORE SWAP1 PUSH1 0x1 ADD SWAP1 PUSH1 0x20 ADD DUP1 DUP4 GT PUSH2 0x1C5 JUMPI DUP3 SWAP1 SUB PUSH1 0x1F AND DUP3 ADD SWAP2 JUMPDEST POP POP POP POP POP DUP2 JUMP JUMPDEST PUSH1 0x3 DUP2 DUP2 SLOAD DUP2 LT PUSH2 0x1FA JUMPI PUSH1 0x0 DUP1 REVERT JUMPDEST SWAP1 PUSH1 0x0 MSTORE PUSH1 0x20 PUSH1 0x0 KECCAK256 SWAP1 PUSH1 0x2 MUL ADD PUSH1 0x0 SWAP2 POP SWAP1 POP DUP1 PUSH1 0x0 ADD PUSH1 0x0 SWAP1 SLOAD SWAP1 PUSH2 0x100 EXP SWAP1 DIV PUSH20 0xFFFFFFFFFFFFFFFFFFFFFFFFFFFFFFFFFFFFFFFF AND SWAP1 DUP1 PUSH1 0x1 ADD SLOAD SWAP1 POP DUP3 JUMP JUMPDEST PUSH1 0x2 PUSH1 0x0 SWAP1 SLOAD SWAP1 PUSH2 0x100 EXP SWAP1 DIV PUSH20 0xFFFFFFFFFFFFFFFFFFFFFFFFFFFFFFFFFFFFFFFF AND DUP2 JUMP JUMPDEST PUSH1 0x0 PUSH1 0x1 PUSH1 0x0 SWAP1 SLOAD SWAP1 PUSH2 0x100 EXP SWAP1 DIV PUSH20 0xFFFFFFFFFFFFFFFFFFFFFFFFFFFFFFFFFFFFFFFF AND PUSH20 0xFFFFFFFFFFFFFFFFFFFFFFFFFFFFFFFFFFFFFFFF AND PUSH4 0x278A7F33 DUP4 PUSH1 0x40 MLOAD DUP3 PUSH4 0xFFFFFFFF AND PUSH1 0xE0 SHL DUP2 MSTORE PUSH1 0x4 ADD PUSH2 0x2C1 SWAP2 SWAP1 PUSH2 0x6B8 JUMP JUMPDEST PUSH1 0x20 PUSH1 0x40 MLOAD DUP1 DUP4 SUB DUP2 DUP7 DUP1 EXTCODESIZE ISZERO DUP1 ISZERO PUSH2 0x2D9 JUMPI PUSH1 0x0 DUP1 REVERT JUMPDEST POP GAS STATICCALL ISZERO DUP1 ISZERO PUSH2 0x2ED JUMPI RETURNDATASIZE PUSH1 0x0 DUP1 RETURNDATACOPY RETURNDATASIZE PUSH1 0x0 REVERT JUMPDEST POP POP POP POP PUSH1 0x40 MLOAD RETURNDATASIZE PUSH1 0x1F NOT PUSH1 0x1F DUP3 ADD AND DUP3 ADD DUP1 PUSH1 0x40 MSTORE POP DUP2 ADD SWAP1 PUSH2 0x311 SWAP2 SWAP1 PUSH2 0x9A1 JUMP JUMPDEST PUSH1 0xFF AND SWAP1 POP SWAP2 SWAP1 POP JUMP JUMPDEST PUSH1 0x60 PUSH1 0x0 PUSH1 0x1 PUSH1 0x0 SWAP1 SLOAD SWAP1 PUSH2 0x100 EXP SWAP1 DIV PUSH20 0xFFFFFFFFFFFFFFFFFFFFFFFFFFFFFFFFFFFFFFFF AND PUSH20 0xFFFFFFFFFFFFFFFFFFFFFFFFFFFFFFFFFFFFFFFF AND PUSH4 0x48441D5F PUSH1 0x40 MLOAD DUP2 PUSH4 0xFFFFFFFF AND PUSH1 0xE0 SHL DUP2 MSTORE PUSH1 0x4 ADD PUSH1 0x0 PUSH1 0x40 MLOAD DUP1 DUP4 SUB DUP2 DUP7 DUP1 EXTCODESIZE ISZERO DUP1 ISZERO PUSH2 0x387 JUMPI PUSH1 0x0 DUP1 REVERT JUMPDEST POP GAS STATICCALL ISZERO DUP1 ISZERO PUSH2 0x39B JUMPI RETURNDATASIZE PUSH1 0x0 DUP1 RETURNDATACOPY RETURNDATASIZE PUSH1 0x0 REVERT JUMPDEST POP POP POP POP PUSH1 0x40 MLOAD RETURNDATASIZE PUSH1 0x0 DUP3 RETURNDATACOPY RETURNDATASIZE PUSH1 0x1F NOT PUSH1 0x1F DUP3 ADD AND DUP3 ADD DUP1 PUSH1 0x40 MSTORE POP DUP2 ADD SWAP1 PUSH2 0x3C4 SWAP2 SWAP1 PUSH2 0xB12 JUMP JUMPDEST SWAP1 POP DUP1 PUSH1 0x1 PUSH1 0x3 DUP2 LT PUSH2 0x3DA JUMPI PUSH2 0x3D9 PUSH2 0xB5B JUMP JUMPDEST JUMPDEST PUSH1 0x20 MUL ADD MLOAD SWAP2 POP POP SWAP1 JUMP JUMPDEST PUSH1 0x0 DUP1 JUMPDEST PUSH1 0x3 DUP1 SLOAD SWAP1 POP DUP2 LT ISZERO PUSH2 0x4EE JUMPI PUSH1 0x0 PUSH1 0x3 DUP3 DUP2 SLOAD DUP2 LT PUSH2 0x40C JUMPI PUSH2 0x40B PUSH2 0xB5B JUMP JUMPDEST JUMPDEST SWAP1 PUSH1 0x0 MSTORE PUSH1 0x20 PUSH1 0x0 KECCAK256 SWAP1 PUSH1 0x2 MUL ADD PUSH1 0x40 MLOAD DUP1 PUSH1 0x40 ADD PUSH1 0x40 MSTORE SWAP1 DUP2 PUSH1 0x0 DUP3 ADD PUSH1 0x0 SWAP1 SLOAD SWAP1 PUSH2 0x100 EXP SWAP1 DIV PUSH20 0xFFFFFFFFFFFFFFFFFFFFFFFFFFFFFFFFFFFFFFFF AND PUSH20 0xFFFFFFFFFFFFFFFFFFFFFFFFFFFFFFFFFFFFFFFF AND PUSH20 0xFFFFFFFFFFFFFFFFFFFFFFFFFFFFFFFFFFFFFFFF AND DUP2 MSTORE PUSH1 0x20 ADD PUSH1 0x1 DUP3 ADD SLOAD DUP2 MSTORE POP POP SWAP1 POP CALLER PUSH20 0xFFFFFFFFFFFFFFFFFFFFFFFFFFFFFFFFFFFFFFFF AND DUP2 PUSH1 0x0 ADD MLOAD PUSH20 0xFFFFFFFFFFFFFFFFFFFFFFFFFFFFFFFFFFFFFFFF AND EQ ISZERO PUSH2 0x4DA JUMPI PUSH1 0x1 SWAP3 POP DUP1 PUSH1 0x20 ADD DUP1 MLOAD DUP1 SWAP2 SWAP1 PUSH2 0x4D5 SWAP1 PUSH2 0xBB9 JUMP JUMPDEST DUP2 MSTORE POP POP JUMPDEST POP DUP1 DUP1 PUSH2 0x4E6 SWAP1 PUSH2 0xBB9 JUMP JUMPDEST SWAP2 POP POP PUSH2 0x3E9 JUMP JUMPDEST POP DUP1 PUSH2 0x5A5 JUMPI PUSH1 0x0 PUSH1 0x40 MLOAD DUP1 PUSH1 0x40 ADD PUSH1 0x40 MSTORE DUP1 CALLER PUSH20 0xFFFFFFFFFFFFFFFFFFFFFFFFFFFFFFFFFFFFFFFF AND DUP2 MSTORE PUSH1 0x20 ADD PUSH1 0x0 DUP2 MSTORE POP SWAP1 POP PUSH1 0x3 DUP2 SWAP1 DUP1 PUSH1 0x1 DUP2 SLOAD ADD DUP1 DUP3 SSTORE DUP1 SWAP2 POP POP PUSH1 0x1 SWAP1 SUB SWAP1 PUSH1 0x0 MSTORE PUSH1 0x20 PUSH1 0x0 KECCAK256 SWAP1 PUSH1 0x2 MUL ADD PUSH1 0x0 SWAP1 SWAP2 SWAP1 SWAP2 SWAP1 SWAP2 POP PUSH1 0x0 DUP3 ADD MLOAD DUP2 PUSH1 0x0 ADD PUSH1 0x0 PUSH2 0x100 EXP DUP2 SLOAD DUP2 PUSH20 0xFFFFFFFFFFFFFFFFFFFFFFFFFFFFFFFFFFFFFFFF MUL NOT AND SWAP1 DUP4 PUSH20 0xFFFFFFFFFFFFFFFFFFFFFFFFFFFFFFFFFFFFFFFF AND MUL OR SWAP1 SSTORE POP PUSH1 0x20 DUP3 ADD MLOAD DUP2 PUSH1 0x1 ADD SSTORE POP POP POP JUMPDEST POP JUMP JUMPDEST PUSH1 0x0 PUSH1 0x40 MLOAD SWAP1 POP SWAP1 JUMP JUMPDEST PUSH1 0x0 DUP1 REVERT JUMPDEST PUSH1 0x0 DUP1 REVERT JUMPDEST PUSH1 0x0 DUP2 SWAP1 POP SWAP2 SWAP1 POP JUMP JUMPDEST PUSH2 0x5CF DUP2 PUSH2 0x5BC JUMP JUMPDEST DUP2 EQ PUSH2 0x5DA JUMPI PUSH1 0x0 DUP1 REVERT JUMPDEST POP JUMP JUMPDEST PUSH1 0x0 DUP2 CALLDATALOAD SWAP1 POP PUSH2 0x5EC DUP2 PUSH2 0x5C6 JUMP JUMPDEST SWAP3 SWAP2 POP POP JUMP JUMPDEST PUSH1 0x0 PUSH1 0x20 DUP3 DUP5 SUB SLT ISZERO PUSH2 0x608 JUMPI PUSH2 0x607 PUSH2 0x5B2 JUMP JUMPDEST JUMPDEST PUSH1 0x0 PUSH2 0x616 DUP5 DUP3 DUP6 ADD PUSH2 0x5DD JUMP JUMPDEST SWAP2 POP POP SWAP3 SWAP2 POP POP JUMP JUMPDEST PUSH1 0x0 DUP2 MLOAD SWAP1 POP SWAP2 SWAP1 POP JUMP JUMPDEST PUSH1 0x0 DUP3 DUP3 MSTORE PUSH1 0x20 DUP3 ADD SWAP1 POP SWAP3 SWAP2 POP POP JUMP JUMPDEST PUSH1 0x0 JUMPDEST DUP4 DUP2 LT ISZERO PUSH2 0x659 JUMPI DUP1 DUP3 ADD MLOAD DUP2 DUP5 ADD MSTORE PUSH1 0x20 DUP2 ADD SWAP1 POP PUSH2 0x63E JUMP JUMPDEST DUP4 DUP2 GT ISZERO PUSH2 0x668 JUMPI PUSH1 0x0 DUP5 DUP5 ADD MSTORE JUMPDEST POP POP POP POP JUMP JUMPDEST PUSH1 0x0 PUSH1 0x1F NOT PUSH1 0x1F DUP4 ADD AND SWAP1 POP SWAP2 SWAP1 POP JUMP JUMPDEST PUSH1 0x0 PUSH2 0x68A DUP3 PUSH2 0x61F JUMP JUMPDEST PUSH2 0x694 DUP2 DUP6 PUSH2 0x62A JUMP JUMPDEST SWAP4 POP PUSH2 0x6A4 DUP2 DUP6 PUSH1 0x20 DUP7 ADD PUSH2 0x63B JUMP JUMPDEST PUSH2 0x6AD DUP2 PUSH2 0x66E JUMP JUMPDEST DUP5 ADD SWAP2 POP POP SWAP3 SWAP2 POP POP JUMP JUMPDEST PUSH1 0x0 PUSH1 0x20 DUP3 ADD SWAP1 POP DUP2 DUP2 SUB PUSH1 0x0 DUP4 ADD MSTORE PUSH2 0x6D2 DUP2 DUP5 PUSH2 0x67F JUMP JUMPDEST SWAP1 POP SWAP3 SWAP2 POP POP JUMP JUMPDEST PUSH1 0x0 PUSH20 0xFFFFFFFFFFFFFFFFFFFFFFFFFFFFFFFFFFFFFFFF DUP3 AND SWAP1 POP SWAP2 SWAP1 POP JUMP JUMPDEST PUSH1 0x0 PUSH2 0x705 DUP3 PUSH2 0x6DA JUMP JUMPDEST SWAP1 POP SWAP2 SWAP1 POP JUMP JUMPDEST PUSH2 0x715 DUP2 PUSH2 0x6FA JUMP JUMPDEST DUP3 MSTORE POP POP JUMP JUMPDEST PUSH2 0x724 DUP2 PUSH2 0x5BC JUMP JUMPDEST DUP3 MSTORE POP POP JUMP JUMPDEST PUSH1 0x0 PUSH1 0x40 DUP3 ADD SWAP1 POP PUSH2 0x73F PUSH1 0x0 DUP4 ADD DUP6 PUSH2 0x70C JUMP JUMPDEST PUSH2 0x74C PUSH1 0x20 DUP4 ADD DUP5 PUSH2 0x71B JUMP JUMPDEST SWAP4 SWAP3 POP POP POP JUMP JUMPDEST PUSH1 0x0 PUSH1 0x20 DUP3 ADD SWAP1 POP PUSH2 0x768 PUSH1 0x0 DUP4 ADD DUP5 PUSH2 0x70C JUMP JUMPDEST SWAP3 SWAP2 POP POP JUMP JUMPDEST PUSH1 0x0 DUP1 REVERT JUMPDEST PUSH1 0x0 DUP1 REVERT JUMPDEST PUSH32 0x4E487B7100000000000000000000000000000000000000000000000000000000 PUSH1 0x0 MSTORE PUSH1 0x41 PUSH1 0x4 MSTORE PUSH1 0x24 PUSH1 0x0 REVERT JUMPDEST PUSH2 0x7B0 DUP3 PUSH2 0x66E JUMP JUMPDEST DUP2 ADD DUP2 DUP2 LT PUSH8 0xFFFFFFFFFFFFFFFF DUP3 GT OR ISZERO PUSH2 0x7CF JUMPI PUSH2 0x7CE PUSH2 0x778 JUMP JUMPDEST JUMPDEST DUP1 PUSH1 0x40 MSTORE POP POP POP JUMP JUMPDEST PUSH1 0x0 PUSH2 0x7E2 PUSH2 0x5A8 JUMP JUMPDEST SWAP1 POP PUSH2 0x7EE DUP3 DUP3 PUSH2 0x7A7 JUMP JUMPDEST SWAP2 SWAP1 POP JUMP JUMPDEST PUSH1 0x0 PUSH8 0xFFFFFFFFFFFFFFFF DUP3 GT ISZERO PUSH2 0x80E JUMPI PUSH2 0x80D PUSH2 0x778 JUMP JUMPDEST JUMPDEST PUSH2 0x817 DUP3 PUSH2 0x66E JUMP JUMPDEST SWAP1 POP PUSH1 0x20 DUP2 ADD SWAP1 POP SWAP2 SWAP1 POP JUMP JUMPDEST DUP3 DUP2 DUP4 CALLDATACOPY PUSH1 0x0 DUP4 DUP4 ADD MSTORE POP POP POP JUMP JUMPDEST PUSH1 0x0 PUSH2 0x846 PUSH2 0x841 DUP5 PUSH2 0x7F3 JUMP JUMPDEST PUSH2 0x7D8 JUMP JUMPDEST SWAP1 POP DUP3 DUP2 MSTORE PUSH1 0x20 DUP2 ADD DUP5 DUP5 DUP5 ADD GT ISZERO PUSH2 0x862 JUMPI PUSH2 0x861 PUSH2 0x773 JUMP JUMPDEST JUMPDEST PUSH2 0x86D DUP5 DUP3 DUP6 PUSH2 0x824 JUMP JUMPDEST POP SWAP4 SWAP3 POP POP POP JUMP JUMPDEST PUSH1 0x0 DUP3 PUSH1 0x1F DUP4 ADD SLT PUSH2 0x88A JUMPI PUSH2 0x889 PUSH2 0x76E JUMP JUMPDEST JUMPDEST DUP2 CALLDATALOAD PUSH2 0x89A DUP5 DUP3 PUSH1 0x20 DUP7 ADD PUSH2 0x833 JUMP JUMPDEST SWAP2 POP POP SWAP3 SWAP2 POP POP JUMP JUMPDEST PUSH1 0x0 PUSH1 0x20 DUP3 DUP5 SUB SLT ISZERO PUSH2 0x8B9 JUMPI PUSH2 0x8B8 PUSH2 0x5B2 JUMP JUMPDEST JUMPDEST PUSH1 0x0 DUP3 ADD CALLDATALOAD PUSH8 0xFFFFFFFFFFFFFFFF DUP2 GT ISZERO PUSH2 0x8D7 JUMPI PUSH2 0x8D6 PUSH2 0x5B7 JUMP JUMPDEST JUMPDEST PUSH2 0x8E3 DUP5 DUP3 DUP6 ADD PUSH2 0x875 JUMP JUMPDEST SWAP2 POP POP SWAP3 SWAP2 POP POP JUMP JUMPDEST PUSH1 0x0 PUSH1 0x20 DUP3 ADD SWAP1 POP PUSH2 0x901 PUSH1 0x0 DUP4 ADD DUP5 PUSH2 0x71B JUMP JUMPDEST SWAP3 SWAP2 POP POP JUMP JUMPDEST PUSH32 0x4E487B7100000000000000000000000000000000000000000000000000000000 PUSH1 0x0 MSTORE PUSH1 0x22 PUSH1 0x4 MSTORE PUSH1 0x24 PUSH1 0x0 REVERT JUMPDEST PUSH1 0x0 PUSH1 0x2 DUP3 DIV SWAP1 POP PUSH1 0x1 DUP3 AND DUP1 PUSH2 0x94E JUMPI PUSH1 0x7F DUP3 AND SWAP2 POP JUMPDEST PUSH1 0x20 DUP3 LT DUP2 EQ ISZERO PUSH2 0x962 JUMPI PUSH2 0x961 PUSH2 0x907 JUMP JUMPDEST JUMPDEST POP SWAP2 SWAP1 POP JUMP JUMPDEST PUSH1 0x0 PUSH1 0xFF DUP3 AND SWAP1 POP SWAP2 SWAP1 POP JUMP JUMPDEST PUSH2 0x97E DUP2 PUSH2 0x968 JUMP JUMPDEST DUP2 EQ PUSH2 0x989 JUMPI PUSH1 0x0 DUP1 REVERT JUMPDEST POP JUMP JUMPDEST PUSH1 0x0 DUP2 MLOAD SWAP1 POP PUSH2 0x99B DUP2 PUSH2 0x975 JUMP JUMPDEST SWAP3 SWAP2 POP POP JUMP JUMPDEST PUSH1 0x0 PUSH1 0x20 DUP3 DUP5 SUB SLT ISZERO PUSH2 0x9B7 JUMPI PUSH2 0x9B6 PUSH2 0x5B2 JUMP JUMPDEST JUMPDEST PUSH1 0x0 PUSH2 0x9C5 DUP5 DUP3 DUP6 ADD PUSH2 0x98C JUMP JUMPDEST SWAP2 POP POP SWAP3 SWAP2 POP POP JUMP JUMPDEST PUSH1 0x0 PUSH8 0xFFFFFFFFFFFFFFFF DUP3 GT ISZERO PUSH2 0x9E9 JUMPI PUSH2 0x9E8 PUSH2 0x778 JUMP JUMPDEST JUMPDEST PUSH1 0x20 DUP3 MUL SWAP1 POP SWAP2 SWAP1 POP JUMP JUMPDEST PUSH1 0x0 DUP1 REVERT JUMPDEST PUSH1 0x0 PUSH2 0xA0C PUSH2 0xA07 DUP5 PUSH2 0x7F3 JUMP JUMPDEST PUSH2 0x7D8 JUMP JUMPDEST SWAP1 POP DUP3 DUP2 MSTORE PUSH1 0x20 DUP2 ADD DUP5 DUP5 DUP5 ADD GT ISZERO PUSH2 0xA28 JUMPI PUSH2 0xA27 PUSH2 0x773 JUMP JUMPDEST JUMPDEST PUSH2 0xA33 DUP5 DUP3 DUP6 PUSH2 0x63B JUMP JUMPDEST POP SWAP4 SWAP3 POP POP POP JUMP JUMPDEST PUSH1 0x0 DUP3 PUSH1 0x1F DUP4 ADD SLT PUSH2 0xA50 JUMPI PUSH2 0xA4F PUSH2 0x76E JUMP JUMPDEST JUMPDEST DUP2 MLOAD PUSH2 0xA60 DUP5 DUP3 PUSH1 0x20 DUP7 ADD PUSH2 0x9F9 JUMP JUMPDEST SWAP2 POP POP SWAP3 SWAP2 POP POP JUMP JUMPDEST PUSH1 0x0 PUSH2 0xA7C PUSH2 0xA77 DUP5 PUSH2 0x9CE JUMP JUMPDEST PUSH2 0x7D8 JUMP JUMPDEST SWAP1 POP DUP1 PUSH1 0x20 DUP5 MUL DUP4 ADD DUP6 DUP2 GT ISZERO PUSH2 0xA96 JUMPI PUSH2 0xA95 PUSH2 0x9F4 JUMP JUMPDEST JUMPDEST DUP4 JUMPDEST DUP2 DUP2 LT ISZERO PUSH2 0xADD JUMPI DUP1 MLOAD PUSH8 0xFFFFFFFFFFFFFFFF DUP2 GT ISZERO PUSH2 0xABB JUMPI PUSH2 0xABA PUSH2 0x76E JUMP JUMPDEST JUMPDEST DUP1 DUP7 ADD PUSH2 0xAC8 DUP10 DUP3 PUSH2 0xA3B JUMP JUMPDEST DUP6 MSTORE PUSH1 0x20 DUP6 ADD SWAP5 POP POP POP PUSH1 0x20 DUP2 ADD SWAP1 POP PUSH2 0xA98 JUMP JUMPDEST POP POP POP SWAP4 SWAP3 POP POP POP JUMP JUMPDEST PUSH1 0x0 DUP3 PUSH1 0x1F DUP4 ADD SLT PUSH2 0xAFC JUMPI PUSH2 0xAFB PUSH2 0x76E JUMP JUMPDEST JUMPDEST PUSH1 0x3 PUSH2 0xB09 DUP5 DUP3 DUP6 PUSH2 0xA69 JUMP JUMPDEST SWAP2 POP POP SWAP3 SWAP2 POP POP JUMP JUMPDEST PUSH1 0x0 PUSH1 0x20 DUP3 DUP5 SUB SLT ISZERO PUSH2 0xB28 JUMPI PUSH2 0xB27 PUSH2 0x5B2 JUMP JUMPDEST JUMPDEST PUSH1 0x0 DUP3 ADD MLOAD PUSH8 0xFFFFFFFFFFFFFFFF DUP2 GT ISZERO PUSH2 0xB46 JUMPI PUSH2 0xB45 PUSH2 0x5B7 JUMP JUMPDEST JUMPDEST PUSH2 0xB52 DUP5 DUP3 DUP6 ADD PUSH2 0xAE7 JUMP JUMPDEST SWAP2 POP POP SWAP3 SWAP2 POP POP JUMP JUMPDEST PUSH32 0x4E487B7100000000000000000000000000000000000000000000000000000000 PUSH1 0x0 MSTORE PUSH1 0x32 PUSH1 0x4 MSTORE PUSH1 0x24 PUSH1 0x0 REVERT JUMPDEST PUSH32 0x4E487B7100000000000000000000000000000000000000000000000000000000 PUSH1 0x0 MSTORE PUSH1 0x11 PUSH1 0x4 MSTORE PUSH1 0x24 PUSH1 0x0 REVERT JUMPDEST PUSH1 0x0 PUSH2 0xBC4 DUP3 PUSH2 0x5BC JUMP JUMPDEST SWAP2 POP PUSH32 0xFFFFFFFFFFFFFFFFFFFFFFFFFFFFFFFFFFFFFFFFFFFFFFFFFFFFFFFFFFFFFFFF DUP3 EQ ISZERO PUSH2 0xBF7 JUMPI PUSH2 0xBF6 PUSH2 0xB8A JUMP JUMPDEST JUMPDEST PUSH1 0x1 DUP3 ADD SWAP1 POP SWAP2 SWAP1 POP JUMP INVALID LOG2 PUSH5 0x6970667358 0x22 SLT KECCAK256 SWAP1 INVALID 0xE1 0x4E SWAP16 REVERT DUP10 DUP4 DUP4 DUP9 0xDB MLOAD DUP11 DUP7 0x24 COINBASE 0x23 PUSH20 0xBA83E012C093928053267306521464736F6C6343 STOP ADDMOD ADDMOD STOP CALLER "
				},
				"gasEstimates": {
					"creation": {
						"codeDepositCost": "625600",
						"executionCost": "49191",
						"totalCost": "674791"
					},
					"external": {
						"createGatcha()": "infinite",
						"ownerAddress()": "2536",
						"rarityList(uint256)": "infinite",
						"rarityListFunc()": "infinite",
						"rarityRateFunc(string)": "infinite",
						"registeredUsers(uint256)": "infinite"
					}
				},
				"methodIdentifiers": {
					"createGatcha()": "e917ec96",
					"ownerAddress()": "8f84aa09",
					"rarityList(uint256)": "6fd3d9e2",
					"rarityListFunc()": "bb4a376b",
					"rarityRateFunc(string)": "a7beb5d0",
					"registeredUsers(uint256)": "7259e0f8"
				}
			},
			"storageLayout": {
				"storage": [
					{
						"astId": 5,
						"contract": "contracts/TestInterview.sol:TestInterview",
						"label": "rarityList",
						"offset": 0,
						"slot": "0",
						"type": "t_array(t_string_storage)dyn_storage"
					},
					{
						"astId": 11,
						"contract": "contracts/TestInterview.sol:TestInterview",
						"label": "objINFT",
						"offset": 0,
						"slot": "1",
						"type": "t_contract(INFT)153"
					},
					{
						"astId": 14,
						"contract": "contracts/TestInterview.sol:TestInterview",
						"label": "ownerAddress",
						"offset": 0,
						"slot": "2",
						"type": "t_address"
					},
					{
						"astId": 23,
						"contract": "contracts/TestInterview.sol:TestInterview",
						"label": "registeredUsers",
						"offset": 0,
						"slot": "3",
						"type": "t_array(t_struct(RegisteredUser)19_storage)dyn_storage"
					}
				],
				"types": {
					"t_address": {
						"encoding": "inplace",
						"label": "address",
						"numberOfBytes": "20"
					},
					"t_array(t_string_storage)dyn_storage": {
						"base": "t_string_storage",
						"encoding": "dynamic_array",
						"label": "string[]",
						"numberOfBytes": "32"
					},
					"t_array(t_struct(RegisteredUser)19_storage)dyn_storage": {
						"base": "t_struct(RegisteredUser)19_storage",
						"encoding": "dynamic_array",
						"label": "struct TestInterview.RegisteredUser[]",
						"numberOfBytes": "32"
					},
					"t_contract(INFT)153": {
						"encoding": "inplace",
						"label": "contract INFT",
						"numberOfBytes": "20"
					},
					"t_string_storage": {
						"encoding": "bytes",
						"label": "string",
						"numberOfBytes": "32"
					},
					"t_struct(RegisteredUser)19_storage": {
						"encoding": "inplace",
						"label": "struct TestInterview.RegisteredUser",
						"members": [
							{
								"astId": 16,
								"contract": "contracts/TestInterview.sol:TestInterview",
								"label": "userAddress",
								"offset": 0,
								"slot": "0",
								"type": "t_address"
							},
							{
								"astId": 18,
								"contract": "contracts/TestInterview.sol:TestInterview",
								"label": "counterVisited",
								"offset": 0,
								"slot": "1",
								"type": "t_uint256"
							}
						],
						"numberOfBytes": "64"
					},
					"t_uint256": {
						"encoding": "inplace",
						"label": "uint256",
						"numberOfBytes": "32"
					}
				}
			},
			"userdoc": {
				"kind": "user",
				"methods": {},
				"version": 1
			}
		}
	}
}