{
	"contracts/TestInterview.sol": {
		"TestInterview": {
			"abi": [
				{
					"inputs": [],
					"stateMutability": "nonpayable",
					"type": "constructor"
				},
				{
					"inputs": [],
					"name": "adminAddress",
					"outputs": [
						{
							"internalType": "address",
							"name": "",
							"type": "address"
						}
					],
					"stateMutability": "view",
					"type": "function"
				},
				{
					"inputs": [
						{
							"internalType": "uint256",
							"name": "_newLimit",
							"type": "uint256"
						}
					],
					"name": "changeGatchaLimit",
					"outputs": [],
					"stateMutability": "nonpayable",
					"type": "function"
				},
				{
					"inputs": [],
					"name": "createGatcha",
					"outputs": [],
					"stateMutability": "nonpayable",
					"type": "function"
				},
				{
					"inputs": [],
					"name": "getUsers",
					"outputs": [
						{
							"components": [
								{
									"internalType": "string",
									"name": "name",
									"type": "string"
								},
								{
									"internalType": "uint256",
									"name": "min",
									"type": "uint256"
								},
								{
									"internalType": "uint256",
									"name": "max",
									"type": "uint256"
								}
							],
							"internalType": "struct TestInterview.Rarity[]",
							"name": "",
							"type": "tuple[]"
						}
					],
					"stateMutability": "view",
					"type": "function"
				},
				{
					"inputs": [],
					"name": "limitGatcha",
					"outputs": [
						{
							"internalType": "uint256",
							"name": "",
							"type": "uint256"
						}
					],
					"stateMutability": "view",
					"type": "function"
				},
				{
					"inputs": [],
					"name": "ownerAddress",
					"outputs": [
						{
							"internalType": "address",
							"name": "",
							"type": "address"
						}
					],
					"stateMutability": "view",
					"type": "function"
				},
				{
					"inputs": [
						{
							"internalType": "uint256",
							"name": "",
							"type": "uint256"
						}
					],
					"name": "rarityList",
					"outputs": [
						{
							"internalType": "string",
							"name": "name",
							"type": "string"
						},
						{
							"internalType": "uint256",
							"name": "min",
							"type": "uint256"
						},
						{
							"internalType": "uint256",
							"name": "max",
							"type": "uint256"
						}
					],
					"stateMutability": "view",
					"type": "function"
				},
				{
					"inputs": [],
					"name": "rarityListFunc",
					"outputs": [
						{
							"internalType": "string",
							"name": "",
							"type": "string"
						}
					],
					"stateMutability": "view",
					"type": "function"
				},
				{
					"inputs": [
						{
							"internalType": "string",
							"name": "_nameRarity",
							"type": "string"
						}
					],
					"name": "rarityRateFunc",
					"outputs": [
						{
							"internalType": "uint256",
							"name": "",
							"type": "uint256"
						}
					],
					"stateMutability": "view",
					"type": "function"
				},
				{
					"inputs": [
						{
							"internalType": "uint256",
							"name": "",
							"type": "uint256"
						}
					],
					"name": "registeredUsers",
					"outputs": [
						{
							"internalType": "address",
							"name": "userAddress",
							"type": "address"
						},
						{
							"internalType": "uint256",
							"name": "counterVisited",
							"type": "uint256"
						}
					],
					"stateMutability": "view",
					"type": "function"
				}
			],
			"devdoc": {
				"kind": "dev",
				"methods": {},
				"version": 1
			},
			"evm": {
				"assembly": "    /* \"contracts/TestInterview.sol\":208:2815  contract TestInterview {... */\n  mstore(0x40, 0x80)\n    /* \"contracts/TestInterview.sol\":258:300  0x50C7a09925375438D2cEe94C5c59266c6fFAAf8C */\n  0x50c7a09925375438d2cee94c5c59266c6ffaaf8c\n    /* \"contracts/TestInterview.sol\":238:301  INFT objINFT = INFT(0x50C7a09925375438D2cEe94C5c59266c6fFAAf8C) */\n  0x00\n  dup1\n  0x0100\n  exp\n  dup2\n  sload\n  dup2\n  0xffffffffffffffffffffffffffffffffffffffff\n  mul\n  not\n  and\n  swap1\n  dup4\n  0xffffffffffffffffffffffffffffffffffffffff\n  and\n  mul\n  or\n  swap1\n  sstore\n  pop\n    /* \"contracts/TestInterview.sol\":338:380  0xdBDdb8575F6bda11F1DC548A1B546463CC567C3d */\n  0xdbddb8575f6bda11f1dc548a1b546463cc567c3d\n    /* \"contracts/TestInterview.sol\":308:380  address public ownerAddress = 0xdBDdb8575F6bda11F1DC548A1B546463CC567C3d */\n  0x01\n  exp(0x0100, 0x00)\n  dup2\n  sload\n  dup2\n  0xffffffffffffffffffffffffffffffffffffffff\n  mul\n  not\n  and\n  swap1\n  dup4\n  0xffffffffffffffffffffffffffffffffffffffff\n  and\n  mul\n  or\n  swap1\n  sstore\n  pop\n    /* \"contracts/TestInterview.sol\":447:448  2 */\n  0x02\n    /* \"contracts/TestInterview.sol\":421:448  uint public limitGatcha = 2 */\n  0x03\n  sstore\n    /* \"contracts/TestInterview.sol\":801:1361  constructor() {... */\n  callvalue\n  dup1\n  iszero\n  tag_1\n  jumpi\n  0x00\n  dup1\n  revert\ntag_1:\n  pop\n    /* \"contracts/TestInterview.sol\":841:851  msg.sender */\n  caller\n    /* \"contracts/TestInterview.sol\":826:838  adminAddress */\n  0x02\n  0x00\n    /* \"contracts/TestInterview.sol\":826:851  adminAddress = msg.sender */\n  0x0100\n  exp\n  dup2\n  sload\n  dup2\n  0xffffffffffffffffffffffffffffffffffffffff\n  mul\n  not\n  and\n  swap1\n  dup4\n  0xffffffffffffffffffffffffffffffffffffffff\n  and\n  mul\n  or\n  swap1\n  sstore\n  pop\n    /* \"contracts/TestInterview.sol\":862:894  string[3] memory localRarityList */\n  0x00\n    /* \"contracts/TestInterview.sol\":897:904  objINFT */\n  dup1\n  0x00\n  swap1\n  sload\n  swap1\n  0x0100\n  exp\n  swap1\n  div\n  0xffffffffffffffffffffffffffffffffffffffff\n  and\n    /* \"contracts/TestInterview.sol\":897:918  objINFT.getRarityList */\n  0xffffffffffffffffffffffffffffffffffffffff\n  and\n  0x48441d5f\n    /* \"contracts/TestInterview.sol\":897:920  objINFT.getRarityList() */\n  mload(0x40)\n  dup2\n  0xffffffff\n  and\n  0xe0\n  shl\n  dup2\n  mstore\n  0x04\n  add\n  0x00\n  mload(0x40)\n  dup1\n  dup4\n  sub\n  dup2\n  dup7\n  dup1\n  extcodesize\n  iszero\n  dup1\n  iszero\n  tag_4\n  jumpi\n  0x00\n  dup1\n  revert\ntag_4:\n  pop\n  gas\n  staticcall\n  iszero\n  dup1\n  iszero\n  tag_6\n  jumpi\n  returndatasize\n  0x00\n  dup1\n  returndatacopy\n  revert(0x00, returndatasize)\ntag_6:\n  pop\n  pop\n  pop\n  pop\n  mload(0x40)\n  returndatasize\n  0x00\n  dup3\n  returndatacopy\n  returndatasize\n  not(0x1f)\n  0x1f\n  dup3\n  add\n  and\n  dup3\n  add\n  dup1\n  0x40\n  mstore\n  pop\n  dup2\n  add\n  swap1\n  tag_7\n  swap2\n  swap1\n  tag_8\n  jump\t// in\ntag_7:\n    /* \"contracts/TestInterview.sol\":862:920  string[3] memory localRarityList = objINFT.getRarityList() */\n  swap1\n  pop\n    /* \"contracts/TestInterview.sol\":933:949  uint256 minValue */\n  0x00\n    /* \"contracts/TestInterview.sol\":970:983  uint256 index */\n  dup1\n    /* \"contracts/TestInterview.sol\":966:1354  for(uint256 index = 0; index < localRarityList.length; index++)... */\ntag_9:\n    /* \"contracts/TestInterview.sol\":997:1019  localRarityList.length */\n  0x03\n    /* \"contracts/TestInterview.sol\":989:994  index */\n  dup2\n    /* \"contracts/TestInterview.sol\":989:1019  index < localRarityList.length */\n  lt\n    /* \"contracts/TestInterview.sol\":966:1354  for(uint256 index = 0; index < localRarityList.length; index++)... */\n  iszero\n  tag_10\n  jumpi\n    /* \"contracts/TestInterview.sol\":1054:1069  uint rarityRate */\n  0x00\n    /* \"contracts/TestInterview.sol\":1072:1079  objINFT */\n  dup1\n  0x00\n  swap1\n  sload\n  swap1\n  0x0100\n  exp\n  swap1\n  div\n  0xffffffffffffffffffffffffffffffffffffffff\n  and\n    /* \"contracts/TestInterview.sol\":1072:1093  objINFT.getRarityRate */\n  0xffffffffffffffffffffffffffffffffffffffff\n  and\n  0x278a7f33\n    /* \"contracts/TestInterview.sol\":1094:1109  localRarityList */\n  dup6\n    /* \"contracts/TestInterview.sol\":1110:1115  index */\n  dup5\n    /* \"contracts/TestInterview.sol\":1094:1116  localRarityList[index] */\n  0x03\n  dup2\n  lt\n  tag_12\n  jumpi\n  tag_13\n  tag_14\n  jump\t// in\ntag_13:\ntag_12:\n  0x20\n  mul\n  add\n  mload\n    /* \"contracts/TestInterview.sol\":1072:1117  objINFT.getRarityRate(localRarityList[index]) */\n  mload(0x40)\n  dup3\n  0xffffffff\n  and\n  0xe0\n  shl\n  dup2\n  mstore\n  0x04\n  add\n  tag_15\n  swap2\n  swap1\n  tag_16\n  jump\t// in\ntag_15:\n  0x20\n  mload(0x40)\n  dup1\n  dup4\n  sub\n  dup2\n  dup7\n  dup1\n  extcodesize\n  iszero\n  dup1\n  iszero\n  tag_17\n  jumpi\n  0x00\n  dup1\n  revert\ntag_17:\n  pop\n  gas\n  staticcall\n  iszero\n  dup1\n  iszero\n  tag_19\n  jumpi\n  returndatasize\n  0x00\n  dup1\n  returndatacopy\n  revert(0x00, returndatasize)\ntag_19:\n  pop\n  pop\n  pop\n  pop\n  mload(0x40)\n  returndatasize\n  not(0x1f)\n  0x1f\n  dup3\n  add\n  and\n  dup3\n  add\n  dup1\n  0x40\n  mstore\n  pop\n  dup2\n  add\n  swap1\n  tag_20\n  swap2\n  swap1\n  tag_21\n  jump\t// in\ntag_20:\n    /* \"contracts/TestInterview.sol\":1054:1117  uint rarityRate = objINFT.getRarityRate(localRarityList[index]) */\n  0xff\n  and\n  swap1\n  pop\n    /* \"contracts/TestInterview.sol\":1132:1142  rarityList */\n  0x04\n    /* \"contracts/TestInterview.sol\":1148:1304  Rarity({... */\n  mload(0x40)\n  dup1\n  0x60\n  add\n  0x40\n  mstore\n  dup1\n    /* \"contracts/TestInterview.sol\":1181:1196  localRarityList */\n  dup7\n    /* \"contracts/TestInterview.sol\":1197:1202  index */\n  dup6\n    /* \"contracts/TestInterview.sol\":1181:1203  localRarityList[index] */\n  0x03\n  dup2\n  lt\n  tag_22\n  jumpi\n  tag_23\n  tag_14\n  jump\t// in\ntag_23:\ntag_22:\n  0x20\n  mul\n  add\n  mload\n    /* \"contracts/TestInterview.sol\":1148:1304  Rarity({... */\n  dup2\n  mstore\n  0x20\n  add\n    /* \"contracts/TestInterview.sol\":1228:1236  minValue */\n  dup6\n    /* \"contracts/TestInterview.sol\":1148:1304  Rarity({... */\n  dup2\n  mstore\n  0x20\n  add\n    /* \"contracts/TestInterview.sol\":1287:1288  1 */\n  0x01\n    /* \"contracts/TestInterview.sol\":1273:1283  rarityRate */\n  dup5\n    /* \"contracts/TestInterview.sol\":1262:1270  minValue */\n  dup8\n    /* \"contracts/TestInterview.sol\":1262:1283  minValue + rarityRate */\n  tag_24\n  swap2\n  swap1\n  tag_25\n  jump\t// in\ntag_24:\n    /* \"contracts/TestInterview.sol\":1261:1288  (minValue + rarityRate) - 1 */\n  tag_26\n  swap2\n  swap1\n  tag_27\n  jump\t// in\ntag_26:\n    /* \"contracts/TestInterview.sol\":1148:1304  Rarity({... */\n  dup2\n  mstore\n  pop\n    /* \"contracts/TestInterview.sol\":1132:1305  rarityList.push(Rarity({... */\n  swap1\n  dup1\n  0x01\n  dup2\n  sload\n  add\n  dup1\n  dup3\n  sstore\n  dup1\n  swap2\n  pop\n  pop\n  0x01\n  swap1\n  sub\n  swap1\n  0x00\n  mstore\n  keccak256(0x00, 0x20)\n  swap1\n  0x03\n  mul\n  add\n  0x00\n  swap1\n  swap2\n  swap1\n  swap2\n  swap1\n  swap2\n  pop\n  0x00\n  dup3\n  add\n  mload\n  dup2\n  0x00\n  add\n  swap1\n  dup1\n  mload\n  swap1\n  0x20\n  add\n  swap1\n  tag_29\n  swap3\n  swap2\n  swap1\n  tag_30\n  jump\t// in\ntag_29:\n  pop\n  0x20\n  dup3\n  add\n  mload\n  dup2\n  0x01\n  add\n  sstore\n  0x40\n  dup3\n  add\n  mload\n  dup2\n  0x02\n  add\n  sstore\n  pop\n  pop\n    /* \"contracts/TestInterview.sol\":1332:1342  rarityRate */\n  dup1\n    /* \"contracts/TestInterview.sol\":1320:1342  minValue += rarityRate */\n  dup4\n  tag_31\n  swap2\n  swap1\n  tag_25\n  jump\t// in\ntag_31:\n  swap3\n  pop\n    /* \"contracts/TestInterview.sol\":1039:1354  {... */\n  pop\n    /* \"contracts/TestInterview.sol\":1021:1028  index++ */\n  dup1\n  dup1\n  tag_32\n  swap1\n  tag_33\n  jump\t// in\ntag_32:\n  swap2\n  pop\n  pop\n    /* \"contracts/TestInterview.sol\":966:1354  for(uint256 index = 0; index < localRarityList.length; index++)... */\n  jump(tag_9)\ntag_10:\n  pop\n    /* \"contracts/TestInterview.sol\":815:1361  {... */\n  pop\n  pop\n    /* \"contracts/TestInterview.sol\":208:2815  contract TestInterview {... */\n  jump(tag_34)\ntag_30:\n  dup3\n  dup1\n  sload\n  tag_35\n  swap1\n  tag_36\n  jump\t// in\ntag_35:\n  swap1\n  0x00\n  mstore\n  keccak256(0x00, 0x20)\n  swap1\n  0x1f\n  add\n  0x20\n  swap1\n  div\n  dup2\n  add\n  swap3\n  dup3\n  tag_38\n  jumpi\n  0x00\n  dup6\n  sstore\n  jump(tag_37)\ntag_38:\n  dup3\n  0x1f\n  lt\n  tag_39\n  jumpi\n  dup1\n  mload\n  not(0xff)\n  and\n  dup4\n  dup1\n  add\n  or\n  dup6\n  sstore\n  jump(tag_37)\ntag_39:\n  dup3\n  dup1\n  add\n  0x01\n  add\n  dup6\n  sstore\n  dup3\n  iszero\n  tag_37\n  jumpi\n  swap2\n  dup3\n  add\ntag_40:\n  dup3\n  dup2\n  gt\n  iszero\n  tag_41\n  jumpi\n  dup3\n  mload\n  dup3\n  sstore\n  swap2\n  0x20\n  add\n  swap2\n  swap1\n  0x01\n  add\n  swap1\n  jump(tag_40)\ntag_41:\ntag_37:\n  pop\n  swap1\n  pop\n  tag_42\n  swap2\n  swap1\n  tag_43\n  jump\t// in\ntag_42:\n  pop\n  swap1\n  jump\t// out\ntag_43:\ntag_44:\n  dup1\n  dup3\n  gt\n  iszero\n  tag_45\n  jumpi\n  0x00\n  dup2\n  0x00\n  swap1\n  sstore\n  pop\n  0x01\n  add\n  jump(tag_44)\ntag_45:\n  pop\n  swap1\n  jump\t// out\n    /* \"#utility.yul\":7:82   */\ntag_46:\n    /* \"#utility.yul\":40:46   */\n  0x00\n    /* \"#utility.yul\":73:75   */\n  0x40\n    /* \"#utility.yul\":67:76   */\n  mload\n    /* \"#utility.yul\":57:76   */\n  swap1\n  pop\n    /* \"#utility.yul\":7:82   */\n  swap1\n  jump\t// out\n    /* \"#utility.yul\":88:205   */\ntag_47:\n    /* \"#utility.yul\":197:198   */\n  0x00\n    /* \"#utility.yul\":194:195   */\n  dup1\n    /* \"#utility.yul\":187:199   */\n  revert\n    /* \"#utility.yul\":211:328   */\ntag_48:\n    /* \"#utility.yul\":320:321   */\n  0x00\n    /* \"#utility.yul\":317:318   */\n  dup1\n    /* \"#utility.yul\":310:322   */\n  revert\n    /* \"#utility.yul\":334:451   */\ntag_49:\n    /* \"#utility.yul\":443:444   */\n  0x00\n    /* \"#utility.yul\":440:441   */\n  dup1\n    /* \"#utility.yul\":433:445   */\n  revert\n    /* \"#utility.yul\":457:559   */\ntag_50:\n    /* \"#utility.yul\":498:504   */\n  0x00\n    /* \"#utility.yul\":549:551   */\n  0x1f\n    /* \"#utility.yul\":545:552   */\n  not\n    /* \"#utility.yul\":540:542   */\n  0x1f\n    /* \"#utility.yul\":533:538   */\n  dup4\n    /* \"#utility.yul\":529:543   */\n  add\n    /* \"#utility.yul\":525:553   */\n  and\n    /* \"#utility.yul\":515:553   */\n  swap1\n  pop\n    /* \"#utility.yul\":457:559   */\n  swap2\n  swap1\n  pop\n  jump\t// out\n    /* \"#utility.yul\":565:745   */\ntag_51:\n    /* \"#utility.yul\":613:690   */\n  0x4e487b7100000000000000000000000000000000000000000000000000000000\n    /* \"#utility.yul\":610:611   */\n  0x00\n    /* \"#utility.yul\":603:691   */\n  mstore\n    /* \"#utility.yul\":710:714   */\n  0x41\n    /* \"#utility.yul\":707:708   */\n  0x04\n    /* \"#utility.yul\":700:715   */\n  mstore\n    /* \"#utility.yul\":734:738   */\n  0x24\n    /* \"#utility.yul\":731:732   */\n  0x00\n    /* \"#utility.yul\":724:739   */\n  revert\n    /* \"#utility.yul\":751:1032   */\ntag_52:\n    /* \"#utility.yul\":834:861   */\n  tag_80\n    /* \"#utility.yul\":856:860   */\n  dup3\n    /* \"#utility.yul\":834:861   */\n  tag_50\n  jump\t// in\ntag_80:\n    /* \"#utility.yul\":826:832   */\n  dup2\n    /* \"#utility.yul\":822:862   */\n  add\n    /* \"#utility.yul\":964:970   */\n  dup2\n    /* \"#utility.yul\":952:962   */\n  dup2\n    /* \"#utility.yul\":949:971   */\n  lt\n    /* \"#utility.yul\":928:946   */\n  0xffffffffffffffff\n    /* \"#utility.yul\":916:926   */\n  dup3\n    /* \"#utility.yul\":913:947   */\n  gt\n    /* \"#utility.yul\":910:972   */\n  or\n    /* \"#utility.yul\":907:995   */\n  iszero\n  tag_81\n  jumpi\n    /* \"#utility.yul\":975:993   */\n  tag_82\n  tag_51\n  jump\t// in\ntag_82:\n    /* \"#utility.yul\":907:995   */\ntag_81:\n    /* \"#utility.yul\":1015:1025   */\n  dup1\n    /* \"#utility.yul\":1011:1013   */\n  0x40\n    /* \"#utility.yul\":1004:1026   */\n  mstore\n    /* \"#utility.yul\":794:1032   */\n  pop\n    /* \"#utility.yul\":751:1032   */\n  pop\n  pop\n  jump\t// out\n    /* \"#utility.yul\":1038:1167   */\ntag_53:\n    /* \"#utility.yul\":1072:1078   */\n  0x00\n    /* \"#utility.yul\":1099:1119   */\n  tag_84\n  tag_46\n  jump\t// in\ntag_84:\n    /* \"#utility.yul\":1089:1119   */\n  swap1\n  pop\n    /* \"#utility.yul\":1128:1161   */\n  tag_85\n    /* \"#utility.yul\":1156:1160   */\n  dup3\n    /* \"#utility.yul\":1148:1154   */\n  dup3\n    /* \"#utility.yul\":1128:1161   */\n  tag_52\n  jump\t// in\ntag_85:\n    /* \"#utility.yul\":1038:1167   */\n  swap2\n  swap1\n  pop\n  jump\t// out\n    /* \"#utility.yul\":1173:1432   */\ntag_54:\n    /* \"#utility.yul\":1258:1262   */\n  0x00\n    /* \"#utility.yul\":1348:1366   */\n  0xffffffffffffffff\n    /* \"#utility.yul\":1340:1346   */\n  dup3\n    /* \"#utility.yul\":1337:1367   */\n  gt\n    /* \"#utility.yul\":1334:1390   */\n  iszero\n  tag_87\n  jumpi\n    /* \"#utility.yul\":1370:1388   */\n  tag_88\n  tag_51\n  jump\t// in\ntag_88:\n    /* \"#utility.yul\":1334:1390   */\ntag_87:\n    /* \"#utility.yul\":1420:1424   */\n  0x20\n    /* \"#utility.yul\":1412:1418   */\n  dup3\n    /* \"#utility.yul\":1408:1425   */\n  mul\n    /* \"#utility.yul\":1400:1425   */\n  swap1\n  pop\n    /* \"#utility.yul\":1173:1432   */\n  swap2\n  swap1\n  pop\n  jump\t// out\n    /* \"#utility.yul\":1438:1555   */\ntag_55:\n    /* \"#utility.yul\":1547:1548   */\n  0x00\n    /* \"#utility.yul\":1544:1545   */\n  dup1\n    /* \"#utility.yul\":1537:1549   */\n  revert\n    /* \"#utility.yul\":1561:1678   */\ntag_56:\n    /* \"#utility.yul\":1670:1671   */\n  0x00\n    /* \"#utility.yul\":1667:1668   */\n  dup1\n    /* \"#utility.yul\":1660:1672   */\n  revert\n    /* \"#utility.yul\":1684:1992   */\ntag_57:\n    /* \"#utility.yul\":1746:1750   */\n  0x00\n    /* \"#utility.yul\":1836:1854   */\n  0xffffffffffffffff\n    /* \"#utility.yul\":1828:1834   */\n  dup3\n    /* \"#utility.yul\":1825:1855   */\n  gt\n    /* \"#utility.yul\":1822:1878   */\n  iszero\n  tag_92\n  jumpi\n    /* \"#utility.yul\":1858:1876   */\n  tag_93\n  tag_51\n  jump\t// in\ntag_93:\n    /* \"#utility.yul\":1822:1878   */\ntag_92:\n    /* \"#utility.yul\":1896:1925   */\n  tag_94\n    /* \"#utility.yul\":1918:1924   */\n  dup3\n    /* \"#utility.yul\":1896:1925   */\n  tag_50\n  jump\t// in\ntag_94:\n    /* \"#utility.yul\":1888:1925   */\n  swap1\n  pop\n    /* \"#utility.yul\":1980:1984   */\n  0x20\n    /* \"#utility.yul\":1974:1978   */\n  dup2\n    /* \"#utility.yul\":1970:1985   */\n  add\n    /* \"#utility.yul\":1962:1985   */\n  swap1\n  pop\n    /* \"#utility.yul\":1684:1992   */\n  swap2\n  swap1\n  pop\n  jump\t// out\n    /* \"#utility.yul\":1998:2305   */\ntag_58:\n    /* \"#utility.yul\":2066:2067   */\n  0x00\n    /* \"#utility.yul\":2076:2189   */\ntag_96:\n    /* \"#utility.yul\":2090:2096   */\n  dup4\n    /* \"#utility.yul\":2087:2088   */\n  dup2\n    /* \"#utility.yul\":2084:2097   */\n  lt\n    /* \"#utility.yul\":2076:2189   */\n  iszero\n  tag_98\n  jumpi\n    /* \"#utility.yul\":2175:2176   */\n  dup1\n    /* \"#utility.yul\":2170:2173   */\n  dup3\n    /* \"#utility.yul\":2166:2177   */\n  add\n    /* \"#utility.yul\":2160:2178   */\n  mload\n    /* \"#utility.yul\":2156:2157   */\n  dup2\n    /* \"#utility.yul\":2151:2154   */\n  dup5\n    /* \"#utility.yul\":2147:2158   */\n  add\n    /* \"#utility.yul\":2140:2179   */\n  mstore\n    /* \"#utility.yul\":2112:2114   */\n  0x20\n    /* \"#utility.yul\":2109:2110   */\n  dup2\n    /* \"#utility.yul\":2105:2115   */\n  add\n    /* \"#utility.yul\":2100:2115   */\n  swap1\n  pop\n    /* \"#utility.yul\":2076:2189   */\n  jump(tag_96)\ntag_98:\n    /* \"#utility.yul\":2207:2213   */\n  dup4\n    /* \"#utility.yul\":2204:2205   */\n  dup2\n    /* \"#utility.yul\":2201:2214   */\n  gt\n    /* \"#utility.yul\":2198:2299   */\n  iszero\n  tag_99\n  jumpi\n    /* \"#utility.yul\":2287:2288   */\n  0x00\n    /* \"#utility.yul\":2278:2284   */\n  dup5\n    /* \"#utility.yul\":2273:2276   */\n  dup5\n    /* \"#utility.yul\":2269:2285   */\n  add\n    /* \"#utility.yul\":2262:2289   */\n  mstore\n    /* \"#utility.yul\":2198:2299   */\ntag_99:\n    /* \"#utility.yul\":2047:2305   */\n  pop\n    /* \"#utility.yul\":1998:2305   */\n  pop\n  pop\n  pop\n  jump\t// out\n    /* \"#utility.yul\":2311:2732   */\ntag_59:\n    /* \"#utility.yul\":2400:2405   */\n  0x00\n    /* \"#utility.yul\":2425:2491   */\n  tag_101\n    /* \"#utility.yul\":2441:2490   */\n  tag_102\n    /* \"#utility.yul\":2483:2489   */\n  dup5\n    /* \"#utility.yul\":2441:2490   */\n  tag_57\n  jump\t// in\ntag_102:\n    /* \"#utility.yul\":2425:2491   */\n  tag_53\n  jump\t// in\ntag_101:\n    /* \"#utility.yul\":2416:2491   */\n  swap1\n  pop\n    /* \"#utility.yul\":2514:2520   */\n  dup3\n    /* \"#utility.yul\":2507:2512   */\n  dup2\n    /* \"#utility.yul\":2500:2521   */\n  mstore\n    /* \"#utility.yul\":2552:2556   */\n  0x20\n    /* \"#utility.yul\":2545:2550   */\n  dup2\n    /* \"#utility.yul\":2541:2557   */\n  add\n    /* \"#utility.yul\":2590:2593   */\n  dup5\n    /* \"#utility.yul\":2581:2587   */\n  dup5\n    /* \"#utility.yul\":2576:2579   */\n  dup5\n    /* \"#utility.yul\":2572:2588   */\n  add\n    /* \"#utility.yul\":2569:2594   */\n  gt\n    /* \"#utility.yul\":2566:2678   */\n  iszero\n  tag_103\n  jumpi\n    /* \"#utility.yul\":2597:2676   */\n  tag_104\n  tag_56\n  jump\t// in\ntag_104:\n    /* \"#utility.yul\":2566:2678   */\ntag_103:\n    /* \"#utility.yul\":2687:2726   */\n  tag_105\n    /* \"#utility.yul\":2719:2725   */\n  dup5\n    /* \"#utility.yul\":2714:2717   */\n  dup3\n    /* \"#utility.yul\":2709:2712   */\n  dup6\n    /* \"#utility.yul\":2687:2726   */\n  tag_58\n  jump\t// in\ntag_105:\n    /* \"#utility.yul\":2406:2732   */\n  pop\n    /* \"#utility.yul\":2311:2732   */\n  swap4\n  swap3\n  pop\n  pop\n  pop\n  jump\t// out\n    /* \"#utility.yul\":2752:3107   */\ntag_60:\n    /* \"#utility.yul\":2819:2824   */\n  0x00\n    /* \"#utility.yul\":2868:2871   */\n  dup3\n    /* \"#utility.yul\":2861:2865   */\n  0x1f\n    /* \"#utility.yul\":2853:2859   */\n  dup4\n    /* \"#utility.yul\":2849:2866   */\n  add\n    /* \"#utility.yul\":2845:2872   */\n  slt\n    /* \"#utility.yul\":2835:2957   */\n  tag_107\n  jumpi\n    /* \"#utility.yul\":2876:2955   */\n  tag_108\n  tag_49\n  jump\t// in\ntag_108:\n    /* \"#utility.yul\":2835:2957   */\ntag_107:\n    /* \"#utility.yul\":2986:2992   */\n  dup2\n    /* \"#utility.yul\":2980:2993   */\n  mload\n    /* \"#utility.yul\":3011:3101   */\n  tag_109\n    /* \"#utility.yul\":3097:3100   */\n  dup5\n    /* \"#utility.yul\":3089:3095   */\n  dup3\n    /* \"#utility.yul\":3082:3086   */\n  0x20\n    /* \"#utility.yul\":3074:3080   */\n  dup7\n    /* \"#utility.yul\":3070:3087   */\n  add\n    /* \"#utility.yul\":3011:3101   */\n  tag_59\n  jump\t// in\ntag_109:\n    /* \"#utility.yul\":3002:3101   */\n  swap2\n  pop\n    /* \"#utility.yul\":2825:3107   */\n  pop\n    /* \"#utility.yul\":2752:3107   */\n  swap3\n  swap2\n  pop\n  pop\n  jump\t// out\n    /* \"#utility.yul\":3130:4023   */\ntag_61:\n    /* \"#utility.yul\":3245:3250   */\n  0x00\n    /* \"#utility.yul\":3270:3359   */\n  tag_111\n    /* \"#utility.yul\":3286:3358   */\n  tag_112\n    /* \"#utility.yul\":3351:3357   */\n  dup5\n    /* \"#utility.yul\":3286:3358   */\n  tag_54\n  jump\t// in\ntag_112:\n    /* \"#utility.yul\":3270:3359   */\n  tag_53\n  jump\t// in\ntag_111:\n    /* \"#utility.yul\":3261:3359   */\n  swap1\n  pop\n    /* \"#utility.yul\":3379:3384   */\n  dup1\n    /* \"#utility.yul\":3432:3436   */\n  0x20\n    /* \"#utility.yul\":3424:3430   */\n  dup5\n    /* \"#utility.yul\":3420:3437   */\n  mul\n    /* \"#utility.yul\":3412:3418   */\n  dup4\n    /* \"#utility.yul\":3408:3438   */\n  add\n    /* \"#utility.yul\":3461:3464   */\n  dup6\n    /* \"#utility.yul\":3453:3459   */\n  dup2\n    /* \"#utility.yul\":3450:3465   */\n  gt\n    /* \"#utility.yul\":3447:3569   */\n  iszero\n  tag_113\n  jumpi\n    /* \"#utility.yul\":3480:3559   */\n  tag_114\n  tag_55\n  jump\t// in\ntag_114:\n    /* \"#utility.yul\":3447:3569   */\ntag_113:\n    /* \"#utility.yul\":3595:3601   */\n  dup4\n    /* \"#utility.yul\":3578:4017   */\ntag_115:\n    /* \"#utility.yul\":3612:3618   */\n  dup2\n    /* \"#utility.yul\":3607:3610   */\n  dup2\n    /* \"#utility.yul\":3604:3619   */\n  lt\n    /* \"#utility.yul\":3578:4017   */\n  iszero\n  tag_117\n  jumpi\n    /* \"#utility.yul\":3694:3697   */\n  dup1\n    /* \"#utility.yul\":3688:3698   */\n  mload\n    /* \"#utility.yul\":3730:3748   */\n  0xffffffffffffffff\n    /* \"#utility.yul\":3717:3728   */\n  dup2\n    /* \"#utility.yul\":3714:3749   */\n  gt\n    /* \"#utility.yul\":3711:3833   */\n  iszero\n  tag_118\n  jumpi\n    /* \"#utility.yul\":3752:3831   */\n  tag_119\n  tag_49\n  jump\t// in\ntag_119:\n    /* \"#utility.yul\":3711:3833   */\ntag_118:\n    /* \"#utility.yul\":3876:3887   */\n  dup1\n    /* \"#utility.yul\":3868:3874   */\n  dup7\n    /* \"#utility.yul\":3864:3888   */\n  add\n    /* \"#utility.yul\":3914:3972   */\n  tag_120\n    /* \"#utility.yul\":3968:3971   */\n  dup10\n    /* \"#utility.yul\":3956:3966   */\n  dup3\n    /* \"#utility.yul\":3914:3972   */\n  tag_60\n  jump\t// in\ntag_120:\n    /* \"#utility.yul\":3909:3912   */\n  dup6\n    /* \"#utility.yul\":3902:3973   */\n  mstore\n    /* \"#utility.yul\":4002:4006   */\n  0x20\n    /* \"#utility.yul\":3997:4000   */\n  dup6\n    /* \"#utility.yul\":3993:4007   */\n  add\n    /* \"#utility.yul\":3986:4007   */\n  swap5\n  pop\n    /* \"#utility.yul\":3654:4017   */\n  pop\n  pop\n    /* \"#utility.yul\":3638:3642   */\n  0x20\n    /* \"#utility.yul\":3633:3636   */\n  dup2\n    /* \"#utility.yul\":3629:3643   */\n  add\n    /* \"#utility.yul\":3622:3643   */\n  swap1\n  pop\n    /* \"#utility.yul\":3578:4017   */\n  jump(tag_115)\ntag_117:\n    /* \"#utility.yul\":3582:3603   */\n  pop\n    /* \"#utility.yul\":3251:4023   */\n  pop\n  pop\n    /* \"#utility.yul\":3130:4023   */\n  swap4\n  swap3\n  pop\n  pop\n  pop\n  jump\t// out\n    /* \"#utility.yul\":4046:4427   */\ntag_62:\n    /* \"#utility.yul\":4136:4141   */\n  0x00\n    /* \"#utility.yul\":4185:4188   */\n  dup3\n    /* \"#utility.yul\":4178:4182   */\n  0x1f\n    /* \"#utility.yul\":4170:4176   */\n  dup4\n    /* \"#utility.yul\":4166:4183   */\n  add\n    /* \"#utility.yul\":4162:4189   */\n  slt\n    /* \"#utility.yul\":4152:4274   */\n  tag_122\n  jumpi\n    /* \"#utility.yul\":4193:4272   */\n  tag_123\n  tag_49\n  jump\t// in\ntag_123:\n    /* \"#utility.yul\":4152:4274   */\ntag_122:\n    /* \"#utility.yul\":4297:4301   */\n  0x03\n    /* \"#utility.yul\":4319:4421   */\n  tag_124\n    /* \"#utility.yul\":4417:4420   */\n  dup5\n    /* \"#utility.yul\":4409:4415   */\n  dup3\n    /* \"#utility.yul\":4401:4407   */\n  dup6\n    /* \"#utility.yul\":4319:4421   */\n  tag_61\n  jump\t// in\ntag_124:\n    /* \"#utility.yul\":4310:4421   */\n  swap2\n  pop\n    /* \"#utility.yul\":4142:4427   */\n  pop\n    /* \"#utility.yul\":4046:4427   */\n  swap3\n  swap2\n  pop\n  pop\n  jump\t// out\n    /* \"#utility.yul\":4433:5003   */\ntag_8:\n    /* \"#utility.yul\":4536:4542   */\n  0x00\n    /* \"#utility.yul\":4585:4587   */\n  0x20\n    /* \"#utility.yul\":4573:4582   */\n  dup3\n    /* \"#utility.yul\":4564:4571   */\n  dup5\n    /* \"#utility.yul\":4560:4583   */\n  sub\n    /* \"#utility.yul\":4556:4588   */\n  slt\n    /* \"#utility.yul\":4553:4672   */\n  iszero\n  tag_126\n  jumpi\n    /* \"#utility.yul\":4591:4670   */\n  tag_127\n  tag_47\n  jump\t// in\ntag_127:\n    /* \"#utility.yul\":4553:4672   */\ntag_126:\n    /* \"#utility.yul\":4732:4733   */\n  0x00\n    /* \"#utility.yul\":4721:4730   */\n  dup3\n    /* \"#utility.yul\":4717:4734   */\n  add\n    /* \"#utility.yul\":4711:4735   */\n  mload\n    /* \"#utility.yul\":4762:4780   */\n  0xffffffffffffffff\n    /* \"#utility.yul\":4754:4760   */\n  dup2\n    /* \"#utility.yul\":4751:4781   */\n  gt\n    /* \"#utility.yul\":4748:4865   */\n  iszero\n  tag_128\n  jumpi\n    /* \"#utility.yul\":4784:4863   */\n  tag_129\n  tag_48\n  jump\t// in\ntag_129:\n    /* \"#utility.yul\":4748:4865   */\ntag_128:\n    /* \"#utility.yul\":4889:4986   */\n  tag_130\n    /* \"#utility.yul\":4978:4985   */\n  dup5\n    /* \"#utility.yul\":4969:4975   */\n  dup3\n    /* \"#utility.yul\":4958:4967   */\n  dup6\n    /* \"#utility.yul\":4954:4976   */\n  add\n    /* \"#utility.yul\":4889:4986   */\n  tag_62\n  jump\t// in\ntag_130:\n    /* \"#utility.yul\":4879:4986   */\n  swap2\n  pop\n    /* \"#utility.yul\":4682:4996   */\n  pop\n    /* \"#utility.yul\":4433:5003   */\n  swap3\n  swap2\n  pop\n  pop\n  jump\t// out\n    /* \"#utility.yul\":5009:5189   */\ntag_14:\n    /* \"#utility.yul\":5057:5134   */\n  0x4e487b7100000000000000000000000000000000000000000000000000000000\n    /* \"#utility.yul\":5054:5055   */\n  0x00\n    /* \"#utility.yul\":5047:5135   */\n  mstore\n    /* \"#utility.yul\":5154:5158   */\n  0x32\n    /* \"#utility.yul\":5151:5152   */\n  0x04\n    /* \"#utility.yul\":5144:5159   */\n  mstore\n    /* \"#utility.yul\":5178:5182   */\n  0x24\n    /* \"#utility.yul\":5175:5176   */\n  0x00\n    /* \"#utility.yul\":5168:5183   */\n  revert\n    /* \"#utility.yul\":5195:5294   */\ntag_63:\n    /* \"#utility.yul\":5247:5253   */\n  0x00\n    /* \"#utility.yul\":5281:5286   */\n  dup2\n    /* \"#utility.yul\":5275:5287   */\n  mload\n    /* \"#utility.yul\":5265:5287   */\n  swap1\n  pop\n    /* \"#utility.yul\":5195:5294   */\n  swap2\n  swap1\n  pop\n  jump\t// out\n    /* \"#utility.yul\":5300:5469   */\ntag_64:\n    /* \"#utility.yul\":5384:5395   */\n  0x00\n    /* \"#utility.yul\":5418:5424   */\n  dup3\n    /* \"#utility.yul\":5413:5416   */\n  dup3\n    /* \"#utility.yul\":5406:5425   */\n  mstore\n    /* \"#utility.yul\":5458:5462   */\n  0x20\n    /* \"#utility.yul\":5453:5456   */\n  dup3\n    /* \"#utility.yul\":5449:5463   */\n  add\n    /* \"#utility.yul\":5434:5463   */\n  swap1\n  pop\n    /* \"#utility.yul\":5300:5469   */\n  swap3\n  swap2\n  pop\n  pop\n  jump\t// out\n    /* \"#utility.yul\":5475:5839   */\ntag_65:\n    /* \"#utility.yul\":5563:5566   */\n  0x00\n    /* \"#utility.yul\":5591:5630   */\n  tag_135\n    /* \"#utility.yul\":5624:5629   */\n  dup3\n    /* \"#utility.yul\":5591:5630   */\n  tag_63\n  jump\t// in\ntag_135:\n    /* \"#utility.yul\":5646:5717   */\n  tag_136\n    /* \"#utility.yul\":5710:5716   */\n  dup2\n    /* \"#utility.yul\":5705:5708   */\n  dup6\n    /* \"#utility.yul\":5646:5717   */\n  tag_64\n  jump\t// in\ntag_136:\n    /* \"#utility.yul\":5639:5717   */\n  swap4\n  pop\n    /* \"#utility.yul\":5726:5778   */\n  tag_137\n    /* \"#utility.yul\":5771:5777   */\n  dup2\n    /* \"#utility.yul\":5766:5769   */\n  dup6\n    /* \"#utility.yul\":5759:5763   */\n  0x20\n    /* \"#utility.yul\":5752:5757   */\n  dup7\n    /* \"#utility.yul\":5748:5764   */\n  add\n    /* \"#utility.yul\":5726:5778   */\n  tag_58\n  jump\t// in\ntag_137:\n    /* \"#utility.yul\":5803:5832   */\n  tag_138\n    /* \"#utility.yul\":5825:5831   */\n  dup2\n    /* \"#utility.yul\":5803:5832   */\n  tag_50\n  jump\t// in\ntag_138:\n    /* \"#utility.yul\":5798:5801   */\n  dup5\n    /* \"#utility.yul\":5794:5833   */\n  add\n    /* \"#utility.yul\":5787:5833   */\n  swap2\n  pop\n    /* \"#utility.yul\":5567:5839   */\n  pop\n    /* \"#utility.yul\":5475:5839   */\n  swap3\n  swap2\n  pop\n  pop\n  jump\t// out\n    /* \"#utility.yul\":5845:6158   */\ntag_16:\n    /* \"#utility.yul\":5958:5962   */\n  0x00\n    /* \"#utility.yul\":5996:5998   */\n  0x20\n    /* \"#utility.yul\":5985:5994   */\n  dup3\n    /* \"#utility.yul\":5981:5999   */\n  add\n    /* \"#utility.yul\":5973:5999   */\n  swap1\n  pop\n    /* \"#utility.yul\":6045:6054   */\n  dup2\n    /* \"#utility.yul\":6039:6043   */\n  dup2\n    /* \"#utility.yul\":6035:6055   */\n  sub\n    /* \"#utility.yul\":6031:6032   */\n  0x00\n    /* \"#utility.yul\":6020:6029   */\n  dup4\n    /* \"#utility.yul\":6016:6033   */\n  add\n    /* \"#utility.yul\":6009:6056   */\n  mstore\n    /* \"#utility.yul\":6073:6151   */\n  tag_140\n    /* \"#utility.yul\":6146:6150   */\n  dup2\n    /* \"#utility.yul\":6137:6143   */\n  dup5\n    /* \"#utility.yul\":6073:6151   */\n  tag_65\n  jump\t// in\ntag_140:\n    /* \"#utility.yul\":6065:6151   */\n  swap1\n  pop\n    /* \"#utility.yul\":5845:6158   */\n  swap3\n  swap2\n  pop\n  pop\n  jump\t// out\n    /* \"#utility.yul\":6164:6250   */\ntag_66:\n    /* \"#utility.yul\":6199:6206   */\n  0x00\n    /* \"#utility.yul\":6239:6243   */\n  0xff\n    /* \"#utility.yul\":6232:6237   */\n  dup3\n    /* \"#utility.yul\":6228:6244   */\n  and\n    /* \"#utility.yul\":6217:6244   */\n  swap1\n  pop\n    /* \"#utility.yul\":6164:6250   */\n  swap2\n  swap1\n  pop\n  jump\t// out\n    /* \"#utility.yul\":6256:6374   */\ntag_67:\n    /* \"#utility.yul\":6327:6349   */\n  tag_143\n    /* \"#utility.yul\":6343:6348   */\n  dup2\n    /* \"#utility.yul\":6327:6349   */\n  tag_66\n  jump\t// in\ntag_143:\n    /* \"#utility.yul\":6320:6325   */\n  dup2\n    /* \"#utility.yul\":6317:6350   */\n  eq\n    /* \"#utility.yul\":6307:6368   */\n  tag_144\n  jumpi\n    /* \"#utility.yul\":6364:6365   */\n  0x00\n    /* \"#utility.yul\":6361:6362   */\n  dup1\n    /* \"#utility.yul\":6354:6366   */\n  revert\n    /* \"#utility.yul\":6307:6368   */\ntag_144:\n    /* \"#utility.yul\":6256:6374   */\n  pop\n  jump\t// out\n    /* \"#utility.yul\":6380:6519   */\ntag_68:\n    /* \"#utility.yul\":6435:6440   */\n  0x00\n    /* \"#utility.yul\":6466:6472   */\n  dup2\n    /* \"#utility.yul\":6460:6473   */\n  mload\n    /* \"#utility.yul\":6451:6473   */\n  swap1\n  pop\n    /* \"#utility.yul\":6482:6513   */\n  tag_146\n    /* \"#utility.yul\":6507:6512   */\n  dup2\n    /* \"#utility.yul\":6482:6513   */\n  tag_67\n  jump\t// in\ntag_146:\n    /* \"#utility.yul\":6380:6519   */\n  swap3\n  swap2\n  pop\n  pop\n  jump\t// out\n    /* \"#utility.yul\":6525:6872   */\ntag_21:\n    /* \"#utility.yul\":6593:6599   */\n  0x00\n    /* \"#utility.yul\":6642:6644   */\n  0x20\n    /* \"#utility.yul\":6630:6639   */\n  dup3\n    /* \"#utility.yul\":6621:6628   */\n  dup5\n    /* \"#utility.yul\":6617:6640   */\n  sub\n    /* \"#utility.yul\":6613:6645   */\n  slt\n    /* \"#utility.yul\":6610:6729   */\n  iszero\n  tag_148\n  jumpi\n    /* \"#utility.yul\":6648:6727   */\n  tag_149\n  tag_47\n  jump\t// in\ntag_149:\n    /* \"#utility.yul\":6610:6729   */\ntag_148:\n    /* \"#utility.yul\":6768:6769   */\n  0x00\n    /* \"#utility.yul\":6793:6855   */\n  tag_150\n    /* \"#utility.yul\":6847:6854   */\n  dup5\n    /* \"#utility.yul\":6838:6844   */\n  dup3\n    /* \"#utility.yul\":6827:6836   */\n  dup6\n    /* \"#utility.yul\":6823:6845   */\n  add\n    /* \"#utility.yul\":6793:6855   */\n  tag_68\n  jump\t// in\ntag_150:\n    /* \"#utility.yul\":6783:6855   */\n  swap2\n  pop\n    /* \"#utility.yul\":6739:6865   */\n  pop\n    /* \"#utility.yul\":6525:6872   */\n  swap3\n  swap2\n  pop\n  pop\n  jump\t// out\n    /* \"#utility.yul\":6878:6955   */\ntag_69:\n    /* \"#utility.yul\":6915:6922   */\n  0x00\n    /* \"#utility.yul\":6944:6949   */\n  dup2\n    /* \"#utility.yul\":6933:6949   */\n  swap1\n  pop\n    /* \"#utility.yul\":6878:6955   */\n  swap2\n  swap1\n  pop\n  jump\t// out\n    /* \"#utility.yul\":6961:7141   */\ntag_70:\n    /* \"#utility.yul\":7009:7086   */\n  0x4e487b7100000000000000000000000000000000000000000000000000000000\n    /* \"#utility.yul\":7006:7007   */\n  0x00\n    /* \"#utility.yul\":6999:7087   */\n  mstore\n    /* \"#utility.yul\":7106:7110   */\n  0x11\n    /* \"#utility.yul\":7103:7104   */\n  0x04\n    /* \"#utility.yul\":7096:7111   */\n  mstore\n    /* \"#utility.yul\":7130:7134   */\n  0x24\n    /* \"#utility.yul\":7127:7128   */\n  0x00\n    /* \"#utility.yul\":7120:7135   */\n  revert\n    /* \"#utility.yul\":7147:7452   */\ntag_25:\n    /* \"#utility.yul\":7187:7190   */\n  0x00\n    /* \"#utility.yul\":7206:7226   */\n  tag_154\n    /* \"#utility.yul\":7224:7225   */\n  dup3\n    /* \"#utility.yul\":7206:7226   */\n  tag_69\n  jump\t// in\ntag_154:\n    /* \"#utility.yul\":7201:7226   */\n  swap2\n  pop\n    /* \"#utility.yul\":7240:7260   */\n  tag_155\n    /* \"#utility.yul\":7258:7259   */\n  dup4\n    /* \"#utility.yul\":7240:7260   */\n  tag_69\n  jump\t// in\ntag_155:\n    /* \"#utility.yul\":7235:7260   */\n  swap3\n  pop\n    /* \"#utility.yul\":7394:7395   */\n  dup3\n    /* \"#utility.yul\":7326:7392   */\n  0xffffffffffffffffffffffffffffffffffffffffffffffffffffffffffffffff\n    /* \"#utility.yul\":7322:7396   */\n  sub\n    /* \"#utility.yul\":7319:7320   */\n  dup3\n    /* \"#utility.yul\":7316:7397   */\n  gt\n    /* \"#utility.yul\":7313:7420   */\n  iszero\n  tag_156\n  jumpi\n    /* \"#utility.yul\":7400:7418   */\n  tag_157\n  tag_70\n  jump\t// in\ntag_157:\n    /* \"#utility.yul\":7313:7420   */\ntag_156:\n    /* \"#utility.yul\":7444:7445   */\n  dup3\n    /* \"#utility.yul\":7441:7442   */\n  dup3\n    /* \"#utility.yul\":7437:7446   */\n  add\n    /* \"#utility.yul\":7430:7446   */\n  swap1\n  pop\n    /* \"#utility.yul\":7147:7452   */\n  swap3\n  swap2\n  pop\n  pop\n  jump\t// out\n    /* \"#utility.yul\":7458:7649   */\ntag_27:\n    /* \"#utility.yul\":7498:7502   */\n  0x00\n    /* \"#utility.yul\":7518:7538   */\n  tag_159\n    /* \"#utility.yul\":7536:7537   */\n  dup3\n    /* \"#utility.yul\":7518:7538   */\n  tag_69\n  jump\t// in\ntag_159:\n    /* \"#utility.yul\":7513:7538   */\n  swap2\n  pop\n    /* \"#utility.yul\":7552:7572   */\n  tag_160\n    /* \"#utility.yul\":7570:7571   */\n  dup4\n    /* \"#utility.yul\":7552:7572   */\n  tag_69\n  jump\t// in\ntag_160:\n    /* \"#utility.yul\":7547:7572   */\n  swap3\n  pop\n    /* \"#utility.yul\":7591:7592   */\n  dup3\n    /* \"#utility.yul\":7588:7589   */\n  dup3\n    /* \"#utility.yul\":7585:7593   */\n  lt\n    /* \"#utility.yul\":7582:7616   */\n  iszero\n  tag_161\n  jumpi\n    /* \"#utility.yul\":7596:7614   */\n  tag_162\n  tag_70\n  jump\t// in\ntag_162:\n    /* \"#utility.yul\":7582:7616   */\ntag_161:\n    /* \"#utility.yul\":7641:7642   */\n  dup3\n    /* \"#utility.yul\":7638:7639   */\n  dup3\n    /* \"#utility.yul\":7634:7643   */\n  sub\n    /* \"#utility.yul\":7626:7643   */\n  swap1\n  pop\n    /* \"#utility.yul\":7458:7649   */\n  swap3\n  swap2\n  pop\n  pop\n  jump\t// out\n    /* \"#utility.yul\":7655:7888   */\ntag_33:\n    /* \"#utility.yul\":7694:7697   */\n  0x00\n    /* \"#utility.yul\":7717:7741   */\n  tag_164\n    /* \"#utility.yul\":7735:7740   */\n  dup3\n    /* \"#utility.yul\":7717:7741   */\n  tag_69\n  jump\t// in\ntag_164:\n    /* \"#utility.yul\":7708:7741   */\n  swap2\n  pop\n    /* \"#utility.yul\":7763:7829   */\n  0xffffffffffffffffffffffffffffffffffffffffffffffffffffffffffffffff\n    /* \"#utility.yul\":7756:7761   */\n  dup3\n    /* \"#utility.yul\":7753:7830   */\n  eq\n    /* \"#utility.yul\":7750:7853   */\n  iszero\n  tag_165\n  jumpi\n    /* \"#utility.yul\":7833:7851   */\n  tag_166\n  tag_70\n  jump\t// in\ntag_166:\n    /* \"#utility.yul\":7750:7853   */\ntag_165:\n    /* \"#utility.yul\":7880:7881   */\n  0x01\n    /* \"#utility.yul\":7873:7878   */\n  dup3\n    /* \"#utility.yul\":7869:7882   */\n  add\n    /* \"#utility.yul\":7862:7882   */\n  swap1\n  pop\n    /* \"#utility.yul\":7655:7888   */\n  swap2\n  swap1\n  pop\n  jump\t// out\n    /* \"#utility.yul\":7894:8074   */\ntag_71:\n    /* \"#utility.yul\":7942:8019   */\n  0x4e487b7100000000000000000000000000000000000000000000000000000000\n    /* \"#utility.yul\":7939:7940   */\n  0x00\n    /* \"#utility.yul\":7932:8020   */\n  mstore\n    /* \"#utility.yul\":8039:8043   */\n  0x22\n    /* \"#utility.yul\":8036:8037   */\n  0x04\n    /* \"#utility.yul\":8029:8044   */\n  mstore\n    /* \"#utility.yul\":8063:8067   */\n  0x24\n    /* \"#utility.yul\":8060:8061   */\n  0x00\n    /* \"#utility.yul\":8053:8068   */\n  revert\n    /* \"#utility.yul\":8080:8400   */\ntag_36:\n    /* \"#utility.yul\":8124:8130   */\n  0x00\n    /* \"#utility.yul\":8161:8162   */\n  0x02\n    /* \"#utility.yul\":8155:8159   */\n  dup3\n    /* \"#utility.yul\":8151:8163   */\n  div\n    /* \"#utility.yul\":8141:8163   */\n  swap1\n  pop\n    /* \"#utility.yul\":8208:8209   */\n  0x01\n    /* \"#utility.yul\":8202:8206   */\n  dup3\n    /* \"#utility.yul\":8198:8210   */\n  and\n    /* \"#utility.yul\":8229:8247   */\n  dup1\n    /* \"#utility.yul\":8219:8300   */\n  tag_169\n  jumpi\n    /* \"#utility.yul\":8285:8289   */\n  0x7f\n    /* \"#utility.yul\":8277:8283   */\n  dup3\n    /* \"#utility.yul\":8273:8290   */\n  and\n    /* \"#utility.yul\":8263:8290   */\n  swap2\n  pop\n    /* \"#utility.yul\":8219:8300   */\ntag_169:\n    /* \"#utility.yul\":8347:8349   */\n  0x20\n    /* \"#utility.yul\":8339:8345   */\n  dup3\n    /* \"#utility.yul\":8336:8350   */\n  lt\n    /* \"#utility.yul\":8316:8334   */\n  dup2\n    /* \"#utility.yul\":8313:8351   */\n  eq\n    /* \"#utility.yul\":8310:8394   */\n  iszero\n  tag_170\n  jumpi\n    /* \"#utility.yul\":8366:8384   */\n  tag_171\n  tag_71\n  jump\t// in\ntag_171:\n    /* \"#utility.yul\":8310:8394   */\ntag_170:\n    /* \"#utility.yul\":8131:8400   */\n  pop\n    /* \"#utility.yul\":8080:8400   */\n  swap2\n  swap1\n  pop\n  jump\t// out\n    /* \"contracts/TestInterview.sol\":208:2815  contract TestInterview {... */\ntag_34:\n  dataSize(sub_0)\n  dup1\n  dataOffset(sub_0)\n  0x00\n  codecopy\n  0x00\n  return\nstop\n\nsub_0: assembly {\n        /* \"contracts/TestInterview.sol\":208:2815  contract TestInterview {... */\n      mstore(0x40, 0x80)\n      callvalue\n      dup1\n      iszero\n      tag_1\n      jumpi\n      0x00\n      dup1\n      revert\n    tag_1:\n      pop\n      jumpi(tag_2, lt(calldatasize, 0x04))\n      shr(0xe0, calldataload(0x00))\n      dup1\n      0xa7beb5d0\n      gt\n      tag_13\n      jumpi\n      dup1\n      0xa7beb5d0\n      eq\n      tag_8\n      jumpi\n      dup1\n      0xbb4a376b\n      eq\n      tag_9\n      jumpi\n      dup1\n      0xc15d3ead\n      eq\n      tag_10\n      jumpi\n      dup1\n      0xe917ec96\n      eq\n      tag_11\n      jumpi\n      dup1\n      0xfc6f9468\n      eq\n      tag_12\n      jumpi\n      jump(tag_2)\n    tag_13:\n      dup1\n      0xce8e3e\n      eq\n      tag_3\n      jumpi\n      dup1\n      0x06cd309b\n      eq\n      tag_4\n      jumpi\n      dup1\n      0x6fd3d9e2\n      eq\n      tag_5\n      jumpi\n      dup1\n      0x7259e0f8\n      eq\n      tag_6\n      jumpi\n      dup1\n      0x8f84aa09\n      eq\n      tag_7\n      jumpi\n    tag_2:\n      0x00\n      dup1\n      revert\n        /* \"contracts/TestInterview.sol\":2719:2812  function getUsers() public view returns(Rarity[] memory) {... */\n    tag_3:\n      tag_14\n      tag_15\n      jump\t// in\n    tag_14:\n      mload(0x40)\n      tag_16\n      swap2\n      swap1\n      tag_17\n      jump\t// in\n    tag_16:\n      mload(0x40)\n      dup1\n      swap2\n      sub\n      swap1\n      return\n        /* \"contracts/TestInterview.sol\":421:448  uint public limitGatcha = 2 */\n    tag_4:\n      tag_18\n      tag_19\n      jump\t// in\n    tag_18:\n      mload(0x40)\n      tag_20\n      swap2\n      swap1\n      tag_21\n      jump\t// in\n    tag_20:\n      mload(0x40)\n      dup1\n      swap2\n      sub\n      swap1\n      return\n        /* \"contracts/TestInterview.sol\":553:579  Rarity[] public rarityList */\n    tag_5:\n      tag_22\n      0x04\n      dup1\n      calldatasize\n      sub\n      dup2\n      add\n      swap1\n      tag_23\n      swap2\n      swap1\n      tag_24\n      jump\t// in\n    tag_23:\n      tag_25\n      jump\t// in\n    tag_22:\n      mload(0x40)\n      tag_26\n      swap4\n      swap3\n      swap2\n      swap1\n      tag_27\n      jump\t// in\n    tag_26:\n      mload(0x40)\n      dup1\n      swap2\n      sub\n      swap1\n      return\n        /* \"contracts/TestInterview.sol\":753:792  RegisteredUser[] public registeredUsers */\n    tag_6:\n      tag_28\n      0x04\n      dup1\n      calldatasize\n      sub\n      dup2\n      add\n      swap1\n      tag_29\n      swap2\n      swap1\n      tag_24\n      jump\t// in\n    tag_29:\n      tag_30\n      jump\t// in\n    tag_28:\n      mload(0x40)\n      tag_31\n      swap3\n      swap2\n      swap1\n      tag_32\n      jump\t// in\n    tag_31:\n      mload(0x40)\n      dup1\n      swap2\n      sub\n      swap1\n      return\n        /* \"contracts/TestInterview.sol\":308:380  address public ownerAddress = 0xdBDdb8575F6bda11F1DC548A1B546463CC567C3d */\n    tag_7:\n      tag_33\n      tag_34\n      jump\t// in\n    tag_33:\n      mload(0x40)\n      tag_35\n      swap2\n      swap1\n      tag_36\n      jump\t// in\n    tag_35:\n      mload(0x40)\n      dup1\n      swap2\n      sub\n      swap1\n      return\n        /* \"contracts/TestInterview.sol\":2570:2711  function rarityRateFunc (string memory _nameRarity) public view returns(uint256) {... */\n    tag_8:\n      tag_37\n      0x04\n      dup1\n      calldatasize\n      sub\n      dup2\n      add\n      swap1\n      tag_38\n      swap2\n      swap1\n      tag_39\n      jump\t// in\n    tag_38:\n      tag_40\n      jump\t// in\n    tag_37:\n      mload(0x40)\n      tag_41\n      swap2\n      swap1\n      tag_21\n      jump\t// in\n    tag_41:\n      mload(0x40)\n      dup1\n      swap2\n      sub\n      swap1\n      return\n        /* \"contracts/TestInterview.sol\":2387:2562  function rarityListFunc () public view returns(string memory) {... */\n    tag_9:\n      tag_42\n      tag_43\n      jump\t// in\n    tag_42:\n      mload(0x40)\n      tag_44\n      swap2\n      swap1\n      tag_45\n      jump\t// in\n    tag_44:\n      mload(0x40)\n      dup1\n      swap2\n      sub\n      swap1\n      return\n        /* \"contracts/TestInterview.sol\":2178:2379  function changeGatchaLimit(uint256 _newLimit) public {... */\n    tag_10:\n      tag_46\n      0x04\n      dup1\n      calldatasize\n      sub\n      dup2\n      add\n      swap1\n      tag_47\n      swap2\n      swap1\n      tag_24\n      jump\t// in\n    tag_47:\n      tag_48\n      jump\t// in\n    tag_46:\n      stop\n        /* \"contracts/TestInterview.sol\":1369:1576  function createGatcha () public checkUserLimit {... */\n    tag_11:\n      tag_49\n      tag_50\n      jump\t// in\n    tag_49:\n      stop\n        /* \"contracts/TestInterview.sol\":387:414  address public adminAddress */\n    tag_12:\n      tag_51\n      tag_52\n      jump\t// in\n    tag_51:\n      mload(0x40)\n      tag_53\n      swap2\n      swap1\n      tag_36\n      jump\t// in\n    tag_53:\n      mload(0x40)\n      dup1\n      swap2\n      sub\n      swap1\n      return\n        /* \"contracts/TestInterview.sol\":2719:2812  function getUsers() public view returns(Rarity[] memory) {... */\n    tag_15:\n        /* \"contracts/TestInterview.sol\":2759:2774  Rarity[] memory */\n      0x60\n        /* \"contracts/TestInterview.sol\":2794:2804  rarityList */\n      0x04\n        /* \"contracts/TestInterview.sol\":2787:2804  return rarityList */\n      dup1\n      sload\n      dup1\n      0x20\n      mul\n      0x20\n      add\n      mload(0x40)\n      swap1\n      dup2\n      add\n      0x40\n      mstore\n      dup1\n      swap3\n      swap2\n      swap1\n      dup2\n      dup2\n      mstore\n      0x20\n      add\n      0x00\n      swap1\n    tag_55:\n      dup3\n      dup3\n      lt\n      iszero\n      tag_56\n      jumpi\n      dup4\n      dup3\n      swap1\n      0x00\n      mstore\n      keccak256(0x00, 0x20)\n      swap1\n      0x03\n      mul\n      add\n      mload(0x40)\n      dup1\n      0x60\n      add\n      0x40\n      mstore\n      swap1\n      dup2\n      0x00\n      dup3\n      add\n      dup1\n      sload\n      tag_58\n      swap1\n      tag_59\n      jump\t// in\n    tag_58:\n      dup1\n      0x1f\n      add\n      0x20\n      dup1\n      swap2\n      div\n      mul\n      0x20\n      add\n      mload(0x40)\n      swap1\n      dup2\n      add\n      0x40\n      mstore\n      dup1\n      swap3\n      swap2\n      swap1\n      dup2\n      dup2\n      mstore\n      0x20\n      add\n      dup3\n      dup1\n      sload\n      tag_60\n      swap1\n      tag_59\n      jump\t// in\n    tag_60:\n      dup1\n      iszero\n      tag_61\n      jumpi\n      dup1\n      0x1f\n      lt\n      tag_62\n      jumpi\n      0x0100\n      dup1\n      dup4\n      sload\n      div\n      mul\n      dup4\n      mstore\n      swap2\n      0x20\n      add\n      swap2\n      jump(tag_61)\n    tag_62:\n      dup3\n      add\n      swap2\n      swap1\n      0x00\n      mstore\n      keccak256(0x00, 0x20)\n      swap1\n    tag_63:\n      dup2\n      sload\n      dup2\n      mstore\n      swap1\n      0x01\n      add\n      swap1\n      0x20\n      add\n      dup1\n      dup4\n      gt\n      tag_63\n      jumpi\n      dup3\n      swap1\n      sub\n      0x1f\n      and\n      dup3\n      add\n      swap2\n    tag_61:\n      pop\n      pop\n      pop\n      pop\n      pop\n      dup2\n      mstore\n      0x20\n      add\n      0x01\n      dup3\n      add\n      sload\n      dup2\n      mstore\n      0x20\n      add\n      0x02\n      dup3\n      add\n      sload\n      dup2\n      mstore\n      pop\n      pop\n      dup2\n      mstore\n      0x20\n      add\n      swap1\n      0x01\n      add\n      swap1\n      jump(tag_55)\n    tag_56:\n      pop\n      pop\n      pop\n      pop\n      swap1\n      pop\n        /* \"contracts/TestInterview.sol\":2719:2812  function getUsers() public view returns(Rarity[] memory) {... */\n      swap1\n      jump\t// out\n        /* \"contracts/TestInterview.sol\":421:448  uint public limitGatcha = 2 */\n    tag_19:\n      sload(0x03)\n      dup2\n      jump\t// out\n        /* \"contracts/TestInterview.sol\":553:579  Rarity[] public rarityList */\n    tag_25:\n      0x04\n      dup2\n      dup2\n      sload\n      dup2\n      lt\n      tag_64\n      jumpi\n      0x00\n      dup1\n      revert\n    tag_64:\n      swap1\n      0x00\n      mstore\n      keccak256(0x00, 0x20)\n      swap1\n      0x03\n      mul\n      add\n      0x00\n      swap2\n      pop\n      swap1\n      pop\n      dup1\n      0x00\n      add\n      dup1\n      sload\n      tag_66\n      swap1\n      tag_59\n      jump\t// in\n    tag_66:\n      dup1\n      0x1f\n      add\n      0x20\n      dup1\n      swap2\n      div\n      mul\n      0x20\n      add\n      mload(0x40)\n      swap1\n      dup2\n      add\n      0x40\n      mstore\n      dup1\n      swap3\n      swap2\n      swap1\n      dup2\n      dup2\n      mstore\n      0x20\n      add\n      dup3\n      dup1\n      sload\n      tag_67\n      swap1\n      tag_59\n      jump\t// in\n    tag_67:\n      dup1\n      iszero\n      tag_68\n      jumpi\n      dup1\n      0x1f\n      lt\n      tag_69\n      jumpi\n      0x0100\n      dup1\n      dup4\n      sload\n      div\n      mul\n      dup4\n      mstore\n      swap2\n      0x20\n      add\n      swap2\n      jump(tag_68)\n    tag_69:\n      dup3\n      add\n      swap2\n      swap1\n      0x00\n      mstore\n      keccak256(0x00, 0x20)\n      swap1\n    tag_70:\n      dup2\n      sload\n      dup2\n      mstore\n      swap1\n      0x01\n      add\n      swap1\n      0x20\n      add\n      dup1\n      dup4\n      gt\n      tag_70\n      jumpi\n      dup3\n      swap1\n      sub\n      0x1f\n      and\n      dup3\n      add\n      swap2\n    tag_68:\n      pop\n      pop\n      pop\n      pop\n      pop\n      swap1\n      dup1\n      0x01\n      add\n      sload\n      swap1\n      dup1\n      0x02\n      add\n      sload\n      swap1\n      pop\n      dup4\n      jump\t// out\n        /* \"contracts/TestInterview.sol\":753:792  RegisteredUser[] public registeredUsers */\n    tag_30:\n      0x05\n      dup2\n      dup2\n      sload\n      dup2\n      lt\n      tag_71\n      jumpi\n      0x00\n      dup1\n      revert\n    tag_71:\n      swap1\n      0x00\n      mstore\n      keccak256(0x00, 0x20)\n      swap1\n      0x02\n      mul\n      add\n      0x00\n      swap2\n      pop\n      swap1\n      pop\n      dup1\n      0x00\n      add\n      0x00\n      swap1\n      sload\n      swap1\n      0x0100\n      exp\n      swap1\n      div\n      0xffffffffffffffffffffffffffffffffffffffff\n      and\n      swap1\n      dup1\n      0x01\n      add\n      sload\n      swap1\n      pop\n      dup3\n      jump\t// out\n        /* \"contracts/TestInterview.sol\":308:380  address public ownerAddress = 0xdBDdb8575F6bda11F1DC548A1B546463CC567C3d */\n    tag_34:\n      0x01\n      0x00\n      swap1\n      sload\n      swap1\n      0x0100\n      exp\n      swap1\n      div\n      0xffffffffffffffffffffffffffffffffffffffff\n      and\n      dup2\n      jump\t// out\n        /* \"contracts/TestInterview.sol\":2570:2711  function rarityRateFunc (string memory _nameRarity) public view returns(uint256) {... */\n    tag_40:\n        /* \"contracts/TestInterview.sol\":2642:2649  uint256 */\n      0x00\n        /* \"contracts/TestInterview.sol\":2669:2676  objINFT */\n      dup1\n      0x00\n      swap1\n      sload\n      swap1\n      0x0100\n      exp\n      swap1\n      div\n      0xffffffffffffffffffffffffffffffffffffffff\n      and\n        /* \"contracts/TestInterview.sol\":2669:2690  objINFT.getRarityRate */\n      0xffffffffffffffffffffffffffffffffffffffff\n      and\n      0x278a7f33\n        /* \"contracts/TestInterview.sol\":2691:2702  _nameRarity */\n      dup4\n        /* \"contracts/TestInterview.sol\":2669:2703  objINFT.getRarityRate(_nameRarity) */\n      mload(0x40)\n      dup3\n      0xffffffff\n      and\n      0xe0\n      shl\n      dup2\n      mstore\n      0x04\n      add\n      tag_74\n      swap2\n      swap1\n      tag_45\n      jump\t// in\n    tag_74:\n      0x20\n      mload(0x40)\n      dup1\n      dup4\n      sub\n      dup2\n      dup7\n      dup1\n      extcodesize\n      iszero\n      dup1\n      iszero\n      tag_75\n      jumpi\n      0x00\n      dup1\n      revert\n    tag_75:\n      pop\n      gas\n      staticcall\n      iszero\n      dup1\n      iszero\n      tag_77\n      jumpi\n      returndatasize\n      0x00\n      dup1\n      returndatacopy\n      revert(0x00, returndatasize)\n    tag_77:\n      pop\n      pop\n      pop\n      pop\n      mload(0x40)\n      returndatasize\n      not(0x1f)\n      0x1f\n      dup3\n      add\n      and\n      dup3\n      add\n      dup1\n      0x40\n      mstore\n      pop\n      dup2\n      add\n      swap1\n      tag_78\n      swap2\n      swap1\n      tag_79\n      jump\t// in\n    tag_78:\n        /* \"contracts/TestInterview.sol\":2662:2703  return objINFT.getRarityRate(_nameRarity) */\n      0xff\n      and\n      swap1\n      pop\n        /* \"contracts/TestInterview.sol\":2570:2711  function rarityRateFunc (string memory _nameRarity) public view returns(uint256) {... */\n      swap2\n      swap1\n      pop\n      jump\t// out\n        /* \"contracts/TestInterview.sol\":2387:2562  function rarityListFunc () public view returns(string memory) {... */\n    tag_43:\n        /* \"contracts/TestInterview.sol\":2434:2447  string memory */\n      0x60\n        /* \"contracts/TestInterview.sol\":2460:2492  string[3] memory localRarityList */\n      0x00\n        /* \"contracts/TestInterview.sol\":2495:2502  objINFT */\n      dup1\n      0x00\n      swap1\n      sload\n      swap1\n      0x0100\n      exp\n      swap1\n      div\n      0xffffffffffffffffffffffffffffffffffffffff\n      and\n        /* \"contracts/TestInterview.sol\":2495:2516  objINFT.getRarityList */\n      0xffffffffffffffffffffffffffffffffffffffff\n      and\n      0x48441d5f\n        /* \"contracts/TestInterview.sol\":2495:2518  objINFT.getRarityList() */\n      mload(0x40)\n      dup2\n      0xffffffff\n      and\n      0xe0\n      shl\n      dup2\n      mstore\n      0x04\n      add\n      0x00\n      mload(0x40)\n      dup1\n      dup4\n      sub\n      dup2\n      dup7\n      dup1\n      extcodesize\n      iszero\n      dup1\n      iszero\n      tag_81\n      jumpi\n      0x00\n      dup1\n      revert\n    tag_81:\n      pop\n      gas\n      staticcall\n      iszero\n      dup1\n      iszero\n      tag_83\n      jumpi\n      returndatasize\n      0x00\n      dup1\n      returndatacopy\n      revert(0x00, returndatasize)\n    tag_83:\n      pop\n      pop\n      pop\n      pop\n      mload(0x40)\n      returndatasize\n      0x00\n      dup3\n      returndatacopy\n      returndatasize\n      not(0x1f)\n      0x1f\n      dup3\n      add\n      and\n      dup3\n      add\n      dup1\n      0x40\n      mstore\n      pop\n      dup2\n      add\n      swap1\n      tag_84\n      swap2\n      swap1\n      tag_85\n      jump\t// in\n    tag_84:\n        /* \"contracts/TestInterview.sol\":2460:2518  string[3] memory localRarityList = objINFT.getRarityList() */\n      swap1\n      pop\n        /* \"contracts/TestInterview.sol\":2536:2551  localRarityList */\n      dup1\n        /* \"contracts/TestInterview.sol\":2552:2553  0 */\n      0x00\n        /* \"contracts/TestInterview.sol\":2536:2554  localRarityList[0] */\n      0x03\n      dup2\n      lt\n      tag_86\n      jumpi\n      tag_87\n      tag_88\n      jump\t// in\n    tag_87:\n    tag_86:\n      0x20\n      mul\n      add\n      mload\n        /* \"contracts/TestInterview.sol\":2529:2554  return localRarityList[0] */\n      swap2\n      pop\n      pop\n        /* \"contracts/TestInterview.sol\":2387:2562  function rarityListFunc () public view returns(string memory) {... */\n      swap1\n      jump\t// out\n        /* \"contracts/TestInterview.sol\":2178:2379  function changeGatchaLimit(uint256 _newLimit) public {... */\n    tag_48:\n        /* \"contracts/TestInterview.sol\":2264:2276  adminAddress */\n      0x02\n      0x00\n      swap1\n      sload\n      swap1\n      0x0100\n      exp\n      swap1\n      div\n      0xffffffffffffffffffffffffffffffffffffffff\n      and\n        /* \"contracts/TestInterview.sol\":2250:2276  msg.sender == adminAddress */\n      0xffffffffffffffffffffffffffffffffffffffff\n      and\n        /* \"contracts/TestInterview.sol\":2250:2260  msg.sender */\n      caller\n        /* \"contracts/TestInterview.sol\":2250:2276  msg.sender == adminAddress */\n      0xffffffffffffffffffffffffffffffffffffffff\n      and\n      eq\n        /* \"contracts/TestInterview.sol\":2250:2306  msg.sender == adminAddress || msg.sender == ownerAddress */\n      dup1\n      tag_90\n      jumpi\n      pop\n        /* \"contracts/TestInterview.sol\":2294:2306  ownerAddress */\n      0x01\n      0x00\n      swap1\n      sload\n      swap1\n      0x0100\n      exp\n      swap1\n      div\n      0xffffffffffffffffffffffffffffffffffffffff\n      and\n        /* \"contracts/TestInterview.sol\":2280:2306  msg.sender == ownerAddress */\n      0xffffffffffffffffffffffffffffffffffffffff\n      and\n        /* \"contracts/TestInterview.sol\":2280:2290  msg.sender */\n      caller\n        /* \"contracts/TestInterview.sol\":2280:2306  msg.sender == ownerAddress */\n      0xffffffffffffffffffffffffffffffffffffffff\n      and\n      eq\n        /* \"contracts/TestInterview.sol\":2250:2306  msg.sender == adminAddress || msg.sender == ownerAddress */\n    tag_90:\n        /* \"contracts/TestInterview.sol\":2242:2337  require(msg.sender == adminAddress || msg.sender == ownerAddress, \"Not Authorized, Admin Only\") */\n      tag_91\n      jumpi\n      mload(0x40)\n      0x08c379a000000000000000000000000000000000000000000000000000000000\n      dup2\n      mstore\n      0x04\n      add\n      tag_92\n      swap1\n      tag_93\n      jump\t// in\n    tag_92:\n      mload(0x40)\n      dup1\n      swap2\n      sub\n      swap1\n      revert\n    tag_91:\n        /* \"contracts/TestInterview.sol\":2362:2371  _newLimit */\n      dup1\n        /* \"contracts/TestInterview.sol\":2348:2359  limitGatcha */\n      0x03\n        /* \"contracts/TestInterview.sol\":2348:2371  limitGatcha = _newLimit */\n      dup2\n      swap1\n      sstore\n      pop\n        /* \"contracts/TestInterview.sol\":2178:2379  function changeGatchaLimit(uint256 _newLimit) public {... */\n      pop\n      jump\t// out\n        /* \"contracts/TestInterview.sol\":1369:1576  function createGatcha () public checkUserLimit {... */\n    tag_50:\n        /* \"contracts/TestInterview.sol\":1622:1634  bool isFound */\n      0x00\n        /* \"contracts/TestInterview.sol\":1653:1666  uint256 index */\n      dup1\n        /* \"contracts/TestInterview.sol\":1681:2097  while(isFound == false && registeredUsers.length > 0 && index <registeredUsers.length )... */\n    tag_95:\n        /* \"contracts/TestInterview.sol\":1698:1703  false */\n      0x00\n        /* \"contracts/TestInterview.sol\":1687:1703  isFound == false */\n      iszero\n      iszero\n        /* \"contracts/TestInterview.sol\":1687:1694  isFound */\n      dup3\n        /* \"contracts/TestInterview.sol\":1687:1703  isFound == false */\n      iszero\n      iszero\n      eq\n        /* \"contracts/TestInterview.sol\":1687:1733  isFound == false && registeredUsers.length > 0 */\n      dup1\n      iszero\n      tag_97\n      jumpi\n      pop\n        /* \"contracts/TestInterview.sol\":1732:1733  0 */\n      0x00\n        /* \"contracts/TestInterview.sol\":1707:1722  registeredUsers */\n      0x05\n        /* \"contracts/TestInterview.sol\":1707:1729  registeredUsers.length */\n      dup1\n      sload\n      swap1\n      pop\n        /* \"contracts/TestInterview.sol\":1707:1733  registeredUsers.length > 0 */\n      gt\n        /* \"contracts/TestInterview.sol\":1687:1733  isFound == false && registeredUsers.length > 0 */\n    tag_97:\n        /* \"contracts/TestInterview.sol\":1687:1766  isFound == false && registeredUsers.length > 0 && index <registeredUsers.length */\n      dup1\n      iszero\n      tag_98\n      jumpi\n      pop\n        /* \"contracts/TestInterview.sol\":1744:1759  registeredUsers */\n      0x05\n        /* \"contracts/TestInterview.sol\":1744:1766  registeredUsers.length */\n      dup1\n      sload\n      swap1\n      pop\n        /* \"contracts/TestInterview.sol\":1737:1742  index */\n      dup2\n        /* \"contracts/TestInterview.sol\":1737:1766  index <registeredUsers.length */\n      lt\n        /* \"contracts/TestInterview.sol\":1687:1766  isFound == false && registeredUsers.length > 0 && index <registeredUsers.length */\n    tag_98:\n        /* \"contracts/TestInterview.sol\":1681:2097  while(isFound == false && registeredUsers.length > 0 && index <registeredUsers.length )... */\n      iszero\n      tag_96\n      jumpi\n        /* \"contracts/TestInterview.sol\":1834:1844  msg.sender */\n      caller\n        /* \"contracts/TestInterview.sol\":1796:1844  registeredUsers[index].userAddress == msg.sender */\n      0xffffffffffffffffffffffffffffffffffffffff\n      and\n        /* \"contracts/TestInterview.sol\":1796:1811  registeredUsers */\n      0x05\n        /* \"contracts/TestInterview.sol\":1812:1817  index */\n      dup3\n        /* \"contracts/TestInterview.sol\":1796:1818  registeredUsers[index] */\n      dup2\n      sload\n      dup2\n      lt\n      tag_99\n      jumpi\n      tag_100\n      tag_88\n      jump\t// in\n    tag_100:\n    tag_99:\n      swap1\n      0x00\n      mstore\n      keccak256(0x00, 0x20)\n      swap1\n      0x02\n      mul\n      add\n        /* \"contracts/TestInterview.sol\":1796:1830  registeredUsers[index].userAddress */\n      0x00\n      add\n      0x00\n      swap1\n      sload\n      swap1\n      0x0100\n      exp\n      swap1\n      div\n      0xffffffffffffffffffffffffffffffffffffffff\n      and\n        /* \"contracts/TestInterview.sol\":1796:1844  registeredUsers[index].userAddress == msg.sender */\n      0xffffffffffffffffffffffffffffffffffffffff\n      and\n      eq\n        /* \"contracts/TestInterview.sol\":1793:2063  if(registeredUsers[index].userAddress == msg.sender)... */\n      iszero\n      tag_102\n      jumpi\n        /* \"contracts/TestInterview.sol\":1888:1892  true */\n      0x01\n        /* \"contracts/TestInterview.sol\":1878:1892  isFound = true */\n      swap2\n      pop\n        /* \"contracts/TestInterview.sol\":1911:1926  registeredUsers */\n      0x05\n        /* \"contracts/TestInterview.sol\":1927:1932  index */\n      dup2\n        /* \"contracts/TestInterview.sol\":1911:1933  registeredUsers[index] */\n      dup2\n      sload\n      dup2\n      lt\n      tag_103\n      jumpi\n      tag_104\n      tag_88\n      jump\t// in\n    tag_104:\n    tag_103:\n      swap1\n      0x00\n      mstore\n      keccak256(0x00, 0x20)\n      swap1\n      0x02\n      mul\n      add\n        /* \"contracts/TestInterview.sol\":1911:1948  registeredUsers[index].counterVisited */\n      0x01\n      add\n      0x00\n        /* \"contracts/TestInterview.sol\":1911:1951  registeredUsers[index].counterVisited ++ */\n      dup2\n      sload\n      dup1\n      swap3\n      swap2\n      swap1\n      tag_106\n      swap1\n      tag_107\n      jump\t// in\n    tag_106:\n      swap2\n      swap1\n      pop\n      sstore\n      pop\n        /* \"contracts/TestInterview.sol\":2019:2030  limitGatcha */\n      sload(0x03)\n        /* \"contracts/TestInterview.sol\":1978:1993  registeredUsers */\n      0x05\n        /* \"contracts/TestInterview.sol\":1994:1999  index */\n      dup3\n        /* \"contracts/TestInterview.sol\":1978:2000  registeredUsers[index] */\n      dup2\n      sload\n      dup2\n      lt\n      tag_108\n      jumpi\n      tag_109\n      tag_88\n      jump\t// in\n    tag_109:\n    tag_108:\n      swap1\n      0x00\n      mstore\n      keccak256(0x00, 0x20)\n      swap1\n      0x02\n      mul\n      add\n        /* \"contracts/TestInterview.sol\":1978:2015  registeredUsers[index].counterVisited */\n      0x01\n      add\n      sload\n        /* \"contracts/TestInterview.sol\":1978:2030  registeredUsers[index].counterVisited <= limitGatcha */\n      gt\n      iszero\n        /* \"contracts/TestInterview.sol\":1970:2047  require(registeredUsers[index].counterVisited <= limitGatcha, \"Out of Limit\") */\n      tag_111\n      jumpi\n      mload(0x40)\n      0x08c379a000000000000000000000000000000000000000000000000000000000\n      dup2\n      mstore\n      0x04\n      add\n      tag_112\n      swap1\n      tag_113\n      jump\t// in\n    tag_112:\n      mload(0x40)\n      dup1\n      swap2\n      sub\n      swap1\n      revert\n    tag_111:\n        /* \"contracts/TestInterview.sol\":1793:2063  if(registeredUsers[index].userAddress == msg.sender)... */\n    tag_102:\n        /* \"contracts/TestInterview.sol\":2077:2085  index ++ */\n      dup1\n      dup1\n      tag_114\n      swap1\n      tag_107\n      jump\t// in\n    tag_114:\n      swap2\n      pop\n      pop\n        /* \"contracts/TestInterview.sol\":1681:2097  while(isFound == false && registeredUsers.length > 0 && index <registeredUsers.length )... */\n      jump(tag_95)\n    tag_96:\n        /* \"contracts/TestInterview.sol\":2107:2114  objINFT */\n      0x00\n      dup1\n      sload\n      swap1\n      0x0100\n      exp\n      swap1\n      div\n      0xffffffffffffffffffffffffffffffffffffffff\n      and\n        /* \"contracts/TestInterview.sol\":2107:2123  objINFT.safeMint */\n      0xffffffffffffffffffffffffffffffffffffffff\n      and\n      0x40d097c3\n        /* \"contracts/TestInterview.sol\":2124:2136  ownerAddress */\n      0x01\n      0x00\n      swap1\n      sload\n      swap1\n      0x0100\n      exp\n      swap1\n      div\n      0xffffffffffffffffffffffffffffffffffffffff\n      and\n        /* \"contracts/TestInterview.sol\":2107:2137  objINFT.safeMint(ownerAddress) */\n      mload(0x40)\n      dup3\n      0xffffffff\n      and\n      0xe0\n      shl\n      dup2\n      mstore\n      0x04\n      add\n      tag_115\n      swap2\n      swap1\n      tag_36\n      jump\t// in\n    tag_115:\n      0x00\n      mload(0x40)\n      dup1\n      dup4\n      sub\n      dup2\n      0x00\n      dup8\n      dup1\n      extcodesize\n      iszero\n      dup1\n      iszero\n      tag_116\n      jumpi\n      0x00\n      dup1\n      revert\n    tag_116:\n      pop\n      gas\n      call\n      iszero\n      dup1\n      iszero\n      tag_118\n      jumpi\n      returndatasize\n      0x00\n      dup1\n      returndatacopy\n      revert(0x00, returndatasize)\n    tag_118:\n      pop\n      pop\n      pop\n      pop\n        /* \"contracts/TestInterview.sol\":2152:2159  isFound */\n      dup2\n        /* \"contracts/TestInterview.sol\":2148:2162  if(!isFound) _ */\n      tag_119\n      jumpi\n        /* \"contracts/TestInterview.sol\":1427:1460  RegisteredUser memory newRegister */\n      0x00\n        /* \"contracts/TestInterview.sol\":1463:1524  RegisteredUser({userAddress : msg.sender, counterVisited :1}) */\n      mload(0x40)\n      dup1\n      0x40\n      add\n      0x40\n      mstore\n      dup1\n        /* \"contracts/TestInterview.sol\":1493:1503  msg.sender */\n      caller\n        /* \"contracts/TestInterview.sol\":1463:1524  RegisteredUser({userAddress : msg.sender, counterVisited :1}) */\n      0xffffffffffffffffffffffffffffffffffffffff\n      and\n      dup2\n      mstore\n      0x20\n      add\n        /* \"contracts/TestInterview.sol\":1521:1522  1 */\n      0x01\n        /* \"contracts/TestInterview.sol\":1463:1524  RegisteredUser({userAddress : msg.sender, counterVisited :1}) */\n      dup2\n      mstore\n      pop\n        /* \"contracts/TestInterview.sol\":1427:1524  RegisteredUser memory newRegister = RegisteredUser({userAddress : msg.sender, counterVisited :1}) */\n      swap1\n      pop\n        /* \"contracts/TestInterview.sol\":1535:1550  registeredUsers */\n      0x05\n        /* \"contracts/TestInterview.sol\":1556:1567  newRegister */\n      dup2\n        /* \"contracts/TestInterview.sol\":1535:1568  registeredUsers.push(newRegister) */\n      swap1\n      dup1\n      0x01\n      dup2\n      sload\n      add\n      dup1\n      dup3\n      sstore\n      dup1\n      swap2\n      pop\n      pop\n      0x01\n      swap1\n      sub\n      swap1\n      0x00\n      mstore\n      keccak256(0x00, 0x20)\n      swap1\n      0x02\n      mul\n      add\n      0x00\n      swap1\n      swap2\n      swap1\n      swap2\n      swap1\n      swap2\n      pop\n      0x00\n      dup3\n      add\n      mload\n      dup2\n      0x00\n      add\n      exp(0x0100, 0x00)\n      dup2\n      sload\n      dup2\n      0xffffffffffffffffffffffffffffffffffffffff\n      mul\n      not\n      and\n      swap1\n      dup4\n      0xffffffffffffffffffffffffffffffffffffffff\n      and\n      mul\n      or\n      swap1\n      sstore\n      pop\n      0x20\n      dup3\n      add\n      mload\n      dup2\n      0x01\n      add\n      sstore\n      pop\n      pop\n        /* \"contracts/TestInterview.sol\":1416:1576  {... */\n      pop\n        /* \"contracts/TestInterview.sol\":2148:2162  if(!isFound) _ */\n    tag_119:\n        /* \"contracts/TestInterview.sol\":1611:2170  {... */\n      pop\n      pop\n        /* \"contracts/TestInterview.sol\":1369:1576  function createGatcha () public checkUserLimit {... */\n      jump\t// out\n        /* \"contracts/TestInterview.sol\":387:414  address public adminAddress */\n    tag_52:\n      0x02\n      0x00\n      swap1\n      sload\n      swap1\n      0x0100\n      exp\n      swap1\n      div\n      0xffffffffffffffffffffffffffffffffffffffff\n      and\n      dup2\n      jump\t// out\n        /* \"#utility.yul\":7:143   */\n    tag_122:\n        /* \"#utility.yul\":96:102   */\n      0x00\n        /* \"#utility.yul\":130:135   */\n      dup2\n        /* \"#utility.yul\":124:136   */\n      mload\n        /* \"#utility.yul\":114:136   */\n      swap1\n      pop\n        /* \"#utility.yul\":7:143   */\n      swap2\n      swap1\n      pop\n      jump\t// out\n        /* \"#utility.yul\":149:355   */\n    tag_123:\n        /* \"#utility.yul\":270:281   */\n      0x00\n        /* \"#utility.yul\":304:310   */\n      dup3\n        /* \"#utility.yul\":299:302   */\n      dup3\n        /* \"#utility.yul\":292:311   */\n      mstore\n        /* \"#utility.yul\":344:348   */\n      0x20\n        /* \"#utility.yul\":339:342   */\n      dup3\n        /* \"#utility.yul\":335:349   */\n      add\n        /* \"#utility.yul\":320:349   */\n      swap1\n      pop\n        /* \"#utility.yul\":149:355   */\n      swap3\n      swap2\n      pop\n      pop\n      jump\t// out\n        /* \"#utility.yul\":361:515   */\n    tag_124:\n        /* \"#utility.yul\":450:454   */\n      0x00\n        /* \"#utility.yul\":473:476   */\n      dup2\n        /* \"#utility.yul\":465:476   */\n      swap1\n      pop\n        /* \"#utility.yul\":503:507   */\n      0x20\n        /* \"#utility.yul\":498:501   */\n      dup3\n        /* \"#utility.yul\":494:508   */\n      add\n        /* \"#utility.yul\":486:508   */\n      swap1\n      pop\n        /* \"#utility.yul\":361:515   */\n      swap2\n      swap1\n      pop\n      jump\t// out\n        /* \"#utility.yul\":521:620   */\n    tag_125:\n        /* \"#utility.yul\":573:579   */\n      0x00\n        /* \"#utility.yul\":607:612   */\n      dup2\n        /* \"#utility.yul\":601:613   */\n      mload\n        /* \"#utility.yul\":591:613   */\n      swap1\n      pop\n        /* \"#utility.yul\":521:620   */\n      swap2\n      swap1\n      pop\n      jump\t// out\n        /* \"#utility.yul\":626:785   */\n    tag_126:\n        /* \"#utility.yul\":700:711   */\n      0x00\n        /* \"#utility.yul\":734:740   */\n      dup3\n        /* \"#utility.yul\":729:732   */\n      dup3\n        /* \"#utility.yul\":722:741   */\n      mstore\n        /* \"#utility.yul\":774:778   */\n      0x20\n        /* \"#utility.yul\":769:772   */\n      dup3\n        /* \"#utility.yul\":765:779   */\n      add\n        /* \"#utility.yul\":750:779   */\n      swap1\n      pop\n        /* \"#utility.yul\":626:785   */\n      swap3\n      swap2\n      pop\n      pop\n      jump\t// out\n        /* \"#utility.yul\":791:1098   */\n    tag_127:\n        /* \"#utility.yul\":859:860   */\n      0x00\n        /* \"#utility.yul\":869:982   */\n    tag_178:\n        /* \"#utility.yul\":883:889   */\n      dup4\n        /* \"#utility.yul\":880:881   */\n      dup2\n        /* \"#utility.yul\":877:890   */\n      lt\n        /* \"#utility.yul\":869:982   */\n      iszero\n      tag_180\n      jumpi\n        /* \"#utility.yul\":968:969   */\n      dup1\n        /* \"#utility.yul\":963:966   */\n      dup3\n        /* \"#utility.yul\":959:970   */\n      add\n        /* \"#utility.yul\":953:971   */\n      mload\n        /* \"#utility.yul\":949:950   */\n      dup2\n        /* \"#utility.yul\":944:947   */\n      dup5\n        /* \"#utility.yul\":940:951   */\n      add\n        /* \"#utility.yul\":933:972   */\n      mstore\n        /* \"#utility.yul\":905:907   */\n      0x20\n        /* \"#utility.yul\":902:903   */\n      dup2\n        /* \"#utility.yul\":898:908   */\n      add\n        /* \"#utility.yul\":893:908   */\n      swap1\n      pop\n        /* \"#utility.yul\":869:982   */\n      jump(tag_178)\n    tag_180:\n        /* \"#utility.yul\":1000:1006   */\n      dup4\n        /* \"#utility.yul\":997:998   */\n      dup2\n        /* \"#utility.yul\":994:1007   */\n      gt\n        /* \"#utility.yul\":991:1092   */\n      iszero\n      tag_181\n      jumpi\n        /* \"#utility.yul\":1080:1081   */\n      0x00\n        /* \"#utility.yul\":1071:1077   */\n      dup5\n        /* \"#utility.yul\":1066:1069   */\n      dup5\n        /* \"#utility.yul\":1062:1078   */\n      add\n        /* \"#utility.yul\":1055:1082   */\n      mstore\n        /* \"#utility.yul\":991:1092   */\n    tag_181:\n        /* \"#utility.yul\":840:1098   */\n      pop\n        /* \"#utility.yul\":791:1098   */\n      pop\n      pop\n      pop\n      jump\t// out\n        /* \"#utility.yul\":1104:1206   */\n    tag_128:\n        /* \"#utility.yul\":1145:1151   */\n      0x00\n        /* \"#utility.yul\":1196:1198   */\n      0x1f\n        /* \"#utility.yul\":1192:1199   */\n      not\n        /* \"#utility.yul\":1187:1189   */\n      0x1f\n        /* \"#utility.yul\":1180:1185   */\n      dup4\n        /* \"#utility.yul\":1176:1190   */\n      add\n        /* \"#utility.yul\":1172:1200   */\n      and\n        /* \"#utility.yul\":1162:1200   */\n      swap1\n      pop\n        /* \"#utility.yul\":1104:1206   */\n      swap2\n      swap1\n      pop\n      jump\t// out\n        /* \"#utility.yul\":1212:1556   */\n    tag_129:\n        /* \"#utility.yul\":1290:1293   */\n      0x00\n        /* \"#utility.yul\":1318:1357   */\n      tag_184\n        /* \"#utility.yul\":1351:1356   */\n      dup3\n        /* \"#utility.yul\":1318:1357   */\n      tag_125\n      jump\t// in\n    tag_184:\n        /* \"#utility.yul\":1373:1434   */\n      tag_185\n        /* \"#utility.yul\":1427:1433   */\n      dup2\n        /* \"#utility.yul\":1422:1425   */\n      dup6\n        /* \"#utility.yul\":1373:1434   */\n      tag_126\n      jump\t// in\n    tag_185:\n        /* \"#utility.yul\":1366:1434   */\n      swap4\n      pop\n        /* \"#utility.yul\":1443:1495   */\n      tag_186\n        /* \"#utility.yul\":1488:1494   */\n      dup2\n        /* \"#utility.yul\":1483:1486   */\n      dup6\n        /* \"#utility.yul\":1476:1480   */\n      0x20\n        /* \"#utility.yul\":1469:1474   */\n      dup7\n        /* \"#utility.yul\":1465:1481   */\n      add\n        /* \"#utility.yul\":1443:1495   */\n      tag_127\n      jump\t// in\n    tag_186:\n        /* \"#utility.yul\":1520:1549   */\n      tag_187\n        /* \"#utility.yul\":1542:1548   */\n      dup2\n        /* \"#utility.yul\":1520:1549   */\n      tag_128\n      jump\t// in\n    tag_187:\n        /* \"#utility.yul\":1515:1518   */\n      dup5\n        /* \"#utility.yul\":1511:1550   */\n      add\n        /* \"#utility.yul\":1504:1550   */\n      swap2\n      pop\n        /* \"#utility.yul\":1294:1556   */\n      pop\n        /* \"#utility.yul\":1212:1556   */\n      swap3\n      swap2\n      pop\n      pop\n      jump\t// out\n        /* \"#utility.yul\":1562:1639   */\n    tag_130:\n        /* \"#utility.yul\":1599:1606   */\n      0x00\n        /* \"#utility.yul\":1628:1633   */\n      dup2\n        /* \"#utility.yul\":1617:1633   */\n      swap1\n      pop\n        /* \"#utility.yul\":1562:1639   */\n      swap2\n      swap1\n      pop\n      jump\t// out\n        /* \"#utility.yul\":1645:1753   */\n    tag_131:\n        /* \"#utility.yul\":1722:1746   */\n      tag_190\n        /* \"#utility.yul\":1740:1745   */\n      dup2\n        /* \"#utility.yul\":1722:1746   */\n      tag_130\n      jump\t// in\n    tag_190:\n        /* \"#utility.yul\":1717:1720   */\n      dup3\n        /* \"#utility.yul\":1710:1747   */\n      mstore\n        /* \"#utility.yul\":1645:1753   */\n      pop\n      pop\n      jump\t// out\n        /* \"#utility.yul\":1825:2587   */\n    tag_132:\n        /* \"#utility.yul\":1928:1931   */\n      0x00\n        /* \"#utility.yul\":1964:1968   */\n      0x60\n        /* \"#utility.yul\":1959:1962   */\n      dup4\n        /* \"#utility.yul\":1955:1969   */\n      add\n        /* \"#utility.yul\":2051:2055   */\n      0x00\n        /* \"#utility.yul\":2044:2049   */\n      dup4\n        /* \"#utility.yul\":2040:2056   */\n      add\n        /* \"#utility.yul\":2034:2057   */\n      mload\n        /* \"#utility.yul\":2104:2107   */\n      dup5\n        /* \"#utility.yul\":2098:2102   */\n      dup3\n        /* \"#utility.yul\":2094:2108   */\n      sub\n        /* \"#utility.yul\":2087:2091   */\n      0x00\n        /* \"#utility.yul\":2082:2085   */\n      dup7\n        /* \"#utility.yul\":2078:2092   */\n      add\n        /* \"#utility.yul\":2071:2109   */\n      mstore\n        /* \"#utility.yul\":2130:2203   */\n      tag_192\n        /* \"#utility.yul\":2198:2202   */\n      dup3\n        /* \"#utility.yul\":2184:2196   */\n      dup3\n        /* \"#utility.yul\":2130:2203   */\n      tag_129\n      jump\t// in\n    tag_192:\n        /* \"#utility.yul\":2122:2203   */\n      swap2\n      pop\n        /* \"#utility.yul\":1979:2214   */\n      pop\n        /* \"#utility.yul\":2295:2299   */\n      0x20\n        /* \"#utility.yul\":2288:2293   */\n      dup4\n        /* \"#utility.yul\":2284:2300   */\n      add\n        /* \"#utility.yul\":2278:2301   */\n      mload\n        /* \"#utility.yul\":2314:2377   */\n      tag_193\n        /* \"#utility.yul\":2371:2375   */\n      0x20\n        /* \"#utility.yul\":2366:2369   */\n      dup7\n        /* \"#utility.yul\":2362:2376   */\n      add\n        /* \"#utility.yul\":2348:2360   */\n      dup3\n        /* \"#utility.yul\":2314:2377   */\n      tag_131\n      jump\t// in\n    tag_193:\n        /* \"#utility.yul\":2224:2387   */\n      pop\n        /* \"#utility.yul\":2468:2472   */\n      0x40\n        /* \"#utility.yul\":2461:2466   */\n      dup4\n        /* \"#utility.yul\":2457:2473   */\n      add\n        /* \"#utility.yul\":2451:2474   */\n      mload\n        /* \"#utility.yul\":2487:2550   */\n      tag_194\n        /* \"#utility.yul\":2544:2548   */\n      0x40\n        /* \"#utility.yul\":2539:2542   */\n      dup7\n        /* \"#utility.yul\":2535:2549   */\n      add\n        /* \"#utility.yul\":2521:2533   */\n      dup3\n        /* \"#utility.yul\":2487:2550   */\n      tag_131\n      jump\t// in\n    tag_194:\n        /* \"#utility.yul\":2397:2560   */\n      pop\n        /* \"#utility.yul\":2577:2581   */\n      dup1\n        /* \"#utility.yul\":2570:2581   */\n      swap2\n      pop\n        /* \"#utility.yul\":1933:2587   */\n      pop\n        /* \"#utility.yul\":1825:2587   */\n      swap3\n      swap2\n      pop\n      pop\n      jump\t// out\n        /* \"#utility.yul\":2593:2837   */\n    tag_133:\n        /* \"#utility.yul\":2706:2716   */\n      0x00\n        /* \"#utility.yul\":2741:2831   */\n      tag_196\n        /* \"#utility.yul\":2827:2830   */\n      dup4\n        /* \"#utility.yul\":2819:2825   */\n      dup4\n        /* \"#utility.yul\":2741:2831   */\n      tag_132\n      jump\t// in\n    tag_196:\n        /* \"#utility.yul\":2727:2831   */\n      swap1\n      pop\n        /* \"#utility.yul\":2593:2837   */\n      swap3\n      swap2\n      pop\n      pop\n      jump\t// out\n        /* \"#utility.yul\":2843:2978   */\n    tag_134:\n        /* \"#utility.yul\":2935:2939   */\n      0x00\n        /* \"#utility.yul\":2967:2971   */\n      0x20\n        /* \"#utility.yul\":2962:2965   */\n      dup3\n        /* \"#utility.yul\":2958:2972   */\n      add\n        /* \"#utility.yul\":2950:2972   */\n      swap1\n      pop\n        /* \"#utility.yul\":2843:2978   */\n      swap2\n      swap1\n      pop\n      jump\t// out\n        /* \"#utility.yul\":3054:4141   */\n    tag_135:\n        /* \"#utility.yul\":3217:3220   */\n      0x00\n        /* \"#utility.yul\":3246:3322   */\n      tag_199\n        /* \"#utility.yul\":3316:3321   */\n      dup3\n        /* \"#utility.yul\":3246:3322   */\n      tag_122\n      jump\t// in\n    tag_199:\n        /* \"#utility.yul\":3338:3446   */\n      tag_200\n        /* \"#utility.yul\":3439:3445   */\n      dup2\n        /* \"#utility.yul\":3434:3437   */\n      dup6\n        /* \"#utility.yul\":3338:3446   */\n      tag_123\n      jump\t// in\n    tag_200:\n        /* \"#utility.yul\":3331:3446   */\n      swap4\n      pop\n        /* \"#utility.yul\":3472:3475   */\n      dup4\n        /* \"#utility.yul\":3517:3521   */\n      0x20\n        /* \"#utility.yul\":3509:3515   */\n      dup3\n        /* \"#utility.yul\":3505:3522   */\n      mul\n        /* \"#utility.yul\":3500:3503   */\n      dup6\n        /* \"#utility.yul\":3496:3523   */\n      add\n        /* \"#utility.yul\":3547:3625   */\n      tag_201\n        /* \"#utility.yul\":3619:3624   */\n      dup6\n        /* \"#utility.yul\":3547:3625   */\n      tag_124\n      jump\t// in\n    tag_201:\n        /* \"#utility.yul\":3648:3655   */\n      dup1\n        /* \"#utility.yul\":3679:3680   */\n      0x00\n        /* \"#utility.yul\":3664:4096   */\n    tag_202:\n        /* \"#utility.yul\":3689:3695   */\n      dup6\n        /* \"#utility.yul\":3686:3687   */\n      dup2\n        /* \"#utility.yul\":3683:3696   */\n      lt\n        /* \"#utility.yul\":3664:4096   */\n      iszero\n      tag_204\n      jumpi\n        /* \"#utility.yul\":3760:3769   */\n      dup5\n        /* \"#utility.yul\":3754:3758   */\n      dup5\n        /* \"#utility.yul\":3750:3770   */\n      sub\n        /* \"#utility.yul\":3745:3748   */\n      dup10\n        /* \"#utility.yul\":3738:3771   */\n      mstore\n        /* \"#utility.yul\":3811:3817   */\n      dup2\n        /* \"#utility.yul\":3805:3818   */\n      mload\n        /* \"#utility.yul\":3839:3947   */\n      tag_205\n        /* \"#utility.yul\":3942:3946   */\n      dup6\n        /* \"#utility.yul\":3927:3940   */\n      dup3\n        /* \"#utility.yul\":3839:3947   */\n      tag_133\n      jump\t// in\n    tag_205:\n        /* \"#utility.yul\":3831:3947   */\n      swap5\n      pop\n        /* \"#utility.yul\":3970:4052   */\n      tag_206\n        /* \"#utility.yul\":4045:4051   */\n      dup4\n        /* \"#utility.yul\":3970:4052   */\n      tag_134\n      jump\t// in\n    tag_206:\n        /* \"#utility.yul\":3960:4052   */\n      swap3\n      pop\n        /* \"#utility.yul\":4081:4085   */\n      0x20\n        /* \"#utility.yul\":4076:4079   */\n      dup11\n        /* \"#utility.yul\":4072:4086   */\n      add\n        /* \"#utility.yul\":4065:4086   */\n      swap10\n      pop\n        /* \"#utility.yul\":3724:4096   */\n      pop\n        /* \"#utility.yul\":3711:3712   */\n      0x01\n        /* \"#utility.yul\":3708:3709   */\n      dup2\n        /* \"#utility.yul\":3704:3713   */\n      add\n        /* \"#utility.yul\":3699:3713   */\n      swap1\n      pop\n        /* \"#utility.yul\":3664:4096   */\n      jump(tag_202)\n    tag_204:\n        /* \"#utility.yul\":3668:3682   */\n      pop\n        /* \"#utility.yul\":4112:4116   */\n      dup3\n        /* \"#utility.yul\":4105:4116   */\n      swap8\n      pop\n        /* \"#utility.yul\":4132:4135   */\n      dup8\n        /* \"#utility.yul\":4125:4135   */\n      swap6\n      pop\n        /* \"#utility.yul\":3222:4141   */\n      pop\n      pop\n      pop\n      pop\n      pop\n        /* \"#utility.yul\":3054:4141   */\n      swap3\n      swap2\n      pop\n      pop\n      jump\t// out\n        /* \"#utility.yul\":4147:4608   */\n    tag_17:\n        /* \"#utility.yul\":4334:4338   */\n      0x00\n        /* \"#utility.yul\":4372:4374   */\n      0x20\n        /* \"#utility.yul\":4361:4370   */\n      dup3\n        /* \"#utility.yul\":4357:4375   */\n      add\n        /* \"#utility.yul\":4349:4375   */\n      swap1\n      pop\n        /* \"#utility.yul\":4421:4430   */\n      dup2\n        /* \"#utility.yul\":4415:4419   */\n      dup2\n        /* \"#utility.yul\":4411:4431   */\n      sub\n        /* \"#utility.yul\":4407:4408   */\n      0x00\n        /* \"#utility.yul\":4396:4405   */\n      dup4\n        /* \"#utility.yul\":4392:4409   */\n      add\n        /* \"#utility.yul\":4385:4432   */\n      mstore\n        /* \"#utility.yul\":4449:4601   */\n      tag_208\n        /* \"#utility.yul\":4596:4600   */\n      dup2\n        /* \"#utility.yul\":4587:4593   */\n      dup5\n        /* \"#utility.yul\":4449:4601   */\n      tag_135\n      jump\t// in\n    tag_208:\n        /* \"#utility.yul\":4441:4601   */\n      swap1\n      pop\n        /* \"#utility.yul\":4147:4608   */\n      swap3\n      swap2\n      pop\n      pop\n      jump\t// out\n        /* \"#utility.yul\":4614:4732   */\n    tag_136:\n        /* \"#utility.yul\":4701:4725   */\n      tag_210\n        /* \"#utility.yul\":4719:4724   */\n      dup2\n        /* \"#utility.yul\":4701:4725   */\n      tag_130\n      jump\t// in\n    tag_210:\n        /* \"#utility.yul\":4696:4699   */\n      dup3\n        /* \"#utility.yul\":4689:4726   */\n      mstore\n        /* \"#utility.yul\":4614:4732   */\n      pop\n      pop\n      jump\t// out\n        /* \"#utility.yul\":4738:4960   */\n    tag_21:\n        /* \"#utility.yul\":4831:4835   */\n      0x00\n        /* \"#utility.yul\":4869:4871   */\n      0x20\n        /* \"#utility.yul\":4858:4867   */\n      dup3\n        /* \"#utility.yul\":4854:4872   */\n      add\n        /* \"#utility.yul\":4846:4872   */\n      swap1\n      pop\n        /* \"#utility.yul\":4882:4953   */\n      tag_212\n        /* \"#utility.yul\":4950:4951   */\n      0x00\n        /* \"#utility.yul\":4939:4948   */\n      dup4\n        /* \"#utility.yul\":4935:4952   */\n      add\n        /* \"#utility.yul\":4926:4932   */\n      dup5\n        /* \"#utility.yul\":4882:4953   */\n      tag_136\n      jump\t// in\n    tag_212:\n        /* \"#utility.yul\":4738:4960   */\n      swap3\n      swap2\n      pop\n      pop\n      jump\t// out\n        /* \"#utility.yul\":4966:5041   */\n    tag_137:\n        /* \"#utility.yul\":4999:5005   */\n      0x00\n        /* \"#utility.yul\":5032:5034   */\n      0x40\n        /* \"#utility.yul\":5026:5035   */\n      mload\n        /* \"#utility.yul\":5016:5035   */\n      swap1\n      pop\n        /* \"#utility.yul\":4966:5041   */\n      swap1\n      jump\t// out\n        /* \"#utility.yul\":5047:5164   */\n    tag_138:\n        /* \"#utility.yul\":5156:5157   */\n      0x00\n        /* \"#utility.yul\":5153:5154   */\n      dup1\n        /* \"#utility.yul\":5146:5158   */\n      revert\n        /* \"#utility.yul\":5170:5287   */\n    tag_139:\n        /* \"#utility.yul\":5279:5280   */\n      0x00\n        /* \"#utility.yul\":5276:5277   */\n      dup1\n        /* \"#utility.yul\":5269:5281   */\n      revert\n        /* \"#utility.yul\":5293:5415   */\n    tag_140:\n        /* \"#utility.yul\":5366:5390   */\n      tag_217\n        /* \"#utility.yul\":5384:5389   */\n      dup2\n        /* \"#utility.yul\":5366:5390   */\n      tag_130\n      jump\t// in\n    tag_217:\n        /* \"#utility.yul\":5359:5364   */\n      dup2\n        /* \"#utility.yul\":5356:5391   */\n      eq\n        /* \"#utility.yul\":5346:5409   */\n      tag_218\n      jumpi\n        /* \"#utility.yul\":5405:5406   */\n      0x00\n        /* \"#utility.yul\":5402:5403   */\n      dup1\n        /* \"#utility.yul\":5395:5407   */\n      revert\n        /* \"#utility.yul\":5346:5409   */\n    tag_218:\n        /* \"#utility.yul\":5293:5415   */\n      pop\n      jump\t// out\n        /* \"#utility.yul\":5421:5560   */\n    tag_141:\n        /* \"#utility.yul\":5467:5472   */\n      0x00\n        /* \"#utility.yul\":5505:5511   */\n      dup2\n        /* \"#utility.yul\":5492:5512   */\n      calldataload\n        /* \"#utility.yul\":5483:5512   */\n      swap1\n      pop\n        /* \"#utility.yul\":5521:5554   */\n      tag_220\n        /* \"#utility.yul\":5548:5553   */\n      dup2\n        /* \"#utility.yul\":5521:5554   */\n      tag_140\n      jump\t// in\n    tag_220:\n        /* \"#utility.yul\":5421:5560   */\n      swap3\n      swap2\n      pop\n      pop\n      jump\t// out\n        /* \"#utility.yul\":5566:5895   */\n    tag_24:\n        /* \"#utility.yul\":5625:5631   */\n      0x00\n        /* \"#utility.yul\":5674:5676   */\n      0x20\n        /* \"#utility.yul\":5662:5671   */\n      dup3\n        /* \"#utility.yul\":5653:5660   */\n      dup5\n        /* \"#utility.yul\":5649:5672   */\n      sub\n        /* \"#utility.yul\":5645:5677   */\n      slt\n        /* \"#utility.yul\":5642:5761   */\n      iszero\n      tag_222\n      jumpi\n        /* \"#utility.yul\":5680:5759   */\n      tag_223\n      tag_138\n      jump\t// in\n    tag_223:\n        /* \"#utility.yul\":5642:5761   */\n    tag_222:\n        /* \"#utility.yul\":5800:5801   */\n      0x00\n        /* \"#utility.yul\":5825:5878   */\n      tag_224\n        /* \"#utility.yul\":5870:5877   */\n      dup5\n        /* \"#utility.yul\":5861:5867   */\n      dup3\n        /* \"#utility.yul\":5850:5859   */\n      dup6\n        /* \"#utility.yul\":5846:5868   */\n      add\n        /* \"#utility.yul\":5825:5878   */\n      tag_141\n      jump\t// in\n    tag_224:\n        /* \"#utility.yul\":5815:5878   */\n      swap2\n      pop\n        /* \"#utility.yul\":5771:5888   */\n      pop\n        /* \"#utility.yul\":5566:5895   */\n      swap3\n      swap2\n      pop\n      pop\n      jump\t// out\n        /* \"#utility.yul\":5901:6070   */\n    tag_142:\n        /* \"#utility.yul\":5985:5996   */\n      0x00\n        /* \"#utility.yul\":6019:6025   */\n      dup3\n        /* \"#utility.yul\":6014:6017   */\n      dup3\n        /* \"#utility.yul\":6007:6026   */\n      mstore\n        /* \"#utility.yul\":6059:6063   */\n      0x20\n        /* \"#utility.yul\":6054:6057   */\n      dup3\n        /* \"#utility.yul\":6050:6064   */\n      add\n        /* \"#utility.yul\":6035:6064   */\n      swap1\n      pop\n        /* \"#utility.yul\":5901:6070   */\n      swap3\n      swap2\n      pop\n      pop\n      jump\t// out\n        /* \"#utility.yul\":6076:6440   */\n    tag_143:\n        /* \"#utility.yul\":6164:6167   */\n      0x00\n        /* \"#utility.yul\":6192:6231   */\n      tag_227\n        /* \"#utility.yul\":6225:6230   */\n      dup3\n        /* \"#utility.yul\":6192:6231   */\n      tag_125\n      jump\t// in\n    tag_227:\n        /* \"#utility.yul\":6247:6318   */\n      tag_228\n        /* \"#utility.yul\":6311:6317   */\n      dup2\n        /* \"#utility.yul\":6306:6309   */\n      dup6\n        /* \"#utility.yul\":6247:6318   */\n      tag_142\n      jump\t// in\n    tag_228:\n        /* \"#utility.yul\":6240:6318   */\n      swap4\n      pop\n        /* \"#utility.yul\":6327:6379   */\n      tag_229\n        /* \"#utility.yul\":6372:6378   */\n      dup2\n        /* \"#utility.yul\":6367:6370   */\n      dup6\n        /* \"#utility.yul\":6360:6364   */\n      0x20\n        /* \"#utility.yul\":6353:6358   */\n      dup7\n        /* \"#utility.yul\":6349:6365   */\n      add\n        /* \"#utility.yul\":6327:6379   */\n      tag_127\n      jump\t// in\n    tag_229:\n        /* \"#utility.yul\":6404:6433   */\n      tag_230\n        /* \"#utility.yul\":6426:6432   */\n      dup2\n        /* \"#utility.yul\":6404:6433   */\n      tag_128\n      jump\t// in\n    tag_230:\n        /* \"#utility.yul\":6399:6402   */\n      dup5\n        /* \"#utility.yul\":6395:6434   */\n      add\n        /* \"#utility.yul\":6388:6434   */\n      swap2\n      pop\n        /* \"#utility.yul\":6168:6440   */\n      pop\n        /* \"#utility.yul\":6076:6440   */\n      swap3\n      swap2\n      pop\n      pop\n      jump\t// out\n        /* \"#utility.yul\":6446:6979   */\n    tag_27:\n        /* \"#utility.yul\":6615:6619   */\n      0x00\n        /* \"#utility.yul\":6653:6655   */\n      0x60\n        /* \"#utility.yul\":6642:6651   */\n      dup3\n        /* \"#utility.yul\":6638:6656   */\n      add\n        /* \"#utility.yul\":6630:6656   */\n      swap1\n      pop\n        /* \"#utility.yul\":6702:6711   */\n      dup2\n        /* \"#utility.yul\":6696:6700   */\n      dup2\n        /* \"#utility.yul\":6692:6712   */\n      sub\n        /* \"#utility.yul\":6688:6689   */\n      0x00\n        /* \"#utility.yul\":6677:6686   */\n      dup4\n        /* \"#utility.yul\":6673:6690   */\n      add\n        /* \"#utility.yul\":6666:6713   */\n      mstore\n        /* \"#utility.yul\":6730:6808   */\n      tag_232\n        /* \"#utility.yul\":6803:6807   */\n      dup2\n        /* \"#utility.yul\":6794:6800   */\n      dup7\n        /* \"#utility.yul\":6730:6808   */\n      tag_143\n      jump\t// in\n    tag_232:\n        /* \"#utility.yul\":6722:6808   */\n      swap1\n      pop\n        /* \"#utility.yul\":6818:6890   */\n      tag_233\n        /* \"#utility.yul\":6886:6888   */\n      0x20\n        /* \"#utility.yul\":6875:6884   */\n      dup4\n        /* \"#utility.yul\":6871:6889   */\n      add\n        /* \"#utility.yul\":6862:6868   */\n      dup6\n        /* \"#utility.yul\":6818:6890   */\n      tag_136\n      jump\t// in\n    tag_233:\n        /* \"#utility.yul\":6900:6972   */\n      tag_234\n        /* \"#utility.yul\":6968:6970   */\n      0x40\n        /* \"#utility.yul\":6957:6966   */\n      dup4\n        /* \"#utility.yul\":6953:6971   */\n      add\n        /* \"#utility.yul\":6944:6950   */\n      dup5\n        /* \"#utility.yul\":6900:6972   */\n      tag_136\n      jump\t// in\n    tag_234:\n        /* \"#utility.yul\":6446:6979   */\n      swap5\n      swap4\n      pop\n      pop\n      pop\n      pop\n      jump\t// out\n        /* \"#utility.yul\":6985:7111   */\n    tag_144:\n        /* \"#utility.yul\":7022:7029   */\n      0x00\n        /* \"#utility.yul\":7062:7104   */\n      0xffffffffffffffffffffffffffffffffffffffff\n        /* \"#utility.yul\":7055:7060   */\n      dup3\n        /* \"#utility.yul\":7051:7105   */\n      and\n        /* \"#utility.yul\":7040:7105   */\n      swap1\n      pop\n        /* \"#utility.yul\":6985:7111   */\n      swap2\n      swap1\n      pop\n      jump\t// out\n        /* \"#utility.yul\":7117:7213   */\n    tag_145:\n        /* \"#utility.yul\":7154:7161   */\n      0x00\n        /* \"#utility.yul\":7183:7207   */\n      tag_237\n        /* \"#utility.yul\":7201:7206   */\n      dup3\n        /* \"#utility.yul\":7183:7207   */\n      tag_144\n      jump\t// in\n    tag_237:\n        /* \"#utility.yul\":7172:7207   */\n      swap1\n      pop\n        /* \"#utility.yul\":7117:7213   */\n      swap2\n      swap1\n      pop\n      jump\t// out\n        /* \"#utility.yul\":7219:7337   */\n    tag_146:\n        /* \"#utility.yul\":7306:7330   */\n      tag_239\n        /* \"#utility.yul\":7324:7329   */\n      dup2\n        /* \"#utility.yul\":7306:7330   */\n      tag_145\n      jump\t// in\n    tag_239:\n        /* \"#utility.yul\":7301:7304   */\n      dup3\n        /* \"#utility.yul\":7294:7331   */\n      mstore\n        /* \"#utility.yul\":7219:7337   */\n      pop\n      pop\n      jump\t// out\n        /* \"#utility.yul\":7343:7675   */\n    tag_32:\n        /* \"#utility.yul\":7464:7468   */\n      0x00\n        /* \"#utility.yul\":7502:7504   */\n      0x40\n        /* \"#utility.yul\":7491:7500   */\n      dup3\n        /* \"#utility.yul\":7487:7505   */\n      add\n        /* \"#utility.yul\":7479:7505   */\n      swap1\n      pop\n        /* \"#utility.yul\":7515:7586   */\n      tag_241\n        /* \"#utility.yul\":7583:7584   */\n      0x00\n        /* \"#utility.yul\":7572:7581   */\n      dup4\n        /* \"#utility.yul\":7568:7585   */\n      add\n        /* \"#utility.yul\":7559:7565   */\n      dup6\n        /* \"#utility.yul\":7515:7586   */\n      tag_146\n      jump\t// in\n    tag_241:\n        /* \"#utility.yul\":7596:7668   */\n      tag_242\n        /* \"#utility.yul\":7664:7666   */\n      0x20\n        /* \"#utility.yul\":7653:7662   */\n      dup4\n        /* \"#utility.yul\":7649:7667   */\n      add\n        /* \"#utility.yul\":7640:7646   */\n      dup5\n        /* \"#utility.yul\":7596:7668   */\n      tag_136\n      jump\t// in\n    tag_242:\n        /* \"#utility.yul\":7343:7675   */\n      swap4\n      swap3\n      pop\n      pop\n      pop\n      jump\t// out\n        /* \"#utility.yul\":7681:7903   */\n    tag_36:\n        /* \"#utility.yul\":7774:7778   */\n      0x00\n        /* \"#utility.yul\":7812:7814   */\n      0x20\n        /* \"#utility.yul\":7801:7810   */\n      dup3\n        /* \"#utility.yul\":7797:7815   */\n      add\n        /* \"#utility.yul\":7789:7815   */\n      swap1\n      pop\n        /* \"#utility.yul\":7825:7896   */\n      tag_244\n        /* \"#utility.yul\":7893:7894   */\n      0x00\n        /* \"#utility.yul\":7882:7891   */\n      dup4\n        /* \"#utility.yul\":7878:7895   */\n      add\n        /* \"#utility.yul\":7869:7875   */\n      dup5\n        /* \"#utility.yul\":7825:7896   */\n      tag_146\n      jump\t// in\n    tag_244:\n        /* \"#utility.yul\":7681:7903   */\n      swap3\n      swap2\n      pop\n      pop\n      jump\t// out\n        /* \"#utility.yul\":7909:8026   */\n    tag_147:\n        /* \"#utility.yul\":8018:8019   */\n      0x00\n        /* \"#utility.yul\":8015:8016   */\n      dup1\n        /* \"#utility.yul\":8008:8020   */\n      revert\n        /* \"#utility.yul\":8032:8149   */\n    tag_148:\n        /* \"#utility.yul\":8141:8142   */\n      0x00\n        /* \"#utility.yul\":8138:8139   */\n      dup1\n        /* \"#utility.yul\":8131:8143   */\n      revert\n        /* \"#utility.yul\":8155:8335   */\n    tag_149:\n        /* \"#utility.yul\":8203:8280   */\n      0x4e487b7100000000000000000000000000000000000000000000000000000000\n        /* \"#utility.yul\":8200:8201   */\n      0x00\n        /* \"#utility.yul\":8193:8281   */\n      mstore\n        /* \"#utility.yul\":8300:8304   */\n      0x41\n        /* \"#utility.yul\":8297:8298   */\n      0x04\n        /* \"#utility.yul\":8290:8305   */\n      mstore\n        /* \"#utility.yul\":8324:8328   */\n      0x24\n        /* \"#utility.yul\":8321:8322   */\n      0x00\n        /* \"#utility.yul\":8314:8329   */\n      revert\n        /* \"#utility.yul\":8341:8622   */\n    tag_150:\n        /* \"#utility.yul\":8424:8451   */\n      tag_249\n        /* \"#utility.yul\":8446:8450   */\n      dup3\n        /* \"#utility.yul\":8424:8451   */\n      tag_128\n      jump\t// in\n    tag_249:\n        /* \"#utility.yul\":8416:8422   */\n      dup2\n        /* \"#utility.yul\":8412:8452   */\n      add\n        /* \"#utility.yul\":8554:8560   */\n      dup2\n        /* \"#utility.yul\":8542:8552   */\n      dup2\n        /* \"#utility.yul\":8539:8561   */\n      lt\n        /* \"#utility.yul\":8518:8536   */\n      0xffffffffffffffff\n        /* \"#utility.yul\":8506:8516   */\n      dup3\n        /* \"#utility.yul\":8503:8537   */\n      gt\n        /* \"#utility.yul\":8500:8562   */\n      or\n        /* \"#utility.yul\":8497:8585   */\n      iszero\n      tag_250\n      jumpi\n        /* \"#utility.yul\":8565:8583   */\n      tag_251\n      tag_149\n      jump\t// in\n    tag_251:\n        /* \"#utility.yul\":8497:8585   */\n    tag_250:\n        /* \"#utility.yul\":8605:8615   */\n      dup1\n        /* \"#utility.yul\":8601:8603   */\n      0x40\n        /* \"#utility.yul\":8594:8616   */\n      mstore\n        /* \"#utility.yul\":8384:8622   */\n      pop\n        /* \"#utility.yul\":8341:8622   */\n      pop\n      pop\n      jump\t// out\n        /* \"#utility.yul\":8628:8757   */\n    tag_151:\n        /* \"#utility.yul\":8662:8668   */\n      0x00\n        /* \"#utility.yul\":8689:8709   */\n      tag_253\n      tag_137\n      jump\t// in\n    tag_253:\n        /* \"#utility.yul\":8679:8709   */\n      swap1\n      pop\n        /* \"#utility.yul\":8718:8751   */\n      tag_254\n        /* \"#utility.yul\":8746:8750   */\n      dup3\n        /* \"#utility.yul\":8738:8744   */\n      dup3\n        /* \"#utility.yul\":8718:8751   */\n      tag_150\n      jump\t// in\n    tag_254:\n        /* \"#utility.yul\":8628:8757   */\n      swap2\n      swap1\n      pop\n      jump\t// out\n        /* \"#utility.yul\":8763:9071   */\n    tag_152:\n        /* \"#utility.yul\":8825:8829   */\n      0x00\n        /* \"#utility.yul\":8915:8933   */\n      0xffffffffffffffff\n        /* \"#utility.yul\":8907:8913   */\n      dup3\n        /* \"#utility.yul\":8904:8934   */\n      gt\n        /* \"#utility.yul\":8901:8957   */\n      iszero\n      tag_256\n      jumpi\n        /* \"#utility.yul\":8937:8955   */\n      tag_257\n      tag_149\n      jump\t// in\n    tag_257:\n        /* \"#utility.yul\":8901:8957   */\n    tag_256:\n        /* \"#utility.yul\":8975:9004   */\n      tag_258\n        /* \"#utility.yul\":8997:9003   */\n      dup3\n        /* \"#utility.yul\":8975:9004   */\n      tag_128\n      jump\t// in\n    tag_258:\n        /* \"#utility.yul\":8967:9004   */\n      swap1\n      pop\n        /* \"#utility.yul\":9059:9063   */\n      0x20\n        /* \"#utility.yul\":9053:9057   */\n      dup2\n        /* \"#utility.yul\":9049:9064   */\n      add\n        /* \"#utility.yul\":9041:9064   */\n      swap1\n      pop\n        /* \"#utility.yul\":8763:9071   */\n      swap2\n      swap1\n      pop\n      jump\t// out\n        /* \"#utility.yul\":9077:9231   */\n    tag_153:\n        /* \"#utility.yul\":9161:9167   */\n      dup3\n        /* \"#utility.yul\":9156:9159   */\n      dup2\n        /* \"#utility.yul\":9151:9154   */\n      dup4\n        /* \"#utility.yul\":9138:9168   */\n      calldatacopy\n        /* \"#utility.yul\":9223:9224   */\n      0x00\n        /* \"#utility.yul\":9214:9220   */\n      dup4\n        /* \"#utility.yul\":9209:9212   */\n      dup4\n        /* \"#utility.yul\":9205:9221   */\n      add\n        /* \"#utility.yul\":9198:9225   */\n      mstore\n        /* \"#utility.yul\":9077:9231   */\n      pop\n      pop\n      pop\n      jump\t// out\n        /* \"#utility.yul\":9237:9649   */\n    tag_154:\n        /* \"#utility.yul\":9315:9320   */\n      0x00\n        /* \"#utility.yul\":9340:9406   */\n      tag_261\n        /* \"#utility.yul\":9356:9405   */\n      tag_262\n        /* \"#utility.yul\":9398:9404   */\n      dup5\n        /* \"#utility.yul\":9356:9405   */\n      tag_152\n      jump\t// in\n    tag_262:\n        /* \"#utility.yul\":9340:9406   */\n      tag_151\n      jump\t// in\n    tag_261:\n        /* \"#utility.yul\":9331:9406   */\n      swap1\n      pop\n        /* \"#utility.yul\":9429:9435   */\n      dup3\n        /* \"#utility.yul\":9422:9427   */\n      dup2\n        /* \"#utility.yul\":9415:9436   */\n      mstore\n        /* \"#utility.yul\":9467:9471   */\n      0x20\n        /* \"#utility.yul\":9460:9465   */\n      dup2\n        /* \"#utility.yul\":9456:9472   */\n      add\n        /* \"#utility.yul\":9505:9508   */\n      dup5\n        /* \"#utility.yul\":9496:9502   */\n      dup5\n        /* \"#utility.yul\":9491:9494   */\n      dup5\n        /* \"#utility.yul\":9487:9503   */\n      add\n        /* \"#utility.yul\":9484:9509   */\n      gt\n        /* \"#utility.yul\":9481:9593   */\n      iszero\n      tag_263\n      jumpi\n        /* \"#utility.yul\":9512:9591   */\n      tag_264\n      tag_148\n      jump\t// in\n    tag_264:\n        /* \"#utility.yul\":9481:9593   */\n    tag_263:\n        /* \"#utility.yul\":9602:9643   */\n      tag_265\n        /* \"#utility.yul\":9636:9642   */\n      dup5\n        /* \"#utility.yul\":9631:9634   */\n      dup3\n        /* \"#utility.yul\":9626:9629   */\n      dup6\n        /* \"#utility.yul\":9602:9643   */\n      tag_153\n      jump\t// in\n    tag_265:\n        /* \"#utility.yul\":9321:9649   */\n      pop\n        /* \"#utility.yul\":9237:9649   */\n      swap4\n      swap3\n      pop\n      pop\n      pop\n      jump\t// out\n        /* \"#utility.yul\":9669:10009   */\n    tag_155:\n        /* \"#utility.yul\":9725:9730   */\n      0x00\n        /* \"#utility.yul\":9774:9777   */\n      dup3\n        /* \"#utility.yul\":9767:9771   */\n      0x1f\n        /* \"#utility.yul\":9759:9765   */\n      dup4\n        /* \"#utility.yul\":9755:9772   */\n      add\n        /* \"#utility.yul\":9751:9778   */\n      slt\n        /* \"#utility.yul\":9741:9863   */\n      tag_267\n      jumpi\n        /* \"#utility.yul\":9782:9861   */\n      tag_268\n      tag_147\n      jump\t// in\n    tag_268:\n        /* \"#utility.yul\":9741:9863   */\n    tag_267:\n        /* \"#utility.yul\":9899:9905   */\n      dup2\n        /* \"#utility.yul\":9886:9906   */\n      calldataload\n        /* \"#utility.yul\":9924:10003   */\n      tag_269\n        /* \"#utility.yul\":9999:10002   */\n      dup5\n        /* \"#utility.yul\":9991:9997   */\n      dup3\n        /* \"#utility.yul\":9984:9988   */\n      0x20\n        /* \"#utility.yul\":9976:9982   */\n      dup7\n        /* \"#utility.yul\":9972:9989   */\n      add\n        /* \"#utility.yul\":9924:10003   */\n      tag_154\n      jump\t// in\n    tag_269:\n        /* \"#utility.yul\":9915:10003   */\n      swap2\n      pop\n        /* \"#utility.yul\":9731:10009   */\n      pop\n        /* \"#utility.yul\":9669:10009   */\n      swap3\n      swap2\n      pop\n      pop\n      jump\t// out\n        /* \"#utility.yul\":10015:10524   */\n    tag_39:\n        /* \"#utility.yul\":10084:10090   */\n      0x00\n        /* \"#utility.yul\":10133:10135   */\n      0x20\n        /* \"#utility.yul\":10121:10130   */\n      dup3\n        /* \"#utility.yul\":10112:10119   */\n      dup5\n        /* \"#utility.yul\":10108:10131   */\n      sub\n        /* \"#utility.yul\":10104:10136   */\n      slt\n        /* \"#utility.yul\":10101:10220   */\n      iszero\n      tag_271\n      jumpi\n        /* \"#utility.yul\":10139:10218   */\n      tag_272\n      tag_138\n      jump\t// in\n    tag_272:\n        /* \"#utility.yul\":10101:10220   */\n    tag_271:\n        /* \"#utility.yul\":10287:10288   */\n      0x00\n        /* \"#utility.yul\":10276:10285   */\n      dup3\n        /* \"#utility.yul\":10272:10289   */\n      add\n        /* \"#utility.yul\":10259:10290   */\n      calldataload\n        /* \"#utility.yul\":10317:10335   */\n      0xffffffffffffffff\n        /* \"#utility.yul\":10309:10315   */\n      dup2\n        /* \"#utility.yul\":10306:10336   */\n      gt\n        /* \"#utility.yul\":10303:10420   */\n      iszero\n      tag_273\n      jumpi\n        /* \"#utility.yul\":10339:10418   */\n      tag_274\n      tag_139\n      jump\t// in\n    tag_274:\n        /* \"#utility.yul\":10303:10420   */\n    tag_273:\n        /* \"#utility.yul\":10444:10507   */\n      tag_275\n        /* \"#utility.yul\":10499:10506   */\n      dup5\n        /* \"#utility.yul\":10490:10496   */\n      dup3\n        /* \"#utility.yul\":10479:10488   */\n      dup6\n        /* \"#utility.yul\":10475:10497   */\n      add\n        /* \"#utility.yul\":10444:10507   */\n      tag_155\n      jump\t// in\n    tag_275:\n        /* \"#utility.yul\":10434:10507   */\n      swap2\n      pop\n        /* \"#utility.yul\":10230:10517   */\n      pop\n        /* \"#utility.yul\":10015:10524   */\n      swap3\n      swap2\n      pop\n      pop\n      jump\t// out\n        /* \"#utility.yul\":10530:10843   */\n    tag_45:\n        /* \"#utility.yul\":10643:10647   */\n      0x00\n        /* \"#utility.yul\":10681:10683   */\n      0x20\n        /* \"#utility.yul\":10670:10679   */\n      dup3\n        /* \"#utility.yul\":10666:10684   */\n      add\n        /* \"#utility.yul\":10658:10684   */\n      swap1\n      pop\n        /* \"#utility.yul\":10730:10739   */\n      dup2\n        /* \"#utility.yul\":10724:10728   */\n      dup2\n        /* \"#utility.yul\":10720:10740   */\n      sub\n        /* \"#utility.yul\":10716:10717   */\n      0x00\n        /* \"#utility.yul\":10705:10714   */\n      dup4\n        /* \"#utility.yul\":10701:10718   */\n      add\n        /* \"#utility.yul\":10694:10741   */\n      mstore\n        /* \"#utility.yul\":10758:10836   */\n      tag_277\n        /* \"#utility.yul\":10831:10835   */\n      dup2\n        /* \"#utility.yul\":10822:10828   */\n      dup5\n        /* \"#utility.yul\":10758:10836   */\n      tag_143\n      jump\t// in\n    tag_277:\n        /* \"#utility.yul\":10750:10836   */\n      swap1\n      pop\n        /* \"#utility.yul\":10530:10843   */\n      swap3\n      swap2\n      pop\n      pop\n      jump\t// out\n        /* \"#utility.yul\":10849:11029   */\n    tag_156:\n        /* \"#utility.yul\":10897:10974   */\n      0x4e487b7100000000000000000000000000000000000000000000000000000000\n        /* \"#utility.yul\":10894:10895   */\n      0x00\n        /* \"#utility.yul\":10887:10975   */\n      mstore\n        /* \"#utility.yul\":10994:10998   */\n      0x22\n        /* \"#utility.yul\":10991:10992   */\n      0x04\n        /* \"#utility.yul\":10984:10999   */\n      mstore\n        /* \"#utility.yul\":11018:11022   */\n      0x24\n        /* \"#utility.yul\":11015:11016   */\n      0x00\n        /* \"#utility.yul\":11008:11023   */\n      revert\n        /* \"#utility.yul\":11035:11355   */\n    tag_59:\n        /* \"#utility.yul\":11079:11085   */\n      0x00\n        /* \"#utility.yul\":11116:11117   */\n      0x02\n        /* \"#utility.yul\":11110:11114   */\n      dup3\n        /* \"#utility.yul\":11106:11118   */\n      div\n        /* \"#utility.yul\":11096:11118   */\n      swap1\n      pop\n        /* \"#utility.yul\":11163:11164   */\n      0x01\n        /* \"#utility.yul\":11157:11161   */\n      dup3\n        /* \"#utility.yul\":11153:11165   */\n      and\n        /* \"#utility.yul\":11184:11202   */\n      dup1\n        /* \"#utility.yul\":11174:11255   */\n      tag_280\n      jumpi\n        /* \"#utility.yul\":11240:11244   */\n      0x7f\n        /* \"#utility.yul\":11232:11238   */\n      dup3\n        /* \"#utility.yul\":11228:11245   */\n      and\n        /* \"#utility.yul\":11218:11245   */\n      swap2\n      pop\n        /* \"#utility.yul\":11174:11255   */\n    tag_280:\n        /* \"#utility.yul\":11302:11304   */\n      0x20\n        /* \"#utility.yul\":11294:11300   */\n      dup3\n        /* \"#utility.yul\":11291:11305   */\n      lt\n        /* \"#utility.yul\":11271:11289   */\n      dup2\n        /* \"#utility.yul\":11268:11306   */\n      eq\n        /* \"#utility.yul\":11265:11349   */\n      iszero\n      tag_281\n      jumpi\n        /* \"#utility.yul\":11321:11339   */\n      tag_282\n      tag_156\n      jump\t// in\n    tag_282:\n        /* \"#utility.yul\":11265:11349   */\n    tag_281:\n        /* \"#utility.yul\":11086:11355   */\n      pop\n        /* \"#utility.yul\":11035:11355   */\n      swap2\n      swap1\n      pop\n      jump\t// out\n        /* \"#utility.yul\":11361:11447   */\n    tag_157:\n        /* \"#utility.yul\":11396:11403   */\n      0x00\n        /* \"#utility.yul\":11436:11440   */\n      0xff\n        /* \"#utility.yul\":11429:11434   */\n      dup3\n        /* \"#utility.yul\":11425:11441   */\n      and\n        /* \"#utility.yul\":11414:11441   */\n      swap1\n      pop\n        /* \"#utility.yul\":11361:11447   */\n      swap2\n      swap1\n      pop\n      jump\t// out\n        /* \"#utility.yul\":11453:11571   */\n    tag_158:\n        /* \"#utility.yul\":11524:11546   */\n      tag_285\n        /* \"#utility.yul\":11540:11545   */\n      dup2\n        /* \"#utility.yul\":11524:11546   */\n      tag_157\n      jump\t// in\n    tag_285:\n        /* \"#utility.yul\":11517:11522   */\n      dup2\n        /* \"#utility.yul\":11514:11547   */\n      eq\n        /* \"#utility.yul\":11504:11565   */\n      tag_286\n      jumpi\n        /* \"#utility.yul\":11561:11562   */\n      0x00\n        /* \"#utility.yul\":11558:11559   */\n      dup1\n        /* \"#utility.yul\":11551:11563   */\n      revert\n        /* \"#utility.yul\":11504:11565   */\n    tag_286:\n        /* \"#utility.yul\":11453:11571   */\n      pop\n      jump\t// out\n        /* \"#utility.yul\":11577:11716   */\n    tag_159:\n        /* \"#utility.yul\":11632:11637   */\n      0x00\n        /* \"#utility.yul\":11663:11669   */\n      dup2\n        /* \"#utility.yul\":11657:11670   */\n      mload\n        /* \"#utility.yul\":11648:11670   */\n      swap1\n      pop\n        /* \"#utility.yul\":11679:11710   */\n      tag_288\n        /* \"#utility.yul\":11704:11709   */\n      dup2\n        /* \"#utility.yul\":11679:11710   */\n      tag_158\n      jump\t// in\n    tag_288:\n        /* \"#utility.yul\":11577:11716   */\n      swap3\n      swap2\n      pop\n      pop\n      jump\t// out\n        /* \"#utility.yul\":11722:12069   */\n    tag_79:\n        /* \"#utility.yul\":11790:11796   */\n      0x00\n        /* \"#utility.yul\":11839:11841   */\n      0x20\n        /* \"#utility.yul\":11827:11836   */\n      dup3\n        /* \"#utility.yul\":11818:11825   */\n      dup5\n        /* \"#utility.yul\":11814:11837   */\n      sub\n        /* \"#utility.yul\":11810:11842   */\n      slt\n        /* \"#utility.yul\":11807:11926   */\n      iszero\n      tag_290\n      jumpi\n        /* \"#utility.yul\":11845:11924   */\n      tag_291\n      tag_138\n      jump\t// in\n    tag_291:\n        /* \"#utility.yul\":11807:11926   */\n    tag_290:\n        /* \"#utility.yul\":11965:11966   */\n      0x00\n        /* \"#utility.yul\":11990:12052   */\n      tag_292\n        /* \"#utility.yul\":12044:12051   */\n      dup5\n        /* \"#utility.yul\":12035:12041   */\n      dup3\n        /* \"#utility.yul\":12024:12033   */\n      dup6\n        /* \"#utility.yul\":12020:12042   */\n      add\n        /* \"#utility.yul\":11990:12052   */\n      tag_159\n      jump\t// in\n    tag_292:\n        /* \"#utility.yul\":11980:12052   */\n      swap2\n      pop\n        /* \"#utility.yul\":11936:12062   */\n      pop\n        /* \"#utility.yul\":11722:12069   */\n      swap3\n      swap2\n      pop\n      pop\n      jump\t// out\n        /* \"#utility.yul\":12075:12334   */\n    tag_160:\n        /* \"#utility.yul\":12160:12164   */\n      0x00\n        /* \"#utility.yul\":12250:12268   */\n      0xffffffffffffffff\n        /* \"#utility.yul\":12242:12248   */\n      dup3\n        /* \"#utility.yul\":12239:12269   */\n      gt\n        /* \"#utility.yul\":12236:12292   */\n      iszero\n      tag_294\n      jumpi\n        /* \"#utility.yul\":12272:12290   */\n      tag_295\n      tag_149\n      jump\t// in\n    tag_295:\n        /* \"#utility.yul\":12236:12292   */\n    tag_294:\n        /* \"#utility.yul\":12322:12326   */\n      0x20\n        /* \"#utility.yul\":12314:12320   */\n      dup3\n        /* \"#utility.yul\":12310:12327   */\n      mul\n        /* \"#utility.yul\":12302:12327   */\n      swap1\n      pop\n        /* \"#utility.yul\":12075:12334   */\n      swap2\n      swap1\n      pop\n      jump\t// out\n        /* \"#utility.yul\":12340:12457   */\n    tag_161:\n        /* \"#utility.yul\":12449:12450   */\n      0x00\n        /* \"#utility.yul\":12446:12447   */\n      dup1\n        /* \"#utility.yul\":12439:12451   */\n      revert\n        /* \"#utility.yul\":12463:12884   */\n    tag_162:\n        /* \"#utility.yul\":12552:12557   */\n      0x00\n        /* \"#utility.yul\":12577:12643   */\n      tag_298\n        /* \"#utility.yul\":12593:12642   */\n      tag_299\n        /* \"#utility.yul\":12635:12641   */\n      dup5\n        /* \"#utility.yul\":12593:12642   */\n      tag_152\n      jump\t// in\n    tag_299:\n        /* \"#utility.yul\":12577:12643   */\n      tag_151\n      jump\t// in\n    tag_298:\n        /* \"#utility.yul\":12568:12643   */\n      swap1\n      pop\n        /* \"#utility.yul\":12666:12672   */\n      dup3\n        /* \"#utility.yul\":12659:12664   */\n      dup2\n        /* \"#utility.yul\":12652:12673   */\n      mstore\n        /* \"#utility.yul\":12704:12708   */\n      0x20\n        /* \"#utility.yul\":12697:12702   */\n      dup2\n        /* \"#utility.yul\":12693:12709   */\n      add\n        /* \"#utility.yul\":12742:12745   */\n      dup5\n        /* \"#utility.yul\":12733:12739   */\n      dup5\n        /* \"#utility.yul\":12728:12731   */\n      dup5\n        /* \"#utility.yul\":12724:12740   */\n      add\n        /* \"#utility.yul\":12721:12746   */\n      gt\n        /* \"#utility.yul\":12718:12830   */\n      iszero\n      tag_300\n      jumpi\n        /* \"#utility.yul\":12749:12828   */\n      tag_301\n      tag_148\n      jump\t// in\n    tag_301:\n        /* \"#utility.yul\":12718:12830   */\n    tag_300:\n        /* \"#utility.yul\":12839:12878   */\n      tag_302\n        /* \"#utility.yul\":12871:12877   */\n      dup5\n        /* \"#utility.yul\":12866:12869   */\n      dup3\n        /* \"#utility.yul\":12861:12864   */\n      dup6\n        /* \"#utility.yul\":12839:12878   */\n      tag_127\n      jump\t// in\n    tag_302:\n        /* \"#utility.yul\":12558:12884   */\n      pop\n        /* \"#utility.yul\":12463:12884   */\n      swap4\n      swap3\n      pop\n      pop\n      pop\n      jump\t// out\n        /* \"#utility.yul\":12904:13259   */\n    tag_163:\n        /* \"#utility.yul\":12971:12976   */\n      0x00\n        /* \"#utility.yul\":13020:13023   */\n      dup3\n        /* \"#utility.yul\":13013:13017   */\n      0x1f\n        /* \"#utility.yul\":13005:13011   */\n      dup4\n        /* \"#utility.yul\":13001:13018   */\n      add\n        /* \"#utility.yul\":12997:13024   */\n      slt\n        /* \"#utility.yul\":12987:13109   */\n      tag_304\n      jumpi\n        /* \"#utility.yul\":13028:13107   */\n      tag_305\n      tag_147\n      jump\t// in\n    tag_305:\n        /* \"#utility.yul\":12987:13109   */\n    tag_304:\n        /* \"#utility.yul\":13138:13144   */\n      dup2\n        /* \"#utility.yul\":13132:13145   */\n      mload\n        /* \"#utility.yul\":13163:13253   */\n      tag_306\n        /* \"#utility.yul\":13249:13252   */\n      dup5\n        /* \"#utility.yul\":13241:13247   */\n      dup3\n        /* \"#utility.yul\":13234:13238   */\n      0x20\n        /* \"#utility.yul\":13226:13232   */\n      dup7\n        /* \"#utility.yul\":13222:13239   */\n      add\n        /* \"#utility.yul\":13163:13253   */\n      tag_162\n      jump\t// in\n    tag_306:\n        /* \"#utility.yul\":13154:13253   */\n      swap2\n      pop\n        /* \"#utility.yul\":12977:13259   */\n      pop\n        /* \"#utility.yul\":12904:13259   */\n      swap3\n      swap2\n      pop\n      pop\n      jump\t// out\n        /* \"#utility.yul\":13282:14175   */\n    tag_164:\n        /* \"#utility.yul\":13397:13402   */\n      0x00\n        /* \"#utility.yul\":13422:13511   */\n      tag_308\n        /* \"#utility.yul\":13438:13510   */\n      tag_309\n        /* \"#utility.yul\":13503:13509   */\n      dup5\n        /* \"#utility.yul\":13438:13510   */\n      tag_160\n      jump\t// in\n    tag_309:\n        /* \"#utility.yul\":13422:13511   */\n      tag_151\n      jump\t// in\n    tag_308:\n        /* \"#utility.yul\":13413:13511   */\n      swap1\n      pop\n        /* \"#utility.yul\":13531:13536   */\n      dup1\n        /* \"#utility.yul\":13584:13588   */\n      0x20\n        /* \"#utility.yul\":13576:13582   */\n      dup5\n        /* \"#utility.yul\":13572:13589   */\n      mul\n        /* \"#utility.yul\":13564:13570   */\n      dup4\n        /* \"#utility.yul\":13560:13590   */\n      add\n        /* \"#utility.yul\":13613:13616   */\n      dup6\n        /* \"#utility.yul\":13605:13611   */\n      dup2\n        /* \"#utility.yul\":13602:13617   */\n      gt\n        /* \"#utility.yul\":13599:13721   */\n      iszero\n      tag_310\n      jumpi\n        /* \"#utility.yul\":13632:13711   */\n      tag_311\n      tag_161\n      jump\t// in\n    tag_311:\n        /* \"#utility.yul\":13599:13721   */\n    tag_310:\n        /* \"#utility.yul\":13747:13753   */\n      dup4\n        /* \"#utility.yul\":13730:14169   */\n    tag_312:\n        /* \"#utility.yul\":13764:13770   */\n      dup2\n        /* \"#utility.yul\":13759:13762   */\n      dup2\n        /* \"#utility.yul\":13756:13771   */\n      lt\n        /* \"#utility.yul\":13730:14169   */\n      iszero\n      tag_314\n      jumpi\n        /* \"#utility.yul\":13846:13849   */\n      dup1\n        /* \"#utility.yul\":13840:13850   */\n      mload\n        /* \"#utility.yul\":13882:13900   */\n      0xffffffffffffffff\n        /* \"#utility.yul\":13869:13880   */\n      dup2\n        /* \"#utility.yul\":13866:13901   */\n      gt\n        /* \"#utility.yul\":13863:13985   */\n      iszero\n      tag_315\n      jumpi\n        /* \"#utility.yul\":13904:13983   */\n      tag_316\n      tag_147\n      jump\t// in\n    tag_316:\n        /* \"#utility.yul\":13863:13985   */\n    tag_315:\n        /* \"#utility.yul\":14028:14039   */\n      dup1\n        /* \"#utility.yul\":14020:14026   */\n      dup7\n        /* \"#utility.yul\":14016:14040   */\n      add\n        /* \"#utility.yul\":14066:14124   */\n      tag_317\n        /* \"#utility.yul\":14120:14123   */\n      dup10\n        /* \"#utility.yul\":14108:14118   */\n      dup3\n        /* \"#utility.yul\":14066:14124   */\n      tag_163\n      jump\t// in\n    tag_317:\n        /* \"#utility.yul\":14061:14064   */\n      dup6\n        /* \"#utility.yul\":14054:14125   */\n      mstore\n        /* \"#utility.yul\":14154:14158   */\n      0x20\n        /* \"#utility.yul\":14149:14152   */\n      dup6\n        /* \"#utility.yul\":14145:14159   */\n      add\n        /* \"#utility.yul\":14138:14159   */\n      swap5\n      pop\n        /* \"#utility.yul\":13806:14169   */\n      pop\n      pop\n        /* \"#utility.yul\":13790:13794   */\n      0x20\n        /* \"#utility.yul\":13785:13788   */\n      dup2\n        /* \"#utility.yul\":13781:13795   */\n      add\n        /* \"#utility.yul\":13774:13795   */\n      swap1\n      pop\n        /* \"#utility.yul\":13730:14169   */\n      jump(tag_312)\n    tag_314:\n        /* \"#utility.yul\":13734:13755   */\n      pop\n        /* \"#utility.yul\":13403:14175   */\n      pop\n      pop\n        /* \"#utility.yul\":13282:14175   */\n      swap4\n      swap3\n      pop\n      pop\n      pop\n      jump\t// out\n        /* \"#utility.yul\":14198:14579   */\n    tag_165:\n        /* \"#utility.yul\":14288:14293   */\n      0x00\n        /* \"#utility.yul\":14337:14340   */\n      dup3\n        /* \"#utility.yul\":14330:14334   */\n      0x1f\n        /* \"#utility.yul\":14322:14328   */\n      dup4\n        /* \"#utility.yul\":14318:14335   */\n      add\n        /* \"#utility.yul\":14314:14341   */\n      slt\n        /* \"#utility.yul\":14304:14426   */\n      tag_319\n      jumpi\n        /* \"#utility.yul\":14345:14424   */\n      tag_320\n      tag_147\n      jump\t// in\n    tag_320:\n        /* \"#utility.yul\":14304:14426   */\n    tag_319:\n        /* \"#utility.yul\":14449:14453   */\n      0x03\n        /* \"#utility.yul\":14471:14573   */\n      tag_321\n        /* \"#utility.yul\":14569:14572   */\n      dup5\n        /* \"#utility.yul\":14561:14567   */\n      dup3\n        /* \"#utility.yul\":14553:14559   */\n      dup6\n        /* \"#utility.yul\":14471:14573   */\n      tag_164\n      jump\t// in\n    tag_321:\n        /* \"#utility.yul\":14462:14573   */\n      swap2\n      pop\n        /* \"#utility.yul\":14294:14579   */\n      pop\n        /* \"#utility.yul\":14198:14579   */\n      swap3\n      swap2\n      pop\n      pop\n      jump\t// out\n        /* \"#utility.yul\":14585:15155   */\n    tag_85:\n        /* \"#utility.yul\":14688:14694   */\n      0x00\n        /* \"#utility.yul\":14737:14739   */\n      0x20\n        /* \"#utility.yul\":14725:14734   */\n      dup3\n        /* \"#utility.yul\":14716:14723   */\n      dup5\n        /* \"#utility.yul\":14712:14735   */\n      sub\n        /* \"#utility.yul\":14708:14740   */\n      slt\n        /* \"#utility.yul\":14705:14824   */\n      iszero\n      tag_323\n      jumpi\n        /* \"#utility.yul\":14743:14822   */\n      tag_324\n      tag_138\n      jump\t// in\n    tag_324:\n        /* \"#utility.yul\":14705:14824   */\n    tag_323:\n        /* \"#utility.yul\":14884:14885   */\n      0x00\n        /* \"#utility.yul\":14873:14882   */\n      dup3\n        /* \"#utility.yul\":14869:14886   */\n      add\n        /* \"#utility.yul\":14863:14887   */\n      mload\n        /* \"#utility.yul\":14914:14932   */\n      0xffffffffffffffff\n        /* \"#utility.yul\":14906:14912   */\n      dup2\n        /* \"#utility.yul\":14903:14933   */\n      gt\n        /* \"#utility.yul\":14900:15017   */\n      iszero\n      tag_325\n      jumpi\n        /* \"#utility.yul\":14936:15015   */\n      tag_326\n      tag_139\n      jump\t// in\n    tag_326:\n        /* \"#utility.yul\":14900:15017   */\n    tag_325:\n        /* \"#utility.yul\":15041:15138   */\n      tag_327\n        /* \"#utility.yul\":15130:15137   */\n      dup5\n        /* \"#utility.yul\":15121:15127   */\n      dup3\n        /* \"#utility.yul\":15110:15119   */\n      dup6\n        /* \"#utility.yul\":15106:15128   */\n      add\n        /* \"#utility.yul\":15041:15138   */\n      tag_165\n      jump\t// in\n    tag_327:\n        /* \"#utility.yul\":15031:15138   */\n      swap2\n      pop\n        /* \"#utility.yul\":14834:15148   */\n      pop\n        /* \"#utility.yul\":14585:15155   */\n      swap3\n      swap2\n      pop\n      pop\n      jump\t// out\n        /* \"#utility.yul\":15161:15341   */\n    tag_88:\n        /* \"#utility.yul\":15209:15286   */\n      0x4e487b7100000000000000000000000000000000000000000000000000000000\n        /* \"#utility.yul\":15206:15207   */\n      0x00\n        /* \"#utility.yul\":15199:15287   */\n      mstore\n        /* \"#utility.yul\":15306:15310   */\n      0x32\n        /* \"#utility.yul\":15303:15304   */\n      0x04\n        /* \"#utility.yul\":15296:15311   */\n      mstore\n        /* \"#utility.yul\":15330:15334   */\n      0x24\n        /* \"#utility.yul\":15327:15328   */\n      0x00\n        /* \"#utility.yul\":15320:15335   */\n      revert\n        /* \"#utility.yul\":15347:15523   */\n    tag_166:\n        /* \"#utility.yul\":15487:15515   */\n      0x4e6f7420417574686f72697a65642c2041646d696e204f6e6c79000000000000\n        /* \"#utility.yul\":15483:15484   */\n      0x00\n        /* \"#utility.yul\":15475:15481   */\n      dup3\n        /* \"#utility.yul\":15471:15485   */\n      add\n        /* \"#utility.yul\":15464:15516   */\n      mstore\n        /* \"#utility.yul\":15347:15523   */\n      pop\n      jump\t// out\n        /* \"#utility.yul\":15529:15895   */\n    tag_167:\n        /* \"#utility.yul\":15671:15674   */\n      0x00\n        /* \"#utility.yul\":15692:15759   */\n      tag_331\n        /* \"#utility.yul\":15756:15758   */\n      0x1a\n        /* \"#utility.yul\":15751:15754   */\n      dup4\n        /* \"#utility.yul\":15692:15759   */\n      tag_142\n      jump\t// in\n    tag_331:\n        /* \"#utility.yul\":15685:15759   */\n      swap2\n      pop\n        /* \"#utility.yul\":15768:15861   */\n      tag_332\n        /* \"#utility.yul\":15857:15860   */\n      dup3\n        /* \"#utility.yul\":15768:15861   */\n      tag_166\n      jump\t// in\n    tag_332:\n        /* \"#utility.yul\":15886:15888   */\n      0x20\n        /* \"#utility.yul\":15881:15884   */\n      dup3\n        /* \"#utility.yul\":15877:15889   */\n      add\n        /* \"#utility.yul\":15870:15889   */\n      swap1\n      pop\n        /* \"#utility.yul\":15529:15895   */\n      swap2\n      swap1\n      pop\n      jump\t// out\n        /* \"#utility.yul\":15901:16320   */\n    tag_93:\n        /* \"#utility.yul\":16067:16071   */\n      0x00\n        /* \"#utility.yul\":16105:16107   */\n      0x20\n        /* \"#utility.yul\":16094:16103   */\n      dup3\n        /* \"#utility.yul\":16090:16108   */\n      add\n        /* \"#utility.yul\":16082:16108   */\n      swap1\n      pop\n        /* \"#utility.yul\":16154:16163   */\n      dup2\n        /* \"#utility.yul\":16148:16152   */\n      dup2\n        /* \"#utility.yul\":16144:16164   */\n      sub\n        /* \"#utility.yul\":16140:16141   */\n      0x00\n        /* \"#utility.yul\":16129:16138   */\n      dup4\n        /* \"#utility.yul\":16125:16142   */\n      add\n        /* \"#utility.yul\":16118:16165   */\n      mstore\n        /* \"#utility.yul\":16182:16313   */\n      tag_334\n        /* \"#utility.yul\":16308:16312   */\n      dup2\n        /* \"#utility.yul\":16182:16313   */\n      tag_167\n      jump\t// in\n    tag_334:\n        /* \"#utility.yul\":16174:16313   */\n      swap1\n      pop\n        /* \"#utility.yul\":15901:16320   */\n      swap2\n      swap1\n      pop\n      jump\t// out\n        /* \"#utility.yul\":16326:16506   */\n    tag_168:\n        /* \"#utility.yul\":16374:16451   */\n      0x4e487b7100000000000000000000000000000000000000000000000000000000\n        /* \"#utility.yul\":16371:16372   */\n      0x00\n        /* \"#utility.yul\":16364:16452   */\n      mstore\n        /* \"#utility.yul\":16471:16475   */\n      0x11\n        /* \"#utility.yul\":16468:16469   */\n      0x04\n        /* \"#utility.yul\":16461:16476   */\n      mstore\n        /* \"#utility.yul\":16495:16499   */\n      0x24\n        /* \"#utility.yul\":16492:16493   */\n      0x00\n        /* \"#utility.yul\":16485:16500   */\n      revert\n        /* \"#utility.yul\":16512:16745   */\n    tag_107:\n        /* \"#utility.yul\":16551:16554   */\n      0x00\n        /* \"#utility.yul\":16574:16598   */\n      tag_337\n        /* \"#utility.yul\":16592:16597   */\n      dup3\n        /* \"#utility.yul\":16574:16598   */\n      tag_130\n      jump\t// in\n    tag_337:\n        /* \"#utility.yul\":16565:16598   */\n      swap2\n      pop\n        /* \"#utility.yul\":16620:16686   */\n      0xffffffffffffffffffffffffffffffffffffffffffffffffffffffffffffffff\n        /* \"#utility.yul\":16613:16618   */\n      dup3\n        /* \"#utility.yul\":16610:16687   */\n      eq\n        /* \"#utility.yul\":16607:16710   */\n      iszero\n      tag_338\n      jumpi\n        /* \"#utility.yul\":16690:16708   */\n      tag_339\n      tag_168\n      jump\t// in\n    tag_339:\n        /* \"#utility.yul\":16607:16710   */\n    tag_338:\n        /* \"#utility.yul\":16737:16738   */\n      0x01\n        /* \"#utility.yul\":16730:16735   */\n      dup3\n        /* \"#utility.yul\":16726:16739   */\n      add\n        /* \"#utility.yul\":16719:16739   */\n      swap1\n      pop\n        /* \"#utility.yul\":16512:16745   */\n      swap2\n      swap1\n      pop\n      jump\t// out\n        /* \"#utility.yul\":16751:16913   */\n    tag_169:\n        /* \"#utility.yul\":16891:16905   */\n      0x4f7574206f66204c696d69740000000000000000000000000000000000000000\n        /* \"#utility.yul\":16887:16888   */\n      0x00\n        /* \"#utility.yul\":16879:16885   */\n      dup3\n        /* \"#utility.yul\":16875:16889   */\n      add\n        /* \"#utility.yul\":16868:16906   */\n      mstore\n        /* \"#utility.yul\":16751:16913   */\n      pop\n      jump\t// out\n        /* \"#utility.yul\":16919:17285   */\n    tag_170:\n        /* \"#utility.yul\":17061:17064   */\n      0x00\n        /* \"#utility.yul\":17082:17149   */\n      tag_342\n        /* \"#utility.yul\":17146:17148   */\n      0x0c\n        /* \"#utility.yul\":17141:17144   */\n      dup4\n        /* \"#utility.yul\":17082:17149   */\n      tag_142\n      jump\t// in\n    tag_342:\n        /* \"#utility.yul\":17075:17149   */\n      swap2\n      pop\n        /* \"#utility.yul\":17158:17251   */\n      tag_343\n        /* \"#utility.yul\":17247:17250   */\n      dup3\n        /* \"#utility.yul\":17158:17251   */\n      tag_169\n      jump\t// in\n    tag_343:\n        /* \"#utility.yul\":17276:17278   */\n      0x20\n        /* \"#utility.yul\":17271:17274   */\n      dup3\n        /* \"#utility.yul\":17267:17279   */\n      add\n        /* \"#utility.yul\":17260:17279   */\n      swap1\n      pop\n        /* \"#utility.yul\":16919:17285   */\n      swap2\n      swap1\n      pop\n      jump\t// out\n        /* \"#utility.yul\":17291:17710   */\n    tag_113:\n        /* \"#utility.yul\":17457:17461   */\n      0x00\n        /* \"#utility.yul\":17495:17497   */\n      0x20\n        /* \"#utility.yul\":17484:17493   */\n      dup3\n        /* \"#utility.yul\":17480:17498   */\n      add\n        /* \"#utility.yul\":17472:17498   */\n      swap1\n      pop\n        /* \"#utility.yul\":17544:17553   */\n      dup2\n        /* \"#utility.yul\":17538:17542   */\n      dup2\n        /* \"#utility.yul\":17534:17554   */\n      sub\n        /* \"#utility.yul\":17530:17531   */\n      0x00\n        /* \"#utility.yul\":17519:17528   */\n      dup4\n        /* \"#utility.yul\":17515:17532   */\n      add\n        /* \"#utility.yul\":17508:17555   */\n      mstore\n        /* \"#utility.yul\":17572:17703   */\n      tag_345\n        /* \"#utility.yul\":17698:17702   */\n      dup2\n        /* \"#utility.yul\":17572:17703   */\n      tag_170\n      jump\t// in\n    tag_345:\n        /* \"#utility.yul\":17564:17703   */\n      swap1\n      pop\n        /* \"#utility.yul\":17291:17710   */\n      swap2\n      swap1\n      pop\n      jump\t// out\n\n    auxdata: 0xa26469706673582212206d57e23a4e0dc00ee428bf52085252e123e04fddcf652239fb1b580f7605b3ee64736f6c63430008080033\n}\n",
				"bytecode": {
					"linkReferences": {},
					"object": "60806040527350c7a09925375438d2cee94c5c59266c6ffaaf8c6000806101000a81548173ffffffffffffffffffffffffffffffffffffffff021916908373ffffffffffffffffffffffffffffffffffffffff16021790555073dbddb8575f6bda11f1dc548a1b546463cc567c3d600160006101000a81548173ffffffffffffffffffffffffffffffffffffffff021916908373ffffffffffffffffffffffffffffffffffffffff1602179055506002600355348015620000bf57600080fd5b5033600260006101000a81548173ffffffffffffffffffffffffffffffffffffffff021916908373ffffffffffffffffffffffffffffffffffffffff16021790555060008060009054906101000a900473ffffffffffffffffffffffffffffffffffffffff1673ffffffffffffffffffffffffffffffffffffffff166348441d5f6040518163ffffffff1660e01b815260040160006040518083038186803b1580156200016b57600080fd5b505afa15801562000180573d6000803e3d6000fd5b505050506040513d6000823e3d601f19601f82011682018060405250810190620001ab9190620006a3565b90506000805b6003811015620003635760008060009054906101000a900473ffffffffffffffffffffffffffffffffffffffff1673ffffffffffffffffffffffffffffffffffffffff1663278a7f3385846003811062000210576200020f620006f4565b5b60200201516040518263ffffffff1660e01b815260040162000233919062000780565b60206040518083038186803b1580156200024c57600080fd5b505afa15801562000261573d6000803e3d6000fd5b505050506040513d601f19601f82011682018060405250810190620002879190620007e2565b60ff16905060046040518060600160405280868560038110620002af57620002ae620006f4565b5b6020020151815260200185815260200160018487620002cf91906200084d565b620002db9190620008aa565b81525090806001815401808255809150506001900390600052602060002090600302016000909190919091506000820151816000019080519060200190620003259291906200036c565b506020820151816001015560408201518160020155505080836200034a91906200084d565b92505080806200035a90620008e5565b915050620001b1565b50505062000998565b8280546200037a9062000962565b90600052602060002090601f0160209004810192826200039e5760008555620003ea565b82601f10620003b957805160ff1916838001178555620003ea565b82800160010185558215620003ea579182015b82811115620003e9578251825591602001919060010190620003cc565b5b509050620003f99190620003fd565b5090565b5b8082111562000418576000816000905550600101620003fe565b5090565b6000604051905090565b600080fd5b600080fd5b600080fd5b6000601f19601f8301169050919050565b7f4e487b7100000000000000000000000000000000000000000000000000000000600052604160045260246000fd5b620004808262000435565b810181811067ffffffffffffffff82111715620004a257620004a162000446565b5b80604052505050565b6000620004b76200041c565b9050620004c5828262000475565b919050565b600067ffffffffffffffff821115620004e857620004e762000446565b5b602082029050919050565b600080fd5b600080fd5b600067ffffffffffffffff8211156200051b576200051a62000446565b5b620005268262000435565b9050602081019050919050565b60005b838110156200055357808201518184015260208101905062000536565b8381111562000563576000848401525b50505050565b6000620005806200057a84620004fd565b620004ab565b9050828152602081018484840111156200059f576200059e620004f8565b5b620005ac84828562000533565b509392505050565b600082601f830112620005cc57620005cb62000430565b5b8151620005de84826020860162000569565b91505092915050565b6000620005fe620005f884620004ca565b620004ab565b905080602084028301858111156200061b576200061a620004f3565b5b835b818110156200066957805167ffffffffffffffff81111562000644576200064362000430565b5b808601620006538982620005b4565b855260208501945050506020810190506200061d565b5050509392505050565b600082601f8301126200068b576200068a62000430565b5b60036200069a848285620005e7565b91505092915050565b600060208284031215620006bc57620006bb62000426565b5b600082015167ffffffffffffffff811115620006dd57620006dc6200042b565b5b620006eb8482850162000673565b91505092915050565b7f4e487b7100000000000000000000000000000000000000000000000000000000600052603260045260246000fd5b600081519050919050565b600082825260208201905092915050565b60006200074c8262000723565b6200075881856200072e565b93506200076a81856020860162000533565b620007758162000435565b840191505092915050565b600060208201905081810360008301526200079c81846200073f565b905092915050565b600060ff82169050919050565b620007bc81620007a4565b8114620007c857600080fd5b50565b600081519050620007dc81620007b1565b92915050565b600060208284031215620007fb57620007fa62000426565b5b60006200080b84828501620007cb565b91505092915050565b6000819050919050565b7f4e487b7100000000000000000000000000000000000000000000000000000000600052601160045260246000fd5b60006200085a8262000814565b9150620008678362000814565b9250827fffffffffffffffffffffffffffffffffffffffffffffffffffffffffffffffff038211156200089f576200089e6200081e565b5b828201905092915050565b6000620008b78262000814565b9150620008c48362000814565b925082821015620008da57620008d96200081e565b5b828203905092915050565b6000620008f28262000814565b91507fffffffffffffffffffffffffffffffffffffffffffffffffffffffffffffffff8214156200092857620009276200081e565b5b600182019050919050565b7f4e487b7100000000000000000000000000000000000000000000000000000000600052602260045260246000fd5b600060028204905060018216806200097b57607f821691505b6020821081141562000992576200099162000933565b5b50919050565b6112d180620009a86000396000f3fe608060405234801561001057600080fd5b506004361061009d5760003560e01c8063a7beb5d011610066578063a7beb5d01461015f578063bb4a376b1461018f578063c15d3ead146101ad578063e917ec96146101c9578063fc6f9468146101d35761009d565b8062ce8e3e146100a257806306cd309b146100c05780636fd3d9e2146100de5780637259e0f8146101105780638f84aa0914610141575b600080fd5b6100aa6101f1565b6040516100b79190610b62565b60405180910390f35b6100c86102f6565b6040516100d59190610b93565b60405180910390f35b6100f860048036038101906100f39190610bee565b6102fc565b60405161010793929190610c65565b60405180910390f35b61012a60048036038101906101259190610bee565b6103be565b604051610138929190610ce4565b60405180910390f35b610149610412565b6040516101569190610d0d565b60405180910390f35b61017960048036038101906101749190610e5d565b610438565b6040516101869190610b93565b60405180910390f35b6101976104ee565b6040516101a49190610ea6565b60405180910390f35b6101c760048036038101906101c29190610bee565b6105b7565b005b6101d16106a9565b005b6101db610978565b6040516101e89190610d0d565b60405180910390f35b60606004805480602002602001604051908101604052809291908181526020016000905b828210156102ed578382906000526020600020906003020160405180606001604052908160008201805461024890610ef7565b80601f016020809104026020016040519081016040528092919081815260200182805461027490610ef7565b80156102c15780601f10610296576101008083540402835291602001916102c1565b820191906000526020600020905b8154815290600101906020018083116102a457829003601f168201915b505050505081526020016001820154815260200160028201548152505081526020019060010190610215565b50505050905090565b60035481565b6004818154811061030c57600080fd5b906000526020600020906003020160009150905080600001805461032f90610ef7565b80601f016020809104026020016040519081016040528092919081815260200182805461035b90610ef7565b80156103a85780601f1061037d576101008083540402835291602001916103a8565b820191906000526020600020905b81548152906001019060200180831161038b57829003601f168201915b5050505050908060010154908060020154905083565b600581815481106103ce57600080fd5b90600052602060002090600202016000915090508060000160009054906101000a900473ffffffffffffffffffffffffffffffffffffffff16908060010154905082565b600160009054906101000a900473ffffffffffffffffffffffffffffffffffffffff1681565b60008060009054906101000a900473ffffffffffffffffffffffffffffffffffffffff1673ffffffffffffffffffffffffffffffffffffffff1663278a7f33836040518263ffffffff1660e01b81526004016104949190610ea6565b60206040518083038186803b1580156104ac57600080fd5b505afa1580156104c0573d6000803e3d6000fd5b505050506040513d601f19601f820116820180604052508101906104e49190610f62565b60ff169050919050565b606060008060009054906101000a900473ffffffffffffffffffffffffffffffffffffffff1673ffffffffffffffffffffffffffffffffffffffff166348441d5f6040518163ffffffff1660e01b815260040160006040518083038186803b15801561055957600080fd5b505afa15801561056d573d6000803e3d6000fd5b505050506040513d6000823e3d601f19601f8201168201806040525081019061059691906110d3565b9050806000600381106105ac576105ab61111c565b5b602002015191505090565b600260009054906101000a900473ffffffffffffffffffffffffffffffffffffffff1673ffffffffffffffffffffffffffffffffffffffff163373ffffffffffffffffffffffffffffffffffffffff1614806106605750600160009054906101000a900473ffffffffffffffffffffffffffffffffffffffff1673ffffffffffffffffffffffffffffffffffffffff163373ffffffffffffffffffffffffffffffffffffffff16145b61069f576040517f08c379a000000000000000000000000000000000000000000000000000000000815260040161069690611197565b60405180910390fd5b8060038190555050565b6000805b600015158215151480156106c657506000600580549050115b80156106d6575060058054905081105b15610811573373ffffffffffffffffffffffffffffffffffffffff16600582815481106107065761070561111c565b5b906000526020600020906002020160000160009054906101000a900473ffffffffffffffffffffffffffffffffffffffff1673ffffffffffffffffffffffffffffffffffffffff1614156107fe57600191506005818154811061076c5761076b61111c565b5b9060005260206000209060020201600101600081548092919061078e906111e6565b9190505550600354600582815481106107aa576107a961111c565b5b90600052602060002090600202016001015411156107fd576040517f08c379a00000000000000000000000000000000000000000000000000000000081526004016107f49061127b565b60405180910390fd5b5b8080610809906111e6565b9150506106ad565b60008054906101000a900473ffffffffffffffffffffffffffffffffffffffff1673ffffffffffffffffffffffffffffffffffffffff166340d097c3600160009054906101000a900473ffffffffffffffffffffffffffffffffffffffff166040518263ffffffff1660e01b815260040161088c9190610d0d565b600060405180830381600087803b1580156108a657600080fd5b505af11580156108ba573d6000803e3d6000fd5b505050508161097457600060405180604001604052803373ffffffffffffffffffffffffffffffffffffffff16815260200160018152509050600581908060018154018082558091505060019003906000526020600020906002020160009091909190915060008201518160000160006101000a81548173ffffffffffffffffffffffffffffffffffffffff021916908373ffffffffffffffffffffffffffffffffffffffff160217905550602082015181600101555050505b5050565b600260009054906101000a900473ffffffffffffffffffffffffffffffffffffffff1681565b600081519050919050565b600082825260208201905092915050565b6000819050602082019050919050565b600081519050919050565b600082825260208201905092915050565b60005b83811015610a045780820151818401526020810190506109e9565b83811115610a13576000848401525b50505050565b6000601f19601f8301169050919050565b6000610a35826109ca565b610a3f81856109d5565b9350610a4f8185602086016109e6565b610a5881610a19565b840191505092915050565b6000819050919050565b610a7681610a63565b82525050565b60006060830160008301518482036000860152610a998282610a2a565b9150506020830151610aae6020860182610a6d565b506040830151610ac16040860182610a6d565b508091505092915050565b6000610ad88383610a7c565b905092915050565b6000602082019050919050565b6000610af88261099e565b610b0281856109a9565b935083602082028501610b14856109ba565b8060005b85811015610b505784840389528151610b318582610acc565b9450610b3c83610ae0565b925060208a01995050600181019050610b18565b50829750879550505050505092915050565b60006020820190508181036000830152610b7c8184610aed565b905092915050565b610b8d81610a63565b82525050565b6000602082019050610ba86000830184610b84565b92915050565b6000604051905090565b600080fd5b600080fd5b610bcb81610a63565b8114610bd657600080fd5b50565b600081359050610be881610bc2565b92915050565b600060208284031215610c0457610c03610bb8565b5b6000610c1284828501610bd9565b91505092915050565b600082825260208201905092915050565b6000610c37826109ca565b610c418185610c1b565b9350610c518185602086016109e6565b610c5a81610a19565b840191505092915050565b60006060820190508181036000830152610c7f8186610c2c565b9050610c8e6020830185610b84565b610c9b6040830184610b84565b949350505050565b600073ffffffffffffffffffffffffffffffffffffffff82169050919050565b6000610cce82610ca3565b9050919050565b610cde81610cc3565b82525050565b6000604082019050610cf96000830185610cd5565b610d066020830184610b84565b9392505050565b6000602082019050610d226000830184610cd5565b92915050565b600080fd5b600080fd5b7f4e487b7100000000000000000000000000000000000000000000000000000000600052604160045260246000fd5b610d6a82610a19565b810181811067ffffffffffffffff82111715610d8957610d88610d32565b5b80604052505050565b6000610d9c610bae565b9050610da88282610d61565b919050565b600067ffffffffffffffff821115610dc857610dc7610d32565b5b610dd182610a19565b9050602081019050919050565b82818337600083830152505050565b6000610e00610dfb84610dad565b610d92565b905082815260208101848484011115610e1c57610e1b610d2d565b5b610e27848285610dde565b509392505050565b600082601f830112610e4457610e43610d28565b5b8135610e54848260208601610ded565b91505092915050565b600060208284031215610e7357610e72610bb8565b5b600082013567ffffffffffffffff811115610e9157610e90610bbd565b5b610e9d84828501610e2f565b91505092915050565b60006020820190508181036000830152610ec08184610c2c565b905092915050565b7f4e487b7100000000000000000000000000000000000000000000000000000000600052602260045260246000fd5b60006002820490506001821680610f0f57607f821691505b60208210811415610f2357610f22610ec8565b5b50919050565b600060ff82169050919050565b610f3f81610f29565b8114610f4a57600080fd5b50565b600081519050610f5c81610f36565b92915050565b600060208284031215610f7857610f77610bb8565b5b6000610f8684828501610f4d565b91505092915050565b600067ffffffffffffffff821115610faa57610fa9610d32565b5b602082029050919050565b600080fd5b6000610fcd610fc884610dad565b610d92565b905082815260208101848484011115610fe957610fe8610d2d565b5b610ff48482856109e6565b509392505050565b600082601f83011261101157611010610d28565b5b8151611021848260208601610fba565b91505092915050565b600061103d61103884610f8f565b610d92565b9050806020840283018581111561105757611056610fb5565b5b835b8181101561109e57805167ffffffffffffffff81111561107c5761107b610d28565b5b8086016110898982610ffc565b85526020850194505050602081019050611059565b5050509392505050565b600082601f8301126110bd576110bc610d28565b5b60036110ca84828561102a565b91505092915050565b6000602082840312156110e9576110e8610bb8565b5b600082015167ffffffffffffffff81111561110757611106610bbd565b5b611113848285016110a8565b91505092915050565b7f4e487b7100000000000000000000000000000000000000000000000000000000600052603260045260246000fd5b7f4e6f7420417574686f72697a65642c2041646d696e204f6e6c79000000000000600082015250565b6000611181601a83610c1b565b915061118c8261114b565b602082019050919050565b600060208201905081810360008301526111b081611174565b9050919050565b7f4e487b7100000000000000000000000000000000000000000000000000000000600052601160045260246000fd5b60006111f182610a63565b91507fffffffffffffffffffffffffffffffffffffffffffffffffffffffffffffffff821415611224576112236111b7565b5b600182019050919050565b7f4f7574206f66204c696d69740000000000000000000000000000000000000000600082015250565b6000611265600c83610c1b565b91506112708261122f565b602082019050919050565b6000602082019050818103600083015261129481611258565b905091905056fea26469706673582212206d57e23a4e0dc00ee428bf52085252e123e04fddcf652239fb1b580f7605b3ee64736f6c63430008080033",
					"opcodes": "PUSH1 0x80 PUSH1 0x40 MSTORE PUSH20 0x50C7A09925375438D2CEE94C5C59266C6FFAAF8C PUSH1 0x0 DUP1 PUSH2 0x100 EXP DUP2 SLOAD DUP2 PUSH20 0xFFFFFFFFFFFFFFFFFFFFFFFFFFFFFFFFFFFFFFFF MUL NOT AND SWAP1 DUP4 PUSH20 0xFFFFFFFFFFFFFFFFFFFFFFFFFFFFFFFFFFFFFFFF AND MUL OR SWAP1 SSTORE POP PUSH20 0xDBDDB8575F6BDA11F1DC548A1B546463CC567C3D PUSH1 0x1 PUSH1 0x0 PUSH2 0x100 EXP DUP2 SLOAD DUP2 PUSH20 0xFFFFFFFFFFFFFFFFFFFFFFFFFFFFFFFFFFFFFFFF MUL NOT AND SWAP1 DUP4 PUSH20 0xFFFFFFFFFFFFFFFFFFFFFFFFFFFFFFFFFFFFFFFF AND MUL OR SWAP1 SSTORE POP PUSH1 0x2 PUSH1 0x3 SSTORE CALLVALUE DUP1 ISZERO PUSH3 0xBF JUMPI PUSH1 0x0 DUP1 REVERT JUMPDEST POP CALLER PUSH1 0x2 PUSH1 0x0 PUSH2 0x100 EXP DUP2 SLOAD DUP2 PUSH20 0xFFFFFFFFFFFFFFFFFFFFFFFFFFFFFFFFFFFFFFFF MUL NOT AND SWAP1 DUP4 PUSH20 0xFFFFFFFFFFFFFFFFFFFFFFFFFFFFFFFFFFFFFFFF AND MUL OR SWAP1 SSTORE POP PUSH1 0x0 DUP1 PUSH1 0x0 SWAP1 SLOAD SWAP1 PUSH2 0x100 EXP SWAP1 DIV PUSH20 0xFFFFFFFFFFFFFFFFFFFFFFFFFFFFFFFFFFFFFFFF AND PUSH20 0xFFFFFFFFFFFFFFFFFFFFFFFFFFFFFFFFFFFFFFFF AND PUSH4 0x48441D5F PUSH1 0x40 MLOAD DUP2 PUSH4 0xFFFFFFFF AND PUSH1 0xE0 SHL DUP2 MSTORE PUSH1 0x4 ADD PUSH1 0x0 PUSH1 0x40 MLOAD DUP1 DUP4 SUB DUP2 DUP7 DUP1 EXTCODESIZE ISZERO DUP1 ISZERO PUSH3 0x16B JUMPI PUSH1 0x0 DUP1 REVERT JUMPDEST POP GAS STATICCALL ISZERO DUP1 ISZERO PUSH3 0x180 JUMPI RETURNDATASIZE PUSH1 0x0 DUP1 RETURNDATACOPY RETURNDATASIZE PUSH1 0x0 REVERT JUMPDEST POP POP POP POP PUSH1 0x40 MLOAD RETURNDATASIZE PUSH1 0x0 DUP3 RETURNDATACOPY RETURNDATASIZE PUSH1 0x1F NOT PUSH1 0x1F DUP3 ADD AND DUP3 ADD DUP1 PUSH1 0x40 MSTORE POP DUP2 ADD SWAP1 PUSH3 0x1AB SWAP2 SWAP1 PUSH3 0x6A3 JUMP JUMPDEST SWAP1 POP PUSH1 0x0 DUP1 JUMPDEST PUSH1 0x3 DUP2 LT ISZERO PUSH3 0x363 JUMPI PUSH1 0x0 DUP1 PUSH1 0x0 SWAP1 SLOAD SWAP1 PUSH2 0x100 EXP SWAP1 DIV PUSH20 0xFFFFFFFFFFFFFFFFFFFFFFFFFFFFFFFFFFFFFFFF AND PUSH20 0xFFFFFFFFFFFFFFFFFFFFFFFFFFFFFFFFFFFFFFFF AND PUSH4 0x278A7F33 DUP6 DUP5 PUSH1 0x3 DUP2 LT PUSH3 0x210 JUMPI PUSH3 0x20F PUSH3 0x6F4 JUMP JUMPDEST JUMPDEST PUSH1 0x20 MUL ADD MLOAD PUSH1 0x40 MLOAD DUP3 PUSH4 0xFFFFFFFF AND PUSH1 0xE0 SHL DUP2 MSTORE PUSH1 0x4 ADD PUSH3 0x233 SWAP2 SWAP1 PUSH3 0x780 JUMP JUMPDEST PUSH1 0x20 PUSH1 0x40 MLOAD DUP1 DUP4 SUB DUP2 DUP7 DUP1 EXTCODESIZE ISZERO DUP1 ISZERO PUSH3 0x24C JUMPI PUSH1 0x0 DUP1 REVERT JUMPDEST POP GAS STATICCALL ISZERO DUP1 ISZERO PUSH3 0x261 JUMPI RETURNDATASIZE PUSH1 0x0 DUP1 RETURNDATACOPY RETURNDATASIZE PUSH1 0x0 REVERT JUMPDEST POP POP POP POP PUSH1 0x40 MLOAD RETURNDATASIZE PUSH1 0x1F NOT PUSH1 0x1F DUP3 ADD AND DUP3 ADD DUP1 PUSH1 0x40 MSTORE POP DUP2 ADD SWAP1 PUSH3 0x287 SWAP2 SWAP1 PUSH3 0x7E2 JUMP JUMPDEST PUSH1 0xFF AND SWAP1 POP PUSH1 0x4 PUSH1 0x40 MLOAD DUP1 PUSH1 0x60 ADD PUSH1 0x40 MSTORE DUP1 DUP7 DUP6 PUSH1 0x3 DUP2 LT PUSH3 0x2AF JUMPI PUSH3 0x2AE PUSH3 0x6F4 JUMP JUMPDEST JUMPDEST PUSH1 0x20 MUL ADD MLOAD DUP2 MSTORE PUSH1 0x20 ADD DUP6 DUP2 MSTORE PUSH1 0x20 ADD PUSH1 0x1 DUP5 DUP8 PUSH3 0x2CF SWAP2 SWAP1 PUSH3 0x84D JUMP JUMPDEST PUSH3 0x2DB SWAP2 SWAP1 PUSH3 0x8AA JUMP JUMPDEST DUP2 MSTORE POP SWAP1 DUP1 PUSH1 0x1 DUP2 SLOAD ADD DUP1 DUP3 SSTORE DUP1 SWAP2 POP POP PUSH1 0x1 SWAP1 SUB SWAP1 PUSH1 0x0 MSTORE PUSH1 0x20 PUSH1 0x0 KECCAK256 SWAP1 PUSH1 0x3 MUL ADD PUSH1 0x0 SWAP1 SWAP2 SWAP1 SWAP2 SWAP1 SWAP2 POP PUSH1 0x0 DUP3 ADD MLOAD DUP2 PUSH1 0x0 ADD SWAP1 DUP1 MLOAD SWAP1 PUSH1 0x20 ADD SWAP1 PUSH3 0x325 SWAP3 SWAP2 SWAP1 PUSH3 0x36C JUMP JUMPDEST POP PUSH1 0x20 DUP3 ADD MLOAD DUP2 PUSH1 0x1 ADD SSTORE PUSH1 0x40 DUP3 ADD MLOAD DUP2 PUSH1 0x2 ADD SSTORE POP POP DUP1 DUP4 PUSH3 0x34A SWAP2 SWAP1 PUSH3 0x84D JUMP JUMPDEST SWAP3 POP POP DUP1 DUP1 PUSH3 0x35A SWAP1 PUSH3 0x8E5 JUMP JUMPDEST SWAP2 POP POP PUSH3 0x1B1 JUMP JUMPDEST POP POP POP PUSH3 0x998 JUMP JUMPDEST DUP3 DUP1 SLOAD PUSH3 0x37A SWAP1 PUSH3 0x962 JUMP JUMPDEST SWAP1 PUSH1 0x0 MSTORE PUSH1 0x20 PUSH1 0x0 KECCAK256 SWAP1 PUSH1 0x1F ADD PUSH1 0x20 SWAP1 DIV DUP2 ADD SWAP3 DUP3 PUSH3 0x39E JUMPI PUSH1 0x0 DUP6 SSTORE PUSH3 0x3EA JUMP JUMPDEST DUP3 PUSH1 0x1F LT PUSH3 0x3B9 JUMPI DUP1 MLOAD PUSH1 0xFF NOT AND DUP4 DUP1 ADD OR DUP6 SSTORE PUSH3 0x3EA JUMP JUMPDEST DUP3 DUP1 ADD PUSH1 0x1 ADD DUP6 SSTORE DUP3 ISZERO PUSH3 0x3EA JUMPI SWAP2 DUP3 ADD JUMPDEST DUP3 DUP2 GT ISZERO PUSH3 0x3E9 JUMPI DUP3 MLOAD DUP3 SSTORE SWAP2 PUSH1 0x20 ADD SWAP2 SWAP1 PUSH1 0x1 ADD SWAP1 PUSH3 0x3CC JUMP JUMPDEST JUMPDEST POP SWAP1 POP PUSH3 0x3F9 SWAP2 SWAP1 PUSH3 0x3FD JUMP JUMPDEST POP SWAP1 JUMP JUMPDEST JUMPDEST DUP1 DUP3 GT ISZERO PUSH3 0x418 JUMPI PUSH1 0x0 DUP2 PUSH1 0x0 SWAP1 SSTORE POP PUSH1 0x1 ADD PUSH3 0x3FE JUMP JUMPDEST POP SWAP1 JUMP JUMPDEST PUSH1 0x0 PUSH1 0x40 MLOAD SWAP1 POP SWAP1 JUMP JUMPDEST PUSH1 0x0 DUP1 REVERT JUMPDEST PUSH1 0x0 DUP1 REVERT JUMPDEST PUSH1 0x0 DUP1 REVERT JUMPDEST PUSH1 0x0 PUSH1 0x1F NOT PUSH1 0x1F DUP4 ADD AND SWAP1 POP SWAP2 SWAP1 POP JUMP JUMPDEST PUSH32 0x4E487B7100000000000000000000000000000000000000000000000000000000 PUSH1 0x0 MSTORE PUSH1 0x41 PUSH1 0x4 MSTORE PUSH1 0x24 PUSH1 0x0 REVERT JUMPDEST PUSH3 0x480 DUP3 PUSH3 0x435 JUMP JUMPDEST DUP2 ADD DUP2 DUP2 LT PUSH8 0xFFFFFFFFFFFFFFFF DUP3 GT OR ISZERO PUSH3 0x4A2 JUMPI PUSH3 0x4A1 PUSH3 0x446 JUMP JUMPDEST JUMPDEST DUP1 PUSH1 0x40 MSTORE POP POP POP JUMP JUMPDEST PUSH1 0x0 PUSH3 0x4B7 PUSH3 0x41C JUMP JUMPDEST SWAP1 POP PUSH3 0x4C5 DUP3 DUP3 PUSH3 0x475 JUMP JUMPDEST SWAP2 SWAP1 POP JUMP JUMPDEST PUSH1 0x0 PUSH8 0xFFFFFFFFFFFFFFFF DUP3 GT ISZERO PUSH3 0x4E8 JUMPI PUSH3 0x4E7 PUSH3 0x446 JUMP JUMPDEST JUMPDEST PUSH1 0x20 DUP3 MUL SWAP1 POP SWAP2 SWAP1 POP JUMP JUMPDEST PUSH1 0x0 DUP1 REVERT JUMPDEST PUSH1 0x0 DUP1 REVERT JUMPDEST PUSH1 0x0 PUSH8 0xFFFFFFFFFFFFFFFF DUP3 GT ISZERO PUSH3 0x51B JUMPI PUSH3 0x51A PUSH3 0x446 JUMP JUMPDEST JUMPDEST PUSH3 0x526 DUP3 PUSH3 0x435 JUMP JUMPDEST SWAP1 POP PUSH1 0x20 DUP2 ADD SWAP1 POP SWAP2 SWAP1 POP JUMP JUMPDEST PUSH1 0x0 JUMPDEST DUP4 DUP2 LT ISZERO PUSH3 0x553 JUMPI DUP1 DUP3 ADD MLOAD DUP2 DUP5 ADD MSTORE PUSH1 0x20 DUP2 ADD SWAP1 POP PUSH3 0x536 JUMP JUMPDEST DUP4 DUP2 GT ISZERO PUSH3 0x563 JUMPI PUSH1 0x0 DUP5 DUP5 ADD MSTORE JUMPDEST POP POP POP POP JUMP JUMPDEST PUSH1 0x0 PUSH3 0x580 PUSH3 0x57A DUP5 PUSH3 0x4FD JUMP JUMPDEST PUSH3 0x4AB JUMP JUMPDEST SWAP1 POP DUP3 DUP2 MSTORE PUSH1 0x20 DUP2 ADD DUP5 DUP5 DUP5 ADD GT ISZERO PUSH3 0x59F JUMPI PUSH3 0x59E PUSH3 0x4F8 JUMP JUMPDEST JUMPDEST PUSH3 0x5AC DUP5 DUP3 DUP6 PUSH3 0x533 JUMP JUMPDEST POP SWAP4 SWAP3 POP POP POP JUMP JUMPDEST PUSH1 0x0 DUP3 PUSH1 0x1F DUP4 ADD SLT PUSH3 0x5CC JUMPI PUSH3 0x5CB PUSH3 0x430 JUMP JUMPDEST JUMPDEST DUP2 MLOAD PUSH3 0x5DE DUP5 DUP3 PUSH1 0x20 DUP7 ADD PUSH3 0x569 JUMP JUMPDEST SWAP2 POP POP SWAP3 SWAP2 POP POP JUMP JUMPDEST PUSH1 0x0 PUSH3 0x5FE PUSH3 0x5F8 DUP5 PUSH3 0x4CA JUMP JUMPDEST PUSH3 0x4AB JUMP JUMPDEST SWAP1 POP DUP1 PUSH1 0x20 DUP5 MUL DUP4 ADD DUP6 DUP2 GT ISZERO PUSH3 0x61B JUMPI PUSH3 0x61A PUSH3 0x4F3 JUMP JUMPDEST JUMPDEST DUP4 JUMPDEST DUP2 DUP2 LT ISZERO PUSH3 0x669 JUMPI DUP1 MLOAD PUSH8 0xFFFFFFFFFFFFFFFF DUP2 GT ISZERO PUSH3 0x644 JUMPI PUSH3 0x643 PUSH3 0x430 JUMP JUMPDEST JUMPDEST DUP1 DUP7 ADD PUSH3 0x653 DUP10 DUP3 PUSH3 0x5B4 JUMP JUMPDEST DUP6 MSTORE PUSH1 0x20 DUP6 ADD SWAP5 POP POP POP PUSH1 0x20 DUP2 ADD SWAP1 POP PUSH3 0x61D JUMP JUMPDEST POP POP POP SWAP4 SWAP3 POP POP POP JUMP JUMPDEST PUSH1 0x0 DUP3 PUSH1 0x1F DUP4 ADD SLT PUSH3 0x68B JUMPI PUSH3 0x68A PUSH3 0x430 JUMP JUMPDEST JUMPDEST PUSH1 0x3 PUSH3 0x69A DUP5 DUP3 DUP6 PUSH3 0x5E7 JUMP JUMPDEST SWAP2 POP POP SWAP3 SWAP2 POP POP JUMP JUMPDEST PUSH1 0x0 PUSH1 0x20 DUP3 DUP5 SUB SLT ISZERO PUSH3 0x6BC JUMPI PUSH3 0x6BB PUSH3 0x426 JUMP JUMPDEST JUMPDEST PUSH1 0x0 DUP3 ADD MLOAD PUSH8 0xFFFFFFFFFFFFFFFF DUP2 GT ISZERO PUSH3 0x6DD JUMPI PUSH3 0x6DC PUSH3 0x42B JUMP JUMPDEST JUMPDEST PUSH3 0x6EB DUP5 DUP3 DUP6 ADD PUSH3 0x673 JUMP JUMPDEST SWAP2 POP POP SWAP3 SWAP2 POP POP JUMP JUMPDEST PUSH32 0x4E487B7100000000000000000000000000000000000000000000000000000000 PUSH1 0x0 MSTORE PUSH1 0x32 PUSH1 0x4 MSTORE PUSH1 0x24 PUSH1 0x0 REVERT JUMPDEST PUSH1 0x0 DUP2 MLOAD SWAP1 POP SWAP2 SWAP1 POP JUMP JUMPDEST PUSH1 0x0 DUP3 DUP3 MSTORE PUSH1 0x20 DUP3 ADD SWAP1 POP SWAP3 SWAP2 POP POP JUMP JUMPDEST PUSH1 0x0 PUSH3 0x74C DUP3 PUSH3 0x723 JUMP JUMPDEST PUSH3 0x758 DUP2 DUP6 PUSH3 0x72E JUMP JUMPDEST SWAP4 POP PUSH3 0x76A DUP2 DUP6 PUSH1 0x20 DUP7 ADD PUSH3 0x533 JUMP JUMPDEST PUSH3 0x775 DUP2 PUSH3 0x435 JUMP JUMPDEST DUP5 ADD SWAP2 POP POP SWAP3 SWAP2 POP POP JUMP JUMPDEST PUSH1 0x0 PUSH1 0x20 DUP3 ADD SWAP1 POP DUP2 DUP2 SUB PUSH1 0x0 DUP4 ADD MSTORE PUSH3 0x79C DUP2 DUP5 PUSH3 0x73F JUMP JUMPDEST SWAP1 POP SWAP3 SWAP2 POP POP JUMP JUMPDEST PUSH1 0x0 PUSH1 0xFF DUP3 AND SWAP1 POP SWAP2 SWAP1 POP JUMP JUMPDEST PUSH3 0x7BC DUP2 PUSH3 0x7A4 JUMP JUMPDEST DUP2 EQ PUSH3 0x7C8 JUMPI PUSH1 0x0 DUP1 REVERT JUMPDEST POP JUMP JUMPDEST PUSH1 0x0 DUP2 MLOAD SWAP1 POP PUSH3 0x7DC DUP2 PUSH3 0x7B1 JUMP JUMPDEST SWAP3 SWAP2 POP POP JUMP JUMPDEST PUSH1 0x0 PUSH1 0x20 DUP3 DUP5 SUB SLT ISZERO PUSH3 0x7FB JUMPI PUSH3 0x7FA PUSH3 0x426 JUMP JUMPDEST JUMPDEST PUSH1 0x0 PUSH3 0x80B DUP5 DUP3 DUP6 ADD PUSH3 0x7CB JUMP JUMPDEST SWAP2 POP POP SWAP3 SWAP2 POP POP JUMP JUMPDEST PUSH1 0x0 DUP2 SWAP1 POP SWAP2 SWAP1 POP JUMP JUMPDEST PUSH32 0x4E487B7100000000000000000000000000000000000000000000000000000000 PUSH1 0x0 MSTORE PUSH1 0x11 PUSH1 0x4 MSTORE PUSH1 0x24 PUSH1 0x0 REVERT JUMPDEST PUSH1 0x0 PUSH3 0x85A DUP3 PUSH3 0x814 JUMP JUMPDEST SWAP2 POP PUSH3 0x867 DUP4 PUSH3 0x814 JUMP JUMPDEST SWAP3 POP DUP3 PUSH32 0xFFFFFFFFFFFFFFFFFFFFFFFFFFFFFFFFFFFFFFFFFFFFFFFFFFFFFFFFFFFFFFFF SUB DUP3 GT ISZERO PUSH3 0x89F JUMPI PUSH3 0x89E PUSH3 0x81E JUMP JUMPDEST JUMPDEST DUP3 DUP3 ADD SWAP1 POP SWAP3 SWAP2 POP POP JUMP JUMPDEST PUSH1 0x0 PUSH3 0x8B7 DUP3 PUSH3 0x814 JUMP JUMPDEST SWAP2 POP PUSH3 0x8C4 DUP4 PUSH3 0x814 JUMP JUMPDEST SWAP3 POP DUP3 DUP3 LT ISZERO PUSH3 0x8DA JUMPI PUSH3 0x8D9 PUSH3 0x81E JUMP JUMPDEST JUMPDEST DUP3 DUP3 SUB SWAP1 POP SWAP3 SWAP2 POP POP JUMP JUMPDEST PUSH1 0x0 PUSH3 0x8F2 DUP3 PUSH3 0x814 JUMP JUMPDEST SWAP2 POP PUSH32 0xFFFFFFFFFFFFFFFFFFFFFFFFFFFFFFFFFFFFFFFFFFFFFFFFFFFFFFFFFFFFFFFF DUP3 EQ ISZERO PUSH3 0x928 JUMPI PUSH3 0x927 PUSH3 0x81E JUMP JUMPDEST JUMPDEST PUSH1 0x1 DUP3 ADD SWAP1 POP SWAP2 SWAP1 POP JUMP JUMPDEST PUSH32 0x4E487B7100000000000000000000000000000000000000000000000000000000 PUSH1 0x0 MSTORE PUSH1 0x22 PUSH1 0x4 MSTORE PUSH1 0x24 PUSH1 0x0 REVERT JUMPDEST PUSH1 0x0 PUSH1 0x2 DUP3 DIV SWAP1 POP PUSH1 0x1 DUP3 AND DUP1 PUSH3 0x97B JUMPI PUSH1 0x7F DUP3 AND SWAP2 POP JUMPDEST PUSH1 0x20 DUP3 LT DUP2 EQ ISZERO PUSH3 0x992 JUMPI PUSH3 0x991 PUSH3 0x933 JUMP JUMPDEST JUMPDEST POP SWAP2 SWAP1 POP JUMP JUMPDEST PUSH2 0x12D1 DUP1 PUSH3 0x9A8 PUSH1 0x0 CODECOPY PUSH1 0x0 RETURN INVALID PUSH1 0x80 PUSH1 0x40 MSTORE CALLVALUE DUP1 ISZERO PUSH2 0x10 JUMPI PUSH1 0x0 DUP1 REVERT JUMPDEST POP PUSH1 0x4 CALLDATASIZE LT PUSH2 0x9D JUMPI PUSH1 0x0 CALLDATALOAD PUSH1 0xE0 SHR DUP1 PUSH4 0xA7BEB5D0 GT PUSH2 0x66 JUMPI DUP1 PUSH4 0xA7BEB5D0 EQ PUSH2 0x15F JUMPI DUP1 PUSH4 0xBB4A376B EQ PUSH2 0x18F JUMPI DUP1 PUSH4 0xC15D3EAD EQ PUSH2 0x1AD JUMPI DUP1 PUSH4 0xE917EC96 EQ PUSH2 0x1C9 JUMPI DUP1 PUSH4 0xFC6F9468 EQ PUSH2 0x1D3 JUMPI PUSH2 0x9D JUMP JUMPDEST DUP1 PUSH3 0xCE8E3E EQ PUSH2 0xA2 JUMPI DUP1 PUSH4 0x6CD309B EQ PUSH2 0xC0 JUMPI DUP1 PUSH4 0x6FD3D9E2 EQ PUSH2 0xDE JUMPI DUP1 PUSH4 0x7259E0F8 EQ PUSH2 0x110 JUMPI DUP1 PUSH4 0x8F84AA09 EQ PUSH2 0x141 JUMPI JUMPDEST PUSH1 0x0 DUP1 REVERT JUMPDEST PUSH2 0xAA PUSH2 0x1F1 JUMP JUMPDEST PUSH1 0x40 MLOAD PUSH2 0xB7 SWAP2 SWAP1 PUSH2 0xB62 JUMP JUMPDEST PUSH1 0x40 MLOAD DUP1 SWAP2 SUB SWAP1 RETURN JUMPDEST PUSH2 0xC8 PUSH2 0x2F6 JUMP JUMPDEST PUSH1 0x40 MLOAD PUSH2 0xD5 SWAP2 SWAP1 PUSH2 0xB93 JUMP JUMPDEST PUSH1 0x40 MLOAD DUP1 SWAP2 SUB SWAP1 RETURN JUMPDEST PUSH2 0xF8 PUSH1 0x4 DUP1 CALLDATASIZE SUB DUP2 ADD SWAP1 PUSH2 0xF3 SWAP2 SWAP1 PUSH2 0xBEE JUMP JUMPDEST PUSH2 0x2FC JUMP JUMPDEST PUSH1 0x40 MLOAD PUSH2 0x107 SWAP4 SWAP3 SWAP2 SWAP1 PUSH2 0xC65 JUMP JUMPDEST PUSH1 0x40 MLOAD DUP1 SWAP2 SUB SWAP1 RETURN JUMPDEST PUSH2 0x12A PUSH1 0x4 DUP1 CALLDATASIZE SUB DUP2 ADD SWAP1 PUSH2 0x125 SWAP2 SWAP1 PUSH2 0xBEE JUMP JUMPDEST PUSH2 0x3BE JUMP JUMPDEST PUSH1 0x40 MLOAD PUSH2 0x138 SWAP3 SWAP2 SWAP1 PUSH2 0xCE4 JUMP JUMPDEST PUSH1 0x40 MLOAD DUP1 SWAP2 SUB SWAP1 RETURN JUMPDEST PUSH2 0x149 PUSH2 0x412 JUMP JUMPDEST PUSH1 0x40 MLOAD PUSH2 0x156 SWAP2 SWAP1 PUSH2 0xD0D JUMP JUMPDEST PUSH1 0x40 MLOAD DUP1 SWAP2 SUB SWAP1 RETURN JUMPDEST PUSH2 0x179 PUSH1 0x4 DUP1 CALLDATASIZE SUB DUP2 ADD SWAP1 PUSH2 0x174 SWAP2 SWAP1 PUSH2 0xE5D JUMP JUMPDEST PUSH2 0x438 JUMP JUMPDEST PUSH1 0x40 MLOAD PUSH2 0x186 SWAP2 SWAP1 PUSH2 0xB93 JUMP JUMPDEST PUSH1 0x40 MLOAD DUP1 SWAP2 SUB SWAP1 RETURN JUMPDEST PUSH2 0x197 PUSH2 0x4EE JUMP JUMPDEST PUSH1 0x40 MLOAD PUSH2 0x1A4 SWAP2 SWAP1 PUSH2 0xEA6 JUMP JUMPDEST PUSH1 0x40 MLOAD DUP1 SWAP2 SUB SWAP1 RETURN JUMPDEST PUSH2 0x1C7 PUSH1 0x4 DUP1 CALLDATASIZE SUB DUP2 ADD SWAP1 PUSH2 0x1C2 SWAP2 SWAP1 PUSH2 0xBEE JUMP JUMPDEST PUSH2 0x5B7 JUMP JUMPDEST STOP JUMPDEST PUSH2 0x1D1 PUSH2 0x6A9 JUMP JUMPDEST STOP JUMPDEST PUSH2 0x1DB PUSH2 0x978 JUMP JUMPDEST PUSH1 0x40 MLOAD PUSH2 0x1E8 SWAP2 SWAP1 PUSH2 0xD0D JUMP JUMPDEST PUSH1 0x40 MLOAD DUP1 SWAP2 SUB SWAP1 RETURN JUMPDEST PUSH1 0x60 PUSH1 0x4 DUP1 SLOAD DUP1 PUSH1 0x20 MUL PUSH1 0x20 ADD PUSH1 0x40 MLOAD SWAP1 DUP2 ADD PUSH1 0x40 MSTORE DUP1 SWAP3 SWAP2 SWAP1 DUP2 DUP2 MSTORE PUSH1 0x20 ADD PUSH1 0x0 SWAP1 JUMPDEST DUP3 DUP3 LT ISZERO PUSH2 0x2ED JUMPI DUP4 DUP3 SWAP1 PUSH1 0x0 MSTORE PUSH1 0x20 PUSH1 0x0 KECCAK256 SWAP1 PUSH1 0x3 MUL ADD PUSH1 0x40 MLOAD DUP1 PUSH1 0x60 ADD PUSH1 0x40 MSTORE SWAP1 DUP2 PUSH1 0x0 DUP3 ADD DUP1 SLOAD PUSH2 0x248 SWAP1 PUSH2 0xEF7 JUMP JUMPDEST DUP1 PUSH1 0x1F ADD PUSH1 0x20 DUP1 SWAP2 DIV MUL PUSH1 0x20 ADD PUSH1 0x40 MLOAD SWAP1 DUP2 ADD PUSH1 0x40 MSTORE DUP1 SWAP3 SWAP2 SWAP1 DUP2 DUP2 MSTORE PUSH1 0x20 ADD DUP3 DUP1 SLOAD PUSH2 0x274 SWAP1 PUSH2 0xEF7 JUMP JUMPDEST DUP1 ISZERO PUSH2 0x2C1 JUMPI DUP1 PUSH1 0x1F LT PUSH2 0x296 JUMPI PUSH2 0x100 DUP1 DUP4 SLOAD DIV MUL DUP4 MSTORE SWAP2 PUSH1 0x20 ADD SWAP2 PUSH2 0x2C1 JUMP JUMPDEST DUP3 ADD SWAP2 SWAP1 PUSH1 0x0 MSTORE PUSH1 0x20 PUSH1 0x0 KECCAK256 SWAP1 JUMPDEST DUP2 SLOAD DUP2 MSTORE SWAP1 PUSH1 0x1 ADD SWAP1 PUSH1 0x20 ADD DUP1 DUP4 GT PUSH2 0x2A4 JUMPI DUP3 SWAP1 SUB PUSH1 0x1F AND DUP3 ADD SWAP2 JUMPDEST POP POP POP POP POP DUP2 MSTORE PUSH1 0x20 ADD PUSH1 0x1 DUP3 ADD SLOAD DUP2 MSTORE PUSH1 0x20 ADD PUSH1 0x2 DUP3 ADD SLOAD DUP2 MSTORE POP POP DUP2 MSTORE PUSH1 0x20 ADD SWAP1 PUSH1 0x1 ADD SWAP1 PUSH2 0x215 JUMP JUMPDEST POP POP POP POP SWAP1 POP SWAP1 JUMP JUMPDEST PUSH1 0x3 SLOAD DUP2 JUMP JUMPDEST PUSH1 0x4 DUP2 DUP2 SLOAD DUP2 LT PUSH2 0x30C JUMPI PUSH1 0x0 DUP1 REVERT JUMPDEST SWAP1 PUSH1 0x0 MSTORE PUSH1 0x20 PUSH1 0x0 KECCAK256 SWAP1 PUSH1 0x3 MUL ADD PUSH1 0x0 SWAP2 POP SWAP1 POP DUP1 PUSH1 0x0 ADD DUP1 SLOAD PUSH2 0x32F SWAP1 PUSH2 0xEF7 JUMP JUMPDEST DUP1 PUSH1 0x1F ADD PUSH1 0x20 DUP1 SWAP2 DIV MUL PUSH1 0x20 ADD PUSH1 0x40 MLOAD SWAP1 DUP2 ADD PUSH1 0x40 MSTORE DUP1 SWAP3 SWAP2 SWAP1 DUP2 DUP2 MSTORE PUSH1 0x20 ADD DUP3 DUP1 SLOAD PUSH2 0x35B SWAP1 PUSH2 0xEF7 JUMP JUMPDEST DUP1 ISZERO PUSH2 0x3A8 JUMPI DUP1 PUSH1 0x1F LT PUSH2 0x37D JUMPI PUSH2 0x100 DUP1 DUP4 SLOAD DIV MUL DUP4 MSTORE SWAP2 PUSH1 0x20 ADD SWAP2 PUSH2 0x3A8 JUMP JUMPDEST DUP3 ADD SWAP2 SWAP1 PUSH1 0x0 MSTORE PUSH1 0x20 PUSH1 0x0 KECCAK256 SWAP1 JUMPDEST DUP2 SLOAD DUP2 MSTORE SWAP1 PUSH1 0x1 ADD SWAP1 PUSH1 0x20 ADD DUP1 DUP4 GT PUSH2 0x38B JUMPI DUP3 SWAP1 SUB PUSH1 0x1F AND DUP3 ADD SWAP2 JUMPDEST POP POP POP POP POP SWAP1 DUP1 PUSH1 0x1 ADD SLOAD SWAP1 DUP1 PUSH1 0x2 ADD SLOAD SWAP1 POP DUP4 JUMP JUMPDEST PUSH1 0x5 DUP2 DUP2 SLOAD DUP2 LT PUSH2 0x3CE JUMPI PUSH1 0x0 DUP1 REVERT JUMPDEST SWAP1 PUSH1 0x0 MSTORE PUSH1 0x20 PUSH1 0x0 KECCAK256 SWAP1 PUSH1 0x2 MUL ADD PUSH1 0x0 SWAP2 POP SWAP1 POP DUP1 PUSH1 0x0 ADD PUSH1 0x0 SWAP1 SLOAD SWAP1 PUSH2 0x100 EXP SWAP1 DIV PUSH20 0xFFFFFFFFFFFFFFFFFFFFFFFFFFFFFFFFFFFFFFFF AND SWAP1 DUP1 PUSH1 0x1 ADD SLOAD SWAP1 POP DUP3 JUMP JUMPDEST PUSH1 0x1 PUSH1 0x0 SWAP1 SLOAD SWAP1 PUSH2 0x100 EXP SWAP1 DIV PUSH20 0xFFFFFFFFFFFFFFFFFFFFFFFFFFFFFFFFFFFFFFFF AND DUP2 JUMP JUMPDEST PUSH1 0x0 DUP1 PUSH1 0x0 SWAP1 SLOAD SWAP1 PUSH2 0x100 EXP SWAP1 DIV PUSH20 0xFFFFFFFFFFFFFFFFFFFFFFFFFFFFFFFFFFFFFFFF AND PUSH20 0xFFFFFFFFFFFFFFFFFFFFFFFFFFFFFFFFFFFFFFFF AND PUSH4 0x278A7F33 DUP4 PUSH1 0x40 MLOAD DUP3 PUSH4 0xFFFFFFFF AND PUSH1 0xE0 SHL DUP2 MSTORE PUSH1 0x4 ADD PUSH2 0x494 SWAP2 SWAP1 PUSH2 0xEA6 JUMP JUMPDEST PUSH1 0x20 PUSH1 0x40 MLOAD DUP1 DUP4 SUB DUP2 DUP7 DUP1 EXTCODESIZE ISZERO DUP1 ISZERO PUSH2 0x4AC JUMPI PUSH1 0x0 DUP1 REVERT JUMPDEST POP GAS STATICCALL ISZERO DUP1 ISZERO PUSH2 0x4C0 JUMPI RETURNDATASIZE PUSH1 0x0 DUP1 RETURNDATACOPY RETURNDATASIZE PUSH1 0x0 REVERT JUMPDEST POP POP POP POP PUSH1 0x40 MLOAD RETURNDATASIZE PUSH1 0x1F NOT PUSH1 0x1F DUP3 ADD AND DUP3 ADD DUP1 PUSH1 0x40 MSTORE POP DUP2 ADD SWAP1 PUSH2 0x4E4 SWAP2 SWAP1 PUSH2 0xF62 JUMP JUMPDEST PUSH1 0xFF AND SWAP1 POP SWAP2 SWAP1 POP JUMP JUMPDEST PUSH1 0x60 PUSH1 0x0 DUP1 PUSH1 0x0 SWAP1 SLOAD SWAP1 PUSH2 0x100 EXP SWAP1 DIV PUSH20 0xFFFFFFFFFFFFFFFFFFFFFFFFFFFFFFFFFFFFFFFF AND PUSH20 0xFFFFFFFFFFFFFFFFFFFFFFFFFFFFFFFFFFFFFFFF AND PUSH4 0x48441D5F PUSH1 0x40 MLOAD DUP2 PUSH4 0xFFFFFFFF AND PUSH1 0xE0 SHL DUP2 MSTORE PUSH1 0x4 ADD PUSH1 0x0 PUSH1 0x40 MLOAD DUP1 DUP4 SUB DUP2 DUP7 DUP1 EXTCODESIZE ISZERO DUP1 ISZERO PUSH2 0x559 JUMPI PUSH1 0x0 DUP1 REVERT JUMPDEST POP GAS STATICCALL ISZERO DUP1 ISZERO PUSH2 0x56D JUMPI RETURNDATASIZE PUSH1 0x0 DUP1 RETURNDATACOPY RETURNDATASIZE PUSH1 0x0 REVERT JUMPDEST POP POP POP POP PUSH1 0x40 MLOAD RETURNDATASIZE PUSH1 0x0 DUP3 RETURNDATACOPY RETURNDATASIZE PUSH1 0x1F NOT PUSH1 0x1F DUP3 ADD AND DUP3 ADD DUP1 PUSH1 0x40 MSTORE POP DUP2 ADD SWAP1 PUSH2 0x596 SWAP2 SWAP1 PUSH2 0x10D3 JUMP JUMPDEST SWAP1 POP DUP1 PUSH1 0x0 PUSH1 0x3 DUP2 LT PUSH2 0x5AC JUMPI PUSH2 0x5AB PUSH2 0x111C JUMP JUMPDEST JUMPDEST PUSH1 0x20 MUL ADD MLOAD SWAP2 POP POP SWAP1 JUMP JUMPDEST PUSH1 0x2 PUSH1 0x0 SWAP1 SLOAD SWAP1 PUSH2 0x100 EXP SWAP1 DIV PUSH20 0xFFFFFFFFFFFFFFFFFFFFFFFFFFFFFFFFFFFFFFFF AND PUSH20 0xFFFFFFFFFFFFFFFFFFFFFFFFFFFFFFFFFFFFFFFF AND CALLER PUSH20 0xFFFFFFFFFFFFFFFFFFFFFFFFFFFFFFFFFFFFFFFF AND EQ DUP1 PUSH2 0x660 JUMPI POP PUSH1 0x1 PUSH1 0x0 SWAP1 SLOAD SWAP1 PUSH2 0x100 EXP SWAP1 DIV PUSH20 0xFFFFFFFFFFFFFFFFFFFFFFFFFFFFFFFFFFFFFFFF AND PUSH20 0xFFFFFFFFFFFFFFFFFFFFFFFFFFFFFFFFFFFFFFFF AND CALLER PUSH20 0xFFFFFFFFFFFFFFFFFFFFFFFFFFFFFFFFFFFFFFFF AND EQ JUMPDEST PUSH2 0x69F JUMPI PUSH1 0x40 MLOAD PUSH32 0x8C379A000000000000000000000000000000000000000000000000000000000 DUP2 MSTORE PUSH1 0x4 ADD PUSH2 0x696 SWAP1 PUSH2 0x1197 JUMP JUMPDEST PUSH1 0x40 MLOAD DUP1 SWAP2 SUB SWAP1 REVERT JUMPDEST DUP1 PUSH1 0x3 DUP2 SWAP1 SSTORE POP POP JUMP JUMPDEST PUSH1 0x0 DUP1 JUMPDEST PUSH1 0x0 ISZERO ISZERO DUP3 ISZERO ISZERO EQ DUP1 ISZERO PUSH2 0x6C6 JUMPI POP PUSH1 0x0 PUSH1 0x5 DUP1 SLOAD SWAP1 POP GT JUMPDEST DUP1 ISZERO PUSH2 0x6D6 JUMPI POP PUSH1 0x5 DUP1 SLOAD SWAP1 POP DUP2 LT JUMPDEST ISZERO PUSH2 0x811 JUMPI CALLER PUSH20 0xFFFFFFFFFFFFFFFFFFFFFFFFFFFFFFFFFFFFFFFF AND PUSH1 0x5 DUP3 DUP2 SLOAD DUP2 LT PUSH2 0x706 JUMPI PUSH2 0x705 PUSH2 0x111C JUMP JUMPDEST JUMPDEST SWAP1 PUSH1 0x0 MSTORE PUSH1 0x20 PUSH1 0x0 KECCAK256 SWAP1 PUSH1 0x2 MUL ADD PUSH1 0x0 ADD PUSH1 0x0 SWAP1 SLOAD SWAP1 PUSH2 0x100 EXP SWAP1 DIV PUSH20 0xFFFFFFFFFFFFFFFFFFFFFFFFFFFFFFFFFFFFFFFF AND PUSH20 0xFFFFFFFFFFFFFFFFFFFFFFFFFFFFFFFFFFFFFFFF AND EQ ISZERO PUSH2 0x7FE JUMPI PUSH1 0x1 SWAP2 POP PUSH1 0x5 DUP2 DUP2 SLOAD DUP2 LT PUSH2 0x76C JUMPI PUSH2 0x76B PUSH2 0x111C JUMP JUMPDEST JUMPDEST SWAP1 PUSH1 0x0 MSTORE PUSH1 0x20 PUSH1 0x0 KECCAK256 SWAP1 PUSH1 0x2 MUL ADD PUSH1 0x1 ADD PUSH1 0x0 DUP2 SLOAD DUP1 SWAP3 SWAP2 SWAP1 PUSH2 0x78E SWAP1 PUSH2 0x11E6 JUMP JUMPDEST SWAP2 SWAP1 POP SSTORE POP PUSH1 0x3 SLOAD PUSH1 0x5 DUP3 DUP2 SLOAD DUP2 LT PUSH2 0x7AA JUMPI PUSH2 0x7A9 PUSH2 0x111C JUMP JUMPDEST JUMPDEST SWAP1 PUSH1 0x0 MSTORE PUSH1 0x20 PUSH1 0x0 KECCAK256 SWAP1 PUSH1 0x2 MUL ADD PUSH1 0x1 ADD SLOAD GT ISZERO PUSH2 0x7FD JUMPI PUSH1 0x40 MLOAD PUSH32 0x8C379A000000000000000000000000000000000000000000000000000000000 DUP2 MSTORE PUSH1 0x4 ADD PUSH2 0x7F4 SWAP1 PUSH2 0x127B JUMP JUMPDEST PUSH1 0x40 MLOAD DUP1 SWAP2 SUB SWAP1 REVERT JUMPDEST JUMPDEST DUP1 DUP1 PUSH2 0x809 SWAP1 PUSH2 0x11E6 JUMP JUMPDEST SWAP2 POP POP PUSH2 0x6AD JUMP JUMPDEST PUSH1 0x0 DUP1 SLOAD SWAP1 PUSH2 0x100 EXP SWAP1 DIV PUSH20 0xFFFFFFFFFFFFFFFFFFFFFFFFFFFFFFFFFFFFFFFF AND PUSH20 0xFFFFFFFFFFFFFFFFFFFFFFFFFFFFFFFFFFFFFFFF AND PUSH4 0x40D097C3 PUSH1 0x1 PUSH1 0x0 SWAP1 SLOAD SWAP1 PUSH2 0x100 EXP SWAP1 DIV PUSH20 0xFFFFFFFFFFFFFFFFFFFFFFFFFFFFFFFFFFFFFFFF AND PUSH1 0x40 MLOAD DUP3 PUSH4 0xFFFFFFFF AND PUSH1 0xE0 SHL DUP2 MSTORE PUSH1 0x4 ADD PUSH2 0x88C SWAP2 SWAP1 PUSH2 0xD0D JUMP JUMPDEST PUSH1 0x0 PUSH1 0x40 MLOAD DUP1 DUP4 SUB DUP2 PUSH1 0x0 DUP8 DUP1 EXTCODESIZE ISZERO DUP1 ISZERO PUSH2 0x8A6 JUMPI PUSH1 0x0 DUP1 REVERT JUMPDEST POP GAS CALL ISZERO DUP1 ISZERO PUSH2 0x8BA JUMPI RETURNDATASIZE PUSH1 0x0 DUP1 RETURNDATACOPY RETURNDATASIZE PUSH1 0x0 REVERT JUMPDEST POP POP POP POP DUP2 PUSH2 0x974 JUMPI PUSH1 0x0 PUSH1 0x40 MLOAD DUP1 PUSH1 0x40 ADD PUSH1 0x40 MSTORE DUP1 CALLER PUSH20 0xFFFFFFFFFFFFFFFFFFFFFFFFFFFFFFFFFFFFFFFF AND DUP2 MSTORE PUSH1 0x20 ADD PUSH1 0x1 DUP2 MSTORE POP SWAP1 POP PUSH1 0x5 DUP2 SWAP1 DUP1 PUSH1 0x1 DUP2 SLOAD ADD DUP1 DUP3 SSTORE DUP1 SWAP2 POP POP PUSH1 0x1 SWAP1 SUB SWAP1 PUSH1 0x0 MSTORE PUSH1 0x20 PUSH1 0x0 KECCAK256 SWAP1 PUSH1 0x2 MUL ADD PUSH1 0x0 SWAP1 SWAP2 SWAP1 SWAP2 SWAP1 SWAP2 POP PUSH1 0x0 DUP3 ADD MLOAD DUP2 PUSH1 0x0 ADD PUSH1 0x0 PUSH2 0x100 EXP DUP2 SLOAD DUP2 PUSH20 0xFFFFFFFFFFFFFFFFFFFFFFFFFFFFFFFFFFFFFFFF MUL NOT AND SWAP1 DUP4 PUSH20 0xFFFFFFFFFFFFFFFFFFFFFFFFFFFFFFFFFFFFFFFF AND MUL OR SWAP1 SSTORE POP PUSH1 0x20 DUP3 ADD MLOAD DUP2 PUSH1 0x1 ADD SSTORE POP POP POP JUMPDEST POP POP JUMP JUMPDEST PUSH1 0x2 PUSH1 0x0 SWAP1 SLOAD SWAP1 PUSH2 0x100 EXP SWAP1 DIV PUSH20 0xFFFFFFFFFFFFFFFFFFFFFFFFFFFFFFFFFFFFFFFF AND DUP2 JUMP JUMPDEST PUSH1 0x0 DUP2 MLOAD SWAP1 POP SWAP2 SWAP1 POP JUMP JUMPDEST PUSH1 0x0 DUP3 DUP3 MSTORE PUSH1 0x20 DUP3 ADD SWAP1 POP SWAP3 SWAP2 POP POP JUMP JUMPDEST PUSH1 0x0 DUP2 SWAP1 POP PUSH1 0x20 DUP3 ADD SWAP1 POP SWAP2 SWAP1 POP JUMP JUMPDEST PUSH1 0x0 DUP2 MLOAD SWAP1 POP SWAP2 SWAP1 POP JUMP JUMPDEST PUSH1 0x0 DUP3 DUP3 MSTORE PUSH1 0x20 DUP3 ADD SWAP1 POP SWAP3 SWAP2 POP POP JUMP JUMPDEST PUSH1 0x0 JUMPDEST DUP4 DUP2 LT ISZERO PUSH2 0xA04 JUMPI DUP1 DUP3 ADD MLOAD DUP2 DUP5 ADD MSTORE PUSH1 0x20 DUP2 ADD SWAP1 POP PUSH2 0x9E9 JUMP JUMPDEST DUP4 DUP2 GT ISZERO PUSH2 0xA13 JUMPI PUSH1 0x0 DUP5 DUP5 ADD MSTORE JUMPDEST POP POP POP POP JUMP JUMPDEST PUSH1 0x0 PUSH1 0x1F NOT PUSH1 0x1F DUP4 ADD AND SWAP1 POP SWAP2 SWAP1 POP JUMP JUMPDEST PUSH1 0x0 PUSH2 0xA35 DUP3 PUSH2 0x9CA JUMP JUMPDEST PUSH2 0xA3F DUP2 DUP6 PUSH2 0x9D5 JUMP JUMPDEST SWAP4 POP PUSH2 0xA4F DUP2 DUP6 PUSH1 0x20 DUP7 ADD PUSH2 0x9E6 JUMP JUMPDEST PUSH2 0xA58 DUP2 PUSH2 0xA19 JUMP JUMPDEST DUP5 ADD SWAP2 POP POP SWAP3 SWAP2 POP POP JUMP JUMPDEST PUSH1 0x0 DUP2 SWAP1 POP SWAP2 SWAP1 POP JUMP JUMPDEST PUSH2 0xA76 DUP2 PUSH2 0xA63 JUMP JUMPDEST DUP3 MSTORE POP POP JUMP JUMPDEST PUSH1 0x0 PUSH1 0x60 DUP4 ADD PUSH1 0x0 DUP4 ADD MLOAD DUP5 DUP3 SUB PUSH1 0x0 DUP7 ADD MSTORE PUSH2 0xA99 DUP3 DUP3 PUSH2 0xA2A JUMP JUMPDEST SWAP2 POP POP PUSH1 0x20 DUP4 ADD MLOAD PUSH2 0xAAE PUSH1 0x20 DUP7 ADD DUP3 PUSH2 0xA6D JUMP JUMPDEST POP PUSH1 0x40 DUP4 ADD MLOAD PUSH2 0xAC1 PUSH1 0x40 DUP7 ADD DUP3 PUSH2 0xA6D JUMP JUMPDEST POP DUP1 SWAP2 POP POP SWAP3 SWAP2 POP POP JUMP JUMPDEST PUSH1 0x0 PUSH2 0xAD8 DUP4 DUP4 PUSH2 0xA7C JUMP JUMPDEST SWAP1 POP SWAP3 SWAP2 POP POP JUMP JUMPDEST PUSH1 0x0 PUSH1 0x20 DUP3 ADD SWAP1 POP SWAP2 SWAP1 POP JUMP JUMPDEST PUSH1 0x0 PUSH2 0xAF8 DUP3 PUSH2 0x99E JUMP JUMPDEST PUSH2 0xB02 DUP2 DUP6 PUSH2 0x9A9 JUMP JUMPDEST SWAP4 POP DUP4 PUSH1 0x20 DUP3 MUL DUP6 ADD PUSH2 0xB14 DUP6 PUSH2 0x9BA JUMP JUMPDEST DUP1 PUSH1 0x0 JUMPDEST DUP6 DUP2 LT ISZERO PUSH2 0xB50 JUMPI DUP5 DUP5 SUB DUP10 MSTORE DUP2 MLOAD PUSH2 0xB31 DUP6 DUP3 PUSH2 0xACC JUMP JUMPDEST SWAP5 POP PUSH2 0xB3C DUP4 PUSH2 0xAE0 JUMP JUMPDEST SWAP3 POP PUSH1 0x20 DUP11 ADD SWAP10 POP POP PUSH1 0x1 DUP2 ADD SWAP1 POP PUSH2 0xB18 JUMP JUMPDEST POP DUP3 SWAP8 POP DUP8 SWAP6 POP POP POP POP POP POP SWAP3 SWAP2 POP POP JUMP JUMPDEST PUSH1 0x0 PUSH1 0x20 DUP3 ADD SWAP1 POP DUP2 DUP2 SUB PUSH1 0x0 DUP4 ADD MSTORE PUSH2 0xB7C DUP2 DUP5 PUSH2 0xAED JUMP JUMPDEST SWAP1 POP SWAP3 SWAP2 POP POP JUMP JUMPDEST PUSH2 0xB8D DUP2 PUSH2 0xA63 JUMP JUMPDEST DUP3 MSTORE POP POP JUMP JUMPDEST PUSH1 0x0 PUSH1 0x20 DUP3 ADD SWAP1 POP PUSH2 0xBA8 PUSH1 0x0 DUP4 ADD DUP5 PUSH2 0xB84 JUMP JUMPDEST SWAP3 SWAP2 POP POP JUMP JUMPDEST PUSH1 0x0 PUSH1 0x40 MLOAD SWAP1 POP SWAP1 JUMP JUMPDEST PUSH1 0x0 DUP1 REVERT JUMPDEST PUSH1 0x0 DUP1 REVERT JUMPDEST PUSH2 0xBCB DUP2 PUSH2 0xA63 JUMP JUMPDEST DUP2 EQ PUSH2 0xBD6 JUMPI PUSH1 0x0 DUP1 REVERT JUMPDEST POP JUMP JUMPDEST PUSH1 0x0 DUP2 CALLDATALOAD SWAP1 POP PUSH2 0xBE8 DUP2 PUSH2 0xBC2 JUMP JUMPDEST SWAP3 SWAP2 POP POP JUMP JUMPDEST PUSH1 0x0 PUSH1 0x20 DUP3 DUP5 SUB SLT ISZERO PUSH2 0xC04 JUMPI PUSH2 0xC03 PUSH2 0xBB8 JUMP JUMPDEST JUMPDEST PUSH1 0x0 PUSH2 0xC12 DUP5 DUP3 DUP6 ADD PUSH2 0xBD9 JUMP JUMPDEST SWAP2 POP POP SWAP3 SWAP2 POP POP JUMP JUMPDEST PUSH1 0x0 DUP3 DUP3 MSTORE PUSH1 0x20 DUP3 ADD SWAP1 POP SWAP3 SWAP2 POP POP JUMP JUMPDEST PUSH1 0x0 PUSH2 0xC37 DUP3 PUSH2 0x9CA JUMP JUMPDEST PUSH2 0xC41 DUP2 DUP6 PUSH2 0xC1B JUMP JUMPDEST SWAP4 POP PUSH2 0xC51 DUP2 DUP6 PUSH1 0x20 DUP7 ADD PUSH2 0x9E6 JUMP JUMPDEST PUSH2 0xC5A DUP2 PUSH2 0xA19 JUMP JUMPDEST DUP5 ADD SWAP2 POP POP SWAP3 SWAP2 POP POP JUMP JUMPDEST PUSH1 0x0 PUSH1 0x60 DUP3 ADD SWAP1 POP DUP2 DUP2 SUB PUSH1 0x0 DUP4 ADD MSTORE PUSH2 0xC7F DUP2 DUP7 PUSH2 0xC2C JUMP JUMPDEST SWAP1 POP PUSH2 0xC8E PUSH1 0x20 DUP4 ADD DUP6 PUSH2 0xB84 JUMP JUMPDEST PUSH2 0xC9B PUSH1 0x40 DUP4 ADD DUP5 PUSH2 0xB84 JUMP JUMPDEST SWAP5 SWAP4 POP POP POP POP JUMP JUMPDEST PUSH1 0x0 PUSH20 0xFFFFFFFFFFFFFFFFFFFFFFFFFFFFFFFFFFFFFFFF DUP3 AND SWAP1 POP SWAP2 SWAP1 POP JUMP JUMPDEST PUSH1 0x0 PUSH2 0xCCE DUP3 PUSH2 0xCA3 JUMP JUMPDEST SWAP1 POP SWAP2 SWAP1 POP JUMP JUMPDEST PUSH2 0xCDE DUP2 PUSH2 0xCC3 JUMP JUMPDEST DUP3 MSTORE POP POP JUMP JUMPDEST PUSH1 0x0 PUSH1 0x40 DUP3 ADD SWAP1 POP PUSH2 0xCF9 PUSH1 0x0 DUP4 ADD DUP6 PUSH2 0xCD5 JUMP JUMPDEST PUSH2 0xD06 PUSH1 0x20 DUP4 ADD DUP5 PUSH2 0xB84 JUMP JUMPDEST SWAP4 SWAP3 POP POP POP JUMP JUMPDEST PUSH1 0x0 PUSH1 0x20 DUP3 ADD SWAP1 POP PUSH2 0xD22 PUSH1 0x0 DUP4 ADD DUP5 PUSH2 0xCD5 JUMP JUMPDEST SWAP3 SWAP2 POP POP JUMP JUMPDEST PUSH1 0x0 DUP1 REVERT JUMPDEST PUSH1 0x0 DUP1 REVERT JUMPDEST PUSH32 0x4E487B7100000000000000000000000000000000000000000000000000000000 PUSH1 0x0 MSTORE PUSH1 0x41 PUSH1 0x4 MSTORE PUSH1 0x24 PUSH1 0x0 REVERT JUMPDEST PUSH2 0xD6A DUP3 PUSH2 0xA19 JUMP JUMPDEST DUP2 ADD DUP2 DUP2 LT PUSH8 0xFFFFFFFFFFFFFFFF DUP3 GT OR ISZERO PUSH2 0xD89 JUMPI PUSH2 0xD88 PUSH2 0xD32 JUMP JUMPDEST JUMPDEST DUP1 PUSH1 0x40 MSTORE POP POP POP JUMP JUMPDEST PUSH1 0x0 PUSH2 0xD9C PUSH2 0xBAE JUMP JUMPDEST SWAP1 POP PUSH2 0xDA8 DUP3 DUP3 PUSH2 0xD61 JUMP JUMPDEST SWAP2 SWAP1 POP JUMP JUMPDEST PUSH1 0x0 PUSH8 0xFFFFFFFFFFFFFFFF DUP3 GT ISZERO PUSH2 0xDC8 JUMPI PUSH2 0xDC7 PUSH2 0xD32 JUMP JUMPDEST JUMPDEST PUSH2 0xDD1 DUP3 PUSH2 0xA19 JUMP JUMPDEST SWAP1 POP PUSH1 0x20 DUP2 ADD SWAP1 POP SWAP2 SWAP1 POP JUMP JUMPDEST DUP3 DUP2 DUP4 CALLDATACOPY PUSH1 0x0 DUP4 DUP4 ADD MSTORE POP POP POP JUMP JUMPDEST PUSH1 0x0 PUSH2 0xE00 PUSH2 0xDFB DUP5 PUSH2 0xDAD JUMP JUMPDEST PUSH2 0xD92 JUMP JUMPDEST SWAP1 POP DUP3 DUP2 MSTORE PUSH1 0x20 DUP2 ADD DUP5 DUP5 DUP5 ADD GT ISZERO PUSH2 0xE1C JUMPI PUSH2 0xE1B PUSH2 0xD2D JUMP JUMPDEST JUMPDEST PUSH2 0xE27 DUP5 DUP3 DUP6 PUSH2 0xDDE JUMP JUMPDEST POP SWAP4 SWAP3 POP POP POP JUMP JUMPDEST PUSH1 0x0 DUP3 PUSH1 0x1F DUP4 ADD SLT PUSH2 0xE44 JUMPI PUSH2 0xE43 PUSH2 0xD28 JUMP JUMPDEST JUMPDEST DUP2 CALLDATALOAD PUSH2 0xE54 DUP5 DUP3 PUSH1 0x20 DUP7 ADD PUSH2 0xDED JUMP JUMPDEST SWAP2 POP POP SWAP3 SWAP2 POP POP JUMP JUMPDEST PUSH1 0x0 PUSH1 0x20 DUP3 DUP5 SUB SLT ISZERO PUSH2 0xE73 JUMPI PUSH2 0xE72 PUSH2 0xBB8 JUMP JUMPDEST JUMPDEST PUSH1 0x0 DUP3 ADD CALLDATALOAD PUSH8 0xFFFFFFFFFFFFFFFF DUP2 GT ISZERO PUSH2 0xE91 JUMPI PUSH2 0xE90 PUSH2 0xBBD JUMP JUMPDEST JUMPDEST PUSH2 0xE9D DUP5 DUP3 DUP6 ADD PUSH2 0xE2F JUMP JUMPDEST SWAP2 POP POP SWAP3 SWAP2 POP POP JUMP JUMPDEST PUSH1 0x0 PUSH1 0x20 DUP3 ADD SWAP1 POP DUP2 DUP2 SUB PUSH1 0x0 DUP4 ADD MSTORE PUSH2 0xEC0 DUP2 DUP5 PUSH2 0xC2C JUMP JUMPDEST SWAP1 POP SWAP3 SWAP2 POP POP JUMP JUMPDEST PUSH32 0x4E487B7100000000000000000000000000000000000000000000000000000000 PUSH1 0x0 MSTORE PUSH1 0x22 PUSH1 0x4 MSTORE PUSH1 0x24 PUSH1 0x0 REVERT JUMPDEST PUSH1 0x0 PUSH1 0x2 DUP3 DIV SWAP1 POP PUSH1 0x1 DUP3 AND DUP1 PUSH2 0xF0F JUMPI PUSH1 0x7F DUP3 AND SWAP2 POP JUMPDEST PUSH1 0x20 DUP3 LT DUP2 EQ ISZERO PUSH2 0xF23 JUMPI PUSH2 0xF22 PUSH2 0xEC8 JUMP JUMPDEST JUMPDEST POP SWAP2 SWAP1 POP JUMP JUMPDEST PUSH1 0x0 PUSH1 0xFF DUP3 AND SWAP1 POP SWAP2 SWAP1 POP JUMP JUMPDEST PUSH2 0xF3F DUP2 PUSH2 0xF29 JUMP JUMPDEST DUP2 EQ PUSH2 0xF4A JUMPI PUSH1 0x0 DUP1 REVERT JUMPDEST POP JUMP JUMPDEST PUSH1 0x0 DUP2 MLOAD SWAP1 POP PUSH2 0xF5C DUP2 PUSH2 0xF36 JUMP JUMPDEST SWAP3 SWAP2 POP POP JUMP JUMPDEST PUSH1 0x0 PUSH1 0x20 DUP3 DUP5 SUB SLT ISZERO PUSH2 0xF78 JUMPI PUSH2 0xF77 PUSH2 0xBB8 JUMP JUMPDEST JUMPDEST PUSH1 0x0 PUSH2 0xF86 DUP5 DUP3 DUP6 ADD PUSH2 0xF4D JUMP JUMPDEST SWAP2 POP POP SWAP3 SWAP2 POP POP JUMP JUMPDEST PUSH1 0x0 PUSH8 0xFFFFFFFFFFFFFFFF DUP3 GT ISZERO PUSH2 0xFAA JUMPI PUSH2 0xFA9 PUSH2 0xD32 JUMP JUMPDEST JUMPDEST PUSH1 0x20 DUP3 MUL SWAP1 POP SWAP2 SWAP1 POP JUMP JUMPDEST PUSH1 0x0 DUP1 REVERT JUMPDEST PUSH1 0x0 PUSH2 0xFCD PUSH2 0xFC8 DUP5 PUSH2 0xDAD JUMP JUMPDEST PUSH2 0xD92 JUMP JUMPDEST SWAP1 POP DUP3 DUP2 MSTORE PUSH1 0x20 DUP2 ADD DUP5 DUP5 DUP5 ADD GT ISZERO PUSH2 0xFE9 JUMPI PUSH2 0xFE8 PUSH2 0xD2D JUMP JUMPDEST JUMPDEST PUSH2 0xFF4 DUP5 DUP3 DUP6 PUSH2 0x9E6 JUMP JUMPDEST POP SWAP4 SWAP3 POP POP POP JUMP JUMPDEST PUSH1 0x0 DUP3 PUSH1 0x1F DUP4 ADD SLT PUSH2 0x1011 JUMPI PUSH2 0x1010 PUSH2 0xD28 JUMP JUMPDEST JUMPDEST DUP2 MLOAD PUSH2 0x1021 DUP5 DUP3 PUSH1 0x20 DUP7 ADD PUSH2 0xFBA JUMP JUMPDEST SWAP2 POP POP SWAP3 SWAP2 POP POP JUMP JUMPDEST PUSH1 0x0 PUSH2 0x103D PUSH2 0x1038 DUP5 PUSH2 0xF8F JUMP JUMPDEST PUSH2 0xD92 JUMP JUMPDEST SWAP1 POP DUP1 PUSH1 0x20 DUP5 MUL DUP4 ADD DUP6 DUP2 GT ISZERO PUSH2 0x1057 JUMPI PUSH2 0x1056 PUSH2 0xFB5 JUMP JUMPDEST JUMPDEST DUP4 JUMPDEST DUP2 DUP2 LT ISZERO PUSH2 0x109E JUMPI DUP1 MLOAD PUSH8 0xFFFFFFFFFFFFFFFF DUP2 GT ISZERO PUSH2 0x107C JUMPI PUSH2 0x107B PUSH2 0xD28 JUMP JUMPDEST JUMPDEST DUP1 DUP7 ADD PUSH2 0x1089 DUP10 DUP3 PUSH2 0xFFC JUMP JUMPDEST DUP6 MSTORE PUSH1 0x20 DUP6 ADD SWAP5 POP POP POP PUSH1 0x20 DUP2 ADD SWAP1 POP PUSH2 0x1059 JUMP JUMPDEST POP POP POP SWAP4 SWAP3 POP POP POP JUMP JUMPDEST PUSH1 0x0 DUP3 PUSH1 0x1F DUP4 ADD SLT PUSH2 0x10BD JUMPI PUSH2 0x10BC PUSH2 0xD28 JUMP JUMPDEST JUMPDEST PUSH1 0x3 PUSH2 0x10CA DUP5 DUP3 DUP6 PUSH2 0x102A JUMP JUMPDEST SWAP2 POP POP SWAP3 SWAP2 POP POP JUMP JUMPDEST PUSH1 0x0 PUSH1 0x20 DUP3 DUP5 SUB SLT ISZERO PUSH2 0x10E9 JUMPI PUSH2 0x10E8 PUSH2 0xBB8 JUMP JUMPDEST JUMPDEST PUSH1 0x0 DUP3 ADD MLOAD PUSH8 0xFFFFFFFFFFFFFFFF DUP2 GT ISZERO PUSH2 0x1107 JUMPI PUSH2 0x1106 PUSH2 0xBBD JUMP JUMPDEST JUMPDEST PUSH2 0x1113 DUP5 DUP3 DUP6 ADD PUSH2 0x10A8 JUMP JUMPDEST SWAP2 POP POP SWAP3 SWAP2 POP POP JUMP JUMPDEST PUSH32 0x4E487B7100000000000000000000000000000000000000000000000000000000 PUSH1 0x0 MSTORE PUSH1 0x32 PUSH1 0x4 MSTORE PUSH1 0x24 PUSH1 0x0 REVERT JUMPDEST PUSH32 0x4E6F7420417574686F72697A65642C2041646D696E204F6E6C79000000000000 PUSH1 0x0 DUP3 ADD MSTORE POP JUMP JUMPDEST PUSH1 0x0 PUSH2 0x1181 PUSH1 0x1A DUP4 PUSH2 0xC1B JUMP JUMPDEST SWAP2 POP PUSH2 0x118C DUP3 PUSH2 0x114B JUMP JUMPDEST PUSH1 0x20 DUP3 ADD SWAP1 POP SWAP2 SWAP1 POP JUMP JUMPDEST PUSH1 0x0 PUSH1 0x20 DUP3 ADD SWAP1 POP DUP2 DUP2 SUB PUSH1 0x0 DUP4 ADD MSTORE PUSH2 0x11B0 DUP2 PUSH2 0x1174 JUMP JUMPDEST SWAP1 POP SWAP2 SWAP1 POP JUMP JUMPDEST PUSH32 0x4E487B7100000000000000000000000000000000000000000000000000000000 PUSH1 0x0 MSTORE PUSH1 0x11 PUSH1 0x4 MSTORE PUSH1 0x24 PUSH1 0x0 REVERT JUMPDEST PUSH1 0x0 PUSH2 0x11F1 DUP3 PUSH2 0xA63 JUMP JUMPDEST SWAP2 POP PUSH32 0xFFFFFFFFFFFFFFFFFFFFFFFFFFFFFFFFFFFFFFFFFFFFFFFFFFFFFFFFFFFFFFFF DUP3 EQ ISZERO PUSH2 0x1224 JUMPI PUSH2 0x1223 PUSH2 0x11B7 JUMP JUMPDEST JUMPDEST PUSH1 0x1 DUP3 ADD SWAP1 POP SWAP2 SWAP1 POP JUMP JUMPDEST PUSH32 0x4F7574206F66204C696D69740000000000000000000000000000000000000000 PUSH1 0x0 DUP3 ADD MSTORE POP JUMP JUMPDEST PUSH1 0x0 PUSH2 0x1265 PUSH1 0xC DUP4 PUSH2 0xC1B JUMP JUMPDEST SWAP2 POP PUSH2 0x1270 DUP3 PUSH2 0x122F JUMP JUMPDEST PUSH1 0x20 DUP3 ADD SWAP1 POP SWAP2 SWAP1 POP JUMP JUMPDEST PUSH1 0x0 PUSH1 0x20 DUP3 ADD SWAP1 POP DUP2 DUP2 SUB PUSH1 0x0 DUP4 ADD MSTORE PUSH2 0x1294 DUP2 PUSH2 0x1258 JUMP JUMPDEST SWAP1 POP SWAP2 SWAP1 POP JUMP INVALID LOG2 PUSH5 0x6970667358 0x22 SLT KECCAK256 PUSH14 0x57E23A4E0DC00EE428BF52085252 0xE1 0x23 0xE0 0x4F 0xDD 0xCF PUSH6 0x2239FB1B580F PUSH23 0x5B3EE64736F6C63430008080033000000000000000000 "
				},
				"gasEstimates": {
					"creation": {
						"codeDepositCost": "963400",
						"executionCost": "infinite",
						"totalCost": "infinite"
					},
					"external": {
						"adminAddress()": "2602",
						"changeGatchaLimit(uint256)": "26909",
						"createGatcha()": "infinite",
						"getUsers()": "infinite",
						"limitGatcha()": "2452",
						"ownerAddress()": "2603",
						"rarityList(uint256)": "infinite",
						"rarityListFunc()": "infinite",
						"rarityRateFunc(string)": "infinite",
						"registeredUsers(uint256)": "infinite"
					}
				},
				"methodIdentifiers": {
					"adminAddress()": "fc6f9468",
					"changeGatchaLimit(uint256)": "c15d3ead",
					"createGatcha()": "e917ec96",
					"getUsers()": "00ce8e3e",
					"limitGatcha()": "06cd309b",
					"ownerAddress()": "8f84aa09",
					"rarityList(uint256)": "6fd3d9e2",
					"rarityListFunc()": "bb4a376b",
					"rarityRateFunc(string)": "a7beb5d0",
					"registeredUsers(uint256)": "7259e0f8"
				}
			},
			"storageLayout": {
				"storage": [
					{
						"astId": 8,
						"contract": "contracts/TestInterview.sol:TestInterview",
						"label": "objINFT",
						"offset": 0,
						"slot": "0",
						"type": "t_contract(INFT)291"
					},
					{
						"astId": 11,
						"contract": "contracts/TestInterview.sol:TestInterview",
						"label": "ownerAddress",
						"offset": 0,
						"slot": "1",
						"type": "t_address"
					},
					{
						"astId": 13,
						"contract": "contracts/TestInterview.sol:TestInterview",
						"label": "adminAddress",
						"offset": 0,
						"slot": "2",
						"type": "t_address"
					},
					{
						"astId": 16,
						"contract": "contracts/TestInterview.sol:TestInterview",
						"label": "limitGatcha",
						"offset": 0,
						"slot": "3",
						"type": "t_uint256"
					},
					{
						"astId": 27,
						"contract": "contracts/TestInterview.sol:TestInterview",
						"label": "rarityList",
						"offset": 0,
						"slot": "4",
						"type": "t_array(t_struct(Rarity)23_storage)dyn_storage"
					},
					{
						"astId": 36,
						"contract": "contracts/TestInterview.sol:TestInterview",
						"label": "registeredUsers",
						"offset": 0,
						"slot": "5",
						"type": "t_array(t_struct(RegisteredUser)32_storage)dyn_storage"
					}
				],
				"types": {
					"t_address": {
						"encoding": "inplace",
						"label": "address",
						"numberOfBytes": "20"
					},
					"t_array(t_struct(Rarity)23_storage)dyn_storage": {
						"base": "t_struct(Rarity)23_storage",
						"encoding": "dynamic_array",
						"label": "struct TestInterview.Rarity[]",
						"numberOfBytes": "32"
					},
					"t_array(t_struct(RegisteredUser)32_storage)dyn_storage": {
						"base": "t_struct(RegisteredUser)32_storage",
						"encoding": "dynamic_array",
						"label": "struct TestInterview.RegisteredUser[]",
						"numberOfBytes": "32"
					},
					"t_contract(INFT)291": {
						"encoding": "inplace",
						"label": "contract INFT",
						"numberOfBytes": "20"
					},
					"t_string_storage": {
						"encoding": "bytes",
						"label": "string",
						"numberOfBytes": "32"
					},
					"t_struct(Rarity)23_storage": {
						"encoding": "inplace",
						"label": "struct TestInterview.Rarity",
						"members": [
							{
								"astId": 18,
								"contract": "contracts/TestInterview.sol:TestInterview",
								"label": "name",
								"offset": 0,
								"slot": "0",
								"type": "t_string_storage"
							},
							{
								"astId": 20,
								"contract": "contracts/TestInterview.sol:TestInterview",
								"label": "min",
								"offset": 0,
								"slot": "1",
								"type": "t_uint256"
							},
							{
								"astId": 22,
								"contract": "contracts/TestInterview.sol:TestInterview",
								"label": "max",
								"offset": 0,
								"slot": "2",
								"type": "t_uint256"
							}
						],
						"numberOfBytes": "96"
					},
					"t_struct(RegisteredUser)32_storage": {
						"encoding": "inplace",
						"label": "struct TestInterview.RegisteredUser",
						"members": [
							{
								"astId": 29,
								"contract": "contracts/TestInterview.sol:TestInterview",
								"label": "userAddress",
								"offset": 0,
								"slot": "0",
								"type": "t_address"
							},
							{
								"astId": 31,
								"contract": "contracts/TestInterview.sol:TestInterview",
								"label": "counterVisited",
								"offset": 0,
								"slot": "1",
								"type": "t_uint256"
							}
						],
						"numberOfBytes": "64"
					},
					"t_uint256": {
						"encoding": "inplace",
						"label": "uint256",
						"numberOfBytes": "32"
					}
				}
			},
			"userdoc": {
				"kind": "user",
				"methods": {},
				"version": 1
			}
		}
	}
}