{
	"contracts/TestInterview.sol": {
		"TestInterview": {
			"abi": [
				{
					"inputs": [],
					"stateMutability": "nonpayable",
					"type": "constructor"
				},
				{
					"inputs": [],
					"name": "adminAddress",
					"outputs": [
						{
							"internalType": "address",
							"name": "",
							"type": "address"
						}
					],
					"stateMutability": "view",
					"type": "function"
				},
				{
					"inputs": [
						{
							"internalType": "uint256",
							"name": "_newLimit",
							"type": "uint256"
						}
					],
					"name": "changeGatchaLimit",
					"outputs": [],
					"stateMutability": "nonpayable",
					"type": "function"
				},
				{
					"inputs": [],
					"name": "createGatcha",
					"outputs": [],
					"stateMutability": "nonpayable",
					"type": "function"
				},
				{
					"inputs": [
						{
							"internalType": "uint256",
							"name": "_indexUser",
							"type": "uint256"
						}
					],
					"name": "getUsers",
					"outputs": [
						{
							"internalType": "uint256",
							"name": "",
							"type": "uint256"
						}
					],
					"stateMutability": "view",
					"type": "function"
				},
				{
					"inputs": [],
					"name": "limitGatcha",
					"outputs": [
						{
							"internalType": "uint256",
							"name": "",
							"type": "uint256"
						}
					],
					"stateMutability": "view",
					"type": "function"
				},
				{
					"inputs": [],
					"name": "ownerAddress",
					"outputs": [
						{
							"internalType": "address",
							"name": "",
							"type": "address"
						}
					],
					"stateMutability": "view",
					"type": "function"
				},
				{
					"inputs": [
						{
							"internalType": "uint256",
							"name": "",
							"type": "uint256"
						}
					],
					"name": "rarityList",
					"outputs": [
						{
							"internalType": "string",
							"name": "",
							"type": "string"
						}
					],
					"stateMutability": "view",
					"type": "function"
				},
				{
					"inputs": [],
					"name": "rarityListFunc",
					"outputs": [
						{
							"internalType": "string",
							"name": "",
							"type": "string"
						}
					],
					"stateMutability": "view",
					"type": "function"
				},
				{
					"inputs": [
						{
							"internalType": "string",
							"name": "_nameRarity",
							"type": "string"
						}
					],
					"name": "rarityRateFunc",
					"outputs": [
						{
							"internalType": "uint256",
							"name": "",
							"type": "uint256"
						}
					],
					"stateMutability": "view",
					"type": "function"
				},
				{
					"inputs": [
						{
							"internalType": "uint256",
							"name": "",
							"type": "uint256"
						}
					],
					"name": "registeredUsers",
					"outputs": [
						{
							"internalType": "address",
							"name": "userAddress",
							"type": "address"
						},
						{
							"internalType": "uint256",
							"name": "counterVisited",
							"type": "uint256"
						}
					],
					"stateMutability": "view",
					"type": "function"
				}
			],
			"devdoc": {
				"kind": "dev",
				"methods": {},
				"version": 1
			},
			"evm": {
				"assembly": "    /* \"contracts/TestInterview.sol\":208:2310  contract TestInterview {... */\n  mstore(0x40, 0x80)\n    /* \"contracts/TestInterview.sol\":258:300  0x50C7a09925375438D2cEe94C5c59266c6fFAAf8C */\n  0x50c7a09925375438d2cee94c5c59266c6ffaaf8c\n    /* \"contracts/TestInterview.sol\":238:301  INFT objINFT = INFT(0x50C7a09925375438D2cEe94C5c59266c6fFAAf8C) */\n  0x00\n  dup1\n  0x0100\n  exp\n  dup2\n  sload\n  dup2\n  0xffffffffffffffffffffffffffffffffffffffff\n  mul\n  not\n  and\n  swap1\n  dup4\n  0xffffffffffffffffffffffffffffffffffffffff\n  and\n  mul\n  or\n  swap1\n  sstore\n  pop\n    /* \"contracts/TestInterview.sol\":338:380  0xdBDdb8575F6bda11F1DC548A1B546463CC567C3d */\n  0xdbddb8575f6bda11f1dc548a1b546463cc567c3d\n    /* \"contracts/TestInterview.sol\":308:380  address public ownerAddress = 0xdBDdb8575F6bda11F1DC548A1B546463CC567C3d */\n  0x01\n  exp(0x0100, 0x00)\n  dup2\n  sload\n  dup2\n  0xffffffffffffffffffffffffffffffffffffffff\n  mul\n  not\n  and\n  swap1\n  dup4\n  0xffffffffffffffffffffffffffffffffffffffff\n  and\n  mul\n  or\n  swap1\n  sstore\n  pop\n    /* \"contracts/TestInterview.sol\":447:448  2 */\n  0x02\n    /* \"contracts/TestInterview.sol\":421:448  uint public limitGatcha = 2 */\n  0x03\n  sstore\n    /* \"contracts/TestInterview.sol\":705:810  constructor() {... */\n  callvalue\n  dup1\n  iszero\n  tag_1\n  jumpi\n  0x00\n  dup1\n  revert\ntag_1:\n  pop\n    /* \"contracts/TestInterview.sol\":745:755  msg.sender */\n  caller\n    /* \"contracts/TestInterview.sol\":730:742  adminAddress */\n  0x02\n  0x00\n    /* \"contracts/TestInterview.sol\":730:755  adminAddress = msg.sender */\n  0x0100\n  exp\n  dup2\n  sload\n  dup2\n  0xffffffffffffffffffffffffffffffffffffffff\n  mul\n  not\n  and\n  swap1\n  dup4\n  0xffffffffffffffffffffffffffffffffffffffff\n  and\n  mul\n  or\n  swap1\n  sstore\n  pop\n    /* \"contracts/TestInterview.sol\":779:786  objINFT */\n  0x00\n  dup1\n  sload\n  swap1\n  0x0100\n  exp\n  swap1\n  div\n  0xffffffffffffffffffffffffffffffffffffffff\n  and\n    /* \"contracts/TestInterview.sol\":779:800  objINFT.getRarityList */\n  0xffffffffffffffffffffffffffffffffffffffff\n  and\n  0x48441d5f\n    /* \"contracts/TestInterview.sol\":779:802  objINFT.getRarityList() */\n  mload(0x40)\n  dup2\n  0xffffffff\n  and\n  0xe0\n  shl\n  dup2\n  mstore\n  0x04\n  add\n  0x00\n  mload(0x40)\n  dup1\n  dup4\n  sub\n  dup2\n  dup7\n  dup1\n  extcodesize\n  iszero\n  dup1\n  iszero\n  tag_4\n  jumpi\n  0x00\n  dup1\n  revert\ntag_4:\n  pop\n  gas\n  staticcall\n  iszero\n  dup1\n  iszero\n  tag_6\n  jumpi\n  returndatasize\n  0x00\n  dup1\n  returndatacopy\n  revert(0x00, returndatasize)\ntag_6:\n  pop\n  pop\n  pop\n  pop\n  mload(0x40)\n  returndatasize\n  0x00\n  dup3\n  returndatacopy\n  returndatasize\n  not(0x1f)\n  0x1f\n  dup3\n  add\n  and\n  dup3\n  add\n  dup1\n  0x40\n  mstore\n  pop\n  dup2\n  add\n  swap1\n  tag_7\n  swap2\n  swap1\n  tag_8\n  jump\t// in\ntag_7:\n    /* \"contracts/TestInterview.sol\":766:776  rarityList */\n  0x04\n    /* \"contracts/TestInterview.sol\":766:802  rarityList = objINFT.getRarityList() */\n  swap1\n  0x03\n  tag_9\n  swap3\n  swap2\n  swap1\n  tag_10\n  jump\t// in\ntag_9:\n  pop\n    /* \"contracts/TestInterview.sol\":208:2310  contract TestInterview {... */\n  jump(tag_11)\ntag_10:\n  dup3\n  dup1\n  sload\n  dup3\n  dup3\n  sstore\n  swap1\n  0x00\n  mstore\n  keccak256(0x00, 0x20)\n  swap1\n  dup2\n  add\n  swap3\n  dup3\n  iszero\n  tag_12\n  jumpi\n  swap2\n  0x20\n  mul\n  dup3\n  add\ntag_13:\n  dup3\n  dup2\n  gt\n  iszero\n  tag_14\n  jumpi\n  dup3\n  mload\n  dup3\n  swap1\n  dup1\n  mload\n  swap1\n  0x20\n  add\n  swap1\n  tag_15\n  swap3\n  swap2\n  swap1\n  tag_16\n  jump\t// in\ntag_15:\n  pop\n  swap2\n  0x20\n  add\n  swap2\n  swap1\n  0x01\n  add\n  swap1\n  jump(tag_13)\ntag_14:\ntag_12:\n  pop\n  swap1\n  pop\n  tag_17\n  swap2\n  swap1\n  tag_18\n  jump\t// in\ntag_17:\n  pop\n  swap1\n  jump\t// out\ntag_16:\n  dup3\n  dup1\n  sload\n  tag_19\n  swap1\n  tag_20\n  jump\t// in\ntag_19:\n  swap1\n  0x00\n  mstore\n  keccak256(0x00, 0x20)\n  swap1\n  0x1f\n  add\n  0x20\n  swap1\n  div\n  dup2\n  add\n  swap3\n  dup3\n  tag_22\n  jumpi\n  0x00\n  dup6\n  sstore\n  jump(tag_21)\ntag_22:\n  dup3\n  0x1f\n  lt\n  tag_23\n  jumpi\n  dup1\n  mload\n  not(0xff)\n  and\n  dup4\n  dup1\n  add\n  or\n  dup6\n  sstore\n  jump(tag_21)\ntag_23:\n  dup3\n  dup1\n  add\n  0x01\n  add\n  dup6\n  sstore\n  dup3\n  iszero\n  tag_21\n  jumpi\n  swap2\n  dup3\n  add\ntag_24:\n  dup3\n  dup2\n  gt\n  iszero\n  tag_25\n  jumpi\n  dup3\n  mload\n  dup3\n  sstore\n  swap2\n  0x20\n  add\n  swap2\n  swap1\n  0x01\n  add\n  swap1\n  jump(tag_24)\ntag_25:\ntag_21:\n  pop\n  swap1\n  pop\n  tag_26\n  swap2\n  swap1\n  tag_27\n  jump\t// in\ntag_26:\n  pop\n  swap1\n  jump\t// out\ntag_18:\ntag_28:\n  dup1\n  dup3\n  gt\n  iszero\n  tag_29\n  jumpi\n  0x00\n  dup2\n  dup2\n  tag_30\n  swap2\n  swap1\n  tag_31\n  jump\t// in\ntag_30:\n  pop\n  0x01\n  add\n  jump(tag_28)\ntag_29:\n  pop\n  swap1\n  jump\t// out\ntag_27:\ntag_32:\n  dup1\n  dup3\n  gt\n  iszero\n  tag_33\n  jumpi\n  0x00\n  dup2\n  0x00\n  swap1\n  sstore\n  pop\n  0x01\n  add\n  jump(tag_32)\ntag_33:\n  pop\n  swap1\n  jump\t// out\ntag_31:\n  pop\n  dup1\n  sload\n  tag_34\n  swap1\n  tag_20\n  jump\t// in\ntag_34:\n  0x00\n  dup3\n  sstore\n  dup1\n  0x1f\n  lt\n  tag_36\n  jumpi\n  pop\n  jump(tag_35)\ntag_36:\n  0x1f\n  add\n  0x20\n  swap1\n  div\n  swap1\n  0x00\n  mstore\n  keccak256(0x00, 0x20)\n  swap1\n  dup2\n  add\n  swap1\n  tag_37\n  swap2\n  swap1\n  tag_27\n  jump\t// in\ntag_37:\ntag_35:\n  pop\n  jump\t// out\n    /* \"#utility.yul\":7:82   */\ntag_38:\n    /* \"#utility.yul\":40:46   */\n  0x00\n    /* \"#utility.yul\":73:75   */\n  0x40\n    /* \"#utility.yul\":67:76   */\n  mload\n    /* \"#utility.yul\":57:76   */\n  swap1\n  pop\n    /* \"#utility.yul\":7:82   */\n  swap1\n  jump\t// out\n    /* \"#utility.yul\":88:205   */\ntag_39:\n    /* \"#utility.yul\":197:198   */\n  0x00\n    /* \"#utility.yul\":194:195   */\n  dup1\n    /* \"#utility.yul\":187:199   */\n  revert\n    /* \"#utility.yul\":211:328   */\ntag_40:\n    /* \"#utility.yul\":320:321   */\n  0x00\n    /* \"#utility.yul\":317:318   */\n  dup1\n    /* \"#utility.yul\":310:322   */\n  revert\n    /* \"#utility.yul\":334:451   */\ntag_41:\n    /* \"#utility.yul\":443:444   */\n  0x00\n    /* \"#utility.yul\":440:441   */\n  dup1\n    /* \"#utility.yul\":433:445   */\n  revert\n    /* \"#utility.yul\":457:559   */\ntag_42:\n    /* \"#utility.yul\":498:504   */\n  0x00\n    /* \"#utility.yul\":549:551   */\n  0x1f\n    /* \"#utility.yul\":545:552   */\n  not\n    /* \"#utility.yul\":540:542   */\n  0x1f\n    /* \"#utility.yul\":533:538   */\n  dup4\n    /* \"#utility.yul\":529:543   */\n  add\n    /* \"#utility.yul\":525:553   */\n  and\n    /* \"#utility.yul\":515:553   */\n  swap1\n  pop\n    /* \"#utility.yul\":457:559   */\n  swap2\n  swap1\n  pop\n  jump\t// out\n    /* \"#utility.yul\":565:745   */\ntag_43:\n    /* \"#utility.yul\":613:690   */\n  0x4e487b7100000000000000000000000000000000000000000000000000000000\n    /* \"#utility.yul\":610:611   */\n  0x00\n    /* \"#utility.yul\":603:691   */\n  mstore\n    /* \"#utility.yul\":710:714   */\n  0x41\n    /* \"#utility.yul\":707:708   */\n  0x04\n    /* \"#utility.yul\":700:715   */\n  mstore\n    /* \"#utility.yul\":734:738   */\n  0x24\n    /* \"#utility.yul\":731:732   */\n  0x00\n    /* \"#utility.yul\":724:739   */\n  revert\n    /* \"#utility.yul\":751:1032   */\ntag_44:\n    /* \"#utility.yul\":834:861   */\n  tag_64\n    /* \"#utility.yul\":856:860   */\n  dup3\n    /* \"#utility.yul\":834:861   */\n  tag_42\n  jump\t// in\ntag_64:\n    /* \"#utility.yul\":826:832   */\n  dup2\n    /* \"#utility.yul\":822:862   */\n  add\n    /* \"#utility.yul\":964:970   */\n  dup2\n    /* \"#utility.yul\":952:962   */\n  dup2\n    /* \"#utility.yul\":949:971   */\n  lt\n    /* \"#utility.yul\":928:946   */\n  0xffffffffffffffff\n    /* \"#utility.yul\":916:926   */\n  dup3\n    /* \"#utility.yul\":913:947   */\n  gt\n    /* \"#utility.yul\":910:972   */\n  or\n    /* \"#utility.yul\":907:995   */\n  iszero\n  tag_65\n  jumpi\n    /* \"#utility.yul\":975:993   */\n  tag_66\n  tag_43\n  jump\t// in\ntag_66:\n    /* \"#utility.yul\":907:995   */\ntag_65:\n    /* \"#utility.yul\":1015:1025   */\n  dup1\n    /* \"#utility.yul\":1011:1013   */\n  0x40\n    /* \"#utility.yul\":1004:1026   */\n  mstore\n    /* \"#utility.yul\":794:1032   */\n  pop\n    /* \"#utility.yul\":751:1032   */\n  pop\n  pop\n  jump\t// out\n    /* \"#utility.yul\":1038:1167   */\ntag_45:\n    /* \"#utility.yul\":1072:1078   */\n  0x00\n    /* \"#utility.yul\":1099:1119   */\n  tag_68\n  tag_38\n  jump\t// in\ntag_68:\n    /* \"#utility.yul\":1089:1119   */\n  swap1\n  pop\n    /* \"#utility.yul\":1128:1161   */\n  tag_69\n    /* \"#utility.yul\":1156:1160   */\n  dup3\n    /* \"#utility.yul\":1148:1154   */\n  dup3\n    /* \"#utility.yul\":1128:1161   */\n  tag_44\n  jump\t// in\ntag_69:\n    /* \"#utility.yul\":1038:1167   */\n  swap2\n  swap1\n  pop\n  jump\t// out\n    /* \"#utility.yul\":1173:1432   */\ntag_46:\n    /* \"#utility.yul\":1258:1262   */\n  0x00\n    /* \"#utility.yul\":1348:1366   */\n  0xffffffffffffffff\n    /* \"#utility.yul\":1340:1346   */\n  dup3\n    /* \"#utility.yul\":1337:1367   */\n  gt\n    /* \"#utility.yul\":1334:1390   */\n  iszero\n  tag_71\n  jumpi\n    /* \"#utility.yul\":1370:1388   */\n  tag_72\n  tag_43\n  jump\t// in\ntag_72:\n    /* \"#utility.yul\":1334:1390   */\ntag_71:\n    /* \"#utility.yul\":1420:1424   */\n  0x20\n    /* \"#utility.yul\":1412:1418   */\n  dup3\n    /* \"#utility.yul\":1408:1425   */\n  mul\n    /* \"#utility.yul\":1400:1425   */\n  swap1\n  pop\n    /* \"#utility.yul\":1173:1432   */\n  swap2\n  swap1\n  pop\n  jump\t// out\n    /* \"#utility.yul\":1438:1555   */\ntag_47:\n    /* \"#utility.yul\":1547:1548   */\n  0x00\n    /* \"#utility.yul\":1544:1545   */\n  dup1\n    /* \"#utility.yul\":1537:1549   */\n  revert\n    /* \"#utility.yul\":1561:1678   */\ntag_48:\n    /* \"#utility.yul\":1670:1671   */\n  0x00\n    /* \"#utility.yul\":1667:1668   */\n  dup1\n    /* \"#utility.yul\":1660:1672   */\n  revert\n    /* \"#utility.yul\":1684:1992   */\ntag_49:\n    /* \"#utility.yul\":1746:1750   */\n  0x00\n    /* \"#utility.yul\":1836:1854   */\n  0xffffffffffffffff\n    /* \"#utility.yul\":1828:1834   */\n  dup3\n    /* \"#utility.yul\":1825:1855   */\n  gt\n    /* \"#utility.yul\":1822:1878   */\n  iszero\n  tag_76\n  jumpi\n    /* \"#utility.yul\":1858:1876   */\n  tag_77\n  tag_43\n  jump\t// in\ntag_77:\n    /* \"#utility.yul\":1822:1878   */\ntag_76:\n    /* \"#utility.yul\":1896:1925   */\n  tag_78\n    /* \"#utility.yul\":1918:1924   */\n  dup3\n    /* \"#utility.yul\":1896:1925   */\n  tag_42\n  jump\t// in\ntag_78:\n    /* \"#utility.yul\":1888:1925   */\n  swap1\n  pop\n    /* \"#utility.yul\":1980:1984   */\n  0x20\n    /* \"#utility.yul\":1974:1978   */\n  dup2\n    /* \"#utility.yul\":1970:1985   */\n  add\n    /* \"#utility.yul\":1962:1985   */\n  swap1\n  pop\n    /* \"#utility.yul\":1684:1992   */\n  swap2\n  swap1\n  pop\n  jump\t// out\n    /* \"#utility.yul\":1998:2305   */\ntag_50:\n    /* \"#utility.yul\":2066:2067   */\n  0x00\n    /* \"#utility.yul\":2076:2189   */\ntag_80:\n    /* \"#utility.yul\":2090:2096   */\n  dup4\n    /* \"#utility.yul\":2087:2088   */\n  dup2\n    /* \"#utility.yul\":2084:2097   */\n  lt\n    /* \"#utility.yul\":2076:2189   */\n  iszero\n  tag_82\n  jumpi\n    /* \"#utility.yul\":2175:2176   */\n  dup1\n    /* \"#utility.yul\":2170:2173   */\n  dup3\n    /* \"#utility.yul\":2166:2177   */\n  add\n    /* \"#utility.yul\":2160:2178   */\n  mload\n    /* \"#utility.yul\":2156:2157   */\n  dup2\n    /* \"#utility.yul\":2151:2154   */\n  dup5\n    /* \"#utility.yul\":2147:2158   */\n  add\n    /* \"#utility.yul\":2140:2179   */\n  mstore\n    /* \"#utility.yul\":2112:2114   */\n  0x20\n    /* \"#utility.yul\":2109:2110   */\n  dup2\n    /* \"#utility.yul\":2105:2115   */\n  add\n    /* \"#utility.yul\":2100:2115   */\n  swap1\n  pop\n    /* \"#utility.yul\":2076:2189   */\n  jump(tag_80)\ntag_82:\n    /* \"#utility.yul\":2207:2213   */\n  dup4\n    /* \"#utility.yul\":2204:2205   */\n  dup2\n    /* \"#utility.yul\":2201:2214   */\n  gt\n    /* \"#utility.yul\":2198:2299   */\n  iszero\n  tag_83\n  jumpi\n    /* \"#utility.yul\":2287:2288   */\n  0x00\n    /* \"#utility.yul\":2278:2284   */\n  dup5\n    /* \"#utility.yul\":2273:2276   */\n  dup5\n    /* \"#utility.yul\":2269:2285   */\n  add\n    /* \"#utility.yul\":2262:2289   */\n  mstore\n    /* \"#utility.yul\":2198:2299   */\ntag_83:\n    /* \"#utility.yul\":2047:2305   */\n  pop\n    /* \"#utility.yul\":1998:2305   */\n  pop\n  pop\n  pop\n  jump\t// out\n    /* \"#utility.yul\":2311:2732   */\ntag_51:\n    /* \"#utility.yul\":2400:2405   */\n  0x00\n    /* \"#utility.yul\":2425:2491   */\n  tag_85\n    /* \"#utility.yul\":2441:2490   */\n  tag_86\n    /* \"#utility.yul\":2483:2489   */\n  dup5\n    /* \"#utility.yul\":2441:2490   */\n  tag_49\n  jump\t// in\ntag_86:\n    /* \"#utility.yul\":2425:2491   */\n  tag_45\n  jump\t// in\ntag_85:\n    /* \"#utility.yul\":2416:2491   */\n  swap1\n  pop\n    /* \"#utility.yul\":2514:2520   */\n  dup3\n    /* \"#utility.yul\":2507:2512   */\n  dup2\n    /* \"#utility.yul\":2500:2521   */\n  mstore\n    /* \"#utility.yul\":2552:2556   */\n  0x20\n    /* \"#utility.yul\":2545:2550   */\n  dup2\n    /* \"#utility.yul\":2541:2557   */\n  add\n    /* \"#utility.yul\":2590:2593   */\n  dup5\n    /* \"#utility.yul\":2581:2587   */\n  dup5\n    /* \"#utility.yul\":2576:2579   */\n  dup5\n    /* \"#utility.yul\":2572:2588   */\n  add\n    /* \"#utility.yul\":2569:2594   */\n  gt\n    /* \"#utility.yul\":2566:2678   */\n  iszero\n  tag_87\n  jumpi\n    /* \"#utility.yul\":2597:2676   */\n  tag_88\n  tag_48\n  jump\t// in\ntag_88:\n    /* \"#utility.yul\":2566:2678   */\ntag_87:\n    /* \"#utility.yul\":2687:2726   */\n  tag_89\n    /* \"#utility.yul\":2719:2725   */\n  dup5\n    /* \"#utility.yul\":2714:2717   */\n  dup3\n    /* \"#utility.yul\":2709:2712   */\n  dup6\n    /* \"#utility.yul\":2687:2726   */\n  tag_50\n  jump\t// in\ntag_89:\n    /* \"#utility.yul\":2406:2732   */\n  pop\n    /* \"#utility.yul\":2311:2732   */\n  swap4\n  swap3\n  pop\n  pop\n  pop\n  jump\t// out\n    /* \"#utility.yul\":2752:3107   */\ntag_52:\n    /* \"#utility.yul\":2819:2824   */\n  0x00\n    /* \"#utility.yul\":2868:2871   */\n  dup3\n    /* \"#utility.yul\":2861:2865   */\n  0x1f\n    /* \"#utility.yul\":2853:2859   */\n  dup4\n    /* \"#utility.yul\":2849:2866   */\n  add\n    /* \"#utility.yul\":2845:2872   */\n  slt\n    /* \"#utility.yul\":2835:2957   */\n  tag_91\n  jumpi\n    /* \"#utility.yul\":2876:2955   */\n  tag_92\n  tag_41\n  jump\t// in\ntag_92:\n    /* \"#utility.yul\":2835:2957   */\ntag_91:\n    /* \"#utility.yul\":2986:2992   */\n  dup2\n    /* \"#utility.yul\":2980:2993   */\n  mload\n    /* \"#utility.yul\":3011:3101   */\n  tag_93\n    /* \"#utility.yul\":3097:3100   */\n  dup5\n    /* \"#utility.yul\":3089:3095   */\n  dup3\n    /* \"#utility.yul\":3082:3086   */\n  0x20\n    /* \"#utility.yul\":3074:3080   */\n  dup7\n    /* \"#utility.yul\":3070:3087   */\n  add\n    /* \"#utility.yul\":3011:3101   */\n  tag_51\n  jump\t// in\ntag_93:\n    /* \"#utility.yul\":3002:3101   */\n  swap2\n  pop\n    /* \"#utility.yul\":2825:3107   */\n  pop\n    /* \"#utility.yul\":2752:3107   */\n  swap3\n  swap2\n  pop\n  pop\n  jump\t// out\n    /* \"#utility.yul\":3130:4023   */\ntag_53:\n    /* \"#utility.yul\":3245:3250   */\n  0x00\n    /* \"#utility.yul\":3270:3359   */\n  tag_95\n    /* \"#utility.yul\":3286:3358   */\n  tag_96\n    /* \"#utility.yul\":3351:3357   */\n  dup5\n    /* \"#utility.yul\":3286:3358   */\n  tag_46\n  jump\t// in\ntag_96:\n    /* \"#utility.yul\":3270:3359   */\n  tag_45\n  jump\t// in\ntag_95:\n    /* \"#utility.yul\":3261:3359   */\n  swap1\n  pop\n    /* \"#utility.yul\":3379:3384   */\n  dup1\n    /* \"#utility.yul\":3432:3436   */\n  0x20\n    /* \"#utility.yul\":3424:3430   */\n  dup5\n    /* \"#utility.yul\":3420:3437   */\n  mul\n    /* \"#utility.yul\":3412:3418   */\n  dup4\n    /* \"#utility.yul\":3408:3438   */\n  add\n    /* \"#utility.yul\":3461:3464   */\n  dup6\n    /* \"#utility.yul\":3453:3459   */\n  dup2\n    /* \"#utility.yul\":3450:3465   */\n  gt\n    /* \"#utility.yul\":3447:3569   */\n  iszero\n  tag_97\n  jumpi\n    /* \"#utility.yul\":3480:3559   */\n  tag_98\n  tag_47\n  jump\t// in\ntag_98:\n    /* \"#utility.yul\":3447:3569   */\ntag_97:\n    /* \"#utility.yul\":3595:3601   */\n  dup4\n    /* \"#utility.yul\":3578:4017   */\ntag_99:\n    /* \"#utility.yul\":3612:3618   */\n  dup2\n    /* \"#utility.yul\":3607:3610   */\n  dup2\n    /* \"#utility.yul\":3604:3619   */\n  lt\n    /* \"#utility.yul\":3578:4017   */\n  iszero\n  tag_101\n  jumpi\n    /* \"#utility.yul\":3694:3697   */\n  dup1\n    /* \"#utility.yul\":3688:3698   */\n  mload\n    /* \"#utility.yul\":3730:3748   */\n  0xffffffffffffffff\n    /* \"#utility.yul\":3717:3728   */\n  dup2\n    /* \"#utility.yul\":3714:3749   */\n  gt\n    /* \"#utility.yul\":3711:3833   */\n  iszero\n  tag_102\n  jumpi\n    /* \"#utility.yul\":3752:3831   */\n  tag_103\n  tag_41\n  jump\t// in\ntag_103:\n    /* \"#utility.yul\":3711:3833   */\ntag_102:\n    /* \"#utility.yul\":3876:3887   */\n  dup1\n    /* \"#utility.yul\":3868:3874   */\n  dup7\n    /* \"#utility.yul\":3864:3888   */\n  add\n    /* \"#utility.yul\":3914:3972   */\n  tag_104\n    /* \"#utility.yul\":3968:3971   */\n  dup10\n    /* \"#utility.yul\":3956:3966   */\n  dup3\n    /* \"#utility.yul\":3914:3972   */\n  tag_52\n  jump\t// in\ntag_104:\n    /* \"#utility.yul\":3909:3912   */\n  dup6\n    /* \"#utility.yul\":3902:3973   */\n  mstore\n    /* \"#utility.yul\":4002:4006   */\n  0x20\n    /* \"#utility.yul\":3997:4000   */\n  dup6\n    /* \"#utility.yul\":3993:4007   */\n  add\n    /* \"#utility.yul\":3986:4007   */\n  swap5\n  pop\n    /* \"#utility.yul\":3654:4017   */\n  pop\n  pop\n    /* \"#utility.yul\":3638:3642   */\n  0x20\n    /* \"#utility.yul\":3633:3636   */\n  dup2\n    /* \"#utility.yul\":3629:3643   */\n  add\n    /* \"#utility.yul\":3622:3643   */\n  swap1\n  pop\n    /* \"#utility.yul\":3578:4017   */\n  jump(tag_99)\ntag_101:\n    /* \"#utility.yul\":3582:3603   */\n  pop\n    /* \"#utility.yul\":3251:4023   */\n  pop\n  pop\n    /* \"#utility.yul\":3130:4023   */\n  swap4\n  swap3\n  pop\n  pop\n  pop\n  jump\t// out\n    /* \"#utility.yul\":4046:4427   */\ntag_54:\n    /* \"#utility.yul\":4136:4141   */\n  0x00\n    /* \"#utility.yul\":4185:4188   */\n  dup3\n    /* \"#utility.yul\":4178:4182   */\n  0x1f\n    /* \"#utility.yul\":4170:4176   */\n  dup4\n    /* \"#utility.yul\":4166:4183   */\n  add\n    /* \"#utility.yul\":4162:4189   */\n  slt\n    /* \"#utility.yul\":4152:4274   */\n  tag_106\n  jumpi\n    /* \"#utility.yul\":4193:4272   */\n  tag_107\n  tag_41\n  jump\t// in\ntag_107:\n    /* \"#utility.yul\":4152:4274   */\ntag_106:\n    /* \"#utility.yul\":4297:4301   */\n  0x03\n    /* \"#utility.yul\":4319:4421   */\n  tag_108\n    /* \"#utility.yul\":4417:4420   */\n  dup5\n    /* \"#utility.yul\":4409:4415   */\n  dup3\n    /* \"#utility.yul\":4401:4407   */\n  dup6\n    /* \"#utility.yul\":4319:4421   */\n  tag_53\n  jump\t// in\ntag_108:\n    /* \"#utility.yul\":4310:4421   */\n  swap2\n  pop\n    /* \"#utility.yul\":4142:4427   */\n  pop\n    /* \"#utility.yul\":4046:4427   */\n  swap3\n  swap2\n  pop\n  pop\n  jump\t// out\n    /* \"#utility.yul\":4433:5003   */\ntag_8:\n    /* \"#utility.yul\":4536:4542   */\n  0x00\n    /* \"#utility.yul\":4585:4587   */\n  0x20\n    /* \"#utility.yul\":4573:4582   */\n  dup3\n    /* \"#utility.yul\":4564:4571   */\n  dup5\n    /* \"#utility.yul\":4560:4583   */\n  sub\n    /* \"#utility.yul\":4556:4588   */\n  slt\n    /* \"#utility.yul\":4553:4672   */\n  iszero\n  tag_110\n  jumpi\n    /* \"#utility.yul\":4591:4670   */\n  tag_111\n  tag_39\n  jump\t// in\ntag_111:\n    /* \"#utility.yul\":4553:4672   */\ntag_110:\n    /* \"#utility.yul\":4732:4733   */\n  0x00\n    /* \"#utility.yul\":4721:4730   */\n  dup3\n    /* \"#utility.yul\":4717:4734   */\n  add\n    /* \"#utility.yul\":4711:4735   */\n  mload\n    /* \"#utility.yul\":4762:4780   */\n  0xffffffffffffffff\n    /* \"#utility.yul\":4754:4760   */\n  dup2\n    /* \"#utility.yul\":4751:4781   */\n  gt\n    /* \"#utility.yul\":4748:4865   */\n  iszero\n  tag_112\n  jumpi\n    /* \"#utility.yul\":4784:4863   */\n  tag_113\n  tag_40\n  jump\t// in\ntag_113:\n    /* \"#utility.yul\":4748:4865   */\ntag_112:\n    /* \"#utility.yul\":4889:4986   */\n  tag_114\n    /* \"#utility.yul\":4978:4985   */\n  dup5\n    /* \"#utility.yul\":4969:4975   */\n  dup3\n    /* \"#utility.yul\":4958:4967   */\n  dup6\n    /* \"#utility.yul\":4954:4976   */\n  add\n    /* \"#utility.yul\":4889:4986   */\n  tag_54\n  jump\t// in\ntag_114:\n    /* \"#utility.yul\":4879:4986   */\n  swap2\n  pop\n    /* \"#utility.yul\":4682:4996   */\n  pop\n    /* \"#utility.yul\":4433:5003   */\n  swap3\n  swap2\n  pop\n  pop\n  jump\t// out\n    /* \"#utility.yul\":5009:5189   */\ntag_55:\n    /* \"#utility.yul\":5057:5134   */\n  0x4e487b7100000000000000000000000000000000000000000000000000000000\n    /* \"#utility.yul\":5054:5055   */\n  0x00\n    /* \"#utility.yul\":5047:5135   */\n  mstore\n    /* \"#utility.yul\":5154:5158   */\n  0x22\n    /* \"#utility.yul\":5151:5152   */\n  0x04\n    /* \"#utility.yul\":5144:5159   */\n  mstore\n    /* \"#utility.yul\":5178:5182   */\n  0x24\n    /* \"#utility.yul\":5175:5176   */\n  0x00\n    /* \"#utility.yul\":5168:5183   */\n  revert\n    /* \"#utility.yul\":5195:5515   */\ntag_20:\n    /* \"#utility.yul\":5239:5245   */\n  0x00\n    /* \"#utility.yul\":5276:5277   */\n  0x02\n    /* \"#utility.yul\":5270:5274   */\n  dup3\n    /* \"#utility.yul\":5266:5278   */\n  div\n    /* \"#utility.yul\":5256:5278   */\n  swap1\n  pop\n    /* \"#utility.yul\":5323:5324   */\n  0x01\n    /* \"#utility.yul\":5317:5321   */\n  dup3\n    /* \"#utility.yul\":5313:5325   */\n  and\n    /* \"#utility.yul\":5344:5362   */\n  dup1\n    /* \"#utility.yul\":5334:5415   */\n  tag_117\n  jumpi\n    /* \"#utility.yul\":5400:5404   */\n  0x7f\n    /* \"#utility.yul\":5392:5398   */\n  dup3\n    /* \"#utility.yul\":5388:5405   */\n  and\n    /* \"#utility.yul\":5378:5405   */\n  swap2\n  pop\n    /* \"#utility.yul\":5334:5415   */\ntag_117:\n    /* \"#utility.yul\":5462:5464   */\n  0x20\n    /* \"#utility.yul\":5454:5460   */\n  dup3\n    /* \"#utility.yul\":5451:5465   */\n  lt\n    /* \"#utility.yul\":5431:5449   */\n  dup2\n    /* \"#utility.yul\":5428:5466   */\n  eq\n    /* \"#utility.yul\":5425:5509   */\n  iszero\n  tag_118\n  jumpi\n    /* \"#utility.yul\":5481:5499   */\n  tag_119\n  tag_55\n  jump\t// in\ntag_119:\n    /* \"#utility.yul\":5425:5509   */\ntag_118:\n    /* \"#utility.yul\":5246:5515   */\n  pop\n    /* \"#utility.yul\":5195:5515   */\n  swap2\n  swap1\n  pop\n  jump\t// out\n    /* \"contracts/TestInterview.sol\":208:2310  contract TestInterview {... */\ntag_11:\n  dataSize(sub_0)\n  dup1\n  dataOffset(sub_0)\n  0x00\n  codecopy\n  0x00\n  return\nstop\n\nsub_0: assembly {\n        /* \"contracts/TestInterview.sol\":208:2310  contract TestInterview {... */\n      mstore(0x40, 0x80)\n      callvalue\n      dup1\n      iszero\n      tag_1\n      jumpi\n      0x00\n      dup1\n      revert\n    tag_1:\n      pop\n      jumpi(tag_2, lt(calldatasize, 0x04))\n      shr(0xe0, calldataload(0x00))\n      dup1\n      0xa7beb5d0\n      gt\n      tag_13\n      jumpi\n      dup1\n      0xa7beb5d0\n      eq\n      tag_8\n      jumpi\n      dup1\n      0xbb4a376b\n      eq\n      tag_9\n      jumpi\n      dup1\n      0xc15d3ead\n      eq\n      tag_10\n      jumpi\n      dup1\n      0xe917ec96\n      eq\n      tag_11\n      jumpi\n      dup1\n      0xfc6f9468\n      eq\n      tag_12\n      jumpi\n      jump(tag_2)\n    tag_13:\n      dup1\n      0x06cd309b\n      eq\n      tag_3\n      jumpi\n      dup1\n      0x5d73ab9a\n      eq\n      tag_4\n      jumpi\n      dup1\n      0x6fd3d9e2\n      eq\n      tag_5\n      jumpi\n      dup1\n      0x7259e0f8\n      eq\n      tag_6\n      jumpi\n      dup1\n      0x8f84aa09\n      eq\n      tag_7\n      jumpi\n    tag_2:\n      0x00\n      dup1\n      revert\n        /* \"contracts/TestInterview.sol\":421:448  uint public limitGatcha = 2 */\n    tag_3:\n      tag_14\n      tag_15\n      jump\t// in\n    tag_14:\n      mload(0x40)\n      tag_16\n      swap2\n      swap1\n      tag_17\n      jump\t// in\n    tag_16:\n      mload(0x40)\n      dup1\n      swap2\n      sub\n      swap1\n      return\n        /* \"contracts/TestInterview.sol\":2172:2307  function getUsers(uint256 _indexUser) public view returns(uint256) {... */\n    tag_4:\n      tag_18\n      0x04\n      dup1\n      calldatasize\n      sub\n      dup2\n      add\n      swap1\n      tag_19\n      swap2\n      swap1\n      tag_20\n      jump\t// in\n    tag_19:\n      tag_21\n      jump\t// in\n    tag_18:\n      mload(0x40)\n      tag_22\n      swap2\n      swap1\n      tag_17\n      jump\t// in\n    tag_22:\n      mload(0x40)\n      dup1\n      swap2\n      sub\n      swap1\n      return\n        /* \"contracts/TestInterview.sol\":457:483  string[] public rarityList */\n    tag_5:\n      tag_23\n      0x04\n      dup1\n      calldatasize\n      sub\n      dup2\n      add\n      swap1\n      tag_24\n      swap2\n      swap1\n      tag_20\n      jump\t// in\n    tag_24:\n      tag_25\n      jump\t// in\n    tag_23:\n      mload(0x40)\n      tag_26\n      swap2\n      swap1\n      tag_27\n      jump\t// in\n    tag_26:\n      mload(0x40)\n      dup1\n      swap2\n      sub\n      swap1\n      return\n        /* \"contracts/TestInterview.sol\":657:696  RegisteredUser[] public registeredUsers */\n    tag_6:\n      tag_28\n      0x04\n      dup1\n      calldatasize\n      sub\n      dup2\n      add\n      swap1\n      tag_29\n      swap2\n      swap1\n      tag_20\n      jump\t// in\n    tag_29:\n      tag_30\n      jump\t// in\n    tag_28:\n      mload(0x40)\n      tag_31\n      swap3\n      swap2\n      swap1\n      tag_32\n      jump\t// in\n    tag_31:\n      mload(0x40)\n      dup1\n      swap2\n      sub\n      swap1\n      return\n        /* \"contracts/TestInterview.sol\":308:380  address public ownerAddress = 0xdBDdb8575F6bda11F1DC548A1B546463CC567C3d */\n    tag_7:\n      tag_33\n      tag_34\n      jump\t// in\n    tag_33:\n      mload(0x40)\n      tag_35\n      swap2\n      swap1\n      tag_36\n      jump\t// in\n    tag_35:\n      mload(0x40)\n      dup1\n      swap2\n      sub\n      swap1\n      return\n        /* \"contracts/TestInterview.sol\":2019:2160  function rarityRateFunc (string memory _nameRarity) public view returns(uint256) {... */\n    tag_8:\n      tag_37\n      0x04\n      dup1\n      calldatasize\n      sub\n      dup2\n      add\n      swap1\n      tag_38\n      swap2\n      swap1\n      tag_39\n      jump\t// in\n    tag_38:\n      tag_40\n      jump\t// in\n    tag_37:\n      mload(0x40)\n      tag_41\n      swap2\n      swap1\n      tag_17\n      jump\t// in\n    tag_41:\n      mload(0x40)\n      dup1\n      swap2\n      sub\n      swap1\n      return\n        /* \"contracts/TestInterview.sol\":1836:2011  function rarityListFunc () public view returns(string memory) {... */\n    tag_9:\n      tag_42\n      tag_43\n      jump\t// in\n    tag_42:\n      mload(0x40)\n      tag_44\n      swap2\n      swap1\n      tag_27\n      jump\t// in\n    tag_44:\n      mload(0x40)\n      dup1\n      swap2\n      sub\n      swap1\n      return\n        /* \"contracts/TestInterview.sol\":1627:1828  function changeGatchaLimit(uint256 _newLimit) public {... */\n    tag_10:\n      tag_45\n      0x04\n      dup1\n      calldatasize\n      sub\n      dup2\n      add\n      swap1\n      tag_46\n      swap2\n      swap1\n      tag_20\n      jump\t// in\n    tag_46:\n      tag_47\n      jump\t// in\n    tag_45:\n      stop\n        /* \"contracts/TestInterview.sol\":818:1025  function createGatcha () public checkUserLimit {... */\n    tag_11:\n      tag_48\n      tag_49\n      jump\t// in\n    tag_48:\n      stop\n        /* \"contracts/TestInterview.sol\":387:414  address public adminAddress */\n    tag_12:\n      tag_50\n      tag_51\n      jump\t// in\n    tag_50:\n      mload(0x40)\n      tag_52\n      swap2\n      swap1\n      tag_36\n      jump\t// in\n    tag_52:\n      mload(0x40)\n      dup1\n      swap2\n      sub\n      swap1\n      return\n        /* \"contracts/TestInterview.sol\":421:448  uint public limitGatcha = 2 */\n    tag_15:\n      sload(0x03)\n      dup2\n      jump\t// out\n        /* \"contracts/TestInterview.sol\":2172:2307  function getUsers(uint256 _indexUser) public view returns(uint256) {... */\n    tag_21:\n        /* \"contracts/TestInterview.sol\":2230:2237  uint256 */\n      0x00\n        /* \"contracts/TestInterview.sol\":2257:2272  registeredUsers */\n      0x05\n        /* \"contracts/TestInterview.sol\":2273:2283  _indexUser */\n      dup3\n        /* \"contracts/TestInterview.sol\":2257:2284  registeredUsers[_indexUser] */\n      dup2\n      sload\n      dup2\n      lt\n      tag_54\n      jumpi\n      tag_55\n      tag_56\n      jump\t// in\n    tag_55:\n    tag_54:\n      swap1\n      0x00\n      mstore\n      keccak256(0x00, 0x20)\n      swap1\n      0x02\n      mul\n      add\n        /* \"contracts/TestInterview.sol\":2257:2299  registeredUsers[_indexUser].counterVisited */\n      0x01\n      add\n      sload\n        /* \"contracts/TestInterview.sol\":2250:2299  return registeredUsers[_indexUser].counterVisited */\n      swap1\n      pop\n        /* \"contracts/TestInterview.sol\":2172:2307  function getUsers(uint256 _indexUser) public view returns(uint256) {... */\n      swap2\n      swap1\n      pop\n      jump\t// out\n        /* \"contracts/TestInterview.sol\":457:483  string[] public rarityList */\n    tag_25:\n      0x04\n      dup2\n      dup2\n      sload\n      dup2\n      lt\n      tag_58\n      jumpi\n      0x00\n      dup1\n      revert\n    tag_58:\n      swap1\n      0x00\n      mstore\n      keccak256(0x00, 0x20)\n      add\n      0x00\n      swap2\n      pop\n      swap1\n      pop\n      dup1\n      sload\n      tag_60\n      swap1\n      tag_61\n      jump\t// in\n    tag_60:\n      dup1\n      0x1f\n      add\n      0x20\n      dup1\n      swap2\n      div\n      mul\n      0x20\n      add\n      mload(0x40)\n      swap1\n      dup2\n      add\n      0x40\n      mstore\n      dup1\n      swap3\n      swap2\n      swap1\n      dup2\n      dup2\n      mstore\n      0x20\n      add\n      dup3\n      dup1\n      sload\n      tag_62\n      swap1\n      tag_61\n      jump\t// in\n    tag_62:\n      dup1\n      iszero\n      tag_63\n      jumpi\n      dup1\n      0x1f\n      lt\n      tag_64\n      jumpi\n      0x0100\n      dup1\n      dup4\n      sload\n      div\n      mul\n      dup4\n      mstore\n      swap2\n      0x20\n      add\n      swap2\n      jump(tag_63)\n    tag_64:\n      dup3\n      add\n      swap2\n      swap1\n      0x00\n      mstore\n      keccak256(0x00, 0x20)\n      swap1\n    tag_65:\n      dup2\n      sload\n      dup2\n      mstore\n      swap1\n      0x01\n      add\n      swap1\n      0x20\n      add\n      dup1\n      dup4\n      gt\n      tag_65\n      jumpi\n      dup3\n      swap1\n      sub\n      0x1f\n      and\n      dup3\n      add\n      swap2\n    tag_63:\n      pop\n      pop\n      pop\n      pop\n      pop\n      dup2\n      jump\t// out\n        /* \"contracts/TestInterview.sol\":657:696  RegisteredUser[] public registeredUsers */\n    tag_30:\n      0x05\n      dup2\n      dup2\n      sload\n      dup2\n      lt\n      tag_66\n      jumpi\n      0x00\n      dup1\n      revert\n    tag_66:\n      swap1\n      0x00\n      mstore\n      keccak256(0x00, 0x20)\n      swap1\n      0x02\n      mul\n      add\n      0x00\n      swap2\n      pop\n      swap1\n      pop\n      dup1\n      0x00\n      add\n      0x00\n      swap1\n      sload\n      swap1\n      0x0100\n      exp\n      swap1\n      div\n      0xffffffffffffffffffffffffffffffffffffffff\n      and\n      swap1\n      dup1\n      0x01\n      add\n      sload\n      swap1\n      pop\n      dup3\n      jump\t// out\n        /* \"contracts/TestInterview.sol\":308:380  address public ownerAddress = 0xdBDdb8575F6bda11F1DC548A1B546463CC567C3d */\n    tag_34:\n      0x01\n      0x00\n      swap1\n      sload\n      swap1\n      0x0100\n      exp\n      swap1\n      div\n      0xffffffffffffffffffffffffffffffffffffffff\n      and\n      dup2\n      jump\t// out\n        /* \"contracts/TestInterview.sol\":2019:2160  function rarityRateFunc (string memory _nameRarity) public view returns(uint256) {... */\n    tag_40:\n        /* \"contracts/TestInterview.sol\":2091:2098  uint256 */\n      0x00\n        /* \"contracts/TestInterview.sol\":2118:2125  objINFT */\n      dup1\n      0x00\n      swap1\n      sload\n      swap1\n      0x0100\n      exp\n      swap1\n      div\n      0xffffffffffffffffffffffffffffffffffffffff\n      and\n        /* \"contracts/TestInterview.sol\":2118:2139  objINFT.getRarityRate */\n      0xffffffffffffffffffffffffffffffffffffffff\n      and\n      0x278a7f33\n        /* \"contracts/TestInterview.sol\":2140:2151  _nameRarity */\n      dup4\n        /* \"contracts/TestInterview.sol\":2118:2152  objINFT.getRarityRate(_nameRarity) */\n      mload(0x40)\n      dup3\n      0xffffffff\n      and\n      0xe0\n      shl\n      dup2\n      mstore\n      0x04\n      add\n      tag_69\n      swap2\n      swap1\n      tag_27\n      jump\t// in\n    tag_69:\n      0x20\n      mload(0x40)\n      dup1\n      dup4\n      sub\n      dup2\n      dup7\n      dup1\n      extcodesize\n      iszero\n      dup1\n      iszero\n      tag_70\n      jumpi\n      0x00\n      dup1\n      revert\n    tag_70:\n      pop\n      gas\n      staticcall\n      iszero\n      dup1\n      iszero\n      tag_72\n      jumpi\n      returndatasize\n      0x00\n      dup1\n      returndatacopy\n      revert(0x00, returndatasize)\n    tag_72:\n      pop\n      pop\n      pop\n      pop\n      mload(0x40)\n      returndatasize\n      not(0x1f)\n      0x1f\n      dup3\n      add\n      and\n      dup3\n      add\n      dup1\n      0x40\n      mstore\n      pop\n      dup2\n      add\n      swap1\n      tag_73\n      swap2\n      swap1\n      tag_74\n      jump\t// in\n    tag_73:\n        /* \"contracts/TestInterview.sol\":2111:2152  return objINFT.getRarityRate(_nameRarity) */\n      0xff\n      and\n      swap1\n      pop\n        /* \"contracts/TestInterview.sol\":2019:2160  function rarityRateFunc (string memory _nameRarity) public view returns(uint256) {... */\n      swap2\n      swap1\n      pop\n      jump\t// out\n        /* \"contracts/TestInterview.sol\":1836:2011  function rarityListFunc () public view returns(string memory) {... */\n    tag_43:\n        /* \"contracts/TestInterview.sol\":1883:1896  string memory */\n      0x60\n        /* \"contracts/TestInterview.sol\":1909:1941  string[3] memory localRarityList */\n      0x00\n        /* \"contracts/TestInterview.sol\":1944:1951  objINFT */\n      dup1\n      0x00\n      swap1\n      sload\n      swap1\n      0x0100\n      exp\n      swap1\n      div\n      0xffffffffffffffffffffffffffffffffffffffff\n      and\n        /* \"contracts/TestInterview.sol\":1944:1965  objINFT.getRarityList */\n      0xffffffffffffffffffffffffffffffffffffffff\n      and\n      0x48441d5f\n        /* \"contracts/TestInterview.sol\":1944:1967  objINFT.getRarityList() */\n      mload(0x40)\n      dup2\n      0xffffffff\n      and\n      0xe0\n      shl\n      dup2\n      mstore\n      0x04\n      add\n      0x00\n      mload(0x40)\n      dup1\n      dup4\n      sub\n      dup2\n      dup7\n      dup1\n      extcodesize\n      iszero\n      dup1\n      iszero\n      tag_76\n      jumpi\n      0x00\n      dup1\n      revert\n    tag_76:\n      pop\n      gas\n      staticcall\n      iszero\n      dup1\n      iszero\n      tag_78\n      jumpi\n      returndatasize\n      0x00\n      dup1\n      returndatacopy\n      revert(0x00, returndatasize)\n    tag_78:\n      pop\n      pop\n      pop\n      pop\n      mload(0x40)\n      returndatasize\n      0x00\n      dup3\n      returndatacopy\n      returndatasize\n      not(0x1f)\n      0x1f\n      dup3\n      add\n      and\n      dup3\n      add\n      dup1\n      0x40\n      mstore\n      pop\n      dup2\n      add\n      swap1\n      tag_79\n      swap2\n      swap1\n      tag_80\n      jump\t// in\n    tag_79:\n        /* \"contracts/TestInterview.sol\":1909:1967  string[3] memory localRarityList = objINFT.getRarityList() */\n      swap1\n      pop\n        /* \"contracts/TestInterview.sol\":1985:2000  localRarityList */\n      dup1\n        /* \"contracts/TestInterview.sol\":2001:2002  0 */\n      0x00\n        /* \"contracts/TestInterview.sol\":1985:2003  localRarityList[0] */\n      0x03\n      dup2\n      lt\n      tag_81\n      jumpi\n      tag_82\n      tag_56\n      jump\t// in\n    tag_82:\n    tag_81:\n      0x20\n      mul\n      add\n      mload\n        /* \"contracts/TestInterview.sol\":1978:2003  return localRarityList[0] */\n      swap2\n      pop\n      pop\n        /* \"contracts/TestInterview.sol\":1836:2011  function rarityListFunc () public view returns(string memory) {... */\n      swap1\n      jump\t// out\n        /* \"contracts/TestInterview.sol\":1627:1828  function changeGatchaLimit(uint256 _newLimit) public {... */\n    tag_47:\n        /* \"contracts/TestInterview.sol\":1713:1725  adminAddress */\n      0x02\n      0x00\n      swap1\n      sload\n      swap1\n      0x0100\n      exp\n      swap1\n      div\n      0xffffffffffffffffffffffffffffffffffffffff\n      and\n        /* \"contracts/TestInterview.sol\":1699:1725  msg.sender == adminAddress */\n      0xffffffffffffffffffffffffffffffffffffffff\n      and\n        /* \"contracts/TestInterview.sol\":1699:1709  msg.sender */\n      caller\n        /* \"contracts/TestInterview.sol\":1699:1725  msg.sender == adminAddress */\n      0xffffffffffffffffffffffffffffffffffffffff\n      and\n      eq\n        /* \"contracts/TestInterview.sol\":1699:1755  msg.sender == adminAddress || msg.sender == ownerAddress */\n      dup1\n      tag_84\n      jumpi\n      pop\n        /* \"contracts/TestInterview.sol\":1743:1755  ownerAddress */\n      0x01\n      0x00\n      swap1\n      sload\n      swap1\n      0x0100\n      exp\n      swap1\n      div\n      0xffffffffffffffffffffffffffffffffffffffff\n      and\n        /* \"contracts/TestInterview.sol\":1729:1755  msg.sender == ownerAddress */\n      0xffffffffffffffffffffffffffffffffffffffff\n      and\n        /* \"contracts/TestInterview.sol\":1729:1739  msg.sender */\n      caller\n        /* \"contracts/TestInterview.sol\":1729:1755  msg.sender == ownerAddress */\n      0xffffffffffffffffffffffffffffffffffffffff\n      and\n      eq\n        /* \"contracts/TestInterview.sol\":1699:1755  msg.sender == adminAddress || msg.sender == ownerAddress */\n    tag_84:\n        /* \"contracts/TestInterview.sol\":1691:1786  require(msg.sender == adminAddress || msg.sender == ownerAddress, \"Not Authorized, Admin Only\") */\n      tag_85\n      jumpi\n      mload(0x40)\n      0x08c379a000000000000000000000000000000000000000000000000000000000\n      dup2\n      mstore\n      0x04\n      add\n      tag_86\n      swap1\n      tag_87\n      jump\t// in\n    tag_86:\n      mload(0x40)\n      dup1\n      swap2\n      sub\n      swap1\n      revert\n    tag_85:\n        /* \"contracts/TestInterview.sol\":1811:1820  _newLimit */\n      dup1\n        /* \"contracts/TestInterview.sol\":1797:1808  limitGatcha */\n      0x03\n        /* \"contracts/TestInterview.sol\":1797:1820  limitGatcha = _newLimit */\n      dup2\n      swap1\n      sstore\n      pop\n        /* \"contracts/TestInterview.sol\":1627:1828  function changeGatchaLimit(uint256 _newLimit) public {... */\n      pop\n      jump\t// out\n        /* \"contracts/TestInterview.sol\":818:1025  function createGatcha () public checkUserLimit {... */\n    tag_49:\n        /* \"contracts/TestInterview.sol\":1071:1083  bool isFound */\n      0x00\n        /* \"contracts/TestInterview.sol\":1102:1115  uint256 index */\n      dup1\n        /* \"contracts/TestInterview.sol\":1130:1546  while(isFound == false && registeredUsers.length > 0 && index <registeredUsers.length )... */\n    tag_89:\n        /* \"contracts/TestInterview.sol\":1147:1152  false */\n      0x00\n        /* \"contracts/TestInterview.sol\":1136:1152  isFound == false */\n      iszero\n      iszero\n        /* \"contracts/TestInterview.sol\":1136:1143  isFound */\n      dup3\n        /* \"contracts/TestInterview.sol\":1136:1152  isFound == false */\n      iszero\n      iszero\n      eq\n        /* \"contracts/TestInterview.sol\":1136:1182  isFound == false && registeredUsers.length > 0 */\n      dup1\n      iszero\n      tag_91\n      jumpi\n      pop\n        /* \"contracts/TestInterview.sol\":1181:1182  0 */\n      0x00\n        /* \"contracts/TestInterview.sol\":1156:1171  registeredUsers */\n      0x05\n        /* \"contracts/TestInterview.sol\":1156:1178  registeredUsers.length */\n      dup1\n      sload\n      swap1\n      pop\n        /* \"contracts/TestInterview.sol\":1156:1182  registeredUsers.length > 0 */\n      gt\n        /* \"contracts/TestInterview.sol\":1136:1182  isFound == false && registeredUsers.length > 0 */\n    tag_91:\n        /* \"contracts/TestInterview.sol\":1136:1215  isFound == false && registeredUsers.length > 0 && index <registeredUsers.length */\n      dup1\n      iszero\n      tag_92\n      jumpi\n      pop\n        /* \"contracts/TestInterview.sol\":1193:1208  registeredUsers */\n      0x05\n        /* \"contracts/TestInterview.sol\":1193:1215  registeredUsers.length */\n      dup1\n      sload\n      swap1\n      pop\n        /* \"contracts/TestInterview.sol\":1186:1191  index */\n      dup2\n        /* \"contracts/TestInterview.sol\":1186:1215  index <registeredUsers.length */\n      lt\n        /* \"contracts/TestInterview.sol\":1136:1215  isFound == false && registeredUsers.length > 0 && index <registeredUsers.length */\n    tag_92:\n        /* \"contracts/TestInterview.sol\":1130:1546  while(isFound == false && registeredUsers.length > 0 && index <registeredUsers.length )... */\n      iszero\n      tag_90\n      jumpi\n        /* \"contracts/TestInterview.sol\":1283:1293  msg.sender */\n      caller\n        /* \"contracts/TestInterview.sol\":1245:1293  registeredUsers[index].userAddress == msg.sender */\n      0xffffffffffffffffffffffffffffffffffffffff\n      and\n        /* \"contracts/TestInterview.sol\":1245:1260  registeredUsers */\n      0x05\n        /* \"contracts/TestInterview.sol\":1261:1266  index */\n      dup3\n        /* \"contracts/TestInterview.sol\":1245:1267  registeredUsers[index] */\n      dup2\n      sload\n      dup2\n      lt\n      tag_93\n      jumpi\n      tag_94\n      tag_56\n      jump\t// in\n    tag_94:\n    tag_93:\n      swap1\n      0x00\n      mstore\n      keccak256(0x00, 0x20)\n      swap1\n      0x02\n      mul\n      add\n        /* \"contracts/TestInterview.sol\":1245:1279  registeredUsers[index].userAddress */\n      0x00\n      add\n      0x00\n      swap1\n      sload\n      swap1\n      0x0100\n      exp\n      swap1\n      div\n      0xffffffffffffffffffffffffffffffffffffffff\n      and\n        /* \"contracts/TestInterview.sol\":1245:1293  registeredUsers[index].userAddress == msg.sender */\n      0xffffffffffffffffffffffffffffffffffffffff\n      and\n      eq\n        /* \"contracts/TestInterview.sol\":1242:1512  if(registeredUsers[index].userAddress == msg.sender)... */\n      iszero\n      tag_96\n      jumpi\n        /* \"contracts/TestInterview.sol\":1337:1341  true */\n      0x01\n        /* \"contracts/TestInterview.sol\":1327:1341  isFound = true */\n      swap2\n      pop\n        /* \"contracts/TestInterview.sol\":1360:1375  registeredUsers */\n      0x05\n        /* \"contracts/TestInterview.sol\":1376:1381  index */\n      dup2\n        /* \"contracts/TestInterview.sol\":1360:1382  registeredUsers[index] */\n      dup2\n      sload\n      dup2\n      lt\n      tag_97\n      jumpi\n      tag_98\n      tag_56\n      jump\t// in\n    tag_98:\n    tag_97:\n      swap1\n      0x00\n      mstore\n      keccak256(0x00, 0x20)\n      swap1\n      0x02\n      mul\n      add\n        /* \"contracts/TestInterview.sol\":1360:1397  registeredUsers[index].counterVisited */\n      0x01\n      add\n      0x00\n        /* \"contracts/TestInterview.sol\":1360:1400  registeredUsers[index].counterVisited ++ */\n      dup2\n      sload\n      dup1\n      swap3\n      swap2\n      swap1\n      tag_100\n      swap1\n      tag_101\n      jump\t// in\n    tag_100:\n      swap2\n      swap1\n      pop\n      sstore\n      pop\n        /* \"contracts/TestInterview.sol\":1468:1479  limitGatcha */\n      sload(0x03)\n        /* \"contracts/TestInterview.sol\":1427:1442  registeredUsers */\n      0x05\n        /* \"contracts/TestInterview.sol\":1443:1448  index */\n      dup3\n        /* \"contracts/TestInterview.sol\":1427:1449  registeredUsers[index] */\n      dup2\n      sload\n      dup2\n      lt\n      tag_102\n      jumpi\n      tag_103\n      tag_56\n      jump\t// in\n    tag_103:\n    tag_102:\n      swap1\n      0x00\n      mstore\n      keccak256(0x00, 0x20)\n      swap1\n      0x02\n      mul\n      add\n        /* \"contracts/TestInterview.sol\":1427:1464  registeredUsers[index].counterVisited */\n      0x01\n      add\n      sload\n        /* \"contracts/TestInterview.sol\":1427:1479  registeredUsers[index].counterVisited <= limitGatcha */\n      gt\n      iszero\n        /* \"contracts/TestInterview.sol\":1419:1496  require(registeredUsers[index].counterVisited <= limitGatcha, \"Out of Limit\") */\n      tag_105\n      jumpi\n      mload(0x40)\n      0x08c379a000000000000000000000000000000000000000000000000000000000\n      dup2\n      mstore\n      0x04\n      add\n      tag_106\n      swap1\n      tag_107\n      jump\t// in\n    tag_106:\n      mload(0x40)\n      dup1\n      swap2\n      sub\n      swap1\n      revert\n    tag_105:\n        /* \"contracts/TestInterview.sol\":1242:1512  if(registeredUsers[index].userAddress == msg.sender)... */\n    tag_96:\n        /* \"contracts/TestInterview.sol\":1526:1534  index ++ */\n      dup1\n      dup1\n      tag_108\n      swap1\n      tag_101\n      jump\t// in\n    tag_108:\n      swap2\n      pop\n      pop\n        /* \"contracts/TestInterview.sol\":1130:1546  while(isFound == false && registeredUsers.length > 0 && index <registeredUsers.length )... */\n      jump(tag_89)\n    tag_90:\n        /* \"contracts/TestInterview.sol\":1556:1563  objINFT */\n      0x00\n      dup1\n      sload\n      swap1\n      0x0100\n      exp\n      swap1\n      div\n      0xffffffffffffffffffffffffffffffffffffffff\n      and\n        /* \"contracts/TestInterview.sol\":1556:1572  objINFT.safeMint */\n      0xffffffffffffffffffffffffffffffffffffffff\n      and\n      0x40d097c3\n        /* \"contracts/TestInterview.sol\":1573:1585  ownerAddress */\n      0x01\n      0x00\n      swap1\n      sload\n      swap1\n      0x0100\n      exp\n      swap1\n      div\n      0xffffffffffffffffffffffffffffffffffffffff\n      and\n        /* \"contracts/TestInterview.sol\":1556:1586  objINFT.safeMint(ownerAddress) */\n      mload(0x40)\n      dup3\n      0xffffffff\n      and\n      0xe0\n      shl\n      dup2\n      mstore\n      0x04\n      add\n      tag_109\n      swap2\n      swap1\n      tag_36\n      jump\t// in\n    tag_109:\n      0x00\n      mload(0x40)\n      dup1\n      dup4\n      sub\n      dup2\n      0x00\n      dup8\n      dup1\n      extcodesize\n      iszero\n      dup1\n      iszero\n      tag_110\n      jumpi\n      0x00\n      dup1\n      revert\n    tag_110:\n      pop\n      gas\n      call\n      iszero\n      dup1\n      iszero\n      tag_112\n      jumpi\n      returndatasize\n      0x00\n      dup1\n      returndatacopy\n      revert(0x00, returndatasize)\n    tag_112:\n      pop\n      pop\n      pop\n      pop\n        /* \"contracts/TestInterview.sol\":1601:1608  isFound */\n      dup2\n        /* \"contracts/TestInterview.sol\":1597:1611  if(!isFound) _ */\n      tag_113\n      jumpi\n        /* \"contracts/TestInterview.sol\":876:909  RegisteredUser memory newRegister */\n      0x00\n        /* \"contracts/TestInterview.sol\":912:973  RegisteredUser({userAddress : msg.sender, counterVisited :1}) */\n      mload(0x40)\n      dup1\n      0x40\n      add\n      0x40\n      mstore\n      dup1\n        /* \"contracts/TestInterview.sol\":942:952  msg.sender */\n      caller\n        /* \"contracts/TestInterview.sol\":912:973  RegisteredUser({userAddress : msg.sender, counterVisited :1}) */\n      0xffffffffffffffffffffffffffffffffffffffff\n      and\n      dup2\n      mstore\n      0x20\n      add\n        /* \"contracts/TestInterview.sol\":970:971  1 */\n      0x01\n        /* \"contracts/TestInterview.sol\":912:973  RegisteredUser({userAddress : msg.sender, counterVisited :1}) */\n      dup2\n      mstore\n      pop\n        /* \"contracts/TestInterview.sol\":876:973  RegisteredUser memory newRegister = RegisteredUser({userAddress : msg.sender, counterVisited :1}) */\n      swap1\n      pop\n        /* \"contracts/TestInterview.sol\":984:999  registeredUsers */\n      0x05\n        /* \"contracts/TestInterview.sol\":1005:1016  newRegister */\n      dup2\n        /* \"contracts/TestInterview.sol\":984:1017  registeredUsers.push(newRegister) */\n      swap1\n      dup1\n      0x01\n      dup2\n      sload\n      add\n      dup1\n      dup3\n      sstore\n      dup1\n      swap2\n      pop\n      pop\n      0x01\n      swap1\n      sub\n      swap1\n      0x00\n      mstore\n      keccak256(0x00, 0x20)\n      swap1\n      0x02\n      mul\n      add\n      0x00\n      swap1\n      swap2\n      swap1\n      swap2\n      swap1\n      swap2\n      pop\n      0x00\n      dup3\n      add\n      mload\n      dup2\n      0x00\n      add\n      exp(0x0100, 0x00)\n      dup2\n      sload\n      dup2\n      0xffffffffffffffffffffffffffffffffffffffff\n      mul\n      not\n      and\n      swap1\n      dup4\n      0xffffffffffffffffffffffffffffffffffffffff\n      and\n      mul\n      or\n      swap1\n      sstore\n      pop\n      0x20\n      dup3\n      add\n      mload\n      dup2\n      0x01\n      add\n      sstore\n      pop\n      pop\n        /* \"contracts/TestInterview.sol\":865:1025  {... */\n      pop\n        /* \"contracts/TestInterview.sol\":1597:1611  if(!isFound) _ */\n    tag_113:\n        /* \"contracts/TestInterview.sol\":1060:1619  {... */\n      pop\n      pop\n        /* \"contracts/TestInterview.sol\":818:1025  function createGatcha () public checkUserLimit {... */\n      jump\t// out\n        /* \"contracts/TestInterview.sol\":387:414  address public adminAddress */\n    tag_51:\n      0x02\n      0x00\n      swap1\n      sload\n      swap1\n      0x0100\n      exp\n      swap1\n      div\n      0xffffffffffffffffffffffffffffffffffffffff\n      and\n      dup2\n      jump\t// out\n        /* \"#utility.yul\":7:84   */\n    tag_116:\n        /* \"#utility.yul\":44:51   */\n      0x00\n        /* \"#utility.yul\":73:78   */\n      dup2\n        /* \"#utility.yul\":62:78   */\n      swap1\n      pop\n        /* \"#utility.yul\":7:84   */\n      swap2\n      swap1\n      pop\n      jump\t// out\n        /* \"#utility.yul\":90:208   */\n    tag_117:\n        /* \"#utility.yul\":177:201   */\n      tag_158\n        /* \"#utility.yul\":195:200   */\n      dup2\n        /* \"#utility.yul\":177:201   */\n      tag_116\n      jump\t// in\n    tag_158:\n        /* \"#utility.yul\":172:175   */\n      dup3\n        /* \"#utility.yul\":165:202   */\n      mstore\n        /* \"#utility.yul\":90:208   */\n      pop\n      pop\n      jump\t// out\n        /* \"#utility.yul\":214:436   */\n    tag_17:\n        /* \"#utility.yul\":307:311   */\n      0x00\n        /* \"#utility.yul\":345:347   */\n      0x20\n        /* \"#utility.yul\":334:343   */\n      dup3\n        /* \"#utility.yul\":330:348   */\n      add\n        /* \"#utility.yul\":322:348   */\n      swap1\n      pop\n        /* \"#utility.yul\":358:429   */\n      tag_160\n        /* \"#utility.yul\":426:427   */\n      0x00\n        /* \"#utility.yul\":415:424   */\n      dup4\n        /* \"#utility.yul\":411:428   */\n      add\n        /* \"#utility.yul\":402:408   */\n      dup5\n        /* \"#utility.yul\":358:429   */\n      tag_117\n      jump\t// in\n    tag_160:\n        /* \"#utility.yul\":214:436   */\n      swap3\n      swap2\n      pop\n      pop\n      jump\t// out\n        /* \"#utility.yul\":442:517   */\n    tag_118:\n        /* \"#utility.yul\":475:481   */\n      0x00\n        /* \"#utility.yul\":508:510   */\n      0x40\n        /* \"#utility.yul\":502:511   */\n      mload\n        /* \"#utility.yul\":492:511   */\n      swap1\n      pop\n        /* \"#utility.yul\":442:517   */\n      swap1\n      jump\t// out\n        /* \"#utility.yul\":523:640   */\n    tag_119:\n        /* \"#utility.yul\":632:633   */\n      0x00\n        /* \"#utility.yul\":629:630   */\n      dup1\n        /* \"#utility.yul\":622:634   */\n      revert\n        /* \"#utility.yul\":646:763   */\n    tag_120:\n        /* \"#utility.yul\":755:756   */\n      0x00\n        /* \"#utility.yul\":752:753   */\n      dup1\n        /* \"#utility.yul\":745:757   */\n      revert\n        /* \"#utility.yul\":769:891   */\n    tag_121:\n        /* \"#utility.yul\":842:866   */\n      tag_165\n        /* \"#utility.yul\":860:865   */\n      dup2\n        /* \"#utility.yul\":842:866   */\n      tag_116\n      jump\t// in\n    tag_165:\n        /* \"#utility.yul\":835:840   */\n      dup2\n        /* \"#utility.yul\":832:867   */\n      eq\n        /* \"#utility.yul\":822:885   */\n      tag_166\n      jumpi\n        /* \"#utility.yul\":881:882   */\n      0x00\n        /* \"#utility.yul\":878:879   */\n      dup1\n        /* \"#utility.yul\":871:883   */\n      revert\n        /* \"#utility.yul\":822:885   */\n    tag_166:\n        /* \"#utility.yul\":769:891   */\n      pop\n      jump\t// out\n        /* \"#utility.yul\":897:1036   */\n    tag_122:\n        /* \"#utility.yul\":943:948   */\n      0x00\n        /* \"#utility.yul\":981:987   */\n      dup2\n        /* \"#utility.yul\":968:988   */\n      calldataload\n        /* \"#utility.yul\":959:988   */\n      swap1\n      pop\n        /* \"#utility.yul\":997:1030   */\n      tag_168\n        /* \"#utility.yul\":1024:1029   */\n      dup2\n        /* \"#utility.yul\":997:1030   */\n      tag_121\n      jump\t// in\n    tag_168:\n        /* \"#utility.yul\":897:1036   */\n      swap3\n      swap2\n      pop\n      pop\n      jump\t// out\n        /* \"#utility.yul\":1042:1371   */\n    tag_20:\n        /* \"#utility.yul\":1101:1107   */\n      0x00\n        /* \"#utility.yul\":1150:1152   */\n      0x20\n        /* \"#utility.yul\":1138:1147   */\n      dup3\n        /* \"#utility.yul\":1129:1136   */\n      dup5\n        /* \"#utility.yul\":1125:1148   */\n      sub\n        /* \"#utility.yul\":1121:1153   */\n      slt\n        /* \"#utility.yul\":1118:1237   */\n      iszero\n      tag_170\n      jumpi\n        /* \"#utility.yul\":1156:1235   */\n      tag_171\n      tag_119\n      jump\t// in\n    tag_171:\n        /* \"#utility.yul\":1118:1237   */\n    tag_170:\n        /* \"#utility.yul\":1276:1277   */\n      0x00\n        /* \"#utility.yul\":1301:1354   */\n      tag_172\n        /* \"#utility.yul\":1346:1353   */\n      dup5\n        /* \"#utility.yul\":1337:1343   */\n      dup3\n        /* \"#utility.yul\":1326:1335   */\n      dup6\n        /* \"#utility.yul\":1322:1344   */\n      add\n        /* \"#utility.yul\":1301:1354   */\n      tag_122\n      jump\t// in\n    tag_172:\n        /* \"#utility.yul\":1291:1354   */\n      swap2\n      pop\n        /* \"#utility.yul\":1247:1364   */\n      pop\n        /* \"#utility.yul\":1042:1371   */\n      swap3\n      swap2\n      pop\n      pop\n      jump\t// out\n        /* \"#utility.yul\":1377:1476   */\n    tag_123:\n        /* \"#utility.yul\":1429:1435   */\n      0x00\n        /* \"#utility.yul\":1463:1468   */\n      dup2\n        /* \"#utility.yul\":1457:1469   */\n      mload\n        /* \"#utility.yul\":1447:1469   */\n      swap1\n      pop\n        /* \"#utility.yul\":1377:1476   */\n      swap2\n      swap1\n      pop\n      jump\t// out\n        /* \"#utility.yul\":1482:1651   */\n    tag_124:\n        /* \"#utility.yul\":1566:1577   */\n      0x00\n        /* \"#utility.yul\":1600:1606   */\n      dup3\n        /* \"#utility.yul\":1595:1598   */\n      dup3\n        /* \"#utility.yul\":1588:1607   */\n      mstore\n        /* \"#utility.yul\":1640:1644   */\n      0x20\n        /* \"#utility.yul\":1635:1638   */\n      dup3\n        /* \"#utility.yul\":1631:1645   */\n      add\n        /* \"#utility.yul\":1616:1645   */\n      swap1\n      pop\n        /* \"#utility.yul\":1482:1651   */\n      swap3\n      swap2\n      pop\n      pop\n      jump\t// out\n        /* \"#utility.yul\":1657:1964   */\n    tag_125:\n        /* \"#utility.yul\":1725:1726   */\n      0x00\n        /* \"#utility.yul\":1735:1848   */\n    tag_176:\n        /* \"#utility.yul\":1749:1755   */\n      dup4\n        /* \"#utility.yul\":1746:1747   */\n      dup2\n        /* \"#utility.yul\":1743:1756   */\n      lt\n        /* \"#utility.yul\":1735:1848   */\n      iszero\n      tag_178\n      jumpi\n        /* \"#utility.yul\":1834:1835   */\n      dup1\n        /* \"#utility.yul\":1829:1832   */\n      dup3\n        /* \"#utility.yul\":1825:1836   */\n      add\n        /* \"#utility.yul\":1819:1837   */\n      mload\n        /* \"#utility.yul\":1815:1816   */\n      dup2\n        /* \"#utility.yul\":1810:1813   */\n      dup5\n        /* \"#utility.yul\":1806:1817   */\n      add\n        /* \"#utility.yul\":1799:1838   */\n      mstore\n        /* \"#utility.yul\":1771:1773   */\n      0x20\n        /* \"#utility.yul\":1768:1769   */\n      dup2\n        /* \"#utility.yul\":1764:1774   */\n      add\n        /* \"#utility.yul\":1759:1774   */\n      swap1\n      pop\n        /* \"#utility.yul\":1735:1848   */\n      jump(tag_176)\n    tag_178:\n        /* \"#utility.yul\":1866:1872   */\n      dup4\n        /* \"#utility.yul\":1863:1864   */\n      dup2\n        /* \"#utility.yul\":1860:1873   */\n      gt\n        /* \"#utility.yul\":1857:1958   */\n      iszero\n      tag_179\n      jumpi\n        /* \"#utility.yul\":1946:1947   */\n      0x00\n        /* \"#utility.yul\":1937:1943   */\n      dup5\n        /* \"#utility.yul\":1932:1935   */\n      dup5\n        /* \"#utility.yul\":1928:1944   */\n      add\n        /* \"#utility.yul\":1921:1948   */\n      mstore\n        /* \"#utility.yul\":1857:1958   */\n    tag_179:\n        /* \"#utility.yul\":1706:1964   */\n      pop\n        /* \"#utility.yul\":1657:1964   */\n      pop\n      pop\n      pop\n      jump\t// out\n        /* \"#utility.yul\":1970:2072   */\n    tag_126:\n        /* \"#utility.yul\":2011:2017   */\n      0x00\n        /* \"#utility.yul\":2062:2064   */\n      0x1f\n        /* \"#utility.yul\":2058:2065   */\n      not\n        /* \"#utility.yul\":2053:2055   */\n      0x1f\n        /* \"#utility.yul\":2046:2051   */\n      dup4\n        /* \"#utility.yul\":2042:2056   */\n      add\n        /* \"#utility.yul\":2038:2066   */\n      and\n        /* \"#utility.yul\":2028:2066   */\n      swap1\n      pop\n        /* \"#utility.yul\":1970:2072   */\n      swap2\n      swap1\n      pop\n      jump\t// out\n        /* \"#utility.yul\":2078:2442   */\n    tag_127:\n        /* \"#utility.yul\":2166:2169   */\n      0x00\n        /* \"#utility.yul\":2194:2233   */\n      tag_182\n        /* \"#utility.yul\":2227:2232   */\n      dup3\n        /* \"#utility.yul\":2194:2233   */\n      tag_123\n      jump\t// in\n    tag_182:\n        /* \"#utility.yul\":2249:2320   */\n      tag_183\n        /* \"#utility.yul\":2313:2319   */\n      dup2\n        /* \"#utility.yul\":2308:2311   */\n      dup6\n        /* \"#utility.yul\":2249:2320   */\n      tag_124\n      jump\t// in\n    tag_183:\n        /* \"#utility.yul\":2242:2320   */\n      swap4\n      pop\n        /* \"#utility.yul\":2329:2381   */\n      tag_184\n        /* \"#utility.yul\":2374:2380   */\n      dup2\n        /* \"#utility.yul\":2369:2372   */\n      dup6\n        /* \"#utility.yul\":2362:2366   */\n      0x20\n        /* \"#utility.yul\":2355:2360   */\n      dup7\n        /* \"#utility.yul\":2351:2367   */\n      add\n        /* \"#utility.yul\":2329:2381   */\n      tag_125\n      jump\t// in\n    tag_184:\n        /* \"#utility.yul\":2406:2435   */\n      tag_185\n        /* \"#utility.yul\":2428:2434   */\n      dup2\n        /* \"#utility.yul\":2406:2435   */\n      tag_126\n      jump\t// in\n    tag_185:\n        /* \"#utility.yul\":2401:2404   */\n      dup5\n        /* \"#utility.yul\":2397:2436   */\n      add\n        /* \"#utility.yul\":2390:2436   */\n      swap2\n      pop\n        /* \"#utility.yul\":2170:2442   */\n      pop\n        /* \"#utility.yul\":2078:2442   */\n      swap3\n      swap2\n      pop\n      pop\n      jump\t// out\n        /* \"#utility.yul\":2448:2761   */\n    tag_27:\n        /* \"#utility.yul\":2561:2565   */\n      0x00\n        /* \"#utility.yul\":2599:2601   */\n      0x20\n        /* \"#utility.yul\":2588:2597   */\n      dup3\n        /* \"#utility.yul\":2584:2602   */\n      add\n        /* \"#utility.yul\":2576:2602   */\n      swap1\n      pop\n        /* \"#utility.yul\":2648:2657   */\n      dup2\n        /* \"#utility.yul\":2642:2646   */\n      dup2\n        /* \"#utility.yul\":2638:2658   */\n      sub\n        /* \"#utility.yul\":2634:2635   */\n      0x00\n        /* \"#utility.yul\":2623:2632   */\n      dup4\n        /* \"#utility.yul\":2619:2636   */\n      add\n        /* \"#utility.yul\":2612:2659   */\n      mstore\n        /* \"#utility.yul\":2676:2754   */\n      tag_187\n        /* \"#utility.yul\":2749:2753   */\n      dup2\n        /* \"#utility.yul\":2740:2746   */\n      dup5\n        /* \"#utility.yul\":2676:2754   */\n      tag_127\n      jump\t// in\n    tag_187:\n        /* \"#utility.yul\":2668:2754   */\n      swap1\n      pop\n        /* \"#utility.yul\":2448:2761   */\n      swap3\n      swap2\n      pop\n      pop\n      jump\t// out\n        /* \"#utility.yul\":2767:2893   */\n    tag_128:\n        /* \"#utility.yul\":2804:2811   */\n      0x00\n        /* \"#utility.yul\":2844:2886   */\n      0xffffffffffffffffffffffffffffffffffffffff\n        /* \"#utility.yul\":2837:2842   */\n      dup3\n        /* \"#utility.yul\":2833:2887   */\n      and\n        /* \"#utility.yul\":2822:2887   */\n      swap1\n      pop\n        /* \"#utility.yul\":2767:2893   */\n      swap2\n      swap1\n      pop\n      jump\t// out\n        /* \"#utility.yul\":2899:2995   */\n    tag_129:\n        /* \"#utility.yul\":2936:2943   */\n      0x00\n        /* \"#utility.yul\":2965:2989   */\n      tag_190\n        /* \"#utility.yul\":2983:2988   */\n      dup3\n        /* \"#utility.yul\":2965:2989   */\n      tag_128\n      jump\t// in\n    tag_190:\n        /* \"#utility.yul\":2954:2989   */\n      swap1\n      pop\n        /* \"#utility.yul\":2899:2995   */\n      swap2\n      swap1\n      pop\n      jump\t// out\n        /* \"#utility.yul\":3001:3119   */\n    tag_130:\n        /* \"#utility.yul\":3088:3112   */\n      tag_192\n        /* \"#utility.yul\":3106:3111   */\n      dup2\n        /* \"#utility.yul\":3088:3112   */\n      tag_129\n      jump\t// in\n    tag_192:\n        /* \"#utility.yul\":3083:3086   */\n      dup3\n        /* \"#utility.yul\":3076:3113   */\n      mstore\n        /* \"#utility.yul\":3001:3119   */\n      pop\n      pop\n      jump\t// out\n        /* \"#utility.yul\":3125:3457   */\n    tag_32:\n        /* \"#utility.yul\":3246:3250   */\n      0x00\n        /* \"#utility.yul\":3284:3286   */\n      0x40\n        /* \"#utility.yul\":3273:3282   */\n      dup3\n        /* \"#utility.yul\":3269:3287   */\n      add\n        /* \"#utility.yul\":3261:3287   */\n      swap1\n      pop\n        /* \"#utility.yul\":3297:3368   */\n      tag_194\n        /* \"#utility.yul\":3365:3366   */\n      0x00\n        /* \"#utility.yul\":3354:3363   */\n      dup4\n        /* \"#utility.yul\":3350:3367   */\n      add\n        /* \"#utility.yul\":3341:3347   */\n      dup6\n        /* \"#utility.yul\":3297:3368   */\n      tag_130\n      jump\t// in\n    tag_194:\n        /* \"#utility.yul\":3378:3450   */\n      tag_195\n        /* \"#utility.yul\":3446:3448   */\n      0x20\n        /* \"#utility.yul\":3435:3444   */\n      dup4\n        /* \"#utility.yul\":3431:3449   */\n      add\n        /* \"#utility.yul\":3422:3428   */\n      dup5\n        /* \"#utility.yul\":3378:3450   */\n      tag_117\n      jump\t// in\n    tag_195:\n        /* \"#utility.yul\":3125:3457   */\n      swap4\n      swap3\n      pop\n      pop\n      pop\n      jump\t// out\n        /* \"#utility.yul\":3463:3685   */\n    tag_36:\n        /* \"#utility.yul\":3556:3560   */\n      0x00\n        /* \"#utility.yul\":3594:3596   */\n      0x20\n        /* \"#utility.yul\":3583:3592   */\n      dup3\n        /* \"#utility.yul\":3579:3597   */\n      add\n        /* \"#utility.yul\":3571:3597   */\n      swap1\n      pop\n        /* \"#utility.yul\":3607:3678   */\n      tag_197\n        /* \"#utility.yul\":3675:3676   */\n      0x00\n        /* \"#utility.yul\":3664:3673   */\n      dup4\n        /* \"#utility.yul\":3660:3677   */\n      add\n        /* \"#utility.yul\":3651:3657   */\n      dup5\n        /* \"#utility.yul\":3607:3678   */\n      tag_130\n      jump\t// in\n    tag_197:\n        /* \"#utility.yul\":3463:3685   */\n      swap3\n      swap2\n      pop\n      pop\n      jump\t// out\n        /* \"#utility.yul\":3691:3808   */\n    tag_131:\n        /* \"#utility.yul\":3800:3801   */\n      0x00\n        /* \"#utility.yul\":3797:3798   */\n      dup1\n        /* \"#utility.yul\":3790:3802   */\n      revert\n        /* \"#utility.yul\":3814:3931   */\n    tag_132:\n        /* \"#utility.yul\":3923:3924   */\n      0x00\n        /* \"#utility.yul\":3920:3921   */\n      dup1\n        /* \"#utility.yul\":3913:3925   */\n      revert\n        /* \"#utility.yul\":3937:4117   */\n    tag_133:\n        /* \"#utility.yul\":3985:4062   */\n      0x4e487b7100000000000000000000000000000000000000000000000000000000\n        /* \"#utility.yul\":3982:3983   */\n      0x00\n        /* \"#utility.yul\":3975:4063   */\n      mstore\n        /* \"#utility.yul\":4082:4086   */\n      0x41\n        /* \"#utility.yul\":4079:4080   */\n      0x04\n        /* \"#utility.yul\":4072:4087   */\n      mstore\n        /* \"#utility.yul\":4106:4110   */\n      0x24\n        /* \"#utility.yul\":4103:4104   */\n      0x00\n        /* \"#utility.yul\":4096:4111   */\n      revert\n        /* \"#utility.yul\":4123:4404   */\n    tag_134:\n        /* \"#utility.yul\":4206:4233   */\n      tag_202\n        /* \"#utility.yul\":4228:4232   */\n      dup3\n        /* \"#utility.yul\":4206:4233   */\n      tag_126\n      jump\t// in\n    tag_202:\n        /* \"#utility.yul\":4198:4204   */\n      dup2\n        /* \"#utility.yul\":4194:4234   */\n      add\n        /* \"#utility.yul\":4336:4342   */\n      dup2\n        /* \"#utility.yul\":4324:4334   */\n      dup2\n        /* \"#utility.yul\":4321:4343   */\n      lt\n        /* \"#utility.yul\":4300:4318   */\n      0xffffffffffffffff\n        /* \"#utility.yul\":4288:4298   */\n      dup3\n        /* \"#utility.yul\":4285:4319   */\n      gt\n        /* \"#utility.yul\":4282:4344   */\n      or\n        /* \"#utility.yul\":4279:4367   */\n      iszero\n      tag_203\n      jumpi\n        /* \"#utility.yul\":4347:4365   */\n      tag_204\n      tag_133\n      jump\t// in\n    tag_204:\n        /* \"#utility.yul\":4279:4367   */\n    tag_203:\n        /* \"#utility.yul\":4387:4397   */\n      dup1\n        /* \"#utility.yul\":4383:4385   */\n      0x40\n        /* \"#utility.yul\":4376:4398   */\n      mstore\n        /* \"#utility.yul\":4166:4404   */\n      pop\n        /* \"#utility.yul\":4123:4404   */\n      pop\n      pop\n      jump\t// out\n        /* \"#utility.yul\":4410:4539   */\n    tag_135:\n        /* \"#utility.yul\":4444:4450   */\n      0x00\n        /* \"#utility.yul\":4471:4491   */\n      tag_206\n      tag_118\n      jump\t// in\n    tag_206:\n        /* \"#utility.yul\":4461:4491   */\n      swap1\n      pop\n        /* \"#utility.yul\":4500:4533   */\n      tag_207\n        /* \"#utility.yul\":4528:4532   */\n      dup3\n        /* \"#utility.yul\":4520:4526   */\n      dup3\n        /* \"#utility.yul\":4500:4533   */\n      tag_134\n      jump\t// in\n    tag_207:\n        /* \"#utility.yul\":4410:4539   */\n      swap2\n      swap1\n      pop\n      jump\t// out\n        /* \"#utility.yul\":4545:4853   */\n    tag_136:\n        /* \"#utility.yul\":4607:4611   */\n      0x00\n        /* \"#utility.yul\":4697:4715   */\n      0xffffffffffffffff\n        /* \"#utility.yul\":4689:4695   */\n      dup3\n        /* \"#utility.yul\":4686:4716   */\n      gt\n        /* \"#utility.yul\":4683:4739   */\n      iszero\n      tag_209\n      jumpi\n        /* \"#utility.yul\":4719:4737   */\n      tag_210\n      tag_133\n      jump\t// in\n    tag_210:\n        /* \"#utility.yul\":4683:4739   */\n    tag_209:\n        /* \"#utility.yul\":4757:4786   */\n      tag_211\n        /* \"#utility.yul\":4779:4785   */\n      dup3\n        /* \"#utility.yul\":4757:4786   */\n      tag_126\n      jump\t// in\n    tag_211:\n        /* \"#utility.yul\":4749:4786   */\n      swap1\n      pop\n        /* \"#utility.yul\":4841:4845   */\n      0x20\n        /* \"#utility.yul\":4835:4839   */\n      dup2\n        /* \"#utility.yul\":4831:4846   */\n      add\n        /* \"#utility.yul\":4823:4846   */\n      swap1\n      pop\n        /* \"#utility.yul\":4545:4853   */\n      swap2\n      swap1\n      pop\n      jump\t// out\n        /* \"#utility.yul\":4859:5013   */\n    tag_137:\n        /* \"#utility.yul\":4943:4949   */\n      dup3\n        /* \"#utility.yul\":4938:4941   */\n      dup2\n        /* \"#utility.yul\":4933:4936   */\n      dup4\n        /* \"#utility.yul\":4920:4950   */\n      calldatacopy\n        /* \"#utility.yul\":5005:5006   */\n      0x00\n        /* \"#utility.yul\":4996:5002   */\n      dup4\n        /* \"#utility.yul\":4991:4994   */\n      dup4\n        /* \"#utility.yul\":4987:5003   */\n      add\n        /* \"#utility.yul\":4980:5007   */\n      mstore\n        /* \"#utility.yul\":4859:5013   */\n      pop\n      pop\n      pop\n      jump\t// out\n        /* \"#utility.yul\":5019:5431   */\n    tag_138:\n        /* \"#utility.yul\":5097:5102   */\n      0x00\n        /* \"#utility.yul\":5122:5188   */\n      tag_214\n        /* \"#utility.yul\":5138:5187   */\n      tag_215\n        /* \"#utility.yul\":5180:5186   */\n      dup5\n        /* \"#utility.yul\":5138:5187   */\n      tag_136\n      jump\t// in\n    tag_215:\n        /* \"#utility.yul\":5122:5188   */\n      tag_135\n      jump\t// in\n    tag_214:\n        /* \"#utility.yul\":5113:5188   */\n      swap1\n      pop\n        /* \"#utility.yul\":5211:5217   */\n      dup3\n        /* \"#utility.yul\":5204:5209   */\n      dup2\n        /* \"#utility.yul\":5197:5218   */\n      mstore\n        /* \"#utility.yul\":5249:5253   */\n      0x20\n        /* \"#utility.yul\":5242:5247   */\n      dup2\n        /* \"#utility.yul\":5238:5254   */\n      add\n        /* \"#utility.yul\":5287:5290   */\n      dup5\n        /* \"#utility.yul\":5278:5284   */\n      dup5\n        /* \"#utility.yul\":5273:5276   */\n      dup5\n        /* \"#utility.yul\":5269:5285   */\n      add\n        /* \"#utility.yul\":5266:5291   */\n      gt\n        /* \"#utility.yul\":5263:5375   */\n      iszero\n      tag_216\n      jumpi\n        /* \"#utility.yul\":5294:5373   */\n      tag_217\n      tag_132\n      jump\t// in\n    tag_217:\n        /* \"#utility.yul\":5263:5375   */\n    tag_216:\n        /* \"#utility.yul\":5384:5425   */\n      tag_218\n        /* \"#utility.yul\":5418:5424   */\n      dup5\n        /* \"#utility.yul\":5413:5416   */\n      dup3\n        /* \"#utility.yul\":5408:5411   */\n      dup6\n        /* \"#utility.yul\":5384:5425   */\n      tag_137\n      jump\t// in\n    tag_218:\n        /* \"#utility.yul\":5103:5431   */\n      pop\n        /* \"#utility.yul\":5019:5431   */\n      swap4\n      swap3\n      pop\n      pop\n      pop\n      jump\t// out\n        /* \"#utility.yul\":5451:5791   */\n    tag_139:\n        /* \"#utility.yul\":5507:5512   */\n      0x00\n        /* \"#utility.yul\":5556:5559   */\n      dup3\n        /* \"#utility.yul\":5549:5553   */\n      0x1f\n        /* \"#utility.yul\":5541:5547   */\n      dup4\n        /* \"#utility.yul\":5537:5554   */\n      add\n        /* \"#utility.yul\":5533:5560   */\n      slt\n        /* \"#utility.yul\":5523:5645   */\n      tag_220\n      jumpi\n        /* \"#utility.yul\":5564:5643   */\n      tag_221\n      tag_131\n      jump\t// in\n    tag_221:\n        /* \"#utility.yul\":5523:5645   */\n    tag_220:\n        /* \"#utility.yul\":5681:5687   */\n      dup2\n        /* \"#utility.yul\":5668:5688   */\n      calldataload\n        /* \"#utility.yul\":5706:5785   */\n      tag_222\n        /* \"#utility.yul\":5781:5784   */\n      dup5\n        /* \"#utility.yul\":5773:5779   */\n      dup3\n        /* \"#utility.yul\":5766:5770   */\n      0x20\n        /* \"#utility.yul\":5758:5764   */\n      dup7\n        /* \"#utility.yul\":5754:5771   */\n      add\n        /* \"#utility.yul\":5706:5785   */\n      tag_138\n      jump\t// in\n    tag_222:\n        /* \"#utility.yul\":5697:5785   */\n      swap2\n      pop\n        /* \"#utility.yul\":5513:5791   */\n      pop\n        /* \"#utility.yul\":5451:5791   */\n      swap3\n      swap2\n      pop\n      pop\n      jump\t// out\n        /* \"#utility.yul\":5797:6306   */\n    tag_39:\n        /* \"#utility.yul\":5866:5872   */\n      0x00\n        /* \"#utility.yul\":5915:5917   */\n      0x20\n        /* \"#utility.yul\":5903:5912   */\n      dup3\n        /* \"#utility.yul\":5894:5901   */\n      dup5\n        /* \"#utility.yul\":5890:5913   */\n      sub\n        /* \"#utility.yul\":5886:5918   */\n      slt\n        /* \"#utility.yul\":5883:6002   */\n      iszero\n      tag_224\n      jumpi\n        /* \"#utility.yul\":5921:6000   */\n      tag_225\n      tag_119\n      jump\t// in\n    tag_225:\n        /* \"#utility.yul\":5883:6002   */\n    tag_224:\n        /* \"#utility.yul\":6069:6070   */\n      0x00\n        /* \"#utility.yul\":6058:6067   */\n      dup3\n        /* \"#utility.yul\":6054:6071   */\n      add\n        /* \"#utility.yul\":6041:6072   */\n      calldataload\n        /* \"#utility.yul\":6099:6117   */\n      0xffffffffffffffff\n        /* \"#utility.yul\":6091:6097   */\n      dup2\n        /* \"#utility.yul\":6088:6118   */\n      gt\n        /* \"#utility.yul\":6085:6202   */\n      iszero\n      tag_226\n      jumpi\n        /* \"#utility.yul\":6121:6200   */\n      tag_227\n      tag_120\n      jump\t// in\n    tag_227:\n        /* \"#utility.yul\":6085:6202   */\n    tag_226:\n        /* \"#utility.yul\":6226:6289   */\n      tag_228\n        /* \"#utility.yul\":6281:6288   */\n      dup5\n        /* \"#utility.yul\":6272:6278   */\n      dup3\n        /* \"#utility.yul\":6261:6270   */\n      dup6\n        /* \"#utility.yul\":6257:6279   */\n      add\n        /* \"#utility.yul\":6226:6289   */\n      tag_139\n      jump\t// in\n    tag_228:\n        /* \"#utility.yul\":6216:6289   */\n      swap2\n      pop\n        /* \"#utility.yul\":6012:6299   */\n      pop\n        /* \"#utility.yul\":5797:6306   */\n      swap3\n      swap2\n      pop\n      pop\n      jump\t// out\n        /* \"#utility.yul\":6312:6492   */\n    tag_56:\n        /* \"#utility.yul\":6360:6437   */\n      0x4e487b7100000000000000000000000000000000000000000000000000000000\n        /* \"#utility.yul\":6357:6358   */\n      0x00\n        /* \"#utility.yul\":6350:6438   */\n      mstore\n        /* \"#utility.yul\":6457:6461   */\n      0x32\n        /* \"#utility.yul\":6454:6455   */\n      0x04\n        /* \"#utility.yul\":6447:6462   */\n      mstore\n        /* \"#utility.yul\":6481:6485   */\n      0x24\n        /* \"#utility.yul\":6478:6479   */\n      0x00\n        /* \"#utility.yul\":6471:6486   */\n      revert\n        /* \"#utility.yul\":6498:6678   */\n    tag_140:\n        /* \"#utility.yul\":6546:6623   */\n      0x4e487b7100000000000000000000000000000000000000000000000000000000\n        /* \"#utility.yul\":6543:6544   */\n      0x00\n        /* \"#utility.yul\":6536:6624   */\n      mstore\n        /* \"#utility.yul\":6643:6647   */\n      0x22\n        /* \"#utility.yul\":6640:6641   */\n      0x04\n        /* \"#utility.yul\":6633:6648   */\n      mstore\n        /* \"#utility.yul\":6667:6671   */\n      0x24\n        /* \"#utility.yul\":6664:6665   */\n      0x00\n        /* \"#utility.yul\":6657:6672   */\n      revert\n        /* \"#utility.yul\":6684:7004   */\n    tag_61:\n        /* \"#utility.yul\":6728:6734   */\n      0x00\n        /* \"#utility.yul\":6765:6766   */\n      0x02\n        /* \"#utility.yul\":6759:6763   */\n      dup3\n        /* \"#utility.yul\":6755:6767   */\n      div\n        /* \"#utility.yul\":6745:6767   */\n      swap1\n      pop\n        /* \"#utility.yul\":6812:6813   */\n      0x01\n        /* \"#utility.yul\":6806:6810   */\n      dup3\n        /* \"#utility.yul\":6802:6814   */\n      and\n        /* \"#utility.yul\":6833:6851   */\n      dup1\n        /* \"#utility.yul\":6823:6904   */\n      tag_232\n      jumpi\n        /* \"#utility.yul\":6889:6893   */\n      0x7f\n        /* \"#utility.yul\":6881:6887   */\n      dup3\n        /* \"#utility.yul\":6877:6894   */\n      and\n        /* \"#utility.yul\":6867:6894   */\n      swap2\n      pop\n        /* \"#utility.yul\":6823:6904   */\n    tag_232:\n        /* \"#utility.yul\":6951:6953   */\n      0x20\n        /* \"#utility.yul\":6943:6949   */\n      dup3\n        /* \"#utility.yul\":6940:6954   */\n      lt\n        /* \"#utility.yul\":6920:6938   */\n      dup2\n        /* \"#utility.yul\":6917:6955   */\n      eq\n        /* \"#utility.yul\":6914:6998   */\n      iszero\n      tag_233\n      jumpi\n        /* \"#utility.yul\":6970:6988   */\n      tag_234\n      tag_140\n      jump\t// in\n    tag_234:\n        /* \"#utility.yul\":6914:6998   */\n    tag_233:\n        /* \"#utility.yul\":6735:7004   */\n      pop\n        /* \"#utility.yul\":6684:7004   */\n      swap2\n      swap1\n      pop\n      jump\t// out\n        /* \"#utility.yul\":7010:7096   */\n    tag_141:\n        /* \"#utility.yul\":7045:7052   */\n      0x00\n        /* \"#utility.yul\":7085:7089   */\n      0xff\n        /* \"#utility.yul\":7078:7083   */\n      dup3\n        /* \"#utility.yul\":7074:7090   */\n      and\n        /* \"#utility.yul\":7063:7090   */\n      swap1\n      pop\n        /* \"#utility.yul\":7010:7096   */\n      swap2\n      swap1\n      pop\n      jump\t// out\n        /* \"#utility.yul\":7102:7220   */\n    tag_142:\n        /* \"#utility.yul\":7173:7195   */\n      tag_237\n        /* \"#utility.yul\":7189:7194   */\n      dup2\n        /* \"#utility.yul\":7173:7195   */\n      tag_141\n      jump\t// in\n    tag_237:\n        /* \"#utility.yul\":7166:7171   */\n      dup2\n        /* \"#utility.yul\":7163:7196   */\n      eq\n        /* \"#utility.yul\":7153:7214   */\n      tag_238\n      jumpi\n        /* \"#utility.yul\":7210:7211   */\n      0x00\n        /* \"#utility.yul\":7207:7208   */\n      dup1\n        /* \"#utility.yul\":7200:7212   */\n      revert\n        /* \"#utility.yul\":7153:7214   */\n    tag_238:\n        /* \"#utility.yul\":7102:7220   */\n      pop\n      jump\t// out\n        /* \"#utility.yul\":7226:7365   */\n    tag_143:\n        /* \"#utility.yul\":7281:7286   */\n      0x00\n        /* \"#utility.yul\":7312:7318   */\n      dup2\n        /* \"#utility.yul\":7306:7319   */\n      mload\n        /* \"#utility.yul\":7297:7319   */\n      swap1\n      pop\n        /* \"#utility.yul\":7328:7359   */\n      tag_240\n        /* \"#utility.yul\":7353:7358   */\n      dup2\n        /* \"#utility.yul\":7328:7359   */\n      tag_142\n      jump\t// in\n    tag_240:\n        /* \"#utility.yul\":7226:7365   */\n      swap3\n      swap2\n      pop\n      pop\n      jump\t// out\n        /* \"#utility.yul\":7371:7718   */\n    tag_74:\n        /* \"#utility.yul\":7439:7445   */\n      0x00\n        /* \"#utility.yul\":7488:7490   */\n      0x20\n        /* \"#utility.yul\":7476:7485   */\n      dup3\n        /* \"#utility.yul\":7467:7474   */\n      dup5\n        /* \"#utility.yul\":7463:7486   */\n      sub\n        /* \"#utility.yul\":7459:7491   */\n      slt\n        /* \"#utility.yul\":7456:7575   */\n      iszero\n      tag_242\n      jumpi\n        /* \"#utility.yul\":7494:7573   */\n      tag_243\n      tag_119\n      jump\t// in\n    tag_243:\n        /* \"#utility.yul\":7456:7575   */\n    tag_242:\n        /* \"#utility.yul\":7614:7615   */\n      0x00\n        /* \"#utility.yul\":7639:7701   */\n      tag_244\n        /* \"#utility.yul\":7693:7700   */\n      dup5\n        /* \"#utility.yul\":7684:7690   */\n      dup3\n        /* \"#utility.yul\":7673:7682   */\n      dup6\n        /* \"#utility.yul\":7669:7691   */\n      add\n        /* \"#utility.yul\":7639:7701   */\n      tag_143\n      jump\t// in\n    tag_244:\n        /* \"#utility.yul\":7629:7701   */\n      swap2\n      pop\n        /* \"#utility.yul\":7585:7711   */\n      pop\n        /* \"#utility.yul\":7371:7718   */\n      swap3\n      swap2\n      pop\n      pop\n      jump\t// out\n        /* \"#utility.yul\":7724:7983   */\n    tag_144:\n        /* \"#utility.yul\":7809:7813   */\n      0x00\n        /* \"#utility.yul\":7899:7917   */\n      0xffffffffffffffff\n        /* \"#utility.yul\":7891:7897   */\n      dup3\n        /* \"#utility.yul\":7888:7918   */\n      gt\n        /* \"#utility.yul\":7885:7941   */\n      iszero\n      tag_246\n      jumpi\n        /* \"#utility.yul\":7921:7939   */\n      tag_247\n      tag_133\n      jump\t// in\n    tag_247:\n        /* \"#utility.yul\":7885:7941   */\n    tag_246:\n        /* \"#utility.yul\":7971:7975   */\n      0x20\n        /* \"#utility.yul\":7963:7969   */\n      dup3\n        /* \"#utility.yul\":7959:7976   */\n      mul\n        /* \"#utility.yul\":7951:7976   */\n      swap1\n      pop\n        /* \"#utility.yul\":7724:7983   */\n      swap2\n      swap1\n      pop\n      jump\t// out\n        /* \"#utility.yul\":7989:8106   */\n    tag_145:\n        /* \"#utility.yul\":8098:8099   */\n      0x00\n        /* \"#utility.yul\":8095:8096   */\n      dup1\n        /* \"#utility.yul\":8088:8100   */\n      revert\n        /* \"#utility.yul\":8112:8533   */\n    tag_146:\n        /* \"#utility.yul\":8201:8206   */\n      0x00\n        /* \"#utility.yul\":8226:8292   */\n      tag_250\n        /* \"#utility.yul\":8242:8291   */\n      tag_251\n        /* \"#utility.yul\":8284:8290   */\n      dup5\n        /* \"#utility.yul\":8242:8291   */\n      tag_136\n      jump\t// in\n    tag_251:\n        /* \"#utility.yul\":8226:8292   */\n      tag_135\n      jump\t// in\n    tag_250:\n        /* \"#utility.yul\":8217:8292   */\n      swap1\n      pop\n        /* \"#utility.yul\":8315:8321   */\n      dup3\n        /* \"#utility.yul\":8308:8313   */\n      dup2\n        /* \"#utility.yul\":8301:8322   */\n      mstore\n        /* \"#utility.yul\":8353:8357   */\n      0x20\n        /* \"#utility.yul\":8346:8351   */\n      dup2\n        /* \"#utility.yul\":8342:8358   */\n      add\n        /* \"#utility.yul\":8391:8394   */\n      dup5\n        /* \"#utility.yul\":8382:8388   */\n      dup5\n        /* \"#utility.yul\":8377:8380   */\n      dup5\n        /* \"#utility.yul\":8373:8389   */\n      add\n        /* \"#utility.yul\":8370:8395   */\n      gt\n        /* \"#utility.yul\":8367:8479   */\n      iszero\n      tag_252\n      jumpi\n        /* \"#utility.yul\":8398:8477   */\n      tag_253\n      tag_132\n      jump\t// in\n    tag_253:\n        /* \"#utility.yul\":8367:8479   */\n    tag_252:\n        /* \"#utility.yul\":8488:8527   */\n      tag_254\n        /* \"#utility.yul\":8520:8526   */\n      dup5\n        /* \"#utility.yul\":8515:8518   */\n      dup3\n        /* \"#utility.yul\":8510:8513   */\n      dup6\n        /* \"#utility.yul\":8488:8527   */\n      tag_125\n      jump\t// in\n    tag_254:\n        /* \"#utility.yul\":8207:8533   */\n      pop\n        /* \"#utility.yul\":8112:8533   */\n      swap4\n      swap3\n      pop\n      pop\n      pop\n      jump\t// out\n        /* \"#utility.yul\":8553:8908   */\n    tag_147:\n        /* \"#utility.yul\":8620:8625   */\n      0x00\n        /* \"#utility.yul\":8669:8672   */\n      dup3\n        /* \"#utility.yul\":8662:8666   */\n      0x1f\n        /* \"#utility.yul\":8654:8660   */\n      dup4\n        /* \"#utility.yul\":8650:8667   */\n      add\n        /* \"#utility.yul\":8646:8673   */\n      slt\n        /* \"#utility.yul\":8636:8758   */\n      tag_256\n      jumpi\n        /* \"#utility.yul\":8677:8756   */\n      tag_257\n      tag_131\n      jump\t// in\n    tag_257:\n        /* \"#utility.yul\":8636:8758   */\n    tag_256:\n        /* \"#utility.yul\":8787:8793   */\n      dup2\n        /* \"#utility.yul\":8781:8794   */\n      mload\n        /* \"#utility.yul\":8812:8902   */\n      tag_258\n        /* \"#utility.yul\":8898:8901   */\n      dup5\n        /* \"#utility.yul\":8890:8896   */\n      dup3\n        /* \"#utility.yul\":8883:8887   */\n      0x20\n        /* \"#utility.yul\":8875:8881   */\n      dup7\n        /* \"#utility.yul\":8871:8888   */\n      add\n        /* \"#utility.yul\":8812:8902   */\n      tag_146\n      jump\t// in\n    tag_258:\n        /* \"#utility.yul\":8803:8902   */\n      swap2\n      pop\n        /* \"#utility.yul\":8626:8908   */\n      pop\n        /* \"#utility.yul\":8553:8908   */\n      swap3\n      swap2\n      pop\n      pop\n      jump\t// out\n        /* \"#utility.yul\":8931:9824   */\n    tag_148:\n        /* \"#utility.yul\":9046:9051   */\n      0x00\n        /* \"#utility.yul\":9071:9160   */\n      tag_260\n        /* \"#utility.yul\":9087:9159   */\n      tag_261\n        /* \"#utility.yul\":9152:9158   */\n      dup5\n        /* \"#utility.yul\":9087:9159   */\n      tag_144\n      jump\t// in\n    tag_261:\n        /* \"#utility.yul\":9071:9160   */\n      tag_135\n      jump\t// in\n    tag_260:\n        /* \"#utility.yul\":9062:9160   */\n      swap1\n      pop\n        /* \"#utility.yul\":9180:9185   */\n      dup1\n        /* \"#utility.yul\":9233:9237   */\n      0x20\n        /* \"#utility.yul\":9225:9231   */\n      dup5\n        /* \"#utility.yul\":9221:9238   */\n      mul\n        /* \"#utility.yul\":9213:9219   */\n      dup4\n        /* \"#utility.yul\":9209:9239   */\n      add\n        /* \"#utility.yul\":9262:9265   */\n      dup6\n        /* \"#utility.yul\":9254:9260   */\n      dup2\n        /* \"#utility.yul\":9251:9266   */\n      gt\n        /* \"#utility.yul\":9248:9370   */\n      iszero\n      tag_262\n      jumpi\n        /* \"#utility.yul\":9281:9360   */\n      tag_263\n      tag_145\n      jump\t// in\n    tag_263:\n        /* \"#utility.yul\":9248:9370   */\n    tag_262:\n        /* \"#utility.yul\":9396:9402   */\n      dup4\n        /* \"#utility.yul\":9379:9818   */\n    tag_264:\n        /* \"#utility.yul\":9413:9419   */\n      dup2\n        /* \"#utility.yul\":9408:9411   */\n      dup2\n        /* \"#utility.yul\":9405:9420   */\n      lt\n        /* \"#utility.yul\":9379:9818   */\n      iszero\n      tag_266\n      jumpi\n        /* \"#utility.yul\":9495:9498   */\n      dup1\n        /* \"#utility.yul\":9489:9499   */\n      mload\n        /* \"#utility.yul\":9531:9549   */\n      0xffffffffffffffff\n        /* \"#utility.yul\":9518:9529   */\n      dup2\n        /* \"#utility.yul\":9515:9550   */\n      gt\n        /* \"#utility.yul\":9512:9634   */\n      iszero\n      tag_267\n      jumpi\n        /* \"#utility.yul\":9553:9632   */\n      tag_268\n      tag_131\n      jump\t// in\n    tag_268:\n        /* \"#utility.yul\":9512:9634   */\n    tag_267:\n        /* \"#utility.yul\":9677:9688   */\n      dup1\n        /* \"#utility.yul\":9669:9675   */\n      dup7\n        /* \"#utility.yul\":9665:9689   */\n      add\n        /* \"#utility.yul\":9715:9773   */\n      tag_269\n        /* \"#utility.yul\":9769:9772   */\n      dup10\n        /* \"#utility.yul\":9757:9767   */\n      dup3\n        /* \"#utility.yul\":9715:9773   */\n      tag_147\n      jump\t// in\n    tag_269:\n        /* \"#utility.yul\":9710:9713   */\n      dup6\n        /* \"#utility.yul\":9703:9774   */\n      mstore\n        /* \"#utility.yul\":9803:9807   */\n      0x20\n        /* \"#utility.yul\":9798:9801   */\n      dup6\n        /* \"#utility.yul\":9794:9808   */\n      add\n        /* \"#utility.yul\":9787:9808   */\n      swap5\n      pop\n        /* \"#utility.yul\":9455:9818   */\n      pop\n      pop\n        /* \"#utility.yul\":9439:9443   */\n      0x20\n        /* \"#utility.yul\":9434:9437   */\n      dup2\n        /* \"#utility.yul\":9430:9444   */\n      add\n        /* \"#utility.yul\":9423:9444   */\n      swap1\n      pop\n        /* \"#utility.yul\":9379:9818   */\n      jump(tag_264)\n    tag_266:\n        /* \"#utility.yul\":9383:9404   */\n      pop\n        /* \"#utility.yul\":9052:9824   */\n      pop\n      pop\n        /* \"#utility.yul\":8931:9824   */\n      swap4\n      swap3\n      pop\n      pop\n      pop\n      jump\t// out\n        /* \"#utility.yul\":9847:10228   */\n    tag_149:\n        /* \"#utility.yul\":9937:9942   */\n      0x00\n        /* \"#utility.yul\":9986:9989   */\n      dup3\n        /* \"#utility.yul\":9979:9983   */\n      0x1f\n        /* \"#utility.yul\":9971:9977   */\n      dup4\n        /* \"#utility.yul\":9967:9984   */\n      add\n        /* \"#utility.yul\":9963:9990   */\n      slt\n        /* \"#utility.yul\":9953:10075   */\n      tag_271\n      jumpi\n        /* \"#utility.yul\":9994:10073   */\n      tag_272\n      tag_131\n      jump\t// in\n    tag_272:\n        /* \"#utility.yul\":9953:10075   */\n    tag_271:\n        /* \"#utility.yul\":10098:10102   */\n      0x03\n        /* \"#utility.yul\":10120:10222   */\n      tag_273\n        /* \"#utility.yul\":10218:10221   */\n      dup5\n        /* \"#utility.yul\":10210:10216   */\n      dup3\n        /* \"#utility.yul\":10202:10208   */\n      dup6\n        /* \"#utility.yul\":10120:10222   */\n      tag_148\n      jump\t// in\n    tag_273:\n        /* \"#utility.yul\":10111:10222   */\n      swap2\n      pop\n        /* \"#utility.yul\":9943:10228   */\n      pop\n        /* \"#utility.yul\":9847:10228   */\n      swap3\n      swap2\n      pop\n      pop\n      jump\t// out\n        /* \"#utility.yul\":10234:10804   */\n    tag_80:\n        /* \"#utility.yul\":10337:10343   */\n      0x00\n        /* \"#utility.yul\":10386:10388   */\n      0x20\n        /* \"#utility.yul\":10374:10383   */\n      dup3\n        /* \"#utility.yul\":10365:10372   */\n      dup5\n        /* \"#utility.yul\":10361:10384   */\n      sub\n        /* \"#utility.yul\":10357:10389   */\n      slt\n        /* \"#utility.yul\":10354:10473   */\n      iszero\n      tag_275\n      jumpi\n        /* \"#utility.yul\":10392:10471   */\n      tag_276\n      tag_119\n      jump\t// in\n    tag_276:\n        /* \"#utility.yul\":10354:10473   */\n    tag_275:\n        /* \"#utility.yul\":10533:10534   */\n      0x00\n        /* \"#utility.yul\":10522:10531   */\n      dup3\n        /* \"#utility.yul\":10518:10535   */\n      add\n        /* \"#utility.yul\":10512:10536   */\n      mload\n        /* \"#utility.yul\":10563:10581   */\n      0xffffffffffffffff\n        /* \"#utility.yul\":10555:10561   */\n      dup2\n        /* \"#utility.yul\":10552:10582   */\n      gt\n        /* \"#utility.yul\":10549:10666   */\n      iszero\n      tag_277\n      jumpi\n        /* \"#utility.yul\":10585:10664   */\n      tag_278\n      tag_120\n      jump\t// in\n    tag_278:\n        /* \"#utility.yul\":10549:10666   */\n    tag_277:\n        /* \"#utility.yul\":10690:10787   */\n      tag_279\n        /* \"#utility.yul\":10779:10786   */\n      dup5\n        /* \"#utility.yul\":10770:10776   */\n      dup3\n        /* \"#utility.yul\":10759:10768   */\n      dup6\n        /* \"#utility.yul\":10755:10777   */\n      add\n        /* \"#utility.yul\":10690:10787   */\n      tag_149\n      jump\t// in\n    tag_279:\n        /* \"#utility.yul\":10680:10787   */\n      swap2\n      pop\n        /* \"#utility.yul\":10483:10797   */\n      pop\n        /* \"#utility.yul\":10234:10804   */\n      swap3\n      swap2\n      pop\n      pop\n      jump\t// out\n        /* \"#utility.yul\":10810:10986   */\n    tag_150:\n        /* \"#utility.yul\":10950:10978   */\n      0x4e6f7420417574686f72697a65642c2041646d696e204f6e6c79000000000000\n        /* \"#utility.yul\":10946:10947   */\n      0x00\n        /* \"#utility.yul\":10938:10944   */\n      dup3\n        /* \"#utility.yul\":10934:10948   */\n      add\n        /* \"#utility.yul\":10927:10979   */\n      mstore\n        /* \"#utility.yul\":10810:10986   */\n      pop\n      jump\t// out\n        /* \"#utility.yul\":10992:11358   */\n    tag_151:\n        /* \"#utility.yul\":11134:11137   */\n      0x00\n        /* \"#utility.yul\":11155:11222   */\n      tag_282\n        /* \"#utility.yul\":11219:11221   */\n      0x1a\n        /* \"#utility.yul\":11214:11217   */\n      dup4\n        /* \"#utility.yul\":11155:11222   */\n      tag_124\n      jump\t// in\n    tag_282:\n        /* \"#utility.yul\":11148:11222   */\n      swap2\n      pop\n        /* \"#utility.yul\":11231:11324   */\n      tag_283\n        /* \"#utility.yul\":11320:11323   */\n      dup3\n        /* \"#utility.yul\":11231:11324   */\n      tag_150\n      jump\t// in\n    tag_283:\n        /* \"#utility.yul\":11349:11351   */\n      0x20\n        /* \"#utility.yul\":11344:11347   */\n      dup3\n        /* \"#utility.yul\":11340:11352   */\n      add\n        /* \"#utility.yul\":11333:11352   */\n      swap1\n      pop\n        /* \"#utility.yul\":10992:11358   */\n      swap2\n      swap1\n      pop\n      jump\t// out\n        /* \"#utility.yul\":11364:11783   */\n    tag_87:\n        /* \"#utility.yul\":11530:11534   */\n      0x00\n        /* \"#utility.yul\":11568:11570   */\n      0x20\n        /* \"#utility.yul\":11557:11566   */\n      dup3\n        /* \"#utility.yul\":11553:11571   */\n      add\n        /* \"#utility.yul\":11545:11571   */\n      swap1\n      pop\n        /* \"#utility.yul\":11617:11626   */\n      dup2\n        /* \"#utility.yul\":11611:11615   */\n      dup2\n        /* \"#utility.yul\":11607:11627   */\n      sub\n        /* \"#utility.yul\":11603:11604   */\n      0x00\n        /* \"#utility.yul\":11592:11601   */\n      dup4\n        /* \"#utility.yul\":11588:11605   */\n      add\n        /* \"#utility.yul\":11581:11628   */\n      mstore\n        /* \"#utility.yul\":11645:11776   */\n      tag_285\n        /* \"#utility.yul\":11771:11775   */\n      dup2\n        /* \"#utility.yul\":11645:11776   */\n      tag_151\n      jump\t// in\n    tag_285:\n        /* \"#utility.yul\":11637:11776   */\n      swap1\n      pop\n        /* \"#utility.yul\":11364:11783   */\n      swap2\n      swap1\n      pop\n      jump\t// out\n        /* \"#utility.yul\":11789:11969   */\n    tag_152:\n        /* \"#utility.yul\":11837:11914   */\n      0x4e487b7100000000000000000000000000000000000000000000000000000000\n        /* \"#utility.yul\":11834:11835   */\n      0x00\n        /* \"#utility.yul\":11827:11915   */\n      mstore\n        /* \"#utility.yul\":11934:11938   */\n      0x11\n        /* \"#utility.yul\":11931:11932   */\n      0x04\n        /* \"#utility.yul\":11924:11939   */\n      mstore\n        /* \"#utility.yul\":11958:11962   */\n      0x24\n        /* \"#utility.yul\":11955:11956   */\n      0x00\n        /* \"#utility.yul\":11948:11963   */\n      revert\n        /* \"#utility.yul\":11975:12208   */\n    tag_101:\n        /* \"#utility.yul\":12014:12017   */\n      0x00\n        /* \"#utility.yul\":12037:12061   */\n      tag_288\n        /* \"#utility.yul\":12055:12060   */\n      dup3\n        /* \"#utility.yul\":12037:12061   */\n      tag_116\n      jump\t// in\n    tag_288:\n        /* \"#utility.yul\":12028:12061   */\n      swap2\n      pop\n        /* \"#utility.yul\":12083:12149   */\n      0xffffffffffffffffffffffffffffffffffffffffffffffffffffffffffffffff\n        /* \"#utility.yul\":12076:12081   */\n      dup3\n        /* \"#utility.yul\":12073:12150   */\n      eq\n        /* \"#utility.yul\":12070:12173   */\n      iszero\n      tag_289\n      jumpi\n        /* \"#utility.yul\":12153:12171   */\n      tag_290\n      tag_152\n      jump\t// in\n    tag_290:\n        /* \"#utility.yul\":12070:12173   */\n    tag_289:\n        /* \"#utility.yul\":12200:12201   */\n      0x01\n        /* \"#utility.yul\":12193:12198   */\n      dup3\n        /* \"#utility.yul\":12189:12202   */\n      add\n        /* \"#utility.yul\":12182:12202   */\n      swap1\n      pop\n        /* \"#utility.yul\":11975:12208   */\n      swap2\n      swap1\n      pop\n      jump\t// out\n        /* \"#utility.yul\":12214:12376   */\n    tag_153:\n        /* \"#utility.yul\":12354:12368   */\n      0x4f7574206f66204c696d69740000000000000000000000000000000000000000\n        /* \"#utility.yul\":12350:12351   */\n      0x00\n        /* \"#utility.yul\":12342:12348   */\n      dup3\n        /* \"#utility.yul\":12338:12352   */\n      add\n        /* \"#utility.yul\":12331:12369   */\n      mstore\n        /* \"#utility.yul\":12214:12376   */\n      pop\n      jump\t// out\n        /* \"#utility.yul\":12382:12748   */\n    tag_154:\n        /* \"#utility.yul\":12524:12527   */\n      0x00\n        /* \"#utility.yul\":12545:12612   */\n      tag_293\n        /* \"#utility.yul\":12609:12611   */\n      0x0c\n        /* \"#utility.yul\":12604:12607   */\n      dup4\n        /* \"#utility.yul\":12545:12612   */\n      tag_124\n      jump\t// in\n    tag_293:\n        /* \"#utility.yul\":12538:12612   */\n      swap2\n      pop\n        /* \"#utility.yul\":12621:12714   */\n      tag_294\n        /* \"#utility.yul\":12710:12713   */\n      dup3\n        /* \"#utility.yul\":12621:12714   */\n      tag_153\n      jump\t// in\n    tag_294:\n        /* \"#utility.yul\":12739:12741   */\n      0x20\n        /* \"#utility.yul\":12734:12737   */\n      dup3\n        /* \"#utility.yul\":12730:12742   */\n      add\n        /* \"#utility.yul\":12723:12742   */\n      swap1\n      pop\n        /* \"#utility.yul\":12382:12748   */\n      swap2\n      swap1\n      pop\n      jump\t// out\n        /* \"#utility.yul\":12754:13173   */\n    tag_107:\n        /* \"#utility.yul\":12920:12924   */\n      0x00\n        /* \"#utility.yul\":12958:12960   */\n      0x20\n        /* \"#utility.yul\":12947:12956   */\n      dup3\n        /* \"#utility.yul\":12943:12961   */\n      add\n        /* \"#utility.yul\":12935:12961   */\n      swap1\n      pop\n        /* \"#utility.yul\":13007:13016   */\n      dup2\n        /* \"#utility.yul\":13001:13005   */\n      dup2\n        /* \"#utility.yul\":12997:13017   */\n      sub\n        /* \"#utility.yul\":12993:12994   */\n      0x00\n        /* \"#utility.yul\":12982:12991   */\n      dup4\n        /* \"#utility.yul\":12978:12995   */\n      add\n        /* \"#utility.yul\":12971:13018   */\n      mstore\n        /* \"#utility.yul\":13035:13166   */\n      tag_296\n        /* \"#utility.yul\":13161:13165   */\n      dup2\n        /* \"#utility.yul\":13035:13166   */\n      tag_154\n      jump\t// in\n    tag_296:\n        /* \"#utility.yul\":13027:13166   */\n      swap1\n      pop\n        /* \"#utility.yul\":12754:13173   */\n      swap2\n      swap1\n      pop\n      jump\t// out\n\n    auxdata: 0xa26469706673582212202ec3424b3e2622535dfab6affee1874b2db386b53be7fade9fa01474f014ee6d64736f6c63430008080033\n}\n",
				"bytecode": {
					"linkReferences": {},
					"object": "60806040527350c7a09925375438d2cee94c5c59266c6ffaaf8c6000806101000a81548173ffffffffffffffffffffffffffffffffffffffff021916908373ffffffffffffffffffffffffffffffffffffffff16021790555073dbddb8575f6bda11f1dc548a1b546463cc567c3d600160006101000a81548173ffffffffffffffffffffffffffffffffffffffff021916908373ffffffffffffffffffffffffffffffffffffffff1602179055506002600355348015620000bf57600080fd5b5033600260006101000a81548173ffffffffffffffffffffffffffffffffffffffff021916908373ffffffffffffffffffffffffffffffffffffffff16021790555060008054906101000a900473ffffffffffffffffffffffffffffffffffffffff1673ffffffffffffffffffffffffffffffffffffffff166348441d5f6040518163ffffffff1660e01b815260040160006040518083038186803b1580156200016857600080fd5b505afa1580156200017d573d6000803e3d6000fd5b505050506040513d6000823e3d601f19601f82011682018060405250810190620001a89190620005cd565b6004906003620001ba929190620001c1565b5062000683565b82805482825590600052602060002090810192821562000215579160200282015b82811115620002145782518290805190602001906200020392919062000228565b5091602001919060010190620001e2565b5b509050620002249190620002b9565b5090565b82805462000236906200064d565b90600052602060002090601f0160209004810192826200025a5760008555620002a6565b82601f106200027557805160ff1916838001178555620002a6565b82800160010185558215620002a6579182015b82811115620002a557825182559160200191906001019062000288565b5b509050620002b59190620002e1565b5090565b5b80821115620002dd5760008181620002d3919062000300565b50600101620002ba565b5090565b5b80821115620002fc576000816000905550600101620002e2565b5090565b5080546200030e906200064d565b6000825580601f1062000322575062000343565b601f016020900490600052602060002090810190620003429190620002e1565b5b50565b6000604051905090565b600080fd5b600080fd5b600080fd5b6000601f19601f8301169050919050565b7f4e487b7100000000000000000000000000000000000000000000000000000000600052604160045260246000fd5b620003aa826200035f565b810181811067ffffffffffffffff82111715620003cc57620003cb62000370565b5b80604052505050565b6000620003e162000346565b9050620003ef82826200039f565b919050565b600067ffffffffffffffff82111562000412576200041162000370565b5b602082029050919050565b600080fd5b600080fd5b600067ffffffffffffffff82111562000445576200044462000370565b5b62000450826200035f565b9050602081019050919050565b60005b838110156200047d57808201518184015260208101905062000460565b838111156200048d576000848401525b50505050565b6000620004aa620004a48462000427565b620003d5565b905082815260208101848484011115620004c957620004c862000422565b5b620004d68482856200045d565b509392505050565b600082601f830112620004f657620004f56200035a565b5b81516200050884826020860162000493565b91505092915050565b6000620005286200052284620003f4565b620003d5565b905080602084028301858111156200054557620005446200041d565b5b835b818110156200059357805167ffffffffffffffff8111156200056e576200056d6200035a565b5b8086016200057d8982620004de565b8552602085019450505060208101905062000547565b5050509392505050565b600082601f830112620005b557620005b46200035a565b5b6003620005c484828562000511565b91505092915050565b600060208284031215620005e657620005e562000350565b5b600082015167ffffffffffffffff81111562000607576200060662000355565b5b62000615848285016200059d565b91505092915050565b7f4e487b7100000000000000000000000000000000000000000000000000000000600052602260045260246000fd5b600060028204905060018216806200066657607f821691505b602082108114156200067d576200067c6200061e565b5b50919050565b61102b80620006936000396000f3fe608060405234801561001057600080fd5b506004361061009e5760003560e01c8063a7beb5d011610066578063a7beb5d014610170578063bb4a376b146101a0578063c15d3ead146101be578063e917ec96146101da578063fc6f9468146101e45761009e565b806306cd309b146100a35780635d73ab9a146100c15780636fd3d9e2146100f15780637259e0f8146101215780638f84aa0914610152575b600080fd5b6100ab610202565b6040516100b891906108dc565b60405180910390f35b6100db60048036038101906100d69190610937565b610208565b6040516100e891906108dc565b60405180910390f35b61010b60048036038101906101069190610937565b610237565b60405161011891906109fd565b60405180910390f35b61013b60048036038101906101369190610937565b6102e3565b604051610149929190610a60565b60405180910390f35b61015a610337565b6040516101679190610a89565b60405180910390f35b61018a60048036038101906101859190610bd9565b61035d565b60405161019791906108dc565b60405180910390f35b6101a8610413565b6040516101b591906109fd565b60405180910390f35b6101d860048036038101906101d39190610937565b6104dc565b005b6101e26105ce565b005b6101ec61089d565b6040516101f99190610a89565b60405180910390f35b60035481565b60006005828154811061021e5761021d610c22565b5b9060005260206000209060020201600101549050919050565b6004818154811061024757600080fd5b90600052602060002001600091509050805461026290610c80565b80601f016020809104026020016040519081016040528092919081815260200182805461028e90610c80565b80156102db5780601f106102b0576101008083540402835291602001916102db565b820191906000526020600020905b8154815290600101906020018083116102be57829003601f168201915b505050505081565b600581815481106102f357600080fd5b90600052602060002090600202016000915090508060000160009054906101000a900473ffffffffffffffffffffffffffffffffffffffff16908060010154905082565b600160009054906101000a900473ffffffffffffffffffffffffffffffffffffffff1681565b60008060009054906101000a900473ffffffffffffffffffffffffffffffffffffffff1673ffffffffffffffffffffffffffffffffffffffff1663278a7f33836040518263ffffffff1660e01b81526004016103b991906109fd565b60206040518083038186803b1580156103d157600080fd5b505afa1580156103e5573d6000803e3d6000fd5b505050506040513d601f19601f820116820180604052508101906104099190610ceb565b60ff169050919050565b606060008060009054906101000a900473ffffffffffffffffffffffffffffffffffffffff1673ffffffffffffffffffffffffffffffffffffffff166348441d5f6040518163ffffffff1660e01b815260040160006040518083038186803b15801561047e57600080fd5b505afa158015610492573d6000803e3d6000fd5b505050506040513d6000823e3d601f19601f820116820180604052508101906104bb9190610e5c565b9050806000600381106104d1576104d0610c22565b5b602002015191505090565b600260009054906101000a900473ffffffffffffffffffffffffffffffffffffffff1673ffffffffffffffffffffffffffffffffffffffff163373ffffffffffffffffffffffffffffffffffffffff1614806105855750600160009054906101000a900473ffffffffffffffffffffffffffffffffffffffff1673ffffffffffffffffffffffffffffffffffffffff163373ffffffffffffffffffffffffffffffffffffffff16145b6105c4576040517f08c379a00000000000000000000000000000000000000000000000000000000081526004016105bb90610ef1565b60405180910390fd5b8060038190555050565b6000805b600015158215151480156105eb57506000600580549050115b80156105fb575060058054905081105b15610736573373ffffffffffffffffffffffffffffffffffffffff166005828154811061062b5761062a610c22565b5b906000526020600020906002020160000160009054906101000a900473ffffffffffffffffffffffffffffffffffffffff1673ffffffffffffffffffffffffffffffffffffffff16141561072357600191506005818154811061069157610690610c22565b5b906000526020600020906002020160010160008154809291906106b390610f40565b9190505550600354600582815481106106cf576106ce610c22565b5b9060005260206000209060020201600101541115610722576040517f08c379a000000000000000000000000000000000000000000000000000000000815260040161071990610fd5565b60405180910390fd5b5b808061072e90610f40565b9150506105d2565b60008054906101000a900473ffffffffffffffffffffffffffffffffffffffff1673ffffffffffffffffffffffffffffffffffffffff166340d097c3600160009054906101000a900473ffffffffffffffffffffffffffffffffffffffff166040518263ffffffff1660e01b81526004016107b19190610a89565b600060405180830381600087803b1580156107cb57600080fd5b505af11580156107df573d6000803e3d6000fd5b505050508161089957600060405180604001604052803373ffffffffffffffffffffffffffffffffffffffff16815260200160018152509050600581908060018154018082558091505060019003906000526020600020906002020160009091909190915060008201518160000160006101000a81548173ffffffffffffffffffffffffffffffffffffffff021916908373ffffffffffffffffffffffffffffffffffffffff160217905550602082015181600101555050505b5050565b600260009054906101000a900473ffffffffffffffffffffffffffffffffffffffff1681565b6000819050919050565b6108d6816108c3565b82525050565b60006020820190506108f160008301846108cd565b92915050565b6000604051905090565b600080fd5b600080fd5b610914816108c3565b811461091f57600080fd5b50565b6000813590506109318161090b565b92915050565b60006020828403121561094d5761094c610901565b5b600061095b84828501610922565b91505092915050565b600081519050919050565b600082825260208201905092915050565b60005b8381101561099e578082015181840152602081019050610983565b838111156109ad576000848401525b50505050565b6000601f19601f8301169050919050565b60006109cf82610964565b6109d9818561096f565b93506109e9818560208601610980565b6109f2816109b3565b840191505092915050565b60006020820190508181036000830152610a1781846109c4565b905092915050565b600073ffffffffffffffffffffffffffffffffffffffff82169050919050565b6000610a4a82610a1f565b9050919050565b610a5a81610a3f565b82525050565b6000604082019050610a756000830185610a51565b610a8260208301846108cd565b9392505050565b6000602082019050610a9e6000830184610a51565b92915050565b600080fd5b600080fd5b7f4e487b7100000000000000000000000000000000000000000000000000000000600052604160045260246000fd5b610ae6826109b3565b810181811067ffffffffffffffff82111715610b0557610b04610aae565b5b80604052505050565b6000610b186108f7565b9050610b248282610add565b919050565b600067ffffffffffffffff821115610b4457610b43610aae565b5b610b4d826109b3565b9050602081019050919050565b82818337600083830152505050565b6000610b7c610b7784610b29565b610b0e565b905082815260208101848484011115610b9857610b97610aa9565b5b610ba3848285610b5a565b509392505050565b600082601f830112610bc057610bbf610aa4565b5b8135610bd0848260208601610b69565b91505092915050565b600060208284031215610bef57610bee610901565b5b600082013567ffffffffffffffff811115610c0d57610c0c610906565b5b610c1984828501610bab565b91505092915050565b7f4e487b7100000000000000000000000000000000000000000000000000000000600052603260045260246000fd5b7f4e487b7100000000000000000000000000000000000000000000000000000000600052602260045260246000fd5b60006002820490506001821680610c9857607f821691505b60208210811415610cac57610cab610c51565b5b50919050565b600060ff82169050919050565b610cc881610cb2565b8114610cd357600080fd5b50565b600081519050610ce581610cbf565b92915050565b600060208284031215610d0157610d00610901565b5b6000610d0f84828501610cd6565b91505092915050565b600067ffffffffffffffff821115610d3357610d32610aae565b5b602082029050919050565b600080fd5b6000610d56610d5184610b29565b610b0e565b905082815260208101848484011115610d7257610d71610aa9565b5b610d7d848285610980565b509392505050565b600082601f830112610d9a57610d99610aa4565b5b8151610daa848260208601610d43565b91505092915050565b6000610dc6610dc184610d18565b610b0e565b90508060208402830185811115610de057610ddf610d3e565b5b835b81811015610e2757805167ffffffffffffffff811115610e0557610e04610aa4565b5b808601610e128982610d85565b85526020850194505050602081019050610de2565b5050509392505050565b600082601f830112610e4657610e45610aa4565b5b6003610e53848285610db3565b91505092915050565b600060208284031215610e7257610e71610901565b5b600082015167ffffffffffffffff811115610e9057610e8f610906565b5b610e9c84828501610e31565b91505092915050565b7f4e6f7420417574686f72697a65642c2041646d696e204f6e6c79000000000000600082015250565b6000610edb601a8361096f565b9150610ee682610ea5565b602082019050919050565b60006020820190508181036000830152610f0a81610ece565b9050919050565b7f4e487b7100000000000000000000000000000000000000000000000000000000600052601160045260246000fd5b6000610f4b826108c3565b91507fffffffffffffffffffffffffffffffffffffffffffffffffffffffffffffffff821415610f7e57610f7d610f11565b5b600182019050919050565b7f4f7574206f66204c696d69740000000000000000000000000000000000000000600082015250565b6000610fbf600c8361096f565b9150610fca82610f89565b602082019050919050565b60006020820190508181036000830152610fee81610fb2565b905091905056fea26469706673582212202ec3424b3e2622535dfab6affee1874b2db386b53be7fade9fa01474f014ee6d64736f6c63430008080033",
					"opcodes": "PUSH1 0x80 PUSH1 0x40 MSTORE PUSH20 0x50C7A09925375438D2CEE94C5C59266C6FFAAF8C PUSH1 0x0 DUP1 PUSH2 0x100 EXP DUP2 SLOAD DUP2 PUSH20 0xFFFFFFFFFFFFFFFFFFFFFFFFFFFFFFFFFFFFFFFF MUL NOT AND SWAP1 DUP4 PUSH20 0xFFFFFFFFFFFFFFFFFFFFFFFFFFFFFFFFFFFFFFFF AND MUL OR SWAP1 SSTORE POP PUSH20 0xDBDDB8575F6BDA11F1DC548A1B546463CC567C3D PUSH1 0x1 PUSH1 0x0 PUSH2 0x100 EXP DUP2 SLOAD DUP2 PUSH20 0xFFFFFFFFFFFFFFFFFFFFFFFFFFFFFFFFFFFFFFFF MUL NOT AND SWAP1 DUP4 PUSH20 0xFFFFFFFFFFFFFFFFFFFFFFFFFFFFFFFFFFFFFFFF AND MUL OR SWAP1 SSTORE POP PUSH1 0x2 PUSH1 0x3 SSTORE CALLVALUE DUP1 ISZERO PUSH3 0xBF JUMPI PUSH1 0x0 DUP1 REVERT JUMPDEST POP CALLER PUSH1 0x2 PUSH1 0x0 PUSH2 0x100 EXP DUP2 SLOAD DUP2 PUSH20 0xFFFFFFFFFFFFFFFFFFFFFFFFFFFFFFFFFFFFFFFF MUL NOT AND SWAP1 DUP4 PUSH20 0xFFFFFFFFFFFFFFFFFFFFFFFFFFFFFFFFFFFFFFFF AND MUL OR SWAP1 SSTORE POP PUSH1 0x0 DUP1 SLOAD SWAP1 PUSH2 0x100 EXP SWAP1 DIV PUSH20 0xFFFFFFFFFFFFFFFFFFFFFFFFFFFFFFFFFFFFFFFF AND PUSH20 0xFFFFFFFFFFFFFFFFFFFFFFFFFFFFFFFFFFFFFFFF AND PUSH4 0x48441D5F PUSH1 0x40 MLOAD DUP2 PUSH4 0xFFFFFFFF AND PUSH1 0xE0 SHL DUP2 MSTORE PUSH1 0x4 ADD PUSH1 0x0 PUSH1 0x40 MLOAD DUP1 DUP4 SUB DUP2 DUP7 DUP1 EXTCODESIZE ISZERO DUP1 ISZERO PUSH3 0x168 JUMPI PUSH1 0x0 DUP1 REVERT JUMPDEST POP GAS STATICCALL ISZERO DUP1 ISZERO PUSH3 0x17D JUMPI RETURNDATASIZE PUSH1 0x0 DUP1 RETURNDATACOPY RETURNDATASIZE PUSH1 0x0 REVERT JUMPDEST POP POP POP POP PUSH1 0x40 MLOAD RETURNDATASIZE PUSH1 0x0 DUP3 RETURNDATACOPY RETURNDATASIZE PUSH1 0x1F NOT PUSH1 0x1F DUP3 ADD AND DUP3 ADD DUP1 PUSH1 0x40 MSTORE POP DUP2 ADD SWAP1 PUSH3 0x1A8 SWAP2 SWAP1 PUSH3 0x5CD JUMP JUMPDEST PUSH1 0x4 SWAP1 PUSH1 0x3 PUSH3 0x1BA SWAP3 SWAP2 SWAP1 PUSH3 0x1C1 JUMP JUMPDEST POP PUSH3 0x683 JUMP JUMPDEST DUP3 DUP1 SLOAD DUP3 DUP3 SSTORE SWAP1 PUSH1 0x0 MSTORE PUSH1 0x20 PUSH1 0x0 KECCAK256 SWAP1 DUP2 ADD SWAP3 DUP3 ISZERO PUSH3 0x215 JUMPI SWAP2 PUSH1 0x20 MUL DUP3 ADD JUMPDEST DUP3 DUP2 GT ISZERO PUSH3 0x214 JUMPI DUP3 MLOAD DUP3 SWAP1 DUP1 MLOAD SWAP1 PUSH1 0x20 ADD SWAP1 PUSH3 0x203 SWAP3 SWAP2 SWAP1 PUSH3 0x228 JUMP JUMPDEST POP SWAP2 PUSH1 0x20 ADD SWAP2 SWAP1 PUSH1 0x1 ADD SWAP1 PUSH3 0x1E2 JUMP JUMPDEST JUMPDEST POP SWAP1 POP PUSH3 0x224 SWAP2 SWAP1 PUSH3 0x2B9 JUMP JUMPDEST POP SWAP1 JUMP JUMPDEST DUP3 DUP1 SLOAD PUSH3 0x236 SWAP1 PUSH3 0x64D JUMP JUMPDEST SWAP1 PUSH1 0x0 MSTORE PUSH1 0x20 PUSH1 0x0 KECCAK256 SWAP1 PUSH1 0x1F ADD PUSH1 0x20 SWAP1 DIV DUP2 ADD SWAP3 DUP3 PUSH3 0x25A JUMPI PUSH1 0x0 DUP6 SSTORE PUSH3 0x2A6 JUMP JUMPDEST DUP3 PUSH1 0x1F LT PUSH3 0x275 JUMPI DUP1 MLOAD PUSH1 0xFF NOT AND DUP4 DUP1 ADD OR DUP6 SSTORE PUSH3 0x2A6 JUMP JUMPDEST DUP3 DUP1 ADD PUSH1 0x1 ADD DUP6 SSTORE DUP3 ISZERO PUSH3 0x2A6 JUMPI SWAP2 DUP3 ADD JUMPDEST DUP3 DUP2 GT ISZERO PUSH3 0x2A5 JUMPI DUP3 MLOAD DUP3 SSTORE SWAP2 PUSH1 0x20 ADD SWAP2 SWAP1 PUSH1 0x1 ADD SWAP1 PUSH3 0x288 JUMP JUMPDEST JUMPDEST POP SWAP1 POP PUSH3 0x2B5 SWAP2 SWAP1 PUSH3 0x2E1 JUMP JUMPDEST POP SWAP1 JUMP JUMPDEST JUMPDEST DUP1 DUP3 GT ISZERO PUSH3 0x2DD JUMPI PUSH1 0x0 DUP2 DUP2 PUSH3 0x2D3 SWAP2 SWAP1 PUSH3 0x300 JUMP JUMPDEST POP PUSH1 0x1 ADD PUSH3 0x2BA JUMP JUMPDEST POP SWAP1 JUMP JUMPDEST JUMPDEST DUP1 DUP3 GT ISZERO PUSH3 0x2FC JUMPI PUSH1 0x0 DUP2 PUSH1 0x0 SWAP1 SSTORE POP PUSH1 0x1 ADD PUSH3 0x2E2 JUMP JUMPDEST POP SWAP1 JUMP JUMPDEST POP DUP1 SLOAD PUSH3 0x30E SWAP1 PUSH3 0x64D JUMP JUMPDEST PUSH1 0x0 DUP3 SSTORE DUP1 PUSH1 0x1F LT PUSH3 0x322 JUMPI POP PUSH3 0x343 JUMP JUMPDEST PUSH1 0x1F ADD PUSH1 0x20 SWAP1 DIV SWAP1 PUSH1 0x0 MSTORE PUSH1 0x20 PUSH1 0x0 KECCAK256 SWAP1 DUP2 ADD SWAP1 PUSH3 0x342 SWAP2 SWAP1 PUSH3 0x2E1 JUMP JUMPDEST JUMPDEST POP JUMP JUMPDEST PUSH1 0x0 PUSH1 0x40 MLOAD SWAP1 POP SWAP1 JUMP JUMPDEST PUSH1 0x0 DUP1 REVERT JUMPDEST PUSH1 0x0 DUP1 REVERT JUMPDEST PUSH1 0x0 DUP1 REVERT JUMPDEST PUSH1 0x0 PUSH1 0x1F NOT PUSH1 0x1F DUP4 ADD AND SWAP1 POP SWAP2 SWAP1 POP JUMP JUMPDEST PUSH32 0x4E487B7100000000000000000000000000000000000000000000000000000000 PUSH1 0x0 MSTORE PUSH1 0x41 PUSH1 0x4 MSTORE PUSH1 0x24 PUSH1 0x0 REVERT JUMPDEST PUSH3 0x3AA DUP3 PUSH3 0x35F JUMP JUMPDEST DUP2 ADD DUP2 DUP2 LT PUSH8 0xFFFFFFFFFFFFFFFF DUP3 GT OR ISZERO PUSH3 0x3CC JUMPI PUSH3 0x3CB PUSH3 0x370 JUMP JUMPDEST JUMPDEST DUP1 PUSH1 0x40 MSTORE POP POP POP JUMP JUMPDEST PUSH1 0x0 PUSH3 0x3E1 PUSH3 0x346 JUMP JUMPDEST SWAP1 POP PUSH3 0x3EF DUP3 DUP3 PUSH3 0x39F JUMP JUMPDEST SWAP2 SWAP1 POP JUMP JUMPDEST PUSH1 0x0 PUSH8 0xFFFFFFFFFFFFFFFF DUP3 GT ISZERO PUSH3 0x412 JUMPI PUSH3 0x411 PUSH3 0x370 JUMP JUMPDEST JUMPDEST PUSH1 0x20 DUP3 MUL SWAP1 POP SWAP2 SWAP1 POP JUMP JUMPDEST PUSH1 0x0 DUP1 REVERT JUMPDEST PUSH1 0x0 DUP1 REVERT JUMPDEST PUSH1 0x0 PUSH8 0xFFFFFFFFFFFFFFFF DUP3 GT ISZERO PUSH3 0x445 JUMPI PUSH3 0x444 PUSH3 0x370 JUMP JUMPDEST JUMPDEST PUSH3 0x450 DUP3 PUSH3 0x35F JUMP JUMPDEST SWAP1 POP PUSH1 0x20 DUP2 ADD SWAP1 POP SWAP2 SWAP1 POP JUMP JUMPDEST PUSH1 0x0 JUMPDEST DUP4 DUP2 LT ISZERO PUSH3 0x47D JUMPI DUP1 DUP3 ADD MLOAD DUP2 DUP5 ADD MSTORE PUSH1 0x20 DUP2 ADD SWAP1 POP PUSH3 0x460 JUMP JUMPDEST DUP4 DUP2 GT ISZERO PUSH3 0x48D JUMPI PUSH1 0x0 DUP5 DUP5 ADD MSTORE JUMPDEST POP POP POP POP JUMP JUMPDEST PUSH1 0x0 PUSH3 0x4AA PUSH3 0x4A4 DUP5 PUSH3 0x427 JUMP JUMPDEST PUSH3 0x3D5 JUMP JUMPDEST SWAP1 POP DUP3 DUP2 MSTORE PUSH1 0x20 DUP2 ADD DUP5 DUP5 DUP5 ADD GT ISZERO PUSH3 0x4C9 JUMPI PUSH3 0x4C8 PUSH3 0x422 JUMP JUMPDEST JUMPDEST PUSH3 0x4D6 DUP5 DUP3 DUP6 PUSH3 0x45D JUMP JUMPDEST POP SWAP4 SWAP3 POP POP POP JUMP JUMPDEST PUSH1 0x0 DUP3 PUSH1 0x1F DUP4 ADD SLT PUSH3 0x4F6 JUMPI PUSH3 0x4F5 PUSH3 0x35A JUMP JUMPDEST JUMPDEST DUP2 MLOAD PUSH3 0x508 DUP5 DUP3 PUSH1 0x20 DUP7 ADD PUSH3 0x493 JUMP JUMPDEST SWAP2 POP POP SWAP3 SWAP2 POP POP JUMP JUMPDEST PUSH1 0x0 PUSH3 0x528 PUSH3 0x522 DUP5 PUSH3 0x3F4 JUMP JUMPDEST PUSH3 0x3D5 JUMP JUMPDEST SWAP1 POP DUP1 PUSH1 0x20 DUP5 MUL DUP4 ADD DUP6 DUP2 GT ISZERO PUSH3 0x545 JUMPI PUSH3 0x544 PUSH3 0x41D JUMP JUMPDEST JUMPDEST DUP4 JUMPDEST DUP2 DUP2 LT ISZERO PUSH3 0x593 JUMPI DUP1 MLOAD PUSH8 0xFFFFFFFFFFFFFFFF DUP2 GT ISZERO PUSH3 0x56E JUMPI PUSH3 0x56D PUSH3 0x35A JUMP JUMPDEST JUMPDEST DUP1 DUP7 ADD PUSH3 0x57D DUP10 DUP3 PUSH3 0x4DE JUMP JUMPDEST DUP6 MSTORE PUSH1 0x20 DUP6 ADD SWAP5 POP POP POP PUSH1 0x20 DUP2 ADD SWAP1 POP PUSH3 0x547 JUMP JUMPDEST POP POP POP SWAP4 SWAP3 POP POP POP JUMP JUMPDEST PUSH1 0x0 DUP3 PUSH1 0x1F DUP4 ADD SLT PUSH3 0x5B5 JUMPI PUSH3 0x5B4 PUSH3 0x35A JUMP JUMPDEST JUMPDEST PUSH1 0x3 PUSH3 0x5C4 DUP5 DUP3 DUP6 PUSH3 0x511 JUMP JUMPDEST SWAP2 POP POP SWAP3 SWAP2 POP POP JUMP JUMPDEST PUSH1 0x0 PUSH1 0x20 DUP3 DUP5 SUB SLT ISZERO PUSH3 0x5E6 JUMPI PUSH3 0x5E5 PUSH3 0x350 JUMP JUMPDEST JUMPDEST PUSH1 0x0 DUP3 ADD MLOAD PUSH8 0xFFFFFFFFFFFFFFFF DUP2 GT ISZERO PUSH3 0x607 JUMPI PUSH3 0x606 PUSH3 0x355 JUMP JUMPDEST JUMPDEST PUSH3 0x615 DUP5 DUP3 DUP6 ADD PUSH3 0x59D JUMP JUMPDEST SWAP2 POP POP SWAP3 SWAP2 POP POP JUMP JUMPDEST PUSH32 0x4E487B7100000000000000000000000000000000000000000000000000000000 PUSH1 0x0 MSTORE PUSH1 0x22 PUSH1 0x4 MSTORE PUSH1 0x24 PUSH1 0x0 REVERT JUMPDEST PUSH1 0x0 PUSH1 0x2 DUP3 DIV SWAP1 POP PUSH1 0x1 DUP3 AND DUP1 PUSH3 0x666 JUMPI PUSH1 0x7F DUP3 AND SWAP2 POP JUMPDEST PUSH1 0x20 DUP3 LT DUP2 EQ ISZERO PUSH3 0x67D JUMPI PUSH3 0x67C PUSH3 0x61E JUMP JUMPDEST JUMPDEST POP SWAP2 SWAP1 POP JUMP JUMPDEST PUSH2 0x102B DUP1 PUSH3 0x693 PUSH1 0x0 CODECOPY PUSH1 0x0 RETURN INVALID PUSH1 0x80 PUSH1 0x40 MSTORE CALLVALUE DUP1 ISZERO PUSH2 0x10 JUMPI PUSH1 0x0 DUP1 REVERT JUMPDEST POP PUSH1 0x4 CALLDATASIZE LT PUSH2 0x9E JUMPI PUSH1 0x0 CALLDATALOAD PUSH1 0xE0 SHR DUP1 PUSH4 0xA7BEB5D0 GT PUSH2 0x66 JUMPI DUP1 PUSH4 0xA7BEB5D0 EQ PUSH2 0x170 JUMPI DUP1 PUSH4 0xBB4A376B EQ PUSH2 0x1A0 JUMPI DUP1 PUSH4 0xC15D3EAD EQ PUSH2 0x1BE JUMPI DUP1 PUSH4 0xE917EC96 EQ PUSH2 0x1DA JUMPI DUP1 PUSH4 0xFC6F9468 EQ PUSH2 0x1E4 JUMPI PUSH2 0x9E JUMP JUMPDEST DUP1 PUSH4 0x6CD309B EQ PUSH2 0xA3 JUMPI DUP1 PUSH4 0x5D73AB9A EQ PUSH2 0xC1 JUMPI DUP1 PUSH4 0x6FD3D9E2 EQ PUSH2 0xF1 JUMPI DUP1 PUSH4 0x7259E0F8 EQ PUSH2 0x121 JUMPI DUP1 PUSH4 0x8F84AA09 EQ PUSH2 0x152 JUMPI JUMPDEST PUSH1 0x0 DUP1 REVERT JUMPDEST PUSH2 0xAB PUSH2 0x202 JUMP JUMPDEST PUSH1 0x40 MLOAD PUSH2 0xB8 SWAP2 SWAP1 PUSH2 0x8DC JUMP JUMPDEST PUSH1 0x40 MLOAD DUP1 SWAP2 SUB SWAP1 RETURN JUMPDEST PUSH2 0xDB PUSH1 0x4 DUP1 CALLDATASIZE SUB DUP2 ADD SWAP1 PUSH2 0xD6 SWAP2 SWAP1 PUSH2 0x937 JUMP JUMPDEST PUSH2 0x208 JUMP JUMPDEST PUSH1 0x40 MLOAD PUSH2 0xE8 SWAP2 SWAP1 PUSH2 0x8DC JUMP JUMPDEST PUSH1 0x40 MLOAD DUP1 SWAP2 SUB SWAP1 RETURN JUMPDEST PUSH2 0x10B PUSH1 0x4 DUP1 CALLDATASIZE SUB DUP2 ADD SWAP1 PUSH2 0x106 SWAP2 SWAP1 PUSH2 0x937 JUMP JUMPDEST PUSH2 0x237 JUMP JUMPDEST PUSH1 0x40 MLOAD PUSH2 0x118 SWAP2 SWAP1 PUSH2 0x9FD JUMP JUMPDEST PUSH1 0x40 MLOAD DUP1 SWAP2 SUB SWAP1 RETURN JUMPDEST PUSH2 0x13B PUSH1 0x4 DUP1 CALLDATASIZE SUB DUP2 ADD SWAP1 PUSH2 0x136 SWAP2 SWAP1 PUSH2 0x937 JUMP JUMPDEST PUSH2 0x2E3 JUMP JUMPDEST PUSH1 0x40 MLOAD PUSH2 0x149 SWAP3 SWAP2 SWAP1 PUSH2 0xA60 JUMP JUMPDEST PUSH1 0x40 MLOAD DUP1 SWAP2 SUB SWAP1 RETURN JUMPDEST PUSH2 0x15A PUSH2 0x337 JUMP JUMPDEST PUSH1 0x40 MLOAD PUSH2 0x167 SWAP2 SWAP1 PUSH2 0xA89 JUMP JUMPDEST PUSH1 0x40 MLOAD DUP1 SWAP2 SUB SWAP1 RETURN JUMPDEST PUSH2 0x18A PUSH1 0x4 DUP1 CALLDATASIZE SUB DUP2 ADD SWAP1 PUSH2 0x185 SWAP2 SWAP1 PUSH2 0xBD9 JUMP JUMPDEST PUSH2 0x35D JUMP JUMPDEST PUSH1 0x40 MLOAD PUSH2 0x197 SWAP2 SWAP1 PUSH2 0x8DC JUMP JUMPDEST PUSH1 0x40 MLOAD DUP1 SWAP2 SUB SWAP1 RETURN JUMPDEST PUSH2 0x1A8 PUSH2 0x413 JUMP JUMPDEST PUSH1 0x40 MLOAD PUSH2 0x1B5 SWAP2 SWAP1 PUSH2 0x9FD JUMP JUMPDEST PUSH1 0x40 MLOAD DUP1 SWAP2 SUB SWAP1 RETURN JUMPDEST PUSH2 0x1D8 PUSH1 0x4 DUP1 CALLDATASIZE SUB DUP2 ADD SWAP1 PUSH2 0x1D3 SWAP2 SWAP1 PUSH2 0x937 JUMP JUMPDEST PUSH2 0x4DC JUMP JUMPDEST STOP JUMPDEST PUSH2 0x1E2 PUSH2 0x5CE JUMP JUMPDEST STOP JUMPDEST PUSH2 0x1EC PUSH2 0x89D JUMP JUMPDEST PUSH1 0x40 MLOAD PUSH2 0x1F9 SWAP2 SWAP1 PUSH2 0xA89 JUMP JUMPDEST PUSH1 0x40 MLOAD DUP1 SWAP2 SUB SWAP1 RETURN JUMPDEST PUSH1 0x3 SLOAD DUP2 JUMP JUMPDEST PUSH1 0x0 PUSH1 0x5 DUP3 DUP2 SLOAD DUP2 LT PUSH2 0x21E JUMPI PUSH2 0x21D PUSH2 0xC22 JUMP JUMPDEST JUMPDEST SWAP1 PUSH1 0x0 MSTORE PUSH1 0x20 PUSH1 0x0 KECCAK256 SWAP1 PUSH1 0x2 MUL ADD PUSH1 0x1 ADD SLOAD SWAP1 POP SWAP2 SWAP1 POP JUMP JUMPDEST PUSH1 0x4 DUP2 DUP2 SLOAD DUP2 LT PUSH2 0x247 JUMPI PUSH1 0x0 DUP1 REVERT JUMPDEST SWAP1 PUSH1 0x0 MSTORE PUSH1 0x20 PUSH1 0x0 KECCAK256 ADD PUSH1 0x0 SWAP2 POP SWAP1 POP DUP1 SLOAD PUSH2 0x262 SWAP1 PUSH2 0xC80 JUMP JUMPDEST DUP1 PUSH1 0x1F ADD PUSH1 0x20 DUP1 SWAP2 DIV MUL PUSH1 0x20 ADD PUSH1 0x40 MLOAD SWAP1 DUP2 ADD PUSH1 0x40 MSTORE DUP1 SWAP3 SWAP2 SWAP1 DUP2 DUP2 MSTORE PUSH1 0x20 ADD DUP3 DUP1 SLOAD PUSH2 0x28E SWAP1 PUSH2 0xC80 JUMP JUMPDEST DUP1 ISZERO PUSH2 0x2DB JUMPI DUP1 PUSH1 0x1F LT PUSH2 0x2B0 JUMPI PUSH2 0x100 DUP1 DUP4 SLOAD DIV MUL DUP4 MSTORE SWAP2 PUSH1 0x20 ADD SWAP2 PUSH2 0x2DB JUMP JUMPDEST DUP3 ADD SWAP2 SWAP1 PUSH1 0x0 MSTORE PUSH1 0x20 PUSH1 0x0 KECCAK256 SWAP1 JUMPDEST DUP2 SLOAD DUP2 MSTORE SWAP1 PUSH1 0x1 ADD SWAP1 PUSH1 0x20 ADD DUP1 DUP4 GT PUSH2 0x2BE JUMPI DUP3 SWAP1 SUB PUSH1 0x1F AND DUP3 ADD SWAP2 JUMPDEST POP POP POP POP POP DUP2 JUMP JUMPDEST PUSH1 0x5 DUP2 DUP2 SLOAD DUP2 LT PUSH2 0x2F3 JUMPI PUSH1 0x0 DUP1 REVERT JUMPDEST SWAP1 PUSH1 0x0 MSTORE PUSH1 0x20 PUSH1 0x0 KECCAK256 SWAP1 PUSH1 0x2 MUL ADD PUSH1 0x0 SWAP2 POP SWAP1 POP DUP1 PUSH1 0x0 ADD PUSH1 0x0 SWAP1 SLOAD SWAP1 PUSH2 0x100 EXP SWAP1 DIV PUSH20 0xFFFFFFFFFFFFFFFFFFFFFFFFFFFFFFFFFFFFFFFF AND SWAP1 DUP1 PUSH1 0x1 ADD SLOAD SWAP1 POP DUP3 JUMP JUMPDEST PUSH1 0x1 PUSH1 0x0 SWAP1 SLOAD SWAP1 PUSH2 0x100 EXP SWAP1 DIV PUSH20 0xFFFFFFFFFFFFFFFFFFFFFFFFFFFFFFFFFFFFFFFF AND DUP2 JUMP JUMPDEST PUSH1 0x0 DUP1 PUSH1 0x0 SWAP1 SLOAD SWAP1 PUSH2 0x100 EXP SWAP1 DIV PUSH20 0xFFFFFFFFFFFFFFFFFFFFFFFFFFFFFFFFFFFFFFFF AND PUSH20 0xFFFFFFFFFFFFFFFFFFFFFFFFFFFFFFFFFFFFFFFF AND PUSH4 0x278A7F33 DUP4 PUSH1 0x40 MLOAD DUP3 PUSH4 0xFFFFFFFF AND PUSH1 0xE0 SHL DUP2 MSTORE PUSH1 0x4 ADD PUSH2 0x3B9 SWAP2 SWAP1 PUSH2 0x9FD JUMP JUMPDEST PUSH1 0x20 PUSH1 0x40 MLOAD DUP1 DUP4 SUB DUP2 DUP7 DUP1 EXTCODESIZE ISZERO DUP1 ISZERO PUSH2 0x3D1 JUMPI PUSH1 0x0 DUP1 REVERT JUMPDEST POP GAS STATICCALL ISZERO DUP1 ISZERO PUSH2 0x3E5 JUMPI RETURNDATASIZE PUSH1 0x0 DUP1 RETURNDATACOPY RETURNDATASIZE PUSH1 0x0 REVERT JUMPDEST POP POP POP POP PUSH1 0x40 MLOAD RETURNDATASIZE PUSH1 0x1F NOT PUSH1 0x1F DUP3 ADD AND DUP3 ADD DUP1 PUSH1 0x40 MSTORE POP DUP2 ADD SWAP1 PUSH2 0x409 SWAP2 SWAP1 PUSH2 0xCEB JUMP JUMPDEST PUSH1 0xFF AND SWAP1 POP SWAP2 SWAP1 POP JUMP JUMPDEST PUSH1 0x60 PUSH1 0x0 DUP1 PUSH1 0x0 SWAP1 SLOAD SWAP1 PUSH2 0x100 EXP SWAP1 DIV PUSH20 0xFFFFFFFFFFFFFFFFFFFFFFFFFFFFFFFFFFFFFFFF AND PUSH20 0xFFFFFFFFFFFFFFFFFFFFFFFFFFFFFFFFFFFFFFFF AND PUSH4 0x48441D5F PUSH1 0x40 MLOAD DUP2 PUSH4 0xFFFFFFFF AND PUSH1 0xE0 SHL DUP2 MSTORE PUSH1 0x4 ADD PUSH1 0x0 PUSH1 0x40 MLOAD DUP1 DUP4 SUB DUP2 DUP7 DUP1 EXTCODESIZE ISZERO DUP1 ISZERO PUSH2 0x47E JUMPI PUSH1 0x0 DUP1 REVERT JUMPDEST POP GAS STATICCALL ISZERO DUP1 ISZERO PUSH2 0x492 JUMPI RETURNDATASIZE PUSH1 0x0 DUP1 RETURNDATACOPY RETURNDATASIZE PUSH1 0x0 REVERT JUMPDEST POP POP POP POP PUSH1 0x40 MLOAD RETURNDATASIZE PUSH1 0x0 DUP3 RETURNDATACOPY RETURNDATASIZE PUSH1 0x1F NOT PUSH1 0x1F DUP3 ADD AND DUP3 ADD DUP1 PUSH1 0x40 MSTORE POP DUP2 ADD SWAP1 PUSH2 0x4BB SWAP2 SWAP1 PUSH2 0xE5C JUMP JUMPDEST SWAP1 POP DUP1 PUSH1 0x0 PUSH1 0x3 DUP2 LT PUSH2 0x4D1 JUMPI PUSH2 0x4D0 PUSH2 0xC22 JUMP JUMPDEST JUMPDEST PUSH1 0x20 MUL ADD MLOAD SWAP2 POP POP SWAP1 JUMP JUMPDEST PUSH1 0x2 PUSH1 0x0 SWAP1 SLOAD SWAP1 PUSH2 0x100 EXP SWAP1 DIV PUSH20 0xFFFFFFFFFFFFFFFFFFFFFFFFFFFFFFFFFFFFFFFF AND PUSH20 0xFFFFFFFFFFFFFFFFFFFFFFFFFFFFFFFFFFFFFFFF AND CALLER PUSH20 0xFFFFFFFFFFFFFFFFFFFFFFFFFFFFFFFFFFFFFFFF AND EQ DUP1 PUSH2 0x585 JUMPI POP PUSH1 0x1 PUSH1 0x0 SWAP1 SLOAD SWAP1 PUSH2 0x100 EXP SWAP1 DIV PUSH20 0xFFFFFFFFFFFFFFFFFFFFFFFFFFFFFFFFFFFFFFFF AND PUSH20 0xFFFFFFFFFFFFFFFFFFFFFFFFFFFFFFFFFFFFFFFF AND CALLER PUSH20 0xFFFFFFFFFFFFFFFFFFFFFFFFFFFFFFFFFFFFFFFF AND EQ JUMPDEST PUSH2 0x5C4 JUMPI PUSH1 0x40 MLOAD PUSH32 0x8C379A000000000000000000000000000000000000000000000000000000000 DUP2 MSTORE PUSH1 0x4 ADD PUSH2 0x5BB SWAP1 PUSH2 0xEF1 JUMP JUMPDEST PUSH1 0x40 MLOAD DUP1 SWAP2 SUB SWAP1 REVERT JUMPDEST DUP1 PUSH1 0x3 DUP2 SWAP1 SSTORE POP POP JUMP JUMPDEST PUSH1 0x0 DUP1 JUMPDEST PUSH1 0x0 ISZERO ISZERO DUP3 ISZERO ISZERO EQ DUP1 ISZERO PUSH2 0x5EB JUMPI POP PUSH1 0x0 PUSH1 0x5 DUP1 SLOAD SWAP1 POP GT JUMPDEST DUP1 ISZERO PUSH2 0x5FB JUMPI POP PUSH1 0x5 DUP1 SLOAD SWAP1 POP DUP2 LT JUMPDEST ISZERO PUSH2 0x736 JUMPI CALLER PUSH20 0xFFFFFFFFFFFFFFFFFFFFFFFFFFFFFFFFFFFFFFFF AND PUSH1 0x5 DUP3 DUP2 SLOAD DUP2 LT PUSH2 0x62B JUMPI PUSH2 0x62A PUSH2 0xC22 JUMP JUMPDEST JUMPDEST SWAP1 PUSH1 0x0 MSTORE PUSH1 0x20 PUSH1 0x0 KECCAK256 SWAP1 PUSH1 0x2 MUL ADD PUSH1 0x0 ADD PUSH1 0x0 SWAP1 SLOAD SWAP1 PUSH2 0x100 EXP SWAP1 DIV PUSH20 0xFFFFFFFFFFFFFFFFFFFFFFFFFFFFFFFFFFFFFFFF AND PUSH20 0xFFFFFFFFFFFFFFFFFFFFFFFFFFFFFFFFFFFFFFFF AND EQ ISZERO PUSH2 0x723 JUMPI PUSH1 0x1 SWAP2 POP PUSH1 0x5 DUP2 DUP2 SLOAD DUP2 LT PUSH2 0x691 JUMPI PUSH2 0x690 PUSH2 0xC22 JUMP JUMPDEST JUMPDEST SWAP1 PUSH1 0x0 MSTORE PUSH1 0x20 PUSH1 0x0 KECCAK256 SWAP1 PUSH1 0x2 MUL ADD PUSH1 0x1 ADD PUSH1 0x0 DUP2 SLOAD DUP1 SWAP3 SWAP2 SWAP1 PUSH2 0x6B3 SWAP1 PUSH2 0xF40 JUMP JUMPDEST SWAP2 SWAP1 POP SSTORE POP PUSH1 0x3 SLOAD PUSH1 0x5 DUP3 DUP2 SLOAD DUP2 LT PUSH2 0x6CF JUMPI PUSH2 0x6CE PUSH2 0xC22 JUMP JUMPDEST JUMPDEST SWAP1 PUSH1 0x0 MSTORE PUSH1 0x20 PUSH1 0x0 KECCAK256 SWAP1 PUSH1 0x2 MUL ADD PUSH1 0x1 ADD SLOAD GT ISZERO PUSH2 0x722 JUMPI PUSH1 0x40 MLOAD PUSH32 0x8C379A000000000000000000000000000000000000000000000000000000000 DUP2 MSTORE PUSH1 0x4 ADD PUSH2 0x719 SWAP1 PUSH2 0xFD5 JUMP JUMPDEST PUSH1 0x40 MLOAD DUP1 SWAP2 SUB SWAP1 REVERT JUMPDEST JUMPDEST DUP1 DUP1 PUSH2 0x72E SWAP1 PUSH2 0xF40 JUMP JUMPDEST SWAP2 POP POP PUSH2 0x5D2 JUMP JUMPDEST PUSH1 0x0 DUP1 SLOAD SWAP1 PUSH2 0x100 EXP SWAP1 DIV PUSH20 0xFFFFFFFFFFFFFFFFFFFFFFFFFFFFFFFFFFFFFFFF AND PUSH20 0xFFFFFFFFFFFFFFFFFFFFFFFFFFFFFFFFFFFFFFFF AND PUSH4 0x40D097C3 PUSH1 0x1 PUSH1 0x0 SWAP1 SLOAD SWAP1 PUSH2 0x100 EXP SWAP1 DIV PUSH20 0xFFFFFFFFFFFFFFFFFFFFFFFFFFFFFFFFFFFFFFFF AND PUSH1 0x40 MLOAD DUP3 PUSH4 0xFFFFFFFF AND PUSH1 0xE0 SHL DUP2 MSTORE PUSH1 0x4 ADD PUSH2 0x7B1 SWAP2 SWAP1 PUSH2 0xA89 JUMP JUMPDEST PUSH1 0x0 PUSH1 0x40 MLOAD DUP1 DUP4 SUB DUP2 PUSH1 0x0 DUP8 DUP1 EXTCODESIZE ISZERO DUP1 ISZERO PUSH2 0x7CB JUMPI PUSH1 0x0 DUP1 REVERT JUMPDEST POP GAS CALL ISZERO DUP1 ISZERO PUSH2 0x7DF JUMPI RETURNDATASIZE PUSH1 0x0 DUP1 RETURNDATACOPY RETURNDATASIZE PUSH1 0x0 REVERT JUMPDEST POP POP POP POP DUP2 PUSH2 0x899 JUMPI PUSH1 0x0 PUSH1 0x40 MLOAD DUP1 PUSH1 0x40 ADD PUSH1 0x40 MSTORE DUP1 CALLER PUSH20 0xFFFFFFFFFFFFFFFFFFFFFFFFFFFFFFFFFFFFFFFF AND DUP2 MSTORE PUSH1 0x20 ADD PUSH1 0x1 DUP2 MSTORE POP SWAP1 POP PUSH1 0x5 DUP2 SWAP1 DUP1 PUSH1 0x1 DUP2 SLOAD ADD DUP1 DUP3 SSTORE DUP1 SWAP2 POP POP PUSH1 0x1 SWAP1 SUB SWAP1 PUSH1 0x0 MSTORE PUSH1 0x20 PUSH1 0x0 KECCAK256 SWAP1 PUSH1 0x2 MUL ADD PUSH1 0x0 SWAP1 SWAP2 SWAP1 SWAP2 SWAP1 SWAP2 POP PUSH1 0x0 DUP3 ADD MLOAD DUP2 PUSH1 0x0 ADD PUSH1 0x0 PUSH2 0x100 EXP DUP2 SLOAD DUP2 PUSH20 0xFFFFFFFFFFFFFFFFFFFFFFFFFFFFFFFFFFFFFFFF MUL NOT AND SWAP1 DUP4 PUSH20 0xFFFFFFFFFFFFFFFFFFFFFFFFFFFFFFFFFFFFFFFF AND MUL OR SWAP1 SSTORE POP PUSH1 0x20 DUP3 ADD MLOAD DUP2 PUSH1 0x1 ADD SSTORE POP POP POP JUMPDEST POP POP JUMP JUMPDEST PUSH1 0x2 PUSH1 0x0 SWAP1 SLOAD SWAP1 PUSH2 0x100 EXP SWAP1 DIV PUSH20 0xFFFFFFFFFFFFFFFFFFFFFFFFFFFFFFFFFFFFFFFF AND DUP2 JUMP JUMPDEST PUSH1 0x0 DUP2 SWAP1 POP SWAP2 SWAP1 POP JUMP JUMPDEST PUSH2 0x8D6 DUP2 PUSH2 0x8C3 JUMP JUMPDEST DUP3 MSTORE POP POP JUMP JUMPDEST PUSH1 0x0 PUSH1 0x20 DUP3 ADD SWAP1 POP PUSH2 0x8F1 PUSH1 0x0 DUP4 ADD DUP5 PUSH2 0x8CD JUMP JUMPDEST SWAP3 SWAP2 POP POP JUMP JUMPDEST PUSH1 0x0 PUSH1 0x40 MLOAD SWAP1 POP SWAP1 JUMP JUMPDEST PUSH1 0x0 DUP1 REVERT JUMPDEST PUSH1 0x0 DUP1 REVERT JUMPDEST PUSH2 0x914 DUP2 PUSH2 0x8C3 JUMP JUMPDEST DUP2 EQ PUSH2 0x91F JUMPI PUSH1 0x0 DUP1 REVERT JUMPDEST POP JUMP JUMPDEST PUSH1 0x0 DUP2 CALLDATALOAD SWAP1 POP PUSH2 0x931 DUP2 PUSH2 0x90B JUMP JUMPDEST SWAP3 SWAP2 POP POP JUMP JUMPDEST PUSH1 0x0 PUSH1 0x20 DUP3 DUP5 SUB SLT ISZERO PUSH2 0x94D JUMPI PUSH2 0x94C PUSH2 0x901 JUMP JUMPDEST JUMPDEST PUSH1 0x0 PUSH2 0x95B DUP5 DUP3 DUP6 ADD PUSH2 0x922 JUMP JUMPDEST SWAP2 POP POP SWAP3 SWAP2 POP POP JUMP JUMPDEST PUSH1 0x0 DUP2 MLOAD SWAP1 POP SWAP2 SWAP1 POP JUMP JUMPDEST PUSH1 0x0 DUP3 DUP3 MSTORE PUSH1 0x20 DUP3 ADD SWAP1 POP SWAP3 SWAP2 POP POP JUMP JUMPDEST PUSH1 0x0 JUMPDEST DUP4 DUP2 LT ISZERO PUSH2 0x99E JUMPI DUP1 DUP3 ADD MLOAD DUP2 DUP5 ADD MSTORE PUSH1 0x20 DUP2 ADD SWAP1 POP PUSH2 0x983 JUMP JUMPDEST DUP4 DUP2 GT ISZERO PUSH2 0x9AD JUMPI PUSH1 0x0 DUP5 DUP5 ADD MSTORE JUMPDEST POP POP POP POP JUMP JUMPDEST PUSH1 0x0 PUSH1 0x1F NOT PUSH1 0x1F DUP4 ADD AND SWAP1 POP SWAP2 SWAP1 POP JUMP JUMPDEST PUSH1 0x0 PUSH2 0x9CF DUP3 PUSH2 0x964 JUMP JUMPDEST PUSH2 0x9D9 DUP2 DUP6 PUSH2 0x96F JUMP JUMPDEST SWAP4 POP PUSH2 0x9E9 DUP2 DUP6 PUSH1 0x20 DUP7 ADD PUSH2 0x980 JUMP JUMPDEST PUSH2 0x9F2 DUP2 PUSH2 0x9B3 JUMP JUMPDEST DUP5 ADD SWAP2 POP POP SWAP3 SWAP2 POP POP JUMP JUMPDEST PUSH1 0x0 PUSH1 0x20 DUP3 ADD SWAP1 POP DUP2 DUP2 SUB PUSH1 0x0 DUP4 ADD MSTORE PUSH2 0xA17 DUP2 DUP5 PUSH2 0x9C4 JUMP JUMPDEST SWAP1 POP SWAP3 SWAP2 POP POP JUMP JUMPDEST PUSH1 0x0 PUSH20 0xFFFFFFFFFFFFFFFFFFFFFFFFFFFFFFFFFFFFFFFF DUP3 AND SWAP1 POP SWAP2 SWAP1 POP JUMP JUMPDEST PUSH1 0x0 PUSH2 0xA4A DUP3 PUSH2 0xA1F JUMP JUMPDEST SWAP1 POP SWAP2 SWAP1 POP JUMP JUMPDEST PUSH2 0xA5A DUP2 PUSH2 0xA3F JUMP JUMPDEST DUP3 MSTORE POP POP JUMP JUMPDEST PUSH1 0x0 PUSH1 0x40 DUP3 ADD SWAP1 POP PUSH2 0xA75 PUSH1 0x0 DUP4 ADD DUP6 PUSH2 0xA51 JUMP JUMPDEST PUSH2 0xA82 PUSH1 0x20 DUP4 ADD DUP5 PUSH2 0x8CD JUMP JUMPDEST SWAP4 SWAP3 POP POP POP JUMP JUMPDEST PUSH1 0x0 PUSH1 0x20 DUP3 ADD SWAP1 POP PUSH2 0xA9E PUSH1 0x0 DUP4 ADD DUP5 PUSH2 0xA51 JUMP JUMPDEST SWAP3 SWAP2 POP POP JUMP JUMPDEST PUSH1 0x0 DUP1 REVERT JUMPDEST PUSH1 0x0 DUP1 REVERT JUMPDEST PUSH32 0x4E487B7100000000000000000000000000000000000000000000000000000000 PUSH1 0x0 MSTORE PUSH1 0x41 PUSH1 0x4 MSTORE PUSH1 0x24 PUSH1 0x0 REVERT JUMPDEST PUSH2 0xAE6 DUP3 PUSH2 0x9B3 JUMP JUMPDEST DUP2 ADD DUP2 DUP2 LT PUSH8 0xFFFFFFFFFFFFFFFF DUP3 GT OR ISZERO PUSH2 0xB05 JUMPI PUSH2 0xB04 PUSH2 0xAAE JUMP JUMPDEST JUMPDEST DUP1 PUSH1 0x40 MSTORE POP POP POP JUMP JUMPDEST PUSH1 0x0 PUSH2 0xB18 PUSH2 0x8F7 JUMP JUMPDEST SWAP1 POP PUSH2 0xB24 DUP3 DUP3 PUSH2 0xADD JUMP JUMPDEST SWAP2 SWAP1 POP JUMP JUMPDEST PUSH1 0x0 PUSH8 0xFFFFFFFFFFFFFFFF DUP3 GT ISZERO PUSH2 0xB44 JUMPI PUSH2 0xB43 PUSH2 0xAAE JUMP JUMPDEST JUMPDEST PUSH2 0xB4D DUP3 PUSH2 0x9B3 JUMP JUMPDEST SWAP1 POP PUSH1 0x20 DUP2 ADD SWAP1 POP SWAP2 SWAP1 POP JUMP JUMPDEST DUP3 DUP2 DUP4 CALLDATACOPY PUSH1 0x0 DUP4 DUP4 ADD MSTORE POP POP POP JUMP JUMPDEST PUSH1 0x0 PUSH2 0xB7C PUSH2 0xB77 DUP5 PUSH2 0xB29 JUMP JUMPDEST PUSH2 0xB0E JUMP JUMPDEST SWAP1 POP DUP3 DUP2 MSTORE PUSH1 0x20 DUP2 ADD DUP5 DUP5 DUP5 ADD GT ISZERO PUSH2 0xB98 JUMPI PUSH2 0xB97 PUSH2 0xAA9 JUMP JUMPDEST JUMPDEST PUSH2 0xBA3 DUP5 DUP3 DUP6 PUSH2 0xB5A JUMP JUMPDEST POP SWAP4 SWAP3 POP POP POP JUMP JUMPDEST PUSH1 0x0 DUP3 PUSH1 0x1F DUP4 ADD SLT PUSH2 0xBC0 JUMPI PUSH2 0xBBF PUSH2 0xAA4 JUMP JUMPDEST JUMPDEST DUP2 CALLDATALOAD PUSH2 0xBD0 DUP5 DUP3 PUSH1 0x20 DUP7 ADD PUSH2 0xB69 JUMP JUMPDEST SWAP2 POP POP SWAP3 SWAP2 POP POP JUMP JUMPDEST PUSH1 0x0 PUSH1 0x20 DUP3 DUP5 SUB SLT ISZERO PUSH2 0xBEF JUMPI PUSH2 0xBEE PUSH2 0x901 JUMP JUMPDEST JUMPDEST PUSH1 0x0 DUP3 ADD CALLDATALOAD PUSH8 0xFFFFFFFFFFFFFFFF DUP2 GT ISZERO PUSH2 0xC0D JUMPI PUSH2 0xC0C PUSH2 0x906 JUMP JUMPDEST JUMPDEST PUSH2 0xC19 DUP5 DUP3 DUP6 ADD PUSH2 0xBAB JUMP JUMPDEST SWAP2 POP POP SWAP3 SWAP2 POP POP JUMP JUMPDEST PUSH32 0x4E487B7100000000000000000000000000000000000000000000000000000000 PUSH1 0x0 MSTORE PUSH1 0x32 PUSH1 0x4 MSTORE PUSH1 0x24 PUSH1 0x0 REVERT JUMPDEST PUSH32 0x4E487B7100000000000000000000000000000000000000000000000000000000 PUSH1 0x0 MSTORE PUSH1 0x22 PUSH1 0x4 MSTORE PUSH1 0x24 PUSH1 0x0 REVERT JUMPDEST PUSH1 0x0 PUSH1 0x2 DUP3 DIV SWAP1 POP PUSH1 0x1 DUP3 AND DUP1 PUSH2 0xC98 JUMPI PUSH1 0x7F DUP3 AND SWAP2 POP JUMPDEST PUSH1 0x20 DUP3 LT DUP2 EQ ISZERO PUSH2 0xCAC JUMPI PUSH2 0xCAB PUSH2 0xC51 JUMP JUMPDEST JUMPDEST POP SWAP2 SWAP1 POP JUMP JUMPDEST PUSH1 0x0 PUSH1 0xFF DUP3 AND SWAP1 POP SWAP2 SWAP1 POP JUMP JUMPDEST PUSH2 0xCC8 DUP2 PUSH2 0xCB2 JUMP JUMPDEST DUP2 EQ PUSH2 0xCD3 JUMPI PUSH1 0x0 DUP1 REVERT JUMPDEST POP JUMP JUMPDEST PUSH1 0x0 DUP2 MLOAD SWAP1 POP PUSH2 0xCE5 DUP2 PUSH2 0xCBF JUMP JUMPDEST SWAP3 SWAP2 POP POP JUMP JUMPDEST PUSH1 0x0 PUSH1 0x20 DUP3 DUP5 SUB SLT ISZERO PUSH2 0xD01 JUMPI PUSH2 0xD00 PUSH2 0x901 JUMP JUMPDEST JUMPDEST PUSH1 0x0 PUSH2 0xD0F DUP5 DUP3 DUP6 ADD PUSH2 0xCD6 JUMP JUMPDEST SWAP2 POP POP SWAP3 SWAP2 POP POP JUMP JUMPDEST PUSH1 0x0 PUSH8 0xFFFFFFFFFFFFFFFF DUP3 GT ISZERO PUSH2 0xD33 JUMPI PUSH2 0xD32 PUSH2 0xAAE JUMP JUMPDEST JUMPDEST PUSH1 0x20 DUP3 MUL SWAP1 POP SWAP2 SWAP1 POP JUMP JUMPDEST PUSH1 0x0 DUP1 REVERT JUMPDEST PUSH1 0x0 PUSH2 0xD56 PUSH2 0xD51 DUP5 PUSH2 0xB29 JUMP JUMPDEST PUSH2 0xB0E JUMP JUMPDEST SWAP1 POP DUP3 DUP2 MSTORE PUSH1 0x20 DUP2 ADD DUP5 DUP5 DUP5 ADD GT ISZERO PUSH2 0xD72 JUMPI PUSH2 0xD71 PUSH2 0xAA9 JUMP JUMPDEST JUMPDEST PUSH2 0xD7D DUP5 DUP3 DUP6 PUSH2 0x980 JUMP JUMPDEST POP SWAP4 SWAP3 POP POP POP JUMP JUMPDEST PUSH1 0x0 DUP3 PUSH1 0x1F DUP4 ADD SLT PUSH2 0xD9A JUMPI PUSH2 0xD99 PUSH2 0xAA4 JUMP JUMPDEST JUMPDEST DUP2 MLOAD PUSH2 0xDAA DUP5 DUP3 PUSH1 0x20 DUP7 ADD PUSH2 0xD43 JUMP JUMPDEST SWAP2 POP POP SWAP3 SWAP2 POP POP JUMP JUMPDEST PUSH1 0x0 PUSH2 0xDC6 PUSH2 0xDC1 DUP5 PUSH2 0xD18 JUMP JUMPDEST PUSH2 0xB0E JUMP JUMPDEST SWAP1 POP DUP1 PUSH1 0x20 DUP5 MUL DUP4 ADD DUP6 DUP2 GT ISZERO PUSH2 0xDE0 JUMPI PUSH2 0xDDF PUSH2 0xD3E JUMP JUMPDEST JUMPDEST DUP4 JUMPDEST DUP2 DUP2 LT ISZERO PUSH2 0xE27 JUMPI DUP1 MLOAD PUSH8 0xFFFFFFFFFFFFFFFF DUP2 GT ISZERO PUSH2 0xE05 JUMPI PUSH2 0xE04 PUSH2 0xAA4 JUMP JUMPDEST JUMPDEST DUP1 DUP7 ADD PUSH2 0xE12 DUP10 DUP3 PUSH2 0xD85 JUMP JUMPDEST DUP6 MSTORE PUSH1 0x20 DUP6 ADD SWAP5 POP POP POP PUSH1 0x20 DUP2 ADD SWAP1 POP PUSH2 0xDE2 JUMP JUMPDEST POP POP POP SWAP4 SWAP3 POP POP POP JUMP JUMPDEST PUSH1 0x0 DUP3 PUSH1 0x1F DUP4 ADD SLT PUSH2 0xE46 JUMPI PUSH2 0xE45 PUSH2 0xAA4 JUMP JUMPDEST JUMPDEST PUSH1 0x3 PUSH2 0xE53 DUP5 DUP3 DUP6 PUSH2 0xDB3 JUMP JUMPDEST SWAP2 POP POP SWAP3 SWAP2 POP POP JUMP JUMPDEST PUSH1 0x0 PUSH1 0x20 DUP3 DUP5 SUB SLT ISZERO PUSH2 0xE72 JUMPI PUSH2 0xE71 PUSH2 0x901 JUMP JUMPDEST JUMPDEST PUSH1 0x0 DUP3 ADD MLOAD PUSH8 0xFFFFFFFFFFFFFFFF DUP2 GT ISZERO PUSH2 0xE90 JUMPI PUSH2 0xE8F PUSH2 0x906 JUMP JUMPDEST JUMPDEST PUSH2 0xE9C DUP5 DUP3 DUP6 ADD PUSH2 0xE31 JUMP JUMPDEST SWAP2 POP POP SWAP3 SWAP2 POP POP JUMP JUMPDEST PUSH32 0x4E6F7420417574686F72697A65642C2041646D696E204F6E6C79000000000000 PUSH1 0x0 DUP3 ADD MSTORE POP JUMP JUMPDEST PUSH1 0x0 PUSH2 0xEDB PUSH1 0x1A DUP4 PUSH2 0x96F JUMP JUMPDEST SWAP2 POP PUSH2 0xEE6 DUP3 PUSH2 0xEA5 JUMP JUMPDEST PUSH1 0x20 DUP3 ADD SWAP1 POP SWAP2 SWAP1 POP JUMP JUMPDEST PUSH1 0x0 PUSH1 0x20 DUP3 ADD SWAP1 POP DUP2 DUP2 SUB PUSH1 0x0 DUP4 ADD MSTORE PUSH2 0xF0A DUP2 PUSH2 0xECE JUMP JUMPDEST SWAP1 POP SWAP2 SWAP1 POP JUMP JUMPDEST PUSH32 0x4E487B7100000000000000000000000000000000000000000000000000000000 PUSH1 0x0 MSTORE PUSH1 0x11 PUSH1 0x4 MSTORE PUSH1 0x24 PUSH1 0x0 REVERT JUMPDEST PUSH1 0x0 PUSH2 0xF4B DUP3 PUSH2 0x8C3 JUMP JUMPDEST SWAP2 POP PUSH32 0xFFFFFFFFFFFFFFFFFFFFFFFFFFFFFFFFFFFFFFFFFFFFFFFFFFFFFFFFFFFFFFFF DUP3 EQ ISZERO PUSH2 0xF7E JUMPI PUSH2 0xF7D PUSH2 0xF11 JUMP JUMPDEST JUMPDEST PUSH1 0x1 DUP3 ADD SWAP1 POP SWAP2 SWAP1 POP JUMP JUMPDEST PUSH32 0x4F7574206F66204C696D69740000000000000000000000000000000000000000 PUSH1 0x0 DUP3 ADD MSTORE POP JUMP JUMPDEST PUSH1 0x0 PUSH2 0xFBF PUSH1 0xC DUP4 PUSH2 0x96F JUMP JUMPDEST SWAP2 POP PUSH2 0xFCA DUP3 PUSH2 0xF89 JUMP JUMPDEST PUSH1 0x20 DUP3 ADD SWAP1 POP SWAP2 SWAP1 POP JUMP JUMPDEST PUSH1 0x0 PUSH1 0x20 DUP3 ADD SWAP1 POP DUP2 DUP2 SUB PUSH1 0x0 DUP4 ADD MSTORE PUSH2 0xFEE DUP2 PUSH2 0xFB2 JUMP JUMPDEST SWAP1 POP SWAP2 SWAP1 POP JUMP INVALID LOG2 PUSH5 0x6970667358 0x22 SLT KECCAK256 0x2E 0xC3 TIMESTAMP 0x4B RETURNDATACOPY 0x26 0x22 MSTORE8 0x5D STATICCALL 0xB6 0xAF INVALID 0xE1 DUP8 0x4B 0x2D 0xB3 DUP7 0xB5 EXTCODESIZE 0xE7 STATICCALL 0xDE SWAP16 LOG0 EQ PUSH21 0xF014EE6D64736F6C63430008080033000000000000 "
				},
				"gasEstimates": {
					"creation": {
						"codeDepositCost": "827800",
						"executionCost": "infinite",
						"totalCost": "infinite"
					},
					"external": {
						"adminAddress()": "2602",
						"changeGatchaLimit(uint256)": "26909",
						"createGatcha()": "infinite",
						"getUsers(uint256)": "infinite",
						"limitGatcha()": "2430",
						"ownerAddress()": "2603",
						"rarityList(uint256)": "infinite",
						"rarityListFunc()": "infinite",
						"rarityRateFunc(string)": "infinite",
						"registeredUsers(uint256)": "infinite"
					}
				},
				"methodIdentifiers": {
					"adminAddress()": "fc6f9468",
					"changeGatchaLimit(uint256)": "c15d3ead",
					"createGatcha()": "e917ec96",
					"getUsers(uint256)": "5d73ab9a",
					"limitGatcha()": "06cd309b",
					"ownerAddress()": "8f84aa09",
					"rarityList(uint256)": "6fd3d9e2",
					"rarityListFunc()": "bb4a376b",
					"rarityRateFunc(string)": "a7beb5d0",
					"registeredUsers(uint256)": "7259e0f8"
				}
			},
			"storageLayout": {
				"storage": [
					{
						"astId": 8,
						"contract": "contracts/TestInterview.sol:TestInterview",
						"label": "objINFT",
						"offset": 0,
						"slot": "0",
						"type": "t_contract(INFT)235"
					},
					{
						"astId": 11,
						"contract": "contracts/TestInterview.sol:TestInterview",
						"label": "ownerAddress",
						"offset": 0,
						"slot": "1",
						"type": "t_address"
					},
					{
						"astId": 13,
						"contract": "contracts/TestInterview.sol:TestInterview",
						"label": "adminAddress",
						"offset": 0,
						"slot": "2",
						"type": "t_address"
					},
					{
						"astId": 16,
						"contract": "contracts/TestInterview.sol:TestInterview",
						"label": "limitGatcha",
						"offset": 0,
						"slot": "3",
						"type": "t_uint256"
					},
					{
						"astId": 19,
						"contract": "contracts/TestInterview.sol:TestInterview",
						"label": "rarityList",
						"offset": 0,
						"slot": "4",
						"type": "t_array(t_string_storage)dyn_storage"
					},
					{
						"astId": 28,
						"contract": "contracts/TestInterview.sol:TestInterview",
						"label": "registeredUsers",
						"offset": 0,
						"slot": "5",
						"type": "t_array(t_struct(RegisteredUser)24_storage)dyn_storage"
					}
				],
				"types": {
					"t_address": {
						"encoding": "inplace",
						"label": "address",
						"numberOfBytes": "20"
					},
					"t_array(t_string_storage)dyn_storage": {
						"base": "t_string_storage",
						"encoding": "dynamic_array",
						"label": "string[]",
						"numberOfBytes": "32"
					},
					"t_array(t_struct(RegisteredUser)24_storage)dyn_storage": {
						"base": "t_struct(RegisteredUser)24_storage",
						"encoding": "dynamic_array",
						"label": "struct TestInterview.RegisteredUser[]",
						"numberOfBytes": "32"
					},
					"t_contract(INFT)235": {
						"encoding": "inplace",
						"label": "contract INFT",
						"numberOfBytes": "20"
					},
					"t_string_storage": {
						"encoding": "bytes",
						"label": "string",
						"numberOfBytes": "32"
					},
					"t_struct(RegisteredUser)24_storage": {
						"encoding": "inplace",
						"label": "struct TestInterview.RegisteredUser",
						"members": [
							{
								"astId": 21,
								"contract": "contracts/TestInterview.sol:TestInterview",
								"label": "userAddress",
								"offset": 0,
								"slot": "0",
								"type": "t_address"
							},
							{
								"astId": 23,
								"contract": "contracts/TestInterview.sol:TestInterview",
								"label": "counterVisited",
								"offset": 0,
								"slot": "1",
								"type": "t_uint256"
							}
						],
						"numberOfBytes": "64"
					},
					"t_uint256": {
						"encoding": "inplace",
						"label": "uint256",
						"numberOfBytes": "32"
					}
				}
			},
			"userdoc": {
				"kind": "user",
				"methods": {},
				"version": 1
			}
		}
	}
}