{
	"contracts/TestInterview.sol": {
		"TestInterview": {
			"abi": [
				{
					"inputs": [],
					"stateMutability": "nonpayable",
					"type": "constructor"
				},
				{
					"inputs": [],
					"name": "adminAddress",
					"outputs": [
						{
							"internalType": "address",
							"name": "",
							"type": "address"
						}
					],
					"stateMutability": "view",
					"type": "function"
				},
				{
					"inputs": [
						{
							"internalType": "uint256",
							"name": "_newLimit",
							"type": "uint256"
						}
					],
					"name": "changeGatchaLimit",
					"outputs": [],
					"stateMutability": "nonpayable",
					"type": "function"
				},
				{
					"inputs": [],
					"name": "createGatcha",
					"outputs": [],
					"stateMutability": "nonpayable",
					"type": "function"
				},
				{
					"inputs": [],
					"name": "limitGatcha",
					"outputs": [
						{
							"internalType": "uint256",
							"name": "",
							"type": "uint256"
						}
					],
					"stateMutability": "view",
					"type": "function"
				},
				{
					"inputs": [],
					"name": "ownerAddress",
					"outputs": [
						{
							"internalType": "address",
							"name": "",
							"type": "address"
						}
					],
					"stateMutability": "view",
					"type": "function"
				},
				{
					"inputs": [
						{
							"internalType": "uint256",
							"name": "",
							"type": "uint256"
						}
					],
					"name": "rarityList",
					"outputs": [
						{
							"internalType": "string",
							"name": "name",
							"type": "string"
						},
						{
							"internalType": "uint256",
							"name": "min",
							"type": "uint256"
						},
						{
							"internalType": "uint256",
							"name": "max",
							"type": "uint256"
						}
					],
					"stateMutability": "view",
					"type": "function"
				},
				{
					"inputs": [
						{
							"internalType": "uint256",
							"name": "",
							"type": "uint256"
						}
					],
					"name": "registeredUsers",
					"outputs": [
						{
							"internalType": "address",
							"name": "userAddress",
							"type": "address"
						},
						{
							"internalType": "uint256",
							"name": "counterVisited",
							"type": "uint256"
						}
					],
					"stateMutability": "view",
					"type": "function"
				}
			],
			"devdoc": {
				"kind": "dev",
				"methods": {},
				"version": 1
			},
			"evm": {
				"assembly": "    /* \"contracts/TestInterview.sol\":208:3788  contract TestInterview {... */\n  mstore(0x40, 0x80)\n    /* \"contracts/TestInterview.sol\":258:300  0x50C7a09925375438D2cEe94C5c59266c6fFAAf8C */\n  0x50c7a09925375438d2cee94c5c59266c6ffaaf8c\n    /* \"contracts/TestInterview.sol\":238:301  INFT objINFT = INFT(0x50C7a09925375438D2cEe94C5c59266c6fFAAf8C) */\n  0x00\n  dup1\n  0x0100\n  exp\n  dup2\n  sload\n  dup2\n  0xffffffffffffffffffffffffffffffffffffffff\n  mul\n  not\n  and\n  swap1\n  dup4\n  0xffffffffffffffffffffffffffffffffffffffff\n  and\n  mul\n  or\n  swap1\n  sstore\n  pop\n    /* \"contracts/TestInterview.sol\":338:380  0xdBDdb8575F6bda11F1DC548A1B546463CC567C3d */\n  0xdbddb8575f6bda11f1dc548a1b546463cc567c3d\n    /* \"contracts/TestInterview.sol\":308:380  address public ownerAddress = 0xdBDdb8575F6bda11F1DC548A1B546463CC567C3d */\n  0x01\n  exp(0x0100, 0x00)\n  dup2\n  sload\n  dup2\n  0xffffffffffffffffffffffffffffffffffffffff\n  mul\n  not\n  and\n  swap1\n  dup4\n  0xffffffffffffffffffffffffffffffffffffffff\n  and\n  mul\n  or\n  swap1\n  sstore\n  pop\n    /* \"contracts/TestInterview.sol\":447:448  2 */\n  0x02\n    /* \"contracts/TestInterview.sol\":421:448  uint public limitGatcha = 2 */\n  0x03\n  sstore\n    /* \"contracts/TestInterview.sol\":799:1359  constructor() {... */\n  callvalue\n  dup1\n  iszero\n  tag_1\n  jumpi\n  0x00\n  dup1\n  revert\ntag_1:\n  pop\n    /* \"contracts/TestInterview.sol\":839:849  msg.sender */\n  caller\n    /* \"contracts/TestInterview.sol\":824:836  adminAddress */\n  0x02\n  0x00\n    /* \"contracts/TestInterview.sol\":824:849  adminAddress = msg.sender */\n  0x0100\n  exp\n  dup2\n  sload\n  dup2\n  0xffffffffffffffffffffffffffffffffffffffff\n  mul\n  not\n  and\n  swap1\n  dup4\n  0xffffffffffffffffffffffffffffffffffffffff\n  and\n  mul\n  or\n  swap1\n  sstore\n  pop\n    /* \"contracts/TestInterview.sol\":860:892  string[3] memory localRarityList */\n  0x00\n    /* \"contracts/TestInterview.sol\":895:902  objINFT */\n  dup1\n  0x00\n  swap1\n  sload\n  swap1\n  0x0100\n  exp\n  swap1\n  div\n  0xffffffffffffffffffffffffffffffffffffffff\n  and\n    /* \"contracts/TestInterview.sol\":895:916  objINFT.getRarityList */\n  0xffffffffffffffffffffffffffffffffffffffff\n  and\n  0x48441d5f\n    /* \"contracts/TestInterview.sol\":895:918  objINFT.getRarityList() */\n  mload(0x40)\n  dup2\n  0xffffffff\n  and\n  0xe0\n  shl\n  dup2\n  mstore\n  0x04\n  add\n  0x00\n  mload(0x40)\n  dup1\n  dup4\n  sub\n  dup2\n  dup7\n  dup1\n  extcodesize\n  iszero\n  dup1\n  iszero\n  tag_4\n  jumpi\n  0x00\n  dup1\n  revert\ntag_4:\n  pop\n  gas\n  staticcall\n  iszero\n  dup1\n  iszero\n  tag_6\n  jumpi\n  returndatasize\n  0x00\n  dup1\n  returndatacopy\n  revert(0x00, returndatasize)\ntag_6:\n  pop\n  pop\n  pop\n  pop\n  mload(0x40)\n  returndatasize\n  0x00\n  dup3\n  returndatacopy\n  returndatasize\n  not(0x1f)\n  0x1f\n  dup3\n  add\n  and\n  dup3\n  add\n  dup1\n  0x40\n  mstore\n  pop\n  dup2\n  add\n  swap1\n  tag_7\n  swap2\n  swap1\n  tag_8\n  jump\t// in\ntag_7:\n    /* \"contracts/TestInterview.sol\":860:918  string[3] memory localRarityList = objINFT.getRarityList() */\n  swap1\n  pop\n    /* \"contracts/TestInterview.sol\":931:947  uint256 minValue */\n  0x00\n    /* \"contracts/TestInterview.sol\":968:981  uint256 index */\n  dup1\n    /* \"contracts/TestInterview.sol\":964:1352  for(uint256 index = 0; index < localRarityList.length; index++)... */\ntag_9:\n    /* \"contracts/TestInterview.sol\":995:1017  localRarityList.length */\n  0x03\n    /* \"contracts/TestInterview.sol\":987:992  index */\n  dup2\n    /* \"contracts/TestInterview.sol\":987:1017  index < localRarityList.length */\n  lt\n    /* \"contracts/TestInterview.sol\":964:1352  for(uint256 index = 0; index < localRarityList.length; index++)... */\n  iszero\n  tag_10\n  jumpi\n    /* \"contracts/TestInterview.sol\":1052:1067  uint rarityRate */\n  0x00\n    /* \"contracts/TestInterview.sol\":1070:1077  objINFT */\n  dup1\n  0x00\n  swap1\n  sload\n  swap1\n  0x0100\n  exp\n  swap1\n  div\n  0xffffffffffffffffffffffffffffffffffffffff\n  and\n    /* \"contracts/TestInterview.sol\":1070:1091  objINFT.getRarityRate */\n  0xffffffffffffffffffffffffffffffffffffffff\n  and\n  0x278a7f33\n    /* \"contracts/TestInterview.sol\":1092:1107  localRarityList */\n  dup6\n    /* \"contracts/TestInterview.sol\":1108:1113  index */\n  dup5\n    /* \"contracts/TestInterview.sol\":1092:1114  localRarityList[index] */\n  0x03\n  dup2\n  lt\n  tag_12\n  jumpi\n  tag_13\n  tag_14\n  jump\t// in\ntag_13:\ntag_12:\n  0x20\n  mul\n  add\n  mload\n    /* \"contracts/TestInterview.sol\":1070:1115  objINFT.getRarityRate(localRarityList[index]) */\n  mload(0x40)\n  dup3\n  0xffffffff\n  and\n  0xe0\n  shl\n  dup2\n  mstore\n  0x04\n  add\n  tag_15\n  swap2\n  swap1\n  tag_16\n  jump\t// in\ntag_15:\n  0x20\n  mload(0x40)\n  dup1\n  dup4\n  sub\n  dup2\n  dup7\n  dup1\n  extcodesize\n  iszero\n  dup1\n  iszero\n  tag_17\n  jumpi\n  0x00\n  dup1\n  revert\ntag_17:\n  pop\n  gas\n  staticcall\n  iszero\n  dup1\n  iszero\n  tag_19\n  jumpi\n  returndatasize\n  0x00\n  dup1\n  returndatacopy\n  revert(0x00, returndatasize)\ntag_19:\n  pop\n  pop\n  pop\n  pop\n  mload(0x40)\n  returndatasize\n  not(0x1f)\n  0x1f\n  dup3\n  add\n  and\n  dup3\n  add\n  dup1\n  0x40\n  mstore\n  pop\n  dup2\n  add\n  swap1\n  tag_20\n  swap2\n  swap1\n  tag_21\n  jump\t// in\ntag_20:\n    /* \"contracts/TestInterview.sol\":1052:1115  uint rarityRate = objINFT.getRarityRate(localRarityList[index]) */\n  0xff\n  and\n  swap1\n  pop\n    /* \"contracts/TestInterview.sol\":1130:1140  rarityList */\n  0x04\n    /* \"contracts/TestInterview.sol\":1146:1302  Rarity({... */\n  mload(0x40)\n  dup1\n  0x60\n  add\n  0x40\n  mstore\n  dup1\n    /* \"contracts/TestInterview.sol\":1179:1194  localRarityList */\n  dup7\n    /* \"contracts/TestInterview.sol\":1195:1200  index */\n  dup6\n    /* \"contracts/TestInterview.sol\":1179:1201  localRarityList[index] */\n  0x03\n  dup2\n  lt\n  tag_22\n  jumpi\n  tag_23\n  tag_14\n  jump\t// in\ntag_23:\ntag_22:\n  0x20\n  mul\n  add\n  mload\n    /* \"contracts/TestInterview.sol\":1146:1302  Rarity({... */\n  dup2\n  mstore\n  0x20\n  add\n    /* \"contracts/TestInterview.sol\":1226:1234  minValue */\n  dup6\n    /* \"contracts/TestInterview.sol\":1146:1302  Rarity({... */\n  dup2\n  mstore\n  0x20\n  add\n    /* \"contracts/TestInterview.sol\":1285:1286  1 */\n  0x01\n    /* \"contracts/TestInterview.sol\":1271:1281  rarityRate */\n  dup5\n    /* \"contracts/TestInterview.sol\":1260:1268  minValue */\n  dup8\n    /* \"contracts/TestInterview.sol\":1260:1281  minValue + rarityRate */\n  tag_24\n  swap2\n  swap1\n  tag_25\n  jump\t// in\ntag_24:\n    /* \"contracts/TestInterview.sol\":1259:1286  (minValue + rarityRate) - 1 */\n  tag_26\n  swap2\n  swap1\n  tag_27\n  jump\t// in\ntag_26:\n    /* \"contracts/TestInterview.sol\":1146:1302  Rarity({... */\n  dup2\n  mstore\n  pop\n    /* \"contracts/TestInterview.sol\":1130:1303  rarityList.push(Rarity({... */\n  swap1\n  dup1\n  0x01\n  dup2\n  sload\n  add\n  dup1\n  dup3\n  sstore\n  dup1\n  swap2\n  pop\n  pop\n  0x01\n  swap1\n  sub\n  swap1\n  0x00\n  mstore\n  keccak256(0x00, 0x20)\n  swap1\n  0x03\n  mul\n  add\n  0x00\n  swap1\n  swap2\n  swap1\n  swap2\n  swap1\n  swap2\n  pop\n  0x00\n  dup3\n  add\n  mload\n  dup2\n  0x00\n  add\n  swap1\n  dup1\n  mload\n  swap1\n  0x20\n  add\n  swap1\n  tag_29\n  swap3\n  swap2\n  swap1\n  tag_30\n  jump\t// in\ntag_29:\n  pop\n  0x20\n  dup3\n  add\n  mload\n  dup2\n  0x01\n  add\n  sstore\n  0x40\n  dup3\n  add\n  mload\n  dup2\n  0x02\n  add\n  sstore\n  pop\n  pop\n    /* \"contracts/TestInterview.sol\":1330:1340  rarityRate */\n  dup1\n    /* \"contracts/TestInterview.sol\":1318:1340  minValue += rarityRate */\n  dup4\n  tag_31\n  swap2\n  swap1\n  tag_25\n  jump\t// in\ntag_31:\n  swap3\n  pop\n    /* \"contracts/TestInterview.sol\":1037:1352  {... */\n  pop\n    /* \"contracts/TestInterview.sol\":1019:1026  index++ */\n  dup1\n  dup1\n  tag_32\n  swap1\n  tag_33\n  jump\t// in\ntag_32:\n  swap2\n  pop\n  pop\n    /* \"contracts/TestInterview.sol\":964:1352  for(uint256 index = 0; index < localRarityList.length; index++)... */\n  jump(tag_9)\ntag_10:\n  pop\n    /* \"contracts/TestInterview.sol\":813:1359  {... */\n  pop\n  pop\n    /* \"contracts/TestInterview.sol\":208:3788  contract TestInterview {... */\n  jump(tag_34)\ntag_30:\n  dup3\n  dup1\n  sload\n  tag_35\n  swap1\n  tag_36\n  jump\t// in\ntag_35:\n  swap1\n  0x00\n  mstore\n  keccak256(0x00, 0x20)\n  swap1\n  0x1f\n  add\n  0x20\n  swap1\n  div\n  dup2\n  add\n  swap3\n  dup3\n  tag_38\n  jumpi\n  0x00\n  dup6\n  sstore\n  jump(tag_37)\ntag_38:\n  dup3\n  0x1f\n  lt\n  tag_39\n  jumpi\n  dup1\n  mload\n  not(0xff)\n  and\n  dup4\n  dup1\n  add\n  or\n  dup6\n  sstore\n  jump(tag_37)\ntag_39:\n  dup3\n  dup1\n  add\n  0x01\n  add\n  dup6\n  sstore\n  dup3\n  iszero\n  tag_37\n  jumpi\n  swap2\n  dup3\n  add\ntag_40:\n  dup3\n  dup2\n  gt\n  iszero\n  tag_41\n  jumpi\n  dup3\n  mload\n  dup3\n  sstore\n  swap2\n  0x20\n  add\n  swap2\n  swap1\n  0x01\n  add\n  swap1\n  jump(tag_40)\ntag_41:\ntag_37:\n  pop\n  swap1\n  pop\n  tag_42\n  swap2\n  swap1\n  tag_43\n  jump\t// in\ntag_42:\n  pop\n  swap1\n  jump\t// out\ntag_43:\ntag_44:\n  dup1\n  dup3\n  gt\n  iszero\n  tag_45\n  jumpi\n  0x00\n  dup2\n  0x00\n  swap1\n  sstore\n  pop\n  0x01\n  add\n  jump(tag_44)\ntag_45:\n  pop\n  swap1\n  jump\t// out\n    /* \"#utility.yul\":7:82   */\ntag_46:\n    /* \"#utility.yul\":40:46   */\n  0x00\n    /* \"#utility.yul\":73:75   */\n  0x40\n    /* \"#utility.yul\":67:76   */\n  mload\n    /* \"#utility.yul\":57:76   */\n  swap1\n  pop\n    /* \"#utility.yul\":7:82   */\n  swap1\n  jump\t// out\n    /* \"#utility.yul\":88:205   */\ntag_47:\n    /* \"#utility.yul\":197:198   */\n  0x00\n    /* \"#utility.yul\":194:195   */\n  dup1\n    /* \"#utility.yul\":187:199   */\n  revert\n    /* \"#utility.yul\":211:328   */\ntag_48:\n    /* \"#utility.yul\":320:321   */\n  0x00\n    /* \"#utility.yul\":317:318   */\n  dup1\n    /* \"#utility.yul\":310:322   */\n  revert\n    /* \"#utility.yul\":334:451   */\ntag_49:\n    /* \"#utility.yul\":443:444   */\n  0x00\n    /* \"#utility.yul\":440:441   */\n  dup1\n    /* \"#utility.yul\":433:445   */\n  revert\n    /* \"#utility.yul\":457:559   */\ntag_50:\n    /* \"#utility.yul\":498:504   */\n  0x00\n    /* \"#utility.yul\":549:551   */\n  0x1f\n    /* \"#utility.yul\":545:552   */\n  not\n    /* \"#utility.yul\":540:542   */\n  0x1f\n    /* \"#utility.yul\":533:538   */\n  dup4\n    /* \"#utility.yul\":529:543   */\n  add\n    /* \"#utility.yul\":525:553   */\n  and\n    /* \"#utility.yul\":515:553   */\n  swap1\n  pop\n    /* \"#utility.yul\":457:559   */\n  swap2\n  swap1\n  pop\n  jump\t// out\n    /* \"#utility.yul\":565:745   */\ntag_51:\n    /* \"#utility.yul\":613:690   */\n  0x4e487b7100000000000000000000000000000000000000000000000000000000\n    /* \"#utility.yul\":610:611   */\n  0x00\n    /* \"#utility.yul\":603:691   */\n  mstore\n    /* \"#utility.yul\":710:714   */\n  0x41\n    /* \"#utility.yul\":707:708   */\n  0x04\n    /* \"#utility.yul\":700:715   */\n  mstore\n    /* \"#utility.yul\":734:738   */\n  0x24\n    /* \"#utility.yul\":731:732   */\n  0x00\n    /* \"#utility.yul\":724:739   */\n  revert\n    /* \"#utility.yul\":751:1032   */\ntag_52:\n    /* \"#utility.yul\":834:861   */\n  tag_80\n    /* \"#utility.yul\":856:860   */\n  dup3\n    /* \"#utility.yul\":834:861   */\n  tag_50\n  jump\t// in\ntag_80:\n    /* \"#utility.yul\":826:832   */\n  dup2\n    /* \"#utility.yul\":822:862   */\n  add\n    /* \"#utility.yul\":964:970   */\n  dup2\n    /* \"#utility.yul\":952:962   */\n  dup2\n    /* \"#utility.yul\":949:971   */\n  lt\n    /* \"#utility.yul\":928:946   */\n  0xffffffffffffffff\n    /* \"#utility.yul\":916:926   */\n  dup3\n    /* \"#utility.yul\":913:947   */\n  gt\n    /* \"#utility.yul\":910:972   */\n  or\n    /* \"#utility.yul\":907:995   */\n  iszero\n  tag_81\n  jumpi\n    /* \"#utility.yul\":975:993   */\n  tag_82\n  tag_51\n  jump\t// in\ntag_82:\n    /* \"#utility.yul\":907:995   */\ntag_81:\n    /* \"#utility.yul\":1015:1025   */\n  dup1\n    /* \"#utility.yul\":1011:1013   */\n  0x40\n    /* \"#utility.yul\":1004:1026   */\n  mstore\n    /* \"#utility.yul\":794:1032   */\n  pop\n    /* \"#utility.yul\":751:1032   */\n  pop\n  pop\n  jump\t// out\n    /* \"#utility.yul\":1038:1167   */\ntag_53:\n    /* \"#utility.yul\":1072:1078   */\n  0x00\n    /* \"#utility.yul\":1099:1119   */\n  tag_84\n  tag_46\n  jump\t// in\ntag_84:\n    /* \"#utility.yul\":1089:1119   */\n  swap1\n  pop\n    /* \"#utility.yul\":1128:1161   */\n  tag_85\n    /* \"#utility.yul\":1156:1160   */\n  dup3\n    /* \"#utility.yul\":1148:1154   */\n  dup3\n    /* \"#utility.yul\":1128:1161   */\n  tag_52\n  jump\t// in\ntag_85:\n    /* \"#utility.yul\":1038:1167   */\n  swap2\n  swap1\n  pop\n  jump\t// out\n    /* \"#utility.yul\":1173:1432   */\ntag_54:\n    /* \"#utility.yul\":1258:1262   */\n  0x00\n    /* \"#utility.yul\":1348:1366   */\n  0xffffffffffffffff\n    /* \"#utility.yul\":1340:1346   */\n  dup3\n    /* \"#utility.yul\":1337:1367   */\n  gt\n    /* \"#utility.yul\":1334:1390   */\n  iszero\n  tag_87\n  jumpi\n    /* \"#utility.yul\":1370:1388   */\n  tag_88\n  tag_51\n  jump\t// in\ntag_88:\n    /* \"#utility.yul\":1334:1390   */\ntag_87:\n    /* \"#utility.yul\":1420:1424   */\n  0x20\n    /* \"#utility.yul\":1412:1418   */\n  dup3\n    /* \"#utility.yul\":1408:1425   */\n  mul\n    /* \"#utility.yul\":1400:1425   */\n  swap1\n  pop\n    /* \"#utility.yul\":1173:1432   */\n  swap2\n  swap1\n  pop\n  jump\t// out\n    /* \"#utility.yul\":1438:1555   */\ntag_55:\n    /* \"#utility.yul\":1547:1548   */\n  0x00\n    /* \"#utility.yul\":1544:1545   */\n  dup1\n    /* \"#utility.yul\":1537:1549   */\n  revert\n    /* \"#utility.yul\":1561:1678   */\ntag_56:\n    /* \"#utility.yul\":1670:1671   */\n  0x00\n    /* \"#utility.yul\":1667:1668   */\n  dup1\n    /* \"#utility.yul\":1660:1672   */\n  revert\n    /* \"#utility.yul\":1684:1992   */\ntag_57:\n    /* \"#utility.yul\":1746:1750   */\n  0x00\n    /* \"#utility.yul\":1836:1854   */\n  0xffffffffffffffff\n    /* \"#utility.yul\":1828:1834   */\n  dup3\n    /* \"#utility.yul\":1825:1855   */\n  gt\n    /* \"#utility.yul\":1822:1878   */\n  iszero\n  tag_92\n  jumpi\n    /* \"#utility.yul\":1858:1876   */\n  tag_93\n  tag_51\n  jump\t// in\ntag_93:\n    /* \"#utility.yul\":1822:1878   */\ntag_92:\n    /* \"#utility.yul\":1896:1925   */\n  tag_94\n    /* \"#utility.yul\":1918:1924   */\n  dup3\n    /* \"#utility.yul\":1896:1925   */\n  tag_50\n  jump\t// in\ntag_94:\n    /* \"#utility.yul\":1888:1925   */\n  swap1\n  pop\n    /* \"#utility.yul\":1980:1984   */\n  0x20\n    /* \"#utility.yul\":1974:1978   */\n  dup2\n    /* \"#utility.yul\":1970:1985   */\n  add\n    /* \"#utility.yul\":1962:1985   */\n  swap1\n  pop\n    /* \"#utility.yul\":1684:1992   */\n  swap2\n  swap1\n  pop\n  jump\t// out\n    /* \"#utility.yul\":1998:2305   */\ntag_58:\n    /* \"#utility.yul\":2066:2067   */\n  0x00\n    /* \"#utility.yul\":2076:2189   */\ntag_96:\n    /* \"#utility.yul\":2090:2096   */\n  dup4\n    /* \"#utility.yul\":2087:2088   */\n  dup2\n    /* \"#utility.yul\":2084:2097   */\n  lt\n    /* \"#utility.yul\":2076:2189   */\n  iszero\n  tag_98\n  jumpi\n    /* \"#utility.yul\":2175:2176   */\n  dup1\n    /* \"#utility.yul\":2170:2173   */\n  dup3\n    /* \"#utility.yul\":2166:2177   */\n  add\n    /* \"#utility.yul\":2160:2178   */\n  mload\n    /* \"#utility.yul\":2156:2157   */\n  dup2\n    /* \"#utility.yul\":2151:2154   */\n  dup5\n    /* \"#utility.yul\":2147:2158   */\n  add\n    /* \"#utility.yul\":2140:2179   */\n  mstore\n    /* \"#utility.yul\":2112:2114   */\n  0x20\n    /* \"#utility.yul\":2109:2110   */\n  dup2\n    /* \"#utility.yul\":2105:2115   */\n  add\n    /* \"#utility.yul\":2100:2115   */\n  swap1\n  pop\n    /* \"#utility.yul\":2076:2189   */\n  jump(tag_96)\ntag_98:\n    /* \"#utility.yul\":2207:2213   */\n  dup4\n    /* \"#utility.yul\":2204:2205   */\n  dup2\n    /* \"#utility.yul\":2201:2214   */\n  gt\n    /* \"#utility.yul\":2198:2299   */\n  iszero\n  tag_99\n  jumpi\n    /* \"#utility.yul\":2287:2288   */\n  0x00\n    /* \"#utility.yul\":2278:2284   */\n  dup5\n    /* \"#utility.yul\":2273:2276   */\n  dup5\n    /* \"#utility.yul\":2269:2285   */\n  add\n    /* \"#utility.yul\":2262:2289   */\n  mstore\n    /* \"#utility.yul\":2198:2299   */\ntag_99:\n    /* \"#utility.yul\":2047:2305   */\n  pop\n    /* \"#utility.yul\":1998:2305   */\n  pop\n  pop\n  pop\n  jump\t// out\n    /* \"#utility.yul\":2311:2732   */\ntag_59:\n    /* \"#utility.yul\":2400:2405   */\n  0x00\n    /* \"#utility.yul\":2425:2491   */\n  tag_101\n    /* \"#utility.yul\":2441:2490   */\n  tag_102\n    /* \"#utility.yul\":2483:2489   */\n  dup5\n    /* \"#utility.yul\":2441:2490   */\n  tag_57\n  jump\t// in\ntag_102:\n    /* \"#utility.yul\":2425:2491   */\n  tag_53\n  jump\t// in\ntag_101:\n    /* \"#utility.yul\":2416:2491   */\n  swap1\n  pop\n    /* \"#utility.yul\":2514:2520   */\n  dup3\n    /* \"#utility.yul\":2507:2512   */\n  dup2\n    /* \"#utility.yul\":2500:2521   */\n  mstore\n    /* \"#utility.yul\":2552:2556   */\n  0x20\n    /* \"#utility.yul\":2545:2550   */\n  dup2\n    /* \"#utility.yul\":2541:2557   */\n  add\n    /* \"#utility.yul\":2590:2593   */\n  dup5\n    /* \"#utility.yul\":2581:2587   */\n  dup5\n    /* \"#utility.yul\":2576:2579   */\n  dup5\n    /* \"#utility.yul\":2572:2588   */\n  add\n    /* \"#utility.yul\":2569:2594   */\n  gt\n    /* \"#utility.yul\":2566:2678   */\n  iszero\n  tag_103\n  jumpi\n    /* \"#utility.yul\":2597:2676   */\n  tag_104\n  tag_56\n  jump\t// in\ntag_104:\n    /* \"#utility.yul\":2566:2678   */\ntag_103:\n    /* \"#utility.yul\":2687:2726   */\n  tag_105\n    /* \"#utility.yul\":2719:2725   */\n  dup5\n    /* \"#utility.yul\":2714:2717   */\n  dup3\n    /* \"#utility.yul\":2709:2712   */\n  dup6\n    /* \"#utility.yul\":2687:2726   */\n  tag_58\n  jump\t// in\ntag_105:\n    /* \"#utility.yul\":2406:2732   */\n  pop\n    /* \"#utility.yul\":2311:2732   */\n  swap4\n  swap3\n  pop\n  pop\n  pop\n  jump\t// out\n    /* \"#utility.yul\":2752:3107   */\ntag_60:\n    /* \"#utility.yul\":2819:2824   */\n  0x00\n    /* \"#utility.yul\":2868:2871   */\n  dup3\n    /* \"#utility.yul\":2861:2865   */\n  0x1f\n    /* \"#utility.yul\":2853:2859   */\n  dup4\n    /* \"#utility.yul\":2849:2866   */\n  add\n    /* \"#utility.yul\":2845:2872   */\n  slt\n    /* \"#utility.yul\":2835:2957   */\n  tag_107\n  jumpi\n    /* \"#utility.yul\":2876:2955   */\n  tag_108\n  tag_49\n  jump\t// in\ntag_108:\n    /* \"#utility.yul\":2835:2957   */\ntag_107:\n    /* \"#utility.yul\":2986:2992   */\n  dup2\n    /* \"#utility.yul\":2980:2993   */\n  mload\n    /* \"#utility.yul\":3011:3101   */\n  tag_109\n    /* \"#utility.yul\":3097:3100   */\n  dup5\n    /* \"#utility.yul\":3089:3095   */\n  dup3\n    /* \"#utility.yul\":3082:3086   */\n  0x20\n    /* \"#utility.yul\":3074:3080   */\n  dup7\n    /* \"#utility.yul\":3070:3087   */\n  add\n    /* \"#utility.yul\":3011:3101   */\n  tag_59\n  jump\t// in\ntag_109:\n    /* \"#utility.yul\":3002:3101   */\n  swap2\n  pop\n    /* \"#utility.yul\":2825:3107   */\n  pop\n    /* \"#utility.yul\":2752:3107   */\n  swap3\n  swap2\n  pop\n  pop\n  jump\t// out\n    /* \"#utility.yul\":3130:4023   */\ntag_61:\n    /* \"#utility.yul\":3245:3250   */\n  0x00\n    /* \"#utility.yul\":3270:3359   */\n  tag_111\n    /* \"#utility.yul\":3286:3358   */\n  tag_112\n    /* \"#utility.yul\":3351:3357   */\n  dup5\n    /* \"#utility.yul\":3286:3358   */\n  tag_54\n  jump\t// in\ntag_112:\n    /* \"#utility.yul\":3270:3359   */\n  tag_53\n  jump\t// in\ntag_111:\n    /* \"#utility.yul\":3261:3359   */\n  swap1\n  pop\n    /* \"#utility.yul\":3379:3384   */\n  dup1\n    /* \"#utility.yul\":3432:3436   */\n  0x20\n    /* \"#utility.yul\":3424:3430   */\n  dup5\n    /* \"#utility.yul\":3420:3437   */\n  mul\n    /* \"#utility.yul\":3412:3418   */\n  dup4\n    /* \"#utility.yul\":3408:3438   */\n  add\n    /* \"#utility.yul\":3461:3464   */\n  dup6\n    /* \"#utility.yul\":3453:3459   */\n  dup2\n    /* \"#utility.yul\":3450:3465   */\n  gt\n    /* \"#utility.yul\":3447:3569   */\n  iszero\n  tag_113\n  jumpi\n    /* \"#utility.yul\":3480:3559   */\n  tag_114\n  tag_55\n  jump\t// in\ntag_114:\n    /* \"#utility.yul\":3447:3569   */\ntag_113:\n    /* \"#utility.yul\":3595:3601   */\n  dup4\n    /* \"#utility.yul\":3578:4017   */\ntag_115:\n    /* \"#utility.yul\":3612:3618   */\n  dup2\n    /* \"#utility.yul\":3607:3610   */\n  dup2\n    /* \"#utility.yul\":3604:3619   */\n  lt\n    /* \"#utility.yul\":3578:4017   */\n  iszero\n  tag_117\n  jumpi\n    /* \"#utility.yul\":3694:3697   */\n  dup1\n    /* \"#utility.yul\":3688:3698   */\n  mload\n    /* \"#utility.yul\":3730:3748   */\n  0xffffffffffffffff\n    /* \"#utility.yul\":3717:3728   */\n  dup2\n    /* \"#utility.yul\":3714:3749   */\n  gt\n    /* \"#utility.yul\":3711:3833   */\n  iszero\n  tag_118\n  jumpi\n    /* \"#utility.yul\":3752:3831   */\n  tag_119\n  tag_49\n  jump\t// in\ntag_119:\n    /* \"#utility.yul\":3711:3833   */\ntag_118:\n    /* \"#utility.yul\":3876:3887   */\n  dup1\n    /* \"#utility.yul\":3868:3874   */\n  dup7\n    /* \"#utility.yul\":3864:3888   */\n  add\n    /* \"#utility.yul\":3914:3972   */\n  tag_120\n    /* \"#utility.yul\":3968:3971   */\n  dup10\n    /* \"#utility.yul\":3956:3966   */\n  dup3\n    /* \"#utility.yul\":3914:3972   */\n  tag_60\n  jump\t// in\ntag_120:\n    /* \"#utility.yul\":3909:3912   */\n  dup6\n    /* \"#utility.yul\":3902:3973   */\n  mstore\n    /* \"#utility.yul\":4002:4006   */\n  0x20\n    /* \"#utility.yul\":3997:4000   */\n  dup6\n    /* \"#utility.yul\":3993:4007   */\n  add\n    /* \"#utility.yul\":3986:4007   */\n  swap5\n  pop\n    /* \"#utility.yul\":3654:4017   */\n  pop\n  pop\n    /* \"#utility.yul\":3638:3642   */\n  0x20\n    /* \"#utility.yul\":3633:3636   */\n  dup2\n    /* \"#utility.yul\":3629:3643   */\n  add\n    /* \"#utility.yul\":3622:3643   */\n  swap1\n  pop\n    /* \"#utility.yul\":3578:4017   */\n  jump(tag_115)\ntag_117:\n    /* \"#utility.yul\":3582:3603   */\n  pop\n    /* \"#utility.yul\":3251:4023   */\n  pop\n  pop\n    /* \"#utility.yul\":3130:4023   */\n  swap4\n  swap3\n  pop\n  pop\n  pop\n  jump\t// out\n    /* \"#utility.yul\":4046:4427   */\ntag_62:\n    /* \"#utility.yul\":4136:4141   */\n  0x00\n    /* \"#utility.yul\":4185:4188   */\n  dup3\n    /* \"#utility.yul\":4178:4182   */\n  0x1f\n    /* \"#utility.yul\":4170:4176   */\n  dup4\n    /* \"#utility.yul\":4166:4183   */\n  add\n    /* \"#utility.yul\":4162:4189   */\n  slt\n    /* \"#utility.yul\":4152:4274   */\n  tag_122\n  jumpi\n    /* \"#utility.yul\":4193:4272   */\n  tag_123\n  tag_49\n  jump\t// in\ntag_123:\n    /* \"#utility.yul\":4152:4274   */\ntag_122:\n    /* \"#utility.yul\":4297:4301   */\n  0x03\n    /* \"#utility.yul\":4319:4421   */\n  tag_124\n    /* \"#utility.yul\":4417:4420   */\n  dup5\n    /* \"#utility.yul\":4409:4415   */\n  dup3\n    /* \"#utility.yul\":4401:4407   */\n  dup6\n    /* \"#utility.yul\":4319:4421   */\n  tag_61\n  jump\t// in\ntag_124:\n    /* \"#utility.yul\":4310:4421   */\n  swap2\n  pop\n    /* \"#utility.yul\":4142:4427   */\n  pop\n    /* \"#utility.yul\":4046:4427   */\n  swap3\n  swap2\n  pop\n  pop\n  jump\t// out\n    /* \"#utility.yul\":4433:5003   */\ntag_8:\n    /* \"#utility.yul\":4536:4542   */\n  0x00\n    /* \"#utility.yul\":4585:4587   */\n  0x20\n    /* \"#utility.yul\":4573:4582   */\n  dup3\n    /* \"#utility.yul\":4564:4571   */\n  dup5\n    /* \"#utility.yul\":4560:4583   */\n  sub\n    /* \"#utility.yul\":4556:4588   */\n  slt\n    /* \"#utility.yul\":4553:4672   */\n  iszero\n  tag_126\n  jumpi\n    /* \"#utility.yul\":4591:4670   */\n  tag_127\n  tag_47\n  jump\t// in\ntag_127:\n    /* \"#utility.yul\":4553:4672   */\ntag_126:\n    /* \"#utility.yul\":4732:4733   */\n  0x00\n    /* \"#utility.yul\":4721:4730   */\n  dup3\n    /* \"#utility.yul\":4717:4734   */\n  add\n    /* \"#utility.yul\":4711:4735   */\n  mload\n    /* \"#utility.yul\":4762:4780   */\n  0xffffffffffffffff\n    /* \"#utility.yul\":4754:4760   */\n  dup2\n    /* \"#utility.yul\":4751:4781   */\n  gt\n    /* \"#utility.yul\":4748:4865   */\n  iszero\n  tag_128\n  jumpi\n    /* \"#utility.yul\":4784:4863   */\n  tag_129\n  tag_48\n  jump\t// in\ntag_129:\n    /* \"#utility.yul\":4748:4865   */\ntag_128:\n    /* \"#utility.yul\":4889:4986   */\n  tag_130\n    /* \"#utility.yul\":4978:4985   */\n  dup5\n    /* \"#utility.yul\":4969:4975   */\n  dup3\n    /* \"#utility.yul\":4958:4967   */\n  dup6\n    /* \"#utility.yul\":4954:4976   */\n  add\n    /* \"#utility.yul\":4889:4986   */\n  tag_62\n  jump\t// in\ntag_130:\n    /* \"#utility.yul\":4879:4986   */\n  swap2\n  pop\n    /* \"#utility.yul\":4682:4996   */\n  pop\n    /* \"#utility.yul\":4433:5003   */\n  swap3\n  swap2\n  pop\n  pop\n  jump\t// out\n    /* \"#utility.yul\":5009:5189   */\ntag_14:\n    /* \"#utility.yul\":5057:5134   */\n  0x4e487b7100000000000000000000000000000000000000000000000000000000\n    /* \"#utility.yul\":5054:5055   */\n  0x00\n    /* \"#utility.yul\":5047:5135   */\n  mstore\n    /* \"#utility.yul\":5154:5158   */\n  0x32\n    /* \"#utility.yul\":5151:5152   */\n  0x04\n    /* \"#utility.yul\":5144:5159   */\n  mstore\n    /* \"#utility.yul\":5178:5182   */\n  0x24\n    /* \"#utility.yul\":5175:5176   */\n  0x00\n    /* \"#utility.yul\":5168:5183   */\n  revert\n    /* \"#utility.yul\":5195:5294   */\ntag_63:\n    /* \"#utility.yul\":5247:5253   */\n  0x00\n    /* \"#utility.yul\":5281:5286   */\n  dup2\n    /* \"#utility.yul\":5275:5287   */\n  mload\n    /* \"#utility.yul\":5265:5287   */\n  swap1\n  pop\n    /* \"#utility.yul\":5195:5294   */\n  swap2\n  swap1\n  pop\n  jump\t// out\n    /* \"#utility.yul\":5300:5469   */\ntag_64:\n    /* \"#utility.yul\":5384:5395   */\n  0x00\n    /* \"#utility.yul\":5418:5424   */\n  dup3\n    /* \"#utility.yul\":5413:5416   */\n  dup3\n    /* \"#utility.yul\":5406:5425   */\n  mstore\n    /* \"#utility.yul\":5458:5462   */\n  0x20\n    /* \"#utility.yul\":5453:5456   */\n  dup3\n    /* \"#utility.yul\":5449:5463   */\n  add\n    /* \"#utility.yul\":5434:5463   */\n  swap1\n  pop\n    /* \"#utility.yul\":5300:5469   */\n  swap3\n  swap2\n  pop\n  pop\n  jump\t// out\n    /* \"#utility.yul\":5475:5839   */\ntag_65:\n    /* \"#utility.yul\":5563:5566   */\n  0x00\n    /* \"#utility.yul\":5591:5630   */\n  tag_135\n    /* \"#utility.yul\":5624:5629   */\n  dup3\n    /* \"#utility.yul\":5591:5630   */\n  tag_63\n  jump\t// in\ntag_135:\n    /* \"#utility.yul\":5646:5717   */\n  tag_136\n    /* \"#utility.yul\":5710:5716   */\n  dup2\n    /* \"#utility.yul\":5705:5708   */\n  dup6\n    /* \"#utility.yul\":5646:5717   */\n  tag_64\n  jump\t// in\ntag_136:\n    /* \"#utility.yul\":5639:5717   */\n  swap4\n  pop\n    /* \"#utility.yul\":5726:5778   */\n  tag_137\n    /* \"#utility.yul\":5771:5777   */\n  dup2\n    /* \"#utility.yul\":5766:5769   */\n  dup6\n    /* \"#utility.yul\":5759:5763   */\n  0x20\n    /* \"#utility.yul\":5752:5757   */\n  dup7\n    /* \"#utility.yul\":5748:5764   */\n  add\n    /* \"#utility.yul\":5726:5778   */\n  tag_58\n  jump\t// in\ntag_137:\n    /* \"#utility.yul\":5803:5832   */\n  tag_138\n    /* \"#utility.yul\":5825:5831   */\n  dup2\n    /* \"#utility.yul\":5803:5832   */\n  tag_50\n  jump\t// in\ntag_138:\n    /* \"#utility.yul\":5798:5801   */\n  dup5\n    /* \"#utility.yul\":5794:5833   */\n  add\n    /* \"#utility.yul\":5787:5833   */\n  swap2\n  pop\n    /* \"#utility.yul\":5567:5839   */\n  pop\n    /* \"#utility.yul\":5475:5839   */\n  swap3\n  swap2\n  pop\n  pop\n  jump\t// out\n    /* \"#utility.yul\":5845:6158   */\ntag_16:\n    /* \"#utility.yul\":5958:5962   */\n  0x00\n    /* \"#utility.yul\":5996:5998   */\n  0x20\n    /* \"#utility.yul\":5985:5994   */\n  dup3\n    /* \"#utility.yul\":5981:5999   */\n  add\n    /* \"#utility.yul\":5973:5999   */\n  swap1\n  pop\n    /* \"#utility.yul\":6045:6054   */\n  dup2\n    /* \"#utility.yul\":6039:6043   */\n  dup2\n    /* \"#utility.yul\":6035:6055   */\n  sub\n    /* \"#utility.yul\":6031:6032   */\n  0x00\n    /* \"#utility.yul\":6020:6029   */\n  dup4\n    /* \"#utility.yul\":6016:6033   */\n  add\n    /* \"#utility.yul\":6009:6056   */\n  mstore\n    /* \"#utility.yul\":6073:6151   */\n  tag_140\n    /* \"#utility.yul\":6146:6150   */\n  dup2\n    /* \"#utility.yul\":6137:6143   */\n  dup5\n    /* \"#utility.yul\":6073:6151   */\n  tag_65\n  jump\t// in\ntag_140:\n    /* \"#utility.yul\":6065:6151   */\n  swap1\n  pop\n    /* \"#utility.yul\":5845:6158   */\n  swap3\n  swap2\n  pop\n  pop\n  jump\t// out\n    /* \"#utility.yul\":6164:6250   */\ntag_66:\n    /* \"#utility.yul\":6199:6206   */\n  0x00\n    /* \"#utility.yul\":6239:6243   */\n  0xff\n    /* \"#utility.yul\":6232:6237   */\n  dup3\n    /* \"#utility.yul\":6228:6244   */\n  and\n    /* \"#utility.yul\":6217:6244   */\n  swap1\n  pop\n    /* \"#utility.yul\":6164:6250   */\n  swap2\n  swap1\n  pop\n  jump\t// out\n    /* \"#utility.yul\":6256:6374   */\ntag_67:\n    /* \"#utility.yul\":6327:6349   */\n  tag_143\n    /* \"#utility.yul\":6343:6348   */\n  dup2\n    /* \"#utility.yul\":6327:6349   */\n  tag_66\n  jump\t// in\ntag_143:\n    /* \"#utility.yul\":6320:6325   */\n  dup2\n    /* \"#utility.yul\":6317:6350   */\n  eq\n    /* \"#utility.yul\":6307:6368   */\n  tag_144\n  jumpi\n    /* \"#utility.yul\":6364:6365   */\n  0x00\n    /* \"#utility.yul\":6361:6362   */\n  dup1\n    /* \"#utility.yul\":6354:6366   */\n  revert\n    /* \"#utility.yul\":6307:6368   */\ntag_144:\n    /* \"#utility.yul\":6256:6374   */\n  pop\n  jump\t// out\n    /* \"#utility.yul\":6380:6519   */\ntag_68:\n    /* \"#utility.yul\":6435:6440   */\n  0x00\n    /* \"#utility.yul\":6466:6472   */\n  dup2\n    /* \"#utility.yul\":6460:6473   */\n  mload\n    /* \"#utility.yul\":6451:6473   */\n  swap1\n  pop\n    /* \"#utility.yul\":6482:6513   */\n  tag_146\n    /* \"#utility.yul\":6507:6512   */\n  dup2\n    /* \"#utility.yul\":6482:6513   */\n  tag_67\n  jump\t// in\ntag_146:\n    /* \"#utility.yul\":6380:6519   */\n  swap3\n  swap2\n  pop\n  pop\n  jump\t// out\n    /* \"#utility.yul\":6525:6872   */\ntag_21:\n    /* \"#utility.yul\":6593:6599   */\n  0x00\n    /* \"#utility.yul\":6642:6644   */\n  0x20\n    /* \"#utility.yul\":6630:6639   */\n  dup3\n    /* \"#utility.yul\":6621:6628   */\n  dup5\n    /* \"#utility.yul\":6617:6640   */\n  sub\n    /* \"#utility.yul\":6613:6645   */\n  slt\n    /* \"#utility.yul\":6610:6729   */\n  iszero\n  tag_148\n  jumpi\n    /* \"#utility.yul\":6648:6727   */\n  tag_149\n  tag_47\n  jump\t// in\ntag_149:\n    /* \"#utility.yul\":6610:6729   */\ntag_148:\n    /* \"#utility.yul\":6768:6769   */\n  0x00\n    /* \"#utility.yul\":6793:6855   */\n  tag_150\n    /* \"#utility.yul\":6847:6854   */\n  dup5\n    /* \"#utility.yul\":6838:6844   */\n  dup3\n    /* \"#utility.yul\":6827:6836   */\n  dup6\n    /* \"#utility.yul\":6823:6845   */\n  add\n    /* \"#utility.yul\":6793:6855   */\n  tag_68\n  jump\t// in\ntag_150:\n    /* \"#utility.yul\":6783:6855   */\n  swap2\n  pop\n    /* \"#utility.yul\":6739:6865   */\n  pop\n    /* \"#utility.yul\":6525:6872   */\n  swap3\n  swap2\n  pop\n  pop\n  jump\t// out\n    /* \"#utility.yul\":6878:6955   */\ntag_69:\n    /* \"#utility.yul\":6915:6922   */\n  0x00\n    /* \"#utility.yul\":6944:6949   */\n  dup2\n    /* \"#utility.yul\":6933:6949   */\n  swap1\n  pop\n    /* \"#utility.yul\":6878:6955   */\n  swap2\n  swap1\n  pop\n  jump\t// out\n    /* \"#utility.yul\":6961:7141   */\ntag_70:\n    /* \"#utility.yul\":7009:7086   */\n  0x4e487b7100000000000000000000000000000000000000000000000000000000\n    /* \"#utility.yul\":7006:7007   */\n  0x00\n    /* \"#utility.yul\":6999:7087   */\n  mstore\n    /* \"#utility.yul\":7106:7110   */\n  0x11\n    /* \"#utility.yul\":7103:7104   */\n  0x04\n    /* \"#utility.yul\":7096:7111   */\n  mstore\n    /* \"#utility.yul\":7130:7134   */\n  0x24\n    /* \"#utility.yul\":7127:7128   */\n  0x00\n    /* \"#utility.yul\":7120:7135   */\n  revert\n    /* \"#utility.yul\":7147:7452   */\ntag_25:\n    /* \"#utility.yul\":7187:7190   */\n  0x00\n    /* \"#utility.yul\":7206:7226   */\n  tag_154\n    /* \"#utility.yul\":7224:7225   */\n  dup3\n    /* \"#utility.yul\":7206:7226   */\n  tag_69\n  jump\t// in\ntag_154:\n    /* \"#utility.yul\":7201:7226   */\n  swap2\n  pop\n    /* \"#utility.yul\":7240:7260   */\n  tag_155\n    /* \"#utility.yul\":7258:7259   */\n  dup4\n    /* \"#utility.yul\":7240:7260   */\n  tag_69\n  jump\t// in\ntag_155:\n    /* \"#utility.yul\":7235:7260   */\n  swap3\n  pop\n    /* \"#utility.yul\":7394:7395   */\n  dup3\n    /* \"#utility.yul\":7326:7392   */\n  0xffffffffffffffffffffffffffffffffffffffffffffffffffffffffffffffff\n    /* \"#utility.yul\":7322:7396   */\n  sub\n    /* \"#utility.yul\":7319:7320   */\n  dup3\n    /* \"#utility.yul\":7316:7397   */\n  gt\n    /* \"#utility.yul\":7313:7420   */\n  iszero\n  tag_156\n  jumpi\n    /* \"#utility.yul\":7400:7418   */\n  tag_157\n  tag_70\n  jump\t// in\ntag_157:\n    /* \"#utility.yul\":7313:7420   */\ntag_156:\n    /* \"#utility.yul\":7444:7445   */\n  dup3\n    /* \"#utility.yul\":7441:7442   */\n  dup3\n    /* \"#utility.yul\":7437:7446   */\n  add\n    /* \"#utility.yul\":7430:7446   */\n  swap1\n  pop\n    /* \"#utility.yul\":7147:7452   */\n  swap3\n  swap2\n  pop\n  pop\n  jump\t// out\n    /* \"#utility.yul\":7458:7649   */\ntag_27:\n    /* \"#utility.yul\":7498:7502   */\n  0x00\n    /* \"#utility.yul\":7518:7538   */\n  tag_159\n    /* \"#utility.yul\":7536:7537   */\n  dup3\n    /* \"#utility.yul\":7518:7538   */\n  tag_69\n  jump\t// in\ntag_159:\n    /* \"#utility.yul\":7513:7538   */\n  swap2\n  pop\n    /* \"#utility.yul\":7552:7572   */\n  tag_160\n    /* \"#utility.yul\":7570:7571   */\n  dup4\n    /* \"#utility.yul\":7552:7572   */\n  tag_69\n  jump\t// in\ntag_160:\n    /* \"#utility.yul\":7547:7572   */\n  swap3\n  pop\n    /* \"#utility.yul\":7591:7592   */\n  dup3\n    /* \"#utility.yul\":7588:7589   */\n  dup3\n    /* \"#utility.yul\":7585:7593   */\n  lt\n    /* \"#utility.yul\":7582:7616   */\n  iszero\n  tag_161\n  jumpi\n    /* \"#utility.yul\":7596:7614   */\n  tag_162\n  tag_70\n  jump\t// in\ntag_162:\n    /* \"#utility.yul\":7582:7616   */\ntag_161:\n    /* \"#utility.yul\":7641:7642   */\n  dup3\n    /* \"#utility.yul\":7638:7639   */\n  dup3\n    /* \"#utility.yul\":7634:7643   */\n  sub\n    /* \"#utility.yul\":7626:7643   */\n  swap1\n  pop\n    /* \"#utility.yul\":7458:7649   */\n  swap3\n  swap2\n  pop\n  pop\n  jump\t// out\n    /* \"#utility.yul\":7655:7888   */\ntag_33:\n    /* \"#utility.yul\":7694:7697   */\n  0x00\n    /* \"#utility.yul\":7717:7741   */\n  tag_164\n    /* \"#utility.yul\":7735:7740   */\n  dup3\n    /* \"#utility.yul\":7717:7741   */\n  tag_69\n  jump\t// in\ntag_164:\n    /* \"#utility.yul\":7708:7741   */\n  swap2\n  pop\n    /* \"#utility.yul\":7763:7829   */\n  0xffffffffffffffffffffffffffffffffffffffffffffffffffffffffffffffff\n    /* \"#utility.yul\":7756:7761   */\n  dup3\n    /* \"#utility.yul\":7753:7830   */\n  eq\n    /* \"#utility.yul\":7750:7853   */\n  iszero\n  tag_165\n  jumpi\n    /* \"#utility.yul\":7833:7851   */\n  tag_166\n  tag_70\n  jump\t// in\ntag_166:\n    /* \"#utility.yul\":7750:7853   */\ntag_165:\n    /* \"#utility.yul\":7880:7881   */\n  0x01\n    /* \"#utility.yul\":7873:7878   */\n  dup3\n    /* \"#utility.yul\":7869:7882   */\n  add\n    /* \"#utility.yul\":7862:7882   */\n  swap1\n  pop\n    /* \"#utility.yul\":7655:7888   */\n  swap2\n  swap1\n  pop\n  jump\t// out\n    /* \"#utility.yul\":7894:8074   */\ntag_71:\n    /* \"#utility.yul\":7942:8019   */\n  0x4e487b7100000000000000000000000000000000000000000000000000000000\n    /* \"#utility.yul\":7939:7940   */\n  0x00\n    /* \"#utility.yul\":7932:8020   */\n  mstore\n    /* \"#utility.yul\":8039:8043   */\n  0x22\n    /* \"#utility.yul\":8036:8037   */\n  0x04\n    /* \"#utility.yul\":8029:8044   */\n  mstore\n    /* \"#utility.yul\":8063:8067   */\n  0x24\n    /* \"#utility.yul\":8060:8061   */\n  0x00\n    /* \"#utility.yul\":8053:8068   */\n  revert\n    /* \"#utility.yul\":8080:8400   */\ntag_36:\n    /* \"#utility.yul\":8124:8130   */\n  0x00\n    /* \"#utility.yul\":8161:8162   */\n  0x02\n    /* \"#utility.yul\":8155:8159   */\n  dup3\n    /* \"#utility.yul\":8151:8163   */\n  div\n    /* \"#utility.yul\":8141:8163   */\n  swap1\n  pop\n    /* \"#utility.yul\":8208:8209   */\n  0x01\n    /* \"#utility.yul\":8202:8206   */\n  dup3\n    /* \"#utility.yul\":8198:8210   */\n  and\n    /* \"#utility.yul\":8229:8247   */\n  dup1\n    /* \"#utility.yul\":8219:8300   */\n  tag_169\n  jumpi\n    /* \"#utility.yul\":8285:8289   */\n  0x7f\n    /* \"#utility.yul\":8277:8283   */\n  dup3\n    /* \"#utility.yul\":8273:8290   */\n  and\n    /* \"#utility.yul\":8263:8290   */\n  swap2\n  pop\n    /* \"#utility.yul\":8219:8300   */\ntag_169:\n    /* \"#utility.yul\":8347:8349   */\n  0x20\n    /* \"#utility.yul\":8339:8345   */\n  dup3\n    /* \"#utility.yul\":8336:8350   */\n  lt\n    /* \"#utility.yul\":8316:8334   */\n  dup2\n    /* \"#utility.yul\":8313:8351   */\n  eq\n    /* \"#utility.yul\":8310:8394   */\n  iszero\n  tag_170\n  jumpi\n    /* \"#utility.yul\":8366:8384   */\n  tag_171\n  tag_71\n  jump\t// in\ntag_171:\n    /* \"#utility.yul\":8310:8394   */\ntag_170:\n    /* \"#utility.yul\":8131:8400   */\n  pop\n    /* \"#utility.yul\":8080:8400   */\n  swap2\n  swap1\n  pop\n  jump\t// out\n    /* \"contracts/TestInterview.sol\":208:3788  contract TestInterview {... */\ntag_34:\n  dataSize(sub_0)\n  dup1\n  dataOffset(sub_0)\n  0x00\n  codecopy\n  0x00\n  return\nstop\n\nsub_0: assembly {\n        /* \"contracts/TestInterview.sol\":208:3788  contract TestInterview {... */\n      mstore(0x40, 0x80)\n      callvalue\n      dup1\n      iszero\n      tag_1\n      jumpi\n      0x00\n      dup1\n      revert\n    tag_1:\n      pop\n      jumpi(tag_2, lt(calldatasize, 0x04))\n      shr(0xe0, calldataload(0x00))\n      dup1\n      0x8f84aa09\n      gt\n      tag_10\n      jumpi\n      dup1\n      0x8f84aa09\n      eq\n      tag_6\n      jumpi\n      dup1\n      0xc15d3ead\n      eq\n      tag_7\n      jumpi\n      dup1\n      0xe917ec96\n      eq\n      tag_8\n      jumpi\n      dup1\n      0xfc6f9468\n      eq\n      tag_9\n      jumpi\n      jump(tag_2)\n    tag_10:\n      dup1\n      0x06cd309b\n      eq\n      tag_3\n      jumpi\n      dup1\n      0x6fd3d9e2\n      eq\n      tag_4\n      jumpi\n      dup1\n      0x7259e0f8\n      eq\n      tag_5\n      jumpi\n    tag_2:\n      0x00\n      dup1\n      revert\n        /* \"contracts/TestInterview.sol\":421:448  uint public limitGatcha = 2 */\n    tag_3:\n      tag_11\n      tag_12\n      jump\t// in\n    tag_11:\n      mload(0x40)\n      tag_13\n      swap2\n      swap1\n      tag_14\n      jump\t// in\n    tag_13:\n      mload(0x40)\n      dup1\n      swap2\n      sub\n      swap1\n      return\n        /* \"contracts/TestInterview.sol\":553:579  Rarity[] public rarityList */\n    tag_4:\n      tag_15\n      0x04\n      dup1\n      calldatasize\n      sub\n      dup2\n      add\n      swap1\n      tag_16\n      swap2\n      swap1\n      tag_17\n      jump\t// in\n    tag_16:\n      tag_18\n      jump\t// in\n    tag_15:\n      mload(0x40)\n      tag_19\n      swap4\n      swap3\n      swap2\n      swap1\n      tag_20\n      jump\t// in\n    tag_19:\n      mload(0x40)\n      dup1\n      swap2\n      sub\n      swap1\n      return\n        /* \"contracts/TestInterview.sol\":751:790  RegisteredUser[] public registeredUsers */\n    tag_5:\n      tag_21\n      0x04\n      dup1\n      calldatasize\n      sub\n      dup2\n      add\n      swap1\n      tag_22\n      swap2\n      swap1\n      tag_17\n      jump\t// in\n    tag_22:\n      tag_23\n      jump\t// in\n    tag_21:\n      mload(0x40)\n      tag_24\n      swap3\n      swap2\n      swap1\n      tag_25\n      jump\t// in\n    tag_24:\n      mload(0x40)\n      dup1\n      swap2\n      sub\n      swap1\n      return\n        /* \"contracts/TestInterview.sol\":308:380  address public ownerAddress = 0xdBDdb8575F6bda11F1DC548A1B546463CC567C3d */\n    tag_6:\n      tag_26\n      tag_27\n      jump\t// in\n    tag_26:\n      mload(0x40)\n      tag_28\n      swap2\n      swap1\n      tag_29\n      jump\t// in\n    tag_28:\n      mload(0x40)\n      dup1\n      swap2\n      sub\n      swap1\n      return\n        /* \"contracts/TestInterview.sol\":3580:3781  function changeGatchaLimit(uint256 _newLimit) public {... */\n    tag_7:\n      tag_30\n      0x04\n      dup1\n      calldatasize\n      sub\n      dup2\n      add\n      swap1\n      tag_31\n      swap2\n      swap1\n      tag_17\n      jump\t// in\n    tag_31:\n      tag_32\n      jump\t// in\n    tag_30:\n      stop\n        /* \"contracts/TestInterview.sol\":2062:2704  function createGatcha () public checkUserLimit {... */\n    tag_8:\n      tag_33\n      tag_34\n      jump\t// in\n    tag_33:\n      stop\n        /* \"contracts/TestInterview.sol\":387:414  address public adminAddress */\n    tag_9:\n      tag_35\n      tag_36\n      jump\t// in\n    tag_35:\n      mload(0x40)\n      tag_37\n      swap2\n      swap1\n      tag_29\n      jump\t// in\n    tag_37:\n      mload(0x40)\n      dup1\n      swap2\n      sub\n      swap1\n      return\n        /* \"contracts/TestInterview.sol\":421:448  uint public limitGatcha = 2 */\n    tag_12:\n      sload(0x03)\n      dup2\n      jump\t// out\n        /* \"contracts/TestInterview.sol\":553:579  Rarity[] public rarityList */\n    tag_18:\n      0x04\n      dup2\n      dup2\n      sload\n      dup2\n      lt\n      tag_38\n      jumpi\n      0x00\n      dup1\n      revert\n    tag_38:\n      swap1\n      0x00\n      mstore\n      keccak256(0x00, 0x20)\n      swap1\n      0x03\n      mul\n      add\n      0x00\n      swap2\n      pop\n      swap1\n      pop\n      dup1\n      0x00\n      add\n      dup1\n      sload\n      tag_40\n      swap1\n      tag_41\n      jump\t// in\n    tag_40:\n      dup1\n      0x1f\n      add\n      0x20\n      dup1\n      swap2\n      div\n      mul\n      0x20\n      add\n      mload(0x40)\n      swap1\n      dup2\n      add\n      0x40\n      mstore\n      dup1\n      swap3\n      swap2\n      swap1\n      dup2\n      dup2\n      mstore\n      0x20\n      add\n      dup3\n      dup1\n      sload\n      tag_42\n      swap1\n      tag_41\n      jump\t// in\n    tag_42:\n      dup1\n      iszero\n      tag_43\n      jumpi\n      dup1\n      0x1f\n      lt\n      tag_44\n      jumpi\n      0x0100\n      dup1\n      dup4\n      sload\n      div\n      mul\n      dup4\n      mstore\n      swap2\n      0x20\n      add\n      swap2\n      jump(tag_43)\n    tag_44:\n      dup3\n      add\n      swap2\n      swap1\n      0x00\n      mstore\n      keccak256(0x00, 0x20)\n      swap1\n    tag_45:\n      dup2\n      sload\n      dup2\n      mstore\n      swap1\n      0x01\n      add\n      swap1\n      0x20\n      add\n      dup1\n      dup4\n      gt\n      tag_45\n      jumpi\n      dup3\n      swap1\n      sub\n      0x1f\n      and\n      dup3\n      add\n      swap2\n    tag_43:\n      pop\n      pop\n      pop\n      pop\n      pop\n      swap1\n      dup1\n      0x01\n      add\n      sload\n      swap1\n      dup1\n      0x02\n      add\n      sload\n      swap1\n      pop\n      dup4\n      jump\t// out\n        /* \"contracts/TestInterview.sol\":751:790  RegisteredUser[] public registeredUsers */\n    tag_23:\n      0x05\n      dup2\n      dup2\n      sload\n      dup2\n      lt\n      tag_46\n      jumpi\n      0x00\n      dup1\n      revert\n    tag_46:\n      swap1\n      0x00\n      mstore\n      keccak256(0x00, 0x20)\n      swap1\n      0x04\n      mul\n      add\n      0x00\n      swap2\n      pop\n      swap1\n      pop\n      dup1\n      0x00\n      add\n      0x00\n      swap1\n      sload\n      swap1\n      0x0100\n      exp\n      swap1\n      div\n      0xffffffffffffffffffffffffffffffffffffffff\n      and\n      swap1\n      dup1\n      0x01\n      add\n      sload\n      swap1\n      pop\n      dup3\n      jump\t// out\n        /* \"contracts/TestInterview.sol\":308:380  address public ownerAddress = 0xdBDdb8575F6bda11F1DC548A1B546463CC567C3d */\n    tag_27:\n      0x01\n      0x00\n      swap1\n      sload\n      swap1\n      0x0100\n      exp\n      swap1\n      div\n      0xffffffffffffffffffffffffffffffffffffffff\n      and\n      dup2\n      jump\t// out\n        /* \"contracts/TestInterview.sol\":3580:3781  function changeGatchaLimit(uint256 _newLimit) public {... */\n    tag_32:\n        /* \"contracts/TestInterview.sol\":3666:3678  adminAddress */\n      0x02\n      0x00\n      swap1\n      sload\n      swap1\n      0x0100\n      exp\n      swap1\n      div\n      0xffffffffffffffffffffffffffffffffffffffff\n      and\n        /* \"contracts/TestInterview.sol\":3652:3678  msg.sender == adminAddress */\n      0xffffffffffffffffffffffffffffffffffffffff\n      and\n        /* \"contracts/TestInterview.sol\":3652:3662  msg.sender */\n      caller\n        /* \"contracts/TestInterview.sol\":3652:3678  msg.sender == adminAddress */\n      0xffffffffffffffffffffffffffffffffffffffff\n      and\n      eq\n        /* \"contracts/TestInterview.sol\":3652:3708  msg.sender == adminAddress || msg.sender == ownerAddress */\n      dup1\n      tag_49\n      jumpi\n      pop\n        /* \"contracts/TestInterview.sol\":3696:3708  ownerAddress */\n      0x01\n      0x00\n      swap1\n      sload\n      swap1\n      0x0100\n      exp\n      swap1\n      div\n      0xffffffffffffffffffffffffffffffffffffffff\n      and\n        /* \"contracts/TestInterview.sol\":3682:3708  msg.sender == ownerAddress */\n      0xffffffffffffffffffffffffffffffffffffffff\n      and\n        /* \"contracts/TestInterview.sol\":3682:3692  msg.sender */\n      caller\n        /* \"contracts/TestInterview.sol\":3682:3708  msg.sender == ownerAddress */\n      0xffffffffffffffffffffffffffffffffffffffff\n      and\n      eq\n        /* \"contracts/TestInterview.sol\":3652:3708  msg.sender == adminAddress || msg.sender == ownerAddress */\n    tag_49:\n        /* \"contracts/TestInterview.sol\":3644:3739  require(msg.sender == adminAddress || msg.sender == ownerAddress, \"Not Authorized, Admin Only\") */\n      tag_50\n      jumpi\n      mload(0x40)\n      0x08c379a000000000000000000000000000000000000000000000000000000000\n      dup2\n      mstore\n      0x04\n      add\n      tag_51\n      swap1\n      tag_52\n      jump\t// in\n    tag_51:\n      mload(0x40)\n      dup1\n      swap2\n      sub\n      swap1\n      revert\n    tag_50:\n        /* \"contracts/TestInterview.sol\":3764:3773  _newLimit */\n      dup1\n        /* \"contracts/TestInterview.sol\":3750:3761  limitGatcha */\n      0x03\n        /* \"contracts/TestInterview.sol\":3750:3773  limitGatcha = _newLimit */\n      dup2\n      swap1\n      sstore\n      pop\n        /* \"contracts/TestInterview.sol\":3580:3781  function changeGatchaLimit(uint256 _newLimit) public {... */\n      pop\n      jump\t// out\n        /* \"contracts/TestInterview.sol\":2062:2704  function createGatcha () public checkUserLimit {... */\n    tag_34:\n        /* \"contracts/TestInterview.sol\":2750:2762  bool isFound */\n      0x00\n        /* \"contracts/TestInterview.sol\":2781:2794  uint256 index */\n      dup1\n        /* \"contracts/TestInterview.sol\":2809:3499  while(isFound == false && registeredUsers.length > 0 && index <registeredUsers.length )... */\n    tag_54:\n        /* \"contracts/TestInterview.sol\":2826:2831  false */\n      0x00\n        /* \"contracts/TestInterview.sol\":2815:2831  isFound == false */\n      iszero\n      iszero\n        /* \"contracts/TestInterview.sol\":2815:2822  isFound */\n      dup3\n        /* \"contracts/TestInterview.sol\":2815:2831  isFound == false */\n      iszero\n      iszero\n      eq\n        /* \"contracts/TestInterview.sol\":2815:2861  isFound == false && registeredUsers.length > 0 */\n      dup1\n      iszero\n      tag_56\n      jumpi\n      pop\n        /* \"contracts/TestInterview.sol\":2860:2861  0 */\n      0x00\n        /* \"contracts/TestInterview.sol\":2835:2850  registeredUsers */\n      0x05\n        /* \"contracts/TestInterview.sol\":2835:2857  registeredUsers.length */\n      dup1\n      sload\n      swap1\n      pop\n        /* \"contracts/TestInterview.sol\":2835:2861  registeredUsers.length > 0 */\n      gt\n        /* \"contracts/TestInterview.sol\":2815:2861  isFound == false && registeredUsers.length > 0 */\n    tag_56:\n        /* \"contracts/TestInterview.sol\":2815:2894  isFound == false && registeredUsers.length > 0 && index <registeredUsers.length */\n      dup1\n      iszero\n      tag_57\n      jumpi\n      pop\n        /* \"contracts/TestInterview.sol\":2872:2887  registeredUsers */\n      0x05\n        /* \"contracts/TestInterview.sol\":2872:2894  registeredUsers.length */\n      dup1\n      sload\n      swap1\n      pop\n        /* \"contracts/TestInterview.sol\":2865:2870  index */\n      dup2\n        /* \"contracts/TestInterview.sol\":2865:2894  index <registeredUsers.length */\n      lt\n        /* \"contracts/TestInterview.sol\":2815:2894  isFound == false && registeredUsers.length > 0 && index <registeredUsers.length */\n    tag_57:\n        /* \"contracts/TestInterview.sol\":2809:3499  while(isFound == false && registeredUsers.length > 0 && index <registeredUsers.length )... */\n      iszero\n      tag_55\n      jumpi\n        /* \"contracts/TestInterview.sol\":2962:2972  msg.sender */\n      caller\n        /* \"contracts/TestInterview.sol\":2924:2972  registeredUsers[index].userAddress == msg.sender */\n      0xffffffffffffffffffffffffffffffffffffffff\n      and\n        /* \"contracts/TestInterview.sol\":2924:2939  registeredUsers */\n      0x05\n        /* \"contracts/TestInterview.sol\":2940:2945  index */\n      dup3\n        /* \"contracts/TestInterview.sol\":2924:2946  registeredUsers[index] */\n      dup2\n      sload\n      dup2\n      lt\n      tag_58\n      jumpi\n      tag_59\n      tag_60\n      jump\t// in\n    tag_59:\n    tag_58:\n      swap1\n      0x00\n      mstore\n      keccak256(0x00, 0x20)\n      swap1\n      0x04\n      mul\n      add\n        /* \"contracts/TestInterview.sol\":2924:2958  registeredUsers[index].userAddress */\n      0x00\n      add\n      0x00\n      swap1\n      sload\n      swap1\n      0x0100\n      exp\n      swap1\n      div\n      0xffffffffffffffffffffffffffffffffffffffff\n      and\n        /* \"contracts/TestInterview.sol\":2924:2972  registeredUsers[index].userAddress == msg.sender */\n      0xffffffffffffffffffffffffffffffffffffffff\n      and\n      eq\n        /* \"contracts/TestInterview.sol\":2921:3465  if(registeredUsers[index].userAddress == msg.sender)... */\n      iszero\n      tag_62\n      jumpi\n        /* \"contracts/TestInterview.sol\":3016:3020  true */\n      0x01\n        /* \"contracts/TestInterview.sol\":3006:3020  isFound = true */\n      swap2\n      pop\n        /* \"contracts/TestInterview.sol\":3039:3054  registeredUsers */\n      0x05\n        /* \"contracts/TestInterview.sol\":3055:3060  index */\n      dup2\n        /* \"contracts/TestInterview.sol\":3039:3061  registeredUsers[index] */\n      dup2\n      sload\n      dup2\n      lt\n      tag_63\n      jumpi\n      tag_64\n      tag_60\n      jump\t// in\n    tag_64:\n    tag_63:\n      swap1\n      0x00\n      mstore\n      keccak256(0x00, 0x20)\n      swap1\n      0x04\n      mul\n      add\n        /* \"contracts/TestInterview.sol\":3039:3076  registeredUsers[index].counterVisited */\n      0x01\n      add\n      0x00\n        /* \"contracts/TestInterview.sol\":3039:3079  registeredUsers[index].counterVisited ++ */\n      dup2\n      sload\n      dup1\n      swap3\n      swap2\n      swap1\n      tag_66\n      swap1\n      tag_67\n      jump\t// in\n    tag_66:\n      swap2\n      swap1\n      pop\n      sstore\n      pop\n        /* \"contracts/TestInterview.sol\":3147:3158  limitGatcha */\n      sload(0x03)\n        /* \"contracts/TestInterview.sol\":3106:3121  registeredUsers */\n      0x05\n        /* \"contracts/TestInterview.sol\":3122:3127  index */\n      dup3\n        /* \"contracts/TestInterview.sol\":3106:3128  registeredUsers[index] */\n      dup2\n      sload\n      dup2\n      lt\n      tag_68\n      jumpi\n      tag_69\n      tag_60\n      jump\t// in\n    tag_69:\n    tag_68:\n      swap1\n      0x00\n      mstore\n      keccak256(0x00, 0x20)\n      swap1\n      0x04\n      mul\n      add\n        /* \"contracts/TestInterview.sol\":3106:3143  registeredUsers[index].counterVisited */\n      0x01\n      add\n      sload\n        /* \"contracts/TestInterview.sol\":3106:3158  registeredUsers[index].counterVisited <= limitGatcha */\n      gt\n      iszero\n        /* \"contracts/TestInterview.sol\":3098:3175  require(registeredUsers[index].counterVisited <= limitGatcha, \"Out of Limit\") */\n      tag_71\n      jumpi\n      mload(0x40)\n      0x08c379a000000000000000000000000000000000000000000000000000000000\n      dup2\n      mstore\n      0x04\n      add\n      tag_72\n      swap1\n      tag_73\n      jump\t// in\n    tag_72:\n      mload(0x40)\n      dup1\n      swap2\n      sub\n      swap1\n      revert\n    tag_71:\n        /* \"contracts/TestInterview.sol\":3194:3213  uint256 rarityScore */\n      0x00\n        /* \"contracts/TestInterview.sol\":3216:3237  generateRarityScore() */\n      tag_74\n        /* \"contracts/TestInterview.sol\":3216:3235  generateRarityScore */\n      tag_75\n        /* \"contracts/TestInterview.sol\":3216:3237  generateRarityScore() */\n      jump\t// in\n    tag_74:\n        /* \"contracts/TestInterview.sol\":3194:3237  uint256 rarityScore = generateRarityScore() */\n      swap1\n      pop\n        /* \"contracts/TestInterview.sol\":3256:3280  string memory rarityName */\n      0x00\n        /* \"contracts/TestInterview.sol\":3283:3309  getRarityName(rarityScore) */\n      tag_76\n        /* \"contracts/TestInterview.sol\":3297:3308  rarityScore */\n      dup3\n        /* \"contracts/TestInterview.sol\":3283:3296  getRarityName */\n      tag_77\n        /* \"contracts/TestInterview.sol\":3283:3309  getRarityName(rarityScore) */\n      jump\t// in\n    tag_76:\n        /* \"contracts/TestInterview.sol\":3256:3309  string memory rarityName = getRarityName(rarityScore) */\n      swap1\n      pop\n        /* \"contracts/TestInterview.sol\":3328:3343  registeredUsers */\n      0x05\n        /* \"contracts/TestInterview.sol\":3344:3349  index */\n      dup4\n        /* \"contracts/TestInterview.sol\":3328:3350  registeredUsers[index] */\n      dup2\n      sload\n      dup2\n      lt\n      tag_78\n      jumpi\n      tag_79\n      tag_60\n      jump\t// in\n    tag_79:\n    tag_78:\n      swap1\n      0x00\n      mstore\n      keccak256(0x00, 0x20)\n      swap1\n      0x04\n      mul\n      add\n        /* \"contracts/TestInterview.sol\":3328:3362  registeredUsers[index].rarityScore */\n      0x02\n      add\n        /* \"contracts/TestInterview.sol\":3368:3379  rarityScore */\n      dup3\n        /* \"contracts/TestInterview.sol\":3328:3380  registeredUsers[index].rarityScore.push(rarityScore) */\n      swap1\n      dup1\n      0x01\n      dup2\n      sload\n      add\n      dup1\n      dup3\n      sstore\n      dup1\n      swap2\n      pop\n      pop\n      0x01\n      swap1\n      sub\n      swap1\n      0x00\n      mstore\n      keccak256(0x00, 0x20)\n      add\n      0x00\n      swap1\n      swap2\n      swap1\n      swap2\n      swap1\n      swap2\n      pop\n      sstore\n        /* \"contracts/TestInterview.sol\":3399:3414  registeredUsers */\n      0x05\n        /* \"contracts/TestInterview.sol\":3415:3420  index */\n      dup4\n        /* \"contracts/TestInterview.sol\":3399:3421  registeredUsers[index] */\n      dup2\n      sload\n      dup2\n      lt\n      tag_82\n      jumpi\n      tag_83\n      tag_60\n      jump\t// in\n    tag_83:\n    tag_82:\n      swap1\n      0x00\n      mstore\n      keccak256(0x00, 0x20)\n      swap1\n      0x04\n      mul\n      add\n        /* \"contracts/TestInterview.sol\":3399:3432  registeredUsers[index].rarityName */\n      0x03\n      add\n        /* \"contracts/TestInterview.sol\":3438:3448  rarityName */\n      dup2\n        /* \"contracts/TestInterview.sol\":3399:3449  registeredUsers[index].rarityName.push(rarityName) */\n      swap1\n      dup1\n      0x01\n      dup2\n      sload\n      add\n      dup1\n      dup3\n      sstore\n      dup1\n      swap2\n      pop\n      pop\n      0x01\n      swap1\n      sub\n      swap1\n      0x00\n      mstore\n      keccak256(0x00, 0x20)\n      add\n      0x00\n      swap1\n      swap2\n      swap1\n      swap2\n      swap1\n      swap2\n      pop\n      swap1\n      dup1\n      mload\n      swap1\n      0x20\n      add\n      swap1\n      tag_86\n      swap3\n      swap2\n      swap1\n      tag_87\n      jump\t// in\n    tag_86:\n      pop\n        /* \"contracts/TestInterview.sol\":2987:3465  {... */\n      pop\n      pop\n        /* \"contracts/TestInterview.sol\":2921:3465  if(registeredUsers[index].userAddress == msg.sender)... */\n    tag_62:\n        /* \"contracts/TestInterview.sol\":3479:3487  index ++ */\n      dup1\n      dup1\n      tag_88\n      swap1\n      tag_67\n      jump\t// in\n    tag_88:\n      swap2\n      pop\n      pop\n        /* \"contracts/TestInterview.sol\":2809:3499  while(isFound == false && registeredUsers.length > 0 && index <registeredUsers.length )... */\n      jump(tag_54)\n    tag_55:\n        /* \"contracts/TestInterview.sol\":3509:3516  objINFT */\n      0x00\n      dup1\n      sload\n      swap1\n      0x0100\n      exp\n      swap1\n      div\n      0xffffffffffffffffffffffffffffffffffffffff\n      and\n        /* \"contracts/TestInterview.sol\":3509:3525  objINFT.safeMint */\n      0xffffffffffffffffffffffffffffffffffffffff\n      and\n      0x40d097c3\n        /* \"contracts/TestInterview.sol\":3526:3538  ownerAddress */\n      0x01\n      0x00\n      swap1\n      sload\n      swap1\n      0x0100\n      exp\n      swap1\n      div\n      0xffffffffffffffffffffffffffffffffffffffff\n      and\n        /* \"contracts/TestInterview.sol\":3509:3539  objINFT.safeMint(ownerAddress) */\n      mload(0x40)\n      dup3\n      0xffffffff\n      and\n      0xe0\n      shl\n      dup2\n      mstore\n      0x04\n      add\n      tag_89\n      swap2\n      swap1\n      tag_29\n      jump\t// in\n    tag_89:\n      0x00\n      mload(0x40)\n      dup1\n      dup4\n      sub\n      dup2\n      0x00\n      dup8\n      dup1\n      extcodesize\n      iszero\n      dup1\n      iszero\n      tag_90\n      jumpi\n      0x00\n      dup1\n      revert\n    tag_90:\n      pop\n      gas\n      call\n      iszero\n      dup1\n      iszero\n      tag_92\n      jumpi\n      returndatasize\n      0x00\n      dup1\n      returndatacopy\n      revert(0x00, returndatasize)\n    tag_92:\n      pop\n      pop\n      pop\n      pop\n        /* \"contracts/TestInterview.sol\":3554:3561  isFound */\n      dup2\n        /* \"contracts/TestInterview.sol\":3550:3564  if(!isFound) _ */\n      tag_93\n      jumpi\n        /* \"contracts/TestInterview.sol\":2244:2277  uint256[] memory localRarityScore */\n      0x60\n        /* \"contracts/TestInterview.sol\":2288:2319  string[] memory localRarityName */\n      dup1\n        /* \"contracts/TestInterview.sol\":2354:2355  3 */\n      0x03\n        /* \"contracts/TestInterview.sol\":2332:2348  localRarityScore */\n      dup3\n        /* \"contracts/TestInterview.sol\":2349:2350  0 */\n      0x00\n        /* \"contracts/TestInterview.sol\":2332:2351  localRarityScore[0] */\n      dup2\n      mload\n      dup2\n      lt\n      tag_95\n      jumpi\n      tag_96\n      tag_60\n      jump\t// in\n    tag_96:\n    tag_95:\n      0x20\n      mul\n      0x20\n      add\n      add\n        /* \"contracts/TestInterview.sol\":2332:2355  localRarityScore[0] = 3 */\n      dup2\n      dup2\n      mstore\n      pop\n      pop\n        /* \"contracts/TestInterview.sol\":2366:2393  localRarityName[0] = \"Good\" */\n      mload(0x40)\n      dup1\n      0x40\n      add\n      0x40\n      mstore\n      dup1\n      0x04\n      dup2\n      mstore\n      0x20\n      add\n      0x476f6f6400000000000000000000000000000000000000000000000000000000\n      dup2\n      mstore\n      pop\n        /* \"contracts/TestInterview.sol\":2366:2381  localRarityName */\n      dup2\n        /* \"contracts/TestInterview.sol\":2382:2383  0 */\n      0x00\n        /* \"contracts/TestInterview.sol\":2366:2384  localRarityName[0] */\n      dup2\n      mload\n      dup2\n      lt\n      tag_97\n      jumpi\n      tag_98\n      tag_60\n      jump\t// in\n    tag_98:\n    tag_97:\n      0x20\n      mul\n      0x20\n      add\n      add\n        /* \"contracts/TestInterview.sol\":2366:2393  localRarityName[0] = \"Good\" */\n      dup2\n      swap1\n      mstore\n      pop\n        /* \"contracts/TestInterview.sol\":2109:2704  {... */\n      pop\n      pop\n        /* \"contracts/TestInterview.sol\":3550:3564  if(!isFound) _ */\n    tag_93:\n        /* \"contracts/TestInterview.sol\":2739:3572  {... */\n      pop\n      pop\n        /* \"contracts/TestInterview.sol\":2062:2704  function createGatcha () public checkUserLimit {... */\n      jump\t// out\n        /* \"contracts/TestInterview.sol\":387:414  address public adminAddress */\n    tag_36:\n      0x02\n      0x00\n      swap1\n      sload\n      swap1\n      0x0100\n      exp\n      swap1\n      div\n      0xffffffffffffffffffffffffffffffffffffffff\n      and\n      dup2\n      jump\t// out\n        /* \"contracts/TestInterview.sol\":1367:1589  function generateRarityScore() private view returns(uint256){... */\n    tag_75:\n        /* \"contracts/TestInterview.sol\":1419:1426  uint256 */\n      0x00\n        /* \"contracts/TestInterview.sol\":1438:1460  uint256 selectedNumber */\n      dup1\n        /* \"contracts/TestInterview.sol\":1546:1549  100 */\n      0x64\n        /* \"contracts/TestInterview.sol\":1495:1505  msg.sender */\n      caller\n        /* \"contracts/TestInterview.sol\":1507:1522  block.timestamp */\n      timestamp\n        /* \"contracts/TestInterview.sol\":1524:1540  block.difficulty */\n      difficulty\n        /* \"contracts/TestInterview.sol\":1478:1541  abi.encodePacked(msg.sender, block.timestamp, block.difficulty) */\n      add(0x20, mload(0x40))\n      tag_100\n      swap4\n      swap3\n      swap2\n      swap1\n      tag_101\n      jump\t// in\n    tag_100:\n      mload(0x40)\n      0x20\n      dup2\n      dup4\n      sub\n      sub\n      dup2\n      mstore\n      swap1\n      0x40\n      mstore\n        /* \"contracts/TestInterview.sol\":1468:1542  keccak256(abi.encodePacked(msg.sender, block.timestamp, block.difficulty)) */\n      dup1\n      mload\n      swap1\n      0x20\n      add\n      keccak256\n        /* \"contracts/TestInterview.sol\":1463:1543  uint(keccak256(abi.encodePacked(msg.sender, block.timestamp, block.difficulty))) */\n      0x00\n      shr\n        /* \"contracts/TestInterview.sol\":1463:1549  uint(keccak256(abi.encodePacked(msg.sender, block.timestamp, block.difficulty))) % 100 */\n      tag_102\n      swap2\n      swap1\n      tag_103\n      jump\t// in\n    tag_102:\n        /* \"contracts/TestInterview.sol\":1438:1549  uint256 selectedNumber = uint(keccak256(abi.encodePacked(msg.sender, block.timestamp, block.difficulty))) % 100 */\n      swap1\n      pop\n        /* \"contracts/TestInterview.sol\":1567:1581  selectedNumber */\n      dup1\n        /* \"contracts/TestInterview.sol\":1560:1581  return selectedNumber */\n      swap2\n      pop\n      pop\n        /* \"contracts/TestInterview.sol\":1367:1589  function generateRarityScore() private view returns(uint256){... */\n      swap1\n      jump\t// out\n        /* \"contracts/TestInterview.sol\":1597:2054  function getRarityName(uint256 _score) private view returns(string memory ) {... */\n    tag_77:\n        /* \"contracts/TestInterview.sol\":1657:1670  string memory */\n      0x60\n        /* \"contracts/TestInterview.sol\":1684:1696  bool isFound */\n      0x00\n        /* \"contracts/TestInterview.sol\":1715:1728  uint256 index */\n      dup1\n        /* \"contracts/TestInterview.sol\":1743:2018  while(!isFound && index < rarityList.length) {... */\n    tag_105:\n        /* \"contracts/TestInterview.sol\":1750:1757  isFound */\n      dup2\n        /* \"contracts/TestInterview.sol\":1749:1757  !isFound */\n      iszero\n        /* \"contracts/TestInterview.sol\":1749:1786  !isFound && index < rarityList.length */\n      dup1\n      iszero\n      tag_107\n      jumpi\n      pop\n        /* \"contracts/TestInterview.sol\":1769:1779  rarityList */\n      0x04\n        /* \"contracts/TestInterview.sol\":1769:1786  rarityList.length */\n      dup1\n      sload\n      swap1\n      pop\n        /* \"contracts/TestInterview.sol\":1761:1766  index */\n      dup2\n        /* \"contracts/TestInterview.sol\":1761:1786  index < rarityList.length */\n      lt\n        /* \"contracts/TestInterview.sol\":1749:1786  !isFound && index < rarityList.length */\n    tag_107:\n        /* \"contracts/TestInterview.sol\":1743:2018  while(!isFound && index < rarityList.length) {... */\n      iszero\n      tag_106\n      jumpi\n        /* \"contracts/TestInterview.sol\":1816:1826  rarityList */\n      0x04\n        /* \"contracts/TestInterview.sol\":1827:1832  index */\n      dup2\n        /* \"contracts/TestInterview.sol\":1816:1833  rarityList[index] */\n      dup2\n      sload\n      dup2\n      lt\n      tag_108\n      jumpi\n      tag_109\n      tag_60\n      jump\t// in\n    tag_109:\n    tag_108:\n      swap1\n      0x00\n      mstore\n      keccak256(0x00, 0x20)\n      swap1\n      0x03\n      mul\n      add\n        /* \"contracts/TestInterview.sol\":1816:1837  rarityList[index].min */\n      0x01\n      add\n      sload\n        /* \"contracts/TestInterview.sol\":1806:1812  _score */\n      dup5\n        /* \"contracts/TestInterview.sol\":1806:1837  _score >= rarityList[index].min */\n      lt\n      iszero\n        /* \"contracts/TestInterview.sol\":1806:1872  _score >= rarityList[index].min && _score <= rarityList[index].max */\n      dup1\n      iszero\n      tag_111\n      jumpi\n      pop\n        /* \"contracts/TestInterview.sol\":1851:1861  rarityList */\n      0x04\n        /* \"contracts/TestInterview.sol\":1862:1867  index */\n      dup2\n        /* \"contracts/TestInterview.sol\":1851:1868  rarityList[index] */\n      dup2\n      sload\n      dup2\n      lt\n      tag_112\n      jumpi\n      tag_113\n      tag_60\n      jump\t// in\n    tag_113:\n    tag_112:\n      swap1\n      0x00\n      mstore\n      keccak256(0x00, 0x20)\n      swap1\n      0x03\n      mul\n      add\n        /* \"contracts/TestInterview.sol\":1851:1872  rarityList[index].max */\n      0x02\n      add\n      sload\n        /* \"contracts/TestInterview.sol\":1841:1847  _score */\n      dup5\n        /* \"contracts/TestInterview.sol\":1841:1872  _score <= rarityList[index].max */\n      gt\n      iszero\n        /* \"contracts/TestInterview.sol\":1806:1872  _score >= rarityList[index].min && _score <= rarityList[index].max */\n    tag_111:\n        /* \"contracts/TestInterview.sol\":1803:1984  if(_score >= rarityList[index].min && _score <= rarityList[index].max)... */\n      iszero\n      tag_115\n      jumpi\n        /* \"contracts/TestInterview.sol\":1916:1920  true */\n      0x01\n        /* \"contracts/TestInterview.sol\":1906:1920  isFound = true */\n      swap2\n      pop\n        /* \"contracts/TestInterview.sol\":1946:1956  rarityList */\n      0x04\n        /* \"contracts/TestInterview.sol\":1957:1962  index */\n      dup2\n        /* \"contracts/TestInterview.sol\":1946:1963  rarityList[index] */\n      dup2\n      sload\n      dup2\n      lt\n      tag_116\n      jumpi\n      tag_117\n      tag_60\n      jump\t// in\n    tag_117:\n    tag_116:\n      swap1\n      0x00\n      mstore\n      keccak256(0x00, 0x20)\n      swap1\n      0x03\n      mul\n      add\n        /* \"contracts/TestInterview.sol\":1946:1968  rarityList[index].name */\n      0x00\n      add\n        /* \"contracts/TestInterview.sol\":1939:1968  return rarityList[index].name */\n      dup1\n      sload\n      tag_119\n      swap1\n      tag_41\n      jump\t// in\n    tag_119:\n      dup1\n      0x1f\n      add\n      0x20\n      dup1\n      swap2\n      div\n      mul\n      0x20\n      add\n      mload(0x40)\n      swap1\n      dup2\n      add\n      0x40\n      mstore\n      dup1\n      swap3\n      swap2\n      swap1\n      dup2\n      dup2\n      mstore\n      0x20\n      add\n      dup3\n      dup1\n      sload\n      tag_120\n      swap1\n      tag_41\n      jump\t// in\n    tag_120:\n      dup1\n      iszero\n      tag_121\n      jumpi\n      dup1\n      0x1f\n      lt\n      tag_122\n      jumpi\n      0x0100\n      dup1\n      dup4\n      sload\n      div\n      mul\n      dup4\n      mstore\n      swap2\n      0x20\n      add\n      swap2\n      jump(tag_121)\n    tag_122:\n      dup3\n      add\n      swap2\n      swap1\n      0x00\n      mstore\n      keccak256(0x00, 0x20)\n      swap1\n    tag_123:\n      dup2\n      sload\n      dup2\n      mstore\n      swap1\n      0x01\n      add\n      swap1\n      0x20\n      add\n      dup1\n      dup4\n      gt\n      tag_123\n      jumpi\n      dup3\n      swap1\n      sub\n      0x1f\n      and\n      dup3\n      add\n      swap2\n    tag_121:\n      pop\n      pop\n      pop\n      pop\n      pop\n      swap3\n      pop\n      pop\n      pop\n      jump(tag_104)\n        /* \"contracts/TestInterview.sol\":1803:1984  if(_score >= rarityList[index].min && _score <= rarityList[index].max)... */\n    tag_115:\n        /* \"contracts/TestInterview.sol\":1998:2006  index ++ */\n      dup1\n      dup1\n      tag_124\n      swap1\n      tag_67\n      jump\t// in\n    tag_124:\n      swap2\n      pop\n      pop\n        /* \"contracts/TestInterview.sol\":1743:2018  while(!isFound && index < rarityList.length) {... */\n      jump(tag_105)\n    tag_106:\n        /* \"contracts/TestInterview.sol\":2028:2046  return \"Not Found\" */\n      mload(0x40)\n      dup1\n      0x40\n      add\n      0x40\n      mstore\n      dup1\n      0x09\n      dup2\n      mstore\n      0x20\n      add\n      0x4e6f7420466f756e640000000000000000000000000000000000000000000000\n      dup2\n      mstore\n      pop\n      swap3\n      pop\n      pop\n      pop\n        /* \"contracts/TestInterview.sol\":1597:2054  function getRarityName(uint256 _score) private view returns(string memory ) {... */\n    tag_104:\n      swap2\n      swap1\n      pop\n      jump\t// out\n    tag_87:\n      dup3\n      dup1\n      sload\n      tag_125\n      swap1\n      tag_41\n      jump\t// in\n    tag_125:\n      swap1\n      0x00\n      mstore\n      keccak256(0x00, 0x20)\n      swap1\n      0x1f\n      add\n      0x20\n      swap1\n      div\n      dup2\n      add\n      swap3\n      dup3\n      tag_127\n      jumpi\n      0x00\n      dup6\n      sstore\n      jump(tag_126)\n    tag_127:\n      dup3\n      0x1f\n      lt\n      tag_128\n      jumpi\n      dup1\n      mload\n      not(0xff)\n      and\n      dup4\n      dup1\n      add\n      or\n      dup6\n      sstore\n      jump(tag_126)\n    tag_128:\n      dup3\n      dup1\n      add\n      0x01\n      add\n      dup6\n      sstore\n      dup3\n      iszero\n      tag_126\n      jumpi\n      swap2\n      dup3\n      add\n    tag_129:\n      dup3\n      dup2\n      gt\n      iszero\n      tag_130\n      jumpi\n      dup3\n      mload\n      dup3\n      sstore\n      swap2\n      0x20\n      add\n      swap2\n      swap1\n      0x01\n      add\n      swap1\n      jump(tag_129)\n    tag_130:\n    tag_126:\n      pop\n      swap1\n      pop\n      tag_131\n      swap2\n      swap1\n      tag_132\n      jump\t// in\n    tag_131:\n      pop\n      swap1\n      jump\t// out\n    tag_132:\n    tag_133:\n      dup1\n      dup3\n      gt\n      iszero\n      tag_134\n      jumpi\n      0x00\n      dup2\n      0x00\n      swap1\n      sstore\n      pop\n      0x01\n      add\n      jump(tag_133)\n    tag_134:\n      pop\n      swap1\n      jump\t// out\n        /* \"#utility.yul\":7:84   */\n    tag_135:\n        /* \"#utility.yul\":44:51   */\n      0x00\n        /* \"#utility.yul\":73:78   */\n      dup2\n        /* \"#utility.yul\":62:78   */\n      swap1\n      pop\n        /* \"#utility.yul\":7:84   */\n      swap2\n      swap1\n      pop\n      jump\t// out\n        /* \"#utility.yul\":90:208   */\n    tag_136:\n        /* \"#utility.yul\":177:201   */\n      tag_166\n        /* \"#utility.yul\":195:200   */\n      dup2\n        /* \"#utility.yul\":177:201   */\n      tag_135\n      jump\t// in\n    tag_166:\n        /* \"#utility.yul\":172:175   */\n      dup3\n        /* \"#utility.yul\":165:202   */\n      mstore\n        /* \"#utility.yul\":90:208   */\n      pop\n      pop\n      jump\t// out\n        /* \"#utility.yul\":214:436   */\n    tag_14:\n        /* \"#utility.yul\":307:311   */\n      0x00\n        /* \"#utility.yul\":345:347   */\n      0x20\n        /* \"#utility.yul\":334:343   */\n      dup3\n        /* \"#utility.yul\":330:348   */\n      add\n        /* \"#utility.yul\":322:348   */\n      swap1\n      pop\n        /* \"#utility.yul\":358:429   */\n      tag_168\n        /* \"#utility.yul\":426:427   */\n      0x00\n        /* \"#utility.yul\":415:424   */\n      dup4\n        /* \"#utility.yul\":411:428   */\n      add\n        /* \"#utility.yul\":402:408   */\n      dup5\n        /* \"#utility.yul\":358:429   */\n      tag_136\n      jump\t// in\n    tag_168:\n        /* \"#utility.yul\":214:436   */\n      swap3\n      swap2\n      pop\n      pop\n      jump\t// out\n        /* \"#utility.yul\":523:640   */\n    tag_138:\n        /* \"#utility.yul\":632:633   */\n      0x00\n        /* \"#utility.yul\":629:630   */\n      dup1\n        /* \"#utility.yul\":622:634   */\n      revert\n        /* \"#utility.yul\":769:891   */\n    tag_140:\n        /* \"#utility.yul\":842:866   */\n      tag_173\n        /* \"#utility.yul\":860:865   */\n      dup2\n        /* \"#utility.yul\":842:866   */\n      tag_135\n      jump\t// in\n    tag_173:\n        /* \"#utility.yul\":835:840   */\n      dup2\n        /* \"#utility.yul\":832:867   */\n      eq\n        /* \"#utility.yul\":822:885   */\n      tag_174\n      jumpi\n        /* \"#utility.yul\":881:882   */\n      0x00\n        /* \"#utility.yul\":878:879   */\n      dup1\n        /* \"#utility.yul\":871:883   */\n      revert\n        /* \"#utility.yul\":822:885   */\n    tag_174:\n        /* \"#utility.yul\":769:891   */\n      pop\n      jump\t// out\n        /* \"#utility.yul\":897:1036   */\n    tag_141:\n        /* \"#utility.yul\":943:948   */\n      0x00\n        /* \"#utility.yul\":981:987   */\n      dup2\n        /* \"#utility.yul\":968:988   */\n      calldataload\n        /* \"#utility.yul\":959:988   */\n      swap1\n      pop\n        /* \"#utility.yul\":997:1030   */\n      tag_176\n        /* \"#utility.yul\":1024:1029   */\n      dup2\n        /* \"#utility.yul\":997:1030   */\n      tag_140\n      jump\t// in\n    tag_176:\n        /* \"#utility.yul\":897:1036   */\n      swap3\n      swap2\n      pop\n      pop\n      jump\t// out\n        /* \"#utility.yul\":1042:1371   */\n    tag_17:\n        /* \"#utility.yul\":1101:1107   */\n      0x00\n        /* \"#utility.yul\":1150:1152   */\n      0x20\n        /* \"#utility.yul\":1138:1147   */\n      dup3\n        /* \"#utility.yul\":1129:1136   */\n      dup5\n        /* \"#utility.yul\":1125:1148   */\n      sub\n        /* \"#utility.yul\":1121:1153   */\n      slt\n        /* \"#utility.yul\":1118:1237   */\n      iszero\n      tag_178\n      jumpi\n        /* \"#utility.yul\":1156:1235   */\n      tag_179\n      tag_138\n      jump\t// in\n    tag_179:\n        /* \"#utility.yul\":1118:1237   */\n    tag_178:\n        /* \"#utility.yul\":1276:1277   */\n      0x00\n        /* \"#utility.yul\":1301:1354   */\n      tag_180\n        /* \"#utility.yul\":1346:1353   */\n      dup5\n        /* \"#utility.yul\":1337:1343   */\n      dup3\n        /* \"#utility.yul\":1326:1335   */\n      dup6\n        /* \"#utility.yul\":1322:1344   */\n      add\n        /* \"#utility.yul\":1301:1354   */\n      tag_141\n      jump\t// in\n    tag_180:\n        /* \"#utility.yul\":1291:1354   */\n      swap2\n      pop\n        /* \"#utility.yul\":1247:1364   */\n      pop\n        /* \"#utility.yul\":1042:1371   */\n      swap3\n      swap2\n      pop\n      pop\n      jump\t// out\n        /* \"#utility.yul\":1377:1476   */\n    tag_142:\n        /* \"#utility.yul\":1429:1435   */\n      0x00\n        /* \"#utility.yul\":1463:1468   */\n      dup2\n        /* \"#utility.yul\":1457:1469   */\n      mload\n        /* \"#utility.yul\":1447:1469   */\n      swap1\n      pop\n        /* \"#utility.yul\":1377:1476   */\n      swap2\n      swap1\n      pop\n      jump\t// out\n        /* \"#utility.yul\":1482:1651   */\n    tag_143:\n        /* \"#utility.yul\":1566:1577   */\n      0x00\n        /* \"#utility.yul\":1600:1606   */\n      dup3\n        /* \"#utility.yul\":1595:1598   */\n      dup3\n        /* \"#utility.yul\":1588:1607   */\n      mstore\n        /* \"#utility.yul\":1640:1644   */\n      0x20\n        /* \"#utility.yul\":1635:1638   */\n      dup3\n        /* \"#utility.yul\":1631:1645   */\n      add\n        /* \"#utility.yul\":1616:1645   */\n      swap1\n      pop\n        /* \"#utility.yul\":1482:1651   */\n      swap3\n      swap2\n      pop\n      pop\n      jump\t// out\n        /* \"#utility.yul\":1657:1964   */\n    tag_144:\n        /* \"#utility.yul\":1725:1726   */\n      0x00\n        /* \"#utility.yul\":1735:1848   */\n    tag_184:\n        /* \"#utility.yul\":1749:1755   */\n      dup4\n        /* \"#utility.yul\":1746:1747   */\n      dup2\n        /* \"#utility.yul\":1743:1756   */\n      lt\n        /* \"#utility.yul\":1735:1848   */\n      iszero\n      tag_186\n      jumpi\n        /* \"#utility.yul\":1834:1835   */\n      dup1\n        /* \"#utility.yul\":1829:1832   */\n      dup3\n        /* \"#utility.yul\":1825:1836   */\n      add\n        /* \"#utility.yul\":1819:1837   */\n      mload\n        /* \"#utility.yul\":1815:1816   */\n      dup2\n        /* \"#utility.yul\":1810:1813   */\n      dup5\n        /* \"#utility.yul\":1806:1817   */\n      add\n        /* \"#utility.yul\":1799:1838   */\n      mstore\n        /* \"#utility.yul\":1771:1773   */\n      0x20\n        /* \"#utility.yul\":1768:1769   */\n      dup2\n        /* \"#utility.yul\":1764:1774   */\n      add\n        /* \"#utility.yul\":1759:1774   */\n      swap1\n      pop\n        /* \"#utility.yul\":1735:1848   */\n      jump(tag_184)\n    tag_186:\n        /* \"#utility.yul\":1866:1872   */\n      dup4\n        /* \"#utility.yul\":1863:1864   */\n      dup2\n        /* \"#utility.yul\":1860:1873   */\n      gt\n        /* \"#utility.yul\":1857:1958   */\n      iszero\n      tag_187\n      jumpi\n        /* \"#utility.yul\":1946:1947   */\n      0x00\n        /* \"#utility.yul\":1937:1943   */\n      dup5\n        /* \"#utility.yul\":1932:1935   */\n      dup5\n        /* \"#utility.yul\":1928:1944   */\n      add\n        /* \"#utility.yul\":1921:1948   */\n      mstore\n        /* \"#utility.yul\":1857:1958   */\n    tag_187:\n        /* \"#utility.yul\":1706:1964   */\n      pop\n        /* \"#utility.yul\":1657:1964   */\n      pop\n      pop\n      pop\n      jump\t// out\n        /* \"#utility.yul\":1970:2072   */\n    tag_145:\n        /* \"#utility.yul\":2011:2017   */\n      0x00\n        /* \"#utility.yul\":2062:2064   */\n      0x1f\n        /* \"#utility.yul\":2058:2065   */\n      not\n        /* \"#utility.yul\":2053:2055   */\n      0x1f\n        /* \"#utility.yul\":2046:2051   */\n      dup4\n        /* \"#utility.yul\":2042:2056   */\n      add\n        /* \"#utility.yul\":2038:2066   */\n      and\n        /* \"#utility.yul\":2028:2066   */\n      swap1\n      pop\n        /* \"#utility.yul\":1970:2072   */\n      swap2\n      swap1\n      pop\n      jump\t// out\n        /* \"#utility.yul\":2078:2442   */\n    tag_146:\n        /* \"#utility.yul\":2166:2169   */\n      0x00\n        /* \"#utility.yul\":2194:2233   */\n      tag_190\n        /* \"#utility.yul\":2227:2232   */\n      dup3\n        /* \"#utility.yul\":2194:2233   */\n      tag_142\n      jump\t// in\n    tag_190:\n        /* \"#utility.yul\":2249:2320   */\n      tag_191\n        /* \"#utility.yul\":2313:2319   */\n      dup2\n        /* \"#utility.yul\":2308:2311   */\n      dup6\n        /* \"#utility.yul\":2249:2320   */\n      tag_143\n      jump\t// in\n    tag_191:\n        /* \"#utility.yul\":2242:2320   */\n      swap4\n      pop\n        /* \"#utility.yul\":2329:2381   */\n      tag_192\n        /* \"#utility.yul\":2374:2380   */\n      dup2\n        /* \"#utility.yul\":2369:2372   */\n      dup6\n        /* \"#utility.yul\":2362:2366   */\n      0x20\n        /* \"#utility.yul\":2355:2360   */\n      dup7\n        /* \"#utility.yul\":2351:2367   */\n      add\n        /* \"#utility.yul\":2329:2381   */\n      tag_144\n      jump\t// in\n    tag_192:\n        /* \"#utility.yul\":2406:2435   */\n      tag_193\n        /* \"#utility.yul\":2428:2434   */\n      dup2\n        /* \"#utility.yul\":2406:2435   */\n      tag_145\n      jump\t// in\n    tag_193:\n        /* \"#utility.yul\":2401:2404   */\n      dup5\n        /* \"#utility.yul\":2397:2436   */\n      add\n        /* \"#utility.yul\":2390:2436   */\n      swap2\n      pop\n        /* \"#utility.yul\":2170:2442   */\n      pop\n        /* \"#utility.yul\":2078:2442   */\n      swap3\n      swap2\n      pop\n      pop\n      jump\t// out\n        /* \"#utility.yul\":2448:2981   */\n    tag_20:\n        /* \"#utility.yul\":2617:2621   */\n      0x00\n        /* \"#utility.yul\":2655:2657   */\n      0x60\n        /* \"#utility.yul\":2644:2653   */\n      dup3\n        /* \"#utility.yul\":2640:2658   */\n      add\n        /* \"#utility.yul\":2632:2658   */\n      swap1\n      pop\n        /* \"#utility.yul\":2704:2713   */\n      dup2\n        /* \"#utility.yul\":2698:2702   */\n      dup2\n        /* \"#utility.yul\":2694:2714   */\n      sub\n        /* \"#utility.yul\":2690:2691   */\n      0x00\n        /* \"#utility.yul\":2679:2688   */\n      dup4\n        /* \"#utility.yul\":2675:2692   */\n      add\n        /* \"#utility.yul\":2668:2715   */\n      mstore\n        /* \"#utility.yul\":2732:2810   */\n      tag_195\n        /* \"#utility.yul\":2805:2809   */\n      dup2\n        /* \"#utility.yul\":2796:2802   */\n      dup7\n        /* \"#utility.yul\":2732:2810   */\n      tag_146\n      jump\t// in\n    tag_195:\n        /* \"#utility.yul\":2724:2810   */\n      swap1\n      pop\n        /* \"#utility.yul\":2820:2892   */\n      tag_196\n        /* \"#utility.yul\":2888:2890   */\n      0x20\n        /* \"#utility.yul\":2877:2886   */\n      dup4\n        /* \"#utility.yul\":2873:2891   */\n      add\n        /* \"#utility.yul\":2864:2870   */\n      dup6\n        /* \"#utility.yul\":2820:2892   */\n      tag_136\n      jump\t// in\n    tag_196:\n        /* \"#utility.yul\":2902:2974   */\n      tag_197\n        /* \"#utility.yul\":2970:2972   */\n      0x40\n        /* \"#utility.yul\":2959:2968   */\n      dup4\n        /* \"#utility.yul\":2955:2973   */\n      add\n        /* \"#utility.yul\":2946:2952   */\n      dup5\n        /* \"#utility.yul\":2902:2974   */\n      tag_136\n      jump\t// in\n    tag_197:\n        /* \"#utility.yul\":2448:2981   */\n      swap5\n      swap4\n      pop\n      pop\n      pop\n      pop\n      jump\t// out\n        /* \"#utility.yul\":2987:3113   */\n    tag_147:\n        /* \"#utility.yul\":3024:3031   */\n      0x00\n        /* \"#utility.yul\":3064:3106   */\n      0xffffffffffffffffffffffffffffffffffffffff\n        /* \"#utility.yul\":3057:3062   */\n      dup3\n        /* \"#utility.yul\":3053:3107   */\n      and\n        /* \"#utility.yul\":3042:3107   */\n      swap1\n      pop\n        /* \"#utility.yul\":2987:3113   */\n      swap2\n      swap1\n      pop\n      jump\t// out\n        /* \"#utility.yul\":3119:3215   */\n    tag_148:\n        /* \"#utility.yul\":3156:3163   */\n      0x00\n        /* \"#utility.yul\":3185:3209   */\n      tag_200\n        /* \"#utility.yul\":3203:3208   */\n      dup3\n        /* \"#utility.yul\":3185:3209   */\n      tag_147\n      jump\t// in\n    tag_200:\n        /* \"#utility.yul\":3174:3209   */\n      swap1\n      pop\n        /* \"#utility.yul\":3119:3215   */\n      swap2\n      swap1\n      pop\n      jump\t// out\n        /* \"#utility.yul\":3221:3339   */\n    tag_149:\n        /* \"#utility.yul\":3308:3332   */\n      tag_202\n        /* \"#utility.yul\":3326:3331   */\n      dup2\n        /* \"#utility.yul\":3308:3332   */\n      tag_148\n      jump\t// in\n    tag_202:\n        /* \"#utility.yul\":3303:3306   */\n      dup3\n        /* \"#utility.yul\":3296:3333   */\n      mstore\n        /* \"#utility.yul\":3221:3339   */\n      pop\n      pop\n      jump\t// out\n        /* \"#utility.yul\":3345:3677   */\n    tag_25:\n        /* \"#utility.yul\":3466:3470   */\n      0x00\n        /* \"#utility.yul\":3504:3506   */\n      0x40\n        /* \"#utility.yul\":3493:3502   */\n      dup3\n        /* \"#utility.yul\":3489:3507   */\n      add\n        /* \"#utility.yul\":3481:3507   */\n      swap1\n      pop\n        /* \"#utility.yul\":3517:3588   */\n      tag_204\n        /* \"#utility.yul\":3585:3586   */\n      0x00\n        /* \"#utility.yul\":3574:3583   */\n      dup4\n        /* \"#utility.yul\":3570:3587   */\n      add\n        /* \"#utility.yul\":3561:3567   */\n      dup6\n        /* \"#utility.yul\":3517:3588   */\n      tag_149\n      jump\t// in\n    tag_204:\n        /* \"#utility.yul\":3598:3670   */\n      tag_205\n        /* \"#utility.yul\":3666:3668   */\n      0x20\n        /* \"#utility.yul\":3655:3664   */\n      dup4\n        /* \"#utility.yul\":3651:3669   */\n      add\n        /* \"#utility.yul\":3642:3648   */\n      dup5\n        /* \"#utility.yul\":3598:3670   */\n      tag_136\n      jump\t// in\n    tag_205:\n        /* \"#utility.yul\":3345:3677   */\n      swap4\n      swap3\n      pop\n      pop\n      pop\n      jump\t// out\n        /* \"#utility.yul\":3683:3905   */\n    tag_29:\n        /* \"#utility.yul\":3776:3780   */\n      0x00\n        /* \"#utility.yul\":3814:3816   */\n      0x20\n        /* \"#utility.yul\":3803:3812   */\n      dup3\n        /* \"#utility.yul\":3799:3817   */\n      add\n        /* \"#utility.yul\":3791:3817   */\n      swap1\n      pop\n        /* \"#utility.yul\":3827:3898   */\n      tag_207\n        /* \"#utility.yul\":3895:3896   */\n      0x00\n        /* \"#utility.yul\":3884:3893   */\n      dup4\n        /* \"#utility.yul\":3880:3897   */\n      add\n        /* \"#utility.yul\":3871:3877   */\n      dup5\n        /* \"#utility.yul\":3827:3898   */\n      tag_149\n      jump\t// in\n    tag_207:\n        /* \"#utility.yul\":3683:3905   */\n      swap3\n      swap2\n      pop\n      pop\n      jump\t// out\n        /* \"#utility.yul\":3911:4091   */\n    tag_150:\n        /* \"#utility.yul\":3959:4036   */\n      0x4e487b7100000000000000000000000000000000000000000000000000000000\n        /* \"#utility.yul\":3956:3957   */\n      0x00\n        /* \"#utility.yul\":3949:4037   */\n      mstore\n        /* \"#utility.yul\":4056:4060   */\n      0x22\n        /* \"#utility.yul\":4053:4054   */\n      0x04\n        /* \"#utility.yul\":4046:4061   */\n      mstore\n        /* \"#utility.yul\":4080:4084   */\n      0x24\n        /* \"#utility.yul\":4077:4078   */\n      0x00\n        /* \"#utility.yul\":4070:4085   */\n      revert\n        /* \"#utility.yul\":4097:4417   */\n    tag_41:\n        /* \"#utility.yul\":4141:4147   */\n      0x00\n        /* \"#utility.yul\":4178:4179   */\n      0x02\n        /* \"#utility.yul\":4172:4176   */\n      dup3\n        /* \"#utility.yul\":4168:4180   */\n      div\n        /* \"#utility.yul\":4158:4180   */\n      swap1\n      pop\n        /* \"#utility.yul\":4225:4226   */\n      0x01\n        /* \"#utility.yul\":4219:4223   */\n      dup3\n        /* \"#utility.yul\":4215:4227   */\n      and\n        /* \"#utility.yul\":4246:4264   */\n      dup1\n        /* \"#utility.yul\":4236:4317   */\n      tag_210\n      jumpi\n        /* \"#utility.yul\":4302:4306   */\n      0x7f\n        /* \"#utility.yul\":4294:4300   */\n      dup3\n        /* \"#utility.yul\":4290:4307   */\n      and\n        /* \"#utility.yul\":4280:4307   */\n      swap2\n      pop\n        /* \"#utility.yul\":4236:4317   */\n    tag_210:\n        /* \"#utility.yul\":4364:4366   */\n      0x20\n        /* \"#utility.yul\":4356:4362   */\n      dup3\n        /* \"#utility.yul\":4353:4367   */\n      lt\n        /* \"#utility.yul\":4333:4351   */\n      dup2\n        /* \"#utility.yul\":4330:4368   */\n      eq\n        /* \"#utility.yul\":4327:4411   */\n      iszero\n      tag_211\n      jumpi\n        /* \"#utility.yul\":4383:4401   */\n      tag_212\n      tag_150\n      jump\t// in\n    tag_212:\n        /* \"#utility.yul\":4327:4411   */\n    tag_211:\n        /* \"#utility.yul\":4148:4417   */\n      pop\n        /* \"#utility.yul\":4097:4417   */\n      swap2\n      swap1\n      pop\n      jump\t// out\n        /* \"#utility.yul\":4423:4599   */\n    tag_151:\n        /* \"#utility.yul\":4563:4591   */\n      0x4e6f7420417574686f72697a65642c2041646d696e204f6e6c79000000000000\n        /* \"#utility.yul\":4559:4560   */\n      0x00\n        /* \"#utility.yul\":4551:4557   */\n      dup3\n        /* \"#utility.yul\":4547:4561   */\n      add\n        /* \"#utility.yul\":4540:4592   */\n      mstore\n        /* \"#utility.yul\":4423:4599   */\n      pop\n      jump\t// out\n        /* \"#utility.yul\":4605:4971   */\n    tag_152:\n        /* \"#utility.yul\":4747:4750   */\n      0x00\n        /* \"#utility.yul\":4768:4835   */\n      tag_215\n        /* \"#utility.yul\":4832:4834   */\n      0x1a\n        /* \"#utility.yul\":4827:4830   */\n      dup4\n        /* \"#utility.yul\":4768:4835   */\n      tag_143\n      jump\t// in\n    tag_215:\n        /* \"#utility.yul\":4761:4835   */\n      swap2\n      pop\n        /* \"#utility.yul\":4844:4937   */\n      tag_216\n        /* \"#utility.yul\":4933:4936   */\n      dup3\n        /* \"#utility.yul\":4844:4937   */\n      tag_151\n      jump\t// in\n    tag_216:\n        /* \"#utility.yul\":4962:4964   */\n      0x20\n        /* \"#utility.yul\":4957:4960   */\n      dup3\n        /* \"#utility.yul\":4953:4965   */\n      add\n        /* \"#utility.yul\":4946:4965   */\n      swap1\n      pop\n        /* \"#utility.yul\":4605:4971   */\n      swap2\n      swap1\n      pop\n      jump\t// out\n        /* \"#utility.yul\":4977:5396   */\n    tag_52:\n        /* \"#utility.yul\":5143:5147   */\n      0x00\n        /* \"#utility.yul\":5181:5183   */\n      0x20\n        /* \"#utility.yul\":5170:5179   */\n      dup3\n        /* \"#utility.yul\":5166:5184   */\n      add\n        /* \"#utility.yul\":5158:5184   */\n      swap1\n      pop\n        /* \"#utility.yul\":5230:5239   */\n      dup2\n        /* \"#utility.yul\":5224:5228   */\n      dup2\n        /* \"#utility.yul\":5220:5240   */\n      sub\n        /* \"#utility.yul\":5216:5217   */\n      0x00\n        /* \"#utility.yul\":5205:5214   */\n      dup4\n        /* \"#utility.yul\":5201:5218   */\n      add\n        /* \"#utility.yul\":5194:5241   */\n      mstore\n        /* \"#utility.yul\":5258:5389   */\n      tag_218\n        /* \"#utility.yul\":5384:5388   */\n      dup2\n        /* \"#utility.yul\":5258:5389   */\n      tag_152\n      jump\t// in\n    tag_218:\n        /* \"#utility.yul\":5250:5389   */\n      swap1\n      pop\n        /* \"#utility.yul\":4977:5396   */\n      swap2\n      swap1\n      pop\n      jump\t// out\n        /* \"#utility.yul\":5402:5582   */\n    tag_60:\n        /* \"#utility.yul\":5450:5527   */\n      0x4e487b7100000000000000000000000000000000000000000000000000000000\n        /* \"#utility.yul\":5447:5448   */\n      0x00\n        /* \"#utility.yul\":5440:5528   */\n      mstore\n        /* \"#utility.yul\":5547:5551   */\n      0x32\n        /* \"#utility.yul\":5544:5545   */\n      0x04\n        /* \"#utility.yul\":5537:5552   */\n      mstore\n        /* \"#utility.yul\":5571:5575   */\n      0x24\n        /* \"#utility.yul\":5568:5569   */\n      0x00\n        /* \"#utility.yul\":5561:5576   */\n      revert\n        /* \"#utility.yul\":5588:5768   */\n    tag_153:\n        /* \"#utility.yul\":5636:5713   */\n      0x4e487b7100000000000000000000000000000000000000000000000000000000\n        /* \"#utility.yul\":5633:5634   */\n      0x00\n        /* \"#utility.yul\":5626:5714   */\n      mstore\n        /* \"#utility.yul\":5733:5737   */\n      0x11\n        /* \"#utility.yul\":5730:5731   */\n      0x04\n        /* \"#utility.yul\":5723:5738   */\n      mstore\n        /* \"#utility.yul\":5757:5761   */\n      0x24\n        /* \"#utility.yul\":5754:5755   */\n      0x00\n        /* \"#utility.yul\":5747:5762   */\n      revert\n        /* \"#utility.yul\":5774:6007   */\n    tag_67:\n        /* \"#utility.yul\":5813:5816   */\n      0x00\n        /* \"#utility.yul\":5836:5860   */\n      tag_222\n        /* \"#utility.yul\":5854:5859   */\n      dup3\n        /* \"#utility.yul\":5836:5860   */\n      tag_135\n      jump\t// in\n    tag_222:\n        /* \"#utility.yul\":5827:5860   */\n      swap2\n      pop\n        /* \"#utility.yul\":5882:5948   */\n      0xffffffffffffffffffffffffffffffffffffffffffffffffffffffffffffffff\n        /* \"#utility.yul\":5875:5880   */\n      dup3\n        /* \"#utility.yul\":5872:5949   */\n      eq\n        /* \"#utility.yul\":5869:5972   */\n      iszero\n      tag_223\n      jumpi\n        /* \"#utility.yul\":5952:5970   */\n      tag_224\n      tag_153\n      jump\t// in\n    tag_224:\n        /* \"#utility.yul\":5869:5972   */\n    tag_223:\n        /* \"#utility.yul\":5999:6000   */\n      0x01\n        /* \"#utility.yul\":5992:5997   */\n      dup3\n        /* \"#utility.yul\":5988:6001   */\n      add\n        /* \"#utility.yul\":5981:6001   */\n      swap1\n      pop\n        /* \"#utility.yul\":5774:6007   */\n      swap2\n      swap1\n      pop\n      jump\t// out\n        /* \"#utility.yul\":6013:6175   */\n    tag_154:\n        /* \"#utility.yul\":6153:6167   */\n      0x4f7574206f66204c696d69740000000000000000000000000000000000000000\n        /* \"#utility.yul\":6149:6150   */\n      0x00\n        /* \"#utility.yul\":6141:6147   */\n      dup3\n        /* \"#utility.yul\":6137:6151   */\n      add\n        /* \"#utility.yul\":6130:6168   */\n      mstore\n        /* \"#utility.yul\":6013:6175   */\n      pop\n      jump\t// out\n        /* \"#utility.yul\":6181:6547   */\n    tag_155:\n        /* \"#utility.yul\":6323:6326   */\n      0x00\n        /* \"#utility.yul\":6344:6411   */\n      tag_227\n        /* \"#utility.yul\":6408:6410   */\n      0x0c\n        /* \"#utility.yul\":6403:6406   */\n      dup4\n        /* \"#utility.yul\":6344:6411   */\n      tag_143\n      jump\t// in\n    tag_227:\n        /* \"#utility.yul\":6337:6411   */\n      swap2\n      pop\n        /* \"#utility.yul\":6420:6513   */\n      tag_228\n        /* \"#utility.yul\":6509:6512   */\n      dup3\n        /* \"#utility.yul\":6420:6513   */\n      tag_154\n      jump\t// in\n    tag_228:\n        /* \"#utility.yul\":6538:6540   */\n      0x20\n        /* \"#utility.yul\":6533:6536   */\n      dup3\n        /* \"#utility.yul\":6529:6541   */\n      add\n        /* \"#utility.yul\":6522:6541   */\n      swap1\n      pop\n        /* \"#utility.yul\":6181:6547   */\n      swap2\n      swap1\n      pop\n      jump\t// out\n        /* \"#utility.yul\":6553:6972   */\n    tag_73:\n        /* \"#utility.yul\":6719:6723   */\n      0x00\n        /* \"#utility.yul\":6757:6759   */\n      0x20\n        /* \"#utility.yul\":6746:6755   */\n      dup3\n        /* \"#utility.yul\":6742:6760   */\n      add\n        /* \"#utility.yul\":6734:6760   */\n      swap1\n      pop\n        /* \"#utility.yul\":6806:6815   */\n      dup2\n        /* \"#utility.yul\":6800:6804   */\n      dup2\n        /* \"#utility.yul\":6796:6816   */\n      sub\n        /* \"#utility.yul\":6792:6793   */\n      0x00\n        /* \"#utility.yul\":6781:6790   */\n      dup4\n        /* \"#utility.yul\":6777:6794   */\n      add\n        /* \"#utility.yul\":6770:6817   */\n      mstore\n        /* \"#utility.yul\":6834:6965   */\n      tag_230\n        /* \"#utility.yul\":6960:6964   */\n      dup2\n        /* \"#utility.yul\":6834:6965   */\n      tag_155\n      jump\t// in\n    tag_230:\n        /* \"#utility.yul\":6826:6965   */\n      swap1\n      pop\n        /* \"#utility.yul\":6553:6972   */\n      swap2\n      swap1\n      pop\n      jump\t// out\n        /* \"#utility.yul\":6978:7072   */\n    tag_156:\n        /* \"#utility.yul\":7011:7019   */\n      0x00\n        /* \"#utility.yul\":7059:7064   */\n      dup2\n        /* \"#utility.yul\":7055:7057   */\n      0x60\n        /* \"#utility.yul\":7051:7065   */\n      shl\n        /* \"#utility.yul\":7030:7065   */\n      swap1\n      pop\n        /* \"#utility.yul\":6978:7072   */\n      swap2\n      swap1\n      pop\n      jump\t// out\n        /* \"#utility.yul\":7078:7172   */\n    tag_157:\n        /* \"#utility.yul\":7117:7124   */\n      0x00\n        /* \"#utility.yul\":7146:7166   */\n      tag_233\n        /* \"#utility.yul\":7160:7165   */\n      dup3\n        /* \"#utility.yul\":7146:7166   */\n      tag_156\n      jump\t// in\n    tag_233:\n        /* \"#utility.yul\":7135:7166   */\n      swap1\n      pop\n        /* \"#utility.yul\":7078:7172   */\n      swap2\n      swap1\n      pop\n      jump\t// out\n        /* \"#utility.yul\":7178:7278   */\n    tag_158:\n        /* \"#utility.yul\":7217:7224   */\n      0x00\n        /* \"#utility.yul\":7246:7272   */\n      tag_235\n        /* \"#utility.yul\":7266:7271   */\n      dup3\n        /* \"#utility.yul\":7246:7272   */\n      tag_157\n      jump\t// in\n    tag_235:\n        /* \"#utility.yul\":7235:7272   */\n      swap1\n      pop\n        /* \"#utility.yul\":7178:7278   */\n      swap2\n      swap1\n      pop\n      jump\t// out\n        /* \"#utility.yul\":7284:7441   */\n    tag_159:\n        /* \"#utility.yul\":7389:7434   */\n      tag_237\n        /* \"#utility.yul\":7409:7433   */\n      tag_238\n        /* \"#utility.yul\":7427:7432   */\n      dup3\n        /* \"#utility.yul\":7409:7433   */\n      tag_148\n      jump\t// in\n    tag_238:\n        /* \"#utility.yul\":7389:7434   */\n      tag_158\n      jump\t// in\n    tag_237:\n        /* \"#utility.yul\":7384:7387   */\n      dup3\n        /* \"#utility.yul\":7377:7435   */\n      mstore\n        /* \"#utility.yul\":7284:7441   */\n      pop\n      pop\n      jump\t// out\n        /* \"#utility.yul\":7447:7526   */\n    tag_160:\n        /* \"#utility.yul\":7486:7493   */\n      0x00\n        /* \"#utility.yul\":7515:7520   */\n      dup2\n        /* \"#utility.yul\":7504:7520   */\n      swap1\n      pop\n        /* \"#utility.yul\":7447:7526   */\n      swap2\n      swap1\n      pop\n      jump\t// out\n        /* \"#utility.yul\":7532:7689   */\n    tag_161:\n        /* \"#utility.yul\":7637:7682   */\n      tag_241\n        /* \"#utility.yul\":7657:7681   */\n      tag_242\n        /* \"#utility.yul\":7675:7680   */\n      dup3\n        /* \"#utility.yul\":7657:7681   */\n      tag_135\n      jump\t// in\n    tag_242:\n        /* \"#utility.yul\":7637:7682   */\n      tag_160\n      jump\t// in\n    tag_241:\n        /* \"#utility.yul\":7632:7635   */\n      dup3\n        /* \"#utility.yul\":7625:7683   */\n      mstore\n        /* \"#utility.yul\":7532:7689   */\n      pop\n      pop\n      jump\t// out\n        /* \"#utility.yul\":7695:8233   */\n    tag_101:\n        /* \"#utility.yul\":7863:7866   */\n      0x00\n        /* \"#utility.yul\":7878:7953   */\n      tag_244\n        /* \"#utility.yul\":7949:7952   */\n      dup3\n        /* \"#utility.yul\":7940:7946   */\n      dup7\n        /* \"#utility.yul\":7878:7953   */\n      tag_159\n      jump\t// in\n    tag_244:\n        /* \"#utility.yul\":7978:7980   */\n      0x14\n        /* \"#utility.yul\":7973:7976   */\n      dup3\n        /* \"#utility.yul\":7969:7981   */\n      add\n        /* \"#utility.yul\":7962:7981   */\n      swap2\n      pop\n        /* \"#utility.yul\":7991:8066   */\n      tag_245\n        /* \"#utility.yul\":8062:8065   */\n      dup3\n        /* \"#utility.yul\":8053:8059   */\n      dup6\n        /* \"#utility.yul\":7991:8066   */\n      tag_161\n      jump\t// in\n    tag_245:\n        /* \"#utility.yul\":8091:8093   */\n      0x20\n        /* \"#utility.yul\":8086:8089   */\n      dup3\n        /* \"#utility.yul\":8082:8094   */\n      add\n        /* \"#utility.yul\":8075:8094   */\n      swap2\n      pop\n        /* \"#utility.yul\":8104:8179   */\n      tag_246\n        /* \"#utility.yul\":8175:8178   */\n      dup3\n        /* \"#utility.yul\":8166:8172   */\n      dup5\n        /* \"#utility.yul\":8104:8179   */\n      tag_161\n      jump\t// in\n    tag_246:\n        /* \"#utility.yul\":8204:8206   */\n      0x20\n        /* \"#utility.yul\":8199:8202   */\n      dup3\n        /* \"#utility.yul\":8195:8207   */\n      add\n        /* \"#utility.yul\":8188:8207   */\n      swap2\n      pop\n        /* \"#utility.yul\":8224:8227   */\n      dup2\n        /* \"#utility.yul\":8217:8227   */\n      swap1\n      pop\n        /* \"#utility.yul\":7695:8233   */\n      swap5\n      swap4\n      pop\n      pop\n      pop\n      pop\n      jump\t// out\n        /* \"#utility.yul\":8239:8419   */\n    tag_162:\n        /* \"#utility.yul\":8287:8364   */\n      0x4e487b7100000000000000000000000000000000000000000000000000000000\n        /* \"#utility.yul\":8284:8285   */\n      0x00\n        /* \"#utility.yul\":8277:8365   */\n      mstore\n        /* \"#utility.yul\":8384:8388   */\n      0x12\n        /* \"#utility.yul\":8381:8382   */\n      0x04\n        /* \"#utility.yul\":8374:8389   */\n      mstore\n        /* \"#utility.yul\":8408:8412   */\n      0x24\n        /* \"#utility.yul\":8405:8406   */\n      0x00\n        /* \"#utility.yul\":8398:8413   */\n      revert\n        /* \"#utility.yul\":8425:8601   */\n    tag_103:\n        /* \"#utility.yul\":8457:8458   */\n      0x00\n        /* \"#utility.yul\":8474:8494   */\n      tag_249\n        /* \"#utility.yul\":8492:8493   */\n      dup3\n        /* \"#utility.yul\":8474:8494   */\n      tag_135\n      jump\t// in\n    tag_249:\n        /* \"#utility.yul\":8469:8494   */\n      swap2\n      pop\n        /* \"#utility.yul\":8508:8528   */\n      tag_250\n        /* \"#utility.yul\":8526:8527   */\n      dup4\n        /* \"#utility.yul\":8508:8528   */\n      tag_135\n      jump\t// in\n    tag_250:\n        /* \"#utility.yul\":8503:8528   */\n      swap3\n      pop\n        /* \"#utility.yul\":8547:8548   */\n      dup3\n        /* \"#utility.yul\":8537:8572   */\n      tag_251\n      jumpi\n        /* \"#utility.yul\":8552:8570   */\n      tag_252\n      tag_162\n      jump\t// in\n    tag_252:\n        /* \"#utility.yul\":8537:8572   */\n    tag_251:\n        /* \"#utility.yul\":8593:8594   */\n      dup3\n        /* \"#utility.yul\":8590:8591   */\n      dup3\n        /* \"#utility.yul\":8586:8595   */\n      mod\n        /* \"#utility.yul\":8581:8595   */\n      swap1\n      pop\n        /* \"#utility.yul\":8425:8601   */\n      swap3\n      swap2\n      pop\n      pop\n      jump\t// out\n\n    auxdata: 0xa2646970667358221220e409906abc256102e904ae8eee9b0095a331807c94a54b5377ec1a4b699b0a0c64736f6c63430008080033\n}\n",
				"bytecode": {
					"linkReferences": {},
					"object": "60806040527350c7a09925375438d2cee94c5c59266c6ffaaf8c6000806101000a81548173ffffffffffffffffffffffffffffffffffffffff021916908373ffffffffffffffffffffffffffffffffffffffff16021790555073dbddb8575f6bda11f1dc548a1b546463cc567c3d600160006101000a81548173ffffffffffffffffffffffffffffffffffffffff021916908373ffffffffffffffffffffffffffffffffffffffff1602179055506002600355348015620000bf57600080fd5b5033600260006101000a81548173ffffffffffffffffffffffffffffffffffffffff021916908373ffffffffffffffffffffffffffffffffffffffff16021790555060008060009054906101000a900473ffffffffffffffffffffffffffffffffffffffff1673ffffffffffffffffffffffffffffffffffffffff166348441d5f6040518163ffffffff1660e01b815260040160006040518083038186803b1580156200016b57600080fd5b505afa15801562000180573d6000803e3d6000fd5b505050506040513d6000823e3d601f19601f82011682018060405250810190620001ab9190620006a3565b90506000805b6003811015620003635760008060009054906101000a900473ffffffffffffffffffffffffffffffffffffffff1673ffffffffffffffffffffffffffffffffffffffff1663278a7f3385846003811062000210576200020f620006f4565b5b60200201516040518263ffffffff1660e01b815260040162000233919062000780565b60206040518083038186803b1580156200024c57600080fd5b505afa15801562000261573d6000803e3d6000fd5b505050506040513d601f19601f82011682018060405250810190620002879190620007e2565b60ff16905060046040518060600160405280868560038110620002af57620002ae620006f4565b5b6020020151815260200185815260200160018487620002cf91906200084d565b620002db9190620008aa565b81525090806001815401808255809150506001900390600052602060002090600302016000909190919091506000820151816000019080519060200190620003259291906200036c565b506020820151816001015560408201518160020155505080836200034a91906200084d565b92505080806200035a90620008e5565b915050620001b1565b50505062000998565b8280546200037a9062000962565b90600052602060002090601f0160209004810192826200039e5760008555620003ea565b82601f10620003b957805160ff1916838001178555620003ea565b82800160010185558215620003ea579182015b82811115620003e9578251825591602001919060010190620003cc565b5b509050620003f99190620003fd565b5090565b5b8082111562000418576000816000905550600101620003fe565b5090565b6000604051905090565b600080fd5b600080fd5b600080fd5b6000601f19601f8301169050919050565b7f4e487b7100000000000000000000000000000000000000000000000000000000600052604160045260246000fd5b620004808262000435565b810181811067ffffffffffffffff82111715620004a257620004a162000446565b5b80604052505050565b6000620004b76200041c565b9050620004c5828262000475565b919050565b600067ffffffffffffffff821115620004e857620004e762000446565b5b602082029050919050565b600080fd5b600080fd5b600067ffffffffffffffff8211156200051b576200051a62000446565b5b620005268262000435565b9050602081019050919050565b60005b838110156200055357808201518184015260208101905062000536565b8381111562000563576000848401525b50505050565b6000620005806200057a84620004fd565b620004ab565b9050828152602081018484840111156200059f576200059e620004f8565b5b620005ac84828562000533565b509392505050565b600082601f830112620005cc57620005cb62000430565b5b8151620005de84826020860162000569565b91505092915050565b6000620005fe620005f884620004ca565b620004ab565b905080602084028301858111156200061b576200061a620004f3565b5b835b818110156200066957805167ffffffffffffffff81111562000644576200064362000430565b5b808601620006538982620005b4565b855260208501945050506020810190506200061d565b5050509392505050565b600082601f8301126200068b576200068a62000430565b5b60036200069a848285620005e7565b91505092915050565b600060208284031215620006bc57620006bb62000426565b5b600082015167ffffffffffffffff811115620006dd57620006dc6200042b565b5b620006eb8482850162000673565b91505092915050565b7f4e487b7100000000000000000000000000000000000000000000000000000000600052603260045260246000fd5b600081519050919050565b600082825260208201905092915050565b60006200074c8262000723565b6200075881856200072e565b93506200076a81856020860162000533565b620007758162000435565b840191505092915050565b600060208201905081810360008301526200079c81846200073f565b905092915050565b600060ff82169050919050565b620007bc81620007a4565b8114620007c857600080fd5b50565b600081519050620007dc81620007b1565b92915050565b600060208284031215620007fb57620007fa62000426565b5b60006200080b84828501620007cb565b91505092915050565b6000819050919050565b7f4e487b7100000000000000000000000000000000000000000000000000000000600052601160045260246000fd5b60006200085a8262000814565b9150620008678362000814565b9250827fffffffffffffffffffffffffffffffffffffffffffffffffffffffffffffffff038211156200089f576200089e6200081e565b5b828201905092915050565b6000620008b78262000814565b9150620008c48362000814565b925082821015620008da57620008d96200081e565b5b828203905092915050565b6000620008f28262000814565b91507fffffffffffffffffffffffffffffffffffffffffffffffffffffffffffffffff8214156200092857620009276200081e565b5b600182019050919050565b7f4e487b7100000000000000000000000000000000000000000000000000000000600052602260045260246000fd5b600060028204905060018216806200097b57607f821691505b6020821081141562000992576200099162000933565b5b50919050565b610e9d80620009a86000396000f3fe608060405234801561001057600080fd5b506004361061007d5760003560e01c80638f84aa091161005b5780638f84aa0914610103578063c15d3ead14610121578063e917ec961461013d578063fc6f9468146101475761007d565b806306cd309b146100825780636fd3d9e2146100a05780637259e0f8146100d2575b600080fd5b61008a610165565b60405161009791906109ac565b60405180910390f35b6100ba60048036038101906100b591906109f8565b61016b565b6040516100c993929190610abe565b60405180910390f35b6100ec60048036038101906100e791906109f8565b61022d565b6040516100fa929190610b3d565b60405180910390f35b61010b610281565b6040516101189190610b66565b60405180910390f35b61013b600480360381019061013691906109f8565b6102a7565b005b610145610399565b005b61014f6106fa565b60405161015c9190610b66565b60405180910390f35b60035481565b6004818154811061017b57600080fd5b906000526020600020906003020160009150905080600001805461019e90610bb0565b80601f01602080910402602001604051908101604052809291908181526020018280546101ca90610bb0565b80156102175780601f106101ec57610100808354040283529160200191610217565b820191906000526020600020905b8154815290600101906020018083116101fa57829003601f168201915b5050505050908060010154908060020154905083565b6005818154811061023d57600080fd5b90600052602060002090600402016000915090508060000160009054906101000a900473ffffffffffffffffffffffffffffffffffffffff16908060010154905082565b600160009054906101000a900473ffffffffffffffffffffffffffffffffffffffff1681565b600260009054906101000a900473ffffffffffffffffffffffffffffffffffffffff1673ffffffffffffffffffffffffffffffffffffffff163373ffffffffffffffffffffffffffffffffffffffff1614806103505750600160009054906101000a900473ffffffffffffffffffffffffffffffffffffffff1673ffffffffffffffffffffffffffffffffffffffff163373ffffffffffffffffffffffffffffffffffffffff16145b61038f576040517f08c379a000000000000000000000000000000000000000000000000000000000815260040161038690610c2e565b60405180910390fd5b8060038190555050565b6000805b600015158215151480156103b657506000600580549050115b80156103c6575060058054905081105b156105c7573373ffffffffffffffffffffffffffffffffffffffff16600582815481106103f6576103f5610c4e565b5b906000526020600020906004020160000160009054906101000a900473ffffffffffffffffffffffffffffffffffffffff1673ffffffffffffffffffffffffffffffffffffffff1614156105b457600191506005818154811061045c5761045b610c4e565b5b9060005260206000209060040201600101600081548092919061047e90610cac565b91905055506003546005828154811061049a57610499610c4e565b5b90600052602060002090600402016001015411156104ed576040517f08c379a00000000000000000000000000000000000000000000000000000000081526004016104e490610d41565b60405180910390fd5b60006104f7610720565b9050600061050482610766565b90506005838154811061051a57610519610c4e565b5b90600052602060002090600402016002018290806001815401808255809150506001900390600052602060002001600090919091909150556005838154811061056657610565610c4e565b5b9060005260206000209060040201600301819080600181540180825580915050600190039060005260206000200160009091909190915090805190602001906105b09291906108f0565b5050505b80806105bf90610cac565b91505061039d565b60008054906101000a900473ffffffffffffffffffffffffffffffffffffffff1673ffffffffffffffffffffffffffffffffffffffff166340d097c3600160009054906101000a900473ffffffffffffffffffffffffffffffffffffffff166040518263ffffffff1660e01b81526004016106429190610b66565b600060405180830381600087803b15801561065c57600080fd5b505af1158015610670573d6000803e3d6000fd5b50505050816106f65760608060038260008151811061069257610691610c4e565b5b6020026020010181815250506040518060400160405280600481526020017f476f6f6400000000000000000000000000000000000000000000000000000000815250816000815181106106e8576106e7610c4e565b5b602002602001018190525050505b5050565b600260009054906101000a900473ffffffffffffffffffffffffffffffffffffffff1681565b600080606433424460405160200161073a93929190610dca565b6040516020818303038152906040528051906020012060001c61075d9190610e36565b90508091505090565b60606000805b8115801561077e575060048054905081105b156108b0576004818154811061079757610796610c4e565b5b90600052602060002090600302016001015484101580156107dd5750600481815481106107c7576107c6610c4e565b5b9060005260206000209060030201600201548411155b1561089d5760019150600481815481106107fa576107f9610c4e565b5b9060005260206000209060030201600001805461081690610bb0565b80601f016020809104026020016040519081016040528092919081815260200182805461084290610bb0565b801561088f5780601f106108645761010080835404028352916020019161088f565b820191906000526020600020905b81548152906001019060200180831161087257829003601f168201915b5050505050925050506108eb565b80806108a890610cac565b91505061076c565b6040518060400160405280600981526020017f4e6f7420466f756e640000000000000000000000000000000000000000000000815250925050505b919050565b8280546108fc90610bb0565b90600052602060002090601f01602090048101928261091e5760008555610965565b82601f1061093757805160ff1916838001178555610965565b82800160010185558215610965579182015b82811115610964578251825591602001919060010190610949565b5b5090506109729190610976565b5090565b5b8082111561098f576000816000905550600101610977565b5090565b6000819050919050565b6109a681610993565b82525050565b60006020820190506109c1600083018461099d565b92915050565b600080fd5b6109d581610993565b81146109e057600080fd5b50565b6000813590506109f2816109cc565b92915050565b600060208284031215610a0e57610a0d6109c7565b5b6000610a1c848285016109e3565b91505092915050565b600081519050919050565b600082825260208201905092915050565b60005b83811015610a5f578082015181840152602081019050610a44565b83811115610a6e576000848401525b50505050565b6000601f19601f8301169050919050565b6000610a9082610a25565b610a9a8185610a30565b9350610aaa818560208601610a41565b610ab381610a74565b840191505092915050565b60006060820190508181036000830152610ad88186610a85565b9050610ae7602083018561099d565b610af4604083018461099d565b949350505050565b600073ffffffffffffffffffffffffffffffffffffffff82169050919050565b6000610b2782610afc565b9050919050565b610b3781610b1c565b82525050565b6000604082019050610b526000830185610b2e565b610b5f602083018461099d565b9392505050565b6000602082019050610b7b6000830184610b2e565b92915050565b7f4e487b7100000000000000000000000000000000000000000000000000000000600052602260045260246000fd5b60006002820490506001821680610bc857607f821691505b60208210811415610bdc57610bdb610b81565b5b50919050565b7f4e6f7420417574686f72697a65642c2041646d696e204f6e6c79000000000000600082015250565b6000610c18601a83610a30565b9150610c2382610be2565b602082019050919050565b60006020820190508181036000830152610c4781610c0b565b9050919050565b7f4e487b7100000000000000000000000000000000000000000000000000000000600052603260045260246000fd5b7f4e487b7100000000000000000000000000000000000000000000000000000000600052601160045260246000fd5b6000610cb782610993565b91507fffffffffffffffffffffffffffffffffffffffffffffffffffffffffffffffff821415610cea57610ce9610c7d565b5b600182019050919050565b7f4f7574206f66204c696d69740000000000000000000000000000000000000000600082015250565b6000610d2b600c83610a30565b9150610d3682610cf5565b602082019050919050565b60006020820190508181036000830152610d5a81610d1e565b9050919050565b60008160601b9050919050565b6000610d7982610d61565b9050919050565b6000610d8b82610d6e565b9050919050565b610da3610d9e82610b1c565b610d80565b82525050565b6000819050919050565b610dc4610dbf82610993565b610da9565b82525050565b6000610dd68286610d92565b601482019150610de68285610db3565b602082019150610df68284610db3565b602082019150819050949350505050565b7f4e487b7100000000000000000000000000000000000000000000000000000000600052601260045260246000fd5b6000610e4182610993565b9150610e4c83610993565b925082610e5c57610e5b610e07565b5b82820690509291505056fea2646970667358221220e409906abc256102e904ae8eee9b0095a331807c94a54b5377ec1a4b699b0a0c64736f6c63430008080033",
					"opcodes": "PUSH1 0x80 PUSH1 0x40 MSTORE PUSH20 0x50C7A09925375438D2CEE94C5C59266C6FFAAF8C PUSH1 0x0 DUP1 PUSH2 0x100 EXP DUP2 SLOAD DUP2 PUSH20 0xFFFFFFFFFFFFFFFFFFFFFFFFFFFFFFFFFFFFFFFF MUL NOT AND SWAP1 DUP4 PUSH20 0xFFFFFFFFFFFFFFFFFFFFFFFFFFFFFFFFFFFFFFFF AND MUL OR SWAP1 SSTORE POP PUSH20 0xDBDDB8575F6BDA11F1DC548A1B546463CC567C3D PUSH1 0x1 PUSH1 0x0 PUSH2 0x100 EXP DUP2 SLOAD DUP2 PUSH20 0xFFFFFFFFFFFFFFFFFFFFFFFFFFFFFFFFFFFFFFFF MUL NOT AND SWAP1 DUP4 PUSH20 0xFFFFFFFFFFFFFFFFFFFFFFFFFFFFFFFFFFFFFFFF AND MUL OR SWAP1 SSTORE POP PUSH1 0x2 PUSH1 0x3 SSTORE CALLVALUE DUP1 ISZERO PUSH3 0xBF JUMPI PUSH1 0x0 DUP1 REVERT JUMPDEST POP CALLER PUSH1 0x2 PUSH1 0x0 PUSH2 0x100 EXP DUP2 SLOAD DUP2 PUSH20 0xFFFFFFFFFFFFFFFFFFFFFFFFFFFFFFFFFFFFFFFF MUL NOT AND SWAP1 DUP4 PUSH20 0xFFFFFFFFFFFFFFFFFFFFFFFFFFFFFFFFFFFFFFFF AND MUL OR SWAP1 SSTORE POP PUSH1 0x0 DUP1 PUSH1 0x0 SWAP1 SLOAD SWAP1 PUSH2 0x100 EXP SWAP1 DIV PUSH20 0xFFFFFFFFFFFFFFFFFFFFFFFFFFFFFFFFFFFFFFFF AND PUSH20 0xFFFFFFFFFFFFFFFFFFFFFFFFFFFFFFFFFFFFFFFF AND PUSH4 0x48441D5F PUSH1 0x40 MLOAD DUP2 PUSH4 0xFFFFFFFF AND PUSH1 0xE0 SHL DUP2 MSTORE PUSH1 0x4 ADD PUSH1 0x0 PUSH1 0x40 MLOAD DUP1 DUP4 SUB DUP2 DUP7 DUP1 EXTCODESIZE ISZERO DUP1 ISZERO PUSH3 0x16B JUMPI PUSH1 0x0 DUP1 REVERT JUMPDEST POP GAS STATICCALL ISZERO DUP1 ISZERO PUSH3 0x180 JUMPI RETURNDATASIZE PUSH1 0x0 DUP1 RETURNDATACOPY RETURNDATASIZE PUSH1 0x0 REVERT JUMPDEST POP POP POP POP PUSH1 0x40 MLOAD RETURNDATASIZE PUSH1 0x0 DUP3 RETURNDATACOPY RETURNDATASIZE PUSH1 0x1F NOT PUSH1 0x1F DUP3 ADD AND DUP3 ADD DUP1 PUSH1 0x40 MSTORE POP DUP2 ADD SWAP1 PUSH3 0x1AB SWAP2 SWAP1 PUSH3 0x6A3 JUMP JUMPDEST SWAP1 POP PUSH1 0x0 DUP1 JUMPDEST PUSH1 0x3 DUP2 LT ISZERO PUSH3 0x363 JUMPI PUSH1 0x0 DUP1 PUSH1 0x0 SWAP1 SLOAD SWAP1 PUSH2 0x100 EXP SWAP1 DIV PUSH20 0xFFFFFFFFFFFFFFFFFFFFFFFFFFFFFFFFFFFFFFFF AND PUSH20 0xFFFFFFFFFFFFFFFFFFFFFFFFFFFFFFFFFFFFFFFF AND PUSH4 0x278A7F33 DUP6 DUP5 PUSH1 0x3 DUP2 LT PUSH3 0x210 JUMPI PUSH3 0x20F PUSH3 0x6F4 JUMP JUMPDEST JUMPDEST PUSH1 0x20 MUL ADD MLOAD PUSH1 0x40 MLOAD DUP3 PUSH4 0xFFFFFFFF AND PUSH1 0xE0 SHL DUP2 MSTORE PUSH1 0x4 ADD PUSH3 0x233 SWAP2 SWAP1 PUSH3 0x780 JUMP JUMPDEST PUSH1 0x20 PUSH1 0x40 MLOAD DUP1 DUP4 SUB DUP2 DUP7 DUP1 EXTCODESIZE ISZERO DUP1 ISZERO PUSH3 0x24C JUMPI PUSH1 0x0 DUP1 REVERT JUMPDEST POP GAS STATICCALL ISZERO DUP1 ISZERO PUSH3 0x261 JUMPI RETURNDATASIZE PUSH1 0x0 DUP1 RETURNDATACOPY RETURNDATASIZE PUSH1 0x0 REVERT JUMPDEST POP POP POP POP PUSH1 0x40 MLOAD RETURNDATASIZE PUSH1 0x1F NOT PUSH1 0x1F DUP3 ADD AND DUP3 ADD DUP1 PUSH1 0x40 MSTORE POP DUP2 ADD SWAP1 PUSH3 0x287 SWAP2 SWAP1 PUSH3 0x7E2 JUMP JUMPDEST PUSH1 0xFF AND SWAP1 POP PUSH1 0x4 PUSH1 0x40 MLOAD DUP1 PUSH1 0x60 ADD PUSH1 0x40 MSTORE DUP1 DUP7 DUP6 PUSH1 0x3 DUP2 LT PUSH3 0x2AF JUMPI PUSH3 0x2AE PUSH3 0x6F4 JUMP JUMPDEST JUMPDEST PUSH1 0x20 MUL ADD MLOAD DUP2 MSTORE PUSH1 0x20 ADD DUP6 DUP2 MSTORE PUSH1 0x20 ADD PUSH1 0x1 DUP5 DUP8 PUSH3 0x2CF SWAP2 SWAP1 PUSH3 0x84D JUMP JUMPDEST PUSH3 0x2DB SWAP2 SWAP1 PUSH3 0x8AA JUMP JUMPDEST DUP2 MSTORE POP SWAP1 DUP1 PUSH1 0x1 DUP2 SLOAD ADD DUP1 DUP3 SSTORE DUP1 SWAP2 POP POP PUSH1 0x1 SWAP1 SUB SWAP1 PUSH1 0x0 MSTORE PUSH1 0x20 PUSH1 0x0 KECCAK256 SWAP1 PUSH1 0x3 MUL ADD PUSH1 0x0 SWAP1 SWAP2 SWAP1 SWAP2 SWAP1 SWAP2 POP PUSH1 0x0 DUP3 ADD MLOAD DUP2 PUSH1 0x0 ADD SWAP1 DUP1 MLOAD SWAP1 PUSH1 0x20 ADD SWAP1 PUSH3 0x325 SWAP3 SWAP2 SWAP1 PUSH3 0x36C JUMP JUMPDEST POP PUSH1 0x20 DUP3 ADD MLOAD DUP2 PUSH1 0x1 ADD SSTORE PUSH1 0x40 DUP3 ADD MLOAD DUP2 PUSH1 0x2 ADD SSTORE POP POP DUP1 DUP4 PUSH3 0x34A SWAP2 SWAP1 PUSH3 0x84D JUMP JUMPDEST SWAP3 POP POP DUP1 DUP1 PUSH3 0x35A SWAP1 PUSH3 0x8E5 JUMP JUMPDEST SWAP2 POP POP PUSH3 0x1B1 JUMP JUMPDEST POP POP POP PUSH3 0x998 JUMP JUMPDEST DUP3 DUP1 SLOAD PUSH3 0x37A SWAP1 PUSH3 0x962 JUMP JUMPDEST SWAP1 PUSH1 0x0 MSTORE PUSH1 0x20 PUSH1 0x0 KECCAK256 SWAP1 PUSH1 0x1F ADD PUSH1 0x20 SWAP1 DIV DUP2 ADD SWAP3 DUP3 PUSH3 0x39E JUMPI PUSH1 0x0 DUP6 SSTORE PUSH3 0x3EA JUMP JUMPDEST DUP3 PUSH1 0x1F LT PUSH3 0x3B9 JUMPI DUP1 MLOAD PUSH1 0xFF NOT AND DUP4 DUP1 ADD OR DUP6 SSTORE PUSH3 0x3EA JUMP JUMPDEST DUP3 DUP1 ADD PUSH1 0x1 ADD DUP6 SSTORE DUP3 ISZERO PUSH3 0x3EA JUMPI SWAP2 DUP3 ADD JUMPDEST DUP3 DUP2 GT ISZERO PUSH3 0x3E9 JUMPI DUP3 MLOAD DUP3 SSTORE SWAP2 PUSH1 0x20 ADD SWAP2 SWAP1 PUSH1 0x1 ADD SWAP1 PUSH3 0x3CC JUMP JUMPDEST JUMPDEST POP SWAP1 POP PUSH3 0x3F9 SWAP2 SWAP1 PUSH3 0x3FD JUMP JUMPDEST POP SWAP1 JUMP JUMPDEST JUMPDEST DUP1 DUP3 GT ISZERO PUSH3 0x418 JUMPI PUSH1 0x0 DUP2 PUSH1 0x0 SWAP1 SSTORE POP PUSH1 0x1 ADD PUSH3 0x3FE JUMP JUMPDEST POP SWAP1 JUMP JUMPDEST PUSH1 0x0 PUSH1 0x40 MLOAD SWAP1 POP SWAP1 JUMP JUMPDEST PUSH1 0x0 DUP1 REVERT JUMPDEST PUSH1 0x0 DUP1 REVERT JUMPDEST PUSH1 0x0 DUP1 REVERT JUMPDEST PUSH1 0x0 PUSH1 0x1F NOT PUSH1 0x1F DUP4 ADD AND SWAP1 POP SWAP2 SWAP1 POP JUMP JUMPDEST PUSH32 0x4E487B7100000000000000000000000000000000000000000000000000000000 PUSH1 0x0 MSTORE PUSH1 0x41 PUSH1 0x4 MSTORE PUSH1 0x24 PUSH1 0x0 REVERT JUMPDEST PUSH3 0x480 DUP3 PUSH3 0x435 JUMP JUMPDEST DUP2 ADD DUP2 DUP2 LT PUSH8 0xFFFFFFFFFFFFFFFF DUP3 GT OR ISZERO PUSH3 0x4A2 JUMPI PUSH3 0x4A1 PUSH3 0x446 JUMP JUMPDEST JUMPDEST DUP1 PUSH1 0x40 MSTORE POP POP POP JUMP JUMPDEST PUSH1 0x0 PUSH3 0x4B7 PUSH3 0x41C JUMP JUMPDEST SWAP1 POP PUSH3 0x4C5 DUP3 DUP3 PUSH3 0x475 JUMP JUMPDEST SWAP2 SWAP1 POP JUMP JUMPDEST PUSH1 0x0 PUSH8 0xFFFFFFFFFFFFFFFF DUP3 GT ISZERO PUSH3 0x4E8 JUMPI PUSH3 0x4E7 PUSH3 0x446 JUMP JUMPDEST JUMPDEST PUSH1 0x20 DUP3 MUL SWAP1 POP SWAP2 SWAP1 POP JUMP JUMPDEST PUSH1 0x0 DUP1 REVERT JUMPDEST PUSH1 0x0 DUP1 REVERT JUMPDEST PUSH1 0x0 PUSH8 0xFFFFFFFFFFFFFFFF DUP3 GT ISZERO PUSH3 0x51B JUMPI PUSH3 0x51A PUSH3 0x446 JUMP JUMPDEST JUMPDEST PUSH3 0x526 DUP3 PUSH3 0x435 JUMP JUMPDEST SWAP1 POP PUSH1 0x20 DUP2 ADD SWAP1 POP SWAP2 SWAP1 POP JUMP JUMPDEST PUSH1 0x0 JUMPDEST DUP4 DUP2 LT ISZERO PUSH3 0x553 JUMPI DUP1 DUP3 ADD MLOAD DUP2 DUP5 ADD MSTORE PUSH1 0x20 DUP2 ADD SWAP1 POP PUSH3 0x536 JUMP JUMPDEST DUP4 DUP2 GT ISZERO PUSH3 0x563 JUMPI PUSH1 0x0 DUP5 DUP5 ADD MSTORE JUMPDEST POP POP POP POP JUMP JUMPDEST PUSH1 0x0 PUSH3 0x580 PUSH3 0x57A DUP5 PUSH3 0x4FD JUMP JUMPDEST PUSH3 0x4AB JUMP JUMPDEST SWAP1 POP DUP3 DUP2 MSTORE PUSH1 0x20 DUP2 ADD DUP5 DUP5 DUP5 ADD GT ISZERO PUSH3 0x59F JUMPI PUSH3 0x59E PUSH3 0x4F8 JUMP JUMPDEST JUMPDEST PUSH3 0x5AC DUP5 DUP3 DUP6 PUSH3 0x533 JUMP JUMPDEST POP SWAP4 SWAP3 POP POP POP JUMP JUMPDEST PUSH1 0x0 DUP3 PUSH1 0x1F DUP4 ADD SLT PUSH3 0x5CC JUMPI PUSH3 0x5CB PUSH3 0x430 JUMP JUMPDEST JUMPDEST DUP2 MLOAD PUSH3 0x5DE DUP5 DUP3 PUSH1 0x20 DUP7 ADD PUSH3 0x569 JUMP JUMPDEST SWAP2 POP POP SWAP3 SWAP2 POP POP JUMP JUMPDEST PUSH1 0x0 PUSH3 0x5FE PUSH3 0x5F8 DUP5 PUSH3 0x4CA JUMP JUMPDEST PUSH3 0x4AB JUMP JUMPDEST SWAP1 POP DUP1 PUSH1 0x20 DUP5 MUL DUP4 ADD DUP6 DUP2 GT ISZERO PUSH3 0x61B JUMPI PUSH3 0x61A PUSH3 0x4F3 JUMP JUMPDEST JUMPDEST DUP4 JUMPDEST DUP2 DUP2 LT ISZERO PUSH3 0x669 JUMPI DUP1 MLOAD PUSH8 0xFFFFFFFFFFFFFFFF DUP2 GT ISZERO PUSH3 0x644 JUMPI PUSH3 0x643 PUSH3 0x430 JUMP JUMPDEST JUMPDEST DUP1 DUP7 ADD PUSH3 0x653 DUP10 DUP3 PUSH3 0x5B4 JUMP JUMPDEST DUP6 MSTORE PUSH1 0x20 DUP6 ADD SWAP5 POP POP POP PUSH1 0x20 DUP2 ADD SWAP1 POP PUSH3 0x61D JUMP JUMPDEST POP POP POP SWAP4 SWAP3 POP POP POP JUMP JUMPDEST PUSH1 0x0 DUP3 PUSH1 0x1F DUP4 ADD SLT PUSH3 0x68B JUMPI PUSH3 0x68A PUSH3 0x430 JUMP JUMPDEST JUMPDEST PUSH1 0x3 PUSH3 0x69A DUP5 DUP3 DUP6 PUSH3 0x5E7 JUMP JUMPDEST SWAP2 POP POP SWAP3 SWAP2 POP POP JUMP JUMPDEST PUSH1 0x0 PUSH1 0x20 DUP3 DUP5 SUB SLT ISZERO PUSH3 0x6BC JUMPI PUSH3 0x6BB PUSH3 0x426 JUMP JUMPDEST JUMPDEST PUSH1 0x0 DUP3 ADD MLOAD PUSH8 0xFFFFFFFFFFFFFFFF DUP2 GT ISZERO PUSH3 0x6DD JUMPI PUSH3 0x6DC PUSH3 0x42B JUMP JUMPDEST JUMPDEST PUSH3 0x6EB DUP5 DUP3 DUP6 ADD PUSH3 0x673 JUMP JUMPDEST SWAP2 POP POP SWAP3 SWAP2 POP POP JUMP JUMPDEST PUSH32 0x4E487B7100000000000000000000000000000000000000000000000000000000 PUSH1 0x0 MSTORE PUSH1 0x32 PUSH1 0x4 MSTORE PUSH1 0x24 PUSH1 0x0 REVERT JUMPDEST PUSH1 0x0 DUP2 MLOAD SWAP1 POP SWAP2 SWAP1 POP JUMP JUMPDEST PUSH1 0x0 DUP3 DUP3 MSTORE PUSH1 0x20 DUP3 ADD SWAP1 POP SWAP3 SWAP2 POP POP JUMP JUMPDEST PUSH1 0x0 PUSH3 0x74C DUP3 PUSH3 0x723 JUMP JUMPDEST PUSH3 0x758 DUP2 DUP6 PUSH3 0x72E JUMP JUMPDEST SWAP4 POP PUSH3 0x76A DUP2 DUP6 PUSH1 0x20 DUP7 ADD PUSH3 0x533 JUMP JUMPDEST PUSH3 0x775 DUP2 PUSH3 0x435 JUMP JUMPDEST DUP5 ADD SWAP2 POP POP SWAP3 SWAP2 POP POP JUMP JUMPDEST PUSH1 0x0 PUSH1 0x20 DUP3 ADD SWAP1 POP DUP2 DUP2 SUB PUSH1 0x0 DUP4 ADD MSTORE PUSH3 0x79C DUP2 DUP5 PUSH3 0x73F JUMP JUMPDEST SWAP1 POP SWAP3 SWAP2 POP POP JUMP JUMPDEST PUSH1 0x0 PUSH1 0xFF DUP3 AND SWAP1 POP SWAP2 SWAP1 POP JUMP JUMPDEST PUSH3 0x7BC DUP2 PUSH3 0x7A4 JUMP JUMPDEST DUP2 EQ PUSH3 0x7C8 JUMPI PUSH1 0x0 DUP1 REVERT JUMPDEST POP JUMP JUMPDEST PUSH1 0x0 DUP2 MLOAD SWAP1 POP PUSH3 0x7DC DUP2 PUSH3 0x7B1 JUMP JUMPDEST SWAP3 SWAP2 POP POP JUMP JUMPDEST PUSH1 0x0 PUSH1 0x20 DUP3 DUP5 SUB SLT ISZERO PUSH3 0x7FB JUMPI PUSH3 0x7FA PUSH3 0x426 JUMP JUMPDEST JUMPDEST PUSH1 0x0 PUSH3 0x80B DUP5 DUP3 DUP6 ADD PUSH3 0x7CB JUMP JUMPDEST SWAP2 POP POP SWAP3 SWAP2 POP POP JUMP JUMPDEST PUSH1 0x0 DUP2 SWAP1 POP SWAP2 SWAP1 POP JUMP JUMPDEST PUSH32 0x4E487B7100000000000000000000000000000000000000000000000000000000 PUSH1 0x0 MSTORE PUSH1 0x11 PUSH1 0x4 MSTORE PUSH1 0x24 PUSH1 0x0 REVERT JUMPDEST PUSH1 0x0 PUSH3 0x85A DUP3 PUSH3 0x814 JUMP JUMPDEST SWAP2 POP PUSH3 0x867 DUP4 PUSH3 0x814 JUMP JUMPDEST SWAP3 POP DUP3 PUSH32 0xFFFFFFFFFFFFFFFFFFFFFFFFFFFFFFFFFFFFFFFFFFFFFFFFFFFFFFFFFFFFFFFF SUB DUP3 GT ISZERO PUSH3 0x89F JUMPI PUSH3 0x89E PUSH3 0x81E JUMP JUMPDEST JUMPDEST DUP3 DUP3 ADD SWAP1 POP SWAP3 SWAP2 POP POP JUMP JUMPDEST PUSH1 0x0 PUSH3 0x8B7 DUP3 PUSH3 0x814 JUMP JUMPDEST SWAP2 POP PUSH3 0x8C4 DUP4 PUSH3 0x814 JUMP JUMPDEST SWAP3 POP DUP3 DUP3 LT ISZERO PUSH3 0x8DA JUMPI PUSH3 0x8D9 PUSH3 0x81E JUMP JUMPDEST JUMPDEST DUP3 DUP3 SUB SWAP1 POP SWAP3 SWAP2 POP POP JUMP JUMPDEST PUSH1 0x0 PUSH3 0x8F2 DUP3 PUSH3 0x814 JUMP JUMPDEST SWAP2 POP PUSH32 0xFFFFFFFFFFFFFFFFFFFFFFFFFFFFFFFFFFFFFFFFFFFFFFFFFFFFFFFFFFFFFFFF DUP3 EQ ISZERO PUSH3 0x928 JUMPI PUSH3 0x927 PUSH3 0x81E JUMP JUMPDEST JUMPDEST PUSH1 0x1 DUP3 ADD SWAP1 POP SWAP2 SWAP1 POP JUMP JUMPDEST PUSH32 0x4E487B7100000000000000000000000000000000000000000000000000000000 PUSH1 0x0 MSTORE PUSH1 0x22 PUSH1 0x4 MSTORE PUSH1 0x24 PUSH1 0x0 REVERT JUMPDEST PUSH1 0x0 PUSH1 0x2 DUP3 DIV SWAP1 POP PUSH1 0x1 DUP3 AND DUP1 PUSH3 0x97B JUMPI PUSH1 0x7F DUP3 AND SWAP2 POP JUMPDEST PUSH1 0x20 DUP3 LT DUP2 EQ ISZERO PUSH3 0x992 JUMPI PUSH3 0x991 PUSH3 0x933 JUMP JUMPDEST JUMPDEST POP SWAP2 SWAP1 POP JUMP JUMPDEST PUSH2 0xE9D DUP1 PUSH3 0x9A8 PUSH1 0x0 CODECOPY PUSH1 0x0 RETURN INVALID PUSH1 0x80 PUSH1 0x40 MSTORE CALLVALUE DUP1 ISZERO PUSH2 0x10 JUMPI PUSH1 0x0 DUP1 REVERT JUMPDEST POP PUSH1 0x4 CALLDATASIZE LT PUSH2 0x7D JUMPI PUSH1 0x0 CALLDATALOAD PUSH1 0xE0 SHR DUP1 PUSH4 0x8F84AA09 GT PUSH2 0x5B JUMPI DUP1 PUSH4 0x8F84AA09 EQ PUSH2 0x103 JUMPI DUP1 PUSH4 0xC15D3EAD EQ PUSH2 0x121 JUMPI DUP1 PUSH4 0xE917EC96 EQ PUSH2 0x13D JUMPI DUP1 PUSH4 0xFC6F9468 EQ PUSH2 0x147 JUMPI PUSH2 0x7D JUMP JUMPDEST DUP1 PUSH4 0x6CD309B EQ PUSH2 0x82 JUMPI DUP1 PUSH4 0x6FD3D9E2 EQ PUSH2 0xA0 JUMPI DUP1 PUSH4 0x7259E0F8 EQ PUSH2 0xD2 JUMPI JUMPDEST PUSH1 0x0 DUP1 REVERT JUMPDEST PUSH2 0x8A PUSH2 0x165 JUMP JUMPDEST PUSH1 0x40 MLOAD PUSH2 0x97 SWAP2 SWAP1 PUSH2 0x9AC JUMP JUMPDEST PUSH1 0x40 MLOAD DUP1 SWAP2 SUB SWAP1 RETURN JUMPDEST PUSH2 0xBA PUSH1 0x4 DUP1 CALLDATASIZE SUB DUP2 ADD SWAP1 PUSH2 0xB5 SWAP2 SWAP1 PUSH2 0x9F8 JUMP JUMPDEST PUSH2 0x16B JUMP JUMPDEST PUSH1 0x40 MLOAD PUSH2 0xC9 SWAP4 SWAP3 SWAP2 SWAP1 PUSH2 0xABE JUMP JUMPDEST PUSH1 0x40 MLOAD DUP1 SWAP2 SUB SWAP1 RETURN JUMPDEST PUSH2 0xEC PUSH1 0x4 DUP1 CALLDATASIZE SUB DUP2 ADD SWAP1 PUSH2 0xE7 SWAP2 SWAP1 PUSH2 0x9F8 JUMP JUMPDEST PUSH2 0x22D JUMP JUMPDEST PUSH1 0x40 MLOAD PUSH2 0xFA SWAP3 SWAP2 SWAP1 PUSH2 0xB3D JUMP JUMPDEST PUSH1 0x40 MLOAD DUP1 SWAP2 SUB SWAP1 RETURN JUMPDEST PUSH2 0x10B PUSH2 0x281 JUMP JUMPDEST PUSH1 0x40 MLOAD PUSH2 0x118 SWAP2 SWAP1 PUSH2 0xB66 JUMP JUMPDEST PUSH1 0x40 MLOAD DUP1 SWAP2 SUB SWAP1 RETURN JUMPDEST PUSH2 0x13B PUSH1 0x4 DUP1 CALLDATASIZE SUB DUP2 ADD SWAP1 PUSH2 0x136 SWAP2 SWAP1 PUSH2 0x9F8 JUMP JUMPDEST PUSH2 0x2A7 JUMP JUMPDEST STOP JUMPDEST PUSH2 0x145 PUSH2 0x399 JUMP JUMPDEST STOP JUMPDEST PUSH2 0x14F PUSH2 0x6FA JUMP JUMPDEST PUSH1 0x40 MLOAD PUSH2 0x15C SWAP2 SWAP1 PUSH2 0xB66 JUMP JUMPDEST PUSH1 0x40 MLOAD DUP1 SWAP2 SUB SWAP1 RETURN JUMPDEST PUSH1 0x3 SLOAD DUP2 JUMP JUMPDEST PUSH1 0x4 DUP2 DUP2 SLOAD DUP2 LT PUSH2 0x17B JUMPI PUSH1 0x0 DUP1 REVERT JUMPDEST SWAP1 PUSH1 0x0 MSTORE PUSH1 0x20 PUSH1 0x0 KECCAK256 SWAP1 PUSH1 0x3 MUL ADD PUSH1 0x0 SWAP2 POP SWAP1 POP DUP1 PUSH1 0x0 ADD DUP1 SLOAD PUSH2 0x19E SWAP1 PUSH2 0xBB0 JUMP JUMPDEST DUP1 PUSH1 0x1F ADD PUSH1 0x20 DUP1 SWAP2 DIV MUL PUSH1 0x20 ADD PUSH1 0x40 MLOAD SWAP1 DUP2 ADD PUSH1 0x40 MSTORE DUP1 SWAP3 SWAP2 SWAP1 DUP2 DUP2 MSTORE PUSH1 0x20 ADD DUP3 DUP1 SLOAD PUSH2 0x1CA SWAP1 PUSH2 0xBB0 JUMP JUMPDEST DUP1 ISZERO PUSH2 0x217 JUMPI DUP1 PUSH1 0x1F LT PUSH2 0x1EC JUMPI PUSH2 0x100 DUP1 DUP4 SLOAD DIV MUL DUP4 MSTORE SWAP2 PUSH1 0x20 ADD SWAP2 PUSH2 0x217 JUMP JUMPDEST DUP3 ADD SWAP2 SWAP1 PUSH1 0x0 MSTORE PUSH1 0x20 PUSH1 0x0 KECCAK256 SWAP1 JUMPDEST DUP2 SLOAD DUP2 MSTORE SWAP1 PUSH1 0x1 ADD SWAP1 PUSH1 0x20 ADD DUP1 DUP4 GT PUSH2 0x1FA JUMPI DUP3 SWAP1 SUB PUSH1 0x1F AND DUP3 ADD SWAP2 JUMPDEST POP POP POP POP POP SWAP1 DUP1 PUSH1 0x1 ADD SLOAD SWAP1 DUP1 PUSH1 0x2 ADD SLOAD SWAP1 POP DUP4 JUMP JUMPDEST PUSH1 0x5 DUP2 DUP2 SLOAD DUP2 LT PUSH2 0x23D JUMPI PUSH1 0x0 DUP1 REVERT JUMPDEST SWAP1 PUSH1 0x0 MSTORE PUSH1 0x20 PUSH1 0x0 KECCAK256 SWAP1 PUSH1 0x4 MUL ADD PUSH1 0x0 SWAP2 POP SWAP1 POP DUP1 PUSH1 0x0 ADD PUSH1 0x0 SWAP1 SLOAD SWAP1 PUSH2 0x100 EXP SWAP1 DIV PUSH20 0xFFFFFFFFFFFFFFFFFFFFFFFFFFFFFFFFFFFFFFFF AND SWAP1 DUP1 PUSH1 0x1 ADD SLOAD SWAP1 POP DUP3 JUMP JUMPDEST PUSH1 0x1 PUSH1 0x0 SWAP1 SLOAD SWAP1 PUSH2 0x100 EXP SWAP1 DIV PUSH20 0xFFFFFFFFFFFFFFFFFFFFFFFFFFFFFFFFFFFFFFFF AND DUP2 JUMP JUMPDEST PUSH1 0x2 PUSH1 0x0 SWAP1 SLOAD SWAP1 PUSH2 0x100 EXP SWAP1 DIV PUSH20 0xFFFFFFFFFFFFFFFFFFFFFFFFFFFFFFFFFFFFFFFF AND PUSH20 0xFFFFFFFFFFFFFFFFFFFFFFFFFFFFFFFFFFFFFFFF AND CALLER PUSH20 0xFFFFFFFFFFFFFFFFFFFFFFFFFFFFFFFFFFFFFFFF AND EQ DUP1 PUSH2 0x350 JUMPI POP PUSH1 0x1 PUSH1 0x0 SWAP1 SLOAD SWAP1 PUSH2 0x100 EXP SWAP1 DIV PUSH20 0xFFFFFFFFFFFFFFFFFFFFFFFFFFFFFFFFFFFFFFFF AND PUSH20 0xFFFFFFFFFFFFFFFFFFFFFFFFFFFFFFFFFFFFFFFF AND CALLER PUSH20 0xFFFFFFFFFFFFFFFFFFFFFFFFFFFFFFFFFFFFFFFF AND EQ JUMPDEST PUSH2 0x38F JUMPI PUSH1 0x40 MLOAD PUSH32 0x8C379A000000000000000000000000000000000000000000000000000000000 DUP2 MSTORE PUSH1 0x4 ADD PUSH2 0x386 SWAP1 PUSH2 0xC2E JUMP JUMPDEST PUSH1 0x40 MLOAD DUP1 SWAP2 SUB SWAP1 REVERT JUMPDEST DUP1 PUSH1 0x3 DUP2 SWAP1 SSTORE POP POP JUMP JUMPDEST PUSH1 0x0 DUP1 JUMPDEST PUSH1 0x0 ISZERO ISZERO DUP3 ISZERO ISZERO EQ DUP1 ISZERO PUSH2 0x3B6 JUMPI POP PUSH1 0x0 PUSH1 0x5 DUP1 SLOAD SWAP1 POP GT JUMPDEST DUP1 ISZERO PUSH2 0x3C6 JUMPI POP PUSH1 0x5 DUP1 SLOAD SWAP1 POP DUP2 LT JUMPDEST ISZERO PUSH2 0x5C7 JUMPI CALLER PUSH20 0xFFFFFFFFFFFFFFFFFFFFFFFFFFFFFFFFFFFFFFFF AND PUSH1 0x5 DUP3 DUP2 SLOAD DUP2 LT PUSH2 0x3F6 JUMPI PUSH2 0x3F5 PUSH2 0xC4E JUMP JUMPDEST JUMPDEST SWAP1 PUSH1 0x0 MSTORE PUSH1 0x20 PUSH1 0x0 KECCAK256 SWAP1 PUSH1 0x4 MUL ADD PUSH1 0x0 ADD PUSH1 0x0 SWAP1 SLOAD SWAP1 PUSH2 0x100 EXP SWAP1 DIV PUSH20 0xFFFFFFFFFFFFFFFFFFFFFFFFFFFFFFFFFFFFFFFF AND PUSH20 0xFFFFFFFFFFFFFFFFFFFFFFFFFFFFFFFFFFFFFFFF AND EQ ISZERO PUSH2 0x5B4 JUMPI PUSH1 0x1 SWAP2 POP PUSH1 0x5 DUP2 DUP2 SLOAD DUP2 LT PUSH2 0x45C JUMPI PUSH2 0x45B PUSH2 0xC4E JUMP JUMPDEST JUMPDEST SWAP1 PUSH1 0x0 MSTORE PUSH1 0x20 PUSH1 0x0 KECCAK256 SWAP1 PUSH1 0x4 MUL ADD PUSH1 0x1 ADD PUSH1 0x0 DUP2 SLOAD DUP1 SWAP3 SWAP2 SWAP1 PUSH2 0x47E SWAP1 PUSH2 0xCAC JUMP JUMPDEST SWAP2 SWAP1 POP SSTORE POP PUSH1 0x3 SLOAD PUSH1 0x5 DUP3 DUP2 SLOAD DUP2 LT PUSH2 0x49A JUMPI PUSH2 0x499 PUSH2 0xC4E JUMP JUMPDEST JUMPDEST SWAP1 PUSH1 0x0 MSTORE PUSH1 0x20 PUSH1 0x0 KECCAK256 SWAP1 PUSH1 0x4 MUL ADD PUSH1 0x1 ADD SLOAD GT ISZERO PUSH2 0x4ED JUMPI PUSH1 0x40 MLOAD PUSH32 0x8C379A000000000000000000000000000000000000000000000000000000000 DUP2 MSTORE PUSH1 0x4 ADD PUSH2 0x4E4 SWAP1 PUSH2 0xD41 JUMP JUMPDEST PUSH1 0x40 MLOAD DUP1 SWAP2 SUB SWAP1 REVERT JUMPDEST PUSH1 0x0 PUSH2 0x4F7 PUSH2 0x720 JUMP JUMPDEST SWAP1 POP PUSH1 0x0 PUSH2 0x504 DUP3 PUSH2 0x766 JUMP JUMPDEST SWAP1 POP PUSH1 0x5 DUP4 DUP2 SLOAD DUP2 LT PUSH2 0x51A JUMPI PUSH2 0x519 PUSH2 0xC4E JUMP JUMPDEST JUMPDEST SWAP1 PUSH1 0x0 MSTORE PUSH1 0x20 PUSH1 0x0 KECCAK256 SWAP1 PUSH1 0x4 MUL ADD PUSH1 0x2 ADD DUP3 SWAP1 DUP1 PUSH1 0x1 DUP2 SLOAD ADD DUP1 DUP3 SSTORE DUP1 SWAP2 POP POP PUSH1 0x1 SWAP1 SUB SWAP1 PUSH1 0x0 MSTORE PUSH1 0x20 PUSH1 0x0 KECCAK256 ADD PUSH1 0x0 SWAP1 SWAP2 SWAP1 SWAP2 SWAP1 SWAP2 POP SSTORE PUSH1 0x5 DUP4 DUP2 SLOAD DUP2 LT PUSH2 0x566 JUMPI PUSH2 0x565 PUSH2 0xC4E JUMP JUMPDEST JUMPDEST SWAP1 PUSH1 0x0 MSTORE PUSH1 0x20 PUSH1 0x0 KECCAK256 SWAP1 PUSH1 0x4 MUL ADD PUSH1 0x3 ADD DUP2 SWAP1 DUP1 PUSH1 0x1 DUP2 SLOAD ADD DUP1 DUP3 SSTORE DUP1 SWAP2 POP POP PUSH1 0x1 SWAP1 SUB SWAP1 PUSH1 0x0 MSTORE PUSH1 0x20 PUSH1 0x0 KECCAK256 ADD PUSH1 0x0 SWAP1 SWAP2 SWAP1 SWAP2 SWAP1 SWAP2 POP SWAP1 DUP1 MLOAD SWAP1 PUSH1 0x20 ADD SWAP1 PUSH2 0x5B0 SWAP3 SWAP2 SWAP1 PUSH2 0x8F0 JUMP JUMPDEST POP POP POP JUMPDEST DUP1 DUP1 PUSH2 0x5BF SWAP1 PUSH2 0xCAC JUMP JUMPDEST SWAP2 POP POP PUSH2 0x39D JUMP JUMPDEST PUSH1 0x0 DUP1 SLOAD SWAP1 PUSH2 0x100 EXP SWAP1 DIV PUSH20 0xFFFFFFFFFFFFFFFFFFFFFFFFFFFFFFFFFFFFFFFF AND PUSH20 0xFFFFFFFFFFFFFFFFFFFFFFFFFFFFFFFFFFFFFFFF AND PUSH4 0x40D097C3 PUSH1 0x1 PUSH1 0x0 SWAP1 SLOAD SWAP1 PUSH2 0x100 EXP SWAP1 DIV PUSH20 0xFFFFFFFFFFFFFFFFFFFFFFFFFFFFFFFFFFFFFFFF AND PUSH1 0x40 MLOAD DUP3 PUSH4 0xFFFFFFFF AND PUSH1 0xE0 SHL DUP2 MSTORE PUSH1 0x4 ADD PUSH2 0x642 SWAP2 SWAP1 PUSH2 0xB66 JUMP JUMPDEST PUSH1 0x0 PUSH1 0x40 MLOAD DUP1 DUP4 SUB DUP2 PUSH1 0x0 DUP8 DUP1 EXTCODESIZE ISZERO DUP1 ISZERO PUSH2 0x65C JUMPI PUSH1 0x0 DUP1 REVERT JUMPDEST POP GAS CALL ISZERO DUP1 ISZERO PUSH2 0x670 JUMPI RETURNDATASIZE PUSH1 0x0 DUP1 RETURNDATACOPY RETURNDATASIZE PUSH1 0x0 REVERT JUMPDEST POP POP POP POP DUP2 PUSH2 0x6F6 JUMPI PUSH1 0x60 DUP1 PUSH1 0x3 DUP3 PUSH1 0x0 DUP2 MLOAD DUP2 LT PUSH2 0x692 JUMPI PUSH2 0x691 PUSH2 0xC4E JUMP JUMPDEST JUMPDEST PUSH1 0x20 MUL PUSH1 0x20 ADD ADD DUP2 DUP2 MSTORE POP POP PUSH1 0x40 MLOAD DUP1 PUSH1 0x40 ADD PUSH1 0x40 MSTORE DUP1 PUSH1 0x4 DUP2 MSTORE PUSH1 0x20 ADD PUSH32 0x476F6F6400000000000000000000000000000000000000000000000000000000 DUP2 MSTORE POP DUP2 PUSH1 0x0 DUP2 MLOAD DUP2 LT PUSH2 0x6E8 JUMPI PUSH2 0x6E7 PUSH2 0xC4E JUMP JUMPDEST JUMPDEST PUSH1 0x20 MUL PUSH1 0x20 ADD ADD DUP2 SWAP1 MSTORE POP POP POP JUMPDEST POP POP JUMP JUMPDEST PUSH1 0x2 PUSH1 0x0 SWAP1 SLOAD SWAP1 PUSH2 0x100 EXP SWAP1 DIV PUSH20 0xFFFFFFFFFFFFFFFFFFFFFFFFFFFFFFFFFFFFFFFF AND DUP2 JUMP JUMPDEST PUSH1 0x0 DUP1 PUSH1 0x64 CALLER TIMESTAMP DIFFICULTY PUSH1 0x40 MLOAD PUSH1 0x20 ADD PUSH2 0x73A SWAP4 SWAP3 SWAP2 SWAP1 PUSH2 0xDCA JUMP JUMPDEST PUSH1 0x40 MLOAD PUSH1 0x20 DUP2 DUP4 SUB SUB DUP2 MSTORE SWAP1 PUSH1 0x40 MSTORE DUP1 MLOAD SWAP1 PUSH1 0x20 ADD KECCAK256 PUSH1 0x0 SHR PUSH2 0x75D SWAP2 SWAP1 PUSH2 0xE36 JUMP JUMPDEST SWAP1 POP DUP1 SWAP2 POP POP SWAP1 JUMP JUMPDEST PUSH1 0x60 PUSH1 0x0 DUP1 JUMPDEST DUP2 ISZERO DUP1 ISZERO PUSH2 0x77E JUMPI POP PUSH1 0x4 DUP1 SLOAD SWAP1 POP DUP2 LT JUMPDEST ISZERO PUSH2 0x8B0 JUMPI PUSH1 0x4 DUP2 DUP2 SLOAD DUP2 LT PUSH2 0x797 JUMPI PUSH2 0x796 PUSH2 0xC4E JUMP JUMPDEST JUMPDEST SWAP1 PUSH1 0x0 MSTORE PUSH1 0x20 PUSH1 0x0 KECCAK256 SWAP1 PUSH1 0x3 MUL ADD PUSH1 0x1 ADD SLOAD DUP5 LT ISZERO DUP1 ISZERO PUSH2 0x7DD JUMPI POP PUSH1 0x4 DUP2 DUP2 SLOAD DUP2 LT PUSH2 0x7C7 JUMPI PUSH2 0x7C6 PUSH2 0xC4E JUMP JUMPDEST JUMPDEST SWAP1 PUSH1 0x0 MSTORE PUSH1 0x20 PUSH1 0x0 KECCAK256 SWAP1 PUSH1 0x3 MUL ADD PUSH1 0x2 ADD SLOAD DUP5 GT ISZERO JUMPDEST ISZERO PUSH2 0x89D JUMPI PUSH1 0x1 SWAP2 POP PUSH1 0x4 DUP2 DUP2 SLOAD DUP2 LT PUSH2 0x7FA JUMPI PUSH2 0x7F9 PUSH2 0xC4E JUMP JUMPDEST JUMPDEST SWAP1 PUSH1 0x0 MSTORE PUSH1 0x20 PUSH1 0x0 KECCAK256 SWAP1 PUSH1 0x3 MUL ADD PUSH1 0x0 ADD DUP1 SLOAD PUSH2 0x816 SWAP1 PUSH2 0xBB0 JUMP JUMPDEST DUP1 PUSH1 0x1F ADD PUSH1 0x20 DUP1 SWAP2 DIV MUL PUSH1 0x20 ADD PUSH1 0x40 MLOAD SWAP1 DUP2 ADD PUSH1 0x40 MSTORE DUP1 SWAP3 SWAP2 SWAP1 DUP2 DUP2 MSTORE PUSH1 0x20 ADD DUP3 DUP1 SLOAD PUSH2 0x842 SWAP1 PUSH2 0xBB0 JUMP JUMPDEST DUP1 ISZERO PUSH2 0x88F JUMPI DUP1 PUSH1 0x1F LT PUSH2 0x864 JUMPI PUSH2 0x100 DUP1 DUP4 SLOAD DIV MUL DUP4 MSTORE SWAP2 PUSH1 0x20 ADD SWAP2 PUSH2 0x88F JUMP JUMPDEST DUP3 ADD SWAP2 SWAP1 PUSH1 0x0 MSTORE PUSH1 0x20 PUSH1 0x0 KECCAK256 SWAP1 JUMPDEST DUP2 SLOAD DUP2 MSTORE SWAP1 PUSH1 0x1 ADD SWAP1 PUSH1 0x20 ADD DUP1 DUP4 GT PUSH2 0x872 JUMPI DUP3 SWAP1 SUB PUSH1 0x1F AND DUP3 ADD SWAP2 JUMPDEST POP POP POP POP POP SWAP3 POP POP POP PUSH2 0x8EB JUMP JUMPDEST DUP1 DUP1 PUSH2 0x8A8 SWAP1 PUSH2 0xCAC JUMP JUMPDEST SWAP2 POP POP PUSH2 0x76C JUMP JUMPDEST PUSH1 0x40 MLOAD DUP1 PUSH1 0x40 ADD PUSH1 0x40 MSTORE DUP1 PUSH1 0x9 DUP2 MSTORE PUSH1 0x20 ADD PUSH32 0x4E6F7420466F756E640000000000000000000000000000000000000000000000 DUP2 MSTORE POP SWAP3 POP POP POP JUMPDEST SWAP2 SWAP1 POP JUMP JUMPDEST DUP3 DUP1 SLOAD PUSH2 0x8FC SWAP1 PUSH2 0xBB0 JUMP JUMPDEST SWAP1 PUSH1 0x0 MSTORE PUSH1 0x20 PUSH1 0x0 KECCAK256 SWAP1 PUSH1 0x1F ADD PUSH1 0x20 SWAP1 DIV DUP2 ADD SWAP3 DUP3 PUSH2 0x91E JUMPI PUSH1 0x0 DUP6 SSTORE PUSH2 0x965 JUMP JUMPDEST DUP3 PUSH1 0x1F LT PUSH2 0x937 JUMPI DUP1 MLOAD PUSH1 0xFF NOT AND DUP4 DUP1 ADD OR DUP6 SSTORE PUSH2 0x965 JUMP JUMPDEST DUP3 DUP1 ADD PUSH1 0x1 ADD DUP6 SSTORE DUP3 ISZERO PUSH2 0x965 JUMPI SWAP2 DUP3 ADD JUMPDEST DUP3 DUP2 GT ISZERO PUSH2 0x964 JUMPI DUP3 MLOAD DUP3 SSTORE SWAP2 PUSH1 0x20 ADD SWAP2 SWAP1 PUSH1 0x1 ADD SWAP1 PUSH2 0x949 JUMP JUMPDEST JUMPDEST POP SWAP1 POP PUSH2 0x972 SWAP2 SWAP1 PUSH2 0x976 JUMP JUMPDEST POP SWAP1 JUMP JUMPDEST JUMPDEST DUP1 DUP3 GT ISZERO PUSH2 0x98F JUMPI PUSH1 0x0 DUP2 PUSH1 0x0 SWAP1 SSTORE POP PUSH1 0x1 ADD PUSH2 0x977 JUMP JUMPDEST POP SWAP1 JUMP JUMPDEST PUSH1 0x0 DUP2 SWAP1 POP SWAP2 SWAP1 POP JUMP JUMPDEST PUSH2 0x9A6 DUP2 PUSH2 0x993 JUMP JUMPDEST DUP3 MSTORE POP POP JUMP JUMPDEST PUSH1 0x0 PUSH1 0x20 DUP3 ADD SWAP1 POP PUSH2 0x9C1 PUSH1 0x0 DUP4 ADD DUP5 PUSH2 0x99D JUMP JUMPDEST SWAP3 SWAP2 POP POP JUMP JUMPDEST PUSH1 0x0 DUP1 REVERT JUMPDEST PUSH2 0x9D5 DUP2 PUSH2 0x993 JUMP JUMPDEST DUP2 EQ PUSH2 0x9E0 JUMPI PUSH1 0x0 DUP1 REVERT JUMPDEST POP JUMP JUMPDEST PUSH1 0x0 DUP2 CALLDATALOAD SWAP1 POP PUSH2 0x9F2 DUP2 PUSH2 0x9CC JUMP JUMPDEST SWAP3 SWAP2 POP POP JUMP JUMPDEST PUSH1 0x0 PUSH1 0x20 DUP3 DUP5 SUB SLT ISZERO PUSH2 0xA0E JUMPI PUSH2 0xA0D PUSH2 0x9C7 JUMP JUMPDEST JUMPDEST PUSH1 0x0 PUSH2 0xA1C DUP5 DUP3 DUP6 ADD PUSH2 0x9E3 JUMP JUMPDEST SWAP2 POP POP SWAP3 SWAP2 POP POP JUMP JUMPDEST PUSH1 0x0 DUP2 MLOAD SWAP1 POP SWAP2 SWAP1 POP JUMP JUMPDEST PUSH1 0x0 DUP3 DUP3 MSTORE PUSH1 0x20 DUP3 ADD SWAP1 POP SWAP3 SWAP2 POP POP JUMP JUMPDEST PUSH1 0x0 JUMPDEST DUP4 DUP2 LT ISZERO PUSH2 0xA5F JUMPI DUP1 DUP3 ADD MLOAD DUP2 DUP5 ADD MSTORE PUSH1 0x20 DUP2 ADD SWAP1 POP PUSH2 0xA44 JUMP JUMPDEST DUP4 DUP2 GT ISZERO PUSH2 0xA6E JUMPI PUSH1 0x0 DUP5 DUP5 ADD MSTORE JUMPDEST POP POP POP POP JUMP JUMPDEST PUSH1 0x0 PUSH1 0x1F NOT PUSH1 0x1F DUP4 ADD AND SWAP1 POP SWAP2 SWAP1 POP JUMP JUMPDEST PUSH1 0x0 PUSH2 0xA90 DUP3 PUSH2 0xA25 JUMP JUMPDEST PUSH2 0xA9A DUP2 DUP6 PUSH2 0xA30 JUMP JUMPDEST SWAP4 POP PUSH2 0xAAA DUP2 DUP6 PUSH1 0x20 DUP7 ADD PUSH2 0xA41 JUMP JUMPDEST PUSH2 0xAB3 DUP2 PUSH2 0xA74 JUMP JUMPDEST DUP5 ADD SWAP2 POP POP SWAP3 SWAP2 POP POP JUMP JUMPDEST PUSH1 0x0 PUSH1 0x60 DUP3 ADD SWAP1 POP DUP2 DUP2 SUB PUSH1 0x0 DUP4 ADD MSTORE PUSH2 0xAD8 DUP2 DUP7 PUSH2 0xA85 JUMP JUMPDEST SWAP1 POP PUSH2 0xAE7 PUSH1 0x20 DUP4 ADD DUP6 PUSH2 0x99D JUMP JUMPDEST PUSH2 0xAF4 PUSH1 0x40 DUP4 ADD DUP5 PUSH2 0x99D JUMP JUMPDEST SWAP5 SWAP4 POP POP POP POP JUMP JUMPDEST PUSH1 0x0 PUSH20 0xFFFFFFFFFFFFFFFFFFFFFFFFFFFFFFFFFFFFFFFF DUP3 AND SWAP1 POP SWAP2 SWAP1 POP JUMP JUMPDEST PUSH1 0x0 PUSH2 0xB27 DUP3 PUSH2 0xAFC JUMP JUMPDEST SWAP1 POP SWAP2 SWAP1 POP JUMP JUMPDEST PUSH2 0xB37 DUP2 PUSH2 0xB1C JUMP JUMPDEST DUP3 MSTORE POP POP JUMP JUMPDEST PUSH1 0x0 PUSH1 0x40 DUP3 ADD SWAP1 POP PUSH2 0xB52 PUSH1 0x0 DUP4 ADD DUP6 PUSH2 0xB2E JUMP JUMPDEST PUSH2 0xB5F PUSH1 0x20 DUP4 ADD DUP5 PUSH2 0x99D JUMP JUMPDEST SWAP4 SWAP3 POP POP POP JUMP JUMPDEST PUSH1 0x0 PUSH1 0x20 DUP3 ADD SWAP1 POP PUSH2 0xB7B PUSH1 0x0 DUP4 ADD DUP5 PUSH2 0xB2E JUMP JUMPDEST SWAP3 SWAP2 POP POP JUMP JUMPDEST PUSH32 0x4E487B7100000000000000000000000000000000000000000000000000000000 PUSH1 0x0 MSTORE PUSH1 0x22 PUSH1 0x4 MSTORE PUSH1 0x24 PUSH1 0x0 REVERT JUMPDEST PUSH1 0x0 PUSH1 0x2 DUP3 DIV SWAP1 POP PUSH1 0x1 DUP3 AND DUP1 PUSH2 0xBC8 JUMPI PUSH1 0x7F DUP3 AND SWAP2 POP JUMPDEST PUSH1 0x20 DUP3 LT DUP2 EQ ISZERO PUSH2 0xBDC JUMPI PUSH2 0xBDB PUSH2 0xB81 JUMP JUMPDEST JUMPDEST POP SWAP2 SWAP1 POP JUMP JUMPDEST PUSH32 0x4E6F7420417574686F72697A65642C2041646D696E204F6E6C79000000000000 PUSH1 0x0 DUP3 ADD MSTORE POP JUMP JUMPDEST PUSH1 0x0 PUSH2 0xC18 PUSH1 0x1A DUP4 PUSH2 0xA30 JUMP JUMPDEST SWAP2 POP PUSH2 0xC23 DUP3 PUSH2 0xBE2 JUMP JUMPDEST PUSH1 0x20 DUP3 ADD SWAP1 POP SWAP2 SWAP1 POP JUMP JUMPDEST PUSH1 0x0 PUSH1 0x20 DUP3 ADD SWAP1 POP DUP2 DUP2 SUB PUSH1 0x0 DUP4 ADD MSTORE PUSH2 0xC47 DUP2 PUSH2 0xC0B JUMP JUMPDEST SWAP1 POP SWAP2 SWAP1 POP JUMP JUMPDEST PUSH32 0x4E487B7100000000000000000000000000000000000000000000000000000000 PUSH1 0x0 MSTORE PUSH1 0x32 PUSH1 0x4 MSTORE PUSH1 0x24 PUSH1 0x0 REVERT JUMPDEST PUSH32 0x4E487B7100000000000000000000000000000000000000000000000000000000 PUSH1 0x0 MSTORE PUSH1 0x11 PUSH1 0x4 MSTORE PUSH1 0x24 PUSH1 0x0 REVERT JUMPDEST PUSH1 0x0 PUSH2 0xCB7 DUP3 PUSH2 0x993 JUMP JUMPDEST SWAP2 POP PUSH32 0xFFFFFFFFFFFFFFFFFFFFFFFFFFFFFFFFFFFFFFFFFFFFFFFFFFFFFFFFFFFFFFFF DUP3 EQ ISZERO PUSH2 0xCEA JUMPI PUSH2 0xCE9 PUSH2 0xC7D JUMP JUMPDEST JUMPDEST PUSH1 0x1 DUP3 ADD SWAP1 POP SWAP2 SWAP1 POP JUMP JUMPDEST PUSH32 0x4F7574206F66204C696D69740000000000000000000000000000000000000000 PUSH1 0x0 DUP3 ADD MSTORE POP JUMP JUMPDEST PUSH1 0x0 PUSH2 0xD2B PUSH1 0xC DUP4 PUSH2 0xA30 JUMP JUMPDEST SWAP2 POP PUSH2 0xD36 DUP3 PUSH2 0xCF5 JUMP JUMPDEST PUSH1 0x20 DUP3 ADD SWAP1 POP SWAP2 SWAP1 POP JUMP JUMPDEST PUSH1 0x0 PUSH1 0x20 DUP3 ADD SWAP1 POP DUP2 DUP2 SUB PUSH1 0x0 DUP4 ADD MSTORE PUSH2 0xD5A DUP2 PUSH2 0xD1E JUMP JUMPDEST SWAP1 POP SWAP2 SWAP1 POP JUMP JUMPDEST PUSH1 0x0 DUP2 PUSH1 0x60 SHL SWAP1 POP SWAP2 SWAP1 POP JUMP JUMPDEST PUSH1 0x0 PUSH2 0xD79 DUP3 PUSH2 0xD61 JUMP JUMPDEST SWAP1 POP SWAP2 SWAP1 POP JUMP JUMPDEST PUSH1 0x0 PUSH2 0xD8B DUP3 PUSH2 0xD6E JUMP JUMPDEST SWAP1 POP SWAP2 SWAP1 POP JUMP JUMPDEST PUSH2 0xDA3 PUSH2 0xD9E DUP3 PUSH2 0xB1C JUMP JUMPDEST PUSH2 0xD80 JUMP JUMPDEST DUP3 MSTORE POP POP JUMP JUMPDEST PUSH1 0x0 DUP2 SWAP1 POP SWAP2 SWAP1 POP JUMP JUMPDEST PUSH2 0xDC4 PUSH2 0xDBF DUP3 PUSH2 0x993 JUMP JUMPDEST PUSH2 0xDA9 JUMP JUMPDEST DUP3 MSTORE POP POP JUMP JUMPDEST PUSH1 0x0 PUSH2 0xDD6 DUP3 DUP7 PUSH2 0xD92 JUMP JUMPDEST PUSH1 0x14 DUP3 ADD SWAP2 POP PUSH2 0xDE6 DUP3 DUP6 PUSH2 0xDB3 JUMP JUMPDEST PUSH1 0x20 DUP3 ADD SWAP2 POP PUSH2 0xDF6 DUP3 DUP5 PUSH2 0xDB3 JUMP JUMPDEST PUSH1 0x20 DUP3 ADD SWAP2 POP DUP2 SWAP1 POP SWAP5 SWAP4 POP POP POP POP JUMP JUMPDEST PUSH32 0x4E487B7100000000000000000000000000000000000000000000000000000000 PUSH1 0x0 MSTORE PUSH1 0x12 PUSH1 0x4 MSTORE PUSH1 0x24 PUSH1 0x0 REVERT JUMPDEST PUSH1 0x0 PUSH2 0xE41 DUP3 PUSH2 0x993 JUMP JUMPDEST SWAP2 POP PUSH2 0xE4C DUP4 PUSH2 0x993 JUMP JUMPDEST SWAP3 POP DUP3 PUSH2 0xE5C JUMPI PUSH2 0xE5B PUSH2 0xE07 JUMP JUMPDEST JUMPDEST DUP3 DUP3 MOD SWAP1 POP SWAP3 SWAP2 POP POP JUMP INVALID LOG2 PUSH5 0x6970667358 0x22 SLT KECCAK256 0xE4 MULMOD SWAP1 PUSH11 0xBC256102E904AE8EEE9B00 SWAP6 LOG3 BALANCE DUP1 PUSH29 0x94A54B5377EC1A4B699B0A0C64736F6C63430008080033000000000000 "
				},
				"gasEstimates": {
					"creation": {
						"codeDepositCost": "748200",
						"executionCost": "infinite",
						"totalCost": "infinite"
					},
					"external": {
						"adminAddress()": "2580",
						"changeGatchaLimit(uint256)": "26887",
						"createGatcha()": "infinite",
						"limitGatcha()": "2430",
						"ownerAddress()": "2514",
						"rarityList(uint256)": "infinite",
						"registeredUsers(uint256)": "infinite"
					},
					"internal": {
						"generateRarityScore()": "infinite",
						"getRarityName(uint256)": "infinite"
					}
				},
				"methodIdentifiers": {
					"adminAddress()": "fc6f9468",
					"changeGatchaLimit(uint256)": "c15d3ead",
					"createGatcha()": "e917ec96",
					"limitGatcha()": "06cd309b",
					"ownerAddress()": "8f84aa09",
					"rarityList(uint256)": "6fd3d9e2",
					"registeredUsers(uint256)": "7259e0f8"
				}
			},
			"storageLayout": {
				"storage": [
					{
						"astId": 8,
						"contract": "contracts/TestInterview.sol:TestInterview",
						"label": "objINFT",
						"offset": 0,
						"slot": "0",
						"type": "t_contract(INFT)371"
					},
					{
						"astId": 11,
						"contract": "contracts/TestInterview.sol:TestInterview",
						"label": "ownerAddress",
						"offset": 0,
						"slot": "1",
						"type": "t_address"
					},
					{
						"astId": 13,
						"contract": "contracts/TestInterview.sol:TestInterview",
						"label": "adminAddress",
						"offset": 0,
						"slot": "2",
						"type": "t_address"
					},
					{
						"astId": 16,
						"contract": "contracts/TestInterview.sol:TestInterview",
						"label": "limitGatcha",
						"offset": 0,
						"slot": "3",
						"type": "t_uint256"
					},
					{
						"astId": 27,
						"contract": "contracts/TestInterview.sol:TestInterview",
						"label": "rarityList",
						"offset": 0,
						"slot": "4",
						"type": "t_array(t_struct(Rarity)23_storage)dyn_storage"
					},
					{
						"astId": 42,
						"contract": "contracts/TestInterview.sol:TestInterview",
						"label": "registeredUsers",
						"offset": 0,
						"slot": "5",
						"type": "t_array(t_struct(RegisteredUser)38_storage)dyn_storage"
					}
				],
				"types": {
					"t_address": {
						"encoding": "inplace",
						"label": "address",
						"numberOfBytes": "20"
					},
					"t_array(t_string_storage)dyn_storage": {
						"base": "t_string_storage",
						"encoding": "dynamic_array",
						"label": "string[]",
						"numberOfBytes": "32"
					},
					"t_array(t_struct(Rarity)23_storage)dyn_storage": {
						"base": "t_struct(Rarity)23_storage",
						"encoding": "dynamic_array",
						"label": "struct TestInterview.Rarity[]",
						"numberOfBytes": "32"
					},
					"t_array(t_struct(RegisteredUser)38_storage)dyn_storage": {
						"base": "t_struct(RegisteredUser)38_storage",
						"encoding": "dynamic_array",
						"label": "struct TestInterview.RegisteredUser[]",
						"numberOfBytes": "32"
					},
					"t_array(t_uint256)dyn_storage": {
						"base": "t_uint256",
						"encoding": "dynamic_array",
						"label": "uint256[]",
						"numberOfBytes": "32"
					},
					"t_contract(INFT)371": {
						"encoding": "inplace",
						"label": "contract INFT",
						"numberOfBytes": "20"
					},
					"t_string_storage": {
						"encoding": "bytes",
						"label": "string",
						"numberOfBytes": "32"
					},
					"t_struct(Rarity)23_storage": {
						"encoding": "inplace",
						"label": "struct TestInterview.Rarity",
						"members": [
							{
								"astId": 18,
								"contract": "contracts/TestInterview.sol:TestInterview",
								"label": "name",
								"offset": 0,
								"slot": "0",
								"type": "t_string_storage"
							},
							{
								"astId": 20,
								"contract": "contracts/TestInterview.sol:TestInterview",
								"label": "min",
								"offset": 0,
								"slot": "1",
								"type": "t_uint256"
							},
							{
								"astId": 22,
								"contract": "contracts/TestInterview.sol:TestInterview",
								"label": "max",
								"offset": 0,
								"slot": "2",
								"type": "t_uint256"
							}
						],
						"numberOfBytes": "96"
					},
					"t_struct(RegisteredUser)38_storage": {
						"encoding": "inplace",
						"label": "struct TestInterview.RegisteredUser",
						"members": [
							{
								"astId": 29,
								"contract": "contracts/TestInterview.sol:TestInterview",
								"label": "userAddress",
								"offset": 0,
								"slot": "0",
								"type": "t_address"
							},
							{
								"astId": 31,
								"contract": "contracts/TestInterview.sol:TestInterview",
								"label": "counterVisited",
								"offset": 0,
								"slot": "1",
								"type": "t_uint256"
							},
							{
								"astId": 34,
								"contract": "contracts/TestInterview.sol:TestInterview",
								"label": "rarityScore",
								"offset": 0,
								"slot": "2",
								"type": "t_array(t_uint256)dyn_storage"
							},
							{
								"astId": 37,
								"contract": "contracts/TestInterview.sol:TestInterview",
								"label": "rarityName",
								"offset": 0,
								"slot": "3",
								"type": "t_array(t_string_storage)dyn_storage"
							}
						],
						"numberOfBytes": "128"
					},
					"t_uint256": {
						"encoding": "inplace",
						"label": "uint256",
						"numberOfBytes": "32"
					}
				}
			},
			"userdoc": {
				"kind": "user",
				"methods": {},
				"version": 1
			}
		}
	}
}