{
	"contracts/TestInterview.sol": {
		"TestInterview": {
			"abi": [
				{
					"inputs": [
						{
							"internalType": "uint256",
							"name": "",
							"type": "uint256"
						}
					],
					"name": "rarityList",
					"outputs": [
						{
							"internalType": "string",
							"name": "",
							"type": "string"
						}
					],
					"stateMutability": "view",
					"type": "function"
				},
				{
					"inputs": [],
					"name": "rarityListFunc",
					"outputs": [
						{
							"internalType": "string",
							"name": "",
							"type": "string"
						}
					],
					"stateMutability": "view",
					"type": "function"
				},
				{
					"inputs": [
						{
							"internalType": "string",
							"name": "_nameRarity",
							"type": "string"
						}
					],
					"name": "rarityRateFunc",
					"outputs": [
						{
							"internalType": "uint256",
							"name": "",
							"type": "uint256"
						}
					],
					"stateMutability": "view",
					"type": "function"
				}
			],
			"devdoc": {
				"kind": "dev",
				"methods": {},
				"version": 1
			},
			"evm": {
				"assembly": "    /* \"contracts/TestInterview.sol\":208:630  contract TestInterview {... */\n  mstore(0x40, 0x80)\n    /* \"contracts/TestInterview.sol\":291:333  0x50C7a09925375438D2cEe94C5c59266c6fFAAf8C */\n  0x50c7a09925375438d2cee94c5c59266c6ffaaf8c\n    /* \"contracts/TestInterview.sol\":271:334  INFT ObjINFT = INFT(0x50C7a09925375438D2cEe94C5c59266c6fFAAf8C) */\n  0x01\n  exp(0x0100, 0x00)\n  dup2\n  sload\n  dup2\n  0xffffffffffffffffffffffffffffffffffffffff\n  mul\n  not\n  and\n  swap1\n  dup4\n  0xffffffffffffffffffffffffffffffffffffffff\n  and\n  mul\n  or\n  swap1\n  sstore\n  pop\n    /* \"contracts/TestInterview.sol\":208:630  contract TestInterview {... */\n  callvalue\n  dup1\n  iszero\n  tag_1\n  jumpi\n  0x00\n  dup1\n  revert\ntag_1:\n  pop\n  dataSize(sub_0)\n  dup1\n  dataOffset(sub_0)\n  0x00\n  codecopy\n  0x00\n  return\nstop\n\nsub_0: assembly {\n        /* \"contracts/TestInterview.sol\":208:630  contract TestInterview {... */\n      mstore(0x40, 0x80)\n      callvalue\n      dup1\n      iszero\n      tag_1\n      jumpi\n      0x00\n      dup1\n      revert\n    tag_1:\n      pop\n      jumpi(tag_2, lt(calldatasize, 0x04))\n      shr(0xe0, calldataload(0x00))\n      dup1\n      0x6fd3d9e2\n      eq\n      tag_3\n      jumpi\n      dup1\n      0xa7beb5d0\n      eq\n      tag_4\n      jumpi\n      dup1\n      0xbb4a376b\n      eq\n      tag_5\n      jumpi\n    tag_2:\n      0x00\n      dup1\n      revert\n        /* \"contracts/TestInterview.sol\":238:264  string[] public rarityList */\n    tag_3:\n      tag_6\n      0x04\n      dup1\n      calldatasize\n      sub\n      dup2\n      add\n      swap1\n      tag_7\n      swap2\n      swap1\n      tag_8\n      jump\t// in\n    tag_7:\n      tag_9\n      jump\t// in\n    tag_6:\n      mload(0x40)\n      tag_10\n      swap2\n      swap1\n      tag_11\n      jump\t// in\n    tag_10:\n      mload(0x40)\n      dup1\n      swap2\n      sub\n      swap1\n      return\n        /* \"contracts/TestInterview.sol\":528:627  function rarityRateFunc (string memory _nameRarity) public view returns(uint256) {... */\n    tag_4:\n      tag_12\n      0x04\n      dup1\n      calldatasize\n      sub\n      dup2\n      add\n      swap1\n      tag_13\n      swap2\n      swap1\n      tag_14\n      jump\t// in\n    tag_13:\n      tag_15\n      jump\t// in\n    tag_12:\n      mload(0x40)\n      tag_16\n      swap2\n      swap1\n      tag_17\n      jump\t// in\n    tag_16:\n      mload(0x40)\n      dup1\n      swap2\n      sub\n      swap1\n      return\n        /* \"contracts/TestInterview.sol\":343:520  function rarityListFunc () public view returns(string memory) {... */\n    tag_5:\n      tag_18\n      tag_19\n      jump\t// in\n    tag_18:\n      mload(0x40)\n      tag_20\n      swap2\n      swap1\n      tag_11\n      jump\t// in\n    tag_20:\n      mload(0x40)\n      dup1\n      swap2\n      sub\n      swap1\n      return\n        /* \"contracts/TestInterview.sol\":238:264  string[] public rarityList */\n    tag_9:\n      0x00\n      dup2\n      dup2\n      sload\n      dup2\n      lt\n      tag_21\n      jumpi\n      0x00\n      dup1\n      revert\n    tag_21:\n      swap1\n      0x00\n      mstore\n      keccak256(0x00, 0x20)\n      add\n      0x00\n      swap2\n      pop\n      swap1\n      pop\n      dup1\n      sload\n      tag_23\n      swap1\n      tag_24\n      jump\t// in\n    tag_23:\n      dup1\n      0x1f\n      add\n      0x20\n      dup1\n      swap2\n      div\n      mul\n      0x20\n      add\n      mload(0x40)\n      swap1\n      dup2\n      add\n      0x40\n      mstore\n      dup1\n      swap3\n      swap2\n      swap1\n      dup2\n      dup2\n      mstore\n      0x20\n      add\n      dup3\n      dup1\n      sload\n      tag_25\n      swap1\n      tag_24\n      jump\t// in\n    tag_25:\n      dup1\n      iszero\n      tag_26\n      jumpi\n      dup1\n      0x1f\n      lt\n      tag_27\n      jumpi\n      0x0100\n      dup1\n      dup4\n      sload\n      div\n      mul\n      dup4\n      mstore\n      swap2\n      0x20\n      add\n      swap2\n      jump(tag_26)\n    tag_27:\n      dup3\n      add\n      swap2\n      swap1\n      0x00\n      mstore\n      keccak256(0x00, 0x20)\n      swap1\n    tag_28:\n      dup2\n      sload\n      dup2\n      mstore\n      swap1\n      0x01\n      add\n      swap1\n      0x20\n      add\n      dup1\n      dup4\n      gt\n      tag_28\n      jumpi\n      dup3\n      swap1\n      sub\n      0x1f\n      and\n      dup3\n      add\n      swap2\n    tag_26:\n      pop\n      pop\n      pop\n      pop\n      pop\n      dup2\n      jump\t// out\n        /* \"contracts/TestInterview.sol\":528:627  function rarityRateFunc (string memory _nameRarity) public view returns(uint256) {... */\n    tag_15:\n        /* \"contracts/TestInterview.sol\":600:607  uint256 */\n      0x00\n        /* \"contracts/TestInterview.sol\":528:627  function rarityRateFunc (string memory _nameRarity) public view returns(uint256) {... */\n      swap2\n      swap1\n      pop\n      jump\t// out\n        /* \"contracts/TestInterview.sol\":343:520  function rarityListFunc () public view returns(string memory) {... */\n    tag_19:\n        /* \"contracts/TestInterview.sol\":390:403  string memory */\n      0x60\n        /* \"contracts/TestInterview.sol\":416:448  string[3] memory localRarityList */\n      0x00\n        /* \"contracts/TestInterview.sol\":451:458  ObjINFT */\n      0x01\n      0x00\n      swap1\n      sload\n      swap1\n      0x0100\n      exp\n      swap1\n      div\n      0xffffffffffffffffffffffffffffffffffffffff\n      and\n        /* \"contracts/TestInterview.sol\":451:472  ObjINFT.getRarityList */\n      0xffffffffffffffffffffffffffffffffffffffff\n      and\n      0x48441d5f\n        /* \"contracts/TestInterview.sol\":451:474  ObjINFT.getRarityList() */\n      mload(0x40)\n      dup2\n      0xffffffff\n      and\n      0xe0\n      shl\n      dup2\n      mstore\n      0x04\n      add\n      0x00\n      mload(0x40)\n      dup1\n      dup4\n      sub\n      dup2\n      dup7\n      dup1\n      extcodesize\n      iszero\n      dup1\n      iszero\n      tag_31\n      jumpi\n      0x00\n      dup1\n      revert\n    tag_31:\n      pop\n      gas\n      staticcall\n      iszero\n      dup1\n      iszero\n      tag_33\n      jumpi\n      returndatasize\n      0x00\n      dup1\n      returndatacopy\n      revert(0x00, returndatasize)\n    tag_33:\n      pop\n      pop\n      pop\n      pop\n      mload(0x40)\n      returndatasize\n      0x00\n      dup3\n      returndatacopy\n      returndatasize\n      not(0x1f)\n      0x1f\n      dup3\n      add\n      and\n      dup3\n      add\n      dup1\n      0x40\n      mstore\n      pop\n      dup2\n      add\n      swap1\n      tag_34\n      swap2\n      swap1\n      tag_35\n      jump\t// in\n    tag_34:\n        /* \"contracts/TestInterview.sol\":416:474  string[3] memory localRarityList = ObjINFT.getRarityList() */\n      swap1\n      pop\n        /* \"contracts/TestInterview.sol\":494:509  localRarityList */\n      dup1\n        /* \"contracts/TestInterview.sol\":510:511  1 */\n      0x01\n        /* \"contracts/TestInterview.sol\":494:512  localRarityList[1] */\n      0x03\n      dup2\n      lt\n      tag_36\n      jumpi\n      tag_37\n      tag_38\n      jump\t// in\n    tag_37:\n    tag_36:\n      0x20\n      mul\n      add\n      mload\n        /* \"contracts/TestInterview.sol\":487:512  return localRarityList[1] */\n      swap2\n      pop\n      pop\n        /* \"contracts/TestInterview.sol\":343:520  function rarityListFunc () public view returns(string memory) {... */\n      swap1\n      jump\t// out\n        /* \"#utility.yul\":7:82   */\n    tag_39:\n        /* \"#utility.yul\":40:46   */\n      0x00\n        /* \"#utility.yul\":73:75   */\n      0x40\n        /* \"#utility.yul\":67:76   */\n      mload\n        /* \"#utility.yul\":57:76   */\n      swap1\n      pop\n        /* \"#utility.yul\":7:82   */\n      swap1\n      jump\t// out\n        /* \"#utility.yul\":88:205   */\n    tag_40:\n        /* \"#utility.yul\":197:198   */\n      0x00\n        /* \"#utility.yul\":194:195   */\n      dup1\n        /* \"#utility.yul\":187:199   */\n      revert\n        /* \"#utility.yul\":211:328   */\n    tag_41:\n        /* \"#utility.yul\":320:321   */\n      0x00\n        /* \"#utility.yul\":317:318   */\n      dup1\n        /* \"#utility.yul\":310:322   */\n      revert\n        /* \"#utility.yul\":334:411   */\n    tag_42:\n        /* \"#utility.yul\":371:378   */\n      0x00\n        /* \"#utility.yul\":400:405   */\n      dup2\n        /* \"#utility.yul\":389:405   */\n      swap1\n      pop\n        /* \"#utility.yul\":334:411   */\n      swap2\n      swap1\n      pop\n      jump\t// out\n        /* \"#utility.yul\":417:539   */\n    tag_43:\n        /* \"#utility.yul\":490:514   */\n      tag_73\n        /* \"#utility.yul\":508:513   */\n      dup2\n        /* \"#utility.yul\":490:514   */\n      tag_42\n      jump\t// in\n    tag_73:\n        /* \"#utility.yul\":483:488   */\n      dup2\n        /* \"#utility.yul\":480:515   */\n      eq\n        /* \"#utility.yul\":470:533   */\n      tag_74\n      jumpi\n        /* \"#utility.yul\":529:530   */\n      0x00\n        /* \"#utility.yul\":526:527   */\n      dup1\n        /* \"#utility.yul\":519:531   */\n      revert\n        /* \"#utility.yul\":470:533   */\n    tag_74:\n        /* \"#utility.yul\":417:539   */\n      pop\n      jump\t// out\n        /* \"#utility.yul\":545:684   */\n    tag_44:\n        /* \"#utility.yul\":591:596   */\n      0x00\n        /* \"#utility.yul\":629:635   */\n      dup2\n        /* \"#utility.yul\":616:636   */\n      calldataload\n        /* \"#utility.yul\":607:636   */\n      swap1\n      pop\n        /* \"#utility.yul\":645:678   */\n      tag_76\n        /* \"#utility.yul\":672:677   */\n      dup2\n        /* \"#utility.yul\":645:678   */\n      tag_43\n      jump\t// in\n    tag_76:\n        /* \"#utility.yul\":545:684   */\n      swap3\n      swap2\n      pop\n      pop\n      jump\t// out\n        /* \"#utility.yul\":690:1019   */\n    tag_8:\n        /* \"#utility.yul\":749:755   */\n      0x00\n        /* \"#utility.yul\":798:800   */\n      0x20\n        /* \"#utility.yul\":786:795   */\n      dup3\n        /* \"#utility.yul\":777:784   */\n      dup5\n        /* \"#utility.yul\":773:796   */\n      sub\n        /* \"#utility.yul\":769:801   */\n      slt\n        /* \"#utility.yul\":766:885   */\n      iszero\n      tag_78\n      jumpi\n        /* \"#utility.yul\":804:883   */\n      tag_79\n      tag_40\n      jump\t// in\n    tag_79:\n        /* \"#utility.yul\":766:885   */\n    tag_78:\n        /* \"#utility.yul\":924:925   */\n      0x00\n        /* \"#utility.yul\":949:1002   */\n      tag_80\n        /* \"#utility.yul\":994:1001   */\n      dup5\n        /* \"#utility.yul\":985:991   */\n      dup3\n        /* \"#utility.yul\":974:983   */\n      dup6\n        /* \"#utility.yul\":970:992   */\n      add\n        /* \"#utility.yul\":949:1002   */\n      tag_44\n      jump\t// in\n    tag_80:\n        /* \"#utility.yul\":939:1002   */\n      swap2\n      pop\n        /* \"#utility.yul\":895:1012   */\n      pop\n        /* \"#utility.yul\":690:1019   */\n      swap3\n      swap2\n      pop\n      pop\n      jump\t// out\n        /* \"#utility.yul\":1025:1124   */\n    tag_45:\n        /* \"#utility.yul\":1077:1083   */\n      0x00\n        /* \"#utility.yul\":1111:1116   */\n      dup2\n        /* \"#utility.yul\":1105:1117   */\n      mload\n        /* \"#utility.yul\":1095:1117   */\n      swap1\n      pop\n        /* \"#utility.yul\":1025:1124   */\n      swap2\n      swap1\n      pop\n      jump\t// out\n        /* \"#utility.yul\":1130:1299   */\n    tag_46:\n        /* \"#utility.yul\":1214:1225   */\n      0x00\n        /* \"#utility.yul\":1248:1254   */\n      dup3\n        /* \"#utility.yul\":1243:1246   */\n      dup3\n        /* \"#utility.yul\":1236:1255   */\n      mstore\n        /* \"#utility.yul\":1288:1292   */\n      0x20\n        /* \"#utility.yul\":1283:1286   */\n      dup3\n        /* \"#utility.yul\":1279:1293   */\n      add\n        /* \"#utility.yul\":1264:1293   */\n      swap1\n      pop\n        /* \"#utility.yul\":1130:1299   */\n      swap3\n      swap2\n      pop\n      pop\n      jump\t// out\n        /* \"#utility.yul\":1305:1612   */\n    tag_47:\n        /* \"#utility.yul\":1373:1374   */\n      0x00\n        /* \"#utility.yul\":1383:1496   */\n    tag_84:\n        /* \"#utility.yul\":1397:1403   */\n      dup4\n        /* \"#utility.yul\":1394:1395   */\n      dup2\n        /* \"#utility.yul\":1391:1404   */\n      lt\n        /* \"#utility.yul\":1383:1496   */\n      iszero\n      tag_86\n      jumpi\n        /* \"#utility.yul\":1482:1483   */\n      dup1\n        /* \"#utility.yul\":1477:1480   */\n      dup3\n        /* \"#utility.yul\":1473:1484   */\n      add\n        /* \"#utility.yul\":1467:1485   */\n      mload\n        /* \"#utility.yul\":1463:1464   */\n      dup2\n        /* \"#utility.yul\":1458:1461   */\n      dup5\n        /* \"#utility.yul\":1454:1465   */\n      add\n        /* \"#utility.yul\":1447:1486   */\n      mstore\n        /* \"#utility.yul\":1419:1421   */\n      0x20\n        /* \"#utility.yul\":1416:1417   */\n      dup2\n        /* \"#utility.yul\":1412:1422   */\n      add\n        /* \"#utility.yul\":1407:1422   */\n      swap1\n      pop\n        /* \"#utility.yul\":1383:1496   */\n      jump(tag_84)\n    tag_86:\n        /* \"#utility.yul\":1514:1520   */\n      dup4\n        /* \"#utility.yul\":1511:1512   */\n      dup2\n        /* \"#utility.yul\":1508:1521   */\n      gt\n        /* \"#utility.yul\":1505:1606   */\n      iszero\n      tag_87\n      jumpi\n        /* \"#utility.yul\":1594:1595   */\n      0x00\n        /* \"#utility.yul\":1585:1591   */\n      dup5\n        /* \"#utility.yul\":1580:1583   */\n      dup5\n        /* \"#utility.yul\":1576:1592   */\n      add\n        /* \"#utility.yul\":1569:1596   */\n      mstore\n        /* \"#utility.yul\":1505:1606   */\n    tag_87:\n        /* \"#utility.yul\":1354:1612   */\n      pop\n        /* \"#utility.yul\":1305:1612   */\n      pop\n      pop\n      pop\n      jump\t// out\n        /* \"#utility.yul\":1618:1720   */\n    tag_48:\n        /* \"#utility.yul\":1659:1665   */\n      0x00\n        /* \"#utility.yul\":1710:1712   */\n      0x1f\n        /* \"#utility.yul\":1706:1713   */\n      not\n        /* \"#utility.yul\":1701:1703   */\n      0x1f\n        /* \"#utility.yul\":1694:1699   */\n      dup4\n        /* \"#utility.yul\":1690:1704   */\n      add\n        /* \"#utility.yul\":1686:1714   */\n      and\n        /* \"#utility.yul\":1676:1714   */\n      swap1\n      pop\n        /* \"#utility.yul\":1618:1720   */\n      swap2\n      swap1\n      pop\n      jump\t// out\n        /* \"#utility.yul\":1726:2090   */\n    tag_49:\n        /* \"#utility.yul\":1814:1817   */\n      0x00\n        /* \"#utility.yul\":1842:1881   */\n      tag_90\n        /* \"#utility.yul\":1875:1880   */\n      dup3\n        /* \"#utility.yul\":1842:1881   */\n      tag_45\n      jump\t// in\n    tag_90:\n        /* \"#utility.yul\":1897:1968   */\n      tag_91\n        /* \"#utility.yul\":1961:1967   */\n      dup2\n        /* \"#utility.yul\":1956:1959   */\n      dup6\n        /* \"#utility.yul\":1897:1968   */\n      tag_46\n      jump\t// in\n    tag_91:\n        /* \"#utility.yul\":1890:1968   */\n      swap4\n      pop\n        /* \"#utility.yul\":1977:2029   */\n      tag_92\n        /* \"#utility.yul\":2022:2028   */\n      dup2\n        /* \"#utility.yul\":2017:2020   */\n      dup6\n        /* \"#utility.yul\":2010:2014   */\n      0x20\n        /* \"#utility.yul\":2003:2008   */\n      dup7\n        /* \"#utility.yul\":1999:2015   */\n      add\n        /* \"#utility.yul\":1977:2029   */\n      tag_47\n      jump\t// in\n    tag_92:\n        /* \"#utility.yul\":2054:2083   */\n      tag_93\n        /* \"#utility.yul\":2076:2082   */\n      dup2\n        /* \"#utility.yul\":2054:2083   */\n      tag_48\n      jump\t// in\n    tag_93:\n        /* \"#utility.yul\":2049:2052   */\n      dup5\n        /* \"#utility.yul\":2045:2084   */\n      add\n        /* \"#utility.yul\":2038:2084   */\n      swap2\n      pop\n        /* \"#utility.yul\":1818:2090   */\n      pop\n        /* \"#utility.yul\":1726:2090   */\n      swap3\n      swap2\n      pop\n      pop\n      jump\t// out\n        /* \"#utility.yul\":2096:2409   */\n    tag_11:\n        /* \"#utility.yul\":2209:2213   */\n      0x00\n        /* \"#utility.yul\":2247:2249   */\n      0x20\n        /* \"#utility.yul\":2236:2245   */\n      dup3\n        /* \"#utility.yul\":2232:2250   */\n      add\n        /* \"#utility.yul\":2224:2250   */\n      swap1\n      pop\n        /* \"#utility.yul\":2296:2305   */\n      dup2\n        /* \"#utility.yul\":2290:2294   */\n      dup2\n        /* \"#utility.yul\":2286:2306   */\n      sub\n        /* \"#utility.yul\":2282:2283   */\n      0x00\n        /* \"#utility.yul\":2271:2280   */\n      dup4\n        /* \"#utility.yul\":2267:2284   */\n      add\n        /* \"#utility.yul\":2260:2307   */\n      mstore\n        /* \"#utility.yul\":2324:2402   */\n      tag_95\n        /* \"#utility.yul\":2397:2401   */\n      dup2\n        /* \"#utility.yul\":2388:2394   */\n      dup5\n        /* \"#utility.yul\":2324:2402   */\n      tag_49\n      jump\t// in\n    tag_95:\n        /* \"#utility.yul\":2316:2402   */\n      swap1\n      pop\n        /* \"#utility.yul\":2096:2409   */\n      swap3\n      swap2\n      pop\n      pop\n      jump\t// out\n        /* \"#utility.yul\":2415:2532   */\n    tag_50:\n        /* \"#utility.yul\":2524:2525   */\n      0x00\n        /* \"#utility.yul\":2521:2522   */\n      dup1\n        /* \"#utility.yul\":2514:2526   */\n      revert\n        /* \"#utility.yul\":2538:2655   */\n    tag_51:\n        /* \"#utility.yul\":2647:2648   */\n      0x00\n        /* \"#utility.yul\":2644:2645   */\n      dup1\n        /* \"#utility.yul\":2637:2649   */\n      revert\n        /* \"#utility.yul\":2661:2841   */\n    tag_52:\n        /* \"#utility.yul\":2709:2786   */\n      0x4e487b7100000000000000000000000000000000000000000000000000000000\n        /* \"#utility.yul\":2706:2707   */\n      0x00\n        /* \"#utility.yul\":2699:2787   */\n      mstore\n        /* \"#utility.yul\":2806:2810   */\n      0x41\n        /* \"#utility.yul\":2803:2804   */\n      0x04\n        /* \"#utility.yul\":2796:2811   */\n      mstore\n        /* \"#utility.yul\":2830:2834   */\n      0x24\n        /* \"#utility.yul\":2827:2828   */\n      0x00\n        /* \"#utility.yul\":2820:2835   */\n      revert\n        /* \"#utility.yul\":2847:3128   */\n    tag_53:\n        /* \"#utility.yul\":2930:2957   */\n      tag_100\n        /* \"#utility.yul\":2952:2956   */\n      dup3\n        /* \"#utility.yul\":2930:2957   */\n      tag_48\n      jump\t// in\n    tag_100:\n        /* \"#utility.yul\":2922:2928   */\n      dup2\n        /* \"#utility.yul\":2918:2958   */\n      add\n        /* \"#utility.yul\":3060:3066   */\n      dup2\n        /* \"#utility.yul\":3048:3058   */\n      dup2\n        /* \"#utility.yul\":3045:3067   */\n      lt\n        /* \"#utility.yul\":3024:3042   */\n      0xffffffffffffffff\n        /* \"#utility.yul\":3012:3022   */\n      dup3\n        /* \"#utility.yul\":3009:3043   */\n      gt\n        /* \"#utility.yul\":3006:3068   */\n      or\n        /* \"#utility.yul\":3003:3091   */\n      iszero\n      tag_101\n      jumpi\n        /* \"#utility.yul\":3071:3089   */\n      tag_102\n      tag_52\n      jump\t// in\n    tag_102:\n        /* \"#utility.yul\":3003:3091   */\n    tag_101:\n        /* \"#utility.yul\":3111:3121   */\n      dup1\n        /* \"#utility.yul\":3107:3109   */\n      0x40\n        /* \"#utility.yul\":3100:3122   */\n      mstore\n        /* \"#utility.yul\":2890:3128   */\n      pop\n        /* \"#utility.yul\":2847:3128   */\n      pop\n      pop\n      jump\t// out\n        /* \"#utility.yul\":3134:3263   */\n    tag_54:\n        /* \"#utility.yul\":3168:3174   */\n      0x00\n        /* \"#utility.yul\":3195:3215   */\n      tag_104\n      tag_39\n      jump\t// in\n    tag_104:\n        /* \"#utility.yul\":3185:3215   */\n      swap1\n      pop\n        /* \"#utility.yul\":3224:3257   */\n      tag_105\n        /* \"#utility.yul\":3252:3256   */\n      dup3\n        /* \"#utility.yul\":3244:3250   */\n      dup3\n        /* \"#utility.yul\":3224:3257   */\n      tag_53\n      jump\t// in\n    tag_105:\n        /* \"#utility.yul\":3134:3263   */\n      swap2\n      swap1\n      pop\n      jump\t// out\n        /* \"#utility.yul\":3269:3577   */\n    tag_55:\n        /* \"#utility.yul\":3331:3335   */\n      0x00\n        /* \"#utility.yul\":3421:3439   */\n      0xffffffffffffffff\n        /* \"#utility.yul\":3413:3419   */\n      dup3\n        /* \"#utility.yul\":3410:3440   */\n      gt\n        /* \"#utility.yul\":3407:3463   */\n      iszero\n      tag_107\n      jumpi\n        /* \"#utility.yul\":3443:3461   */\n      tag_108\n      tag_52\n      jump\t// in\n    tag_108:\n        /* \"#utility.yul\":3407:3463   */\n    tag_107:\n        /* \"#utility.yul\":3481:3510   */\n      tag_109\n        /* \"#utility.yul\":3503:3509   */\n      dup3\n        /* \"#utility.yul\":3481:3510   */\n      tag_48\n      jump\t// in\n    tag_109:\n        /* \"#utility.yul\":3473:3510   */\n      swap1\n      pop\n        /* \"#utility.yul\":3565:3569   */\n      0x20\n        /* \"#utility.yul\":3559:3563   */\n      dup2\n        /* \"#utility.yul\":3555:3570   */\n      add\n        /* \"#utility.yul\":3547:3570   */\n      swap1\n      pop\n        /* \"#utility.yul\":3269:3577   */\n      swap2\n      swap1\n      pop\n      jump\t// out\n        /* \"#utility.yul\":3583:3737   */\n    tag_56:\n        /* \"#utility.yul\":3667:3673   */\n      dup3\n        /* \"#utility.yul\":3662:3665   */\n      dup2\n        /* \"#utility.yul\":3657:3660   */\n      dup4\n        /* \"#utility.yul\":3644:3674   */\n      calldatacopy\n        /* \"#utility.yul\":3729:3730   */\n      0x00\n        /* \"#utility.yul\":3720:3726   */\n      dup4\n        /* \"#utility.yul\":3715:3718   */\n      dup4\n        /* \"#utility.yul\":3711:3727   */\n      add\n        /* \"#utility.yul\":3704:3731   */\n      mstore\n        /* \"#utility.yul\":3583:3737   */\n      pop\n      pop\n      pop\n      jump\t// out\n        /* \"#utility.yul\":3743:4155   */\n    tag_57:\n        /* \"#utility.yul\":3821:3826   */\n      0x00\n        /* \"#utility.yul\":3846:3912   */\n      tag_112\n        /* \"#utility.yul\":3862:3911   */\n      tag_113\n        /* \"#utility.yul\":3904:3910   */\n      dup5\n        /* \"#utility.yul\":3862:3911   */\n      tag_55\n      jump\t// in\n    tag_113:\n        /* \"#utility.yul\":3846:3912   */\n      tag_54\n      jump\t// in\n    tag_112:\n        /* \"#utility.yul\":3837:3912   */\n      swap1\n      pop\n        /* \"#utility.yul\":3935:3941   */\n      dup3\n        /* \"#utility.yul\":3928:3933   */\n      dup2\n        /* \"#utility.yul\":3921:3942   */\n      mstore\n        /* \"#utility.yul\":3973:3977   */\n      0x20\n        /* \"#utility.yul\":3966:3971   */\n      dup2\n        /* \"#utility.yul\":3962:3978   */\n      add\n        /* \"#utility.yul\":4011:4014   */\n      dup5\n        /* \"#utility.yul\":4002:4008   */\n      dup5\n        /* \"#utility.yul\":3997:4000   */\n      dup5\n        /* \"#utility.yul\":3993:4009   */\n      add\n        /* \"#utility.yul\":3990:4015   */\n      gt\n        /* \"#utility.yul\":3987:4099   */\n      iszero\n      tag_114\n      jumpi\n        /* \"#utility.yul\":4018:4097   */\n      tag_115\n      tag_51\n      jump\t// in\n    tag_115:\n        /* \"#utility.yul\":3987:4099   */\n    tag_114:\n        /* \"#utility.yul\":4108:4149   */\n      tag_116\n        /* \"#utility.yul\":4142:4148   */\n      dup5\n        /* \"#utility.yul\":4137:4140   */\n      dup3\n        /* \"#utility.yul\":4132:4135   */\n      dup6\n        /* \"#utility.yul\":4108:4149   */\n      tag_56\n      jump\t// in\n    tag_116:\n        /* \"#utility.yul\":3827:4155   */\n      pop\n        /* \"#utility.yul\":3743:4155   */\n      swap4\n      swap3\n      pop\n      pop\n      pop\n      jump\t// out\n        /* \"#utility.yul\":4175:4515   */\n    tag_58:\n        /* \"#utility.yul\":4231:4236   */\n      0x00\n        /* \"#utility.yul\":4280:4283   */\n      dup3\n        /* \"#utility.yul\":4273:4277   */\n      0x1f\n        /* \"#utility.yul\":4265:4271   */\n      dup4\n        /* \"#utility.yul\":4261:4278   */\n      add\n        /* \"#utility.yul\":4257:4284   */\n      slt\n        /* \"#utility.yul\":4247:4369   */\n      tag_118\n      jumpi\n        /* \"#utility.yul\":4288:4367   */\n      tag_119\n      tag_50\n      jump\t// in\n    tag_119:\n        /* \"#utility.yul\":4247:4369   */\n    tag_118:\n        /* \"#utility.yul\":4405:4411   */\n      dup2\n        /* \"#utility.yul\":4392:4412   */\n      calldataload\n        /* \"#utility.yul\":4430:4509   */\n      tag_120\n        /* \"#utility.yul\":4505:4508   */\n      dup5\n        /* \"#utility.yul\":4497:4503   */\n      dup3\n        /* \"#utility.yul\":4490:4494   */\n      0x20\n        /* \"#utility.yul\":4482:4488   */\n      dup7\n        /* \"#utility.yul\":4478:4495   */\n      add\n        /* \"#utility.yul\":4430:4509   */\n      tag_57\n      jump\t// in\n    tag_120:\n        /* \"#utility.yul\":4421:4509   */\n      swap2\n      pop\n        /* \"#utility.yul\":4237:4515   */\n      pop\n        /* \"#utility.yul\":4175:4515   */\n      swap3\n      swap2\n      pop\n      pop\n      jump\t// out\n        /* \"#utility.yul\":4521:5030   */\n    tag_14:\n        /* \"#utility.yul\":4590:4596   */\n      0x00\n        /* \"#utility.yul\":4639:4641   */\n      0x20\n        /* \"#utility.yul\":4627:4636   */\n      dup3\n        /* \"#utility.yul\":4618:4625   */\n      dup5\n        /* \"#utility.yul\":4614:4637   */\n      sub\n        /* \"#utility.yul\":4610:4642   */\n      slt\n        /* \"#utility.yul\":4607:4726   */\n      iszero\n      tag_122\n      jumpi\n        /* \"#utility.yul\":4645:4724   */\n      tag_123\n      tag_40\n      jump\t// in\n    tag_123:\n        /* \"#utility.yul\":4607:4726   */\n    tag_122:\n        /* \"#utility.yul\":4793:4794   */\n      0x00\n        /* \"#utility.yul\":4782:4791   */\n      dup3\n        /* \"#utility.yul\":4778:4795   */\n      add\n        /* \"#utility.yul\":4765:4796   */\n      calldataload\n        /* \"#utility.yul\":4823:4841   */\n      0xffffffffffffffff\n        /* \"#utility.yul\":4815:4821   */\n      dup2\n        /* \"#utility.yul\":4812:4842   */\n      gt\n        /* \"#utility.yul\":4809:4926   */\n      iszero\n      tag_124\n      jumpi\n        /* \"#utility.yul\":4845:4924   */\n      tag_125\n      tag_41\n      jump\t// in\n    tag_125:\n        /* \"#utility.yul\":4809:4926   */\n    tag_124:\n        /* \"#utility.yul\":4950:5013   */\n      tag_126\n        /* \"#utility.yul\":5005:5012   */\n      dup5\n        /* \"#utility.yul\":4996:5002   */\n      dup3\n        /* \"#utility.yul\":4985:4994   */\n      dup6\n        /* \"#utility.yul\":4981:5003   */\n      add\n        /* \"#utility.yul\":4950:5013   */\n      tag_58\n      jump\t// in\n    tag_126:\n        /* \"#utility.yul\":4940:5013   */\n      swap2\n      pop\n        /* \"#utility.yul\":4736:5023   */\n      pop\n        /* \"#utility.yul\":4521:5030   */\n      swap3\n      swap2\n      pop\n      pop\n      jump\t// out\n        /* \"#utility.yul\":5036:5154   */\n    tag_59:\n        /* \"#utility.yul\":5123:5147   */\n      tag_128\n        /* \"#utility.yul\":5141:5146   */\n      dup2\n        /* \"#utility.yul\":5123:5147   */\n      tag_42\n      jump\t// in\n    tag_128:\n        /* \"#utility.yul\":5118:5121   */\n      dup3\n        /* \"#utility.yul\":5111:5148   */\n      mstore\n        /* \"#utility.yul\":5036:5154   */\n      pop\n      pop\n      jump\t// out\n        /* \"#utility.yul\":5160:5382   */\n    tag_17:\n        /* \"#utility.yul\":5253:5257   */\n      0x00\n        /* \"#utility.yul\":5291:5293   */\n      0x20\n        /* \"#utility.yul\":5280:5289   */\n      dup3\n        /* \"#utility.yul\":5276:5294   */\n      add\n        /* \"#utility.yul\":5268:5294   */\n      swap1\n      pop\n        /* \"#utility.yul\":5304:5375   */\n      tag_130\n        /* \"#utility.yul\":5372:5373   */\n      0x00\n        /* \"#utility.yul\":5361:5370   */\n      dup4\n        /* \"#utility.yul\":5357:5374   */\n      add\n        /* \"#utility.yul\":5348:5354   */\n      dup5\n        /* \"#utility.yul\":5304:5375   */\n      tag_59\n      jump\t// in\n    tag_130:\n        /* \"#utility.yul\":5160:5382   */\n      swap3\n      swap2\n      pop\n      pop\n      jump\t// out\n        /* \"#utility.yul\":5388:5568   */\n    tag_60:\n        /* \"#utility.yul\":5436:5513   */\n      0x4e487b7100000000000000000000000000000000000000000000000000000000\n        /* \"#utility.yul\":5433:5434   */\n      0x00\n        /* \"#utility.yul\":5426:5514   */\n      mstore\n        /* \"#utility.yul\":5533:5537   */\n      0x22\n        /* \"#utility.yul\":5530:5531   */\n      0x04\n        /* \"#utility.yul\":5523:5538   */\n      mstore\n        /* \"#utility.yul\":5557:5561   */\n      0x24\n        /* \"#utility.yul\":5554:5555   */\n      0x00\n        /* \"#utility.yul\":5547:5562   */\n      revert\n        /* \"#utility.yul\":5574:5894   */\n    tag_24:\n        /* \"#utility.yul\":5618:5624   */\n      0x00\n        /* \"#utility.yul\":5655:5656   */\n      0x02\n        /* \"#utility.yul\":5649:5653   */\n      dup3\n        /* \"#utility.yul\":5645:5657   */\n      div\n        /* \"#utility.yul\":5635:5657   */\n      swap1\n      pop\n        /* \"#utility.yul\":5702:5703   */\n      0x01\n        /* \"#utility.yul\":5696:5700   */\n      dup3\n        /* \"#utility.yul\":5692:5704   */\n      and\n        /* \"#utility.yul\":5723:5741   */\n      dup1\n        /* \"#utility.yul\":5713:5794   */\n      tag_133\n      jumpi\n        /* \"#utility.yul\":5779:5783   */\n      0x7f\n        /* \"#utility.yul\":5771:5777   */\n      dup3\n        /* \"#utility.yul\":5767:5784   */\n      and\n        /* \"#utility.yul\":5757:5784   */\n      swap2\n      pop\n        /* \"#utility.yul\":5713:5794   */\n    tag_133:\n        /* \"#utility.yul\":5841:5843   */\n      0x20\n        /* \"#utility.yul\":5833:5839   */\n      dup3\n        /* \"#utility.yul\":5830:5844   */\n      lt\n        /* \"#utility.yul\":5810:5828   */\n      dup2\n        /* \"#utility.yul\":5807:5845   */\n      eq\n        /* \"#utility.yul\":5804:5888   */\n      iszero\n      tag_134\n      jumpi\n        /* \"#utility.yul\":5860:5878   */\n      tag_135\n      tag_60\n      jump\t// in\n    tag_135:\n        /* \"#utility.yul\":5804:5888   */\n    tag_134:\n        /* \"#utility.yul\":5625:5894   */\n      pop\n        /* \"#utility.yul\":5574:5894   */\n      swap2\n      swap1\n      pop\n      jump\t// out\n        /* \"#utility.yul\":5900:6159   */\n    tag_61:\n        /* \"#utility.yul\":5985:5989   */\n      0x00\n        /* \"#utility.yul\":6075:6093   */\n      0xffffffffffffffff\n        /* \"#utility.yul\":6067:6073   */\n      dup3\n        /* \"#utility.yul\":6064:6094   */\n      gt\n        /* \"#utility.yul\":6061:6117   */\n      iszero\n      tag_137\n      jumpi\n        /* \"#utility.yul\":6097:6115   */\n      tag_138\n      tag_52\n      jump\t// in\n    tag_138:\n        /* \"#utility.yul\":6061:6117   */\n    tag_137:\n        /* \"#utility.yul\":6147:6151   */\n      0x20\n        /* \"#utility.yul\":6139:6145   */\n      dup3\n        /* \"#utility.yul\":6135:6152   */\n      mul\n        /* \"#utility.yul\":6127:6152   */\n      swap1\n      pop\n        /* \"#utility.yul\":5900:6159   */\n      swap2\n      swap1\n      pop\n      jump\t// out\n        /* \"#utility.yul\":6165:6282   */\n    tag_62:\n        /* \"#utility.yul\":6274:6275   */\n      0x00\n        /* \"#utility.yul\":6271:6272   */\n      dup1\n        /* \"#utility.yul\":6264:6276   */\n      revert\n        /* \"#utility.yul\":6288:6709   */\n    tag_63:\n        /* \"#utility.yul\":6377:6382   */\n      0x00\n        /* \"#utility.yul\":6402:6468   */\n      tag_141\n        /* \"#utility.yul\":6418:6467   */\n      tag_142\n        /* \"#utility.yul\":6460:6466   */\n      dup5\n        /* \"#utility.yul\":6418:6467   */\n      tag_55\n      jump\t// in\n    tag_142:\n        /* \"#utility.yul\":6402:6468   */\n      tag_54\n      jump\t// in\n    tag_141:\n        /* \"#utility.yul\":6393:6468   */\n      swap1\n      pop\n        /* \"#utility.yul\":6491:6497   */\n      dup3\n        /* \"#utility.yul\":6484:6489   */\n      dup2\n        /* \"#utility.yul\":6477:6498   */\n      mstore\n        /* \"#utility.yul\":6529:6533   */\n      0x20\n        /* \"#utility.yul\":6522:6527   */\n      dup2\n        /* \"#utility.yul\":6518:6534   */\n      add\n        /* \"#utility.yul\":6567:6570   */\n      dup5\n        /* \"#utility.yul\":6558:6564   */\n      dup5\n        /* \"#utility.yul\":6553:6556   */\n      dup5\n        /* \"#utility.yul\":6549:6565   */\n      add\n        /* \"#utility.yul\":6546:6571   */\n      gt\n        /* \"#utility.yul\":6543:6655   */\n      iszero\n      tag_143\n      jumpi\n        /* \"#utility.yul\":6574:6653   */\n      tag_144\n      tag_51\n      jump\t// in\n    tag_144:\n        /* \"#utility.yul\":6543:6655   */\n    tag_143:\n        /* \"#utility.yul\":6664:6703   */\n      tag_145\n        /* \"#utility.yul\":6696:6702   */\n      dup5\n        /* \"#utility.yul\":6691:6694   */\n      dup3\n        /* \"#utility.yul\":6686:6689   */\n      dup6\n        /* \"#utility.yul\":6664:6703   */\n      tag_47\n      jump\t// in\n    tag_145:\n        /* \"#utility.yul\":6383:6709   */\n      pop\n        /* \"#utility.yul\":6288:6709   */\n      swap4\n      swap3\n      pop\n      pop\n      pop\n      jump\t// out\n        /* \"#utility.yul\":6729:7084   */\n    tag_64:\n        /* \"#utility.yul\":6796:6801   */\n      0x00\n        /* \"#utility.yul\":6845:6848   */\n      dup3\n        /* \"#utility.yul\":6838:6842   */\n      0x1f\n        /* \"#utility.yul\":6830:6836   */\n      dup4\n        /* \"#utility.yul\":6826:6843   */\n      add\n        /* \"#utility.yul\":6822:6849   */\n      slt\n        /* \"#utility.yul\":6812:6934   */\n      tag_147\n      jumpi\n        /* \"#utility.yul\":6853:6932   */\n      tag_148\n      tag_50\n      jump\t// in\n    tag_148:\n        /* \"#utility.yul\":6812:6934   */\n    tag_147:\n        /* \"#utility.yul\":6963:6969   */\n      dup2\n        /* \"#utility.yul\":6957:6970   */\n      mload\n        /* \"#utility.yul\":6988:7078   */\n      tag_149\n        /* \"#utility.yul\":7074:7077   */\n      dup5\n        /* \"#utility.yul\":7066:7072   */\n      dup3\n        /* \"#utility.yul\":7059:7063   */\n      0x20\n        /* \"#utility.yul\":7051:7057   */\n      dup7\n        /* \"#utility.yul\":7047:7064   */\n      add\n        /* \"#utility.yul\":6988:7078   */\n      tag_63\n      jump\t// in\n    tag_149:\n        /* \"#utility.yul\":6979:7078   */\n      swap2\n      pop\n        /* \"#utility.yul\":6802:7084   */\n      pop\n        /* \"#utility.yul\":6729:7084   */\n      swap3\n      swap2\n      pop\n      pop\n      jump\t// out\n        /* \"#utility.yul\":7107:8000   */\n    tag_65:\n        /* \"#utility.yul\":7222:7227   */\n      0x00\n        /* \"#utility.yul\":7247:7336   */\n      tag_151\n        /* \"#utility.yul\":7263:7335   */\n      tag_152\n        /* \"#utility.yul\":7328:7334   */\n      dup5\n        /* \"#utility.yul\":7263:7335   */\n      tag_61\n      jump\t// in\n    tag_152:\n        /* \"#utility.yul\":7247:7336   */\n      tag_54\n      jump\t// in\n    tag_151:\n        /* \"#utility.yul\":7238:7336   */\n      swap1\n      pop\n        /* \"#utility.yul\":7356:7361   */\n      dup1\n        /* \"#utility.yul\":7409:7413   */\n      0x20\n        /* \"#utility.yul\":7401:7407   */\n      dup5\n        /* \"#utility.yul\":7397:7414   */\n      mul\n        /* \"#utility.yul\":7389:7395   */\n      dup4\n        /* \"#utility.yul\":7385:7415   */\n      add\n        /* \"#utility.yul\":7438:7441   */\n      dup6\n        /* \"#utility.yul\":7430:7436   */\n      dup2\n        /* \"#utility.yul\":7427:7442   */\n      gt\n        /* \"#utility.yul\":7424:7546   */\n      iszero\n      tag_153\n      jumpi\n        /* \"#utility.yul\":7457:7536   */\n      tag_154\n      tag_62\n      jump\t// in\n    tag_154:\n        /* \"#utility.yul\":7424:7546   */\n    tag_153:\n        /* \"#utility.yul\":7572:7578   */\n      dup4\n        /* \"#utility.yul\":7555:7994   */\n    tag_155:\n        /* \"#utility.yul\":7589:7595   */\n      dup2\n        /* \"#utility.yul\":7584:7587   */\n      dup2\n        /* \"#utility.yul\":7581:7596   */\n      lt\n        /* \"#utility.yul\":7555:7994   */\n      iszero\n      tag_157\n      jumpi\n        /* \"#utility.yul\":7671:7674   */\n      dup1\n        /* \"#utility.yul\":7665:7675   */\n      mload\n        /* \"#utility.yul\":7707:7725   */\n      0xffffffffffffffff\n        /* \"#utility.yul\":7694:7705   */\n      dup2\n        /* \"#utility.yul\":7691:7726   */\n      gt\n        /* \"#utility.yul\":7688:7810   */\n      iszero\n      tag_158\n      jumpi\n        /* \"#utility.yul\":7729:7808   */\n      tag_159\n      tag_50\n      jump\t// in\n    tag_159:\n        /* \"#utility.yul\":7688:7810   */\n    tag_158:\n        /* \"#utility.yul\":7853:7864   */\n      dup1\n        /* \"#utility.yul\":7845:7851   */\n      dup7\n        /* \"#utility.yul\":7841:7865   */\n      add\n        /* \"#utility.yul\":7891:7949   */\n      tag_160\n        /* \"#utility.yul\":7945:7948   */\n      dup10\n        /* \"#utility.yul\":7933:7943   */\n      dup3\n        /* \"#utility.yul\":7891:7949   */\n      tag_64\n      jump\t// in\n    tag_160:\n        /* \"#utility.yul\":7886:7889   */\n      dup6\n        /* \"#utility.yul\":7879:7950   */\n      mstore\n        /* \"#utility.yul\":7979:7983   */\n      0x20\n        /* \"#utility.yul\":7974:7977   */\n      dup6\n        /* \"#utility.yul\":7970:7984   */\n      add\n        /* \"#utility.yul\":7963:7984   */\n      swap5\n      pop\n        /* \"#utility.yul\":7631:7994   */\n      pop\n      pop\n        /* \"#utility.yul\":7615:7619   */\n      0x20\n        /* \"#utility.yul\":7610:7613   */\n      dup2\n        /* \"#utility.yul\":7606:7620   */\n      add\n        /* \"#utility.yul\":7599:7620   */\n      swap1\n      pop\n        /* \"#utility.yul\":7555:7994   */\n      jump(tag_155)\n    tag_157:\n        /* \"#utility.yul\":7559:7580   */\n      pop\n        /* \"#utility.yul\":7228:8000   */\n      pop\n      pop\n        /* \"#utility.yul\":7107:8000   */\n      swap4\n      swap3\n      pop\n      pop\n      pop\n      jump\t// out\n        /* \"#utility.yul\":8023:8404   */\n    tag_66:\n        /* \"#utility.yul\":8113:8118   */\n      0x00\n        /* \"#utility.yul\":8162:8165   */\n      dup3\n        /* \"#utility.yul\":8155:8159   */\n      0x1f\n        /* \"#utility.yul\":8147:8153   */\n      dup4\n        /* \"#utility.yul\":8143:8160   */\n      add\n        /* \"#utility.yul\":8139:8166   */\n      slt\n        /* \"#utility.yul\":8129:8251   */\n      tag_162\n      jumpi\n        /* \"#utility.yul\":8170:8249   */\n      tag_163\n      tag_50\n      jump\t// in\n    tag_163:\n        /* \"#utility.yul\":8129:8251   */\n    tag_162:\n        /* \"#utility.yul\":8274:8278   */\n      0x03\n        /* \"#utility.yul\":8296:8398   */\n      tag_164\n        /* \"#utility.yul\":8394:8397   */\n      dup5\n        /* \"#utility.yul\":8386:8392   */\n      dup3\n        /* \"#utility.yul\":8378:8384   */\n      dup6\n        /* \"#utility.yul\":8296:8398   */\n      tag_65\n      jump\t// in\n    tag_164:\n        /* \"#utility.yul\":8287:8398   */\n      swap2\n      pop\n        /* \"#utility.yul\":8119:8404   */\n      pop\n        /* \"#utility.yul\":8023:8404   */\n      swap3\n      swap2\n      pop\n      pop\n      jump\t// out\n        /* \"#utility.yul\":8410:8980   */\n    tag_35:\n        /* \"#utility.yul\":8513:8519   */\n      0x00\n        /* \"#utility.yul\":8562:8564   */\n      0x20\n        /* \"#utility.yul\":8550:8559   */\n      dup3\n        /* \"#utility.yul\":8541:8548   */\n      dup5\n        /* \"#utility.yul\":8537:8560   */\n      sub\n        /* \"#utility.yul\":8533:8565   */\n      slt\n        /* \"#utility.yul\":8530:8649   */\n      iszero\n      tag_166\n      jumpi\n        /* \"#utility.yul\":8568:8647   */\n      tag_167\n      tag_40\n      jump\t// in\n    tag_167:\n        /* \"#utility.yul\":8530:8649   */\n    tag_166:\n        /* \"#utility.yul\":8709:8710   */\n      0x00\n        /* \"#utility.yul\":8698:8707   */\n      dup3\n        /* \"#utility.yul\":8694:8711   */\n      add\n        /* \"#utility.yul\":8688:8712   */\n      mload\n        /* \"#utility.yul\":8739:8757   */\n      0xffffffffffffffff\n        /* \"#utility.yul\":8731:8737   */\n      dup2\n        /* \"#utility.yul\":8728:8758   */\n      gt\n        /* \"#utility.yul\":8725:8842   */\n      iszero\n      tag_168\n      jumpi\n        /* \"#utility.yul\":8761:8840   */\n      tag_169\n      tag_41\n      jump\t// in\n    tag_169:\n        /* \"#utility.yul\":8725:8842   */\n    tag_168:\n        /* \"#utility.yul\":8866:8963   */\n      tag_170\n        /* \"#utility.yul\":8955:8962   */\n      dup5\n        /* \"#utility.yul\":8946:8952   */\n      dup3\n        /* \"#utility.yul\":8935:8944   */\n      dup6\n        /* \"#utility.yul\":8931:8953   */\n      add\n        /* \"#utility.yul\":8866:8963   */\n      tag_66\n      jump\t// in\n    tag_170:\n        /* \"#utility.yul\":8856:8963   */\n      swap2\n      pop\n        /* \"#utility.yul\":8659:8973   */\n      pop\n        /* \"#utility.yul\":8410:8980   */\n      swap3\n      swap2\n      pop\n      pop\n      jump\t// out\n        /* \"#utility.yul\":8986:9166   */\n    tag_38:\n        /* \"#utility.yul\":9034:9111   */\n      0x4e487b7100000000000000000000000000000000000000000000000000000000\n        /* \"#utility.yul\":9031:9032   */\n      0x00\n        /* \"#utility.yul\":9024:9112   */\n      mstore\n        /* \"#utility.yul\":9131:9135   */\n      0x32\n        /* \"#utility.yul\":9128:9129   */\n      0x04\n        /* \"#utility.yul\":9121:9136   */\n      mstore\n        /* \"#utility.yul\":9155:9159   */\n      0x24\n        /* \"#utility.yul\":9152:9153   */\n      0x00\n        /* \"#utility.yul\":9145:9160   */\n      revert\n\n    auxdata: 0xa2646970667358221220c96c66cc3ced4cc2fa5134b0e981352951bd5b2a08432d585abae06721887bdb64736f6c63430008080033\n}\n",
				"bytecode": {
					"linkReferences": {},
					"object": "60806040527350c7a09925375438d2cee94c5c59266c6ffaaf8c600160006101000a81548173ffffffffffffffffffffffffffffffffffffffff021916908373ffffffffffffffffffffffffffffffffffffffff16021790555034801561006557600080fd5b5061076e806100756000396000f3fe608060405234801561001057600080fd5b50600436106100415760003560e01c80636fd3d9e214610046578063a7beb5d014610076578063bb4a376b146100a6575b600080fd5b610060600480360381019061005b919061028b565b6100c4565b60405161006d9190610351565b60405180910390f35b610090600480360381019061008b91906104a8565b610170565b60405161009d9190610500565b60405180910390f35b6100ae610177565b6040516100bb9190610351565b60405180910390f35b600081815481106100d457600080fd5b9060005260206000200160009150905080546100ef9061054a565b80601f016020809104026020016040519081016040528092919081815260200182805461011b9061054a565b80156101685780601f1061013d57610100808354040283529160200191610168565b820191906000526020600020905b81548152906001019060200180831161014b57829003601f168201915b505050505081565b6000919050565b60606000600160009054906101000a900473ffffffffffffffffffffffffffffffffffffffff1673ffffffffffffffffffffffffffffffffffffffff166348441d5f6040518163ffffffff1660e01b815260040160006040518083038186803b1580156101e357600080fd5b505afa1580156101f7573d6000803e3d6000fd5b505050506040513d6000823e3d601f19601f8201168201806040525081019061022091906106c0565b90508060016003811061023657610235610709565b5b602002015191505090565b6000604051905090565b600080fd5b600080fd5b6000819050919050565b61026881610255565b811461027357600080fd5b50565b6000813590506102858161025f565b92915050565b6000602082840312156102a1576102a061024b565b5b60006102af84828501610276565b91505092915050565b600081519050919050565b600082825260208201905092915050565b60005b838110156102f25780820151818401526020810190506102d7565b83811115610301576000848401525b50505050565b6000601f19601f8301169050919050565b6000610323826102b8565b61032d81856102c3565b935061033d8185602086016102d4565b61034681610307565b840191505092915050565b6000602082019050818103600083015261036b8184610318565b905092915050565b600080fd5b600080fd5b7f4e487b7100000000000000000000000000000000000000000000000000000000600052604160045260246000fd5b6103b582610307565b810181811067ffffffffffffffff821117156103d4576103d361037d565b5b80604052505050565b60006103e7610241565b90506103f382826103ac565b919050565b600067ffffffffffffffff8211156104135761041261037d565b5b61041c82610307565b9050602081019050919050565b82818337600083830152505050565b600061044b610446846103f8565b6103dd565b90508281526020810184848401111561046757610466610378565b5b610472848285610429565b509392505050565b600082601f83011261048f5761048e610373565b5b813561049f848260208601610438565b91505092915050565b6000602082840312156104be576104bd61024b565b5b600082013567ffffffffffffffff8111156104dc576104db610250565b5b6104e88482850161047a565b91505092915050565b6104fa81610255565b82525050565b600060208201905061051560008301846104f1565b92915050565b7f4e487b7100000000000000000000000000000000000000000000000000000000600052602260045260246000fd5b6000600282049050600182168061056257607f821691505b602082108114156105765761057561051b565b5b50919050565b600067ffffffffffffffff8211156105975761059661037d565b5b602082029050919050565b600080fd5b60006105ba6105b5846103f8565b6103dd565b9050828152602081018484840111156105d6576105d5610378565b5b6105e18482856102d4565b509392505050565b600082601f8301126105fe576105fd610373565b5b815161060e8482602086016105a7565b91505092915050565b600061062a6106258461057c565b6103dd565b90508060208402830185811115610644576106436105a2565b5b835b8181101561068b57805167ffffffffffffffff81111561066957610668610373565b5b80860161067689826105e9565b85526020850194505050602081019050610646565b5050509392505050565b600082601f8301126106aa576106a9610373565b5b60036106b7848285610617565b91505092915050565b6000602082840312156106d6576106d561024b565b5b600082015167ffffffffffffffff8111156106f4576106f3610250565b5b61070084828501610695565b91505092915050565b7f4e487b7100000000000000000000000000000000000000000000000000000000600052603260045260246000fdfea2646970667358221220c96c66cc3ced4cc2fa5134b0e981352951bd5b2a08432d585abae06721887bdb64736f6c63430008080033",
					"opcodes": "PUSH1 0x80 PUSH1 0x40 MSTORE PUSH20 0x50C7A09925375438D2CEE94C5C59266C6FFAAF8C PUSH1 0x1 PUSH1 0x0 PUSH2 0x100 EXP DUP2 SLOAD DUP2 PUSH20 0xFFFFFFFFFFFFFFFFFFFFFFFFFFFFFFFFFFFFFFFF MUL NOT AND SWAP1 DUP4 PUSH20 0xFFFFFFFFFFFFFFFFFFFFFFFFFFFFFFFFFFFFFFFF AND MUL OR SWAP1 SSTORE POP CALLVALUE DUP1 ISZERO PUSH2 0x65 JUMPI PUSH1 0x0 DUP1 REVERT JUMPDEST POP PUSH2 0x76E DUP1 PUSH2 0x75 PUSH1 0x0 CODECOPY PUSH1 0x0 RETURN INVALID PUSH1 0x80 PUSH1 0x40 MSTORE CALLVALUE DUP1 ISZERO PUSH2 0x10 JUMPI PUSH1 0x0 DUP1 REVERT JUMPDEST POP PUSH1 0x4 CALLDATASIZE LT PUSH2 0x41 JUMPI PUSH1 0x0 CALLDATALOAD PUSH1 0xE0 SHR DUP1 PUSH4 0x6FD3D9E2 EQ PUSH2 0x46 JUMPI DUP1 PUSH4 0xA7BEB5D0 EQ PUSH2 0x76 JUMPI DUP1 PUSH4 0xBB4A376B EQ PUSH2 0xA6 JUMPI JUMPDEST PUSH1 0x0 DUP1 REVERT JUMPDEST PUSH2 0x60 PUSH1 0x4 DUP1 CALLDATASIZE SUB DUP2 ADD SWAP1 PUSH2 0x5B SWAP2 SWAP1 PUSH2 0x28B JUMP JUMPDEST PUSH2 0xC4 JUMP JUMPDEST PUSH1 0x40 MLOAD PUSH2 0x6D SWAP2 SWAP1 PUSH2 0x351 JUMP JUMPDEST PUSH1 0x40 MLOAD DUP1 SWAP2 SUB SWAP1 RETURN JUMPDEST PUSH2 0x90 PUSH1 0x4 DUP1 CALLDATASIZE SUB DUP2 ADD SWAP1 PUSH2 0x8B SWAP2 SWAP1 PUSH2 0x4A8 JUMP JUMPDEST PUSH2 0x170 JUMP JUMPDEST PUSH1 0x40 MLOAD PUSH2 0x9D SWAP2 SWAP1 PUSH2 0x500 JUMP JUMPDEST PUSH1 0x40 MLOAD DUP1 SWAP2 SUB SWAP1 RETURN JUMPDEST PUSH2 0xAE PUSH2 0x177 JUMP JUMPDEST PUSH1 0x40 MLOAD PUSH2 0xBB SWAP2 SWAP1 PUSH2 0x351 JUMP JUMPDEST PUSH1 0x40 MLOAD DUP1 SWAP2 SUB SWAP1 RETURN JUMPDEST PUSH1 0x0 DUP2 DUP2 SLOAD DUP2 LT PUSH2 0xD4 JUMPI PUSH1 0x0 DUP1 REVERT JUMPDEST SWAP1 PUSH1 0x0 MSTORE PUSH1 0x20 PUSH1 0x0 KECCAK256 ADD PUSH1 0x0 SWAP2 POP SWAP1 POP DUP1 SLOAD PUSH2 0xEF SWAP1 PUSH2 0x54A JUMP JUMPDEST DUP1 PUSH1 0x1F ADD PUSH1 0x20 DUP1 SWAP2 DIV MUL PUSH1 0x20 ADD PUSH1 0x40 MLOAD SWAP1 DUP2 ADD PUSH1 0x40 MSTORE DUP1 SWAP3 SWAP2 SWAP1 DUP2 DUP2 MSTORE PUSH1 0x20 ADD DUP3 DUP1 SLOAD PUSH2 0x11B SWAP1 PUSH2 0x54A JUMP JUMPDEST DUP1 ISZERO PUSH2 0x168 JUMPI DUP1 PUSH1 0x1F LT PUSH2 0x13D JUMPI PUSH2 0x100 DUP1 DUP4 SLOAD DIV MUL DUP4 MSTORE SWAP2 PUSH1 0x20 ADD SWAP2 PUSH2 0x168 JUMP JUMPDEST DUP3 ADD SWAP2 SWAP1 PUSH1 0x0 MSTORE PUSH1 0x20 PUSH1 0x0 KECCAK256 SWAP1 JUMPDEST DUP2 SLOAD DUP2 MSTORE SWAP1 PUSH1 0x1 ADD SWAP1 PUSH1 0x20 ADD DUP1 DUP4 GT PUSH2 0x14B JUMPI DUP3 SWAP1 SUB PUSH1 0x1F AND DUP3 ADD SWAP2 JUMPDEST POP POP POP POP POP DUP2 JUMP JUMPDEST PUSH1 0x0 SWAP2 SWAP1 POP JUMP JUMPDEST PUSH1 0x60 PUSH1 0x0 PUSH1 0x1 PUSH1 0x0 SWAP1 SLOAD SWAP1 PUSH2 0x100 EXP SWAP1 DIV PUSH20 0xFFFFFFFFFFFFFFFFFFFFFFFFFFFFFFFFFFFFFFFF AND PUSH20 0xFFFFFFFFFFFFFFFFFFFFFFFFFFFFFFFFFFFFFFFF AND PUSH4 0x48441D5F PUSH1 0x40 MLOAD DUP2 PUSH4 0xFFFFFFFF AND PUSH1 0xE0 SHL DUP2 MSTORE PUSH1 0x4 ADD PUSH1 0x0 PUSH1 0x40 MLOAD DUP1 DUP4 SUB DUP2 DUP7 DUP1 EXTCODESIZE ISZERO DUP1 ISZERO PUSH2 0x1E3 JUMPI PUSH1 0x0 DUP1 REVERT JUMPDEST POP GAS STATICCALL ISZERO DUP1 ISZERO PUSH2 0x1F7 JUMPI RETURNDATASIZE PUSH1 0x0 DUP1 RETURNDATACOPY RETURNDATASIZE PUSH1 0x0 REVERT JUMPDEST POP POP POP POP PUSH1 0x40 MLOAD RETURNDATASIZE PUSH1 0x0 DUP3 RETURNDATACOPY RETURNDATASIZE PUSH1 0x1F NOT PUSH1 0x1F DUP3 ADD AND DUP3 ADD DUP1 PUSH1 0x40 MSTORE POP DUP2 ADD SWAP1 PUSH2 0x220 SWAP2 SWAP1 PUSH2 0x6C0 JUMP JUMPDEST SWAP1 POP DUP1 PUSH1 0x1 PUSH1 0x3 DUP2 LT PUSH2 0x236 JUMPI PUSH2 0x235 PUSH2 0x709 JUMP JUMPDEST JUMPDEST PUSH1 0x20 MUL ADD MLOAD SWAP2 POP POP SWAP1 JUMP JUMPDEST PUSH1 0x0 PUSH1 0x40 MLOAD SWAP1 POP SWAP1 JUMP JUMPDEST PUSH1 0x0 DUP1 REVERT JUMPDEST PUSH1 0x0 DUP1 REVERT JUMPDEST PUSH1 0x0 DUP2 SWAP1 POP SWAP2 SWAP1 POP JUMP JUMPDEST PUSH2 0x268 DUP2 PUSH2 0x255 JUMP JUMPDEST DUP2 EQ PUSH2 0x273 JUMPI PUSH1 0x0 DUP1 REVERT JUMPDEST POP JUMP JUMPDEST PUSH1 0x0 DUP2 CALLDATALOAD SWAP1 POP PUSH2 0x285 DUP2 PUSH2 0x25F JUMP JUMPDEST SWAP3 SWAP2 POP POP JUMP JUMPDEST PUSH1 0x0 PUSH1 0x20 DUP3 DUP5 SUB SLT ISZERO PUSH2 0x2A1 JUMPI PUSH2 0x2A0 PUSH2 0x24B JUMP JUMPDEST JUMPDEST PUSH1 0x0 PUSH2 0x2AF DUP5 DUP3 DUP6 ADD PUSH2 0x276 JUMP JUMPDEST SWAP2 POP POP SWAP3 SWAP2 POP POP JUMP JUMPDEST PUSH1 0x0 DUP2 MLOAD SWAP1 POP SWAP2 SWAP1 POP JUMP JUMPDEST PUSH1 0x0 DUP3 DUP3 MSTORE PUSH1 0x20 DUP3 ADD SWAP1 POP SWAP3 SWAP2 POP POP JUMP JUMPDEST PUSH1 0x0 JUMPDEST DUP4 DUP2 LT ISZERO PUSH2 0x2F2 JUMPI DUP1 DUP3 ADD MLOAD DUP2 DUP5 ADD MSTORE PUSH1 0x20 DUP2 ADD SWAP1 POP PUSH2 0x2D7 JUMP JUMPDEST DUP4 DUP2 GT ISZERO PUSH2 0x301 JUMPI PUSH1 0x0 DUP5 DUP5 ADD MSTORE JUMPDEST POP POP POP POP JUMP JUMPDEST PUSH1 0x0 PUSH1 0x1F NOT PUSH1 0x1F DUP4 ADD AND SWAP1 POP SWAP2 SWAP1 POP JUMP JUMPDEST PUSH1 0x0 PUSH2 0x323 DUP3 PUSH2 0x2B8 JUMP JUMPDEST PUSH2 0x32D DUP2 DUP6 PUSH2 0x2C3 JUMP JUMPDEST SWAP4 POP PUSH2 0x33D DUP2 DUP6 PUSH1 0x20 DUP7 ADD PUSH2 0x2D4 JUMP JUMPDEST PUSH2 0x346 DUP2 PUSH2 0x307 JUMP JUMPDEST DUP5 ADD SWAP2 POP POP SWAP3 SWAP2 POP POP JUMP JUMPDEST PUSH1 0x0 PUSH1 0x20 DUP3 ADD SWAP1 POP DUP2 DUP2 SUB PUSH1 0x0 DUP4 ADD MSTORE PUSH2 0x36B DUP2 DUP5 PUSH2 0x318 JUMP JUMPDEST SWAP1 POP SWAP3 SWAP2 POP POP JUMP JUMPDEST PUSH1 0x0 DUP1 REVERT JUMPDEST PUSH1 0x0 DUP1 REVERT JUMPDEST PUSH32 0x4E487B7100000000000000000000000000000000000000000000000000000000 PUSH1 0x0 MSTORE PUSH1 0x41 PUSH1 0x4 MSTORE PUSH1 0x24 PUSH1 0x0 REVERT JUMPDEST PUSH2 0x3B5 DUP3 PUSH2 0x307 JUMP JUMPDEST DUP2 ADD DUP2 DUP2 LT PUSH8 0xFFFFFFFFFFFFFFFF DUP3 GT OR ISZERO PUSH2 0x3D4 JUMPI PUSH2 0x3D3 PUSH2 0x37D JUMP JUMPDEST JUMPDEST DUP1 PUSH1 0x40 MSTORE POP POP POP JUMP JUMPDEST PUSH1 0x0 PUSH2 0x3E7 PUSH2 0x241 JUMP JUMPDEST SWAP1 POP PUSH2 0x3F3 DUP3 DUP3 PUSH2 0x3AC JUMP JUMPDEST SWAP2 SWAP1 POP JUMP JUMPDEST PUSH1 0x0 PUSH8 0xFFFFFFFFFFFFFFFF DUP3 GT ISZERO PUSH2 0x413 JUMPI PUSH2 0x412 PUSH2 0x37D JUMP JUMPDEST JUMPDEST PUSH2 0x41C DUP3 PUSH2 0x307 JUMP JUMPDEST SWAP1 POP PUSH1 0x20 DUP2 ADD SWAP1 POP SWAP2 SWAP1 POP JUMP JUMPDEST DUP3 DUP2 DUP4 CALLDATACOPY PUSH1 0x0 DUP4 DUP4 ADD MSTORE POP POP POP JUMP JUMPDEST PUSH1 0x0 PUSH2 0x44B PUSH2 0x446 DUP5 PUSH2 0x3F8 JUMP JUMPDEST PUSH2 0x3DD JUMP JUMPDEST SWAP1 POP DUP3 DUP2 MSTORE PUSH1 0x20 DUP2 ADD DUP5 DUP5 DUP5 ADD GT ISZERO PUSH2 0x467 JUMPI PUSH2 0x466 PUSH2 0x378 JUMP JUMPDEST JUMPDEST PUSH2 0x472 DUP5 DUP3 DUP6 PUSH2 0x429 JUMP JUMPDEST POP SWAP4 SWAP3 POP POP POP JUMP JUMPDEST PUSH1 0x0 DUP3 PUSH1 0x1F DUP4 ADD SLT PUSH2 0x48F JUMPI PUSH2 0x48E PUSH2 0x373 JUMP JUMPDEST JUMPDEST DUP2 CALLDATALOAD PUSH2 0x49F DUP5 DUP3 PUSH1 0x20 DUP7 ADD PUSH2 0x438 JUMP JUMPDEST SWAP2 POP POP SWAP3 SWAP2 POP POP JUMP JUMPDEST PUSH1 0x0 PUSH1 0x20 DUP3 DUP5 SUB SLT ISZERO PUSH2 0x4BE JUMPI PUSH2 0x4BD PUSH2 0x24B JUMP JUMPDEST JUMPDEST PUSH1 0x0 DUP3 ADD CALLDATALOAD PUSH8 0xFFFFFFFFFFFFFFFF DUP2 GT ISZERO PUSH2 0x4DC JUMPI PUSH2 0x4DB PUSH2 0x250 JUMP JUMPDEST JUMPDEST PUSH2 0x4E8 DUP5 DUP3 DUP6 ADD PUSH2 0x47A JUMP JUMPDEST SWAP2 POP POP SWAP3 SWAP2 POP POP JUMP JUMPDEST PUSH2 0x4FA DUP2 PUSH2 0x255 JUMP JUMPDEST DUP3 MSTORE POP POP JUMP JUMPDEST PUSH1 0x0 PUSH1 0x20 DUP3 ADD SWAP1 POP PUSH2 0x515 PUSH1 0x0 DUP4 ADD DUP5 PUSH2 0x4F1 JUMP JUMPDEST SWAP3 SWAP2 POP POP JUMP JUMPDEST PUSH32 0x4E487B7100000000000000000000000000000000000000000000000000000000 PUSH1 0x0 MSTORE PUSH1 0x22 PUSH1 0x4 MSTORE PUSH1 0x24 PUSH1 0x0 REVERT JUMPDEST PUSH1 0x0 PUSH1 0x2 DUP3 DIV SWAP1 POP PUSH1 0x1 DUP3 AND DUP1 PUSH2 0x562 JUMPI PUSH1 0x7F DUP3 AND SWAP2 POP JUMPDEST PUSH1 0x20 DUP3 LT DUP2 EQ ISZERO PUSH2 0x576 JUMPI PUSH2 0x575 PUSH2 0x51B JUMP JUMPDEST JUMPDEST POP SWAP2 SWAP1 POP JUMP JUMPDEST PUSH1 0x0 PUSH8 0xFFFFFFFFFFFFFFFF DUP3 GT ISZERO PUSH2 0x597 JUMPI PUSH2 0x596 PUSH2 0x37D JUMP JUMPDEST JUMPDEST PUSH1 0x20 DUP3 MUL SWAP1 POP SWAP2 SWAP1 POP JUMP JUMPDEST PUSH1 0x0 DUP1 REVERT JUMPDEST PUSH1 0x0 PUSH2 0x5BA PUSH2 0x5B5 DUP5 PUSH2 0x3F8 JUMP JUMPDEST PUSH2 0x3DD JUMP JUMPDEST SWAP1 POP DUP3 DUP2 MSTORE PUSH1 0x20 DUP2 ADD DUP5 DUP5 DUP5 ADD GT ISZERO PUSH2 0x5D6 JUMPI PUSH2 0x5D5 PUSH2 0x378 JUMP JUMPDEST JUMPDEST PUSH2 0x5E1 DUP5 DUP3 DUP6 PUSH2 0x2D4 JUMP JUMPDEST POP SWAP4 SWAP3 POP POP POP JUMP JUMPDEST PUSH1 0x0 DUP3 PUSH1 0x1F DUP4 ADD SLT PUSH2 0x5FE JUMPI PUSH2 0x5FD PUSH2 0x373 JUMP JUMPDEST JUMPDEST DUP2 MLOAD PUSH2 0x60E DUP5 DUP3 PUSH1 0x20 DUP7 ADD PUSH2 0x5A7 JUMP JUMPDEST SWAP2 POP POP SWAP3 SWAP2 POP POP JUMP JUMPDEST PUSH1 0x0 PUSH2 0x62A PUSH2 0x625 DUP5 PUSH2 0x57C JUMP JUMPDEST PUSH2 0x3DD JUMP JUMPDEST SWAP1 POP DUP1 PUSH1 0x20 DUP5 MUL DUP4 ADD DUP6 DUP2 GT ISZERO PUSH2 0x644 JUMPI PUSH2 0x643 PUSH2 0x5A2 JUMP JUMPDEST JUMPDEST DUP4 JUMPDEST DUP2 DUP2 LT ISZERO PUSH2 0x68B JUMPI DUP1 MLOAD PUSH8 0xFFFFFFFFFFFFFFFF DUP2 GT ISZERO PUSH2 0x669 JUMPI PUSH2 0x668 PUSH2 0x373 JUMP JUMPDEST JUMPDEST DUP1 DUP7 ADD PUSH2 0x676 DUP10 DUP3 PUSH2 0x5E9 JUMP JUMPDEST DUP6 MSTORE PUSH1 0x20 DUP6 ADD SWAP5 POP POP POP PUSH1 0x20 DUP2 ADD SWAP1 POP PUSH2 0x646 JUMP JUMPDEST POP POP POP SWAP4 SWAP3 POP POP POP JUMP JUMPDEST PUSH1 0x0 DUP3 PUSH1 0x1F DUP4 ADD SLT PUSH2 0x6AA JUMPI PUSH2 0x6A9 PUSH2 0x373 JUMP JUMPDEST JUMPDEST PUSH1 0x3 PUSH2 0x6B7 DUP5 DUP3 DUP6 PUSH2 0x617 JUMP JUMPDEST SWAP2 POP POP SWAP3 SWAP2 POP POP JUMP JUMPDEST PUSH1 0x0 PUSH1 0x20 DUP3 DUP5 SUB SLT ISZERO PUSH2 0x6D6 JUMPI PUSH2 0x6D5 PUSH2 0x24B JUMP JUMPDEST JUMPDEST PUSH1 0x0 DUP3 ADD MLOAD PUSH8 0xFFFFFFFFFFFFFFFF DUP2 GT ISZERO PUSH2 0x6F4 JUMPI PUSH2 0x6F3 PUSH2 0x250 JUMP JUMPDEST JUMPDEST PUSH2 0x700 DUP5 DUP3 DUP6 ADD PUSH2 0x695 JUMP JUMPDEST SWAP2 POP POP SWAP3 SWAP2 POP POP JUMP JUMPDEST PUSH32 0x4E487B7100000000000000000000000000000000000000000000000000000000 PUSH1 0x0 MSTORE PUSH1 0x32 PUSH1 0x4 MSTORE PUSH1 0x24 PUSH1 0x0 REVERT INVALID LOG2 PUSH5 0x6970667358 0x22 SLT KECCAK256 0xC9 PUSH13 0x66CC3CED4CC2FA5134B0E98135 0x29 MLOAD 0xBD JUMPDEST 0x2A ADDMOD NUMBER 0x2D PC GAS 0xBA 0xE0 PUSH8 0x21887BDB64736F6C PUSH4 0x43000808 STOP CALLER "
				},
				"gasEstimates": {
					"creation": {
						"codeDepositCost": "380400",
						"executionCost": "24685",
						"totalCost": "405085"
					},
					"external": {
						"rarityList(uint256)": "infinite",
						"rarityListFunc()": "infinite",
						"rarityRateFunc(string)": "infinite"
					}
				},
				"methodIdentifiers": {
					"rarityList(uint256)": "6fd3d9e2",
					"rarityListFunc()": "bb4a376b",
					"rarityRateFunc(string)": "a7beb5d0"
				}
			},
			"storageLayout": {
				"storage": [
					{
						"astId": 5,
						"contract": "contracts/TestInterview.sol:TestInterview",
						"label": "rarityList",
						"offset": 0,
						"slot": "0",
						"type": "t_array(t_string_storage)dyn_storage"
					},
					{
						"astId": 11,
						"contract": "contracts/TestInterview.sol:TestInterview",
						"label": "ObjINFT",
						"offset": 0,
						"slot": "1",
						"type": "t_contract(INFT)73"
					}
				],
				"types": {
					"t_array(t_string_storage)dyn_storage": {
						"base": "t_string_storage",
						"encoding": "dynamic_array",
						"label": "string[]",
						"numberOfBytes": "32"
					},
					"t_contract(INFT)73": {
						"encoding": "inplace",
						"label": "contract INFT",
						"numberOfBytes": "20"
					},
					"t_string_storage": {
						"encoding": "bytes",
						"label": "string",
						"numberOfBytes": "32"
					}
				}
			},
			"userdoc": {
				"kind": "user",
				"methods": {},
				"version": 1
			}
		}
	}
}