{
	"contracts/TestInterview.sol": {
		"TestInterview": {
			"abi": [
				{
					"inputs": [
						{
							"internalType": "uint256",
							"name": "",
							"type": "uint256"
						}
					],
					"name": "rarityList",
					"outputs": [
						{
							"internalType": "string",
							"name": "",
							"type": "string"
						}
					],
					"stateMutability": "view",
					"type": "function"
				},
				{
					"inputs": [],
					"name": "rarityListFunc",
					"outputs": [
						{
							"internalType": "string",
							"name": "",
							"type": "string"
						}
					],
					"stateMutability": "view",
					"type": "function"
				},
				{
					"inputs": [],
					"name": "rarityRateFunc",
					"outputs": [
						{
							"internalType": "uint256",
							"name": "",
							"type": "uint256"
						}
					],
					"stateMutability": "view",
					"type": "function"
				}
			],
			"devdoc": {
				"kind": "dev",
				"methods": {},
				"version": 1
			},
			"evm": {
				"assembly": "    /* \"contracts/TestInterview.sol\":208:615  contract TestInterview {... */\n  mstore(0x40, 0x80)\n    /* \"contracts/TestInterview.sol\":291:333  0x50C7a09925375438D2cEe94C5c59266c6fFAAf8C */\n  0x50c7a09925375438d2cee94c5c59266c6ffaaf8c\n    /* \"contracts/TestInterview.sol\":271:334  INFT ObjINFT = INFT(0x50C7a09925375438D2cEe94C5c59266c6fFAAf8C) */\n  0x01\n  exp(0x0100, 0x00)\n  dup2\n  sload\n  dup2\n  0xffffffffffffffffffffffffffffffffffffffff\n  mul\n  not\n  and\n  swap1\n  dup4\n  0xffffffffffffffffffffffffffffffffffffffff\n  and\n  mul\n  or\n  swap1\n  sstore\n  pop\n    /* \"contracts/TestInterview.sol\":208:615  contract TestInterview {... */\n  callvalue\n  dup1\n  iszero\n  tag_1\n  jumpi\n  0x00\n  dup1\n  revert\ntag_1:\n  pop\n  dataSize(sub_0)\n  dup1\n  dataOffset(sub_0)\n  0x00\n  codecopy\n  0x00\n  return\nstop\n\nsub_0: assembly {\n        /* \"contracts/TestInterview.sol\":208:615  contract TestInterview {... */\n      mstore(0x40, 0x80)\n      callvalue\n      dup1\n      iszero\n      tag_1\n      jumpi\n      0x00\n      dup1\n      revert\n    tag_1:\n      pop\n      jumpi(tag_2, lt(calldatasize, 0x04))\n      shr(0xe0, calldataload(0x00))\n      dup1\n      0x6fd3d9e2\n      eq\n      tag_3\n      jumpi\n      dup1\n      0xbb4a376b\n      eq\n      tag_4\n      jumpi\n      dup1\n      0xf8d75807\n      eq\n      tag_5\n      jumpi\n    tag_2:\n      0x00\n      dup1\n      revert\n        /* \"contracts/TestInterview.sol\":238:264  string[] public rarityList */\n    tag_3:\n      tag_6\n      0x04\n      dup1\n      calldatasize\n      sub\n      dup2\n      add\n      swap1\n      tag_7\n      swap2\n      swap1\n      tag_8\n      jump\t// in\n    tag_7:\n      tag_9\n      jump\t// in\n    tag_6:\n      mload(0x40)\n      tag_10\n      swap2\n      swap1\n      tag_11\n      jump\t// in\n    tag_10:\n      mload(0x40)\n      dup1\n      swap2\n      sub\n      swap1\n      return\n        /* \"contracts/TestInterview.sol\":343:530  function rarityListFunc () public view returns(string memory) {... */\n    tag_4:\n      tag_12\n      tag_13\n      jump\t// in\n    tag_12:\n      mload(0x40)\n      tag_14\n      swap2\n      swap1\n      tag_11\n      jump\t// in\n    tag_14:\n      mload(0x40)\n      dup1\n      swap2\n      sub\n      swap1\n      return\n        /* \"contracts/TestInterview.sol\":538:612  function rarityRateFunc () public view returns(uint256) {... */\n    tag_5:\n      tag_15\n      tag_16\n      jump\t// in\n    tag_15:\n      mload(0x40)\n      tag_17\n      swap2\n      swap1\n      tag_18\n      jump\t// in\n    tag_17:\n      mload(0x40)\n      dup1\n      swap2\n      sub\n      swap1\n      return\n        /* \"contracts/TestInterview.sol\":238:264  string[] public rarityList */\n    tag_9:\n      0x00\n      dup2\n      dup2\n      sload\n      dup2\n      lt\n      tag_19\n      jumpi\n      0x00\n      dup1\n      revert\n    tag_19:\n      swap1\n      0x00\n      mstore\n      keccak256(0x00, 0x20)\n      add\n      0x00\n      swap2\n      pop\n      swap1\n      pop\n      dup1\n      sload\n      tag_21\n      swap1\n      tag_22\n      jump\t// in\n    tag_21:\n      dup1\n      0x1f\n      add\n      0x20\n      dup1\n      swap2\n      div\n      mul\n      0x20\n      add\n      mload(0x40)\n      swap1\n      dup2\n      add\n      0x40\n      mstore\n      dup1\n      swap3\n      swap2\n      swap1\n      dup2\n      dup2\n      mstore\n      0x20\n      add\n      dup3\n      dup1\n      sload\n      tag_23\n      swap1\n      tag_22\n      jump\t// in\n    tag_23:\n      dup1\n      iszero\n      tag_24\n      jumpi\n      dup1\n      0x1f\n      lt\n      tag_25\n      jumpi\n      0x0100\n      dup1\n      dup4\n      sload\n      div\n      mul\n      dup4\n      mstore\n      swap2\n      0x20\n      add\n      swap2\n      jump(tag_24)\n    tag_25:\n      dup3\n      add\n      swap2\n      swap1\n      0x00\n      mstore\n      keccak256(0x00, 0x20)\n      swap1\n    tag_26:\n      dup2\n      sload\n      dup2\n      mstore\n      swap1\n      0x01\n      add\n      swap1\n      0x20\n      add\n      dup1\n      dup4\n      gt\n      tag_26\n      jumpi\n      dup3\n      swap1\n      sub\n      0x1f\n      and\n      dup3\n      add\n      swap2\n    tag_24:\n      pop\n      pop\n      pop\n      pop\n      pop\n      dup2\n      jump\t// out\n        /* \"contracts/TestInterview.sol\":343:530  function rarityListFunc () public view returns(string memory) {... */\n    tag_13:\n        /* \"contracts/TestInterview.sol\":390:403  string memory */\n      0x60\n        /* \"contracts/TestInterview.sol\":426:458  string[3] memory localRarityList */\n      0x00\n        /* \"contracts/TestInterview.sol\":461:468  ObjINFT */\n      0x01\n      0x00\n      swap1\n      sload\n      swap1\n      0x0100\n      exp\n      swap1\n      div\n      0xffffffffffffffffffffffffffffffffffffffff\n      and\n        /* \"contracts/TestInterview.sol\":461:482  ObjINFT.getRarityList */\n      0xffffffffffffffffffffffffffffffffffffffff\n      and\n      0x48441d5f\n        /* \"contracts/TestInterview.sol\":461:484  ObjINFT.getRarityList() */\n      mload(0x40)\n      dup2\n      0xffffffff\n      and\n      0xe0\n      shl\n      dup2\n      mstore\n      0x04\n      add\n      0x00\n      mload(0x40)\n      dup1\n      dup4\n      sub\n      dup2\n      dup7\n      dup1\n      extcodesize\n      iszero\n      dup1\n      iszero\n      tag_28\n      jumpi\n      0x00\n      dup1\n      revert\n    tag_28:\n      pop\n      gas\n      staticcall\n      iszero\n      dup1\n      iszero\n      tag_30\n      jumpi\n      returndatasize\n      0x00\n      dup1\n      returndatacopy\n      revert(0x00, returndatasize)\n    tag_30:\n      pop\n      pop\n      pop\n      pop\n      mload(0x40)\n      returndatasize\n      0x00\n      dup3\n      returndatacopy\n      returndatasize\n      not(0x1f)\n      0x1f\n      dup3\n      add\n      and\n      dup3\n      add\n      dup1\n      0x40\n      mstore\n      pop\n      dup2\n      add\n      swap1\n      tag_31\n      swap2\n      swap1\n      tag_32\n      jump\t// in\n    tag_31:\n        /* \"contracts/TestInterview.sol\":426:484  string[3] memory localRarityList = ObjINFT.getRarityList() */\n      swap1\n      pop\n        /* \"contracts/TestInterview.sol\":504:519  localRarityList */\n      dup1\n        /* \"contracts/TestInterview.sol\":520:521  1 */\n      0x01\n        /* \"contracts/TestInterview.sol\":504:522  localRarityList[1] */\n      0x03\n      dup2\n      lt\n      tag_33\n      jumpi\n      tag_34\n      tag_35\n      jump\t// in\n    tag_34:\n    tag_33:\n      0x20\n      mul\n      add\n      mload\n        /* \"contracts/TestInterview.sol\":497:522  return localRarityList[1] */\n      swap2\n      pop\n      pop\n        /* \"contracts/TestInterview.sol\":343:530  function rarityListFunc () public view returns(string memory) {... */\n      swap1\n      jump\t// out\n        /* \"contracts/TestInterview.sol\":538:612  function rarityRateFunc () public view returns(uint256) {... */\n    tag_16:\n        /* \"contracts/TestInterview.sol\":585:592  uint256 */\n      0x00\n        /* \"contracts/TestInterview.sol\":538:612  function rarityRateFunc () public view returns(uint256) {... */\n      swap1\n      jump\t// out\n        /* \"#utility.yul\":7:82   */\n    tag_37:\n        /* \"#utility.yul\":40:46   */\n      0x00\n        /* \"#utility.yul\":73:75   */\n      0x40\n        /* \"#utility.yul\":67:76   */\n      mload\n        /* \"#utility.yul\":57:76   */\n      swap1\n      pop\n        /* \"#utility.yul\":7:82   */\n      swap1\n      jump\t// out\n        /* \"#utility.yul\":88:205   */\n    tag_38:\n        /* \"#utility.yul\":197:198   */\n      0x00\n        /* \"#utility.yul\":194:195   */\n      dup1\n        /* \"#utility.yul\":187:199   */\n      revert\n        /* \"#utility.yul\":211:328   */\n    tag_39:\n        /* \"#utility.yul\":320:321   */\n      0x00\n        /* \"#utility.yul\":317:318   */\n      dup1\n        /* \"#utility.yul\":310:322   */\n      revert\n        /* \"#utility.yul\":334:411   */\n    tag_40:\n        /* \"#utility.yul\":371:378   */\n      0x00\n        /* \"#utility.yul\":400:405   */\n      dup2\n        /* \"#utility.yul\":389:405   */\n      swap1\n      pop\n        /* \"#utility.yul\":334:411   */\n      swap2\n      swap1\n      pop\n      jump\t// out\n        /* \"#utility.yul\":417:539   */\n    tag_41:\n        /* \"#utility.yul\":490:514   */\n      tag_68\n        /* \"#utility.yul\":508:513   */\n      dup2\n        /* \"#utility.yul\":490:514   */\n      tag_40\n      jump\t// in\n    tag_68:\n        /* \"#utility.yul\":483:488   */\n      dup2\n        /* \"#utility.yul\":480:515   */\n      eq\n        /* \"#utility.yul\":470:533   */\n      tag_69\n      jumpi\n        /* \"#utility.yul\":529:530   */\n      0x00\n        /* \"#utility.yul\":526:527   */\n      dup1\n        /* \"#utility.yul\":519:531   */\n      revert\n        /* \"#utility.yul\":470:533   */\n    tag_69:\n        /* \"#utility.yul\":417:539   */\n      pop\n      jump\t// out\n        /* \"#utility.yul\":545:684   */\n    tag_42:\n        /* \"#utility.yul\":591:596   */\n      0x00\n        /* \"#utility.yul\":629:635   */\n      dup2\n        /* \"#utility.yul\":616:636   */\n      calldataload\n        /* \"#utility.yul\":607:636   */\n      swap1\n      pop\n        /* \"#utility.yul\":645:678   */\n      tag_71\n        /* \"#utility.yul\":672:677   */\n      dup2\n        /* \"#utility.yul\":645:678   */\n      tag_41\n      jump\t// in\n    tag_71:\n        /* \"#utility.yul\":545:684   */\n      swap3\n      swap2\n      pop\n      pop\n      jump\t// out\n        /* \"#utility.yul\":690:1019   */\n    tag_8:\n        /* \"#utility.yul\":749:755   */\n      0x00\n        /* \"#utility.yul\":798:800   */\n      0x20\n        /* \"#utility.yul\":786:795   */\n      dup3\n        /* \"#utility.yul\":777:784   */\n      dup5\n        /* \"#utility.yul\":773:796   */\n      sub\n        /* \"#utility.yul\":769:801   */\n      slt\n        /* \"#utility.yul\":766:885   */\n      iszero\n      tag_73\n      jumpi\n        /* \"#utility.yul\":804:883   */\n      tag_74\n      tag_38\n      jump\t// in\n    tag_74:\n        /* \"#utility.yul\":766:885   */\n    tag_73:\n        /* \"#utility.yul\":924:925   */\n      0x00\n        /* \"#utility.yul\":949:1002   */\n      tag_75\n        /* \"#utility.yul\":994:1001   */\n      dup5\n        /* \"#utility.yul\":985:991   */\n      dup3\n        /* \"#utility.yul\":974:983   */\n      dup6\n        /* \"#utility.yul\":970:992   */\n      add\n        /* \"#utility.yul\":949:1002   */\n      tag_42\n      jump\t// in\n    tag_75:\n        /* \"#utility.yul\":939:1002   */\n      swap2\n      pop\n        /* \"#utility.yul\":895:1012   */\n      pop\n        /* \"#utility.yul\":690:1019   */\n      swap3\n      swap2\n      pop\n      pop\n      jump\t// out\n        /* \"#utility.yul\":1025:1124   */\n    tag_43:\n        /* \"#utility.yul\":1077:1083   */\n      0x00\n        /* \"#utility.yul\":1111:1116   */\n      dup2\n        /* \"#utility.yul\":1105:1117   */\n      mload\n        /* \"#utility.yul\":1095:1117   */\n      swap1\n      pop\n        /* \"#utility.yul\":1025:1124   */\n      swap2\n      swap1\n      pop\n      jump\t// out\n        /* \"#utility.yul\":1130:1299   */\n    tag_44:\n        /* \"#utility.yul\":1214:1225   */\n      0x00\n        /* \"#utility.yul\":1248:1254   */\n      dup3\n        /* \"#utility.yul\":1243:1246   */\n      dup3\n        /* \"#utility.yul\":1236:1255   */\n      mstore\n        /* \"#utility.yul\":1288:1292   */\n      0x20\n        /* \"#utility.yul\":1283:1286   */\n      dup3\n        /* \"#utility.yul\":1279:1293   */\n      add\n        /* \"#utility.yul\":1264:1293   */\n      swap1\n      pop\n        /* \"#utility.yul\":1130:1299   */\n      swap3\n      swap2\n      pop\n      pop\n      jump\t// out\n        /* \"#utility.yul\":1305:1612   */\n    tag_45:\n        /* \"#utility.yul\":1373:1374   */\n      0x00\n        /* \"#utility.yul\":1383:1496   */\n    tag_79:\n        /* \"#utility.yul\":1397:1403   */\n      dup4\n        /* \"#utility.yul\":1394:1395   */\n      dup2\n        /* \"#utility.yul\":1391:1404   */\n      lt\n        /* \"#utility.yul\":1383:1496   */\n      iszero\n      tag_81\n      jumpi\n        /* \"#utility.yul\":1482:1483   */\n      dup1\n        /* \"#utility.yul\":1477:1480   */\n      dup3\n        /* \"#utility.yul\":1473:1484   */\n      add\n        /* \"#utility.yul\":1467:1485   */\n      mload\n        /* \"#utility.yul\":1463:1464   */\n      dup2\n        /* \"#utility.yul\":1458:1461   */\n      dup5\n        /* \"#utility.yul\":1454:1465   */\n      add\n        /* \"#utility.yul\":1447:1486   */\n      mstore\n        /* \"#utility.yul\":1419:1421   */\n      0x20\n        /* \"#utility.yul\":1416:1417   */\n      dup2\n        /* \"#utility.yul\":1412:1422   */\n      add\n        /* \"#utility.yul\":1407:1422   */\n      swap1\n      pop\n        /* \"#utility.yul\":1383:1496   */\n      jump(tag_79)\n    tag_81:\n        /* \"#utility.yul\":1514:1520   */\n      dup4\n        /* \"#utility.yul\":1511:1512   */\n      dup2\n        /* \"#utility.yul\":1508:1521   */\n      gt\n        /* \"#utility.yul\":1505:1606   */\n      iszero\n      tag_82\n      jumpi\n        /* \"#utility.yul\":1594:1595   */\n      0x00\n        /* \"#utility.yul\":1585:1591   */\n      dup5\n        /* \"#utility.yul\":1580:1583   */\n      dup5\n        /* \"#utility.yul\":1576:1592   */\n      add\n        /* \"#utility.yul\":1569:1596   */\n      mstore\n        /* \"#utility.yul\":1505:1606   */\n    tag_82:\n        /* \"#utility.yul\":1354:1612   */\n      pop\n        /* \"#utility.yul\":1305:1612   */\n      pop\n      pop\n      pop\n      jump\t// out\n        /* \"#utility.yul\":1618:1720   */\n    tag_46:\n        /* \"#utility.yul\":1659:1665   */\n      0x00\n        /* \"#utility.yul\":1710:1712   */\n      0x1f\n        /* \"#utility.yul\":1706:1713   */\n      not\n        /* \"#utility.yul\":1701:1703   */\n      0x1f\n        /* \"#utility.yul\":1694:1699   */\n      dup4\n        /* \"#utility.yul\":1690:1704   */\n      add\n        /* \"#utility.yul\":1686:1714   */\n      and\n        /* \"#utility.yul\":1676:1714   */\n      swap1\n      pop\n        /* \"#utility.yul\":1618:1720   */\n      swap2\n      swap1\n      pop\n      jump\t// out\n        /* \"#utility.yul\":1726:2090   */\n    tag_47:\n        /* \"#utility.yul\":1814:1817   */\n      0x00\n        /* \"#utility.yul\":1842:1881   */\n      tag_85\n        /* \"#utility.yul\":1875:1880   */\n      dup3\n        /* \"#utility.yul\":1842:1881   */\n      tag_43\n      jump\t// in\n    tag_85:\n        /* \"#utility.yul\":1897:1968   */\n      tag_86\n        /* \"#utility.yul\":1961:1967   */\n      dup2\n        /* \"#utility.yul\":1956:1959   */\n      dup6\n        /* \"#utility.yul\":1897:1968   */\n      tag_44\n      jump\t// in\n    tag_86:\n        /* \"#utility.yul\":1890:1968   */\n      swap4\n      pop\n        /* \"#utility.yul\":1977:2029   */\n      tag_87\n        /* \"#utility.yul\":2022:2028   */\n      dup2\n        /* \"#utility.yul\":2017:2020   */\n      dup6\n        /* \"#utility.yul\":2010:2014   */\n      0x20\n        /* \"#utility.yul\":2003:2008   */\n      dup7\n        /* \"#utility.yul\":1999:2015   */\n      add\n        /* \"#utility.yul\":1977:2029   */\n      tag_45\n      jump\t// in\n    tag_87:\n        /* \"#utility.yul\":2054:2083   */\n      tag_88\n        /* \"#utility.yul\":2076:2082   */\n      dup2\n        /* \"#utility.yul\":2054:2083   */\n      tag_46\n      jump\t// in\n    tag_88:\n        /* \"#utility.yul\":2049:2052   */\n      dup5\n        /* \"#utility.yul\":2045:2084   */\n      add\n        /* \"#utility.yul\":2038:2084   */\n      swap2\n      pop\n        /* \"#utility.yul\":1818:2090   */\n      pop\n        /* \"#utility.yul\":1726:2090   */\n      swap3\n      swap2\n      pop\n      pop\n      jump\t// out\n        /* \"#utility.yul\":2096:2409   */\n    tag_11:\n        /* \"#utility.yul\":2209:2213   */\n      0x00\n        /* \"#utility.yul\":2247:2249   */\n      0x20\n        /* \"#utility.yul\":2236:2245   */\n      dup3\n        /* \"#utility.yul\":2232:2250   */\n      add\n        /* \"#utility.yul\":2224:2250   */\n      swap1\n      pop\n        /* \"#utility.yul\":2296:2305   */\n      dup2\n        /* \"#utility.yul\":2290:2294   */\n      dup2\n        /* \"#utility.yul\":2286:2306   */\n      sub\n        /* \"#utility.yul\":2282:2283   */\n      0x00\n        /* \"#utility.yul\":2271:2280   */\n      dup4\n        /* \"#utility.yul\":2267:2284   */\n      add\n        /* \"#utility.yul\":2260:2307   */\n      mstore\n        /* \"#utility.yul\":2324:2402   */\n      tag_90\n        /* \"#utility.yul\":2397:2401   */\n      dup2\n        /* \"#utility.yul\":2388:2394   */\n      dup5\n        /* \"#utility.yul\":2324:2402   */\n      tag_47\n      jump\t// in\n    tag_90:\n        /* \"#utility.yul\":2316:2402   */\n      swap1\n      pop\n        /* \"#utility.yul\":2096:2409   */\n      swap3\n      swap2\n      pop\n      pop\n      jump\t// out\n        /* \"#utility.yul\":2415:2533   */\n    tag_48:\n        /* \"#utility.yul\":2502:2526   */\n      tag_92\n        /* \"#utility.yul\":2520:2525   */\n      dup2\n        /* \"#utility.yul\":2502:2526   */\n      tag_40\n      jump\t// in\n    tag_92:\n        /* \"#utility.yul\":2497:2500   */\n      dup3\n        /* \"#utility.yul\":2490:2527   */\n      mstore\n        /* \"#utility.yul\":2415:2533   */\n      pop\n      pop\n      jump\t// out\n        /* \"#utility.yul\":2539:2761   */\n    tag_18:\n        /* \"#utility.yul\":2632:2636   */\n      0x00\n        /* \"#utility.yul\":2670:2672   */\n      0x20\n        /* \"#utility.yul\":2659:2668   */\n      dup3\n        /* \"#utility.yul\":2655:2673   */\n      add\n        /* \"#utility.yul\":2647:2673   */\n      swap1\n      pop\n        /* \"#utility.yul\":2683:2754   */\n      tag_94\n        /* \"#utility.yul\":2751:2752   */\n      0x00\n        /* \"#utility.yul\":2740:2749   */\n      dup4\n        /* \"#utility.yul\":2736:2753   */\n      add\n        /* \"#utility.yul\":2727:2733   */\n      dup5\n        /* \"#utility.yul\":2683:2754   */\n      tag_48\n      jump\t// in\n    tag_94:\n        /* \"#utility.yul\":2539:2761   */\n      swap3\n      swap2\n      pop\n      pop\n      jump\t// out\n        /* \"#utility.yul\":2767:2947   */\n    tag_49:\n        /* \"#utility.yul\":2815:2892   */\n      0x4e487b7100000000000000000000000000000000000000000000000000000000\n        /* \"#utility.yul\":2812:2813   */\n      0x00\n        /* \"#utility.yul\":2805:2893   */\n      mstore\n        /* \"#utility.yul\":2912:2916   */\n      0x22\n        /* \"#utility.yul\":2909:2910   */\n      0x04\n        /* \"#utility.yul\":2902:2917   */\n      mstore\n        /* \"#utility.yul\":2936:2940   */\n      0x24\n        /* \"#utility.yul\":2933:2934   */\n      0x00\n        /* \"#utility.yul\":2926:2941   */\n      revert\n        /* \"#utility.yul\":2953:3273   */\n    tag_22:\n        /* \"#utility.yul\":2997:3003   */\n      0x00\n        /* \"#utility.yul\":3034:3035   */\n      0x02\n        /* \"#utility.yul\":3028:3032   */\n      dup3\n        /* \"#utility.yul\":3024:3036   */\n      div\n        /* \"#utility.yul\":3014:3036   */\n      swap1\n      pop\n        /* \"#utility.yul\":3081:3082   */\n      0x01\n        /* \"#utility.yul\":3075:3079   */\n      dup3\n        /* \"#utility.yul\":3071:3083   */\n      and\n        /* \"#utility.yul\":3102:3120   */\n      dup1\n        /* \"#utility.yul\":3092:3173   */\n      tag_97\n      jumpi\n        /* \"#utility.yul\":3158:3162   */\n      0x7f\n        /* \"#utility.yul\":3150:3156   */\n      dup3\n        /* \"#utility.yul\":3146:3163   */\n      and\n        /* \"#utility.yul\":3136:3163   */\n      swap2\n      pop\n        /* \"#utility.yul\":3092:3173   */\n    tag_97:\n        /* \"#utility.yul\":3220:3222   */\n      0x20\n        /* \"#utility.yul\":3212:3218   */\n      dup3\n        /* \"#utility.yul\":3209:3223   */\n      lt\n        /* \"#utility.yul\":3189:3207   */\n      dup2\n        /* \"#utility.yul\":3186:3224   */\n      eq\n        /* \"#utility.yul\":3183:3267   */\n      iszero\n      tag_98\n      jumpi\n        /* \"#utility.yul\":3239:3257   */\n      tag_99\n      tag_49\n      jump\t// in\n    tag_99:\n        /* \"#utility.yul\":3183:3267   */\n    tag_98:\n        /* \"#utility.yul\":3004:3273   */\n      pop\n        /* \"#utility.yul\":2953:3273   */\n      swap2\n      swap1\n      pop\n      jump\t// out\n        /* \"#utility.yul\":3279:3396   */\n    tag_50:\n        /* \"#utility.yul\":3388:3389   */\n      0x00\n        /* \"#utility.yul\":3385:3386   */\n      dup1\n        /* \"#utility.yul\":3378:3390   */\n      revert\n        /* \"#utility.yul\":3402:3582   */\n    tag_51:\n        /* \"#utility.yul\":3450:3527   */\n      0x4e487b7100000000000000000000000000000000000000000000000000000000\n        /* \"#utility.yul\":3447:3448   */\n      0x00\n        /* \"#utility.yul\":3440:3528   */\n      mstore\n        /* \"#utility.yul\":3547:3551   */\n      0x41\n        /* \"#utility.yul\":3544:3545   */\n      0x04\n        /* \"#utility.yul\":3537:3552   */\n      mstore\n        /* \"#utility.yul\":3571:3575   */\n      0x24\n        /* \"#utility.yul\":3568:3569   */\n      0x00\n        /* \"#utility.yul\":3561:3576   */\n      revert\n        /* \"#utility.yul\":3588:3869   */\n    tag_52:\n        /* \"#utility.yul\":3671:3698   */\n      tag_103\n        /* \"#utility.yul\":3693:3697   */\n      dup3\n        /* \"#utility.yul\":3671:3698   */\n      tag_46\n      jump\t// in\n    tag_103:\n        /* \"#utility.yul\":3663:3669   */\n      dup2\n        /* \"#utility.yul\":3659:3699   */\n      add\n        /* \"#utility.yul\":3801:3807   */\n      dup2\n        /* \"#utility.yul\":3789:3799   */\n      dup2\n        /* \"#utility.yul\":3786:3808   */\n      lt\n        /* \"#utility.yul\":3765:3783   */\n      0xffffffffffffffff\n        /* \"#utility.yul\":3753:3763   */\n      dup3\n        /* \"#utility.yul\":3750:3784   */\n      gt\n        /* \"#utility.yul\":3747:3809   */\n      or\n        /* \"#utility.yul\":3744:3832   */\n      iszero\n      tag_104\n      jumpi\n        /* \"#utility.yul\":3812:3830   */\n      tag_105\n      tag_51\n      jump\t// in\n    tag_105:\n        /* \"#utility.yul\":3744:3832   */\n    tag_104:\n        /* \"#utility.yul\":3852:3862   */\n      dup1\n        /* \"#utility.yul\":3848:3850   */\n      0x40\n        /* \"#utility.yul\":3841:3863   */\n      mstore\n        /* \"#utility.yul\":3631:3869   */\n      pop\n        /* \"#utility.yul\":3588:3869   */\n      pop\n      pop\n      jump\t// out\n        /* \"#utility.yul\":3875:4004   */\n    tag_53:\n        /* \"#utility.yul\":3909:3915   */\n      0x00\n        /* \"#utility.yul\":3936:3956   */\n      tag_107\n      tag_37\n      jump\t// in\n    tag_107:\n        /* \"#utility.yul\":3926:3956   */\n      swap1\n      pop\n        /* \"#utility.yul\":3965:3998   */\n      tag_108\n        /* \"#utility.yul\":3993:3997   */\n      dup3\n        /* \"#utility.yul\":3985:3991   */\n      dup3\n        /* \"#utility.yul\":3965:3998   */\n      tag_52\n      jump\t// in\n    tag_108:\n        /* \"#utility.yul\":3875:4004   */\n      swap2\n      swap1\n      pop\n      jump\t// out\n        /* \"#utility.yul\":4010:4269   */\n    tag_54:\n        /* \"#utility.yul\":4095:4099   */\n      0x00\n        /* \"#utility.yul\":4185:4203   */\n      0xffffffffffffffff\n        /* \"#utility.yul\":4177:4183   */\n      dup3\n        /* \"#utility.yul\":4174:4204   */\n      gt\n        /* \"#utility.yul\":4171:4227   */\n      iszero\n      tag_110\n      jumpi\n        /* \"#utility.yul\":4207:4225   */\n      tag_111\n      tag_51\n      jump\t// in\n    tag_111:\n        /* \"#utility.yul\":4171:4227   */\n    tag_110:\n        /* \"#utility.yul\":4257:4261   */\n      0x20\n        /* \"#utility.yul\":4249:4255   */\n      dup3\n        /* \"#utility.yul\":4245:4262   */\n      mul\n        /* \"#utility.yul\":4237:4262   */\n      swap1\n      pop\n        /* \"#utility.yul\":4010:4269   */\n      swap2\n      swap1\n      pop\n      jump\t// out\n        /* \"#utility.yul\":4275:4392   */\n    tag_55:\n        /* \"#utility.yul\":4384:4385   */\n      0x00\n        /* \"#utility.yul\":4381:4382   */\n      dup1\n        /* \"#utility.yul\":4374:4386   */\n      revert\n        /* \"#utility.yul\":4398:4515   */\n    tag_56:\n        /* \"#utility.yul\":4507:4508   */\n      0x00\n        /* \"#utility.yul\":4504:4505   */\n      dup1\n        /* \"#utility.yul\":4497:4509   */\n      revert\n        /* \"#utility.yul\":4521:4829   */\n    tag_57:\n        /* \"#utility.yul\":4583:4587   */\n      0x00\n        /* \"#utility.yul\":4673:4691   */\n      0xffffffffffffffff\n        /* \"#utility.yul\":4665:4671   */\n      dup3\n        /* \"#utility.yul\":4662:4692   */\n      gt\n        /* \"#utility.yul\":4659:4715   */\n      iszero\n      tag_115\n      jumpi\n        /* \"#utility.yul\":4695:4713   */\n      tag_116\n      tag_51\n      jump\t// in\n    tag_116:\n        /* \"#utility.yul\":4659:4715   */\n    tag_115:\n        /* \"#utility.yul\":4733:4762   */\n      tag_117\n        /* \"#utility.yul\":4755:4761   */\n      dup3\n        /* \"#utility.yul\":4733:4762   */\n      tag_46\n      jump\t// in\n    tag_117:\n        /* \"#utility.yul\":4725:4762   */\n      swap1\n      pop\n        /* \"#utility.yul\":4817:4821   */\n      0x20\n        /* \"#utility.yul\":4811:4815   */\n      dup2\n        /* \"#utility.yul\":4807:4822   */\n      add\n        /* \"#utility.yul\":4799:4822   */\n      swap1\n      pop\n        /* \"#utility.yul\":4521:4829   */\n      swap2\n      swap1\n      pop\n      jump\t// out\n        /* \"#utility.yul\":4835:5256   */\n    tag_58:\n        /* \"#utility.yul\":4924:4929   */\n      0x00\n        /* \"#utility.yul\":4949:5015   */\n      tag_119\n        /* \"#utility.yul\":4965:5014   */\n      tag_120\n        /* \"#utility.yul\":5007:5013   */\n      dup5\n        /* \"#utility.yul\":4965:5014   */\n      tag_57\n      jump\t// in\n    tag_120:\n        /* \"#utility.yul\":4949:5015   */\n      tag_53\n      jump\t// in\n    tag_119:\n        /* \"#utility.yul\":4940:5015   */\n      swap1\n      pop\n        /* \"#utility.yul\":5038:5044   */\n      dup3\n        /* \"#utility.yul\":5031:5036   */\n      dup2\n        /* \"#utility.yul\":5024:5045   */\n      mstore\n        /* \"#utility.yul\":5076:5080   */\n      0x20\n        /* \"#utility.yul\":5069:5074   */\n      dup2\n        /* \"#utility.yul\":5065:5081   */\n      add\n        /* \"#utility.yul\":5114:5117   */\n      dup5\n        /* \"#utility.yul\":5105:5111   */\n      dup5\n        /* \"#utility.yul\":5100:5103   */\n      dup5\n        /* \"#utility.yul\":5096:5112   */\n      add\n        /* \"#utility.yul\":5093:5118   */\n      gt\n        /* \"#utility.yul\":5090:5202   */\n      iszero\n      tag_121\n      jumpi\n        /* \"#utility.yul\":5121:5200   */\n      tag_122\n      tag_56\n      jump\t// in\n    tag_122:\n        /* \"#utility.yul\":5090:5202   */\n    tag_121:\n        /* \"#utility.yul\":5211:5250   */\n      tag_123\n        /* \"#utility.yul\":5243:5249   */\n      dup5\n        /* \"#utility.yul\":5238:5241   */\n      dup3\n        /* \"#utility.yul\":5233:5236   */\n      dup6\n        /* \"#utility.yul\":5211:5250   */\n      tag_45\n      jump\t// in\n    tag_123:\n        /* \"#utility.yul\":4930:5256   */\n      pop\n        /* \"#utility.yul\":4835:5256   */\n      swap4\n      swap3\n      pop\n      pop\n      pop\n      jump\t// out\n        /* \"#utility.yul\":5276:5631   */\n    tag_59:\n        /* \"#utility.yul\":5343:5348   */\n      0x00\n        /* \"#utility.yul\":5392:5395   */\n      dup3\n        /* \"#utility.yul\":5385:5389   */\n      0x1f\n        /* \"#utility.yul\":5377:5383   */\n      dup4\n        /* \"#utility.yul\":5373:5390   */\n      add\n        /* \"#utility.yul\":5369:5396   */\n      slt\n        /* \"#utility.yul\":5359:5481   */\n      tag_125\n      jumpi\n        /* \"#utility.yul\":5400:5479   */\n      tag_126\n      tag_50\n      jump\t// in\n    tag_126:\n        /* \"#utility.yul\":5359:5481   */\n    tag_125:\n        /* \"#utility.yul\":5510:5516   */\n      dup2\n        /* \"#utility.yul\":5504:5517   */\n      mload\n        /* \"#utility.yul\":5535:5625   */\n      tag_127\n        /* \"#utility.yul\":5621:5624   */\n      dup5\n        /* \"#utility.yul\":5613:5619   */\n      dup3\n        /* \"#utility.yul\":5606:5610   */\n      0x20\n        /* \"#utility.yul\":5598:5604   */\n      dup7\n        /* \"#utility.yul\":5594:5611   */\n      add\n        /* \"#utility.yul\":5535:5625   */\n      tag_58\n      jump\t// in\n    tag_127:\n        /* \"#utility.yul\":5526:5625   */\n      swap2\n      pop\n        /* \"#utility.yul\":5349:5631   */\n      pop\n        /* \"#utility.yul\":5276:5631   */\n      swap3\n      swap2\n      pop\n      pop\n      jump\t// out\n        /* \"#utility.yul\":5654:6547   */\n    tag_60:\n        /* \"#utility.yul\":5769:5774   */\n      0x00\n        /* \"#utility.yul\":5794:5883   */\n      tag_129\n        /* \"#utility.yul\":5810:5882   */\n      tag_130\n        /* \"#utility.yul\":5875:5881   */\n      dup5\n        /* \"#utility.yul\":5810:5882   */\n      tag_54\n      jump\t// in\n    tag_130:\n        /* \"#utility.yul\":5794:5883   */\n      tag_53\n      jump\t// in\n    tag_129:\n        /* \"#utility.yul\":5785:5883   */\n      swap1\n      pop\n        /* \"#utility.yul\":5903:5908   */\n      dup1\n        /* \"#utility.yul\":5956:5960   */\n      0x20\n        /* \"#utility.yul\":5948:5954   */\n      dup5\n        /* \"#utility.yul\":5944:5961   */\n      mul\n        /* \"#utility.yul\":5936:5942   */\n      dup4\n        /* \"#utility.yul\":5932:5962   */\n      add\n        /* \"#utility.yul\":5985:5988   */\n      dup6\n        /* \"#utility.yul\":5977:5983   */\n      dup2\n        /* \"#utility.yul\":5974:5989   */\n      gt\n        /* \"#utility.yul\":5971:6093   */\n      iszero\n      tag_131\n      jumpi\n        /* \"#utility.yul\":6004:6083   */\n      tag_132\n      tag_55\n      jump\t// in\n    tag_132:\n        /* \"#utility.yul\":5971:6093   */\n    tag_131:\n        /* \"#utility.yul\":6119:6125   */\n      dup4\n        /* \"#utility.yul\":6102:6541   */\n    tag_133:\n        /* \"#utility.yul\":6136:6142   */\n      dup2\n        /* \"#utility.yul\":6131:6134   */\n      dup2\n        /* \"#utility.yul\":6128:6143   */\n      lt\n        /* \"#utility.yul\":6102:6541   */\n      iszero\n      tag_135\n      jumpi\n        /* \"#utility.yul\":6218:6221   */\n      dup1\n        /* \"#utility.yul\":6212:6222   */\n      mload\n        /* \"#utility.yul\":6254:6272   */\n      0xffffffffffffffff\n        /* \"#utility.yul\":6241:6252   */\n      dup2\n        /* \"#utility.yul\":6238:6273   */\n      gt\n        /* \"#utility.yul\":6235:6357   */\n      iszero\n      tag_136\n      jumpi\n        /* \"#utility.yul\":6276:6355   */\n      tag_137\n      tag_50\n      jump\t// in\n    tag_137:\n        /* \"#utility.yul\":6235:6357   */\n    tag_136:\n        /* \"#utility.yul\":6400:6411   */\n      dup1\n        /* \"#utility.yul\":6392:6398   */\n      dup7\n        /* \"#utility.yul\":6388:6412   */\n      add\n        /* \"#utility.yul\":6438:6496   */\n      tag_138\n        /* \"#utility.yul\":6492:6495   */\n      dup10\n        /* \"#utility.yul\":6480:6490   */\n      dup3\n        /* \"#utility.yul\":6438:6496   */\n      tag_59\n      jump\t// in\n    tag_138:\n        /* \"#utility.yul\":6433:6436   */\n      dup6\n        /* \"#utility.yul\":6426:6497   */\n      mstore\n        /* \"#utility.yul\":6526:6530   */\n      0x20\n        /* \"#utility.yul\":6521:6524   */\n      dup6\n        /* \"#utility.yul\":6517:6531   */\n      add\n        /* \"#utility.yul\":6510:6531   */\n      swap5\n      pop\n        /* \"#utility.yul\":6178:6541   */\n      pop\n      pop\n        /* \"#utility.yul\":6162:6166   */\n      0x20\n        /* \"#utility.yul\":6157:6160   */\n      dup2\n        /* \"#utility.yul\":6153:6167   */\n      add\n        /* \"#utility.yul\":6146:6167   */\n      swap1\n      pop\n        /* \"#utility.yul\":6102:6541   */\n      jump(tag_133)\n    tag_135:\n        /* \"#utility.yul\":6106:6127   */\n      pop\n        /* \"#utility.yul\":5775:6547   */\n      pop\n      pop\n        /* \"#utility.yul\":5654:6547   */\n      swap4\n      swap3\n      pop\n      pop\n      pop\n      jump\t// out\n        /* \"#utility.yul\":6570:6951   */\n    tag_61:\n        /* \"#utility.yul\":6660:6665   */\n      0x00\n        /* \"#utility.yul\":6709:6712   */\n      dup3\n        /* \"#utility.yul\":6702:6706   */\n      0x1f\n        /* \"#utility.yul\":6694:6700   */\n      dup4\n        /* \"#utility.yul\":6690:6707   */\n      add\n        /* \"#utility.yul\":6686:6713   */\n      slt\n        /* \"#utility.yul\":6676:6798   */\n      tag_140\n      jumpi\n        /* \"#utility.yul\":6717:6796   */\n      tag_141\n      tag_50\n      jump\t// in\n    tag_141:\n        /* \"#utility.yul\":6676:6798   */\n    tag_140:\n        /* \"#utility.yul\":6821:6825   */\n      0x03\n        /* \"#utility.yul\":6843:6945   */\n      tag_142\n        /* \"#utility.yul\":6941:6944   */\n      dup5\n        /* \"#utility.yul\":6933:6939   */\n      dup3\n        /* \"#utility.yul\":6925:6931   */\n      dup6\n        /* \"#utility.yul\":6843:6945   */\n      tag_60\n      jump\t// in\n    tag_142:\n        /* \"#utility.yul\":6834:6945   */\n      swap2\n      pop\n        /* \"#utility.yul\":6666:6951   */\n      pop\n        /* \"#utility.yul\":6570:6951   */\n      swap3\n      swap2\n      pop\n      pop\n      jump\t// out\n        /* \"#utility.yul\":6957:7527   */\n    tag_32:\n        /* \"#utility.yul\":7060:7066   */\n      0x00\n        /* \"#utility.yul\":7109:7111   */\n      0x20\n        /* \"#utility.yul\":7097:7106   */\n      dup3\n        /* \"#utility.yul\":7088:7095   */\n      dup5\n        /* \"#utility.yul\":7084:7107   */\n      sub\n        /* \"#utility.yul\":7080:7112   */\n      slt\n        /* \"#utility.yul\":7077:7196   */\n      iszero\n      tag_144\n      jumpi\n        /* \"#utility.yul\":7115:7194   */\n      tag_145\n      tag_38\n      jump\t// in\n    tag_145:\n        /* \"#utility.yul\":7077:7196   */\n    tag_144:\n        /* \"#utility.yul\":7256:7257   */\n      0x00\n        /* \"#utility.yul\":7245:7254   */\n      dup3\n        /* \"#utility.yul\":7241:7258   */\n      add\n        /* \"#utility.yul\":7235:7259   */\n      mload\n        /* \"#utility.yul\":7286:7304   */\n      0xffffffffffffffff\n        /* \"#utility.yul\":7278:7284   */\n      dup2\n        /* \"#utility.yul\":7275:7305   */\n      gt\n        /* \"#utility.yul\":7272:7389   */\n      iszero\n      tag_146\n      jumpi\n        /* \"#utility.yul\":7308:7387   */\n      tag_147\n      tag_39\n      jump\t// in\n    tag_147:\n        /* \"#utility.yul\":7272:7389   */\n    tag_146:\n        /* \"#utility.yul\":7413:7510   */\n      tag_148\n        /* \"#utility.yul\":7502:7509   */\n      dup5\n        /* \"#utility.yul\":7493:7499   */\n      dup3\n        /* \"#utility.yul\":7482:7491   */\n      dup6\n        /* \"#utility.yul\":7478:7500   */\n      add\n        /* \"#utility.yul\":7413:7510   */\n      tag_61\n      jump\t// in\n    tag_148:\n        /* \"#utility.yul\":7403:7510   */\n      swap2\n      pop\n        /* \"#utility.yul\":7206:7520   */\n      pop\n        /* \"#utility.yul\":6957:7527   */\n      swap3\n      swap2\n      pop\n      pop\n      jump\t// out\n        /* \"#utility.yul\":7533:7713   */\n    tag_35:\n        /* \"#utility.yul\":7581:7658   */\n      0x4e487b7100000000000000000000000000000000000000000000000000000000\n        /* \"#utility.yul\":7578:7579   */\n      0x00\n        /* \"#utility.yul\":7571:7659   */\n      mstore\n        /* \"#utility.yul\":7678:7682   */\n      0x32\n        /* \"#utility.yul\":7675:7676   */\n      0x04\n        /* \"#utility.yul\":7668:7683   */\n      mstore\n        /* \"#utility.yul\":7702:7706   */\n      0x24\n        /* \"#utility.yul\":7699:7700   */\n      0x00\n        /* \"#utility.yul\":7692:7707   */\n      revert\n\n    auxdata: 0xa26469706673582212203726384b0fa923287e22d84f3c30fc84dab5085e65ab1ba69842cd03c35d57cd64736f6c63430008080033\n}\n",
				"bytecode": {
					"linkReferences": {},
					"object": "60806040527350c7a09925375438d2cee94c5c59266c6ffaaf8c600160006101000a81548173ffffffffffffffffffffffffffffffffffffffff021916908373ffffffffffffffffffffffffffffffffffffffff16021790555034801561006557600080fd5b50610692806100756000396000f3fe608060405234801561001057600080fd5b50600436106100415760003560e01c80636fd3d9e214610046578063bb4a376b14610076578063f8d7580714610094575b600080fd5b610060600480360381019061005b9190610277565b6100b2565b60405161006d919061033d565b60405180910390f35b61007e61015e565b60405161008b919061033d565b60405180910390f35b61009c610228565b6040516100a9919061036e565b60405180910390f35b600081815481106100c257600080fd5b9060005260206000200160009150905080546100dd906103b8565b80601f0160208091040260200160405190810160405280929190818152602001828054610109906103b8565b80156101565780601f1061012b57610100808354040283529160200191610156565b820191906000526020600020905b81548152906001019060200180831161013957829003601f168201915b505050505081565b60606000600160009054906101000a900473ffffffffffffffffffffffffffffffffffffffff1673ffffffffffffffffffffffffffffffffffffffff166348441d5f6040518163ffffffff1660e01b815260040160006040518083038186803b1580156101ca57600080fd5b505afa1580156101de573d6000803e3d6000fd5b505050506040513d6000823e3d601f19601f8201168201806040525081019061020791906105e4565b90508060016003811061021d5761021c61062d565b5b602002015191505090565b600090565b6000604051905090565b600080fd5b600080fd5b6000819050919050565b61025481610241565b811461025f57600080fd5b50565b6000813590506102718161024b565b92915050565b60006020828403121561028d5761028c610237565b5b600061029b84828501610262565b91505092915050565b600081519050919050565b600082825260208201905092915050565b60005b838110156102de5780820151818401526020810190506102c3565b838111156102ed576000848401525b50505050565b6000601f19601f8301169050919050565b600061030f826102a4565b61031981856102af565b93506103298185602086016102c0565b610332816102f3565b840191505092915050565b600060208201905081810360008301526103578184610304565b905092915050565b61036881610241565b82525050565b6000602082019050610383600083018461035f565b92915050565b7f4e487b7100000000000000000000000000000000000000000000000000000000600052602260045260246000fd5b600060028204905060018216806103d057607f821691505b602082108114156103e4576103e3610389565b5b50919050565b600080fd5b7f4e487b7100000000000000000000000000000000000000000000000000000000600052604160045260246000fd5b610427826102f3565b810181811067ffffffffffffffff82111715610446576104456103ef565b5b80604052505050565b600061045961022d565b9050610465828261041e565b919050565b600067ffffffffffffffff821115610485576104846103ef565b5b602082029050919050565b600080fd5b600080fd5b600067ffffffffffffffff8211156104b5576104b46103ef565b5b6104be826102f3565b9050602081019050919050565b60006104de6104d98461049a565b61044f565b9050828152602081018484840111156104fa576104f9610495565b5b6105058482856102c0565b509392505050565b600082601f830112610522576105216103ea565b5b81516105328482602086016104cb565b91505092915050565b600061054e6105498461046a565b61044f565b9050806020840283018581111561056857610567610490565b5b835b818110156105af57805167ffffffffffffffff81111561058d5761058c6103ea565b5b80860161059a898261050d565b8552602085019450505060208101905061056a565b5050509392505050565b600082601f8301126105ce576105cd6103ea565b5b60036105db84828561053b565b91505092915050565b6000602082840312156105fa576105f9610237565b5b600082015167ffffffffffffffff8111156106185761061761023c565b5b610624848285016105b9565b91505092915050565b7f4e487b7100000000000000000000000000000000000000000000000000000000600052603260045260246000fdfea26469706673582212203726384b0fa923287e22d84f3c30fc84dab5085e65ab1ba69842cd03c35d57cd64736f6c63430008080033",
					"opcodes": "PUSH1 0x80 PUSH1 0x40 MSTORE PUSH20 0x50C7A09925375438D2CEE94C5C59266C6FFAAF8C PUSH1 0x1 PUSH1 0x0 PUSH2 0x100 EXP DUP2 SLOAD DUP2 PUSH20 0xFFFFFFFFFFFFFFFFFFFFFFFFFFFFFFFFFFFFFFFF MUL NOT AND SWAP1 DUP4 PUSH20 0xFFFFFFFFFFFFFFFFFFFFFFFFFFFFFFFFFFFFFFFF AND MUL OR SWAP1 SSTORE POP CALLVALUE DUP1 ISZERO PUSH2 0x65 JUMPI PUSH1 0x0 DUP1 REVERT JUMPDEST POP PUSH2 0x692 DUP1 PUSH2 0x75 PUSH1 0x0 CODECOPY PUSH1 0x0 RETURN INVALID PUSH1 0x80 PUSH1 0x40 MSTORE CALLVALUE DUP1 ISZERO PUSH2 0x10 JUMPI PUSH1 0x0 DUP1 REVERT JUMPDEST POP PUSH1 0x4 CALLDATASIZE LT PUSH2 0x41 JUMPI PUSH1 0x0 CALLDATALOAD PUSH1 0xE0 SHR DUP1 PUSH4 0x6FD3D9E2 EQ PUSH2 0x46 JUMPI DUP1 PUSH4 0xBB4A376B EQ PUSH2 0x76 JUMPI DUP1 PUSH4 0xF8D75807 EQ PUSH2 0x94 JUMPI JUMPDEST PUSH1 0x0 DUP1 REVERT JUMPDEST PUSH2 0x60 PUSH1 0x4 DUP1 CALLDATASIZE SUB DUP2 ADD SWAP1 PUSH2 0x5B SWAP2 SWAP1 PUSH2 0x277 JUMP JUMPDEST PUSH2 0xB2 JUMP JUMPDEST PUSH1 0x40 MLOAD PUSH2 0x6D SWAP2 SWAP1 PUSH2 0x33D JUMP JUMPDEST PUSH1 0x40 MLOAD DUP1 SWAP2 SUB SWAP1 RETURN JUMPDEST PUSH2 0x7E PUSH2 0x15E JUMP JUMPDEST PUSH1 0x40 MLOAD PUSH2 0x8B SWAP2 SWAP1 PUSH2 0x33D JUMP JUMPDEST PUSH1 0x40 MLOAD DUP1 SWAP2 SUB SWAP1 RETURN JUMPDEST PUSH2 0x9C PUSH2 0x228 JUMP JUMPDEST PUSH1 0x40 MLOAD PUSH2 0xA9 SWAP2 SWAP1 PUSH2 0x36E JUMP JUMPDEST PUSH1 0x40 MLOAD DUP1 SWAP2 SUB SWAP1 RETURN JUMPDEST PUSH1 0x0 DUP2 DUP2 SLOAD DUP2 LT PUSH2 0xC2 JUMPI PUSH1 0x0 DUP1 REVERT JUMPDEST SWAP1 PUSH1 0x0 MSTORE PUSH1 0x20 PUSH1 0x0 KECCAK256 ADD PUSH1 0x0 SWAP2 POP SWAP1 POP DUP1 SLOAD PUSH2 0xDD SWAP1 PUSH2 0x3B8 JUMP JUMPDEST DUP1 PUSH1 0x1F ADD PUSH1 0x20 DUP1 SWAP2 DIV MUL PUSH1 0x20 ADD PUSH1 0x40 MLOAD SWAP1 DUP2 ADD PUSH1 0x40 MSTORE DUP1 SWAP3 SWAP2 SWAP1 DUP2 DUP2 MSTORE PUSH1 0x20 ADD DUP3 DUP1 SLOAD PUSH2 0x109 SWAP1 PUSH2 0x3B8 JUMP JUMPDEST DUP1 ISZERO PUSH2 0x156 JUMPI DUP1 PUSH1 0x1F LT PUSH2 0x12B JUMPI PUSH2 0x100 DUP1 DUP4 SLOAD DIV MUL DUP4 MSTORE SWAP2 PUSH1 0x20 ADD SWAP2 PUSH2 0x156 JUMP JUMPDEST DUP3 ADD SWAP2 SWAP1 PUSH1 0x0 MSTORE PUSH1 0x20 PUSH1 0x0 KECCAK256 SWAP1 JUMPDEST DUP2 SLOAD DUP2 MSTORE SWAP1 PUSH1 0x1 ADD SWAP1 PUSH1 0x20 ADD DUP1 DUP4 GT PUSH2 0x139 JUMPI DUP3 SWAP1 SUB PUSH1 0x1F AND DUP3 ADD SWAP2 JUMPDEST POP POP POP POP POP DUP2 JUMP JUMPDEST PUSH1 0x60 PUSH1 0x0 PUSH1 0x1 PUSH1 0x0 SWAP1 SLOAD SWAP1 PUSH2 0x100 EXP SWAP1 DIV PUSH20 0xFFFFFFFFFFFFFFFFFFFFFFFFFFFFFFFFFFFFFFFF AND PUSH20 0xFFFFFFFFFFFFFFFFFFFFFFFFFFFFFFFFFFFFFFFF AND PUSH4 0x48441D5F PUSH1 0x40 MLOAD DUP2 PUSH4 0xFFFFFFFF AND PUSH1 0xE0 SHL DUP2 MSTORE PUSH1 0x4 ADD PUSH1 0x0 PUSH1 0x40 MLOAD DUP1 DUP4 SUB DUP2 DUP7 DUP1 EXTCODESIZE ISZERO DUP1 ISZERO PUSH2 0x1CA JUMPI PUSH1 0x0 DUP1 REVERT JUMPDEST POP GAS STATICCALL ISZERO DUP1 ISZERO PUSH2 0x1DE JUMPI RETURNDATASIZE PUSH1 0x0 DUP1 RETURNDATACOPY RETURNDATASIZE PUSH1 0x0 REVERT JUMPDEST POP POP POP POP PUSH1 0x40 MLOAD RETURNDATASIZE PUSH1 0x0 DUP3 RETURNDATACOPY RETURNDATASIZE PUSH1 0x1F NOT PUSH1 0x1F DUP3 ADD AND DUP3 ADD DUP1 PUSH1 0x40 MSTORE POP DUP2 ADD SWAP1 PUSH2 0x207 SWAP2 SWAP1 PUSH2 0x5E4 JUMP JUMPDEST SWAP1 POP DUP1 PUSH1 0x1 PUSH1 0x3 DUP2 LT PUSH2 0x21D JUMPI PUSH2 0x21C PUSH2 0x62D JUMP JUMPDEST JUMPDEST PUSH1 0x20 MUL ADD MLOAD SWAP2 POP POP SWAP1 JUMP JUMPDEST PUSH1 0x0 SWAP1 JUMP JUMPDEST PUSH1 0x0 PUSH1 0x40 MLOAD SWAP1 POP SWAP1 JUMP JUMPDEST PUSH1 0x0 DUP1 REVERT JUMPDEST PUSH1 0x0 DUP1 REVERT JUMPDEST PUSH1 0x0 DUP2 SWAP1 POP SWAP2 SWAP1 POP JUMP JUMPDEST PUSH2 0x254 DUP2 PUSH2 0x241 JUMP JUMPDEST DUP2 EQ PUSH2 0x25F JUMPI PUSH1 0x0 DUP1 REVERT JUMPDEST POP JUMP JUMPDEST PUSH1 0x0 DUP2 CALLDATALOAD SWAP1 POP PUSH2 0x271 DUP2 PUSH2 0x24B JUMP JUMPDEST SWAP3 SWAP2 POP POP JUMP JUMPDEST PUSH1 0x0 PUSH1 0x20 DUP3 DUP5 SUB SLT ISZERO PUSH2 0x28D JUMPI PUSH2 0x28C PUSH2 0x237 JUMP JUMPDEST JUMPDEST PUSH1 0x0 PUSH2 0x29B DUP5 DUP3 DUP6 ADD PUSH2 0x262 JUMP JUMPDEST SWAP2 POP POP SWAP3 SWAP2 POP POP JUMP JUMPDEST PUSH1 0x0 DUP2 MLOAD SWAP1 POP SWAP2 SWAP1 POP JUMP JUMPDEST PUSH1 0x0 DUP3 DUP3 MSTORE PUSH1 0x20 DUP3 ADD SWAP1 POP SWAP3 SWAP2 POP POP JUMP JUMPDEST PUSH1 0x0 JUMPDEST DUP4 DUP2 LT ISZERO PUSH2 0x2DE JUMPI DUP1 DUP3 ADD MLOAD DUP2 DUP5 ADD MSTORE PUSH1 0x20 DUP2 ADD SWAP1 POP PUSH2 0x2C3 JUMP JUMPDEST DUP4 DUP2 GT ISZERO PUSH2 0x2ED JUMPI PUSH1 0x0 DUP5 DUP5 ADD MSTORE JUMPDEST POP POP POP POP JUMP JUMPDEST PUSH1 0x0 PUSH1 0x1F NOT PUSH1 0x1F DUP4 ADD AND SWAP1 POP SWAP2 SWAP1 POP JUMP JUMPDEST PUSH1 0x0 PUSH2 0x30F DUP3 PUSH2 0x2A4 JUMP JUMPDEST PUSH2 0x319 DUP2 DUP6 PUSH2 0x2AF JUMP JUMPDEST SWAP4 POP PUSH2 0x329 DUP2 DUP6 PUSH1 0x20 DUP7 ADD PUSH2 0x2C0 JUMP JUMPDEST PUSH2 0x332 DUP2 PUSH2 0x2F3 JUMP JUMPDEST DUP5 ADD SWAP2 POP POP SWAP3 SWAP2 POP POP JUMP JUMPDEST PUSH1 0x0 PUSH1 0x20 DUP3 ADD SWAP1 POP DUP2 DUP2 SUB PUSH1 0x0 DUP4 ADD MSTORE PUSH2 0x357 DUP2 DUP5 PUSH2 0x304 JUMP JUMPDEST SWAP1 POP SWAP3 SWAP2 POP POP JUMP JUMPDEST PUSH2 0x368 DUP2 PUSH2 0x241 JUMP JUMPDEST DUP3 MSTORE POP POP JUMP JUMPDEST PUSH1 0x0 PUSH1 0x20 DUP3 ADD SWAP1 POP PUSH2 0x383 PUSH1 0x0 DUP4 ADD DUP5 PUSH2 0x35F JUMP JUMPDEST SWAP3 SWAP2 POP POP JUMP JUMPDEST PUSH32 0x4E487B7100000000000000000000000000000000000000000000000000000000 PUSH1 0x0 MSTORE PUSH1 0x22 PUSH1 0x4 MSTORE PUSH1 0x24 PUSH1 0x0 REVERT JUMPDEST PUSH1 0x0 PUSH1 0x2 DUP3 DIV SWAP1 POP PUSH1 0x1 DUP3 AND DUP1 PUSH2 0x3D0 JUMPI PUSH1 0x7F DUP3 AND SWAP2 POP JUMPDEST PUSH1 0x20 DUP3 LT DUP2 EQ ISZERO PUSH2 0x3E4 JUMPI PUSH2 0x3E3 PUSH2 0x389 JUMP JUMPDEST JUMPDEST POP SWAP2 SWAP1 POP JUMP JUMPDEST PUSH1 0x0 DUP1 REVERT JUMPDEST PUSH32 0x4E487B7100000000000000000000000000000000000000000000000000000000 PUSH1 0x0 MSTORE PUSH1 0x41 PUSH1 0x4 MSTORE PUSH1 0x24 PUSH1 0x0 REVERT JUMPDEST PUSH2 0x427 DUP3 PUSH2 0x2F3 JUMP JUMPDEST DUP2 ADD DUP2 DUP2 LT PUSH8 0xFFFFFFFFFFFFFFFF DUP3 GT OR ISZERO PUSH2 0x446 JUMPI PUSH2 0x445 PUSH2 0x3EF JUMP JUMPDEST JUMPDEST DUP1 PUSH1 0x40 MSTORE POP POP POP JUMP JUMPDEST PUSH1 0x0 PUSH2 0x459 PUSH2 0x22D JUMP JUMPDEST SWAP1 POP PUSH2 0x465 DUP3 DUP3 PUSH2 0x41E JUMP JUMPDEST SWAP2 SWAP1 POP JUMP JUMPDEST PUSH1 0x0 PUSH8 0xFFFFFFFFFFFFFFFF DUP3 GT ISZERO PUSH2 0x485 JUMPI PUSH2 0x484 PUSH2 0x3EF JUMP JUMPDEST JUMPDEST PUSH1 0x20 DUP3 MUL SWAP1 POP SWAP2 SWAP1 POP JUMP JUMPDEST PUSH1 0x0 DUP1 REVERT JUMPDEST PUSH1 0x0 DUP1 REVERT JUMPDEST PUSH1 0x0 PUSH8 0xFFFFFFFFFFFFFFFF DUP3 GT ISZERO PUSH2 0x4B5 JUMPI PUSH2 0x4B4 PUSH2 0x3EF JUMP JUMPDEST JUMPDEST PUSH2 0x4BE DUP3 PUSH2 0x2F3 JUMP JUMPDEST SWAP1 POP PUSH1 0x20 DUP2 ADD SWAP1 POP SWAP2 SWAP1 POP JUMP JUMPDEST PUSH1 0x0 PUSH2 0x4DE PUSH2 0x4D9 DUP5 PUSH2 0x49A JUMP JUMPDEST PUSH2 0x44F JUMP JUMPDEST SWAP1 POP DUP3 DUP2 MSTORE PUSH1 0x20 DUP2 ADD DUP5 DUP5 DUP5 ADD GT ISZERO PUSH2 0x4FA JUMPI PUSH2 0x4F9 PUSH2 0x495 JUMP JUMPDEST JUMPDEST PUSH2 0x505 DUP5 DUP3 DUP6 PUSH2 0x2C0 JUMP JUMPDEST POP SWAP4 SWAP3 POP POP POP JUMP JUMPDEST PUSH1 0x0 DUP3 PUSH1 0x1F DUP4 ADD SLT PUSH2 0x522 JUMPI PUSH2 0x521 PUSH2 0x3EA JUMP JUMPDEST JUMPDEST DUP2 MLOAD PUSH2 0x532 DUP5 DUP3 PUSH1 0x20 DUP7 ADD PUSH2 0x4CB JUMP JUMPDEST SWAP2 POP POP SWAP3 SWAP2 POP POP JUMP JUMPDEST PUSH1 0x0 PUSH2 0x54E PUSH2 0x549 DUP5 PUSH2 0x46A JUMP JUMPDEST PUSH2 0x44F JUMP JUMPDEST SWAP1 POP DUP1 PUSH1 0x20 DUP5 MUL DUP4 ADD DUP6 DUP2 GT ISZERO PUSH2 0x568 JUMPI PUSH2 0x567 PUSH2 0x490 JUMP JUMPDEST JUMPDEST DUP4 JUMPDEST DUP2 DUP2 LT ISZERO PUSH2 0x5AF JUMPI DUP1 MLOAD PUSH8 0xFFFFFFFFFFFFFFFF DUP2 GT ISZERO PUSH2 0x58D JUMPI PUSH2 0x58C PUSH2 0x3EA JUMP JUMPDEST JUMPDEST DUP1 DUP7 ADD PUSH2 0x59A DUP10 DUP3 PUSH2 0x50D JUMP JUMPDEST DUP6 MSTORE PUSH1 0x20 DUP6 ADD SWAP5 POP POP POP PUSH1 0x20 DUP2 ADD SWAP1 POP PUSH2 0x56A JUMP JUMPDEST POP POP POP SWAP4 SWAP3 POP POP POP JUMP JUMPDEST PUSH1 0x0 DUP3 PUSH1 0x1F DUP4 ADD SLT PUSH2 0x5CE JUMPI PUSH2 0x5CD PUSH2 0x3EA JUMP JUMPDEST JUMPDEST PUSH1 0x3 PUSH2 0x5DB DUP5 DUP3 DUP6 PUSH2 0x53B JUMP JUMPDEST SWAP2 POP POP SWAP3 SWAP2 POP POP JUMP JUMPDEST PUSH1 0x0 PUSH1 0x20 DUP3 DUP5 SUB SLT ISZERO PUSH2 0x5FA JUMPI PUSH2 0x5F9 PUSH2 0x237 JUMP JUMPDEST JUMPDEST PUSH1 0x0 DUP3 ADD MLOAD PUSH8 0xFFFFFFFFFFFFFFFF DUP2 GT ISZERO PUSH2 0x618 JUMPI PUSH2 0x617 PUSH2 0x23C JUMP JUMPDEST JUMPDEST PUSH2 0x624 DUP5 DUP3 DUP6 ADD PUSH2 0x5B9 JUMP JUMPDEST SWAP2 POP POP SWAP3 SWAP2 POP POP JUMP JUMPDEST PUSH32 0x4E487B7100000000000000000000000000000000000000000000000000000000 PUSH1 0x0 MSTORE PUSH1 0x32 PUSH1 0x4 MSTORE PUSH1 0x24 PUSH1 0x0 REVERT INVALID LOG2 PUSH5 0x6970667358 0x22 SLT KECCAK256 CALLDATACOPY 0x26 CODESIZE 0x4B 0xF 0xA9 0x23 0x28 PUSH31 0x22D84F3C30FC84DAB5085E65AB1BA69842CD03C35D57CD64736F6C63430008 ADDMOD STOP CALLER "
				},
				"gasEstimates": {
					"creation": {
						"codeDepositCost": "336400",
						"executionCost": "24641",
						"totalCost": "361041"
					},
					"external": {
						"rarityList(uint256)": "infinite",
						"rarityListFunc()": "infinite",
						"rarityRateFunc()": "351"
					}
				},
				"methodIdentifiers": {
					"rarityList(uint256)": "6fd3d9e2",
					"rarityListFunc()": "bb4a376b",
					"rarityRateFunc()": "f8d75807"
				}
			},
			"storageLayout": {
				"storage": [
					{
						"astId": 5,
						"contract": "contracts/TestInterview.sol:TestInterview",
						"label": "rarityList",
						"offset": 0,
						"slot": "0",
						"type": "t_array(t_string_storage)dyn_storage"
					},
					{
						"astId": 11,
						"contract": "contracts/TestInterview.sol:TestInterview",
						"label": "ObjINFT",
						"offset": 0,
						"slot": "1",
						"type": "t_contract(INFT)71"
					}
				],
				"types": {
					"t_array(t_string_storage)dyn_storage": {
						"base": "t_string_storage",
						"encoding": "dynamic_array",
						"label": "string[]",
						"numberOfBytes": "32"
					},
					"t_contract(INFT)71": {
						"encoding": "inplace",
						"label": "contract INFT",
						"numberOfBytes": "20"
					},
					"t_string_storage": {
						"encoding": "bytes",
						"label": "string",
						"numberOfBytes": "32"
					}
				}
			},
			"userdoc": {
				"kind": "user",
				"methods": {},
				"version": 1
			}
		}
	}
}