{
	"contracts/TestInterview.sol": {
		"TestInterview": {
			"abi": [
				{
					"inputs": [],
					"name": "ownerAddress",
					"outputs": [
						{
							"internalType": "address",
							"name": "",
							"type": "address"
						}
					],
					"stateMutability": "view",
					"type": "function"
				},
				{
					"inputs": [
						{
							"internalType": "uint256",
							"name": "",
							"type": "uint256"
						}
					],
					"name": "rarityList",
					"outputs": [
						{
							"internalType": "string",
							"name": "",
							"type": "string"
						}
					],
					"stateMutability": "view",
					"type": "function"
				},
				{
					"inputs": [],
					"name": "rarityListFunc",
					"outputs": [
						{
							"internalType": "string",
							"name": "",
							"type": "string"
						}
					],
					"stateMutability": "view",
					"type": "function"
				},
				{
					"inputs": [
						{
							"internalType": "string",
							"name": "_nameRarity",
							"type": "string"
						}
					],
					"name": "rarityRateFunc",
					"outputs": [
						{
							"internalType": "uint256",
							"name": "",
							"type": "uint256"
						}
					],
					"stateMutability": "view",
					"type": "function"
				}
			],
			"devdoc": {
				"kind": "dev",
				"methods": {},
				"version": 1
			},
			"evm": {
				"assembly": "    /* \"contracts/TestInterview.sol\":208:751  contract TestInterview {... */\n  mstore(0x40, 0x80)\n    /* \"contracts/TestInterview.sol\":291:333  0x50C7a09925375438D2cEe94C5c59266c6fFAAf8C */\n  0x50c7a09925375438d2cee94c5c59266c6ffaaf8c\n    /* \"contracts/TestInterview.sol\":271:334  INFT objINFT = INFT(0x50C7a09925375438D2cEe94C5c59266c6fFAAf8C) */\n  0x01\n  exp(0x0100, 0x00)\n  dup2\n  sload\n  dup2\n  0xffffffffffffffffffffffffffffffffffffffff\n  mul\n  not\n  and\n  swap1\n  dup4\n  0xffffffffffffffffffffffffffffffffffffffff\n  and\n  mul\n  or\n  swap1\n  sstore\n  pop\n    /* \"contracts/TestInterview.sol\":371:413  0xdBDdb8575F6bda11F1DC548A1B546463CC567C3d */\n  0xdbddb8575f6bda11f1dc548a1b546463cc567c3d\n    /* \"contracts/TestInterview.sol\":341:413  address public ownerAddress = 0xdBDdb8575F6bda11F1DC548A1B546463CC567C3d */\n  0x02\n  exp(0x0100, 0x00)\n  dup2\n  sload\n  dup2\n  0xffffffffffffffffffffffffffffffffffffffff\n  mul\n  not\n  and\n  swap1\n  dup4\n  0xffffffffffffffffffffffffffffffffffffffff\n  and\n  mul\n  or\n  swap1\n  sstore\n  pop\n    /* \"contracts/TestInterview.sol\":208:751  contract TestInterview {... */\n  callvalue\n  dup1\n  iszero\n  tag_1\n  jumpi\n  0x00\n  dup1\n  revert\ntag_1:\n  pop\n  dataSize(sub_0)\n  dup1\n  dataOffset(sub_0)\n  0x00\n  codecopy\n  0x00\n  return\nstop\n\nsub_0: assembly {\n        /* \"contracts/TestInterview.sol\":208:751  contract TestInterview {... */\n      mstore(0x40, 0x80)\n      callvalue\n      dup1\n      iszero\n      tag_1\n      jumpi\n      0x00\n      dup1\n      revert\n    tag_1:\n      pop\n      jumpi(tag_2, lt(calldatasize, 0x04))\n      shr(0xe0, calldataload(0x00))\n      dup1\n      0x6fd3d9e2\n      eq\n      tag_3\n      jumpi\n      dup1\n      0x8f84aa09\n      eq\n      tag_4\n      jumpi\n      dup1\n      0xa7beb5d0\n      eq\n      tag_5\n      jumpi\n      dup1\n      0xbb4a376b\n      eq\n      tag_6\n      jumpi\n    tag_2:\n      0x00\n      dup1\n      revert\n        /* \"contracts/TestInterview.sol\":238:264  string[] public rarityList */\n    tag_3:\n      tag_7\n      0x04\n      dup1\n      calldatasize\n      sub\n      dup2\n      add\n      swap1\n      tag_8\n      swap2\n      swap1\n      tag_9\n      jump\t// in\n    tag_8:\n      tag_10\n      jump\t// in\n    tag_7:\n      mload(0x40)\n      tag_11\n      swap2\n      swap1\n      tag_12\n      jump\t// in\n    tag_11:\n      mload(0x40)\n      dup1\n      swap2\n      sub\n      swap1\n      return\n        /* \"contracts/TestInterview.sol\":341:413  address public ownerAddress = 0xdBDdb8575F6bda11F1DC548A1B546463CC567C3d */\n    tag_4:\n      tag_13\n      tag_14\n      jump\t// in\n    tag_13:\n      mload(0x40)\n      tag_15\n      swap2\n      swap1\n      tag_16\n      jump\t// in\n    tag_15:\n      mload(0x40)\n      dup1\n      swap2\n      sub\n      swap1\n      return\n        /* \"contracts/TestInterview.sol\":607:748  function rarityRateFunc (string memory _nameRarity) public view returns(uint256) {... */\n    tag_5:\n      tag_17\n      0x04\n      dup1\n      calldatasize\n      sub\n      dup2\n      add\n      swap1\n      tag_18\n      swap2\n      swap1\n      tag_19\n      jump\t// in\n    tag_18:\n      tag_20\n      jump\t// in\n    tag_17:\n      mload(0x40)\n      tag_21\n      swap2\n      swap1\n      tag_22\n      jump\t// in\n    tag_21:\n      mload(0x40)\n      dup1\n      swap2\n      sub\n      swap1\n      return\n        /* \"contracts/TestInterview.sol\":422:599  function rarityListFunc () public view returns(string memory) {... */\n    tag_6:\n      tag_23\n      tag_24\n      jump\t// in\n    tag_23:\n      mload(0x40)\n      tag_25\n      swap2\n      swap1\n      tag_12\n      jump\t// in\n    tag_25:\n      mload(0x40)\n      dup1\n      swap2\n      sub\n      swap1\n      return\n        /* \"contracts/TestInterview.sol\":238:264  string[] public rarityList */\n    tag_10:\n      0x00\n      dup2\n      dup2\n      sload\n      dup2\n      lt\n      tag_26\n      jumpi\n      0x00\n      dup1\n      revert\n    tag_26:\n      swap1\n      0x00\n      mstore\n      keccak256(0x00, 0x20)\n      add\n      0x00\n      swap2\n      pop\n      swap1\n      pop\n      dup1\n      sload\n      tag_28\n      swap1\n      tag_29\n      jump\t// in\n    tag_28:\n      dup1\n      0x1f\n      add\n      0x20\n      dup1\n      swap2\n      div\n      mul\n      0x20\n      add\n      mload(0x40)\n      swap1\n      dup2\n      add\n      0x40\n      mstore\n      dup1\n      swap3\n      swap2\n      swap1\n      dup2\n      dup2\n      mstore\n      0x20\n      add\n      dup3\n      dup1\n      sload\n      tag_30\n      swap1\n      tag_29\n      jump\t// in\n    tag_30:\n      dup1\n      iszero\n      tag_31\n      jumpi\n      dup1\n      0x1f\n      lt\n      tag_32\n      jumpi\n      0x0100\n      dup1\n      dup4\n      sload\n      div\n      mul\n      dup4\n      mstore\n      swap2\n      0x20\n      add\n      swap2\n      jump(tag_31)\n    tag_32:\n      dup3\n      add\n      swap2\n      swap1\n      0x00\n      mstore\n      keccak256(0x00, 0x20)\n      swap1\n    tag_33:\n      dup2\n      sload\n      dup2\n      mstore\n      swap1\n      0x01\n      add\n      swap1\n      0x20\n      add\n      dup1\n      dup4\n      gt\n      tag_33\n      jumpi\n      dup3\n      swap1\n      sub\n      0x1f\n      and\n      dup3\n      add\n      swap2\n    tag_31:\n      pop\n      pop\n      pop\n      pop\n      pop\n      dup2\n      jump\t// out\n        /* \"contracts/TestInterview.sol\":341:413  address public ownerAddress = 0xdBDdb8575F6bda11F1DC548A1B546463CC567C3d */\n    tag_14:\n      0x02\n      0x00\n      swap1\n      sload\n      swap1\n      0x0100\n      exp\n      swap1\n      div\n      0xffffffffffffffffffffffffffffffffffffffff\n      and\n      dup2\n      jump\t// out\n        /* \"contracts/TestInterview.sol\":607:748  function rarityRateFunc (string memory _nameRarity) public view returns(uint256) {... */\n    tag_20:\n        /* \"contracts/TestInterview.sol\":679:686  uint256 */\n      0x00\n        /* \"contracts/TestInterview.sol\":706:713  objINFT */\n      0x01\n      0x00\n      swap1\n      sload\n      swap1\n      0x0100\n      exp\n      swap1\n      div\n      0xffffffffffffffffffffffffffffffffffffffff\n      and\n        /* \"contracts/TestInterview.sol\":706:727  objINFT.getRarityRate */\n      0xffffffffffffffffffffffffffffffffffffffff\n      and\n      0x278a7f33\n        /* \"contracts/TestInterview.sol\":728:739  _nameRarity */\n      dup4\n        /* \"contracts/TestInterview.sol\":706:740  objINFT.getRarityRate(_nameRarity) */\n      mload(0x40)\n      dup3\n      0xffffffff\n      and\n      0xe0\n      shl\n      dup2\n      mstore\n      0x04\n      add\n      tag_35\n      swap2\n      swap1\n      tag_12\n      jump\t// in\n    tag_35:\n      0x20\n      mload(0x40)\n      dup1\n      dup4\n      sub\n      dup2\n      dup7\n      dup1\n      extcodesize\n      iszero\n      dup1\n      iszero\n      tag_36\n      jumpi\n      0x00\n      dup1\n      revert\n    tag_36:\n      pop\n      gas\n      staticcall\n      iszero\n      dup1\n      iszero\n      tag_38\n      jumpi\n      returndatasize\n      0x00\n      dup1\n      returndatacopy\n      revert(0x00, returndatasize)\n    tag_38:\n      pop\n      pop\n      pop\n      pop\n      mload(0x40)\n      returndatasize\n      not(0x1f)\n      0x1f\n      dup3\n      add\n      and\n      dup3\n      add\n      dup1\n      0x40\n      mstore\n      pop\n      dup2\n      add\n      swap1\n      tag_39\n      swap2\n      swap1\n      tag_40\n      jump\t// in\n    tag_39:\n        /* \"contracts/TestInterview.sol\":699:740  return objINFT.getRarityRate(_nameRarity) */\n      0xff\n      and\n      swap1\n      pop\n        /* \"contracts/TestInterview.sol\":607:748  function rarityRateFunc (string memory _nameRarity) public view returns(uint256) {... */\n      swap2\n      swap1\n      pop\n      jump\t// out\n        /* \"contracts/TestInterview.sol\":422:599  function rarityListFunc () public view returns(string memory) {... */\n    tag_24:\n        /* \"contracts/TestInterview.sol\":469:482  string memory */\n      0x60\n        /* \"contracts/TestInterview.sol\":495:527  string[3] memory localRarityList */\n      0x00\n        /* \"contracts/TestInterview.sol\":530:537  objINFT */\n      0x01\n      0x00\n      swap1\n      sload\n      swap1\n      0x0100\n      exp\n      swap1\n      div\n      0xffffffffffffffffffffffffffffffffffffffff\n      and\n        /* \"contracts/TestInterview.sol\":530:551  objINFT.getRarityList */\n      0xffffffffffffffffffffffffffffffffffffffff\n      and\n      0x48441d5f\n        /* \"contracts/TestInterview.sol\":530:553  objINFT.getRarityList() */\n      mload(0x40)\n      dup2\n      0xffffffff\n      and\n      0xe0\n      shl\n      dup2\n      mstore\n      0x04\n      add\n      0x00\n      mload(0x40)\n      dup1\n      dup4\n      sub\n      dup2\n      dup7\n      dup1\n      extcodesize\n      iszero\n      dup1\n      iszero\n      tag_42\n      jumpi\n      0x00\n      dup1\n      revert\n    tag_42:\n      pop\n      gas\n      staticcall\n      iszero\n      dup1\n      iszero\n      tag_44\n      jumpi\n      returndatasize\n      0x00\n      dup1\n      returndatacopy\n      revert(0x00, returndatasize)\n    tag_44:\n      pop\n      pop\n      pop\n      pop\n      mload(0x40)\n      returndatasize\n      0x00\n      dup3\n      returndatacopy\n      returndatasize\n      not(0x1f)\n      0x1f\n      dup3\n      add\n      and\n      dup3\n      add\n      dup1\n      0x40\n      mstore\n      pop\n      dup2\n      add\n      swap1\n      tag_45\n      swap2\n      swap1\n      tag_46\n      jump\t// in\n    tag_45:\n        /* \"contracts/TestInterview.sol\":495:553  string[3] memory localRarityList = objINFT.getRarityList() */\n      swap1\n      pop\n        /* \"contracts/TestInterview.sol\":573:588  localRarityList */\n      dup1\n        /* \"contracts/TestInterview.sol\":589:590  1 */\n      0x01\n        /* \"contracts/TestInterview.sol\":573:591  localRarityList[1] */\n      0x03\n      dup2\n      lt\n      tag_47\n      jumpi\n      tag_48\n      tag_49\n      jump\t// in\n    tag_48:\n    tag_47:\n      0x20\n      mul\n      add\n      mload\n        /* \"contracts/TestInterview.sol\":566:591  return localRarityList[1] */\n      swap2\n      pop\n      pop\n        /* \"contracts/TestInterview.sol\":422:599  function rarityListFunc () public view returns(string memory) {... */\n      swap1\n      jump\t// out\n        /* \"#utility.yul\":7:82   */\n    tag_50:\n        /* \"#utility.yul\":40:46   */\n      0x00\n        /* \"#utility.yul\":73:75   */\n      0x40\n        /* \"#utility.yul\":67:76   */\n      mload\n        /* \"#utility.yul\":57:76   */\n      swap1\n      pop\n        /* \"#utility.yul\":7:82   */\n      swap1\n      jump\t// out\n        /* \"#utility.yul\":88:205   */\n    tag_51:\n        /* \"#utility.yul\":197:198   */\n      0x00\n        /* \"#utility.yul\":194:195   */\n      dup1\n        /* \"#utility.yul\":187:199   */\n      revert\n        /* \"#utility.yul\":211:328   */\n    tag_52:\n        /* \"#utility.yul\":320:321   */\n      0x00\n        /* \"#utility.yul\":317:318   */\n      dup1\n        /* \"#utility.yul\":310:322   */\n      revert\n        /* \"#utility.yul\":334:411   */\n    tag_53:\n        /* \"#utility.yul\":371:378   */\n      0x00\n        /* \"#utility.yul\":400:405   */\n      dup2\n        /* \"#utility.yul\":389:405   */\n      swap1\n      pop\n        /* \"#utility.yul\":334:411   */\n      swap2\n      swap1\n      pop\n      jump\t// out\n        /* \"#utility.yul\":417:539   */\n    tag_54:\n        /* \"#utility.yul\":490:514   */\n      tag_90\n        /* \"#utility.yul\":508:513   */\n      dup2\n        /* \"#utility.yul\":490:514   */\n      tag_53\n      jump\t// in\n    tag_90:\n        /* \"#utility.yul\":483:488   */\n      dup2\n        /* \"#utility.yul\":480:515   */\n      eq\n        /* \"#utility.yul\":470:533   */\n      tag_91\n      jumpi\n        /* \"#utility.yul\":529:530   */\n      0x00\n        /* \"#utility.yul\":526:527   */\n      dup1\n        /* \"#utility.yul\":519:531   */\n      revert\n        /* \"#utility.yul\":470:533   */\n    tag_91:\n        /* \"#utility.yul\":417:539   */\n      pop\n      jump\t// out\n        /* \"#utility.yul\":545:684   */\n    tag_55:\n        /* \"#utility.yul\":591:596   */\n      0x00\n        /* \"#utility.yul\":629:635   */\n      dup2\n        /* \"#utility.yul\":616:636   */\n      calldataload\n        /* \"#utility.yul\":607:636   */\n      swap1\n      pop\n        /* \"#utility.yul\":645:678   */\n      tag_93\n        /* \"#utility.yul\":672:677   */\n      dup2\n        /* \"#utility.yul\":645:678   */\n      tag_54\n      jump\t// in\n    tag_93:\n        /* \"#utility.yul\":545:684   */\n      swap3\n      swap2\n      pop\n      pop\n      jump\t// out\n        /* \"#utility.yul\":690:1019   */\n    tag_9:\n        /* \"#utility.yul\":749:755   */\n      0x00\n        /* \"#utility.yul\":798:800   */\n      0x20\n        /* \"#utility.yul\":786:795   */\n      dup3\n        /* \"#utility.yul\":777:784   */\n      dup5\n        /* \"#utility.yul\":773:796   */\n      sub\n        /* \"#utility.yul\":769:801   */\n      slt\n        /* \"#utility.yul\":766:885   */\n      iszero\n      tag_95\n      jumpi\n        /* \"#utility.yul\":804:883   */\n      tag_96\n      tag_51\n      jump\t// in\n    tag_96:\n        /* \"#utility.yul\":766:885   */\n    tag_95:\n        /* \"#utility.yul\":924:925   */\n      0x00\n        /* \"#utility.yul\":949:1002   */\n      tag_97\n        /* \"#utility.yul\":994:1001   */\n      dup5\n        /* \"#utility.yul\":985:991   */\n      dup3\n        /* \"#utility.yul\":974:983   */\n      dup6\n        /* \"#utility.yul\":970:992   */\n      add\n        /* \"#utility.yul\":949:1002   */\n      tag_55\n      jump\t// in\n    tag_97:\n        /* \"#utility.yul\":939:1002   */\n      swap2\n      pop\n        /* \"#utility.yul\":895:1012   */\n      pop\n        /* \"#utility.yul\":690:1019   */\n      swap3\n      swap2\n      pop\n      pop\n      jump\t// out\n        /* \"#utility.yul\":1025:1124   */\n    tag_56:\n        /* \"#utility.yul\":1077:1083   */\n      0x00\n        /* \"#utility.yul\":1111:1116   */\n      dup2\n        /* \"#utility.yul\":1105:1117   */\n      mload\n        /* \"#utility.yul\":1095:1117   */\n      swap1\n      pop\n        /* \"#utility.yul\":1025:1124   */\n      swap2\n      swap1\n      pop\n      jump\t// out\n        /* \"#utility.yul\":1130:1299   */\n    tag_57:\n        /* \"#utility.yul\":1214:1225   */\n      0x00\n        /* \"#utility.yul\":1248:1254   */\n      dup3\n        /* \"#utility.yul\":1243:1246   */\n      dup3\n        /* \"#utility.yul\":1236:1255   */\n      mstore\n        /* \"#utility.yul\":1288:1292   */\n      0x20\n        /* \"#utility.yul\":1283:1286   */\n      dup3\n        /* \"#utility.yul\":1279:1293   */\n      add\n        /* \"#utility.yul\":1264:1293   */\n      swap1\n      pop\n        /* \"#utility.yul\":1130:1299   */\n      swap3\n      swap2\n      pop\n      pop\n      jump\t// out\n        /* \"#utility.yul\":1305:1612   */\n    tag_58:\n        /* \"#utility.yul\":1373:1374   */\n      0x00\n        /* \"#utility.yul\":1383:1496   */\n    tag_101:\n        /* \"#utility.yul\":1397:1403   */\n      dup4\n        /* \"#utility.yul\":1394:1395   */\n      dup2\n        /* \"#utility.yul\":1391:1404   */\n      lt\n        /* \"#utility.yul\":1383:1496   */\n      iszero\n      tag_103\n      jumpi\n        /* \"#utility.yul\":1482:1483   */\n      dup1\n        /* \"#utility.yul\":1477:1480   */\n      dup3\n        /* \"#utility.yul\":1473:1484   */\n      add\n        /* \"#utility.yul\":1467:1485   */\n      mload\n        /* \"#utility.yul\":1463:1464   */\n      dup2\n        /* \"#utility.yul\":1458:1461   */\n      dup5\n        /* \"#utility.yul\":1454:1465   */\n      add\n        /* \"#utility.yul\":1447:1486   */\n      mstore\n        /* \"#utility.yul\":1419:1421   */\n      0x20\n        /* \"#utility.yul\":1416:1417   */\n      dup2\n        /* \"#utility.yul\":1412:1422   */\n      add\n        /* \"#utility.yul\":1407:1422   */\n      swap1\n      pop\n        /* \"#utility.yul\":1383:1496   */\n      jump(tag_101)\n    tag_103:\n        /* \"#utility.yul\":1514:1520   */\n      dup4\n        /* \"#utility.yul\":1511:1512   */\n      dup2\n        /* \"#utility.yul\":1508:1521   */\n      gt\n        /* \"#utility.yul\":1505:1606   */\n      iszero\n      tag_104\n      jumpi\n        /* \"#utility.yul\":1594:1595   */\n      0x00\n        /* \"#utility.yul\":1585:1591   */\n      dup5\n        /* \"#utility.yul\":1580:1583   */\n      dup5\n        /* \"#utility.yul\":1576:1592   */\n      add\n        /* \"#utility.yul\":1569:1596   */\n      mstore\n        /* \"#utility.yul\":1505:1606   */\n    tag_104:\n        /* \"#utility.yul\":1354:1612   */\n      pop\n        /* \"#utility.yul\":1305:1612   */\n      pop\n      pop\n      pop\n      jump\t// out\n        /* \"#utility.yul\":1618:1720   */\n    tag_59:\n        /* \"#utility.yul\":1659:1665   */\n      0x00\n        /* \"#utility.yul\":1710:1712   */\n      0x1f\n        /* \"#utility.yul\":1706:1713   */\n      not\n        /* \"#utility.yul\":1701:1703   */\n      0x1f\n        /* \"#utility.yul\":1694:1699   */\n      dup4\n        /* \"#utility.yul\":1690:1704   */\n      add\n        /* \"#utility.yul\":1686:1714   */\n      and\n        /* \"#utility.yul\":1676:1714   */\n      swap1\n      pop\n        /* \"#utility.yul\":1618:1720   */\n      swap2\n      swap1\n      pop\n      jump\t// out\n        /* \"#utility.yul\":1726:2090   */\n    tag_60:\n        /* \"#utility.yul\":1814:1817   */\n      0x00\n        /* \"#utility.yul\":1842:1881   */\n      tag_107\n        /* \"#utility.yul\":1875:1880   */\n      dup3\n        /* \"#utility.yul\":1842:1881   */\n      tag_56\n      jump\t// in\n    tag_107:\n        /* \"#utility.yul\":1897:1968   */\n      tag_108\n        /* \"#utility.yul\":1961:1967   */\n      dup2\n        /* \"#utility.yul\":1956:1959   */\n      dup6\n        /* \"#utility.yul\":1897:1968   */\n      tag_57\n      jump\t// in\n    tag_108:\n        /* \"#utility.yul\":1890:1968   */\n      swap4\n      pop\n        /* \"#utility.yul\":1977:2029   */\n      tag_109\n        /* \"#utility.yul\":2022:2028   */\n      dup2\n        /* \"#utility.yul\":2017:2020   */\n      dup6\n        /* \"#utility.yul\":2010:2014   */\n      0x20\n        /* \"#utility.yul\":2003:2008   */\n      dup7\n        /* \"#utility.yul\":1999:2015   */\n      add\n        /* \"#utility.yul\":1977:2029   */\n      tag_58\n      jump\t// in\n    tag_109:\n        /* \"#utility.yul\":2054:2083   */\n      tag_110\n        /* \"#utility.yul\":2076:2082   */\n      dup2\n        /* \"#utility.yul\":2054:2083   */\n      tag_59\n      jump\t// in\n    tag_110:\n        /* \"#utility.yul\":2049:2052   */\n      dup5\n        /* \"#utility.yul\":2045:2084   */\n      add\n        /* \"#utility.yul\":2038:2084   */\n      swap2\n      pop\n        /* \"#utility.yul\":1818:2090   */\n      pop\n        /* \"#utility.yul\":1726:2090   */\n      swap3\n      swap2\n      pop\n      pop\n      jump\t// out\n        /* \"#utility.yul\":2096:2409   */\n    tag_12:\n        /* \"#utility.yul\":2209:2213   */\n      0x00\n        /* \"#utility.yul\":2247:2249   */\n      0x20\n        /* \"#utility.yul\":2236:2245   */\n      dup3\n        /* \"#utility.yul\":2232:2250   */\n      add\n        /* \"#utility.yul\":2224:2250   */\n      swap1\n      pop\n        /* \"#utility.yul\":2296:2305   */\n      dup2\n        /* \"#utility.yul\":2290:2294   */\n      dup2\n        /* \"#utility.yul\":2286:2306   */\n      sub\n        /* \"#utility.yul\":2282:2283   */\n      0x00\n        /* \"#utility.yul\":2271:2280   */\n      dup4\n        /* \"#utility.yul\":2267:2284   */\n      add\n        /* \"#utility.yul\":2260:2307   */\n      mstore\n        /* \"#utility.yul\":2324:2402   */\n      tag_112\n        /* \"#utility.yul\":2397:2401   */\n      dup2\n        /* \"#utility.yul\":2388:2394   */\n      dup5\n        /* \"#utility.yul\":2324:2402   */\n      tag_60\n      jump\t// in\n    tag_112:\n        /* \"#utility.yul\":2316:2402   */\n      swap1\n      pop\n        /* \"#utility.yul\":2096:2409   */\n      swap3\n      swap2\n      pop\n      pop\n      jump\t// out\n        /* \"#utility.yul\":2415:2541   */\n    tag_61:\n        /* \"#utility.yul\":2452:2459   */\n      0x00\n        /* \"#utility.yul\":2492:2534   */\n      0xffffffffffffffffffffffffffffffffffffffff\n        /* \"#utility.yul\":2485:2490   */\n      dup3\n        /* \"#utility.yul\":2481:2535   */\n      and\n        /* \"#utility.yul\":2470:2535   */\n      swap1\n      pop\n        /* \"#utility.yul\":2415:2541   */\n      swap2\n      swap1\n      pop\n      jump\t// out\n        /* \"#utility.yul\":2547:2643   */\n    tag_62:\n        /* \"#utility.yul\":2584:2591   */\n      0x00\n        /* \"#utility.yul\":2613:2637   */\n      tag_115\n        /* \"#utility.yul\":2631:2636   */\n      dup3\n        /* \"#utility.yul\":2613:2637   */\n      tag_61\n      jump\t// in\n    tag_115:\n        /* \"#utility.yul\":2602:2637   */\n      swap1\n      pop\n        /* \"#utility.yul\":2547:2643   */\n      swap2\n      swap1\n      pop\n      jump\t// out\n        /* \"#utility.yul\":2649:2767   */\n    tag_63:\n        /* \"#utility.yul\":2736:2760   */\n      tag_117\n        /* \"#utility.yul\":2754:2759   */\n      dup2\n        /* \"#utility.yul\":2736:2760   */\n      tag_62\n      jump\t// in\n    tag_117:\n        /* \"#utility.yul\":2731:2734   */\n      dup3\n        /* \"#utility.yul\":2724:2761   */\n      mstore\n        /* \"#utility.yul\":2649:2767   */\n      pop\n      pop\n      jump\t// out\n        /* \"#utility.yul\":2773:2995   */\n    tag_16:\n        /* \"#utility.yul\":2866:2870   */\n      0x00\n        /* \"#utility.yul\":2904:2906   */\n      0x20\n        /* \"#utility.yul\":2893:2902   */\n      dup3\n        /* \"#utility.yul\":2889:2907   */\n      add\n        /* \"#utility.yul\":2881:2907   */\n      swap1\n      pop\n        /* \"#utility.yul\":2917:2988   */\n      tag_119\n        /* \"#utility.yul\":2985:2986   */\n      0x00\n        /* \"#utility.yul\":2974:2983   */\n      dup4\n        /* \"#utility.yul\":2970:2987   */\n      add\n        /* \"#utility.yul\":2961:2967   */\n      dup5\n        /* \"#utility.yul\":2917:2988   */\n      tag_63\n      jump\t// in\n    tag_119:\n        /* \"#utility.yul\":2773:2995   */\n      swap3\n      swap2\n      pop\n      pop\n      jump\t// out\n        /* \"#utility.yul\":3001:3118   */\n    tag_64:\n        /* \"#utility.yul\":3110:3111   */\n      0x00\n        /* \"#utility.yul\":3107:3108   */\n      dup1\n        /* \"#utility.yul\":3100:3112   */\n      revert\n        /* \"#utility.yul\":3124:3241   */\n    tag_65:\n        /* \"#utility.yul\":3233:3234   */\n      0x00\n        /* \"#utility.yul\":3230:3231   */\n      dup1\n        /* \"#utility.yul\":3223:3235   */\n      revert\n        /* \"#utility.yul\":3247:3427   */\n    tag_66:\n        /* \"#utility.yul\":3295:3372   */\n      0x4e487b7100000000000000000000000000000000000000000000000000000000\n        /* \"#utility.yul\":3292:3293   */\n      0x00\n        /* \"#utility.yul\":3285:3373   */\n      mstore\n        /* \"#utility.yul\":3392:3396   */\n      0x41\n        /* \"#utility.yul\":3389:3390   */\n      0x04\n        /* \"#utility.yul\":3382:3397   */\n      mstore\n        /* \"#utility.yul\":3416:3420   */\n      0x24\n        /* \"#utility.yul\":3413:3414   */\n      0x00\n        /* \"#utility.yul\":3406:3421   */\n      revert\n        /* \"#utility.yul\":3433:3714   */\n    tag_67:\n        /* \"#utility.yul\":3516:3543   */\n      tag_124\n        /* \"#utility.yul\":3538:3542   */\n      dup3\n        /* \"#utility.yul\":3516:3543   */\n      tag_59\n      jump\t// in\n    tag_124:\n        /* \"#utility.yul\":3508:3514   */\n      dup2\n        /* \"#utility.yul\":3504:3544   */\n      add\n        /* \"#utility.yul\":3646:3652   */\n      dup2\n        /* \"#utility.yul\":3634:3644   */\n      dup2\n        /* \"#utility.yul\":3631:3653   */\n      lt\n        /* \"#utility.yul\":3610:3628   */\n      0xffffffffffffffff\n        /* \"#utility.yul\":3598:3608   */\n      dup3\n        /* \"#utility.yul\":3595:3629   */\n      gt\n        /* \"#utility.yul\":3592:3654   */\n      or\n        /* \"#utility.yul\":3589:3677   */\n      iszero\n      tag_125\n      jumpi\n        /* \"#utility.yul\":3657:3675   */\n      tag_126\n      tag_66\n      jump\t// in\n    tag_126:\n        /* \"#utility.yul\":3589:3677   */\n    tag_125:\n        /* \"#utility.yul\":3697:3707   */\n      dup1\n        /* \"#utility.yul\":3693:3695   */\n      0x40\n        /* \"#utility.yul\":3686:3708   */\n      mstore\n        /* \"#utility.yul\":3476:3714   */\n      pop\n        /* \"#utility.yul\":3433:3714   */\n      pop\n      pop\n      jump\t// out\n        /* \"#utility.yul\":3720:3849   */\n    tag_68:\n        /* \"#utility.yul\":3754:3760   */\n      0x00\n        /* \"#utility.yul\":3781:3801   */\n      tag_128\n      tag_50\n      jump\t// in\n    tag_128:\n        /* \"#utility.yul\":3771:3801   */\n      swap1\n      pop\n        /* \"#utility.yul\":3810:3843   */\n      tag_129\n        /* \"#utility.yul\":3838:3842   */\n      dup3\n        /* \"#utility.yul\":3830:3836   */\n      dup3\n        /* \"#utility.yul\":3810:3843   */\n      tag_67\n      jump\t// in\n    tag_129:\n        /* \"#utility.yul\":3720:3849   */\n      swap2\n      swap1\n      pop\n      jump\t// out\n        /* \"#utility.yul\":3855:4163   */\n    tag_69:\n        /* \"#utility.yul\":3917:3921   */\n      0x00\n        /* \"#utility.yul\":4007:4025   */\n      0xffffffffffffffff\n        /* \"#utility.yul\":3999:4005   */\n      dup3\n        /* \"#utility.yul\":3996:4026   */\n      gt\n        /* \"#utility.yul\":3993:4049   */\n      iszero\n      tag_131\n      jumpi\n        /* \"#utility.yul\":4029:4047   */\n      tag_132\n      tag_66\n      jump\t// in\n    tag_132:\n        /* \"#utility.yul\":3993:4049   */\n    tag_131:\n        /* \"#utility.yul\":4067:4096   */\n      tag_133\n        /* \"#utility.yul\":4089:4095   */\n      dup3\n        /* \"#utility.yul\":4067:4096   */\n      tag_59\n      jump\t// in\n    tag_133:\n        /* \"#utility.yul\":4059:4096   */\n      swap1\n      pop\n        /* \"#utility.yul\":4151:4155   */\n      0x20\n        /* \"#utility.yul\":4145:4149   */\n      dup2\n        /* \"#utility.yul\":4141:4156   */\n      add\n        /* \"#utility.yul\":4133:4156   */\n      swap1\n      pop\n        /* \"#utility.yul\":3855:4163   */\n      swap2\n      swap1\n      pop\n      jump\t// out\n        /* \"#utility.yul\":4169:4323   */\n    tag_70:\n        /* \"#utility.yul\":4253:4259   */\n      dup3\n        /* \"#utility.yul\":4248:4251   */\n      dup2\n        /* \"#utility.yul\":4243:4246   */\n      dup4\n        /* \"#utility.yul\":4230:4260   */\n      calldatacopy\n        /* \"#utility.yul\":4315:4316   */\n      0x00\n        /* \"#utility.yul\":4306:4312   */\n      dup4\n        /* \"#utility.yul\":4301:4304   */\n      dup4\n        /* \"#utility.yul\":4297:4313   */\n      add\n        /* \"#utility.yul\":4290:4317   */\n      mstore\n        /* \"#utility.yul\":4169:4323   */\n      pop\n      pop\n      pop\n      jump\t// out\n        /* \"#utility.yul\":4329:4741   */\n    tag_71:\n        /* \"#utility.yul\":4407:4412   */\n      0x00\n        /* \"#utility.yul\":4432:4498   */\n      tag_136\n        /* \"#utility.yul\":4448:4497   */\n      tag_137\n        /* \"#utility.yul\":4490:4496   */\n      dup5\n        /* \"#utility.yul\":4448:4497   */\n      tag_69\n      jump\t// in\n    tag_137:\n        /* \"#utility.yul\":4432:4498   */\n      tag_68\n      jump\t// in\n    tag_136:\n        /* \"#utility.yul\":4423:4498   */\n      swap1\n      pop\n        /* \"#utility.yul\":4521:4527   */\n      dup3\n        /* \"#utility.yul\":4514:4519   */\n      dup2\n        /* \"#utility.yul\":4507:4528   */\n      mstore\n        /* \"#utility.yul\":4559:4563   */\n      0x20\n        /* \"#utility.yul\":4552:4557   */\n      dup2\n        /* \"#utility.yul\":4548:4564   */\n      add\n        /* \"#utility.yul\":4597:4600   */\n      dup5\n        /* \"#utility.yul\":4588:4594   */\n      dup5\n        /* \"#utility.yul\":4583:4586   */\n      dup5\n        /* \"#utility.yul\":4579:4595   */\n      add\n        /* \"#utility.yul\":4576:4601   */\n      gt\n        /* \"#utility.yul\":4573:4685   */\n      iszero\n      tag_138\n      jumpi\n        /* \"#utility.yul\":4604:4683   */\n      tag_139\n      tag_65\n      jump\t// in\n    tag_139:\n        /* \"#utility.yul\":4573:4685   */\n    tag_138:\n        /* \"#utility.yul\":4694:4735   */\n      tag_140\n        /* \"#utility.yul\":4728:4734   */\n      dup5\n        /* \"#utility.yul\":4723:4726   */\n      dup3\n        /* \"#utility.yul\":4718:4721   */\n      dup6\n        /* \"#utility.yul\":4694:4735   */\n      tag_70\n      jump\t// in\n    tag_140:\n        /* \"#utility.yul\":4413:4741   */\n      pop\n        /* \"#utility.yul\":4329:4741   */\n      swap4\n      swap3\n      pop\n      pop\n      pop\n      jump\t// out\n        /* \"#utility.yul\":4761:5101   */\n    tag_72:\n        /* \"#utility.yul\":4817:4822   */\n      0x00\n        /* \"#utility.yul\":4866:4869   */\n      dup3\n        /* \"#utility.yul\":4859:4863   */\n      0x1f\n        /* \"#utility.yul\":4851:4857   */\n      dup4\n        /* \"#utility.yul\":4847:4864   */\n      add\n        /* \"#utility.yul\":4843:4870   */\n      slt\n        /* \"#utility.yul\":4833:4955   */\n      tag_142\n      jumpi\n        /* \"#utility.yul\":4874:4953   */\n      tag_143\n      tag_64\n      jump\t// in\n    tag_143:\n        /* \"#utility.yul\":4833:4955   */\n    tag_142:\n        /* \"#utility.yul\":4991:4997   */\n      dup2\n        /* \"#utility.yul\":4978:4998   */\n      calldataload\n        /* \"#utility.yul\":5016:5095   */\n      tag_144\n        /* \"#utility.yul\":5091:5094   */\n      dup5\n        /* \"#utility.yul\":5083:5089   */\n      dup3\n        /* \"#utility.yul\":5076:5080   */\n      0x20\n        /* \"#utility.yul\":5068:5074   */\n      dup7\n        /* \"#utility.yul\":5064:5081   */\n      add\n        /* \"#utility.yul\":5016:5095   */\n      tag_71\n      jump\t// in\n    tag_144:\n        /* \"#utility.yul\":5007:5095   */\n      swap2\n      pop\n        /* \"#utility.yul\":4823:5101   */\n      pop\n        /* \"#utility.yul\":4761:5101   */\n      swap3\n      swap2\n      pop\n      pop\n      jump\t// out\n        /* \"#utility.yul\":5107:5616   */\n    tag_19:\n        /* \"#utility.yul\":5176:5182   */\n      0x00\n        /* \"#utility.yul\":5225:5227   */\n      0x20\n        /* \"#utility.yul\":5213:5222   */\n      dup3\n        /* \"#utility.yul\":5204:5211   */\n      dup5\n        /* \"#utility.yul\":5200:5223   */\n      sub\n        /* \"#utility.yul\":5196:5228   */\n      slt\n        /* \"#utility.yul\":5193:5312   */\n      iszero\n      tag_146\n      jumpi\n        /* \"#utility.yul\":5231:5310   */\n      tag_147\n      tag_51\n      jump\t// in\n    tag_147:\n        /* \"#utility.yul\":5193:5312   */\n    tag_146:\n        /* \"#utility.yul\":5379:5380   */\n      0x00\n        /* \"#utility.yul\":5368:5377   */\n      dup3\n        /* \"#utility.yul\":5364:5381   */\n      add\n        /* \"#utility.yul\":5351:5382   */\n      calldataload\n        /* \"#utility.yul\":5409:5427   */\n      0xffffffffffffffff\n        /* \"#utility.yul\":5401:5407   */\n      dup2\n        /* \"#utility.yul\":5398:5428   */\n      gt\n        /* \"#utility.yul\":5395:5512   */\n      iszero\n      tag_148\n      jumpi\n        /* \"#utility.yul\":5431:5510   */\n      tag_149\n      tag_52\n      jump\t// in\n    tag_149:\n        /* \"#utility.yul\":5395:5512   */\n    tag_148:\n        /* \"#utility.yul\":5536:5599   */\n      tag_150\n        /* \"#utility.yul\":5591:5598   */\n      dup5\n        /* \"#utility.yul\":5582:5588   */\n      dup3\n        /* \"#utility.yul\":5571:5580   */\n      dup6\n        /* \"#utility.yul\":5567:5589   */\n      add\n        /* \"#utility.yul\":5536:5599   */\n      tag_72\n      jump\t// in\n    tag_150:\n        /* \"#utility.yul\":5526:5599   */\n      swap2\n      pop\n        /* \"#utility.yul\":5322:5609   */\n      pop\n        /* \"#utility.yul\":5107:5616   */\n      swap3\n      swap2\n      pop\n      pop\n      jump\t// out\n        /* \"#utility.yul\":5622:5740   */\n    tag_73:\n        /* \"#utility.yul\":5709:5733   */\n      tag_152\n        /* \"#utility.yul\":5727:5732   */\n      dup2\n        /* \"#utility.yul\":5709:5733   */\n      tag_53\n      jump\t// in\n    tag_152:\n        /* \"#utility.yul\":5704:5707   */\n      dup3\n        /* \"#utility.yul\":5697:5734   */\n      mstore\n        /* \"#utility.yul\":5622:5740   */\n      pop\n      pop\n      jump\t// out\n        /* \"#utility.yul\":5746:5968   */\n    tag_22:\n        /* \"#utility.yul\":5839:5843   */\n      0x00\n        /* \"#utility.yul\":5877:5879   */\n      0x20\n        /* \"#utility.yul\":5866:5875   */\n      dup3\n        /* \"#utility.yul\":5862:5880   */\n      add\n        /* \"#utility.yul\":5854:5880   */\n      swap1\n      pop\n        /* \"#utility.yul\":5890:5961   */\n      tag_154\n        /* \"#utility.yul\":5958:5959   */\n      0x00\n        /* \"#utility.yul\":5947:5956   */\n      dup4\n        /* \"#utility.yul\":5943:5960   */\n      add\n        /* \"#utility.yul\":5934:5940   */\n      dup5\n        /* \"#utility.yul\":5890:5961   */\n      tag_73\n      jump\t// in\n    tag_154:\n        /* \"#utility.yul\":5746:5968   */\n      swap3\n      swap2\n      pop\n      pop\n      jump\t// out\n        /* \"#utility.yul\":5974:6154   */\n    tag_74:\n        /* \"#utility.yul\":6022:6099   */\n      0x4e487b7100000000000000000000000000000000000000000000000000000000\n        /* \"#utility.yul\":6019:6020   */\n      0x00\n        /* \"#utility.yul\":6012:6100   */\n      mstore\n        /* \"#utility.yul\":6119:6123   */\n      0x22\n        /* \"#utility.yul\":6116:6117   */\n      0x04\n        /* \"#utility.yul\":6109:6124   */\n      mstore\n        /* \"#utility.yul\":6143:6147   */\n      0x24\n        /* \"#utility.yul\":6140:6141   */\n      0x00\n        /* \"#utility.yul\":6133:6148   */\n      revert\n        /* \"#utility.yul\":6160:6480   */\n    tag_29:\n        /* \"#utility.yul\":6204:6210   */\n      0x00\n        /* \"#utility.yul\":6241:6242   */\n      0x02\n        /* \"#utility.yul\":6235:6239   */\n      dup3\n        /* \"#utility.yul\":6231:6243   */\n      div\n        /* \"#utility.yul\":6221:6243   */\n      swap1\n      pop\n        /* \"#utility.yul\":6288:6289   */\n      0x01\n        /* \"#utility.yul\":6282:6286   */\n      dup3\n        /* \"#utility.yul\":6278:6290   */\n      and\n        /* \"#utility.yul\":6309:6327   */\n      dup1\n        /* \"#utility.yul\":6299:6380   */\n      tag_157\n      jumpi\n        /* \"#utility.yul\":6365:6369   */\n      0x7f\n        /* \"#utility.yul\":6357:6363   */\n      dup3\n        /* \"#utility.yul\":6353:6370   */\n      and\n        /* \"#utility.yul\":6343:6370   */\n      swap2\n      pop\n        /* \"#utility.yul\":6299:6380   */\n    tag_157:\n        /* \"#utility.yul\":6427:6429   */\n      0x20\n        /* \"#utility.yul\":6419:6425   */\n      dup3\n        /* \"#utility.yul\":6416:6430   */\n      lt\n        /* \"#utility.yul\":6396:6414   */\n      dup2\n        /* \"#utility.yul\":6393:6431   */\n      eq\n        /* \"#utility.yul\":6390:6474   */\n      iszero\n      tag_158\n      jumpi\n        /* \"#utility.yul\":6446:6464   */\n      tag_159\n      tag_74\n      jump\t// in\n    tag_159:\n        /* \"#utility.yul\":6390:6474   */\n    tag_158:\n        /* \"#utility.yul\":6211:6480   */\n      pop\n        /* \"#utility.yul\":6160:6480   */\n      swap2\n      swap1\n      pop\n      jump\t// out\n        /* \"#utility.yul\":6486:6572   */\n    tag_75:\n        /* \"#utility.yul\":6521:6528   */\n      0x00\n        /* \"#utility.yul\":6561:6565   */\n      0xff\n        /* \"#utility.yul\":6554:6559   */\n      dup3\n        /* \"#utility.yul\":6550:6566   */\n      and\n        /* \"#utility.yul\":6539:6566   */\n      swap1\n      pop\n        /* \"#utility.yul\":6486:6572   */\n      swap2\n      swap1\n      pop\n      jump\t// out\n        /* \"#utility.yul\":6578:6696   */\n    tag_76:\n        /* \"#utility.yul\":6649:6671   */\n      tag_162\n        /* \"#utility.yul\":6665:6670   */\n      dup2\n        /* \"#utility.yul\":6649:6671   */\n      tag_75\n      jump\t// in\n    tag_162:\n        /* \"#utility.yul\":6642:6647   */\n      dup2\n        /* \"#utility.yul\":6639:6672   */\n      eq\n        /* \"#utility.yul\":6629:6690   */\n      tag_163\n      jumpi\n        /* \"#utility.yul\":6686:6687   */\n      0x00\n        /* \"#utility.yul\":6683:6684   */\n      dup1\n        /* \"#utility.yul\":6676:6688   */\n      revert\n        /* \"#utility.yul\":6629:6690   */\n    tag_163:\n        /* \"#utility.yul\":6578:6696   */\n      pop\n      jump\t// out\n        /* \"#utility.yul\":6702:6841   */\n    tag_77:\n        /* \"#utility.yul\":6757:6762   */\n      0x00\n        /* \"#utility.yul\":6788:6794   */\n      dup2\n        /* \"#utility.yul\":6782:6795   */\n      mload\n        /* \"#utility.yul\":6773:6795   */\n      swap1\n      pop\n        /* \"#utility.yul\":6804:6835   */\n      tag_165\n        /* \"#utility.yul\":6829:6834   */\n      dup2\n        /* \"#utility.yul\":6804:6835   */\n      tag_76\n      jump\t// in\n    tag_165:\n        /* \"#utility.yul\":6702:6841   */\n      swap3\n      swap2\n      pop\n      pop\n      jump\t// out\n        /* \"#utility.yul\":6847:7194   */\n    tag_40:\n        /* \"#utility.yul\":6915:6921   */\n      0x00\n        /* \"#utility.yul\":6964:6966   */\n      0x20\n        /* \"#utility.yul\":6952:6961   */\n      dup3\n        /* \"#utility.yul\":6943:6950   */\n      dup5\n        /* \"#utility.yul\":6939:6962   */\n      sub\n        /* \"#utility.yul\":6935:6967   */\n      slt\n        /* \"#utility.yul\":6932:7051   */\n      iszero\n      tag_167\n      jumpi\n        /* \"#utility.yul\":6970:7049   */\n      tag_168\n      tag_51\n      jump\t// in\n    tag_168:\n        /* \"#utility.yul\":6932:7051   */\n    tag_167:\n        /* \"#utility.yul\":7090:7091   */\n      0x00\n        /* \"#utility.yul\":7115:7177   */\n      tag_169\n        /* \"#utility.yul\":7169:7176   */\n      dup5\n        /* \"#utility.yul\":7160:7166   */\n      dup3\n        /* \"#utility.yul\":7149:7158   */\n      dup6\n        /* \"#utility.yul\":7145:7167   */\n      add\n        /* \"#utility.yul\":7115:7177   */\n      tag_77\n      jump\t// in\n    tag_169:\n        /* \"#utility.yul\":7105:7177   */\n      swap2\n      pop\n        /* \"#utility.yul\":7061:7187   */\n      pop\n        /* \"#utility.yul\":6847:7194   */\n      swap3\n      swap2\n      pop\n      pop\n      jump\t// out\n        /* \"#utility.yul\":7200:7459   */\n    tag_78:\n        /* \"#utility.yul\":7285:7289   */\n      0x00\n        /* \"#utility.yul\":7375:7393   */\n      0xffffffffffffffff\n        /* \"#utility.yul\":7367:7373   */\n      dup3\n        /* \"#utility.yul\":7364:7394   */\n      gt\n        /* \"#utility.yul\":7361:7417   */\n      iszero\n      tag_171\n      jumpi\n        /* \"#utility.yul\":7397:7415   */\n      tag_172\n      tag_66\n      jump\t// in\n    tag_172:\n        /* \"#utility.yul\":7361:7417   */\n    tag_171:\n        /* \"#utility.yul\":7447:7451   */\n      0x20\n        /* \"#utility.yul\":7439:7445   */\n      dup3\n        /* \"#utility.yul\":7435:7452   */\n      mul\n        /* \"#utility.yul\":7427:7452   */\n      swap1\n      pop\n        /* \"#utility.yul\":7200:7459   */\n      swap2\n      swap1\n      pop\n      jump\t// out\n        /* \"#utility.yul\":7465:7582   */\n    tag_79:\n        /* \"#utility.yul\":7574:7575   */\n      0x00\n        /* \"#utility.yul\":7571:7572   */\n      dup1\n        /* \"#utility.yul\":7564:7576   */\n      revert\n        /* \"#utility.yul\":7588:8009   */\n    tag_80:\n        /* \"#utility.yul\":7677:7682   */\n      0x00\n        /* \"#utility.yul\":7702:7768   */\n      tag_175\n        /* \"#utility.yul\":7718:7767   */\n      tag_176\n        /* \"#utility.yul\":7760:7766   */\n      dup5\n        /* \"#utility.yul\":7718:7767   */\n      tag_69\n      jump\t// in\n    tag_176:\n        /* \"#utility.yul\":7702:7768   */\n      tag_68\n      jump\t// in\n    tag_175:\n        /* \"#utility.yul\":7693:7768   */\n      swap1\n      pop\n        /* \"#utility.yul\":7791:7797   */\n      dup3\n        /* \"#utility.yul\":7784:7789   */\n      dup2\n        /* \"#utility.yul\":7777:7798   */\n      mstore\n        /* \"#utility.yul\":7829:7833   */\n      0x20\n        /* \"#utility.yul\":7822:7827   */\n      dup2\n        /* \"#utility.yul\":7818:7834   */\n      add\n        /* \"#utility.yul\":7867:7870   */\n      dup5\n        /* \"#utility.yul\":7858:7864   */\n      dup5\n        /* \"#utility.yul\":7853:7856   */\n      dup5\n        /* \"#utility.yul\":7849:7865   */\n      add\n        /* \"#utility.yul\":7846:7871   */\n      gt\n        /* \"#utility.yul\":7843:7955   */\n      iszero\n      tag_177\n      jumpi\n        /* \"#utility.yul\":7874:7953   */\n      tag_178\n      tag_65\n      jump\t// in\n    tag_178:\n        /* \"#utility.yul\":7843:7955   */\n    tag_177:\n        /* \"#utility.yul\":7964:8003   */\n      tag_179\n        /* \"#utility.yul\":7996:8002   */\n      dup5\n        /* \"#utility.yul\":7991:7994   */\n      dup3\n        /* \"#utility.yul\":7986:7989   */\n      dup6\n        /* \"#utility.yul\":7964:8003   */\n      tag_58\n      jump\t// in\n    tag_179:\n        /* \"#utility.yul\":7683:8009   */\n      pop\n        /* \"#utility.yul\":7588:8009   */\n      swap4\n      swap3\n      pop\n      pop\n      pop\n      jump\t// out\n        /* \"#utility.yul\":8029:8384   */\n    tag_81:\n        /* \"#utility.yul\":8096:8101   */\n      0x00\n        /* \"#utility.yul\":8145:8148   */\n      dup3\n        /* \"#utility.yul\":8138:8142   */\n      0x1f\n        /* \"#utility.yul\":8130:8136   */\n      dup4\n        /* \"#utility.yul\":8126:8143   */\n      add\n        /* \"#utility.yul\":8122:8149   */\n      slt\n        /* \"#utility.yul\":8112:8234   */\n      tag_181\n      jumpi\n        /* \"#utility.yul\":8153:8232   */\n      tag_182\n      tag_64\n      jump\t// in\n    tag_182:\n        /* \"#utility.yul\":8112:8234   */\n    tag_181:\n        /* \"#utility.yul\":8263:8269   */\n      dup2\n        /* \"#utility.yul\":8257:8270   */\n      mload\n        /* \"#utility.yul\":8288:8378   */\n      tag_183\n        /* \"#utility.yul\":8374:8377   */\n      dup5\n        /* \"#utility.yul\":8366:8372   */\n      dup3\n        /* \"#utility.yul\":8359:8363   */\n      0x20\n        /* \"#utility.yul\":8351:8357   */\n      dup7\n        /* \"#utility.yul\":8347:8364   */\n      add\n        /* \"#utility.yul\":8288:8378   */\n      tag_80\n      jump\t// in\n    tag_183:\n        /* \"#utility.yul\":8279:8378   */\n      swap2\n      pop\n        /* \"#utility.yul\":8102:8384   */\n      pop\n        /* \"#utility.yul\":8029:8384   */\n      swap3\n      swap2\n      pop\n      pop\n      jump\t// out\n        /* \"#utility.yul\":8407:9300   */\n    tag_82:\n        /* \"#utility.yul\":8522:8527   */\n      0x00\n        /* \"#utility.yul\":8547:8636   */\n      tag_185\n        /* \"#utility.yul\":8563:8635   */\n      tag_186\n        /* \"#utility.yul\":8628:8634   */\n      dup5\n        /* \"#utility.yul\":8563:8635   */\n      tag_78\n      jump\t// in\n    tag_186:\n        /* \"#utility.yul\":8547:8636   */\n      tag_68\n      jump\t// in\n    tag_185:\n        /* \"#utility.yul\":8538:8636   */\n      swap1\n      pop\n        /* \"#utility.yul\":8656:8661   */\n      dup1\n        /* \"#utility.yul\":8709:8713   */\n      0x20\n        /* \"#utility.yul\":8701:8707   */\n      dup5\n        /* \"#utility.yul\":8697:8714   */\n      mul\n        /* \"#utility.yul\":8689:8695   */\n      dup4\n        /* \"#utility.yul\":8685:8715   */\n      add\n        /* \"#utility.yul\":8738:8741   */\n      dup6\n        /* \"#utility.yul\":8730:8736   */\n      dup2\n        /* \"#utility.yul\":8727:8742   */\n      gt\n        /* \"#utility.yul\":8724:8846   */\n      iszero\n      tag_187\n      jumpi\n        /* \"#utility.yul\":8757:8836   */\n      tag_188\n      tag_79\n      jump\t// in\n    tag_188:\n        /* \"#utility.yul\":8724:8846   */\n    tag_187:\n        /* \"#utility.yul\":8872:8878   */\n      dup4\n        /* \"#utility.yul\":8855:9294   */\n    tag_189:\n        /* \"#utility.yul\":8889:8895   */\n      dup2\n        /* \"#utility.yul\":8884:8887   */\n      dup2\n        /* \"#utility.yul\":8881:8896   */\n      lt\n        /* \"#utility.yul\":8855:9294   */\n      iszero\n      tag_191\n      jumpi\n        /* \"#utility.yul\":8971:8974   */\n      dup1\n        /* \"#utility.yul\":8965:8975   */\n      mload\n        /* \"#utility.yul\":9007:9025   */\n      0xffffffffffffffff\n        /* \"#utility.yul\":8994:9005   */\n      dup2\n        /* \"#utility.yul\":8991:9026   */\n      gt\n        /* \"#utility.yul\":8988:9110   */\n      iszero\n      tag_192\n      jumpi\n        /* \"#utility.yul\":9029:9108   */\n      tag_193\n      tag_64\n      jump\t// in\n    tag_193:\n        /* \"#utility.yul\":8988:9110   */\n    tag_192:\n        /* \"#utility.yul\":9153:9164   */\n      dup1\n        /* \"#utility.yul\":9145:9151   */\n      dup7\n        /* \"#utility.yul\":9141:9165   */\n      add\n        /* \"#utility.yul\":9191:9249   */\n      tag_194\n        /* \"#utility.yul\":9245:9248   */\n      dup10\n        /* \"#utility.yul\":9233:9243   */\n      dup3\n        /* \"#utility.yul\":9191:9249   */\n      tag_81\n      jump\t// in\n    tag_194:\n        /* \"#utility.yul\":9186:9189   */\n      dup6\n        /* \"#utility.yul\":9179:9250   */\n      mstore\n        /* \"#utility.yul\":9279:9283   */\n      0x20\n        /* \"#utility.yul\":9274:9277   */\n      dup6\n        /* \"#utility.yul\":9270:9284   */\n      add\n        /* \"#utility.yul\":9263:9284   */\n      swap5\n      pop\n        /* \"#utility.yul\":8931:9294   */\n      pop\n      pop\n        /* \"#utility.yul\":8915:8919   */\n      0x20\n        /* \"#utility.yul\":8910:8913   */\n      dup2\n        /* \"#utility.yul\":8906:8920   */\n      add\n        /* \"#utility.yul\":8899:8920   */\n      swap1\n      pop\n        /* \"#utility.yul\":8855:9294   */\n      jump(tag_189)\n    tag_191:\n        /* \"#utility.yul\":8859:8880   */\n      pop\n        /* \"#utility.yul\":8528:9300   */\n      pop\n      pop\n        /* \"#utility.yul\":8407:9300   */\n      swap4\n      swap3\n      pop\n      pop\n      pop\n      jump\t// out\n        /* \"#utility.yul\":9323:9704   */\n    tag_83:\n        /* \"#utility.yul\":9413:9418   */\n      0x00\n        /* \"#utility.yul\":9462:9465   */\n      dup3\n        /* \"#utility.yul\":9455:9459   */\n      0x1f\n        /* \"#utility.yul\":9447:9453   */\n      dup4\n        /* \"#utility.yul\":9443:9460   */\n      add\n        /* \"#utility.yul\":9439:9466   */\n      slt\n        /* \"#utility.yul\":9429:9551   */\n      tag_196\n      jumpi\n        /* \"#utility.yul\":9470:9549   */\n      tag_197\n      tag_64\n      jump\t// in\n    tag_197:\n        /* \"#utility.yul\":9429:9551   */\n    tag_196:\n        /* \"#utility.yul\":9574:9578   */\n      0x03\n        /* \"#utility.yul\":9596:9698   */\n      tag_198\n        /* \"#utility.yul\":9694:9697   */\n      dup5\n        /* \"#utility.yul\":9686:9692   */\n      dup3\n        /* \"#utility.yul\":9678:9684   */\n      dup6\n        /* \"#utility.yul\":9596:9698   */\n      tag_82\n      jump\t// in\n    tag_198:\n        /* \"#utility.yul\":9587:9698   */\n      swap2\n      pop\n        /* \"#utility.yul\":9419:9704   */\n      pop\n        /* \"#utility.yul\":9323:9704   */\n      swap3\n      swap2\n      pop\n      pop\n      jump\t// out\n        /* \"#utility.yul\":9710:10280   */\n    tag_46:\n        /* \"#utility.yul\":9813:9819   */\n      0x00\n        /* \"#utility.yul\":9862:9864   */\n      0x20\n        /* \"#utility.yul\":9850:9859   */\n      dup3\n        /* \"#utility.yul\":9841:9848   */\n      dup5\n        /* \"#utility.yul\":9837:9860   */\n      sub\n        /* \"#utility.yul\":9833:9865   */\n      slt\n        /* \"#utility.yul\":9830:9949   */\n      iszero\n      tag_200\n      jumpi\n        /* \"#utility.yul\":9868:9947   */\n      tag_201\n      tag_51\n      jump\t// in\n    tag_201:\n        /* \"#utility.yul\":9830:9949   */\n    tag_200:\n        /* \"#utility.yul\":10009:10010   */\n      0x00\n        /* \"#utility.yul\":9998:10007   */\n      dup3\n        /* \"#utility.yul\":9994:10011   */\n      add\n        /* \"#utility.yul\":9988:10012   */\n      mload\n        /* \"#utility.yul\":10039:10057   */\n      0xffffffffffffffff\n        /* \"#utility.yul\":10031:10037   */\n      dup2\n        /* \"#utility.yul\":10028:10058   */\n      gt\n        /* \"#utility.yul\":10025:10142   */\n      iszero\n      tag_202\n      jumpi\n        /* \"#utility.yul\":10061:10140   */\n      tag_203\n      tag_52\n      jump\t// in\n    tag_203:\n        /* \"#utility.yul\":10025:10142   */\n    tag_202:\n        /* \"#utility.yul\":10166:10263   */\n      tag_204\n        /* \"#utility.yul\":10255:10262   */\n      dup5\n        /* \"#utility.yul\":10246:10252   */\n      dup3\n        /* \"#utility.yul\":10235:10244   */\n      dup6\n        /* \"#utility.yul\":10231:10253   */\n      add\n        /* \"#utility.yul\":10166:10263   */\n      tag_83\n      jump\t// in\n    tag_204:\n        /* \"#utility.yul\":10156:10263   */\n      swap2\n      pop\n        /* \"#utility.yul\":9959:10273   */\n      pop\n        /* \"#utility.yul\":9710:10280   */\n      swap3\n      swap2\n      pop\n      pop\n      jump\t// out\n        /* \"#utility.yul\":10286:10466   */\n    tag_49:\n        /* \"#utility.yul\":10334:10411   */\n      0x4e487b7100000000000000000000000000000000000000000000000000000000\n        /* \"#utility.yul\":10331:10332   */\n      0x00\n        /* \"#utility.yul\":10324:10412   */\n      mstore\n        /* \"#utility.yul\":10431:10435   */\n      0x32\n        /* \"#utility.yul\":10428:10429   */\n      0x04\n        /* \"#utility.yul\":10421:10436   */\n      mstore\n        /* \"#utility.yul\":10455:10459   */\n      0x24\n        /* \"#utility.yul\":10452:10453   */\n      0x00\n        /* \"#utility.yul\":10445:10460   */\n      revert\n\n    auxdata: 0xa26469706673582212203c578d7c11e2767c343e63aa8c6a3ad84c57e444cd98ca43f9d7df458960d98264736f6c63430008080033\n}\n",
				"bytecode": {
					"linkReferences": {},
					"object": "60806040527350c7a09925375438d2cee94c5c59266c6ffaaf8c600160006101000a81548173ffffffffffffffffffffffffffffffffffffffff021916908373ffffffffffffffffffffffffffffffffffffffff16021790555073dbddb8575f6bda11f1dc548a1b546463cc567c3d600260006101000a81548173ffffffffffffffffffffffffffffffffffffffff021916908373ffffffffffffffffffffffffffffffffffffffff1602179055503480156100ba57600080fd5b5061092f806100ca6000396000f3fe608060405234801561001057600080fd5b506004361061004c5760003560e01c80636fd3d9e2146100515780638f84aa0914610081578063a7beb5d01461009f578063bb4a376b146100cf575b600080fd5b61006b6004803603810190610066919061038a565b6100ed565b6040516100789190610450565b60405180910390f35b610089610199565b60405161009691906104b3565b60405180910390f35b6100b960048036038101906100b49190610603565b6101bf565b6040516100c6919061065b565b60405180910390f35b6100d7610276565b6040516100e49190610450565b60405180910390f35b600081815481106100fd57600080fd5b906000526020600020016000915090508054610118906106a5565b80601f0160208091040260200160405190810160405280929190818152602001828054610144906106a5565b80156101915780601f1061016657610100808354040283529160200191610191565b820191906000526020600020905b81548152906001019060200180831161017457829003601f168201915b505050505081565b600260009054906101000a900473ffffffffffffffffffffffffffffffffffffffff1681565b6000600160009054906101000a900473ffffffffffffffffffffffffffffffffffffffff1673ffffffffffffffffffffffffffffffffffffffff1663278a7f33836040518263ffffffff1660e01b815260040161021c9190610450565b60206040518083038186803b15801561023457600080fd5b505afa158015610248573d6000803e3d6000fd5b505050506040513d601f19601f8201168201806040525081019061026c9190610710565b60ff169050919050565b60606000600160009054906101000a900473ffffffffffffffffffffffffffffffffffffffff1673ffffffffffffffffffffffffffffffffffffffff166348441d5f6040518163ffffffff1660e01b815260040160006040518083038186803b1580156102e257600080fd5b505afa1580156102f6573d6000803e3d6000fd5b505050506040513d6000823e3d601f19601f8201168201806040525081019061031f9190610881565b905080600160038110610335576103346108ca565b5b602002015191505090565b6000604051905090565b600080fd5b600080fd5b6000819050919050565b61036781610354565b811461037257600080fd5b50565b6000813590506103848161035e565b92915050565b6000602082840312156103a05761039f61034a565b5b60006103ae84828501610375565b91505092915050565b600081519050919050565b600082825260208201905092915050565b60005b838110156103f15780820151818401526020810190506103d6565b83811115610400576000848401525b50505050565b6000601f19601f8301169050919050565b6000610422826103b7565b61042c81856103c2565b935061043c8185602086016103d3565b61044581610406565b840191505092915050565b6000602082019050818103600083015261046a8184610417565b905092915050565b600073ffffffffffffffffffffffffffffffffffffffff82169050919050565b600061049d82610472565b9050919050565b6104ad81610492565b82525050565b60006020820190506104c860008301846104a4565b92915050565b600080fd5b600080fd5b7f4e487b7100000000000000000000000000000000000000000000000000000000600052604160045260246000fd5b61051082610406565b810181811067ffffffffffffffff8211171561052f5761052e6104d8565b5b80604052505050565b6000610542610340565b905061054e8282610507565b919050565b600067ffffffffffffffff82111561056e5761056d6104d8565b5b61057782610406565b9050602081019050919050565b82818337600083830152505050565b60006105a66105a184610553565b610538565b9050828152602081018484840111156105c2576105c16104d3565b5b6105cd848285610584565b509392505050565b600082601f8301126105ea576105e96104ce565b5b81356105fa848260208601610593565b91505092915050565b6000602082840312156106195761061861034a565b5b600082013567ffffffffffffffff8111156106375761063661034f565b5b610643848285016105d5565b91505092915050565b61065581610354565b82525050565b6000602082019050610670600083018461064c565b92915050565b7f4e487b7100000000000000000000000000000000000000000000000000000000600052602260045260246000fd5b600060028204905060018216806106bd57607f821691505b602082108114156106d1576106d0610676565b5b50919050565b600060ff82169050919050565b6106ed816106d7565b81146106f857600080fd5b50565b60008151905061070a816106e4565b92915050565b6000602082840312156107265761072561034a565b5b6000610734848285016106fb565b91505092915050565b600067ffffffffffffffff821115610758576107576104d8565b5b602082029050919050565b600080fd5b600061077b61077684610553565b610538565b905082815260208101848484011115610797576107966104d3565b5b6107a28482856103d3565b509392505050565b600082601f8301126107bf576107be6104ce565b5b81516107cf848260208601610768565b91505092915050565b60006107eb6107e68461073d565b610538565b9050806020840283018581111561080557610804610763565b5b835b8181101561084c57805167ffffffffffffffff81111561082a576108296104ce565b5b80860161083789826107aa565b85526020850194505050602081019050610807565b5050509392505050565b600082601f83011261086b5761086a6104ce565b5b60036108788482856107d8565b91505092915050565b6000602082840312156108975761089661034a565b5b600082015167ffffffffffffffff8111156108b5576108b461034f565b5b6108c184828501610856565b91505092915050565b7f4e487b7100000000000000000000000000000000000000000000000000000000600052603260045260246000fdfea26469706673582212203c578d7c11e2767c343e63aa8c6a3ad84c57e444cd98ca43f9d7df458960d98264736f6c63430008080033",
					"opcodes": "PUSH1 0x80 PUSH1 0x40 MSTORE PUSH20 0x50C7A09925375438D2CEE94C5C59266C6FFAAF8C PUSH1 0x1 PUSH1 0x0 PUSH2 0x100 EXP DUP2 SLOAD DUP2 PUSH20 0xFFFFFFFFFFFFFFFFFFFFFFFFFFFFFFFFFFFFFFFF MUL NOT AND SWAP1 DUP4 PUSH20 0xFFFFFFFFFFFFFFFFFFFFFFFFFFFFFFFFFFFFFFFF AND MUL OR SWAP1 SSTORE POP PUSH20 0xDBDDB8575F6BDA11F1DC548A1B546463CC567C3D PUSH1 0x2 PUSH1 0x0 PUSH2 0x100 EXP DUP2 SLOAD DUP2 PUSH20 0xFFFFFFFFFFFFFFFFFFFFFFFFFFFFFFFFFFFFFFFF MUL NOT AND SWAP1 DUP4 PUSH20 0xFFFFFFFFFFFFFFFFFFFFFFFFFFFFFFFFFFFFFFFF AND MUL OR SWAP1 SSTORE POP CALLVALUE DUP1 ISZERO PUSH2 0xBA JUMPI PUSH1 0x0 DUP1 REVERT JUMPDEST POP PUSH2 0x92F DUP1 PUSH2 0xCA PUSH1 0x0 CODECOPY PUSH1 0x0 RETURN INVALID PUSH1 0x80 PUSH1 0x40 MSTORE CALLVALUE DUP1 ISZERO PUSH2 0x10 JUMPI PUSH1 0x0 DUP1 REVERT JUMPDEST POP PUSH1 0x4 CALLDATASIZE LT PUSH2 0x4C JUMPI PUSH1 0x0 CALLDATALOAD PUSH1 0xE0 SHR DUP1 PUSH4 0x6FD3D9E2 EQ PUSH2 0x51 JUMPI DUP1 PUSH4 0x8F84AA09 EQ PUSH2 0x81 JUMPI DUP1 PUSH4 0xA7BEB5D0 EQ PUSH2 0x9F JUMPI DUP1 PUSH4 0xBB4A376B EQ PUSH2 0xCF JUMPI JUMPDEST PUSH1 0x0 DUP1 REVERT JUMPDEST PUSH2 0x6B PUSH1 0x4 DUP1 CALLDATASIZE SUB DUP2 ADD SWAP1 PUSH2 0x66 SWAP2 SWAP1 PUSH2 0x38A JUMP JUMPDEST PUSH2 0xED JUMP JUMPDEST PUSH1 0x40 MLOAD PUSH2 0x78 SWAP2 SWAP1 PUSH2 0x450 JUMP JUMPDEST PUSH1 0x40 MLOAD DUP1 SWAP2 SUB SWAP1 RETURN JUMPDEST PUSH2 0x89 PUSH2 0x199 JUMP JUMPDEST PUSH1 0x40 MLOAD PUSH2 0x96 SWAP2 SWAP1 PUSH2 0x4B3 JUMP JUMPDEST PUSH1 0x40 MLOAD DUP1 SWAP2 SUB SWAP1 RETURN JUMPDEST PUSH2 0xB9 PUSH1 0x4 DUP1 CALLDATASIZE SUB DUP2 ADD SWAP1 PUSH2 0xB4 SWAP2 SWAP1 PUSH2 0x603 JUMP JUMPDEST PUSH2 0x1BF JUMP JUMPDEST PUSH1 0x40 MLOAD PUSH2 0xC6 SWAP2 SWAP1 PUSH2 0x65B JUMP JUMPDEST PUSH1 0x40 MLOAD DUP1 SWAP2 SUB SWAP1 RETURN JUMPDEST PUSH2 0xD7 PUSH2 0x276 JUMP JUMPDEST PUSH1 0x40 MLOAD PUSH2 0xE4 SWAP2 SWAP1 PUSH2 0x450 JUMP JUMPDEST PUSH1 0x40 MLOAD DUP1 SWAP2 SUB SWAP1 RETURN JUMPDEST PUSH1 0x0 DUP2 DUP2 SLOAD DUP2 LT PUSH2 0xFD JUMPI PUSH1 0x0 DUP1 REVERT JUMPDEST SWAP1 PUSH1 0x0 MSTORE PUSH1 0x20 PUSH1 0x0 KECCAK256 ADD PUSH1 0x0 SWAP2 POP SWAP1 POP DUP1 SLOAD PUSH2 0x118 SWAP1 PUSH2 0x6A5 JUMP JUMPDEST DUP1 PUSH1 0x1F ADD PUSH1 0x20 DUP1 SWAP2 DIV MUL PUSH1 0x20 ADD PUSH1 0x40 MLOAD SWAP1 DUP2 ADD PUSH1 0x40 MSTORE DUP1 SWAP3 SWAP2 SWAP1 DUP2 DUP2 MSTORE PUSH1 0x20 ADD DUP3 DUP1 SLOAD PUSH2 0x144 SWAP1 PUSH2 0x6A5 JUMP JUMPDEST DUP1 ISZERO PUSH2 0x191 JUMPI DUP1 PUSH1 0x1F LT PUSH2 0x166 JUMPI PUSH2 0x100 DUP1 DUP4 SLOAD DIV MUL DUP4 MSTORE SWAP2 PUSH1 0x20 ADD SWAP2 PUSH2 0x191 JUMP JUMPDEST DUP3 ADD SWAP2 SWAP1 PUSH1 0x0 MSTORE PUSH1 0x20 PUSH1 0x0 KECCAK256 SWAP1 JUMPDEST DUP2 SLOAD DUP2 MSTORE SWAP1 PUSH1 0x1 ADD SWAP1 PUSH1 0x20 ADD DUP1 DUP4 GT PUSH2 0x174 JUMPI DUP3 SWAP1 SUB PUSH1 0x1F AND DUP3 ADD SWAP2 JUMPDEST POP POP POP POP POP DUP2 JUMP JUMPDEST PUSH1 0x2 PUSH1 0x0 SWAP1 SLOAD SWAP1 PUSH2 0x100 EXP SWAP1 DIV PUSH20 0xFFFFFFFFFFFFFFFFFFFFFFFFFFFFFFFFFFFFFFFF AND DUP2 JUMP JUMPDEST PUSH1 0x0 PUSH1 0x1 PUSH1 0x0 SWAP1 SLOAD SWAP1 PUSH2 0x100 EXP SWAP1 DIV PUSH20 0xFFFFFFFFFFFFFFFFFFFFFFFFFFFFFFFFFFFFFFFF AND PUSH20 0xFFFFFFFFFFFFFFFFFFFFFFFFFFFFFFFFFFFFFFFF AND PUSH4 0x278A7F33 DUP4 PUSH1 0x40 MLOAD DUP3 PUSH4 0xFFFFFFFF AND PUSH1 0xE0 SHL DUP2 MSTORE PUSH1 0x4 ADD PUSH2 0x21C SWAP2 SWAP1 PUSH2 0x450 JUMP JUMPDEST PUSH1 0x20 PUSH1 0x40 MLOAD DUP1 DUP4 SUB DUP2 DUP7 DUP1 EXTCODESIZE ISZERO DUP1 ISZERO PUSH2 0x234 JUMPI PUSH1 0x0 DUP1 REVERT JUMPDEST POP GAS STATICCALL ISZERO DUP1 ISZERO PUSH2 0x248 JUMPI RETURNDATASIZE PUSH1 0x0 DUP1 RETURNDATACOPY RETURNDATASIZE PUSH1 0x0 REVERT JUMPDEST POP POP POP POP PUSH1 0x40 MLOAD RETURNDATASIZE PUSH1 0x1F NOT PUSH1 0x1F DUP3 ADD AND DUP3 ADD DUP1 PUSH1 0x40 MSTORE POP DUP2 ADD SWAP1 PUSH2 0x26C SWAP2 SWAP1 PUSH2 0x710 JUMP JUMPDEST PUSH1 0xFF AND SWAP1 POP SWAP2 SWAP1 POP JUMP JUMPDEST PUSH1 0x60 PUSH1 0x0 PUSH1 0x1 PUSH1 0x0 SWAP1 SLOAD SWAP1 PUSH2 0x100 EXP SWAP1 DIV PUSH20 0xFFFFFFFFFFFFFFFFFFFFFFFFFFFFFFFFFFFFFFFF AND PUSH20 0xFFFFFFFFFFFFFFFFFFFFFFFFFFFFFFFFFFFFFFFF AND PUSH4 0x48441D5F PUSH1 0x40 MLOAD DUP2 PUSH4 0xFFFFFFFF AND PUSH1 0xE0 SHL DUP2 MSTORE PUSH1 0x4 ADD PUSH1 0x0 PUSH1 0x40 MLOAD DUP1 DUP4 SUB DUP2 DUP7 DUP1 EXTCODESIZE ISZERO DUP1 ISZERO PUSH2 0x2E2 JUMPI PUSH1 0x0 DUP1 REVERT JUMPDEST POP GAS STATICCALL ISZERO DUP1 ISZERO PUSH2 0x2F6 JUMPI RETURNDATASIZE PUSH1 0x0 DUP1 RETURNDATACOPY RETURNDATASIZE PUSH1 0x0 REVERT JUMPDEST POP POP POP POP PUSH1 0x40 MLOAD RETURNDATASIZE PUSH1 0x0 DUP3 RETURNDATACOPY RETURNDATASIZE PUSH1 0x1F NOT PUSH1 0x1F DUP3 ADD AND DUP3 ADD DUP1 PUSH1 0x40 MSTORE POP DUP2 ADD SWAP1 PUSH2 0x31F SWAP2 SWAP1 PUSH2 0x881 JUMP JUMPDEST SWAP1 POP DUP1 PUSH1 0x1 PUSH1 0x3 DUP2 LT PUSH2 0x335 JUMPI PUSH2 0x334 PUSH2 0x8CA JUMP JUMPDEST JUMPDEST PUSH1 0x20 MUL ADD MLOAD SWAP2 POP POP SWAP1 JUMP JUMPDEST PUSH1 0x0 PUSH1 0x40 MLOAD SWAP1 POP SWAP1 JUMP JUMPDEST PUSH1 0x0 DUP1 REVERT JUMPDEST PUSH1 0x0 DUP1 REVERT JUMPDEST PUSH1 0x0 DUP2 SWAP1 POP SWAP2 SWAP1 POP JUMP JUMPDEST PUSH2 0x367 DUP2 PUSH2 0x354 JUMP JUMPDEST DUP2 EQ PUSH2 0x372 JUMPI PUSH1 0x0 DUP1 REVERT JUMPDEST POP JUMP JUMPDEST PUSH1 0x0 DUP2 CALLDATALOAD SWAP1 POP PUSH2 0x384 DUP2 PUSH2 0x35E JUMP JUMPDEST SWAP3 SWAP2 POP POP JUMP JUMPDEST PUSH1 0x0 PUSH1 0x20 DUP3 DUP5 SUB SLT ISZERO PUSH2 0x3A0 JUMPI PUSH2 0x39F PUSH2 0x34A JUMP JUMPDEST JUMPDEST PUSH1 0x0 PUSH2 0x3AE DUP5 DUP3 DUP6 ADD PUSH2 0x375 JUMP JUMPDEST SWAP2 POP POP SWAP3 SWAP2 POP POP JUMP JUMPDEST PUSH1 0x0 DUP2 MLOAD SWAP1 POP SWAP2 SWAP1 POP JUMP JUMPDEST PUSH1 0x0 DUP3 DUP3 MSTORE PUSH1 0x20 DUP3 ADD SWAP1 POP SWAP3 SWAP2 POP POP JUMP JUMPDEST PUSH1 0x0 JUMPDEST DUP4 DUP2 LT ISZERO PUSH2 0x3F1 JUMPI DUP1 DUP3 ADD MLOAD DUP2 DUP5 ADD MSTORE PUSH1 0x20 DUP2 ADD SWAP1 POP PUSH2 0x3D6 JUMP JUMPDEST DUP4 DUP2 GT ISZERO PUSH2 0x400 JUMPI PUSH1 0x0 DUP5 DUP5 ADD MSTORE JUMPDEST POP POP POP POP JUMP JUMPDEST PUSH1 0x0 PUSH1 0x1F NOT PUSH1 0x1F DUP4 ADD AND SWAP1 POP SWAP2 SWAP1 POP JUMP JUMPDEST PUSH1 0x0 PUSH2 0x422 DUP3 PUSH2 0x3B7 JUMP JUMPDEST PUSH2 0x42C DUP2 DUP6 PUSH2 0x3C2 JUMP JUMPDEST SWAP4 POP PUSH2 0x43C DUP2 DUP6 PUSH1 0x20 DUP7 ADD PUSH2 0x3D3 JUMP JUMPDEST PUSH2 0x445 DUP2 PUSH2 0x406 JUMP JUMPDEST DUP5 ADD SWAP2 POP POP SWAP3 SWAP2 POP POP JUMP JUMPDEST PUSH1 0x0 PUSH1 0x20 DUP3 ADD SWAP1 POP DUP2 DUP2 SUB PUSH1 0x0 DUP4 ADD MSTORE PUSH2 0x46A DUP2 DUP5 PUSH2 0x417 JUMP JUMPDEST SWAP1 POP SWAP3 SWAP2 POP POP JUMP JUMPDEST PUSH1 0x0 PUSH20 0xFFFFFFFFFFFFFFFFFFFFFFFFFFFFFFFFFFFFFFFF DUP3 AND SWAP1 POP SWAP2 SWAP1 POP JUMP JUMPDEST PUSH1 0x0 PUSH2 0x49D DUP3 PUSH2 0x472 JUMP JUMPDEST SWAP1 POP SWAP2 SWAP1 POP JUMP JUMPDEST PUSH2 0x4AD DUP2 PUSH2 0x492 JUMP JUMPDEST DUP3 MSTORE POP POP JUMP JUMPDEST PUSH1 0x0 PUSH1 0x20 DUP3 ADD SWAP1 POP PUSH2 0x4C8 PUSH1 0x0 DUP4 ADD DUP5 PUSH2 0x4A4 JUMP JUMPDEST SWAP3 SWAP2 POP POP JUMP JUMPDEST PUSH1 0x0 DUP1 REVERT JUMPDEST PUSH1 0x0 DUP1 REVERT JUMPDEST PUSH32 0x4E487B7100000000000000000000000000000000000000000000000000000000 PUSH1 0x0 MSTORE PUSH1 0x41 PUSH1 0x4 MSTORE PUSH1 0x24 PUSH1 0x0 REVERT JUMPDEST PUSH2 0x510 DUP3 PUSH2 0x406 JUMP JUMPDEST DUP2 ADD DUP2 DUP2 LT PUSH8 0xFFFFFFFFFFFFFFFF DUP3 GT OR ISZERO PUSH2 0x52F JUMPI PUSH2 0x52E PUSH2 0x4D8 JUMP JUMPDEST JUMPDEST DUP1 PUSH1 0x40 MSTORE POP POP POP JUMP JUMPDEST PUSH1 0x0 PUSH2 0x542 PUSH2 0x340 JUMP JUMPDEST SWAP1 POP PUSH2 0x54E DUP3 DUP3 PUSH2 0x507 JUMP JUMPDEST SWAP2 SWAP1 POP JUMP JUMPDEST PUSH1 0x0 PUSH8 0xFFFFFFFFFFFFFFFF DUP3 GT ISZERO PUSH2 0x56E JUMPI PUSH2 0x56D PUSH2 0x4D8 JUMP JUMPDEST JUMPDEST PUSH2 0x577 DUP3 PUSH2 0x406 JUMP JUMPDEST SWAP1 POP PUSH1 0x20 DUP2 ADD SWAP1 POP SWAP2 SWAP1 POP JUMP JUMPDEST DUP3 DUP2 DUP4 CALLDATACOPY PUSH1 0x0 DUP4 DUP4 ADD MSTORE POP POP POP JUMP JUMPDEST PUSH1 0x0 PUSH2 0x5A6 PUSH2 0x5A1 DUP5 PUSH2 0x553 JUMP JUMPDEST PUSH2 0x538 JUMP JUMPDEST SWAP1 POP DUP3 DUP2 MSTORE PUSH1 0x20 DUP2 ADD DUP5 DUP5 DUP5 ADD GT ISZERO PUSH2 0x5C2 JUMPI PUSH2 0x5C1 PUSH2 0x4D3 JUMP JUMPDEST JUMPDEST PUSH2 0x5CD DUP5 DUP3 DUP6 PUSH2 0x584 JUMP JUMPDEST POP SWAP4 SWAP3 POP POP POP JUMP JUMPDEST PUSH1 0x0 DUP3 PUSH1 0x1F DUP4 ADD SLT PUSH2 0x5EA JUMPI PUSH2 0x5E9 PUSH2 0x4CE JUMP JUMPDEST JUMPDEST DUP2 CALLDATALOAD PUSH2 0x5FA DUP5 DUP3 PUSH1 0x20 DUP7 ADD PUSH2 0x593 JUMP JUMPDEST SWAP2 POP POP SWAP3 SWAP2 POP POP JUMP JUMPDEST PUSH1 0x0 PUSH1 0x20 DUP3 DUP5 SUB SLT ISZERO PUSH2 0x619 JUMPI PUSH2 0x618 PUSH2 0x34A JUMP JUMPDEST JUMPDEST PUSH1 0x0 DUP3 ADD CALLDATALOAD PUSH8 0xFFFFFFFFFFFFFFFF DUP2 GT ISZERO PUSH2 0x637 JUMPI PUSH2 0x636 PUSH2 0x34F JUMP JUMPDEST JUMPDEST PUSH2 0x643 DUP5 DUP3 DUP6 ADD PUSH2 0x5D5 JUMP JUMPDEST SWAP2 POP POP SWAP3 SWAP2 POP POP JUMP JUMPDEST PUSH2 0x655 DUP2 PUSH2 0x354 JUMP JUMPDEST DUP3 MSTORE POP POP JUMP JUMPDEST PUSH1 0x0 PUSH1 0x20 DUP3 ADD SWAP1 POP PUSH2 0x670 PUSH1 0x0 DUP4 ADD DUP5 PUSH2 0x64C JUMP JUMPDEST SWAP3 SWAP2 POP POP JUMP JUMPDEST PUSH32 0x4E487B7100000000000000000000000000000000000000000000000000000000 PUSH1 0x0 MSTORE PUSH1 0x22 PUSH1 0x4 MSTORE PUSH1 0x24 PUSH1 0x0 REVERT JUMPDEST PUSH1 0x0 PUSH1 0x2 DUP3 DIV SWAP1 POP PUSH1 0x1 DUP3 AND DUP1 PUSH2 0x6BD JUMPI PUSH1 0x7F DUP3 AND SWAP2 POP JUMPDEST PUSH1 0x20 DUP3 LT DUP2 EQ ISZERO PUSH2 0x6D1 JUMPI PUSH2 0x6D0 PUSH2 0x676 JUMP JUMPDEST JUMPDEST POP SWAP2 SWAP1 POP JUMP JUMPDEST PUSH1 0x0 PUSH1 0xFF DUP3 AND SWAP1 POP SWAP2 SWAP1 POP JUMP JUMPDEST PUSH2 0x6ED DUP2 PUSH2 0x6D7 JUMP JUMPDEST DUP2 EQ PUSH2 0x6F8 JUMPI PUSH1 0x0 DUP1 REVERT JUMPDEST POP JUMP JUMPDEST PUSH1 0x0 DUP2 MLOAD SWAP1 POP PUSH2 0x70A DUP2 PUSH2 0x6E4 JUMP JUMPDEST SWAP3 SWAP2 POP POP JUMP JUMPDEST PUSH1 0x0 PUSH1 0x20 DUP3 DUP5 SUB SLT ISZERO PUSH2 0x726 JUMPI PUSH2 0x725 PUSH2 0x34A JUMP JUMPDEST JUMPDEST PUSH1 0x0 PUSH2 0x734 DUP5 DUP3 DUP6 ADD PUSH2 0x6FB JUMP JUMPDEST SWAP2 POP POP SWAP3 SWAP2 POP POP JUMP JUMPDEST PUSH1 0x0 PUSH8 0xFFFFFFFFFFFFFFFF DUP3 GT ISZERO PUSH2 0x758 JUMPI PUSH2 0x757 PUSH2 0x4D8 JUMP JUMPDEST JUMPDEST PUSH1 0x20 DUP3 MUL SWAP1 POP SWAP2 SWAP1 POP JUMP JUMPDEST PUSH1 0x0 DUP1 REVERT JUMPDEST PUSH1 0x0 PUSH2 0x77B PUSH2 0x776 DUP5 PUSH2 0x553 JUMP JUMPDEST PUSH2 0x538 JUMP JUMPDEST SWAP1 POP DUP3 DUP2 MSTORE PUSH1 0x20 DUP2 ADD DUP5 DUP5 DUP5 ADD GT ISZERO PUSH2 0x797 JUMPI PUSH2 0x796 PUSH2 0x4D3 JUMP JUMPDEST JUMPDEST PUSH2 0x7A2 DUP5 DUP3 DUP6 PUSH2 0x3D3 JUMP JUMPDEST POP SWAP4 SWAP3 POP POP POP JUMP JUMPDEST PUSH1 0x0 DUP3 PUSH1 0x1F DUP4 ADD SLT PUSH2 0x7BF JUMPI PUSH2 0x7BE PUSH2 0x4CE JUMP JUMPDEST JUMPDEST DUP2 MLOAD PUSH2 0x7CF DUP5 DUP3 PUSH1 0x20 DUP7 ADD PUSH2 0x768 JUMP JUMPDEST SWAP2 POP POP SWAP3 SWAP2 POP POP JUMP JUMPDEST PUSH1 0x0 PUSH2 0x7EB PUSH2 0x7E6 DUP5 PUSH2 0x73D JUMP JUMPDEST PUSH2 0x538 JUMP JUMPDEST SWAP1 POP DUP1 PUSH1 0x20 DUP5 MUL DUP4 ADD DUP6 DUP2 GT ISZERO PUSH2 0x805 JUMPI PUSH2 0x804 PUSH2 0x763 JUMP JUMPDEST JUMPDEST DUP4 JUMPDEST DUP2 DUP2 LT ISZERO PUSH2 0x84C JUMPI DUP1 MLOAD PUSH8 0xFFFFFFFFFFFFFFFF DUP2 GT ISZERO PUSH2 0x82A JUMPI PUSH2 0x829 PUSH2 0x4CE JUMP JUMPDEST JUMPDEST DUP1 DUP7 ADD PUSH2 0x837 DUP10 DUP3 PUSH2 0x7AA JUMP JUMPDEST DUP6 MSTORE PUSH1 0x20 DUP6 ADD SWAP5 POP POP POP PUSH1 0x20 DUP2 ADD SWAP1 POP PUSH2 0x807 JUMP JUMPDEST POP POP POP SWAP4 SWAP3 POP POP POP JUMP JUMPDEST PUSH1 0x0 DUP3 PUSH1 0x1F DUP4 ADD SLT PUSH2 0x86B JUMPI PUSH2 0x86A PUSH2 0x4CE JUMP JUMPDEST JUMPDEST PUSH1 0x3 PUSH2 0x878 DUP5 DUP3 DUP6 PUSH2 0x7D8 JUMP JUMPDEST SWAP2 POP POP SWAP3 SWAP2 POP POP JUMP JUMPDEST PUSH1 0x0 PUSH1 0x20 DUP3 DUP5 SUB SLT ISZERO PUSH2 0x897 JUMPI PUSH2 0x896 PUSH2 0x34A JUMP JUMPDEST JUMPDEST PUSH1 0x0 DUP3 ADD MLOAD PUSH8 0xFFFFFFFFFFFFFFFF DUP2 GT ISZERO PUSH2 0x8B5 JUMPI PUSH2 0x8B4 PUSH2 0x34F JUMP JUMPDEST JUMPDEST PUSH2 0x8C1 DUP5 DUP3 DUP6 ADD PUSH2 0x856 JUMP JUMPDEST SWAP2 POP POP SWAP3 SWAP2 POP POP JUMP JUMPDEST PUSH32 0x4E487B7100000000000000000000000000000000000000000000000000000000 PUSH1 0x0 MSTORE PUSH1 0x32 PUSH1 0x4 MSTORE PUSH1 0x24 PUSH1 0x0 REVERT INVALID LOG2 PUSH5 0x6970667358 0x22 SLT KECCAK256 EXTCODECOPY JUMPI DUP14 PUSH29 0x11E2767C343E63AA8C6A3AD84C57E444CD98CA43F9D7DF458960D98264 PUSH20 0x6F6C634300080800330000000000000000000000 "
				},
				"gasEstimates": {
					"creation": {
						"codeDepositCost": "470200",
						"executionCost": "49039",
						"totalCost": "519239"
					},
					"external": {
						"ownerAddress()": "2514",
						"rarityList(uint256)": "infinite",
						"rarityListFunc()": "infinite",
						"rarityRateFunc(string)": "infinite"
					}
				},
				"methodIdentifiers": {
					"ownerAddress()": "8f84aa09",
					"rarityList(uint256)": "6fd3d9e2",
					"rarityListFunc()": "bb4a376b",
					"rarityRateFunc(string)": "a7beb5d0"
				}
			},
			"storageLayout": {
				"storage": [
					{
						"astId": 5,
						"contract": "contracts/TestInterview.sol:TestInterview",
						"label": "rarityList",
						"offset": 0,
						"slot": "0",
						"type": "t_array(t_string_storage)dyn_storage"
					},
					{
						"astId": 11,
						"contract": "contracts/TestInterview.sol:TestInterview",
						"label": "objINFT",
						"offset": 0,
						"slot": "1",
						"type": "t_contract(INFT)81"
					},
					{
						"astId": 14,
						"contract": "contracts/TestInterview.sol:TestInterview",
						"label": "ownerAddress",
						"offset": 0,
						"slot": "2",
						"type": "t_address"
					}
				],
				"types": {
					"t_address": {
						"encoding": "inplace",
						"label": "address",
						"numberOfBytes": "20"
					},
					"t_array(t_string_storage)dyn_storage": {
						"base": "t_string_storage",
						"encoding": "dynamic_array",
						"label": "string[]",
						"numberOfBytes": "32"
					},
					"t_contract(INFT)81": {
						"encoding": "inplace",
						"label": "contract INFT",
						"numberOfBytes": "20"
					},
					"t_string_storage": {
						"encoding": "bytes",
						"label": "string",
						"numberOfBytes": "32"
					}
				}
			},
			"userdoc": {
				"kind": "user",
				"methods": {},
				"version": 1
			}
		}
	}
}