{
	"contracts/TestInterview.sol": {
		"TestInterview": {
			"abi": [
				{
					"inputs": [],
					"name": "testing",
					"outputs": [
						{
							"internalType": "string[3]",
							"name": "",
							"type": "string[3]"
						}
					],
					"stateMutability": "view",
					"type": "function"
				}
			],
			"devdoc": {
				"kind": "dev",
				"methods": {},
				"version": 1
			},
			"evm": {
				"assembly": "    /* \"contracts/TestInterview.sol\":208:428  contract TestInterview {... */\n  mstore(0x40, 0x80)\n  callvalue\n  dup1\n  iszero\n  tag_1\n  jumpi\n  0x00\n  dup1\n  revert\ntag_1:\n  pop\n  dataSize(sub_0)\n  dup1\n  dataOffset(sub_0)\n  0x00\n  codecopy\n  0x00\n  return\nstop\n\nsub_0: assembly {\n        /* \"contracts/TestInterview.sol\":208:428  contract TestInterview {... */\n      mstore(0x40, 0x80)\n      callvalue\n      dup1\n      iszero\n      tag_1\n      jumpi\n      0x00\n      dup1\n      revert\n    tag_1:\n      pop\n      jumpi(tag_2, lt(calldatasize, 0x04))\n      shr(0xe0, calldataload(0x00))\n      dup1\n      0x8d03b102\n      eq\n      tag_3\n      jumpi\n    tag_2:\n      0x00\n      dup1\n      revert\n        /* \"contracts/TestInterview.sol\":240:425  function testing () public view returns(string[3] memory) {... */\n    tag_3:\n      tag_4\n      tag_5\n      jump\t// in\n    tag_4:\n      mload(0x40)\n      tag_6\n      swap2\n      swap1\n      tag_7\n      jump\t// in\n    tag_6:\n      mload(0x40)\n      dup1\n      swap2\n      sub\n      swap1\n      return\n    tag_5:\n        /* \"contracts/TestInterview.sol\":280:296  string[3] memory */\n      tag_8\n      tag_9\n      jump\t// in\n    tag_8:\n        /* \"contracts/TestInterview.sol\":309:323  INFT priceFeed */\n      0x00\n        /* \"contracts/TestInterview.sol\":331:373  0x50C7a09925375438D2cEe94C5c59266c6fFAAf8C */\n      0x50c7a09925375438d2cee94c5c59266c6ffaaf8c\n        /* \"contracts/TestInterview.sol\":309:374  INFT priceFeed = INFT(0x50C7a09925375438D2cEe94C5c59266c6fFAAf8C) */\n      swap1\n      pop\n        /* \"contracts/TestInterview.sol\":392:401  priceFeed */\n      dup1\n        /* \"contracts/TestInterview.sol\":392:415  priceFeed.getRarityList */\n      0xffffffffffffffffffffffffffffffffffffffff\n      and\n      0x48441d5f\n        /* \"contracts/TestInterview.sol\":392:417  priceFeed.getRarityList() */\n      mload(0x40)\n      dup2\n      0xffffffff\n      and\n      0xe0\n      shl\n      dup2\n      mstore\n      0x04\n      add\n      0x00\n      mload(0x40)\n      dup1\n      dup4\n      sub\n      dup2\n      dup7\n      dup1\n      extcodesize\n      iszero\n      dup1\n      iszero\n      tag_11\n      jumpi\n      0x00\n      dup1\n      revert\n    tag_11:\n      pop\n      gas\n      staticcall\n      iszero\n      dup1\n      iszero\n      tag_13\n      jumpi\n      returndatasize\n      0x00\n      dup1\n      returndatacopy\n      revert(0x00, returndatasize)\n    tag_13:\n      pop\n      pop\n      pop\n      pop\n      mload(0x40)\n      returndatasize\n      0x00\n      dup3\n      returndatacopy\n      returndatasize\n      not(0x1f)\n      0x1f\n      dup3\n      add\n      and\n      dup3\n      add\n      dup1\n      0x40\n      mstore\n      pop\n      dup2\n      add\n      swap1\n      tag_14\n      swap2\n      swap1\n      tag_15\n      jump\t// in\n    tag_14:\n        /* \"contracts/TestInterview.sol\":385:417  return priceFeed.getRarityList() */\n      swap2\n      pop\n      pop\n        /* \"contracts/TestInterview.sol\":240:425  function testing () public view returns(string[3] memory) {... */\n      swap1\n      jump\t// out\n    tag_9:\n      mload(0x40)\n      dup1\n      0x60\n      add\n      0x40\n      mstore\n      dup1\n      0x03\n      swap1\n    tag_16:\n      0x60\n      dup2\n      mstore\n      0x20\n      add\n      swap1\n      0x01\n      swap1\n      sub\n      swap1\n      dup2\n      tag_16\n      jumpi\n      swap1\n      pop\n      pop\n      swap1\n      jump\t// out\n        /* \"#utility.yul\":7:121   */\n    tag_17:\n        /* \"#utility.yul\":82:88   */\n      0x00\n        /* \"#utility.yul\":110:114   */\n      0x03\n        /* \"#utility.yul\":100:114   */\n      swap1\n      pop\n        /* \"#utility.yul\":7:121   */\n      swap2\n      swap1\n      pop\n      jump\t// out\n        /* \"#utility.yul\":127:280   */\n    tag_18:\n        /* \"#utility.yul\":234:245   */\n      0x00\n        /* \"#utility.yul\":271:274   */\n      dup2\n        /* \"#utility.yul\":256:274   */\n      swap1\n      pop\n        /* \"#utility.yul\":127:280   */\n      swap3\n      swap2\n      pop\n      pop\n      jump\t// out\n        /* \"#utility.yul\":286:394   */\n    tag_19:\n        /* \"#utility.yul\":361:365   */\n      0x00\n        /* \"#utility.yul\":384:387   */\n      dup2\n        /* \"#utility.yul\":376:387   */\n      swap1\n      pop\n        /* \"#utility.yul\":286:394   */\n      swap2\n      swap1\n      pop\n      jump\t// out\n        /* \"#utility.yul\":400:499   */\n    tag_20:\n        /* \"#utility.yul\":452:458   */\n      0x00\n        /* \"#utility.yul\":486:491   */\n      dup2\n        /* \"#utility.yul\":480:492   */\n      mload\n        /* \"#utility.yul\":470:492   */\n      swap1\n      pop\n        /* \"#utility.yul\":400:499   */\n      swap2\n      swap1\n      pop\n      jump\t// out\n        /* \"#utility.yul\":505:664   */\n    tag_21:\n        /* \"#utility.yul\":579:590   */\n      0x00\n        /* \"#utility.yul\":613:619   */\n      dup3\n        /* \"#utility.yul\":608:611   */\n      dup3\n        /* \"#utility.yul\":601:620   */\n      mstore\n        /* \"#utility.yul\":653:657   */\n      0x20\n        /* \"#utility.yul\":648:651   */\n      dup3\n        /* \"#utility.yul\":644:658   */\n      add\n        /* \"#utility.yul\":629:658   */\n      swap1\n      pop\n        /* \"#utility.yul\":505:664   */\n      swap3\n      swap2\n      pop\n      pop\n      jump\t// out\n        /* \"#utility.yul\":670:977   */\n    tag_22:\n        /* \"#utility.yul\":738:739   */\n      0x00\n        /* \"#utility.yul\":748:861   */\n    tag_50:\n        /* \"#utility.yul\":762:768   */\n      dup4\n        /* \"#utility.yul\":759:760   */\n      dup2\n        /* \"#utility.yul\":756:769   */\n      lt\n        /* \"#utility.yul\":748:861   */\n      iszero\n      tag_52\n      jumpi\n        /* \"#utility.yul\":847:848   */\n      dup1\n        /* \"#utility.yul\":842:845   */\n      dup3\n        /* \"#utility.yul\":838:849   */\n      add\n        /* \"#utility.yul\":832:850   */\n      mload\n        /* \"#utility.yul\":828:829   */\n      dup2\n        /* \"#utility.yul\":823:826   */\n      dup5\n        /* \"#utility.yul\":819:830   */\n      add\n        /* \"#utility.yul\":812:851   */\n      mstore\n        /* \"#utility.yul\":784:786   */\n      0x20\n        /* \"#utility.yul\":781:782   */\n      dup2\n        /* \"#utility.yul\":777:787   */\n      add\n        /* \"#utility.yul\":772:787   */\n      swap1\n      pop\n        /* \"#utility.yul\":748:861   */\n      jump(tag_50)\n    tag_52:\n        /* \"#utility.yul\":879:885   */\n      dup4\n        /* \"#utility.yul\":876:877   */\n      dup2\n        /* \"#utility.yul\":873:886   */\n      gt\n        /* \"#utility.yul\":870:971   */\n      iszero\n      tag_53\n      jumpi\n        /* \"#utility.yul\":959:960   */\n      0x00\n        /* \"#utility.yul\":950:956   */\n      dup5\n        /* \"#utility.yul\":945:948   */\n      dup5\n        /* \"#utility.yul\":941:957   */\n      add\n        /* \"#utility.yul\":934:961   */\n      mstore\n        /* \"#utility.yul\":870:971   */\n    tag_53:\n        /* \"#utility.yul\":719:977   */\n      pop\n        /* \"#utility.yul\":670:977   */\n      pop\n      pop\n      pop\n      jump\t// out\n        /* \"#utility.yul\":983:1085   */\n    tag_23:\n        /* \"#utility.yul\":1024:1030   */\n      0x00\n        /* \"#utility.yul\":1075:1077   */\n      0x1f\n        /* \"#utility.yul\":1071:1078   */\n      not\n        /* \"#utility.yul\":1066:1068   */\n      0x1f\n        /* \"#utility.yul\":1059:1064   */\n      dup4\n        /* \"#utility.yul\":1055:1069   */\n      add\n        /* \"#utility.yul\":1051:1079   */\n      and\n        /* \"#utility.yul\":1041:1079   */\n      swap1\n      pop\n        /* \"#utility.yul\":983:1085   */\n      swap2\n      swap1\n      pop\n      jump\t// out\n        /* \"#utility.yul\":1091:1435   */\n    tag_24:\n        /* \"#utility.yul\":1169:1172   */\n      0x00\n        /* \"#utility.yul\":1197:1236   */\n      tag_56\n        /* \"#utility.yul\":1230:1235   */\n      dup3\n        /* \"#utility.yul\":1197:1236   */\n      tag_20\n      jump\t// in\n    tag_56:\n        /* \"#utility.yul\":1252:1313   */\n      tag_57\n        /* \"#utility.yul\":1306:1312   */\n      dup2\n        /* \"#utility.yul\":1301:1304   */\n      dup6\n        /* \"#utility.yul\":1252:1313   */\n      tag_21\n      jump\t// in\n    tag_57:\n        /* \"#utility.yul\":1245:1313   */\n      swap4\n      pop\n        /* \"#utility.yul\":1322:1374   */\n      tag_58\n        /* \"#utility.yul\":1367:1373   */\n      dup2\n        /* \"#utility.yul\":1362:1365   */\n      dup6\n        /* \"#utility.yul\":1355:1359   */\n      0x20\n        /* \"#utility.yul\":1348:1353   */\n      dup7\n        /* \"#utility.yul\":1344:1360   */\n      add\n        /* \"#utility.yul\":1322:1374   */\n      tag_22\n      jump\t// in\n    tag_58:\n        /* \"#utility.yul\":1399:1428   */\n      tag_59\n        /* \"#utility.yul\":1421:1427   */\n      dup2\n        /* \"#utility.yul\":1399:1428   */\n      tag_23\n      jump\t// in\n    tag_59:\n        /* \"#utility.yul\":1394:1397   */\n      dup5\n        /* \"#utility.yul\":1390:1429   */\n      add\n        /* \"#utility.yul\":1383:1429   */\n      swap2\n      pop\n        /* \"#utility.yul\":1173:1435   */\n      pop\n        /* \"#utility.yul\":1091:1435   */\n      swap3\n      swap2\n      pop\n      pop\n      jump\t// out\n        /* \"#utility.yul\":1441:1637   */\n    tag_25:\n        /* \"#utility.yul\":1530:1540   */\n      0x00\n        /* \"#utility.yul\":1565:1631   */\n      tag_61\n        /* \"#utility.yul\":1627:1630   */\n      dup4\n        /* \"#utility.yul\":1619:1625   */\n      dup4\n        /* \"#utility.yul\":1565:1631   */\n      tag_24\n      jump\t// in\n    tag_61:\n        /* \"#utility.yul\":1551:1631   */\n      swap1\n      pop\n        /* \"#utility.yul\":1441:1637   */\n      swap3\n      swap2\n      pop\n      pop\n      jump\t// out\n        /* \"#utility.yul\":1643:1764   */\n    tag_26:\n        /* \"#utility.yul\":1721:1725   */\n      0x00\n        /* \"#utility.yul\":1753:1757   */\n      0x20\n        /* \"#utility.yul\":1748:1751   */\n      dup3\n        /* \"#utility.yul\":1744:1758   */\n      add\n        /* \"#utility.yul\":1736:1758   */\n      swap1\n      pop\n        /* \"#utility.yul\":1643:1764   */\n      swap2\n      swap1\n      pop\n      jump\t// out\n        /* \"#utility.yul\":1800:2779   */\n    tag_27:\n        /* \"#utility.yul\":1935:1938   */\n      0x00\n        /* \"#utility.yul\":1964:2026   */\n      tag_64\n        /* \"#utility.yul\":2020:2025   */\n      dup3\n        /* \"#utility.yul\":1964:2026   */\n      tag_17\n      jump\t// in\n    tag_64:\n        /* \"#utility.yul\":2042:2136   */\n      tag_65\n        /* \"#utility.yul\":2129:2135   */\n      dup2\n        /* \"#utility.yul\":2124:2127   */\n      dup6\n        /* \"#utility.yul\":2042:2136   */\n      tag_18\n      jump\t// in\n    tag_65:\n        /* \"#utility.yul\":2035:2136   */\n      swap4\n      pop\n        /* \"#utility.yul\":2162:2165   */\n      dup4\n        /* \"#utility.yul\":2207:2211   */\n      0x20\n        /* \"#utility.yul\":2199:2205   */\n      dup3\n        /* \"#utility.yul\":2195:2212   */\n      mul\n        /* \"#utility.yul\":2190:2193   */\n      dup6\n        /* \"#utility.yul\":2186:2213   */\n      add\n        /* \"#utility.yul\":2237:2301   */\n      tag_66\n        /* \"#utility.yul\":2295:2300   */\n      dup6\n        /* \"#utility.yul\":2237:2301   */\n      tag_19\n      jump\t// in\n    tag_66:\n        /* \"#utility.yul\":2324:2331   */\n      dup1\n        /* \"#utility.yul\":2355:2356   */\n      0x00\n        /* \"#utility.yul\":2340:2734   */\n    tag_67:\n        /* \"#utility.yul\":2365:2371   */\n      dup6\n        /* \"#utility.yul\":2362:2363   */\n      dup2\n        /* \"#utility.yul\":2359:2372   */\n      lt\n        /* \"#utility.yul\":2340:2734   */\n      iszero\n      tag_69\n      jumpi\n        /* \"#utility.yul\":2436:2445   */\n      dup5\n        /* \"#utility.yul\":2430:2434   */\n      dup5\n        /* \"#utility.yul\":2426:2446   */\n      sub\n        /* \"#utility.yul\":2421:2424   */\n      dup10\n        /* \"#utility.yul\":2414:2447   */\n      mstore\n        /* \"#utility.yul\":2487:2493   */\n      dup2\n        /* \"#utility.yul\":2481:2494   */\n      mload\n        /* \"#utility.yul\":2515:2599   */\n      tag_70\n        /* \"#utility.yul\":2594:2598   */\n      dup6\n        /* \"#utility.yul\":2579:2592   */\n      dup3\n        /* \"#utility.yul\":2515:2599   */\n      tag_25\n      jump\t// in\n    tag_70:\n        /* \"#utility.yul\":2507:2599   */\n      swap5\n      pop\n        /* \"#utility.yul\":2622:2690   */\n      tag_71\n        /* \"#utility.yul\":2683:2689   */\n      dup4\n        /* \"#utility.yul\":2622:2690   */\n      tag_26\n      jump\t// in\n    tag_71:\n        /* \"#utility.yul\":2612:2690   */\n      swap3\n      pop\n        /* \"#utility.yul\":2719:2723   */\n      0x20\n        /* \"#utility.yul\":2714:2717   */\n      dup11\n        /* \"#utility.yul\":2710:2724   */\n      add\n        /* \"#utility.yul\":2703:2724   */\n      swap10\n      pop\n        /* \"#utility.yul\":2400:2734   */\n      pop\n        /* \"#utility.yul\":2387:2388   */\n      0x01\n        /* \"#utility.yul\":2384:2385   */\n      dup2\n        /* \"#utility.yul\":2380:2389   */\n      add\n        /* \"#utility.yul\":2375:2389   */\n      swap1\n      pop\n        /* \"#utility.yul\":2340:2734   */\n      jump(tag_67)\n    tag_69:\n        /* \"#utility.yul\":2344:2358   */\n      pop\n        /* \"#utility.yul\":2750:2754   */\n      dup3\n        /* \"#utility.yul\":2743:2754   */\n      swap8\n      pop\n        /* \"#utility.yul\":2770:2773   */\n      dup8\n        /* \"#utility.yul\":2763:2773   */\n      swap6\n      pop\n        /* \"#utility.yul\":1940:2779   */\n      pop\n      pop\n      pop\n      pop\n      pop\n        /* \"#utility.yul\":1800:2779   */\n      swap3\n      swap2\n      pop\n      pop\n      jump\t// out\n        /* \"#utility.yul\":2785:3190   */\n    tag_7:\n        /* \"#utility.yul\":2944:2948   */\n      0x00\n        /* \"#utility.yul\":2982:2984   */\n      0x20\n        /* \"#utility.yul\":2971:2980   */\n      dup3\n        /* \"#utility.yul\":2967:2985   */\n      add\n        /* \"#utility.yul\":2959:2985   */\n      swap1\n      pop\n        /* \"#utility.yul\":3031:3040   */\n      dup2\n        /* \"#utility.yul\":3025:3029   */\n      dup2\n        /* \"#utility.yul\":3021:3041   */\n      sub\n        /* \"#utility.yul\":3017:3018   */\n      0x00\n        /* \"#utility.yul\":3006:3015   */\n      dup4\n        /* \"#utility.yul\":3002:3019   */\n      add\n        /* \"#utility.yul\":2995:3042   */\n      mstore\n        /* \"#utility.yul\":3059:3183   */\n      tag_73\n        /* \"#utility.yul\":3178:3182   */\n      dup2\n        /* \"#utility.yul\":3169:3175   */\n      dup5\n        /* \"#utility.yul\":3059:3183   */\n      tag_27\n      jump\t// in\n    tag_73:\n        /* \"#utility.yul\":3051:3183   */\n      swap1\n      pop\n        /* \"#utility.yul\":2785:3190   */\n      swap3\n      swap2\n      pop\n      pop\n      jump\t// out\n        /* \"#utility.yul\":3196:3271   */\n    tag_28:\n        /* \"#utility.yul\":3229:3235   */\n      0x00\n        /* \"#utility.yul\":3262:3264   */\n      0x40\n        /* \"#utility.yul\":3256:3265   */\n      mload\n        /* \"#utility.yul\":3246:3265   */\n      swap1\n      pop\n        /* \"#utility.yul\":3196:3271   */\n      swap1\n      jump\t// out\n        /* \"#utility.yul\":3277:3394   */\n    tag_29:\n        /* \"#utility.yul\":3386:3387   */\n      0x00\n        /* \"#utility.yul\":3383:3384   */\n      dup1\n        /* \"#utility.yul\":3376:3388   */\n      revert\n        /* \"#utility.yul\":3400:3517   */\n    tag_30:\n        /* \"#utility.yul\":3509:3510   */\n      0x00\n        /* \"#utility.yul\":3506:3507   */\n      dup1\n        /* \"#utility.yul\":3499:3511   */\n      revert\n        /* \"#utility.yul\":3523:3640   */\n    tag_31:\n        /* \"#utility.yul\":3632:3633   */\n      0x00\n        /* \"#utility.yul\":3629:3630   */\n      dup1\n        /* \"#utility.yul\":3622:3634   */\n      revert\n        /* \"#utility.yul\":3646:3826   */\n    tag_32:\n        /* \"#utility.yul\":3694:3771   */\n      0x4e487b7100000000000000000000000000000000000000000000000000000000\n        /* \"#utility.yul\":3691:3692   */\n      0x00\n        /* \"#utility.yul\":3684:3772   */\n      mstore\n        /* \"#utility.yul\":3791:3795   */\n      0x41\n        /* \"#utility.yul\":3788:3789   */\n      0x04\n        /* \"#utility.yul\":3781:3796   */\n      mstore\n        /* \"#utility.yul\":3815:3819   */\n      0x24\n        /* \"#utility.yul\":3812:3813   */\n      0x00\n        /* \"#utility.yul\":3805:3820   */\n      revert\n        /* \"#utility.yul\":3832:4113   */\n    tag_33:\n        /* \"#utility.yul\":3915:3942   */\n      tag_80\n        /* \"#utility.yul\":3937:3941   */\n      dup3\n        /* \"#utility.yul\":3915:3942   */\n      tag_23\n      jump\t// in\n    tag_80:\n        /* \"#utility.yul\":3907:3913   */\n      dup2\n        /* \"#utility.yul\":3903:3943   */\n      add\n        /* \"#utility.yul\":4045:4051   */\n      dup2\n        /* \"#utility.yul\":4033:4043   */\n      dup2\n        /* \"#utility.yul\":4030:4052   */\n      lt\n        /* \"#utility.yul\":4009:4027   */\n      0xffffffffffffffff\n        /* \"#utility.yul\":3997:4007   */\n      dup3\n        /* \"#utility.yul\":3994:4028   */\n      gt\n        /* \"#utility.yul\":3991:4053   */\n      or\n        /* \"#utility.yul\":3988:4076   */\n      iszero\n      tag_81\n      jumpi\n        /* \"#utility.yul\":4056:4074   */\n      tag_82\n      tag_32\n      jump\t// in\n    tag_82:\n        /* \"#utility.yul\":3988:4076   */\n    tag_81:\n        /* \"#utility.yul\":4096:4106   */\n      dup1\n        /* \"#utility.yul\":4092:4094   */\n      0x40\n        /* \"#utility.yul\":4085:4107   */\n      mstore\n        /* \"#utility.yul\":3875:4113   */\n      pop\n        /* \"#utility.yul\":3832:4113   */\n      pop\n      pop\n      jump\t// out\n        /* \"#utility.yul\":4119:4248   */\n    tag_34:\n        /* \"#utility.yul\":4153:4159   */\n      0x00\n        /* \"#utility.yul\":4180:4200   */\n      tag_84\n      tag_28\n      jump\t// in\n    tag_84:\n        /* \"#utility.yul\":4170:4200   */\n      swap1\n      pop\n        /* \"#utility.yul\":4209:4242   */\n      tag_85\n        /* \"#utility.yul\":4237:4241   */\n      dup3\n        /* \"#utility.yul\":4229:4235   */\n      dup3\n        /* \"#utility.yul\":4209:4242   */\n      tag_33\n      jump\t// in\n    tag_85:\n        /* \"#utility.yul\":4119:4248   */\n      swap2\n      swap1\n      pop\n      jump\t// out\n        /* \"#utility.yul\":4254:4513   */\n    tag_35:\n        /* \"#utility.yul\":4339:4343   */\n      0x00\n        /* \"#utility.yul\":4429:4447   */\n      0xffffffffffffffff\n        /* \"#utility.yul\":4421:4427   */\n      dup3\n        /* \"#utility.yul\":4418:4448   */\n      gt\n        /* \"#utility.yul\":4415:4471   */\n      iszero\n      tag_87\n      jumpi\n        /* \"#utility.yul\":4451:4469   */\n      tag_88\n      tag_32\n      jump\t// in\n    tag_88:\n        /* \"#utility.yul\":4415:4471   */\n    tag_87:\n        /* \"#utility.yul\":4501:4505   */\n      0x20\n        /* \"#utility.yul\":4493:4499   */\n      dup3\n        /* \"#utility.yul\":4489:4506   */\n      mul\n        /* \"#utility.yul\":4481:4506   */\n      swap1\n      pop\n        /* \"#utility.yul\":4254:4513   */\n      swap2\n      swap1\n      pop\n      jump\t// out\n        /* \"#utility.yul\":4519:4636   */\n    tag_36:\n        /* \"#utility.yul\":4628:4629   */\n      0x00\n        /* \"#utility.yul\":4625:4626   */\n      dup1\n        /* \"#utility.yul\":4618:4630   */\n      revert\n        /* \"#utility.yul\":4642:4759   */\n    tag_37:\n        /* \"#utility.yul\":4751:4752   */\n      0x00\n        /* \"#utility.yul\":4748:4749   */\n      dup1\n        /* \"#utility.yul\":4741:4753   */\n      revert\n        /* \"#utility.yul\":4765:5073   */\n    tag_38:\n        /* \"#utility.yul\":4827:4831   */\n      0x00\n        /* \"#utility.yul\":4917:4935   */\n      0xffffffffffffffff\n        /* \"#utility.yul\":4909:4915   */\n      dup3\n        /* \"#utility.yul\":4906:4936   */\n      gt\n        /* \"#utility.yul\":4903:4959   */\n      iszero\n      tag_92\n      jumpi\n        /* \"#utility.yul\":4939:4957   */\n      tag_93\n      tag_32\n      jump\t// in\n    tag_93:\n        /* \"#utility.yul\":4903:4959   */\n    tag_92:\n        /* \"#utility.yul\":4977:5006   */\n      tag_94\n        /* \"#utility.yul\":4999:5005   */\n      dup3\n        /* \"#utility.yul\":4977:5006   */\n      tag_23\n      jump\t// in\n    tag_94:\n        /* \"#utility.yul\":4969:5006   */\n      swap1\n      pop\n        /* \"#utility.yul\":5061:5065   */\n      0x20\n        /* \"#utility.yul\":5055:5059   */\n      dup2\n        /* \"#utility.yul\":5051:5066   */\n      add\n        /* \"#utility.yul\":5043:5066   */\n      swap1\n      pop\n        /* \"#utility.yul\":4765:5073   */\n      swap2\n      swap1\n      pop\n      jump\t// out\n        /* \"#utility.yul\":5079:5500   */\n    tag_39:\n        /* \"#utility.yul\":5168:5173   */\n      0x00\n        /* \"#utility.yul\":5193:5259   */\n      tag_96\n        /* \"#utility.yul\":5209:5258   */\n      tag_97\n        /* \"#utility.yul\":5251:5257   */\n      dup5\n        /* \"#utility.yul\":5209:5258   */\n      tag_38\n      jump\t// in\n    tag_97:\n        /* \"#utility.yul\":5193:5259   */\n      tag_34\n      jump\t// in\n    tag_96:\n        /* \"#utility.yul\":5184:5259   */\n      swap1\n      pop\n        /* \"#utility.yul\":5282:5288   */\n      dup3\n        /* \"#utility.yul\":5275:5280   */\n      dup2\n        /* \"#utility.yul\":5268:5289   */\n      mstore\n        /* \"#utility.yul\":5320:5324   */\n      0x20\n        /* \"#utility.yul\":5313:5318   */\n      dup2\n        /* \"#utility.yul\":5309:5325   */\n      add\n        /* \"#utility.yul\":5358:5361   */\n      dup5\n        /* \"#utility.yul\":5349:5355   */\n      dup5\n        /* \"#utility.yul\":5344:5347   */\n      dup5\n        /* \"#utility.yul\":5340:5356   */\n      add\n        /* \"#utility.yul\":5337:5362   */\n      gt\n        /* \"#utility.yul\":5334:5446   */\n      iszero\n      tag_98\n      jumpi\n        /* \"#utility.yul\":5365:5444   */\n      tag_99\n      tag_37\n      jump\t// in\n    tag_99:\n        /* \"#utility.yul\":5334:5446   */\n    tag_98:\n        /* \"#utility.yul\":5455:5494   */\n      tag_100\n        /* \"#utility.yul\":5487:5493   */\n      dup5\n        /* \"#utility.yul\":5482:5485   */\n      dup3\n        /* \"#utility.yul\":5477:5480   */\n      dup6\n        /* \"#utility.yul\":5455:5494   */\n      tag_22\n      jump\t// in\n    tag_100:\n        /* \"#utility.yul\":5174:5500   */\n      pop\n        /* \"#utility.yul\":5079:5500   */\n      swap4\n      swap3\n      pop\n      pop\n      pop\n      jump\t// out\n        /* \"#utility.yul\":5520:5875   */\n    tag_40:\n        /* \"#utility.yul\":5587:5592   */\n      0x00\n        /* \"#utility.yul\":5636:5639   */\n      dup3\n        /* \"#utility.yul\":5629:5633   */\n      0x1f\n        /* \"#utility.yul\":5621:5627   */\n      dup4\n        /* \"#utility.yul\":5617:5634   */\n      add\n        /* \"#utility.yul\":5613:5640   */\n      slt\n        /* \"#utility.yul\":5603:5725   */\n      tag_102\n      jumpi\n        /* \"#utility.yul\":5644:5723   */\n      tag_103\n      tag_31\n      jump\t// in\n    tag_103:\n        /* \"#utility.yul\":5603:5725   */\n    tag_102:\n        /* \"#utility.yul\":5754:5760   */\n      dup2\n        /* \"#utility.yul\":5748:5761   */\n      mload\n        /* \"#utility.yul\":5779:5869   */\n      tag_104\n        /* \"#utility.yul\":5865:5868   */\n      dup5\n        /* \"#utility.yul\":5857:5863   */\n      dup3\n        /* \"#utility.yul\":5850:5854   */\n      0x20\n        /* \"#utility.yul\":5842:5848   */\n      dup7\n        /* \"#utility.yul\":5838:5855   */\n      add\n        /* \"#utility.yul\":5779:5869   */\n      tag_39\n      jump\t// in\n    tag_104:\n        /* \"#utility.yul\":5770:5869   */\n      swap2\n      pop\n        /* \"#utility.yul\":5593:5875   */\n      pop\n        /* \"#utility.yul\":5520:5875   */\n      swap3\n      swap2\n      pop\n      pop\n      jump\t// out\n        /* \"#utility.yul\":5898:6791   */\n    tag_41:\n        /* \"#utility.yul\":6013:6018   */\n      0x00\n        /* \"#utility.yul\":6038:6127   */\n      tag_106\n        /* \"#utility.yul\":6054:6126   */\n      tag_107\n        /* \"#utility.yul\":6119:6125   */\n      dup5\n        /* \"#utility.yul\":6054:6126   */\n      tag_35\n      jump\t// in\n    tag_107:\n        /* \"#utility.yul\":6038:6127   */\n      tag_34\n      jump\t// in\n    tag_106:\n        /* \"#utility.yul\":6029:6127   */\n      swap1\n      pop\n        /* \"#utility.yul\":6147:6152   */\n      dup1\n        /* \"#utility.yul\":6200:6204   */\n      0x20\n        /* \"#utility.yul\":6192:6198   */\n      dup5\n        /* \"#utility.yul\":6188:6205   */\n      mul\n        /* \"#utility.yul\":6180:6186   */\n      dup4\n        /* \"#utility.yul\":6176:6206   */\n      add\n        /* \"#utility.yul\":6229:6232   */\n      dup6\n        /* \"#utility.yul\":6221:6227   */\n      dup2\n        /* \"#utility.yul\":6218:6233   */\n      gt\n        /* \"#utility.yul\":6215:6337   */\n      iszero\n      tag_108\n      jumpi\n        /* \"#utility.yul\":6248:6327   */\n      tag_109\n      tag_36\n      jump\t// in\n    tag_109:\n        /* \"#utility.yul\":6215:6337   */\n    tag_108:\n        /* \"#utility.yul\":6363:6369   */\n      dup4\n        /* \"#utility.yul\":6346:6785   */\n    tag_110:\n        /* \"#utility.yul\":6380:6386   */\n      dup2\n        /* \"#utility.yul\":6375:6378   */\n      dup2\n        /* \"#utility.yul\":6372:6387   */\n      lt\n        /* \"#utility.yul\":6346:6785   */\n      iszero\n      tag_112\n      jumpi\n        /* \"#utility.yul\":6462:6465   */\n      dup1\n        /* \"#utility.yul\":6456:6466   */\n      mload\n        /* \"#utility.yul\":6498:6516   */\n      0xffffffffffffffff\n        /* \"#utility.yul\":6485:6496   */\n      dup2\n        /* \"#utility.yul\":6482:6517   */\n      gt\n        /* \"#utility.yul\":6479:6601   */\n      iszero\n      tag_113\n      jumpi\n        /* \"#utility.yul\":6520:6599   */\n      tag_114\n      tag_31\n      jump\t// in\n    tag_114:\n        /* \"#utility.yul\":6479:6601   */\n    tag_113:\n        /* \"#utility.yul\":6644:6655   */\n      dup1\n        /* \"#utility.yul\":6636:6642   */\n      dup7\n        /* \"#utility.yul\":6632:6656   */\n      add\n        /* \"#utility.yul\":6682:6740   */\n      tag_115\n        /* \"#utility.yul\":6736:6739   */\n      dup10\n        /* \"#utility.yul\":6724:6734   */\n      dup3\n        /* \"#utility.yul\":6682:6740   */\n      tag_40\n      jump\t// in\n    tag_115:\n        /* \"#utility.yul\":6677:6680   */\n      dup6\n        /* \"#utility.yul\":6670:6741   */\n      mstore\n        /* \"#utility.yul\":6770:6774   */\n      0x20\n        /* \"#utility.yul\":6765:6768   */\n      dup6\n        /* \"#utility.yul\":6761:6775   */\n      add\n        /* \"#utility.yul\":6754:6775   */\n      swap5\n      pop\n        /* \"#utility.yul\":6422:6785   */\n      pop\n      pop\n        /* \"#utility.yul\":6406:6410   */\n      0x20\n        /* \"#utility.yul\":6401:6404   */\n      dup2\n        /* \"#utility.yul\":6397:6411   */\n      add\n        /* \"#utility.yul\":6390:6411   */\n      swap1\n      pop\n        /* \"#utility.yul\":6346:6785   */\n      jump(tag_110)\n    tag_112:\n        /* \"#utility.yul\":6350:6371   */\n      pop\n        /* \"#utility.yul\":6019:6791   */\n      pop\n      pop\n        /* \"#utility.yul\":5898:6791   */\n      swap4\n      swap3\n      pop\n      pop\n      pop\n      jump\t// out\n        /* \"#utility.yul\":6814:7195   */\n    tag_42:\n        /* \"#utility.yul\":6904:6909   */\n      0x00\n        /* \"#utility.yul\":6953:6956   */\n      dup3\n        /* \"#utility.yul\":6946:6950   */\n      0x1f\n        /* \"#utility.yul\":6938:6944   */\n      dup4\n        /* \"#utility.yul\":6934:6951   */\n      add\n        /* \"#utility.yul\":6930:6957   */\n      slt\n        /* \"#utility.yul\":6920:7042   */\n      tag_117\n      jumpi\n        /* \"#utility.yul\":6961:7040   */\n      tag_118\n      tag_31\n      jump\t// in\n    tag_118:\n        /* \"#utility.yul\":6920:7042   */\n    tag_117:\n        /* \"#utility.yul\":7065:7069   */\n      0x03\n        /* \"#utility.yul\":7087:7189   */\n      tag_119\n        /* \"#utility.yul\":7185:7188   */\n      dup5\n        /* \"#utility.yul\":7177:7183   */\n      dup3\n        /* \"#utility.yul\":7169:7175   */\n      dup6\n        /* \"#utility.yul\":7087:7189   */\n      tag_41\n      jump\t// in\n    tag_119:\n        /* \"#utility.yul\":7078:7189   */\n      swap2\n      pop\n        /* \"#utility.yul\":6910:7195   */\n      pop\n        /* \"#utility.yul\":6814:7195   */\n      swap3\n      swap2\n      pop\n      pop\n      jump\t// out\n        /* \"#utility.yul\":7201:7771   */\n    tag_15:\n        /* \"#utility.yul\":7304:7310   */\n      0x00\n        /* \"#utility.yul\":7353:7355   */\n      0x20\n        /* \"#utility.yul\":7341:7350   */\n      dup3\n        /* \"#utility.yul\":7332:7339   */\n      dup5\n        /* \"#utility.yul\":7328:7351   */\n      sub\n        /* \"#utility.yul\":7324:7356   */\n      slt\n        /* \"#utility.yul\":7321:7440   */\n      iszero\n      tag_121\n      jumpi\n        /* \"#utility.yul\":7359:7438   */\n      tag_122\n      tag_29\n      jump\t// in\n    tag_122:\n        /* \"#utility.yul\":7321:7440   */\n    tag_121:\n        /* \"#utility.yul\":7500:7501   */\n      0x00\n        /* \"#utility.yul\":7489:7498   */\n      dup3\n        /* \"#utility.yul\":7485:7502   */\n      add\n        /* \"#utility.yul\":7479:7503   */\n      mload\n        /* \"#utility.yul\":7530:7548   */\n      0xffffffffffffffff\n        /* \"#utility.yul\":7522:7528   */\n      dup2\n        /* \"#utility.yul\":7519:7549   */\n      gt\n        /* \"#utility.yul\":7516:7633   */\n      iszero\n      tag_123\n      jumpi\n        /* \"#utility.yul\":7552:7631   */\n      tag_124\n      tag_30\n      jump\t// in\n    tag_124:\n        /* \"#utility.yul\":7516:7633   */\n    tag_123:\n        /* \"#utility.yul\":7657:7754   */\n      tag_125\n        /* \"#utility.yul\":7746:7753   */\n      dup5\n        /* \"#utility.yul\":7737:7743   */\n      dup3\n        /* \"#utility.yul\":7726:7735   */\n      dup6\n        /* \"#utility.yul\":7722:7744   */\n      add\n        /* \"#utility.yul\":7657:7754   */\n      tag_42\n      jump\t// in\n    tag_125:\n        /* \"#utility.yul\":7647:7754   */\n      swap2\n      pop\n        /* \"#utility.yul\":7450:7764   */\n      pop\n        /* \"#utility.yul\":7201:7771   */\n      swap3\n      swap2\n      pop\n      pop\n      jump\t// out\n\n    auxdata: 0xa2646970667358221220a3ba5c7b4a6253e7815a014b3a4be88ee0af0d5d5afcc1329dba6a2888370e6464736f6c63430008080033\n}\n",
				"bytecode": {
					"linkReferences": {},
					"object": "608060405234801561001057600080fd5b5061051d806100206000396000f3fe608060405234801561001057600080fd5b506004361061002b5760003560e01c80638d03b10214610030575b600080fd5b61003861004e565b604051610045919061026e565b60405180910390f35b6100566100f8565b60007350c7a09925375438d2cee94c5c59266c6ffaaf8c90508073ffffffffffffffffffffffffffffffffffffffff166348441d5f6040518163ffffffff1660e01b815260040160006040518083038186803b1580156100b557600080fd5b505afa1580156100c9573d6000803e3d6000fd5b505050506040513d6000823e3d601f19601f820116820180604052508101906100f2919061049e565b91505090565b60405180606001604052806003905b60608152602001906001900390816101075790505090565b600060039050919050565b600081905092915050565b6000819050919050565b600081519050919050565b600082825260208201905092915050565b60005b8381101561017957808201518184015260208101905061015e565b83811115610188576000848401525b50505050565b6000601f19601f8301169050919050565b60006101aa8261013f565b6101b4818561014a565b93506101c481856020860161015b565b6101cd8161018e565b840191505092915050565b60006101e4838361019f565b905092915050565b6000602082019050919050565b60006102048261011f565b61020e818561012a565b93508360208202850161022085610135565b8060005b8581101561025c578484038952815161023d85826101d8565b9450610248836101ec565b925060208a01995050600181019050610224565b50829750879550505050505092915050565b6000602082019050818103600083015261028881846101f9565b905092915050565b6000604051905090565b600080fd5b600080fd5b600080fd5b7f4e487b7100000000000000000000000000000000000000000000000000000000600052604160045260246000fd5b6102e18261018e565b810181811067ffffffffffffffff82111715610300576102ff6102a9565b5b80604052505050565b6000610313610290565b905061031f82826102d8565b919050565b600067ffffffffffffffff82111561033f5761033e6102a9565b5b602082029050919050565b600080fd5b600080fd5b600067ffffffffffffffff82111561036f5761036e6102a9565b5b6103788261018e565b9050602081019050919050565b600061039861039384610354565b610309565b9050828152602081018484840111156103b4576103b361034f565b5b6103bf84828561015b565b509392505050565b600082601f8301126103dc576103db6102a4565b5b81516103ec848260208601610385565b91505092915050565b600061040861040384610324565b610309565b905080602084028301858111156104225761042161034a565b5b835b8181101561046957805167ffffffffffffffff811115610447576104466102a4565b5b80860161045489826103c7565b85526020850194505050602081019050610424565b5050509392505050565b600082601f830112610488576104876102a4565b5b60036104958482856103f5565b91505092915050565b6000602082840312156104b4576104b361029a565b5b600082015167ffffffffffffffff8111156104d2576104d161029f565b5b6104de84828501610473565b9150509291505056fea2646970667358221220a3ba5c7b4a6253e7815a014b3a4be88ee0af0d5d5afcc1329dba6a2888370e6464736f6c63430008080033",
					"opcodes": "PUSH1 0x80 PUSH1 0x40 MSTORE CALLVALUE DUP1 ISZERO PUSH2 0x10 JUMPI PUSH1 0x0 DUP1 REVERT JUMPDEST POP PUSH2 0x51D DUP1 PUSH2 0x20 PUSH1 0x0 CODECOPY PUSH1 0x0 RETURN INVALID PUSH1 0x80 PUSH1 0x40 MSTORE CALLVALUE DUP1 ISZERO PUSH2 0x10 JUMPI PUSH1 0x0 DUP1 REVERT JUMPDEST POP PUSH1 0x4 CALLDATASIZE LT PUSH2 0x2B JUMPI PUSH1 0x0 CALLDATALOAD PUSH1 0xE0 SHR DUP1 PUSH4 0x8D03B102 EQ PUSH2 0x30 JUMPI JUMPDEST PUSH1 0x0 DUP1 REVERT JUMPDEST PUSH2 0x38 PUSH2 0x4E JUMP JUMPDEST PUSH1 0x40 MLOAD PUSH2 0x45 SWAP2 SWAP1 PUSH2 0x26E JUMP JUMPDEST PUSH1 0x40 MLOAD DUP1 SWAP2 SUB SWAP1 RETURN JUMPDEST PUSH2 0x56 PUSH2 0xF8 JUMP JUMPDEST PUSH1 0x0 PUSH20 0x50C7A09925375438D2CEE94C5C59266C6FFAAF8C SWAP1 POP DUP1 PUSH20 0xFFFFFFFFFFFFFFFFFFFFFFFFFFFFFFFFFFFFFFFF AND PUSH4 0x48441D5F PUSH1 0x40 MLOAD DUP2 PUSH4 0xFFFFFFFF AND PUSH1 0xE0 SHL DUP2 MSTORE PUSH1 0x4 ADD PUSH1 0x0 PUSH1 0x40 MLOAD DUP1 DUP4 SUB DUP2 DUP7 DUP1 EXTCODESIZE ISZERO DUP1 ISZERO PUSH2 0xB5 JUMPI PUSH1 0x0 DUP1 REVERT JUMPDEST POP GAS STATICCALL ISZERO DUP1 ISZERO PUSH2 0xC9 JUMPI RETURNDATASIZE PUSH1 0x0 DUP1 RETURNDATACOPY RETURNDATASIZE PUSH1 0x0 REVERT JUMPDEST POP POP POP POP PUSH1 0x40 MLOAD RETURNDATASIZE PUSH1 0x0 DUP3 RETURNDATACOPY RETURNDATASIZE PUSH1 0x1F NOT PUSH1 0x1F DUP3 ADD AND DUP3 ADD DUP1 PUSH1 0x40 MSTORE POP DUP2 ADD SWAP1 PUSH2 0xF2 SWAP2 SWAP1 PUSH2 0x49E JUMP JUMPDEST SWAP2 POP POP SWAP1 JUMP JUMPDEST PUSH1 0x40 MLOAD DUP1 PUSH1 0x60 ADD PUSH1 0x40 MSTORE DUP1 PUSH1 0x3 SWAP1 JUMPDEST PUSH1 0x60 DUP2 MSTORE PUSH1 0x20 ADD SWAP1 PUSH1 0x1 SWAP1 SUB SWAP1 DUP2 PUSH2 0x107 JUMPI SWAP1 POP POP SWAP1 JUMP JUMPDEST PUSH1 0x0 PUSH1 0x3 SWAP1 POP SWAP2 SWAP1 POP JUMP JUMPDEST PUSH1 0x0 DUP2 SWAP1 POP SWAP3 SWAP2 POP POP JUMP JUMPDEST PUSH1 0x0 DUP2 SWAP1 POP SWAP2 SWAP1 POP JUMP JUMPDEST PUSH1 0x0 DUP2 MLOAD SWAP1 POP SWAP2 SWAP1 POP JUMP JUMPDEST PUSH1 0x0 DUP3 DUP3 MSTORE PUSH1 0x20 DUP3 ADD SWAP1 POP SWAP3 SWAP2 POP POP JUMP JUMPDEST PUSH1 0x0 JUMPDEST DUP4 DUP2 LT ISZERO PUSH2 0x179 JUMPI DUP1 DUP3 ADD MLOAD DUP2 DUP5 ADD MSTORE PUSH1 0x20 DUP2 ADD SWAP1 POP PUSH2 0x15E JUMP JUMPDEST DUP4 DUP2 GT ISZERO PUSH2 0x188 JUMPI PUSH1 0x0 DUP5 DUP5 ADD MSTORE JUMPDEST POP POP POP POP JUMP JUMPDEST PUSH1 0x0 PUSH1 0x1F NOT PUSH1 0x1F DUP4 ADD AND SWAP1 POP SWAP2 SWAP1 POP JUMP JUMPDEST PUSH1 0x0 PUSH2 0x1AA DUP3 PUSH2 0x13F JUMP JUMPDEST PUSH2 0x1B4 DUP2 DUP6 PUSH2 0x14A JUMP JUMPDEST SWAP4 POP PUSH2 0x1C4 DUP2 DUP6 PUSH1 0x20 DUP7 ADD PUSH2 0x15B JUMP JUMPDEST PUSH2 0x1CD DUP2 PUSH2 0x18E JUMP JUMPDEST DUP5 ADD SWAP2 POP POP SWAP3 SWAP2 POP POP JUMP JUMPDEST PUSH1 0x0 PUSH2 0x1E4 DUP4 DUP4 PUSH2 0x19F JUMP JUMPDEST SWAP1 POP SWAP3 SWAP2 POP POP JUMP JUMPDEST PUSH1 0x0 PUSH1 0x20 DUP3 ADD SWAP1 POP SWAP2 SWAP1 POP JUMP JUMPDEST PUSH1 0x0 PUSH2 0x204 DUP3 PUSH2 0x11F JUMP JUMPDEST PUSH2 0x20E DUP2 DUP6 PUSH2 0x12A JUMP JUMPDEST SWAP4 POP DUP4 PUSH1 0x20 DUP3 MUL DUP6 ADD PUSH2 0x220 DUP6 PUSH2 0x135 JUMP JUMPDEST DUP1 PUSH1 0x0 JUMPDEST DUP6 DUP2 LT ISZERO PUSH2 0x25C JUMPI DUP5 DUP5 SUB DUP10 MSTORE DUP2 MLOAD PUSH2 0x23D DUP6 DUP3 PUSH2 0x1D8 JUMP JUMPDEST SWAP5 POP PUSH2 0x248 DUP4 PUSH2 0x1EC JUMP JUMPDEST SWAP3 POP PUSH1 0x20 DUP11 ADD SWAP10 POP POP PUSH1 0x1 DUP2 ADD SWAP1 POP PUSH2 0x224 JUMP JUMPDEST POP DUP3 SWAP8 POP DUP8 SWAP6 POP POP POP POP POP POP SWAP3 SWAP2 POP POP JUMP JUMPDEST PUSH1 0x0 PUSH1 0x20 DUP3 ADD SWAP1 POP DUP2 DUP2 SUB PUSH1 0x0 DUP4 ADD MSTORE PUSH2 0x288 DUP2 DUP5 PUSH2 0x1F9 JUMP JUMPDEST SWAP1 POP SWAP3 SWAP2 POP POP JUMP JUMPDEST PUSH1 0x0 PUSH1 0x40 MLOAD SWAP1 POP SWAP1 JUMP JUMPDEST PUSH1 0x0 DUP1 REVERT JUMPDEST PUSH1 0x0 DUP1 REVERT JUMPDEST PUSH1 0x0 DUP1 REVERT JUMPDEST PUSH32 0x4E487B7100000000000000000000000000000000000000000000000000000000 PUSH1 0x0 MSTORE PUSH1 0x41 PUSH1 0x4 MSTORE PUSH1 0x24 PUSH1 0x0 REVERT JUMPDEST PUSH2 0x2E1 DUP3 PUSH2 0x18E JUMP JUMPDEST DUP2 ADD DUP2 DUP2 LT PUSH8 0xFFFFFFFFFFFFFFFF DUP3 GT OR ISZERO PUSH2 0x300 JUMPI PUSH2 0x2FF PUSH2 0x2A9 JUMP JUMPDEST JUMPDEST DUP1 PUSH1 0x40 MSTORE POP POP POP JUMP JUMPDEST PUSH1 0x0 PUSH2 0x313 PUSH2 0x290 JUMP JUMPDEST SWAP1 POP PUSH2 0x31F DUP3 DUP3 PUSH2 0x2D8 JUMP JUMPDEST SWAP2 SWAP1 POP JUMP JUMPDEST PUSH1 0x0 PUSH8 0xFFFFFFFFFFFFFFFF DUP3 GT ISZERO PUSH2 0x33F JUMPI PUSH2 0x33E PUSH2 0x2A9 JUMP JUMPDEST JUMPDEST PUSH1 0x20 DUP3 MUL SWAP1 POP SWAP2 SWAP1 POP JUMP JUMPDEST PUSH1 0x0 DUP1 REVERT JUMPDEST PUSH1 0x0 DUP1 REVERT JUMPDEST PUSH1 0x0 PUSH8 0xFFFFFFFFFFFFFFFF DUP3 GT ISZERO PUSH2 0x36F JUMPI PUSH2 0x36E PUSH2 0x2A9 JUMP JUMPDEST JUMPDEST PUSH2 0x378 DUP3 PUSH2 0x18E JUMP JUMPDEST SWAP1 POP PUSH1 0x20 DUP2 ADD SWAP1 POP SWAP2 SWAP1 POP JUMP JUMPDEST PUSH1 0x0 PUSH2 0x398 PUSH2 0x393 DUP5 PUSH2 0x354 JUMP JUMPDEST PUSH2 0x309 JUMP JUMPDEST SWAP1 POP DUP3 DUP2 MSTORE PUSH1 0x20 DUP2 ADD DUP5 DUP5 DUP5 ADD GT ISZERO PUSH2 0x3B4 JUMPI PUSH2 0x3B3 PUSH2 0x34F JUMP JUMPDEST JUMPDEST PUSH2 0x3BF DUP5 DUP3 DUP6 PUSH2 0x15B JUMP JUMPDEST POP SWAP4 SWAP3 POP POP POP JUMP JUMPDEST PUSH1 0x0 DUP3 PUSH1 0x1F DUP4 ADD SLT PUSH2 0x3DC JUMPI PUSH2 0x3DB PUSH2 0x2A4 JUMP JUMPDEST JUMPDEST DUP2 MLOAD PUSH2 0x3EC DUP5 DUP3 PUSH1 0x20 DUP7 ADD PUSH2 0x385 JUMP JUMPDEST SWAP2 POP POP SWAP3 SWAP2 POP POP JUMP JUMPDEST PUSH1 0x0 PUSH2 0x408 PUSH2 0x403 DUP5 PUSH2 0x324 JUMP JUMPDEST PUSH2 0x309 JUMP JUMPDEST SWAP1 POP DUP1 PUSH1 0x20 DUP5 MUL DUP4 ADD DUP6 DUP2 GT ISZERO PUSH2 0x422 JUMPI PUSH2 0x421 PUSH2 0x34A JUMP JUMPDEST JUMPDEST DUP4 JUMPDEST DUP2 DUP2 LT ISZERO PUSH2 0x469 JUMPI DUP1 MLOAD PUSH8 0xFFFFFFFFFFFFFFFF DUP2 GT ISZERO PUSH2 0x447 JUMPI PUSH2 0x446 PUSH2 0x2A4 JUMP JUMPDEST JUMPDEST DUP1 DUP7 ADD PUSH2 0x454 DUP10 DUP3 PUSH2 0x3C7 JUMP JUMPDEST DUP6 MSTORE PUSH1 0x20 DUP6 ADD SWAP5 POP POP POP PUSH1 0x20 DUP2 ADD SWAP1 POP PUSH2 0x424 JUMP JUMPDEST POP POP POP SWAP4 SWAP3 POP POP POP JUMP JUMPDEST PUSH1 0x0 DUP3 PUSH1 0x1F DUP4 ADD SLT PUSH2 0x488 JUMPI PUSH2 0x487 PUSH2 0x2A4 JUMP JUMPDEST JUMPDEST PUSH1 0x3 PUSH2 0x495 DUP5 DUP3 DUP6 PUSH2 0x3F5 JUMP JUMPDEST SWAP2 POP POP SWAP3 SWAP2 POP POP JUMP JUMPDEST PUSH1 0x0 PUSH1 0x20 DUP3 DUP5 SUB SLT ISZERO PUSH2 0x4B4 JUMPI PUSH2 0x4B3 PUSH2 0x29A JUMP JUMPDEST JUMPDEST PUSH1 0x0 DUP3 ADD MLOAD PUSH8 0xFFFFFFFFFFFFFFFF DUP2 GT ISZERO PUSH2 0x4D2 JUMPI PUSH2 0x4D1 PUSH2 0x29F JUMP JUMPDEST JUMPDEST PUSH2 0x4DE DUP5 DUP3 DUP6 ADD PUSH2 0x473 JUMP JUMPDEST SWAP2 POP POP SWAP3 SWAP2 POP POP JUMP INVALID LOG2 PUSH5 0x6970667358 0x22 SLT KECCAK256 LOG3 0xBA 0x5C PUSH28 0x4A6253E7815A014B3A4BE88EE0AF0D5D5AFCC1329DBA6A2888370E64 PUSH5 0x736F6C6343 STOP ADDMOD ADDMOD STOP CALLER "
				},
				"gasEstimates": {
					"creation": {
						"codeDepositCost": "261800",
						"executionCost": "300",
						"totalCost": "262100"
					},
					"external": {
						"testing()": "infinite"
					}
				},
				"methodIdentifiers": {
					"testing()": "8d03b102"
				}
			},
			"storageLayout": {
				"storage": [],
				"types": null
			},
			"userdoc": {
				"kind": "user",
				"methods": {},
				"version": 1
			}
		}
	}
}