{
	"contracts/TestInterview.sol": {
		"TestInterview": {
			"abi": [
				{
					"inputs": [],
					"name": "createGatcha",
					"outputs": [],
					"stateMutability": "nonpayable",
					"type": "function"
				},
				{
					"inputs": [
						{
							"internalType": "uint256",
							"name": "_indexUser",
							"type": "uint256"
						}
					],
					"name": "getUsers",
					"outputs": [
						{
							"internalType": "uint256",
							"name": "",
							"type": "uint256"
						}
					],
					"stateMutability": "view",
					"type": "function"
				},
				{
					"inputs": [],
					"name": "isFoundGlobal",
					"outputs": [
						{
							"internalType": "bool",
							"name": "",
							"type": "bool"
						}
					],
					"stateMutability": "view",
					"type": "function"
				},
				{
					"inputs": [],
					"name": "ownerAddress",
					"outputs": [
						{
							"internalType": "address",
							"name": "",
							"type": "address"
						}
					],
					"stateMutability": "view",
					"type": "function"
				},
				{
					"inputs": [
						{
							"internalType": "uint256",
							"name": "",
							"type": "uint256"
						}
					],
					"name": "rarityList",
					"outputs": [
						{
							"internalType": "string",
							"name": "",
							"type": "string"
						}
					],
					"stateMutability": "view",
					"type": "function"
				},
				{
					"inputs": [],
					"name": "rarityListFunc",
					"outputs": [
						{
							"internalType": "string",
							"name": "",
							"type": "string"
						}
					],
					"stateMutability": "view",
					"type": "function"
				},
				{
					"inputs": [
						{
							"internalType": "string",
							"name": "_nameRarity",
							"type": "string"
						}
					],
					"name": "rarityRateFunc",
					"outputs": [
						{
							"internalType": "uint256",
							"name": "",
							"type": "uint256"
						}
					],
					"stateMutability": "view",
					"type": "function"
				},
				{
					"inputs": [
						{
							"internalType": "uint256",
							"name": "",
							"type": "uint256"
						}
					],
					"name": "registeredUsers",
					"outputs": [
						{
							"internalType": "address",
							"name": "userAddress",
							"type": "address"
						},
						{
							"internalType": "uint256",
							"name": "counterVisited",
							"type": "uint256"
						}
					],
					"stateMutability": "view",
					"type": "function"
				},
				{
					"inputs": [],
					"name": "userAddress",
					"outputs": [
						{
							"internalType": "address",
							"name": "",
							"type": "address"
						}
					],
					"stateMutability": "view",
					"type": "function"
				}
			],
			"devdoc": {
				"kind": "dev",
				"methods": {},
				"version": 1
			},
			"evm": {
				"assembly": "    /* \"contracts/TestInterview.sol\":208:1854  contract TestInterview {... */\n  mstore(0x40, 0x80)\n    /* \"contracts/TestInterview.sol\":291:333  0x50C7a09925375438D2cEe94C5c59266c6fFAAf8C */\n  0x50c7a09925375438d2cee94c5c59266c6ffaaf8c\n    /* \"contracts/TestInterview.sol\":271:334  INFT objINFT = INFT(0x50C7a09925375438D2cEe94C5c59266c6fFAAf8C) */\n  0x01\n  exp(0x0100, 0x00)\n  dup2\n  sload\n  dup2\n  0xffffffffffffffffffffffffffffffffffffffff\n  mul\n  not\n  and\n  swap1\n  dup4\n  0xffffffffffffffffffffffffffffffffffffffff\n  and\n  mul\n  or\n  swap1\n  sstore\n  pop\n    /* \"contracts/TestInterview.sol\":371:413  0xdBDdb8575F6bda11F1DC548A1B546463CC567C3d */\n  0xdbddb8575f6bda11f1dc548a1b546463cc567c3d\n    /* \"contracts/TestInterview.sol\":341:413  address public ownerAddress = 0xdBDdb8575F6bda11F1DC548A1B546463CC567C3d */\n  0x02\n  exp(0x0100, 0x00)\n  dup2\n  sload\n  dup2\n  0xffffffffffffffffffffffffffffffffffffffff\n  mul\n  not\n  and\n  swap1\n  dup4\n  0xffffffffffffffffffffffffffffffffffffffff\n  and\n  mul\n  or\n  swap1\n  sstore\n  pop\n    /* \"contracts/TestInterview.sol\":448:458  msg.sender */\n  caller\n    /* \"contracts/TestInterview.sol\":419:458  address public userAddress = msg.sender */\n  0x03\n  exp(0x0100, 0x00)\n  dup2\n  sload\n  dup2\n  0xffffffffffffffffffffffffffffffffffffffff\n  mul\n  not\n  and\n  swap1\n  dup4\n  0xffffffffffffffffffffffffffffffffffffffff\n  and\n  mul\n  or\n  swap1\n  sstore\n  pop\n    /* \"contracts/TestInterview.sol\":493:498  false */\n  0x00\n    /* \"contracts/TestInterview.sol\":465:498  bool public isFoundGlobal = false */\n  0x03\n  exp(0x0100, 0x14)\n  dup2\n  sload\n  dup2\n  0xff\n  mul\n  not\n  and\n  swap1\n  dup4\n  iszero\n  iszero\n  mul\n  or\n  swap1\n  sstore\n  pop\n    /* \"contracts/TestInterview.sol\":208:1854  contract TestInterview {... */\n  callvalue\n  dup1\n  iszero\n  tag_1\n  jumpi\n  0x00\n  dup1\n  revert\ntag_1:\n  pop\n  dataSize(sub_0)\n  dup1\n  dataOffset(sub_0)\n  0x00\n  codecopy\n  0x00\n  return\nstop\n\nsub_0: assembly {\n        /* \"contracts/TestInterview.sol\":208:1854  contract TestInterview {... */\n      mstore(0x40, 0x80)\n      callvalue\n      dup1\n      iszero\n      tag_1\n      jumpi\n      0x00\n      dup1\n      revert\n    tag_1:\n      pop\n      jumpi(tag_2, lt(calldatasize, 0x04))\n      shr(0xe0, calldataload(0x00))\n      dup1\n      0x8f84aa09\n      gt\n      tag_12\n      jumpi\n      dup1\n      0x8f84aa09\n      eq\n      tag_7\n      jumpi\n      dup1\n      0xa7beb5d0\n      eq\n      tag_8\n      jumpi\n      dup1\n      0xbb4a376b\n      eq\n      tag_9\n      jumpi\n      dup1\n      0xe4128fb3\n      eq\n      tag_10\n      jumpi\n      dup1\n      0xe917ec96\n      eq\n      tag_11\n      jumpi\n      jump(tag_2)\n    tag_12:\n      dup1\n      0x5d73ab9a\n      eq\n      tag_3\n      jumpi\n      dup1\n      0x6ec4b18d\n      eq\n      tag_4\n      jumpi\n      dup1\n      0x6fd3d9e2\n      eq\n      tag_5\n      jumpi\n      dup1\n      0x7259e0f8\n      eq\n      tag_6\n      jumpi\n    tag_2:\n      0x00\n      dup1\n      revert\n        /* \"contracts/TestInterview.sol\":1716:1851  function getUsers(uint256 _indexUser) public view returns(uint256) {... */\n    tag_3:\n      tag_13\n      0x04\n      dup1\n      calldatasize\n      sub\n      dup2\n      add\n      swap1\n      tag_14\n      swap2\n      swap1\n      tag_15\n      jump\t// in\n    tag_14:\n      tag_16\n      jump\t// in\n    tag_13:\n      mload(0x40)\n      tag_17\n      swap2\n      swap1\n      tag_18\n      jump\t// in\n    tag_17:\n      mload(0x40)\n      dup1\n      swap2\n      sub\n      swap1\n      return\n        /* \"contracts/TestInterview.sol\":465:498  bool public isFoundGlobal = false */\n    tag_4:\n      tag_19\n      tag_20\n      jump\t// in\n    tag_19:\n      mload(0x40)\n      tag_21\n      swap2\n      swap1\n      tag_22\n      jump\t// in\n    tag_21:\n      mload(0x40)\n      dup1\n      swap2\n      sub\n      swap1\n      return\n        /* \"contracts/TestInterview.sol\":238:264  string[] public rarityList */\n    tag_5:\n      tag_23\n      0x04\n      dup1\n      calldatasize\n      sub\n      dup2\n      add\n      swap1\n      tag_24\n      swap2\n      swap1\n      tag_15\n      jump\t// in\n    tag_24:\n      tag_25\n      jump\t// in\n    tag_23:\n      mload(0x40)\n      tag_26\n      swap2\n      swap1\n      tag_27\n      jump\t// in\n    tag_26:\n      mload(0x40)\n      dup1\n      swap2\n      sub\n      swap1\n      return\n        /* \"contracts/TestInterview.sol\":606:645  RegisteredUser[] public registeredUsers */\n    tag_6:\n      tag_28\n      0x04\n      dup1\n      calldatasize\n      sub\n      dup2\n      add\n      swap1\n      tag_29\n      swap2\n      swap1\n      tag_15\n      jump\t// in\n    tag_29:\n      tag_30\n      jump\t// in\n    tag_28:\n      mload(0x40)\n      tag_31\n      swap3\n      swap2\n      swap1\n      tag_32\n      jump\t// in\n    tag_31:\n      mload(0x40)\n      dup1\n      swap2\n      sub\n      swap1\n      return\n        /* \"contracts/TestInterview.sol\":341:413  address public ownerAddress = 0xdBDdb8575F6bda11F1DC548A1B546463CC567C3d */\n    tag_7:\n      tag_33\n      tag_34\n      jump\t// in\n    tag_33:\n      mload(0x40)\n      tag_35\n      swap2\n      swap1\n      tag_36\n      jump\t// in\n    tag_35:\n      mload(0x40)\n      dup1\n      swap2\n      sub\n      swap1\n      return\n        /* \"contracts/TestInterview.sol\":843:984  function rarityRateFunc (string memory _nameRarity) public view returns(uint256) {... */\n    tag_8:\n      tag_37\n      0x04\n      dup1\n      calldatasize\n      sub\n      dup2\n      add\n      swap1\n      tag_38\n      swap2\n      swap1\n      tag_39\n      jump\t// in\n    tag_38:\n      tag_40\n      jump\t// in\n    tag_37:\n      mload(0x40)\n      tag_41\n      swap2\n      swap1\n      tag_18\n      jump\t// in\n    tag_41:\n      mload(0x40)\n      dup1\n      swap2\n      sub\n      swap1\n      return\n        /* \"contracts/TestInterview.sol\":658:835  function rarityListFunc () public view returns(string memory) {... */\n    tag_9:\n      tag_42\n      tag_43\n      jump\t// in\n    tag_42:\n      mload(0x40)\n      tag_44\n      swap2\n      swap1\n      tag_27\n      jump\t// in\n    tag_44:\n      mload(0x40)\n      dup1\n      swap2\n      sub\n      swap1\n      return\n        /* \"contracts/TestInterview.sol\":419:458  address public userAddress = msg.sender */\n    tag_10:\n      tag_45\n      tag_46\n      jump\t// in\n    tag_45:\n      mload(0x40)\n      tag_47\n      swap2\n      swap1\n      tag_36\n      jump\t// in\n    tag_47:\n      mload(0x40)\n      dup1\n      swap2\n      sub\n      swap1\n      return\n        /* \"contracts/TestInterview.sol\":997:1706  function createGatcha () public {... */\n    tag_11:\n      tag_48\n      tag_49\n      jump\t// in\n    tag_48:\n      stop\n        /* \"contracts/TestInterview.sol\":1716:1851  function getUsers(uint256 _indexUser) public view returns(uint256) {... */\n    tag_16:\n        /* \"contracts/TestInterview.sol\":1774:1781  uint256 */\n      0x00\n        /* \"contracts/TestInterview.sol\":1801:1816  registeredUsers */\n      0x04\n        /* \"contracts/TestInterview.sol\":1817:1827  _indexUser */\n      dup3\n        /* \"contracts/TestInterview.sol\":1801:1828  registeredUsers[_indexUser] */\n      dup2\n      sload\n      dup2\n      lt\n      tag_51\n      jumpi\n      tag_52\n      tag_53\n      jump\t// in\n    tag_52:\n    tag_51:\n      swap1\n      0x00\n      mstore\n      keccak256(0x00, 0x20)\n      swap1\n      0x02\n      mul\n      add\n        /* \"contracts/TestInterview.sol\":1801:1843  registeredUsers[_indexUser].counterVisited */\n      0x01\n      add\n      sload\n        /* \"contracts/TestInterview.sol\":1794:1843  return registeredUsers[_indexUser].counterVisited */\n      swap1\n      pop\n        /* \"contracts/TestInterview.sol\":1716:1851  function getUsers(uint256 _indexUser) public view returns(uint256) {... */\n      swap2\n      swap1\n      pop\n      jump\t// out\n        /* \"contracts/TestInterview.sol\":465:498  bool public isFoundGlobal = false */\n    tag_20:\n      0x03\n      0x14\n      swap1\n      sload\n      swap1\n      0x0100\n      exp\n      swap1\n      div\n      0xff\n      and\n      dup2\n      jump\t// out\n        /* \"contracts/TestInterview.sol\":238:264  string[] public rarityList */\n    tag_25:\n      0x00\n      dup2\n      dup2\n      sload\n      dup2\n      lt\n      tag_55\n      jumpi\n      0x00\n      dup1\n      revert\n    tag_55:\n      swap1\n      0x00\n      mstore\n      keccak256(0x00, 0x20)\n      add\n      0x00\n      swap2\n      pop\n      swap1\n      pop\n      dup1\n      sload\n      tag_57\n      swap1\n      tag_58\n      jump\t// in\n    tag_57:\n      dup1\n      0x1f\n      add\n      0x20\n      dup1\n      swap2\n      div\n      mul\n      0x20\n      add\n      mload(0x40)\n      swap1\n      dup2\n      add\n      0x40\n      mstore\n      dup1\n      swap3\n      swap2\n      swap1\n      dup2\n      dup2\n      mstore\n      0x20\n      add\n      dup3\n      dup1\n      sload\n      tag_59\n      swap1\n      tag_58\n      jump\t// in\n    tag_59:\n      dup1\n      iszero\n      tag_60\n      jumpi\n      dup1\n      0x1f\n      lt\n      tag_61\n      jumpi\n      0x0100\n      dup1\n      dup4\n      sload\n      div\n      mul\n      dup4\n      mstore\n      swap2\n      0x20\n      add\n      swap2\n      jump(tag_60)\n    tag_61:\n      dup3\n      add\n      swap2\n      swap1\n      0x00\n      mstore\n      keccak256(0x00, 0x20)\n      swap1\n    tag_62:\n      dup2\n      sload\n      dup2\n      mstore\n      swap1\n      0x01\n      add\n      swap1\n      0x20\n      add\n      dup1\n      dup4\n      gt\n      tag_62\n      jumpi\n      dup3\n      swap1\n      sub\n      0x1f\n      and\n      dup3\n      add\n      swap2\n    tag_60:\n      pop\n      pop\n      pop\n      pop\n      pop\n      dup2\n      jump\t// out\n        /* \"contracts/TestInterview.sol\":606:645  RegisteredUser[] public registeredUsers */\n    tag_30:\n      0x04\n      dup2\n      dup2\n      sload\n      dup2\n      lt\n      tag_63\n      jumpi\n      0x00\n      dup1\n      revert\n    tag_63:\n      swap1\n      0x00\n      mstore\n      keccak256(0x00, 0x20)\n      swap1\n      0x02\n      mul\n      add\n      0x00\n      swap2\n      pop\n      swap1\n      pop\n      dup1\n      0x00\n      add\n      0x00\n      swap1\n      sload\n      swap1\n      0x0100\n      exp\n      swap1\n      div\n      0xffffffffffffffffffffffffffffffffffffffff\n      and\n      swap1\n      dup1\n      0x01\n      add\n      sload\n      swap1\n      pop\n      dup3\n      jump\t// out\n        /* \"contracts/TestInterview.sol\":341:413  address public ownerAddress = 0xdBDdb8575F6bda11F1DC548A1B546463CC567C3d */\n    tag_34:\n      0x02\n      0x00\n      swap1\n      sload\n      swap1\n      0x0100\n      exp\n      swap1\n      div\n      0xffffffffffffffffffffffffffffffffffffffff\n      and\n      dup2\n      jump\t// out\n        /* \"contracts/TestInterview.sol\":843:984  function rarityRateFunc (string memory _nameRarity) public view returns(uint256) {... */\n    tag_40:\n        /* \"contracts/TestInterview.sol\":915:922  uint256 */\n      0x00\n        /* \"contracts/TestInterview.sol\":942:949  objINFT */\n      0x01\n      0x00\n      swap1\n      sload\n      swap1\n      0x0100\n      exp\n      swap1\n      div\n      0xffffffffffffffffffffffffffffffffffffffff\n      and\n        /* \"contracts/TestInterview.sol\":942:963  objINFT.getRarityRate */\n      0xffffffffffffffffffffffffffffffffffffffff\n      and\n      0x278a7f33\n        /* \"contracts/TestInterview.sol\":964:975  _nameRarity */\n      dup4\n        /* \"contracts/TestInterview.sol\":942:976  objINFT.getRarityRate(_nameRarity) */\n      mload(0x40)\n      dup3\n      0xffffffff\n      and\n      0xe0\n      shl\n      dup2\n      mstore\n      0x04\n      add\n      tag_66\n      swap2\n      swap1\n      tag_27\n      jump\t// in\n    tag_66:\n      0x20\n      mload(0x40)\n      dup1\n      dup4\n      sub\n      dup2\n      dup7\n      dup1\n      extcodesize\n      iszero\n      dup1\n      iszero\n      tag_67\n      jumpi\n      0x00\n      dup1\n      revert\n    tag_67:\n      pop\n      gas\n      staticcall\n      iszero\n      dup1\n      iszero\n      tag_69\n      jumpi\n      returndatasize\n      0x00\n      dup1\n      returndatacopy\n      revert(0x00, returndatasize)\n    tag_69:\n      pop\n      pop\n      pop\n      pop\n      mload(0x40)\n      returndatasize\n      not(0x1f)\n      0x1f\n      dup3\n      add\n      and\n      dup3\n      add\n      dup1\n      0x40\n      mstore\n      pop\n      dup2\n      add\n      swap1\n      tag_70\n      swap2\n      swap1\n      tag_71\n      jump\t// in\n    tag_70:\n        /* \"contracts/TestInterview.sol\":935:976  return objINFT.getRarityRate(_nameRarity) */\n      0xff\n      and\n      swap1\n      pop\n        /* \"contracts/TestInterview.sol\":843:984  function rarityRateFunc (string memory _nameRarity) public view returns(uint256) {... */\n      swap2\n      swap1\n      pop\n      jump\t// out\n        /* \"contracts/TestInterview.sol\":658:835  function rarityListFunc () public view returns(string memory) {... */\n    tag_43:\n        /* \"contracts/TestInterview.sol\":705:718  string memory */\n      0x60\n        /* \"contracts/TestInterview.sol\":731:763  string[3] memory localRarityList */\n      0x00\n        /* \"contracts/TestInterview.sol\":766:773  objINFT */\n      0x01\n      0x00\n      swap1\n      sload\n      swap1\n      0x0100\n      exp\n      swap1\n      div\n      0xffffffffffffffffffffffffffffffffffffffff\n      and\n        /* \"contracts/TestInterview.sol\":766:787  objINFT.getRarityList */\n      0xffffffffffffffffffffffffffffffffffffffff\n      and\n      0x48441d5f\n        /* \"contracts/TestInterview.sol\":766:789  objINFT.getRarityList() */\n      mload(0x40)\n      dup2\n      0xffffffff\n      and\n      0xe0\n      shl\n      dup2\n      mstore\n      0x04\n      add\n      0x00\n      mload(0x40)\n      dup1\n      dup4\n      sub\n      dup2\n      dup7\n      dup1\n      extcodesize\n      iszero\n      dup1\n      iszero\n      tag_73\n      jumpi\n      0x00\n      dup1\n      revert\n    tag_73:\n      pop\n      gas\n      staticcall\n      iszero\n      dup1\n      iszero\n      tag_75\n      jumpi\n      returndatasize\n      0x00\n      dup1\n      returndatacopy\n      revert(0x00, returndatasize)\n    tag_75:\n      pop\n      pop\n      pop\n      pop\n      mload(0x40)\n      returndatasize\n      0x00\n      dup3\n      returndatacopy\n      returndatasize\n      not(0x1f)\n      0x1f\n      dup3\n      add\n      and\n      dup3\n      add\n      dup1\n      0x40\n      mstore\n      pop\n      dup2\n      add\n      swap1\n      tag_76\n      swap2\n      swap1\n      tag_77\n      jump\t// in\n    tag_76:\n        /* \"contracts/TestInterview.sol\":731:789  string[3] memory localRarityList = objINFT.getRarityList() */\n      swap1\n      pop\n        /* \"contracts/TestInterview.sol\":809:824  localRarityList */\n      dup1\n        /* \"contracts/TestInterview.sol\":825:826  1 */\n      0x01\n        /* \"contracts/TestInterview.sol\":809:827  localRarityList[1] */\n      0x03\n      dup2\n      lt\n      tag_78\n      jumpi\n      tag_79\n      tag_53\n      jump\t// in\n    tag_79:\n    tag_78:\n      0x20\n      mul\n      add\n      mload\n        /* \"contracts/TestInterview.sol\":802:827  return localRarityList[1] */\n      swap2\n      pop\n      pop\n        /* \"contracts/TestInterview.sol\":658:835  function rarityListFunc () public view returns(string memory) {... */\n      swap1\n      jump\t// out\n        /* \"contracts/TestInterview.sol\":419:458  address public userAddress = msg.sender */\n    tag_46:\n      0x03\n      0x00\n      swap1\n      sload\n      swap1\n      0x0100\n      exp\n      swap1\n      div\n      0xffffffffffffffffffffffffffffffffffffffff\n      and\n      dup2\n      jump\t// out\n        /* \"contracts/TestInterview.sol\":997:1706  function createGatcha () public {... */\n    tag_49:\n        /* \"contracts/TestInterview.sol\":1076:1088  bool isFound */\n      0x00\n        /* \"contracts/TestInterview.sol\":1111:1124  uint256 index */\n      dup1\n        /* \"contracts/TestInterview.sol\":1107:1492  for(uint256 index = 0; index < registeredUsers.length; index ++ ) {... */\n    tag_81:\n        /* \"contracts/TestInterview.sol\":1138:1153  registeredUsers */\n      0x04\n        /* \"contracts/TestInterview.sol\":1138:1160  registeredUsers.length */\n      dup1\n      sload\n      swap1\n      pop\n        /* \"contracts/TestInterview.sol\":1130:1135  index */\n      dup2\n        /* \"contracts/TestInterview.sol\":1130:1160  index < registeredUsers.length */\n      lt\n        /* \"contracts/TestInterview.sol\":1107:1492  for(uint256 index = 0; index < registeredUsers.length; index ++ ) {... */\n      iszero\n      tag_82\n      jumpi\n        /* \"contracts/TestInterview.sol\":1309:1319  msg.sender */\n      caller\n        /* \"contracts/TestInterview.sol\":1271:1319  registeredUsers[index].userAddress == msg.sender */\n      0xffffffffffffffffffffffffffffffffffffffff\n      and\n        /* \"contracts/TestInterview.sol\":1271:1286  registeredUsers */\n      0x04\n        /* \"contracts/TestInterview.sol\":1287:1292  index */\n      dup3\n        /* \"contracts/TestInterview.sol\":1271:1293  registeredUsers[index] */\n      dup2\n      sload\n      dup2\n      lt\n      tag_84\n      jumpi\n      tag_85\n      tag_53\n      jump\t// in\n    tag_85:\n    tag_84:\n      swap1\n      0x00\n      mstore\n      keccak256(0x00, 0x20)\n      swap1\n      0x02\n      mul\n      add\n        /* \"contracts/TestInterview.sol\":1271:1305  registeredUsers[index].userAddress */\n      0x00\n      add\n      0x00\n      swap1\n      sload\n      swap1\n      0x0100\n      exp\n      swap1\n      div\n      0xffffffffffffffffffffffffffffffffffffffff\n      and\n        /* \"contracts/TestInterview.sol\":1271:1319  registeredUsers[index].userAddress == msg.sender */\n      0xffffffffffffffffffffffffffffffffffffffff\n      and\n      eq\n        /* \"contracts/TestInterview.sol\":1268:1481  if(registeredUsers[index].userAddress == msg.sender)... */\n      iszero\n      tag_87\n      jumpi\n        /* \"contracts/TestInterview.sol\":1363:1367  true */\n      0x01\n        /* \"contracts/TestInterview.sol\":1353:1367  isFound = true */\n      swap2\n      pop\n        /* \"contracts/TestInterview.sol\":1402:1406  true */\n      0x01\n        /* \"contracts/TestInterview.sol\":1386:1399  isFoundGlobal */\n      0x03\n      0x14\n        /* \"contracts/TestInterview.sol\":1386:1406  isFoundGlobal = true */\n      0x0100\n      exp\n      dup2\n      sload\n      dup2\n      0xff\n      mul\n      not\n      and\n      swap1\n      dup4\n      iszero\n      iszero\n      mul\n      or\n      swap1\n      sstore\n      pop\n        /* \"contracts/TestInterview.sol\":1425:1440  registeredUsers */\n      0x04\n        /* \"contracts/TestInterview.sol\":1441:1446  index */\n      dup2\n        /* \"contracts/TestInterview.sol\":1425:1447  registeredUsers[index] */\n      dup2\n      sload\n      dup2\n      lt\n      tag_88\n      jumpi\n      tag_89\n      tag_53\n      jump\t// in\n    tag_89:\n    tag_88:\n      swap1\n      0x00\n      mstore\n      keccak256(0x00, 0x20)\n      swap1\n      0x02\n      mul\n      add\n        /* \"contracts/TestInterview.sol\":1425:1462  registeredUsers[index].counterVisited */\n      0x01\n      add\n      0x00\n        /* \"contracts/TestInterview.sol\":1425:1465  registeredUsers[index].counterVisited ++ */\n      dup2\n      sload\n      dup1\n      swap3\n      swap2\n      swap1\n      tag_91\n      swap1\n      tag_92\n      jump\t// in\n    tag_91:\n      swap2\n      swap1\n      pop\n      sstore\n      pop\n        /* \"contracts/TestInterview.sol\":1268:1481  if(registeredUsers[index].userAddress == msg.sender)... */\n    tag_87:\n        /* \"contracts/TestInterview.sol\":1162:1170  index ++ */\n      dup1\n      dup1\n      tag_93\n      swap1\n      tag_92\n      jump\t// in\n    tag_93:\n      swap2\n      pop\n      pop\n        /* \"contracts/TestInterview.sol\":1107:1492  for(uint256 index = 0; index < registeredUsers.length; index ++ ) {... */\n      jump(tag_81)\n    tag_82:\n      pop\n        /* \"contracts/TestInterview.sol\":1508:1515  isFound */\n      dup1\n        /* \"contracts/TestInterview.sol\":1504:1689  if(!isFound) {... */\n      tag_94\n      jumpi\n        /* \"contracts/TestInterview.sol\":1532:1565  RegisteredUser memory newRegister */\n      0x00\n        /* \"contracts/TestInterview.sol\":1568:1629  RegisteredUser({userAddress : msg.sender, counterVisited :0}) */\n      mload(0x40)\n      dup1\n      0x40\n      add\n      0x40\n      mstore\n      dup1\n        /* \"contracts/TestInterview.sol\":1598:1608  msg.sender */\n      caller\n        /* \"contracts/TestInterview.sol\":1568:1629  RegisteredUser({userAddress : msg.sender, counterVisited :0}) */\n      0xffffffffffffffffffffffffffffffffffffffff\n      and\n      dup2\n      mstore\n      0x20\n      add\n        /* \"contracts/TestInterview.sol\":1626:1627  0 */\n      0x00\n        /* \"contracts/TestInterview.sol\":1568:1629  RegisteredUser({userAddress : msg.sender, counterVisited :0}) */\n      dup2\n      mstore\n      pop\n        /* \"contracts/TestInterview.sol\":1532:1629  RegisteredUser memory newRegister = RegisteredUser({userAddress : msg.sender, counterVisited :0}) */\n      swap1\n      pop\n        /* \"contracts/TestInterview.sol\":1644:1659  registeredUsers */\n      0x04\n        /* \"contracts/TestInterview.sol\":1665:1676  newRegister */\n      dup2\n        /* \"contracts/TestInterview.sol\":1644:1677  registeredUsers.push(newRegister) */\n      swap1\n      dup1\n      0x01\n      dup2\n      sload\n      add\n      dup1\n      dup3\n      sstore\n      dup1\n      swap2\n      pop\n      pop\n      0x01\n      swap1\n      sub\n      swap1\n      0x00\n      mstore\n      keccak256(0x00, 0x20)\n      swap1\n      0x02\n      mul\n      add\n      0x00\n      swap1\n      swap2\n      swap1\n      swap2\n      swap1\n      swap2\n      pop\n      0x00\n      dup3\n      add\n      mload\n      dup2\n      0x00\n      add\n      exp(0x0100, 0x00)\n      dup2\n      sload\n      dup2\n      0xffffffffffffffffffffffffffffffffffffffff\n      mul\n      not\n      and\n      swap1\n      dup4\n      0xffffffffffffffffffffffffffffffffffffffff\n      and\n      mul\n      or\n      swap1\n      sstore\n      pop\n      0x20\n      dup3\n      add\n      mload\n      dup2\n      0x01\n      add\n      sstore\n      pop\n      pop\n        /* \"contracts/TestInterview.sol\":1517:1689  {... */\n      pop\n        /* \"contracts/TestInterview.sol\":1504:1689  if(!isFound) {... */\n    tag_94:\n        /* \"contracts/TestInterview.sol\":1029:1706  {... */\n      pop\n        /* \"contracts/TestInterview.sol\":997:1706  function createGatcha () public {... */\n      jump\t// out\n        /* \"#utility.yul\":7:82   */\n    tag_96:\n        /* \"#utility.yul\":40:46   */\n      0x00\n        /* \"#utility.yul\":73:75   */\n      0x40\n        /* \"#utility.yul\":67:76   */\n      mload\n        /* \"#utility.yul\":57:76   */\n      swap1\n      pop\n        /* \"#utility.yul\":7:82   */\n      swap1\n      jump\t// out\n        /* \"#utility.yul\":88:205   */\n    tag_97:\n        /* \"#utility.yul\":197:198   */\n      0x00\n        /* \"#utility.yul\":194:195   */\n      dup1\n        /* \"#utility.yul\":187:199   */\n      revert\n        /* \"#utility.yul\":211:328   */\n    tag_98:\n        /* \"#utility.yul\":320:321   */\n      0x00\n        /* \"#utility.yul\":317:318   */\n      dup1\n        /* \"#utility.yul\":310:322   */\n      revert\n        /* \"#utility.yul\":334:411   */\n    tag_99:\n        /* \"#utility.yul\":371:378   */\n      0x00\n        /* \"#utility.yul\":400:405   */\n      dup2\n        /* \"#utility.yul\":389:405   */\n      swap1\n      pop\n        /* \"#utility.yul\":334:411   */\n      swap2\n      swap1\n      pop\n      jump\t// out\n        /* \"#utility.yul\":417:539   */\n    tag_100:\n        /* \"#utility.yul\":490:514   */\n      tag_139\n        /* \"#utility.yul\":508:513   */\n      dup2\n        /* \"#utility.yul\":490:514   */\n      tag_99\n      jump\t// in\n    tag_139:\n        /* \"#utility.yul\":483:488   */\n      dup2\n        /* \"#utility.yul\":480:515   */\n      eq\n        /* \"#utility.yul\":470:533   */\n      tag_140\n      jumpi\n        /* \"#utility.yul\":529:530   */\n      0x00\n        /* \"#utility.yul\":526:527   */\n      dup1\n        /* \"#utility.yul\":519:531   */\n      revert\n        /* \"#utility.yul\":470:533   */\n    tag_140:\n        /* \"#utility.yul\":417:539   */\n      pop\n      jump\t// out\n        /* \"#utility.yul\":545:684   */\n    tag_101:\n        /* \"#utility.yul\":591:596   */\n      0x00\n        /* \"#utility.yul\":629:635   */\n      dup2\n        /* \"#utility.yul\":616:636   */\n      calldataload\n        /* \"#utility.yul\":607:636   */\n      swap1\n      pop\n        /* \"#utility.yul\":645:678   */\n      tag_142\n        /* \"#utility.yul\":672:677   */\n      dup2\n        /* \"#utility.yul\":645:678   */\n      tag_100\n      jump\t// in\n    tag_142:\n        /* \"#utility.yul\":545:684   */\n      swap3\n      swap2\n      pop\n      pop\n      jump\t// out\n        /* \"#utility.yul\":690:1019   */\n    tag_15:\n        /* \"#utility.yul\":749:755   */\n      0x00\n        /* \"#utility.yul\":798:800   */\n      0x20\n        /* \"#utility.yul\":786:795   */\n      dup3\n        /* \"#utility.yul\":777:784   */\n      dup5\n        /* \"#utility.yul\":773:796   */\n      sub\n        /* \"#utility.yul\":769:801   */\n      slt\n        /* \"#utility.yul\":766:885   */\n      iszero\n      tag_144\n      jumpi\n        /* \"#utility.yul\":804:883   */\n      tag_145\n      tag_97\n      jump\t// in\n    tag_145:\n        /* \"#utility.yul\":766:885   */\n    tag_144:\n        /* \"#utility.yul\":924:925   */\n      0x00\n        /* \"#utility.yul\":949:1002   */\n      tag_146\n        /* \"#utility.yul\":994:1001   */\n      dup5\n        /* \"#utility.yul\":985:991   */\n      dup3\n        /* \"#utility.yul\":974:983   */\n      dup6\n        /* \"#utility.yul\":970:992   */\n      add\n        /* \"#utility.yul\":949:1002   */\n      tag_101\n      jump\t// in\n    tag_146:\n        /* \"#utility.yul\":939:1002   */\n      swap2\n      pop\n        /* \"#utility.yul\":895:1012   */\n      pop\n        /* \"#utility.yul\":690:1019   */\n      swap3\n      swap2\n      pop\n      pop\n      jump\t// out\n        /* \"#utility.yul\":1025:1143   */\n    tag_102:\n        /* \"#utility.yul\":1112:1136   */\n      tag_148\n        /* \"#utility.yul\":1130:1135   */\n      dup2\n        /* \"#utility.yul\":1112:1136   */\n      tag_99\n      jump\t// in\n    tag_148:\n        /* \"#utility.yul\":1107:1110   */\n      dup3\n        /* \"#utility.yul\":1100:1137   */\n      mstore\n        /* \"#utility.yul\":1025:1143   */\n      pop\n      pop\n      jump\t// out\n        /* \"#utility.yul\":1149:1371   */\n    tag_18:\n        /* \"#utility.yul\":1242:1246   */\n      0x00\n        /* \"#utility.yul\":1280:1282   */\n      0x20\n        /* \"#utility.yul\":1269:1278   */\n      dup3\n        /* \"#utility.yul\":1265:1283   */\n      add\n        /* \"#utility.yul\":1257:1283   */\n      swap1\n      pop\n        /* \"#utility.yul\":1293:1364   */\n      tag_150\n        /* \"#utility.yul\":1361:1362   */\n      0x00\n        /* \"#utility.yul\":1350:1359   */\n      dup4\n        /* \"#utility.yul\":1346:1363   */\n      add\n        /* \"#utility.yul\":1337:1343   */\n      dup5\n        /* \"#utility.yul\":1293:1364   */\n      tag_102\n      jump\t// in\n    tag_150:\n        /* \"#utility.yul\":1149:1371   */\n      swap3\n      swap2\n      pop\n      pop\n      jump\t// out\n        /* \"#utility.yul\":1377:1467   */\n    tag_103:\n        /* \"#utility.yul\":1411:1418   */\n      0x00\n        /* \"#utility.yul\":1454:1459   */\n      dup2\n        /* \"#utility.yul\":1447:1460   */\n      iszero\n        /* \"#utility.yul\":1440:1461   */\n      iszero\n        /* \"#utility.yul\":1429:1461   */\n      swap1\n      pop\n        /* \"#utility.yul\":1377:1467   */\n      swap2\n      swap1\n      pop\n      jump\t// out\n        /* \"#utility.yul\":1473:1582   */\n    tag_104:\n        /* \"#utility.yul\":1554:1575   */\n      tag_153\n        /* \"#utility.yul\":1569:1574   */\n      dup2\n        /* \"#utility.yul\":1554:1575   */\n      tag_103\n      jump\t// in\n    tag_153:\n        /* \"#utility.yul\":1549:1552   */\n      dup3\n        /* \"#utility.yul\":1542:1576   */\n      mstore\n        /* \"#utility.yul\":1473:1582   */\n      pop\n      pop\n      jump\t// out\n        /* \"#utility.yul\":1588:1798   */\n    tag_22:\n        /* \"#utility.yul\":1675:1679   */\n      0x00\n        /* \"#utility.yul\":1713:1715   */\n      0x20\n        /* \"#utility.yul\":1702:1711   */\n      dup3\n        /* \"#utility.yul\":1698:1716   */\n      add\n        /* \"#utility.yul\":1690:1716   */\n      swap1\n      pop\n        /* \"#utility.yul\":1726:1791   */\n      tag_155\n        /* \"#utility.yul\":1788:1789   */\n      0x00\n        /* \"#utility.yul\":1777:1786   */\n      dup4\n        /* \"#utility.yul\":1773:1790   */\n      add\n        /* \"#utility.yul\":1764:1770   */\n      dup5\n        /* \"#utility.yul\":1726:1791   */\n      tag_104\n      jump\t// in\n    tag_155:\n        /* \"#utility.yul\":1588:1798   */\n      swap3\n      swap2\n      pop\n      pop\n      jump\t// out\n        /* \"#utility.yul\":1804:1903   */\n    tag_105:\n        /* \"#utility.yul\":1856:1862   */\n      0x00\n        /* \"#utility.yul\":1890:1895   */\n      dup2\n        /* \"#utility.yul\":1884:1896   */\n      mload\n        /* \"#utility.yul\":1874:1896   */\n      swap1\n      pop\n        /* \"#utility.yul\":1804:1903   */\n      swap2\n      swap1\n      pop\n      jump\t// out\n        /* \"#utility.yul\":1909:2078   */\n    tag_106:\n        /* \"#utility.yul\":1993:2004   */\n      0x00\n        /* \"#utility.yul\":2027:2033   */\n      dup3\n        /* \"#utility.yul\":2022:2025   */\n      dup3\n        /* \"#utility.yul\":2015:2034   */\n      mstore\n        /* \"#utility.yul\":2067:2071   */\n      0x20\n        /* \"#utility.yul\":2062:2065   */\n      dup3\n        /* \"#utility.yul\":2058:2072   */\n      add\n        /* \"#utility.yul\":2043:2072   */\n      swap1\n      pop\n        /* \"#utility.yul\":1909:2078   */\n      swap3\n      swap2\n      pop\n      pop\n      jump\t// out\n        /* \"#utility.yul\":2084:2391   */\n    tag_107:\n        /* \"#utility.yul\":2152:2153   */\n      0x00\n        /* \"#utility.yul\":2162:2275   */\n    tag_159:\n        /* \"#utility.yul\":2176:2182   */\n      dup4\n        /* \"#utility.yul\":2173:2174   */\n      dup2\n        /* \"#utility.yul\":2170:2183   */\n      lt\n        /* \"#utility.yul\":2162:2275   */\n      iszero\n      tag_161\n      jumpi\n        /* \"#utility.yul\":2261:2262   */\n      dup1\n        /* \"#utility.yul\":2256:2259   */\n      dup3\n        /* \"#utility.yul\":2252:2263   */\n      add\n        /* \"#utility.yul\":2246:2264   */\n      mload\n        /* \"#utility.yul\":2242:2243   */\n      dup2\n        /* \"#utility.yul\":2237:2240   */\n      dup5\n        /* \"#utility.yul\":2233:2244   */\n      add\n        /* \"#utility.yul\":2226:2265   */\n      mstore\n        /* \"#utility.yul\":2198:2200   */\n      0x20\n        /* \"#utility.yul\":2195:2196   */\n      dup2\n        /* \"#utility.yul\":2191:2201   */\n      add\n        /* \"#utility.yul\":2186:2201   */\n      swap1\n      pop\n        /* \"#utility.yul\":2162:2275   */\n      jump(tag_159)\n    tag_161:\n        /* \"#utility.yul\":2293:2299   */\n      dup4\n        /* \"#utility.yul\":2290:2291   */\n      dup2\n        /* \"#utility.yul\":2287:2300   */\n      gt\n        /* \"#utility.yul\":2284:2385   */\n      iszero\n      tag_162\n      jumpi\n        /* \"#utility.yul\":2373:2374   */\n      0x00\n        /* \"#utility.yul\":2364:2370   */\n      dup5\n        /* \"#utility.yul\":2359:2362   */\n      dup5\n        /* \"#utility.yul\":2355:2371   */\n      add\n        /* \"#utility.yul\":2348:2375   */\n      mstore\n        /* \"#utility.yul\":2284:2385   */\n    tag_162:\n        /* \"#utility.yul\":2133:2391   */\n      pop\n        /* \"#utility.yul\":2084:2391   */\n      pop\n      pop\n      pop\n      jump\t// out\n        /* \"#utility.yul\":2397:2499   */\n    tag_108:\n        /* \"#utility.yul\":2438:2444   */\n      0x00\n        /* \"#utility.yul\":2489:2491   */\n      0x1f\n        /* \"#utility.yul\":2485:2492   */\n      not\n        /* \"#utility.yul\":2480:2482   */\n      0x1f\n        /* \"#utility.yul\":2473:2478   */\n      dup4\n        /* \"#utility.yul\":2469:2483   */\n      add\n        /* \"#utility.yul\":2465:2493   */\n      and\n        /* \"#utility.yul\":2455:2493   */\n      swap1\n      pop\n        /* \"#utility.yul\":2397:2499   */\n      swap2\n      swap1\n      pop\n      jump\t// out\n        /* \"#utility.yul\":2505:2869   */\n    tag_109:\n        /* \"#utility.yul\":2593:2596   */\n      0x00\n        /* \"#utility.yul\":2621:2660   */\n      tag_165\n        /* \"#utility.yul\":2654:2659   */\n      dup3\n        /* \"#utility.yul\":2621:2660   */\n      tag_105\n      jump\t// in\n    tag_165:\n        /* \"#utility.yul\":2676:2747   */\n      tag_166\n        /* \"#utility.yul\":2740:2746   */\n      dup2\n        /* \"#utility.yul\":2735:2738   */\n      dup6\n        /* \"#utility.yul\":2676:2747   */\n      tag_106\n      jump\t// in\n    tag_166:\n        /* \"#utility.yul\":2669:2747   */\n      swap4\n      pop\n        /* \"#utility.yul\":2756:2808   */\n      tag_167\n        /* \"#utility.yul\":2801:2807   */\n      dup2\n        /* \"#utility.yul\":2796:2799   */\n      dup6\n        /* \"#utility.yul\":2789:2793   */\n      0x20\n        /* \"#utility.yul\":2782:2787   */\n      dup7\n        /* \"#utility.yul\":2778:2794   */\n      add\n        /* \"#utility.yul\":2756:2808   */\n      tag_107\n      jump\t// in\n    tag_167:\n        /* \"#utility.yul\":2833:2862   */\n      tag_168\n        /* \"#utility.yul\":2855:2861   */\n      dup2\n        /* \"#utility.yul\":2833:2862   */\n      tag_108\n      jump\t// in\n    tag_168:\n        /* \"#utility.yul\":2828:2831   */\n      dup5\n        /* \"#utility.yul\":2824:2863   */\n      add\n        /* \"#utility.yul\":2817:2863   */\n      swap2\n      pop\n        /* \"#utility.yul\":2597:2869   */\n      pop\n        /* \"#utility.yul\":2505:2869   */\n      swap3\n      swap2\n      pop\n      pop\n      jump\t// out\n        /* \"#utility.yul\":2875:3188   */\n    tag_27:\n        /* \"#utility.yul\":2988:2992   */\n      0x00\n        /* \"#utility.yul\":3026:3028   */\n      0x20\n        /* \"#utility.yul\":3015:3024   */\n      dup3\n        /* \"#utility.yul\":3011:3029   */\n      add\n        /* \"#utility.yul\":3003:3029   */\n      swap1\n      pop\n        /* \"#utility.yul\":3075:3084   */\n      dup2\n        /* \"#utility.yul\":3069:3073   */\n      dup2\n        /* \"#utility.yul\":3065:3085   */\n      sub\n        /* \"#utility.yul\":3061:3062   */\n      0x00\n        /* \"#utility.yul\":3050:3059   */\n      dup4\n        /* \"#utility.yul\":3046:3063   */\n      add\n        /* \"#utility.yul\":3039:3086   */\n      mstore\n        /* \"#utility.yul\":3103:3181   */\n      tag_170\n        /* \"#utility.yul\":3176:3180   */\n      dup2\n        /* \"#utility.yul\":3167:3173   */\n      dup5\n        /* \"#utility.yul\":3103:3181   */\n      tag_109\n      jump\t// in\n    tag_170:\n        /* \"#utility.yul\":3095:3181   */\n      swap1\n      pop\n        /* \"#utility.yul\":2875:3188   */\n      swap3\n      swap2\n      pop\n      pop\n      jump\t// out\n        /* \"#utility.yul\":3194:3320   */\n    tag_110:\n        /* \"#utility.yul\":3231:3238   */\n      0x00\n        /* \"#utility.yul\":3271:3313   */\n      0xffffffffffffffffffffffffffffffffffffffff\n        /* \"#utility.yul\":3264:3269   */\n      dup3\n        /* \"#utility.yul\":3260:3314   */\n      and\n        /* \"#utility.yul\":3249:3314   */\n      swap1\n      pop\n        /* \"#utility.yul\":3194:3320   */\n      swap2\n      swap1\n      pop\n      jump\t// out\n        /* \"#utility.yul\":3326:3422   */\n    tag_111:\n        /* \"#utility.yul\":3363:3370   */\n      0x00\n        /* \"#utility.yul\":3392:3416   */\n      tag_173\n        /* \"#utility.yul\":3410:3415   */\n      dup3\n        /* \"#utility.yul\":3392:3416   */\n      tag_110\n      jump\t// in\n    tag_173:\n        /* \"#utility.yul\":3381:3416   */\n      swap1\n      pop\n        /* \"#utility.yul\":3326:3422   */\n      swap2\n      swap1\n      pop\n      jump\t// out\n        /* \"#utility.yul\":3428:3546   */\n    tag_112:\n        /* \"#utility.yul\":3515:3539   */\n      tag_175\n        /* \"#utility.yul\":3533:3538   */\n      dup2\n        /* \"#utility.yul\":3515:3539   */\n      tag_111\n      jump\t// in\n    tag_175:\n        /* \"#utility.yul\":3510:3513   */\n      dup3\n        /* \"#utility.yul\":3503:3540   */\n      mstore\n        /* \"#utility.yul\":3428:3546   */\n      pop\n      pop\n      jump\t// out\n        /* \"#utility.yul\":3552:3884   */\n    tag_32:\n        /* \"#utility.yul\":3673:3677   */\n      0x00\n        /* \"#utility.yul\":3711:3713   */\n      0x40\n        /* \"#utility.yul\":3700:3709   */\n      dup3\n        /* \"#utility.yul\":3696:3714   */\n      add\n        /* \"#utility.yul\":3688:3714   */\n      swap1\n      pop\n        /* \"#utility.yul\":3724:3795   */\n      tag_177\n        /* \"#utility.yul\":3792:3793   */\n      0x00\n        /* \"#utility.yul\":3781:3790   */\n      dup4\n        /* \"#utility.yul\":3777:3794   */\n      add\n        /* \"#utility.yul\":3768:3774   */\n      dup6\n        /* \"#utility.yul\":3724:3795   */\n      tag_112\n      jump\t// in\n    tag_177:\n        /* \"#utility.yul\":3805:3877   */\n      tag_178\n        /* \"#utility.yul\":3873:3875   */\n      0x20\n        /* \"#utility.yul\":3862:3871   */\n      dup4\n        /* \"#utility.yul\":3858:3876   */\n      add\n        /* \"#utility.yul\":3849:3855   */\n      dup5\n        /* \"#utility.yul\":3805:3877   */\n      tag_102\n      jump\t// in\n    tag_178:\n        /* \"#utility.yul\":3552:3884   */\n      swap4\n      swap3\n      pop\n      pop\n      pop\n      jump\t// out\n        /* \"#utility.yul\":3890:4112   */\n    tag_36:\n        /* \"#utility.yul\":3983:3987   */\n      0x00\n        /* \"#utility.yul\":4021:4023   */\n      0x20\n        /* \"#utility.yul\":4010:4019   */\n      dup3\n        /* \"#utility.yul\":4006:4024   */\n      add\n        /* \"#utility.yul\":3998:4024   */\n      swap1\n      pop\n        /* \"#utility.yul\":4034:4105   */\n      tag_180\n        /* \"#utility.yul\":4102:4103   */\n      0x00\n        /* \"#utility.yul\":4091:4100   */\n      dup4\n        /* \"#utility.yul\":4087:4104   */\n      add\n        /* \"#utility.yul\":4078:4084   */\n      dup5\n        /* \"#utility.yul\":4034:4105   */\n      tag_112\n      jump\t// in\n    tag_180:\n        /* \"#utility.yul\":3890:4112   */\n      swap3\n      swap2\n      pop\n      pop\n      jump\t// out\n        /* \"#utility.yul\":4118:4235   */\n    tag_113:\n        /* \"#utility.yul\":4227:4228   */\n      0x00\n        /* \"#utility.yul\":4224:4225   */\n      dup1\n        /* \"#utility.yul\":4217:4229   */\n      revert\n        /* \"#utility.yul\":4241:4358   */\n    tag_114:\n        /* \"#utility.yul\":4350:4351   */\n      0x00\n        /* \"#utility.yul\":4347:4348   */\n      dup1\n        /* \"#utility.yul\":4340:4352   */\n      revert\n        /* \"#utility.yul\":4364:4544   */\n    tag_115:\n        /* \"#utility.yul\":4412:4489   */\n      0x4e487b7100000000000000000000000000000000000000000000000000000000\n        /* \"#utility.yul\":4409:4410   */\n      0x00\n        /* \"#utility.yul\":4402:4490   */\n      mstore\n        /* \"#utility.yul\":4509:4513   */\n      0x41\n        /* \"#utility.yul\":4506:4507   */\n      0x04\n        /* \"#utility.yul\":4499:4514   */\n      mstore\n        /* \"#utility.yul\":4533:4537   */\n      0x24\n        /* \"#utility.yul\":4530:4531   */\n      0x00\n        /* \"#utility.yul\":4523:4538   */\n      revert\n        /* \"#utility.yul\":4550:4831   */\n    tag_116:\n        /* \"#utility.yul\":4633:4660   */\n      tag_185\n        /* \"#utility.yul\":4655:4659   */\n      dup3\n        /* \"#utility.yul\":4633:4660   */\n      tag_108\n      jump\t// in\n    tag_185:\n        /* \"#utility.yul\":4625:4631   */\n      dup2\n        /* \"#utility.yul\":4621:4661   */\n      add\n        /* \"#utility.yul\":4763:4769   */\n      dup2\n        /* \"#utility.yul\":4751:4761   */\n      dup2\n        /* \"#utility.yul\":4748:4770   */\n      lt\n        /* \"#utility.yul\":4727:4745   */\n      0xffffffffffffffff\n        /* \"#utility.yul\":4715:4725   */\n      dup3\n        /* \"#utility.yul\":4712:4746   */\n      gt\n        /* \"#utility.yul\":4709:4771   */\n      or\n        /* \"#utility.yul\":4706:4794   */\n      iszero\n      tag_186\n      jumpi\n        /* \"#utility.yul\":4774:4792   */\n      tag_187\n      tag_115\n      jump\t// in\n    tag_187:\n        /* \"#utility.yul\":4706:4794   */\n    tag_186:\n        /* \"#utility.yul\":4814:4824   */\n      dup1\n        /* \"#utility.yul\":4810:4812   */\n      0x40\n        /* \"#utility.yul\":4803:4825   */\n      mstore\n        /* \"#utility.yul\":4593:4831   */\n      pop\n        /* \"#utility.yul\":4550:4831   */\n      pop\n      pop\n      jump\t// out\n        /* \"#utility.yul\":4837:4966   */\n    tag_117:\n        /* \"#utility.yul\":4871:4877   */\n      0x00\n        /* \"#utility.yul\":4898:4918   */\n      tag_189\n      tag_96\n      jump\t// in\n    tag_189:\n        /* \"#utility.yul\":4888:4918   */\n      swap1\n      pop\n        /* \"#utility.yul\":4927:4960   */\n      tag_190\n        /* \"#utility.yul\":4955:4959   */\n      dup3\n        /* \"#utility.yul\":4947:4953   */\n      dup3\n        /* \"#utility.yul\":4927:4960   */\n      tag_116\n      jump\t// in\n    tag_190:\n        /* \"#utility.yul\":4837:4966   */\n      swap2\n      swap1\n      pop\n      jump\t// out\n        /* \"#utility.yul\":4972:5280   */\n    tag_118:\n        /* \"#utility.yul\":5034:5038   */\n      0x00\n        /* \"#utility.yul\":5124:5142   */\n      0xffffffffffffffff\n        /* \"#utility.yul\":5116:5122   */\n      dup3\n        /* \"#utility.yul\":5113:5143   */\n      gt\n        /* \"#utility.yul\":5110:5166   */\n      iszero\n      tag_192\n      jumpi\n        /* \"#utility.yul\":5146:5164   */\n      tag_193\n      tag_115\n      jump\t// in\n    tag_193:\n        /* \"#utility.yul\":5110:5166   */\n    tag_192:\n        /* \"#utility.yul\":5184:5213   */\n      tag_194\n        /* \"#utility.yul\":5206:5212   */\n      dup3\n        /* \"#utility.yul\":5184:5213   */\n      tag_108\n      jump\t// in\n    tag_194:\n        /* \"#utility.yul\":5176:5213   */\n      swap1\n      pop\n        /* \"#utility.yul\":5268:5272   */\n      0x20\n        /* \"#utility.yul\":5262:5266   */\n      dup2\n        /* \"#utility.yul\":5258:5273   */\n      add\n        /* \"#utility.yul\":5250:5273   */\n      swap1\n      pop\n        /* \"#utility.yul\":4972:5280   */\n      swap2\n      swap1\n      pop\n      jump\t// out\n        /* \"#utility.yul\":5286:5440   */\n    tag_119:\n        /* \"#utility.yul\":5370:5376   */\n      dup3\n        /* \"#utility.yul\":5365:5368   */\n      dup2\n        /* \"#utility.yul\":5360:5363   */\n      dup4\n        /* \"#utility.yul\":5347:5377   */\n      calldatacopy\n        /* \"#utility.yul\":5432:5433   */\n      0x00\n        /* \"#utility.yul\":5423:5429   */\n      dup4\n        /* \"#utility.yul\":5418:5421   */\n      dup4\n        /* \"#utility.yul\":5414:5430   */\n      add\n        /* \"#utility.yul\":5407:5434   */\n      mstore\n        /* \"#utility.yul\":5286:5440   */\n      pop\n      pop\n      pop\n      jump\t// out\n        /* \"#utility.yul\":5446:5858   */\n    tag_120:\n        /* \"#utility.yul\":5524:5529   */\n      0x00\n        /* \"#utility.yul\":5549:5615   */\n      tag_197\n        /* \"#utility.yul\":5565:5614   */\n      tag_198\n        /* \"#utility.yul\":5607:5613   */\n      dup5\n        /* \"#utility.yul\":5565:5614   */\n      tag_118\n      jump\t// in\n    tag_198:\n        /* \"#utility.yul\":5549:5615   */\n      tag_117\n      jump\t// in\n    tag_197:\n        /* \"#utility.yul\":5540:5615   */\n      swap1\n      pop\n        /* \"#utility.yul\":5638:5644   */\n      dup3\n        /* \"#utility.yul\":5631:5636   */\n      dup2\n        /* \"#utility.yul\":5624:5645   */\n      mstore\n        /* \"#utility.yul\":5676:5680   */\n      0x20\n        /* \"#utility.yul\":5669:5674   */\n      dup2\n        /* \"#utility.yul\":5665:5681   */\n      add\n        /* \"#utility.yul\":5714:5717   */\n      dup5\n        /* \"#utility.yul\":5705:5711   */\n      dup5\n        /* \"#utility.yul\":5700:5703   */\n      dup5\n        /* \"#utility.yul\":5696:5712   */\n      add\n        /* \"#utility.yul\":5693:5718   */\n      gt\n        /* \"#utility.yul\":5690:5802   */\n      iszero\n      tag_199\n      jumpi\n        /* \"#utility.yul\":5721:5800   */\n      tag_200\n      tag_114\n      jump\t// in\n    tag_200:\n        /* \"#utility.yul\":5690:5802   */\n    tag_199:\n        /* \"#utility.yul\":5811:5852   */\n      tag_201\n        /* \"#utility.yul\":5845:5851   */\n      dup5\n        /* \"#utility.yul\":5840:5843   */\n      dup3\n        /* \"#utility.yul\":5835:5838   */\n      dup6\n        /* \"#utility.yul\":5811:5852   */\n      tag_119\n      jump\t// in\n    tag_201:\n        /* \"#utility.yul\":5530:5858   */\n      pop\n        /* \"#utility.yul\":5446:5858   */\n      swap4\n      swap3\n      pop\n      pop\n      pop\n      jump\t// out\n        /* \"#utility.yul\":5878:6218   */\n    tag_121:\n        /* \"#utility.yul\":5934:5939   */\n      0x00\n        /* \"#utility.yul\":5983:5986   */\n      dup3\n        /* \"#utility.yul\":5976:5980   */\n      0x1f\n        /* \"#utility.yul\":5968:5974   */\n      dup4\n        /* \"#utility.yul\":5964:5981   */\n      add\n        /* \"#utility.yul\":5960:5987   */\n      slt\n        /* \"#utility.yul\":5950:6072   */\n      tag_203\n      jumpi\n        /* \"#utility.yul\":5991:6070   */\n      tag_204\n      tag_113\n      jump\t// in\n    tag_204:\n        /* \"#utility.yul\":5950:6072   */\n    tag_203:\n        /* \"#utility.yul\":6108:6114   */\n      dup2\n        /* \"#utility.yul\":6095:6115   */\n      calldataload\n        /* \"#utility.yul\":6133:6212   */\n      tag_205\n        /* \"#utility.yul\":6208:6211   */\n      dup5\n        /* \"#utility.yul\":6200:6206   */\n      dup3\n        /* \"#utility.yul\":6193:6197   */\n      0x20\n        /* \"#utility.yul\":6185:6191   */\n      dup7\n        /* \"#utility.yul\":6181:6198   */\n      add\n        /* \"#utility.yul\":6133:6212   */\n      tag_120\n      jump\t// in\n    tag_205:\n        /* \"#utility.yul\":6124:6212   */\n      swap2\n      pop\n        /* \"#utility.yul\":5940:6218   */\n      pop\n        /* \"#utility.yul\":5878:6218   */\n      swap3\n      swap2\n      pop\n      pop\n      jump\t// out\n        /* \"#utility.yul\":6224:6733   */\n    tag_39:\n        /* \"#utility.yul\":6293:6299   */\n      0x00\n        /* \"#utility.yul\":6342:6344   */\n      0x20\n        /* \"#utility.yul\":6330:6339   */\n      dup3\n        /* \"#utility.yul\":6321:6328   */\n      dup5\n        /* \"#utility.yul\":6317:6340   */\n      sub\n        /* \"#utility.yul\":6313:6345   */\n      slt\n        /* \"#utility.yul\":6310:6429   */\n      iszero\n      tag_207\n      jumpi\n        /* \"#utility.yul\":6348:6427   */\n      tag_208\n      tag_97\n      jump\t// in\n    tag_208:\n        /* \"#utility.yul\":6310:6429   */\n    tag_207:\n        /* \"#utility.yul\":6496:6497   */\n      0x00\n        /* \"#utility.yul\":6485:6494   */\n      dup3\n        /* \"#utility.yul\":6481:6498   */\n      add\n        /* \"#utility.yul\":6468:6499   */\n      calldataload\n        /* \"#utility.yul\":6526:6544   */\n      0xffffffffffffffff\n        /* \"#utility.yul\":6518:6524   */\n      dup2\n        /* \"#utility.yul\":6515:6545   */\n      gt\n        /* \"#utility.yul\":6512:6629   */\n      iszero\n      tag_209\n      jumpi\n        /* \"#utility.yul\":6548:6627   */\n      tag_210\n      tag_98\n      jump\t// in\n    tag_210:\n        /* \"#utility.yul\":6512:6629   */\n    tag_209:\n        /* \"#utility.yul\":6653:6716   */\n      tag_211\n        /* \"#utility.yul\":6708:6715   */\n      dup5\n        /* \"#utility.yul\":6699:6705   */\n      dup3\n        /* \"#utility.yul\":6688:6697   */\n      dup6\n        /* \"#utility.yul\":6684:6706   */\n      add\n        /* \"#utility.yul\":6653:6716   */\n      tag_121\n      jump\t// in\n    tag_211:\n        /* \"#utility.yul\":6643:6716   */\n      swap2\n      pop\n        /* \"#utility.yul\":6439:6726   */\n      pop\n        /* \"#utility.yul\":6224:6733   */\n      swap3\n      swap2\n      pop\n      pop\n      jump\t// out\n        /* \"#utility.yul\":6739:6919   */\n    tag_53:\n        /* \"#utility.yul\":6787:6864   */\n      0x4e487b7100000000000000000000000000000000000000000000000000000000\n        /* \"#utility.yul\":6784:6785   */\n      0x00\n        /* \"#utility.yul\":6777:6865   */\n      mstore\n        /* \"#utility.yul\":6884:6888   */\n      0x32\n        /* \"#utility.yul\":6881:6882   */\n      0x04\n        /* \"#utility.yul\":6874:6889   */\n      mstore\n        /* \"#utility.yul\":6908:6912   */\n      0x24\n        /* \"#utility.yul\":6905:6906   */\n      0x00\n        /* \"#utility.yul\":6898:6913   */\n      revert\n        /* \"#utility.yul\":6925:7105   */\n    tag_122:\n        /* \"#utility.yul\":6973:7050   */\n      0x4e487b7100000000000000000000000000000000000000000000000000000000\n        /* \"#utility.yul\":6970:6971   */\n      0x00\n        /* \"#utility.yul\":6963:7051   */\n      mstore\n        /* \"#utility.yul\":7070:7074   */\n      0x22\n        /* \"#utility.yul\":7067:7068   */\n      0x04\n        /* \"#utility.yul\":7060:7075   */\n      mstore\n        /* \"#utility.yul\":7094:7098   */\n      0x24\n        /* \"#utility.yul\":7091:7092   */\n      0x00\n        /* \"#utility.yul\":7084:7099   */\n      revert\n        /* \"#utility.yul\":7111:7431   */\n    tag_58:\n        /* \"#utility.yul\":7155:7161   */\n      0x00\n        /* \"#utility.yul\":7192:7193   */\n      0x02\n        /* \"#utility.yul\":7186:7190   */\n      dup3\n        /* \"#utility.yul\":7182:7194   */\n      div\n        /* \"#utility.yul\":7172:7194   */\n      swap1\n      pop\n        /* \"#utility.yul\":7239:7240   */\n      0x01\n        /* \"#utility.yul\":7233:7237   */\n      dup3\n        /* \"#utility.yul\":7229:7241   */\n      and\n        /* \"#utility.yul\":7260:7278   */\n      dup1\n        /* \"#utility.yul\":7250:7331   */\n      tag_215\n      jumpi\n        /* \"#utility.yul\":7316:7320   */\n      0x7f\n        /* \"#utility.yul\":7308:7314   */\n      dup3\n        /* \"#utility.yul\":7304:7321   */\n      and\n        /* \"#utility.yul\":7294:7321   */\n      swap2\n      pop\n        /* \"#utility.yul\":7250:7331   */\n    tag_215:\n        /* \"#utility.yul\":7378:7380   */\n      0x20\n        /* \"#utility.yul\":7370:7376   */\n      dup3\n        /* \"#utility.yul\":7367:7381   */\n      lt\n        /* \"#utility.yul\":7347:7365   */\n      dup2\n        /* \"#utility.yul\":7344:7382   */\n      eq\n        /* \"#utility.yul\":7341:7425   */\n      iszero\n      tag_216\n      jumpi\n        /* \"#utility.yul\":7397:7415   */\n      tag_217\n      tag_122\n      jump\t// in\n    tag_217:\n        /* \"#utility.yul\":7341:7425   */\n    tag_216:\n        /* \"#utility.yul\":7162:7431   */\n      pop\n        /* \"#utility.yul\":7111:7431   */\n      swap2\n      swap1\n      pop\n      jump\t// out\n        /* \"#utility.yul\":7437:7523   */\n    tag_123:\n        /* \"#utility.yul\":7472:7479   */\n      0x00\n        /* \"#utility.yul\":7512:7516   */\n      0xff\n        /* \"#utility.yul\":7505:7510   */\n      dup3\n        /* \"#utility.yul\":7501:7517   */\n      and\n        /* \"#utility.yul\":7490:7517   */\n      swap1\n      pop\n        /* \"#utility.yul\":7437:7523   */\n      swap2\n      swap1\n      pop\n      jump\t// out\n        /* \"#utility.yul\":7529:7647   */\n    tag_124:\n        /* \"#utility.yul\":7600:7622   */\n      tag_220\n        /* \"#utility.yul\":7616:7621   */\n      dup2\n        /* \"#utility.yul\":7600:7622   */\n      tag_123\n      jump\t// in\n    tag_220:\n        /* \"#utility.yul\":7593:7598   */\n      dup2\n        /* \"#utility.yul\":7590:7623   */\n      eq\n        /* \"#utility.yul\":7580:7641   */\n      tag_221\n      jumpi\n        /* \"#utility.yul\":7637:7638   */\n      0x00\n        /* \"#utility.yul\":7634:7635   */\n      dup1\n        /* \"#utility.yul\":7627:7639   */\n      revert\n        /* \"#utility.yul\":7580:7641   */\n    tag_221:\n        /* \"#utility.yul\":7529:7647   */\n      pop\n      jump\t// out\n        /* \"#utility.yul\":7653:7792   */\n    tag_125:\n        /* \"#utility.yul\":7708:7713   */\n      0x00\n        /* \"#utility.yul\":7739:7745   */\n      dup2\n        /* \"#utility.yul\":7733:7746   */\n      mload\n        /* \"#utility.yul\":7724:7746   */\n      swap1\n      pop\n        /* \"#utility.yul\":7755:7786   */\n      tag_223\n        /* \"#utility.yul\":7780:7785   */\n      dup2\n        /* \"#utility.yul\":7755:7786   */\n      tag_124\n      jump\t// in\n    tag_223:\n        /* \"#utility.yul\":7653:7792   */\n      swap3\n      swap2\n      pop\n      pop\n      jump\t// out\n        /* \"#utility.yul\":7798:8145   */\n    tag_71:\n        /* \"#utility.yul\":7866:7872   */\n      0x00\n        /* \"#utility.yul\":7915:7917   */\n      0x20\n        /* \"#utility.yul\":7903:7912   */\n      dup3\n        /* \"#utility.yul\":7894:7901   */\n      dup5\n        /* \"#utility.yul\":7890:7913   */\n      sub\n        /* \"#utility.yul\":7886:7918   */\n      slt\n        /* \"#utility.yul\":7883:8002   */\n      iszero\n      tag_225\n      jumpi\n        /* \"#utility.yul\":7921:8000   */\n      tag_226\n      tag_97\n      jump\t// in\n    tag_226:\n        /* \"#utility.yul\":7883:8002   */\n    tag_225:\n        /* \"#utility.yul\":8041:8042   */\n      0x00\n        /* \"#utility.yul\":8066:8128   */\n      tag_227\n        /* \"#utility.yul\":8120:8127   */\n      dup5\n        /* \"#utility.yul\":8111:8117   */\n      dup3\n        /* \"#utility.yul\":8100:8109   */\n      dup6\n        /* \"#utility.yul\":8096:8118   */\n      add\n        /* \"#utility.yul\":8066:8128   */\n      tag_125\n      jump\t// in\n    tag_227:\n        /* \"#utility.yul\":8056:8128   */\n      swap2\n      pop\n        /* \"#utility.yul\":8012:8138   */\n      pop\n        /* \"#utility.yul\":7798:8145   */\n      swap3\n      swap2\n      pop\n      pop\n      jump\t// out\n        /* \"#utility.yul\":8151:8410   */\n    tag_126:\n        /* \"#utility.yul\":8236:8240   */\n      0x00\n        /* \"#utility.yul\":8326:8344   */\n      0xffffffffffffffff\n        /* \"#utility.yul\":8318:8324   */\n      dup3\n        /* \"#utility.yul\":8315:8345   */\n      gt\n        /* \"#utility.yul\":8312:8368   */\n      iszero\n      tag_229\n      jumpi\n        /* \"#utility.yul\":8348:8366   */\n      tag_230\n      tag_115\n      jump\t// in\n    tag_230:\n        /* \"#utility.yul\":8312:8368   */\n    tag_229:\n        /* \"#utility.yul\":8398:8402   */\n      0x20\n        /* \"#utility.yul\":8390:8396   */\n      dup3\n        /* \"#utility.yul\":8386:8403   */\n      mul\n        /* \"#utility.yul\":8378:8403   */\n      swap1\n      pop\n        /* \"#utility.yul\":8151:8410   */\n      swap2\n      swap1\n      pop\n      jump\t// out\n        /* \"#utility.yul\":8416:8533   */\n    tag_127:\n        /* \"#utility.yul\":8525:8526   */\n      0x00\n        /* \"#utility.yul\":8522:8523   */\n      dup1\n        /* \"#utility.yul\":8515:8527   */\n      revert\n        /* \"#utility.yul\":8539:8960   */\n    tag_128:\n        /* \"#utility.yul\":8628:8633   */\n      0x00\n        /* \"#utility.yul\":8653:8719   */\n      tag_233\n        /* \"#utility.yul\":8669:8718   */\n      tag_234\n        /* \"#utility.yul\":8711:8717   */\n      dup5\n        /* \"#utility.yul\":8669:8718   */\n      tag_118\n      jump\t// in\n    tag_234:\n        /* \"#utility.yul\":8653:8719   */\n      tag_117\n      jump\t// in\n    tag_233:\n        /* \"#utility.yul\":8644:8719   */\n      swap1\n      pop\n        /* \"#utility.yul\":8742:8748   */\n      dup3\n        /* \"#utility.yul\":8735:8740   */\n      dup2\n        /* \"#utility.yul\":8728:8749   */\n      mstore\n        /* \"#utility.yul\":8780:8784   */\n      0x20\n        /* \"#utility.yul\":8773:8778   */\n      dup2\n        /* \"#utility.yul\":8769:8785   */\n      add\n        /* \"#utility.yul\":8818:8821   */\n      dup5\n        /* \"#utility.yul\":8809:8815   */\n      dup5\n        /* \"#utility.yul\":8804:8807   */\n      dup5\n        /* \"#utility.yul\":8800:8816   */\n      add\n        /* \"#utility.yul\":8797:8822   */\n      gt\n        /* \"#utility.yul\":8794:8906   */\n      iszero\n      tag_235\n      jumpi\n        /* \"#utility.yul\":8825:8904   */\n      tag_236\n      tag_114\n      jump\t// in\n    tag_236:\n        /* \"#utility.yul\":8794:8906   */\n    tag_235:\n        /* \"#utility.yul\":8915:8954   */\n      tag_237\n        /* \"#utility.yul\":8947:8953   */\n      dup5\n        /* \"#utility.yul\":8942:8945   */\n      dup3\n        /* \"#utility.yul\":8937:8940   */\n      dup6\n        /* \"#utility.yul\":8915:8954   */\n      tag_107\n      jump\t// in\n    tag_237:\n        /* \"#utility.yul\":8634:8960   */\n      pop\n        /* \"#utility.yul\":8539:8960   */\n      swap4\n      swap3\n      pop\n      pop\n      pop\n      jump\t// out\n        /* \"#utility.yul\":8980:9335   */\n    tag_129:\n        /* \"#utility.yul\":9047:9052   */\n      0x00\n        /* \"#utility.yul\":9096:9099   */\n      dup3\n        /* \"#utility.yul\":9089:9093   */\n      0x1f\n        /* \"#utility.yul\":9081:9087   */\n      dup4\n        /* \"#utility.yul\":9077:9094   */\n      add\n        /* \"#utility.yul\":9073:9100   */\n      slt\n        /* \"#utility.yul\":9063:9185   */\n      tag_239\n      jumpi\n        /* \"#utility.yul\":9104:9183   */\n      tag_240\n      tag_113\n      jump\t// in\n    tag_240:\n        /* \"#utility.yul\":9063:9185   */\n    tag_239:\n        /* \"#utility.yul\":9214:9220   */\n      dup2\n        /* \"#utility.yul\":9208:9221   */\n      mload\n        /* \"#utility.yul\":9239:9329   */\n      tag_241\n        /* \"#utility.yul\":9325:9328   */\n      dup5\n        /* \"#utility.yul\":9317:9323   */\n      dup3\n        /* \"#utility.yul\":9310:9314   */\n      0x20\n        /* \"#utility.yul\":9302:9308   */\n      dup7\n        /* \"#utility.yul\":9298:9315   */\n      add\n        /* \"#utility.yul\":9239:9329   */\n      tag_128\n      jump\t// in\n    tag_241:\n        /* \"#utility.yul\":9230:9329   */\n      swap2\n      pop\n        /* \"#utility.yul\":9053:9335   */\n      pop\n        /* \"#utility.yul\":8980:9335   */\n      swap3\n      swap2\n      pop\n      pop\n      jump\t// out\n        /* \"#utility.yul\":9358:10251   */\n    tag_130:\n        /* \"#utility.yul\":9473:9478   */\n      0x00\n        /* \"#utility.yul\":9498:9587   */\n      tag_243\n        /* \"#utility.yul\":9514:9586   */\n      tag_244\n        /* \"#utility.yul\":9579:9585   */\n      dup5\n        /* \"#utility.yul\":9514:9586   */\n      tag_126\n      jump\t// in\n    tag_244:\n        /* \"#utility.yul\":9498:9587   */\n      tag_117\n      jump\t// in\n    tag_243:\n        /* \"#utility.yul\":9489:9587   */\n      swap1\n      pop\n        /* \"#utility.yul\":9607:9612   */\n      dup1\n        /* \"#utility.yul\":9660:9664   */\n      0x20\n        /* \"#utility.yul\":9652:9658   */\n      dup5\n        /* \"#utility.yul\":9648:9665   */\n      mul\n        /* \"#utility.yul\":9640:9646   */\n      dup4\n        /* \"#utility.yul\":9636:9666   */\n      add\n        /* \"#utility.yul\":9689:9692   */\n      dup6\n        /* \"#utility.yul\":9681:9687   */\n      dup2\n        /* \"#utility.yul\":9678:9693   */\n      gt\n        /* \"#utility.yul\":9675:9797   */\n      iszero\n      tag_245\n      jumpi\n        /* \"#utility.yul\":9708:9787   */\n      tag_246\n      tag_127\n      jump\t// in\n    tag_246:\n        /* \"#utility.yul\":9675:9797   */\n    tag_245:\n        /* \"#utility.yul\":9823:9829   */\n      dup4\n        /* \"#utility.yul\":9806:10245   */\n    tag_247:\n        /* \"#utility.yul\":9840:9846   */\n      dup2\n        /* \"#utility.yul\":9835:9838   */\n      dup2\n        /* \"#utility.yul\":9832:9847   */\n      lt\n        /* \"#utility.yul\":9806:10245   */\n      iszero\n      tag_249\n      jumpi\n        /* \"#utility.yul\":9922:9925   */\n      dup1\n        /* \"#utility.yul\":9916:9926   */\n      mload\n        /* \"#utility.yul\":9958:9976   */\n      0xffffffffffffffff\n        /* \"#utility.yul\":9945:9956   */\n      dup2\n        /* \"#utility.yul\":9942:9977   */\n      gt\n        /* \"#utility.yul\":9939:10061   */\n      iszero\n      tag_250\n      jumpi\n        /* \"#utility.yul\":9980:10059   */\n      tag_251\n      tag_113\n      jump\t// in\n    tag_251:\n        /* \"#utility.yul\":9939:10061   */\n    tag_250:\n        /* \"#utility.yul\":10104:10115   */\n      dup1\n        /* \"#utility.yul\":10096:10102   */\n      dup7\n        /* \"#utility.yul\":10092:10116   */\n      add\n        /* \"#utility.yul\":10142:10200   */\n      tag_252\n        /* \"#utility.yul\":10196:10199   */\n      dup10\n        /* \"#utility.yul\":10184:10194   */\n      dup3\n        /* \"#utility.yul\":10142:10200   */\n      tag_129\n      jump\t// in\n    tag_252:\n        /* \"#utility.yul\":10137:10140   */\n      dup6\n        /* \"#utility.yul\":10130:10201   */\n      mstore\n        /* \"#utility.yul\":10230:10234   */\n      0x20\n        /* \"#utility.yul\":10225:10228   */\n      dup6\n        /* \"#utility.yul\":10221:10235   */\n      add\n        /* \"#utility.yul\":10214:10235   */\n      swap5\n      pop\n        /* \"#utility.yul\":9882:10245   */\n      pop\n      pop\n        /* \"#utility.yul\":9866:9870   */\n      0x20\n        /* \"#utility.yul\":9861:9864   */\n      dup2\n        /* \"#utility.yul\":9857:9871   */\n      add\n        /* \"#utility.yul\":9850:9871   */\n      swap1\n      pop\n        /* \"#utility.yul\":9806:10245   */\n      jump(tag_247)\n    tag_249:\n        /* \"#utility.yul\":9810:9831   */\n      pop\n        /* \"#utility.yul\":9479:10251   */\n      pop\n      pop\n        /* \"#utility.yul\":9358:10251   */\n      swap4\n      swap3\n      pop\n      pop\n      pop\n      jump\t// out\n        /* \"#utility.yul\":10274:10655   */\n    tag_131:\n        /* \"#utility.yul\":10364:10369   */\n      0x00\n        /* \"#utility.yul\":10413:10416   */\n      dup3\n        /* \"#utility.yul\":10406:10410   */\n      0x1f\n        /* \"#utility.yul\":10398:10404   */\n      dup4\n        /* \"#utility.yul\":10394:10411   */\n      add\n        /* \"#utility.yul\":10390:10417   */\n      slt\n        /* \"#utility.yul\":10380:10502   */\n      tag_254\n      jumpi\n        /* \"#utility.yul\":10421:10500   */\n      tag_255\n      tag_113\n      jump\t// in\n    tag_255:\n        /* \"#utility.yul\":10380:10502   */\n    tag_254:\n        /* \"#utility.yul\":10525:10529   */\n      0x03\n        /* \"#utility.yul\":10547:10649   */\n      tag_256\n        /* \"#utility.yul\":10645:10648   */\n      dup5\n        /* \"#utility.yul\":10637:10643   */\n      dup3\n        /* \"#utility.yul\":10629:10635   */\n      dup6\n        /* \"#utility.yul\":10547:10649   */\n      tag_130\n      jump\t// in\n    tag_256:\n        /* \"#utility.yul\":10538:10649   */\n      swap2\n      pop\n        /* \"#utility.yul\":10370:10655   */\n      pop\n        /* \"#utility.yul\":10274:10655   */\n      swap3\n      swap2\n      pop\n      pop\n      jump\t// out\n        /* \"#utility.yul\":10661:11231   */\n    tag_77:\n        /* \"#utility.yul\":10764:10770   */\n      0x00\n        /* \"#utility.yul\":10813:10815   */\n      0x20\n        /* \"#utility.yul\":10801:10810   */\n      dup3\n        /* \"#utility.yul\":10792:10799   */\n      dup5\n        /* \"#utility.yul\":10788:10811   */\n      sub\n        /* \"#utility.yul\":10784:10816   */\n      slt\n        /* \"#utility.yul\":10781:10900   */\n      iszero\n      tag_258\n      jumpi\n        /* \"#utility.yul\":10819:10898   */\n      tag_259\n      tag_97\n      jump\t// in\n    tag_259:\n        /* \"#utility.yul\":10781:10900   */\n    tag_258:\n        /* \"#utility.yul\":10960:10961   */\n      0x00\n        /* \"#utility.yul\":10949:10958   */\n      dup3\n        /* \"#utility.yul\":10945:10962   */\n      add\n        /* \"#utility.yul\":10939:10963   */\n      mload\n        /* \"#utility.yul\":10990:11008   */\n      0xffffffffffffffff\n        /* \"#utility.yul\":10982:10988   */\n      dup2\n        /* \"#utility.yul\":10979:11009   */\n      gt\n        /* \"#utility.yul\":10976:11093   */\n      iszero\n      tag_260\n      jumpi\n        /* \"#utility.yul\":11012:11091   */\n      tag_261\n      tag_98\n      jump\t// in\n    tag_261:\n        /* \"#utility.yul\":10976:11093   */\n    tag_260:\n        /* \"#utility.yul\":11117:11214   */\n      tag_262\n        /* \"#utility.yul\":11206:11213   */\n      dup5\n        /* \"#utility.yul\":11197:11203   */\n      dup3\n        /* \"#utility.yul\":11186:11195   */\n      dup6\n        /* \"#utility.yul\":11182:11204   */\n      add\n        /* \"#utility.yul\":11117:11214   */\n      tag_131\n      jump\t// in\n    tag_262:\n        /* \"#utility.yul\":11107:11214   */\n      swap2\n      pop\n        /* \"#utility.yul\":10910:11224   */\n      pop\n        /* \"#utility.yul\":10661:11231   */\n      swap3\n      swap2\n      pop\n      pop\n      jump\t// out\n        /* \"#utility.yul\":11237:11417   */\n    tag_132:\n        /* \"#utility.yul\":11285:11362   */\n      0x4e487b7100000000000000000000000000000000000000000000000000000000\n        /* \"#utility.yul\":11282:11283   */\n      0x00\n        /* \"#utility.yul\":11275:11363   */\n      mstore\n        /* \"#utility.yul\":11382:11386   */\n      0x11\n        /* \"#utility.yul\":11379:11380   */\n      0x04\n        /* \"#utility.yul\":11372:11387   */\n      mstore\n        /* \"#utility.yul\":11406:11410   */\n      0x24\n        /* \"#utility.yul\":11403:11404   */\n      0x00\n        /* \"#utility.yul\":11396:11411   */\n      revert\n        /* \"#utility.yul\":11423:11656   */\n    tag_92:\n        /* \"#utility.yul\":11462:11465   */\n      0x00\n        /* \"#utility.yul\":11485:11509   */\n      tag_265\n        /* \"#utility.yul\":11503:11508   */\n      dup3\n        /* \"#utility.yul\":11485:11509   */\n      tag_99\n      jump\t// in\n    tag_265:\n        /* \"#utility.yul\":11476:11509   */\n      swap2\n      pop\n        /* \"#utility.yul\":11531:11597   */\n      0xffffffffffffffffffffffffffffffffffffffffffffffffffffffffffffffff\n        /* \"#utility.yul\":11524:11529   */\n      dup3\n        /* \"#utility.yul\":11521:11598   */\n      eq\n        /* \"#utility.yul\":11518:11621   */\n      iszero\n      tag_266\n      jumpi\n        /* \"#utility.yul\":11601:11619   */\n      tag_267\n      tag_132\n      jump\t// in\n    tag_267:\n        /* \"#utility.yul\":11518:11621   */\n    tag_266:\n        /* \"#utility.yul\":11648:11649   */\n      0x01\n        /* \"#utility.yul\":11641:11646   */\n      dup3\n        /* \"#utility.yul\":11637:11650   */\n      add\n        /* \"#utility.yul\":11630:11650   */\n      swap1\n      pop\n        /* \"#utility.yul\":11423:11656   */\n      swap2\n      swap1\n      pop\n      jump\t// out\n\n    auxdata: 0xa26469706673582212203b71a8b8fc7c17c2cdb2cff42a55b5706c72e443acc209290d45ea3005379df764736f6c63430008080033\n}\n",
				"bytecode": {
					"linkReferences": {},
					"object": "60806040527350c7a09925375438d2cee94c5c59266c6ffaaf8c600160006101000a81548173ffffffffffffffffffffffffffffffffffffffff021916908373ffffffffffffffffffffffffffffffffffffffff16021790555073dbddb8575f6bda11f1dc548a1b546463cc567c3d600260006101000a81548173ffffffffffffffffffffffffffffffffffffffff021916908373ffffffffffffffffffffffffffffffffffffffff16021790555033600360006101000a81548173ffffffffffffffffffffffffffffffffffffffff021916908373ffffffffffffffffffffffffffffffffffffffff1602179055506000600360146101000a81548160ff02191690831515021790555034801561011657600080fd5b50610d62806101266000396000f3fe608060405234801561001057600080fd5b50600436106100935760003560e01c80638f84aa09116100665780638f84aa0914610147578063a7beb5d014610165578063bb4a376b14610195578063e4128fb3146101b3578063e917ec96146101d157610093565b80635d73ab9a146100985780636ec4b18d146100c85780636fd3d9e2146100e65780637259e0f814610116575b600080fd5b6100b260048036038101906100ad91906106e6565b6101db565b6040516100bf9190610722565b60405180910390f35b6100d061020a565b6040516100dd9190610758565b60405180910390f35b61010060048036038101906100fb91906106e6565b61021d565b60405161010d919061080c565b60405180910390f35b610130600480360381019061012b91906106e6565b6102c9565b60405161013e92919061086f565b60405180910390f35b61014f61031d565b60405161015c9190610898565b60405180910390f35b61017f600480360381019061017a91906109e8565b610343565b60405161018c9190610722565b60405180910390f35b61019d6103fa565b6040516101aa919061080c565b60405180910390f35b6101bb6104c4565b6040516101c89190610898565b60405180910390f35b6101d96104ea565b005b6000600482815481106101f1576101f0610a31565b5b9060005260206000209060020201600101549050919050565b600360149054906101000a900460ff1681565b6000818154811061022d57600080fd5b90600052602060002001600091509050805461024890610a8f565b80601f016020809104026020016040519081016040528092919081815260200182805461027490610a8f565b80156102c15780601f10610296576101008083540402835291602001916102c1565b820191906000526020600020905b8154815290600101906020018083116102a457829003601f168201915b505050505081565b600481815481106102d957600080fd5b90600052602060002090600202016000915090508060000160009054906101000a900473ffffffffffffffffffffffffffffffffffffffff16908060010154905082565b600260009054906101000a900473ffffffffffffffffffffffffffffffffffffffff1681565b6000600160009054906101000a900473ffffffffffffffffffffffffffffffffffffffff1673ffffffffffffffffffffffffffffffffffffffff1663278a7f33836040518263ffffffff1660e01b81526004016103a0919061080c565b60206040518083038186803b1580156103b857600080fd5b505afa1580156103cc573d6000803e3d6000fd5b505050506040513d601f19601f820116820180604052508101906103f09190610afa565b60ff169050919050565b60606000600160009054906101000a900473ffffffffffffffffffffffffffffffffffffffff1673ffffffffffffffffffffffffffffffffffffffff166348441d5f6040518163ffffffff1660e01b815260040160006040518083038186803b15801561046657600080fd5b505afa15801561047a573d6000803e3d6000fd5b505050506040513d6000823e3d601f19601f820116820180604052508101906104a39190610c6b565b9050806001600381106104b9576104b8610a31565b5b602002015191505090565b600360009054906101000a900473ffffffffffffffffffffffffffffffffffffffff1681565b6000805b6004805490508110156105e2573373ffffffffffffffffffffffffffffffffffffffff166004828154811061052657610525610a31565b5b906000526020600020906002020160000160009054906101000a900473ffffffffffffffffffffffffffffffffffffffff1673ffffffffffffffffffffffffffffffffffffffff1614156105cf57600191506001600360146101000a81548160ff021916908315150217905550600481815481106105a7576105a6610a31565b5b906000526020600020906002020160010160008154809291906105c990610ce3565b91905055505b80806105da90610ce3565b9150506104ee565b508061069957600060405180604001604052803373ffffffffffffffffffffffffffffffffffffffff16815260200160008152509050600481908060018154018082558091505060019003906000526020600020906002020160009091909190915060008201518160000160006101000a81548173ffffffffffffffffffffffffffffffffffffffff021916908373ffffffffffffffffffffffffffffffffffffffff160217905550602082015181600101555050505b50565b6000604051905090565b600080fd5b600080fd5b6000819050919050565b6106c3816106b0565b81146106ce57600080fd5b50565b6000813590506106e0816106ba565b92915050565b6000602082840312156106fc576106fb6106a6565b5b600061070a848285016106d1565b91505092915050565b61071c816106b0565b82525050565b60006020820190506107376000830184610713565b92915050565b60008115159050919050565b6107528161073d565b82525050565b600060208201905061076d6000830184610749565b92915050565b600081519050919050565b600082825260208201905092915050565b60005b838110156107ad578082015181840152602081019050610792565b838111156107bc576000848401525b50505050565b6000601f19601f8301169050919050565b60006107de82610773565b6107e8818561077e565b93506107f881856020860161078f565b610801816107c2565b840191505092915050565b6000602082019050818103600083015261082681846107d3565b905092915050565b600073ffffffffffffffffffffffffffffffffffffffff82169050919050565b60006108598261082e565b9050919050565b6108698161084e565b82525050565b60006040820190506108846000830185610860565b6108916020830184610713565b9392505050565b60006020820190506108ad6000830184610860565b92915050565b600080fd5b600080fd5b7f4e487b7100000000000000000000000000000000000000000000000000000000600052604160045260246000fd5b6108f5826107c2565b810181811067ffffffffffffffff82111715610914576109136108bd565b5b80604052505050565b600061092761069c565b905061093382826108ec565b919050565b600067ffffffffffffffff821115610953576109526108bd565b5b61095c826107c2565b9050602081019050919050565b82818337600083830152505050565b600061098b61098684610938565b61091d565b9050828152602081018484840111156109a7576109a66108b8565b5b6109b2848285610969565b509392505050565b600082601f8301126109cf576109ce6108b3565b5b81356109df848260208601610978565b91505092915050565b6000602082840312156109fe576109fd6106a6565b5b600082013567ffffffffffffffff811115610a1c57610a1b6106ab565b5b610a28848285016109ba565b91505092915050565b7f4e487b7100000000000000000000000000000000000000000000000000000000600052603260045260246000fd5b7f4e487b7100000000000000000000000000000000000000000000000000000000600052602260045260246000fd5b60006002820490506001821680610aa757607f821691505b60208210811415610abb57610aba610a60565b5b50919050565b600060ff82169050919050565b610ad781610ac1565b8114610ae257600080fd5b50565b600081519050610af481610ace565b92915050565b600060208284031215610b1057610b0f6106a6565b5b6000610b1e84828501610ae5565b91505092915050565b600067ffffffffffffffff821115610b4257610b416108bd565b5b602082029050919050565b600080fd5b6000610b65610b6084610938565b61091d565b905082815260208101848484011115610b8157610b806108b8565b5b610b8c84828561078f565b509392505050565b600082601f830112610ba957610ba86108b3565b5b8151610bb9848260208601610b52565b91505092915050565b6000610bd5610bd084610b27565b61091d565b90508060208402830185811115610bef57610bee610b4d565b5b835b81811015610c3657805167ffffffffffffffff811115610c1457610c136108b3565b5b808601610c218982610b94565b85526020850194505050602081019050610bf1565b5050509392505050565b600082601f830112610c5557610c546108b3565b5b6003610c62848285610bc2565b91505092915050565b600060208284031215610c8157610c806106a6565b5b600082015167ffffffffffffffff811115610c9f57610c9e6106ab565b5b610cab84828501610c40565b91505092915050565b7f4e487b7100000000000000000000000000000000000000000000000000000000600052601160045260246000fd5b6000610cee826106b0565b91507fffffffffffffffffffffffffffffffffffffffffffffffffffffffffffffffff821415610d2157610d20610cb4565b5b60018201905091905056fea26469706673582212203b71a8b8fc7c17c2cdb2cff42a55b5706c72e443acc209290d45ea3005379df764736f6c63430008080033",
					"opcodes": "PUSH1 0x80 PUSH1 0x40 MSTORE PUSH20 0x50C7A09925375438D2CEE94C5C59266C6FFAAF8C PUSH1 0x1 PUSH1 0x0 PUSH2 0x100 EXP DUP2 SLOAD DUP2 PUSH20 0xFFFFFFFFFFFFFFFFFFFFFFFFFFFFFFFFFFFFFFFF MUL NOT AND SWAP1 DUP4 PUSH20 0xFFFFFFFFFFFFFFFFFFFFFFFFFFFFFFFFFFFFFFFF AND MUL OR SWAP1 SSTORE POP PUSH20 0xDBDDB8575F6BDA11F1DC548A1B546463CC567C3D PUSH1 0x2 PUSH1 0x0 PUSH2 0x100 EXP DUP2 SLOAD DUP2 PUSH20 0xFFFFFFFFFFFFFFFFFFFFFFFFFFFFFFFFFFFFFFFF MUL NOT AND SWAP1 DUP4 PUSH20 0xFFFFFFFFFFFFFFFFFFFFFFFFFFFFFFFFFFFFFFFF AND MUL OR SWAP1 SSTORE POP CALLER PUSH1 0x3 PUSH1 0x0 PUSH2 0x100 EXP DUP2 SLOAD DUP2 PUSH20 0xFFFFFFFFFFFFFFFFFFFFFFFFFFFFFFFFFFFFFFFF MUL NOT AND SWAP1 DUP4 PUSH20 0xFFFFFFFFFFFFFFFFFFFFFFFFFFFFFFFFFFFFFFFF AND MUL OR SWAP1 SSTORE POP PUSH1 0x0 PUSH1 0x3 PUSH1 0x14 PUSH2 0x100 EXP DUP2 SLOAD DUP2 PUSH1 0xFF MUL NOT AND SWAP1 DUP4 ISZERO ISZERO MUL OR SWAP1 SSTORE POP CALLVALUE DUP1 ISZERO PUSH2 0x116 JUMPI PUSH1 0x0 DUP1 REVERT JUMPDEST POP PUSH2 0xD62 DUP1 PUSH2 0x126 PUSH1 0x0 CODECOPY PUSH1 0x0 RETURN INVALID PUSH1 0x80 PUSH1 0x40 MSTORE CALLVALUE DUP1 ISZERO PUSH2 0x10 JUMPI PUSH1 0x0 DUP1 REVERT JUMPDEST POP PUSH1 0x4 CALLDATASIZE LT PUSH2 0x93 JUMPI PUSH1 0x0 CALLDATALOAD PUSH1 0xE0 SHR DUP1 PUSH4 0x8F84AA09 GT PUSH2 0x66 JUMPI DUP1 PUSH4 0x8F84AA09 EQ PUSH2 0x147 JUMPI DUP1 PUSH4 0xA7BEB5D0 EQ PUSH2 0x165 JUMPI DUP1 PUSH4 0xBB4A376B EQ PUSH2 0x195 JUMPI DUP1 PUSH4 0xE4128FB3 EQ PUSH2 0x1B3 JUMPI DUP1 PUSH4 0xE917EC96 EQ PUSH2 0x1D1 JUMPI PUSH2 0x93 JUMP JUMPDEST DUP1 PUSH4 0x5D73AB9A EQ PUSH2 0x98 JUMPI DUP1 PUSH4 0x6EC4B18D EQ PUSH2 0xC8 JUMPI DUP1 PUSH4 0x6FD3D9E2 EQ PUSH2 0xE6 JUMPI DUP1 PUSH4 0x7259E0F8 EQ PUSH2 0x116 JUMPI JUMPDEST PUSH1 0x0 DUP1 REVERT JUMPDEST PUSH2 0xB2 PUSH1 0x4 DUP1 CALLDATASIZE SUB DUP2 ADD SWAP1 PUSH2 0xAD SWAP2 SWAP1 PUSH2 0x6E6 JUMP JUMPDEST PUSH2 0x1DB JUMP JUMPDEST PUSH1 0x40 MLOAD PUSH2 0xBF SWAP2 SWAP1 PUSH2 0x722 JUMP JUMPDEST PUSH1 0x40 MLOAD DUP1 SWAP2 SUB SWAP1 RETURN JUMPDEST PUSH2 0xD0 PUSH2 0x20A JUMP JUMPDEST PUSH1 0x40 MLOAD PUSH2 0xDD SWAP2 SWAP1 PUSH2 0x758 JUMP JUMPDEST PUSH1 0x40 MLOAD DUP1 SWAP2 SUB SWAP1 RETURN JUMPDEST PUSH2 0x100 PUSH1 0x4 DUP1 CALLDATASIZE SUB DUP2 ADD SWAP1 PUSH2 0xFB SWAP2 SWAP1 PUSH2 0x6E6 JUMP JUMPDEST PUSH2 0x21D JUMP JUMPDEST PUSH1 0x40 MLOAD PUSH2 0x10D SWAP2 SWAP1 PUSH2 0x80C JUMP JUMPDEST PUSH1 0x40 MLOAD DUP1 SWAP2 SUB SWAP1 RETURN JUMPDEST PUSH2 0x130 PUSH1 0x4 DUP1 CALLDATASIZE SUB DUP2 ADD SWAP1 PUSH2 0x12B SWAP2 SWAP1 PUSH2 0x6E6 JUMP JUMPDEST PUSH2 0x2C9 JUMP JUMPDEST PUSH1 0x40 MLOAD PUSH2 0x13E SWAP3 SWAP2 SWAP1 PUSH2 0x86F JUMP JUMPDEST PUSH1 0x40 MLOAD DUP1 SWAP2 SUB SWAP1 RETURN JUMPDEST PUSH2 0x14F PUSH2 0x31D JUMP JUMPDEST PUSH1 0x40 MLOAD PUSH2 0x15C SWAP2 SWAP1 PUSH2 0x898 JUMP JUMPDEST PUSH1 0x40 MLOAD DUP1 SWAP2 SUB SWAP1 RETURN JUMPDEST PUSH2 0x17F PUSH1 0x4 DUP1 CALLDATASIZE SUB DUP2 ADD SWAP1 PUSH2 0x17A SWAP2 SWAP1 PUSH2 0x9E8 JUMP JUMPDEST PUSH2 0x343 JUMP JUMPDEST PUSH1 0x40 MLOAD PUSH2 0x18C SWAP2 SWAP1 PUSH2 0x722 JUMP JUMPDEST PUSH1 0x40 MLOAD DUP1 SWAP2 SUB SWAP1 RETURN JUMPDEST PUSH2 0x19D PUSH2 0x3FA JUMP JUMPDEST PUSH1 0x40 MLOAD PUSH2 0x1AA SWAP2 SWAP1 PUSH2 0x80C JUMP JUMPDEST PUSH1 0x40 MLOAD DUP1 SWAP2 SUB SWAP1 RETURN JUMPDEST PUSH2 0x1BB PUSH2 0x4C4 JUMP JUMPDEST PUSH1 0x40 MLOAD PUSH2 0x1C8 SWAP2 SWAP1 PUSH2 0x898 JUMP JUMPDEST PUSH1 0x40 MLOAD DUP1 SWAP2 SUB SWAP1 RETURN JUMPDEST PUSH2 0x1D9 PUSH2 0x4EA JUMP JUMPDEST STOP JUMPDEST PUSH1 0x0 PUSH1 0x4 DUP3 DUP2 SLOAD DUP2 LT PUSH2 0x1F1 JUMPI PUSH2 0x1F0 PUSH2 0xA31 JUMP JUMPDEST JUMPDEST SWAP1 PUSH1 0x0 MSTORE PUSH1 0x20 PUSH1 0x0 KECCAK256 SWAP1 PUSH1 0x2 MUL ADD PUSH1 0x1 ADD SLOAD SWAP1 POP SWAP2 SWAP1 POP JUMP JUMPDEST PUSH1 0x3 PUSH1 0x14 SWAP1 SLOAD SWAP1 PUSH2 0x100 EXP SWAP1 DIV PUSH1 0xFF AND DUP2 JUMP JUMPDEST PUSH1 0x0 DUP2 DUP2 SLOAD DUP2 LT PUSH2 0x22D JUMPI PUSH1 0x0 DUP1 REVERT JUMPDEST SWAP1 PUSH1 0x0 MSTORE PUSH1 0x20 PUSH1 0x0 KECCAK256 ADD PUSH1 0x0 SWAP2 POP SWAP1 POP DUP1 SLOAD PUSH2 0x248 SWAP1 PUSH2 0xA8F JUMP JUMPDEST DUP1 PUSH1 0x1F ADD PUSH1 0x20 DUP1 SWAP2 DIV MUL PUSH1 0x20 ADD PUSH1 0x40 MLOAD SWAP1 DUP2 ADD PUSH1 0x40 MSTORE DUP1 SWAP3 SWAP2 SWAP1 DUP2 DUP2 MSTORE PUSH1 0x20 ADD DUP3 DUP1 SLOAD PUSH2 0x274 SWAP1 PUSH2 0xA8F JUMP JUMPDEST DUP1 ISZERO PUSH2 0x2C1 JUMPI DUP1 PUSH1 0x1F LT PUSH2 0x296 JUMPI PUSH2 0x100 DUP1 DUP4 SLOAD DIV MUL DUP4 MSTORE SWAP2 PUSH1 0x20 ADD SWAP2 PUSH2 0x2C1 JUMP JUMPDEST DUP3 ADD SWAP2 SWAP1 PUSH1 0x0 MSTORE PUSH1 0x20 PUSH1 0x0 KECCAK256 SWAP1 JUMPDEST DUP2 SLOAD DUP2 MSTORE SWAP1 PUSH1 0x1 ADD SWAP1 PUSH1 0x20 ADD DUP1 DUP4 GT PUSH2 0x2A4 JUMPI DUP3 SWAP1 SUB PUSH1 0x1F AND DUP3 ADD SWAP2 JUMPDEST POP POP POP POP POP DUP2 JUMP JUMPDEST PUSH1 0x4 DUP2 DUP2 SLOAD DUP2 LT PUSH2 0x2D9 JUMPI PUSH1 0x0 DUP1 REVERT JUMPDEST SWAP1 PUSH1 0x0 MSTORE PUSH1 0x20 PUSH1 0x0 KECCAK256 SWAP1 PUSH1 0x2 MUL ADD PUSH1 0x0 SWAP2 POP SWAP1 POP DUP1 PUSH1 0x0 ADD PUSH1 0x0 SWAP1 SLOAD SWAP1 PUSH2 0x100 EXP SWAP1 DIV PUSH20 0xFFFFFFFFFFFFFFFFFFFFFFFFFFFFFFFFFFFFFFFF AND SWAP1 DUP1 PUSH1 0x1 ADD SLOAD SWAP1 POP DUP3 JUMP JUMPDEST PUSH1 0x2 PUSH1 0x0 SWAP1 SLOAD SWAP1 PUSH2 0x100 EXP SWAP1 DIV PUSH20 0xFFFFFFFFFFFFFFFFFFFFFFFFFFFFFFFFFFFFFFFF AND DUP2 JUMP JUMPDEST PUSH1 0x0 PUSH1 0x1 PUSH1 0x0 SWAP1 SLOAD SWAP1 PUSH2 0x100 EXP SWAP1 DIV PUSH20 0xFFFFFFFFFFFFFFFFFFFFFFFFFFFFFFFFFFFFFFFF AND PUSH20 0xFFFFFFFFFFFFFFFFFFFFFFFFFFFFFFFFFFFFFFFF AND PUSH4 0x278A7F33 DUP4 PUSH1 0x40 MLOAD DUP3 PUSH4 0xFFFFFFFF AND PUSH1 0xE0 SHL DUP2 MSTORE PUSH1 0x4 ADD PUSH2 0x3A0 SWAP2 SWAP1 PUSH2 0x80C JUMP JUMPDEST PUSH1 0x20 PUSH1 0x40 MLOAD DUP1 DUP4 SUB DUP2 DUP7 DUP1 EXTCODESIZE ISZERO DUP1 ISZERO PUSH2 0x3B8 JUMPI PUSH1 0x0 DUP1 REVERT JUMPDEST POP GAS STATICCALL ISZERO DUP1 ISZERO PUSH2 0x3CC JUMPI RETURNDATASIZE PUSH1 0x0 DUP1 RETURNDATACOPY RETURNDATASIZE PUSH1 0x0 REVERT JUMPDEST POP POP POP POP PUSH1 0x40 MLOAD RETURNDATASIZE PUSH1 0x1F NOT PUSH1 0x1F DUP3 ADD AND DUP3 ADD DUP1 PUSH1 0x40 MSTORE POP DUP2 ADD SWAP1 PUSH2 0x3F0 SWAP2 SWAP1 PUSH2 0xAFA JUMP JUMPDEST PUSH1 0xFF AND SWAP1 POP SWAP2 SWAP1 POP JUMP JUMPDEST PUSH1 0x60 PUSH1 0x0 PUSH1 0x1 PUSH1 0x0 SWAP1 SLOAD SWAP1 PUSH2 0x100 EXP SWAP1 DIV PUSH20 0xFFFFFFFFFFFFFFFFFFFFFFFFFFFFFFFFFFFFFFFF AND PUSH20 0xFFFFFFFFFFFFFFFFFFFFFFFFFFFFFFFFFFFFFFFF AND PUSH4 0x48441D5F PUSH1 0x40 MLOAD DUP2 PUSH4 0xFFFFFFFF AND PUSH1 0xE0 SHL DUP2 MSTORE PUSH1 0x4 ADD PUSH1 0x0 PUSH1 0x40 MLOAD DUP1 DUP4 SUB DUP2 DUP7 DUP1 EXTCODESIZE ISZERO DUP1 ISZERO PUSH2 0x466 JUMPI PUSH1 0x0 DUP1 REVERT JUMPDEST POP GAS STATICCALL ISZERO DUP1 ISZERO PUSH2 0x47A JUMPI RETURNDATASIZE PUSH1 0x0 DUP1 RETURNDATACOPY RETURNDATASIZE PUSH1 0x0 REVERT JUMPDEST POP POP POP POP PUSH1 0x40 MLOAD RETURNDATASIZE PUSH1 0x0 DUP3 RETURNDATACOPY RETURNDATASIZE PUSH1 0x1F NOT PUSH1 0x1F DUP3 ADD AND DUP3 ADD DUP1 PUSH1 0x40 MSTORE POP DUP2 ADD SWAP1 PUSH2 0x4A3 SWAP2 SWAP1 PUSH2 0xC6B JUMP JUMPDEST SWAP1 POP DUP1 PUSH1 0x1 PUSH1 0x3 DUP2 LT PUSH2 0x4B9 JUMPI PUSH2 0x4B8 PUSH2 0xA31 JUMP JUMPDEST JUMPDEST PUSH1 0x20 MUL ADD MLOAD SWAP2 POP POP SWAP1 JUMP JUMPDEST PUSH1 0x3 PUSH1 0x0 SWAP1 SLOAD SWAP1 PUSH2 0x100 EXP SWAP1 DIV PUSH20 0xFFFFFFFFFFFFFFFFFFFFFFFFFFFFFFFFFFFFFFFF AND DUP2 JUMP JUMPDEST PUSH1 0x0 DUP1 JUMPDEST PUSH1 0x4 DUP1 SLOAD SWAP1 POP DUP2 LT ISZERO PUSH2 0x5E2 JUMPI CALLER PUSH20 0xFFFFFFFFFFFFFFFFFFFFFFFFFFFFFFFFFFFFFFFF AND PUSH1 0x4 DUP3 DUP2 SLOAD DUP2 LT PUSH2 0x526 JUMPI PUSH2 0x525 PUSH2 0xA31 JUMP JUMPDEST JUMPDEST SWAP1 PUSH1 0x0 MSTORE PUSH1 0x20 PUSH1 0x0 KECCAK256 SWAP1 PUSH1 0x2 MUL ADD PUSH1 0x0 ADD PUSH1 0x0 SWAP1 SLOAD SWAP1 PUSH2 0x100 EXP SWAP1 DIV PUSH20 0xFFFFFFFFFFFFFFFFFFFFFFFFFFFFFFFFFFFFFFFF AND PUSH20 0xFFFFFFFFFFFFFFFFFFFFFFFFFFFFFFFFFFFFFFFF AND EQ ISZERO PUSH2 0x5CF JUMPI PUSH1 0x1 SWAP2 POP PUSH1 0x1 PUSH1 0x3 PUSH1 0x14 PUSH2 0x100 EXP DUP2 SLOAD DUP2 PUSH1 0xFF MUL NOT AND SWAP1 DUP4 ISZERO ISZERO MUL OR SWAP1 SSTORE POP PUSH1 0x4 DUP2 DUP2 SLOAD DUP2 LT PUSH2 0x5A7 JUMPI PUSH2 0x5A6 PUSH2 0xA31 JUMP JUMPDEST JUMPDEST SWAP1 PUSH1 0x0 MSTORE PUSH1 0x20 PUSH1 0x0 KECCAK256 SWAP1 PUSH1 0x2 MUL ADD PUSH1 0x1 ADD PUSH1 0x0 DUP2 SLOAD DUP1 SWAP3 SWAP2 SWAP1 PUSH2 0x5C9 SWAP1 PUSH2 0xCE3 JUMP JUMPDEST SWAP2 SWAP1 POP SSTORE POP JUMPDEST DUP1 DUP1 PUSH2 0x5DA SWAP1 PUSH2 0xCE3 JUMP JUMPDEST SWAP2 POP POP PUSH2 0x4EE JUMP JUMPDEST POP DUP1 PUSH2 0x699 JUMPI PUSH1 0x0 PUSH1 0x40 MLOAD DUP1 PUSH1 0x40 ADD PUSH1 0x40 MSTORE DUP1 CALLER PUSH20 0xFFFFFFFFFFFFFFFFFFFFFFFFFFFFFFFFFFFFFFFF AND DUP2 MSTORE PUSH1 0x20 ADD PUSH1 0x0 DUP2 MSTORE POP SWAP1 POP PUSH1 0x4 DUP2 SWAP1 DUP1 PUSH1 0x1 DUP2 SLOAD ADD DUP1 DUP3 SSTORE DUP1 SWAP2 POP POP PUSH1 0x1 SWAP1 SUB SWAP1 PUSH1 0x0 MSTORE PUSH1 0x20 PUSH1 0x0 KECCAK256 SWAP1 PUSH1 0x2 MUL ADD PUSH1 0x0 SWAP1 SWAP2 SWAP1 SWAP2 SWAP1 SWAP2 POP PUSH1 0x0 DUP3 ADD MLOAD DUP2 PUSH1 0x0 ADD PUSH1 0x0 PUSH2 0x100 EXP DUP2 SLOAD DUP2 PUSH20 0xFFFFFFFFFFFFFFFFFFFFFFFFFFFFFFFFFFFFFFFF MUL NOT AND SWAP1 DUP4 PUSH20 0xFFFFFFFFFFFFFFFFFFFFFFFFFFFFFFFFFFFFFFFF AND MUL OR SWAP1 SSTORE POP PUSH1 0x20 DUP3 ADD MLOAD DUP2 PUSH1 0x1 ADD SSTORE POP POP POP JUMPDEST POP JUMP JUMPDEST PUSH1 0x0 PUSH1 0x40 MLOAD SWAP1 POP SWAP1 JUMP JUMPDEST PUSH1 0x0 DUP1 REVERT JUMPDEST PUSH1 0x0 DUP1 REVERT JUMPDEST PUSH1 0x0 DUP2 SWAP1 POP SWAP2 SWAP1 POP JUMP JUMPDEST PUSH2 0x6C3 DUP2 PUSH2 0x6B0 JUMP JUMPDEST DUP2 EQ PUSH2 0x6CE JUMPI PUSH1 0x0 DUP1 REVERT JUMPDEST POP JUMP JUMPDEST PUSH1 0x0 DUP2 CALLDATALOAD SWAP1 POP PUSH2 0x6E0 DUP2 PUSH2 0x6BA JUMP JUMPDEST SWAP3 SWAP2 POP POP JUMP JUMPDEST PUSH1 0x0 PUSH1 0x20 DUP3 DUP5 SUB SLT ISZERO PUSH2 0x6FC JUMPI PUSH2 0x6FB PUSH2 0x6A6 JUMP JUMPDEST JUMPDEST PUSH1 0x0 PUSH2 0x70A DUP5 DUP3 DUP6 ADD PUSH2 0x6D1 JUMP JUMPDEST SWAP2 POP POP SWAP3 SWAP2 POP POP JUMP JUMPDEST PUSH2 0x71C DUP2 PUSH2 0x6B0 JUMP JUMPDEST DUP3 MSTORE POP POP JUMP JUMPDEST PUSH1 0x0 PUSH1 0x20 DUP3 ADD SWAP1 POP PUSH2 0x737 PUSH1 0x0 DUP4 ADD DUP5 PUSH2 0x713 JUMP JUMPDEST SWAP3 SWAP2 POP POP JUMP JUMPDEST PUSH1 0x0 DUP2 ISZERO ISZERO SWAP1 POP SWAP2 SWAP1 POP JUMP JUMPDEST PUSH2 0x752 DUP2 PUSH2 0x73D JUMP JUMPDEST DUP3 MSTORE POP POP JUMP JUMPDEST PUSH1 0x0 PUSH1 0x20 DUP3 ADD SWAP1 POP PUSH2 0x76D PUSH1 0x0 DUP4 ADD DUP5 PUSH2 0x749 JUMP JUMPDEST SWAP3 SWAP2 POP POP JUMP JUMPDEST PUSH1 0x0 DUP2 MLOAD SWAP1 POP SWAP2 SWAP1 POP JUMP JUMPDEST PUSH1 0x0 DUP3 DUP3 MSTORE PUSH1 0x20 DUP3 ADD SWAP1 POP SWAP3 SWAP2 POP POP JUMP JUMPDEST PUSH1 0x0 JUMPDEST DUP4 DUP2 LT ISZERO PUSH2 0x7AD JUMPI DUP1 DUP3 ADD MLOAD DUP2 DUP5 ADD MSTORE PUSH1 0x20 DUP2 ADD SWAP1 POP PUSH2 0x792 JUMP JUMPDEST DUP4 DUP2 GT ISZERO PUSH2 0x7BC JUMPI PUSH1 0x0 DUP5 DUP5 ADD MSTORE JUMPDEST POP POP POP POP JUMP JUMPDEST PUSH1 0x0 PUSH1 0x1F NOT PUSH1 0x1F DUP4 ADD AND SWAP1 POP SWAP2 SWAP1 POP JUMP JUMPDEST PUSH1 0x0 PUSH2 0x7DE DUP3 PUSH2 0x773 JUMP JUMPDEST PUSH2 0x7E8 DUP2 DUP6 PUSH2 0x77E JUMP JUMPDEST SWAP4 POP PUSH2 0x7F8 DUP2 DUP6 PUSH1 0x20 DUP7 ADD PUSH2 0x78F JUMP JUMPDEST PUSH2 0x801 DUP2 PUSH2 0x7C2 JUMP JUMPDEST DUP5 ADD SWAP2 POP POP SWAP3 SWAP2 POP POP JUMP JUMPDEST PUSH1 0x0 PUSH1 0x20 DUP3 ADD SWAP1 POP DUP2 DUP2 SUB PUSH1 0x0 DUP4 ADD MSTORE PUSH2 0x826 DUP2 DUP5 PUSH2 0x7D3 JUMP JUMPDEST SWAP1 POP SWAP3 SWAP2 POP POP JUMP JUMPDEST PUSH1 0x0 PUSH20 0xFFFFFFFFFFFFFFFFFFFFFFFFFFFFFFFFFFFFFFFF DUP3 AND SWAP1 POP SWAP2 SWAP1 POP JUMP JUMPDEST PUSH1 0x0 PUSH2 0x859 DUP3 PUSH2 0x82E JUMP JUMPDEST SWAP1 POP SWAP2 SWAP1 POP JUMP JUMPDEST PUSH2 0x869 DUP2 PUSH2 0x84E JUMP JUMPDEST DUP3 MSTORE POP POP JUMP JUMPDEST PUSH1 0x0 PUSH1 0x40 DUP3 ADD SWAP1 POP PUSH2 0x884 PUSH1 0x0 DUP4 ADD DUP6 PUSH2 0x860 JUMP JUMPDEST PUSH2 0x891 PUSH1 0x20 DUP4 ADD DUP5 PUSH2 0x713 JUMP JUMPDEST SWAP4 SWAP3 POP POP POP JUMP JUMPDEST PUSH1 0x0 PUSH1 0x20 DUP3 ADD SWAP1 POP PUSH2 0x8AD PUSH1 0x0 DUP4 ADD DUP5 PUSH2 0x860 JUMP JUMPDEST SWAP3 SWAP2 POP POP JUMP JUMPDEST PUSH1 0x0 DUP1 REVERT JUMPDEST PUSH1 0x0 DUP1 REVERT JUMPDEST PUSH32 0x4E487B7100000000000000000000000000000000000000000000000000000000 PUSH1 0x0 MSTORE PUSH1 0x41 PUSH1 0x4 MSTORE PUSH1 0x24 PUSH1 0x0 REVERT JUMPDEST PUSH2 0x8F5 DUP3 PUSH2 0x7C2 JUMP JUMPDEST DUP2 ADD DUP2 DUP2 LT PUSH8 0xFFFFFFFFFFFFFFFF DUP3 GT OR ISZERO PUSH2 0x914 JUMPI PUSH2 0x913 PUSH2 0x8BD JUMP JUMPDEST JUMPDEST DUP1 PUSH1 0x40 MSTORE POP POP POP JUMP JUMPDEST PUSH1 0x0 PUSH2 0x927 PUSH2 0x69C JUMP JUMPDEST SWAP1 POP PUSH2 0x933 DUP3 DUP3 PUSH2 0x8EC JUMP JUMPDEST SWAP2 SWAP1 POP JUMP JUMPDEST PUSH1 0x0 PUSH8 0xFFFFFFFFFFFFFFFF DUP3 GT ISZERO PUSH2 0x953 JUMPI PUSH2 0x952 PUSH2 0x8BD JUMP JUMPDEST JUMPDEST PUSH2 0x95C DUP3 PUSH2 0x7C2 JUMP JUMPDEST SWAP1 POP PUSH1 0x20 DUP2 ADD SWAP1 POP SWAP2 SWAP1 POP JUMP JUMPDEST DUP3 DUP2 DUP4 CALLDATACOPY PUSH1 0x0 DUP4 DUP4 ADD MSTORE POP POP POP JUMP JUMPDEST PUSH1 0x0 PUSH2 0x98B PUSH2 0x986 DUP5 PUSH2 0x938 JUMP JUMPDEST PUSH2 0x91D JUMP JUMPDEST SWAP1 POP DUP3 DUP2 MSTORE PUSH1 0x20 DUP2 ADD DUP5 DUP5 DUP5 ADD GT ISZERO PUSH2 0x9A7 JUMPI PUSH2 0x9A6 PUSH2 0x8B8 JUMP JUMPDEST JUMPDEST PUSH2 0x9B2 DUP5 DUP3 DUP6 PUSH2 0x969 JUMP JUMPDEST POP SWAP4 SWAP3 POP POP POP JUMP JUMPDEST PUSH1 0x0 DUP3 PUSH1 0x1F DUP4 ADD SLT PUSH2 0x9CF JUMPI PUSH2 0x9CE PUSH2 0x8B3 JUMP JUMPDEST JUMPDEST DUP2 CALLDATALOAD PUSH2 0x9DF DUP5 DUP3 PUSH1 0x20 DUP7 ADD PUSH2 0x978 JUMP JUMPDEST SWAP2 POP POP SWAP3 SWAP2 POP POP JUMP JUMPDEST PUSH1 0x0 PUSH1 0x20 DUP3 DUP5 SUB SLT ISZERO PUSH2 0x9FE JUMPI PUSH2 0x9FD PUSH2 0x6A6 JUMP JUMPDEST JUMPDEST PUSH1 0x0 DUP3 ADD CALLDATALOAD PUSH8 0xFFFFFFFFFFFFFFFF DUP2 GT ISZERO PUSH2 0xA1C JUMPI PUSH2 0xA1B PUSH2 0x6AB JUMP JUMPDEST JUMPDEST PUSH2 0xA28 DUP5 DUP3 DUP6 ADD PUSH2 0x9BA JUMP JUMPDEST SWAP2 POP POP SWAP3 SWAP2 POP POP JUMP JUMPDEST PUSH32 0x4E487B7100000000000000000000000000000000000000000000000000000000 PUSH1 0x0 MSTORE PUSH1 0x32 PUSH1 0x4 MSTORE PUSH1 0x24 PUSH1 0x0 REVERT JUMPDEST PUSH32 0x4E487B7100000000000000000000000000000000000000000000000000000000 PUSH1 0x0 MSTORE PUSH1 0x22 PUSH1 0x4 MSTORE PUSH1 0x24 PUSH1 0x0 REVERT JUMPDEST PUSH1 0x0 PUSH1 0x2 DUP3 DIV SWAP1 POP PUSH1 0x1 DUP3 AND DUP1 PUSH2 0xAA7 JUMPI PUSH1 0x7F DUP3 AND SWAP2 POP JUMPDEST PUSH1 0x20 DUP3 LT DUP2 EQ ISZERO PUSH2 0xABB JUMPI PUSH2 0xABA PUSH2 0xA60 JUMP JUMPDEST JUMPDEST POP SWAP2 SWAP1 POP JUMP JUMPDEST PUSH1 0x0 PUSH1 0xFF DUP3 AND SWAP1 POP SWAP2 SWAP1 POP JUMP JUMPDEST PUSH2 0xAD7 DUP2 PUSH2 0xAC1 JUMP JUMPDEST DUP2 EQ PUSH2 0xAE2 JUMPI PUSH1 0x0 DUP1 REVERT JUMPDEST POP JUMP JUMPDEST PUSH1 0x0 DUP2 MLOAD SWAP1 POP PUSH2 0xAF4 DUP2 PUSH2 0xACE JUMP JUMPDEST SWAP3 SWAP2 POP POP JUMP JUMPDEST PUSH1 0x0 PUSH1 0x20 DUP3 DUP5 SUB SLT ISZERO PUSH2 0xB10 JUMPI PUSH2 0xB0F PUSH2 0x6A6 JUMP JUMPDEST JUMPDEST PUSH1 0x0 PUSH2 0xB1E DUP5 DUP3 DUP6 ADD PUSH2 0xAE5 JUMP JUMPDEST SWAP2 POP POP SWAP3 SWAP2 POP POP JUMP JUMPDEST PUSH1 0x0 PUSH8 0xFFFFFFFFFFFFFFFF DUP3 GT ISZERO PUSH2 0xB42 JUMPI PUSH2 0xB41 PUSH2 0x8BD JUMP JUMPDEST JUMPDEST PUSH1 0x20 DUP3 MUL SWAP1 POP SWAP2 SWAP1 POP JUMP JUMPDEST PUSH1 0x0 DUP1 REVERT JUMPDEST PUSH1 0x0 PUSH2 0xB65 PUSH2 0xB60 DUP5 PUSH2 0x938 JUMP JUMPDEST PUSH2 0x91D JUMP JUMPDEST SWAP1 POP DUP3 DUP2 MSTORE PUSH1 0x20 DUP2 ADD DUP5 DUP5 DUP5 ADD GT ISZERO PUSH2 0xB81 JUMPI PUSH2 0xB80 PUSH2 0x8B8 JUMP JUMPDEST JUMPDEST PUSH2 0xB8C DUP5 DUP3 DUP6 PUSH2 0x78F JUMP JUMPDEST POP SWAP4 SWAP3 POP POP POP JUMP JUMPDEST PUSH1 0x0 DUP3 PUSH1 0x1F DUP4 ADD SLT PUSH2 0xBA9 JUMPI PUSH2 0xBA8 PUSH2 0x8B3 JUMP JUMPDEST JUMPDEST DUP2 MLOAD PUSH2 0xBB9 DUP5 DUP3 PUSH1 0x20 DUP7 ADD PUSH2 0xB52 JUMP JUMPDEST SWAP2 POP POP SWAP3 SWAP2 POP POP JUMP JUMPDEST PUSH1 0x0 PUSH2 0xBD5 PUSH2 0xBD0 DUP5 PUSH2 0xB27 JUMP JUMPDEST PUSH2 0x91D JUMP JUMPDEST SWAP1 POP DUP1 PUSH1 0x20 DUP5 MUL DUP4 ADD DUP6 DUP2 GT ISZERO PUSH2 0xBEF JUMPI PUSH2 0xBEE PUSH2 0xB4D JUMP JUMPDEST JUMPDEST DUP4 JUMPDEST DUP2 DUP2 LT ISZERO PUSH2 0xC36 JUMPI DUP1 MLOAD PUSH8 0xFFFFFFFFFFFFFFFF DUP2 GT ISZERO PUSH2 0xC14 JUMPI PUSH2 0xC13 PUSH2 0x8B3 JUMP JUMPDEST JUMPDEST DUP1 DUP7 ADD PUSH2 0xC21 DUP10 DUP3 PUSH2 0xB94 JUMP JUMPDEST DUP6 MSTORE PUSH1 0x20 DUP6 ADD SWAP5 POP POP POP PUSH1 0x20 DUP2 ADD SWAP1 POP PUSH2 0xBF1 JUMP JUMPDEST POP POP POP SWAP4 SWAP3 POP POP POP JUMP JUMPDEST PUSH1 0x0 DUP3 PUSH1 0x1F DUP4 ADD SLT PUSH2 0xC55 JUMPI PUSH2 0xC54 PUSH2 0x8B3 JUMP JUMPDEST JUMPDEST PUSH1 0x3 PUSH2 0xC62 DUP5 DUP3 DUP6 PUSH2 0xBC2 JUMP JUMPDEST SWAP2 POP POP SWAP3 SWAP2 POP POP JUMP JUMPDEST PUSH1 0x0 PUSH1 0x20 DUP3 DUP5 SUB SLT ISZERO PUSH2 0xC81 JUMPI PUSH2 0xC80 PUSH2 0x6A6 JUMP JUMPDEST JUMPDEST PUSH1 0x0 DUP3 ADD MLOAD PUSH8 0xFFFFFFFFFFFFFFFF DUP2 GT ISZERO PUSH2 0xC9F JUMPI PUSH2 0xC9E PUSH2 0x6AB JUMP JUMPDEST JUMPDEST PUSH2 0xCAB DUP5 DUP3 DUP6 ADD PUSH2 0xC40 JUMP JUMPDEST SWAP2 POP POP SWAP3 SWAP2 POP POP JUMP JUMPDEST PUSH32 0x4E487B7100000000000000000000000000000000000000000000000000000000 PUSH1 0x0 MSTORE PUSH1 0x11 PUSH1 0x4 MSTORE PUSH1 0x24 PUSH1 0x0 REVERT JUMPDEST PUSH1 0x0 PUSH2 0xCEE DUP3 PUSH2 0x6B0 JUMP JUMPDEST SWAP2 POP PUSH32 0xFFFFFFFFFFFFFFFFFFFFFFFFFFFFFFFFFFFFFFFFFFFFFFFFFFFFFFFFFFFFFFFF DUP3 EQ ISZERO PUSH2 0xD21 JUMPI PUSH2 0xD20 PUSH2 0xCB4 JUMP JUMPDEST JUMPDEST PUSH1 0x1 DUP3 ADD SWAP1 POP SWAP2 SWAP1 POP JUMP INVALID LOG2 PUSH5 0x6970667358 0x22 SLT KECCAK256 EXTCODESIZE PUSH18 0xA8B8FC7C17C2CDB2CFF42A55B5706C72E443 0xAC 0xC2 MULMOD 0x29 0xD GASLIMIT 0xEA ADDRESS SDIV CALLDATACOPY SWAP14 0xF7 PUSH5 0x736F6C6343 STOP ADDMOD ADDMOD STOP CALLER "
				},
				"gasEstimates": {
					"creation": {
						"codeDepositCost": "685200",
						"executionCost": "97838",
						"totalCost": "783038"
					},
					"external": {
						"createGatcha()": "infinite",
						"getUsers(uint256)": "infinite",
						"isFoundGlobal()": "2544",
						"ownerAddress()": "2514",
						"rarityList(uint256)": "infinite",
						"rarityListFunc()": "infinite",
						"rarityRateFunc(string)": "infinite",
						"registeredUsers(uint256)": "infinite",
						"userAddress()": "2580"
					}
				},
				"methodIdentifiers": {
					"createGatcha()": "e917ec96",
					"getUsers(uint256)": "5d73ab9a",
					"isFoundGlobal()": "6ec4b18d",
					"ownerAddress()": "8f84aa09",
					"rarityList(uint256)": "6fd3d9e2",
					"rarityListFunc()": "bb4a376b",
					"rarityRateFunc(string)": "a7beb5d0",
					"registeredUsers(uint256)": "7259e0f8",
					"userAddress()": "e4128fb3"
				}
			},
			"storageLayout": {
				"storage": [
					{
						"astId": 5,
						"contract": "contracts/TestInterview.sol:TestInterview",
						"label": "rarityList",
						"offset": 0,
						"slot": "0",
						"type": "t_array(t_string_storage)dyn_storage"
					},
					{
						"astId": 11,
						"contract": "contracts/TestInterview.sol:TestInterview",
						"label": "objINFT",
						"offset": 0,
						"slot": "1",
						"type": "t_contract(INFT)173"
					},
					{
						"astId": 14,
						"contract": "contracts/TestInterview.sol:TestInterview",
						"label": "ownerAddress",
						"offset": 0,
						"slot": "2",
						"type": "t_address"
					},
					{
						"astId": 18,
						"contract": "contracts/TestInterview.sol:TestInterview",
						"label": "userAddress",
						"offset": 0,
						"slot": "3",
						"type": "t_address"
					},
					{
						"astId": 21,
						"contract": "contracts/TestInterview.sol:TestInterview",
						"label": "isFoundGlobal",
						"offset": 20,
						"slot": "3",
						"type": "t_bool"
					},
					{
						"astId": 30,
						"contract": "contracts/TestInterview.sol:TestInterview",
						"label": "registeredUsers",
						"offset": 0,
						"slot": "4",
						"type": "t_array(t_struct(RegisteredUser)26_storage)dyn_storage"
					}
				],
				"types": {
					"t_address": {
						"encoding": "inplace",
						"label": "address",
						"numberOfBytes": "20"
					},
					"t_array(t_string_storage)dyn_storage": {
						"base": "t_string_storage",
						"encoding": "dynamic_array",
						"label": "string[]",
						"numberOfBytes": "32"
					},
					"t_array(t_struct(RegisteredUser)26_storage)dyn_storage": {
						"base": "t_struct(RegisteredUser)26_storage",
						"encoding": "dynamic_array",
						"label": "struct TestInterview.RegisteredUser[]",
						"numberOfBytes": "32"
					},
					"t_bool": {
						"encoding": "inplace",
						"label": "bool",
						"numberOfBytes": "1"
					},
					"t_contract(INFT)173": {
						"encoding": "inplace",
						"label": "contract INFT",
						"numberOfBytes": "20"
					},
					"t_string_storage": {
						"encoding": "bytes",
						"label": "string",
						"numberOfBytes": "32"
					},
					"t_struct(RegisteredUser)26_storage": {
						"encoding": "inplace",
						"label": "struct TestInterview.RegisteredUser",
						"members": [
							{
								"astId": 23,
								"contract": "contracts/TestInterview.sol:TestInterview",
								"label": "userAddress",
								"offset": 0,
								"slot": "0",
								"type": "t_address"
							},
							{
								"astId": 25,
								"contract": "contracts/TestInterview.sol:TestInterview",
								"label": "counterVisited",
								"offset": 0,
								"slot": "1",
								"type": "t_uint256"
							}
						],
						"numberOfBytes": "64"
					},
					"t_uint256": {
						"encoding": "inplace",
						"label": "uint256",
						"numberOfBytes": "32"
					}
				}
			},
			"userdoc": {
				"kind": "user",
				"methods": {},
				"version": 1
			}
		}
	}
}