{
	"contracts/TestInterview.sol": {
		"TestInterview": {
			"abi": [
				{
					"inputs": [],
					"stateMutability": "nonpayable",
					"type": "constructor"
				},
				{
					"inputs": [],
					"name": "adminAddress",
					"outputs": [
						{
							"internalType": "address",
							"name": "",
							"type": "address"
						}
					],
					"stateMutability": "view",
					"type": "function"
				},
				{
					"inputs": [
						{
							"internalType": "uint256",
							"name": "_newLimit",
							"type": "uint256"
						}
					],
					"name": "changeGatchaLimit",
					"outputs": [],
					"stateMutability": "nonpayable",
					"type": "function"
				},
				{
					"inputs": [],
					"name": "createGatcha",
					"outputs": [],
					"stateMutability": "nonpayable",
					"type": "function"
				},
				{
					"inputs": [],
					"name": "limitGatcha",
					"outputs": [
						{
							"internalType": "uint256",
							"name": "",
							"type": "uint256"
						}
					],
					"stateMutability": "view",
					"type": "function"
				},
				{
					"inputs": [],
					"name": "ownerAddress",
					"outputs": [
						{
							"internalType": "address",
							"name": "",
							"type": "address"
						}
					],
					"stateMutability": "view",
					"type": "function"
				},
				{
					"inputs": [
						{
							"internalType": "uint256",
							"name": "",
							"type": "uint256"
						}
					],
					"name": "rarityList",
					"outputs": [
						{
							"internalType": "string",
							"name": "name",
							"type": "string"
						},
						{
							"internalType": "uint256",
							"name": "min",
							"type": "uint256"
						},
						{
							"internalType": "uint256",
							"name": "max",
							"type": "uint256"
						}
					],
					"stateMutability": "view",
					"type": "function"
				},
				{
					"inputs": [
						{
							"internalType": "uint256",
							"name": "",
							"type": "uint256"
						}
					],
					"name": "registeredUsers",
					"outputs": [
						{
							"internalType": "address",
							"name": "userAddress",
							"type": "address"
						},
						{
							"internalType": "uint256",
							"name": "counterVisited",
							"type": "uint256"
						},
						{
							"internalType": "uint256",
							"name": "rarityScore",
							"type": "uint256"
						},
						{
							"internalType": "string",
							"name": "rarityName",
							"type": "string"
						}
					],
					"stateMutability": "view",
					"type": "function"
				}
			],
			"devdoc": {
				"kind": "dev",
				"methods": {},
				"version": 1
			},
			"evm": {
				"assembly": "    /* \"contracts/TestInterview.sol\":208:3744  contract TestInterview {... */\n  mstore(0x40, 0x80)\n    /* \"contracts/TestInterview.sol\":258:300  0x50C7a09925375438D2cEe94C5c59266c6fFAAf8C */\n  0x50c7a09925375438d2cee94c5c59266c6ffaaf8c\n    /* \"contracts/TestInterview.sol\":238:301  INFT objINFT = INFT(0x50C7a09925375438D2cEe94C5c59266c6fFAAf8C) */\n  0x00\n  dup1\n  0x0100\n  exp\n  dup2\n  sload\n  dup2\n  0xffffffffffffffffffffffffffffffffffffffff\n  mul\n  not\n  and\n  swap1\n  dup4\n  0xffffffffffffffffffffffffffffffffffffffff\n  and\n  mul\n  or\n  swap1\n  sstore\n  pop\n    /* \"contracts/TestInterview.sol\":338:380  0xdBDdb8575F6bda11F1DC548A1B546463CC567C3d */\n  0xdbddb8575f6bda11f1dc548a1b546463cc567c3d\n    /* \"contracts/TestInterview.sol\":308:380  address public ownerAddress = 0xdBDdb8575F6bda11F1DC548A1B546463CC567C3d */\n  0x01\n  exp(0x0100, 0x00)\n  dup2\n  sload\n  dup2\n  0xffffffffffffffffffffffffffffffffffffffff\n  mul\n  not\n  and\n  swap1\n  dup4\n  0xffffffffffffffffffffffffffffffffffffffff\n  and\n  mul\n  or\n  swap1\n  sstore\n  pop\n    /* \"contracts/TestInterview.sol\":447:448  2 */\n  0x02\n    /* \"contracts/TestInterview.sol\":421:448  uint public limitGatcha = 2 */\n  0x03\n  sstore\n    /* \"contracts/TestInterview.sol\":795:1355  constructor() {... */\n  callvalue\n  dup1\n  iszero\n  tag_1\n  jumpi\n  0x00\n  dup1\n  revert\ntag_1:\n  pop\n    /* \"contracts/TestInterview.sol\":835:845  msg.sender */\n  caller\n    /* \"contracts/TestInterview.sol\":820:832  adminAddress */\n  0x02\n  0x00\n    /* \"contracts/TestInterview.sol\":820:845  adminAddress = msg.sender */\n  0x0100\n  exp\n  dup2\n  sload\n  dup2\n  0xffffffffffffffffffffffffffffffffffffffff\n  mul\n  not\n  and\n  swap1\n  dup4\n  0xffffffffffffffffffffffffffffffffffffffff\n  and\n  mul\n  or\n  swap1\n  sstore\n  pop\n    /* \"contracts/TestInterview.sol\":856:888  string[3] memory localRarityList */\n  0x00\n    /* \"contracts/TestInterview.sol\":891:898  objINFT */\n  dup1\n  0x00\n  swap1\n  sload\n  swap1\n  0x0100\n  exp\n  swap1\n  div\n  0xffffffffffffffffffffffffffffffffffffffff\n  and\n    /* \"contracts/TestInterview.sol\":891:912  objINFT.getRarityList */\n  0xffffffffffffffffffffffffffffffffffffffff\n  and\n  0x48441d5f\n    /* \"contracts/TestInterview.sol\":891:914  objINFT.getRarityList() */\n  mload(0x40)\n  dup2\n  0xffffffff\n  and\n  0xe0\n  shl\n  dup2\n  mstore\n  0x04\n  add\n  0x00\n  mload(0x40)\n  dup1\n  dup4\n  sub\n  dup2\n  dup7\n  dup1\n  extcodesize\n  iszero\n  dup1\n  iszero\n  tag_4\n  jumpi\n  0x00\n  dup1\n  revert\ntag_4:\n  pop\n  gas\n  staticcall\n  iszero\n  dup1\n  iszero\n  tag_6\n  jumpi\n  returndatasize\n  0x00\n  dup1\n  returndatacopy\n  revert(0x00, returndatasize)\ntag_6:\n  pop\n  pop\n  pop\n  pop\n  mload(0x40)\n  returndatasize\n  0x00\n  dup3\n  returndatacopy\n  returndatasize\n  not(0x1f)\n  0x1f\n  dup3\n  add\n  and\n  dup3\n  add\n  dup1\n  0x40\n  mstore\n  pop\n  dup2\n  add\n  swap1\n  tag_7\n  swap2\n  swap1\n  tag_8\n  jump\t// in\ntag_7:\n    /* \"contracts/TestInterview.sol\":856:914  string[3] memory localRarityList = objINFT.getRarityList() */\n  swap1\n  pop\n    /* \"contracts/TestInterview.sol\":927:943  uint256 minValue */\n  0x00\n    /* \"contracts/TestInterview.sol\":964:977  uint256 index */\n  dup1\n    /* \"contracts/TestInterview.sol\":960:1348  for(uint256 index = 0; index < localRarityList.length; index++)... */\ntag_9:\n    /* \"contracts/TestInterview.sol\":991:1013  localRarityList.length */\n  0x03\n    /* \"contracts/TestInterview.sol\":983:988  index */\n  dup2\n    /* \"contracts/TestInterview.sol\":983:1013  index < localRarityList.length */\n  lt\n    /* \"contracts/TestInterview.sol\":960:1348  for(uint256 index = 0; index < localRarityList.length; index++)... */\n  iszero\n  tag_10\n  jumpi\n    /* \"contracts/TestInterview.sol\":1048:1063  uint rarityRate */\n  0x00\n    /* \"contracts/TestInterview.sol\":1066:1073  objINFT */\n  dup1\n  0x00\n  swap1\n  sload\n  swap1\n  0x0100\n  exp\n  swap1\n  div\n  0xffffffffffffffffffffffffffffffffffffffff\n  and\n    /* \"contracts/TestInterview.sol\":1066:1087  objINFT.getRarityRate */\n  0xffffffffffffffffffffffffffffffffffffffff\n  and\n  0x278a7f33\n    /* \"contracts/TestInterview.sol\":1088:1103  localRarityList */\n  dup6\n    /* \"contracts/TestInterview.sol\":1104:1109  index */\n  dup5\n    /* \"contracts/TestInterview.sol\":1088:1110  localRarityList[index] */\n  0x03\n  dup2\n  lt\n  tag_12\n  jumpi\n  tag_13\n  tag_14\n  jump\t// in\ntag_13:\ntag_12:\n  0x20\n  mul\n  add\n  mload\n    /* \"contracts/TestInterview.sol\":1066:1111  objINFT.getRarityRate(localRarityList[index]) */\n  mload(0x40)\n  dup3\n  0xffffffff\n  and\n  0xe0\n  shl\n  dup2\n  mstore\n  0x04\n  add\n  tag_15\n  swap2\n  swap1\n  tag_16\n  jump\t// in\ntag_15:\n  0x20\n  mload(0x40)\n  dup1\n  dup4\n  sub\n  dup2\n  dup7\n  dup1\n  extcodesize\n  iszero\n  dup1\n  iszero\n  tag_17\n  jumpi\n  0x00\n  dup1\n  revert\ntag_17:\n  pop\n  gas\n  staticcall\n  iszero\n  dup1\n  iszero\n  tag_19\n  jumpi\n  returndatasize\n  0x00\n  dup1\n  returndatacopy\n  revert(0x00, returndatasize)\ntag_19:\n  pop\n  pop\n  pop\n  pop\n  mload(0x40)\n  returndatasize\n  not(0x1f)\n  0x1f\n  dup3\n  add\n  and\n  dup3\n  add\n  dup1\n  0x40\n  mstore\n  pop\n  dup2\n  add\n  swap1\n  tag_20\n  swap2\n  swap1\n  tag_21\n  jump\t// in\ntag_20:\n    /* \"contracts/TestInterview.sol\":1048:1111  uint rarityRate = objINFT.getRarityRate(localRarityList[index]) */\n  0xff\n  and\n  swap1\n  pop\n    /* \"contracts/TestInterview.sol\":1126:1136  rarityList */\n  0x04\n    /* \"contracts/TestInterview.sol\":1142:1298  Rarity({... */\n  mload(0x40)\n  dup1\n  0x60\n  add\n  0x40\n  mstore\n  dup1\n    /* \"contracts/TestInterview.sol\":1175:1190  localRarityList */\n  dup7\n    /* \"contracts/TestInterview.sol\":1191:1196  index */\n  dup6\n    /* \"contracts/TestInterview.sol\":1175:1197  localRarityList[index] */\n  0x03\n  dup2\n  lt\n  tag_22\n  jumpi\n  tag_23\n  tag_14\n  jump\t// in\ntag_23:\ntag_22:\n  0x20\n  mul\n  add\n  mload\n    /* \"contracts/TestInterview.sol\":1142:1298  Rarity({... */\n  dup2\n  mstore\n  0x20\n  add\n    /* \"contracts/TestInterview.sol\":1222:1230  minValue */\n  dup6\n    /* \"contracts/TestInterview.sol\":1142:1298  Rarity({... */\n  dup2\n  mstore\n  0x20\n  add\n    /* \"contracts/TestInterview.sol\":1281:1282  1 */\n  0x01\n    /* \"contracts/TestInterview.sol\":1267:1277  rarityRate */\n  dup5\n    /* \"contracts/TestInterview.sol\":1256:1264  minValue */\n  dup8\n    /* \"contracts/TestInterview.sol\":1256:1277  minValue + rarityRate */\n  tag_24\n  swap2\n  swap1\n  tag_25\n  jump\t// in\ntag_24:\n    /* \"contracts/TestInterview.sol\":1255:1282  (minValue + rarityRate) - 1 */\n  tag_26\n  swap2\n  swap1\n  tag_27\n  jump\t// in\ntag_26:\n    /* \"contracts/TestInterview.sol\":1142:1298  Rarity({... */\n  dup2\n  mstore\n  pop\n    /* \"contracts/TestInterview.sol\":1126:1299  rarityList.push(Rarity({... */\n  swap1\n  dup1\n  0x01\n  dup2\n  sload\n  add\n  dup1\n  dup3\n  sstore\n  dup1\n  swap2\n  pop\n  pop\n  0x01\n  swap1\n  sub\n  swap1\n  0x00\n  mstore\n  keccak256(0x00, 0x20)\n  swap1\n  0x03\n  mul\n  add\n  0x00\n  swap1\n  swap2\n  swap1\n  swap2\n  swap1\n  swap2\n  pop\n  0x00\n  dup3\n  add\n  mload\n  dup2\n  0x00\n  add\n  swap1\n  dup1\n  mload\n  swap1\n  0x20\n  add\n  swap1\n  tag_29\n  swap3\n  swap2\n  swap1\n  tag_30\n  jump\t// in\ntag_29:\n  pop\n  0x20\n  dup3\n  add\n  mload\n  dup2\n  0x01\n  add\n  sstore\n  0x40\n  dup3\n  add\n  mload\n  dup2\n  0x02\n  add\n  sstore\n  pop\n  pop\n    /* \"contracts/TestInterview.sol\":1326:1336  rarityRate */\n  dup1\n    /* \"contracts/TestInterview.sol\":1314:1336  minValue += rarityRate */\n  dup4\n  tag_31\n  swap2\n  swap1\n  tag_25\n  jump\t// in\ntag_31:\n  swap3\n  pop\n    /* \"contracts/TestInterview.sol\":1033:1348  {... */\n  pop\n    /* \"contracts/TestInterview.sol\":1015:1022  index++ */\n  dup1\n  dup1\n  tag_32\n  swap1\n  tag_33\n  jump\t// in\ntag_32:\n  swap2\n  pop\n  pop\n    /* \"contracts/TestInterview.sol\":960:1348  for(uint256 index = 0; index < localRarityList.length; index++)... */\n  jump(tag_9)\ntag_10:\n  pop\n    /* \"contracts/TestInterview.sol\":809:1355  {... */\n  pop\n  pop\n    /* \"contracts/TestInterview.sol\":208:3744  contract TestInterview {... */\n  jump(tag_34)\ntag_30:\n  dup3\n  dup1\n  sload\n  tag_35\n  swap1\n  tag_36\n  jump\t// in\ntag_35:\n  swap1\n  0x00\n  mstore\n  keccak256(0x00, 0x20)\n  swap1\n  0x1f\n  add\n  0x20\n  swap1\n  div\n  dup2\n  add\n  swap3\n  dup3\n  tag_38\n  jumpi\n  0x00\n  dup6\n  sstore\n  jump(tag_37)\ntag_38:\n  dup3\n  0x1f\n  lt\n  tag_39\n  jumpi\n  dup1\n  mload\n  not(0xff)\n  and\n  dup4\n  dup1\n  add\n  or\n  dup6\n  sstore\n  jump(tag_37)\ntag_39:\n  dup3\n  dup1\n  add\n  0x01\n  add\n  dup6\n  sstore\n  dup3\n  iszero\n  tag_37\n  jumpi\n  swap2\n  dup3\n  add\ntag_40:\n  dup3\n  dup2\n  gt\n  iszero\n  tag_41\n  jumpi\n  dup3\n  mload\n  dup3\n  sstore\n  swap2\n  0x20\n  add\n  swap2\n  swap1\n  0x01\n  add\n  swap1\n  jump(tag_40)\ntag_41:\ntag_37:\n  pop\n  swap1\n  pop\n  tag_42\n  swap2\n  swap1\n  tag_43\n  jump\t// in\ntag_42:\n  pop\n  swap1\n  jump\t// out\ntag_43:\ntag_44:\n  dup1\n  dup3\n  gt\n  iszero\n  tag_45\n  jumpi\n  0x00\n  dup2\n  0x00\n  swap1\n  sstore\n  pop\n  0x01\n  add\n  jump(tag_44)\ntag_45:\n  pop\n  swap1\n  jump\t// out\n    /* \"#utility.yul\":7:82   */\ntag_46:\n    /* \"#utility.yul\":40:46   */\n  0x00\n    /* \"#utility.yul\":73:75   */\n  0x40\n    /* \"#utility.yul\":67:76   */\n  mload\n    /* \"#utility.yul\":57:76   */\n  swap1\n  pop\n    /* \"#utility.yul\":7:82   */\n  swap1\n  jump\t// out\n    /* \"#utility.yul\":88:205   */\ntag_47:\n    /* \"#utility.yul\":197:198   */\n  0x00\n    /* \"#utility.yul\":194:195   */\n  dup1\n    /* \"#utility.yul\":187:199   */\n  revert\n    /* \"#utility.yul\":211:328   */\ntag_48:\n    /* \"#utility.yul\":320:321   */\n  0x00\n    /* \"#utility.yul\":317:318   */\n  dup1\n    /* \"#utility.yul\":310:322   */\n  revert\n    /* \"#utility.yul\":334:451   */\ntag_49:\n    /* \"#utility.yul\":443:444   */\n  0x00\n    /* \"#utility.yul\":440:441   */\n  dup1\n    /* \"#utility.yul\":433:445   */\n  revert\n    /* \"#utility.yul\":457:559   */\ntag_50:\n    /* \"#utility.yul\":498:504   */\n  0x00\n    /* \"#utility.yul\":549:551   */\n  0x1f\n    /* \"#utility.yul\":545:552   */\n  not\n    /* \"#utility.yul\":540:542   */\n  0x1f\n    /* \"#utility.yul\":533:538   */\n  dup4\n    /* \"#utility.yul\":529:543   */\n  add\n    /* \"#utility.yul\":525:553   */\n  and\n    /* \"#utility.yul\":515:553   */\n  swap1\n  pop\n    /* \"#utility.yul\":457:559   */\n  swap2\n  swap1\n  pop\n  jump\t// out\n    /* \"#utility.yul\":565:745   */\ntag_51:\n    /* \"#utility.yul\":613:690   */\n  0x4e487b7100000000000000000000000000000000000000000000000000000000\n    /* \"#utility.yul\":610:611   */\n  0x00\n    /* \"#utility.yul\":603:691   */\n  mstore\n    /* \"#utility.yul\":710:714   */\n  0x41\n    /* \"#utility.yul\":707:708   */\n  0x04\n    /* \"#utility.yul\":700:715   */\n  mstore\n    /* \"#utility.yul\":734:738   */\n  0x24\n    /* \"#utility.yul\":731:732   */\n  0x00\n    /* \"#utility.yul\":724:739   */\n  revert\n    /* \"#utility.yul\":751:1032   */\ntag_52:\n    /* \"#utility.yul\":834:861   */\n  tag_80\n    /* \"#utility.yul\":856:860   */\n  dup3\n    /* \"#utility.yul\":834:861   */\n  tag_50\n  jump\t// in\ntag_80:\n    /* \"#utility.yul\":826:832   */\n  dup2\n    /* \"#utility.yul\":822:862   */\n  add\n    /* \"#utility.yul\":964:970   */\n  dup2\n    /* \"#utility.yul\":952:962   */\n  dup2\n    /* \"#utility.yul\":949:971   */\n  lt\n    /* \"#utility.yul\":928:946   */\n  0xffffffffffffffff\n    /* \"#utility.yul\":916:926   */\n  dup3\n    /* \"#utility.yul\":913:947   */\n  gt\n    /* \"#utility.yul\":910:972   */\n  or\n    /* \"#utility.yul\":907:995   */\n  iszero\n  tag_81\n  jumpi\n    /* \"#utility.yul\":975:993   */\n  tag_82\n  tag_51\n  jump\t// in\ntag_82:\n    /* \"#utility.yul\":907:995   */\ntag_81:\n    /* \"#utility.yul\":1015:1025   */\n  dup1\n    /* \"#utility.yul\":1011:1013   */\n  0x40\n    /* \"#utility.yul\":1004:1026   */\n  mstore\n    /* \"#utility.yul\":794:1032   */\n  pop\n    /* \"#utility.yul\":751:1032   */\n  pop\n  pop\n  jump\t// out\n    /* \"#utility.yul\":1038:1167   */\ntag_53:\n    /* \"#utility.yul\":1072:1078   */\n  0x00\n    /* \"#utility.yul\":1099:1119   */\n  tag_84\n  tag_46\n  jump\t// in\ntag_84:\n    /* \"#utility.yul\":1089:1119   */\n  swap1\n  pop\n    /* \"#utility.yul\":1128:1161   */\n  tag_85\n    /* \"#utility.yul\":1156:1160   */\n  dup3\n    /* \"#utility.yul\":1148:1154   */\n  dup3\n    /* \"#utility.yul\":1128:1161   */\n  tag_52\n  jump\t// in\ntag_85:\n    /* \"#utility.yul\":1038:1167   */\n  swap2\n  swap1\n  pop\n  jump\t// out\n    /* \"#utility.yul\":1173:1432   */\ntag_54:\n    /* \"#utility.yul\":1258:1262   */\n  0x00\n    /* \"#utility.yul\":1348:1366   */\n  0xffffffffffffffff\n    /* \"#utility.yul\":1340:1346   */\n  dup3\n    /* \"#utility.yul\":1337:1367   */\n  gt\n    /* \"#utility.yul\":1334:1390   */\n  iszero\n  tag_87\n  jumpi\n    /* \"#utility.yul\":1370:1388   */\n  tag_88\n  tag_51\n  jump\t// in\ntag_88:\n    /* \"#utility.yul\":1334:1390   */\ntag_87:\n    /* \"#utility.yul\":1420:1424   */\n  0x20\n    /* \"#utility.yul\":1412:1418   */\n  dup3\n    /* \"#utility.yul\":1408:1425   */\n  mul\n    /* \"#utility.yul\":1400:1425   */\n  swap1\n  pop\n    /* \"#utility.yul\":1173:1432   */\n  swap2\n  swap1\n  pop\n  jump\t// out\n    /* \"#utility.yul\":1438:1555   */\ntag_55:\n    /* \"#utility.yul\":1547:1548   */\n  0x00\n    /* \"#utility.yul\":1544:1545   */\n  dup1\n    /* \"#utility.yul\":1537:1549   */\n  revert\n    /* \"#utility.yul\":1561:1678   */\ntag_56:\n    /* \"#utility.yul\":1670:1671   */\n  0x00\n    /* \"#utility.yul\":1667:1668   */\n  dup1\n    /* \"#utility.yul\":1660:1672   */\n  revert\n    /* \"#utility.yul\":1684:1992   */\ntag_57:\n    /* \"#utility.yul\":1746:1750   */\n  0x00\n    /* \"#utility.yul\":1836:1854   */\n  0xffffffffffffffff\n    /* \"#utility.yul\":1828:1834   */\n  dup3\n    /* \"#utility.yul\":1825:1855   */\n  gt\n    /* \"#utility.yul\":1822:1878   */\n  iszero\n  tag_92\n  jumpi\n    /* \"#utility.yul\":1858:1876   */\n  tag_93\n  tag_51\n  jump\t// in\ntag_93:\n    /* \"#utility.yul\":1822:1878   */\ntag_92:\n    /* \"#utility.yul\":1896:1925   */\n  tag_94\n    /* \"#utility.yul\":1918:1924   */\n  dup3\n    /* \"#utility.yul\":1896:1925   */\n  tag_50\n  jump\t// in\ntag_94:\n    /* \"#utility.yul\":1888:1925   */\n  swap1\n  pop\n    /* \"#utility.yul\":1980:1984   */\n  0x20\n    /* \"#utility.yul\":1974:1978   */\n  dup2\n    /* \"#utility.yul\":1970:1985   */\n  add\n    /* \"#utility.yul\":1962:1985   */\n  swap1\n  pop\n    /* \"#utility.yul\":1684:1992   */\n  swap2\n  swap1\n  pop\n  jump\t// out\n    /* \"#utility.yul\":1998:2305   */\ntag_58:\n    /* \"#utility.yul\":2066:2067   */\n  0x00\n    /* \"#utility.yul\":2076:2189   */\ntag_96:\n    /* \"#utility.yul\":2090:2096   */\n  dup4\n    /* \"#utility.yul\":2087:2088   */\n  dup2\n    /* \"#utility.yul\":2084:2097   */\n  lt\n    /* \"#utility.yul\":2076:2189   */\n  iszero\n  tag_98\n  jumpi\n    /* \"#utility.yul\":2175:2176   */\n  dup1\n    /* \"#utility.yul\":2170:2173   */\n  dup3\n    /* \"#utility.yul\":2166:2177   */\n  add\n    /* \"#utility.yul\":2160:2178   */\n  mload\n    /* \"#utility.yul\":2156:2157   */\n  dup2\n    /* \"#utility.yul\":2151:2154   */\n  dup5\n    /* \"#utility.yul\":2147:2158   */\n  add\n    /* \"#utility.yul\":2140:2179   */\n  mstore\n    /* \"#utility.yul\":2112:2114   */\n  0x20\n    /* \"#utility.yul\":2109:2110   */\n  dup2\n    /* \"#utility.yul\":2105:2115   */\n  add\n    /* \"#utility.yul\":2100:2115   */\n  swap1\n  pop\n    /* \"#utility.yul\":2076:2189   */\n  jump(tag_96)\ntag_98:\n    /* \"#utility.yul\":2207:2213   */\n  dup4\n    /* \"#utility.yul\":2204:2205   */\n  dup2\n    /* \"#utility.yul\":2201:2214   */\n  gt\n    /* \"#utility.yul\":2198:2299   */\n  iszero\n  tag_99\n  jumpi\n    /* \"#utility.yul\":2287:2288   */\n  0x00\n    /* \"#utility.yul\":2278:2284   */\n  dup5\n    /* \"#utility.yul\":2273:2276   */\n  dup5\n    /* \"#utility.yul\":2269:2285   */\n  add\n    /* \"#utility.yul\":2262:2289   */\n  mstore\n    /* \"#utility.yul\":2198:2299   */\ntag_99:\n    /* \"#utility.yul\":2047:2305   */\n  pop\n    /* \"#utility.yul\":1998:2305   */\n  pop\n  pop\n  pop\n  jump\t// out\n    /* \"#utility.yul\":2311:2732   */\ntag_59:\n    /* \"#utility.yul\":2400:2405   */\n  0x00\n    /* \"#utility.yul\":2425:2491   */\n  tag_101\n    /* \"#utility.yul\":2441:2490   */\n  tag_102\n    /* \"#utility.yul\":2483:2489   */\n  dup5\n    /* \"#utility.yul\":2441:2490   */\n  tag_57\n  jump\t// in\ntag_102:\n    /* \"#utility.yul\":2425:2491   */\n  tag_53\n  jump\t// in\ntag_101:\n    /* \"#utility.yul\":2416:2491   */\n  swap1\n  pop\n    /* \"#utility.yul\":2514:2520   */\n  dup3\n    /* \"#utility.yul\":2507:2512   */\n  dup2\n    /* \"#utility.yul\":2500:2521   */\n  mstore\n    /* \"#utility.yul\":2552:2556   */\n  0x20\n    /* \"#utility.yul\":2545:2550   */\n  dup2\n    /* \"#utility.yul\":2541:2557   */\n  add\n    /* \"#utility.yul\":2590:2593   */\n  dup5\n    /* \"#utility.yul\":2581:2587   */\n  dup5\n    /* \"#utility.yul\":2576:2579   */\n  dup5\n    /* \"#utility.yul\":2572:2588   */\n  add\n    /* \"#utility.yul\":2569:2594   */\n  gt\n    /* \"#utility.yul\":2566:2678   */\n  iszero\n  tag_103\n  jumpi\n    /* \"#utility.yul\":2597:2676   */\n  tag_104\n  tag_56\n  jump\t// in\ntag_104:\n    /* \"#utility.yul\":2566:2678   */\ntag_103:\n    /* \"#utility.yul\":2687:2726   */\n  tag_105\n    /* \"#utility.yul\":2719:2725   */\n  dup5\n    /* \"#utility.yul\":2714:2717   */\n  dup3\n    /* \"#utility.yul\":2709:2712   */\n  dup6\n    /* \"#utility.yul\":2687:2726   */\n  tag_58\n  jump\t// in\ntag_105:\n    /* \"#utility.yul\":2406:2732   */\n  pop\n    /* \"#utility.yul\":2311:2732   */\n  swap4\n  swap3\n  pop\n  pop\n  pop\n  jump\t// out\n    /* \"#utility.yul\":2752:3107   */\ntag_60:\n    /* \"#utility.yul\":2819:2824   */\n  0x00\n    /* \"#utility.yul\":2868:2871   */\n  dup3\n    /* \"#utility.yul\":2861:2865   */\n  0x1f\n    /* \"#utility.yul\":2853:2859   */\n  dup4\n    /* \"#utility.yul\":2849:2866   */\n  add\n    /* \"#utility.yul\":2845:2872   */\n  slt\n    /* \"#utility.yul\":2835:2957   */\n  tag_107\n  jumpi\n    /* \"#utility.yul\":2876:2955   */\n  tag_108\n  tag_49\n  jump\t// in\ntag_108:\n    /* \"#utility.yul\":2835:2957   */\ntag_107:\n    /* \"#utility.yul\":2986:2992   */\n  dup2\n    /* \"#utility.yul\":2980:2993   */\n  mload\n    /* \"#utility.yul\":3011:3101   */\n  tag_109\n    /* \"#utility.yul\":3097:3100   */\n  dup5\n    /* \"#utility.yul\":3089:3095   */\n  dup3\n    /* \"#utility.yul\":3082:3086   */\n  0x20\n    /* \"#utility.yul\":3074:3080   */\n  dup7\n    /* \"#utility.yul\":3070:3087   */\n  add\n    /* \"#utility.yul\":3011:3101   */\n  tag_59\n  jump\t// in\ntag_109:\n    /* \"#utility.yul\":3002:3101   */\n  swap2\n  pop\n    /* \"#utility.yul\":2825:3107   */\n  pop\n    /* \"#utility.yul\":2752:3107   */\n  swap3\n  swap2\n  pop\n  pop\n  jump\t// out\n    /* \"#utility.yul\":3130:4023   */\ntag_61:\n    /* \"#utility.yul\":3245:3250   */\n  0x00\n    /* \"#utility.yul\":3270:3359   */\n  tag_111\n    /* \"#utility.yul\":3286:3358   */\n  tag_112\n    /* \"#utility.yul\":3351:3357   */\n  dup5\n    /* \"#utility.yul\":3286:3358   */\n  tag_54\n  jump\t// in\ntag_112:\n    /* \"#utility.yul\":3270:3359   */\n  tag_53\n  jump\t// in\ntag_111:\n    /* \"#utility.yul\":3261:3359   */\n  swap1\n  pop\n    /* \"#utility.yul\":3379:3384   */\n  dup1\n    /* \"#utility.yul\":3432:3436   */\n  0x20\n    /* \"#utility.yul\":3424:3430   */\n  dup5\n    /* \"#utility.yul\":3420:3437   */\n  mul\n    /* \"#utility.yul\":3412:3418   */\n  dup4\n    /* \"#utility.yul\":3408:3438   */\n  add\n    /* \"#utility.yul\":3461:3464   */\n  dup6\n    /* \"#utility.yul\":3453:3459   */\n  dup2\n    /* \"#utility.yul\":3450:3465   */\n  gt\n    /* \"#utility.yul\":3447:3569   */\n  iszero\n  tag_113\n  jumpi\n    /* \"#utility.yul\":3480:3559   */\n  tag_114\n  tag_55\n  jump\t// in\ntag_114:\n    /* \"#utility.yul\":3447:3569   */\ntag_113:\n    /* \"#utility.yul\":3595:3601   */\n  dup4\n    /* \"#utility.yul\":3578:4017   */\ntag_115:\n    /* \"#utility.yul\":3612:3618   */\n  dup2\n    /* \"#utility.yul\":3607:3610   */\n  dup2\n    /* \"#utility.yul\":3604:3619   */\n  lt\n    /* \"#utility.yul\":3578:4017   */\n  iszero\n  tag_117\n  jumpi\n    /* \"#utility.yul\":3694:3697   */\n  dup1\n    /* \"#utility.yul\":3688:3698   */\n  mload\n    /* \"#utility.yul\":3730:3748   */\n  0xffffffffffffffff\n    /* \"#utility.yul\":3717:3728   */\n  dup2\n    /* \"#utility.yul\":3714:3749   */\n  gt\n    /* \"#utility.yul\":3711:3833   */\n  iszero\n  tag_118\n  jumpi\n    /* \"#utility.yul\":3752:3831   */\n  tag_119\n  tag_49\n  jump\t// in\ntag_119:\n    /* \"#utility.yul\":3711:3833   */\ntag_118:\n    /* \"#utility.yul\":3876:3887   */\n  dup1\n    /* \"#utility.yul\":3868:3874   */\n  dup7\n    /* \"#utility.yul\":3864:3888   */\n  add\n    /* \"#utility.yul\":3914:3972   */\n  tag_120\n    /* \"#utility.yul\":3968:3971   */\n  dup10\n    /* \"#utility.yul\":3956:3966   */\n  dup3\n    /* \"#utility.yul\":3914:3972   */\n  tag_60\n  jump\t// in\ntag_120:\n    /* \"#utility.yul\":3909:3912   */\n  dup6\n    /* \"#utility.yul\":3902:3973   */\n  mstore\n    /* \"#utility.yul\":4002:4006   */\n  0x20\n    /* \"#utility.yul\":3997:4000   */\n  dup6\n    /* \"#utility.yul\":3993:4007   */\n  add\n    /* \"#utility.yul\":3986:4007   */\n  swap5\n  pop\n    /* \"#utility.yul\":3654:4017   */\n  pop\n  pop\n    /* \"#utility.yul\":3638:3642   */\n  0x20\n    /* \"#utility.yul\":3633:3636   */\n  dup2\n    /* \"#utility.yul\":3629:3643   */\n  add\n    /* \"#utility.yul\":3622:3643   */\n  swap1\n  pop\n    /* \"#utility.yul\":3578:4017   */\n  jump(tag_115)\ntag_117:\n    /* \"#utility.yul\":3582:3603   */\n  pop\n    /* \"#utility.yul\":3251:4023   */\n  pop\n  pop\n    /* \"#utility.yul\":3130:4023   */\n  swap4\n  swap3\n  pop\n  pop\n  pop\n  jump\t// out\n    /* \"#utility.yul\":4046:4427   */\ntag_62:\n    /* \"#utility.yul\":4136:4141   */\n  0x00\n    /* \"#utility.yul\":4185:4188   */\n  dup3\n    /* \"#utility.yul\":4178:4182   */\n  0x1f\n    /* \"#utility.yul\":4170:4176   */\n  dup4\n    /* \"#utility.yul\":4166:4183   */\n  add\n    /* \"#utility.yul\":4162:4189   */\n  slt\n    /* \"#utility.yul\":4152:4274   */\n  tag_122\n  jumpi\n    /* \"#utility.yul\":4193:4272   */\n  tag_123\n  tag_49\n  jump\t// in\ntag_123:\n    /* \"#utility.yul\":4152:4274   */\ntag_122:\n    /* \"#utility.yul\":4297:4301   */\n  0x03\n    /* \"#utility.yul\":4319:4421   */\n  tag_124\n    /* \"#utility.yul\":4417:4420   */\n  dup5\n    /* \"#utility.yul\":4409:4415   */\n  dup3\n    /* \"#utility.yul\":4401:4407   */\n  dup6\n    /* \"#utility.yul\":4319:4421   */\n  tag_61\n  jump\t// in\ntag_124:\n    /* \"#utility.yul\":4310:4421   */\n  swap2\n  pop\n    /* \"#utility.yul\":4142:4427   */\n  pop\n    /* \"#utility.yul\":4046:4427   */\n  swap3\n  swap2\n  pop\n  pop\n  jump\t// out\n    /* \"#utility.yul\":4433:5003   */\ntag_8:\n    /* \"#utility.yul\":4536:4542   */\n  0x00\n    /* \"#utility.yul\":4585:4587   */\n  0x20\n    /* \"#utility.yul\":4573:4582   */\n  dup3\n    /* \"#utility.yul\":4564:4571   */\n  dup5\n    /* \"#utility.yul\":4560:4583   */\n  sub\n    /* \"#utility.yul\":4556:4588   */\n  slt\n    /* \"#utility.yul\":4553:4672   */\n  iszero\n  tag_126\n  jumpi\n    /* \"#utility.yul\":4591:4670   */\n  tag_127\n  tag_47\n  jump\t// in\ntag_127:\n    /* \"#utility.yul\":4553:4672   */\ntag_126:\n    /* \"#utility.yul\":4732:4733   */\n  0x00\n    /* \"#utility.yul\":4721:4730   */\n  dup3\n    /* \"#utility.yul\":4717:4734   */\n  add\n    /* \"#utility.yul\":4711:4735   */\n  mload\n    /* \"#utility.yul\":4762:4780   */\n  0xffffffffffffffff\n    /* \"#utility.yul\":4754:4760   */\n  dup2\n    /* \"#utility.yul\":4751:4781   */\n  gt\n    /* \"#utility.yul\":4748:4865   */\n  iszero\n  tag_128\n  jumpi\n    /* \"#utility.yul\":4784:4863   */\n  tag_129\n  tag_48\n  jump\t// in\ntag_129:\n    /* \"#utility.yul\":4748:4865   */\ntag_128:\n    /* \"#utility.yul\":4889:4986   */\n  tag_130\n    /* \"#utility.yul\":4978:4985   */\n  dup5\n    /* \"#utility.yul\":4969:4975   */\n  dup3\n    /* \"#utility.yul\":4958:4967   */\n  dup6\n    /* \"#utility.yul\":4954:4976   */\n  add\n    /* \"#utility.yul\":4889:4986   */\n  tag_62\n  jump\t// in\ntag_130:\n    /* \"#utility.yul\":4879:4986   */\n  swap2\n  pop\n    /* \"#utility.yul\":4682:4996   */\n  pop\n    /* \"#utility.yul\":4433:5003   */\n  swap3\n  swap2\n  pop\n  pop\n  jump\t// out\n    /* \"#utility.yul\":5009:5189   */\ntag_14:\n    /* \"#utility.yul\":5057:5134   */\n  0x4e487b7100000000000000000000000000000000000000000000000000000000\n    /* \"#utility.yul\":5054:5055   */\n  0x00\n    /* \"#utility.yul\":5047:5135   */\n  mstore\n    /* \"#utility.yul\":5154:5158   */\n  0x32\n    /* \"#utility.yul\":5151:5152   */\n  0x04\n    /* \"#utility.yul\":5144:5159   */\n  mstore\n    /* \"#utility.yul\":5178:5182   */\n  0x24\n    /* \"#utility.yul\":5175:5176   */\n  0x00\n    /* \"#utility.yul\":5168:5183   */\n  revert\n    /* \"#utility.yul\":5195:5294   */\ntag_63:\n    /* \"#utility.yul\":5247:5253   */\n  0x00\n    /* \"#utility.yul\":5281:5286   */\n  dup2\n    /* \"#utility.yul\":5275:5287   */\n  mload\n    /* \"#utility.yul\":5265:5287   */\n  swap1\n  pop\n    /* \"#utility.yul\":5195:5294   */\n  swap2\n  swap1\n  pop\n  jump\t// out\n    /* \"#utility.yul\":5300:5469   */\ntag_64:\n    /* \"#utility.yul\":5384:5395   */\n  0x00\n    /* \"#utility.yul\":5418:5424   */\n  dup3\n    /* \"#utility.yul\":5413:5416   */\n  dup3\n    /* \"#utility.yul\":5406:5425   */\n  mstore\n    /* \"#utility.yul\":5458:5462   */\n  0x20\n    /* \"#utility.yul\":5453:5456   */\n  dup3\n    /* \"#utility.yul\":5449:5463   */\n  add\n    /* \"#utility.yul\":5434:5463   */\n  swap1\n  pop\n    /* \"#utility.yul\":5300:5469   */\n  swap3\n  swap2\n  pop\n  pop\n  jump\t// out\n    /* \"#utility.yul\":5475:5839   */\ntag_65:\n    /* \"#utility.yul\":5563:5566   */\n  0x00\n    /* \"#utility.yul\":5591:5630   */\n  tag_135\n    /* \"#utility.yul\":5624:5629   */\n  dup3\n    /* \"#utility.yul\":5591:5630   */\n  tag_63\n  jump\t// in\ntag_135:\n    /* \"#utility.yul\":5646:5717   */\n  tag_136\n    /* \"#utility.yul\":5710:5716   */\n  dup2\n    /* \"#utility.yul\":5705:5708   */\n  dup6\n    /* \"#utility.yul\":5646:5717   */\n  tag_64\n  jump\t// in\ntag_136:\n    /* \"#utility.yul\":5639:5717   */\n  swap4\n  pop\n    /* \"#utility.yul\":5726:5778   */\n  tag_137\n    /* \"#utility.yul\":5771:5777   */\n  dup2\n    /* \"#utility.yul\":5766:5769   */\n  dup6\n    /* \"#utility.yul\":5759:5763   */\n  0x20\n    /* \"#utility.yul\":5752:5757   */\n  dup7\n    /* \"#utility.yul\":5748:5764   */\n  add\n    /* \"#utility.yul\":5726:5778   */\n  tag_58\n  jump\t// in\ntag_137:\n    /* \"#utility.yul\":5803:5832   */\n  tag_138\n    /* \"#utility.yul\":5825:5831   */\n  dup2\n    /* \"#utility.yul\":5803:5832   */\n  tag_50\n  jump\t// in\ntag_138:\n    /* \"#utility.yul\":5798:5801   */\n  dup5\n    /* \"#utility.yul\":5794:5833   */\n  add\n    /* \"#utility.yul\":5787:5833   */\n  swap2\n  pop\n    /* \"#utility.yul\":5567:5839   */\n  pop\n    /* \"#utility.yul\":5475:5839   */\n  swap3\n  swap2\n  pop\n  pop\n  jump\t// out\n    /* \"#utility.yul\":5845:6158   */\ntag_16:\n    /* \"#utility.yul\":5958:5962   */\n  0x00\n    /* \"#utility.yul\":5996:5998   */\n  0x20\n    /* \"#utility.yul\":5985:5994   */\n  dup3\n    /* \"#utility.yul\":5981:5999   */\n  add\n    /* \"#utility.yul\":5973:5999   */\n  swap1\n  pop\n    /* \"#utility.yul\":6045:6054   */\n  dup2\n    /* \"#utility.yul\":6039:6043   */\n  dup2\n    /* \"#utility.yul\":6035:6055   */\n  sub\n    /* \"#utility.yul\":6031:6032   */\n  0x00\n    /* \"#utility.yul\":6020:6029   */\n  dup4\n    /* \"#utility.yul\":6016:6033   */\n  add\n    /* \"#utility.yul\":6009:6056   */\n  mstore\n    /* \"#utility.yul\":6073:6151   */\n  tag_140\n    /* \"#utility.yul\":6146:6150   */\n  dup2\n    /* \"#utility.yul\":6137:6143   */\n  dup5\n    /* \"#utility.yul\":6073:6151   */\n  tag_65\n  jump\t// in\ntag_140:\n    /* \"#utility.yul\":6065:6151   */\n  swap1\n  pop\n    /* \"#utility.yul\":5845:6158   */\n  swap3\n  swap2\n  pop\n  pop\n  jump\t// out\n    /* \"#utility.yul\":6164:6250   */\ntag_66:\n    /* \"#utility.yul\":6199:6206   */\n  0x00\n    /* \"#utility.yul\":6239:6243   */\n  0xff\n    /* \"#utility.yul\":6232:6237   */\n  dup3\n    /* \"#utility.yul\":6228:6244   */\n  and\n    /* \"#utility.yul\":6217:6244   */\n  swap1\n  pop\n    /* \"#utility.yul\":6164:6250   */\n  swap2\n  swap1\n  pop\n  jump\t// out\n    /* \"#utility.yul\":6256:6374   */\ntag_67:\n    /* \"#utility.yul\":6327:6349   */\n  tag_143\n    /* \"#utility.yul\":6343:6348   */\n  dup2\n    /* \"#utility.yul\":6327:6349   */\n  tag_66\n  jump\t// in\ntag_143:\n    /* \"#utility.yul\":6320:6325   */\n  dup2\n    /* \"#utility.yul\":6317:6350   */\n  eq\n    /* \"#utility.yul\":6307:6368   */\n  tag_144\n  jumpi\n    /* \"#utility.yul\":6364:6365   */\n  0x00\n    /* \"#utility.yul\":6361:6362   */\n  dup1\n    /* \"#utility.yul\":6354:6366   */\n  revert\n    /* \"#utility.yul\":6307:6368   */\ntag_144:\n    /* \"#utility.yul\":6256:6374   */\n  pop\n  jump\t// out\n    /* \"#utility.yul\":6380:6519   */\ntag_68:\n    /* \"#utility.yul\":6435:6440   */\n  0x00\n    /* \"#utility.yul\":6466:6472   */\n  dup2\n    /* \"#utility.yul\":6460:6473   */\n  mload\n    /* \"#utility.yul\":6451:6473   */\n  swap1\n  pop\n    /* \"#utility.yul\":6482:6513   */\n  tag_146\n    /* \"#utility.yul\":6507:6512   */\n  dup2\n    /* \"#utility.yul\":6482:6513   */\n  tag_67\n  jump\t// in\ntag_146:\n    /* \"#utility.yul\":6380:6519   */\n  swap3\n  swap2\n  pop\n  pop\n  jump\t// out\n    /* \"#utility.yul\":6525:6872   */\ntag_21:\n    /* \"#utility.yul\":6593:6599   */\n  0x00\n    /* \"#utility.yul\":6642:6644   */\n  0x20\n    /* \"#utility.yul\":6630:6639   */\n  dup3\n    /* \"#utility.yul\":6621:6628   */\n  dup5\n    /* \"#utility.yul\":6617:6640   */\n  sub\n    /* \"#utility.yul\":6613:6645   */\n  slt\n    /* \"#utility.yul\":6610:6729   */\n  iszero\n  tag_148\n  jumpi\n    /* \"#utility.yul\":6648:6727   */\n  tag_149\n  tag_47\n  jump\t// in\ntag_149:\n    /* \"#utility.yul\":6610:6729   */\ntag_148:\n    /* \"#utility.yul\":6768:6769   */\n  0x00\n    /* \"#utility.yul\":6793:6855   */\n  tag_150\n    /* \"#utility.yul\":6847:6854   */\n  dup5\n    /* \"#utility.yul\":6838:6844   */\n  dup3\n    /* \"#utility.yul\":6827:6836   */\n  dup6\n    /* \"#utility.yul\":6823:6845   */\n  add\n    /* \"#utility.yul\":6793:6855   */\n  tag_68\n  jump\t// in\ntag_150:\n    /* \"#utility.yul\":6783:6855   */\n  swap2\n  pop\n    /* \"#utility.yul\":6739:6865   */\n  pop\n    /* \"#utility.yul\":6525:6872   */\n  swap3\n  swap2\n  pop\n  pop\n  jump\t// out\n    /* \"#utility.yul\":6878:6955   */\ntag_69:\n    /* \"#utility.yul\":6915:6922   */\n  0x00\n    /* \"#utility.yul\":6944:6949   */\n  dup2\n    /* \"#utility.yul\":6933:6949   */\n  swap1\n  pop\n    /* \"#utility.yul\":6878:6955   */\n  swap2\n  swap1\n  pop\n  jump\t// out\n    /* \"#utility.yul\":6961:7141   */\ntag_70:\n    /* \"#utility.yul\":7009:7086   */\n  0x4e487b7100000000000000000000000000000000000000000000000000000000\n    /* \"#utility.yul\":7006:7007   */\n  0x00\n    /* \"#utility.yul\":6999:7087   */\n  mstore\n    /* \"#utility.yul\":7106:7110   */\n  0x11\n    /* \"#utility.yul\":7103:7104   */\n  0x04\n    /* \"#utility.yul\":7096:7111   */\n  mstore\n    /* \"#utility.yul\":7130:7134   */\n  0x24\n    /* \"#utility.yul\":7127:7128   */\n  0x00\n    /* \"#utility.yul\":7120:7135   */\n  revert\n    /* \"#utility.yul\":7147:7452   */\ntag_25:\n    /* \"#utility.yul\":7187:7190   */\n  0x00\n    /* \"#utility.yul\":7206:7226   */\n  tag_154\n    /* \"#utility.yul\":7224:7225   */\n  dup3\n    /* \"#utility.yul\":7206:7226   */\n  tag_69\n  jump\t// in\ntag_154:\n    /* \"#utility.yul\":7201:7226   */\n  swap2\n  pop\n    /* \"#utility.yul\":7240:7260   */\n  tag_155\n    /* \"#utility.yul\":7258:7259   */\n  dup4\n    /* \"#utility.yul\":7240:7260   */\n  tag_69\n  jump\t// in\ntag_155:\n    /* \"#utility.yul\":7235:7260   */\n  swap3\n  pop\n    /* \"#utility.yul\":7394:7395   */\n  dup3\n    /* \"#utility.yul\":7326:7392   */\n  0xffffffffffffffffffffffffffffffffffffffffffffffffffffffffffffffff\n    /* \"#utility.yul\":7322:7396   */\n  sub\n    /* \"#utility.yul\":7319:7320   */\n  dup3\n    /* \"#utility.yul\":7316:7397   */\n  gt\n    /* \"#utility.yul\":7313:7420   */\n  iszero\n  tag_156\n  jumpi\n    /* \"#utility.yul\":7400:7418   */\n  tag_157\n  tag_70\n  jump\t// in\ntag_157:\n    /* \"#utility.yul\":7313:7420   */\ntag_156:\n    /* \"#utility.yul\":7444:7445   */\n  dup3\n    /* \"#utility.yul\":7441:7442   */\n  dup3\n    /* \"#utility.yul\":7437:7446   */\n  add\n    /* \"#utility.yul\":7430:7446   */\n  swap1\n  pop\n    /* \"#utility.yul\":7147:7452   */\n  swap3\n  swap2\n  pop\n  pop\n  jump\t// out\n    /* \"#utility.yul\":7458:7649   */\ntag_27:\n    /* \"#utility.yul\":7498:7502   */\n  0x00\n    /* \"#utility.yul\":7518:7538   */\n  tag_159\n    /* \"#utility.yul\":7536:7537   */\n  dup3\n    /* \"#utility.yul\":7518:7538   */\n  tag_69\n  jump\t// in\ntag_159:\n    /* \"#utility.yul\":7513:7538   */\n  swap2\n  pop\n    /* \"#utility.yul\":7552:7572   */\n  tag_160\n    /* \"#utility.yul\":7570:7571   */\n  dup4\n    /* \"#utility.yul\":7552:7572   */\n  tag_69\n  jump\t// in\ntag_160:\n    /* \"#utility.yul\":7547:7572   */\n  swap3\n  pop\n    /* \"#utility.yul\":7591:7592   */\n  dup3\n    /* \"#utility.yul\":7588:7589   */\n  dup3\n    /* \"#utility.yul\":7585:7593   */\n  lt\n    /* \"#utility.yul\":7582:7616   */\n  iszero\n  tag_161\n  jumpi\n    /* \"#utility.yul\":7596:7614   */\n  tag_162\n  tag_70\n  jump\t// in\ntag_162:\n    /* \"#utility.yul\":7582:7616   */\ntag_161:\n    /* \"#utility.yul\":7641:7642   */\n  dup3\n    /* \"#utility.yul\":7638:7639   */\n  dup3\n    /* \"#utility.yul\":7634:7643   */\n  sub\n    /* \"#utility.yul\":7626:7643   */\n  swap1\n  pop\n    /* \"#utility.yul\":7458:7649   */\n  swap3\n  swap2\n  pop\n  pop\n  jump\t// out\n    /* \"#utility.yul\":7655:7888   */\ntag_33:\n    /* \"#utility.yul\":7694:7697   */\n  0x00\n    /* \"#utility.yul\":7717:7741   */\n  tag_164\n    /* \"#utility.yul\":7735:7740   */\n  dup3\n    /* \"#utility.yul\":7717:7741   */\n  tag_69\n  jump\t// in\ntag_164:\n    /* \"#utility.yul\":7708:7741   */\n  swap2\n  pop\n    /* \"#utility.yul\":7763:7829   */\n  0xffffffffffffffffffffffffffffffffffffffffffffffffffffffffffffffff\n    /* \"#utility.yul\":7756:7761   */\n  dup3\n    /* \"#utility.yul\":7753:7830   */\n  eq\n    /* \"#utility.yul\":7750:7853   */\n  iszero\n  tag_165\n  jumpi\n    /* \"#utility.yul\":7833:7851   */\n  tag_166\n  tag_70\n  jump\t// in\ntag_166:\n    /* \"#utility.yul\":7750:7853   */\ntag_165:\n    /* \"#utility.yul\":7880:7881   */\n  0x01\n    /* \"#utility.yul\":7873:7878   */\n  dup3\n    /* \"#utility.yul\":7869:7882   */\n  add\n    /* \"#utility.yul\":7862:7882   */\n  swap1\n  pop\n    /* \"#utility.yul\":7655:7888   */\n  swap2\n  swap1\n  pop\n  jump\t// out\n    /* \"#utility.yul\":7894:8074   */\ntag_71:\n    /* \"#utility.yul\":7942:8019   */\n  0x4e487b7100000000000000000000000000000000000000000000000000000000\n    /* \"#utility.yul\":7939:7940   */\n  0x00\n    /* \"#utility.yul\":7932:8020   */\n  mstore\n    /* \"#utility.yul\":8039:8043   */\n  0x22\n    /* \"#utility.yul\":8036:8037   */\n  0x04\n    /* \"#utility.yul\":8029:8044   */\n  mstore\n    /* \"#utility.yul\":8063:8067   */\n  0x24\n    /* \"#utility.yul\":8060:8061   */\n  0x00\n    /* \"#utility.yul\":8053:8068   */\n  revert\n    /* \"#utility.yul\":8080:8400   */\ntag_36:\n    /* \"#utility.yul\":8124:8130   */\n  0x00\n    /* \"#utility.yul\":8161:8162   */\n  0x02\n    /* \"#utility.yul\":8155:8159   */\n  dup3\n    /* \"#utility.yul\":8151:8163   */\n  div\n    /* \"#utility.yul\":8141:8163   */\n  swap1\n  pop\n    /* \"#utility.yul\":8208:8209   */\n  0x01\n    /* \"#utility.yul\":8202:8206   */\n  dup3\n    /* \"#utility.yul\":8198:8210   */\n  and\n    /* \"#utility.yul\":8229:8247   */\n  dup1\n    /* \"#utility.yul\":8219:8300   */\n  tag_169\n  jumpi\n    /* \"#utility.yul\":8285:8289   */\n  0x7f\n    /* \"#utility.yul\":8277:8283   */\n  dup3\n    /* \"#utility.yul\":8273:8290   */\n  and\n    /* \"#utility.yul\":8263:8290   */\n  swap2\n  pop\n    /* \"#utility.yul\":8219:8300   */\ntag_169:\n    /* \"#utility.yul\":8347:8349   */\n  0x20\n    /* \"#utility.yul\":8339:8345   */\n  dup3\n    /* \"#utility.yul\":8336:8350   */\n  lt\n    /* \"#utility.yul\":8316:8334   */\n  dup2\n    /* \"#utility.yul\":8313:8351   */\n  eq\n    /* \"#utility.yul\":8310:8394   */\n  iszero\n  tag_170\n  jumpi\n    /* \"#utility.yul\":8366:8384   */\n  tag_171\n  tag_71\n  jump\t// in\ntag_171:\n    /* \"#utility.yul\":8310:8394   */\ntag_170:\n    /* \"#utility.yul\":8131:8400   */\n  pop\n    /* \"#utility.yul\":8080:8400   */\n  swap2\n  swap1\n  pop\n  jump\t// out\n    /* \"contracts/TestInterview.sol\":208:3744  contract TestInterview {... */\ntag_34:\n  dataSize(sub_0)\n  dup1\n  dataOffset(sub_0)\n  0x00\n  codecopy\n  0x00\n  return\nstop\n\nsub_0: assembly {\n        /* \"contracts/TestInterview.sol\":208:3744  contract TestInterview {... */\n      mstore(0x40, 0x80)\n      callvalue\n      dup1\n      iszero\n      tag_1\n      jumpi\n      0x00\n      dup1\n      revert\n    tag_1:\n      pop\n      jumpi(tag_2, lt(calldatasize, 0x04))\n      shr(0xe0, calldataload(0x00))\n      dup1\n      0x8f84aa09\n      gt\n      tag_10\n      jumpi\n      dup1\n      0x8f84aa09\n      eq\n      tag_6\n      jumpi\n      dup1\n      0xc15d3ead\n      eq\n      tag_7\n      jumpi\n      dup1\n      0xe917ec96\n      eq\n      tag_8\n      jumpi\n      dup1\n      0xfc6f9468\n      eq\n      tag_9\n      jumpi\n      jump(tag_2)\n    tag_10:\n      dup1\n      0x06cd309b\n      eq\n      tag_3\n      jumpi\n      dup1\n      0x6fd3d9e2\n      eq\n      tag_4\n      jumpi\n      dup1\n      0x7259e0f8\n      eq\n      tag_5\n      jumpi\n    tag_2:\n      0x00\n      dup1\n      revert\n        /* \"contracts/TestInterview.sol\":421:448  uint public limitGatcha = 2 */\n    tag_3:\n      tag_11\n      tag_12\n      jump\t// in\n    tag_11:\n      mload(0x40)\n      tag_13\n      swap2\n      swap1\n      tag_14\n      jump\t// in\n    tag_13:\n      mload(0x40)\n      dup1\n      swap2\n      sub\n      swap1\n      return\n        /* \"contracts/TestInterview.sol\":553:579  Rarity[] public rarityList */\n    tag_4:\n      tag_15\n      0x04\n      dup1\n      calldatasize\n      sub\n      dup2\n      add\n      swap1\n      tag_16\n      swap2\n      swap1\n      tag_17\n      jump\t// in\n    tag_16:\n      tag_18\n      jump\t// in\n    tag_15:\n      mload(0x40)\n      tag_19\n      swap4\n      swap3\n      swap2\n      swap1\n      tag_20\n      jump\t// in\n    tag_19:\n      mload(0x40)\n      dup1\n      swap2\n      sub\n      swap1\n      return\n        /* \"contracts/TestInterview.sol\":747:786  RegisteredUser[] public registeredUsers */\n    tag_5:\n      tag_21\n      0x04\n      dup1\n      calldatasize\n      sub\n      dup2\n      add\n      swap1\n      tag_22\n      swap2\n      swap1\n      tag_17\n      jump\t// in\n    tag_22:\n      tag_23\n      jump\t// in\n    tag_21:\n      mload(0x40)\n      tag_24\n      swap5\n      swap4\n      swap3\n      swap2\n      swap1\n      tag_25\n      jump\t// in\n    tag_24:\n      mload(0x40)\n      dup1\n      swap2\n      sub\n      swap1\n      return\n        /* \"contracts/TestInterview.sol\":308:380  address public ownerAddress = 0xdBDdb8575F6bda11F1DC548A1B546463CC567C3d */\n    tag_6:\n      tag_26\n      tag_27\n      jump\t// in\n    tag_26:\n      mload(0x40)\n      tag_28\n      swap2\n      swap1\n      tag_29\n      jump\t// in\n    tag_28:\n      mload(0x40)\n      dup1\n      swap2\n      sub\n      swap1\n      return\n        /* \"contracts/TestInterview.sol\":3536:3737  function changeGatchaLimit(uint256 _newLimit) public {... */\n    tag_7:\n      tag_30\n      0x04\n      dup1\n      calldatasize\n      sub\n      dup2\n      add\n      swap1\n      tag_31\n      swap2\n      swap1\n      tag_17\n      jump\t// in\n    tag_31:\n      tag_32\n      jump\t// in\n    tag_30:\n      stop\n        /* \"contracts/TestInterview.sol\":2126:2654  function createGatcha () public checkUserLimit {... */\n    tag_8:\n      tag_33\n      tag_34\n      jump\t// in\n    tag_33:\n      stop\n        /* \"contracts/TestInterview.sol\":387:414  address public adminAddress */\n    tag_9:\n      tag_35\n      tag_36\n      jump\t// in\n    tag_35:\n      mload(0x40)\n      tag_37\n      swap2\n      swap1\n      tag_29\n      jump\t// in\n    tag_37:\n      mload(0x40)\n      dup1\n      swap2\n      sub\n      swap1\n      return\n        /* \"contracts/TestInterview.sol\":421:448  uint public limitGatcha = 2 */\n    tag_12:\n      sload(0x03)\n      dup2\n      jump\t// out\n        /* \"contracts/TestInterview.sol\":553:579  Rarity[] public rarityList */\n    tag_18:\n      0x04\n      dup2\n      dup2\n      sload\n      dup2\n      lt\n      tag_38\n      jumpi\n      0x00\n      dup1\n      revert\n    tag_38:\n      swap1\n      0x00\n      mstore\n      keccak256(0x00, 0x20)\n      swap1\n      0x03\n      mul\n      add\n      0x00\n      swap2\n      pop\n      swap1\n      pop\n      dup1\n      0x00\n      add\n      dup1\n      sload\n      tag_40\n      swap1\n      tag_41\n      jump\t// in\n    tag_40:\n      dup1\n      0x1f\n      add\n      0x20\n      dup1\n      swap2\n      div\n      mul\n      0x20\n      add\n      mload(0x40)\n      swap1\n      dup2\n      add\n      0x40\n      mstore\n      dup1\n      swap3\n      swap2\n      swap1\n      dup2\n      dup2\n      mstore\n      0x20\n      add\n      dup3\n      dup1\n      sload\n      tag_42\n      swap1\n      tag_41\n      jump\t// in\n    tag_42:\n      dup1\n      iszero\n      tag_43\n      jumpi\n      dup1\n      0x1f\n      lt\n      tag_44\n      jumpi\n      0x0100\n      dup1\n      dup4\n      sload\n      div\n      mul\n      dup4\n      mstore\n      swap2\n      0x20\n      add\n      swap2\n      jump(tag_43)\n    tag_44:\n      dup3\n      add\n      swap2\n      swap1\n      0x00\n      mstore\n      keccak256(0x00, 0x20)\n      swap1\n    tag_45:\n      dup2\n      sload\n      dup2\n      mstore\n      swap1\n      0x01\n      add\n      swap1\n      0x20\n      add\n      dup1\n      dup4\n      gt\n      tag_45\n      jumpi\n      dup3\n      swap1\n      sub\n      0x1f\n      and\n      dup3\n      add\n      swap2\n    tag_43:\n      pop\n      pop\n      pop\n      pop\n      pop\n      swap1\n      dup1\n      0x01\n      add\n      sload\n      swap1\n      dup1\n      0x02\n      add\n      sload\n      swap1\n      pop\n      dup4\n      jump\t// out\n        /* \"contracts/TestInterview.sol\":747:786  RegisteredUser[] public registeredUsers */\n    tag_23:\n      0x05\n      dup2\n      dup2\n      sload\n      dup2\n      lt\n      tag_46\n      jumpi\n      0x00\n      dup1\n      revert\n    tag_46:\n      swap1\n      0x00\n      mstore\n      keccak256(0x00, 0x20)\n      swap1\n      0x04\n      mul\n      add\n      0x00\n      swap2\n      pop\n      swap1\n      pop\n      dup1\n      0x00\n      add\n      0x00\n      swap1\n      sload\n      swap1\n      0x0100\n      exp\n      swap1\n      div\n      0xffffffffffffffffffffffffffffffffffffffff\n      and\n      swap1\n      dup1\n      0x01\n      add\n      sload\n      swap1\n      dup1\n      0x02\n      add\n      sload\n      swap1\n      dup1\n      0x03\n      add\n      dup1\n      sload\n      tag_48\n      swap1\n      tag_41\n      jump\t// in\n    tag_48:\n      dup1\n      0x1f\n      add\n      0x20\n      dup1\n      swap2\n      div\n      mul\n      0x20\n      add\n      mload(0x40)\n      swap1\n      dup2\n      add\n      0x40\n      mstore\n      dup1\n      swap3\n      swap2\n      swap1\n      dup2\n      dup2\n      mstore\n      0x20\n      add\n      dup3\n      dup1\n      sload\n      tag_49\n      swap1\n      tag_41\n      jump\t// in\n    tag_49:\n      dup1\n      iszero\n      tag_50\n      jumpi\n      dup1\n      0x1f\n      lt\n      tag_51\n      jumpi\n      0x0100\n      dup1\n      dup4\n      sload\n      div\n      mul\n      dup4\n      mstore\n      swap2\n      0x20\n      add\n      swap2\n      jump(tag_50)\n    tag_51:\n      dup3\n      add\n      swap2\n      swap1\n      0x00\n      mstore\n      keccak256(0x00, 0x20)\n      swap1\n    tag_52:\n      dup2\n      sload\n      dup2\n      mstore\n      swap1\n      0x01\n      add\n      swap1\n      0x20\n      add\n      dup1\n      dup4\n      gt\n      tag_52\n      jumpi\n      dup3\n      swap1\n      sub\n      0x1f\n      and\n      dup3\n      add\n      swap2\n    tag_50:\n      pop\n      pop\n      pop\n      pop\n      pop\n      swap1\n      pop\n      dup5\n      jump\t// out\n        /* \"contracts/TestInterview.sol\":308:380  address public ownerAddress = 0xdBDdb8575F6bda11F1DC548A1B546463CC567C3d */\n    tag_27:\n      0x01\n      0x00\n      swap1\n      sload\n      swap1\n      0x0100\n      exp\n      swap1\n      div\n      0xffffffffffffffffffffffffffffffffffffffff\n      and\n      dup2\n      jump\t// out\n        /* \"contracts/TestInterview.sol\":3536:3737  function changeGatchaLimit(uint256 _newLimit) public {... */\n    tag_32:\n        /* \"contracts/TestInterview.sol\":3622:3634  adminAddress */\n      0x02\n      0x00\n      swap1\n      sload\n      swap1\n      0x0100\n      exp\n      swap1\n      div\n      0xffffffffffffffffffffffffffffffffffffffff\n      and\n        /* \"contracts/TestInterview.sol\":3608:3634  msg.sender == adminAddress */\n      0xffffffffffffffffffffffffffffffffffffffff\n      and\n        /* \"contracts/TestInterview.sol\":3608:3618  msg.sender */\n      caller\n        /* \"contracts/TestInterview.sol\":3608:3634  msg.sender == adminAddress */\n      0xffffffffffffffffffffffffffffffffffffffff\n      and\n      eq\n        /* \"contracts/TestInterview.sol\":3608:3664  msg.sender == adminAddress || msg.sender == ownerAddress */\n      dup1\n      tag_54\n      jumpi\n      pop\n        /* \"contracts/TestInterview.sol\":3652:3664  ownerAddress */\n      0x01\n      0x00\n      swap1\n      sload\n      swap1\n      0x0100\n      exp\n      swap1\n      div\n      0xffffffffffffffffffffffffffffffffffffffff\n      and\n        /* \"contracts/TestInterview.sol\":3638:3664  msg.sender == ownerAddress */\n      0xffffffffffffffffffffffffffffffffffffffff\n      and\n        /* \"contracts/TestInterview.sol\":3638:3648  msg.sender */\n      caller\n        /* \"contracts/TestInterview.sol\":3638:3664  msg.sender == ownerAddress */\n      0xffffffffffffffffffffffffffffffffffffffff\n      and\n      eq\n        /* \"contracts/TestInterview.sol\":3608:3664  msg.sender == adminAddress || msg.sender == ownerAddress */\n    tag_54:\n        /* \"contracts/TestInterview.sol\":3600:3695  require(msg.sender == adminAddress || msg.sender == ownerAddress, \"Not Authorized, Admin Only\") */\n      tag_55\n      jumpi\n      mload(0x40)\n      0x08c379a000000000000000000000000000000000000000000000000000000000\n      dup2\n      mstore\n      0x04\n      add\n      tag_56\n      swap1\n      tag_57\n      jump\t// in\n    tag_56:\n      mload(0x40)\n      dup1\n      swap2\n      sub\n      swap1\n      revert\n    tag_55:\n        /* \"contracts/TestInterview.sol\":3720:3729  _newLimit */\n      dup1\n        /* \"contracts/TestInterview.sol\":3706:3717  limitGatcha */\n      0x03\n        /* \"contracts/TestInterview.sol\":3706:3729  limitGatcha = _newLimit */\n      dup2\n      swap1\n      sstore\n      pop\n        /* \"contracts/TestInterview.sol\":3536:3737  function changeGatchaLimit(uint256 _newLimit) public {... */\n      pop\n      jump\t// out\n        /* \"contracts/TestInterview.sol\":2126:2654  function createGatcha () public checkUserLimit {... */\n    tag_34:\n        /* \"contracts/TestInterview.sol\":2700:2712  bool isFound */\n      0x00\n        /* \"contracts/TestInterview.sol\":2731:2744  uint256 index */\n      dup1\n        /* \"contracts/TestInterview.sol\":2759:3455  while(isFound == false && registeredUsers.length > 0 && index <registeredUsers.length )... */\n    tag_59:\n        /* \"contracts/TestInterview.sol\":2776:2781  false */\n      0x00\n        /* \"contracts/TestInterview.sol\":2765:2781  isFound == false */\n      iszero\n      iszero\n        /* \"contracts/TestInterview.sol\":2765:2772  isFound */\n      dup3\n        /* \"contracts/TestInterview.sol\":2765:2781  isFound == false */\n      iszero\n      iszero\n      eq\n        /* \"contracts/TestInterview.sol\":2765:2811  isFound == false && registeredUsers.length > 0 */\n      dup1\n      iszero\n      tag_61\n      jumpi\n      pop\n        /* \"contracts/TestInterview.sol\":2810:2811  0 */\n      0x00\n        /* \"contracts/TestInterview.sol\":2785:2800  registeredUsers */\n      0x05\n        /* \"contracts/TestInterview.sol\":2785:2807  registeredUsers.length */\n      dup1\n      sload\n      swap1\n      pop\n        /* \"contracts/TestInterview.sol\":2785:2811  registeredUsers.length > 0 */\n      gt\n        /* \"contracts/TestInterview.sol\":2765:2811  isFound == false && registeredUsers.length > 0 */\n    tag_61:\n        /* \"contracts/TestInterview.sol\":2765:2844  isFound == false && registeredUsers.length > 0 && index <registeredUsers.length */\n      dup1\n      iszero\n      tag_62\n      jumpi\n      pop\n        /* \"contracts/TestInterview.sol\":2822:2837  registeredUsers */\n      0x05\n        /* \"contracts/TestInterview.sol\":2822:2844  registeredUsers.length */\n      dup1\n      sload\n      swap1\n      pop\n        /* \"contracts/TestInterview.sol\":2815:2820  index */\n      dup2\n        /* \"contracts/TestInterview.sol\":2815:2844  index <registeredUsers.length */\n      lt\n        /* \"contracts/TestInterview.sol\":2765:2844  isFound == false && registeredUsers.length > 0 && index <registeredUsers.length */\n    tag_62:\n        /* \"contracts/TestInterview.sol\":2759:3455  while(isFound == false && registeredUsers.length > 0 && index <registeredUsers.length )... */\n      iszero\n      tag_60\n      jumpi\n        /* \"contracts/TestInterview.sol\":2912:2922  msg.sender */\n      caller\n        /* \"contracts/TestInterview.sol\":2874:2922  registeredUsers[index].userAddress == msg.sender */\n      0xffffffffffffffffffffffffffffffffffffffff\n      and\n        /* \"contracts/TestInterview.sol\":2874:2889  registeredUsers */\n      0x05\n        /* \"contracts/TestInterview.sol\":2890:2895  index */\n      dup3\n        /* \"contracts/TestInterview.sol\":2874:2896  registeredUsers[index] */\n      dup2\n      sload\n      dup2\n      lt\n      tag_63\n      jumpi\n      tag_64\n      tag_65\n      jump\t// in\n    tag_64:\n    tag_63:\n      swap1\n      0x00\n      mstore\n      keccak256(0x00, 0x20)\n      swap1\n      0x04\n      mul\n      add\n        /* \"contracts/TestInterview.sol\":2874:2908  registeredUsers[index].userAddress */\n      0x00\n      add\n      0x00\n      swap1\n      sload\n      swap1\n      0x0100\n      exp\n      swap1\n      div\n      0xffffffffffffffffffffffffffffffffffffffff\n      and\n        /* \"contracts/TestInterview.sol\":2874:2922  registeredUsers[index].userAddress == msg.sender */\n      0xffffffffffffffffffffffffffffffffffffffff\n      and\n      eq\n        /* \"contracts/TestInterview.sol\":2871:3421  if(registeredUsers[index].userAddress == msg.sender)... */\n      iszero\n      tag_67\n      jumpi\n        /* \"contracts/TestInterview.sol\":2966:2970  true */\n      0x01\n        /* \"contracts/TestInterview.sol\":2956:2970  isFound = true */\n      swap2\n      pop\n        /* \"contracts/TestInterview.sol\":2989:3004  registeredUsers */\n      0x05\n        /* \"contracts/TestInterview.sol\":3005:3010  index */\n      dup2\n        /* \"contracts/TestInterview.sol\":2989:3011  registeredUsers[index] */\n      dup2\n      sload\n      dup2\n      lt\n      tag_68\n      jumpi\n      tag_69\n      tag_65\n      jump\t// in\n    tag_69:\n    tag_68:\n      swap1\n      0x00\n      mstore\n      keccak256(0x00, 0x20)\n      swap1\n      0x04\n      mul\n      add\n        /* \"contracts/TestInterview.sol\":2989:3026  registeredUsers[index].counterVisited */\n      0x01\n      add\n      0x00\n        /* \"contracts/TestInterview.sol\":2989:3029  registeredUsers[index].counterVisited ++ */\n      dup2\n      sload\n      dup1\n      swap3\n      swap2\n      swap1\n      tag_71\n      swap1\n      tag_72\n      jump\t// in\n    tag_71:\n      swap2\n      swap1\n      pop\n      sstore\n      pop\n        /* \"contracts/TestInterview.sol\":3097:3108  limitGatcha */\n      sload(0x03)\n        /* \"contracts/TestInterview.sol\":3056:3071  registeredUsers */\n      0x05\n        /* \"contracts/TestInterview.sol\":3072:3077  index */\n      dup3\n        /* \"contracts/TestInterview.sol\":3056:3078  registeredUsers[index] */\n      dup2\n      sload\n      dup2\n      lt\n      tag_73\n      jumpi\n      tag_74\n      tag_65\n      jump\t// in\n    tag_74:\n    tag_73:\n      swap1\n      0x00\n      mstore\n      keccak256(0x00, 0x20)\n      swap1\n      0x04\n      mul\n      add\n        /* \"contracts/TestInterview.sol\":3056:3093  registeredUsers[index].counterVisited */\n      0x01\n      add\n      sload\n        /* \"contracts/TestInterview.sol\":3056:3108  registeredUsers[index].counterVisited <= limitGatcha */\n      gt\n      iszero\n        /* \"contracts/TestInterview.sol\":3048:3125  require(registeredUsers[index].counterVisited <= limitGatcha, \"Out of Limit\") */\n      tag_76\n      jumpi\n      mload(0x40)\n      0x08c379a000000000000000000000000000000000000000000000000000000000\n      dup2\n      mstore\n      0x04\n      add\n      tag_77\n      swap1\n      tag_78\n      jump\t// in\n    tag_77:\n      mload(0x40)\n      dup1\n      swap2\n      sub\n      swap1\n      revert\n    tag_76:\n        /* \"contracts/TestInterview.sol\":3144:3163  uint256 rarityScore */\n      0x00\n        /* \"contracts/TestInterview.sol\":3166:3187  generateRarityScore() */\n      tag_79\n        /* \"contracts/TestInterview.sol\":3166:3185  generateRarityScore */\n      tag_80\n        /* \"contracts/TestInterview.sol\":3166:3187  generateRarityScore() */\n      jump\t// in\n    tag_79:\n        /* \"contracts/TestInterview.sol\":3144:3187  uint256 rarityScore = generateRarityScore() */\n      swap1\n      pop\n        /* \"contracts/TestInterview.sol\":3206:3230  string memory rarityName */\n      0x00\n        /* \"contracts/TestInterview.sol\":3233:3259  getRarityName(rarityScore) */\n      tag_81\n        /* \"contracts/TestInterview.sol\":3247:3258  rarityScore */\n      dup3\n        /* \"contracts/TestInterview.sol\":3233:3246  getRarityName */\n      tag_82\n        /* \"contracts/TestInterview.sol\":3233:3259  getRarityName(rarityScore) */\n      jump\t// in\n    tag_81:\n        /* \"contracts/TestInterview.sol\":3206:3259  string memory rarityName = getRarityName(rarityScore) */\n      swap1\n      pop\n        /* \"contracts/TestInterview.sol\":2937:3421  {... */\n      pop\n      pop\n        /* \"contracts/TestInterview.sol\":2871:3421  if(registeredUsers[index].userAddress == msg.sender)... */\n    tag_67:\n        /* \"contracts/TestInterview.sol\":3435:3443  index ++ */\n      dup1\n      dup1\n      tag_83\n      swap1\n      tag_72\n      jump\t// in\n    tag_83:\n      swap2\n      pop\n      pop\n        /* \"contracts/TestInterview.sol\":2759:3455  while(isFound == false && registeredUsers.length > 0 && index <registeredUsers.length )... */\n      jump(tag_59)\n    tag_60:\n        /* \"contracts/TestInterview.sol\":3465:3472  objINFT */\n      0x00\n      dup1\n      sload\n      swap1\n      0x0100\n      exp\n      swap1\n      div\n      0xffffffffffffffffffffffffffffffffffffffff\n      and\n        /* \"contracts/TestInterview.sol\":3465:3481  objINFT.safeMint */\n      0xffffffffffffffffffffffffffffffffffffffff\n      and\n      0x40d097c3\n        /* \"contracts/TestInterview.sol\":3482:3494  ownerAddress */\n      0x01\n      0x00\n      swap1\n      sload\n      swap1\n      0x0100\n      exp\n      swap1\n      div\n      0xffffffffffffffffffffffffffffffffffffffff\n      and\n        /* \"contracts/TestInterview.sol\":3465:3495  objINFT.safeMint(ownerAddress) */\n      mload(0x40)\n      dup3\n      0xffffffff\n      and\n      0xe0\n      shl\n      dup2\n      mstore\n      0x04\n      add\n      tag_84\n      swap2\n      swap1\n      tag_29\n      jump\t// in\n    tag_84:\n      0x00\n      mload(0x40)\n      dup1\n      dup4\n      sub\n      dup2\n      0x00\n      dup8\n      dup1\n      extcodesize\n      iszero\n      dup1\n      iszero\n      tag_85\n      jumpi\n      0x00\n      dup1\n      revert\n    tag_85:\n      pop\n      gas\n      call\n      iszero\n      dup1\n      iszero\n      tag_87\n      jumpi\n      returndatasize\n      0x00\n      dup1\n      returndatacopy\n      revert(0x00, returndatasize)\n    tag_87:\n      pop\n      pop\n      pop\n      pop\n        /* \"contracts/TestInterview.sol\":3510:3517  isFound */\n      dup2\n        /* \"contracts/TestInterview.sol\":3506:3520  if(!isFound) _ */\n      tag_88\n      jumpi\n        /* \"contracts/TestInterview.sol\":2184:2203  uint256 rarityScore */\n      0x00\n        /* \"contracts/TestInterview.sol\":2206:2227  generateRarityScore() */\n      tag_90\n        /* \"contracts/TestInterview.sol\":2206:2225  generateRarityScore */\n      tag_80\n        /* \"contracts/TestInterview.sol\":2206:2227  generateRarityScore() */\n      jump\t// in\n    tag_90:\n        /* \"contracts/TestInterview.sol\":2184:2227  uint256 rarityScore = generateRarityScore() */\n      swap1\n      pop\n        /* \"contracts/TestInterview.sol\":2238:2262  string memory rarityName */\n      0x00\n        /* \"contracts/TestInterview.sol\":2265:2291  getRarityName(rarityScore) */\n      tag_91\n        /* \"contracts/TestInterview.sol\":2279:2290  rarityScore */\n      dup3\n        /* \"contracts/TestInterview.sol\":2265:2278  getRarityName */\n      tag_82\n        /* \"contracts/TestInterview.sol\":2265:2291  getRarityName(rarityScore) */\n      jump\t// in\n    tag_91:\n        /* \"contracts/TestInterview.sol\":2238:2291  string memory rarityName = getRarityName(rarityScore) */\n      swap1\n      pop\n        /* \"contracts/TestInterview.sol\":2304:2321  singleRarityScore */\n      0x06\n        /* \"contracts/TestInterview.sol\":2327:2338  rarityScore */\n      dup3\n        /* \"contracts/TestInterview.sol\":2304:2339  singleRarityScore.push(rarityScore) */\n      swap1\n      dup1\n      0x01\n      dup2\n      sload\n      add\n      dup1\n      dup3\n      sstore\n      dup1\n      swap2\n      pop\n      pop\n      0x01\n      swap1\n      sub\n      swap1\n      0x00\n      mstore\n      keccak256(0x00, 0x20)\n      add\n      0x00\n      swap1\n      swap2\n      swap1\n      swap2\n      swap1\n      swap2\n      pop\n      sstore\n        /* \"contracts/TestInterview.sol\":2350:2366  singleRarityName */\n      0x07\n        /* \"contracts/TestInterview.sol\":2372:2382  rarityName */\n      dup2\n        /* \"contracts/TestInterview.sol\":2350:2383  singleRarityName.push(rarityName) */\n      swap1\n      dup1\n      0x01\n      dup2\n      sload\n      add\n      dup1\n      dup3\n      sstore\n      dup1\n      swap2\n      pop\n      pop\n      0x01\n      swap1\n      sub\n      swap1\n      0x00\n      mstore\n      keccak256(0x00, 0x20)\n      add\n      0x00\n      swap1\n      swap2\n      swap1\n      swap2\n      swap1\n      swap2\n      pop\n      swap1\n      dup1\n      mload\n      swap1\n      0x20\n      add\n      swap1\n      tag_94\n      swap3\n      swap2\n      swap1\n      tag_95\n      jump\t// in\n    tag_94:\n      pop\n        /* \"contracts/TestInterview.sol\":2396:2429  RegisteredUser memory newRegister */\n      0x00\n        /* \"contracts/TestInterview.sol\":2432:2602  RegisteredUser({... */\n      mload(0x40)\n      dup1\n      0x80\n      add\n      0x40\n      mstore\n      dup1\n        /* \"contracts/TestInterview.sol\":2476:2486  msg.sender */\n      caller\n        /* \"contracts/TestInterview.sol\":2432:2602  RegisteredUser({... */\n      0xffffffffffffffffffffffffffffffffffffffff\n      and\n      dup2\n      mstore\n      0x20\n      add\n        /* \"contracts/TestInterview.sol\":2518:2519  1 */\n      0x01\n        /* \"contracts/TestInterview.sol\":2432:2602  RegisteredUser({... */\n      dup2\n      mstore\n      0x20\n      add\n        /* \"contracts/TestInterview.sol\":2548:2551  100 */\n      0x64\n        /* \"contracts/TestInterview.sol\":2432:2602  RegisteredUser({... */\n      dup2\n      mstore\n      0x20\n      add\n      mload(0x40)\n      dup1\n      0x40\n      add\n      0x40\n      mstore\n      dup1\n      0x09\n      dup2\n      mstore\n      0x20\n      add\n      0x676f6f642054496d650000000000000000000000000000000000000000000000\n      dup2\n      mstore\n      pop\n      dup2\n      mstore\n      pop\n        /* \"contracts/TestInterview.sol\":2396:2602  RegisteredUser memory newRegister = RegisteredUser({... */\n      swap1\n      pop\n        /* \"contracts/TestInterview.sol\":2613:2628  registeredUsers */\n      0x05\n        /* \"contracts/TestInterview.sol\":2634:2645  newRegister */\n      dup2\n        /* \"contracts/TestInterview.sol\":2613:2646  registeredUsers.push(newRegister) */\n      swap1\n      dup1\n      0x01\n      dup2\n      sload\n      add\n      dup1\n      dup3\n      sstore\n      dup1\n      swap2\n      pop\n      pop\n      0x01\n      swap1\n      sub\n      swap1\n      0x00\n      mstore\n      keccak256(0x00, 0x20)\n      swap1\n      0x04\n      mul\n      add\n      0x00\n      swap1\n      swap2\n      swap1\n      swap2\n      swap1\n      swap2\n      pop\n      0x00\n      dup3\n      add\n      mload\n      dup2\n      0x00\n      add\n      exp(0x0100, 0x00)\n      dup2\n      sload\n      dup2\n      0xffffffffffffffffffffffffffffffffffffffff\n      mul\n      not\n      and\n      swap1\n      dup4\n      0xffffffffffffffffffffffffffffffffffffffff\n      and\n      mul\n      or\n      swap1\n      sstore\n      pop\n      0x20\n      dup3\n      add\n      mload\n      dup2\n      0x01\n      add\n      sstore\n      0x40\n      dup3\n      add\n      mload\n      dup2\n      0x02\n      add\n      sstore\n      0x60\n      dup3\n      add\n      mload\n      dup2\n      0x03\n      add\n      swap1\n      dup1\n      mload\n      swap1\n      0x20\n      add\n      swap1\n      tag_97\n      swap3\n      swap2\n      swap1\n      tag_95\n      jump\t// in\n    tag_97:\n      pop\n      pop\n      pop\n        /* \"contracts/TestInterview.sol\":2173:2654  {... */\n      pop\n      pop\n      pop\n        /* \"contracts/TestInterview.sol\":3506:3520  if(!isFound) _ */\n    tag_88:\n        /* \"contracts/TestInterview.sol\":2689:3528  {... */\n      pop\n      pop\n        /* \"contracts/TestInterview.sol\":2126:2654  function createGatcha () public checkUserLimit {... */\n      jump\t// out\n        /* \"contracts/TestInterview.sol\":387:414  address public adminAddress */\n    tag_36:\n      0x02\n      0x00\n      swap1\n      sload\n      swap1\n      0x0100\n      exp\n      swap1\n      div\n      0xffffffffffffffffffffffffffffffffffffffff\n      and\n      dup2\n      jump\t// out\n        /* \"contracts/TestInterview.sol\":1363:1585  function generateRarityScore() private view returns(uint256){... */\n    tag_80:\n        /* \"contracts/TestInterview.sol\":1415:1422  uint256 */\n      0x00\n        /* \"contracts/TestInterview.sol\":1434:1456  uint256 selectedNumber */\n      dup1\n        /* \"contracts/TestInterview.sol\":1542:1545  100 */\n      0x64\n        /* \"contracts/TestInterview.sol\":1491:1501  msg.sender */\n      caller\n        /* \"contracts/TestInterview.sol\":1503:1518  block.timestamp */\n      timestamp\n        /* \"contracts/TestInterview.sol\":1520:1536  block.difficulty */\n      difficulty\n        /* \"contracts/TestInterview.sol\":1474:1537  abi.encodePacked(msg.sender, block.timestamp, block.difficulty) */\n      add(0x20, mload(0x40))\n      tag_99\n      swap4\n      swap3\n      swap2\n      swap1\n      tag_100\n      jump\t// in\n    tag_99:\n      mload(0x40)\n      0x20\n      dup2\n      dup4\n      sub\n      sub\n      dup2\n      mstore\n      swap1\n      0x40\n      mstore\n        /* \"contracts/TestInterview.sol\":1464:1538  keccak256(abi.encodePacked(msg.sender, block.timestamp, block.difficulty)) */\n      dup1\n      mload\n      swap1\n      0x20\n      add\n      keccak256\n        /* \"contracts/TestInterview.sol\":1459:1539  uint(keccak256(abi.encodePacked(msg.sender, block.timestamp, block.difficulty))) */\n      0x00\n      shr\n        /* \"contracts/TestInterview.sol\":1459:1545  uint(keccak256(abi.encodePacked(msg.sender, block.timestamp, block.difficulty))) % 100 */\n      tag_101\n      swap2\n      swap1\n      tag_102\n      jump\t// in\n    tag_101:\n        /* \"contracts/TestInterview.sol\":1434:1545  uint256 selectedNumber = uint(keccak256(abi.encodePacked(msg.sender, block.timestamp, block.difficulty))) % 100 */\n      swap1\n      pop\n        /* \"contracts/TestInterview.sol\":1563:1577  selectedNumber */\n      dup1\n        /* \"contracts/TestInterview.sol\":1556:1577  return selectedNumber */\n      swap2\n      pop\n      pop\n        /* \"contracts/TestInterview.sol\":1363:1585  function generateRarityScore() private view returns(uint256){... */\n      swap1\n      jump\t// out\n        /* \"contracts/TestInterview.sol\":1593:2050  function getRarityName(uint256 _score) private view returns(string memory ) {... */\n    tag_82:\n        /* \"contracts/TestInterview.sol\":1653:1666  string memory */\n      0x60\n        /* \"contracts/TestInterview.sol\":1680:1692  bool isFound */\n      0x00\n        /* \"contracts/TestInterview.sol\":1711:1724  uint256 index */\n      dup1\n        /* \"contracts/TestInterview.sol\":1739:2014  while(!isFound && index < rarityList.length) {... */\n    tag_104:\n        /* \"contracts/TestInterview.sol\":1746:1753  isFound */\n      dup2\n        /* \"contracts/TestInterview.sol\":1745:1753  !isFound */\n      iszero\n        /* \"contracts/TestInterview.sol\":1745:1782  !isFound && index < rarityList.length */\n      dup1\n      iszero\n      tag_106\n      jumpi\n      pop\n        /* \"contracts/TestInterview.sol\":1765:1775  rarityList */\n      0x04\n        /* \"contracts/TestInterview.sol\":1765:1782  rarityList.length */\n      dup1\n      sload\n      swap1\n      pop\n        /* \"contracts/TestInterview.sol\":1757:1762  index */\n      dup2\n        /* \"contracts/TestInterview.sol\":1757:1782  index < rarityList.length */\n      lt\n        /* \"contracts/TestInterview.sol\":1745:1782  !isFound && index < rarityList.length */\n    tag_106:\n        /* \"contracts/TestInterview.sol\":1739:2014  while(!isFound && index < rarityList.length) {... */\n      iszero\n      tag_105\n      jumpi\n        /* \"contracts/TestInterview.sol\":1812:1822  rarityList */\n      0x04\n        /* \"contracts/TestInterview.sol\":1823:1828  index */\n      dup2\n        /* \"contracts/TestInterview.sol\":1812:1829  rarityList[index] */\n      dup2\n      sload\n      dup2\n      lt\n      tag_107\n      jumpi\n      tag_108\n      tag_65\n      jump\t// in\n    tag_108:\n    tag_107:\n      swap1\n      0x00\n      mstore\n      keccak256(0x00, 0x20)\n      swap1\n      0x03\n      mul\n      add\n        /* \"contracts/TestInterview.sol\":1812:1833  rarityList[index].min */\n      0x01\n      add\n      sload\n        /* \"contracts/TestInterview.sol\":1802:1808  _score */\n      dup5\n        /* \"contracts/TestInterview.sol\":1802:1833  _score >= rarityList[index].min */\n      lt\n      iszero\n        /* \"contracts/TestInterview.sol\":1802:1868  _score >= rarityList[index].min && _score <= rarityList[index].max */\n      dup1\n      iszero\n      tag_110\n      jumpi\n      pop\n        /* \"contracts/TestInterview.sol\":1847:1857  rarityList */\n      0x04\n        /* \"contracts/TestInterview.sol\":1858:1863  index */\n      dup2\n        /* \"contracts/TestInterview.sol\":1847:1864  rarityList[index] */\n      dup2\n      sload\n      dup2\n      lt\n      tag_111\n      jumpi\n      tag_112\n      tag_65\n      jump\t// in\n    tag_112:\n    tag_111:\n      swap1\n      0x00\n      mstore\n      keccak256(0x00, 0x20)\n      swap1\n      0x03\n      mul\n      add\n        /* \"contracts/TestInterview.sol\":1847:1868  rarityList[index].max */\n      0x02\n      add\n      sload\n        /* \"contracts/TestInterview.sol\":1837:1843  _score */\n      dup5\n        /* \"contracts/TestInterview.sol\":1837:1868  _score <= rarityList[index].max */\n      gt\n      iszero\n        /* \"contracts/TestInterview.sol\":1802:1868  _score >= rarityList[index].min && _score <= rarityList[index].max */\n    tag_110:\n        /* \"contracts/TestInterview.sol\":1799:1980  if(_score >= rarityList[index].min && _score <= rarityList[index].max)... */\n      iszero\n      tag_114\n      jumpi\n        /* \"contracts/TestInterview.sol\":1912:1916  true */\n      0x01\n        /* \"contracts/TestInterview.sol\":1902:1916  isFound = true */\n      swap2\n      pop\n        /* \"contracts/TestInterview.sol\":1942:1952  rarityList */\n      0x04\n        /* \"contracts/TestInterview.sol\":1953:1958  index */\n      dup2\n        /* \"contracts/TestInterview.sol\":1942:1959  rarityList[index] */\n      dup2\n      sload\n      dup2\n      lt\n      tag_115\n      jumpi\n      tag_116\n      tag_65\n      jump\t// in\n    tag_116:\n    tag_115:\n      swap1\n      0x00\n      mstore\n      keccak256(0x00, 0x20)\n      swap1\n      0x03\n      mul\n      add\n        /* \"contracts/TestInterview.sol\":1942:1964  rarityList[index].name */\n      0x00\n      add\n        /* \"contracts/TestInterview.sol\":1935:1964  return rarityList[index].name */\n      dup1\n      sload\n      tag_118\n      swap1\n      tag_41\n      jump\t// in\n    tag_118:\n      dup1\n      0x1f\n      add\n      0x20\n      dup1\n      swap2\n      div\n      mul\n      0x20\n      add\n      mload(0x40)\n      swap1\n      dup2\n      add\n      0x40\n      mstore\n      dup1\n      swap3\n      swap2\n      swap1\n      dup2\n      dup2\n      mstore\n      0x20\n      add\n      dup3\n      dup1\n      sload\n      tag_119\n      swap1\n      tag_41\n      jump\t// in\n    tag_119:\n      dup1\n      iszero\n      tag_120\n      jumpi\n      dup1\n      0x1f\n      lt\n      tag_121\n      jumpi\n      0x0100\n      dup1\n      dup4\n      sload\n      div\n      mul\n      dup4\n      mstore\n      swap2\n      0x20\n      add\n      swap2\n      jump(tag_120)\n    tag_121:\n      dup3\n      add\n      swap2\n      swap1\n      0x00\n      mstore\n      keccak256(0x00, 0x20)\n      swap1\n    tag_122:\n      dup2\n      sload\n      dup2\n      mstore\n      swap1\n      0x01\n      add\n      swap1\n      0x20\n      add\n      dup1\n      dup4\n      gt\n      tag_122\n      jumpi\n      dup3\n      swap1\n      sub\n      0x1f\n      and\n      dup3\n      add\n      swap2\n    tag_120:\n      pop\n      pop\n      pop\n      pop\n      pop\n      swap3\n      pop\n      pop\n      pop\n      jump(tag_103)\n        /* \"contracts/TestInterview.sol\":1799:1980  if(_score >= rarityList[index].min && _score <= rarityList[index].max)... */\n    tag_114:\n        /* \"contracts/TestInterview.sol\":1994:2002  index ++ */\n      dup1\n      dup1\n      tag_123\n      swap1\n      tag_72\n      jump\t// in\n    tag_123:\n      swap2\n      pop\n      pop\n        /* \"contracts/TestInterview.sol\":1739:2014  while(!isFound && index < rarityList.length) {... */\n      jump(tag_104)\n    tag_105:\n        /* \"contracts/TestInterview.sol\":2024:2042  return \"Not Found\" */\n      mload(0x40)\n      dup1\n      0x40\n      add\n      0x40\n      mstore\n      dup1\n      0x09\n      dup2\n      mstore\n      0x20\n      add\n      0x4e6f7420466f756e640000000000000000000000000000000000000000000000\n      dup2\n      mstore\n      pop\n      swap3\n      pop\n      pop\n      pop\n        /* \"contracts/TestInterview.sol\":1593:2050  function getRarityName(uint256 _score) private view returns(string memory ) {... */\n    tag_103:\n      swap2\n      swap1\n      pop\n      jump\t// out\n    tag_95:\n      dup3\n      dup1\n      sload\n      tag_124\n      swap1\n      tag_41\n      jump\t// in\n    tag_124:\n      swap1\n      0x00\n      mstore\n      keccak256(0x00, 0x20)\n      swap1\n      0x1f\n      add\n      0x20\n      swap1\n      div\n      dup2\n      add\n      swap3\n      dup3\n      tag_126\n      jumpi\n      0x00\n      dup6\n      sstore\n      jump(tag_125)\n    tag_126:\n      dup3\n      0x1f\n      lt\n      tag_127\n      jumpi\n      dup1\n      mload\n      not(0xff)\n      and\n      dup4\n      dup1\n      add\n      or\n      dup6\n      sstore\n      jump(tag_125)\n    tag_127:\n      dup3\n      dup1\n      add\n      0x01\n      add\n      dup6\n      sstore\n      dup3\n      iszero\n      tag_125\n      jumpi\n      swap2\n      dup3\n      add\n    tag_128:\n      dup3\n      dup2\n      gt\n      iszero\n      tag_129\n      jumpi\n      dup3\n      mload\n      dup3\n      sstore\n      swap2\n      0x20\n      add\n      swap2\n      swap1\n      0x01\n      add\n      swap1\n      jump(tag_128)\n    tag_129:\n    tag_125:\n      pop\n      swap1\n      pop\n      tag_130\n      swap2\n      swap1\n      tag_131\n      jump\t// in\n    tag_130:\n      pop\n      swap1\n      jump\t// out\n    tag_131:\n    tag_132:\n      dup1\n      dup3\n      gt\n      iszero\n      tag_133\n      jumpi\n      0x00\n      dup2\n      0x00\n      swap1\n      sstore\n      pop\n      0x01\n      add\n      jump(tag_132)\n    tag_133:\n      pop\n      swap1\n      jump\t// out\n        /* \"#utility.yul\":7:84   */\n    tag_134:\n        /* \"#utility.yul\":44:51   */\n      0x00\n        /* \"#utility.yul\":73:78   */\n      dup2\n        /* \"#utility.yul\":62:78   */\n      swap1\n      pop\n        /* \"#utility.yul\":7:84   */\n      swap2\n      swap1\n      pop\n      jump\t// out\n        /* \"#utility.yul\":90:208   */\n    tag_135:\n        /* \"#utility.yul\":177:201   */\n      tag_165\n        /* \"#utility.yul\":195:200   */\n      dup2\n        /* \"#utility.yul\":177:201   */\n      tag_134\n      jump\t// in\n    tag_165:\n        /* \"#utility.yul\":172:175   */\n      dup3\n        /* \"#utility.yul\":165:202   */\n      mstore\n        /* \"#utility.yul\":90:208   */\n      pop\n      pop\n      jump\t// out\n        /* \"#utility.yul\":214:436   */\n    tag_14:\n        /* \"#utility.yul\":307:311   */\n      0x00\n        /* \"#utility.yul\":345:347   */\n      0x20\n        /* \"#utility.yul\":334:343   */\n      dup3\n        /* \"#utility.yul\":330:348   */\n      add\n        /* \"#utility.yul\":322:348   */\n      swap1\n      pop\n        /* \"#utility.yul\":358:429   */\n      tag_167\n        /* \"#utility.yul\":426:427   */\n      0x00\n        /* \"#utility.yul\":415:424   */\n      dup4\n        /* \"#utility.yul\":411:428   */\n      add\n        /* \"#utility.yul\":402:408   */\n      dup5\n        /* \"#utility.yul\":358:429   */\n      tag_135\n      jump\t// in\n    tag_167:\n        /* \"#utility.yul\":214:436   */\n      swap3\n      swap2\n      pop\n      pop\n      jump\t// out\n        /* \"#utility.yul\":523:640   */\n    tag_137:\n        /* \"#utility.yul\":632:633   */\n      0x00\n        /* \"#utility.yul\":629:630   */\n      dup1\n        /* \"#utility.yul\":622:634   */\n      revert\n        /* \"#utility.yul\":769:891   */\n    tag_139:\n        /* \"#utility.yul\":842:866   */\n      tag_172\n        /* \"#utility.yul\":860:865   */\n      dup2\n        /* \"#utility.yul\":842:866   */\n      tag_134\n      jump\t// in\n    tag_172:\n        /* \"#utility.yul\":835:840   */\n      dup2\n        /* \"#utility.yul\":832:867   */\n      eq\n        /* \"#utility.yul\":822:885   */\n      tag_173\n      jumpi\n        /* \"#utility.yul\":881:882   */\n      0x00\n        /* \"#utility.yul\":878:879   */\n      dup1\n        /* \"#utility.yul\":871:883   */\n      revert\n        /* \"#utility.yul\":822:885   */\n    tag_173:\n        /* \"#utility.yul\":769:891   */\n      pop\n      jump\t// out\n        /* \"#utility.yul\":897:1036   */\n    tag_140:\n        /* \"#utility.yul\":943:948   */\n      0x00\n        /* \"#utility.yul\":981:987   */\n      dup2\n        /* \"#utility.yul\":968:988   */\n      calldataload\n        /* \"#utility.yul\":959:988   */\n      swap1\n      pop\n        /* \"#utility.yul\":997:1030   */\n      tag_175\n        /* \"#utility.yul\":1024:1029   */\n      dup2\n        /* \"#utility.yul\":997:1030   */\n      tag_139\n      jump\t// in\n    tag_175:\n        /* \"#utility.yul\":897:1036   */\n      swap3\n      swap2\n      pop\n      pop\n      jump\t// out\n        /* \"#utility.yul\":1042:1371   */\n    tag_17:\n        /* \"#utility.yul\":1101:1107   */\n      0x00\n        /* \"#utility.yul\":1150:1152   */\n      0x20\n        /* \"#utility.yul\":1138:1147   */\n      dup3\n        /* \"#utility.yul\":1129:1136   */\n      dup5\n        /* \"#utility.yul\":1125:1148   */\n      sub\n        /* \"#utility.yul\":1121:1153   */\n      slt\n        /* \"#utility.yul\":1118:1237   */\n      iszero\n      tag_177\n      jumpi\n        /* \"#utility.yul\":1156:1235   */\n      tag_178\n      tag_137\n      jump\t// in\n    tag_178:\n        /* \"#utility.yul\":1118:1237   */\n    tag_177:\n        /* \"#utility.yul\":1276:1277   */\n      0x00\n        /* \"#utility.yul\":1301:1354   */\n      tag_179\n        /* \"#utility.yul\":1346:1353   */\n      dup5\n        /* \"#utility.yul\":1337:1343   */\n      dup3\n        /* \"#utility.yul\":1326:1335   */\n      dup6\n        /* \"#utility.yul\":1322:1344   */\n      add\n        /* \"#utility.yul\":1301:1354   */\n      tag_140\n      jump\t// in\n    tag_179:\n        /* \"#utility.yul\":1291:1354   */\n      swap2\n      pop\n        /* \"#utility.yul\":1247:1364   */\n      pop\n        /* \"#utility.yul\":1042:1371   */\n      swap3\n      swap2\n      pop\n      pop\n      jump\t// out\n        /* \"#utility.yul\":1377:1476   */\n    tag_141:\n        /* \"#utility.yul\":1429:1435   */\n      0x00\n        /* \"#utility.yul\":1463:1468   */\n      dup2\n        /* \"#utility.yul\":1457:1469   */\n      mload\n        /* \"#utility.yul\":1447:1469   */\n      swap1\n      pop\n        /* \"#utility.yul\":1377:1476   */\n      swap2\n      swap1\n      pop\n      jump\t// out\n        /* \"#utility.yul\":1482:1651   */\n    tag_142:\n        /* \"#utility.yul\":1566:1577   */\n      0x00\n        /* \"#utility.yul\":1600:1606   */\n      dup3\n        /* \"#utility.yul\":1595:1598   */\n      dup3\n        /* \"#utility.yul\":1588:1607   */\n      mstore\n        /* \"#utility.yul\":1640:1644   */\n      0x20\n        /* \"#utility.yul\":1635:1638   */\n      dup3\n        /* \"#utility.yul\":1631:1645   */\n      add\n        /* \"#utility.yul\":1616:1645   */\n      swap1\n      pop\n        /* \"#utility.yul\":1482:1651   */\n      swap3\n      swap2\n      pop\n      pop\n      jump\t// out\n        /* \"#utility.yul\":1657:1964   */\n    tag_143:\n        /* \"#utility.yul\":1725:1726   */\n      0x00\n        /* \"#utility.yul\":1735:1848   */\n    tag_183:\n        /* \"#utility.yul\":1749:1755   */\n      dup4\n        /* \"#utility.yul\":1746:1747   */\n      dup2\n        /* \"#utility.yul\":1743:1756   */\n      lt\n        /* \"#utility.yul\":1735:1848   */\n      iszero\n      tag_185\n      jumpi\n        /* \"#utility.yul\":1834:1835   */\n      dup1\n        /* \"#utility.yul\":1829:1832   */\n      dup3\n        /* \"#utility.yul\":1825:1836   */\n      add\n        /* \"#utility.yul\":1819:1837   */\n      mload\n        /* \"#utility.yul\":1815:1816   */\n      dup2\n        /* \"#utility.yul\":1810:1813   */\n      dup5\n        /* \"#utility.yul\":1806:1817   */\n      add\n        /* \"#utility.yul\":1799:1838   */\n      mstore\n        /* \"#utility.yul\":1771:1773   */\n      0x20\n        /* \"#utility.yul\":1768:1769   */\n      dup2\n        /* \"#utility.yul\":1764:1774   */\n      add\n        /* \"#utility.yul\":1759:1774   */\n      swap1\n      pop\n        /* \"#utility.yul\":1735:1848   */\n      jump(tag_183)\n    tag_185:\n        /* \"#utility.yul\":1866:1872   */\n      dup4\n        /* \"#utility.yul\":1863:1864   */\n      dup2\n        /* \"#utility.yul\":1860:1873   */\n      gt\n        /* \"#utility.yul\":1857:1958   */\n      iszero\n      tag_186\n      jumpi\n        /* \"#utility.yul\":1946:1947   */\n      0x00\n        /* \"#utility.yul\":1937:1943   */\n      dup5\n        /* \"#utility.yul\":1932:1935   */\n      dup5\n        /* \"#utility.yul\":1928:1944   */\n      add\n        /* \"#utility.yul\":1921:1948   */\n      mstore\n        /* \"#utility.yul\":1857:1958   */\n    tag_186:\n        /* \"#utility.yul\":1706:1964   */\n      pop\n        /* \"#utility.yul\":1657:1964   */\n      pop\n      pop\n      pop\n      jump\t// out\n        /* \"#utility.yul\":1970:2072   */\n    tag_144:\n        /* \"#utility.yul\":2011:2017   */\n      0x00\n        /* \"#utility.yul\":2062:2064   */\n      0x1f\n        /* \"#utility.yul\":2058:2065   */\n      not\n        /* \"#utility.yul\":2053:2055   */\n      0x1f\n        /* \"#utility.yul\":2046:2051   */\n      dup4\n        /* \"#utility.yul\":2042:2056   */\n      add\n        /* \"#utility.yul\":2038:2066   */\n      and\n        /* \"#utility.yul\":2028:2066   */\n      swap1\n      pop\n        /* \"#utility.yul\":1970:2072   */\n      swap2\n      swap1\n      pop\n      jump\t// out\n        /* \"#utility.yul\":2078:2442   */\n    tag_145:\n        /* \"#utility.yul\":2166:2169   */\n      0x00\n        /* \"#utility.yul\":2194:2233   */\n      tag_189\n        /* \"#utility.yul\":2227:2232   */\n      dup3\n        /* \"#utility.yul\":2194:2233   */\n      tag_141\n      jump\t// in\n    tag_189:\n        /* \"#utility.yul\":2249:2320   */\n      tag_190\n        /* \"#utility.yul\":2313:2319   */\n      dup2\n        /* \"#utility.yul\":2308:2311   */\n      dup6\n        /* \"#utility.yul\":2249:2320   */\n      tag_142\n      jump\t// in\n    tag_190:\n        /* \"#utility.yul\":2242:2320   */\n      swap4\n      pop\n        /* \"#utility.yul\":2329:2381   */\n      tag_191\n        /* \"#utility.yul\":2374:2380   */\n      dup2\n        /* \"#utility.yul\":2369:2372   */\n      dup6\n        /* \"#utility.yul\":2362:2366   */\n      0x20\n        /* \"#utility.yul\":2355:2360   */\n      dup7\n        /* \"#utility.yul\":2351:2367   */\n      add\n        /* \"#utility.yul\":2329:2381   */\n      tag_143\n      jump\t// in\n    tag_191:\n        /* \"#utility.yul\":2406:2435   */\n      tag_192\n        /* \"#utility.yul\":2428:2434   */\n      dup2\n        /* \"#utility.yul\":2406:2435   */\n      tag_144\n      jump\t// in\n    tag_192:\n        /* \"#utility.yul\":2401:2404   */\n      dup5\n        /* \"#utility.yul\":2397:2436   */\n      add\n        /* \"#utility.yul\":2390:2436   */\n      swap2\n      pop\n        /* \"#utility.yul\":2170:2442   */\n      pop\n        /* \"#utility.yul\":2078:2442   */\n      swap3\n      swap2\n      pop\n      pop\n      jump\t// out\n        /* \"#utility.yul\":2448:2981   */\n    tag_20:\n        /* \"#utility.yul\":2617:2621   */\n      0x00\n        /* \"#utility.yul\":2655:2657   */\n      0x60\n        /* \"#utility.yul\":2644:2653   */\n      dup3\n        /* \"#utility.yul\":2640:2658   */\n      add\n        /* \"#utility.yul\":2632:2658   */\n      swap1\n      pop\n        /* \"#utility.yul\":2704:2713   */\n      dup2\n        /* \"#utility.yul\":2698:2702   */\n      dup2\n        /* \"#utility.yul\":2694:2714   */\n      sub\n        /* \"#utility.yul\":2690:2691   */\n      0x00\n        /* \"#utility.yul\":2679:2688   */\n      dup4\n        /* \"#utility.yul\":2675:2692   */\n      add\n        /* \"#utility.yul\":2668:2715   */\n      mstore\n        /* \"#utility.yul\":2732:2810   */\n      tag_194\n        /* \"#utility.yul\":2805:2809   */\n      dup2\n        /* \"#utility.yul\":2796:2802   */\n      dup7\n        /* \"#utility.yul\":2732:2810   */\n      tag_145\n      jump\t// in\n    tag_194:\n        /* \"#utility.yul\":2724:2810   */\n      swap1\n      pop\n        /* \"#utility.yul\":2820:2892   */\n      tag_195\n        /* \"#utility.yul\":2888:2890   */\n      0x20\n        /* \"#utility.yul\":2877:2886   */\n      dup4\n        /* \"#utility.yul\":2873:2891   */\n      add\n        /* \"#utility.yul\":2864:2870   */\n      dup6\n        /* \"#utility.yul\":2820:2892   */\n      tag_135\n      jump\t// in\n    tag_195:\n        /* \"#utility.yul\":2902:2974   */\n      tag_196\n        /* \"#utility.yul\":2970:2972   */\n      0x40\n        /* \"#utility.yul\":2959:2968   */\n      dup4\n        /* \"#utility.yul\":2955:2973   */\n      add\n        /* \"#utility.yul\":2946:2952   */\n      dup5\n        /* \"#utility.yul\":2902:2974   */\n      tag_135\n      jump\t// in\n    tag_196:\n        /* \"#utility.yul\":2448:2981   */\n      swap5\n      swap4\n      pop\n      pop\n      pop\n      pop\n      jump\t// out\n        /* \"#utility.yul\":2987:3113   */\n    tag_146:\n        /* \"#utility.yul\":3024:3031   */\n      0x00\n        /* \"#utility.yul\":3064:3106   */\n      0xffffffffffffffffffffffffffffffffffffffff\n        /* \"#utility.yul\":3057:3062   */\n      dup3\n        /* \"#utility.yul\":3053:3107   */\n      and\n        /* \"#utility.yul\":3042:3107   */\n      swap1\n      pop\n        /* \"#utility.yul\":2987:3113   */\n      swap2\n      swap1\n      pop\n      jump\t// out\n        /* \"#utility.yul\":3119:3215   */\n    tag_147:\n        /* \"#utility.yul\":3156:3163   */\n      0x00\n        /* \"#utility.yul\":3185:3209   */\n      tag_199\n        /* \"#utility.yul\":3203:3208   */\n      dup3\n        /* \"#utility.yul\":3185:3209   */\n      tag_146\n      jump\t// in\n    tag_199:\n        /* \"#utility.yul\":3174:3209   */\n      swap1\n      pop\n        /* \"#utility.yul\":3119:3215   */\n      swap2\n      swap1\n      pop\n      jump\t// out\n        /* \"#utility.yul\":3221:3339   */\n    tag_148:\n        /* \"#utility.yul\":3308:3332   */\n      tag_201\n        /* \"#utility.yul\":3326:3331   */\n      dup2\n        /* \"#utility.yul\":3308:3332   */\n      tag_147\n      jump\t// in\n    tag_201:\n        /* \"#utility.yul\":3303:3306   */\n      dup3\n        /* \"#utility.yul\":3296:3333   */\n      mstore\n        /* \"#utility.yul\":3221:3339   */\n      pop\n      pop\n      jump\t// out\n        /* \"#utility.yul\":3345:3989   */\n    tag_25:\n        /* \"#utility.yul\":3542:3546   */\n      0x00\n        /* \"#utility.yul\":3580:3583   */\n      0x80\n        /* \"#utility.yul\":3569:3578   */\n      dup3\n        /* \"#utility.yul\":3565:3584   */\n      add\n        /* \"#utility.yul\":3557:3584   */\n      swap1\n      pop\n        /* \"#utility.yul\":3594:3665   */\n      tag_203\n        /* \"#utility.yul\":3662:3663   */\n      0x00\n        /* \"#utility.yul\":3651:3660   */\n      dup4\n        /* \"#utility.yul\":3647:3664   */\n      add\n        /* \"#utility.yul\":3638:3644   */\n      dup8\n        /* \"#utility.yul\":3594:3665   */\n      tag_148\n      jump\t// in\n    tag_203:\n        /* \"#utility.yul\":3675:3747   */\n      tag_204\n        /* \"#utility.yul\":3743:3745   */\n      0x20\n        /* \"#utility.yul\":3732:3741   */\n      dup4\n        /* \"#utility.yul\":3728:3746   */\n      add\n        /* \"#utility.yul\":3719:3725   */\n      dup7\n        /* \"#utility.yul\":3675:3747   */\n      tag_135\n      jump\t// in\n    tag_204:\n        /* \"#utility.yul\":3757:3829   */\n      tag_205\n        /* \"#utility.yul\":3825:3827   */\n      0x40\n        /* \"#utility.yul\":3814:3823   */\n      dup4\n        /* \"#utility.yul\":3810:3828   */\n      add\n        /* \"#utility.yul\":3801:3807   */\n      dup6\n        /* \"#utility.yul\":3757:3829   */\n      tag_135\n      jump\t// in\n    tag_205:\n        /* \"#utility.yul\":3876:3885   */\n      dup2\n        /* \"#utility.yul\":3870:3874   */\n      dup2\n        /* \"#utility.yul\":3866:3886   */\n      sub\n        /* \"#utility.yul\":3861:3863   */\n      0x60\n        /* \"#utility.yul\":3850:3859   */\n      dup4\n        /* \"#utility.yul\":3846:3864   */\n      add\n        /* \"#utility.yul\":3839:3887   */\n      mstore\n        /* \"#utility.yul\":3904:3982   */\n      tag_206\n        /* \"#utility.yul\":3977:3981   */\n      dup2\n        /* \"#utility.yul\":3968:3974   */\n      dup5\n        /* \"#utility.yul\":3904:3982   */\n      tag_145\n      jump\t// in\n    tag_206:\n        /* \"#utility.yul\":3896:3982   */\n      swap1\n      pop\n        /* \"#utility.yul\":3345:3989   */\n      swap6\n      swap5\n      pop\n      pop\n      pop\n      pop\n      pop\n      jump\t// out\n        /* \"#utility.yul\":3995:4217   */\n    tag_29:\n        /* \"#utility.yul\":4088:4092   */\n      0x00\n        /* \"#utility.yul\":4126:4128   */\n      0x20\n        /* \"#utility.yul\":4115:4124   */\n      dup3\n        /* \"#utility.yul\":4111:4129   */\n      add\n        /* \"#utility.yul\":4103:4129   */\n      swap1\n      pop\n        /* \"#utility.yul\":4139:4210   */\n      tag_208\n        /* \"#utility.yul\":4207:4208   */\n      0x00\n        /* \"#utility.yul\":4196:4205   */\n      dup4\n        /* \"#utility.yul\":4192:4209   */\n      add\n        /* \"#utility.yul\":4183:4189   */\n      dup5\n        /* \"#utility.yul\":4139:4210   */\n      tag_148\n      jump\t// in\n    tag_208:\n        /* \"#utility.yul\":3995:4217   */\n      swap3\n      swap2\n      pop\n      pop\n      jump\t// out\n        /* \"#utility.yul\":4223:4403   */\n    tag_149:\n        /* \"#utility.yul\":4271:4348   */\n      0x4e487b7100000000000000000000000000000000000000000000000000000000\n        /* \"#utility.yul\":4268:4269   */\n      0x00\n        /* \"#utility.yul\":4261:4349   */\n      mstore\n        /* \"#utility.yul\":4368:4372   */\n      0x22\n        /* \"#utility.yul\":4365:4366   */\n      0x04\n        /* \"#utility.yul\":4358:4373   */\n      mstore\n        /* \"#utility.yul\":4392:4396   */\n      0x24\n        /* \"#utility.yul\":4389:4390   */\n      0x00\n        /* \"#utility.yul\":4382:4397   */\n      revert\n        /* \"#utility.yul\":4409:4729   */\n    tag_41:\n        /* \"#utility.yul\":4453:4459   */\n      0x00\n        /* \"#utility.yul\":4490:4491   */\n      0x02\n        /* \"#utility.yul\":4484:4488   */\n      dup3\n        /* \"#utility.yul\":4480:4492   */\n      div\n        /* \"#utility.yul\":4470:4492   */\n      swap1\n      pop\n        /* \"#utility.yul\":4537:4538   */\n      0x01\n        /* \"#utility.yul\":4531:4535   */\n      dup3\n        /* \"#utility.yul\":4527:4539   */\n      and\n        /* \"#utility.yul\":4558:4576   */\n      dup1\n        /* \"#utility.yul\":4548:4629   */\n      tag_211\n      jumpi\n        /* \"#utility.yul\":4614:4618   */\n      0x7f\n        /* \"#utility.yul\":4606:4612   */\n      dup3\n        /* \"#utility.yul\":4602:4619   */\n      and\n        /* \"#utility.yul\":4592:4619   */\n      swap2\n      pop\n        /* \"#utility.yul\":4548:4629   */\n    tag_211:\n        /* \"#utility.yul\":4676:4678   */\n      0x20\n        /* \"#utility.yul\":4668:4674   */\n      dup3\n        /* \"#utility.yul\":4665:4679   */\n      lt\n        /* \"#utility.yul\":4645:4663   */\n      dup2\n        /* \"#utility.yul\":4642:4680   */\n      eq\n        /* \"#utility.yul\":4639:4723   */\n      iszero\n      tag_212\n      jumpi\n        /* \"#utility.yul\":4695:4713   */\n      tag_213\n      tag_149\n      jump\t// in\n    tag_213:\n        /* \"#utility.yul\":4639:4723   */\n    tag_212:\n        /* \"#utility.yul\":4460:4729   */\n      pop\n        /* \"#utility.yul\":4409:4729   */\n      swap2\n      swap1\n      pop\n      jump\t// out\n        /* \"#utility.yul\":4735:4911   */\n    tag_150:\n        /* \"#utility.yul\":4875:4903   */\n      0x4e6f7420417574686f72697a65642c2041646d696e204f6e6c79000000000000\n        /* \"#utility.yul\":4871:4872   */\n      0x00\n        /* \"#utility.yul\":4863:4869   */\n      dup3\n        /* \"#utility.yul\":4859:4873   */\n      add\n        /* \"#utility.yul\":4852:4904   */\n      mstore\n        /* \"#utility.yul\":4735:4911   */\n      pop\n      jump\t// out\n        /* \"#utility.yul\":4917:5283   */\n    tag_151:\n        /* \"#utility.yul\":5059:5062   */\n      0x00\n        /* \"#utility.yul\":5080:5147   */\n      tag_216\n        /* \"#utility.yul\":5144:5146   */\n      0x1a\n        /* \"#utility.yul\":5139:5142   */\n      dup4\n        /* \"#utility.yul\":5080:5147   */\n      tag_142\n      jump\t// in\n    tag_216:\n        /* \"#utility.yul\":5073:5147   */\n      swap2\n      pop\n        /* \"#utility.yul\":5156:5249   */\n      tag_217\n        /* \"#utility.yul\":5245:5248   */\n      dup3\n        /* \"#utility.yul\":5156:5249   */\n      tag_150\n      jump\t// in\n    tag_217:\n        /* \"#utility.yul\":5274:5276   */\n      0x20\n        /* \"#utility.yul\":5269:5272   */\n      dup3\n        /* \"#utility.yul\":5265:5277   */\n      add\n        /* \"#utility.yul\":5258:5277   */\n      swap1\n      pop\n        /* \"#utility.yul\":4917:5283   */\n      swap2\n      swap1\n      pop\n      jump\t// out\n        /* \"#utility.yul\":5289:5708   */\n    tag_57:\n        /* \"#utility.yul\":5455:5459   */\n      0x00\n        /* \"#utility.yul\":5493:5495   */\n      0x20\n        /* \"#utility.yul\":5482:5491   */\n      dup3\n        /* \"#utility.yul\":5478:5496   */\n      add\n        /* \"#utility.yul\":5470:5496   */\n      swap1\n      pop\n        /* \"#utility.yul\":5542:5551   */\n      dup2\n        /* \"#utility.yul\":5536:5540   */\n      dup2\n        /* \"#utility.yul\":5532:5552   */\n      sub\n        /* \"#utility.yul\":5528:5529   */\n      0x00\n        /* \"#utility.yul\":5517:5526   */\n      dup4\n        /* \"#utility.yul\":5513:5530   */\n      add\n        /* \"#utility.yul\":5506:5553   */\n      mstore\n        /* \"#utility.yul\":5570:5701   */\n      tag_219\n        /* \"#utility.yul\":5696:5700   */\n      dup2\n        /* \"#utility.yul\":5570:5701   */\n      tag_151\n      jump\t// in\n    tag_219:\n        /* \"#utility.yul\":5562:5701   */\n      swap1\n      pop\n        /* \"#utility.yul\":5289:5708   */\n      swap2\n      swap1\n      pop\n      jump\t// out\n        /* \"#utility.yul\":5714:5894   */\n    tag_65:\n        /* \"#utility.yul\":5762:5839   */\n      0x4e487b7100000000000000000000000000000000000000000000000000000000\n        /* \"#utility.yul\":5759:5760   */\n      0x00\n        /* \"#utility.yul\":5752:5840   */\n      mstore\n        /* \"#utility.yul\":5859:5863   */\n      0x32\n        /* \"#utility.yul\":5856:5857   */\n      0x04\n        /* \"#utility.yul\":5849:5864   */\n      mstore\n        /* \"#utility.yul\":5883:5887   */\n      0x24\n        /* \"#utility.yul\":5880:5881   */\n      0x00\n        /* \"#utility.yul\":5873:5888   */\n      revert\n        /* \"#utility.yul\":5900:6080   */\n    tag_152:\n        /* \"#utility.yul\":5948:6025   */\n      0x4e487b7100000000000000000000000000000000000000000000000000000000\n        /* \"#utility.yul\":5945:5946   */\n      0x00\n        /* \"#utility.yul\":5938:6026   */\n      mstore\n        /* \"#utility.yul\":6045:6049   */\n      0x11\n        /* \"#utility.yul\":6042:6043   */\n      0x04\n        /* \"#utility.yul\":6035:6050   */\n      mstore\n        /* \"#utility.yul\":6069:6073   */\n      0x24\n        /* \"#utility.yul\":6066:6067   */\n      0x00\n        /* \"#utility.yul\":6059:6074   */\n      revert\n        /* \"#utility.yul\":6086:6319   */\n    tag_72:\n        /* \"#utility.yul\":6125:6128   */\n      0x00\n        /* \"#utility.yul\":6148:6172   */\n      tag_223\n        /* \"#utility.yul\":6166:6171   */\n      dup3\n        /* \"#utility.yul\":6148:6172   */\n      tag_134\n      jump\t// in\n    tag_223:\n        /* \"#utility.yul\":6139:6172   */\n      swap2\n      pop\n        /* \"#utility.yul\":6194:6260   */\n      0xffffffffffffffffffffffffffffffffffffffffffffffffffffffffffffffff\n        /* \"#utility.yul\":6187:6192   */\n      dup3\n        /* \"#utility.yul\":6184:6261   */\n      eq\n        /* \"#utility.yul\":6181:6284   */\n      iszero\n      tag_224\n      jumpi\n        /* \"#utility.yul\":6264:6282   */\n      tag_225\n      tag_152\n      jump\t// in\n    tag_225:\n        /* \"#utility.yul\":6181:6284   */\n    tag_224:\n        /* \"#utility.yul\":6311:6312   */\n      0x01\n        /* \"#utility.yul\":6304:6309   */\n      dup3\n        /* \"#utility.yul\":6300:6313   */\n      add\n        /* \"#utility.yul\":6293:6313   */\n      swap1\n      pop\n        /* \"#utility.yul\":6086:6319   */\n      swap2\n      swap1\n      pop\n      jump\t// out\n        /* \"#utility.yul\":6325:6487   */\n    tag_153:\n        /* \"#utility.yul\":6465:6479   */\n      0x4f7574206f66204c696d69740000000000000000000000000000000000000000\n        /* \"#utility.yul\":6461:6462   */\n      0x00\n        /* \"#utility.yul\":6453:6459   */\n      dup3\n        /* \"#utility.yul\":6449:6463   */\n      add\n        /* \"#utility.yul\":6442:6480   */\n      mstore\n        /* \"#utility.yul\":6325:6487   */\n      pop\n      jump\t// out\n        /* \"#utility.yul\":6493:6859   */\n    tag_154:\n        /* \"#utility.yul\":6635:6638   */\n      0x00\n        /* \"#utility.yul\":6656:6723   */\n      tag_228\n        /* \"#utility.yul\":6720:6722   */\n      0x0c\n        /* \"#utility.yul\":6715:6718   */\n      dup4\n        /* \"#utility.yul\":6656:6723   */\n      tag_142\n      jump\t// in\n    tag_228:\n        /* \"#utility.yul\":6649:6723   */\n      swap2\n      pop\n        /* \"#utility.yul\":6732:6825   */\n      tag_229\n        /* \"#utility.yul\":6821:6824   */\n      dup3\n        /* \"#utility.yul\":6732:6825   */\n      tag_153\n      jump\t// in\n    tag_229:\n        /* \"#utility.yul\":6850:6852   */\n      0x20\n        /* \"#utility.yul\":6845:6848   */\n      dup3\n        /* \"#utility.yul\":6841:6853   */\n      add\n        /* \"#utility.yul\":6834:6853   */\n      swap1\n      pop\n        /* \"#utility.yul\":6493:6859   */\n      swap2\n      swap1\n      pop\n      jump\t// out\n        /* \"#utility.yul\":6865:7284   */\n    tag_78:\n        /* \"#utility.yul\":7031:7035   */\n      0x00\n        /* \"#utility.yul\":7069:7071   */\n      0x20\n        /* \"#utility.yul\":7058:7067   */\n      dup3\n        /* \"#utility.yul\":7054:7072   */\n      add\n        /* \"#utility.yul\":7046:7072   */\n      swap1\n      pop\n        /* \"#utility.yul\":7118:7127   */\n      dup2\n        /* \"#utility.yul\":7112:7116   */\n      dup2\n        /* \"#utility.yul\":7108:7128   */\n      sub\n        /* \"#utility.yul\":7104:7105   */\n      0x00\n        /* \"#utility.yul\":7093:7102   */\n      dup4\n        /* \"#utility.yul\":7089:7106   */\n      add\n        /* \"#utility.yul\":7082:7129   */\n      mstore\n        /* \"#utility.yul\":7146:7277   */\n      tag_231\n        /* \"#utility.yul\":7272:7276   */\n      dup2\n        /* \"#utility.yul\":7146:7277   */\n      tag_154\n      jump\t// in\n    tag_231:\n        /* \"#utility.yul\":7138:7277   */\n      swap1\n      pop\n        /* \"#utility.yul\":6865:7284   */\n      swap2\n      swap1\n      pop\n      jump\t// out\n        /* \"#utility.yul\":7290:7384   */\n    tag_155:\n        /* \"#utility.yul\":7323:7331   */\n      0x00\n        /* \"#utility.yul\":7371:7376   */\n      dup2\n        /* \"#utility.yul\":7367:7369   */\n      0x60\n        /* \"#utility.yul\":7363:7377   */\n      shl\n        /* \"#utility.yul\":7342:7377   */\n      swap1\n      pop\n        /* \"#utility.yul\":7290:7384   */\n      swap2\n      swap1\n      pop\n      jump\t// out\n        /* \"#utility.yul\":7390:7484   */\n    tag_156:\n        /* \"#utility.yul\":7429:7436   */\n      0x00\n        /* \"#utility.yul\":7458:7478   */\n      tag_234\n        /* \"#utility.yul\":7472:7477   */\n      dup3\n        /* \"#utility.yul\":7458:7478   */\n      tag_155\n      jump\t// in\n    tag_234:\n        /* \"#utility.yul\":7447:7478   */\n      swap1\n      pop\n        /* \"#utility.yul\":7390:7484   */\n      swap2\n      swap1\n      pop\n      jump\t// out\n        /* \"#utility.yul\":7490:7590   */\n    tag_157:\n        /* \"#utility.yul\":7529:7536   */\n      0x00\n        /* \"#utility.yul\":7558:7584   */\n      tag_236\n        /* \"#utility.yul\":7578:7583   */\n      dup3\n        /* \"#utility.yul\":7558:7584   */\n      tag_156\n      jump\t// in\n    tag_236:\n        /* \"#utility.yul\":7547:7584   */\n      swap1\n      pop\n        /* \"#utility.yul\":7490:7590   */\n      swap2\n      swap1\n      pop\n      jump\t// out\n        /* \"#utility.yul\":7596:7753   */\n    tag_158:\n        /* \"#utility.yul\":7701:7746   */\n      tag_238\n        /* \"#utility.yul\":7721:7745   */\n      tag_239\n        /* \"#utility.yul\":7739:7744   */\n      dup3\n        /* \"#utility.yul\":7721:7745   */\n      tag_147\n      jump\t// in\n    tag_239:\n        /* \"#utility.yul\":7701:7746   */\n      tag_157\n      jump\t// in\n    tag_238:\n        /* \"#utility.yul\":7696:7699   */\n      dup3\n        /* \"#utility.yul\":7689:7747   */\n      mstore\n        /* \"#utility.yul\":7596:7753   */\n      pop\n      pop\n      jump\t// out\n        /* \"#utility.yul\":7759:7838   */\n    tag_159:\n        /* \"#utility.yul\":7798:7805   */\n      0x00\n        /* \"#utility.yul\":7827:7832   */\n      dup2\n        /* \"#utility.yul\":7816:7832   */\n      swap1\n      pop\n        /* \"#utility.yul\":7759:7838   */\n      swap2\n      swap1\n      pop\n      jump\t// out\n        /* \"#utility.yul\":7844:8001   */\n    tag_160:\n        /* \"#utility.yul\":7949:7994   */\n      tag_242\n        /* \"#utility.yul\":7969:7993   */\n      tag_243\n        /* \"#utility.yul\":7987:7992   */\n      dup3\n        /* \"#utility.yul\":7969:7993   */\n      tag_134\n      jump\t// in\n    tag_243:\n        /* \"#utility.yul\":7949:7994   */\n      tag_159\n      jump\t// in\n    tag_242:\n        /* \"#utility.yul\":7944:7947   */\n      dup3\n        /* \"#utility.yul\":7937:7995   */\n      mstore\n        /* \"#utility.yul\":7844:8001   */\n      pop\n      pop\n      jump\t// out\n        /* \"#utility.yul\":8007:8545   */\n    tag_100:\n        /* \"#utility.yul\":8175:8178   */\n      0x00\n        /* \"#utility.yul\":8190:8265   */\n      tag_245\n        /* \"#utility.yul\":8261:8264   */\n      dup3\n        /* \"#utility.yul\":8252:8258   */\n      dup7\n        /* \"#utility.yul\":8190:8265   */\n      tag_158\n      jump\t// in\n    tag_245:\n        /* \"#utility.yul\":8290:8292   */\n      0x14\n        /* \"#utility.yul\":8285:8288   */\n      dup3\n        /* \"#utility.yul\":8281:8293   */\n      add\n        /* \"#utility.yul\":8274:8293   */\n      swap2\n      pop\n        /* \"#utility.yul\":8303:8378   */\n      tag_246\n        /* \"#utility.yul\":8374:8377   */\n      dup3\n        /* \"#utility.yul\":8365:8371   */\n      dup6\n        /* \"#utility.yul\":8303:8378   */\n      tag_160\n      jump\t// in\n    tag_246:\n        /* \"#utility.yul\":8403:8405   */\n      0x20\n        /* \"#utility.yul\":8398:8401   */\n      dup3\n        /* \"#utility.yul\":8394:8406   */\n      add\n        /* \"#utility.yul\":8387:8406   */\n      swap2\n      pop\n        /* \"#utility.yul\":8416:8491   */\n      tag_247\n        /* \"#utility.yul\":8487:8490   */\n      dup3\n        /* \"#utility.yul\":8478:8484   */\n      dup5\n        /* \"#utility.yul\":8416:8491   */\n      tag_160\n      jump\t// in\n    tag_247:\n        /* \"#utility.yul\":8516:8518   */\n      0x20\n        /* \"#utility.yul\":8511:8514   */\n      dup3\n        /* \"#utility.yul\":8507:8519   */\n      add\n        /* \"#utility.yul\":8500:8519   */\n      swap2\n      pop\n        /* \"#utility.yul\":8536:8539   */\n      dup2\n        /* \"#utility.yul\":8529:8539   */\n      swap1\n      pop\n        /* \"#utility.yul\":8007:8545   */\n      swap5\n      swap4\n      pop\n      pop\n      pop\n      pop\n      jump\t// out\n        /* \"#utility.yul\":8551:8731   */\n    tag_161:\n        /* \"#utility.yul\":8599:8676   */\n      0x4e487b7100000000000000000000000000000000000000000000000000000000\n        /* \"#utility.yul\":8596:8597   */\n      0x00\n        /* \"#utility.yul\":8589:8677   */\n      mstore\n        /* \"#utility.yul\":8696:8700   */\n      0x12\n        /* \"#utility.yul\":8693:8694   */\n      0x04\n        /* \"#utility.yul\":8686:8701   */\n      mstore\n        /* \"#utility.yul\":8720:8724   */\n      0x24\n        /* \"#utility.yul\":8717:8718   */\n      0x00\n        /* \"#utility.yul\":8710:8725   */\n      revert\n        /* \"#utility.yul\":8737:8913   */\n    tag_102:\n        /* \"#utility.yul\":8769:8770   */\n      0x00\n        /* \"#utility.yul\":8786:8806   */\n      tag_250\n        /* \"#utility.yul\":8804:8805   */\n      dup3\n        /* \"#utility.yul\":8786:8806   */\n      tag_134\n      jump\t// in\n    tag_250:\n        /* \"#utility.yul\":8781:8806   */\n      swap2\n      pop\n        /* \"#utility.yul\":8820:8840   */\n      tag_251\n        /* \"#utility.yul\":8838:8839   */\n      dup4\n        /* \"#utility.yul\":8820:8840   */\n      tag_134\n      jump\t// in\n    tag_251:\n        /* \"#utility.yul\":8815:8840   */\n      swap3\n      pop\n        /* \"#utility.yul\":8859:8860   */\n      dup3\n        /* \"#utility.yul\":8849:8884   */\n      tag_252\n      jumpi\n        /* \"#utility.yul\":8864:8882   */\n      tag_253\n      tag_161\n      jump\t// in\n    tag_253:\n        /* \"#utility.yul\":8849:8884   */\n    tag_252:\n        /* \"#utility.yul\":8905:8906   */\n      dup3\n        /* \"#utility.yul\":8902:8903   */\n      dup3\n        /* \"#utility.yul\":8898:8907   */\n      mod\n        /* \"#utility.yul\":8893:8907   */\n      swap1\n      pop\n        /* \"#utility.yul\":8737:8913   */\n      swap3\n      swap2\n      pop\n      pop\n      jump\t// out\n\n    auxdata: 0xa26469706673582212205f4154508463a74cc799af20ef680129a0d9330f74aa1d9c012a32684180325f64736f6c63430008080033\n}\n",
				"bytecode": {
					"linkReferences": {},
					"object": "60806040527350c7a09925375438d2cee94c5c59266c6ffaaf8c6000806101000a81548173ffffffffffffffffffffffffffffffffffffffff021916908373ffffffffffffffffffffffffffffffffffffffff16021790555073dbddb8575f6bda11f1dc548a1b546463cc567c3d600160006101000a81548173ffffffffffffffffffffffffffffffffffffffff021916908373ffffffffffffffffffffffffffffffffffffffff1602179055506002600355348015620000bf57600080fd5b5033600260006101000a81548173ffffffffffffffffffffffffffffffffffffffff021916908373ffffffffffffffffffffffffffffffffffffffff16021790555060008060009054906101000a900473ffffffffffffffffffffffffffffffffffffffff1673ffffffffffffffffffffffffffffffffffffffff166348441d5f6040518163ffffffff1660e01b815260040160006040518083038186803b1580156200016b57600080fd5b505afa15801562000180573d6000803e3d6000fd5b505050506040513d6000823e3d601f19601f82011682018060405250810190620001ab9190620006a3565b90506000805b6003811015620003635760008060009054906101000a900473ffffffffffffffffffffffffffffffffffffffff1673ffffffffffffffffffffffffffffffffffffffff1663278a7f3385846003811062000210576200020f620006f4565b5b60200201516040518263ffffffff1660e01b815260040162000233919062000780565b60206040518083038186803b1580156200024c57600080fd5b505afa15801562000261573d6000803e3d6000fd5b505050506040513d601f19601f82011682018060405250810190620002879190620007e2565b60ff16905060046040518060600160405280868560038110620002af57620002ae620006f4565b5b6020020151815260200185815260200160018487620002cf91906200084d565b620002db9190620008aa565b81525090806001815401808255809150506001900390600052602060002090600302016000909190919091506000820151816000019080519060200190620003259291906200036c565b506020820151816001015560408201518160020155505080836200034a91906200084d565b92505080806200035a90620008e5565b915050620001b1565b50505062000998565b8280546200037a9062000962565b90600052602060002090601f0160209004810192826200039e5760008555620003ea565b82601f10620003b957805160ff1916838001178555620003ea565b82800160010185558215620003ea579182015b82811115620003e9578251825591602001919060010190620003cc565b5b509050620003f99190620003fd565b5090565b5b8082111562000418576000816000905550600101620003fe565b5090565b6000604051905090565b600080fd5b600080fd5b600080fd5b6000601f19601f8301169050919050565b7f4e487b7100000000000000000000000000000000000000000000000000000000600052604160045260246000fd5b620004808262000435565b810181811067ffffffffffffffff82111715620004a257620004a162000446565b5b80604052505050565b6000620004b76200041c565b9050620004c5828262000475565b919050565b600067ffffffffffffffff821115620004e857620004e762000446565b5b602082029050919050565b600080fd5b600080fd5b600067ffffffffffffffff8211156200051b576200051a62000446565b5b620005268262000435565b9050602081019050919050565b60005b838110156200055357808201518184015260208101905062000536565b8381111562000563576000848401525b50505050565b6000620005806200057a84620004fd565b620004ab565b9050828152602081018484840111156200059f576200059e620004f8565b5b620005ac84828562000533565b509392505050565b600082601f830112620005cc57620005cb62000430565b5b8151620005de84826020860162000569565b91505092915050565b6000620005fe620005f884620004ca565b620004ab565b905080602084028301858111156200061b576200061a620004f3565b5b835b818110156200066957805167ffffffffffffffff81111562000644576200064362000430565b5b808601620006538982620005b4565b855260208501945050506020810190506200061d565b5050509392505050565b600082601f8301126200068b576200068a62000430565b5b60036200069a848285620005e7565b91505092915050565b600060208284031215620006bc57620006bb62000426565b5b600082015167ffffffffffffffff811115620006dd57620006dc6200042b565b5b620006eb8482850162000673565b91505092915050565b7f4e487b7100000000000000000000000000000000000000000000000000000000600052603260045260246000fd5b600081519050919050565b600082825260208201905092915050565b60006200074c8262000723565b6200075881856200072e565b93506200076a81856020860162000533565b620007758162000435565b840191505092915050565b600060208201905081810360008301526200079c81846200073f565b905092915050565b600060ff82169050919050565b620007bc81620007a4565b8114620007c857600080fd5b50565b600081519050620007dc81620007b1565b92915050565b600060208284031215620007fb57620007fa62000426565b5b60006200080b84828501620007cb565b91505092915050565b6000819050919050565b7f4e487b7100000000000000000000000000000000000000000000000000000000600052601160045260246000fd5b60006200085a8262000814565b9150620008678362000814565b9250827fffffffffffffffffffffffffffffffffffffffffffffffffffffffffffffffff038211156200089f576200089e6200081e565b5b828201905092915050565b6000620008b78262000814565b9150620008c48362000814565b925082821015620008da57620008d96200081e565b5b828203905092915050565b6000620008f28262000814565b91507fffffffffffffffffffffffffffffffffffffffffffffffffffffffffffffffff8214156200092857620009276200081e565b5b600182019050919050565b7f4e487b7100000000000000000000000000000000000000000000000000000000600052602260045260246000fd5b600060028204905060018216806200097b57607f821691505b6020821081141562000992576200099162000933565b5b50919050565b610fc880620009a86000396000f3fe608060405234801561001057600080fd5b506004361061007d5760003560e01c80638f84aa091161005b5780638f84aa0914610105578063c15d3ead14610123578063e917ec961461013f578063fc6f9468146101495761007d565b806306cd309b146100825780636fd3d9e2146100a05780637259e0f8146100d2575b600080fd5b61008a610167565b6040516100979190610ab4565b60405180910390f35b6100ba60048036038101906100b59190610b00565b61016d565b6040516100c993929190610bc6565b60405180910390f35b6100ec60048036038101906100e79190610b00565b61022f565b6040516100fc9493929190610c45565b60405180910390f35b61010d610317565b60405161011a9190610c91565b60405180910390f35b61013d60048036038101906101389190610b00565b61033d565b005b61014761042f565b005b610151610802565b60405161015e9190610c91565b60405180910390f35b60035481565b6004818154811061017d57600080fd5b90600052602060002090600302016000915090508060000180546101a090610cdb565b80601f01602080910402602001604051908101604052809291908181526020018280546101cc90610cdb565b80156102195780601f106101ee57610100808354040283529160200191610219565b820191906000526020600020905b8154815290600101906020018083116101fc57829003601f168201915b5050505050908060010154908060020154905083565b6005818154811061023f57600080fd5b90600052602060002090600402016000915090508060000160009054906101000a900473ffffffffffffffffffffffffffffffffffffffff169080600101549080600201549080600301805461029490610cdb565b80601f01602080910402602001604051908101604052809291908181526020018280546102c090610cdb565b801561030d5780601f106102e25761010080835404028352916020019161030d565b820191906000526020600020905b8154815290600101906020018083116102f057829003601f168201915b5050505050905084565b600160009054906101000a900473ffffffffffffffffffffffffffffffffffffffff1681565b600260009054906101000a900473ffffffffffffffffffffffffffffffffffffffff1673ffffffffffffffffffffffffffffffffffffffff163373ffffffffffffffffffffffffffffffffffffffff1614806103e65750600160009054906101000a900473ffffffffffffffffffffffffffffffffffffffff1673ffffffffffffffffffffffffffffffffffffffff163373ffffffffffffffffffffffffffffffffffffffff16145b610425576040517f08c379a000000000000000000000000000000000000000000000000000000000815260040161041c90610d59565b60405180910390fd5b8060038190555050565b6000805b6000151582151514801561044c57506000600580549050115b801561045c575060058054905081105b156105b2573373ffffffffffffffffffffffffffffffffffffffff166005828154811061048c5761048b610d79565b5b906000526020600020906004020160000160009054906101000a900473ffffffffffffffffffffffffffffffffffffffff1673ffffffffffffffffffffffffffffffffffffffff16141561059f5760019150600581815481106104f2576104f1610d79565b5b9060005260206000209060040201600101600081548092919061051490610dd7565b9190505550600354600582815481106105305761052f610d79565b5b9060005260206000209060040201600101541115610583576040517f08c379a000000000000000000000000000000000000000000000000000000000815260040161057a90610e6c565b60405180910390fd5b600061058d610828565b9050600061059a8261086e565b905050505b80806105aa90610dd7565b915050610433565b60008054906101000a900473ffffffffffffffffffffffffffffffffffffffff1673ffffffffffffffffffffffffffffffffffffffff166340d097c3600160009054906101000a900473ffffffffffffffffffffffffffffffffffffffff166040518263ffffffff1660e01b815260040161062d9190610c91565b600060405180830381600087803b15801561064757600080fd5b505af115801561065b573d6000803e3d6000fd5b50505050816107fe57600061066e610828565b9050600061067b8261086e565b905060068290806001815401808255809150506001900390600052602060002001600090919091909150556007819080600181540180825580915050600190039060005260206000200160009091909190915090805190602001906106e19291906109f8565b50600060405180608001604052803373ffffffffffffffffffffffffffffffffffffffff16815260200160018152602001606481526020016040518060400160405280600981526020017f676f6f642054496d6500000000000000000000000000000000000000000000008152508152509050600581908060018154018082558091505060019003906000526020600020906004020160009091909190915060008201518160000160006101000a81548173ffffffffffffffffffffffffffffffffffffffff021916908373ffffffffffffffffffffffffffffffffffffffff160217905550602082015181600101556040820151816002015560608201518160030190805190602001906107f79291906109f8565b5050505050505b5050565b600260009054906101000a900473ffffffffffffffffffffffffffffffffffffffff1681565b600080606433424460405160200161084293929190610ef5565b6040516020818303038152906040528051906020012060001c6108659190610f61565b90508091505090565b60606000805b81158015610886575060048054905081105b156109b8576004818154811061089f5761089e610d79565b5b90600052602060002090600302016001015484101580156108e55750600481815481106108cf576108ce610d79565b5b9060005260206000209060030201600201548411155b156109a557600191506004818154811061090257610901610d79565b5b9060005260206000209060030201600001805461091e90610cdb565b80601f016020809104026020016040519081016040528092919081815260200182805461094a90610cdb565b80156109975780601f1061096c57610100808354040283529160200191610997565b820191906000526020600020905b81548152906001019060200180831161097a57829003601f168201915b5050505050925050506109f3565b80806109b090610dd7565b915050610874565b6040518060400160405280600981526020017f4e6f7420466f756e640000000000000000000000000000000000000000000000815250925050505b919050565b828054610a0490610cdb565b90600052602060002090601f016020900481019282610a265760008555610a6d565b82601f10610a3f57805160ff1916838001178555610a6d565b82800160010185558215610a6d579182015b82811115610a6c578251825591602001919060010190610a51565b5b509050610a7a9190610a7e565b5090565b5b80821115610a97576000816000905550600101610a7f565b5090565b6000819050919050565b610aae81610a9b565b82525050565b6000602082019050610ac96000830184610aa5565b92915050565b600080fd5b610add81610a9b565b8114610ae857600080fd5b50565b600081359050610afa81610ad4565b92915050565b600060208284031215610b1657610b15610acf565b5b6000610b2484828501610aeb565b91505092915050565b600081519050919050565b600082825260208201905092915050565b60005b83811015610b67578082015181840152602081019050610b4c565b83811115610b76576000848401525b50505050565b6000601f19601f8301169050919050565b6000610b9882610b2d565b610ba28185610b38565b9350610bb2818560208601610b49565b610bbb81610b7c565b840191505092915050565b60006060820190508181036000830152610be08186610b8d565b9050610bef6020830185610aa5565b610bfc6040830184610aa5565b949350505050565b600073ffffffffffffffffffffffffffffffffffffffff82169050919050565b6000610c2f82610c04565b9050919050565b610c3f81610c24565b82525050565b6000608082019050610c5a6000830187610c36565b610c676020830186610aa5565b610c746040830185610aa5565b8181036060830152610c868184610b8d565b905095945050505050565b6000602082019050610ca66000830184610c36565b92915050565b7f4e487b7100000000000000000000000000000000000000000000000000000000600052602260045260246000fd5b60006002820490506001821680610cf357607f821691505b60208210811415610d0757610d06610cac565b5b50919050565b7f4e6f7420417574686f72697a65642c2041646d696e204f6e6c79000000000000600082015250565b6000610d43601a83610b38565b9150610d4e82610d0d565b602082019050919050565b60006020820190508181036000830152610d7281610d36565b9050919050565b7f4e487b7100000000000000000000000000000000000000000000000000000000600052603260045260246000fd5b7f4e487b7100000000000000000000000000000000000000000000000000000000600052601160045260246000fd5b6000610de282610a9b565b91507fffffffffffffffffffffffffffffffffffffffffffffffffffffffffffffffff821415610e1557610e14610da8565b5b600182019050919050565b7f4f7574206f66204c696d69740000000000000000000000000000000000000000600082015250565b6000610e56600c83610b38565b9150610e6182610e20565b602082019050919050565b60006020820190508181036000830152610e8581610e49565b9050919050565b60008160601b9050919050565b6000610ea482610e8c565b9050919050565b6000610eb682610e99565b9050919050565b610ece610ec982610c24565b610eab565b82525050565b6000819050919050565b610eef610eea82610a9b565b610ed4565b82525050565b6000610f018286610ebd565b601482019150610f118285610ede565b602082019150610f218284610ede565b602082019150819050949350505050565b7f4e487b7100000000000000000000000000000000000000000000000000000000600052601260045260246000fd5b6000610f6c82610a9b565b9150610f7783610a9b565b925082610f8757610f86610f32565b5b82820690509291505056fea26469706673582212205f4154508463a74cc799af20ef680129a0d9330f74aa1d9c012a32684180325f64736f6c63430008080033",
					"opcodes": "PUSH1 0x80 PUSH1 0x40 MSTORE PUSH20 0x50C7A09925375438D2CEE94C5C59266C6FFAAF8C PUSH1 0x0 DUP1 PUSH2 0x100 EXP DUP2 SLOAD DUP2 PUSH20 0xFFFFFFFFFFFFFFFFFFFFFFFFFFFFFFFFFFFFFFFF MUL NOT AND SWAP1 DUP4 PUSH20 0xFFFFFFFFFFFFFFFFFFFFFFFFFFFFFFFFFFFFFFFF AND MUL OR SWAP1 SSTORE POP PUSH20 0xDBDDB8575F6BDA11F1DC548A1B546463CC567C3D PUSH1 0x1 PUSH1 0x0 PUSH2 0x100 EXP DUP2 SLOAD DUP2 PUSH20 0xFFFFFFFFFFFFFFFFFFFFFFFFFFFFFFFFFFFFFFFF MUL NOT AND SWAP1 DUP4 PUSH20 0xFFFFFFFFFFFFFFFFFFFFFFFFFFFFFFFFFFFFFFFF AND MUL OR SWAP1 SSTORE POP PUSH1 0x2 PUSH1 0x3 SSTORE CALLVALUE DUP1 ISZERO PUSH3 0xBF JUMPI PUSH1 0x0 DUP1 REVERT JUMPDEST POP CALLER PUSH1 0x2 PUSH1 0x0 PUSH2 0x100 EXP DUP2 SLOAD DUP2 PUSH20 0xFFFFFFFFFFFFFFFFFFFFFFFFFFFFFFFFFFFFFFFF MUL NOT AND SWAP1 DUP4 PUSH20 0xFFFFFFFFFFFFFFFFFFFFFFFFFFFFFFFFFFFFFFFF AND MUL OR SWAP1 SSTORE POP PUSH1 0x0 DUP1 PUSH1 0x0 SWAP1 SLOAD SWAP1 PUSH2 0x100 EXP SWAP1 DIV PUSH20 0xFFFFFFFFFFFFFFFFFFFFFFFFFFFFFFFFFFFFFFFF AND PUSH20 0xFFFFFFFFFFFFFFFFFFFFFFFFFFFFFFFFFFFFFFFF AND PUSH4 0x48441D5F PUSH1 0x40 MLOAD DUP2 PUSH4 0xFFFFFFFF AND PUSH1 0xE0 SHL DUP2 MSTORE PUSH1 0x4 ADD PUSH1 0x0 PUSH1 0x40 MLOAD DUP1 DUP4 SUB DUP2 DUP7 DUP1 EXTCODESIZE ISZERO DUP1 ISZERO PUSH3 0x16B JUMPI PUSH1 0x0 DUP1 REVERT JUMPDEST POP GAS STATICCALL ISZERO DUP1 ISZERO PUSH3 0x180 JUMPI RETURNDATASIZE PUSH1 0x0 DUP1 RETURNDATACOPY RETURNDATASIZE PUSH1 0x0 REVERT JUMPDEST POP POP POP POP PUSH1 0x40 MLOAD RETURNDATASIZE PUSH1 0x0 DUP3 RETURNDATACOPY RETURNDATASIZE PUSH1 0x1F NOT PUSH1 0x1F DUP3 ADD AND DUP3 ADD DUP1 PUSH1 0x40 MSTORE POP DUP2 ADD SWAP1 PUSH3 0x1AB SWAP2 SWAP1 PUSH3 0x6A3 JUMP JUMPDEST SWAP1 POP PUSH1 0x0 DUP1 JUMPDEST PUSH1 0x3 DUP2 LT ISZERO PUSH3 0x363 JUMPI PUSH1 0x0 DUP1 PUSH1 0x0 SWAP1 SLOAD SWAP1 PUSH2 0x100 EXP SWAP1 DIV PUSH20 0xFFFFFFFFFFFFFFFFFFFFFFFFFFFFFFFFFFFFFFFF AND PUSH20 0xFFFFFFFFFFFFFFFFFFFFFFFFFFFFFFFFFFFFFFFF AND PUSH4 0x278A7F33 DUP6 DUP5 PUSH1 0x3 DUP2 LT PUSH3 0x210 JUMPI PUSH3 0x20F PUSH3 0x6F4 JUMP JUMPDEST JUMPDEST PUSH1 0x20 MUL ADD MLOAD PUSH1 0x40 MLOAD DUP3 PUSH4 0xFFFFFFFF AND PUSH1 0xE0 SHL DUP2 MSTORE PUSH1 0x4 ADD PUSH3 0x233 SWAP2 SWAP1 PUSH3 0x780 JUMP JUMPDEST PUSH1 0x20 PUSH1 0x40 MLOAD DUP1 DUP4 SUB DUP2 DUP7 DUP1 EXTCODESIZE ISZERO DUP1 ISZERO PUSH3 0x24C JUMPI PUSH1 0x0 DUP1 REVERT JUMPDEST POP GAS STATICCALL ISZERO DUP1 ISZERO PUSH3 0x261 JUMPI RETURNDATASIZE PUSH1 0x0 DUP1 RETURNDATACOPY RETURNDATASIZE PUSH1 0x0 REVERT JUMPDEST POP POP POP POP PUSH1 0x40 MLOAD RETURNDATASIZE PUSH1 0x1F NOT PUSH1 0x1F DUP3 ADD AND DUP3 ADD DUP1 PUSH1 0x40 MSTORE POP DUP2 ADD SWAP1 PUSH3 0x287 SWAP2 SWAP1 PUSH3 0x7E2 JUMP JUMPDEST PUSH1 0xFF AND SWAP1 POP PUSH1 0x4 PUSH1 0x40 MLOAD DUP1 PUSH1 0x60 ADD PUSH1 0x40 MSTORE DUP1 DUP7 DUP6 PUSH1 0x3 DUP2 LT PUSH3 0x2AF JUMPI PUSH3 0x2AE PUSH3 0x6F4 JUMP JUMPDEST JUMPDEST PUSH1 0x20 MUL ADD MLOAD DUP2 MSTORE PUSH1 0x20 ADD DUP6 DUP2 MSTORE PUSH1 0x20 ADD PUSH1 0x1 DUP5 DUP8 PUSH3 0x2CF SWAP2 SWAP1 PUSH3 0x84D JUMP JUMPDEST PUSH3 0x2DB SWAP2 SWAP1 PUSH3 0x8AA JUMP JUMPDEST DUP2 MSTORE POP SWAP1 DUP1 PUSH1 0x1 DUP2 SLOAD ADD DUP1 DUP3 SSTORE DUP1 SWAP2 POP POP PUSH1 0x1 SWAP1 SUB SWAP1 PUSH1 0x0 MSTORE PUSH1 0x20 PUSH1 0x0 KECCAK256 SWAP1 PUSH1 0x3 MUL ADD PUSH1 0x0 SWAP1 SWAP2 SWAP1 SWAP2 SWAP1 SWAP2 POP PUSH1 0x0 DUP3 ADD MLOAD DUP2 PUSH1 0x0 ADD SWAP1 DUP1 MLOAD SWAP1 PUSH1 0x20 ADD SWAP1 PUSH3 0x325 SWAP3 SWAP2 SWAP1 PUSH3 0x36C JUMP JUMPDEST POP PUSH1 0x20 DUP3 ADD MLOAD DUP2 PUSH1 0x1 ADD SSTORE PUSH1 0x40 DUP3 ADD MLOAD DUP2 PUSH1 0x2 ADD SSTORE POP POP DUP1 DUP4 PUSH3 0x34A SWAP2 SWAP1 PUSH3 0x84D JUMP JUMPDEST SWAP3 POP POP DUP1 DUP1 PUSH3 0x35A SWAP1 PUSH3 0x8E5 JUMP JUMPDEST SWAP2 POP POP PUSH3 0x1B1 JUMP JUMPDEST POP POP POP PUSH3 0x998 JUMP JUMPDEST DUP3 DUP1 SLOAD PUSH3 0x37A SWAP1 PUSH3 0x962 JUMP JUMPDEST SWAP1 PUSH1 0x0 MSTORE PUSH1 0x20 PUSH1 0x0 KECCAK256 SWAP1 PUSH1 0x1F ADD PUSH1 0x20 SWAP1 DIV DUP2 ADD SWAP3 DUP3 PUSH3 0x39E JUMPI PUSH1 0x0 DUP6 SSTORE PUSH3 0x3EA JUMP JUMPDEST DUP3 PUSH1 0x1F LT PUSH3 0x3B9 JUMPI DUP1 MLOAD PUSH1 0xFF NOT AND DUP4 DUP1 ADD OR DUP6 SSTORE PUSH3 0x3EA JUMP JUMPDEST DUP3 DUP1 ADD PUSH1 0x1 ADD DUP6 SSTORE DUP3 ISZERO PUSH3 0x3EA JUMPI SWAP2 DUP3 ADD JUMPDEST DUP3 DUP2 GT ISZERO PUSH3 0x3E9 JUMPI DUP3 MLOAD DUP3 SSTORE SWAP2 PUSH1 0x20 ADD SWAP2 SWAP1 PUSH1 0x1 ADD SWAP1 PUSH3 0x3CC JUMP JUMPDEST JUMPDEST POP SWAP1 POP PUSH3 0x3F9 SWAP2 SWAP1 PUSH3 0x3FD JUMP JUMPDEST POP SWAP1 JUMP JUMPDEST JUMPDEST DUP1 DUP3 GT ISZERO PUSH3 0x418 JUMPI PUSH1 0x0 DUP2 PUSH1 0x0 SWAP1 SSTORE POP PUSH1 0x1 ADD PUSH3 0x3FE JUMP JUMPDEST POP SWAP1 JUMP JUMPDEST PUSH1 0x0 PUSH1 0x40 MLOAD SWAP1 POP SWAP1 JUMP JUMPDEST PUSH1 0x0 DUP1 REVERT JUMPDEST PUSH1 0x0 DUP1 REVERT JUMPDEST PUSH1 0x0 DUP1 REVERT JUMPDEST PUSH1 0x0 PUSH1 0x1F NOT PUSH1 0x1F DUP4 ADD AND SWAP1 POP SWAP2 SWAP1 POP JUMP JUMPDEST PUSH32 0x4E487B7100000000000000000000000000000000000000000000000000000000 PUSH1 0x0 MSTORE PUSH1 0x41 PUSH1 0x4 MSTORE PUSH1 0x24 PUSH1 0x0 REVERT JUMPDEST PUSH3 0x480 DUP3 PUSH3 0x435 JUMP JUMPDEST DUP2 ADD DUP2 DUP2 LT PUSH8 0xFFFFFFFFFFFFFFFF DUP3 GT OR ISZERO PUSH3 0x4A2 JUMPI PUSH3 0x4A1 PUSH3 0x446 JUMP JUMPDEST JUMPDEST DUP1 PUSH1 0x40 MSTORE POP POP POP JUMP JUMPDEST PUSH1 0x0 PUSH3 0x4B7 PUSH3 0x41C JUMP JUMPDEST SWAP1 POP PUSH3 0x4C5 DUP3 DUP3 PUSH3 0x475 JUMP JUMPDEST SWAP2 SWAP1 POP JUMP JUMPDEST PUSH1 0x0 PUSH8 0xFFFFFFFFFFFFFFFF DUP3 GT ISZERO PUSH3 0x4E8 JUMPI PUSH3 0x4E7 PUSH3 0x446 JUMP JUMPDEST JUMPDEST PUSH1 0x20 DUP3 MUL SWAP1 POP SWAP2 SWAP1 POP JUMP JUMPDEST PUSH1 0x0 DUP1 REVERT JUMPDEST PUSH1 0x0 DUP1 REVERT JUMPDEST PUSH1 0x0 PUSH8 0xFFFFFFFFFFFFFFFF DUP3 GT ISZERO PUSH3 0x51B JUMPI PUSH3 0x51A PUSH3 0x446 JUMP JUMPDEST JUMPDEST PUSH3 0x526 DUP3 PUSH3 0x435 JUMP JUMPDEST SWAP1 POP PUSH1 0x20 DUP2 ADD SWAP1 POP SWAP2 SWAP1 POP JUMP JUMPDEST PUSH1 0x0 JUMPDEST DUP4 DUP2 LT ISZERO PUSH3 0x553 JUMPI DUP1 DUP3 ADD MLOAD DUP2 DUP5 ADD MSTORE PUSH1 0x20 DUP2 ADD SWAP1 POP PUSH3 0x536 JUMP JUMPDEST DUP4 DUP2 GT ISZERO PUSH3 0x563 JUMPI PUSH1 0x0 DUP5 DUP5 ADD MSTORE JUMPDEST POP POP POP POP JUMP JUMPDEST PUSH1 0x0 PUSH3 0x580 PUSH3 0x57A DUP5 PUSH3 0x4FD JUMP JUMPDEST PUSH3 0x4AB JUMP JUMPDEST SWAP1 POP DUP3 DUP2 MSTORE PUSH1 0x20 DUP2 ADD DUP5 DUP5 DUP5 ADD GT ISZERO PUSH3 0x59F JUMPI PUSH3 0x59E PUSH3 0x4F8 JUMP JUMPDEST JUMPDEST PUSH3 0x5AC DUP5 DUP3 DUP6 PUSH3 0x533 JUMP JUMPDEST POP SWAP4 SWAP3 POP POP POP JUMP JUMPDEST PUSH1 0x0 DUP3 PUSH1 0x1F DUP4 ADD SLT PUSH3 0x5CC JUMPI PUSH3 0x5CB PUSH3 0x430 JUMP JUMPDEST JUMPDEST DUP2 MLOAD PUSH3 0x5DE DUP5 DUP3 PUSH1 0x20 DUP7 ADD PUSH3 0x569 JUMP JUMPDEST SWAP2 POP POP SWAP3 SWAP2 POP POP JUMP JUMPDEST PUSH1 0x0 PUSH3 0x5FE PUSH3 0x5F8 DUP5 PUSH3 0x4CA JUMP JUMPDEST PUSH3 0x4AB JUMP JUMPDEST SWAP1 POP DUP1 PUSH1 0x20 DUP5 MUL DUP4 ADD DUP6 DUP2 GT ISZERO PUSH3 0x61B JUMPI PUSH3 0x61A PUSH3 0x4F3 JUMP JUMPDEST JUMPDEST DUP4 JUMPDEST DUP2 DUP2 LT ISZERO PUSH3 0x669 JUMPI DUP1 MLOAD PUSH8 0xFFFFFFFFFFFFFFFF DUP2 GT ISZERO PUSH3 0x644 JUMPI PUSH3 0x643 PUSH3 0x430 JUMP JUMPDEST JUMPDEST DUP1 DUP7 ADD PUSH3 0x653 DUP10 DUP3 PUSH3 0x5B4 JUMP JUMPDEST DUP6 MSTORE PUSH1 0x20 DUP6 ADD SWAP5 POP POP POP PUSH1 0x20 DUP2 ADD SWAP1 POP PUSH3 0x61D JUMP JUMPDEST POP POP POP SWAP4 SWAP3 POP POP POP JUMP JUMPDEST PUSH1 0x0 DUP3 PUSH1 0x1F DUP4 ADD SLT PUSH3 0x68B JUMPI PUSH3 0x68A PUSH3 0x430 JUMP JUMPDEST JUMPDEST PUSH1 0x3 PUSH3 0x69A DUP5 DUP3 DUP6 PUSH3 0x5E7 JUMP JUMPDEST SWAP2 POP POP SWAP3 SWAP2 POP POP JUMP JUMPDEST PUSH1 0x0 PUSH1 0x20 DUP3 DUP5 SUB SLT ISZERO PUSH3 0x6BC JUMPI PUSH3 0x6BB PUSH3 0x426 JUMP JUMPDEST JUMPDEST PUSH1 0x0 DUP3 ADD MLOAD PUSH8 0xFFFFFFFFFFFFFFFF DUP2 GT ISZERO PUSH3 0x6DD JUMPI PUSH3 0x6DC PUSH3 0x42B JUMP JUMPDEST JUMPDEST PUSH3 0x6EB DUP5 DUP3 DUP6 ADD PUSH3 0x673 JUMP JUMPDEST SWAP2 POP POP SWAP3 SWAP2 POP POP JUMP JUMPDEST PUSH32 0x4E487B7100000000000000000000000000000000000000000000000000000000 PUSH1 0x0 MSTORE PUSH1 0x32 PUSH1 0x4 MSTORE PUSH1 0x24 PUSH1 0x0 REVERT JUMPDEST PUSH1 0x0 DUP2 MLOAD SWAP1 POP SWAP2 SWAP1 POP JUMP JUMPDEST PUSH1 0x0 DUP3 DUP3 MSTORE PUSH1 0x20 DUP3 ADD SWAP1 POP SWAP3 SWAP2 POP POP JUMP JUMPDEST PUSH1 0x0 PUSH3 0x74C DUP3 PUSH3 0x723 JUMP JUMPDEST PUSH3 0x758 DUP2 DUP6 PUSH3 0x72E JUMP JUMPDEST SWAP4 POP PUSH3 0x76A DUP2 DUP6 PUSH1 0x20 DUP7 ADD PUSH3 0x533 JUMP JUMPDEST PUSH3 0x775 DUP2 PUSH3 0x435 JUMP JUMPDEST DUP5 ADD SWAP2 POP POP SWAP3 SWAP2 POP POP JUMP JUMPDEST PUSH1 0x0 PUSH1 0x20 DUP3 ADD SWAP1 POP DUP2 DUP2 SUB PUSH1 0x0 DUP4 ADD MSTORE PUSH3 0x79C DUP2 DUP5 PUSH3 0x73F JUMP JUMPDEST SWAP1 POP SWAP3 SWAP2 POP POP JUMP JUMPDEST PUSH1 0x0 PUSH1 0xFF DUP3 AND SWAP1 POP SWAP2 SWAP1 POP JUMP JUMPDEST PUSH3 0x7BC DUP2 PUSH3 0x7A4 JUMP JUMPDEST DUP2 EQ PUSH3 0x7C8 JUMPI PUSH1 0x0 DUP1 REVERT JUMPDEST POP JUMP JUMPDEST PUSH1 0x0 DUP2 MLOAD SWAP1 POP PUSH3 0x7DC DUP2 PUSH3 0x7B1 JUMP JUMPDEST SWAP3 SWAP2 POP POP JUMP JUMPDEST PUSH1 0x0 PUSH1 0x20 DUP3 DUP5 SUB SLT ISZERO PUSH3 0x7FB JUMPI PUSH3 0x7FA PUSH3 0x426 JUMP JUMPDEST JUMPDEST PUSH1 0x0 PUSH3 0x80B DUP5 DUP3 DUP6 ADD PUSH3 0x7CB JUMP JUMPDEST SWAP2 POP POP SWAP3 SWAP2 POP POP JUMP JUMPDEST PUSH1 0x0 DUP2 SWAP1 POP SWAP2 SWAP1 POP JUMP JUMPDEST PUSH32 0x4E487B7100000000000000000000000000000000000000000000000000000000 PUSH1 0x0 MSTORE PUSH1 0x11 PUSH1 0x4 MSTORE PUSH1 0x24 PUSH1 0x0 REVERT JUMPDEST PUSH1 0x0 PUSH3 0x85A DUP3 PUSH3 0x814 JUMP JUMPDEST SWAP2 POP PUSH3 0x867 DUP4 PUSH3 0x814 JUMP JUMPDEST SWAP3 POP DUP3 PUSH32 0xFFFFFFFFFFFFFFFFFFFFFFFFFFFFFFFFFFFFFFFFFFFFFFFFFFFFFFFFFFFFFFFF SUB DUP3 GT ISZERO PUSH3 0x89F JUMPI PUSH3 0x89E PUSH3 0x81E JUMP JUMPDEST JUMPDEST DUP3 DUP3 ADD SWAP1 POP SWAP3 SWAP2 POP POP JUMP JUMPDEST PUSH1 0x0 PUSH3 0x8B7 DUP3 PUSH3 0x814 JUMP JUMPDEST SWAP2 POP PUSH3 0x8C4 DUP4 PUSH3 0x814 JUMP JUMPDEST SWAP3 POP DUP3 DUP3 LT ISZERO PUSH3 0x8DA JUMPI PUSH3 0x8D9 PUSH3 0x81E JUMP JUMPDEST JUMPDEST DUP3 DUP3 SUB SWAP1 POP SWAP3 SWAP2 POP POP JUMP JUMPDEST PUSH1 0x0 PUSH3 0x8F2 DUP3 PUSH3 0x814 JUMP JUMPDEST SWAP2 POP PUSH32 0xFFFFFFFFFFFFFFFFFFFFFFFFFFFFFFFFFFFFFFFFFFFFFFFFFFFFFFFFFFFFFFFF DUP3 EQ ISZERO PUSH3 0x928 JUMPI PUSH3 0x927 PUSH3 0x81E JUMP JUMPDEST JUMPDEST PUSH1 0x1 DUP3 ADD SWAP1 POP SWAP2 SWAP1 POP JUMP JUMPDEST PUSH32 0x4E487B7100000000000000000000000000000000000000000000000000000000 PUSH1 0x0 MSTORE PUSH1 0x22 PUSH1 0x4 MSTORE PUSH1 0x24 PUSH1 0x0 REVERT JUMPDEST PUSH1 0x0 PUSH1 0x2 DUP3 DIV SWAP1 POP PUSH1 0x1 DUP3 AND DUP1 PUSH3 0x97B JUMPI PUSH1 0x7F DUP3 AND SWAP2 POP JUMPDEST PUSH1 0x20 DUP3 LT DUP2 EQ ISZERO PUSH3 0x992 JUMPI PUSH3 0x991 PUSH3 0x933 JUMP JUMPDEST JUMPDEST POP SWAP2 SWAP1 POP JUMP JUMPDEST PUSH2 0xFC8 DUP1 PUSH3 0x9A8 PUSH1 0x0 CODECOPY PUSH1 0x0 RETURN INVALID PUSH1 0x80 PUSH1 0x40 MSTORE CALLVALUE DUP1 ISZERO PUSH2 0x10 JUMPI PUSH1 0x0 DUP1 REVERT JUMPDEST POP PUSH1 0x4 CALLDATASIZE LT PUSH2 0x7D JUMPI PUSH1 0x0 CALLDATALOAD PUSH1 0xE0 SHR DUP1 PUSH4 0x8F84AA09 GT PUSH2 0x5B JUMPI DUP1 PUSH4 0x8F84AA09 EQ PUSH2 0x105 JUMPI DUP1 PUSH4 0xC15D3EAD EQ PUSH2 0x123 JUMPI DUP1 PUSH4 0xE917EC96 EQ PUSH2 0x13F JUMPI DUP1 PUSH4 0xFC6F9468 EQ PUSH2 0x149 JUMPI PUSH2 0x7D JUMP JUMPDEST DUP1 PUSH4 0x6CD309B EQ PUSH2 0x82 JUMPI DUP1 PUSH4 0x6FD3D9E2 EQ PUSH2 0xA0 JUMPI DUP1 PUSH4 0x7259E0F8 EQ PUSH2 0xD2 JUMPI JUMPDEST PUSH1 0x0 DUP1 REVERT JUMPDEST PUSH2 0x8A PUSH2 0x167 JUMP JUMPDEST PUSH1 0x40 MLOAD PUSH2 0x97 SWAP2 SWAP1 PUSH2 0xAB4 JUMP JUMPDEST PUSH1 0x40 MLOAD DUP1 SWAP2 SUB SWAP1 RETURN JUMPDEST PUSH2 0xBA PUSH1 0x4 DUP1 CALLDATASIZE SUB DUP2 ADD SWAP1 PUSH2 0xB5 SWAP2 SWAP1 PUSH2 0xB00 JUMP JUMPDEST PUSH2 0x16D JUMP JUMPDEST PUSH1 0x40 MLOAD PUSH2 0xC9 SWAP4 SWAP3 SWAP2 SWAP1 PUSH2 0xBC6 JUMP JUMPDEST PUSH1 0x40 MLOAD DUP1 SWAP2 SUB SWAP1 RETURN JUMPDEST PUSH2 0xEC PUSH1 0x4 DUP1 CALLDATASIZE SUB DUP2 ADD SWAP1 PUSH2 0xE7 SWAP2 SWAP1 PUSH2 0xB00 JUMP JUMPDEST PUSH2 0x22F JUMP JUMPDEST PUSH1 0x40 MLOAD PUSH2 0xFC SWAP5 SWAP4 SWAP3 SWAP2 SWAP1 PUSH2 0xC45 JUMP JUMPDEST PUSH1 0x40 MLOAD DUP1 SWAP2 SUB SWAP1 RETURN JUMPDEST PUSH2 0x10D PUSH2 0x317 JUMP JUMPDEST PUSH1 0x40 MLOAD PUSH2 0x11A SWAP2 SWAP1 PUSH2 0xC91 JUMP JUMPDEST PUSH1 0x40 MLOAD DUP1 SWAP2 SUB SWAP1 RETURN JUMPDEST PUSH2 0x13D PUSH1 0x4 DUP1 CALLDATASIZE SUB DUP2 ADD SWAP1 PUSH2 0x138 SWAP2 SWAP1 PUSH2 0xB00 JUMP JUMPDEST PUSH2 0x33D JUMP JUMPDEST STOP JUMPDEST PUSH2 0x147 PUSH2 0x42F JUMP JUMPDEST STOP JUMPDEST PUSH2 0x151 PUSH2 0x802 JUMP JUMPDEST PUSH1 0x40 MLOAD PUSH2 0x15E SWAP2 SWAP1 PUSH2 0xC91 JUMP JUMPDEST PUSH1 0x40 MLOAD DUP1 SWAP2 SUB SWAP1 RETURN JUMPDEST PUSH1 0x3 SLOAD DUP2 JUMP JUMPDEST PUSH1 0x4 DUP2 DUP2 SLOAD DUP2 LT PUSH2 0x17D JUMPI PUSH1 0x0 DUP1 REVERT JUMPDEST SWAP1 PUSH1 0x0 MSTORE PUSH1 0x20 PUSH1 0x0 KECCAK256 SWAP1 PUSH1 0x3 MUL ADD PUSH1 0x0 SWAP2 POP SWAP1 POP DUP1 PUSH1 0x0 ADD DUP1 SLOAD PUSH2 0x1A0 SWAP1 PUSH2 0xCDB JUMP JUMPDEST DUP1 PUSH1 0x1F ADD PUSH1 0x20 DUP1 SWAP2 DIV MUL PUSH1 0x20 ADD PUSH1 0x40 MLOAD SWAP1 DUP2 ADD PUSH1 0x40 MSTORE DUP1 SWAP3 SWAP2 SWAP1 DUP2 DUP2 MSTORE PUSH1 0x20 ADD DUP3 DUP1 SLOAD PUSH2 0x1CC SWAP1 PUSH2 0xCDB JUMP JUMPDEST DUP1 ISZERO PUSH2 0x219 JUMPI DUP1 PUSH1 0x1F LT PUSH2 0x1EE JUMPI PUSH2 0x100 DUP1 DUP4 SLOAD DIV MUL DUP4 MSTORE SWAP2 PUSH1 0x20 ADD SWAP2 PUSH2 0x219 JUMP JUMPDEST DUP3 ADD SWAP2 SWAP1 PUSH1 0x0 MSTORE PUSH1 0x20 PUSH1 0x0 KECCAK256 SWAP1 JUMPDEST DUP2 SLOAD DUP2 MSTORE SWAP1 PUSH1 0x1 ADD SWAP1 PUSH1 0x20 ADD DUP1 DUP4 GT PUSH2 0x1FC JUMPI DUP3 SWAP1 SUB PUSH1 0x1F AND DUP3 ADD SWAP2 JUMPDEST POP POP POP POP POP SWAP1 DUP1 PUSH1 0x1 ADD SLOAD SWAP1 DUP1 PUSH1 0x2 ADD SLOAD SWAP1 POP DUP4 JUMP JUMPDEST PUSH1 0x5 DUP2 DUP2 SLOAD DUP2 LT PUSH2 0x23F JUMPI PUSH1 0x0 DUP1 REVERT JUMPDEST SWAP1 PUSH1 0x0 MSTORE PUSH1 0x20 PUSH1 0x0 KECCAK256 SWAP1 PUSH1 0x4 MUL ADD PUSH1 0x0 SWAP2 POP SWAP1 POP DUP1 PUSH1 0x0 ADD PUSH1 0x0 SWAP1 SLOAD SWAP1 PUSH2 0x100 EXP SWAP1 DIV PUSH20 0xFFFFFFFFFFFFFFFFFFFFFFFFFFFFFFFFFFFFFFFF AND SWAP1 DUP1 PUSH1 0x1 ADD SLOAD SWAP1 DUP1 PUSH1 0x2 ADD SLOAD SWAP1 DUP1 PUSH1 0x3 ADD DUP1 SLOAD PUSH2 0x294 SWAP1 PUSH2 0xCDB JUMP JUMPDEST DUP1 PUSH1 0x1F ADD PUSH1 0x20 DUP1 SWAP2 DIV MUL PUSH1 0x20 ADD PUSH1 0x40 MLOAD SWAP1 DUP2 ADD PUSH1 0x40 MSTORE DUP1 SWAP3 SWAP2 SWAP1 DUP2 DUP2 MSTORE PUSH1 0x20 ADD DUP3 DUP1 SLOAD PUSH2 0x2C0 SWAP1 PUSH2 0xCDB JUMP JUMPDEST DUP1 ISZERO PUSH2 0x30D JUMPI DUP1 PUSH1 0x1F LT PUSH2 0x2E2 JUMPI PUSH2 0x100 DUP1 DUP4 SLOAD DIV MUL DUP4 MSTORE SWAP2 PUSH1 0x20 ADD SWAP2 PUSH2 0x30D JUMP JUMPDEST DUP3 ADD SWAP2 SWAP1 PUSH1 0x0 MSTORE PUSH1 0x20 PUSH1 0x0 KECCAK256 SWAP1 JUMPDEST DUP2 SLOAD DUP2 MSTORE SWAP1 PUSH1 0x1 ADD SWAP1 PUSH1 0x20 ADD DUP1 DUP4 GT PUSH2 0x2F0 JUMPI DUP3 SWAP1 SUB PUSH1 0x1F AND DUP3 ADD SWAP2 JUMPDEST POP POP POP POP POP SWAP1 POP DUP5 JUMP JUMPDEST PUSH1 0x1 PUSH1 0x0 SWAP1 SLOAD SWAP1 PUSH2 0x100 EXP SWAP1 DIV PUSH20 0xFFFFFFFFFFFFFFFFFFFFFFFFFFFFFFFFFFFFFFFF AND DUP2 JUMP JUMPDEST PUSH1 0x2 PUSH1 0x0 SWAP1 SLOAD SWAP1 PUSH2 0x100 EXP SWAP1 DIV PUSH20 0xFFFFFFFFFFFFFFFFFFFFFFFFFFFFFFFFFFFFFFFF AND PUSH20 0xFFFFFFFFFFFFFFFFFFFFFFFFFFFFFFFFFFFFFFFF AND CALLER PUSH20 0xFFFFFFFFFFFFFFFFFFFFFFFFFFFFFFFFFFFFFFFF AND EQ DUP1 PUSH2 0x3E6 JUMPI POP PUSH1 0x1 PUSH1 0x0 SWAP1 SLOAD SWAP1 PUSH2 0x100 EXP SWAP1 DIV PUSH20 0xFFFFFFFFFFFFFFFFFFFFFFFFFFFFFFFFFFFFFFFF AND PUSH20 0xFFFFFFFFFFFFFFFFFFFFFFFFFFFFFFFFFFFFFFFF AND CALLER PUSH20 0xFFFFFFFFFFFFFFFFFFFFFFFFFFFFFFFFFFFFFFFF AND EQ JUMPDEST PUSH2 0x425 JUMPI PUSH1 0x40 MLOAD PUSH32 0x8C379A000000000000000000000000000000000000000000000000000000000 DUP2 MSTORE PUSH1 0x4 ADD PUSH2 0x41C SWAP1 PUSH2 0xD59 JUMP JUMPDEST PUSH1 0x40 MLOAD DUP1 SWAP2 SUB SWAP1 REVERT JUMPDEST DUP1 PUSH1 0x3 DUP2 SWAP1 SSTORE POP POP JUMP JUMPDEST PUSH1 0x0 DUP1 JUMPDEST PUSH1 0x0 ISZERO ISZERO DUP3 ISZERO ISZERO EQ DUP1 ISZERO PUSH2 0x44C JUMPI POP PUSH1 0x0 PUSH1 0x5 DUP1 SLOAD SWAP1 POP GT JUMPDEST DUP1 ISZERO PUSH2 0x45C JUMPI POP PUSH1 0x5 DUP1 SLOAD SWAP1 POP DUP2 LT JUMPDEST ISZERO PUSH2 0x5B2 JUMPI CALLER PUSH20 0xFFFFFFFFFFFFFFFFFFFFFFFFFFFFFFFFFFFFFFFF AND PUSH1 0x5 DUP3 DUP2 SLOAD DUP2 LT PUSH2 0x48C JUMPI PUSH2 0x48B PUSH2 0xD79 JUMP JUMPDEST JUMPDEST SWAP1 PUSH1 0x0 MSTORE PUSH1 0x20 PUSH1 0x0 KECCAK256 SWAP1 PUSH1 0x4 MUL ADD PUSH1 0x0 ADD PUSH1 0x0 SWAP1 SLOAD SWAP1 PUSH2 0x100 EXP SWAP1 DIV PUSH20 0xFFFFFFFFFFFFFFFFFFFFFFFFFFFFFFFFFFFFFFFF AND PUSH20 0xFFFFFFFFFFFFFFFFFFFFFFFFFFFFFFFFFFFFFFFF AND EQ ISZERO PUSH2 0x59F JUMPI PUSH1 0x1 SWAP2 POP PUSH1 0x5 DUP2 DUP2 SLOAD DUP2 LT PUSH2 0x4F2 JUMPI PUSH2 0x4F1 PUSH2 0xD79 JUMP JUMPDEST JUMPDEST SWAP1 PUSH1 0x0 MSTORE PUSH1 0x20 PUSH1 0x0 KECCAK256 SWAP1 PUSH1 0x4 MUL ADD PUSH1 0x1 ADD PUSH1 0x0 DUP2 SLOAD DUP1 SWAP3 SWAP2 SWAP1 PUSH2 0x514 SWAP1 PUSH2 0xDD7 JUMP JUMPDEST SWAP2 SWAP1 POP SSTORE POP PUSH1 0x3 SLOAD PUSH1 0x5 DUP3 DUP2 SLOAD DUP2 LT PUSH2 0x530 JUMPI PUSH2 0x52F PUSH2 0xD79 JUMP JUMPDEST JUMPDEST SWAP1 PUSH1 0x0 MSTORE PUSH1 0x20 PUSH1 0x0 KECCAK256 SWAP1 PUSH1 0x4 MUL ADD PUSH1 0x1 ADD SLOAD GT ISZERO PUSH2 0x583 JUMPI PUSH1 0x40 MLOAD PUSH32 0x8C379A000000000000000000000000000000000000000000000000000000000 DUP2 MSTORE PUSH1 0x4 ADD PUSH2 0x57A SWAP1 PUSH2 0xE6C JUMP JUMPDEST PUSH1 0x40 MLOAD DUP1 SWAP2 SUB SWAP1 REVERT JUMPDEST PUSH1 0x0 PUSH2 0x58D PUSH2 0x828 JUMP JUMPDEST SWAP1 POP PUSH1 0x0 PUSH2 0x59A DUP3 PUSH2 0x86E JUMP JUMPDEST SWAP1 POP POP POP JUMPDEST DUP1 DUP1 PUSH2 0x5AA SWAP1 PUSH2 0xDD7 JUMP JUMPDEST SWAP2 POP POP PUSH2 0x433 JUMP JUMPDEST PUSH1 0x0 DUP1 SLOAD SWAP1 PUSH2 0x100 EXP SWAP1 DIV PUSH20 0xFFFFFFFFFFFFFFFFFFFFFFFFFFFFFFFFFFFFFFFF AND PUSH20 0xFFFFFFFFFFFFFFFFFFFFFFFFFFFFFFFFFFFFFFFF AND PUSH4 0x40D097C3 PUSH1 0x1 PUSH1 0x0 SWAP1 SLOAD SWAP1 PUSH2 0x100 EXP SWAP1 DIV PUSH20 0xFFFFFFFFFFFFFFFFFFFFFFFFFFFFFFFFFFFFFFFF AND PUSH1 0x40 MLOAD DUP3 PUSH4 0xFFFFFFFF AND PUSH1 0xE0 SHL DUP2 MSTORE PUSH1 0x4 ADD PUSH2 0x62D SWAP2 SWAP1 PUSH2 0xC91 JUMP JUMPDEST PUSH1 0x0 PUSH1 0x40 MLOAD DUP1 DUP4 SUB DUP2 PUSH1 0x0 DUP8 DUP1 EXTCODESIZE ISZERO DUP1 ISZERO PUSH2 0x647 JUMPI PUSH1 0x0 DUP1 REVERT JUMPDEST POP GAS CALL ISZERO DUP1 ISZERO PUSH2 0x65B JUMPI RETURNDATASIZE PUSH1 0x0 DUP1 RETURNDATACOPY RETURNDATASIZE PUSH1 0x0 REVERT JUMPDEST POP POP POP POP DUP2 PUSH2 0x7FE JUMPI PUSH1 0x0 PUSH2 0x66E PUSH2 0x828 JUMP JUMPDEST SWAP1 POP PUSH1 0x0 PUSH2 0x67B DUP3 PUSH2 0x86E JUMP JUMPDEST SWAP1 POP PUSH1 0x6 DUP3 SWAP1 DUP1 PUSH1 0x1 DUP2 SLOAD ADD DUP1 DUP3 SSTORE DUP1 SWAP2 POP POP PUSH1 0x1 SWAP1 SUB SWAP1 PUSH1 0x0 MSTORE PUSH1 0x20 PUSH1 0x0 KECCAK256 ADD PUSH1 0x0 SWAP1 SWAP2 SWAP1 SWAP2 SWAP1 SWAP2 POP SSTORE PUSH1 0x7 DUP2 SWAP1 DUP1 PUSH1 0x1 DUP2 SLOAD ADD DUP1 DUP3 SSTORE DUP1 SWAP2 POP POP PUSH1 0x1 SWAP1 SUB SWAP1 PUSH1 0x0 MSTORE PUSH1 0x20 PUSH1 0x0 KECCAK256 ADD PUSH1 0x0 SWAP1 SWAP2 SWAP1 SWAP2 SWAP1 SWAP2 POP SWAP1 DUP1 MLOAD SWAP1 PUSH1 0x20 ADD SWAP1 PUSH2 0x6E1 SWAP3 SWAP2 SWAP1 PUSH2 0x9F8 JUMP JUMPDEST POP PUSH1 0x0 PUSH1 0x40 MLOAD DUP1 PUSH1 0x80 ADD PUSH1 0x40 MSTORE DUP1 CALLER PUSH20 0xFFFFFFFFFFFFFFFFFFFFFFFFFFFFFFFFFFFFFFFF AND DUP2 MSTORE PUSH1 0x20 ADD PUSH1 0x1 DUP2 MSTORE PUSH1 0x20 ADD PUSH1 0x64 DUP2 MSTORE PUSH1 0x20 ADD PUSH1 0x40 MLOAD DUP1 PUSH1 0x40 ADD PUSH1 0x40 MSTORE DUP1 PUSH1 0x9 DUP2 MSTORE PUSH1 0x20 ADD PUSH32 0x676F6F642054496D650000000000000000000000000000000000000000000000 DUP2 MSTORE POP DUP2 MSTORE POP SWAP1 POP PUSH1 0x5 DUP2 SWAP1 DUP1 PUSH1 0x1 DUP2 SLOAD ADD DUP1 DUP3 SSTORE DUP1 SWAP2 POP POP PUSH1 0x1 SWAP1 SUB SWAP1 PUSH1 0x0 MSTORE PUSH1 0x20 PUSH1 0x0 KECCAK256 SWAP1 PUSH1 0x4 MUL ADD PUSH1 0x0 SWAP1 SWAP2 SWAP1 SWAP2 SWAP1 SWAP2 POP PUSH1 0x0 DUP3 ADD MLOAD DUP2 PUSH1 0x0 ADD PUSH1 0x0 PUSH2 0x100 EXP DUP2 SLOAD DUP2 PUSH20 0xFFFFFFFFFFFFFFFFFFFFFFFFFFFFFFFFFFFFFFFF MUL NOT AND SWAP1 DUP4 PUSH20 0xFFFFFFFFFFFFFFFFFFFFFFFFFFFFFFFFFFFFFFFF AND MUL OR SWAP1 SSTORE POP PUSH1 0x20 DUP3 ADD MLOAD DUP2 PUSH1 0x1 ADD SSTORE PUSH1 0x40 DUP3 ADD MLOAD DUP2 PUSH1 0x2 ADD SSTORE PUSH1 0x60 DUP3 ADD MLOAD DUP2 PUSH1 0x3 ADD SWAP1 DUP1 MLOAD SWAP1 PUSH1 0x20 ADD SWAP1 PUSH2 0x7F7 SWAP3 SWAP2 SWAP1 PUSH2 0x9F8 JUMP JUMPDEST POP POP POP POP POP POP JUMPDEST POP POP JUMP JUMPDEST PUSH1 0x2 PUSH1 0x0 SWAP1 SLOAD SWAP1 PUSH2 0x100 EXP SWAP1 DIV PUSH20 0xFFFFFFFFFFFFFFFFFFFFFFFFFFFFFFFFFFFFFFFF AND DUP2 JUMP JUMPDEST PUSH1 0x0 DUP1 PUSH1 0x64 CALLER TIMESTAMP DIFFICULTY PUSH1 0x40 MLOAD PUSH1 0x20 ADD PUSH2 0x842 SWAP4 SWAP3 SWAP2 SWAP1 PUSH2 0xEF5 JUMP JUMPDEST PUSH1 0x40 MLOAD PUSH1 0x20 DUP2 DUP4 SUB SUB DUP2 MSTORE SWAP1 PUSH1 0x40 MSTORE DUP1 MLOAD SWAP1 PUSH1 0x20 ADD KECCAK256 PUSH1 0x0 SHR PUSH2 0x865 SWAP2 SWAP1 PUSH2 0xF61 JUMP JUMPDEST SWAP1 POP DUP1 SWAP2 POP POP SWAP1 JUMP JUMPDEST PUSH1 0x60 PUSH1 0x0 DUP1 JUMPDEST DUP2 ISZERO DUP1 ISZERO PUSH2 0x886 JUMPI POP PUSH1 0x4 DUP1 SLOAD SWAP1 POP DUP2 LT JUMPDEST ISZERO PUSH2 0x9B8 JUMPI PUSH1 0x4 DUP2 DUP2 SLOAD DUP2 LT PUSH2 0x89F JUMPI PUSH2 0x89E PUSH2 0xD79 JUMP JUMPDEST JUMPDEST SWAP1 PUSH1 0x0 MSTORE PUSH1 0x20 PUSH1 0x0 KECCAK256 SWAP1 PUSH1 0x3 MUL ADD PUSH1 0x1 ADD SLOAD DUP5 LT ISZERO DUP1 ISZERO PUSH2 0x8E5 JUMPI POP PUSH1 0x4 DUP2 DUP2 SLOAD DUP2 LT PUSH2 0x8CF JUMPI PUSH2 0x8CE PUSH2 0xD79 JUMP JUMPDEST JUMPDEST SWAP1 PUSH1 0x0 MSTORE PUSH1 0x20 PUSH1 0x0 KECCAK256 SWAP1 PUSH1 0x3 MUL ADD PUSH1 0x2 ADD SLOAD DUP5 GT ISZERO JUMPDEST ISZERO PUSH2 0x9A5 JUMPI PUSH1 0x1 SWAP2 POP PUSH1 0x4 DUP2 DUP2 SLOAD DUP2 LT PUSH2 0x902 JUMPI PUSH2 0x901 PUSH2 0xD79 JUMP JUMPDEST JUMPDEST SWAP1 PUSH1 0x0 MSTORE PUSH1 0x20 PUSH1 0x0 KECCAK256 SWAP1 PUSH1 0x3 MUL ADD PUSH1 0x0 ADD DUP1 SLOAD PUSH2 0x91E SWAP1 PUSH2 0xCDB JUMP JUMPDEST DUP1 PUSH1 0x1F ADD PUSH1 0x20 DUP1 SWAP2 DIV MUL PUSH1 0x20 ADD PUSH1 0x40 MLOAD SWAP1 DUP2 ADD PUSH1 0x40 MSTORE DUP1 SWAP3 SWAP2 SWAP1 DUP2 DUP2 MSTORE PUSH1 0x20 ADD DUP3 DUP1 SLOAD PUSH2 0x94A SWAP1 PUSH2 0xCDB JUMP JUMPDEST DUP1 ISZERO PUSH2 0x997 JUMPI DUP1 PUSH1 0x1F LT PUSH2 0x96C JUMPI PUSH2 0x100 DUP1 DUP4 SLOAD DIV MUL DUP4 MSTORE SWAP2 PUSH1 0x20 ADD SWAP2 PUSH2 0x997 JUMP JUMPDEST DUP3 ADD SWAP2 SWAP1 PUSH1 0x0 MSTORE PUSH1 0x20 PUSH1 0x0 KECCAK256 SWAP1 JUMPDEST DUP2 SLOAD DUP2 MSTORE SWAP1 PUSH1 0x1 ADD SWAP1 PUSH1 0x20 ADD DUP1 DUP4 GT PUSH2 0x97A JUMPI DUP3 SWAP1 SUB PUSH1 0x1F AND DUP3 ADD SWAP2 JUMPDEST POP POP POP POP POP SWAP3 POP POP POP PUSH2 0x9F3 JUMP JUMPDEST DUP1 DUP1 PUSH2 0x9B0 SWAP1 PUSH2 0xDD7 JUMP JUMPDEST SWAP2 POP POP PUSH2 0x874 JUMP JUMPDEST PUSH1 0x40 MLOAD DUP1 PUSH1 0x40 ADD PUSH1 0x40 MSTORE DUP1 PUSH1 0x9 DUP2 MSTORE PUSH1 0x20 ADD PUSH32 0x4E6F7420466F756E640000000000000000000000000000000000000000000000 DUP2 MSTORE POP SWAP3 POP POP POP JUMPDEST SWAP2 SWAP1 POP JUMP JUMPDEST DUP3 DUP1 SLOAD PUSH2 0xA04 SWAP1 PUSH2 0xCDB JUMP JUMPDEST SWAP1 PUSH1 0x0 MSTORE PUSH1 0x20 PUSH1 0x0 KECCAK256 SWAP1 PUSH1 0x1F ADD PUSH1 0x20 SWAP1 DIV DUP2 ADD SWAP3 DUP3 PUSH2 0xA26 JUMPI PUSH1 0x0 DUP6 SSTORE PUSH2 0xA6D JUMP JUMPDEST DUP3 PUSH1 0x1F LT PUSH2 0xA3F JUMPI DUP1 MLOAD PUSH1 0xFF NOT AND DUP4 DUP1 ADD OR DUP6 SSTORE PUSH2 0xA6D JUMP JUMPDEST DUP3 DUP1 ADD PUSH1 0x1 ADD DUP6 SSTORE DUP3 ISZERO PUSH2 0xA6D JUMPI SWAP2 DUP3 ADD JUMPDEST DUP3 DUP2 GT ISZERO PUSH2 0xA6C JUMPI DUP3 MLOAD DUP3 SSTORE SWAP2 PUSH1 0x20 ADD SWAP2 SWAP1 PUSH1 0x1 ADD SWAP1 PUSH2 0xA51 JUMP JUMPDEST JUMPDEST POP SWAP1 POP PUSH2 0xA7A SWAP2 SWAP1 PUSH2 0xA7E JUMP JUMPDEST POP SWAP1 JUMP JUMPDEST JUMPDEST DUP1 DUP3 GT ISZERO PUSH2 0xA97 JUMPI PUSH1 0x0 DUP2 PUSH1 0x0 SWAP1 SSTORE POP PUSH1 0x1 ADD PUSH2 0xA7F JUMP JUMPDEST POP SWAP1 JUMP JUMPDEST PUSH1 0x0 DUP2 SWAP1 POP SWAP2 SWAP1 POP JUMP JUMPDEST PUSH2 0xAAE DUP2 PUSH2 0xA9B JUMP JUMPDEST DUP3 MSTORE POP POP JUMP JUMPDEST PUSH1 0x0 PUSH1 0x20 DUP3 ADD SWAP1 POP PUSH2 0xAC9 PUSH1 0x0 DUP4 ADD DUP5 PUSH2 0xAA5 JUMP JUMPDEST SWAP3 SWAP2 POP POP JUMP JUMPDEST PUSH1 0x0 DUP1 REVERT JUMPDEST PUSH2 0xADD DUP2 PUSH2 0xA9B JUMP JUMPDEST DUP2 EQ PUSH2 0xAE8 JUMPI PUSH1 0x0 DUP1 REVERT JUMPDEST POP JUMP JUMPDEST PUSH1 0x0 DUP2 CALLDATALOAD SWAP1 POP PUSH2 0xAFA DUP2 PUSH2 0xAD4 JUMP JUMPDEST SWAP3 SWAP2 POP POP JUMP JUMPDEST PUSH1 0x0 PUSH1 0x20 DUP3 DUP5 SUB SLT ISZERO PUSH2 0xB16 JUMPI PUSH2 0xB15 PUSH2 0xACF JUMP JUMPDEST JUMPDEST PUSH1 0x0 PUSH2 0xB24 DUP5 DUP3 DUP6 ADD PUSH2 0xAEB JUMP JUMPDEST SWAP2 POP POP SWAP3 SWAP2 POP POP JUMP JUMPDEST PUSH1 0x0 DUP2 MLOAD SWAP1 POP SWAP2 SWAP1 POP JUMP JUMPDEST PUSH1 0x0 DUP3 DUP3 MSTORE PUSH1 0x20 DUP3 ADD SWAP1 POP SWAP3 SWAP2 POP POP JUMP JUMPDEST PUSH1 0x0 JUMPDEST DUP4 DUP2 LT ISZERO PUSH2 0xB67 JUMPI DUP1 DUP3 ADD MLOAD DUP2 DUP5 ADD MSTORE PUSH1 0x20 DUP2 ADD SWAP1 POP PUSH2 0xB4C JUMP JUMPDEST DUP4 DUP2 GT ISZERO PUSH2 0xB76 JUMPI PUSH1 0x0 DUP5 DUP5 ADD MSTORE JUMPDEST POP POP POP POP JUMP JUMPDEST PUSH1 0x0 PUSH1 0x1F NOT PUSH1 0x1F DUP4 ADD AND SWAP1 POP SWAP2 SWAP1 POP JUMP JUMPDEST PUSH1 0x0 PUSH2 0xB98 DUP3 PUSH2 0xB2D JUMP JUMPDEST PUSH2 0xBA2 DUP2 DUP6 PUSH2 0xB38 JUMP JUMPDEST SWAP4 POP PUSH2 0xBB2 DUP2 DUP6 PUSH1 0x20 DUP7 ADD PUSH2 0xB49 JUMP JUMPDEST PUSH2 0xBBB DUP2 PUSH2 0xB7C JUMP JUMPDEST DUP5 ADD SWAP2 POP POP SWAP3 SWAP2 POP POP JUMP JUMPDEST PUSH1 0x0 PUSH1 0x60 DUP3 ADD SWAP1 POP DUP2 DUP2 SUB PUSH1 0x0 DUP4 ADD MSTORE PUSH2 0xBE0 DUP2 DUP7 PUSH2 0xB8D JUMP JUMPDEST SWAP1 POP PUSH2 0xBEF PUSH1 0x20 DUP4 ADD DUP6 PUSH2 0xAA5 JUMP JUMPDEST PUSH2 0xBFC PUSH1 0x40 DUP4 ADD DUP5 PUSH2 0xAA5 JUMP JUMPDEST SWAP5 SWAP4 POP POP POP POP JUMP JUMPDEST PUSH1 0x0 PUSH20 0xFFFFFFFFFFFFFFFFFFFFFFFFFFFFFFFFFFFFFFFF DUP3 AND SWAP1 POP SWAP2 SWAP1 POP JUMP JUMPDEST PUSH1 0x0 PUSH2 0xC2F DUP3 PUSH2 0xC04 JUMP JUMPDEST SWAP1 POP SWAP2 SWAP1 POP JUMP JUMPDEST PUSH2 0xC3F DUP2 PUSH2 0xC24 JUMP JUMPDEST DUP3 MSTORE POP POP JUMP JUMPDEST PUSH1 0x0 PUSH1 0x80 DUP3 ADD SWAP1 POP PUSH2 0xC5A PUSH1 0x0 DUP4 ADD DUP8 PUSH2 0xC36 JUMP JUMPDEST PUSH2 0xC67 PUSH1 0x20 DUP4 ADD DUP7 PUSH2 0xAA5 JUMP JUMPDEST PUSH2 0xC74 PUSH1 0x40 DUP4 ADD DUP6 PUSH2 0xAA5 JUMP JUMPDEST DUP2 DUP2 SUB PUSH1 0x60 DUP4 ADD MSTORE PUSH2 0xC86 DUP2 DUP5 PUSH2 0xB8D JUMP JUMPDEST SWAP1 POP SWAP6 SWAP5 POP POP POP POP POP JUMP JUMPDEST PUSH1 0x0 PUSH1 0x20 DUP3 ADD SWAP1 POP PUSH2 0xCA6 PUSH1 0x0 DUP4 ADD DUP5 PUSH2 0xC36 JUMP JUMPDEST SWAP3 SWAP2 POP POP JUMP JUMPDEST PUSH32 0x4E487B7100000000000000000000000000000000000000000000000000000000 PUSH1 0x0 MSTORE PUSH1 0x22 PUSH1 0x4 MSTORE PUSH1 0x24 PUSH1 0x0 REVERT JUMPDEST PUSH1 0x0 PUSH1 0x2 DUP3 DIV SWAP1 POP PUSH1 0x1 DUP3 AND DUP1 PUSH2 0xCF3 JUMPI PUSH1 0x7F DUP3 AND SWAP2 POP JUMPDEST PUSH1 0x20 DUP3 LT DUP2 EQ ISZERO PUSH2 0xD07 JUMPI PUSH2 0xD06 PUSH2 0xCAC JUMP JUMPDEST JUMPDEST POP SWAP2 SWAP1 POP JUMP JUMPDEST PUSH32 0x4E6F7420417574686F72697A65642C2041646D696E204F6E6C79000000000000 PUSH1 0x0 DUP3 ADD MSTORE POP JUMP JUMPDEST PUSH1 0x0 PUSH2 0xD43 PUSH1 0x1A DUP4 PUSH2 0xB38 JUMP JUMPDEST SWAP2 POP PUSH2 0xD4E DUP3 PUSH2 0xD0D JUMP JUMPDEST PUSH1 0x20 DUP3 ADD SWAP1 POP SWAP2 SWAP1 POP JUMP JUMPDEST PUSH1 0x0 PUSH1 0x20 DUP3 ADD SWAP1 POP DUP2 DUP2 SUB PUSH1 0x0 DUP4 ADD MSTORE PUSH2 0xD72 DUP2 PUSH2 0xD36 JUMP JUMPDEST SWAP1 POP SWAP2 SWAP1 POP JUMP JUMPDEST PUSH32 0x4E487B7100000000000000000000000000000000000000000000000000000000 PUSH1 0x0 MSTORE PUSH1 0x32 PUSH1 0x4 MSTORE PUSH1 0x24 PUSH1 0x0 REVERT JUMPDEST PUSH32 0x4E487B7100000000000000000000000000000000000000000000000000000000 PUSH1 0x0 MSTORE PUSH1 0x11 PUSH1 0x4 MSTORE PUSH1 0x24 PUSH1 0x0 REVERT JUMPDEST PUSH1 0x0 PUSH2 0xDE2 DUP3 PUSH2 0xA9B JUMP JUMPDEST SWAP2 POP PUSH32 0xFFFFFFFFFFFFFFFFFFFFFFFFFFFFFFFFFFFFFFFFFFFFFFFFFFFFFFFFFFFFFFFF DUP3 EQ ISZERO PUSH2 0xE15 JUMPI PUSH2 0xE14 PUSH2 0xDA8 JUMP JUMPDEST JUMPDEST PUSH1 0x1 DUP3 ADD SWAP1 POP SWAP2 SWAP1 POP JUMP JUMPDEST PUSH32 0x4F7574206F66204C696D69740000000000000000000000000000000000000000 PUSH1 0x0 DUP3 ADD MSTORE POP JUMP JUMPDEST PUSH1 0x0 PUSH2 0xE56 PUSH1 0xC DUP4 PUSH2 0xB38 JUMP JUMPDEST SWAP2 POP PUSH2 0xE61 DUP3 PUSH2 0xE20 JUMP JUMPDEST PUSH1 0x20 DUP3 ADD SWAP1 POP SWAP2 SWAP1 POP JUMP JUMPDEST PUSH1 0x0 PUSH1 0x20 DUP3 ADD SWAP1 POP DUP2 DUP2 SUB PUSH1 0x0 DUP4 ADD MSTORE PUSH2 0xE85 DUP2 PUSH2 0xE49 JUMP JUMPDEST SWAP1 POP SWAP2 SWAP1 POP JUMP JUMPDEST PUSH1 0x0 DUP2 PUSH1 0x60 SHL SWAP1 POP SWAP2 SWAP1 POP JUMP JUMPDEST PUSH1 0x0 PUSH2 0xEA4 DUP3 PUSH2 0xE8C JUMP JUMPDEST SWAP1 POP SWAP2 SWAP1 POP JUMP JUMPDEST PUSH1 0x0 PUSH2 0xEB6 DUP3 PUSH2 0xE99 JUMP JUMPDEST SWAP1 POP SWAP2 SWAP1 POP JUMP JUMPDEST PUSH2 0xECE PUSH2 0xEC9 DUP3 PUSH2 0xC24 JUMP JUMPDEST PUSH2 0xEAB JUMP JUMPDEST DUP3 MSTORE POP POP JUMP JUMPDEST PUSH1 0x0 DUP2 SWAP1 POP SWAP2 SWAP1 POP JUMP JUMPDEST PUSH2 0xEEF PUSH2 0xEEA DUP3 PUSH2 0xA9B JUMP JUMPDEST PUSH2 0xED4 JUMP JUMPDEST DUP3 MSTORE POP POP JUMP JUMPDEST PUSH1 0x0 PUSH2 0xF01 DUP3 DUP7 PUSH2 0xEBD JUMP JUMPDEST PUSH1 0x14 DUP3 ADD SWAP2 POP PUSH2 0xF11 DUP3 DUP6 PUSH2 0xEDE JUMP JUMPDEST PUSH1 0x20 DUP3 ADD SWAP2 POP PUSH2 0xF21 DUP3 DUP5 PUSH2 0xEDE JUMP JUMPDEST PUSH1 0x20 DUP3 ADD SWAP2 POP DUP2 SWAP1 POP SWAP5 SWAP4 POP POP POP POP JUMP JUMPDEST PUSH32 0x4E487B7100000000000000000000000000000000000000000000000000000000 PUSH1 0x0 MSTORE PUSH1 0x12 PUSH1 0x4 MSTORE PUSH1 0x24 PUSH1 0x0 REVERT JUMPDEST PUSH1 0x0 PUSH2 0xF6C DUP3 PUSH2 0xA9B JUMP JUMPDEST SWAP2 POP PUSH2 0xF77 DUP4 PUSH2 0xA9B JUMP JUMPDEST SWAP3 POP DUP3 PUSH2 0xF87 JUMPI PUSH2 0xF86 PUSH2 0xF32 JUMP JUMPDEST JUMPDEST DUP3 DUP3 MOD SWAP1 POP SWAP3 SWAP2 POP POP JUMP INVALID LOG2 PUSH5 0x6970667358 0x22 SLT KECCAK256 0x5F COINBASE SLOAD POP DUP5 PUSH4 0xA74CC799 0xAF KECCAK256 0xEF PUSH9 0x129A0D9330F74AA1D SWAP13 ADD 0x2A ORIGIN PUSH9 0x4180325F64736F6C63 NUMBER STOP ADDMOD ADDMOD STOP CALLER "
				},
				"gasEstimates": {
					"creation": {
						"codeDepositCost": "808000",
						"executionCost": "infinite",
						"totalCost": "infinite"
					},
					"external": {
						"adminAddress()": "2580",
						"changeGatchaLimit(uint256)": "26887",
						"createGatcha()": "infinite",
						"limitGatcha()": "2430",
						"ownerAddress()": "2514",
						"rarityList(uint256)": "infinite",
						"registeredUsers(uint256)": "infinite"
					},
					"internal": {
						"generateRarityScore()": "infinite",
						"getRarityName(uint256)": "infinite"
					}
				},
				"methodIdentifiers": {
					"adminAddress()": "fc6f9468",
					"changeGatchaLimit(uint256)": "c15d3ead",
					"createGatcha()": "e917ec96",
					"limitGatcha()": "06cd309b",
					"ownerAddress()": "8f84aa09",
					"rarityList(uint256)": "6fd3d9e2",
					"registeredUsers(uint256)": "7259e0f8"
				}
			},
			"storageLayout": {
				"storage": [
					{
						"astId": 8,
						"contract": "contracts/TestInterview.sol:TestInterview",
						"label": "objINFT",
						"offset": 0,
						"slot": "0",
						"type": "t_contract(INFT)375"
					},
					{
						"astId": 11,
						"contract": "contracts/TestInterview.sol:TestInterview",
						"label": "ownerAddress",
						"offset": 0,
						"slot": "1",
						"type": "t_address"
					},
					{
						"astId": 13,
						"contract": "contracts/TestInterview.sol:TestInterview",
						"label": "adminAddress",
						"offset": 0,
						"slot": "2",
						"type": "t_address"
					},
					{
						"astId": 16,
						"contract": "contracts/TestInterview.sol:TestInterview",
						"label": "limitGatcha",
						"offset": 0,
						"slot": "3",
						"type": "t_uint256"
					},
					{
						"astId": 27,
						"contract": "contracts/TestInterview.sol:TestInterview",
						"label": "rarityList",
						"offset": 0,
						"slot": "4",
						"type": "t_array(t_struct(Rarity)23_storage)dyn_storage"
					},
					{
						"astId": 40,
						"contract": "contracts/TestInterview.sol:TestInterview",
						"label": "registeredUsers",
						"offset": 0,
						"slot": "5",
						"type": "t_array(t_struct(RegisteredUser)36_storage)dyn_storage"
					},
					{
						"astId": 190,
						"contract": "contracts/TestInterview.sol:TestInterview",
						"label": "singleRarityScore",
						"offset": 0,
						"slot": "6",
						"type": "t_array(t_uint256)dyn_storage"
					},
					{
						"astId": 193,
						"contract": "contracts/TestInterview.sol:TestInterview",
						"label": "singleRarityName",
						"offset": 0,
						"slot": "7",
						"type": "t_array(t_string_storage)dyn_storage"
					}
				],
				"types": {
					"t_address": {
						"encoding": "inplace",
						"label": "address",
						"numberOfBytes": "20"
					},
					"t_array(t_string_storage)dyn_storage": {
						"base": "t_string_storage",
						"encoding": "dynamic_array",
						"label": "string[]",
						"numberOfBytes": "32"
					},
					"t_array(t_struct(Rarity)23_storage)dyn_storage": {
						"base": "t_struct(Rarity)23_storage",
						"encoding": "dynamic_array",
						"label": "struct TestInterview.Rarity[]",
						"numberOfBytes": "32"
					},
					"t_array(t_struct(RegisteredUser)36_storage)dyn_storage": {
						"base": "t_struct(RegisteredUser)36_storage",
						"encoding": "dynamic_array",
						"label": "struct TestInterview.RegisteredUser[]",
						"numberOfBytes": "32"
					},
					"t_array(t_uint256)dyn_storage": {
						"base": "t_uint256",
						"encoding": "dynamic_array",
						"label": "uint256[]",
						"numberOfBytes": "32"
					},
					"t_contract(INFT)375": {
						"encoding": "inplace",
						"label": "contract INFT",
						"numberOfBytes": "20"
					},
					"t_string_storage": {
						"encoding": "bytes",
						"label": "string",
						"numberOfBytes": "32"
					},
					"t_struct(Rarity)23_storage": {
						"encoding": "inplace",
						"label": "struct TestInterview.Rarity",
						"members": [
							{
								"astId": 18,
								"contract": "contracts/TestInterview.sol:TestInterview",
								"label": "name",
								"offset": 0,
								"slot": "0",
								"type": "t_string_storage"
							},
							{
								"astId": 20,
								"contract": "contracts/TestInterview.sol:TestInterview",
								"label": "min",
								"offset": 0,
								"slot": "1",
								"type": "t_uint256"
							},
							{
								"astId": 22,
								"contract": "contracts/TestInterview.sol:TestInterview",
								"label": "max",
								"offset": 0,
								"slot": "2",
								"type": "t_uint256"
							}
						],
						"numberOfBytes": "96"
					},
					"t_struct(RegisteredUser)36_storage": {
						"encoding": "inplace",
						"label": "struct TestInterview.RegisteredUser",
						"members": [
							{
								"astId": 29,
								"contract": "contracts/TestInterview.sol:TestInterview",
								"label": "userAddress",
								"offset": 0,
								"slot": "0",
								"type": "t_address"
							},
							{
								"astId": 31,
								"contract": "contracts/TestInterview.sol:TestInterview",
								"label": "counterVisited",
								"offset": 0,
								"slot": "1",
								"type": "t_uint256"
							},
							{
								"astId": 33,
								"contract": "contracts/TestInterview.sol:TestInterview",
								"label": "rarityScore",
								"offset": 0,
								"slot": "2",
								"type": "t_uint256"
							},
							{
								"astId": 35,
								"contract": "contracts/TestInterview.sol:TestInterview",
								"label": "rarityName",
								"offset": 0,
								"slot": "3",
								"type": "t_string_storage"
							}
						],
						"numberOfBytes": "128"
					},
					"t_uint256": {
						"encoding": "inplace",
						"label": "uint256",
						"numberOfBytes": "32"
					}
				}
			},
			"userdoc": {
				"kind": "user",
				"methods": {},
				"version": 1
			}
		}
	}
}