{
	"contracts/TestInterview.sol": {
		"TestInterview": {
			"abi": [
				{
					"inputs": [],
					"stateMutability": "nonpayable",
					"type": "constructor"
				},
				{
					"inputs": [],
					"name": "adminAddress",
					"outputs": [
						{
							"internalType": "address",
							"name": "",
							"type": "address"
						}
					],
					"stateMutability": "view",
					"type": "function"
				},
				{
					"inputs": [
						{
							"internalType": "uint256",
							"name": "_newLimit",
							"type": "uint256"
						}
					],
					"name": "changeGatchaLimit",
					"outputs": [],
					"stateMutability": "nonpayable",
					"type": "function"
				},
				{
					"inputs": [],
					"name": "createGatcha",
					"outputs": [],
					"stateMutability": "nonpayable",
					"type": "function"
				},
				{
					"inputs": [],
					"name": "limitGatcha",
					"outputs": [
						{
							"internalType": "uint256",
							"name": "",
							"type": "uint256"
						}
					],
					"stateMutability": "view",
					"type": "function"
				},
				{
					"inputs": [],
					"name": "ownerAddress",
					"outputs": [
						{
							"internalType": "address",
							"name": "",
							"type": "address"
						}
					],
					"stateMutability": "view",
					"type": "function"
				},
				{
					"inputs": [
						{
							"internalType": "uint256",
							"name": "",
							"type": "uint256"
						}
					],
					"name": "rarityList",
					"outputs": [
						{
							"internalType": "string",
							"name": "name",
							"type": "string"
						},
						{
							"internalType": "uint256",
							"name": "min",
							"type": "uint256"
						},
						{
							"internalType": "uint256",
							"name": "max",
							"type": "uint256"
						}
					],
					"stateMutability": "view",
					"type": "function"
				},
				{
					"inputs": [
						{
							"internalType": "uint256",
							"name": "",
							"type": "uint256"
						}
					],
					"name": "rarityUsers",
					"outputs": [
						{
							"internalType": "address",
							"name": "userAddress",
							"type": "address"
						},
						{
							"internalType": "uint256",
							"name": "rarityScore",
							"type": "uint256"
						},
						{
							"internalType": "string",
							"name": "rarityName",
							"type": "string"
						}
					],
					"stateMutability": "view",
					"type": "function"
				},
				{
					"inputs": [
						{
							"internalType": "uint256",
							"name": "",
							"type": "uint256"
						}
					],
					"name": "registeredUsers",
					"outputs": [
						{
							"internalType": "address",
							"name": "userAddress",
							"type": "address"
						},
						{
							"internalType": "uint256",
							"name": "counterVisited",
							"type": "uint256"
						}
					],
					"stateMutability": "view",
					"type": "function"
				}
			],
			"devdoc": {
				"kind": "dev",
				"methods": {},
				"version": 1
			},
			"evm": {
				"assembly": "    /* \"contracts/TestInterview.sol\":208:3667  contract TestInterview {... */\n  mstore(0x40, 0x80)\n    /* \"contracts/TestInterview.sol\":258:300  0x50C7a09925375438D2cEe94C5c59266c6fFAAf8C */\n  0x50c7a09925375438d2cee94c5c59266c6ffaaf8c\n    /* \"contracts/TestInterview.sol\":238:301  INFT objINFT = INFT(0x50C7a09925375438D2cEe94C5c59266c6fFAAf8C) */\n  0x00\n  dup1\n  0x0100\n  exp\n  dup2\n  sload\n  dup2\n  0xffffffffffffffffffffffffffffffffffffffff\n  mul\n  not\n  and\n  swap1\n  dup4\n  0xffffffffffffffffffffffffffffffffffffffff\n  and\n  mul\n  or\n  swap1\n  sstore\n  pop\n    /* \"contracts/TestInterview.sol\":338:380  0xdBDdb8575F6bda11F1DC548A1B546463CC567C3d */\n  0xdbddb8575f6bda11f1dc548a1b546463cc567c3d\n    /* \"contracts/TestInterview.sol\":308:380  address public ownerAddress = 0xdBDdb8575F6bda11F1DC548A1B546463CC567C3d */\n  0x01\n  exp(0x0100, 0x00)\n  dup2\n  sload\n  dup2\n  0xffffffffffffffffffffffffffffffffffffffff\n  mul\n  not\n  and\n  swap1\n  dup4\n  0xffffffffffffffffffffffffffffffffffffffff\n  and\n  mul\n  or\n  swap1\n  sstore\n  pop\n    /* \"contracts/TestInterview.sol\":447:448  2 */\n  0x02\n    /* \"contracts/TestInterview.sol\":421:448  uint public limitGatcha = 2 */\n  0x03\n  sstore\n    /* \"contracts/TestInterview.sol\":896:1456  constructor() {... */\n  callvalue\n  dup1\n  iszero\n  tag_1\n  jumpi\n  0x00\n  dup1\n  revert\ntag_1:\n  pop\n    /* \"contracts/TestInterview.sol\":936:946  msg.sender */\n  caller\n    /* \"contracts/TestInterview.sol\":921:933  adminAddress */\n  0x02\n  0x00\n    /* \"contracts/TestInterview.sol\":921:946  adminAddress = msg.sender */\n  0x0100\n  exp\n  dup2\n  sload\n  dup2\n  0xffffffffffffffffffffffffffffffffffffffff\n  mul\n  not\n  and\n  swap1\n  dup4\n  0xffffffffffffffffffffffffffffffffffffffff\n  and\n  mul\n  or\n  swap1\n  sstore\n  pop\n    /* \"contracts/TestInterview.sol\":957:989  string[3] memory localRarityList */\n  0x00\n    /* \"contracts/TestInterview.sol\":992:999  objINFT */\n  dup1\n  0x00\n  swap1\n  sload\n  swap1\n  0x0100\n  exp\n  swap1\n  div\n  0xffffffffffffffffffffffffffffffffffffffff\n  and\n    /* \"contracts/TestInterview.sol\":992:1013  objINFT.getRarityList */\n  0xffffffffffffffffffffffffffffffffffffffff\n  and\n  0x48441d5f\n    /* \"contracts/TestInterview.sol\":992:1015  objINFT.getRarityList() */\n  mload(0x40)\n  dup2\n  0xffffffff\n  and\n  0xe0\n  shl\n  dup2\n  mstore\n  0x04\n  add\n  0x00\n  mload(0x40)\n  dup1\n  dup4\n  sub\n  dup2\n  dup7\n  dup1\n  extcodesize\n  iszero\n  dup1\n  iszero\n  tag_4\n  jumpi\n  0x00\n  dup1\n  revert\ntag_4:\n  pop\n  gas\n  staticcall\n  iszero\n  dup1\n  iszero\n  tag_6\n  jumpi\n  returndatasize\n  0x00\n  dup1\n  returndatacopy\n  revert(0x00, returndatasize)\ntag_6:\n  pop\n  pop\n  pop\n  pop\n  mload(0x40)\n  returndatasize\n  0x00\n  dup3\n  returndatacopy\n  returndatasize\n  not(0x1f)\n  0x1f\n  dup3\n  add\n  and\n  dup3\n  add\n  dup1\n  0x40\n  mstore\n  pop\n  dup2\n  add\n  swap1\n  tag_7\n  swap2\n  swap1\n  tag_8\n  jump\t// in\ntag_7:\n    /* \"contracts/TestInterview.sol\":957:1015  string[3] memory localRarityList = objINFT.getRarityList() */\n  swap1\n  pop\n    /* \"contracts/TestInterview.sol\":1028:1044  uint256 minValue */\n  0x00\n    /* \"contracts/TestInterview.sol\":1065:1078  uint256 index */\n  dup1\n    /* \"contracts/TestInterview.sol\":1061:1449  for(uint256 index = 0; index < localRarityList.length; index++)... */\ntag_9:\n    /* \"contracts/TestInterview.sol\":1092:1114  localRarityList.length */\n  0x03\n    /* \"contracts/TestInterview.sol\":1084:1089  index */\n  dup2\n    /* \"contracts/TestInterview.sol\":1084:1114  index < localRarityList.length */\n  lt\n    /* \"contracts/TestInterview.sol\":1061:1449  for(uint256 index = 0; index < localRarityList.length; index++)... */\n  iszero\n  tag_10\n  jumpi\n    /* \"contracts/TestInterview.sol\":1149:1164  uint rarityRate */\n  0x00\n    /* \"contracts/TestInterview.sol\":1167:1174  objINFT */\n  dup1\n  0x00\n  swap1\n  sload\n  swap1\n  0x0100\n  exp\n  swap1\n  div\n  0xffffffffffffffffffffffffffffffffffffffff\n  and\n    /* \"contracts/TestInterview.sol\":1167:1188  objINFT.getRarityRate */\n  0xffffffffffffffffffffffffffffffffffffffff\n  and\n  0x278a7f33\n    /* \"contracts/TestInterview.sol\":1189:1204  localRarityList */\n  dup6\n    /* \"contracts/TestInterview.sol\":1205:1210  index */\n  dup5\n    /* \"contracts/TestInterview.sol\":1189:1211  localRarityList[index] */\n  0x03\n  dup2\n  lt\n  tag_12\n  jumpi\n  tag_13\n  tag_14\n  jump\t// in\ntag_13:\ntag_12:\n  0x20\n  mul\n  add\n  mload\n    /* \"contracts/TestInterview.sol\":1167:1212  objINFT.getRarityRate(localRarityList[index]) */\n  mload(0x40)\n  dup3\n  0xffffffff\n  and\n  0xe0\n  shl\n  dup2\n  mstore\n  0x04\n  add\n  tag_15\n  swap2\n  swap1\n  tag_16\n  jump\t// in\ntag_15:\n  0x20\n  mload(0x40)\n  dup1\n  dup4\n  sub\n  dup2\n  dup7\n  dup1\n  extcodesize\n  iszero\n  dup1\n  iszero\n  tag_17\n  jumpi\n  0x00\n  dup1\n  revert\ntag_17:\n  pop\n  gas\n  staticcall\n  iszero\n  dup1\n  iszero\n  tag_19\n  jumpi\n  returndatasize\n  0x00\n  dup1\n  returndatacopy\n  revert(0x00, returndatasize)\ntag_19:\n  pop\n  pop\n  pop\n  pop\n  mload(0x40)\n  returndatasize\n  not(0x1f)\n  0x1f\n  dup3\n  add\n  and\n  dup3\n  add\n  dup1\n  0x40\n  mstore\n  pop\n  dup2\n  add\n  swap1\n  tag_20\n  swap2\n  swap1\n  tag_21\n  jump\t// in\ntag_20:\n    /* \"contracts/TestInterview.sol\":1149:1212  uint rarityRate = objINFT.getRarityRate(localRarityList[index]) */\n  0xff\n  and\n  swap1\n  pop\n    /* \"contracts/TestInterview.sol\":1227:1237  rarityList */\n  0x04\n    /* \"contracts/TestInterview.sol\":1243:1399  Rarity({... */\n  mload(0x40)\n  dup1\n  0x60\n  add\n  0x40\n  mstore\n  dup1\n    /* \"contracts/TestInterview.sol\":1276:1291  localRarityList */\n  dup7\n    /* \"contracts/TestInterview.sol\":1292:1297  index */\n  dup6\n    /* \"contracts/TestInterview.sol\":1276:1298  localRarityList[index] */\n  0x03\n  dup2\n  lt\n  tag_22\n  jumpi\n  tag_23\n  tag_14\n  jump\t// in\ntag_23:\ntag_22:\n  0x20\n  mul\n  add\n  mload\n    /* \"contracts/TestInterview.sol\":1243:1399  Rarity({... */\n  dup2\n  mstore\n  0x20\n  add\n    /* \"contracts/TestInterview.sol\":1323:1331  minValue */\n  dup6\n    /* \"contracts/TestInterview.sol\":1243:1399  Rarity({... */\n  dup2\n  mstore\n  0x20\n  add\n    /* \"contracts/TestInterview.sol\":1382:1383  1 */\n  0x01\n    /* \"contracts/TestInterview.sol\":1368:1378  rarityRate */\n  dup5\n    /* \"contracts/TestInterview.sol\":1357:1365  minValue */\n  dup8\n    /* \"contracts/TestInterview.sol\":1357:1378  minValue + rarityRate */\n  tag_24\n  swap2\n  swap1\n  tag_25\n  jump\t// in\ntag_24:\n    /* \"contracts/TestInterview.sol\":1356:1383  (minValue + rarityRate) - 1 */\n  tag_26\n  swap2\n  swap1\n  tag_27\n  jump\t// in\ntag_26:\n    /* \"contracts/TestInterview.sol\":1243:1399  Rarity({... */\n  dup2\n  mstore\n  pop\n    /* \"contracts/TestInterview.sol\":1227:1400  rarityList.push(Rarity({... */\n  swap1\n  dup1\n  0x01\n  dup2\n  sload\n  add\n  dup1\n  dup3\n  sstore\n  dup1\n  swap2\n  pop\n  pop\n  0x01\n  swap1\n  sub\n  swap1\n  0x00\n  mstore\n  keccak256(0x00, 0x20)\n  swap1\n  0x03\n  mul\n  add\n  0x00\n  swap1\n  swap2\n  swap1\n  swap2\n  swap1\n  swap2\n  pop\n  0x00\n  dup3\n  add\n  mload\n  dup2\n  0x00\n  add\n  swap1\n  dup1\n  mload\n  swap1\n  0x20\n  add\n  swap1\n  tag_29\n  swap3\n  swap2\n  swap1\n  tag_30\n  jump\t// in\ntag_29:\n  pop\n  0x20\n  dup3\n  add\n  mload\n  dup2\n  0x01\n  add\n  sstore\n  0x40\n  dup3\n  add\n  mload\n  dup2\n  0x02\n  add\n  sstore\n  pop\n  pop\n    /* \"contracts/TestInterview.sol\":1427:1437  rarityRate */\n  dup1\n    /* \"contracts/TestInterview.sol\":1415:1437  minValue += rarityRate */\n  dup4\n  tag_31\n  swap2\n  swap1\n  tag_25\n  jump\t// in\ntag_31:\n  swap3\n  pop\n    /* \"contracts/TestInterview.sol\":1134:1449  {... */\n  pop\n    /* \"contracts/TestInterview.sol\":1116:1123  index++ */\n  dup1\n  dup1\n  tag_32\n  swap1\n  tag_33\n  jump\t// in\ntag_32:\n  swap2\n  pop\n  pop\n    /* \"contracts/TestInterview.sol\":1061:1449  for(uint256 index = 0; index < localRarityList.length; index++)... */\n  jump(tag_9)\ntag_10:\n  pop\n    /* \"contracts/TestInterview.sol\":910:1456  {... */\n  pop\n  pop\n    /* \"contracts/TestInterview.sol\":208:3667  contract TestInterview {... */\n  jump(tag_34)\ntag_30:\n  dup3\n  dup1\n  sload\n  tag_35\n  swap1\n  tag_36\n  jump\t// in\ntag_35:\n  swap1\n  0x00\n  mstore\n  keccak256(0x00, 0x20)\n  swap1\n  0x1f\n  add\n  0x20\n  swap1\n  div\n  dup2\n  add\n  swap3\n  dup3\n  tag_38\n  jumpi\n  0x00\n  dup6\n  sstore\n  jump(tag_37)\ntag_38:\n  dup3\n  0x1f\n  lt\n  tag_39\n  jumpi\n  dup1\n  mload\n  not(0xff)\n  and\n  dup4\n  dup1\n  add\n  or\n  dup6\n  sstore\n  jump(tag_37)\ntag_39:\n  dup3\n  dup1\n  add\n  0x01\n  add\n  dup6\n  sstore\n  dup3\n  iszero\n  tag_37\n  jumpi\n  swap2\n  dup3\n  add\ntag_40:\n  dup3\n  dup2\n  gt\n  iszero\n  tag_41\n  jumpi\n  dup3\n  mload\n  dup3\n  sstore\n  swap2\n  0x20\n  add\n  swap2\n  swap1\n  0x01\n  add\n  swap1\n  jump(tag_40)\ntag_41:\ntag_37:\n  pop\n  swap1\n  pop\n  tag_42\n  swap2\n  swap1\n  tag_43\n  jump\t// in\ntag_42:\n  pop\n  swap1\n  jump\t// out\ntag_43:\ntag_44:\n  dup1\n  dup3\n  gt\n  iszero\n  tag_45\n  jumpi\n  0x00\n  dup2\n  0x00\n  swap1\n  sstore\n  pop\n  0x01\n  add\n  jump(tag_44)\ntag_45:\n  pop\n  swap1\n  jump\t// out\n    /* \"#utility.yul\":7:82   */\ntag_46:\n    /* \"#utility.yul\":40:46   */\n  0x00\n    /* \"#utility.yul\":73:75   */\n  0x40\n    /* \"#utility.yul\":67:76   */\n  mload\n    /* \"#utility.yul\":57:76   */\n  swap1\n  pop\n    /* \"#utility.yul\":7:82   */\n  swap1\n  jump\t// out\n    /* \"#utility.yul\":88:205   */\ntag_47:\n    /* \"#utility.yul\":197:198   */\n  0x00\n    /* \"#utility.yul\":194:195   */\n  dup1\n    /* \"#utility.yul\":187:199   */\n  revert\n    /* \"#utility.yul\":211:328   */\ntag_48:\n    /* \"#utility.yul\":320:321   */\n  0x00\n    /* \"#utility.yul\":317:318   */\n  dup1\n    /* \"#utility.yul\":310:322   */\n  revert\n    /* \"#utility.yul\":334:451   */\ntag_49:\n    /* \"#utility.yul\":443:444   */\n  0x00\n    /* \"#utility.yul\":440:441   */\n  dup1\n    /* \"#utility.yul\":433:445   */\n  revert\n    /* \"#utility.yul\":457:559   */\ntag_50:\n    /* \"#utility.yul\":498:504   */\n  0x00\n    /* \"#utility.yul\":549:551   */\n  0x1f\n    /* \"#utility.yul\":545:552   */\n  not\n    /* \"#utility.yul\":540:542   */\n  0x1f\n    /* \"#utility.yul\":533:538   */\n  dup4\n    /* \"#utility.yul\":529:543   */\n  add\n    /* \"#utility.yul\":525:553   */\n  and\n    /* \"#utility.yul\":515:553   */\n  swap1\n  pop\n    /* \"#utility.yul\":457:559   */\n  swap2\n  swap1\n  pop\n  jump\t// out\n    /* \"#utility.yul\":565:745   */\ntag_51:\n    /* \"#utility.yul\":613:690   */\n  0x4e487b7100000000000000000000000000000000000000000000000000000000\n    /* \"#utility.yul\":610:611   */\n  0x00\n    /* \"#utility.yul\":603:691   */\n  mstore\n    /* \"#utility.yul\":710:714   */\n  0x41\n    /* \"#utility.yul\":707:708   */\n  0x04\n    /* \"#utility.yul\":700:715   */\n  mstore\n    /* \"#utility.yul\":734:738   */\n  0x24\n    /* \"#utility.yul\":731:732   */\n  0x00\n    /* \"#utility.yul\":724:739   */\n  revert\n    /* \"#utility.yul\":751:1032   */\ntag_52:\n    /* \"#utility.yul\":834:861   */\n  tag_80\n    /* \"#utility.yul\":856:860   */\n  dup3\n    /* \"#utility.yul\":834:861   */\n  tag_50\n  jump\t// in\ntag_80:\n    /* \"#utility.yul\":826:832   */\n  dup2\n    /* \"#utility.yul\":822:862   */\n  add\n    /* \"#utility.yul\":964:970   */\n  dup2\n    /* \"#utility.yul\":952:962   */\n  dup2\n    /* \"#utility.yul\":949:971   */\n  lt\n    /* \"#utility.yul\":928:946   */\n  0xffffffffffffffff\n    /* \"#utility.yul\":916:926   */\n  dup3\n    /* \"#utility.yul\":913:947   */\n  gt\n    /* \"#utility.yul\":910:972   */\n  or\n    /* \"#utility.yul\":907:995   */\n  iszero\n  tag_81\n  jumpi\n    /* \"#utility.yul\":975:993   */\n  tag_82\n  tag_51\n  jump\t// in\ntag_82:\n    /* \"#utility.yul\":907:995   */\ntag_81:\n    /* \"#utility.yul\":1015:1025   */\n  dup1\n    /* \"#utility.yul\":1011:1013   */\n  0x40\n    /* \"#utility.yul\":1004:1026   */\n  mstore\n    /* \"#utility.yul\":794:1032   */\n  pop\n    /* \"#utility.yul\":751:1032   */\n  pop\n  pop\n  jump\t// out\n    /* \"#utility.yul\":1038:1167   */\ntag_53:\n    /* \"#utility.yul\":1072:1078   */\n  0x00\n    /* \"#utility.yul\":1099:1119   */\n  tag_84\n  tag_46\n  jump\t// in\ntag_84:\n    /* \"#utility.yul\":1089:1119   */\n  swap1\n  pop\n    /* \"#utility.yul\":1128:1161   */\n  tag_85\n    /* \"#utility.yul\":1156:1160   */\n  dup3\n    /* \"#utility.yul\":1148:1154   */\n  dup3\n    /* \"#utility.yul\":1128:1161   */\n  tag_52\n  jump\t// in\ntag_85:\n    /* \"#utility.yul\":1038:1167   */\n  swap2\n  swap1\n  pop\n  jump\t// out\n    /* \"#utility.yul\":1173:1432   */\ntag_54:\n    /* \"#utility.yul\":1258:1262   */\n  0x00\n    /* \"#utility.yul\":1348:1366   */\n  0xffffffffffffffff\n    /* \"#utility.yul\":1340:1346   */\n  dup3\n    /* \"#utility.yul\":1337:1367   */\n  gt\n    /* \"#utility.yul\":1334:1390   */\n  iszero\n  tag_87\n  jumpi\n    /* \"#utility.yul\":1370:1388   */\n  tag_88\n  tag_51\n  jump\t// in\ntag_88:\n    /* \"#utility.yul\":1334:1390   */\ntag_87:\n    /* \"#utility.yul\":1420:1424   */\n  0x20\n    /* \"#utility.yul\":1412:1418   */\n  dup3\n    /* \"#utility.yul\":1408:1425   */\n  mul\n    /* \"#utility.yul\":1400:1425   */\n  swap1\n  pop\n    /* \"#utility.yul\":1173:1432   */\n  swap2\n  swap1\n  pop\n  jump\t// out\n    /* \"#utility.yul\":1438:1555   */\ntag_55:\n    /* \"#utility.yul\":1547:1548   */\n  0x00\n    /* \"#utility.yul\":1544:1545   */\n  dup1\n    /* \"#utility.yul\":1537:1549   */\n  revert\n    /* \"#utility.yul\":1561:1678   */\ntag_56:\n    /* \"#utility.yul\":1670:1671   */\n  0x00\n    /* \"#utility.yul\":1667:1668   */\n  dup1\n    /* \"#utility.yul\":1660:1672   */\n  revert\n    /* \"#utility.yul\":1684:1992   */\ntag_57:\n    /* \"#utility.yul\":1746:1750   */\n  0x00\n    /* \"#utility.yul\":1836:1854   */\n  0xffffffffffffffff\n    /* \"#utility.yul\":1828:1834   */\n  dup3\n    /* \"#utility.yul\":1825:1855   */\n  gt\n    /* \"#utility.yul\":1822:1878   */\n  iszero\n  tag_92\n  jumpi\n    /* \"#utility.yul\":1858:1876   */\n  tag_93\n  tag_51\n  jump\t// in\ntag_93:\n    /* \"#utility.yul\":1822:1878   */\ntag_92:\n    /* \"#utility.yul\":1896:1925   */\n  tag_94\n    /* \"#utility.yul\":1918:1924   */\n  dup3\n    /* \"#utility.yul\":1896:1925   */\n  tag_50\n  jump\t// in\ntag_94:\n    /* \"#utility.yul\":1888:1925   */\n  swap1\n  pop\n    /* \"#utility.yul\":1980:1984   */\n  0x20\n    /* \"#utility.yul\":1974:1978   */\n  dup2\n    /* \"#utility.yul\":1970:1985   */\n  add\n    /* \"#utility.yul\":1962:1985   */\n  swap1\n  pop\n    /* \"#utility.yul\":1684:1992   */\n  swap2\n  swap1\n  pop\n  jump\t// out\n    /* \"#utility.yul\":1998:2305   */\ntag_58:\n    /* \"#utility.yul\":2066:2067   */\n  0x00\n    /* \"#utility.yul\":2076:2189   */\ntag_96:\n    /* \"#utility.yul\":2090:2096   */\n  dup4\n    /* \"#utility.yul\":2087:2088   */\n  dup2\n    /* \"#utility.yul\":2084:2097   */\n  lt\n    /* \"#utility.yul\":2076:2189   */\n  iszero\n  tag_98\n  jumpi\n    /* \"#utility.yul\":2175:2176   */\n  dup1\n    /* \"#utility.yul\":2170:2173   */\n  dup3\n    /* \"#utility.yul\":2166:2177   */\n  add\n    /* \"#utility.yul\":2160:2178   */\n  mload\n    /* \"#utility.yul\":2156:2157   */\n  dup2\n    /* \"#utility.yul\":2151:2154   */\n  dup5\n    /* \"#utility.yul\":2147:2158   */\n  add\n    /* \"#utility.yul\":2140:2179   */\n  mstore\n    /* \"#utility.yul\":2112:2114   */\n  0x20\n    /* \"#utility.yul\":2109:2110   */\n  dup2\n    /* \"#utility.yul\":2105:2115   */\n  add\n    /* \"#utility.yul\":2100:2115   */\n  swap1\n  pop\n    /* \"#utility.yul\":2076:2189   */\n  jump(tag_96)\ntag_98:\n    /* \"#utility.yul\":2207:2213   */\n  dup4\n    /* \"#utility.yul\":2204:2205   */\n  dup2\n    /* \"#utility.yul\":2201:2214   */\n  gt\n    /* \"#utility.yul\":2198:2299   */\n  iszero\n  tag_99\n  jumpi\n    /* \"#utility.yul\":2287:2288   */\n  0x00\n    /* \"#utility.yul\":2278:2284   */\n  dup5\n    /* \"#utility.yul\":2273:2276   */\n  dup5\n    /* \"#utility.yul\":2269:2285   */\n  add\n    /* \"#utility.yul\":2262:2289   */\n  mstore\n    /* \"#utility.yul\":2198:2299   */\ntag_99:\n    /* \"#utility.yul\":2047:2305   */\n  pop\n    /* \"#utility.yul\":1998:2305   */\n  pop\n  pop\n  pop\n  jump\t// out\n    /* \"#utility.yul\":2311:2732   */\ntag_59:\n    /* \"#utility.yul\":2400:2405   */\n  0x00\n    /* \"#utility.yul\":2425:2491   */\n  tag_101\n    /* \"#utility.yul\":2441:2490   */\n  tag_102\n    /* \"#utility.yul\":2483:2489   */\n  dup5\n    /* \"#utility.yul\":2441:2490   */\n  tag_57\n  jump\t// in\ntag_102:\n    /* \"#utility.yul\":2425:2491   */\n  tag_53\n  jump\t// in\ntag_101:\n    /* \"#utility.yul\":2416:2491   */\n  swap1\n  pop\n    /* \"#utility.yul\":2514:2520   */\n  dup3\n    /* \"#utility.yul\":2507:2512   */\n  dup2\n    /* \"#utility.yul\":2500:2521   */\n  mstore\n    /* \"#utility.yul\":2552:2556   */\n  0x20\n    /* \"#utility.yul\":2545:2550   */\n  dup2\n    /* \"#utility.yul\":2541:2557   */\n  add\n    /* \"#utility.yul\":2590:2593   */\n  dup5\n    /* \"#utility.yul\":2581:2587   */\n  dup5\n    /* \"#utility.yul\":2576:2579   */\n  dup5\n    /* \"#utility.yul\":2572:2588   */\n  add\n    /* \"#utility.yul\":2569:2594   */\n  gt\n    /* \"#utility.yul\":2566:2678   */\n  iszero\n  tag_103\n  jumpi\n    /* \"#utility.yul\":2597:2676   */\n  tag_104\n  tag_56\n  jump\t// in\ntag_104:\n    /* \"#utility.yul\":2566:2678   */\ntag_103:\n    /* \"#utility.yul\":2687:2726   */\n  tag_105\n    /* \"#utility.yul\":2719:2725   */\n  dup5\n    /* \"#utility.yul\":2714:2717   */\n  dup3\n    /* \"#utility.yul\":2709:2712   */\n  dup6\n    /* \"#utility.yul\":2687:2726   */\n  tag_58\n  jump\t// in\ntag_105:\n    /* \"#utility.yul\":2406:2732   */\n  pop\n    /* \"#utility.yul\":2311:2732   */\n  swap4\n  swap3\n  pop\n  pop\n  pop\n  jump\t// out\n    /* \"#utility.yul\":2752:3107   */\ntag_60:\n    /* \"#utility.yul\":2819:2824   */\n  0x00\n    /* \"#utility.yul\":2868:2871   */\n  dup3\n    /* \"#utility.yul\":2861:2865   */\n  0x1f\n    /* \"#utility.yul\":2853:2859   */\n  dup4\n    /* \"#utility.yul\":2849:2866   */\n  add\n    /* \"#utility.yul\":2845:2872   */\n  slt\n    /* \"#utility.yul\":2835:2957   */\n  tag_107\n  jumpi\n    /* \"#utility.yul\":2876:2955   */\n  tag_108\n  tag_49\n  jump\t// in\ntag_108:\n    /* \"#utility.yul\":2835:2957   */\ntag_107:\n    /* \"#utility.yul\":2986:2992   */\n  dup2\n    /* \"#utility.yul\":2980:2993   */\n  mload\n    /* \"#utility.yul\":3011:3101   */\n  tag_109\n    /* \"#utility.yul\":3097:3100   */\n  dup5\n    /* \"#utility.yul\":3089:3095   */\n  dup3\n    /* \"#utility.yul\":3082:3086   */\n  0x20\n    /* \"#utility.yul\":3074:3080   */\n  dup7\n    /* \"#utility.yul\":3070:3087   */\n  add\n    /* \"#utility.yul\":3011:3101   */\n  tag_59\n  jump\t// in\ntag_109:\n    /* \"#utility.yul\":3002:3101   */\n  swap2\n  pop\n    /* \"#utility.yul\":2825:3107   */\n  pop\n    /* \"#utility.yul\":2752:3107   */\n  swap3\n  swap2\n  pop\n  pop\n  jump\t// out\n    /* \"#utility.yul\":3130:4023   */\ntag_61:\n    /* \"#utility.yul\":3245:3250   */\n  0x00\n    /* \"#utility.yul\":3270:3359   */\n  tag_111\n    /* \"#utility.yul\":3286:3358   */\n  tag_112\n    /* \"#utility.yul\":3351:3357   */\n  dup5\n    /* \"#utility.yul\":3286:3358   */\n  tag_54\n  jump\t// in\ntag_112:\n    /* \"#utility.yul\":3270:3359   */\n  tag_53\n  jump\t// in\ntag_111:\n    /* \"#utility.yul\":3261:3359   */\n  swap1\n  pop\n    /* \"#utility.yul\":3379:3384   */\n  dup1\n    /* \"#utility.yul\":3432:3436   */\n  0x20\n    /* \"#utility.yul\":3424:3430   */\n  dup5\n    /* \"#utility.yul\":3420:3437   */\n  mul\n    /* \"#utility.yul\":3412:3418   */\n  dup4\n    /* \"#utility.yul\":3408:3438   */\n  add\n    /* \"#utility.yul\":3461:3464   */\n  dup6\n    /* \"#utility.yul\":3453:3459   */\n  dup2\n    /* \"#utility.yul\":3450:3465   */\n  gt\n    /* \"#utility.yul\":3447:3569   */\n  iszero\n  tag_113\n  jumpi\n    /* \"#utility.yul\":3480:3559   */\n  tag_114\n  tag_55\n  jump\t// in\ntag_114:\n    /* \"#utility.yul\":3447:3569   */\ntag_113:\n    /* \"#utility.yul\":3595:3601   */\n  dup4\n    /* \"#utility.yul\":3578:4017   */\ntag_115:\n    /* \"#utility.yul\":3612:3618   */\n  dup2\n    /* \"#utility.yul\":3607:3610   */\n  dup2\n    /* \"#utility.yul\":3604:3619   */\n  lt\n    /* \"#utility.yul\":3578:4017   */\n  iszero\n  tag_117\n  jumpi\n    /* \"#utility.yul\":3694:3697   */\n  dup1\n    /* \"#utility.yul\":3688:3698   */\n  mload\n    /* \"#utility.yul\":3730:3748   */\n  0xffffffffffffffff\n    /* \"#utility.yul\":3717:3728   */\n  dup2\n    /* \"#utility.yul\":3714:3749   */\n  gt\n    /* \"#utility.yul\":3711:3833   */\n  iszero\n  tag_118\n  jumpi\n    /* \"#utility.yul\":3752:3831   */\n  tag_119\n  tag_49\n  jump\t// in\ntag_119:\n    /* \"#utility.yul\":3711:3833   */\ntag_118:\n    /* \"#utility.yul\":3876:3887   */\n  dup1\n    /* \"#utility.yul\":3868:3874   */\n  dup7\n    /* \"#utility.yul\":3864:3888   */\n  add\n    /* \"#utility.yul\":3914:3972   */\n  tag_120\n    /* \"#utility.yul\":3968:3971   */\n  dup10\n    /* \"#utility.yul\":3956:3966   */\n  dup3\n    /* \"#utility.yul\":3914:3972   */\n  tag_60\n  jump\t// in\ntag_120:\n    /* \"#utility.yul\":3909:3912   */\n  dup6\n    /* \"#utility.yul\":3902:3973   */\n  mstore\n    /* \"#utility.yul\":4002:4006   */\n  0x20\n    /* \"#utility.yul\":3997:4000   */\n  dup6\n    /* \"#utility.yul\":3993:4007   */\n  add\n    /* \"#utility.yul\":3986:4007   */\n  swap5\n  pop\n    /* \"#utility.yul\":3654:4017   */\n  pop\n  pop\n    /* \"#utility.yul\":3638:3642   */\n  0x20\n    /* \"#utility.yul\":3633:3636   */\n  dup2\n    /* \"#utility.yul\":3629:3643   */\n  add\n    /* \"#utility.yul\":3622:3643   */\n  swap1\n  pop\n    /* \"#utility.yul\":3578:4017   */\n  jump(tag_115)\ntag_117:\n    /* \"#utility.yul\":3582:3603   */\n  pop\n    /* \"#utility.yul\":3251:4023   */\n  pop\n  pop\n    /* \"#utility.yul\":3130:4023   */\n  swap4\n  swap3\n  pop\n  pop\n  pop\n  jump\t// out\n    /* \"#utility.yul\":4046:4427   */\ntag_62:\n    /* \"#utility.yul\":4136:4141   */\n  0x00\n    /* \"#utility.yul\":4185:4188   */\n  dup3\n    /* \"#utility.yul\":4178:4182   */\n  0x1f\n    /* \"#utility.yul\":4170:4176   */\n  dup4\n    /* \"#utility.yul\":4166:4183   */\n  add\n    /* \"#utility.yul\":4162:4189   */\n  slt\n    /* \"#utility.yul\":4152:4274   */\n  tag_122\n  jumpi\n    /* \"#utility.yul\":4193:4272   */\n  tag_123\n  tag_49\n  jump\t// in\ntag_123:\n    /* \"#utility.yul\":4152:4274   */\ntag_122:\n    /* \"#utility.yul\":4297:4301   */\n  0x03\n    /* \"#utility.yul\":4319:4421   */\n  tag_124\n    /* \"#utility.yul\":4417:4420   */\n  dup5\n    /* \"#utility.yul\":4409:4415   */\n  dup3\n    /* \"#utility.yul\":4401:4407   */\n  dup6\n    /* \"#utility.yul\":4319:4421   */\n  tag_61\n  jump\t// in\ntag_124:\n    /* \"#utility.yul\":4310:4421   */\n  swap2\n  pop\n    /* \"#utility.yul\":4142:4427   */\n  pop\n    /* \"#utility.yul\":4046:4427   */\n  swap3\n  swap2\n  pop\n  pop\n  jump\t// out\n    /* \"#utility.yul\":4433:5003   */\ntag_8:\n    /* \"#utility.yul\":4536:4542   */\n  0x00\n    /* \"#utility.yul\":4585:4587   */\n  0x20\n    /* \"#utility.yul\":4573:4582   */\n  dup3\n    /* \"#utility.yul\":4564:4571   */\n  dup5\n    /* \"#utility.yul\":4560:4583   */\n  sub\n    /* \"#utility.yul\":4556:4588   */\n  slt\n    /* \"#utility.yul\":4553:4672   */\n  iszero\n  tag_126\n  jumpi\n    /* \"#utility.yul\":4591:4670   */\n  tag_127\n  tag_47\n  jump\t// in\ntag_127:\n    /* \"#utility.yul\":4553:4672   */\ntag_126:\n    /* \"#utility.yul\":4732:4733   */\n  0x00\n    /* \"#utility.yul\":4721:4730   */\n  dup3\n    /* \"#utility.yul\":4717:4734   */\n  add\n    /* \"#utility.yul\":4711:4735   */\n  mload\n    /* \"#utility.yul\":4762:4780   */\n  0xffffffffffffffff\n    /* \"#utility.yul\":4754:4760   */\n  dup2\n    /* \"#utility.yul\":4751:4781   */\n  gt\n    /* \"#utility.yul\":4748:4865   */\n  iszero\n  tag_128\n  jumpi\n    /* \"#utility.yul\":4784:4863   */\n  tag_129\n  tag_48\n  jump\t// in\ntag_129:\n    /* \"#utility.yul\":4748:4865   */\ntag_128:\n    /* \"#utility.yul\":4889:4986   */\n  tag_130\n    /* \"#utility.yul\":4978:4985   */\n  dup5\n    /* \"#utility.yul\":4969:4975   */\n  dup3\n    /* \"#utility.yul\":4958:4967   */\n  dup6\n    /* \"#utility.yul\":4954:4976   */\n  add\n    /* \"#utility.yul\":4889:4986   */\n  tag_62\n  jump\t// in\ntag_130:\n    /* \"#utility.yul\":4879:4986   */\n  swap2\n  pop\n    /* \"#utility.yul\":4682:4996   */\n  pop\n    /* \"#utility.yul\":4433:5003   */\n  swap3\n  swap2\n  pop\n  pop\n  jump\t// out\n    /* \"#utility.yul\":5009:5189   */\ntag_14:\n    /* \"#utility.yul\":5057:5134   */\n  0x4e487b7100000000000000000000000000000000000000000000000000000000\n    /* \"#utility.yul\":5054:5055   */\n  0x00\n    /* \"#utility.yul\":5047:5135   */\n  mstore\n    /* \"#utility.yul\":5154:5158   */\n  0x32\n    /* \"#utility.yul\":5151:5152   */\n  0x04\n    /* \"#utility.yul\":5144:5159   */\n  mstore\n    /* \"#utility.yul\":5178:5182   */\n  0x24\n    /* \"#utility.yul\":5175:5176   */\n  0x00\n    /* \"#utility.yul\":5168:5183   */\n  revert\n    /* \"#utility.yul\":5195:5294   */\ntag_63:\n    /* \"#utility.yul\":5247:5253   */\n  0x00\n    /* \"#utility.yul\":5281:5286   */\n  dup2\n    /* \"#utility.yul\":5275:5287   */\n  mload\n    /* \"#utility.yul\":5265:5287   */\n  swap1\n  pop\n    /* \"#utility.yul\":5195:5294   */\n  swap2\n  swap1\n  pop\n  jump\t// out\n    /* \"#utility.yul\":5300:5469   */\ntag_64:\n    /* \"#utility.yul\":5384:5395   */\n  0x00\n    /* \"#utility.yul\":5418:5424   */\n  dup3\n    /* \"#utility.yul\":5413:5416   */\n  dup3\n    /* \"#utility.yul\":5406:5425   */\n  mstore\n    /* \"#utility.yul\":5458:5462   */\n  0x20\n    /* \"#utility.yul\":5453:5456   */\n  dup3\n    /* \"#utility.yul\":5449:5463   */\n  add\n    /* \"#utility.yul\":5434:5463   */\n  swap1\n  pop\n    /* \"#utility.yul\":5300:5469   */\n  swap3\n  swap2\n  pop\n  pop\n  jump\t// out\n    /* \"#utility.yul\":5475:5839   */\ntag_65:\n    /* \"#utility.yul\":5563:5566   */\n  0x00\n    /* \"#utility.yul\":5591:5630   */\n  tag_135\n    /* \"#utility.yul\":5624:5629   */\n  dup3\n    /* \"#utility.yul\":5591:5630   */\n  tag_63\n  jump\t// in\ntag_135:\n    /* \"#utility.yul\":5646:5717   */\n  tag_136\n    /* \"#utility.yul\":5710:5716   */\n  dup2\n    /* \"#utility.yul\":5705:5708   */\n  dup6\n    /* \"#utility.yul\":5646:5717   */\n  tag_64\n  jump\t// in\ntag_136:\n    /* \"#utility.yul\":5639:5717   */\n  swap4\n  pop\n    /* \"#utility.yul\":5726:5778   */\n  tag_137\n    /* \"#utility.yul\":5771:5777   */\n  dup2\n    /* \"#utility.yul\":5766:5769   */\n  dup6\n    /* \"#utility.yul\":5759:5763   */\n  0x20\n    /* \"#utility.yul\":5752:5757   */\n  dup7\n    /* \"#utility.yul\":5748:5764   */\n  add\n    /* \"#utility.yul\":5726:5778   */\n  tag_58\n  jump\t// in\ntag_137:\n    /* \"#utility.yul\":5803:5832   */\n  tag_138\n    /* \"#utility.yul\":5825:5831   */\n  dup2\n    /* \"#utility.yul\":5803:5832   */\n  tag_50\n  jump\t// in\ntag_138:\n    /* \"#utility.yul\":5798:5801   */\n  dup5\n    /* \"#utility.yul\":5794:5833   */\n  add\n    /* \"#utility.yul\":5787:5833   */\n  swap2\n  pop\n    /* \"#utility.yul\":5567:5839   */\n  pop\n    /* \"#utility.yul\":5475:5839   */\n  swap3\n  swap2\n  pop\n  pop\n  jump\t// out\n    /* \"#utility.yul\":5845:6158   */\ntag_16:\n    /* \"#utility.yul\":5958:5962   */\n  0x00\n    /* \"#utility.yul\":5996:5998   */\n  0x20\n    /* \"#utility.yul\":5985:5994   */\n  dup3\n    /* \"#utility.yul\":5981:5999   */\n  add\n    /* \"#utility.yul\":5973:5999   */\n  swap1\n  pop\n    /* \"#utility.yul\":6045:6054   */\n  dup2\n    /* \"#utility.yul\":6039:6043   */\n  dup2\n    /* \"#utility.yul\":6035:6055   */\n  sub\n    /* \"#utility.yul\":6031:6032   */\n  0x00\n    /* \"#utility.yul\":6020:6029   */\n  dup4\n    /* \"#utility.yul\":6016:6033   */\n  add\n    /* \"#utility.yul\":6009:6056   */\n  mstore\n    /* \"#utility.yul\":6073:6151   */\n  tag_140\n    /* \"#utility.yul\":6146:6150   */\n  dup2\n    /* \"#utility.yul\":6137:6143   */\n  dup5\n    /* \"#utility.yul\":6073:6151   */\n  tag_65\n  jump\t// in\ntag_140:\n    /* \"#utility.yul\":6065:6151   */\n  swap1\n  pop\n    /* \"#utility.yul\":5845:6158   */\n  swap3\n  swap2\n  pop\n  pop\n  jump\t// out\n    /* \"#utility.yul\":6164:6250   */\ntag_66:\n    /* \"#utility.yul\":6199:6206   */\n  0x00\n    /* \"#utility.yul\":6239:6243   */\n  0xff\n    /* \"#utility.yul\":6232:6237   */\n  dup3\n    /* \"#utility.yul\":6228:6244   */\n  and\n    /* \"#utility.yul\":6217:6244   */\n  swap1\n  pop\n    /* \"#utility.yul\":6164:6250   */\n  swap2\n  swap1\n  pop\n  jump\t// out\n    /* \"#utility.yul\":6256:6374   */\ntag_67:\n    /* \"#utility.yul\":6327:6349   */\n  tag_143\n    /* \"#utility.yul\":6343:6348   */\n  dup2\n    /* \"#utility.yul\":6327:6349   */\n  tag_66\n  jump\t// in\ntag_143:\n    /* \"#utility.yul\":6320:6325   */\n  dup2\n    /* \"#utility.yul\":6317:6350   */\n  eq\n    /* \"#utility.yul\":6307:6368   */\n  tag_144\n  jumpi\n    /* \"#utility.yul\":6364:6365   */\n  0x00\n    /* \"#utility.yul\":6361:6362   */\n  dup1\n    /* \"#utility.yul\":6354:6366   */\n  revert\n    /* \"#utility.yul\":6307:6368   */\ntag_144:\n    /* \"#utility.yul\":6256:6374   */\n  pop\n  jump\t// out\n    /* \"#utility.yul\":6380:6519   */\ntag_68:\n    /* \"#utility.yul\":6435:6440   */\n  0x00\n    /* \"#utility.yul\":6466:6472   */\n  dup2\n    /* \"#utility.yul\":6460:6473   */\n  mload\n    /* \"#utility.yul\":6451:6473   */\n  swap1\n  pop\n    /* \"#utility.yul\":6482:6513   */\n  tag_146\n    /* \"#utility.yul\":6507:6512   */\n  dup2\n    /* \"#utility.yul\":6482:6513   */\n  tag_67\n  jump\t// in\ntag_146:\n    /* \"#utility.yul\":6380:6519   */\n  swap3\n  swap2\n  pop\n  pop\n  jump\t// out\n    /* \"#utility.yul\":6525:6872   */\ntag_21:\n    /* \"#utility.yul\":6593:6599   */\n  0x00\n    /* \"#utility.yul\":6642:6644   */\n  0x20\n    /* \"#utility.yul\":6630:6639   */\n  dup3\n    /* \"#utility.yul\":6621:6628   */\n  dup5\n    /* \"#utility.yul\":6617:6640   */\n  sub\n    /* \"#utility.yul\":6613:6645   */\n  slt\n    /* \"#utility.yul\":6610:6729   */\n  iszero\n  tag_148\n  jumpi\n    /* \"#utility.yul\":6648:6727   */\n  tag_149\n  tag_47\n  jump\t// in\ntag_149:\n    /* \"#utility.yul\":6610:6729   */\ntag_148:\n    /* \"#utility.yul\":6768:6769   */\n  0x00\n    /* \"#utility.yul\":6793:6855   */\n  tag_150\n    /* \"#utility.yul\":6847:6854   */\n  dup5\n    /* \"#utility.yul\":6838:6844   */\n  dup3\n    /* \"#utility.yul\":6827:6836   */\n  dup6\n    /* \"#utility.yul\":6823:6845   */\n  add\n    /* \"#utility.yul\":6793:6855   */\n  tag_68\n  jump\t// in\ntag_150:\n    /* \"#utility.yul\":6783:6855   */\n  swap2\n  pop\n    /* \"#utility.yul\":6739:6865   */\n  pop\n    /* \"#utility.yul\":6525:6872   */\n  swap3\n  swap2\n  pop\n  pop\n  jump\t// out\n    /* \"#utility.yul\":6878:6955   */\ntag_69:\n    /* \"#utility.yul\":6915:6922   */\n  0x00\n    /* \"#utility.yul\":6944:6949   */\n  dup2\n    /* \"#utility.yul\":6933:6949   */\n  swap1\n  pop\n    /* \"#utility.yul\":6878:6955   */\n  swap2\n  swap1\n  pop\n  jump\t// out\n    /* \"#utility.yul\":6961:7141   */\ntag_70:\n    /* \"#utility.yul\":7009:7086   */\n  0x4e487b7100000000000000000000000000000000000000000000000000000000\n    /* \"#utility.yul\":7006:7007   */\n  0x00\n    /* \"#utility.yul\":6999:7087   */\n  mstore\n    /* \"#utility.yul\":7106:7110   */\n  0x11\n    /* \"#utility.yul\":7103:7104   */\n  0x04\n    /* \"#utility.yul\":7096:7111   */\n  mstore\n    /* \"#utility.yul\":7130:7134   */\n  0x24\n    /* \"#utility.yul\":7127:7128   */\n  0x00\n    /* \"#utility.yul\":7120:7135   */\n  revert\n    /* \"#utility.yul\":7147:7452   */\ntag_25:\n    /* \"#utility.yul\":7187:7190   */\n  0x00\n    /* \"#utility.yul\":7206:7226   */\n  tag_154\n    /* \"#utility.yul\":7224:7225   */\n  dup3\n    /* \"#utility.yul\":7206:7226   */\n  tag_69\n  jump\t// in\ntag_154:\n    /* \"#utility.yul\":7201:7226   */\n  swap2\n  pop\n    /* \"#utility.yul\":7240:7260   */\n  tag_155\n    /* \"#utility.yul\":7258:7259   */\n  dup4\n    /* \"#utility.yul\":7240:7260   */\n  tag_69\n  jump\t// in\ntag_155:\n    /* \"#utility.yul\":7235:7260   */\n  swap3\n  pop\n    /* \"#utility.yul\":7394:7395   */\n  dup3\n    /* \"#utility.yul\":7326:7392   */\n  0xffffffffffffffffffffffffffffffffffffffffffffffffffffffffffffffff\n    /* \"#utility.yul\":7322:7396   */\n  sub\n    /* \"#utility.yul\":7319:7320   */\n  dup3\n    /* \"#utility.yul\":7316:7397   */\n  gt\n    /* \"#utility.yul\":7313:7420   */\n  iszero\n  tag_156\n  jumpi\n    /* \"#utility.yul\":7400:7418   */\n  tag_157\n  tag_70\n  jump\t// in\ntag_157:\n    /* \"#utility.yul\":7313:7420   */\ntag_156:\n    /* \"#utility.yul\":7444:7445   */\n  dup3\n    /* \"#utility.yul\":7441:7442   */\n  dup3\n    /* \"#utility.yul\":7437:7446   */\n  add\n    /* \"#utility.yul\":7430:7446   */\n  swap1\n  pop\n    /* \"#utility.yul\":7147:7452   */\n  swap3\n  swap2\n  pop\n  pop\n  jump\t// out\n    /* \"#utility.yul\":7458:7649   */\ntag_27:\n    /* \"#utility.yul\":7498:7502   */\n  0x00\n    /* \"#utility.yul\":7518:7538   */\n  tag_159\n    /* \"#utility.yul\":7536:7537   */\n  dup3\n    /* \"#utility.yul\":7518:7538   */\n  tag_69\n  jump\t// in\ntag_159:\n    /* \"#utility.yul\":7513:7538   */\n  swap2\n  pop\n    /* \"#utility.yul\":7552:7572   */\n  tag_160\n    /* \"#utility.yul\":7570:7571   */\n  dup4\n    /* \"#utility.yul\":7552:7572   */\n  tag_69\n  jump\t// in\ntag_160:\n    /* \"#utility.yul\":7547:7572   */\n  swap3\n  pop\n    /* \"#utility.yul\":7591:7592   */\n  dup3\n    /* \"#utility.yul\":7588:7589   */\n  dup3\n    /* \"#utility.yul\":7585:7593   */\n  lt\n    /* \"#utility.yul\":7582:7616   */\n  iszero\n  tag_161\n  jumpi\n    /* \"#utility.yul\":7596:7614   */\n  tag_162\n  tag_70\n  jump\t// in\ntag_162:\n    /* \"#utility.yul\":7582:7616   */\ntag_161:\n    /* \"#utility.yul\":7641:7642   */\n  dup3\n    /* \"#utility.yul\":7638:7639   */\n  dup3\n    /* \"#utility.yul\":7634:7643   */\n  sub\n    /* \"#utility.yul\":7626:7643   */\n  swap1\n  pop\n    /* \"#utility.yul\":7458:7649   */\n  swap3\n  swap2\n  pop\n  pop\n  jump\t// out\n    /* \"#utility.yul\":7655:7888   */\ntag_33:\n    /* \"#utility.yul\":7694:7697   */\n  0x00\n    /* \"#utility.yul\":7717:7741   */\n  tag_164\n    /* \"#utility.yul\":7735:7740   */\n  dup3\n    /* \"#utility.yul\":7717:7741   */\n  tag_69\n  jump\t// in\ntag_164:\n    /* \"#utility.yul\":7708:7741   */\n  swap2\n  pop\n    /* \"#utility.yul\":7763:7829   */\n  0xffffffffffffffffffffffffffffffffffffffffffffffffffffffffffffffff\n    /* \"#utility.yul\":7756:7761   */\n  dup3\n    /* \"#utility.yul\":7753:7830   */\n  eq\n    /* \"#utility.yul\":7750:7853   */\n  iszero\n  tag_165\n  jumpi\n    /* \"#utility.yul\":7833:7851   */\n  tag_166\n  tag_70\n  jump\t// in\ntag_166:\n    /* \"#utility.yul\":7750:7853   */\ntag_165:\n    /* \"#utility.yul\":7880:7881   */\n  0x01\n    /* \"#utility.yul\":7873:7878   */\n  dup3\n    /* \"#utility.yul\":7869:7882   */\n  add\n    /* \"#utility.yul\":7862:7882   */\n  swap1\n  pop\n    /* \"#utility.yul\":7655:7888   */\n  swap2\n  swap1\n  pop\n  jump\t// out\n    /* \"#utility.yul\":7894:8074   */\ntag_71:\n    /* \"#utility.yul\":7942:8019   */\n  0x4e487b7100000000000000000000000000000000000000000000000000000000\n    /* \"#utility.yul\":7939:7940   */\n  0x00\n    /* \"#utility.yul\":7932:8020   */\n  mstore\n    /* \"#utility.yul\":8039:8043   */\n  0x22\n    /* \"#utility.yul\":8036:8037   */\n  0x04\n    /* \"#utility.yul\":8029:8044   */\n  mstore\n    /* \"#utility.yul\":8063:8067   */\n  0x24\n    /* \"#utility.yul\":8060:8061   */\n  0x00\n    /* \"#utility.yul\":8053:8068   */\n  revert\n    /* \"#utility.yul\":8080:8400   */\ntag_36:\n    /* \"#utility.yul\":8124:8130   */\n  0x00\n    /* \"#utility.yul\":8161:8162   */\n  0x02\n    /* \"#utility.yul\":8155:8159   */\n  dup3\n    /* \"#utility.yul\":8151:8163   */\n  div\n    /* \"#utility.yul\":8141:8163   */\n  swap1\n  pop\n    /* \"#utility.yul\":8208:8209   */\n  0x01\n    /* \"#utility.yul\":8202:8206   */\n  dup3\n    /* \"#utility.yul\":8198:8210   */\n  and\n    /* \"#utility.yul\":8229:8247   */\n  dup1\n    /* \"#utility.yul\":8219:8300   */\n  tag_169\n  jumpi\n    /* \"#utility.yul\":8285:8289   */\n  0x7f\n    /* \"#utility.yul\":8277:8283   */\n  dup3\n    /* \"#utility.yul\":8273:8290   */\n  and\n    /* \"#utility.yul\":8263:8290   */\n  swap2\n  pop\n    /* \"#utility.yul\":8219:8300   */\ntag_169:\n    /* \"#utility.yul\":8347:8349   */\n  0x20\n    /* \"#utility.yul\":8339:8345   */\n  dup3\n    /* \"#utility.yul\":8336:8350   */\n  lt\n    /* \"#utility.yul\":8316:8334   */\n  dup2\n    /* \"#utility.yul\":8313:8351   */\n  eq\n    /* \"#utility.yul\":8310:8394   */\n  iszero\n  tag_170\n  jumpi\n    /* \"#utility.yul\":8366:8384   */\n  tag_171\n  tag_71\n  jump\t// in\ntag_171:\n    /* \"#utility.yul\":8310:8394   */\ntag_170:\n    /* \"#utility.yul\":8131:8400   */\n  pop\n    /* \"#utility.yul\":8080:8400   */\n  swap2\n  swap1\n  pop\n  jump\t// out\n    /* \"contracts/TestInterview.sol\":208:3667  contract TestInterview {... */\ntag_34:\n  dataSize(sub_0)\n  dup1\n  dataOffset(sub_0)\n  0x00\n  codecopy\n  0x00\n  return\nstop\n\nsub_0: assembly {\n        /* \"contracts/TestInterview.sol\":208:3667  contract TestInterview {... */\n      mstore(0x40, 0x80)\n      callvalue\n      dup1\n      iszero\n      tag_1\n      jumpi\n      0x00\n      dup1\n      revert\n    tag_1:\n      pop\n      jumpi(tag_2, lt(calldatasize, 0x04))\n      shr(0xe0, calldataload(0x00))\n      dup1\n      0xc15d3ead\n      gt\n      tag_11\n      jumpi\n      dup1\n      0xc15d3ead\n      eq\n      tag_7\n      jumpi\n      dup1\n      0xd1a35ef2\n      eq\n      tag_8\n      jumpi\n      dup1\n      0xe917ec96\n      eq\n      tag_9\n      jumpi\n      dup1\n      0xfc6f9468\n      eq\n      tag_10\n      jumpi\n      jump(tag_2)\n    tag_11:\n      dup1\n      0x06cd309b\n      eq\n      tag_3\n      jumpi\n      dup1\n      0x6fd3d9e2\n      eq\n      tag_4\n      jumpi\n      dup1\n      0x7259e0f8\n      eq\n      tag_5\n      jumpi\n      dup1\n      0x8f84aa09\n      eq\n      tag_6\n      jumpi\n    tag_2:\n      0x00\n      dup1\n      revert\n        /* \"contracts/TestInterview.sol\":421:448  uint public limitGatcha = 2 */\n    tag_3:\n      tag_12\n      tag_13\n      jump\t// in\n    tag_12:\n      mload(0x40)\n      tag_14\n      swap2\n      swap1\n      tag_15\n      jump\t// in\n    tag_14:\n      mload(0x40)\n      dup1\n      swap2\n      sub\n      swap1\n      return\n        /* \"contracts/TestInterview.sol\":553:579  Rarity[] public rarityList */\n    tag_4:\n      tag_16\n      0x04\n      dup1\n      calldatasize\n      sub\n      dup2\n      add\n      swap1\n      tag_17\n      swap2\n      swap1\n      tag_18\n      jump\t// in\n    tag_17:\n      tag_19\n      jump\t// in\n    tag_16:\n      mload(0x40)\n      tag_20\n      swap4\n      swap3\n      swap2\n      swap1\n      tag_21\n      jump\t// in\n    tag_20:\n      mload(0x40)\n      dup1\n      swap2\n      sub\n      swap1\n      return\n        /* \"contracts/TestInterview.sol\":810:849  RegisteredUser[] public registeredUsers */\n    tag_5:\n      tag_22\n      0x04\n      dup1\n      calldatasize\n      sub\n      dup2\n      add\n      swap1\n      tag_23\n      swap2\n      swap1\n      tag_18\n      jump\t// in\n    tag_23:\n      tag_24\n      jump\t// in\n    tag_22:\n      mload(0x40)\n      tag_25\n      swap3\n      swap2\n      swap1\n      tag_26\n      jump\t// in\n    tag_25:\n      mload(0x40)\n      dup1\n      swap2\n      sub\n      swap1\n      return\n        /* \"contracts/TestInterview.sol\":308:380  address public ownerAddress = 0xdBDdb8575F6bda11F1DC548A1B546463CC567C3d */\n    tag_6:\n      tag_27\n      tag_28\n      jump\t// in\n    tag_27:\n      mload(0x40)\n      tag_29\n      swap2\n      swap1\n      tag_30\n      jump\t// in\n    tag_29:\n      mload(0x40)\n      dup1\n      swap2\n      sub\n      swap1\n      return\n        /* \"contracts/TestInterview.sol\":3459:3660  function changeGatchaLimit(uint256 _newLimit) public {... */\n    tag_7:\n      tag_31\n      0x04\n      dup1\n      calldatasize\n      sub\n      dup2\n      add\n      swap1\n      tag_32\n      swap2\n      swap1\n      tag_18\n      jump\t// in\n    tag_32:\n      tag_33\n      jump\t// in\n    tag_31:\n      stop\n        /* \"contracts/TestInterview.sol\":856:887  RarityUser[] public rarityUsers */\n    tag_8:\n      tag_34\n      0x04\n      dup1\n      calldatasize\n      sub\n      dup2\n      add\n      swap1\n      tag_35\n      swap2\n      swap1\n      tag_18\n      jump\t// in\n    tag_35:\n      tag_36\n      jump\t// in\n    tag_34:\n      mload(0x40)\n      tag_37\n      swap4\n      swap3\n      swap2\n      swap1\n      tag_38\n      jump\t// in\n    tag_37:\n      mload(0x40)\n      dup1\n      swap2\n      sub\n      swap1\n      return\n        /* \"contracts/TestInterview.sol\":2227:2577  function createGatcha () public {... */\n    tag_9:\n      tag_39\n      tag_40\n      jump\t// in\n    tag_39:\n      stop\n        /* \"contracts/TestInterview.sol\":387:414  address public adminAddress */\n    tag_10:\n      tag_41\n      tag_42\n      jump\t// in\n    tag_41:\n      mload(0x40)\n      tag_43\n      swap2\n      swap1\n      tag_30\n      jump\t// in\n    tag_43:\n      mload(0x40)\n      dup1\n      swap2\n      sub\n      swap1\n      return\n        /* \"contracts/TestInterview.sol\":421:448  uint public limitGatcha = 2 */\n    tag_13:\n      sload(0x03)\n      dup2\n      jump\t// out\n        /* \"contracts/TestInterview.sol\":553:579  Rarity[] public rarityList */\n    tag_19:\n      0x04\n      dup2\n      dup2\n      sload\n      dup2\n      lt\n      tag_44\n      jumpi\n      0x00\n      dup1\n      revert\n    tag_44:\n      swap1\n      0x00\n      mstore\n      keccak256(0x00, 0x20)\n      swap1\n      0x03\n      mul\n      add\n      0x00\n      swap2\n      pop\n      swap1\n      pop\n      dup1\n      0x00\n      add\n      dup1\n      sload\n      tag_46\n      swap1\n      tag_47\n      jump\t// in\n    tag_46:\n      dup1\n      0x1f\n      add\n      0x20\n      dup1\n      swap2\n      div\n      mul\n      0x20\n      add\n      mload(0x40)\n      swap1\n      dup2\n      add\n      0x40\n      mstore\n      dup1\n      swap3\n      swap2\n      swap1\n      dup2\n      dup2\n      mstore\n      0x20\n      add\n      dup3\n      dup1\n      sload\n      tag_48\n      swap1\n      tag_47\n      jump\t// in\n    tag_48:\n      dup1\n      iszero\n      tag_49\n      jumpi\n      dup1\n      0x1f\n      lt\n      tag_50\n      jumpi\n      0x0100\n      dup1\n      dup4\n      sload\n      div\n      mul\n      dup4\n      mstore\n      swap2\n      0x20\n      add\n      swap2\n      jump(tag_49)\n    tag_50:\n      dup3\n      add\n      swap2\n      swap1\n      0x00\n      mstore\n      keccak256(0x00, 0x20)\n      swap1\n    tag_51:\n      dup2\n      sload\n      dup2\n      mstore\n      swap1\n      0x01\n      add\n      swap1\n      0x20\n      add\n      dup1\n      dup4\n      gt\n      tag_51\n      jumpi\n      dup3\n      swap1\n      sub\n      0x1f\n      and\n      dup3\n      add\n      swap2\n    tag_49:\n      pop\n      pop\n      pop\n      pop\n      pop\n      swap1\n      dup1\n      0x01\n      add\n      sload\n      swap1\n      dup1\n      0x02\n      add\n      sload\n      swap1\n      pop\n      dup4\n      jump\t// out\n        /* \"contracts/TestInterview.sol\":810:849  RegisteredUser[] public registeredUsers */\n    tag_24:\n      0x05\n      dup2\n      dup2\n      sload\n      dup2\n      lt\n      tag_52\n      jumpi\n      0x00\n      dup1\n      revert\n    tag_52:\n      swap1\n      0x00\n      mstore\n      keccak256(0x00, 0x20)\n      swap1\n      0x02\n      mul\n      add\n      0x00\n      swap2\n      pop\n      swap1\n      pop\n      dup1\n      0x00\n      add\n      0x00\n      swap1\n      sload\n      swap1\n      0x0100\n      exp\n      swap1\n      div\n      0xffffffffffffffffffffffffffffffffffffffff\n      and\n      swap1\n      dup1\n      0x01\n      add\n      sload\n      swap1\n      pop\n      dup3\n      jump\t// out\n        /* \"contracts/TestInterview.sol\":308:380  address public ownerAddress = 0xdBDdb8575F6bda11F1DC548A1B546463CC567C3d */\n    tag_28:\n      0x01\n      0x00\n      swap1\n      sload\n      swap1\n      0x0100\n      exp\n      swap1\n      div\n      0xffffffffffffffffffffffffffffffffffffffff\n      and\n      dup2\n      jump\t// out\n        /* \"contracts/TestInterview.sol\":3459:3660  function changeGatchaLimit(uint256 _newLimit) public {... */\n    tag_33:\n        /* \"contracts/TestInterview.sol\":3545:3557  adminAddress */\n      0x02\n      0x00\n      swap1\n      sload\n      swap1\n      0x0100\n      exp\n      swap1\n      div\n      0xffffffffffffffffffffffffffffffffffffffff\n      and\n        /* \"contracts/TestInterview.sol\":3531:3557  msg.sender == adminAddress */\n      0xffffffffffffffffffffffffffffffffffffffff\n      and\n        /* \"contracts/TestInterview.sol\":3531:3541  msg.sender */\n      caller\n        /* \"contracts/TestInterview.sol\":3531:3557  msg.sender == adminAddress */\n      0xffffffffffffffffffffffffffffffffffffffff\n      and\n      eq\n        /* \"contracts/TestInterview.sol\":3531:3587  msg.sender == adminAddress || msg.sender == ownerAddress */\n      dup1\n      tag_55\n      jumpi\n      pop\n        /* \"contracts/TestInterview.sol\":3575:3587  ownerAddress */\n      0x01\n      0x00\n      swap1\n      sload\n      swap1\n      0x0100\n      exp\n      swap1\n      div\n      0xffffffffffffffffffffffffffffffffffffffff\n      and\n        /* \"contracts/TestInterview.sol\":3561:3587  msg.sender == ownerAddress */\n      0xffffffffffffffffffffffffffffffffffffffff\n      and\n        /* \"contracts/TestInterview.sol\":3561:3571  msg.sender */\n      caller\n        /* \"contracts/TestInterview.sol\":3561:3587  msg.sender == ownerAddress */\n      0xffffffffffffffffffffffffffffffffffffffff\n      and\n      eq\n        /* \"contracts/TestInterview.sol\":3531:3587  msg.sender == adminAddress || msg.sender == ownerAddress */\n    tag_55:\n        /* \"contracts/TestInterview.sol\":3523:3618  require(msg.sender == adminAddress || msg.sender == ownerAddress, \"Not Authorized, Admin Only\") */\n      tag_56\n      jumpi\n      mload(0x40)\n      0x08c379a000000000000000000000000000000000000000000000000000000000\n      dup2\n      mstore\n      0x04\n      add\n      tag_57\n      swap1\n      tag_58\n      jump\t// in\n    tag_57:\n      mload(0x40)\n      dup1\n      swap2\n      sub\n      swap1\n      revert\n    tag_56:\n        /* \"contracts/TestInterview.sol\":3643:3652  _newLimit */\n      dup1\n        /* \"contracts/TestInterview.sol\":3629:3640  limitGatcha */\n      0x03\n        /* \"contracts/TestInterview.sol\":3629:3652  limitGatcha = _newLimit */\n      dup2\n      swap1\n      sstore\n      pop\n        /* \"contracts/TestInterview.sol\":3459:3660  function changeGatchaLimit(uint256 _newLimit) public {... */\n      pop\n      jump\t// out\n        /* \"contracts/TestInterview.sol\":856:887  RarityUser[] public rarityUsers */\n    tag_36:\n      0x06\n      dup2\n      dup2\n      sload\n      dup2\n      lt\n      tag_59\n      jumpi\n      0x00\n      dup1\n      revert\n    tag_59:\n      swap1\n      0x00\n      mstore\n      keccak256(0x00, 0x20)\n      swap1\n      0x03\n      mul\n      add\n      0x00\n      swap2\n      pop\n      swap1\n      pop\n      dup1\n      0x00\n      add\n      0x00\n      swap1\n      sload\n      swap1\n      0x0100\n      exp\n      swap1\n      div\n      0xffffffffffffffffffffffffffffffffffffffff\n      and\n      swap1\n      dup1\n      0x01\n      add\n      sload\n      swap1\n      dup1\n      0x02\n      add\n      dup1\n      sload\n      tag_61\n      swap1\n      tag_47\n      jump\t// in\n    tag_61:\n      dup1\n      0x1f\n      add\n      0x20\n      dup1\n      swap2\n      div\n      mul\n      0x20\n      add\n      mload(0x40)\n      swap1\n      dup2\n      add\n      0x40\n      mstore\n      dup1\n      swap3\n      swap2\n      swap1\n      dup2\n      dup2\n      mstore\n      0x20\n      add\n      dup3\n      dup1\n      sload\n      tag_62\n      swap1\n      tag_47\n      jump\t// in\n    tag_62:\n      dup1\n      iszero\n      tag_63\n      jumpi\n      dup1\n      0x1f\n      lt\n      tag_64\n      jumpi\n      0x0100\n      dup1\n      dup4\n      sload\n      div\n      mul\n      dup4\n      mstore\n      swap2\n      0x20\n      add\n      swap2\n      jump(tag_63)\n    tag_64:\n      dup3\n      add\n      swap2\n      swap1\n      0x00\n      mstore\n      keccak256(0x00, 0x20)\n      swap1\n    tag_65:\n      dup2\n      sload\n      dup2\n      mstore\n      swap1\n      0x01\n      add\n      swap1\n      0x20\n      add\n      dup1\n      dup4\n      gt\n      tag_65\n      jumpi\n      dup3\n      swap1\n      sub\n      0x1f\n      and\n      dup3\n      add\n      swap2\n    tag_63:\n      pop\n      pop\n      pop\n      pop\n      pop\n      swap1\n      pop\n      dup4\n      jump\t// out\n        /* \"contracts/TestInterview.sol\":2227:2577  function createGatcha () public {... */\n    tag_40:\n        /* \"contracts/TestInterview.sol\":2270:2289  uint256 rarityScore */\n      0x00\n        /* \"contracts/TestInterview.sol\":2292:2313  generateRarityScore() */\n      tag_67\n        /* \"contracts/TestInterview.sol\":2292:2311  generateRarityScore */\n      tag_68\n        /* \"contracts/TestInterview.sol\":2292:2313  generateRarityScore() */\n      jump\t// in\n    tag_67:\n        /* \"contracts/TestInterview.sol\":2270:2313  uint256 rarityScore = generateRarityScore() */\n      swap1\n      pop\n        /* \"contracts/TestInterview.sol\":2324:2348  string memory rarityName */\n      0x00\n        /* \"contracts/TestInterview.sol\":2351:2377  getRarityName(rarityScore) */\n      tag_69\n        /* \"contracts/TestInterview.sol\":2365:2376  rarityScore */\n      dup3\n        /* \"contracts/TestInterview.sol\":2351:2364  getRarityName */\n      tag_70\n        /* \"contracts/TestInterview.sol\":2351:2377  getRarityName(rarityScore) */\n      jump\t// in\n    tag_69:\n        /* \"contracts/TestInterview.sol\":2324:2377  string memory rarityName = getRarityName(rarityScore) */\n      swap1\n      pop\n        /* \"contracts/TestInterview.sol\":2390:2423  RegisteredUser memory newRegister */\n      0x00\n        /* \"contracts/TestInterview.sol\":2426:2525  RegisteredUser({... */\n      mload(0x40)\n      dup1\n      0x40\n      add\n      0x40\n      mstore\n      dup1\n        /* \"contracts/TestInterview.sol\":2470:2480  msg.sender */\n      caller\n        /* \"contracts/TestInterview.sol\":2426:2525  RegisteredUser({... */\n      0xffffffffffffffffffffffffffffffffffffffff\n      and\n      dup2\n      mstore\n      0x20\n      add\n        /* \"contracts/TestInterview.sol\":2512:2513  1 */\n      0x01\n        /* \"contracts/TestInterview.sol\":2426:2525  RegisteredUser({... */\n      dup2\n      mstore\n      pop\n        /* \"contracts/TestInterview.sol\":2390:2525  RegisteredUser memory newRegister = RegisteredUser({... */\n      swap1\n      pop\n        /* \"contracts/TestInterview.sol\":2536:2551  registeredUsers */\n      0x05\n        /* \"contracts/TestInterview.sol\":2557:2568  newRegister */\n      dup2\n        /* \"contracts/TestInterview.sol\":2536:2569  registeredUsers.push(newRegister) */\n      swap1\n      dup1\n      0x01\n      dup2\n      sload\n      add\n      dup1\n      dup3\n      sstore\n      dup1\n      swap2\n      pop\n      pop\n      0x01\n      swap1\n      sub\n      swap1\n      0x00\n      mstore\n      keccak256(0x00, 0x20)\n      swap1\n      0x02\n      mul\n      add\n      0x00\n      swap1\n      swap2\n      swap1\n      swap2\n      swap1\n      swap2\n      pop\n      0x00\n      dup3\n      add\n      mload\n      dup2\n      0x00\n      add\n      exp(0x0100, 0x00)\n      dup2\n      sload\n      dup2\n      0xffffffffffffffffffffffffffffffffffffffff\n      mul\n      not\n      and\n      swap1\n      dup4\n      0xffffffffffffffffffffffffffffffffffffffff\n      and\n      mul\n      or\n      swap1\n      sstore\n      pop\n      0x20\n      dup3\n      add\n      mload\n      dup2\n      0x01\n      add\n      sstore\n      pop\n      pop\n        /* \"contracts/TestInterview.sol\":2259:2577  {... */\n      pop\n      pop\n      pop\n        /* \"contracts/TestInterview.sol\":2227:2577  function createGatcha () public {... */\n      jump\t// out\n        /* \"contracts/TestInterview.sol\":387:414  address public adminAddress */\n    tag_42:\n      0x02\n      0x00\n      swap1\n      sload\n      swap1\n      0x0100\n      exp\n      swap1\n      div\n      0xffffffffffffffffffffffffffffffffffffffff\n      and\n      dup2\n      jump\t// out\n        /* \"contracts/TestInterview.sol\":1464:1686  function generateRarityScore() private view returns(uint256){... */\n    tag_68:\n        /* \"contracts/TestInterview.sol\":1516:1523  uint256 */\n      0x00\n        /* \"contracts/TestInterview.sol\":1535:1557  uint256 selectedNumber */\n      dup1\n        /* \"contracts/TestInterview.sol\":1643:1646  100 */\n      0x64\n        /* \"contracts/TestInterview.sol\":1592:1602  msg.sender */\n      caller\n        /* \"contracts/TestInterview.sol\":1604:1619  block.timestamp */\n      timestamp\n        /* \"contracts/TestInterview.sol\":1621:1637  block.difficulty */\n      difficulty\n        /* \"contracts/TestInterview.sol\":1575:1638  abi.encodePacked(msg.sender, block.timestamp, block.difficulty) */\n      add(0x20, mload(0x40))\n      tag_73\n      swap4\n      swap3\n      swap2\n      swap1\n      tag_74\n      jump\t// in\n    tag_73:\n      mload(0x40)\n      0x20\n      dup2\n      dup4\n      sub\n      sub\n      dup2\n      mstore\n      swap1\n      0x40\n      mstore\n        /* \"contracts/TestInterview.sol\":1565:1639  keccak256(abi.encodePacked(msg.sender, block.timestamp, block.difficulty)) */\n      dup1\n      mload\n      swap1\n      0x20\n      add\n      keccak256\n        /* \"contracts/TestInterview.sol\":1560:1640  uint(keccak256(abi.encodePacked(msg.sender, block.timestamp, block.difficulty))) */\n      0x00\n      shr\n        /* \"contracts/TestInterview.sol\":1560:1646  uint(keccak256(abi.encodePacked(msg.sender, block.timestamp, block.difficulty))) % 100 */\n      tag_75\n      swap2\n      swap1\n      tag_76\n      jump\t// in\n    tag_75:\n        /* \"contracts/TestInterview.sol\":1535:1646  uint256 selectedNumber = uint(keccak256(abi.encodePacked(msg.sender, block.timestamp, block.difficulty))) % 100 */\n      swap1\n      pop\n        /* \"contracts/TestInterview.sol\":1664:1678  selectedNumber */\n      dup1\n        /* \"contracts/TestInterview.sol\":1657:1678  return selectedNumber */\n      swap2\n      pop\n      pop\n        /* \"contracts/TestInterview.sol\":1464:1686  function generateRarityScore() private view returns(uint256){... */\n      swap1\n      jump\t// out\n        /* \"contracts/TestInterview.sol\":1694:2151  function getRarityName(uint256 _score) private view returns(string memory ) {... */\n    tag_70:\n        /* \"contracts/TestInterview.sol\":1754:1767  string memory */\n      0x60\n        /* \"contracts/TestInterview.sol\":1781:1793  bool isFound */\n      0x00\n        /* \"contracts/TestInterview.sol\":1812:1825  uint256 index */\n      dup1\n        /* \"contracts/TestInterview.sol\":1840:2115  while(!isFound && index < rarityList.length) {... */\n    tag_78:\n        /* \"contracts/TestInterview.sol\":1847:1854  isFound */\n      dup2\n        /* \"contracts/TestInterview.sol\":1846:1854  !isFound */\n      iszero\n        /* \"contracts/TestInterview.sol\":1846:1883  !isFound && index < rarityList.length */\n      dup1\n      iszero\n      tag_80\n      jumpi\n      pop\n        /* \"contracts/TestInterview.sol\":1866:1876  rarityList */\n      0x04\n        /* \"contracts/TestInterview.sol\":1866:1883  rarityList.length */\n      dup1\n      sload\n      swap1\n      pop\n        /* \"contracts/TestInterview.sol\":1858:1863  index */\n      dup2\n        /* \"contracts/TestInterview.sol\":1858:1883  index < rarityList.length */\n      lt\n        /* \"contracts/TestInterview.sol\":1846:1883  !isFound && index < rarityList.length */\n    tag_80:\n        /* \"contracts/TestInterview.sol\":1840:2115  while(!isFound && index < rarityList.length) {... */\n      iszero\n      tag_79\n      jumpi\n        /* \"contracts/TestInterview.sol\":1913:1923  rarityList */\n      0x04\n        /* \"contracts/TestInterview.sol\":1924:1929  index */\n      dup2\n        /* \"contracts/TestInterview.sol\":1913:1930  rarityList[index] */\n      dup2\n      sload\n      dup2\n      lt\n      tag_81\n      jumpi\n      tag_82\n      tag_83\n      jump\t// in\n    tag_82:\n    tag_81:\n      swap1\n      0x00\n      mstore\n      keccak256(0x00, 0x20)\n      swap1\n      0x03\n      mul\n      add\n        /* \"contracts/TestInterview.sol\":1913:1934  rarityList[index].min */\n      0x01\n      add\n      sload\n        /* \"contracts/TestInterview.sol\":1903:1909  _score */\n      dup5\n        /* \"contracts/TestInterview.sol\":1903:1934  _score >= rarityList[index].min */\n      lt\n      iszero\n        /* \"contracts/TestInterview.sol\":1903:1969  _score >= rarityList[index].min && _score <= rarityList[index].max */\n      dup1\n      iszero\n      tag_85\n      jumpi\n      pop\n        /* \"contracts/TestInterview.sol\":1948:1958  rarityList */\n      0x04\n        /* \"contracts/TestInterview.sol\":1959:1964  index */\n      dup2\n        /* \"contracts/TestInterview.sol\":1948:1965  rarityList[index] */\n      dup2\n      sload\n      dup2\n      lt\n      tag_86\n      jumpi\n      tag_87\n      tag_83\n      jump\t// in\n    tag_87:\n    tag_86:\n      swap1\n      0x00\n      mstore\n      keccak256(0x00, 0x20)\n      swap1\n      0x03\n      mul\n      add\n        /* \"contracts/TestInterview.sol\":1948:1969  rarityList[index].max */\n      0x02\n      add\n      sload\n        /* \"contracts/TestInterview.sol\":1938:1944  _score */\n      dup5\n        /* \"contracts/TestInterview.sol\":1938:1969  _score <= rarityList[index].max */\n      gt\n      iszero\n        /* \"contracts/TestInterview.sol\":1903:1969  _score >= rarityList[index].min && _score <= rarityList[index].max */\n    tag_85:\n        /* \"contracts/TestInterview.sol\":1900:2081  if(_score >= rarityList[index].min && _score <= rarityList[index].max)... */\n      iszero\n      tag_89\n      jumpi\n        /* \"contracts/TestInterview.sol\":2013:2017  true */\n      0x01\n        /* \"contracts/TestInterview.sol\":2003:2017  isFound = true */\n      swap2\n      pop\n        /* \"contracts/TestInterview.sol\":2043:2053  rarityList */\n      0x04\n        /* \"contracts/TestInterview.sol\":2054:2059  index */\n      dup2\n        /* \"contracts/TestInterview.sol\":2043:2060  rarityList[index] */\n      dup2\n      sload\n      dup2\n      lt\n      tag_90\n      jumpi\n      tag_91\n      tag_83\n      jump\t// in\n    tag_91:\n    tag_90:\n      swap1\n      0x00\n      mstore\n      keccak256(0x00, 0x20)\n      swap1\n      0x03\n      mul\n      add\n        /* \"contracts/TestInterview.sol\":2043:2065  rarityList[index].name */\n      0x00\n      add\n        /* \"contracts/TestInterview.sol\":2036:2065  return rarityList[index].name */\n      dup1\n      sload\n      tag_93\n      swap1\n      tag_47\n      jump\t// in\n    tag_93:\n      dup1\n      0x1f\n      add\n      0x20\n      dup1\n      swap2\n      div\n      mul\n      0x20\n      add\n      mload(0x40)\n      swap1\n      dup2\n      add\n      0x40\n      mstore\n      dup1\n      swap3\n      swap2\n      swap1\n      dup2\n      dup2\n      mstore\n      0x20\n      add\n      dup3\n      dup1\n      sload\n      tag_94\n      swap1\n      tag_47\n      jump\t// in\n    tag_94:\n      dup1\n      iszero\n      tag_95\n      jumpi\n      dup1\n      0x1f\n      lt\n      tag_96\n      jumpi\n      0x0100\n      dup1\n      dup4\n      sload\n      div\n      mul\n      dup4\n      mstore\n      swap2\n      0x20\n      add\n      swap2\n      jump(tag_95)\n    tag_96:\n      dup3\n      add\n      swap2\n      swap1\n      0x00\n      mstore\n      keccak256(0x00, 0x20)\n      swap1\n    tag_97:\n      dup2\n      sload\n      dup2\n      mstore\n      swap1\n      0x01\n      add\n      swap1\n      0x20\n      add\n      dup1\n      dup4\n      gt\n      tag_97\n      jumpi\n      dup3\n      swap1\n      sub\n      0x1f\n      and\n      dup3\n      add\n      swap2\n    tag_95:\n      pop\n      pop\n      pop\n      pop\n      pop\n      swap3\n      pop\n      pop\n      pop\n      jump(tag_77)\n        /* \"contracts/TestInterview.sol\":1900:2081  if(_score >= rarityList[index].min && _score <= rarityList[index].max)... */\n    tag_89:\n        /* \"contracts/TestInterview.sol\":2095:2103  index ++ */\n      dup1\n      dup1\n      tag_98\n      swap1\n      tag_99\n      jump\t// in\n    tag_98:\n      swap2\n      pop\n      pop\n        /* \"contracts/TestInterview.sol\":1840:2115  while(!isFound && index < rarityList.length) {... */\n      jump(tag_78)\n    tag_79:\n        /* \"contracts/TestInterview.sol\":2125:2143  return \"Not Found\" */\n      mload(0x40)\n      dup1\n      0x40\n      add\n      0x40\n      mstore\n      dup1\n      0x09\n      dup2\n      mstore\n      0x20\n      add\n      0x4e6f7420466f756e640000000000000000000000000000000000000000000000\n      dup2\n      mstore\n      pop\n      swap3\n      pop\n      pop\n      pop\n        /* \"contracts/TestInterview.sol\":1694:2151  function getRarityName(uint256 _score) private view returns(string memory ) {... */\n    tag_77:\n      swap2\n      swap1\n      pop\n      jump\t// out\n        /* \"#utility.yul\":7:84   */\n    tag_100:\n        /* \"#utility.yul\":44:51   */\n      0x00\n        /* \"#utility.yul\":73:78   */\n      dup2\n        /* \"#utility.yul\":62:78   */\n      swap1\n      pop\n        /* \"#utility.yul\":7:84   */\n      swap2\n      swap1\n      pop\n      jump\t// out\n        /* \"#utility.yul\":90:208   */\n    tag_101:\n        /* \"#utility.yul\":177:201   */\n      tag_129\n        /* \"#utility.yul\":195:200   */\n      dup2\n        /* \"#utility.yul\":177:201   */\n      tag_100\n      jump\t// in\n    tag_129:\n        /* \"#utility.yul\":172:175   */\n      dup3\n        /* \"#utility.yul\":165:202   */\n      mstore\n        /* \"#utility.yul\":90:208   */\n      pop\n      pop\n      jump\t// out\n        /* \"#utility.yul\":214:436   */\n    tag_15:\n        /* \"#utility.yul\":307:311   */\n      0x00\n        /* \"#utility.yul\":345:347   */\n      0x20\n        /* \"#utility.yul\":334:343   */\n      dup3\n        /* \"#utility.yul\":330:348   */\n      add\n        /* \"#utility.yul\":322:348   */\n      swap1\n      pop\n        /* \"#utility.yul\":358:429   */\n      tag_131\n        /* \"#utility.yul\":426:427   */\n      0x00\n        /* \"#utility.yul\":415:424   */\n      dup4\n        /* \"#utility.yul\":411:428   */\n      add\n        /* \"#utility.yul\":402:408   */\n      dup5\n        /* \"#utility.yul\":358:429   */\n      tag_101\n      jump\t// in\n    tag_131:\n        /* \"#utility.yul\":214:436   */\n      swap3\n      swap2\n      pop\n      pop\n      jump\t// out\n        /* \"#utility.yul\":523:640   */\n    tag_103:\n        /* \"#utility.yul\":632:633   */\n      0x00\n        /* \"#utility.yul\":629:630   */\n      dup1\n        /* \"#utility.yul\":622:634   */\n      revert\n        /* \"#utility.yul\":769:891   */\n    tag_105:\n        /* \"#utility.yul\":842:866   */\n      tag_136\n        /* \"#utility.yul\":860:865   */\n      dup2\n        /* \"#utility.yul\":842:866   */\n      tag_100\n      jump\t// in\n    tag_136:\n        /* \"#utility.yul\":835:840   */\n      dup2\n        /* \"#utility.yul\":832:867   */\n      eq\n        /* \"#utility.yul\":822:885   */\n      tag_137\n      jumpi\n        /* \"#utility.yul\":881:882   */\n      0x00\n        /* \"#utility.yul\":878:879   */\n      dup1\n        /* \"#utility.yul\":871:883   */\n      revert\n        /* \"#utility.yul\":822:885   */\n    tag_137:\n        /* \"#utility.yul\":769:891   */\n      pop\n      jump\t// out\n        /* \"#utility.yul\":897:1036   */\n    tag_106:\n        /* \"#utility.yul\":943:948   */\n      0x00\n        /* \"#utility.yul\":981:987   */\n      dup2\n        /* \"#utility.yul\":968:988   */\n      calldataload\n        /* \"#utility.yul\":959:988   */\n      swap1\n      pop\n        /* \"#utility.yul\":997:1030   */\n      tag_139\n        /* \"#utility.yul\":1024:1029   */\n      dup2\n        /* \"#utility.yul\":997:1030   */\n      tag_105\n      jump\t// in\n    tag_139:\n        /* \"#utility.yul\":897:1036   */\n      swap3\n      swap2\n      pop\n      pop\n      jump\t// out\n        /* \"#utility.yul\":1042:1371   */\n    tag_18:\n        /* \"#utility.yul\":1101:1107   */\n      0x00\n        /* \"#utility.yul\":1150:1152   */\n      0x20\n        /* \"#utility.yul\":1138:1147   */\n      dup3\n        /* \"#utility.yul\":1129:1136   */\n      dup5\n        /* \"#utility.yul\":1125:1148   */\n      sub\n        /* \"#utility.yul\":1121:1153   */\n      slt\n        /* \"#utility.yul\":1118:1237   */\n      iszero\n      tag_141\n      jumpi\n        /* \"#utility.yul\":1156:1235   */\n      tag_142\n      tag_103\n      jump\t// in\n    tag_142:\n        /* \"#utility.yul\":1118:1237   */\n    tag_141:\n        /* \"#utility.yul\":1276:1277   */\n      0x00\n        /* \"#utility.yul\":1301:1354   */\n      tag_143\n        /* \"#utility.yul\":1346:1353   */\n      dup5\n        /* \"#utility.yul\":1337:1343   */\n      dup3\n        /* \"#utility.yul\":1326:1335   */\n      dup6\n        /* \"#utility.yul\":1322:1344   */\n      add\n        /* \"#utility.yul\":1301:1354   */\n      tag_106\n      jump\t// in\n    tag_143:\n        /* \"#utility.yul\":1291:1354   */\n      swap2\n      pop\n        /* \"#utility.yul\":1247:1364   */\n      pop\n        /* \"#utility.yul\":1042:1371   */\n      swap3\n      swap2\n      pop\n      pop\n      jump\t// out\n        /* \"#utility.yul\":1377:1476   */\n    tag_107:\n        /* \"#utility.yul\":1429:1435   */\n      0x00\n        /* \"#utility.yul\":1463:1468   */\n      dup2\n        /* \"#utility.yul\":1457:1469   */\n      mload\n        /* \"#utility.yul\":1447:1469   */\n      swap1\n      pop\n        /* \"#utility.yul\":1377:1476   */\n      swap2\n      swap1\n      pop\n      jump\t// out\n        /* \"#utility.yul\":1482:1651   */\n    tag_108:\n        /* \"#utility.yul\":1566:1577   */\n      0x00\n        /* \"#utility.yul\":1600:1606   */\n      dup3\n        /* \"#utility.yul\":1595:1598   */\n      dup3\n        /* \"#utility.yul\":1588:1607   */\n      mstore\n        /* \"#utility.yul\":1640:1644   */\n      0x20\n        /* \"#utility.yul\":1635:1638   */\n      dup3\n        /* \"#utility.yul\":1631:1645   */\n      add\n        /* \"#utility.yul\":1616:1645   */\n      swap1\n      pop\n        /* \"#utility.yul\":1482:1651   */\n      swap3\n      swap2\n      pop\n      pop\n      jump\t// out\n        /* \"#utility.yul\":1657:1964   */\n    tag_109:\n        /* \"#utility.yul\":1725:1726   */\n      0x00\n        /* \"#utility.yul\":1735:1848   */\n    tag_147:\n        /* \"#utility.yul\":1749:1755   */\n      dup4\n        /* \"#utility.yul\":1746:1747   */\n      dup2\n        /* \"#utility.yul\":1743:1756   */\n      lt\n        /* \"#utility.yul\":1735:1848   */\n      iszero\n      tag_149\n      jumpi\n        /* \"#utility.yul\":1834:1835   */\n      dup1\n        /* \"#utility.yul\":1829:1832   */\n      dup3\n        /* \"#utility.yul\":1825:1836   */\n      add\n        /* \"#utility.yul\":1819:1837   */\n      mload\n        /* \"#utility.yul\":1815:1816   */\n      dup2\n        /* \"#utility.yul\":1810:1813   */\n      dup5\n        /* \"#utility.yul\":1806:1817   */\n      add\n        /* \"#utility.yul\":1799:1838   */\n      mstore\n        /* \"#utility.yul\":1771:1773   */\n      0x20\n        /* \"#utility.yul\":1768:1769   */\n      dup2\n        /* \"#utility.yul\":1764:1774   */\n      add\n        /* \"#utility.yul\":1759:1774   */\n      swap1\n      pop\n        /* \"#utility.yul\":1735:1848   */\n      jump(tag_147)\n    tag_149:\n        /* \"#utility.yul\":1866:1872   */\n      dup4\n        /* \"#utility.yul\":1863:1864   */\n      dup2\n        /* \"#utility.yul\":1860:1873   */\n      gt\n        /* \"#utility.yul\":1857:1958   */\n      iszero\n      tag_150\n      jumpi\n        /* \"#utility.yul\":1946:1947   */\n      0x00\n        /* \"#utility.yul\":1937:1943   */\n      dup5\n        /* \"#utility.yul\":1932:1935   */\n      dup5\n        /* \"#utility.yul\":1928:1944   */\n      add\n        /* \"#utility.yul\":1921:1948   */\n      mstore\n        /* \"#utility.yul\":1857:1958   */\n    tag_150:\n        /* \"#utility.yul\":1706:1964   */\n      pop\n        /* \"#utility.yul\":1657:1964   */\n      pop\n      pop\n      pop\n      jump\t// out\n        /* \"#utility.yul\":1970:2072   */\n    tag_110:\n        /* \"#utility.yul\":2011:2017   */\n      0x00\n        /* \"#utility.yul\":2062:2064   */\n      0x1f\n        /* \"#utility.yul\":2058:2065   */\n      not\n        /* \"#utility.yul\":2053:2055   */\n      0x1f\n        /* \"#utility.yul\":2046:2051   */\n      dup4\n        /* \"#utility.yul\":2042:2056   */\n      add\n        /* \"#utility.yul\":2038:2066   */\n      and\n        /* \"#utility.yul\":2028:2066   */\n      swap1\n      pop\n        /* \"#utility.yul\":1970:2072   */\n      swap2\n      swap1\n      pop\n      jump\t// out\n        /* \"#utility.yul\":2078:2442   */\n    tag_111:\n        /* \"#utility.yul\":2166:2169   */\n      0x00\n        /* \"#utility.yul\":2194:2233   */\n      tag_153\n        /* \"#utility.yul\":2227:2232   */\n      dup3\n        /* \"#utility.yul\":2194:2233   */\n      tag_107\n      jump\t// in\n    tag_153:\n        /* \"#utility.yul\":2249:2320   */\n      tag_154\n        /* \"#utility.yul\":2313:2319   */\n      dup2\n        /* \"#utility.yul\":2308:2311   */\n      dup6\n        /* \"#utility.yul\":2249:2320   */\n      tag_108\n      jump\t// in\n    tag_154:\n        /* \"#utility.yul\":2242:2320   */\n      swap4\n      pop\n        /* \"#utility.yul\":2329:2381   */\n      tag_155\n        /* \"#utility.yul\":2374:2380   */\n      dup2\n        /* \"#utility.yul\":2369:2372   */\n      dup6\n        /* \"#utility.yul\":2362:2366   */\n      0x20\n        /* \"#utility.yul\":2355:2360   */\n      dup7\n        /* \"#utility.yul\":2351:2367   */\n      add\n        /* \"#utility.yul\":2329:2381   */\n      tag_109\n      jump\t// in\n    tag_155:\n        /* \"#utility.yul\":2406:2435   */\n      tag_156\n        /* \"#utility.yul\":2428:2434   */\n      dup2\n        /* \"#utility.yul\":2406:2435   */\n      tag_110\n      jump\t// in\n    tag_156:\n        /* \"#utility.yul\":2401:2404   */\n      dup5\n        /* \"#utility.yul\":2397:2436   */\n      add\n        /* \"#utility.yul\":2390:2436   */\n      swap2\n      pop\n        /* \"#utility.yul\":2170:2442   */\n      pop\n        /* \"#utility.yul\":2078:2442   */\n      swap3\n      swap2\n      pop\n      pop\n      jump\t// out\n        /* \"#utility.yul\":2448:2981   */\n    tag_21:\n        /* \"#utility.yul\":2617:2621   */\n      0x00\n        /* \"#utility.yul\":2655:2657   */\n      0x60\n        /* \"#utility.yul\":2644:2653   */\n      dup3\n        /* \"#utility.yul\":2640:2658   */\n      add\n        /* \"#utility.yul\":2632:2658   */\n      swap1\n      pop\n        /* \"#utility.yul\":2704:2713   */\n      dup2\n        /* \"#utility.yul\":2698:2702   */\n      dup2\n        /* \"#utility.yul\":2694:2714   */\n      sub\n        /* \"#utility.yul\":2690:2691   */\n      0x00\n        /* \"#utility.yul\":2679:2688   */\n      dup4\n        /* \"#utility.yul\":2675:2692   */\n      add\n        /* \"#utility.yul\":2668:2715   */\n      mstore\n        /* \"#utility.yul\":2732:2810   */\n      tag_158\n        /* \"#utility.yul\":2805:2809   */\n      dup2\n        /* \"#utility.yul\":2796:2802   */\n      dup7\n        /* \"#utility.yul\":2732:2810   */\n      tag_111\n      jump\t// in\n    tag_158:\n        /* \"#utility.yul\":2724:2810   */\n      swap1\n      pop\n        /* \"#utility.yul\":2820:2892   */\n      tag_159\n        /* \"#utility.yul\":2888:2890   */\n      0x20\n        /* \"#utility.yul\":2877:2886   */\n      dup4\n        /* \"#utility.yul\":2873:2891   */\n      add\n        /* \"#utility.yul\":2864:2870   */\n      dup6\n        /* \"#utility.yul\":2820:2892   */\n      tag_101\n      jump\t// in\n    tag_159:\n        /* \"#utility.yul\":2902:2974   */\n      tag_160\n        /* \"#utility.yul\":2970:2972   */\n      0x40\n        /* \"#utility.yul\":2959:2968   */\n      dup4\n        /* \"#utility.yul\":2955:2973   */\n      add\n        /* \"#utility.yul\":2946:2952   */\n      dup5\n        /* \"#utility.yul\":2902:2974   */\n      tag_101\n      jump\t// in\n    tag_160:\n        /* \"#utility.yul\":2448:2981   */\n      swap5\n      swap4\n      pop\n      pop\n      pop\n      pop\n      jump\t// out\n        /* \"#utility.yul\":2987:3113   */\n    tag_112:\n        /* \"#utility.yul\":3024:3031   */\n      0x00\n        /* \"#utility.yul\":3064:3106   */\n      0xffffffffffffffffffffffffffffffffffffffff\n        /* \"#utility.yul\":3057:3062   */\n      dup3\n        /* \"#utility.yul\":3053:3107   */\n      and\n        /* \"#utility.yul\":3042:3107   */\n      swap1\n      pop\n        /* \"#utility.yul\":2987:3113   */\n      swap2\n      swap1\n      pop\n      jump\t// out\n        /* \"#utility.yul\":3119:3215   */\n    tag_113:\n        /* \"#utility.yul\":3156:3163   */\n      0x00\n        /* \"#utility.yul\":3185:3209   */\n      tag_163\n        /* \"#utility.yul\":3203:3208   */\n      dup3\n        /* \"#utility.yul\":3185:3209   */\n      tag_112\n      jump\t// in\n    tag_163:\n        /* \"#utility.yul\":3174:3209   */\n      swap1\n      pop\n        /* \"#utility.yul\":3119:3215   */\n      swap2\n      swap1\n      pop\n      jump\t// out\n        /* \"#utility.yul\":3221:3339   */\n    tag_114:\n        /* \"#utility.yul\":3308:3332   */\n      tag_165\n        /* \"#utility.yul\":3326:3331   */\n      dup2\n        /* \"#utility.yul\":3308:3332   */\n      tag_113\n      jump\t// in\n    tag_165:\n        /* \"#utility.yul\":3303:3306   */\n      dup3\n        /* \"#utility.yul\":3296:3333   */\n      mstore\n        /* \"#utility.yul\":3221:3339   */\n      pop\n      pop\n      jump\t// out\n        /* \"#utility.yul\":3345:3677   */\n    tag_26:\n        /* \"#utility.yul\":3466:3470   */\n      0x00\n        /* \"#utility.yul\":3504:3506   */\n      0x40\n        /* \"#utility.yul\":3493:3502   */\n      dup3\n        /* \"#utility.yul\":3489:3507   */\n      add\n        /* \"#utility.yul\":3481:3507   */\n      swap1\n      pop\n        /* \"#utility.yul\":3517:3588   */\n      tag_167\n        /* \"#utility.yul\":3585:3586   */\n      0x00\n        /* \"#utility.yul\":3574:3583   */\n      dup4\n        /* \"#utility.yul\":3570:3587   */\n      add\n        /* \"#utility.yul\":3561:3567   */\n      dup6\n        /* \"#utility.yul\":3517:3588   */\n      tag_114\n      jump\t// in\n    tag_167:\n        /* \"#utility.yul\":3598:3670   */\n      tag_168\n        /* \"#utility.yul\":3666:3668   */\n      0x20\n        /* \"#utility.yul\":3655:3664   */\n      dup4\n        /* \"#utility.yul\":3651:3669   */\n      add\n        /* \"#utility.yul\":3642:3648   */\n      dup5\n        /* \"#utility.yul\":3598:3670   */\n      tag_101\n      jump\t// in\n    tag_168:\n        /* \"#utility.yul\":3345:3677   */\n      swap4\n      swap3\n      pop\n      pop\n      pop\n      jump\t// out\n        /* \"#utility.yul\":3683:3905   */\n    tag_30:\n        /* \"#utility.yul\":3776:3780   */\n      0x00\n        /* \"#utility.yul\":3814:3816   */\n      0x20\n        /* \"#utility.yul\":3803:3812   */\n      dup3\n        /* \"#utility.yul\":3799:3817   */\n      add\n        /* \"#utility.yul\":3791:3817   */\n      swap1\n      pop\n        /* \"#utility.yul\":3827:3898   */\n      tag_170\n        /* \"#utility.yul\":3895:3896   */\n      0x00\n        /* \"#utility.yul\":3884:3893   */\n      dup4\n        /* \"#utility.yul\":3880:3897   */\n      add\n        /* \"#utility.yul\":3871:3877   */\n      dup5\n        /* \"#utility.yul\":3827:3898   */\n      tag_114\n      jump\t// in\n    tag_170:\n        /* \"#utility.yul\":3683:3905   */\n      swap3\n      swap2\n      pop\n      pop\n      jump\t// out\n        /* \"#utility.yul\":3911:4444   */\n    tag_38:\n        /* \"#utility.yul\":4080:4084   */\n      0x00\n        /* \"#utility.yul\":4118:4120   */\n      0x60\n        /* \"#utility.yul\":4107:4116   */\n      dup3\n        /* \"#utility.yul\":4103:4121   */\n      add\n        /* \"#utility.yul\":4095:4121   */\n      swap1\n      pop\n        /* \"#utility.yul\":4131:4202   */\n      tag_172\n        /* \"#utility.yul\":4199:4200   */\n      0x00\n        /* \"#utility.yul\":4188:4197   */\n      dup4\n        /* \"#utility.yul\":4184:4201   */\n      add\n        /* \"#utility.yul\":4175:4181   */\n      dup7\n        /* \"#utility.yul\":4131:4202   */\n      tag_114\n      jump\t// in\n    tag_172:\n        /* \"#utility.yul\":4212:4284   */\n      tag_173\n        /* \"#utility.yul\":4280:4282   */\n      0x20\n        /* \"#utility.yul\":4269:4278   */\n      dup4\n        /* \"#utility.yul\":4265:4283   */\n      add\n        /* \"#utility.yul\":4256:4262   */\n      dup6\n        /* \"#utility.yul\":4212:4284   */\n      tag_101\n      jump\t// in\n    tag_173:\n        /* \"#utility.yul\":4331:4340   */\n      dup2\n        /* \"#utility.yul\":4325:4329   */\n      dup2\n        /* \"#utility.yul\":4321:4341   */\n      sub\n        /* \"#utility.yul\":4316:4318   */\n      0x40\n        /* \"#utility.yul\":4305:4314   */\n      dup4\n        /* \"#utility.yul\":4301:4319   */\n      add\n        /* \"#utility.yul\":4294:4342   */\n      mstore\n        /* \"#utility.yul\":4359:4437   */\n      tag_174\n        /* \"#utility.yul\":4432:4436   */\n      dup2\n        /* \"#utility.yul\":4423:4429   */\n      dup5\n        /* \"#utility.yul\":4359:4437   */\n      tag_111\n      jump\t// in\n    tag_174:\n        /* \"#utility.yul\":4351:4437   */\n      swap1\n      pop\n        /* \"#utility.yul\":3911:4444   */\n      swap5\n      swap4\n      pop\n      pop\n      pop\n      pop\n      jump\t// out\n        /* \"#utility.yul\":4450:4630   */\n    tag_115:\n        /* \"#utility.yul\":4498:4575   */\n      0x4e487b7100000000000000000000000000000000000000000000000000000000\n        /* \"#utility.yul\":4495:4496   */\n      0x00\n        /* \"#utility.yul\":4488:4576   */\n      mstore\n        /* \"#utility.yul\":4595:4599   */\n      0x22\n        /* \"#utility.yul\":4592:4593   */\n      0x04\n        /* \"#utility.yul\":4585:4600   */\n      mstore\n        /* \"#utility.yul\":4619:4623   */\n      0x24\n        /* \"#utility.yul\":4616:4617   */\n      0x00\n        /* \"#utility.yul\":4609:4624   */\n      revert\n        /* \"#utility.yul\":4636:4956   */\n    tag_47:\n        /* \"#utility.yul\":4680:4686   */\n      0x00\n        /* \"#utility.yul\":4717:4718   */\n      0x02\n        /* \"#utility.yul\":4711:4715   */\n      dup3\n        /* \"#utility.yul\":4707:4719   */\n      div\n        /* \"#utility.yul\":4697:4719   */\n      swap1\n      pop\n        /* \"#utility.yul\":4764:4765   */\n      0x01\n        /* \"#utility.yul\":4758:4762   */\n      dup3\n        /* \"#utility.yul\":4754:4766   */\n      and\n        /* \"#utility.yul\":4785:4803   */\n      dup1\n        /* \"#utility.yul\":4775:4856   */\n      tag_177\n      jumpi\n        /* \"#utility.yul\":4841:4845   */\n      0x7f\n        /* \"#utility.yul\":4833:4839   */\n      dup3\n        /* \"#utility.yul\":4829:4846   */\n      and\n        /* \"#utility.yul\":4819:4846   */\n      swap2\n      pop\n        /* \"#utility.yul\":4775:4856   */\n    tag_177:\n        /* \"#utility.yul\":4903:4905   */\n      0x20\n        /* \"#utility.yul\":4895:4901   */\n      dup3\n        /* \"#utility.yul\":4892:4906   */\n      lt\n        /* \"#utility.yul\":4872:4890   */\n      dup2\n        /* \"#utility.yul\":4869:4907   */\n      eq\n        /* \"#utility.yul\":4866:4950   */\n      iszero\n      tag_178\n      jumpi\n        /* \"#utility.yul\":4922:4940   */\n      tag_179\n      tag_115\n      jump\t// in\n    tag_179:\n        /* \"#utility.yul\":4866:4950   */\n    tag_178:\n        /* \"#utility.yul\":4687:4956   */\n      pop\n        /* \"#utility.yul\":4636:4956   */\n      swap2\n      swap1\n      pop\n      jump\t// out\n        /* \"#utility.yul\":4962:5138   */\n    tag_116:\n        /* \"#utility.yul\":5102:5130   */\n      0x4e6f7420417574686f72697a65642c2041646d696e204f6e6c79000000000000\n        /* \"#utility.yul\":5098:5099   */\n      0x00\n        /* \"#utility.yul\":5090:5096   */\n      dup3\n        /* \"#utility.yul\":5086:5100   */\n      add\n        /* \"#utility.yul\":5079:5131   */\n      mstore\n        /* \"#utility.yul\":4962:5138   */\n      pop\n      jump\t// out\n        /* \"#utility.yul\":5144:5510   */\n    tag_117:\n        /* \"#utility.yul\":5286:5289   */\n      0x00\n        /* \"#utility.yul\":5307:5374   */\n      tag_182\n        /* \"#utility.yul\":5371:5373   */\n      0x1a\n        /* \"#utility.yul\":5366:5369   */\n      dup4\n        /* \"#utility.yul\":5307:5374   */\n      tag_108\n      jump\t// in\n    tag_182:\n        /* \"#utility.yul\":5300:5374   */\n      swap2\n      pop\n        /* \"#utility.yul\":5383:5476   */\n      tag_183\n        /* \"#utility.yul\":5472:5475   */\n      dup3\n        /* \"#utility.yul\":5383:5476   */\n      tag_116\n      jump\t// in\n    tag_183:\n        /* \"#utility.yul\":5501:5503   */\n      0x20\n        /* \"#utility.yul\":5496:5499   */\n      dup3\n        /* \"#utility.yul\":5492:5504   */\n      add\n        /* \"#utility.yul\":5485:5504   */\n      swap1\n      pop\n        /* \"#utility.yul\":5144:5510   */\n      swap2\n      swap1\n      pop\n      jump\t// out\n        /* \"#utility.yul\":5516:5935   */\n    tag_58:\n        /* \"#utility.yul\":5682:5686   */\n      0x00\n        /* \"#utility.yul\":5720:5722   */\n      0x20\n        /* \"#utility.yul\":5709:5718   */\n      dup3\n        /* \"#utility.yul\":5705:5723   */\n      add\n        /* \"#utility.yul\":5697:5723   */\n      swap1\n      pop\n        /* \"#utility.yul\":5769:5778   */\n      dup2\n        /* \"#utility.yul\":5763:5767   */\n      dup2\n        /* \"#utility.yul\":5759:5779   */\n      sub\n        /* \"#utility.yul\":5755:5756   */\n      0x00\n        /* \"#utility.yul\":5744:5753   */\n      dup4\n        /* \"#utility.yul\":5740:5757   */\n      add\n        /* \"#utility.yul\":5733:5780   */\n      mstore\n        /* \"#utility.yul\":5797:5928   */\n      tag_185\n        /* \"#utility.yul\":5923:5927   */\n      dup2\n        /* \"#utility.yul\":5797:5928   */\n      tag_117\n      jump\t// in\n    tag_185:\n        /* \"#utility.yul\":5789:5928   */\n      swap1\n      pop\n        /* \"#utility.yul\":5516:5935   */\n      swap2\n      swap1\n      pop\n      jump\t// out\n        /* \"#utility.yul\":5941:6035   */\n    tag_118:\n        /* \"#utility.yul\":5974:5982   */\n      0x00\n        /* \"#utility.yul\":6022:6027   */\n      dup2\n        /* \"#utility.yul\":6018:6020   */\n      0x60\n        /* \"#utility.yul\":6014:6028   */\n      shl\n        /* \"#utility.yul\":5993:6028   */\n      swap1\n      pop\n        /* \"#utility.yul\":5941:6035   */\n      swap2\n      swap1\n      pop\n      jump\t// out\n        /* \"#utility.yul\":6041:6135   */\n    tag_119:\n        /* \"#utility.yul\":6080:6087   */\n      0x00\n        /* \"#utility.yul\":6109:6129   */\n      tag_188\n        /* \"#utility.yul\":6123:6128   */\n      dup3\n        /* \"#utility.yul\":6109:6129   */\n      tag_118\n      jump\t// in\n    tag_188:\n        /* \"#utility.yul\":6098:6129   */\n      swap1\n      pop\n        /* \"#utility.yul\":6041:6135   */\n      swap2\n      swap1\n      pop\n      jump\t// out\n        /* \"#utility.yul\":6141:6241   */\n    tag_120:\n        /* \"#utility.yul\":6180:6187   */\n      0x00\n        /* \"#utility.yul\":6209:6235   */\n      tag_190\n        /* \"#utility.yul\":6229:6234   */\n      dup3\n        /* \"#utility.yul\":6209:6235   */\n      tag_119\n      jump\t// in\n    tag_190:\n        /* \"#utility.yul\":6198:6235   */\n      swap1\n      pop\n        /* \"#utility.yul\":6141:6241   */\n      swap2\n      swap1\n      pop\n      jump\t// out\n        /* \"#utility.yul\":6247:6404   */\n    tag_121:\n        /* \"#utility.yul\":6352:6397   */\n      tag_192\n        /* \"#utility.yul\":6372:6396   */\n      tag_193\n        /* \"#utility.yul\":6390:6395   */\n      dup3\n        /* \"#utility.yul\":6372:6396   */\n      tag_113\n      jump\t// in\n    tag_193:\n        /* \"#utility.yul\":6352:6397   */\n      tag_120\n      jump\t// in\n    tag_192:\n        /* \"#utility.yul\":6347:6350   */\n      dup3\n        /* \"#utility.yul\":6340:6398   */\n      mstore\n        /* \"#utility.yul\":6247:6404   */\n      pop\n      pop\n      jump\t// out\n        /* \"#utility.yul\":6410:6489   */\n    tag_122:\n        /* \"#utility.yul\":6449:6456   */\n      0x00\n        /* \"#utility.yul\":6478:6483   */\n      dup2\n        /* \"#utility.yul\":6467:6483   */\n      swap1\n      pop\n        /* \"#utility.yul\":6410:6489   */\n      swap2\n      swap1\n      pop\n      jump\t// out\n        /* \"#utility.yul\":6495:6652   */\n    tag_123:\n        /* \"#utility.yul\":6600:6645   */\n      tag_196\n        /* \"#utility.yul\":6620:6644   */\n      tag_197\n        /* \"#utility.yul\":6638:6643   */\n      dup3\n        /* \"#utility.yul\":6620:6644   */\n      tag_100\n      jump\t// in\n    tag_197:\n        /* \"#utility.yul\":6600:6645   */\n      tag_122\n      jump\t// in\n    tag_196:\n        /* \"#utility.yul\":6595:6598   */\n      dup3\n        /* \"#utility.yul\":6588:6646   */\n      mstore\n        /* \"#utility.yul\":6495:6652   */\n      pop\n      pop\n      jump\t// out\n        /* \"#utility.yul\":6658:7196   */\n    tag_74:\n        /* \"#utility.yul\":6826:6829   */\n      0x00\n        /* \"#utility.yul\":6841:6916   */\n      tag_199\n        /* \"#utility.yul\":6912:6915   */\n      dup3\n        /* \"#utility.yul\":6903:6909   */\n      dup7\n        /* \"#utility.yul\":6841:6916   */\n      tag_121\n      jump\t// in\n    tag_199:\n        /* \"#utility.yul\":6941:6943   */\n      0x14\n        /* \"#utility.yul\":6936:6939   */\n      dup3\n        /* \"#utility.yul\":6932:6944   */\n      add\n        /* \"#utility.yul\":6925:6944   */\n      swap2\n      pop\n        /* \"#utility.yul\":6954:7029   */\n      tag_200\n        /* \"#utility.yul\":7025:7028   */\n      dup3\n        /* \"#utility.yul\":7016:7022   */\n      dup6\n        /* \"#utility.yul\":6954:7029   */\n      tag_123\n      jump\t// in\n    tag_200:\n        /* \"#utility.yul\":7054:7056   */\n      0x20\n        /* \"#utility.yul\":7049:7052   */\n      dup3\n        /* \"#utility.yul\":7045:7057   */\n      add\n        /* \"#utility.yul\":7038:7057   */\n      swap2\n      pop\n        /* \"#utility.yul\":7067:7142   */\n      tag_201\n        /* \"#utility.yul\":7138:7141   */\n      dup3\n        /* \"#utility.yul\":7129:7135   */\n      dup5\n        /* \"#utility.yul\":7067:7142   */\n      tag_123\n      jump\t// in\n    tag_201:\n        /* \"#utility.yul\":7167:7169   */\n      0x20\n        /* \"#utility.yul\":7162:7165   */\n      dup3\n        /* \"#utility.yul\":7158:7170   */\n      add\n        /* \"#utility.yul\":7151:7170   */\n      swap2\n      pop\n        /* \"#utility.yul\":7187:7190   */\n      dup2\n        /* \"#utility.yul\":7180:7190   */\n      swap1\n      pop\n        /* \"#utility.yul\":6658:7196   */\n      swap5\n      swap4\n      pop\n      pop\n      pop\n      pop\n      jump\t// out\n        /* \"#utility.yul\":7202:7382   */\n    tag_124:\n        /* \"#utility.yul\":7250:7327   */\n      0x4e487b7100000000000000000000000000000000000000000000000000000000\n        /* \"#utility.yul\":7247:7248   */\n      0x00\n        /* \"#utility.yul\":7240:7328   */\n      mstore\n        /* \"#utility.yul\":7347:7351   */\n      0x12\n        /* \"#utility.yul\":7344:7345   */\n      0x04\n        /* \"#utility.yul\":7337:7352   */\n      mstore\n        /* \"#utility.yul\":7371:7375   */\n      0x24\n        /* \"#utility.yul\":7368:7369   */\n      0x00\n        /* \"#utility.yul\":7361:7376   */\n      revert\n        /* \"#utility.yul\":7388:7564   */\n    tag_76:\n        /* \"#utility.yul\":7420:7421   */\n      0x00\n        /* \"#utility.yul\":7437:7457   */\n      tag_204\n        /* \"#utility.yul\":7455:7456   */\n      dup3\n        /* \"#utility.yul\":7437:7457   */\n      tag_100\n      jump\t// in\n    tag_204:\n        /* \"#utility.yul\":7432:7457   */\n      swap2\n      pop\n        /* \"#utility.yul\":7471:7491   */\n      tag_205\n        /* \"#utility.yul\":7489:7490   */\n      dup4\n        /* \"#utility.yul\":7471:7491   */\n      tag_100\n      jump\t// in\n    tag_205:\n        /* \"#utility.yul\":7466:7491   */\n      swap3\n      pop\n        /* \"#utility.yul\":7510:7511   */\n      dup3\n        /* \"#utility.yul\":7500:7535   */\n      tag_206\n      jumpi\n        /* \"#utility.yul\":7515:7533   */\n      tag_207\n      tag_124\n      jump\t// in\n    tag_207:\n        /* \"#utility.yul\":7500:7535   */\n    tag_206:\n        /* \"#utility.yul\":7556:7557   */\n      dup3\n        /* \"#utility.yul\":7553:7554   */\n      dup3\n        /* \"#utility.yul\":7549:7558   */\n      mod\n        /* \"#utility.yul\":7544:7558   */\n      swap1\n      pop\n        /* \"#utility.yul\":7388:7564   */\n      swap3\n      swap2\n      pop\n      pop\n      jump\t// out\n        /* \"#utility.yul\":7570:7750   */\n    tag_83:\n        /* \"#utility.yul\":7618:7695   */\n      0x4e487b7100000000000000000000000000000000000000000000000000000000\n        /* \"#utility.yul\":7615:7616   */\n      0x00\n        /* \"#utility.yul\":7608:7696   */\n      mstore\n        /* \"#utility.yul\":7715:7719   */\n      0x32\n        /* \"#utility.yul\":7712:7713   */\n      0x04\n        /* \"#utility.yul\":7705:7720   */\n      mstore\n        /* \"#utility.yul\":7739:7743   */\n      0x24\n        /* \"#utility.yul\":7736:7737   */\n      0x00\n        /* \"#utility.yul\":7729:7744   */\n      revert\n        /* \"#utility.yul\":7756:7936   */\n    tag_125:\n        /* \"#utility.yul\":7804:7881   */\n      0x4e487b7100000000000000000000000000000000000000000000000000000000\n        /* \"#utility.yul\":7801:7802   */\n      0x00\n        /* \"#utility.yul\":7794:7882   */\n      mstore\n        /* \"#utility.yul\":7901:7905   */\n      0x11\n        /* \"#utility.yul\":7898:7899   */\n      0x04\n        /* \"#utility.yul\":7891:7906   */\n      mstore\n        /* \"#utility.yul\":7925:7929   */\n      0x24\n        /* \"#utility.yul\":7922:7923   */\n      0x00\n        /* \"#utility.yul\":7915:7930   */\n      revert\n        /* \"#utility.yul\":7942:8175   */\n    tag_99:\n        /* \"#utility.yul\":7981:7984   */\n      0x00\n        /* \"#utility.yul\":8004:8028   */\n      tag_211\n        /* \"#utility.yul\":8022:8027   */\n      dup3\n        /* \"#utility.yul\":8004:8028   */\n      tag_100\n      jump\t// in\n    tag_211:\n        /* \"#utility.yul\":7995:8028   */\n      swap2\n      pop\n        /* \"#utility.yul\":8050:8116   */\n      0xffffffffffffffffffffffffffffffffffffffffffffffffffffffffffffffff\n        /* \"#utility.yul\":8043:8048   */\n      dup3\n        /* \"#utility.yul\":8040:8117   */\n      eq\n        /* \"#utility.yul\":8037:8140   */\n      iszero\n      tag_212\n      jumpi\n        /* \"#utility.yul\":8120:8138   */\n      tag_213\n      tag_125\n      jump\t// in\n    tag_213:\n        /* \"#utility.yul\":8037:8140   */\n    tag_212:\n        /* \"#utility.yul\":8167:8168   */\n      0x01\n        /* \"#utility.yul\":8160:8165   */\n      dup3\n        /* \"#utility.yul\":8156:8169   */\n      add\n        /* \"#utility.yul\":8149:8169   */\n      swap1\n      pop\n        /* \"#utility.yul\":7942:8175   */\n      swap2\n      swap1\n      pop\n      jump\t// out\n\n    auxdata: 0xa2646970667358221220fa4e4662b04ed89a299c08b03580597a5cafa50d1e120a7eeb35d28cbe7f4ae364736f6c63430008080033\n}\n",
				"bytecode": {
					"linkReferences": {},
					"object": "60806040527350c7a09925375438d2cee94c5c59266c6ffaaf8c6000806101000a81548173ffffffffffffffffffffffffffffffffffffffff021916908373ffffffffffffffffffffffffffffffffffffffff16021790555073dbddb8575f6bda11f1dc548a1b546463cc567c3d600160006101000a81548173ffffffffffffffffffffffffffffffffffffffff021916908373ffffffffffffffffffffffffffffffffffffffff1602179055506002600355348015620000bf57600080fd5b5033600260006101000a81548173ffffffffffffffffffffffffffffffffffffffff021916908373ffffffffffffffffffffffffffffffffffffffff16021790555060008060009054906101000a900473ffffffffffffffffffffffffffffffffffffffff1673ffffffffffffffffffffffffffffffffffffffff166348441d5f6040518163ffffffff1660e01b815260040160006040518083038186803b1580156200016b57600080fd5b505afa15801562000180573d6000803e3d6000fd5b505050506040513d6000823e3d601f19601f82011682018060405250810190620001ab9190620006a3565b90506000805b6003811015620003635760008060009054906101000a900473ffffffffffffffffffffffffffffffffffffffff1673ffffffffffffffffffffffffffffffffffffffff1663278a7f3385846003811062000210576200020f620006f4565b5b60200201516040518263ffffffff1660e01b815260040162000233919062000780565b60206040518083038186803b1580156200024c57600080fd5b505afa15801562000261573d6000803e3d6000fd5b505050506040513d601f19601f82011682018060405250810190620002879190620007e2565b60ff16905060046040518060600160405280868560038110620002af57620002ae620006f4565b5b6020020151815260200185815260200160018487620002cf91906200084d565b620002db9190620008aa565b81525090806001815401808255809150506001900390600052602060002090600302016000909190919091506000820151816000019080519060200190620003259291906200036c565b506020820151816001015560408201518160020155505080836200034a91906200084d565b92505080806200035a90620008e5565b915050620001b1565b50505062000998565b8280546200037a9062000962565b90600052602060002090601f0160209004810192826200039e5760008555620003ea565b82601f10620003b957805160ff1916838001178555620003ea565b82800160010185558215620003ea579182015b82811115620003e9578251825591602001919060010190620003cc565b5b509050620003f99190620003fd565b5090565b5b8082111562000418576000816000905550600101620003fe565b5090565b6000604051905090565b600080fd5b600080fd5b600080fd5b6000601f19601f8301169050919050565b7f4e487b7100000000000000000000000000000000000000000000000000000000600052604160045260246000fd5b620004808262000435565b810181811067ffffffffffffffff82111715620004a257620004a162000446565b5b80604052505050565b6000620004b76200041c565b9050620004c5828262000475565b919050565b600067ffffffffffffffff821115620004e857620004e762000446565b5b602082029050919050565b600080fd5b600080fd5b600067ffffffffffffffff8211156200051b576200051a62000446565b5b620005268262000435565b9050602081019050919050565b60005b838110156200055357808201518184015260208101905062000536565b8381111562000563576000848401525b50505050565b6000620005806200057a84620004fd565b620004ab565b9050828152602081018484840111156200059f576200059e620004f8565b5b620005ac84828562000533565b509392505050565b600082601f830112620005cc57620005cb62000430565b5b8151620005de84826020860162000569565b91505092915050565b6000620005fe620005f884620004ca565b620004ab565b905080602084028301858111156200061b576200061a620004f3565b5b835b818110156200066957805167ffffffffffffffff81111562000644576200064362000430565b5b808601620006538982620005b4565b855260208501945050506020810190506200061d565b5050509392505050565b600082601f8301126200068b576200068a62000430565b5b60036200069a848285620005e7565b91505092915050565b600060208284031215620006bc57620006bb62000426565b5b600082015167ffffffffffffffff811115620006dd57620006dc6200042b565b5b620006eb8482850162000673565b91505092915050565b7f4e487b7100000000000000000000000000000000000000000000000000000000600052603260045260246000fd5b600081519050919050565b600082825260208201905092915050565b60006200074c8262000723565b6200075881856200072e565b93506200076a81856020860162000533565b620007758162000435565b840191505092915050565b600060208201905081810360008301526200079c81846200073f565b905092915050565b600060ff82169050919050565b620007bc81620007a4565b8114620007c857600080fd5b50565b600081519050620007dc81620007b1565b92915050565b600060208284031215620007fb57620007fa62000426565b5b60006200080b84828501620007cb565b91505092915050565b6000819050919050565b7f4e487b7100000000000000000000000000000000000000000000000000000000600052601160045260246000fd5b60006200085a8262000814565b9150620008678362000814565b9250827fffffffffffffffffffffffffffffffffffffffffffffffffffffffffffffffff038211156200089f576200089e6200081e565b5b828201905092915050565b6000620008b78262000814565b9150620008c48362000814565b925082821015620008da57620008d96200081e565b5b828203905092915050565b6000620008f28262000814565b91507fffffffffffffffffffffffffffffffffffffffffffffffffffffffffffffffff8214156200092857620009276200081e565b5b600182019050919050565b7f4e487b7100000000000000000000000000000000000000000000000000000000600052602260045260246000fd5b600060028204905060018216806200097b57607f821691505b6020821081141562000992576200099162000933565b5b50919050565b610c5780620009a86000396000f3fe608060405234801561001057600080fd5b50600436106100885760003560e01c8063c15d3ead1161005b578063c15d3ead1461012c578063d1a35ef214610148578063e917ec961461017a578063fc6f94681461018457610088565b806306cd309b1461008d5780636fd3d9e2146100ab5780637259e0f8146100dd5780638f84aa091461010e575b600080fd5b6100956101a2565b6040516100a29190610794565b60405180910390f35b6100c560048036038101906100c091906107e0565b6101a8565b6040516100d4939291906108a6565b60405180910390f35b6100f760048036038101906100f291906107e0565b61026a565b604051610105929190610925565b60405180910390f35b6101166102be565b604051610123919061094e565b60405180910390f35b610146600480360381019061014191906107e0565b6102e4565b005b610162600480360381019061015d91906107e0565b6103d6565b60405161017193929190610969565b60405180910390f35b6101826104b8565b005b61018c610585565b604051610199919061094e565b60405180910390f35b60035481565b600481815481106101b857600080fd5b90600052602060002090600302016000915090508060000180546101db906109d6565b80601f0160208091040260200160405190810160405280929190818152602001828054610207906109d6565b80156102545780601f1061022957610100808354040283529160200191610254565b820191906000526020600020905b81548152906001019060200180831161023757829003601f168201915b5050505050908060010154908060020154905083565b6005818154811061027a57600080fd5b90600052602060002090600202016000915090508060000160009054906101000a900473ffffffffffffffffffffffffffffffffffffffff16908060010154905082565b600160009054906101000a900473ffffffffffffffffffffffffffffffffffffffff1681565b600260009054906101000a900473ffffffffffffffffffffffffffffffffffffffff1673ffffffffffffffffffffffffffffffffffffffff163373ffffffffffffffffffffffffffffffffffffffff16148061038d5750600160009054906101000a900473ffffffffffffffffffffffffffffffffffffffff1673ffffffffffffffffffffffffffffffffffffffff163373ffffffffffffffffffffffffffffffffffffffff16145b6103cc576040517f08c379a00000000000000000000000000000000000000000000000000000000081526004016103c390610a54565b60405180910390fd5b8060038190555050565b600681815481106103e657600080fd5b90600052602060002090600302016000915090508060000160009054906101000a900473ffffffffffffffffffffffffffffffffffffffff1690806001015490806002018054610435906109d6565b80601f0160208091040260200160405190810160405280929190818152602001828054610461906109d6565b80156104ae5780601f10610483576101008083540402835291602001916104ae565b820191906000526020600020905b81548152906001019060200180831161049157829003601f168201915b5050505050905083565b60006104c26105ab565b905060006104cf826105f1565b9050600060405180604001604052803373ffffffffffffffffffffffffffffffffffffffff16815260200160018152509050600581908060018154018082558091505060019003906000526020600020906002020160009091909190915060008201518160000160006101000a81548173ffffffffffffffffffffffffffffffffffffffff021916908373ffffffffffffffffffffffffffffffffffffffff160217905550602082015181600101555050505050565b600260009054906101000a900473ffffffffffffffffffffffffffffffffffffffff1681565b60008060643342446040516020016105c593929190610add565b6040516020818303038152906040528051906020012060001c6105e89190610b49565b90508091505090565b60606000805b81158015610609575060048054905081105b1561073b576004818154811061062257610621610b7a565b5b906000526020600020906003020160010154841015801561066857506004818154811061065257610651610b7a565b5b9060005260206000209060030201600201548411155b1561072857600191506004818154811061068557610684610b7a565b5b906000526020600020906003020160000180546106a1906109d6565b80601f01602080910402602001604051908101604052809291908181526020018280546106cd906109d6565b801561071a5780601f106106ef5761010080835404028352916020019161071a565b820191906000526020600020905b8154815290600101906020018083116106fd57829003601f168201915b505050505092505050610776565b808061073390610bd8565b9150506105f7565b6040518060400160405280600981526020017f4e6f7420466f756e640000000000000000000000000000000000000000000000815250925050505b919050565b6000819050919050565b61078e8161077b565b82525050565b60006020820190506107a96000830184610785565b92915050565b600080fd5b6107bd8161077b565b81146107c857600080fd5b50565b6000813590506107da816107b4565b92915050565b6000602082840312156107f6576107f56107af565b5b6000610804848285016107cb565b91505092915050565b600081519050919050565b600082825260208201905092915050565b60005b8381101561084757808201518184015260208101905061082c565b83811115610856576000848401525b50505050565b6000601f19601f8301169050919050565b60006108788261080d565b6108828185610818565b9350610892818560208601610829565b61089b8161085c565b840191505092915050565b600060608201905081810360008301526108c0818661086d565b90506108cf6020830185610785565b6108dc6040830184610785565b949350505050565b600073ffffffffffffffffffffffffffffffffffffffff82169050919050565b600061090f826108e4565b9050919050565b61091f81610904565b82525050565b600060408201905061093a6000830185610916565b6109476020830184610785565b9392505050565b60006020820190506109636000830184610916565b92915050565b600060608201905061097e6000830186610916565b61098b6020830185610785565b818103604083015261099d818461086d565b9050949350505050565b7f4e487b7100000000000000000000000000000000000000000000000000000000600052602260045260246000fd5b600060028204905060018216806109ee57607f821691505b60208210811415610a0257610a016109a7565b5b50919050565b7f4e6f7420417574686f72697a65642c2041646d696e204f6e6c79000000000000600082015250565b6000610a3e601a83610818565b9150610a4982610a08565b602082019050919050565b60006020820190508181036000830152610a6d81610a31565b9050919050565b60008160601b9050919050565b6000610a8c82610a74565b9050919050565b6000610a9e82610a81565b9050919050565b610ab6610ab182610904565b610a93565b82525050565b6000819050919050565b610ad7610ad28261077b565b610abc565b82525050565b6000610ae98286610aa5565b601482019150610af98285610ac6565b602082019150610b098284610ac6565b602082019150819050949350505050565b7f4e487b7100000000000000000000000000000000000000000000000000000000600052601260045260246000fd5b6000610b548261077b565b9150610b5f8361077b565b925082610b6f57610b6e610b1a565b5b828206905092915050565b7f4e487b7100000000000000000000000000000000000000000000000000000000600052603260045260246000fd5b7f4e487b7100000000000000000000000000000000000000000000000000000000600052601160045260246000fd5b6000610be38261077b565b91507fffffffffffffffffffffffffffffffffffffffffffffffffffffffffffffffff821415610c1657610c15610ba9565b5b60018201905091905056fea2646970667358221220fa4e4662b04ed89a299c08b03580597a5cafa50d1e120a7eeb35d28cbe7f4ae364736f6c63430008080033",
					"opcodes": "PUSH1 0x80 PUSH1 0x40 MSTORE PUSH20 0x50C7A09925375438D2CEE94C5C59266C6FFAAF8C PUSH1 0x0 DUP1 PUSH2 0x100 EXP DUP2 SLOAD DUP2 PUSH20 0xFFFFFFFFFFFFFFFFFFFFFFFFFFFFFFFFFFFFFFFF MUL NOT AND SWAP1 DUP4 PUSH20 0xFFFFFFFFFFFFFFFFFFFFFFFFFFFFFFFFFFFFFFFF AND MUL OR SWAP1 SSTORE POP PUSH20 0xDBDDB8575F6BDA11F1DC548A1B546463CC567C3D PUSH1 0x1 PUSH1 0x0 PUSH2 0x100 EXP DUP2 SLOAD DUP2 PUSH20 0xFFFFFFFFFFFFFFFFFFFFFFFFFFFFFFFFFFFFFFFF MUL NOT AND SWAP1 DUP4 PUSH20 0xFFFFFFFFFFFFFFFFFFFFFFFFFFFFFFFFFFFFFFFF AND MUL OR SWAP1 SSTORE POP PUSH1 0x2 PUSH1 0x3 SSTORE CALLVALUE DUP1 ISZERO PUSH3 0xBF JUMPI PUSH1 0x0 DUP1 REVERT JUMPDEST POP CALLER PUSH1 0x2 PUSH1 0x0 PUSH2 0x100 EXP DUP2 SLOAD DUP2 PUSH20 0xFFFFFFFFFFFFFFFFFFFFFFFFFFFFFFFFFFFFFFFF MUL NOT AND SWAP1 DUP4 PUSH20 0xFFFFFFFFFFFFFFFFFFFFFFFFFFFFFFFFFFFFFFFF AND MUL OR SWAP1 SSTORE POP PUSH1 0x0 DUP1 PUSH1 0x0 SWAP1 SLOAD SWAP1 PUSH2 0x100 EXP SWAP1 DIV PUSH20 0xFFFFFFFFFFFFFFFFFFFFFFFFFFFFFFFFFFFFFFFF AND PUSH20 0xFFFFFFFFFFFFFFFFFFFFFFFFFFFFFFFFFFFFFFFF AND PUSH4 0x48441D5F PUSH1 0x40 MLOAD DUP2 PUSH4 0xFFFFFFFF AND PUSH1 0xE0 SHL DUP2 MSTORE PUSH1 0x4 ADD PUSH1 0x0 PUSH1 0x40 MLOAD DUP1 DUP4 SUB DUP2 DUP7 DUP1 EXTCODESIZE ISZERO DUP1 ISZERO PUSH3 0x16B JUMPI PUSH1 0x0 DUP1 REVERT JUMPDEST POP GAS STATICCALL ISZERO DUP1 ISZERO PUSH3 0x180 JUMPI RETURNDATASIZE PUSH1 0x0 DUP1 RETURNDATACOPY RETURNDATASIZE PUSH1 0x0 REVERT JUMPDEST POP POP POP POP PUSH1 0x40 MLOAD RETURNDATASIZE PUSH1 0x0 DUP3 RETURNDATACOPY RETURNDATASIZE PUSH1 0x1F NOT PUSH1 0x1F DUP3 ADD AND DUP3 ADD DUP1 PUSH1 0x40 MSTORE POP DUP2 ADD SWAP1 PUSH3 0x1AB SWAP2 SWAP1 PUSH3 0x6A3 JUMP JUMPDEST SWAP1 POP PUSH1 0x0 DUP1 JUMPDEST PUSH1 0x3 DUP2 LT ISZERO PUSH3 0x363 JUMPI PUSH1 0x0 DUP1 PUSH1 0x0 SWAP1 SLOAD SWAP1 PUSH2 0x100 EXP SWAP1 DIV PUSH20 0xFFFFFFFFFFFFFFFFFFFFFFFFFFFFFFFFFFFFFFFF AND PUSH20 0xFFFFFFFFFFFFFFFFFFFFFFFFFFFFFFFFFFFFFFFF AND PUSH4 0x278A7F33 DUP6 DUP5 PUSH1 0x3 DUP2 LT PUSH3 0x210 JUMPI PUSH3 0x20F PUSH3 0x6F4 JUMP JUMPDEST JUMPDEST PUSH1 0x20 MUL ADD MLOAD PUSH1 0x40 MLOAD DUP3 PUSH4 0xFFFFFFFF AND PUSH1 0xE0 SHL DUP2 MSTORE PUSH1 0x4 ADD PUSH3 0x233 SWAP2 SWAP1 PUSH3 0x780 JUMP JUMPDEST PUSH1 0x20 PUSH1 0x40 MLOAD DUP1 DUP4 SUB DUP2 DUP7 DUP1 EXTCODESIZE ISZERO DUP1 ISZERO PUSH3 0x24C JUMPI PUSH1 0x0 DUP1 REVERT JUMPDEST POP GAS STATICCALL ISZERO DUP1 ISZERO PUSH3 0x261 JUMPI RETURNDATASIZE PUSH1 0x0 DUP1 RETURNDATACOPY RETURNDATASIZE PUSH1 0x0 REVERT JUMPDEST POP POP POP POP PUSH1 0x40 MLOAD RETURNDATASIZE PUSH1 0x1F NOT PUSH1 0x1F DUP3 ADD AND DUP3 ADD DUP1 PUSH1 0x40 MSTORE POP DUP2 ADD SWAP1 PUSH3 0x287 SWAP2 SWAP1 PUSH3 0x7E2 JUMP JUMPDEST PUSH1 0xFF AND SWAP1 POP PUSH1 0x4 PUSH1 0x40 MLOAD DUP1 PUSH1 0x60 ADD PUSH1 0x40 MSTORE DUP1 DUP7 DUP6 PUSH1 0x3 DUP2 LT PUSH3 0x2AF JUMPI PUSH3 0x2AE PUSH3 0x6F4 JUMP JUMPDEST JUMPDEST PUSH1 0x20 MUL ADD MLOAD DUP2 MSTORE PUSH1 0x20 ADD DUP6 DUP2 MSTORE PUSH1 0x20 ADD PUSH1 0x1 DUP5 DUP8 PUSH3 0x2CF SWAP2 SWAP1 PUSH3 0x84D JUMP JUMPDEST PUSH3 0x2DB SWAP2 SWAP1 PUSH3 0x8AA JUMP JUMPDEST DUP2 MSTORE POP SWAP1 DUP1 PUSH1 0x1 DUP2 SLOAD ADD DUP1 DUP3 SSTORE DUP1 SWAP2 POP POP PUSH1 0x1 SWAP1 SUB SWAP1 PUSH1 0x0 MSTORE PUSH1 0x20 PUSH1 0x0 KECCAK256 SWAP1 PUSH1 0x3 MUL ADD PUSH1 0x0 SWAP1 SWAP2 SWAP1 SWAP2 SWAP1 SWAP2 POP PUSH1 0x0 DUP3 ADD MLOAD DUP2 PUSH1 0x0 ADD SWAP1 DUP1 MLOAD SWAP1 PUSH1 0x20 ADD SWAP1 PUSH3 0x325 SWAP3 SWAP2 SWAP1 PUSH3 0x36C JUMP JUMPDEST POP PUSH1 0x20 DUP3 ADD MLOAD DUP2 PUSH1 0x1 ADD SSTORE PUSH1 0x40 DUP3 ADD MLOAD DUP2 PUSH1 0x2 ADD SSTORE POP POP DUP1 DUP4 PUSH3 0x34A SWAP2 SWAP1 PUSH3 0x84D JUMP JUMPDEST SWAP3 POP POP DUP1 DUP1 PUSH3 0x35A SWAP1 PUSH3 0x8E5 JUMP JUMPDEST SWAP2 POP POP PUSH3 0x1B1 JUMP JUMPDEST POP POP POP PUSH3 0x998 JUMP JUMPDEST DUP3 DUP1 SLOAD PUSH3 0x37A SWAP1 PUSH3 0x962 JUMP JUMPDEST SWAP1 PUSH1 0x0 MSTORE PUSH1 0x20 PUSH1 0x0 KECCAK256 SWAP1 PUSH1 0x1F ADD PUSH1 0x20 SWAP1 DIV DUP2 ADD SWAP3 DUP3 PUSH3 0x39E JUMPI PUSH1 0x0 DUP6 SSTORE PUSH3 0x3EA JUMP JUMPDEST DUP3 PUSH1 0x1F LT PUSH3 0x3B9 JUMPI DUP1 MLOAD PUSH1 0xFF NOT AND DUP4 DUP1 ADD OR DUP6 SSTORE PUSH3 0x3EA JUMP JUMPDEST DUP3 DUP1 ADD PUSH1 0x1 ADD DUP6 SSTORE DUP3 ISZERO PUSH3 0x3EA JUMPI SWAP2 DUP3 ADD JUMPDEST DUP3 DUP2 GT ISZERO PUSH3 0x3E9 JUMPI DUP3 MLOAD DUP3 SSTORE SWAP2 PUSH1 0x20 ADD SWAP2 SWAP1 PUSH1 0x1 ADD SWAP1 PUSH3 0x3CC JUMP JUMPDEST JUMPDEST POP SWAP1 POP PUSH3 0x3F9 SWAP2 SWAP1 PUSH3 0x3FD JUMP JUMPDEST POP SWAP1 JUMP JUMPDEST JUMPDEST DUP1 DUP3 GT ISZERO PUSH3 0x418 JUMPI PUSH1 0x0 DUP2 PUSH1 0x0 SWAP1 SSTORE POP PUSH1 0x1 ADD PUSH3 0x3FE JUMP JUMPDEST POP SWAP1 JUMP JUMPDEST PUSH1 0x0 PUSH1 0x40 MLOAD SWAP1 POP SWAP1 JUMP JUMPDEST PUSH1 0x0 DUP1 REVERT JUMPDEST PUSH1 0x0 DUP1 REVERT JUMPDEST PUSH1 0x0 DUP1 REVERT JUMPDEST PUSH1 0x0 PUSH1 0x1F NOT PUSH1 0x1F DUP4 ADD AND SWAP1 POP SWAP2 SWAP1 POP JUMP JUMPDEST PUSH32 0x4E487B7100000000000000000000000000000000000000000000000000000000 PUSH1 0x0 MSTORE PUSH1 0x41 PUSH1 0x4 MSTORE PUSH1 0x24 PUSH1 0x0 REVERT JUMPDEST PUSH3 0x480 DUP3 PUSH3 0x435 JUMP JUMPDEST DUP2 ADD DUP2 DUP2 LT PUSH8 0xFFFFFFFFFFFFFFFF DUP3 GT OR ISZERO PUSH3 0x4A2 JUMPI PUSH3 0x4A1 PUSH3 0x446 JUMP JUMPDEST JUMPDEST DUP1 PUSH1 0x40 MSTORE POP POP POP JUMP JUMPDEST PUSH1 0x0 PUSH3 0x4B7 PUSH3 0x41C JUMP JUMPDEST SWAP1 POP PUSH3 0x4C5 DUP3 DUP3 PUSH3 0x475 JUMP JUMPDEST SWAP2 SWAP1 POP JUMP JUMPDEST PUSH1 0x0 PUSH8 0xFFFFFFFFFFFFFFFF DUP3 GT ISZERO PUSH3 0x4E8 JUMPI PUSH3 0x4E7 PUSH3 0x446 JUMP JUMPDEST JUMPDEST PUSH1 0x20 DUP3 MUL SWAP1 POP SWAP2 SWAP1 POP JUMP JUMPDEST PUSH1 0x0 DUP1 REVERT JUMPDEST PUSH1 0x0 DUP1 REVERT JUMPDEST PUSH1 0x0 PUSH8 0xFFFFFFFFFFFFFFFF DUP3 GT ISZERO PUSH3 0x51B JUMPI PUSH3 0x51A PUSH3 0x446 JUMP JUMPDEST JUMPDEST PUSH3 0x526 DUP3 PUSH3 0x435 JUMP JUMPDEST SWAP1 POP PUSH1 0x20 DUP2 ADD SWAP1 POP SWAP2 SWAP1 POP JUMP JUMPDEST PUSH1 0x0 JUMPDEST DUP4 DUP2 LT ISZERO PUSH3 0x553 JUMPI DUP1 DUP3 ADD MLOAD DUP2 DUP5 ADD MSTORE PUSH1 0x20 DUP2 ADD SWAP1 POP PUSH3 0x536 JUMP JUMPDEST DUP4 DUP2 GT ISZERO PUSH3 0x563 JUMPI PUSH1 0x0 DUP5 DUP5 ADD MSTORE JUMPDEST POP POP POP POP JUMP JUMPDEST PUSH1 0x0 PUSH3 0x580 PUSH3 0x57A DUP5 PUSH3 0x4FD JUMP JUMPDEST PUSH3 0x4AB JUMP JUMPDEST SWAP1 POP DUP3 DUP2 MSTORE PUSH1 0x20 DUP2 ADD DUP5 DUP5 DUP5 ADD GT ISZERO PUSH3 0x59F JUMPI PUSH3 0x59E PUSH3 0x4F8 JUMP JUMPDEST JUMPDEST PUSH3 0x5AC DUP5 DUP3 DUP6 PUSH3 0x533 JUMP JUMPDEST POP SWAP4 SWAP3 POP POP POP JUMP JUMPDEST PUSH1 0x0 DUP3 PUSH1 0x1F DUP4 ADD SLT PUSH3 0x5CC JUMPI PUSH3 0x5CB PUSH3 0x430 JUMP JUMPDEST JUMPDEST DUP2 MLOAD PUSH3 0x5DE DUP5 DUP3 PUSH1 0x20 DUP7 ADD PUSH3 0x569 JUMP JUMPDEST SWAP2 POP POP SWAP3 SWAP2 POP POP JUMP JUMPDEST PUSH1 0x0 PUSH3 0x5FE PUSH3 0x5F8 DUP5 PUSH3 0x4CA JUMP JUMPDEST PUSH3 0x4AB JUMP JUMPDEST SWAP1 POP DUP1 PUSH1 0x20 DUP5 MUL DUP4 ADD DUP6 DUP2 GT ISZERO PUSH3 0x61B JUMPI PUSH3 0x61A PUSH3 0x4F3 JUMP JUMPDEST JUMPDEST DUP4 JUMPDEST DUP2 DUP2 LT ISZERO PUSH3 0x669 JUMPI DUP1 MLOAD PUSH8 0xFFFFFFFFFFFFFFFF DUP2 GT ISZERO PUSH3 0x644 JUMPI PUSH3 0x643 PUSH3 0x430 JUMP JUMPDEST JUMPDEST DUP1 DUP7 ADD PUSH3 0x653 DUP10 DUP3 PUSH3 0x5B4 JUMP JUMPDEST DUP6 MSTORE PUSH1 0x20 DUP6 ADD SWAP5 POP POP POP PUSH1 0x20 DUP2 ADD SWAP1 POP PUSH3 0x61D JUMP JUMPDEST POP POP POP SWAP4 SWAP3 POP POP POP JUMP JUMPDEST PUSH1 0x0 DUP3 PUSH1 0x1F DUP4 ADD SLT PUSH3 0x68B JUMPI PUSH3 0x68A PUSH3 0x430 JUMP JUMPDEST JUMPDEST PUSH1 0x3 PUSH3 0x69A DUP5 DUP3 DUP6 PUSH3 0x5E7 JUMP JUMPDEST SWAP2 POP POP SWAP3 SWAP2 POP POP JUMP JUMPDEST PUSH1 0x0 PUSH1 0x20 DUP3 DUP5 SUB SLT ISZERO PUSH3 0x6BC JUMPI PUSH3 0x6BB PUSH3 0x426 JUMP JUMPDEST JUMPDEST PUSH1 0x0 DUP3 ADD MLOAD PUSH8 0xFFFFFFFFFFFFFFFF DUP2 GT ISZERO PUSH3 0x6DD JUMPI PUSH3 0x6DC PUSH3 0x42B JUMP JUMPDEST JUMPDEST PUSH3 0x6EB DUP5 DUP3 DUP6 ADD PUSH3 0x673 JUMP JUMPDEST SWAP2 POP POP SWAP3 SWAP2 POP POP JUMP JUMPDEST PUSH32 0x4E487B7100000000000000000000000000000000000000000000000000000000 PUSH1 0x0 MSTORE PUSH1 0x32 PUSH1 0x4 MSTORE PUSH1 0x24 PUSH1 0x0 REVERT JUMPDEST PUSH1 0x0 DUP2 MLOAD SWAP1 POP SWAP2 SWAP1 POP JUMP JUMPDEST PUSH1 0x0 DUP3 DUP3 MSTORE PUSH1 0x20 DUP3 ADD SWAP1 POP SWAP3 SWAP2 POP POP JUMP JUMPDEST PUSH1 0x0 PUSH3 0x74C DUP3 PUSH3 0x723 JUMP JUMPDEST PUSH3 0x758 DUP2 DUP6 PUSH3 0x72E JUMP JUMPDEST SWAP4 POP PUSH3 0x76A DUP2 DUP6 PUSH1 0x20 DUP7 ADD PUSH3 0x533 JUMP JUMPDEST PUSH3 0x775 DUP2 PUSH3 0x435 JUMP JUMPDEST DUP5 ADD SWAP2 POP POP SWAP3 SWAP2 POP POP JUMP JUMPDEST PUSH1 0x0 PUSH1 0x20 DUP3 ADD SWAP1 POP DUP2 DUP2 SUB PUSH1 0x0 DUP4 ADD MSTORE PUSH3 0x79C DUP2 DUP5 PUSH3 0x73F JUMP JUMPDEST SWAP1 POP SWAP3 SWAP2 POP POP JUMP JUMPDEST PUSH1 0x0 PUSH1 0xFF DUP3 AND SWAP1 POP SWAP2 SWAP1 POP JUMP JUMPDEST PUSH3 0x7BC DUP2 PUSH3 0x7A4 JUMP JUMPDEST DUP2 EQ PUSH3 0x7C8 JUMPI PUSH1 0x0 DUP1 REVERT JUMPDEST POP JUMP JUMPDEST PUSH1 0x0 DUP2 MLOAD SWAP1 POP PUSH3 0x7DC DUP2 PUSH3 0x7B1 JUMP JUMPDEST SWAP3 SWAP2 POP POP JUMP JUMPDEST PUSH1 0x0 PUSH1 0x20 DUP3 DUP5 SUB SLT ISZERO PUSH3 0x7FB JUMPI PUSH3 0x7FA PUSH3 0x426 JUMP JUMPDEST JUMPDEST PUSH1 0x0 PUSH3 0x80B DUP5 DUP3 DUP6 ADD PUSH3 0x7CB JUMP JUMPDEST SWAP2 POP POP SWAP3 SWAP2 POP POP JUMP JUMPDEST PUSH1 0x0 DUP2 SWAP1 POP SWAP2 SWAP1 POP JUMP JUMPDEST PUSH32 0x4E487B7100000000000000000000000000000000000000000000000000000000 PUSH1 0x0 MSTORE PUSH1 0x11 PUSH1 0x4 MSTORE PUSH1 0x24 PUSH1 0x0 REVERT JUMPDEST PUSH1 0x0 PUSH3 0x85A DUP3 PUSH3 0x814 JUMP JUMPDEST SWAP2 POP PUSH3 0x867 DUP4 PUSH3 0x814 JUMP JUMPDEST SWAP3 POP DUP3 PUSH32 0xFFFFFFFFFFFFFFFFFFFFFFFFFFFFFFFFFFFFFFFFFFFFFFFFFFFFFFFFFFFFFFFF SUB DUP3 GT ISZERO PUSH3 0x89F JUMPI PUSH3 0x89E PUSH3 0x81E JUMP JUMPDEST JUMPDEST DUP3 DUP3 ADD SWAP1 POP SWAP3 SWAP2 POP POP JUMP JUMPDEST PUSH1 0x0 PUSH3 0x8B7 DUP3 PUSH3 0x814 JUMP JUMPDEST SWAP2 POP PUSH3 0x8C4 DUP4 PUSH3 0x814 JUMP JUMPDEST SWAP3 POP DUP3 DUP3 LT ISZERO PUSH3 0x8DA JUMPI PUSH3 0x8D9 PUSH3 0x81E JUMP JUMPDEST JUMPDEST DUP3 DUP3 SUB SWAP1 POP SWAP3 SWAP2 POP POP JUMP JUMPDEST PUSH1 0x0 PUSH3 0x8F2 DUP3 PUSH3 0x814 JUMP JUMPDEST SWAP2 POP PUSH32 0xFFFFFFFFFFFFFFFFFFFFFFFFFFFFFFFFFFFFFFFFFFFFFFFFFFFFFFFFFFFFFFFF DUP3 EQ ISZERO PUSH3 0x928 JUMPI PUSH3 0x927 PUSH3 0x81E JUMP JUMPDEST JUMPDEST PUSH1 0x1 DUP3 ADD SWAP1 POP SWAP2 SWAP1 POP JUMP JUMPDEST PUSH32 0x4E487B7100000000000000000000000000000000000000000000000000000000 PUSH1 0x0 MSTORE PUSH1 0x22 PUSH1 0x4 MSTORE PUSH1 0x24 PUSH1 0x0 REVERT JUMPDEST PUSH1 0x0 PUSH1 0x2 DUP3 DIV SWAP1 POP PUSH1 0x1 DUP3 AND DUP1 PUSH3 0x97B JUMPI PUSH1 0x7F DUP3 AND SWAP2 POP JUMPDEST PUSH1 0x20 DUP3 LT DUP2 EQ ISZERO PUSH3 0x992 JUMPI PUSH3 0x991 PUSH3 0x933 JUMP JUMPDEST JUMPDEST POP SWAP2 SWAP1 POP JUMP JUMPDEST PUSH2 0xC57 DUP1 PUSH3 0x9A8 PUSH1 0x0 CODECOPY PUSH1 0x0 RETURN INVALID PUSH1 0x80 PUSH1 0x40 MSTORE CALLVALUE DUP1 ISZERO PUSH2 0x10 JUMPI PUSH1 0x0 DUP1 REVERT JUMPDEST POP PUSH1 0x4 CALLDATASIZE LT PUSH2 0x88 JUMPI PUSH1 0x0 CALLDATALOAD PUSH1 0xE0 SHR DUP1 PUSH4 0xC15D3EAD GT PUSH2 0x5B JUMPI DUP1 PUSH4 0xC15D3EAD EQ PUSH2 0x12C JUMPI DUP1 PUSH4 0xD1A35EF2 EQ PUSH2 0x148 JUMPI DUP1 PUSH4 0xE917EC96 EQ PUSH2 0x17A JUMPI DUP1 PUSH4 0xFC6F9468 EQ PUSH2 0x184 JUMPI PUSH2 0x88 JUMP JUMPDEST DUP1 PUSH4 0x6CD309B EQ PUSH2 0x8D JUMPI DUP1 PUSH4 0x6FD3D9E2 EQ PUSH2 0xAB JUMPI DUP1 PUSH4 0x7259E0F8 EQ PUSH2 0xDD JUMPI DUP1 PUSH4 0x8F84AA09 EQ PUSH2 0x10E JUMPI JUMPDEST PUSH1 0x0 DUP1 REVERT JUMPDEST PUSH2 0x95 PUSH2 0x1A2 JUMP JUMPDEST PUSH1 0x40 MLOAD PUSH2 0xA2 SWAP2 SWAP1 PUSH2 0x794 JUMP JUMPDEST PUSH1 0x40 MLOAD DUP1 SWAP2 SUB SWAP1 RETURN JUMPDEST PUSH2 0xC5 PUSH1 0x4 DUP1 CALLDATASIZE SUB DUP2 ADD SWAP1 PUSH2 0xC0 SWAP2 SWAP1 PUSH2 0x7E0 JUMP JUMPDEST PUSH2 0x1A8 JUMP JUMPDEST PUSH1 0x40 MLOAD PUSH2 0xD4 SWAP4 SWAP3 SWAP2 SWAP1 PUSH2 0x8A6 JUMP JUMPDEST PUSH1 0x40 MLOAD DUP1 SWAP2 SUB SWAP1 RETURN JUMPDEST PUSH2 0xF7 PUSH1 0x4 DUP1 CALLDATASIZE SUB DUP2 ADD SWAP1 PUSH2 0xF2 SWAP2 SWAP1 PUSH2 0x7E0 JUMP JUMPDEST PUSH2 0x26A JUMP JUMPDEST PUSH1 0x40 MLOAD PUSH2 0x105 SWAP3 SWAP2 SWAP1 PUSH2 0x925 JUMP JUMPDEST PUSH1 0x40 MLOAD DUP1 SWAP2 SUB SWAP1 RETURN JUMPDEST PUSH2 0x116 PUSH2 0x2BE JUMP JUMPDEST PUSH1 0x40 MLOAD PUSH2 0x123 SWAP2 SWAP1 PUSH2 0x94E JUMP JUMPDEST PUSH1 0x40 MLOAD DUP1 SWAP2 SUB SWAP1 RETURN JUMPDEST PUSH2 0x146 PUSH1 0x4 DUP1 CALLDATASIZE SUB DUP2 ADD SWAP1 PUSH2 0x141 SWAP2 SWAP1 PUSH2 0x7E0 JUMP JUMPDEST PUSH2 0x2E4 JUMP JUMPDEST STOP JUMPDEST PUSH2 0x162 PUSH1 0x4 DUP1 CALLDATASIZE SUB DUP2 ADD SWAP1 PUSH2 0x15D SWAP2 SWAP1 PUSH2 0x7E0 JUMP JUMPDEST PUSH2 0x3D6 JUMP JUMPDEST PUSH1 0x40 MLOAD PUSH2 0x171 SWAP4 SWAP3 SWAP2 SWAP1 PUSH2 0x969 JUMP JUMPDEST PUSH1 0x40 MLOAD DUP1 SWAP2 SUB SWAP1 RETURN JUMPDEST PUSH2 0x182 PUSH2 0x4B8 JUMP JUMPDEST STOP JUMPDEST PUSH2 0x18C PUSH2 0x585 JUMP JUMPDEST PUSH1 0x40 MLOAD PUSH2 0x199 SWAP2 SWAP1 PUSH2 0x94E JUMP JUMPDEST PUSH1 0x40 MLOAD DUP1 SWAP2 SUB SWAP1 RETURN JUMPDEST PUSH1 0x3 SLOAD DUP2 JUMP JUMPDEST PUSH1 0x4 DUP2 DUP2 SLOAD DUP2 LT PUSH2 0x1B8 JUMPI PUSH1 0x0 DUP1 REVERT JUMPDEST SWAP1 PUSH1 0x0 MSTORE PUSH1 0x20 PUSH1 0x0 KECCAK256 SWAP1 PUSH1 0x3 MUL ADD PUSH1 0x0 SWAP2 POP SWAP1 POP DUP1 PUSH1 0x0 ADD DUP1 SLOAD PUSH2 0x1DB SWAP1 PUSH2 0x9D6 JUMP JUMPDEST DUP1 PUSH1 0x1F ADD PUSH1 0x20 DUP1 SWAP2 DIV MUL PUSH1 0x20 ADD PUSH1 0x40 MLOAD SWAP1 DUP2 ADD PUSH1 0x40 MSTORE DUP1 SWAP3 SWAP2 SWAP1 DUP2 DUP2 MSTORE PUSH1 0x20 ADD DUP3 DUP1 SLOAD PUSH2 0x207 SWAP1 PUSH2 0x9D6 JUMP JUMPDEST DUP1 ISZERO PUSH2 0x254 JUMPI DUP1 PUSH1 0x1F LT PUSH2 0x229 JUMPI PUSH2 0x100 DUP1 DUP4 SLOAD DIV MUL DUP4 MSTORE SWAP2 PUSH1 0x20 ADD SWAP2 PUSH2 0x254 JUMP JUMPDEST DUP3 ADD SWAP2 SWAP1 PUSH1 0x0 MSTORE PUSH1 0x20 PUSH1 0x0 KECCAK256 SWAP1 JUMPDEST DUP2 SLOAD DUP2 MSTORE SWAP1 PUSH1 0x1 ADD SWAP1 PUSH1 0x20 ADD DUP1 DUP4 GT PUSH2 0x237 JUMPI DUP3 SWAP1 SUB PUSH1 0x1F AND DUP3 ADD SWAP2 JUMPDEST POP POP POP POP POP SWAP1 DUP1 PUSH1 0x1 ADD SLOAD SWAP1 DUP1 PUSH1 0x2 ADD SLOAD SWAP1 POP DUP4 JUMP JUMPDEST PUSH1 0x5 DUP2 DUP2 SLOAD DUP2 LT PUSH2 0x27A JUMPI PUSH1 0x0 DUP1 REVERT JUMPDEST SWAP1 PUSH1 0x0 MSTORE PUSH1 0x20 PUSH1 0x0 KECCAK256 SWAP1 PUSH1 0x2 MUL ADD PUSH1 0x0 SWAP2 POP SWAP1 POP DUP1 PUSH1 0x0 ADD PUSH1 0x0 SWAP1 SLOAD SWAP1 PUSH2 0x100 EXP SWAP1 DIV PUSH20 0xFFFFFFFFFFFFFFFFFFFFFFFFFFFFFFFFFFFFFFFF AND SWAP1 DUP1 PUSH1 0x1 ADD SLOAD SWAP1 POP DUP3 JUMP JUMPDEST PUSH1 0x1 PUSH1 0x0 SWAP1 SLOAD SWAP1 PUSH2 0x100 EXP SWAP1 DIV PUSH20 0xFFFFFFFFFFFFFFFFFFFFFFFFFFFFFFFFFFFFFFFF AND DUP2 JUMP JUMPDEST PUSH1 0x2 PUSH1 0x0 SWAP1 SLOAD SWAP1 PUSH2 0x100 EXP SWAP1 DIV PUSH20 0xFFFFFFFFFFFFFFFFFFFFFFFFFFFFFFFFFFFFFFFF AND PUSH20 0xFFFFFFFFFFFFFFFFFFFFFFFFFFFFFFFFFFFFFFFF AND CALLER PUSH20 0xFFFFFFFFFFFFFFFFFFFFFFFFFFFFFFFFFFFFFFFF AND EQ DUP1 PUSH2 0x38D JUMPI POP PUSH1 0x1 PUSH1 0x0 SWAP1 SLOAD SWAP1 PUSH2 0x100 EXP SWAP1 DIV PUSH20 0xFFFFFFFFFFFFFFFFFFFFFFFFFFFFFFFFFFFFFFFF AND PUSH20 0xFFFFFFFFFFFFFFFFFFFFFFFFFFFFFFFFFFFFFFFF AND CALLER PUSH20 0xFFFFFFFFFFFFFFFFFFFFFFFFFFFFFFFFFFFFFFFF AND EQ JUMPDEST PUSH2 0x3CC JUMPI PUSH1 0x40 MLOAD PUSH32 0x8C379A000000000000000000000000000000000000000000000000000000000 DUP2 MSTORE PUSH1 0x4 ADD PUSH2 0x3C3 SWAP1 PUSH2 0xA54 JUMP JUMPDEST PUSH1 0x40 MLOAD DUP1 SWAP2 SUB SWAP1 REVERT JUMPDEST DUP1 PUSH1 0x3 DUP2 SWAP1 SSTORE POP POP JUMP JUMPDEST PUSH1 0x6 DUP2 DUP2 SLOAD DUP2 LT PUSH2 0x3E6 JUMPI PUSH1 0x0 DUP1 REVERT JUMPDEST SWAP1 PUSH1 0x0 MSTORE PUSH1 0x20 PUSH1 0x0 KECCAK256 SWAP1 PUSH1 0x3 MUL ADD PUSH1 0x0 SWAP2 POP SWAP1 POP DUP1 PUSH1 0x0 ADD PUSH1 0x0 SWAP1 SLOAD SWAP1 PUSH2 0x100 EXP SWAP1 DIV PUSH20 0xFFFFFFFFFFFFFFFFFFFFFFFFFFFFFFFFFFFFFFFF AND SWAP1 DUP1 PUSH1 0x1 ADD SLOAD SWAP1 DUP1 PUSH1 0x2 ADD DUP1 SLOAD PUSH2 0x435 SWAP1 PUSH2 0x9D6 JUMP JUMPDEST DUP1 PUSH1 0x1F ADD PUSH1 0x20 DUP1 SWAP2 DIV MUL PUSH1 0x20 ADD PUSH1 0x40 MLOAD SWAP1 DUP2 ADD PUSH1 0x40 MSTORE DUP1 SWAP3 SWAP2 SWAP1 DUP2 DUP2 MSTORE PUSH1 0x20 ADD DUP3 DUP1 SLOAD PUSH2 0x461 SWAP1 PUSH2 0x9D6 JUMP JUMPDEST DUP1 ISZERO PUSH2 0x4AE JUMPI DUP1 PUSH1 0x1F LT PUSH2 0x483 JUMPI PUSH2 0x100 DUP1 DUP4 SLOAD DIV MUL DUP4 MSTORE SWAP2 PUSH1 0x20 ADD SWAP2 PUSH2 0x4AE JUMP JUMPDEST DUP3 ADD SWAP2 SWAP1 PUSH1 0x0 MSTORE PUSH1 0x20 PUSH1 0x0 KECCAK256 SWAP1 JUMPDEST DUP2 SLOAD DUP2 MSTORE SWAP1 PUSH1 0x1 ADD SWAP1 PUSH1 0x20 ADD DUP1 DUP4 GT PUSH2 0x491 JUMPI DUP3 SWAP1 SUB PUSH1 0x1F AND DUP3 ADD SWAP2 JUMPDEST POP POP POP POP POP SWAP1 POP DUP4 JUMP JUMPDEST PUSH1 0x0 PUSH2 0x4C2 PUSH2 0x5AB JUMP JUMPDEST SWAP1 POP PUSH1 0x0 PUSH2 0x4CF DUP3 PUSH2 0x5F1 JUMP JUMPDEST SWAP1 POP PUSH1 0x0 PUSH1 0x40 MLOAD DUP1 PUSH1 0x40 ADD PUSH1 0x40 MSTORE DUP1 CALLER PUSH20 0xFFFFFFFFFFFFFFFFFFFFFFFFFFFFFFFFFFFFFFFF AND DUP2 MSTORE PUSH1 0x20 ADD PUSH1 0x1 DUP2 MSTORE POP SWAP1 POP PUSH1 0x5 DUP2 SWAP1 DUP1 PUSH1 0x1 DUP2 SLOAD ADD DUP1 DUP3 SSTORE DUP1 SWAP2 POP POP PUSH1 0x1 SWAP1 SUB SWAP1 PUSH1 0x0 MSTORE PUSH1 0x20 PUSH1 0x0 KECCAK256 SWAP1 PUSH1 0x2 MUL ADD PUSH1 0x0 SWAP1 SWAP2 SWAP1 SWAP2 SWAP1 SWAP2 POP PUSH1 0x0 DUP3 ADD MLOAD DUP2 PUSH1 0x0 ADD PUSH1 0x0 PUSH2 0x100 EXP DUP2 SLOAD DUP2 PUSH20 0xFFFFFFFFFFFFFFFFFFFFFFFFFFFFFFFFFFFFFFFF MUL NOT AND SWAP1 DUP4 PUSH20 0xFFFFFFFFFFFFFFFFFFFFFFFFFFFFFFFFFFFFFFFF AND MUL OR SWAP1 SSTORE POP PUSH1 0x20 DUP3 ADD MLOAD DUP2 PUSH1 0x1 ADD SSTORE POP POP POP POP POP JUMP JUMPDEST PUSH1 0x2 PUSH1 0x0 SWAP1 SLOAD SWAP1 PUSH2 0x100 EXP SWAP1 DIV PUSH20 0xFFFFFFFFFFFFFFFFFFFFFFFFFFFFFFFFFFFFFFFF AND DUP2 JUMP JUMPDEST PUSH1 0x0 DUP1 PUSH1 0x64 CALLER TIMESTAMP DIFFICULTY PUSH1 0x40 MLOAD PUSH1 0x20 ADD PUSH2 0x5C5 SWAP4 SWAP3 SWAP2 SWAP1 PUSH2 0xADD JUMP JUMPDEST PUSH1 0x40 MLOAD PUSH1 0x20 DUP2 DUP4 SUB SUB DUP2 MSTORE SWAP1 PUSH1 0x40 MSTORE DUP1 MLOAD SWAP1 PUSH1 0x20 ADD KECCAK256 PUSH1 0x0 SHR PUSH2 0x5E8 SWAP2 SWAP1 PUSH2 0xB49 JUMP JUMPDEST SWAP1 POP DUP1 SWAP2 POP POP SWAP1 JUMP JUMPDEST PUSH1 0x60 PUSH1 0x0 DUP1 JUMPDEST DUP2 ISZERO DUP1 ISZERO PUSH2 0x609 JUMPI POP PUSH1 0x4 DUP1 SLOAD SWAP1 POP DUP2 LT JUMPDEST ISZERO PUSH2 0x73B JUMPI PUSH1 0x4 DUP2 DUP2 SLOAD DUP2 LT PUSH2 0x622 JUMPI PUSH2 0x621 PUSH2 0xB7A JUMP JUMPDEST JUMPDEST SWAP1 PUSH1 0x0 MSTORE PUSH1 0x20 PUSH1 0x0 KECCAK256 SWAP1 PUSH1 0x3 MUL ADD PUSH1 0x1 ADD SLOAD DUP5 LT ISZERO DUP1 ISZERO PUSH2 0x668 JUMPI POP PUSH1 0x4 DUP2 DUP2 SLOAD DUP2 LT PUSH2 0x652 JUMPI PUSH2 0x651 PUSH2 0xB7A JUMP JUMPDEST JUMPDEST SWAP1 PUSH1 0x0 MSTORE PUSH1 0x20 PUSH1 0x0 KECCAK256 SWAP1 PUSH1 0x3 MUL ADD PUSH1 0x2 ADD SLOAD DUP5 GT ISZERO JUMPDEST ISZERO PUSH2 0x728 JUMPI PUSH1 0x1 SWAP2 POP PUSH1 0x4 DUP2 DUP2 SLOAD DUP2 LT PUSH2 0x685 JUMPI PUSH2 0x684 PUSH2 0xB7A JUMP JUMPDEST JUMPDEST SWAP1 PUSH1 0x0 MSTORE PUSH1 0x20 PUSH1 0x0 KECCAK256 SWAP1 PUSH1 0x3 MUL ADD PUSH1 0x0 ADD DUP1 SLOAD PUSH2 0x6A1 SWAP1 PUSH2 0x9D6 JUMP JUMPDEST DUP1 PUSH1 0x1F ADD PUSH1 0x20 DUP1 SWAP2 DIV MUL PUSH1 0x20 ADD PUSH1 0x40 MLOAD SWAP1 DUP2 ADD PUSH1 0x40 MSTORE DUP1 SWAP3 SWAP2 SWAP1 DUP2 DUP2 MSTORE PUSH1 0x20 ADD DUP3 DUP1 SLOAD PUSH2 0x6CD SWAP1 PUSH2 0x9D6 JUMP JUMPDEST DUP1 ISZERO PUSH2 0x71A JUMPI DUP1 PUSH1 0x1F LT PUSH2 0x6EF JUMPI PUSH2 0x100 DUP1 DUP4 SLOAD DIV MUL DUP4 MSTORE SWAP2 PUSH1 0x20 ADD SWAP2 PUSH2 0x71A JUMP JUMPDEST DUP3 ADD SWAP2 SWAP1 PUSH1 0x0 MSTORE PUSH1 0x20 PUSH1 0x0 KECCAK256 SWAP1 JUMPDEST DUP2 SLOAD DUP2 MSTORE SWAP1 PUSH1 0x1 ADD SWAP1 PUSH1 0x20 ADD DUP1 DUP4 GT PUSH2 0x6FD JUMPI DUP3 SWAP1 SUB PUSH1 0x1F AND DUP3 ADD SWAP2 JUMPDEST POP POP POP POP POP SWAP3 POP POP POP PUSH2 0x776 JUMP JUMPDEST DUP1 DUP1 PUSH2 0x733 SWAP1 PUSH2 0xBD8 JUMP JUMPDEST SWAP2 POP POP PUSH2 0x5F7 JUMP JUMPDEST PUSH1 0x40 MLOAD DUP1 PUSH1 0x40 ADD PUSH1 0x40 MSTORE DUP1 PUSH1 0x9 DUP2 MSTORE PUSH1 0x20 ADD PUSH32 0x4E6F7420466F756E640000000000000000000000000000000000000000000000 DUP2 MSTORE POP SWAP3 POP POP POP JUMPDEST SWAP2 SWAP1 POP JUMP JUMPDEST PUSH1 0x0 DUP2 SWAP1 POP SWAP2 SWAP1 POP JUMP JUMPDEST PUSH2 0x78E DUP2 PUSH2 0x77B JUMP JUMPDEST DUP3 MSTORE POP POP JUMP JUMPDEST PUSH1 0x0 PUSH1 0x20 DUP3 ADD SWAP1 POP PUSH2 0x7A9 PUSH1 0x0 DUP4 ADD DUP5 PUSH2 0x785 JUMP JUMPDEST SWAP3 SWAP2 POP POP JUMP JUMPDEST PUSH1 0x0 DUP1 REVERT JUMPDEST PUSH2 0x7BD DUP2 PUSH2 0x77B JUMP JUMPDEST DUP2 EQ PUSH2 0x7C8 JUMPI PUSH1 0x0 DUP1 REVERT JUMPDEST POP JUMP JUMPDEST PUSH1 0x0 DUP2 CALLDATALOAD SWAP1 POP PUSH2 0x7DA DUP2 PUSH2 0x7B4 JUMP JUMPDEST SWAP3 SWAP2 POP POP JUMP JUMPDEST PUSH1 0x0 PUSH1 0x20 DUP3 DUP5 SUB SLT ISZERO PUSH2 0x7F6 JUMPI PUSH2 0x7F5 PUSH2 0x7AF JUMP JUMPDEST JUMPDEST PUSH1 0x0 PUSH2 0x804 DUP5 DUP3 DUP6 ADD PUSH2 0x7CB JUMP JUMPDEST SWAP2 POP POP SWAP3 SWAP2 POP POP JUMP JUMPDEST PUSH1 0x0 DUP2 MLOAD SWAP1 POP SWAP2 SWAP1 POP JUMP JUMPDEST PUSH1 0x0 DUP3 DUP3 MSTORE PUSH1 0x20 DUP3 ADD SWAP1 POP SWAP3 SWAP2 POP POP JUMP JUMPDEST PUSH1 0x0 JUMPDEST DUP4 DUP2 LT ISZERO PUSH2 0x847 JUMPI DUP1 DUP3 ADD MLOAD DUP2 DUP5 ADD MSTORE PUSH1 0x20 DUP2 ADD SWAP1 POP PUSH2 0x82C JUMP JUMPDEST DUP4 DUP2 GT ISZERO PUSH2 0x856 JUMPI PUSH1 0x0 DUP5 DUP5 ADD MSTORE JUMPDEST POP POP POP POP JUMP JUMPDEST PUSH1 0x0 PUSH1 0x1F NOT PUSH1 0x1F DUP4 ADD AND SWAP1 POP SWAP2 SWAP1 POP JUMP JUMPDEST PUSH1 0x0 PUSH2 0x878 DUP3 PUSH2 0x80D JUMP JUMPDEST PUSH2 0x882 DUP2 DUP6 PUSH2 0x818 JUMP JUMPDEST SWAP4 POP PUSH2 0x892 DUP2 DUP6 PUSH1 0x20 DUP7 ADD PUSH2 0x829 JUMP JUMPDEST PUSH2 0x89B DUP2 PUSH2 0x85C JUMP JUMPDEST DUP5 ADD SWAP2 POP POP SWAP3 SWAP2 POP POP JUMP JUMPDEST PUSH1 0x0 PUSH1 0x60 DUP3 ADD SWAP1 POP DUP2 DUP2 SUB PUSH1 0x0 DUP4 ADD MSTORE PUSH2 0x8C0 DUP2 DUP7 PUSH2 0x86D JUMP JUMPDEST SWAP1 POP PUSH2 0x8CF PUSH1 0x20 DUP4 ADD DUP6 PUSH2 0x785 JUMP JUMPDEST PUSH2 0x8DC PUSH1 0x40 DUP4 ADD DUP5 PUSH2 0x785 JUMP JUMPDEST SWAP5 SWAP4 POP POP POP POP JUMP JUMPDEST PUSH1 0x0 PUSH20 0xFFFFFFFFFFFFFFFFFFFFFFFFFFFFFFFFFFFFFFFF DUP3 AND SWAP1 POP SWAP2 SWAP1 POP JUMP JUMPDEST PUSH1 0x0 PUSH2 0x90F DUP3 PUSH2 0x8E4 JUMP JUMPDEST SWAP1 POP SWAP2 SWAP1 POP JUMP JUMPDEST PUSH2 0x91F DUP2 PUSH2 0x904 JUMP JUMPDEST DUP3 MSTORE POP POP JUMP JUMPDEST PUSH1 0x0 PUSH1 0x40 DUP3 ADD SWAP1 POP PUSH2 0x93A PUSH1 0x0 DUP4 ADD DUP6 PUSH2 0x916 JUMP JUMPDEST PUSH2 0x947 PUSH1 0x20 DUP4 ADD DUP5 PUSH2 0x785 JUMP JUMPDEST SWAP4 SWAP3 POP POP POP JUMP JUMPDEST PUSH1 0x0 PUSH1 0x20 DUP3 ADD SWAP1 POP PUSH2 0x963 PUSH1 0x0 DUP4 ADD DUP5 PUSH2 0x916 JUMP JUMPDEST SWAP3 SWAP2 POP POP JUMP JUMPDEST PUSH1 0x0 PUSH1 0x60 DUP3 ADD SWAP1 POP PUSH2 0x97E PUSH1 0x0 DUP4 ADD DUP7 PUSH2 0x916 JUMP JUMPDEST PUSH2 0x98B PUSH1 0x20 DUP4 ADD DUP6 PUSH2 0x785 JUMP JUMPDEST DUP2 DUP2 SUB PUSH1 0x40 DUP4 ADD MSTORE PUSH2 0x99D DUP2 DUP5 PUSH2 0x86D JUMP JUMPDEST SWAP1 POP SWAP5 SWAP4 POP POP POP POP JUMP JUMPDEST PUSH32 0x4E487B7100000000000000000000000000000000000000000000000000000000 PUSH1 0x0 MSTORE PUSH1 0x22 PUSH1 0x4 MSTORE PUSH1 0x24 PUSH1 0x0 REVERT JUMPDEST PUSH1 0x0 PUSH1 0x2 DUP3 DIV SWAP1 POP PUSH1 0x1 DUP3 AND DUP1 PUSH2 0x9EE JUMPI PUSH1 0x7F DUP3 AND SWAP2 POP JUMPDEST PUSH1 0x20 DUP3 LT DUP2 EQ ISZERO PUSH2 0xA02 JUMPI PUSH2 0xA01 PUSH2 0x9A7 JUMP JUMPDEST JUMPDEST POP SWAP2 SWAP1 POP JUMP JUMPDEST PUSH32 0x4E6F7420417574686F72697A65642C2041646D696E204F6E6C79000000000000 PUSH1 0x0 DUP3 ADD MSTORE POP JUMP JUMPDEST PUSH1 0x0 PUSH2 0xA3E PUSH1 0x1A DUP4 PUSH2 0x818 JUMP JUMPDEST SWAP2 POP PUSH2 0xA49 DUP3 PUSH2 0xA08 JUMP JUMPDEST PUSH1 0x20 DUP3 ADD SWAP1 POP SWAP2 SWAP1 POP JUMP JUMPDEST PUSH1 0x0 PUSH1 0x20 DUP3 ADD SWAP1 POP DUP2 DUP2 SUB PUSH1 0x0 DUP4 ADD MSTORE PUSH2 0xA6D DUP2 PUSH2 0xA31 JUMP JUMPDEST SWAP1 POP SWAP2 SWAP1 POP JUMP JUMPDEST PUSH1 0x0 DUP2 PUSH1 0x60 SHL SWAP1 POP SWAP2 SWAP1 POP JUMP JUMPDEST PUSH1 0x0 PUSH2 0xA8C DUP3 PUSH2 0xA74 JUMP JUMPDEST SWAP1 POP SWAP2 SWAP1 POP JUMP JUMPDEST PUSH1 0x0 PUSH2 0xA9E DUP3 PUSH2 0xA81 JUMP JUMPDEST SWAP1 POP SWAP2 SWAP1 POP JUMP JUMPDEST PUSH2 0xAB6 PUSH2 0xAB1 DUP3 PUSH2 0x904 JUMP JUMPDEST PUSH2 0xA93 JUMP JUMPDEST DUP3 MSTORE POP POP JUMP JUMPDEST PUSH1 0x0 DUP2 SWAP1 POP SWAP2 SWAP1 POP JUMP JUMPDEST PUSH2 0xAD7 PUSH2 0xAD2 DUP3 PUSH2 0x77B JUMP JUMPDEST PUSH2 0xABC JUMP JUMPDEST DUP3 MSTORE POP POP JUMP JUMPDEST PUSH1 0x0 PUSH2 0xAE9 DUP3 DUP7 PUSH2 0xAA5 JUMP JUMPDEST PUSH1 0x14 DUP3 ADD SWAP2 POP PUSH2 0xAF9 DUP3 DUP6 PUSH2 0xAC6 JUMP JUMPDEST PUSH1 0x20 DUP3 ADD SWAP2 POP PUSH2 0xB09 DUP3 DUP5 PUSH2 0xAC6 JUMP JUMPDEST PUSH1 0x20 DUP3 ADD SWAP2 POP DUP2 SWAP1 POP SWAP5 SWAP4 POP POP POP POP JUMP JUMPDEST PUSH32 0x4E487B7100000000000000000000000000000000000000000000000000000000 PUSH1 0x0 MSTORE PUSH1 0x12 PUSH1 0x4 MSTORE PUSH1 0x24 PUSH1 0x0 REVERT JUMPDEST PUSH1 0x0 PUSH2 0xB54 DUP3 PUSH2 0x77B JUMP JUMPDEST SWAP2 POP PUSH2 0xB5F DUP4 PUSH2 0x77B JUMP JUMPDEST SWAP3 POP DUP3 PUSH2 0xB6F JUMPI PUSH2 0xB6E PUSH2 0xB1A JUMP JUMPDEST JUMPDEST DUP3 DUP3 MOD SWAP1 POP SWAP3 SWAP2 POP POP JUMP JUMPDEST PUSH32 0x4E487B7100000000000000000000000000000000000000000000000000000000 PUSH1 0x0 MSTORE PUSH1 0x32 PUSH1 0x4 MSTORE PUSH1 0x24 PUSH1 0x0 REVERT JUMPDEST PUSH32 0x4E487B7100000000000000000000000000000000000000000000000000000000 PUSH1 0x0 MSTORE PUSH1 0x11 PUSH1 0x4 MSTORE PUSH1 0x24 PUSH1 0x0 REVERT JUMPDEST PUSH1 0x0 PUSH2 0xBE3 DUP3 PUSH2 0x77B JUMP JUMPDEST SWAP2 POP PUSH32 0xFFFFFFFFFFFFFFFFFFFFFFFFFFFFFFFFFFFFFFFFFFFFFFFFFFFFFFFFFFFFFFFF DUP3 EQ ISZERO PUSH2 0xC16 JUMPI PUSH2 0xC15 PUSH2 0xBA9 JUMP JUMPDEST JUMPDEST PUSH1 0x1 DUP3 ADD SWAP1 POP SWAP2 SWAP1 POP JUMP INVALID LOG2 PUSH5 0x6970667358 0x22 SLT KECCAK256 STATICCALL 0x4E CHAINID PUSH3 0xB04ED8 SWAP11 0x29 SWAP13 ADDMOD 0xB0 CALLDATALOAD DUP1 MSIZE PUSH27 0x5CAFA50D1E120A7EEB35D28CBE7F4AE364736F6C63430008080033 "
				},
				"gasEstimates": {
					"creation": {
						"codeDepositCost": "631800",
						"executionCost": "infinite",
						"totalCost": "infinite"
					},
					"external": {
						"adminAddress()": "2580",
						"changeGatchaLimit(uint256)": "26865",
						"createGatcha()": "infinite",
						"limitGatcha()": "2430",
						"ownerAddress()": "2581",
						"rarityList(uint256)": "infinite",
						"rarityUsers(uint256)": "infinite",
						"registeredUsers(uint256)": "infinite"
					},
					"internal": {
						"generateRarityScore()": "infinite",
						"getRarityName(uint256)": "infinite"
					}
				},
				"methodIdentifiers": {
					"adminAddress()": "fc6f9468",
					"changeGatchaLimit(uint256)": "c15d3ead",
					"createGatcha()": "e917ec96",
					"limitGatcha()": "06cd309b",
					"ownerAddress()": "8f84aa09",
					"rarityList(uint256)": "6fd3d9e2",
					"rarityUsers(uint256)": "d1a35ef2",
					"registeredUsers(uint256)": "7259e0f8"
				}
			},
			"storageLayout": {
				"storage": [
					{
						"astId": 8,
						"contract": "contracts/TestInterview.sol:TestInterview",
						"label": "objINFT",
						"offset": 0,
						"slot": "0",
						"type": "t_contract(INFT)366"
					},
					{
						"astId": 11,
						"contract": "contracts/TestInterview.sol:TestInterview",
						"label": "ownerAddress",
						"offset": 0,
						"slot": "1",
						"type": "t_address"
					},
					{
						"astId": 13,
						"contract": "contracts/TestInterview.sol:TestInterview",
						"label": "adminAddress",
						"offset": 0,
						"slot": "2",
						"type": "t_address"
					},
					{
						"astId": 16,
						"contract": "contracts/TestInterview.sol:TestInterview",
						"label": "limitGatcha",
						"offset": 0,
						"slot": "3",
						"type": "t_uint256"
					},
					{
						"astId": 27,
						"contract": "contracts/TestInterview.sol:TestInterview",
						"label": "rarityList",
						"offset": 0,
						"slot": "4",
						"type": "t_array(t_struct(Rarity)23_storage)dyn_storage"
					},
					{
						"astId": 43,
						"contract": "contracts/TestInterview.sol:TestInterview",
						"label": "registeredUsers",
						"offset": 0,
						"slot": "5",
						"type": "t_array(t_struct(RegisteredUser)32_storage)dyn_storage"
					},
					{
						"astId": 47,
						"contract": "contracts/TestInterview.sol:TestInterview",
						"label": "rarityUsers",
						"offset": 0,
						"slot": "6",
						"type": "t_array(t_struct(RarityUser)39_storage)dyn_storage"
					},
					{
						"astId": 197,
						"contract": "contracts/TestInterview.sol:TestInterview",
						"label": "singleRarityScore",
						"offset": 0,
						"slot": "7",
						"type": "t_array(t_uint256)dyn_storage"
					},
					{
						"astId": 200,
						"contract": "contracts/TestInterview.sol:TestInterview",
						"label": "singleRarityName",
						"offset": 0,
						"slot": "8",
						"type": "t_array(t_string_storage)dyn_storage"
					}
				],
				"types": {
					"t_address": {
						"encoding": "inplace",
						"label": "address",
						"numberOfBytes": "20"
					},
					"t_array(t_string_storage)dyn_storage": {
						"base": "t_string_storage",
						"encoding": "dynamic_array",
						"label": "string[]",
						"numberOfBytes": "32"
					},
					"t_array(t_struct(Rarity)23_storage)dyn_storage": {
						"base": "t_struct(Rarity)23_storage",
						"encoding": "dynamic_array",
						"label": "struct TestInterview.Rarity[]",
						"numberOfBytes": "32"
					},
					"t_array(t_struct(RarityUser)39_storage)dyn_storage": {
						"base": "t_struct(RarityUser)39_storage",
						"encoding": "dynamic_array",
						"label": "struct TestInterview.RarityUser[]",
						"numberOfBytes": "32"
					},
					"t_array(t_struct(RegisteredUser)32_storage)dyn_storage": {
						"base": "t_struct(RegisteredUser)32_storage",
						"encoding": "dynamic_array",
						"label": "struct TestInterview.RegisteredUser[]",
						"numberOfBytes": "32"
					},
					"t_array(t_uint256)dyn_storage": {
						"base": "t_uint256",
						"encoding": "dynamic_array",
						"label": "uint256[]",
						"numberOfBytes": "32"
					},
					"t_contract(INFT)366": {
						"encoding": "inplace",
						"label": "contract INFT",
						"numberOfBytes": "20"
					},
					"t_string_storage": {
						"encoding": "bytes",
						"label": "string",
						"numberOfBytes": "32"
					},
					"t_struct(Rarity)23_storage": {
						"encoding": "inplace",
						"label": "struct TestInterview.Rarity",
						"members": [
							{
								"astId": 18,
								"contract": "contracts/TestInterview.sol:TestInterview",
								"label": "name",
								"offset": 0,
								"slot": "0",
								"type": "t_string_storage"
							},
							{
								"astId": 20,
								"contract": "contracts/TestInterview.sol:TestInterview",
								"label": "min",
								"offset": 0,
								"slot": "1",
								"type": "t_uint256"
							},
							{
								"astId": 22,
								"contract": "contracts/TestInterview.sol:TestInterview",
								"label": "max",
								"offset": 0,
								"slot": "2",
								"type": "t_uint256"
							}
						],
						"numberOfBytes": "96"
					},
					"t_struct(RarityUser)39_storage": {
						"encoding": "inplace",
						"label": "struct TestInterview.RarityUser",
						"members": [
							{
								"astId": 34,
								"contract": "contracts/TestInterview.sol:TestInterview",
								"label": "userAddress",
								"offset": 0,
								"slot": "0",
								"type": "t_address"
							},
							{
								"astId": 36,
								"contract": "contracts/TestInterview.sol:TestInterview",
								"label": "rarityScore",
								"offset": 0,
								"slot": "1",
								"type": "t_uint256"
							},
							{
								"astId": 38,
								"contract": "contracts/TestInterview.sol:TestInterview",
								"label": "rarityName",
								"offset": 0,
								"slot": "2",
								"type": "t_string_storage"
							}
						],
						"numberOfBytes": "96"
					},
					"t_struct(RegisteredUser)32_storage": {
						"encoding": "inplace",
						"label": "struct TestInterview.RegisteredUser",
						"members": [
							{
								"astId": 29,
								"contract": "contracts/TestInterview.sol:TestInterview",
								"label": "userAddress",
								"offset": 0,
								"slot": "0",
								"type": "t_address"
							},
							{
								"astId": 31,
								"contract": "contracts/TestInterview.sol:TestInterview",
								"label": "counterVisited",
								"offset": 0,
								"slot": "1",
								"type": "t_uint256"
							}
						],
						"numberOfBytes": "64"
					},
					"t_uint256": {
						"encoding": "inplace",
						"label": "uint256",
						"numberOfBytes": "32"
					}
				}
			},
			"userdoc": {
				"kind": "user",
				"methods": {},
				"version": 1
			}
		}
	}
}