{
	"contracts/TestInterview.sol": {
		"TestInterview": {
			"abi": [
				{
					"inputs": [],
					"stateMutability": "nonpayable",
					"type": "constructor"
				},
				{
					"inputs": [],
					"name": "adminAddress",
					"outputs": [
						{
							"internalType": "address",
							"name": "",
							"type": "address"
						}
					],
					"stateMutability": "view",
					"type": "function"
				},
				{
					"inputs": [],
					"name": "changeGatchaLimit",
					"outputs": [],
					"stateMutability": "nonpayable",
					"type": "function"
				},
				{
					"inputs": [],
					"name": "createGatcha",
					"outputs": [],
					"stateMutability": "nonpayable",
					"type": "function"
				},
				{
					"inputs": [
						{
							"internalType": "uint256",
							"name": "_indexUser",
							"type": "uint256"
						}
					],
					"name": "getUsers",
					"outputs": [
						{
							"internalType": "uint256",
							"name": "",
							"type": "uint256"
						}
					],
					"stateMutability": "view",
					"type": "function"
				},
				{
					"inputs": [],
					"name": "limitGatcha",
					"outputs": [
						{
							"internalType": "uint256",
							"name": "",
							"type": "uint256"
						}
					],
					"stateMutability": "view",
					"type": "function"
				},
				{
					"inputs": [],
					"name": "ownerAddress",
					"outputs": [
						{
							"internalType": "address",
							"name": "",
							"type": "address"
						}
					],
					"stateMutability": "view",
					"type": "function"
				},
				{
					"inputs": [
						{
							"internalType": "uint256",
							"name": "",
							"type": "uint256"
						}
					],
					"name": "rarityList",
					"outputs": [
						{
							"internalType": "string",
							"name": "",
							"type": "string"
						}
					],
					"stateMutability": "view",
					"type": "function"
				},
				{
					"inputs": [],
					"name": "rarityListFunc",
					"outputs": [
						{
							"internalType": "string",
							"name": "",
							"type": "string"
						}
					],
					"stateMutability": "view",
					"type": "function"
				},
				{
					"inputs": [
						{
							"internalType": "string",
							"name": "_nameRarity",
							"type": "string"
						}
					],
					"name": "rarityRateFunc",
					"outputs": [
						{
							"internalType": "uint256",
							"name": "",
							"type": "uint256"
						}
					],
					"stateMutability": "view",
					"type": "function"
				},
				{
					"inputs": [
						{
							"internalType": "uint256",
							"name": "",
							"type": "uint256"
						}
					],
					"name": "registeredUsers",
					"outputs": [
						{
							"internalType": "address",
							"name": "userAddress",
							"type": "address"
						},
						{
							"internalType": "uint256",
							"name": "counterVisited",
							"type": "uint256"
						}
					],
					"stateMutability": "view",
					"type": "function"
				}
			],
			"devdoc": {
				"kind": "dev",
				"methods": {},
				"version": 1
			},
			"evm": {
				"assembly": "    /* \"contracts/TestInterview.sol\":208:2146  contract TestInterview {... */\n  mstore(0x40, 0x80)\n    /* \"contracts/TestInterview.sol\":258:300  0x50C7a09925375438D2cEe94C5c59266c6fFAAf8C */\n  0x50c7a09925375438d2cee94c5c59266c6ffaaf8c\n    /* \"contracts/TestInterview.sol\":238:301  INFT objINFT = INFT(0x50C7a09925375438D2cEe94C5c59266c6fFAAf8C) */\n  0x00\n  dup1\n  0x0100\n  exp\n  dup2\n  sload\n  dup2\n  0xffffffffffffffffffffffffffffffffffffffff\n  mul\n  not\n  and\n  swap1\n  dup4\n  0xffffffffffffffffffffffffffffffffffffffff\n  and\n  mul\n  or\n  swap1\n  sstore\n  pop\n    /* \"contracts/TestInterview.sol\":338:380  0xdBDdb8575F6bda11F1DC548A1B546463CC567C3d */\n  0xdbddb8575f6bda11f1dc548a1b546463cc567c3d\n    /* \"contracts/TestInterview.sol\":308:380  address public ownerAddress = 0xdBDdb8575F6bda11F1DC548A1B546463CC567C3d */\n  0x01\n  exp(0x0100, 0x00)\n  dup2\n  sload\n  dup2\n  0xffffffffffffffffffffffffffffffffffffffff\n  mul\n  not\n  and\n  swap1\n  dup4\n  0xffffffffffffffffffffffffffffffffffffffff\n  and\n  mul\n  or\n  swap1\n  sstore\n  pop\n    /* \"contracts/TestInterview.sol\":480:481  2 */\n  0x02\n    /* \"contracts/TestInterview.sol\":454:481  uint public limitGatcha = 2 */\n  0x04\n  sstore\n    /* \"contracts/TestInterview.sol\":639:697  constructor() {... */\n  callvalue\n  dup1\n  iszero\n  tag_1\n  jumpi\n  0x00\n  dup1\n  revert\ntag_1:\n  pop\n    /* \"contracts/TestInterview.sol\":679:689  msg.sender */\n  caller\n    /* \"contracts/TestInterview.sol\":664:676  adminAddress */\n  0x02\n  0x00\n    /* \"contracts/TestInterview.sol\":664:689  adminAddress = msg.sender */\n  0x0100\n  exp\n  dup2\n  sload\n  dup2\n  0xffffffffffffffffffffffffffffffffffffffff\n  mul\n  not\n  and\n  swap1\n  dup4\n  0xffffffffffffffffffffffffffffffffffffffff\n  and\n  mul\n  or\n  swap1\n  sstore\n  pop\n    /* \"contracts/TestInterview.sol\":208:2146  contract TestInterview {... */\n  dataSize(sub_0)\n  dup1\n  dataOffset(sub_0)\n  0x00\n  codecopy\n  0x00\n  return\nstop\n\nsub_0: assembly {\n        /* \"contracts/TestInterview.sol\":208:2146  contract TestInterview {... */\n      mstore(0x40, 0x80)\n      callvalue\n      dup1\n      iszero\n      tag_1\n      jumpi\n      0x00\n      dup1\n      revert\n    tag_1:\n      pop\n      jumpi(tag_2, lt(calldatasize, 0x04))\n      shr(0xe0, calldataload(0x00))\n      dup1\n      0xa7beb5d0\n      gt\n      tag_13\n      jumpi\n      dup1\n      0xa7beb5d0\n      eq\n      tag_8\n      jumpi\n      dup1\n      0xbb4a376b\n      eq\n      tag_9\n      jumpi\n      dup1\n      0xe5a96fd8\n      eq\n      tag_10\n      jumpi\n      dup1\n      0xe917ec96\n      eq\n      tag_11\n      jumpi\n      dup1\n      0xfc6f9468\n      eq\n      tag_12\n      jumpi\n      jump(tag_2)\n    tag_13:\n      dup1\n      0x06cd309b\n      eq\n      tag_3\n      jumpi\n      dup1\n      0x5d73ab9a\n      eq\n      tag_4\n      jumpi\n      dup1\n      0x6fd3d9e2\n      eq\n      tag_5\n      jumpi\n      dup1\n      0x7259e0f8\n      eq\n      tag_6\n      jumpi\n      dup1\n      0x8f84aa09\n      eq\n      tag_7\n      jumpi\n    tag_2:\n      0x00\n      dup1\n      revert\n        /* \"contracts/TestInterview.sol\":454:481  uint public limitGatcha = 2 */\n    tag_3:\n      tag_14\n      tag_15\n      jump\t// in\n    tag_14:\n      mload(0x40)\n      tag_16\n      swap2\n      swap1\n      tag_17\n      jump\t// in\n    tag_16:\n      mload(0x40)\n      dup1\n      swap2\n      sub\n      swap1\n      return\n        /* \"contracts/TestInterview.sol\":2008:2143  function getUsers(uint256 _indexUser) public view returns(uint256) {... */\n    tag_4:\n      tag_18\n      0x04\n      dup1\n      calldatasize\n      sub\n      dup2\n      add\n      swap1\n      tag_19\n      swap2\n      swap1\n      tag_20\n      jump\t// in\n    tag_19:\n      tag_21\n      jump\t// in\n    tag_18:\n      mload(0x40)\n      tag_22\n      swap2\n      swap1\n      tag_17\n      jump\t// in\n    tag_22:\n      mload(0x40)\n      dup1\n      swap2\n      sub\n      swap1\n      return\n        /* \"contracts/TestInterview.sol\":421:447  string[] public rarityList */\n    tag_5:\n      tag_23\n      0x04\n      dup1\n      calldatasize\n      sub\n      dup2\n      add\n      swap1\n      tag_24\n      swap2\n      swap1\n      tag_20\n      jump\t// in\n    tag_24:\n      tag_25\n      jump\t// in\n    tag_23:\n      mload(0x40)\n      tag_26\n      swap2\n      swap1\n      tag_27\n      jump\t// in\n    tag_26:\n      mload(0x40)\n      dup1\n      swap2\n      sub\n      swap1\n      return\n        /* \"contracts/TestInterview.sol\":591:630  RegisteredUser[] public registeredUsers */\n    tag_6:\n      tag_28\n      0x04\n      dup1\n      calldatasize\n      sub\n      dup2\n      add\n      swap1\n      tag_29\n      swap2\n      swap1\n      tag_20\n      jump\t// in\n    tag_29:\n      tag_30\n      jump\t// in\n    tag_28:\n      mload(0x40)\n      tag_31\n      swap3\n      swap2\n      swap1\n      tag_32\n      jump\t// in\n    tag_31:\n      mload(0x40)\n      dup1\n      swap2\n      sub\n      swap1\n      return\n        /* \"contracts/TestInterview.sol\":308:380  address public ownerAddress = 0xdBDdb8575F6bda11F1DC548A1B546463CC567C3d */\n    tag_7:\n      tag_33\n      tag_34\n      jump\t// in\n    tag_33:\n      mload(0x40)\n      tag_35\n      swap2\n      swap1\n      tag_36\n      jump\t// in\n    tag_35:\n      mload(0x40)\n      dup1\n      swap2\n      sub\n      swap1\n      return\n        /* \"contracts/TestInterview.sol\":1855:1996  function rarityRateFunc (string memory _nameRarity) public view returns(uint256) {... */\n    tag_8:\n      tag_37\n      0x04\n      dup1\n      calldatasize\n      sub\n      dup2\n      add\n      swap1\n      tag_38\n      swap2\n      swap1\n      tag_39\n      jump\t// in\n    tag_38:\n      tag_40\n      jump\t// in\n    tag_37:\n      mload(0x40)\n      tag_41\n      swap2\n      swap1\n      tag_17\n      jump\t// in\n    tag_41:\n      mload(0x40)\n      dup1\n      swap2\n      sub\n      swap1\n      return\n        /* \"contracts/TestInterview.sol\":1672:1847  function rarityListFunc () public view returns(string memory) {... */\n    tag_9:\n      tag_42\n      tag_43\n      jump\t// in\n    tag_42:\n      mload(0x40)\n      tag_44\n      swap2\n      swap1\n      tag_27\n      jump\t// in\n    tag_44:\n      mload(0x40)\n      dup1\n      swap2\n      sub\n      swap1\n      return\n        /* \"contracts/TestInterview.sol\":1514:1664  function changeGatchaLimit() public {... */\n    tag_10:\n      tag_45\n      tag_46\n      jump\t// in\n    tag_45:\n      stop\n        /* \"contracts/TestInterview.sol\":705:912  function createGatcha () public checkUserLimit {... */\n    tag_11:\n      tag_47\n      tag_48\n      jump\t// in\n    tag_47:\n      stop\n        /* \"contracts/TestInterview.sol\":387:414  address public adminAddress */\n    tag_12:\n      tag_49\n      tag_50\n      jump\t// in\n    tag_49:\n      mload(0x40)\n      tag_51\n      swap2\n      swap1\n      tag_36\n      jump\t// in\n    tag_51:\n      mload(0x40)\n      dup1\n      swap2\n      sub\n      swap1\n      return\n        /* \"contracts/TestInterview.sol\":454:481  uint public limitGatcha = 2 */\n    tag_15:\n      sload(0x04)\n      dup2\n      jump\t// out\n        /* \"contracts/TestInterview.sol\":2008:2143  function getUsers(uint256 _indexUser) public view returns(uint256) {... */\n    tag_21:\n        /* \"contracts/TestInterview.sol\":2066:2073  uint256 */\n      0x00\n        /* \"contracts/TestInterview.sol\":2093:2108  registeredUsers */\n      0x05\n        /* \"contracts/TestInterview.sol\":2109:2119  _indexUser */\n      dup3\n        /* \"contracts/TestInterview.sol\":2093:2120  registeredUsers[_indexUser] */\n      dup2\n      sload\n      dup2\n      lt\n      tag_53\n      jumpi\n      tag_54\n      tag_55\n      jump\t// in\n    tag_54:\n    tag_53:\n      swap1\n      0x00\n      mstore\n      keccak256(0x00, 0x20)\n      swap1\n      0x02\n      mul\n      add\n        /* \"contracts/TestInterview.sol\":2093:2135  registeredUsers[_indexUser].counterVisited */\n      0x01\n      add\n      sload\n        /* \"contracts/TestInterview.sol\":2086:2135  return registeredUsers[_indexUser].counterVisited */\n      swap1\n      pop\n        /* \"contracts/TestInterview.sol\":2008:2143  function getUsers(uint256 _indexUser) public view returns(uint256) {... */\n      swap2\n      swap1\n      pop\n      jump\t// out\n        /* \"contracts/TestInterview.sol\":421:447  string[] public rarityList */\n    tag_25:\n      0x03\n      dup2\n      dup2\n      sload\n      dup2\n      lt\n      tag_57\n      jumpi\n      0x00\n      dup1\n      revert\n    tag_57:\n      swap1\n      0x00\n      mstore\n      keccak256(0x00, 0x20)\n      add\n      0x00\n      swap2\n      pop\n      swap1\n      pop\n      dup1\n      sload\n      tag_59\n      swap1\n      tag_60\n      jump\t// in\n    tag_59:\n      dup1\n      0x1f\n      add\n      0x20\n      dup1\n      swap2\n      div\n      mul\n      0x20\n      add\n      mload(0x40)\n      swap1\n      dup2\n      add\n      0x40\n      mstore\n      dup1\n      swap3\n      swap2\n      swap1\n      dup2\n      dup2\n      mstore\n      0x20\n      add\n      dup3\n      dup1\n      sload\n      tag_61\n      swap1\n      tag_60\n      jump\t// in\n    tag_61:\n      dup1\n      iszero\n      tag_62\n      jumpi\n      dup1\n      0x1f\n      lt\n      tag_63\n      jumpi\n      0x0100\n      dup1\n      dup4\n      sload\n      div\n      mul\n      dup4\n      mstore\n      swap2\n      0x20\n      add\n      swap2\n      jump(tag_62)\n    tag_63:\n      dup3\n      add\n      swap2\n      swap1\n      0x00\n      mstore\n      keccak256(0x00, 0x20)\n      swap1\n    tag_64:\n      dup2\n      sload\n      dup2\n      mstore\n      swap1\n      0x01\n      add\n      swap1\n      0x20\n      add\n      dup1\n      dup4\n      gt\n      tag_64\n      jumpi\n      dup3\n      swap1\n      sub\n      0x1f\n      and\n      dup3\n      add\n      swap2\n    tag_62:\n      pop\n      pop\n      pop\n      pop\n      pop\n      dup2\n      jump\t// out\n        /* \"contracts/TestInterview.sol\":591:630  RegisteredUser[] public registeredUsers */\n    tag_30:\n      0x05\n      dup2\n      dup2\n      sload\n      dup2\n      lt\n      tag_65\n      jumpi\n      0x00\n      dup1\n      revert\n    tag_65:\n      swap1\n      0x00\n      mstore\n      keccak256(0x00, 0x20)\n      swap1\n      0x02\n      mul\n      add\n      0x00\n      swap2\n      pop\n      swap1\n      pop\n      dup1\n      0x00\n      add\n      0x00\n      swap1\n      sload\n      swap1\n      0x0100\n      exp\n      swap1\n      div\n      0xffffffffffffffffffffffffffffffffffffffff\n      and\n      swap1\n      dup1\n      0x01\n      add\n      sload\n      swap1\n      pop\n      dup3\n      jump\t// out\n        /* \"contracts/TestInterview.sol\":308:380  address public ownerAddress = 0xdBDdb8575F6bda11F1DC548A1B546463CC567C3d */\n    tag_34:\n      0x01\n      0x00\n      swap1\n      sload\n      swap1\n      0x0100\n      exp\n      swap1\n      div\n      0xffffffffffffffffffffffffffffffffffffffff\n      and\n      dup2\n      jump\t// out\n        /* \"contracts/TestInterview.sol\":1855:1996  function rarityRateFunc (string memory _nameRarity) public view returns(uint256) {... */\n    tag_40:\n        /* \"contracts/TestInterview.sol\":1927:1934  uint256 */\n      0x00\n        /* \"contracts/TestInterview.sol\":1954:1961  objINFT */\n      dup1\n      0x00\n      swap1\n      sload\n      swap1\n      0x0100\n      exp\n      swap1\n      div\n      0xffffffffffffffffffffffffffffffffffffffff\n      and\n        /* \"contracts/TestInterview.sol\":1954:1975  objINFT.getRarityRate */\n      0xffffffffffffffffffffffffffffffffffffffff\n      and\n      0x278a7f33\n        /* \"contracts/TestInterview.sol\":1976:1987  _nameRarity */\n      dup4\n        /* \"contracts/TestInterview.sol\":1954:1988  objINFT.getRarityRate(_nameRarity) */\n      mload(0x40)\n      dup3\n      0xffffffff\n      and\n      0xe0\n      shl\n      dup2\n      mstore\n      0x04\n      add\n      tag_68\n      swap2\n      swap1\n      tag_27\n      jump\t// in\n    tag_68:\n      0x20\n      mload(0x40)\n      dup1\n      dup4\n      sub\n      dup2\n      dup7\n      dup1\n      extcodesize\n      iszero\n      dup1\n      iszero\n      tag_69\n      jumpi\n      0x00\n      dup1\n      revert\n    tag_69:\n      pop\n      gas\n      staticcall\n      iszero\n      dup1\n      iszero\n      tag_71\n      jumpi\n      returndatasize\n      0x00\n      dup1\n      returndatacopy\n      revert(0x00, returndatasize)\n    tag_71:\n      pop\n      pop\n      pop\n      pop\n      mload(0x40)\n      returndatasize\n      not(0x1f)\n      0x1f\n      dup3\n      add\n      and\n      dup3\n      add\n      dup1\n      0x40\n      mstore\n      pop\n      dup2\n      add\n      swap1\n      tag_72\n      swap2\n      swap1\n      tag_73\n      jump\t// in\n    tag_72:\n        /* \"contracts/TestInterview.sol\":1947:1988  return objINFT.getRarityRate(_nameRarity) */\n      0xff\n      and\n      swap1\n      pop\n        /* \"contracts/TestInterview.sol\":1855:1996  function rarityRateFunc (string memory _nameRarity) public view returns(uint256) {... */\n      swap2\n      swap1\n      pop\n      jump\t// out\n        /* \"contracts/TestInterview.sol\":1672:1847  function rarityListFunc () public view returns(string memory) {... */\n    tag_43:\n        /* \"contracts/TestInterview.sol\":1719:1732  string memory */\n      0x60\n        /* \"contracts/TestInterview.sol\":1745:1777  string[3] memory localRarityList */\n      0x00\n        /* \"contracts/TestInterview.sol\":1780:1787  objINFT */\n      dup1\n      0x00\n      swap1\n      sload\n      swap1\n      0x0100\n      exp\n      swap1\n      div\n      0xffffffffffffffffffffffffffffffffffffffff\n      and\n        /* \"contracts/TestInterview.sol\":1780:1801  objINFT.getRarityList */\n      0xffffffffffffffffffffffffffffffffffffffff\n      and\n      0x48441d5f\n        /* \"contracts/TestInterview.sol\":1780:1803  objINFT.getRarityList() */\n      mload(0x40)\n      dup2\n      0xffffffff\n      and\n      0xe0\n      shl\n      dup2\n      mstore\n      0x04\n      add\n      0x00\n      mload(0x40)\n      dup1\n      dup4\n      sub\n      dup2\n      dup7\n      dup1\n      extcodesize\n      iszero\n      dup1\n      iszero\n      tag_75\n      jumpi\n      0x00\n      dup1\n      revert\n    tag_75:\n      pop\n      gas\n      staticcall\n      iszero\n      dup1\n      iszero\n      tag_77\n      jumpi\n      returndatasize\n      0x00\n      dup1\n      returndatacopy\n      revert(0x00, returndatasize)\n    tag_77:\n      pop\n      pop\n      pop\n      pop\n      mload(0x40)\n      returndatasize\n      0x00\n      dup3\n      returndatacopy\n      returndatasize\n      not(0x1f)\n      0x1f\n      dup3\n      add\n      and\n      dup3\n      add\n      dup1\n      0x40\n      mstore\n      pop\n      dup2\n      add\n      swap1\n      tag_78\n      swap2\n      swap1\n      tag_79\n      jump\t// in\n    tag_78:\n        /* \"contracts/TestInterview.sol\":1745:1803  string[3] memory localRarityList = objINFT.getRarityList() */\n      swap1\n      pop\n        /* \"contracts/TestInterview.sol\":1821:1836  localRarityList */\n      dup1\n        /* \"contracts/TestInterview.sol\":1837:1838  1 */\n      0x01\n        /* \"contracts/TestInterview.sol\":1821:1839  localRarityList[1] */\n      0x03\n      dup2\n      lt\n      tag_80\n      jumpi\n      tag_81\n      tag_55\n      jump\t// in\n    tag_81:\n    tag_80:\n      0x20\n      mul\n      add\n      mload\n        /* \"contracts/TestInterview.sol\":1814:1839  return localRarityList[1] */\n      swap2\n      pop\n      pop\n        /* \"contracts/TestInterview.sol\":1672:1847  function rarityListFunc () public view returns(string memory) {... */\n      swap1\n      jump\t// out\n        /* \"contracts/TestInterview.sol\":1514:1664  function changeGatchaLimit() public {... */\n    tag_46:\n        /* \"contracts/TestInterview.sol\":1583:1595  adminAddress */\n      0x02\n      0x00\n      swap1\n      sload\n      swap1\n      0x0100\n      exp\n      swap1\n      div\n      0xffffffffffffffffffffffffffffffffffffffff\n      and\n        /* \"contracts/TestInterview.sol\":1569:1595  msg.sender == adminAddress */\n      0xffffffffffffffffffffffffffffffffffffffff\n      and\n        /* \"contracts/TestInterview.sol\":1569:1579  msg.sender */\n      caller\n        /* \"contracts/TestInterview.sol\":1569:1595  msg.sender == adminAddress */\n      0xffffffffffffffffffffffffffffffffffffffff\n      and\n      eq\n        /* \"contracts/TestInterview.sol\":1569:1625  msg.sender == adminAddress || msg.sender == ownerAddress */\n      dup1\n      tag_83\n      jumpi\n      pop\n        /* \"contracts/TestInterview.sol\":1613:1625  ownerAddress */\n      0x01\n      0x00\n      swap1\n      sload\n      swap1\n      0x0100\n      exp\n      swap1\n      div\n      0xffffffffffffffffffffffffffffffffffffffff\n      and\n        /* \"contracts/TestInterview.sol\":1599:1625  msg.sender == ownerAddress */\n      0xffffffffffffffffffffffffffffffffffffffff\n      and\n        /* \"contracts/TestInterview.sol\":1599:1609  msg.sender */\n      caller\n        /* \"contracts/TestInterview.sol\":1599:1625  msg.sender == ownerAddress */\n      0xffffffffffffffffffffffffffffffffffffffff\n      and\n      eq\n        /* \"contracts/TestInterview.sol\":1569:1625  msg.sender == adminAddress || msg.sender == ownerAddress */\n    tag_83:\n        /* \"contracts/TestInterview.sol\":1561:1656  require(msg.sender == adminAddress || msg.sender == ownerAddress, \"Not Authorized, Admin Only\") */\n      tag_84\n      jumpi\n      mload(0x40)\n      0x08c379a000000000000000000000000000000000000000000000000000000000\n      dup2\n      mstore\n      0x04\n      add\n      tag_85\n      swap1\n      tag_86\n      jump\t// in\n    tag_85:\n      mload(0x40)\n      dup1\n      swap2\n      sub\n      swap1\n      revert\n    tag_84:\n        /* \"contracts/TestInterview.sol\":1514:1664  function changeGatchaLimit() public {... */\n      jump\t// out\n        /* \"contracts/TestInterview.sol\":705:912  function createGatcha () public checkUserLimit {... */\n    tag_48:\n        /* \"contracts/TestInterview.sol\":958:970  bool isFound */\n      0x00\n        /* \"contracts/TestInterview.sol\":989:1002  uint256 index */\n      dup1\n        /* \"contracts/TestInterview.sol\":1017:1433  while(isFound == false && registeredUsers.length > 0 && index <registeredUsers.length )... */\n    tag_88:\n        /* \"contracts/TestInterview.sol\":1034:1039  false */\n      0x00\n        /* \"contracts/TestInterview.sol\":1023:1039  isFound == false */\n      iszero\n      iszero\n        /* \"contracts/TestInterview.sol\":1023:1030  isFound */\n      dup3\n        /* \"contracts/TestInterview.sol\":1023:1039  isFound == false */\n      iszero\n      iszero\n      eq\n        /* \"contracts/TestInterview.sol\":1023:1069  isFound == false && registeredUsers.length > 0 */\n      dup1\n      iszero\n      tag_90\n      jumpi\n      pop\n        /* \"contracts/TestInterview.sol\":1068:1069  0 */\n      0x00\n        /* \"contracts/TestInterview.sol\":1043:1058  registeredUsers */\n      0x05\n        /* \"contracts/TestInterview.sol\":1043:1065  registeredUsers.length */\n      dup1\n      sload\n      swap1\n      pop\n        /* \"contracts/TestInterview.sol\":1043:1069  registeredUsers.length > 0 */\n      gt\n        /* \"contracts/TestInterview.sol\":1023:1069  isFound == false && registeredUsers.length > 0 */\n    tag_90:\n        /* \"contracts/TestInterview.sol\":1023:1102  isFound == false && registeredUsers.length > 0 && index <registeredUsers.length */\n      dup1\n      iszero\n      tag_91\n      jumpi\n      pop\n        /* \"contracts/TestInterview.sol\":1080:1095  registeredUsers */\n      0x05\n        /* \"contracts/TestInterview.sol\":1080:1102  registeredUsers.length */\n      dup1\n      sload\n      swap1\n      pop\n        /* \"contracts/TestInterview.sol\":1073:1078  index */\n      dup2\n        /* \"contracts/TestInterview.sol\":1073:1102  index <registeredUsers.length */\n      lt\n        /* \"contracts/TestInterview.sol\":1023:1102  isFound == false && registeredUsers.length > 0 && index <registeredUsers.length */\n    tag_91:\n        /* \"contracts/TestInterview.sol\":1017:1433  while(isFound == false && registeredUsers.length > 0 && index <registeredUsers.length )... */\n      iszero\n      tag_89\n      jumpi\n        /* \"contracts/TestInterview.sol\":1170:1180  msg.sender */\n      caller\n        /* \"contracts/TestInterview.sol\":1132:1180  registeredUsers[index].userAddress == msg.sender */\n      0xffffffffffffffffffffffffffffffffffffffff\n      and\n        /* \"contracts/TestInterview.sol\":1132:1147  registeredUsers */\n      0x05\n        /* \"contracts/TestInterview.sol\":1148:1153  index */\n      dup3\n        /* \"contracts/TestInterview.sol\":1132:1154  registeredUsers[index] */\n      dup2\n      sload\n      dup2\n      lt\n      tag_92\n      jumpi\n      tag_93\n      tag_55\n      jump\t// in\n    tag_93:\n    tag_92:\n      swap1\n      0x00\n      mstore\n      keccak256(0x00, 0x20)\n      swap1\n      0x02\n      mul\n      add\n        /* \"contracts/TestInterview.sol\":1132:1166  registeredUsers[index].userAddress */\n      0x00\n      add\n      0x00\n      swap1\n      sload\n      swap1\n      0x0100\n      exp\n      swap1\n      div\n      0xffffffffffffffffffffffffffffffffffffffff\n      and\n        /* \"contracts/TestInterview.sol\":1132:1180  registeredUsers[index].userAddress == msg.sender */\n      0xffffffffffffffffffffffffffffffffffffffff\n      and\n      eq\n        /* \"contracts/TestInterview.sol\":1129:1399  if(registeredUsers[index].userAddress == msg.sender)... */\n      iszero\n      tag_95\n      jumpi\n        /* \"contracts/TestInterview.sol\":1224:1228  true */\n      0x01\n        /* \"contracts/TestInterview.sol\":1214:1228  isFound = true */\n      swap2\n      pop\n        /* \"contracts/TestInterview.sol\":1247:1262  registeredUsers */\n      0x05\n        /* \"contracts/TestInterview.sol\":1263:1268  index */\n      dup2\n        /* \"contracts/TestInterview.sol\":1247:1269  registeredUsers[index] */\n      dup2\n      sload\n      dup2\n      lt\n      tag_96\n      jumpi\n      tag_97\n      tag_55\n      jump\t// in\n    tag_97:\n    tag_96:\n      swap1\n      0x00\n      mstore\n      keccak256(0x00, 0x20)\n      swap1\n      0x02\n      mul\n      add\n        /* \"contracts/TestInterview.sol\":1247:1284  registeredUsers[index].counterVisited */\n      0x01\n      add\n      0x00\n        /* \"contracts/TestInterview.sol\":1247:1287  registeredUsers[index].counterVisited ++ */\n      dup2\n      sload\n      dup1\n      swap3\n      swap2\n      swap1\n      tag_99\n      swap1\n      tag_100\n      jump\t// in\n    tag_99:\n      swap2\n      swap1\n      pop\n      sstore\n      pop\n        /* \"contracts/TestInterview.sol\":1355:1366  limitGatcha */\n      sload(0x04)\n        /* \"contracts/TestInterview.sol\":1314:1329  registeredUsers */\n      0x05\n        /* \"contracts/TestInterview.sol\":1330:1335  index */\n      dup3\n        /* \"contracts/TestInterview.sol\":1314:1336  registeredUsers[index] */\n      dup2\n      sload\n      dup2\n      lt\n      tag_101\n      jumpi\n      tag_102\n      tag_55\n      jump\t// in\n    tag_102:\n    tag_101:\n      swap1\n      0x00\n      mstore\n      keccak256(0x00, 0x20)\n      swap1\n      0x02\n      mul\n      add\n        /* \"contracts/TestInterview.sol\":1314:1351  registeredUsers[index].counterVisited */\n      0x01\n      add\n      sload\n        /* \"contracts/TestInterview.sol\":1314:1366  registeredUsers[index].counterVisited <= limitGatcha */\n      gt\n      iszero\n        /* \"contracts/TestInterview.sol\":1306:1383  require(registeredUsers[index].counterVisited <= limitGatcha, \"Out of Limit\") */\n      tag_104\n      jumpi\n      mload(0x40)\n      0x08c379a000000000000000000000000000000000000000000000000000000000\n      dup2\n      mstore\n      0x04\n      add\n      tag_105\n      swap1\n      tag_106\n      jump\t// in\n    tag_105:\n      mload(0x40)\n      dup1\n      swap2\n      sub\n      swap1\n      revert\n    tag_104:\n        /* \"contracts/TestInterview.sol\":1129:1399  if(registeredUsers[index].userAddress == msg.sender)... */\n    tag_95:\n        /* \"contracts/TestInterview.sol\":1413:1421  index ++ */\n      dup1\n      dup1\n      tag_107\n      swap1\n      tag_100\n      jump\t// in\n    tag_107:\n      swap2\n      pop\n      pop\n        /* \"contracts/TestInterview.sol\":1017:1433  while(isFound == false && registeredUsers.length > 0 && index <registeredUsers.length )... */\n      jump(tag_88)\n    tag_89:\n        /* \"contracts/TestInterview.sol\":1443:1450  objINFT */\n      0x00\n      dup1\n      sload\n      swap1\n      0x0100\n      exp\n      swap1\n      div\n      0xffffffffffffffffffffffffffffffffffffffff\n      and\n        /* \"contracts/TestInterview.sol\":1443:1459  objINFT.safeMint */\n      0xffffffffffffffffffffffffffffffffffffffff\n      and\n      0x40d097c3\n        /* \"contracts/TestInterview.sol\":1460:1472  ownerAddress */\n      0x01\n      0x00\n      swap1\n      sload\n      swap1\n      0x0100\n      exp\n      swap1\n      div\n      0xffffffffffffffffffffffffffffffffffffffff\n      and\n        /* \"contracts/TestInterview.sol\":1443:1473  objINFT.safeMint(ownerAddress) */\n      mload(0x40)\n      dup3\n      0xffffffff\n      and\n      0xe0\n      shl\n      dup2\n      mstore\n      0x04\n      add\n      tag_108\n      swap2\n      swap1\n      tag_36\n      jump\t// in\n    tag_108:\n      0x00\n      mload(0x40)\n      dup1\n      dup4\n      sub\n      dup2\n      0x00\n      dup8\n      dup1\n      extcodesize\n      iszero\n      dup1\n      iszero\n      tag_109\n      jumpi\n      0x00\n      dup1\n      revert\n    tag_109:\n      pop\n      gas\n      call\n      iszero\n      dup1\n      iszero\n      tag_111\n      jumpi\n      returndatasize\n      0x00\n      dup1\n      returndatacopy\n      revert(0x00, returndatasize)\n    tag_111:\n      pop\n      pop\n      pop\n      pop\n        /* \"contracts/TestInterview.sol\":1488:1495  isFound */\n      dup2\n        /* \"contracts/TestInterview.sol\":1484:1498  if(!isFound) _ */\n      tag_112\n      jumpi\n        /* \"contracts/TestInterview.sol\":763:796  RegisteredUser memory newRegister */\n      0x00\n        /* \"contracts/TestInterview.sol\":799:860  RegisteredUser({userAddress : msg.sender, counterVisited :1}) */\n      mload(0x40)\n      dup1\n      0x40\n      add\n      0x40\n      mstore\n      dup1\n        /* \"contracts/TestInterview.sol\":829:839  msg.sender */\n      caller\n        /* \"contracts/TestInterview.sol\":799:860  RegisteredUser({userAddress : msg.sender, counterVisited :1}) */\n      0xffffffffffffffffffffffffffffffffffffffff\n      and\n      dup2\n      mstore\n      0x20\n      add\n        /* \"contracts/TestInterview.sol\":857:858  1 */\n      0x01\n        /* \"contracts/TestInterview.sol\":799:860  RegisteredUser({userAddress : msg.sender, counterVisited :1}) */\n      dup2\n      mstore\n      pop\n        /* \"contracts/TestInterview.sol\":763:860  RegisteredUser memory newRegister = RegisteredUser({userAddress : msg.sender, counterVisited :1}) */\n      swap1\n      pop\n        /* \"contracts/TestInterview.sol\":871:886  registeredUsers */\n      0x05\n        /* \"contracts/TestInterview.sol\":892:903  newRegister */\n      dup2\n        /* \"contracts/TestInterview.sol\":871:904  registeredUsers.push(newRegister) */\n      swap1\n      dup1\n      0x01\n      dup2\n      sload\n      add\n      dup1\n      dup3\n      sstore\n      dup1\n      swap2\n      pop\n      pop\n      0x01\n      swap1\n      sub\n      swap1\n      0x00\n      mstore\n      keccak256(0x00, 0x20)\n      swap1\n      0x02\n      mul\n      add\n      0x00\n      swap1\n      swap2\n      swap1\n      swap2\n      swap1\n      swap2\n      pop\n      0x00\n      dup3\n      add\n      mload\n      dup2\n      0x00\n      add\n      exp(0x0100, 0x00)\n      dup2\n      sload\n      dup2\n      0xffffffffffffffffffffffffffffffffffffffff\n      mul\n      not\n      and\n      swap1\n      dup4\n      0xffffffffffffffffffffffffffffffffffffffff\n      and\n      mul\n      or\n      swap1\n      sstore\n      pop\n      0x20\n      dup3\n      add\n      mload\n      dup2\n      0x01\n      add\n      sstore\n      pop\n      pop\n        /* \"contracts/TestInterview.sol\":752:912  {... */\n      pop\n        /* \"contracts/TestInterview.sol\":1484:1498  if(!isFound) _ */\n    tag_112:\n        /* \"contracts/TestInterview.sol\":947:1506  {... */\n      pop\n      pop\n        /* \"contracts/TestInterview.sol\":705:912  function createGatcha () public checkUserLimit {... */\n      jump\t// out\n        /* \"contracts/TestInterview.sol\":387:414  address public adminAddress */\n    tag_50:\n      0x02\n      0x00\n      swap1\n      sload\n      swap1\n      0x0100\n      exp\n      swap1\n      div\n      0xffffffffffffffffffffffffffffffffffffffff\n      and\n      dup2\n      jump\t// out\n        /* \"#utility.yul\":7:84   */\n    tag_115:\n        /* \"#utility.yul\":44:51   */\n      0x00\n        /* \"#utility.yul\":73:78   */\n      dup2\n        /* \"#utility.yul\":62:78   */\n      swap1\n      pop\n        /* \"#utility.yul\":7:84   */\n      swap2\n      swap1\n      pop\n      jump\t// out\n        /* \"#utility.yul\":90:208   */\n    tag_116:\n        /* \"#utility.yul\":177:201   */\n      tag_157\n        /* \"#utility.yul\":195:200   */\n      dup2\n        /* \"#utility.yul\":177:201   */\n      tag_115\n      jump\t// in\n    tag_157:\n        /* \"#utility.yul\":172:175   */\n      dup3\n        /* \"#utility.yul\":165:202   */\n      mstore\n        /* \"#utility.yul\":90:208   */\n      pop\n      pop\n      jump\t// out\n        /* \"#utility.yul\":214:436   */\n    tag_17:\n        /* \"#utility.yul\":307:311   */\n      0x00\n        /* \"#utility.yul\":345:347   */\n      0x20\n        /* \"#utility.yul\":334:343   */\n      dup3\n        /* \"#utility.yul\":330:348   */\n      add\n        /* \"#utility.yul\":322:348   */\n      swap1\n      pop\n        /* \"#utility.yul\":358:429   */\n      tag_159\n        /* \"#utility.yul\":426:427   */\n      0x00\n        /* \"#utility.yul\":415:424   */\n      dup4\n        /* \"#utility.yul\":411:428   */\n      add\n        /* \"#utility.yul\":402:408   */\n      dup5\n        /* \"#utility.yul\":358:429   */\n      tag_116\n      jump\t// in\n    tag_159:\n        /* \"#utility.yul\":214:436   */\n      swap3\n      swap2\n      pop\n      pop\n      jump\t// out\n        /* \"#utility.yul\":442:517   */\n    tag_117:\n        /* \"#utility.yul\":475:481   */\n      0x00\n        /* \"#utility.yul\":508:510   */\n      0x40\n        /* \"#utility.yul\":502:511   */\n      mload\n        /* \"#utility.yul\":492:511   */\n      swap1\n      pop\n        /* \"#utility.yul\":442:517   */\n      swap1\n      jump\t// out\n        /* \"#utility.yul\":523:640   */\n    tag_118:\n        /* \"#utility.yul\":632:633   */\n      0x00\n        /* \"#utility.yul\":629:630   */\n      dup1\n        /* \"#utility.yul\":622:634   */\n      revert\n        /* \"#utility.yul\":646:763   */\n    tag_119:\n        /* \"#utility.yul\":755:756   */\n      0x00\n        /* \"#utility.yul\":752:753   */\n      dup1\n        /* \"#utility.yul\":745:757   */\n      revert\n        /* \"#utility.yul\":769:891   */\n    tag_120:\n        /* \"#utility.yul\":842:866   */\n      tag_164\n        /* \"#utility.yul\":860:865   */\n      dup2\n        /* \"#utility.yul\":842:866   */\n      tag_115\n      jump\t// in\n    tag_164:\n        /* \"#utility.yul\":835:840   */\n      dup2\n        /* \"#utility.yul\":832:867   */\n      eq\n        /* \"#utility.yul\":822:885   */\n      tag_165\n      jumpi\n        /* \"#utility.yul\":881:882   */\n      0x00\n        /* \"#utility.yul\":878:879   */\n      dup1\n        /* \"#utility.yul\":871:883   */\n      revert\n        /* \"#utility.yul\":822:885   */\n    tag_165:\n        /* \"#utility.yul\":769:891   */\n      pop\n      jump\t// out\n        /* \"#utility.yul\":897:1036   */\n    tag_121:\n        /* \"#utility.yul\":943:948   */\n      0x00\n        /* \"#utility.yul\":981:987   */\n      dup2\n        /* \"#utility.yul\":968:988   */\n      calldataload\n        /* \"#utility.yul\":959:988   */\n      swap1\n      pop\n        /* \"#utility.yul\":997:1030   */\n      tag_167\n        /* \"#utility.yul\":1024:1029   */\n      dup2\n        /* \"#utility.yul\":997:1030   */\n      tag_120\n      jump\t// in\n    tag_167:\n        /* \"#utility.yul\":897:1036   */\n      swap3\n      swap2\n      pop\n      pop\n      jump\t// out\n        /* \"#utility.yul\":1042:1371   */\n    tag_20:\n        /* \"#utility.yul\":1101:1107   */\n      0x00\n        /* \"#utility.yul\":1150:1152   */\n      0x20\n        /* \"#utility.yul\":1138:1147   */\n      dup3\n        /* \"#utility.yul\":1129:1136   */\n      dup5\n        /* \"#utility.yul\":1125:1148   */\n      sub\n        /* \"#utility.yul\":1121:1153   */\n      slt\n        /* \"#utility.yul\":1118:1237   */\n      iszero\n      tag_169\n      jumpi\n        /* \"#utility.yul\":1156:1235   */\n      tag_170\n      tag_118\n      jump\t// in\n    tag_170:\n        /* \"#utility.yul\":1118:1237   */\n    tag_169:\n        /* \"#utility.yul\":1276:1277   */\n      0x00\n        /* \"#utility.yul\":1301:1354   */\n      tag_171\n        /* \"#utility.yul\":1346:1353   */\n      dup5\n        /* \"#utility.yul\":1337:1343   */\n      dup3\n        /* \"#utility.yul\":1326:1335   */\n      dup6\n        /* \"#utility.yul\":1322:1344   */\n      add\n        /* \"#utility.yul\":1301:1354   */\n      tag_121\n      jump\t// in\n    tag_171:\n        /* \"#utility.yul\":1291:1354   */\n      swap2\n      pop\n        /* \"#utility.yul\":1247:1364   */\n      pop\n        /* \"#utility.yul\":1042:1371   */\n      swap3\n      swap2\n      pop\n      pop\n      jump\t// out\n        /* \"#utility.yul\":1377:1476   */\n    tag_122:\n        /* \"#utility.yul\":1429:1435   */\n      0x00\n        /* \"#utility.yul\":1463:1468   */\n      dup2\n        /* \"#utility.yul\":1457:1469   */\n      mload\n        /* \"#utility.yul\":1447:1469   */\n      swap1\n      pop\n        /* \"#utility.yul\":1377:1476   */\n      swap2\n      swap1\n      pop\n      jump\t// out\n        /* \"#utility.yul\":1482:1651   */\n    tag_123:\n        /* \"#utility.yul\":1566:1577   */\n      0x00\n        /* \"#utility.yul\":1600:1606   */\n      dup3\n        /* \"#utility.yul\":1595:1598   */\n      dup3\n        /* \"#utility.yul\":1588:1607   */\n      mstore\n        /* \"#utility.yul\":1640:1644   */\n      0x20\n        /* \"#utility.yul\":1635:1638   */\n      dup3\n        /* \"#utility.yul\":1631:1645   */\n      add\n        /* \"#utility.yul\":1616:1645   */\n      swap1\n      pop\n        /* \"#utility.yul\":1482:1651   */\n      swap3\n      swap2\n      pop\n      pop\n      jump\t// out\n        /* \"#utility.yul\":1657:1964   */\n    tag_124:\n        /* \"#utility.yul\":1725:1726   */\n      0x00\n        /* \"#utility.yul\":1735:1848   */\n    tag_175:\n        /* \"#utility.yul\":1749:1755   */\n      dup4\n        /* \"#utility.yul\":1746:1747   */\n      dup2\n        /* \"#utility.yul\":1743:1756   */\n      lt\n        /* \"#utility.yul\":1735:1848   */\n      iszero\n      tag_177\n      jumpi\n        /* \"#utility.yul\":1834:1835   */\n      dup1\n        /* \"#utility.yul\":1829:1832   */\n      dup3\n        /* \"#utility.yul\":1825:1836   */\n      add\n        /* \"#utility.yul\":1819:1837   */\n      mload\n        /* \"#utility.yul\":1815:1816   */\n      dup2\n        /* \"#utility.yul\":1810:1813   */\n      dup5\n        /* \"#utility.yul\":1806:1817   */\n      add\n        /* \"#utility.yul\":1799:1838   */\n      mstore\n        /* \"#utility.yul\":1771:1773   */\n      0x20\n        /* \"#utility.yul\":1768:1769   */\n      dup2\n        /* \"#utility.yul\":1764:1774   */\n      add\n        /* \"#utility.yul\":1759:1774   */\n      swap1\n      pop\n        /* \"#utility.yul\":1735:1848   */\n      jump(tag_175)\n    tag_177:\n        /* \"#utility.yul\":1866:1872   */\n      dup4\n        /* \"#utility.yul\":1863:1864   */\n      dup2\n        /* \"#utility.yul\":1860:1873   */\n      gt\n        /* \"#utility.yul\":1857:1958   */\n      iszero\n      tag_178\n      jumpi\n        /* \"#utility.yul\":1946:1947   */\n      0x00\n        /* \"#utility.yul\":1937:1943   */\n      dup5\n        /* \"#utility.yul\":1932:1935   */\n      dup5\n        /* \"#utility.yul\":1928:1944   */\n      add\n        /* \"#utility.yul\":1921:1948   */\n      mstore\n        /* \"#utility.yul\":1857:1958   */\n    tag_178:\n        /* \"#utility.yul\":1706:1964   */\n      pop\n        /* \"#utility.yul\":1657:1964   */\n      pop\n      pop\n      pop\n      jump\t// out\n        /* \"#utility.yul\":1970:2072   */\n    tag_125:\n        /* \"#utility.yul\":2011:2017   */\n      0x00\n        /* \"#utility.yul\":2062:2064   */\n      0x1f\n        /* \"#utility.yul\":2058:2065   */\n      not\n        /* \"#utility.yul\":2053:2055   */\n      0x1f\n        /* \"#utility.yul\":2046:2051   */\n      dup4\n        /* \"#utility.yul\":2042:2056   */\n      add\n        /* \"#utility.yul\":2038:2066   */\n      and\n        /* \"#utility.yul\":2028:2066   */\n      swap1\n      pop\n        /* \"#utility.yul\":1970:2072   */\n      swap2\n      swap1\n      pop\n      jump\t// out\n        /* \"#utility.yul\":2078:2442   */\n    tag_126:\n        /* \"#utility.yul\":2166:2169   */\n      0x00\n        /* \"#utility.yul\":2194:2233   */\n      tag_181\n        /* \"#utility.yul\":2227:2232   */\n      dup3\n        /* \"#utility.yul\":2194:2233   */\n      tag_122\n      jump\t// in\n    tag_181:\n        /* \"#utility.yul\":2249:2320   */\n      tag_182\n        /* \"#utility.yul\":2313:2319   */\n      dup2\n        /* \"#utility.yul\":2308:2311   */\n      dup6\n        /* \"#utility.yul\":2249:2320   */\n      tag_123\n      jump\t// in\n    tag_182:\n        /* \"#utility.yul\":2242:2320   */\n      swap4\n      pop\n        /* \"#utility.yul\":2329:2381   */\n      tag_183\n        /* \"#utility.yul\":2374:2380   */\n      dup2\n        /* \"#utility.yul\":2369:2372   */\n      dup6\n        /* \"#utility.yul\":2362:2366   */\n      0x20\n        /* \"#utility.yul\":2355:2360   */\n      dup7\n        /* \"#utility.yul\":2351:2367   */\n      add\n        /* \"#utility.yul\":2329:2381   */\n      tag_124\n      jump\t// in\n    tag_183:\n        /* \"#utility.yul\":2406:2435   */\n      tag_184\n        /* \"#utility.yul\":2428:2434   */\n      dup2\n        /* \"#utility.yul\":2406:2435   */\n      tag_125\n      jump\t// in\n    tag_184:\n        /* \"#utility.yul\":2401:2404   */\n      dup5\n        /* \"#utility.yul\":2397:2436   */\n      add\n        /* \"#utility.yul\":2390:2436   */\n      swap2\n      pop\n        /* \"#utility.yul\":2170:2442   */\n      pop\n        /* \"#utility.yul\":2078:2442   */\n      swap3\n      swap2\n      pop\n      pop\n      jump\t// out\n        /* \"#utility.yul\":2448:2761   */\n    tag_27:\n        /* \"#utility.yul\":2561:2565   */\n      0x00\n        /* \"#utility.yul\":2599:2601   */\n      0x20\n        /* \"#utility.yul\":2588:2597   */\n      dup3\n        /* \"#utility.yul\":2584:2602   */\n      add\n        /* \"#utility.yul\":2576:2602   */\n      swap1\n      pop\n        /* \"#utility.yul\":2648:2657   */\n      dup2\n        /* \"#utility.yul\":2642:2646   */\n      dup2\n        /* \"#utility.yul\":2638:2658   */\n      sub\n        /* \"#utility.yul\":2634:2635   */\n      0x00\n        /* \"#utility.yul\":2623:2632   */\n      dup4\n        /* \"#utility.yul\":2619:2636   */\n      add\n        /* \"#utility.yul\":2612:2659   */\n      mstore\n        /* \"#utility.yul\":2676:2754   */\n      tag_186\n        /* \"#utility.yul\":2749:2753   */\n      dup2\n        /* \"#utility.yul\":2740:2746   */\n      dup5\n        /* \"#utility.yul\":2676:2754   */\n      tag_126\n      jump\t// in\n    tag_186:\n        /* \"#utility.yul\":2668:2754   */\n      swap1\n      pop\n        /* \"#utility.yul\":2448:2761   */\n      swap3\n      swap2\n      pop\n      pop\n      jump\t// out\n        /* \"#utility.yul\":2767:2893   */\n    tag_127:\n        /* \"#utility.yul\":2804:2811   */\n      0x00\n        /* \"#utility.yul\":2844:2886   */\n      0xffffffffffffffffffffffffffffffffffffffff\n        /* \"#utility.yul\":2837:2842   */\n      dup3\n        /* \"#utility.yul\":2833:2887   */\n      and\n        /* \"#utility.yul\":2822:2887   */\n      swap1\n      pop\n        /* \"#utility.yul\":2767:2893   */\n      swap2\n      swap1\n      pop\n      jump\t// out\n        /* \"#utility.yul\":2899:2995   */\n    tag_128:\n        /* \"#utility.yul\":2936:2943   */\n      0x00\n        /* \"#utility.yul\":2965:2989   */\n      tag_189\n        /* \"#utility.yul\":2983:2988   */\n      dup3\n        /* \"#utility.yul\":2965:2989   */\n      tag_127\n      jump\t// in\n    tag_189:\n        /* \"#utility.yul\":2954:2989   */\n      swap1\n      pop\n        /* \"#utility.yul\":2899:2995   */\n      swap2\n      swap1\n      pop\n      jump\t// out\n        /* \"#utility.yul\":3001:3119   */\n    tag_129:\n        /* \"#utility.yul\":3088:3112   */\n      tag_191\n        /* \"#utility.yul\":3106:3111   */\n      dup2\n        /* \"#utility.yul\":3088:3112   */\n      tag_128\n      jump\t// in\n    tag_191:\n        /* \"#utility.yul\":3083:3086   */\n      dup3\n        /* \"#utility.yul\":3076:3113   */\n      mstore\n        /* \"#utility.yul\":3001:3119   */\n      pop\n      pop\n      jump\t// out\n        /* \"#utility.yul\":3125:3457   */\n    tag_32:\n        /* \"#utility.yul\":3246:3250   */\n      0x00\n        /* \"#utility.yul\":3284:3286   */\n      0x40\n        /* \"#utility.yul\":3273:3282   */\n      dup3\n        /* \"#utility.yul\":3269:3287   */\n      add\n        /* \"#utility.yul\":3261:3287   */\n      swap1\n      pop\n        /* \"#utility.yul\":3297:3368   */\n      tag_193\n        /* \"#utility.yul\":3365:3366   */\n      0x00\n        /* \"#utility.yul\":3354:3363   */\n      dup4\n        /* \"#utility.yul\":3350:3367   */\n      add\n        /* \"#utility.yul\":3341:3347   */\n      dup6\n        /* \"#utility.yul\":3297:3368   */\n      tag_129\n      jump\t// in\n    tag_193:\n        /* \"#utility.yul\":3378:3450   */\n      tag_194\n        /* \"#utility.yul\":3446:3448   */\n      0x20\n        /* \"#utility.yul\":3435:3444   */\n      dup4\n        /* \"#utility.yul\":3431:3449   */\n      add\n        /* \"#utility.yul\":3422:3428   */\n      dup5\n        /* \"#utility.yul\":3378:3450   */\n      tag_116\n      jump\t// in\n    tag_194:\n        /* \"#utility.yul\":3125:3457   */\n      swap4\n      swap3\n      pop\n      pop\n      pop\n      jump\t// out\n        /* \"#utility.yul\":3463:3685   */\n    tag_36:\n        /* \"#utility.yul\":3556:3560   */\n      0x00\n        /* \"#utility.yul\":3594:3596   */\n      0x20\n        /* \"#utility.yul\":3583:3592   */\n      dup3\n        /* \"#utility.yul\":3579:3597   */\n      add\n        /* \"#utility.yul\":3571:3597   */\n      swap1\n      pop\n        /* \"#utility.yul\":3607:3678   */\n      tag_196\n        /* \"#utility.yul\":3675:3676   */\n      0x00\n        /* \"#utility.yul\":3664:3673   */\n      dup4\n        /* \"#utility.yul\":3660:3677   */\n      add\n        /* \"#utility.yul\":3651:3657   */\n      dup5\n        /* \"#utility.yul\":3607:3678   */\n      tag_129\n      jump\t// in\n    tag_196:\n        /* \"#utility.yul\":3463:3685   */\n      swap3\n      swap2\n      pop\n      pop\n      jump\t// out\n        /* \"#utility.yul\":3691:3808   */\n    tag_130:\n        /* \"#utility.yul\":3800:3801   */\n      0x00\n        /* \"#utility.yul\":3797:3798   */\n      dup1\n        /* \"#utility.yul\":3790:3802   */\n      revert\n        /* \"#utility.yul\":3814:3931   */\n    tag_131:\n        /* \"#utility.yul\":3923:3924   */\n      0x00\n        /* \"#utility.yul\":3920:3921   */\n      dup1\n        /* \"#utility.yul\":3913:3925   */\n      revert\n        /* \"#utility.yul\":3937:4117   */\n    tag_132:\n        /* \"#utility.yul\":3985:4062   */\n      0x4e487b7100000000000000000000000000000000000000000000000000000000\n        /* \"#utility.yul\":3982:3983   */\n      0x00\n        /* \"#utility.yul\":3975:4063   */\n      mstore\n        /* \"#utility.yul\":4082:4086   */\n      0x41\n        /* \"#utility.yul\":4079:4080   */\n      0x04\n        /* \"#utility.yul\":4072:4087   */\n      mstore\n        /* \"#utility.yul\":4106:4110   */\n      0x24\n        /* \"#utility.yul\":4103:4104   */\n      0x00\n        /* \"#utility.yul\":4096:4111   */\n      revert\n        /* \"#utility.yul\":4123:4404   */\n    tag_133:\n        /* \"#utility.yul\":4206:4233   */\n      tag_201\n        /* \"#utility.yul\":4228:4232   */\n      dup3\n        /* \"#utility.yul\":4206:4233   */\n      tag_125\n      jump\t// in\n    tag_201:\n        /* \"#utility.yul\":4198:4204   */\n      dup2\n        /* \"#utility.yul\":4194:4234   */\n      add\n        /* \"#utility.yul\":4336:4342   */\n      dup2\n        /* \"#utility.yul\":4324:4334   */\n      dup2\n        /* \"#utility.yul\":4321:4343   */\n      lt\n        /* \"#utility.yul\":4300:4318   */\n      0xffffffffffffffff\n        /* \"#utility.yul\":4288:4298   */\n      dup3\n        /* \"#utility.yul\":4285:4319   */\n      gt\n        /* \"#utility.yul\":4282:4344   */\n      or\n        /* \"#utility.yul\":4279:4367   */\n      iszero\n      tag_202\n      jumpi\n        /* \"#utility.yul\":4347:4365   */\n      tag_203\n      tag_132\n      jump\t// in\n    tag_203:\n        /* \"#utility.yul\":4279:4367   */\n    tag_202:\n        /* \"#utility.yul\":4387:4397   */\n      dup1\n        /* \"#utility.yul\":4383:4385   */\n      0x40\n        /* \"#utility.yul\":4376:4398   */\n      mstore\n        /* \"#utility.yul\":4166:4404   */\n      pop\n        /* \"#utility.yul\":4123:4404   */\n      pop\n      pop\n      jump\t// out\n        /* \"#utility.yul\":4410:4539   */\n    tag_134:\n        /* \"#utility.yul\":4444:4450   */\n      0x00\n        /* \"#utility.yul\":4471:4491   */\n      tag_205\n      tag_117\n      jump\t// in\n    tag_205:\n        /* \"#utility.yul\":4461:4491   */\n      swap1\n      pop\n        /* \"#utility.yul\":4500:4533   */\n      tag_206\n        /* \"#utility.yul\":4528:4532   */\n      dup3\n        /* \"#utility.yul\":4520:4526   */\n      dup3\n        /* \"#utility.yul\":4500:4533   */\n      tag_133\n      jump\t// in\n    tag_206:\n        /* \"#utility.yul\":4410:4539   */\n      swap2\n      swap1\n      pop\n      jump\t// out\n        /* \"#utility.yul\":4545:4853   */\n    tag_135:\n        /* \"#utility.yul\":4607:4611   */\n      0x00\n        /* \"#utility.yul\":4697:4715   */\n      0xffffffffffffffff\n        /* \"#utility.yul\":4689:4695   */\n      dup3\n        /* \"#utility.yul\":4686:4716   */\n      gt\n        /* \"#utility.yul\":4683:4739   */\n      iszero\n      tag_208\n      jumpi\n        /* \"#utility.yul\":4719:4737   */\n      tag_209\n      tag_132\n      jump\t// in\n    tag_209:\n        /* \"#utility.yul\":4683:4739   */\n    tag_208:\n        /* \"#utility.yul\":4757:4786   */\n      tag_210\n        /* \"#utility.yul\":4779:4785   */\n      dup3\n        /* \"#utility.yul\":4757:4786   */\n      tag_125\n      jump\t// in\n    tag_210:\n        /* \"#utility.yul\":4749:4786   */\n      swap1\n      pop\n        /* \"#utility.yul\":4841:4845   */\n      0x20\n        /* \"#utility.yul\":4835:4839   */\n      dup2\n        /* \"#utility.yul\":4831:4846   */\n      add\n        /* \"#utility.yul\":4823:4846   */\n      swap1\n      pop\n        /* \"#utility.yul\":4545:4853   */\n      swap2\n      swap1\n      pop\n      jump\t// out\n        /* \"#utility.yul\":4859:5013   */\n    tag_136:\n        /* \"#utility.yul\":4943:4949   */\n      dup3\n        /* \"#utility.yul\":4938:4941   */\n      dup2\n        /* \"#utility.yul\":4933:4936   */\n      dup4\n        /* \"#utility.yul\":4920:4950   */\n      calldatacopy\n        /* \"#utility.yul\":5005:5006   */\n      0x00\n        /* \"#utility.yul\":4996:5002   */\n      dup4\n        /* \"#utility.yul\":4991:4994   */\n      dup4\n        /* \"#utility.yul\":4987:5003   */\n      add\n        /* \"#utility.yul\":4980:5007   */\n      mstore\n        /* \"#utility.yul\":4859:5013   */\n      pop\n      pop\n      pop\n      jump\t// out\n        /* \"#utility.yul\":5019:5431   */\n    tag_137:\n        /* \"#utility.yul\":5097:5102   */\n      0x00\n        /* \"#utility.yul\":5122:5188   */\n      tag_213\n        /* \"#utility.yul\":5138:5187   */\n      tag_214\n        /* \"#utility.yul\":5180:5186   */\n      dup5\n        /* \"#utility.yul\":5138:5187   */\n      tag_135\n      jump\t// in\n    tag_214:\n        /* \"#utility.yul\":5122:5188   */\n      tag_134\n      jump\t// in\n    tag_213:\n        /* \"#utility.yul\":5113:5188   */\n      swap1\n      pop\n        /* \"#utility.yul\":5211:5217   */\n      dup3\n        /* \"#utility.yul\":5204:5209   */\n      dup2\n        /* \"#utility.yul\":5197:5218   */\n      mstore\n        /* \"#utility.yul\":5249:5253   */\n      0x20\n        /* \"#utility.yul\":5242:5247   */\n      dup2\n        /* \"#utility.yul\":5238:5254   */\n      add\n        /* \"#utility.yul\":5287:5290   */\n      dup5\n        /* \"#utility.yul\":5278:5284   */\n      dup5\n        /* \"#utility.yul\":5273:5276   */\n      dup5\n        /* \"#utility.yul\":5269:5285   */\n      add\n        /* \"#utility.yul\":5266:5291   */\n      gt\n        /* \"#utility.yul\":5263:5375   */\n      iszero\n      tag_215\n      jumpi\n        /* \"#utility.yul\":5294:5373   */\n      tag_216\n      tag_131\n      jump\t// in\n    tag_216:\n        /* \"#utility.yul\":5263:5375   */\n    tag_215:\n        /* \"#utility.yul\":5384:5425   */\n      tag_217\n        /* \"#utility.yul\":5418:5424   */\n      dup5\n        /* \"#utility.yul\":5413:5416   */\n      dup3\n        /* \"#utility.yul\":5408:5411   */\n      dup6\n        /* \"#utility.yul\":5384:5425   */\n      tag_136\n      jump\t// in\n    tag_217:\n        /* \"#utility.yul\":5103:5431   */\n      pop\n        /* \"#utility.yul\":5019:5431   */\n      swap4\n      swap3\n      pop\n      pop\n      pop\n      jump\t// out\n        /* \"#utility.yul\":5451:5791   */\n    tag_138:\n        /* \"#utility.yul\":5507:5512   */\n      0x00\n        /* \"#utility.yul\":5556:5559   */\n      dup3\n        /* \"#utility.yul\":5549:5553   */\n      0x1f\n        /* \"#utility.yul\":5541:5547   */\n      dup4\n        /* \"#utility.yul\":5537:5554   */\n      add\n        /* \"#utility.yul\":5533:5560   */\n      slt\n        /* \"#utility.yul\":5523:5645   */\n      tag_219\n      jumpi\n        /* \"#utility.yul\":5564:5643   */\n      tag_220\n      tag_130\n      jump\t// in\n    tag_220:\n        /* \"#utility.yul\":5523:5645   */\n    tag_219:\n        /* \"#utility.yul\":5681:5687   */\n      dup2\n        /* \"#utility.yul\":5668:5688   */\n      calldataload\n        /* \"#utility.yul\":5706:5785   */\n      tag_221\n        /* \"#utility.yul\":5781:5784   */\n      dup5\n        /* \"#utility.yul\":5773:5779   */\n      dup3\n        /* \"#utility.yul\":5766:5770   */\n      0x20\n        /* \"#utility.yul\":5758:5764   */\n      dup7\n        /* \"#utility.yul\":5754:5771   */\n      add\n        /* \"#utility.yul\":5706:5785   */\n      tag_137\n      jump\t// in\n    tag_221:\n        /* \"#utility.yul\":5697:5785   */\n      swap2\n      pop\n        /* \"#utility.yul\":5513:5791   */\n      pop\n        /* \"#utility.yul\":5451:5791   */\n      swap3\n      swap2\n      pop\n      pop\n      jump\t// out\n        /* \"#utility.yul\":5797:6306   */\n    tag_39:\n        /* \"#utility.yul\":5866:5872   */\n      0x00\n        /* \"#utility.yul\":5915:5917   */\n      0x20\n        /* \"#utility.yul\":5903:5912   */\n      dup3\n        /* \"#utility.yul\":5894:5901   */\n      dup5\n        /* \"#utility.yul\":5890:5913   */\n      sub\n        /* \"#utility.yul\":5886:5918   */\n      slt\n        /* \"#utility.yul\":5883:6002   */\n      iszero\n      tag_223\n      jumpi\n        /* \"#utility.yul\":5921:6000   */\n      tag_224\n      tag_118\n      jump\t// in\n    tag_224:\n        /* \"#utility.yul\":5883:6002   */\n    tag_223:\n        /* \"#utility.yul\":6069:6070   */\n      0x00\n        /* \"#utility.yul\":6058:6067   */\n      dup3\n        /* \"#utility.yul\":6054:6071   */\n      add\n        /* \"#utility.yul\":6041:6072   */\n      calldataload\n        /* \"#utility.yul\":6099:6117   */\n      0xffffffffffffffff\n        /* \"#utility.yul\":6091:6097   */\n      dup2\n        /* \"#utility.yul\":6088:6118   */\n      gt\n        /* \"#utility.yul\":6085:6202   */\n      iszero\n      tag_225\n      jumpi\n        /* \"#utility.yul\":6121:6200   */\n      tag_226\n      tag_119\n      jump\t// in\n    tag_226:\n        /* \"#utility.yul\":6085:6202   */\n    tag_225:\n        /* \"#utility.yul\":6226:6289   */\n      tag_227\n        /* \"#utility.yul\":6281:6288   */\n      dup5\n        /* \"#utility.yul\":6272:6278   */\n      dup3\n        /* \"#utility.yul\":6261:6270   */\n      dup6\n        /* \"#utility.yul\":6257:6279   */\n      add\n        /* \"#utility.yul\":6226:6289   */\n      tag_138\n      jump\t// in\n    tag_227:\n        /* \"#utility.yul\":6216:6289   */\n      swap2\n      pop\n        /* \"#utility.yul\":6012:6299   */\n      pop\n        /* \"#utility.yul\":5797:6306   */\n      swap3\n      swap2\n      pop\n      pop\n      jump\t// out\n        /* \"#utility.yul\":6312:6492   */\n    tag_55:\n        /* \"#utility.yul\":6360:6437   */\n      0x4e487b7100000000000000000000000000000000000000000000000000000000\n        /* \"#utility.yul\":6357:6358   */\n      0x00\n        /* \"#utility.yul\":6350:6438   */\n      mstore\n        /* \"#utility.yul\":6457:6461   */\n      0x32\n        /* \"#utility.yul\":6454:6455   */\n      0x04\n        /* \"#utility.yul\":6447:6462   */\n      mstore\n        /* \"#utility.yul\":6481:6485   */\n      0x24\n        /* \"#utility.yul\":6478:6479   */\n      0x00\n        /* \"#utility.yul\":6471:6486   */\n      revert\n        /* \"#utility.yul\":6498:6678   */\n    tag_139:\n        /* \"#utility.yul\":6546:6623   */\n      0x4e487b7100000000000000000000000000000000000000000000000000000000\n        /* \"#utility.yul\":6543:6544   */\n      0x00\n        /* \"#utility.yul\":6536:6624   */\n      mstore\n        /* \"#utility.yul\":6643:6647   */\n      0x22\n        /* \"#utility.yul\":6640:6641   */\n      0x04\n        /* \"#utility.yul\":6633:6648   */\n      mstore\n        /* \"#utility.yul\":6667:6671   */\n      0x24\n        /* \"#utility.yul\":6664:6665   */\n      0x00\n        /* \"#utility.yul\":6657:6672   */\n      revert\n        /* \"#utility.yul\":6684:7004   */\n    tag_60:\n        /* \"#utility.yul\":6728:6734   */\n      0x00\n        /* \"#utility.yul\":6765:6766   */\n      0x02\n        /* \"#utility.yul\":6759:6763   */\n      dup3\n        /* \"#utility.yul\":6755:6767   */\n      div\n        /* \"#utility.yul\":6745:6767   */\n      swap1\n      pop\n        /* \"#utility.yul\":6812:6813   */\n      0x01\n        /* \"#utility.yul\":6806:6810   */\n      dup3\n        /* \"#utility.yul\":6802:6814   */\n      and\n        /* \"#utility.yul\":6833:6851   */\n      dup1\n        /* \"#utility.yul\":6823:6904   */\n      tag_231\n      jumpi\n        /* \"#utility.yul\":6889:6893   */\n      0x7f\n        /* \"#utility.yul\":6881:6887   */\n      dup3\n        /* \"#utility.yul\":6877:6894   */\n      and\n        /* \"#utility.yul\":6867:6894   */\n      swap2\n      pop\n        /* \"#utility.yul\":6823:6904   */\n    tag_231:\n        /* \"#utility.yul\":6951:6953   */\n      0x20\n        /* \"#utility.yul\":6943:6949   */\n      dup3\n        /* \"#utility.yul\":6940:6954   */\n      lt\n        /* \"#utility.yul\":6920:6938   */\n      dup2\n        /* \"#utility.yul\":6917:6955   */\n      eq\n        /* \"#utility.yul\":6914:6998   */\n      iszero\n      tag_232\n      jumpi\n        /* \"#utility.yul\":6970:6988   */\n      tag_233\n      tag_139\n      jump\t// in\n    tag_233:\n        /* \"#utility.yul\":6914:6998   */\n    tag_232:\n        /* \"#utility.yul\":6735:7004   */\n      pop\n        /* \"#utility.yul\":6684:7004   */\n      swap2\n      swap1\n      pop\n      jump\t// out\n        /* \"#utility.yul\":7010:7096   */\n    tag_140:\n        /* \"#utility.yul\":7045:7052   */\n      0x00\n        /* \"#utility.yul\":7085:7089   */\n      0xff\n        /* \"#utility.yul\":7078:7083   */\n      dup3\n        /* \"#utility.yul\":7074:7090   */\n      and\n        /* \"#utility.yul\":7063:7090   */\n      swap1\n      pop\n        /* \"#utility.yul\":7010:7096   */\n      swap2\n      swap1\n      pop\n      jump\t// out\n        /* \"#utility.yul\":7102:7220   */\n    tag_141:\n        /* \"#utility.yul\":7173:7195   */\n      tag_236\n        /* \"#utility.yul\":7189:7194   */\n      dup2\n        /* \"#utility.yul\":7173:7195   */\n      tag_140\n      jump\t// in\n    tag_236:\n        /* \"#utility.yul\":7166:7171   */\n      dup2\n        /* \"#utility.yul\":7163:7196   */\n      eq\n        /* \"#utility.yul\":7153:7214   */\n      tag_237\n      jumpi\n        /* \"#utility.yul\":7210:7211   */\n      0x00\n        /* \"#utility.yul\":7207:7208   */\n      dup1\n        /* \"#utility.yul\":7200:7212   */\n      revert\n        /* \"#utility.yul\":7153:7214   */\n    tag_237:\n        /* \"#utility.yul\":7102:7220   */\n      pop\n      jump\t// out\n        /* \"#utility.yul\":7226:7365   */\n    tag_142:\n        /* \"#utility.yul\":7281:7286   */\n      0x00\n        /* \"#utility.yul\":7312:7318   */\n      dup2\n        /* \"#utility.yul\":7306:7319   */\n      mload\n        /* \"#utility.yul\":7297:7319   */\n      swap1\n      pop\n        /* \"#utility.yul\":7328:7359   */\n      tag_239\n        /* \"#utility.yul\":7353:7358   */\n      dup2\n        /* \"#utility.yul\":7328:7359   */\n      tag_141\n      jump\t// in\n    tag_239:\n        /* \"#utility.yul\":7226:7365   */\n      swap3\n      swap2\n      pop\n      pop\n      jump\t// out\n        /* \"#utility.yul\":7371:7718   */\n    tag_73:\n        /* \"#utility.yul\":7439:7445   */\n      0x00\n        /* \"#utility.yul\":7488:7490   */\n      0x20\n        /* \"#utility.yul\":7476:7485   */\n      dup3\n        /* \"#utility.yul\":7467:7474   */\n      dup5\n        /* \"#utility.yul\":7463:7486   */\n      sub\n        /* \"#utility.yul\":7459:7491   */\n      slt\n        /* \"#utility.yul\":7456:7575   */\n      iszero\n      tag_241\n      jumpi\n        /* \"#utility.yul\":7494:7573   */\n      tag_242\n      tag_118\n      jump\t// in\n    tag_242:\n        /* \"#utility.yul\":7456:7575   */\n    tag_241:\n        /* \"#utility.yul\":7614:7615   */\n      0x00\n        /* \"#utility.yul\":7639:7701   */\n      tag_243\n        /* \"#utility.yul\":7693:7700   */\n      dup5\n        /* \"#utility.yul\":7684:7690   */\n      dup3\n        /* \"#utility.yul\":7673:7682   */\n      dup6\n        /* \"#utility.yul\":7669:7691   */\n      add\n        /* \"#utility.yul\":7639:7701   */\n      tag_142\n      jump\t// in\n    tag_243:\n        /* \"#utility.yul\":7629:7701   */\n      swap2\n      pop\n        /* \"#utility.yul\":7585:7711   */\n      pop\n        /* \"#utility.yul\":7371:7718   */\n      swap3\n      swap2\n      pop\n      pop\n      jump\t// out\n        /* \"#utility.yul\":7724:7983   */\n    tag_143:\n        /* \"#utility.yul\":7809:7813   */\n      0x00\n        /* \"#utility.yul\":7899:7917   */\n      0xffffffffffffffff\n        /* \"#utility.yul\":7891:7897   */\n      dup3\n        /* \"#utility.yul\":7888:7918   */\n      gt\n        /* \"#utility.yul\":7885:7941   */\n      iszero\n      tag_245\n      jumpi\n        /* \"#utility.yul\":7921:7939   */\n      tag_246\n      tag_132\n      jump\t// in\n    tag_246:\n        /* \"#utility.yul\":7885:7941   */\n    tag_245:\n        /* \"#utility.yul\":7971:7975   */\n      0x20\n        /* \"#utility.yul\":7963:7969   */\n      dup3\n        /* \"#utility.yul\":7959:7976   */\n      mul\n        /* \"#utility.yul\":7951:7976   */\n      swap1\n      pop\n        /* \"#utility.yul\":7724:7983   */\n      swap2\n      swap1\n      pop\n      jump\t// out\n        /* \"#utility.yul\":7989:8106   */\n    tag_144:\n        /* \"#utility.yul\":8098:8099   */\n      0x00\n        /* \"#utility.yul\":8095:8096   */\n      dup1\n        /* \"#utility.yul\":8088:8100   */\n      revert\n        /* \"#utility.yul\":8112:8533   */\n    tag_145:\n        /* \"#utility.yul\":8201:8206   */\n      0x00\n        /* \"#utility.yul\":8226:8292   */\n      tag_249\n        /* \"#utility.yul\":8242:8291   */\n      tag_250\n        /* \"#utility.yul\":8284:8290   */\n      dup5\n        /* \"#utility.yul\":8242:8291   */\n      tag_135\n      jump\t// in\n    tag_250:\n        /* \"#utility.yul\":8226:8292   */\n      tag_134\n      jump\t// in\n    tag_249:\n        /* \"#utility.yul\":8217:8292   */\n      swap1\n      pop\n        /* \"#utility.yul\":8315:8321   */\n      dup3\n        /* \"#utility.yul\":8308:8313   */\n      dup2\n        /* \"#utility.yul\":8301:8322   */\n      mstore\n        /* \"#utility.yul\":8353:8357   */\n      0x20\n        /* \"#utility.yul\":8346:8351   */\n      dup2\n        /* \"#utility.yul\":8342:8358   */\n      add\n        /* \"#utility.yul\":8391:8394   */\n      dup5\n        /* \"#utility.yul\":8382:8388   */\n      dup5\n        /* \"#utility.yul\":8377:8380   */\n      dup5\n        /* \"#utility.yul\":8373:8389   */\n      add\n        /* \"#utility.yul\":8370:8395   */\n      gt\n        /* \"#utility.yul\":8367:8479   */\n      iszero\n      tag_251\n      jumpi\n        /* \"#utility.yul\":8398:8477   */\n      tag_252\n      tag_131\n      jump\t// in\n    tag_252:\n        /* \"#utility.yul\":8367:8479   */\n    tag_251:\n        /* \"#utility.yul\":8488:8527   */\n      tag_253\n        /* \"#utility.yul\":8520:8526   */\n      dup5\n        /* \"#utility.yul\":8515:8518   */\n      dup3\n        /* \"#utility.yul\":8510:8513   */\n      dup6\n        /* \"#utility.yul\":8488:8527   */\n      tag_124\n      jump\t// in\n    tag_253:\n        /* \"#utility.yul\":8207:8533   */\n      pop\n        /* \"#utility.yul\":8112:8533   */\n      swap4\n      swap3\n      pop\n      pop\n      pop\n      jump\t// out\n        /* \"#utility.yul\":8553:8908   */\n    tag_146:\n        /* \"#utility.yul\":8620:8625   */\n      0x00\n        /* \"#utility.yul\":8669:8672   */\n      dup3\n        /* \"#utility.yul\":8662:8666   */\n      0x1f\n        /* \"#utility.yul\":8654:8660   */\n      dup4\n        /* \"#utility.yul\":8650:8667   */\n      add\n        /* \"#utility.yul\":8646:8673   */\n      slt\n        /* \"#utility.yul\":8636:8758   */\n      tag_255\n      jumpi\n        /* \"#utility.yul\":8677:8756   */\n      tag_256\n      tag_130\n      jump\t// in\n    tag_256:\n        /* \"#utility.yul\":8636:8758   */\n    tag_255:\n        /* \"#utility.yul\":8787:8793   */\n      dup2\n        /* \"#utility.yul\":8781:8794   */\n      mload\n        /* \"#utility.yul\":8812:8902   */\n      tag_257\n        /* \"#utility.yul\":8898:8901   */\n      dup5\n        /* \"#utility.yul\":8890:8896   */\n      dup3\n        /* \"#utility.yul\":8883:8887   */\n      0x20\n        /* \"#utility.yul\":8875:8881   */\n      dup7\n        /* \"#utility.yul\":8871:8888   */\n      add\n        /* \"#utility.yul\":8812:8902   */\n      tag_145\n      jump\t// in\n    tag_257:\n        /* \"#utility.yul\":8803:8902   */\n      swap2\n      pop\n        /* \"#utility.yul\":8626:8908   */\n      pop\n        /* \"#utility.yul\":8553:8908   */\n      swap3\n      swap2\n      pop\n      pop\n      jump\t// out\n        /* \"#utility.yul\":8931:9824   */\n    tag_147:\n        /* \"#utility.yul\":9046:9051   */\n      0x00\n        /* \"#utility.yul\":9071:9160   */\n      tag_259\n        /* \"#utility.yul\":9087:9159   */\n      tag_260\n        /* \"#utility.yul\":9152:9158   */\n      dup5\n        /* \"#utility.yul\":9087:9159   */\n      tag_143\n      jump\t// in\n    tag_260:\n        /* \"#utility.yul\":9071:9160   */\n      tag_134\n      jump\t// in\n    tag_259:\n        /* \"#utility.yul\":9062:9160   */\n      swap1\n      pop\n        /* \"#utility.yul\":9180:9185   */\n      dup1\n        /* \"#utility.yul\":9233:9237   */\n      0x20\n        /* \"#utility.yul\":9225:9231   */\n      dup5\n        /* \"#utility.yul\":9221:9238   */\n      mul\n        /* \"#utility.yul\":9213:9219   */\n      dup4\n        /* \"#utility.yul\":9209:9239   */\n      add\n        /* \"#utility.yul\":9262:9265   */\n      dup6\n        /* \"#utility.yul\":9254:9260   */\n      dup2\n        /* \"#utility.yul\":9251:9266   */\n      gt\n        /* \"#utility.yul\":9248:9370   */\n      iszero\n      tag_261\n      jumpi\n        /* \"#utility.yul\":9281:9360   */\n      tag_262\n      tag_144\n      jump\t// in\n    tag_262:\n        /* \"#utility.yul\":9248:9370   */\n    tag_261:\n        /* \"#utility.yul\":9396:9402   */\n      dup4\n        /* \"#utility.yul\":9379:9818   */\n    tag_263:\n        /* \"#utility.yul\":9413:9419   */\n      dup2\n        /* \"#utility.yul\":9408:9411   */\n      dup2\n        /* \"#utility.yul\":9405:9420   */\n      lt\n        /* \"#utility.yul\":9379:9818   */\n      iszero\n      tag_265\n      jumpi\n        /* \"#utility.yul\":9495:9498   */\n      dup1\n        /* \"#utility.yul\":9489:9499   */\n      mload\n        /* \"#utility.yul\":9531:9549   */\n      0xffffffffffffffff\n        /* \"#utility.yul\":9518:9529   */\n      dup2\n        /* \"#utility.yul\":9515:9550   */\n      gt\n        /* \"#utility.yul\":9512:9634   */\n      iszero\n      tag_266\n      jumpi\n        /* \"#utility.yul\":9553:9632   */\n      tag_267\n      tag_130\n      jump\t// in\n    tag_267:\n        /* \"#utility.yul\":9512:9634   */\n    tag_266:\n        /* \"#utility.yul\":9677:9688   */\n      dup1\n        /* \"#utility.yul\":9669:9675   */\n      dup7\n        /* \"#utility.yul\":9665:9689   */\n      add\n        /* \"#utility.yul\":9715:9773   */\n      tag_268\n        /* \"#utility.yul\":9769:9772   */\n      dup10\n        /* \"#utility.yul\":9757:9767   */\n      dup3\n        /* \"#utility.yul\":9715:9773   */\n      tag_146\n      jump\t// in\n    tag_268:\n        /* \"#utility.yul\":9710:9713   */\n      dup6\n        /* \"#utility.yul\":9703:9774   */\n      mstore\n        /* \"#utility.yul\":9803:9807   */\n      0x20\n        /* \"#utility.yul\":9798:9801   */\n      dup6\n        /* \"#utility.yul\":9794:9808   */\n      add\n        /* \"#utility.yul\":9787:9808   */\n      swap5\n      pop\n        /* \"#utility.yul\":9455:9818   */\n      pop\n      pop\n        /* \"#utility.yul\":9439:9443   */\n      0x20\n        /* \"#utility.yul\":9434:9437   */\n      dup2\n        /* \"#utility.yul\":9430:9444   */\n      add\n        /* \"#utility.yul\":9423:9444   */\n      swap1\n      pop\n        /* \"#utility.yul\":9379:9818   */\n      jump(tag_263)\n    tag_265:\n        /* \"#utility.yul\":9383:9404   */\n      pop\n        /* \"#utility.yul\":9052:9824   */\n      pop\n      pop\n        /* \"#utility.yul\":8931:9824   */\n      swap4\n      swap3\n      pop\n      pop\n      pop\n      jump\t// out\n        /* \"#utility.yul\":9847:10228   */\n    tag_148:\n        /* \"#utility.yul\":9937:9942   */\n      0x00\n        /* \"#utility.yul\":9986:9989   */\n      dup3\n        /* \"#utility.yul\":9979:9983   */\n      0x1f\n        /* \"#utility.yul\":9971:9977   */\n      dup4\n        /* \"#utility.yul\":9967:9984   */\n      add\n        /* \"#utility.yul\":9963:9990   */\n      slt\n        /* \"#utility.yul\":9953:10075   */\n      tag_270\n      jumpi\n        /* \"#utility.yul\":9994:10073   */\n      tag_271\n      tag_130\n      jump\t// in\n    tag_271:\n        /* \"#utility.yul\":9953:10075   */\n    tag_270:\n        /* \"#utility.yul\":10098:10102   */\n      0x03\n        /* \"#utility.yul\":10120:10222   */\n      tag_272\n        /* \"#utility.yul\":10218:10221   */\n      dup5\n        /* \"#utility.yul\":10210:10216   */\n      dup3\n        /* \"#utility.yul\":10202:10208   */\n      dup6\n        /* \"#utility.yul\":10120:10222   */\n      tag_147\n      jump\t// in\n    tag_272:\n        /* \"#utility.yul\":10111:10222   */\n      swap2\n      pop\n        /* \"#utility.yul\":9943:10228   */\n      pop\n        /* \"#utility.yul\":9847:10228   */\n      swap3\n      swap2\n      pop\n      pop\n      jump\t// out\n        /* \"#utility.yul\":10234:10804   */\n    tag_79:\n        /* \"#utility.yul\":10337:10343   */\n      0x00\n        /* \"#utility.yul\":10386:10388   */\n      0x20\n        /* \"#utility.yul\":10374:10383   */\n      dup3\n        /* \"#utility.yul\":10365:10372   */\n      dup5\n        /* \"#utility.yul\":10361:10384   */\n      sub\n        /* \"#utility.yul\":10357:10389   */\n      slt\n        /* \"#utility.yul\":10354:10473   */\n      iszero\n      tag_274\n      jumpi\n        /* \"#utility.yul\":10392:10471   */\n      tag_275\n      tag_118\n      jump\t// in\n    tag_275:\n        /* \"#utility.yul\":10354:10473   */\n    tag_274:\n        /* \"#utility.yul\":10533:10534   */\n      0x00\n        /* \"#utility.yul\":10522:10531   */\n      dup3\n        /* \"#utility.yul\":10518:10535   */\n      add\n        /* \"#utility.yul\":10512:10536   */\n      mload\n        /* \"#utility.yul\":10563:10581   */\n      0xffffffffffffffff\n        /* \"#utility.yul\":10555:10561   */\n      dup2\n        /* \"#utility.yul\":10552:10582   */\n      gt\n        /* \"#utility.yul\":10549:10666   */\n      iszero\n      tag_276\n      jumpi\n        /* \"#utility.yul\":10585:10664   */\n      tag_277\n      tag_119\n      jump\t// in\n    tag_277:\n        /* \"#utility.yul\":10549:10666   */\n    tag_276:\n        /* \"#utility.yul\":10690:10787   */\n      tag_278\n        /* \"#utility.yul\":10779:10786   */\n      dup5\n        /* \"#utility.yul\":10770:10776   */\n      dup3\n        /* \"#utility.yul\":10759:10768   */\n      dup6\n        /* \"#utility.yul\":10755:10777   */\n      add\n        /* \"#utility.yul\":10690:10787   */\n      tag_148\n      jump\t// in\n    tag_278:\n        /* \"#utility.yul\":10680:10787   */\n      swap2\n      pop\n        /* \"#utility.yul\":10483:10797   */\n      pop\n        /* \"#utility.yul\":10234:10804   */\n      swap3\n      swap2\n      pop\n      pop\n      jump\t// out\n        /* \"#utility.yul\":10810:10986   */\n    tag_149:\n        /* \"#utility.yul\":10950:10978   */\n      0x4e6f7420417574686f72697a65642c2041646d696e204f6e6c79000000000000\n        /* \"#utility.yul\":10946:10947   */\n      0x00\n        /* \"#utility.yul\":10938:10944   */\n      dup3\n        /* \"#utility.yul\":10934:10948   */\n      add\n        /* \"#utility.yul\":10927:10979   */\n      mstore\n        /* \"#utility.yul\":10810:10986   */\n      pop\n      jump\t// out\n        /* \"#utility.yul\":10992:11358   */\n    tag_150:\n        /* \"#utility.yul\":11134:11137   */\n      0x00\n        /* \"#utility.yul\":11155:11222   */\n      tag_281\n        /* \"#utility.yul\":11219:11221   */\n      0x1a\n        /* \"#utility.yul\":11214:11217   */\n      dup4\n        /* \"#utility.yul\":11155:11222   */\n      tag_123\n      jump\t// in\n    tag_281:\n        /* \"#utility.yul\":11148:11222   */\n      swap2\n      pop\n        /* \"#utility.yul\":11231:11324   */\n      tag_282\n        /* \"#utility.yul\":11320:11323   */\n      dup3\n        /* \"#utility.yul\":11231:11324   */\n      tag_149\n      jump\t// in\n    tag_282:\n        /* \"#utility.yul\":11349:11351   */\n      0x20\n        /* \"#utility.yul\":11344:11347   */\n      dup3\n        /* \"#utility.yul\":11340:11352   */\n      add\n        /* \"#utility.yul\":11333:11352   */\n      swap1\n      pop\n        /* \"#utility.yul\":10992:11358   */\n      swap2\n      swap1\n      pop\n      jump\t// out\n        /* \"#utility.yul\":11364:11783   */\n    tag_86:\n        /* \"#utility.yul\":11530:11534   */\n      0x00\n        /* \"#utility.yul\":11568:11570   */\n      0x20\n        /* \"#utility.yul\":11557:11566   */\n      dup3\n        /* \"#utility.yul\":11553:11571   */\n      add\n        /* \"#utility.yul\":11545:11571   */\n      swap1\n      pop\n        /* \"#utility.yul\":11617:11626   */\n      dup2\n        /* \"#utility.yul\":11611:11615   */\n      dup2\n        /* \"#utility.yul\":11607:11627   */\n      sub\n        /* \"#utility.yul\":11603:11604   */\n      0x00\n        /* \"#utility.yul\":11592:11601   */\n      dup4\n        /* \"#utility.yul\":11588:11605   */\n      add\n        /* \"#utility.yul\":11581:11628   */\n      mstore\n        /* \"#utility.yul\":11645:11776   */\n      tag_284\n        /* \"#utility.yul\":11771:11775   */\n      dup2\n        /* \"#utility.yul\":11645:11776   */\n      tag_150\n      jump\t// in\n    tag_284:\n        /* \"#utility.yul\":11637:11776   */\n      swap1\n      pop\n        /* \"#utility.yul\":11364:11783   */\n      swap2\n      swap1\n      pop\n      jump\t// out\n        /* \"#utility.yul\":11789:11969   */\n    tag_151:\n        /* \"#utility.yul\":11837:11914   */\n      0x4e487b7100000000000000000000000000000000000000000000000000000000\n        /* \"#utility.yul\":11834:11835   */\n      0x00\n        /* \"#utility.yul\":11827:11915   */\n      mstore\n        /* \"#utility.yul\":11934:11938   */\n      0x11\n        /* \"#utility.yul\":11931:11932   */\n      0x04\n        /* \"#utility.yul\":11924:11939   */\n      mstore\n        /* \"#utility.yul\":11958:11962   */\n      0x24\n        /* \"#utility.yul\":11955:11956   */\n      0x00\n        /* \"#utility.yul\":11948:11963   */\n      revert\n        /* \"#utility.yul\":11975:12208   */\n    tag_100:\n        /* \"#utility.yul\":12014:12017   */\n      0x00\n        /* \"#utility.yul\":12037:12061   */\n      tag_287\n        /* \"#utility.yul\":12055:12060   */\n      dup3\n        /* \"#utility.yul\":12037:12061   */\n      tag_115\n      jump\t// in\n    tag_287:\n        /* \"#utility.yul\":12028:12061   */\n      swap2\n      pop\n        /* \"#utility.yul\":12083:12149   */\n      0xffffffffffffffffffffffffffffffffffffffffffffffffffffffffffffffff\n        /* \"#utility.yul\":12076:12081   */\n      dup3\n        /* \"#utility.yul\":12073:12150   */\n      eq\n        /* \"#utility.yul\":12070:12173   */\n      iszero\n      tag_288\n      jumpi\n        /* \"#utility.yul\":12153:12171   */\n      tag_289\n      tag_151\n      jump\t// in\n    tag_289:\n        /* \"#utility.yul\":12070:12173   */\n    tag_288:\n        /* \"#utility.yul\":12200:12201   */\n      0x01\n        /* \"#utility.yul\":12193:12198   */\n      dup3\n        /* \"#utility.yul\":12189:12202   */\n      add\n        /* \"#utility.yul\":12182:12202   */\n      swap1\n      pop\n        /* \"#utility.yul\":11975:12208   */\n      swap2\n      swap1\n      pop\n      jump\t// out\n        /* \"#utility.yul\":12214:12376   */\n    tag_152:\n        /* \"#utility.yul\":12354:12368   */\n      0x4f7574206f66204c696d69740000000000000000000000000000000000000000\n        /* \"#utility.yul\":12350:12351   */\n      0x00\n        /* \"#utility.yul\":12342:12348   */\n      dup3\n        /* \"#utility.yul\":12338:12352   */\n      add\n        /* \"#utility.yul\":12331:12369   */\n      mstore\n        /* \"#utility.yul\":12214:12376   */\n      pop\n      jump\t// out\n        /* \"#utility.yul\":12382:12748   */\n    tag_153:\n        /* \"#utility.yul\":12524:12527   */\n      0x00\n        /* \"#utility.yul\":12545:12612   */\n      tag_292\n        /* \"#utility.yul\":12609:12611   */\n      0x0c\n        /* \"#utility.yul\":12604:12607   */\n      dup4\n        /* \"#utility.yul\":12545:12612   */\n      tag_123\n      jump\t// in\n    tag_292:\n        /* \"#utility.yul\":12538:12612   */\n      swap2\n      pop\n        /* \"#utility.yul\":12621:12714   */\n      tag_293\n        /* \"#utility.yul\":12710:12713   */\n      dup3\n        /* \"#utility.yul\":12621:12714   */\n      tag_152\n      jump\t// in\n    tag_293:\n        /* \"#utility.yul\":12739:12741   */\n      0x20\n        /* \"#utility.yul\":12734:12737   */\n      dup3\n        /* \"#utility.yul\":12730:12742   */\n      add\n        /* \"#utility.yul\":12723:12742   */\n      swap1\n      pop\n        /* \"#utility.yul\":12382:12748   */\n      swap2\n      swap1\n      pop\n      jump\t// out\n        /* \"#utility.yul\":12754:13173   */\n    tag_106:\n        /* \"#utility.yul\":12920:12924   */\n      0x00\n        /* \"#utility.yul\":12958:12960   */\n      0x20\n        /* \"#utility.yul\":12947:12956   */\n      dup3\n        /* \"#utility.yul\":12943:12961   */\n      add\n        /* \"#utility.yul\":12935:12961   */\n      swap1\n      pop\n        /* \"#utility.yul\":13007:13016   */\n      dup2\n        /* \"#utility.yul\":13001:13005   */\n      dup2\n        /* \"#utility.yul\":12997:13017   */\n      sub\n        /* \"#utility.yul\":12993:12994   */\n      0x00\n        /* \"#utility.yul\":12982:12991   */\n      dup4\n        /* \"#utility.yul\":12978:12995   */\n      add\n        /* \"#utility.yul\":12971:13018   */\n      mstore\n        /* \"#utility.yul\":13035:13166   */\n      tag_295\n        /* \"#utility.yul\":13161:13165   */\n      dup2\n        /* \"#utility.yul\":13035:13166   */\n      tag_153\n      jump\t// in\n    tag_295:\n        /* \"#utility.yul\":13027:13166   */\n      swap1\n      pop\n        /* \"#utility.yul\":12754:13173   */\n      swap2\n      swap1\n      pop\n      jump\t// out\n\n    auxdata: 0xa2646970667358221220fc607642e18ae556650055de8d886772d703d5ec82b380147e9186f2b572608464736f6c63430008080033\n}\n",
				"bytecode": {
					"linkReferences": {},
					"object": "60806040527350c7a09925375438d2cee94c5c59266c6ffaaf8c6000806101000a81548173ffffffffffffffffffffffffffffffffffffffff021916908373ffffffffffffffffffffffffffffffffffffffff16021790555073dbddb8575f6bda11f1dc548a1b546463cc567c3d600160006101000a81548173ffffffffffffffffffffffffffffffffffffffff021916908373ffffffffffffffffffffffffffffffffffffffff16021790555060026004553480156100be57600080fd5b5033600260006101000a81548173ffffffffffffffffffffffffffffffffffffffff021916908373ffffffffffffffffffffffffffffffffffffffff1602179055506110118061010f6000396000f3fe608060405234801561001057600080fd5b506004361061009e5760003560e01c8063a7beb5d011610066578063a7beb5d014610170578063bb4a376b146101a0578063e5a96fd8146101be578063e917ec96146101c8578063fc6f9468146101d25761009e565b806306cd309b146100a35780635d73ab9a146100c15780636fd3d9e2146100f15780637259e0f8146101215780638f84aa0914610152575b600080fd5b6100ab6101f0565b6040516100b891906108c2565b60405180910390f35b6100db60048036038101906100d6919061091d565b6101f6565b6040516100e891906108c2565b60405180910390f35b61010b6004803603810190610106919061091d565b610225565b60405161011891906109e3565b60405180910390f35b61013b6004803603810190610136919061091d565b6102d1565b604051610149929190610a46565b60405180910390f35b61015a610325565b6040516101679190610a6f565b60405180910390f35b61018a60048036038101906101859190610bbf565b61034b565b60405161019791906108c2565b60405180910390f35b6101a8610401565b6040516101b591906109e3565b60405180910390f35b6101c66104ca565b005b6101d06105b4565b005b6101da610883565b6040516101e79190610a6f565b60405180910390f35b60045481565b60006005828154811061020c5761020b610c08565b5b9060005260206000209060020201600101549050919050565b6003818154811061023557600080fd5b90600052602060002001600091509050805461025090610c66565b80601f016020809104026020016040519081016040528092919081815260200182805461027c90610c66565b80156102c95780601f1061029e576101008083540402835291602001916102c9565b820191906000526020600020905b8154815290600101906020018083116102ac57829003601f168201915b505050505081565b600581815481106102e157600080fd5b90600052602060002090600202016000915090508060000160009054906101000a900473ffffffffffffffffffffffffffffffffffffffff16908060010154905082565b600160009054906101000a900473ffffffffffffffffffffffffffffffffffffffff1681565b60008060009054906101000a900473ffffffffffffffffffffffffffffffffffffffff1673ffffffffffffffffffffffffffffffffffffffff1663278a7f33836040518263ffffffff1660e01b81526004016103a791906109e3565b60206040518083038186803b1580156103bf57600080fd5b505afa1580156103d3573d6000803e3d6000fd5b505050506040513d601f19601f820116820180604052508101906103f79190610cd1565b60ff169050919050565b606060008060009054906101000a900473ffffffffffffffffffffffffffffffffffffffff1673ffffffffffffffffffffffffffffffffffffffff166348441d5f6040518163ffffffff1660e01b815260040160006040518083038186803b15801561046c57600080fd5b505afa158015610480573d6000803e3d6000fd5b505050506040513d6000823e3d601f19601f820116820180604052508101906104a99190610e42565b9050806001600381106104bf576104be610c08565b5b602002015191505090565b600260009054906101000a900473ffffffffffffffffffffffffffffffffffffffff1673ffffffffffffffffffffffffffffffffffffffff163373ffffffffffffffffffffffffffffffffffffffff1614806105735750600160009054906101000a900473ffffffffffffffffffffffffffffffffffffffff1673ffffffffffffffffffffffffffffffffffffffff163373ffffffffffffffffffffffffffffffffffffffff16145b6105b2576040517f08c379a00000000000000000000000000000000000000000000000000000000081526004016105a990610ed7565b60405180910390fd5b565b6000805b600015158215151480156105d157506000600580549050115b80156105e1575060058054905081105b1561071c573373ffffffffffffffffffffffffffffffffffffffff166005828154811061061157610610610c08565b5b906000526020600020906002020160000160009054906101000a900473ffffffffffffffffffffffffffffffffffffffff1673ffffffffffffffffffffffffffffffffffffffff16141561070957600191506005818154811061067757610676610c08565b5b9060005260206000209060020201600101600081548092919061069990610f26565b9190505550600454600582815481106106b5576106b4610c08565b5b9060005260206000209060020201600101541115610708576040517f08c379a00000000000000000000000000000000000000000000000000000000081526004016106ff90610fbb565b60405180910390fd5b5b808061071490610f26565b9150506105b8565b60008054906101000a900473ffffffffffffffffffffffffffffffffffffffff1673ffffffffffffffffffffffffffffffffffffffff166340d097c3600160009054906101000a900473ffffffffffffffffffffffffffffffffffffffff166040518263ffffffff1660e01b81526004016107979190610a6f565b600060405180830381600087803b1580156107b157600080fd5b505af11580156107c5573d6000803e3d6000fd5b505050508161087f57600060405180604001604052803373ffffffffffffffffffffffffffffffffffffffff16815260200160018152509050600581908060018154018082558091505060019003906000526020600020906002020160009091909190915060008201518160000160006101000a81548173ffffffffffffffffffffffffffffffffffffffff021916908373ffffffffffffffffffffffffffffffffffffffff160217905550602082015181600101555050505b5050565b600260009054906101000a900473ffffffffffffffffffffffffffffffffffffffff1681565b6000819050919050565b6108bc816108a9565b82525050565b60006020820190506108d760008301846108b3565b92915050565b6000604051905090565b600080fd5b600080fd5b6108fa816108a9565b811461090557600080fd5b50565b600081359050610917816108f1565b92915050565b600060208284031215610933576109326108e7565b5b600061094184828501610908565b91505092915050565b600081519050919050565b600082825260208201905092915050565b60005b83811015610984578082015181840152602081019050610969565b83811115610993576000848401525b50505050565b6000601f19601f8301169050919050565b60006109b58261094a565b6109bf8185610955565b93506109cf818560208601610966565b6109d881610999565b840191505092915050565b600060208201905081810360008301526109fd81846109aa565b905092915050565b600073ffffffffffffffffffffffffffffffffffffffff82169050919050565b6000610a3082610a05565b9050919050565b610a4081610a25565b82525050565b6000604082019050610a5b6000830185610a37565b610a6860208301846108b3565b9392505050565b6000602082019050610a846000830184610a37565b92915050565b600080fd5b600080fd5b7f4e487b7100000000000000000000000000000000000000000000000000000000600052604160045260246000fd5b610acc82610999565b810181811067ffffffffffffffff82111715610aeb57610aea610a94565b5b80604052505050565b6000610afe6108dd565b9050610b0a8282610ac3565b919050565b600067ffffffffffffffff821115610b2a57610b29610a94565b5b610b3382610999565b9050602081019050919050565b82818337600083830152505050565b6000610b62610b5d84610b0f565b610af4565b905082815260208101848484011115610b7e57610b7d610a8f565b5b610b89848285610b40565b509392505050565b600082601f830112610ba657610ba5610a8a565b5b8135610bb6848260208601610b4f565b91505092915050565b600060208284031215610bd557610bd46108e7565b5b600082013567ffffffffffffffff811115610bf357610bf26108ec565b5b610bff84828501610b91565b91505092915050565b7f4e487b7100000000000000000000000000000000000000000000000000000000600052603260045260246000fd5b7f4e487b7100000000000000000000000000000000000000000000000000000000600052602260045260246000fd5b60006002820490506001821680610c7e57607f821691505b60208210811415610c9257610c91610c37565b5b50919050565b600060ff82169050919050565b610cae81610c98565b8114610cb957600080fd5b50565b600081519050610ccb81610ca5565b92915050565b600060208284031215610ce757610ce66108e7565b5b6000610cf584828501610cbc565b91505092915050565b600067ffffffffffffffff821115610d1957610d18610a94565b5b602082029050919050565b600080fd5b6000610d3c610d3784610b0f565b610af4565b905082815260208101848484011115610d5857610d57610a8f565b5b610d63848285610966565b509392505050565b600082601f830112610d8057610d7f610a8a565b5b8151610d90848260208601610d29565b91505092915050565b6000610dac610da784610cfe565b610af4565b90508060208402830185811115610dc657610dc5610d24565b5b835b81811015610e0d57805167ffffffffffffffff811115610deb57610dea610a8a565b5b808601610df88982610d6b565b85526020850194505050602081019050610dc8565b5050509392505050565b600082601f830112610e2c57610e2b610a8a565b5b6003610e39848285610d99565b91505092915050565b600060208284031215610e5857610e576108e7565b5b600082015167ffffffffffffffff811115610e7657610e756108ec565b5b610e8284828501610e17565b91505092915050565b7f4e6f7420417574686f72697a65642c2041646d696e204f6e6c79000000000000600082015250565b6000610ec1601a83610955565b9150610ecc82610e8b565b602082019050919050565b60006020820190508181036000830152610ef081610eb4565b9050919050565b7f4e487b7100000000000000000000000000000000000000000000000000000000600052601160045260246000fd5b6000610f31826108a9565b91507fffffffffffffffffffffffffffffffffffffffffffffffffffffffffffffffff821415610f6457610f63610ef7565b5b600182019050919050565b7f4f7574206f66204c696d69740000000000000000000000000000000000000000600082015250565b6000610fa5600c83610955565b9150610fb082610f6f565b602082019050919050565b60006020820190508181036000830152610fd481610f98565b905091905056fea2646970667358221220fc607642e18ae556650055de8d886772d703d5ec82b380147e9186f2b572608464736f6c63430008080033",
					"opcodes": "PUSH1 0x80 PUSH1 0x40 MSTORE PUSH20 0x50C7A09925375438D2CEE94C5C59266C6FFAAF8C PUSH1 0x0 DUP1 PUSH2 0x100 EXP DUP2 SLOAD DUP2 PUSH20 0xFFFFFFFFFFFFFFFFFFFFFFFFFFFFFFFFFFFFFFFF MUL NOT AND SWAP1 DUP4 PUSH20 0xFFFFFFFFFFFFFFFFFFFFFFFFFFFFFFFFFFFFFFFF AND MUL OR SWAP1 SSTORE POP PUSH20 0xDBDDB8575F6BDA11F1DC548A1B546463CC567C3D PUSH1 0x1 PUSH1 0x0 PUSH2 0x100 EXP DUP2 SLOAD DUP2 PUSH20 0xFFFFFFFFFFFFFFFFFFFFFFFFFFFFFFFFFFFFFFFF MUL NOT AND SWAP1 DUP4 PUSH20 0xFFFFFFFFFFFFFFFFFFFFFFFFFFFFFFFFFFFFFFFF AND MUL OR SWAP1 SSTORE POP PUSH1 0x2 PUSH1 0x4 SSTORE CALLVALUE DUP1 ISZERO PUSH2 0xBE JUMPI PUSH1 0x0 DUP1 REVERT JUMPDEST POP CALLER PUSH1 0x2 PUSH1 0x0 PUSH2 0x100 EXP DUP2 SLOAD DUP2 PUSH20 0xFFFFFFFFFFFFFFFFFFFFFFFFFFFFFFFFFFFFFFFF MUL NOT AND SWAP1 DUP4 PUSH20 0xFFFFFFFFFFFFFFFFFFFFFFFFFFFFFFFFFFFFFFFF AND MUL OR SWAP1 SSTORE POP PUSH2 0x1011 DUP1 PUSH2 0x10F PUSH1 0x0 CODECOPY PUSH1 0x0 RETURN INVALID PUSH1 0x80 PUSH1 0x40 MSTORE CALLVALUE DUP1 ISZERO PUSH2 0x10 JUMPI PUSH1 0x0 DUP1 REVERT JUMPDEST POP PUSH1 0x4 CALLDATASIZE LT PUSH2 0x9E JUMPI PUSH1 0x0 CALLDATALOAD PUSH1 0xE0 SHR DUP1 PUSH4 0xA7BEB5D0 GT PUSH2 0x66 JUMPI DUP1 PUSH4 0xA7BEB5D0 EQ PUSH2 0x170 JUMPI DUP1 PUSH4 0xBB4A376B EQ PUSH2 0x1A0 JUMPI DUP1 PUSH4 0xE5A96FD8 EQ PUSH2 0x1BE JUMPI DUP1 PUSH4 0xE917EC96 EQ PUSH2 0x1C8 JUMPI DUP1 PUSH4 0xFC6F9468 EQ PUSH2 0x1D2 JUMPI PUSH2 0x9E JUMP JUMPDEST DUP1 PUSH4 0x6CD309B EQ PUSH2 0xA3 JUMPI DUP1 PUSH4 0x5D73AB9A EQ PUSH2 0xC1 JUMPI DUP1 PUSH4 0x6FD3D9E2 EQ PUSH2 0xF1 JUMPI DUP1 PUSH4 0x7259E0F8 EQ PUSH2 0x121 JUMPI DUP1 PUSH4 0x8F84AA09 EQ PUSH2 0x152 JUMPI JUMPDEST PUSH1 0x0 DUP1 REVERT JUMPDEST PUSH2 0xAB PUSH2 0x1F0 JUMP JUMPDEST PUSH1 0x40 MLOAD PUSH2 0xB8 SWAP2 SWAP1 PUSH2 0x8C2 JUMP JUMPDEST PUSH1 0x40 MLOAD DUP1 SWAP2 SUB SWAP1 RETURN JUMPDEST PUSH2 0xDB PUSH1 0x4 DUP1 CALLDATASIZE SUB DUP2 ADD SWAP1 PUSH2 0xD6 SWAP2 SWAP1 PUSH2 0x91D JUMP JUMPDEST PUSH2 0x1F6 JUMP JUMPDEST PUSH1 0x40 MLOAD PUSH2 0xE8 SWAP2 SWAP1 PUSH2 0x8C2 JUMP JUMPDEST PUSH1 0x40 MLOAD DUP1 SWAP2 SUB SWAP1 RETURN JUMPDEST PUSH2 0x10B PUSH1 0x4 DUP1 CALLDATASIZE SUB DUP2 ADD SWAP1 PUSH2 0x106 SWAP2 SWAP1 PUSH2 0x91D JUMP JUMPDEST PUSH2 0x225 JUMP JUMPDEST PUSH1 0x40 MLOAD PUSH2 0x118 SWAP2 SWAP1 PUSH2 0x9E3 JUMP JUMPDEST PUSH1 0x40 MLOAD DUP1 SWAP2 SUB SWAP1 RETURN JUMPDEST PUSH2 0x13B PUSH1 0x4 DUP1 CALLDATASIZE SUB DUP2 ADD SWAP1 PUSH2 0x136 SWAP2 SWAP1 PUSH2 0x91D JUMP JUMPDEST PUSH2 0x2D1 JUMP JUMPDEST PUSH1 0x40 MLOAD PUSH2 0x149 SWAP3 SWAP2 SWAP1 PUSH2 0xA46 JUMP JUMPDEST PUSH1 0x40 MLOAD DUP1 SWAP2 SUB SWAP1 RETURN JUMPDEST PUSH2 0x15A PUSH2 0x325 JUMP JUMPDEST PUSH1 0x40 MLOAD PUSH2 0x167 SWAP2 SWAP1 PUSH2 0xA6F JUMP JUMPDEST PUSH1 0x40 MLOAD DUP1 SWAP2 SUB SWAP1 RETURN JUMPDEST PUSH2 0x18A PUSH1 0x4 DUP1 CALLDATASIZE SUB DUP2 ADD SWAP1 PUSH2 0x185 SWAP2 SWAP1 PUSH2 0xBBF JUMP JUMPDEST PUSH2 0x34B JUMP JUMPDEST PUSH1 0x40 MLOAD PUSH2 0x197 SWAP2 SWAP1 PUSH2 0x8C2 JUMP JUMPDEST PUSH1 0x40 MLOAD DUP1 SWAP2 SUB SWAP1 RETURN JUMPDEST PUSH2 0x1A8 PUSH2 0x401 JUMP JUMPDEST PUSH1 0x40 MLOAD PUSH2 0x1B5 SWAP2 SWAP1 PUSH2 0x9E3 JUMP JUMPDEST PUSH1 0x40 MLOAD DUP1 SWAP2 SUB SWAP1 RETURN JUMPDEST PUSH2 0x1C6 PUSH2 0x4CA JUMP JUMPDEST STOP JUMPDEST PUSH2 0x1D0 PUSH2 0x5B4 JUMP JUMPDEST STOP JUMPDEST PUSH2 0x1DA PUSH2 0x883 JUMP JUMPDEST PUSH1 0x40 MLOAD PUSH2 0x1E7 SWAP2 SWAP1 PUSH2 0xA6F JUMP JUMPDEST PUSH1 0x40 MLOAD DUP1 SWAP2 SUB SWAP1 RETURN JUMPDEST PUSH1 0x4 SLOAD DUP2 JUMP JUMPDEST PUSH1 0x0 PUSH1 0x5 DUP3 DUP2 SLOAD DUP2 LT PUSH2 0x20C JUMPI PUSH2 0x20B PUSH2 0xC08 JUMP JUMPDEST JUMPDEST SWAP1 PUSH1 0x0 MSTORE PUSH1 0x20 PUSH1 0x0 KECCAK256 SWAP1 PUSH1 0x2 MUL ADD PUSH1 0x1 ADD SLOAD SWAP1 POP SWAP2 SWAP1 POP JUMP JUMPDEST PUSH1 0x3 DUP2 DUP2 SLOAD DUP2 LT PUSH2 0x235 JUMPI PUSH1 0x0 DUP1 REVERT JUMPDEST SWAP1 PUSH1 0x0 MSTORE PUSH1 0x20 PUSH1 0x0 KECCAK256 ADD PUSH1 0x0 SWAP2 POP SWAP1 POP DUP1 SLOAD PUSH2 0x250 SWAP1 PUSH2 0xC66 JUMP JUMPDEST DUP1 PUSH1 0x1F ADD PUSH1 0x20 DUP1 SWAP2 DIV MUL PUSH1 0x20 ADD PUSH1 0x40 MLOAD SWAP1 DUP2 ADD PUSH1 0x40 MSTORE DUP1 SWAP3 SWAP2 SWAP1 DUP2 DUP2 MSTORE PUSH1 0x20 ADD DUP3 DUP1 SLOAD PUSH2 0x27C SWAP1 PUSH2 0xC66 JUMP JUMPDEST DUP1 ISZERO PUSH2 0x2C9 JUMPI DUP1 PUSH1 0x1F LT PUSH2 0x29E JUMPI PUSH2 0x100 DUP1 DUP4 SLOAD DIV MUL DUP4 MSTORE SWAP2 PUSH1 0x20 ADD SWAP2 PUSH2 0x2C9 JUMP JUMPDEST DUP3 ADD SWAP2 SWAP1 PUSH1 0x0 MSTORE PUSH1 0x20 PUSH1 0x0 KECCAK256 SWAP1 JUMPDEST DUP2 SLOAD DUP2 MSTORE SWAP1 PUSH1 0x1 ADD SWAP1 PUSH1 0x20 ADD DUP1 DUP4 GT PUSH2 0x2AC JUMPI DUP3 SWAP1 SUB PUSH1 0x1F AND DUP3 ADD SWAP2 JUMPDEST POP POP POP POP POP DUP2 JUMP JUMPDEST PUSH1 0x5 DUP2 DUP2 SLOAD DUP2 LT PUSH2 0x2E1 JUMPI PUSH1 0x0 DUP1 REVERT JUMPDEST SWAP1 PUSH1 0x0 MSTORE PUSH1 0x20 PUSH1 0x0 KECCAK256 SWAP1 PUSH1 0x2 MUL ADD PUSH1 0x0 SWAP2 POP SWAP1 POP DUP1 PUSH1 0x0 ADD PUSH1 0x0 SWAP1 SLOAD SWAP1 PUSH2 0x100 EXP SWAP1 DIV PUSH20 0xFFFFFFFFFFFFFFFFFFFFFFFFFFFFFFFFFFFFFFFF AND SWAP1 DUP1 PUSH1 0x1 ADD SLOAD SWAP1 POP DUP3 JUMP JUMPDEST PUSH1 0x1 PUSH1 0x0 SWAP1 SLOAD SWAP1 PUSH2 0x100 EXP SWAP1 DIV PUSH20 0xFFFFFFFFFFFFFFFFFFFFFFFFFFFFFFFFFFFFFFFF AND DUP2 JUMP JUMPDEST PUSH1 0x0 DUP1 PUSH1 0x0 SWAP1 SLOAD SWAP1 PUSH2 0x100 EXP SWAP1 DIV PUSH20 0xFFFFFFFFFFFFFFFFFFFFFFFFFFFFFFFFFFFFFFFF AND PUSH20 0xFFFFFFFFFFFFFFFFFFFFFFFFFFFFFFFFFFFFFFFF AND PUSH4 0x278A7F33 DUP4 PUSH1 0x40 MLOAD DUP3 PUSH4 0xFFFFFFFF AND PUSH1 0xE0 SHL DUP2 MSTORE PUSH1 0x4 ADD PUSH2 0x3A7 SWAP2 SWAP1 PUSH2 0x9E3 JUMP JUMPDEST PUSH1 0x20 PUSH1 0x40 MLOAD DUP1 DUP4 SUB DUP2 DUP7 DUP1 EXTCODESIZE ISZERO DUP1 ISZERO PUSH2 0x3BF JUMPI PUSH1 0x0 DUP1 REVERT JUMPDEST POP GAS STATICCALL ISZERO DUP1 ISZERO PUSH2 0x3D3 JUMPI RETURNDATASIZE PUSH1 0x0 DUP1 RETURNDATACOPY RETURNDATASIZE PUSH1 0x0 REVERT JUMPDEST POP POP POP POP PUSH1 0x40 MLOAD RETURNDATASIZE PUSH1 0x1F NOT PUSH1 0x1F DUP3 ADD AND DUP3 ADD DUP1 PUSH1 0x40 MSTORE POP DUP2 ADD SWAP1 PUSH2 0x3F7 SWAP2 SWAP1 PUSH2 0xCD1 JUMP JUMPDEST PUSH1 0xFF AND SWAP1 POP SWAP2 SWAP1 POP JUMP JUMPDEST PUSH1 0x60 PUSH1 0x0 DUP1 PUSH1 0x0 SWAP1 SLOAD SWAP1 PUSH2 0x100 EXP SWAP1 DIV PUSH20 0xFFFFFFFFFFFFFFFFFFFFFFFFFFFFFFFFFFFFFFFF AND PUSH20 0xFFFFFFFFFFFFFFFFFFFFFFFFFFFFFFFFFFFFFFFF AND PUSH4 0x48441D5F PUSH1 0x40 MLOAD DUP2 PUSH4 0xFFFFFFFF AND PUSH1 0xE0 SHL DUP2 MSTORE PUSH1 0x4 ADD PUSH1 0x0 PUSH1 0x40 MLOAD DUP1 DUP4 SUB DUP2 DUP7 DUP1 EXTCODESIZE ISZERO DUP1 ISZERO PUSH2 0x46C JUMPI PUSH1 0x0 DUP1 REVERT JUMPDEST POP GAS STATICCALL ISZERO DUP1 ISZERO PUSH2 0x480 JUMPI RETURNDATASIZE PUSH1 0x0 DUP1 RETURNDATACOPY RETURNDATASIZE PUSH1 0x0 REVERT JUMPDEST POP POP POP POP PUSH1 0x40 MLOAD RETURNDATASIZE PUSH1 0x0 DUP3 RETURNDATACOPY RETURNDATASIZE PUSH1 0x1F NOT PUSH1 0x1F DUP3 ADD AND DUP3 ADD DUP1 PUSH1 0x40 MSTORE POP DUP2 ADD SWAP1 PUSH2 0x4A9 SWAP2 SWAP1 PUSH2 0xE42 JUMP JUMPDEST SWAP1 POP DUP1 PUSH1 0x1 PUSH1 0x3 DUP2 LT PUSH2 0x4BF JUMPI PUSH2 0x4BE PUSH2 0xC08 JUMP JUMPDEST JUMPDEST PUSH1 0x20 MUL ADD MLOAD SWAP2 POP POP SWAP1 JUMP JUMPDEST PUSH1 0x2 PUSH1 0x0 SWAP1 SLOAD SWAP1 PUSH2 0x100 EXP SWAP1 DIV PUSH20 0xFFFFFFFFFFFFFFFFFFFFFFFFFFFFFFFFFFFFFFFF AND PUSH20 0xFFFFFFFFFFFFFFFFFFFFFFFFFFFFFFFFFFFFFFFF AND CALLER PUSH20 0xFFFFFFFFFFFFFFFFFFFFFFFFFFFFFFFFFFFFFFFF AND EQ DUP1 PUSH2 0x573 JUMPI POP PUSH1 0x1 PUSH1 0x0 SWAP1 SLOAD SWAP1 PUSH2 0x100 EXP SWAP1 DIV PUSH20 0xFFFFFFFFFFFFFFFFFFFFFFFFFFFFFFFFFFFFFFFF AND PUSH20 0xFFFFFFFFFFFFFFFFFFFFFFFFFFFFFFFFFFFFFFFF AND CALLER PUSH20 0xFFFFFFFFFFFFFFFFFFFFFFFFFFFFFFFFFFFFFFFF AND EQ JUMPDEST PUSH2 0x5B2 JUMPI PUSH1 0x40 MLOAD PUSH32 0x8C379A000000000000000000000000000000000000000000000000000000000 DUP2 MSTORE PUSH1 0x4 ADD PUSH2 0x5A9 SWAP1 PUSH2 0xED7 JUMP JUMPDEST PUSH1 0x40 MLOAD DUP1 SWAP2 SUB SWAP1 REVERT JUMPDEST JUMP JUMPDEST PUSH1 0x0 DUP1 JUMPDEST PUSH1 0x0 ISZERO ISZERO DUP3 ISZERO ISZERO EQ DUP1 ISZERO PUSH2 0x5D1 JUMPI POP PUSH1 0x0 PUSH1 0x5 DUP1 SLOAD SWAP1 POP GT JUMPDEST DUP1 ISZERO PUSH2 0x5E1 JUMPI POP PUSH1 0x5 DUP1 SLOAD SWAP1 POP DUP2 LT JUMPDEST ISZERO PUSH2 0x71C JUMPI CALLER PUSH20 0xFFFFFFFFFFFFFFFFFFFFFFFFFFFFFFFFFFFFFFFF AND PUSH1 0x5 DUP3 DUP2 SLOAD DUP2 LT PUSH2 0x611 JUMPI PUSH2 0x610 PUSH2 0xC08 JUMP JUMPDEST JUMPDEST SWAP1 PUSH1 0x0 MSTORE PUSH1 0x20 PUSH1 0x0 KECCAK256 SWAP1 PUSH1 0x2 MUL ADD PUSH1 0x0 ADD PUSH1 0x0 SWAP1 SLOAD SWAP1 PUSH2 0x100 EXP SWAP1 DIV PUSH20 0xFFFFFFFFFFFFFFFFFFFFFFFFFFFFFFFFFFFFFFFF AND PUSH20 0xFFFFFFFFFFFFFFFFFFFFFFFFFFFFFFFFFFFFFFFF AND EQ ISZERO PUSH2 0x709 JUMPI PUSH1 0x1 SWAP2 POP PUSH1 0x5 DUP2 DUP2 SLOAD DUP2 LT PUSH2 0x677 JUMPI PUSH2 0x676 PUSH2 0xC08 JUMP JUMPDEST JUMPDEST SWAP1 PUSH1 0x0 MSTORE PUSH1 0x20 PUSH1 0x0 KECCAK256 SWAP1 PUSH1 0x2 MUL ADD PUSH1 0x1 ADD PUSH1 0x0 DUP2 SLOAD DUP1 SWAP3 SWAP2 SWAP1 PUSH2 0x699 SWAP1 PUSH2 0xF26 JUMP JUMPDEST SWAP2 SWAP1 POP SSTORE POP PUSH1 0x4 SLOAD PUSH1 0x5 DUP3 DUP2 SLOAD DUP2 LT PUSH2 0x6B5 JUMPI PUSH2 0x6B4 PUSH2 0xC08 JUMP JUMPDEST JUMPDEST SWAP1 PUSH1 0x0 MSTORE PUSH1 0x20 PUSH1 0x0 KECCAK256 SWAP1 PUSH1 0x2 MUL ADD PUSH1 0x1 ADD SLOAD GT ISZERO PUSH2 0x708 JUMPI PUSH1 0x40 MLOAD PUSH32 0x8C379A000000000000000000000000000000000000000000000000000000000 DUP2 MSTORE PUSH1 0x4 ADD PUSH2 0x6FF SWAP1 PUSH2 0xFBB JUMP JUMPDEST PUSH1 0x40 MLOAD DUP1 SWAP2 SUB SWAP1 REVERT JUMPDEST JUMPDEST DUP1 DUP1 PUSH2 0x714 SWAP1 PUSH2 0xF26 JUMP JUMPDEST SWAP2 POP POP PUSH2 0x5B8 JUMP JUMPDEST PUSH1 0x0 DUP1 SLOAD SWAP1 PUSH2 0x100 EXP SWAP1 DIV PUSH20 0xFFFFFFFFFFFFFFFFFFFFFFFFFFFFFFFFFFFFFFFF AND PUSH20 0xFFFFFFFFFFFFFFFFFFFFFFFFFFFFFFFFFFFFFFFF AND PUSH4 0x40D097C3 PUSH1 0x1 PUSH1 0x0 SWAP1 SLOAD SWAP1 PUSH2 0x100 EXP SWAP1 DIV PUSH20 0xFFFFFFFFFFFFFFFFFFFFFFFFFFFFFFFFFFFFFFFF AND PUSH1 0x40 MLOAD DUP3 PUSH4 0xFFFFFFFF AND PUSH1 0xE0 SHL DUP2 MSTORE PUSH1 0x4 ADD PUSH2 0x797 SWAP2 SWAP1 PUSH2 0xA6F JUMP JUMPDEST PUSH1 0x0 PUSH1 0x40 MLOAD DUP1 DUP4 SUB DUP2 PUSH1 0x0 DUP8 DUP1 EXTCODESIZE ISZERO DUP1 ISZERO PUSH2 0x7B1 JUMPI PUSH1 0x0 DUP1 REVERT JUMPDEST POP GAS CALL ISZERO DUP1 ISZERO PUSH2 0x7C5 JUMPI RETURNDATASIZE PUSH1 0x0 DUP1 RETURNDATACOPY RETURNDATASIZE PUSH1 0x0 REVERT JUMPDEST POP POP POP POP DUP2 PUSH2 0x87F JUMPI PUSH1 0x0 PUSH1 0x40 MLOAD DUP1 PUSH1 0x40 ADD PUSH1 0x40 MSTORE DUP1 CALLER PUSH20 0xFFFFFFFFFFFFFFFFFFFFFFFFFFFFFFFFFFFFFFFF AND DUP2 MSTORE PUSH1 0x20 ADD PUSH1 0x1 DUP2 MSTORE POP SWAP1 POP PUSH1 0x5 DUP2 SWAP1 DUP1 PUSH1 0x1 DUP2 SLOAD ADD DUP1 DUP3 SSTORE DUP1 SWAP2 POP POP PUSH1 0x1 SWAP1 SUB SWAP1 PUSH1 0x0 MSTORE PUSH1 0x20 PUSH1 0x0 KECCAK256 SWAP1 PUSH1 0x2 MUL ADD PUSH1 0x0 SWAP1 SWAP2 SWAP1 SWAP2 SWAP1 SWAP2 POP PUSH1 0x0 DUP3 ADD MLOAD DUP2 PUSH1 0x0 ADD PUSH1 0x0 PUSH2 0x100 EXP DUP2 SLOAD DUP2 PUSH20 0xFFFFFFFFFFFFFFFFFFFFFFFFFFFFFFFFFFFFFFFF MUL NOT AND SWAP1 DUP4 PUSH20 0xFFFFFFFFFFFFFFFFFFFFFFFFFFFFFFFFFFFFFFFF AND MUL OR SWAP1 SSTORE POP PUSH1 0x20 DUP3 ADD MLOAD DUP2 PUSH1 0x1 ADD SSTORE POP POP POP JUMPDEST POP POP JUMP JUMPDEST PUSH1 0x2 PUSH1 0x0 SWAP1 SLOAD SWAP1 PUSH2 0x100 EXP SWAP1 DIV PUSH20 0xFFFFFFFFFFFFFFFFFFFFFFFFFFFFFFFFFFFFFFFF AND DUP2 JUMP JUMPDEST PUSH1 0x0 DUP2 SWAP1 POP SWAP2 SWAP1 POP JUMP JUMPDEST PUSH2 0x8BC DUP2 PUSH2 0x8A9 JUMP JUMPDEST DUP3 MSTORE POP POP JUMP JUMPDEST PUSH1 0x0 PUSH1 0x20 DUP3 ADD SWAP1 POP PUSH2 0x8D7 PUSH1 0x0 DUP4 ADD DUP5 PUSH2 0x8B3 JUMP JUMPDEST SWAP3 SWAP2 POP POP JUMP JUMPDEST PUSH1 0x0 PUSH1 0x40 MLOAD SWAP1 POP SWAP1 JUMP JUMPDEST PUSH1 0x0 DUP1 REVERT JUMPDEST PUSH1 0x0 DUP1 REVERT JUMPDEST PUSH2 0x8FA DUP2 PUSH2 0x8A9 JUMP JUMPDEST DUP2 EQ PUSH2 0x905 JUMPI PUSH1 0x0 DUP1 REVERT JUMPDEST POP JUMP JUMPDEST PUSH1 0x0 DUP2 CALLDATALOAD SWAP1 POP PUSH2 0x917 DUP2 PUSH2 0x8F1 JUMP JUMPDEST SWAP3 SWAP2 POP POP JUMP JUMPDEST PUSH1 0x0 PUSH1 0x20 DUP3 DUP5 SUB SLT ISZERO PUSH2 0x933 JUMPI PUSH2 0x932 PUSH2 0x8E7 JUMP JUMPDEST JUMPDEST PUSH1 0x0 PUSH2 0x941 DUP5 DUP3 DUP6 ADD PUSH2 0x908 JUMP JUMPDEST SWAP2 POP POP SWAP3 SWAP2 POP POP JUMP JUMPDEST PUSH1 0x0 DUP2 MLOAD SWAP1 POP SWAP2 SWAP1 POP JUMP JUMPDEST PUSH1 0x0 DUP3 DUP3 MSTORE PUSH1 0x20 DUP3 ADD SWAP1 POP SWAP3 SWAP2 POP POP JUMP JUMPDEST PUSH1 0x0 JUMPDEST DUP4 DUP2 LT ISZERO PUSH2 0x984 JUMPI DUP1 DUP3 ADD MLOAD DUP2 DUP5 ADD MSTORE PUSH1 0x20 DUP2 ADD SWAP1 POP PUSH2 0x969 JUMP JUMPDEST DUP4 DUP2 GT ISZERO PUSH2 0x993 JUMPI PUSH1 0x0 DUP5 DUP5 ADD MSTORE JUMPDEST POP POP POP POP JUMP JUMPDEST PUSH1 0x0 PUSH1 0x1F NOT PUSH1 0x1F DUP4 ADD AND SWAP1 POP SWAP2 SWAP1 POP JUMP JUMPDEST PUSH1 0x0 PUSH2 0x9B5 DUP3 PUSH2 0x94A JUMP JUMPDEST PUSH2 0x9BF DUP2 DUP6 PUSH2 0x955 JUMP JUMPDEST SWAP4 POP PUSH2 0x9CF DUP2 DUP6 PUSH1 0x20 DUP7 ADD PUSH2 0x966 JUMP JUMPDEST PUSH2 0x9D8 DUP2 PUSH2 0x999 JUMP JUMPDEST DUP5 ADD SWAP2 POP POP SWAP3 SWAP2 POP POP JUMP JUMPDEST PUSH1 0x0 PUSH1 0x20 DUP3 ADD SWAP1 POP DUP2 DUP2 SUB PUSH1 0x0 DUP4 ADD MSTORE PUSH2 0x9FD DUP2 DUP5 PUSH2 0x9AA JUMP JUMPDEST SWAP1 POP SWAP3 SWAP2 POP POP JUMP JUMPDEST PUSH1 0x0 PUSH20 0xFFFFFFFFFFFFFFFFFFFFFFFFFFFFFFFFFFFFFFFF DUP3 AND SWAP1 POP SWAP2 SWAP1 POP JUMP JUMPDEST PUSH1 0x0 PUSH2 0xA30 DUP3 PUSH2 0xA05 JUMP JUMPDEST SWAP1 POP SWAP2 SWAP1 POP JUMP JUMPDEST PUSH2 0xA40 DUP2 PUSH2 0xA25 JUMP JUMPDEST DUP3 MSTORE POP POP JUMP JUMPDEST PUSH1 0x0 PUSH1 0x40 DUP3 ADD SWAP1 POP PUSH2 0xA5B PUSH1 0x0 DUP4 ADD DUP6 PUSH2 0xA37 JUMP JUMPDEST PUSH2 0xA68 PUSH1 0x20 DUP4 ADD DUP5 PUSH2 0x8B3 JUMP JUMPDEST SWAP4 SWAP3 POP POP POP JUMP JUMPDEST PUSH1 0x0 PUSH1 0x20 DUP3 ADD SWAP1 POP PUSH2 0xA84 PUSH1 0x0 DUP4 ADD DUP5 PUSH2 0xA37 JUMP JUMPDEST SWAP3 SWAP2 POP POP JUMP JUMPDEST PUSH1 0x0 DUP1 REVERT JUMPDEST PUSH1 0x0 DUP1 REVERT JUMPDEST PUSH32 0x4E487B7100000000000000000000000000000000000000000000000000000000 PUSH1 0x0 MSTORE PUSH1 0x41 PUSH1 0x4 MSTORE PUSH1 0x24 PUSH1 0x0 REVERT JUMPDEST PUSH2 0xACC DUP3 PUSH2 0x999 JUMP JUMPDEST DUP2 ADD DUP2 DUP2 LT PUSH8 0xFFFFFFFFFFFFFFFF DUP3 GT OR ISZERO PUSH2 0xAEB JUMPI PUSH2 0xAEA PUSH2 0xA94 JUMP JUMPDEST JUMPDEST DUP1 PUSH1 0x40 MSTORE POP POP POP JUMP JUMPDEST PUSH1 0x0 PUSH2 0xAFE PUSH2 0x8DD JUMP JUMPDEST SWAP1 POP PUSH2 0xB0A DUP3 DUP3 PUSH2 0xAC3 JUMP JUMPDEST SWAP2 SWAP1 POP JUMP JUMPDEST PUSH1 0x0 PUSH8 0xFFFFFFFFFFFFFFFF DUP3 GT ISZERO PUSH2 0xB2A JUMPI PUSH2 0xB29 PUSH2 0xA94 JUMP JUMPDEST JUMPDEST PUSH2 0xB33 DUP3 PUSH2 0x999 JUMP JUMPDEST SWAP1 POP PUSH1 0x20 DUP2 ADD SWAP1 POP SWAP2 SWAP1 POP JUMP JUMPDEST DUP3 DUP2 DUP4 CALLDATACOPY PUSH1 0x0 DUP4 DUP4 ADD MSTORE POP POP POP JUMP JUMPDEST PUSH1 0x0 PUSH2 0xB62 PUSH2 0xB5D DUP5 PUSH2 0xB0F JUMP JUMPDEST PUSH2 0xAF4 JUMP JUMPDEST SWAP1 POP DUP3 DUP2 MSTORE PUSH1 0x20 DUP2 ADD DUP5 DUP5 DUP5 ADD GT ISZERO PUSH2 0xB7E JUMPI PUSH2 0xB7D PUSH2 0xA8F JUMP JUMPDEST JUMPDEST PUSH2 0xB89 DUP5 DUP3 DUP6 PUSH2 0xB40 JUMP JUMPDEST POP SWAP4 SWAP3 POP POP POP JUMP JUMPDEST PUSH1 0x0 DUP3 PUSH1 0x1F DUP4 ADD SLT PUSH2 0xBA6 JUMPI PUSH2 0xBA5 PUSH2 0xA8A JUMP JUMPDEST JUMPDEST DUP2 CALLDATALOAD PUSH2 0xBB6 DUP5 DUP3 PUSH1 0x20 DUP7 ADD PUSH2 0xB4F JUMP JUMPDEST SWAP2 POP POP SWAP3 SWAP2 POP POP JUMP JUMPDEST PUSH1 0x0 PUSH1 0x20 DUP3 DUP5 SUB SLT ISZERO PUSH2 0xBD5 JUMPI PUSH2 0xBD4 PUSH2 0x8E7 JUMP JUMPDEST JUMPDEST PUSH1 0x0 DUP3 ADD CALLDATALOAD PUSH8 0xFFFFFFFFFFFFFFFF DUP2 GT ISZERO PUSH2 0xBF3 JUMPI PUSH2 0xBF2 PUSH2 0x8EC JUMP JUMPDEST JUMPDEST PUSH2 0xBFF DUP5 DUP3 DUP6 ADD PUSH2 0xB91 JUMP JUMPDEST SWAP2 POP POP SWAP3 SWAP2 POP POP JUMP JUMPDEST PUSH32 0x4E487B7100000000000000000000000000000000000000000000000000000000 PUSH1 0x0 MSTORE PUSH1 0x32 PUSH1 0x4 MSTORE PUSH1 0x24 PUSH1 0x0 REVERT JUMPDEST PUSH32 0x4E487B7100000000000000000000000000000000000000000000000000000000 PUSH1 0x0 MSTORE PUSH1 0x22 PUSH1 0x4 MSTORE PUSH1 0x24 PUSH1 0x0 REVERT JUMPDEST PUSH1 0x0 PUSH1 0x2 DUP3 DIV SWAP1 POP PUSH1 0x1 DUP3 AND DUP1 PUSH2 0xC7E JUMPI PUSH1 0x7F DUP3 AND SWAP2 POP JUMPDEST PUSH1 0x20 DUP3 LT DUP2 EQ ISZERO PUSH2 0xC92 JUMPI PUSH2 0xC91 PUSH2 0xC37 JUMP JUMPDEST JUMPDEST POP SWAP2 SWAP1 POP JUMP JUMPDEST PUSH1 0x0 PUSH1 0xFF DUP3 AND SWAP1 POP SWAP2 SWAP1 POP JUMP JUMPDEST PUSH2 0xCAE DUP2 PUSH2 0xC98 JUMP JUMPDEST DUP2 EQ PUSH2 0xCB9 JUMPI PUSH1 0x0 DUP1 REVERT JUMPDEST POP JUMP JUMPDEST PUSH1 0x0 DUP2 MLOAD SWAP1 POP PUSH2 0xCCB DUP2 PUSH2 0xCA5 JUMP JUMPDEST SWAP3 SWAP2 POP POP JUMP JUMPDEST PUSH1 0x0 PUSH1 0x20 DUP3 DUP5 SUB SLT ISZERO PUSH2 0xCE7 JUMPI PUSH2 0xCE6 PUSH2 0x8E7 JUMP JUMPDEST JUMPDEST PUSH1 0x0 PUSH2 0xCF5 DUP5 DUP3 DUP6 ADD PUSH2 0xCBC JUMP JUMPDEST SWAP2 POP POP SWAP3 SWAP2 POP POP JUMP JUMPDEST PUSH1 0x0 PUSH8 0xFFFFFFFFFFFFFFFF DUP3 GT ISZERO PUSH2 0xD19 JUMPI PUSH2 0xD18 PUSH2 0xA94 JUMP JUMPDEST JUMPDEST PUSH1 0x20 DUP3 MUL SWAP1 POP SWAP2 SWAP1 POP JUMP JUMPDEST PUSH1 0x0 DUP1 REVERT JUMPDEST PUSH1 0x0 PUSH2 0xD3C PUSH2 0xD37 DUP5 PUSH2 0xB0F JUMP JUMPDEST PUSH2 0xAF4 JUMP JUMPDEST SWAP1 POP DUP3 DUP2 MSTORE PUSH1 0x20 DUP2 ADD DUP5 DUP5 DUP5 ADD GT ISZERO PUSH2 0xD58 JUMPI PUSH2 0xD57 PUSH2 0xA8F JUMP JUMPDEST JUMPDEST PUSH2 0xD63 DUP5 DUP3 DUP6 PUSH2 0x966 JUMP JUMPDEST POP SWAP4 SWAP3 POP POP POP JUMP JUMPDEST PUSH1 0x0 DUP3 PUSH1 0x1F DUP4 ADD SLT PUSH2 0xD80 JUMPI PUSH2 0xD7F PUSH2 0xA8A JUMP JUMPDEST JUMPDEST DUP2 MLOAD PUSH2 0xD90 DUP5 DUP3 PUSH1 0x20 DUP7 ADD PUSH2 0xD29 JUMP JUMPDEST SWAP2 POP POP SWAP3 SWAP2 POP POP JUMP JUMPDEST PUSH1 0x0 PUSH2 0xDAC PUSH2 0xDA7 DUP5 PUSH2 0xCFE JUMP JUMPDEST PUSH2 0xAF4 JUMP JUMPDEST SWAP1 POP DUP1 PUSH1 0x20 DUP5 MUL DUP4 ADD DUP6 DUP2 GT ISZERO PUSH2 0xDC6 JUMPI PUSH2 0xDC5 PUSH2 0xD24 JUMP JUMPDEST JUMPDEST DUP4 JUMPDEST DUP2 DUP2 LT ISZERO PUSH2 0xE0D JUMPI DUP1 MLOAD PUSH8 0xFFFFFFFFFFFFFFFF DUP2 GT ISZERO PUSH2 0xDEB JUMPI PUSH2 0xDEA PUSH2 0xA8A JUMP JUMPDEST JUMPDEST DUP1 DUP7 ADD PUSH2 0xDF8 DUP10 DUP3 PUSH2 0xD6B JUMP JUMPDEST DUP6 MSTORE PUSH1 0x20 DUP6 ADD SWAP5 POP POP POP PUSH1 0x20 DUP2 ADD SWAP1 POP PUSH2 0xDC8 JUMP JUMPDEST POP POP POP SWAP4 SWAP3 POP POP POP JUMP JUMPDEST PUSH1 0x0 DUP3 PUSH1 0x1F DUP4 ADD SLT PUSH2 0xE2C JUMPI PUSH2 0xE2B PUSH2 0xA8A JUMP JUMPDEST JUMPDEST PUSH1 0x3 PUSH2 0xE39 DUP5 DUP3 DUP6 PUSH2 0xD99 JUMP JUMPDEST SWAP2 POP POP SWAP3 SWAP2 POP POP JUMP JUMPDEST PUSH1 0x0 PUSH1 0x20 DUP3 DUP5 SUB SLT ISZERO PUSH2 0xE58 JUMPI PUSH2 0xE57 PUSH2 0x8E7 JUMP JUMPDEST JUMPDEST PUSH1 0x0 DUP3 ADD MLOAD PUSH8 0xFFFFFFFFFFFFFFFF DUP2 GT ISZERO PUSH2 0xE76 JUMPI PUSH2 0xE75 PUSH2 0x8EC JUMP JUMPDEST JUMPDEST PUSH2 0xE82 DUP5 DUP3 DUP6 ADD PUSH2 0xE17 JUMP JUMPDEST SWAP2 POP POP SWAP3 SWAP2 POP POP JUMP JUMPDEST PUSH32 0x4E6F7420417574686F72697A65642C2041646D696E204F6E6C79000000000000 PUSH1 0x0 DUP3 ADD MSTORE POP JUMP JUMPDEST PUSH1 0x0 PUSH2 0xEC1 PUSH1 0x1A DUP4 PUSH2 0x955 JUMP JUMPDEST SWAP2 POP PUSH2 0xECC DUP3 PUSH2 0xE8B JUMP JUMPDEST PUSH1 0x20 DUP3 ADD SWAP1 POP SWAP2 SWAP1 POP JUMP JUMPDEST PUSH1 0x0 PUSH1 0x20 DUP3 ADD SWAP1 POP DUP2 DUP2 SUB PUSH1 0x0 DUP4 ADD MSTORE PUSH2 0xEF0 DUP2 PUSH2 0xEB4 JUMP JUMPDEST SWAP1 POP SWAP2 SWAP1 POP JUMP JUMPDEST PUSH32 0x4E487B7100000000000000000000000000000000000000000000000000000000 PUSH1 0x0 MSTORE PUSH1 0x11 PUSH1 0x4 MSTORE PUSH1 0x24 PUSH1 0x0 REVERT JUMPDEST PUSH1 0x0 PUSH2 0xF31 DUP3 PUSH2 0x8A9 JUMP JUMPDEST SWAP2 POP PUSH32 0xFFFFFFFFFFFFFFFFFFFFFFFFFFFFFFFFFFFFFFFFFFFFFFFFFFFFFFFFFFFFFFFF DUP3 EQ ISZERO PUSH2 0xF64 JUMPI PUSH2 0xF63 PUSH2 0xEF7 JUMP JUMPDEST JUMPDEST PUSH1 0x1 DUP3 ADD SWAP1 POP SWAP2 SWAP1 POP JUMP JUMPDEST PUSH32 0x4F7574206F66204C696D69740000000000000000000000000000000000000000 PUSH1 0x0 DUP3 ADD MSTORE POP JUMP JUMPDEST PUSH1 0x0 PUSH2 0xFA5 PUSH1 0xC DUP4 PUSH2 0x955 JUMP JUMPDEST SWAP2 POP PUSH2 0xFB0 DUP3 PUSH2 0xF6F JUMP JUMPDEST PUSH1 0x20 DUP3 ADD SWAP1 POP SWAP2 SWAP1 POP JUMP JUMPDEST PUSH1 0x0 PUSH1 0x20 DUP3 ADD SWAP1 POP DUP2 DUP2 SUB PUSH1 0x0 DUP4 ADD MSTORE PUSH2 0xFD4 DUP2 PUSH2 0xF98 JUMP JUMPDEST SWAP1 POP SWAP2 SWAP1 POP JUMP INVALID LOG2 PUSH5 0x6970667358 0x22 SLT KECCAK256 0xFC PUSH1 0x76 TIMESTAMP 0xE1 DUP11 0xE5 JUMP PUSH6 0x55DE8D8867 PUSH19 0xD703D5EC82B380147E9186F2B572608464736F PUSH13 0x63430008080033000000000000 "
				},
				"gasEstimates": {
					"creation": {
						"codeDepositCost": "822600",
						"executionCost": "95763",
						"totalCost": "918363"
					},
					"external": {
						"adminAddress()": "2602",
						"changeGatchaLimit()": "4822",
						"createGatcha()": "infinite",
						"getUsers(uint256)": "infinite",
						"limitGatcha()": "2430",
						"ownerAddress()": "2603",
						"rarityList(uint256)": "infinite",
						"rarityListFunc()": "infinite",
						"rarityRateFunc(string)": "infinite",
						"registeredUsers(uint256)": "infinite"
					}
				},
				"methodIdentifiers": {
					"adminAddress()": "fc6f9468",
					"changeGatchaLimit()": "e5a96fd8",
					"createGatcha()": "e917ec96",
					"getUsers(uint256)": "5d73ab9a",
					"limitGatcha()": "06cd309b",
					"ownerAddress()": "8f84aa09",
					"rarityList(uint256)": "6fd3d9e2",
					"rarityListFunc()": "bb4a376b",
					"rarityRateFunc(string)": "a7beb5d0",
					"registeredUsers(uint256)": "7259e0f8"
				}
			},
			"storageLayout": {
				"storage": [
					{
						"astId": 8,
						"contract": "contracts/TestInterview.sol:TestInterview",
						"label": "objINFT",
						"offset": 0,
						"slot": "0",
						"type": "t_contract(INFT)223"
					},
					{
						"astId": 11,
						"contract": "contracts/TestInterview.sol:TestInterview",
						"label": "ownerAddress",
						"offset": 0,
						"slot": "1",
						"type": "t_address"
					},
					{
						"astId": 13,
						"contract": "contracts/TestInterview.sol:TestInterview",
						"label": "adminAddress",
						"offset": 0,
						"slot": "2",
						"type": "t_address"
					},
					{
						"astId": 16,
						"contract": "contracts/TestInterview.sol:TestInterview",
						"label": "rarityList",
						"offset": 0,
						"slot": "3",
						"type": "t_array(t_string_storage)dyn_storage"
					},
					{
						"astId": 19,
						"contract": "contracts/TestInterview.sol:TestInterview",
						"label": "limitGatcha",
						"offset": 0,
						"slot": "4",
						"type": "t_uint256"
					},
					{
						"astId": 28,
						"contract": "contracts/TestInterview.sol:TestInterview",
						"label": "registeredUsers",
						"offset": 0,
						"slot": "5",
						"type": "t_array(t_struct(RegisteredUser)24_storage)dyn_storage"
					}
				],
				"types": {
					"t_address": {
						"encoding": "inplace",
						"label": "address",
						"numberOfBytes": "20"
					},
					"t_array(t_string_storage)dyn_storage": {
						"base": "t_string_storage",
						"encoding": "dynamic_array",
						"label": "string[]",
						"numberOfBytes": "32"
					},
					"t_array(t_struct(RegisteredUser)24_storage)dyn_storage": {
						"base": "t_struct(RegisteredUser)24_storage",
						"encoding": "dynamic_array",
						"label": "struct TestInterview.RegisteredUser[]",
						"numberOfBytes": "32"
					},
					"t_contract(INFT)223": {
						"encoding": "inplace",
						"label": "contract INFT",
						"numberOfBytes": "20"
					},
					"t_string_storage": {
						"encoding": "bytes",
						"label": "string",
						"numberOfBytes": "32"
					},
					"t_struct(RegisteredUser)24_storage": {
						"encoding": "inplace",
						"label": "struct TestInterview.RegisteredUser",
						"members": [
							{
								"astId": 21,
								"contract": "contracts/TestInterview.sol:TestInterview",
								"label": "userAddress",
								"offset": 0,
								"slot": "0",
								"type": "t_address"
							},
							{
								"astId": 23,
								"contract": "contracts/TestInterview.sol:TestInterview",
								"label": "counterVisited",
								"offset": 0,
								"slot": "1",
								"type": "t_uint256"
							}
						],
						"numberOfBytes": "64"
					},
					"t_uint256": {
						"encoding": "inplace",
						"label": "uint256",
						"numberOfBytes": "32"
					}
				}
			},
			"userdoc": {
				"kind": "user",
				"methods": {},
				"version": 1
			}
		}
	}
}