{
	"contracts/TestInterview.sol": {
		"TestInterview": {
			"abi": [
				{
					"inputs": [],
					"name": "createGatcha",
					"outputs": [],
					"stateMutability": "nonpayable",
					"type": "function"
				},
				{
					"inputs": [],
					"name": "getUsers",
					"outputs": [
						{
							"internalType": "address[]",
							"name": "",
							"type": "address[]"
						}
					],
					"stateMutability": "view",
					"type": "function"
				},
				{
					"inputs": [],
					"name": "ownerAddress",
					"outputs": [
						{
							"internalType": "address",
							"name": "",
							"type": "address"
						}
					],
					"stateMutability": "view",
					"type": "function"
				},
				{
					"inputs": [
						{
							"internalType": "uint256",
							"name": "",
							"type": "uint256"
						}
					],
					"name": "rarityList",
					"outputs": [
						{
							"internalType": "string",
							"name": "",
							"type": "string"
						}
					],
					"stateMutability": "view",
					"type": "function"
				},
				{
					"inputs": [],
					"name": "rarityListFunc",
					"outputs": [
						{
							"internalType": "string",
							"name": "",
							"type": "string"
						}
					],
					"stateMutability": "view",
					"type": "function"
				},
				{
					"inputs": [
						{
							"internalType": "string",
							"name": "_nameRarity",
							"type": "string"
						}
					],
					"name": "rarityRateFunc",
					"outputs": [
						{
							"internalType": "uint256",
							"name": "",
							"type": "uint256"
						}
					],
					"stateMutability": "view",
					"type": "function"
				},
				{
					"inputs": [
						{
							"internalType": "uint256",
							"name": "",
							"type": "uint256"
						}
					],
					"name": "users",
					"outputs": [
						{
							"internalType": "address",
							"name": "",
							"type": "address"
						}
					],
					"stateMutability": "view",
					"type": "function"
				}
			],
			"devdoc": {
				"kind": "dev",
				"methods": {},
				"version": 1
			},
			"evm": {
				"assembly": "    /* \"contracts/TestInterview.sol\":208:958  contract TestInterview {... */\n  mstore(0x40, 0x80)\n    /* \"contracts/TestInterview.sol\":291:333  0x50C7a09925375438D2cEe94C5c59266c6fFAAf8C */\n  0x50c7a09925375438d2cee94c5c59266c6ffaaf8c\n    /* \"contracts/TestInterview.sol\":271:334  INFT objINFT = INFT(0x50C7a09925375438D2cEe94C5c59266c6fFAAf8C) */\n  0x01\n  exp(0x0100, 0x00)\n  dup2\n  sload\n  dup2\n  0xffffffffffffffffffffffffffffffffffffffff\n  mul\n  not\n  and\n  swap1\n  dup4\n  0xffffffffffffffffffffffffffffffffffffffff\n  and\n  mul\n  or\n  swap1\n  sstore\n  pop\n    /* \"contracts/TestInterview.sol\":371:413  0xdBDdb8575F6bda11F1DC548A1B546463CC567C3d */\n  0xdbddb8575f6bda11f1dc548a1b546463cc567c3d\n    /* \"contracts/TestInterview.sol\":341:413  address public ownerAddress = 0xdBDdb8575F6bda11F1DC548A1B546463CC567C3d */\n  0x02\n  exp(0x0100, 0x00)\n  dup2\n  sload\n  dup2\n  0xffffffffffffffffffffffffffffffffffffffff\n  mul\n  not\n  and\n  swap1\n  dup4\n  0xffffffffffffffffffffffffffffffffffffffff\n  and\n  mul\n  or\n  swap1\n  sstore\n  pop\n    /* \"contracts/TestInterview.sol\":208:958  contract TestInterview {... */\n  callvalue\n  dup1\n  iszero\n  tag_1\n  jumpi\n  0x00\n  dup1\n  revert\ntag_1:\n  pop\n  dataSize(sub_0)\n  dup1\n  dataOffset(sub_0)\n  0x00\n  codecopy\n  0x00\n  return\nstop\n\nsub_0: assembly {\n        /* \"contracts/TestInterview.sol\":208:958  contract TestInterview {... */\n      mstore(0x40, 0x80)\n      callvalue\n      dup1\n      iszero\n      tag_1\n      jumpi\n      0x00\n      dup1\n      revert\n    tag_1:\n      pop\n      jumpi(tag_2, lt(calldatasize, 0x04))\n      shr(0xe0, calldataload(0x00))\n      dup1\n      0x8f84aa09\n      gt\n      tag_10\n      jumpi\n      dup1\n      0x8f84aa09\n      eq\n      tag_6\n      jumpi\n      dup1\n      0xa7beb5d0\n      eq\n      tag_7\n      jumpi\n      dup1\n      0xbb4a376b\n      eq\n      tag_8\n      jumpi\n      dup1\n      0xe917ec96\n      eq\n      tag_9\n      jumpi\n      jump(tag_2)\n    tag_10:\n      dup1\n      0xce8e3e\n      eq\n      tag_3\n      jumpi\n      dup1\n      0x365b98b2\n      eq\n      tag_4\n      jumpi\n      dup1\n      0x6fd3d9e2\n      eq\n      tag_5\n      jumpi\n    tag_2:\n      0x00\n      dup1\n      revert\n        /* \"contracts/TestInterview.sol\":866:955  function getUsers() public view returns(address[] memory) {... */\n    tag_3:\n      tag_11\n      tag_12\n      jump\t// in\n    tag_11:\n      mload(0x40)\n      tag_13\n      swap2\n      swap1\n      tag_14\n      jump\t// in\n    tag_13:\n      mload(0x40)\n      dup1\n      swap2\n      sub\n      swap1\n      return\n        /* \"contracts/TestInterview.sol\":420:442  address[] public users */\n    tag_4:\n      tag_15\n      0x04\n      dup1\n      calldatasize\n      sub\n      dup2\n      add\n      swap1\n      tag_16\n      swap2\n      swap1\n      tag_17\n      jump\t// in\n    tag_16:\n      tag_18\n      jump\t// in\n    tag_15:\n      mload(0x40)\n      tag_19\n      swap2\n      swap1\n      tag_20\n      jump\t// in\n    tag_19:\n      mload(0x40)\n      dup1\n      swap2\n      sub\n      swap1\n      return\n        /* \"contracts/TestInterview.sol\":238:264  string[] public rarityList */\n    tag_5:\n      tag_21\n      0x04\n      dup1\n      calldatasize\n      sub\n      dup2\n      add\n      swap1\n      tag_22\n      swap2\n      swap1\n      tag_17\n      jump\t// in\n    tag_22:\n      tag_23\n      jump\t// in\n    tag_21:\n      mload(0x40)\n      tag_24\n      swap2\n      swap1\n      tag_25\n      jump\t// in\n    tag_24:\n      mload(0x40)\n      dup1\n      swap2\n      sub\n      swap1\n      return\n        /* \"contracts/TestInterview.sol\":341:413  address public ownerAddress = 0xdBDdb8575F6bda11F1DC548A1B546463CC567C3d */\n    tag_6:\n      tag_26\n      tag_27\n      jump\t// in\n    tag_26:\n      mload(0x40)\n      tag_28\n      swap2\n      swap1\n      tag_20\n      jump\t// in\n    tag_28:\n      mload(0x40)\n      dup1\n      swap2\n      sub\n      swap1\n      return\n        /* \"contracts/TestInterview.sol\":636:777  function rarityRateFunc (string memory _nameRarity) public view returns(uint256) {... */\n    tag_7:\n      tag_29\n      0x04\n      dup1\n      calldatasize\n      sub\n      dup2\n      add\n      swap1\n      tag_30\n      swap2\n      swap1\n      tag_31\n      jump\t// in\n    tag_30:\n      tag_32\n      jump\t// in\n    tag_29:\n      mload(0x40)\n      tag_33\n      swap2\n      swap1\n      tag_34\n      jump\t// in\n    tag_33:\n      mload(0x40)\n      dup1\n      swap2\n      sub\n      swap1\n      return\n        /* \"contracts/TestInterview.sol\":451:628  function rarityListFunc () public view returns(string memory) {... */\n    tag_8:\n      tag_35\n      tag_36\n      jump\t// in\n    tag_35:\n      mload(0x40)\n      tag_37\n      swap2\n      swap1\n      tag_25\n      jump\t// in\n    tag_37:\n      mload(0x40)\n      dup1\n      swap2\n      sub\n      swap1\n      return\n        /* \"contracts/TestInterview.sol\":785:858  function createGatcha () public {... */\n    tag_9:\n      tag_38\n      tag_39\n      jump\t// in\n    tag_38:\n      stop\n        /* \"contracts/TestInterview.sol\":866:955  function getUsers() public view returns(address[] memory) {... */\n    tag_12:\n        /* \"contracts/TestInterview.sol\":906:922  address[] memory */\n      0x60\n        /* \"contracts/TestInterview.sol\":942:947  users */\n      0x03\n        /* \"contracts/TestInterview.sol\":935:947  return users */\n      dup1\n      sload\n      dup1\n      0x20\n      mul\n      0x20\n      add\n      mload(0x40)\n      swap1\n      dup2\n      add\n      0x40\n      mstore\n      dup1\n      swap3\n      swap2\n      swap1\n      dup2\n      dup2\n      mstore\n      0x20\n      add\n      dup3\n      dup1\n      sload\n      dup1\n      iszero\n      tag_41\n      jumpi\n      0x20\n      mul\n      dup3\n      add\n      swap2\n      swap1\n      0x00\n      mstore\n      keccak256(0x00, 0x20)\n      swap1\n    tag_42:\n      dup2\n      0x00\n      swap1\n      sload\n      swap1\n      0x0100\n      exp\n      swap1\n      div\n      0xffffffffffffffffffffffffffffffffffffffff\n      and\n      0xffffffffffffffffffffffffffffffffffffffff\n      and\n      dup2\n      mstore\n      0x20\n      add\n      swap1\n      0x01\n      add\n      swap1\n      dup1\n      dup4\n      gt\n      tag_42\n      jumpi\n    tag_41:\n      pop\n      pop\n      pop\n      pop\n      pop\n      swap1\n      pop\n        /* \"contracts/TestInterview.sol\":866:955  function getUsers() public view returns(address[] memory) {... */\n      swap1\n      jump\t// out\n        /* \"contracts/TestInterview.sol\":420:442  address[] public users */\n    tag_18:\n      0x03\n      dup2\n      dup2\n      sload\n      dup2\n      lt\n      tag_43\n      jumpi\n      0x00\n      dup1\n      revert\n    tag_43:\n      swap1\n      0x00\n      mstore\n      keccak256(0x00, 0x20)\n      add\n      0x00\n      swap2\n      pop\n      sload\n      swap1\n      0x0100\n      exp\n      swap1\n      div\n      0xffffffffffffffffffffffffffffffffffffffff\n      and\n      dup2\n      jump\t// out\n        /* \"contracts/TestInterview.sol\":238:264  string[] public rarityList */\n    tag_23:\n      0x00\n      dup2\n      dup2\n      sload\n      dup2\n      lt\n      tag_45\n      jumpi\n      0x00\n      dup1\n      revert\n    tag_45:\n      swap1\n      0x00\n      mstore\n      keccak256(0x00, 0x20)\n      add\n      0x00\n      swap2\n      pop\n      swap1\n      pop\n      dup1\n      sload\n      tag_47\n      swap1\n      tag_48\n      jump\t// in\n    tag_47:\n      dup1\n      0x1f\n      add\n      0x20\n      dup1\n      swap2\n      div\n      mul\n      0x20\n      add\n      mload(0x40)\n      swap1\n      dup2\n      add\n      0x40\n      mstore\n      dup1\n      swap3\n      swap2\n      swap1\n      dup2\n      dup2\n      mstore\n      0x20\n      add\n      dup3\n      dup1\n      sload\n      tag_49\n      swap1\n      tag_48\n      jump\t// in\n    tag_49:\n      dup1\n      iszero\n      tag_50\n      jumpi\n      dup1\n      0x1f\n      lt\n      tag_51\n      jumpi\n      0x0100\n      dup1\n      dup4\n      sload\n      div\n      mul\n      dup4\n      mstore\n      swap2\n      0x20\n      add\n      swap2\n      jump(tag_50)\n    tag_51:\n      dup3\n      add\n      swap2\n      swap1\n      0x00\n      mstore\n      keccak256(0x00, 0x20)\n      swap1\n    tag_52:\n      dup2\n      sload\n      dup2\n      mstore\n      swap1\n      0x01\n      add\n      swap1\n      0x20\n      add\n      dup1\n      dup4\n      gt\n      tag_52\n      jumpi\n      dup3\n      swap1\n      sub\n      0x1f\n      and\n      dup3\n      add\n      swap2\n    tag_50:\n      pop\n      pop\n      pop\n      pop\n      pop\n      dup2\n      jump\t// out\n        /* \"contracts/TestInterview.sol\":341:413  address public ownerAddress = 0xdBDdb8575F6bda11F1DC548A1B546463CC567C3d */\n    tag_27:\n      0x02\n      0x00\n      swap1\n      sload\n      swap1\n      0x0100\n      exp\n      swap1\n      div\n      0xffffffffffffffffffffffffffffffffffffffff\n      and\n      dup2\n      jump\t// out\n        /* \"contracts/TestInterview.sol\":636:777  function rarityRateFunc (string memory _nameRarity) public view returns(uint256) {... */\n    tag_32:\n        /* \"contracts/TestInterview.sol\":708:715  uint256 */\n      0x00\n        /* \"contracts/TestInterview.sol\":735:742  objINFT */\n      0x01\n      0x00\n      swap1\n      sload\n      swap1\n      0x0100\n      exp\n      swap1\n      div\n      0xffffffffffffffffffffffffffffffffffffffff\n      and\n        /* \"contracts/TestInterview.sol\":735:756  objINFT.getRarityRate */\n      0xffffffffffffffffffffffffffffffffffffffff\n      and\n      0x278a7f33\n        /* \"contracts/TestInterview.sol\":757:768  _nameRarity */\n      dup4\n        /* \"contracts/TestInterview.sol\":735:769  objINFT.getRarityRate(_nameRarity) */\n      mload(0x40)\n      dup3\n      0xffffffff\n      and\n      0xe0\n      shl\n      dup2\n      mstore\n      0x04\n      add\n      tag_54\n      swap2\n      swap1\n      tag_25\n      jump\t// in\n    tag_54:\n      0x20\n      mload(0x40)\n      dup1\n      dup4\n      sub\n      dup2\n      dup7\n      dup1\n      extcodesize\n      iszero\n      dup1\n      iszero\n      tag_55\n      jumpi\n      0x00\n      dup1\n      revert\n    tag_55:\n      pop\n      gas\n      staticcall\n      iszero\n      dup1\n      iszero\n      tag_57\n      jumpi\n      returndatasize\n      0x00\n      dup1\n      returndatacopy\n      revert(0x00, returndatasize)\n    tag_57:\n      pop\n      pop\n      pop\n      pop\n      mload(0x40)\n      returndatasize\n      not(0x1f)\n      0x1f\n      dup3\n      add\n      and\n      dup3\n      add\n      dup1\n      0x40\n      mstore\n      pop\n      dup2\n      add\n      swap1\n      tag_58\n      swap2\n      swap1\n      tag_59\n      jump\t// in\n    tag_58:\n        /* \"contracts/TestInterview.sol\":728:769  return objINFT.getRarityRate(_nameRarity) */\n      0xff\n      and\n      swap1\n      pop\n        /* \"contracts/TestInterview.sol\":636:777  function rarityRateFunc (string memory _nameRarity) public view returns(uint256) {... */\n      swap2\n      swap1\n      pop\n      jump\t// out\n        /* \"contracts/TestInterview.sol\":451:628  function rarityListFunc () public view returns(string memory) {... */\n    tag_36:\n        /* \"contracts/TestInterview.sol\":498:511  string memory */\n      0x60\n        /* \"contracts/TestInterview.sol\":524:556  string[3] memory localRarityList */\n      0x00\n        /* \"contracts/TestInterview.sol\":559:566  objINFT */\n      0x01\n      0x00\n      swap1\n      sload\n      swap1\n      0x0100\n      exp\n      swap1\n      div\n      0xffffffffffffffffffffffffffffffffffffffff\n      and\n        /* \"contracts/TestInterview.sol\":559:580  objINFT.getRarityList */\n      0xffffffffffffffffffffffffffffffffffffffff\n      and\n      0x48441d5f\n        /* \"contracts/TestInterview.sol\":559:582  objINFT.getRarityList() */\n      mload(0x40)\n      dup2\n      0xffffffff\n      and\n      0xe0\n      shl\n      dup2\n      mstore\n      0x04\n      add\n      0x00\n      mload(0x40)\n      dup1\n      dup4\n      sub\n      dup2\n      dup7\n      dup1\n      extcodesize\n      iszero\n      dup1\n      iszero\n      tag_61\n      jumpi\n      0x00\n      dup1\n      revert\n    tag_61:\n      pop\n      gas\n      staticcall\n      iszero\n      dup1\n      iszero\n      tag_63\n      jumpi\n      returndatasize\n      0x00\n      dup1\n      returndatacopy\n      revert(0x00, returndatasize)\n    tag_63:\n      pop\n      pop\n      pop\n      pop\n      mload(0x40)\n      returndatasize\n      0x00\n      dup3\n      returndatacopy\n      returndatasize\n      not(0x1f)\n      0x1f\n      dup3\n      add\n      and\n      dup3\n      add\n      dup1\n      0x40\n      mstore\n      pop\n      dup2\n      add\n      swap1\n      tag_64\n      swap2\n      swap1\n      tag_65\n      jump\t// in\n    tag_64:\n        /* \"contracts/TestInterview.sol\":524:582  string[3] memory localRarityList = objINFT.getRarityList() */\n      swap1\n      pop\n        /* \"contracts/TestInterview.sol\":602:617  localRarityList */\n      dup1\n        /* \"contracts/TestInterview.sol\":618:619  1 */\n      0x01\n        /* \"contracts/TestInterview.sol\":602:620  localRarityList[1] */\n      0x03\n      dup2\n      lt\n      tag_66\n      jumpi\n      tag_67\n      tag_68\n      jump\t// in\n    tag_67:\n    tag_66:\n      0x20\n      mul\n      add\n      mload\n        /* \"contracts/TestInterview.sol\":595:620  return localRarityList[1] */\n      swap2\n      pop\n      pop\n        /* \"contracts/TestInterview.sol\":451:628  function rarityListFunc () public view returns(string memory) {... */\n      swap1\n      jump\t// out\n        /* \"contracts/TestInterview.sol\":785:858  function createGatcha () public {... */\n    tag_39:\n        /* \"contracts/TestInterview.sol\":828:833  users */\n      0x03\n        /* \"contracts/TestInterview.sol\":839:849  msg.sender */\n      caller\n        /* \"contracts/TestInterview.sol\":828:850  users.push(msg.sender) */\n      swap1\n      dup1\n      0x01\n      dup2\n      sload\n      add\n      dup1\n      dup3\n      sstore\n      dup1\n      swap2\n      pop\n      pop\n      0x01\n      swap1\n      sub\n      swap1\n      0x00\n      mstore\n      keccak256(0x00, 0x20)\n      add\n      0x00\n      swap1\n      swap2\n      swap1\n      swap2\n      swap1\n      swap2\n      0x0100\n      exp\n      dup2\n      sload\n      dup2\n      0xffffffffffffffffffffffffffffffffffffffff\n      mul\n      not\n      and\n      swap1\n      dup4\n      0xffffffffffffffffffffffffffffffffffffffff\n      and\n      mul\n      or\n      swap1\n      sstore\n      pop\n        /* \"contracts/TestInterview.sol\":785:858  function createGatcha () public {... */\n      jump\t// out\n        /* \"#utility.yul\":7:121   */\n    tag_71:\n        /* \"#utility.yul\":74:80   */\n      0x00\n        /* \"#utility.yul\":108:113   */\n      dup2\n        /* \"#utility.yul\":102:114   */\n      mload\n        /* \"#utility.yul\":92:114   */\n      swap1\n      pop\n        /* \"#utility.yul\":7:121   */\n      swap2\n      swap1\n      pop\n      jump\t// out\n        /* \"#utility.yul\":127:311   */\n    tag_72:\n        /* \"#utility.yul\":226:237   */\n      0x00\n        /* \"#utility.yul\":260:266   */\n      dup3\n        /* \"#utility.yul\":255:258   */\n      dup3\n        /* \"#utility.yul\":248:267   */\n      mstore\n        /* \"#utility.yul\":300:304   */\n      0x20\n        /* \"#utility.yul\":295:298   */\n      dup3\n        /* \"#utility.yul\":291:305   */\n      add\n        /* \"#utility.yul\":276:305   */\n      swap1\n      pop\n        /* \"#utility.yul\":127:311   */\n      swap3\n      swap2\n      pop\n      pop\n      jump\t// out\n        /* \"#utility.yul\":317:449   */\n    tag_73:\n        /* \"#utility.yul\":384:388   */\n      0x00\n        /* \"#utility.yul\":407:410   */\n      dup2\n        /* \"#utility.yul\":399:410   */\n      swap1\n      pop\n        /* \"#utility.yul\":437:441   */\n      0x20\n        /* \"#utility.yul\":432:435   */\n      dup3\n        /* \"#utility.yul\":428:442   */\n      add\n        /* \"#utility.yul\":420:442   */\n      swap1\n      pop\n        /* \"#utility.yul\":317:449   */\n      swap2\n      swap1\n      pop\n      jump\t// out\n        /* \"#utility.yul\":455:581   */\n    tag_74:\n        /* \"#utility.yul\":492:499   */\n      0x00\n        /* \"#utility.yul\":532:574   */\n      0xffffffffffffffffffffffffffffffffffffffff\n        /* \"#utility.yul\":525:530   */\n      dup3\n        /* \"#utility.yul\":521:575   */\n      and\n        /* \"#utility.yul\":510:575   */\n      swap1\n      pop\n        /* \"#utility.yul\":455:581   */\n      swap2\n      swap1\n      pop\n      jump\t// out\n        /* \"#utility.yul\":587:683   */\n    tag_75:\n        /* \"#utility.yul\":624:631   */\n      0x00\n        /* \"#utility.yul\":653:677   */\n      tag_118\n        /* \"#utility.yul\":671:676   */\n      dup3\n        /* \"#utility.yul\":653:677   */\n      tag_74\n      jump\t// in\n    tag_118:\n        /* \"#utility.yul\":642:677   */\n      swap1\n      pop\n        /* \"#utility.yul\":587:683   */\n      swap2\n      swap1\n      pop\n      jump\t// out\n        /* \"#utility.yul\":689:797   */\n    tag_76:\n        /* \"#utility.yul\":766:790   */\n      tag_120\n        /* \"#utility.yul\":784:789   */\n      dup2\n        /* \"#utility.yul\":766:790   */\n      tag_75\n      jump\t// in\n    tag_120:\n        /* \"#utility.yul\":761:764   */\n      dup3\n        /* \"#utility.yul\":754:791   */\n      mstore\n        /* \"#utility.yul\":689:797   */\n      pop\n      pop\n      jump\t// out\n        /* \"#utility.yul\":803:982   */\n    tag_77:\n        /* \"#utility.yul\":872:882   */\n      0x00\n        /* \"#utility.yul\":893:939   */\n      tag_122\n        /* \"#utility.yul\":935:938   */\n      dup4\n        /* \"#utility.yul\":927:933   */\n      dup4\n        /* \"#utility.yul\":893:939   */\n      tag_76\n      jump\t// in\n    tag_122:\n        /* \"#utility.yul\":971:975   */\n      0x20\n        /* \"#utility.yul\":966:969   */\n      dup4\n        /* \"#utility.yul\":962:976   */\n      add\n        /* \"#utility.yul\":948:976   */\n      swap1\n      pop\n        /* \"#utility.yul\":803:982   */\n      swap3\n      swap2\n      pop\n      pop\n      jump\t// out\n        /* \"#utility.yul\":988:1101   */\n    tag_78:\n        /* \"#utility.yul\":1058:1062   */\n      0x00\n        /* \"#utility.yul\":1090:1094   */\n      0x20\n        /* \"#utility.yul\":1085:1088   */\n      dup3\n        /* \"#utility.yul\":1081:1095   */\n      add\n        /* \"#utility.yul\":1073:1095   */\n      swap1\n      pop\n        /* \"#utility.yul\":988:1101   */\n      swap2\n      swap1\n      pop\n      jump\t// out\n        /* \"#utility.yul\":1137:1869   */\n    tag_79:\n        /* \"#utility.yul\":1256:1259   */\n      0x00\n        /* \"#utility.yul\":1285:1339   */\n      tag_125\n        /* \"#utility.yul\":1333:1338   */\n      dup3\n        /* \"#utility.yul\":1285:1339   */\n      tag_71\n      jump\t// in\n    tag_125:\n        /* \"#utility.yul\":1355:1441   */\n      tag_126\n        /* \"#utility.yul\":1434:1440   */\n      dup2\n        /* \"#utility.yul\":1429:1432   */\n      dup6\n        /* \"#utility.yul\":1355:1441   */\n      tag_72\n      jump\t// in\n    tag_126:\n        /* \"#utility.yul\":1348:1441   */\n      swap4\n      pop\n        /* \"#utility.yul\":1465:1521   */\n      tag_127\n        /* \"#utility.yul\":1515:1520   */\n      dup4\n        /* \"#utility.yul\":1465:1521   */\n      tag_73\n      jump\t// in\n    tag_127:\n        /* \"#utility.yul\":1544:1551   */\n      dup1\n        /* \"#utility.yul\":1575:1576   */\n      0x00\n        /* \"#utility.yul\":1560:1844   */\n    tag_128:\n        /* \"#utility.yul\":1585:1591   */\n      dup4\n        /* \"#utility.yul\":1582:1583   */\n      dup2\n        /* \"#utility.yul\":1579:1592   */\n      lt\n        /* \"#utility.yul\":1560:1844   */\n      iszero\n      tag_130\n      jumpi\n        /* \"#utility.yul\":1661:1667   */\n      dup2\n        /* \"#utility.yul\":1655:1668   */\n      mload\n        /* \"#utility.yul\":1688:1751   */\n      tag_131\n        /* \"#utility.yul\":1747:1750   */\n      dup9\n        /* \"#utility.yul\":1732:1745   */\n      dup3\n        /* \"#utility.yul\":1688:1751   */\n      tag_77\n      jump\t// in\n    tag_131:\n        /* \"#utility.yul\":1681:1751   */\n      swap8\n      pop\n        /* \"#utility.yul\":1774:1834   */\n      tag_132\n        /* \"#utility.yul\":1827:1833   */\n      dup4\n        /* \"#utility.yul\":1774:1834   */\n      tag_78\n      jump\t// in\n    tag_132:\n        /* \"#utility.yul\":1764:1834   */\n      swap3\n      pop\n        /* \"#utility.yul\":1620:1844   */\n      pop\n        /* \"#utility.yul\":1607:1608   */\n      0x01\n        /* \"#utility.yul\":1604:1605   */\n      dup2\n        /* \"#utility.yul\":1600:1609   */\n      add\n        /* \"#utility.yul\":1595:1609   */\n      swap1\n      pop\n        /* \"#utility.yul\":1560:1844   */\n      jump(tag_128)\n    tag_130:\n        /* \"#utility.yul\":1564:1578   */\n      pop\n        /* \"#utility.yul\":1860:1863   */\n      dup6\n        /* \"#utility.yul\":1853:1863   */\n      swap4\n      pop\n        /* \"#utility.yul\":1261:1869   */\n      pop\n      pop\n      pop\n        /* \"#utility.yul\":1137:1869   */\n      swap3\n      swap2\n      pop\n      pop\n      jump\t// out\n        /* \"#utility.yul\":1875:2248   */\n    tag_14:\n        /* \"#utility.yul\":2018:2022   */\n      0x00\n        /* \"#utility.yul\":2056:2058   */\n      0x20\n        /* \"#utility.yul\":2045:2054   */\n      dup3\n        /* \"#utility.yul\":2041:2059   */\n      add\n        /* \"#utility.yul\":2033:2059   */\n      swap1\n      pop\n        /* \"#utility.yul\":2105:2114   */\n      dup2\n        /* \"#utility.yul\":2099:2103   */\n      dup2\n        /* \"#utility.yul\":2095:2115   */\n      sub\n        /* \"#utility.yul\":2091:2092   */\n      0x00\n        /* \"#utility.yul\":2080:2089   */\n      dup4\n        /* \"#utility.yul\":2076:2093   */\n      add\n        /* \"#utility.yul\":2069:2116   */\n      mstore\n        /* \"#utility.yul\":2133:2241   */\n      tag_134\n        /* \"#utility.yul\":2236:2240   */\n      dup2\n        /* \"#utility.yul\":2227:2233   */\n      dup5\n        /* \"#utility.yul\":2133:2241   */\n      tag_79\n      jump\t// in\n    tag_134:\n        /* \"#utility.yul\":2125:2241   */\n      swap1\n      pop\n        /* \"#utility.yul\":1875:2248   */\n      swap3\n      swap2\n      pop\n      pop\n      jump\t// out\n        /* \"#utility.yul\":2254:2329   */\n    tag_80:\n        /* \"#utility.yul\":2287:2293   */\n      0x00\n        /* \"#utility.yul\":2320:2322   */\n      0x40\n        /* \"#utility.yul\":2314:2323   */\n      mload\n        /* \"#utility.yul\":2304:2323   */\n      swap1\n      pop\n        /* \"#utility.yul\":2254:2329   */\n      swap1\n      jump\t// out\n        /* \"#utility.yul\":2335:2452   */\n    tag_81:\n        /* \"#utility.yul\":2444:2445   */\n      0x00\n        /* \"#utility.yul\":2441:2442   */\n      dup1\n        /* \"#utility.yul\":2434:2446   */\n      revert\n        /* \"#utility.yul\":2458:2575   */\n    tag_82:\n        /* \"#utility.yul\":2567:2568   */\n      0x00\n        /* \"#utility.yul\":2564:2565   */\n      dup1\n        /* \"#utility.yul\":2557:2569   */\n      revert\n        /* \"#utility.yul\":2581:2658   */\n    tag_83:\n        /* \"#utility.yul\":2618:2625   */\n      0x00\n        /* \"#utility.yul\":2647:2652   */\n      dup2\n        /* \"#utility.yul\":2636:2652   */\n      swap1\n      pop\n        /* \"#utility.yul\":2581:2658   */\n      swap2\n      swap1\n      pop\n      jump\t// out\n        /* \"#utility.yul\":2664:2786   */\n    tag_84:\n        /* \"#utility.yul\":2737:2761   */\n      tag_140\n        /* \"#utility.yul\":2755:2760   */\n      dup2\n        /* \"#utility.yul\":2737:2761   */\n      tag_83\n      jump\t// in\n    tag_140:\n        /* \"#utility.yul\":2730:2735   */\n      dup2\n        /* \"#utility.yul\":2727:2762   */\n      eq\n        /* \"#utility.yul\":2717:2780   */\n      tag_141\n      jumpi\n        /* \"#utility.yul\":2776:2777   */\n      0x00\n        /* \"#utility.yul\":2773:2774   */\n      dup1\n        /* \"#utility.yul\":2766:2778   */\n      revert\n        /* \"#utility.yul\":2717:2780   */\n    tag_141:\n        /* \"#utility.yul\":2664:2786   */\n      pop\n      jump\t// out\n        /* \"#utility.yul\":2792:2931   */\n    tag_85:\n        /* \"#utility.yul\":2838:2843   */\n      0x00\n        /* \"#utility.yul\":2876:2882   */\n      dup2\n        /* \"#utility.yul\":2863:2883   */\n      calldataload\n        /* \"#utility.yul\":2854:2883   */\n      swap1\n      pop\n        /* \"#utility.yul\":2892:2925   */\n      tag_143\n        /* \"#utility.yul\":2919:2924   */\n      dup2\n        /* \"#utility.yul\":2892:2925   */\n      tag_84\n      jump\t// in\n    tag_143:\n        /* \"#utility.yul\":2792:2931   */\n      swap3\n      swap2\n      pop\n      pop\n      jump\t// out\n        /* \"#utility.yul\":2937:3266   */\n    tag_17:\n        /* \"#utility.yul\":2996:3002   */\n      0x00\n        /* \"#utility.yul\":3045:3047   */\n      0x20\n        /* \"#utility.yul\":3033:3042   */\n      dup3\n        /* \"#utility.yul\":3024:3031   */\n      dup5\n        /* \"#utility.yul\":3020:3043   */\n      sub\n        /* \"#utility.yul\":3016:3048   */\n      slt\n        /* \"#utility.yul\":3013:3132   */\n      iszero\n      tag_145\n      jumpi\n        /* \"#utility.yul\":3051:3130   */\n      tag_146\n      tag_81\n      jump\t// in\n    tag_146:\n        /* \"#utility.yul\":3013:3132   */\n    tag_145:\n        /* \"#utility.yul\":3171:3172   */\n      0x00\n        /* \"#utility.yul\":3196:3249   */\n      tag_147\n        /* \"#utility.yul\":3241:3248   */\n      dup5\n        /* \"#utility.yul\":3232:3238   */\n      dup3\n        /* \"#utility.yul\":3221:3230   */\n      dup6\n        /* \"#utility.yul\":3217:3239   */\n      add\n        /* \"#utility.yul\":3196:3249   */\n      tag_85\n      jump\t// in\n    tag_147:\n        /* \"#utility.yul\":3186:3249   */\n      swap2\n      pop\n        /* \"#utility.yul\":3142:3259   */\n      pop\n        /* \"#utility.yul\":2937:3266   */\n      swap3\n      swap2\n      pop\n      pop\n      jump\t// out\n        /* \"#utility.yul\":3272:3390   */\n    tag_86:\n        /* \"#utility.yul\":3359:3383   */\n      tag_149\n        /* \"#utility.yul\":3377:3382   */\n      dup2\n        /* \"#utility.yul\":3359:3383   */\n      tag_75\n      jump\t// in\n    tag_149:\n        /* \"#utility.yul\":3354:3357   */\n      dup3\n        /* \"#utility.yul\":3347:3384   */\n      mstore\n        /* \"#utility.yul\":3272:3390   */\n      pop\n      pop\n      jump\t// out\n        /* \"#utility.yul\":3396:3618   */\n    tag_20:\n        /* \"#utility.yul\":3489:3493   */\n      0x00\n        /* \"#utility.yul\":3527:3529   */\n      0x20\n        /* \"#utility.yul\":3516:3525   */\n      dup3\n        /* \"#utility.yul\":3512:3530   */\n      add\n        /* \"#utility.yul\":3504:3530   */\n      swap1\n      pop\n        /* \"#utility.yul\":3540:3611   */\n      tag_151\n        /* \"#utility.yul\":3608:3609   */\n      0x00\n        /* \"#utility.yul\":3597:3606   */\n      dup4\n        /* \"#utility.yul\":3593:3610   */\n      add\n        /* \"#utility.yul\":3584:3590   */\n      dup5\n        /* \"#utility.yul\":3540:3611   */\n      tag_86\n      jump\t// in\n    tag_151:\n        /* \"#utility.yul\":3396:3618   */\n      swap3\n      swap2\n      pop\n      pop\n      jump\t// out\n        /* \"#utility.yul\":3624:3723   */\n    tag_87:\n        /* \"#utility.yul\":3676:3682   */\n      0x00\n        /* \"#utility.yul\":3710:3715   */\n      dup2\n        /* \"#utility.yul\":3704:3716   */\n      mload\n        /* \"#utility.yul\":3694:3716   */\n      swap1\n      pop\n        /* \"#utility.yul\":3624:3723   */\n      swap2\n      swap1\n      pop\n      jump\t// out\n        /* \"#utility.yul\":3729:3898   */\n    tag_88:\n        /* \"#utility.yul\":3813:3824   */\n      0x00\n        /* \"#utility.yul\":3847:3853   */\n      dup3\n        /* \"#utility.yul\":3842:3845   */\n      dup3\n        /* \"#utility.yul\":3835:3854   */\n      mstore\n        /* \"#utility.yul\":3887:3891   */\n      0x20\n        /* \"#utility.yul\":3882:3885   */\n      dup3\n        /* \"#utility.yul\":3878:3892   */\n      add\n        /* \"#utility.yul\":3863:3892   */\n      swap1\n      pop\n        /* \"#utility.yul\":3729:3898   */\n      swap3\n      swap2\n      pop\n      pop\n      jump\t// out\n        /* \"#utility.yul\":3904:4211   */\n    tag_89:\n        /* \"#utility.yul\":3972:3973   */\n      0x00\n        /* \"#utility.yul\":3982:4095   */\n    tag_155:\n        /* \"#utility.yul\":3996:4002   */\n      dup4\n        /* \"#utility.yul\":3993:3994   */\n      dup2\n        /* \"#utility.yul\":3990:4003   */\n      lt\n        /* \"#utility.yul\":3982:4095   */\n      iszero\n      tag_157\n      jumpi\n        /* \"#utility.yul\":4081:4082   */\n      dup1\n        /* \"#utility.yul\":4076:4079   */\n      dup3\n        /* \"#utility.yul\":4072:4083   */\n      add\n        /* \"#utility.yul\":4066:4084   */\n      mload\n        /* \"#utility.yul\":4062:4063   */\n      dup2\n        /* \"#utility.yul\":4057:4060   */\n      dup5\n        /* \"#utility.yul\":4053:4064   */\n      add\n        /* \"#utility.yul\":4046:4085   */\n      mstore\n        /* \"#utility.yul\":4018:4020   */\n      0x20\n        /* \"#utility.yul\":4015:4016   */\n      dup2\n        /* \"#utility.yul\":4011:4021   */\n      add\n        /* \"#utility.yul\":4006:4021   */\n      swap1\n      pop\n        /* \"#utility.yul\":3982:4095   */\n      jump(tag_155)\n    tag_157:\n        /* \"#utility.yul\":4113:4119   */\n      dup4\n        /* \"#utility.yul\":4110:4111   */\n      dup2\n        /* \"#utility.yul\":4107:4120   */\n      gt\n        /* \"#utility.yul\":4104:4205   */\n      iszero\n      tag_158\n      jumpi\n        /* \"#utility.yul\":4193:4194   */\n      0x00\n        /* \"#utility.yul\":4184:4190   */\n      dup5\n        /* \"#utility.yul\":4179:4182   */\n      dup5\n        /* \"#utility.yul\":4175:4191   */\n      add\n        /* \"#utility.yul\":4168:4195   */\n      mstore\n        /* \"#utility.yul\":4104:4205   */\n    tag_158:\n        /* \"#utility.yul\":3953:4211   */\n      pop\n        /* \"#utility.yul\":3904:4211   */\n      pop\n      pop\n      pop\n      jump\t// out\n        /* \"#utility.yul\":4217:4319   */\n    tag_90:\n        /* \"#utility.yul\":4258:4264   */\n      0x00\n        /* \"#utility.yul\":4309:4311   */\n      0x1f\n        /* \"#utility.yul\":4305:4312   */\n      not\n        /* \"#utility.yul\":4300:4302   */\n      0x1f\n        /* \"#utility.yul\":4293:4298   */\n      dup4\n        /* \"#utility.yul\":4289:4303   */\n      add\n        /* \"#utility.yul\":4285:4313   */\n      and\n        /* \"#utility.yul\":4275:4313   */\n      swap1\n      pop\n        /* \"#utility.yul\":4217:4319   */\n      swap2\n      swap1\n      pop\n      jump\t// out\n        /* \"#utility.yul\":4325:4689   */\n    tag_91:\n        /* \"#utility.yul\":4413:4416   */\n      0x00\n        /* \"#utility.yul\":4441:4480   */\n      tag_161\n        /* \"#utility.yul\":4474:4479   */\n      dup3\n        /* \"#utility.yul\":4441:4480   */\n      tag_87\n      jump\t// in\n    tag_161:\n        /* \"#utility.yul\":4496:4567   */\n      tag_162\n        /* \"#utility.yul\":4560:4566   */\n      dup2\n        /* \"#utility.yul\":4555:4558   */\n      dup6\n        /* \"#utility.yul\":4496:4567   */\n      tag_88\n      jump\t// in\n    tag_162:\n        /* \"#utility.yul\":4489:4567   */\n      swap4\n      pop\n        /* \"#utility.yul\":4576:4628   */\n      tag_163\n        /* \"#utility.yul\":4621:4627   */\n      dup2\n        /* \"#utility.yul\":4616:4619   */\n      dup6\n        /* \"#utility.yul\":4609:4613   */\n      0x20\n        /* \"#utility.yul\":4602:4607   */\n      dup7\n        /* \"#utility.yul\":4598:4614   */\n      add\n        /* \"#utility.yul\":4576:4628   */\n      tag_89\n      jump\t// in\n    tag_163:\n        /* \"#utility.yul\":4653:4682   */\n      tag_164\n        /* \"#utility.yul\":4675:4681   */\n      dup2\n        /* \"#utility.yul\":4653:4682   */\n      tag_90\n      jump\t// in\n    tag_164:\n        /* \"#utility.yul\":4648:4651   */\n      dup5\n        /* \"#utility.yul\":4644:4683   */\n      add\n        /* \"#utility.yul\":4637:4683   */\n      swap2\n      pop\n        /* \"#utility.yul\":4417:4689   */\n      pop\n        /* \"#utility.yul\":4325:4689   */\n      swap3\n      swap2\n      pop\n      pop\n      jump\t// out\n        /* \"#utility.yul\":4695:5008   */\n    tag_25:\n        /* \"#utility.yul\":4808:4812   */\n      0x00\n        /* \"#utility.yul\":4846:4848   */\n      0x20\n        /* \"#utility.yul\":4835:4844   */\n      dup3\n        /* \"#utility.yul\":4831:4849   */\n      add\n        /* \"#utility.yul\":4823:4849   */\n      swap1\n      pop\n        /* \"#utility.yul\":4895:4904   */\n      dup2\n        /* \"#utility.yul\":4889:4893   */\n      dup2\n        /* \"#utility.yul\":4885:4905   */\n      sub\n        /* \"#utility.yul\":4881:4882   */\n      0x00\n        /* \"#utility.yul\":4870:4879   */\n      dup4\n        /* \"#utility.yul\":4866:4883   */\n      add\n        /* \"#utility.yul\":4859:4906   */\n      mstore\n        /* \"#utility.yul\":4923:5001   */\n      tag_166\n        /* \"#utility.yul\":4996:5000   */\n      dup2\n        /* \"#utility.yul\":4987:4993   */\n      dup5\n        /* \"#utility.yul\":4923:5001   */\n      tag_91\n      jump\t// in\n    tag_166:\n        /* \"#utility.yul\":4915:5001   */\n      swap1\n      pop\n        /* \"#utility.yul\":4695:5008   */\n      swap3\n      swap2\n      pop\n      pop\n      jump\t// out\n        /* \"#utility.yul\":5014:5131   */\n    tag_92:\n        /* \"#utility.yul\":5123:5124   */\n      0x00\n        /* \"#utility.yul\":5120:5121   */\n      dup1\n        /* \"#utility.yul\":5113:5125   */\n      revert\n        /* \"#utility.yul\":5137:5254   */\n    tag_93:\n        /* \"#utility.yul\":5246:5247   */\n      0x00\n        /* \"#utility.yul\":5243:5244   */\n      dup1\n        /* \"#utility.yul\":5236:5248   */\n      revert\n        /* \"#utility.yul\":5260:5440   */\n    tag_94:\n        /* \"#utility.yul\":5308:5385   */\n      0x4e487b7100000000000000000000000000000000000000000000000000000000\n        /* \"#utility.yul\":5305:5306   */\n      0x00\n        /* \"#utility.yul\":5298:5386   */\n      mstore\n        /* \"#utility.yul\":5405:5409   */\n      0x41\n        /* \"#utility.yul\":5402:5403   */\n      0x04\n        /* \"#utility.yul\":5395:5410   */\n      mstore\n        /* \"#utility.yul\":5429:5433   */\n      0x24\n        /* \"#utility.yul\":5426:5427   */\n      0x00\n        /* \"#utility.yul\":5419:5434   */\n      revert\n        /* \"#utility.yul\":5446:5727   */\n    tag_95:\n        /* \"#utility.yul\":5529:5556   */\n      tag_171\n        /* \"#utility.yul\":5551:5555   */\n      dup3\n        /* \"#utility.yul\":5529:5556   */\n      tag_90\n      jump\t// in\n    tag_171:\n        /* \"#utility.yul\":5521:5527   */\n      dup2\n        /* \"#utility.yul\":5517:5557   */\n      add\n        /* \"#utility.yul\":5659:5665   */\n      dup2\n        /* \"#utility.yul\":5647:5657   */\n      dup2\n        /* \"#utility.yul\":5644:5666   */\n      lt\n        /* \"#utility.yul\":5623:5641   */\n      0xffffffffffffffff\n        /* \"#utility.yul\":5611:5621   */\n      dup3\n        /* \"#utility.yul\":5608:5642   */\n      gt\n        /* \"#utility.yul\":5605:5667   */\n      or\n        /* \"#utility.yul\":5602:5690   */\n      iszero\n      tag_172\n      jumpi\n        /* \"#utility.yul\":5670:5688   */\n      tag_173\n      tag_94\n      jump\t// in\n    tag_173:\n        /* \"#utility.yul\":5602:5690   */\n    tag_172:\n        /* \"#utility.yul\":5710:5720   */\n      dup1\n        /* \"#utility.yul\":5706:5708   */\n      0x40\n        /* \"#utility.yul\":5699:5721   */\n      mstore\n        /* \"#utility.yul\":5489:5727   */\n      pop\n        /* \"#utility.yul\":5446:5727   */\n      pop\n      pop\n      jump\t// out\n        /* \"#utility.yul\":5733:5862   */\n    tag_96:\n        /* \"#utility.yul\":5767:5773   */\n      0x00\n        /* \"#utility.yul\":5794:5814   */\n      tag_175\n      tag_80\n      jump\t// in\n    tag_175:\n        /* \"#utility.yul\":5784:5814   */\n      swap1\n      pop\n        /* \"#utility.yul\":5823:5856   */\n      tag_176\n        /* \"#utility.yul\":5851:5855   */\n      dup3\n        /* \"#utility.yul\":5843:5849   */\n      dup3\n        /* \"#utility.yul\":5823:5856   */\n      tag_95\n      jump\t// in\n    tag_176:\n        /* \"#utility.yul\":5733:5862   */\n      swap2\n      swap1\n      pop\n      jump\t// out\n        /* \"#utility.yul\":5868:6176   */\n    tag_97:\n        /* \"#utility.yul\":5930:5934   */\n      0x00\n        /* \"#utility.yul\":6020:6038   */\n      0xffffffffffffffff\n        /* \"#utility.yul\":6012:6018   */\n      dup3\n        /* \"#utility.yul\":6009:6039   */\n      gt\n        /* \"#utility.yul\":6006:6062   */\n      iszero\n      tag_178\n      jumpi\n        /* \"#utility.yul\":6042:6060   */\n      tag_179\n      tag_94\n      jump\t// in\n    tag_179:\n        /* \"#utility.yul\":6006:6062   */\n    tag_178:\n        /* \"#utility.yul\":6080:6109   */\n      tag_180\n        /* \"#utility.yul\":6102:6108   */\n      dup3\n        /* \"#utility.yul\":6080:6109   */\n      tag_90\n      jump\t// in\n    tag_180:\n        /* \"#utility.yul\":6072:6109   */\n      swap1\n      pop\n        /* \"#utility.yul\":6164:6168   */\n      0x20\n        /* \"#utility.yul\":6158:6162   */\n      dup2\n        /* \"#utility.yul\":6154:6169   */\n      add\n        /* \"#utility.yul\":6146:6169   */\n      swap1\n      pop\n        /* \"#utility.yul\":5868:6176   */\n      swap2\n      swap1\n      pop\n      jump\t// out\n        /* \"#utility.yul\":6182:6336   */\n    tag_98:\n        /* \"#utility.yul\":6266:6272   */\n      dup3\n        /* \"#utility.yul\":6261:6264   */\n      dup2\n        /* \"#utility.yul\":6256:6259   */\n      dup4\n        /* \"#utility.yul\":6243:6273   */\n      calldatacopy\n        /* \"#utility.yul\":6328:6329   */\n      0x00\n        /* \"#utility.yul\":6319:6325   */\n      dup4\n        /* \"#utility.yul\":6314:6317   */\n      dup4\n        /* \"#utility.yul\":6310:6326   */\n      add\n        /* \"#utility.yul\":6303:6330   */\n      mstore\n        /* \"#utility.yul\":6182:6336   */\n      pop\n      pop\n      pop\n      jump\t// out\n        /* \"#utility.yul\":6342:6754   */\n    tag_99:\n        /* \"#utility.yul\":6420:6425   */\n      0x00\n        /* \"#utility.yul\":6445:6511   */\n      tag_183\n        /* \"#utility.yul\":6461:6510   */\n      tag_184\n        /* \"#utility.yul\":6503:6509   */\n      dup5\n        /* \"#utility.yul\":6461:6510   */\n      tag_97\n      jump\t// in\n    tag_184:\n        /* \"#utility.yul\":6445:6511   */\n      tag_96\n      jump\t// in\n    tag_183:\n        /* \"#utility.yul\":6436:6511   */\n      swap1\n      pop\n        /* \"#utility.yul\":6534:6540   */\n      dup3\n        /* \"#utility.yul\":6527:6532   */\n      dup2\n        /* \"#utility.yul\":6520:6541   */\n      mstore\n        /* \"#utility.yul\":6572:6576   */\n      0x20\n        /* \"#utility.yul\":6565:6570   */\n      dup2\n        /* \"#utility.yul\":6561:6577   */\n      add\n        /* \"#utility.yul\":6610:6613   */\n      dup5\n        /* \"#utility.yul\":6601:6607   */\n      dup5\n        /* \"#utility.yul\":6596:6599   */\n      dup5\n        /* \"#utility.yul\":6592:6608   */\n      add\n        /* \"#utility.yul\":6589:6614   */\n      gt\n        /* \"#utility.yul\":6586:6698   */\n      iszero\n      tag_185\n      jumpi\n        /* \"#utility.yul\":6617:6696   */\n      tag_186\n      tag_93\n      jump\t// in\n    tag_186:\n        /* \"#utility.yul\":6586:6698   */\n    tag_185:\n        /* \"#utility.yul\":6707:6748   */\n      tag_187\n        /* \"#utility.yul\":6741:6747   */\n      dup5\n        /* \"#utility.yul\":6736:6739   */\n      dup3\n        /* \"#utility.yul\":6731:6734   */\n      dup6\n        /* \"#utility.yul\":6707:6748   */\n      tag_98\n      jump\t// in\n    tag_187:\n        /* \"#utility.yul\":6426:6754   */\n      pop\n        /* \"#utility.yul\":6342:6754   */\n      swap4\n      swap3\n      pop\n      pop\n      pop\n      jump\t// out\n        /* \"#utility.yul\":6774:7114   */\n    tag_100:\n        /* \"#utility.yul\":6830:6835   */\n      0x00\n        /* \"#utility.yul\":6879:6882   */\n      dup3\n        /* \"#utility.yul\":6872:6876   */\n      0x1f\n        /* \"#utility.yul\":6864:6870   */\n      dup4\n        /* \"#utility.yul\":6860:6877   */\n      add\n        /* \"#utility.yul\":6856:6883   */\n      slt\n        /* \"#utility.yul\":6846:6968   */\n      tag_189\n      jumpi\n        /* \"#utility.yul\":6887:6966   */\n      tag_190\n      tag_92\n      jump\t// in\n    tag_190:\n        /* \"#utility.yul\":6846:6968   */\n    tag_189:\n        /* \"#utility.yul\":7004:7010   */\n      dup2\n        /* \"#utility.yul\":6991:7011   */\n      calldataload\n        /* \"#utility.yul\":7029:7108   */\n      tag_191\n        /* \"#utility.yul\":7104:7107   */\n      dup5\n        /* \"#utility.yul\":7096:7102   */\n      dup3\n        /* \"#utility.yul\":7089:7093   */\n      0x20\n        /* \"#utility.yul\":7081:7087   */\n      dup7\n        /* \"#utility.yul\":7077:7094   */\n      add\n        /* \"#utility.yul\":7029:7108   */\n      tag_99\n      jump\t// in\n    tag_191:\n        /* \"#utility.yul\":7020:7108   */\n      swap2\n      pop\n        /* \"#utility.yul\":6836:7114   */\n      pop\n        /* \"#utility.yul\":6774:7114   */\n      swap3\n      swap2\n      pop\n      pop\n      jump\t// out\n        /* \"#utility.yul\":7120:7629   */\n    tag_31:\n        /* \"#utility.yul\":7189:7195   */\n      0x00\n        /* \"#utility.yul\":7238:7240   */\n      0x20\n        /* \"#utility.yul\":7226:7235   */\n      dup3\n        /* \"#utility.yul\":7217:7224   */\n      dup5\n        /* \"#utility.yul\":7213:7236   */\n      sub\n        /* \"#utility.yul\":7209:7241   */\n      slt\n        /* \"#utility.yul\":7206:7325   */\n      iszero\n      tag_193\n      jumpi\n        /* \"#utility.yul\":7244:7323   */\n      tag_194\n      tag_81\n      jump\t// in\n    tag_194:\n        /* \"#utility.yul\":7206:7325   */\n    tag_193:\n        /* \"#utility.yul\":7392:7393   */\n      0x00\n        /* \"#utility.yul\":7381:7390   */\n      dup3\n        /* \"#utility.yul\":7377:7394   */\n      add\n        /* \"#utility.yul\":7364:7395   */\n      calldataload\n        /* \"#utility.yul\":7422:7440   */\n      0xffffffffffffffff\n        /* \"#utility.yul\":7414:7420   */\n      dup2\n        /* \"#utility.yul\":7411:7441   */\n      gt\n        /* \"#utility.yul\":7408:7525   */\n      iszero\n      tag_195\n      jumpi\n        /* \"#utility.yul\":7444:7523   */\n      tag_196\n      tag_82\n      jump\t// in\n    tag_196:\n        /* \"#utility.yul\":7408:7525   */\n    tag_195:\n        /* \"#utility.yul\":7549:7612   */\n      tag_197\n        /* \"#utility.yul\":7604:7611   */\n      dup5\n        /* \"#utility.yul\":7595:7601   */\n      dup3\n        /* \"#utility.yul\":7584:7593   */\n      dup6\n        /* \"#utility.yul\":7580:7602   */\n      add\n        /* \"#utility.yul\":7549:7612   */\n      tag_100\n      jump\t// in\n    tag_197:\n        /* \"#utility.yul\":7539:7612   */\n      swap2\n      pop\n        /* \"#utility.yul\":7335:7622   */\n      pop\n        /* \"#utility.yul\":7120:7629   */\n      swap3\n      swap2\n      pop\n      pop\n      jump\t// out\n        /* \"#utility.yul\":7635:7753   */\n    tag_101:\n        /* \"#utility.yul\":7722:7746   */\n      tag_199\n        /* \"#utility.yul\":7740:7745   */\n      dup2\n        /* \"#utility.yul\":7722:7746   */\n      tag_83\n      jump\t// in\n    tag_199:\n        /* \"#utility.yul\":7717:7720   */\n      dup3\n        /* \"#utility.yul\":7710:7747   */\n      mstore\n        /* \"#utility.yul\":7635:7753   */\n      pop\n      pop\n      jump\t// out\n        /* \"#utility.yul\":7759:7981   */\n    tag_34:\n        /* \"#utility.yul\":7852:7856   */\n      0x00\n        /* \"#utility.yul\":7890:7892   */\n      0x20\n        /* \"#utility.yul\":7879:7888   */\n      dup3\n        /* \"#utility.yul\":7875:7893   */\n      add\n        /* \"#utility.yul\":7867:7893   */\n      swap1\n      pop\n        /* \"#utility.yul\":7903:7974   */\n      tag_201\n        /* \"#utility.yul\":7971:7972   */\n      0x00\n        /* \"#utility.yul\":7960:7969   */\n      dup4\n        /* \"#utility.yul\":7956:7973   */\n      add\n        /* \"#utility.yul\":7947:7953   */\n      dup5\n        /* \"#utility.yul\":7903:7974   */\n      tag_101\n      jump\t// in\n    tag_201:\n        /* \"#utility.yul\":7759:7981   */\n      swap3\n      swap2\n      pop\n      pop\n      jump\t// out\n        /* \"#utility.yul\":7987:8167   */\n    tag_102:\n        /* \"#utility.yul\":8035:8112   */\n      0x4e487b7100000000000000000000000000000000000000000000000000000000\n        /* \"#utility.yul\":8032:8033   */\n      0x00\n        /* \"#utility.yul\":8025:8113   */\n      mstore\n        /* \"#utility.yul\":8132:8136   */\n      0x22\n        /* \"#utility.yul\":8129:8130   */\n      0x04\n        /* \"#utility.yul\":8122:8137   */\n      mstore\n        /* \"#utility.yul\":8156:8160   */\n      0x24\n        /* \"#utility.yul\":8153:8154   */\n      0x00\n        /* \"#utility.yul\":8146:8161   */\n      revert\n        /* \"#utility.yul\":8173:8493   */\n    tag_48:\n        /* \"#utility.yul\":8217:8223   */\n      0x00\n        /* \"#utility.yul\":8254:8255   */\n      0x02\n        /* \"#utility.yul\":8248:8252   */\n      dup3\n        /* \"#utility.yul\":8244:8256   */\n      div\n        /* \"#utility.yul\":8234:8256   */\n      swap1\n      pop\n        /* \"#utility.yul\":8301:8302   */\n      0x01\n        /* \"#utility.yul\":8295:8299   */\n      dup3\n        /* \"#utility.yul\":8291:8303   */\n      and\n        /* \"#utility.yul\":8322:8340   */\n      dup1\n        /* \"#utility.yul\":8312:8393   */\n      tag_204\n      jumpi\n        /* \"#utility.yul\":8378:8382   */\n      0x7f\n        /* \"#utility.yul\":8370:8376   */\n      dup3\n        /* \"#utility.yul\":8366:8383   */\n      and\n        /* \"#utility.yul\":8356:8383   */\n      swap2\n      pop\n        /* \"#utility.yul\":8312:8393   */\n    tag_204:\n        /* \"#utility.yul\":8440:8442   */\n      0x20\n        /* \"#utility.yul\":8432:8438   */\n      dup3\n        /* \"#utility.yul\":8429:8443   */\n      lt\n        /* \"#utility.yul\":8409:8427   */\n      dup2\n        /* \"#utility.yul\":8406:8444   */\n      eq\n        /* \"#utility.yul\":8403:8487   */\n      iszero\n      tag_205\n      jumpi\n        /* \"#utility.yul\":8459:8477   */\n      tag_206\n      tag_102\n      jump\t// in\n    tag_206:\n        /* \"#utility.yul\":8403:8487   */\n    tag_205:\n        /* \"#utility.yul\":8224:8493   */\n      pop\n        /* \"#utility.yul\":8173:8493   */\n      swap2\n      swap1\n      pop\n      jump\t// out\n        /* \"#utility.yul\":8499:8585   */\n    tag_103:\n        /* \"#utility.yul\":8534:8541   */\n      0x00\n        /* \"#utility.yul\":8574:8578   */\n      0xff\n        /* \"#utility.yul\":8567:8572   */\n      dup3\n        /* \"#utility.yul\":8563:8579   */\n      and\n        /* \"#utility.yul\":8552:8579   */\n      swap1\n      pop\n        /* \"#utility.yul\":8499:8585   */\n      swap2\n      swap1\n      pop\n      jump\t// out\n        /* \"#utility.yul\":8591:8709   */\n    tag_104:\n        /* \"#utility.yul\":8662:8684   */\n      tag_209\n        /* \"#utility.yul\":8678:8683   */\n      dup2\n        /* \"#utility.yul\":8662:8684   */\n      tag_103\n      jump\t// in\n    tag_209:\n        /* \"#utility.yul\":8655:8660   */\n      dup2\n        /* \"#utility.yul\":8652:8685   */\n      eq\n        /* \"#utility.yul\":8642:8703   */\n      tag_210\n      jumpi\n        /* \"#utility.yul\":8699:8700   */\n      0x00\n        /* \"#utility.yul\":8696:8697   */\n      dup1\n        /* \"#utility.yul\":8689:8701   */\n      revert\n        /* \"#utility.yul\":8642:8703   */\n    tag_210:\n        /* \"#utility.yul\":8591:8709   */\n      pop\n      jump\t// out\n        /* \"#utility.yul\":8715:8854   */\n    tag_105:\n        /* \"#utility.yul\":8770:8775   */\n      0x00\n        /* \"#utility.yul\":8801:8807   */\n      dup2\n        /* \"#utility.yul\":8795:8808   */\n      mload\n        /* \"#utility.yul\":8786:8808   */\n      swap1\n      pop\n        /* \"#utility.yul\":8817:8848   */\n      tag_212\n        /* \"#utility.yul\":8842:8847   */\n      dup2\n        /* \"#utility.yul\":8817:8848   */\n      tag_104\n      jump\t// in\n    tag_212:\n        /* \"#utility.yul\":8715:8854   */\n      swap3\n      swap2\n      pop\n      pop\n      jump\t// out\n        /* \"#utility.yul\":8860:9207   */\n    tag_59:\n        /* \"#utility.yul\":8928:8934   */\n      0x00\n        /* \"#utility.yul\":8977:8979   */\n      0x20\n        /* \"#utility.yul\":8965:8974   */\n      dup3\n        /* \"#utility.yul\":8956:8963   */\n      dup5\n        /* \"#utility.yul\":8952:8975   */\n      sub\n        /* \"#utility.yul\":8948:8980   */\n      slt\n        /* \"#utility.yul\":8945:9064   */\n      iszero\n      tag_214\n      jumpi\n        /* \"#utility.yul\":8983:9062   */\n      tag_215\n      tag_81\n      jump\t// in\n    tag_215:\n        /* \"#utility.yul\":8945:9064   */\n    tag_214:\n        /* \"#utility.yul\":9103:9104   */\n      0x00\n        /* \"#utility.yul\":9128:9190   */\n      tag_216\n        /* \"#utility.yul\":9182:9189   */\n      dup5\n        /* \"#utility.yul\":9173:9179   */\n      dup3\n        /* \"#utility.yul\":9162:9171   */\n      dup6\n        /* \"#utility.yul\":9158:9180   */\n      add\n        /* \"#utility.yul\":9128:9190   */\n      tag_105\n      jump\t// in\n    tag_216:\n        /* \"#utility.yul\":9118:9190   */\n      swap2\n      pop\n        /* \"#utility.yul\":9074:9200   */\n      pop\n        /* \"#utility.yul\":8860:9207   */\n      swap3\n      swap2\n      pop\n      pop\n      jump\t// out\n        /* \"#utility.yul\":9213:9472   */\n    tag_106:\n        /* \"#utility.yul\":9298:9302   */\n      0x00\n        /* \"#utility.yul\":9388:9406   */\n      0xffffffffffffffff\n        /* \"#utility.yul\":9380:9386   */\n      dup3\n        /* \"#utility.yul\":9377:9407   */\n      gt\n        /* \"#utility.yul\":9374:9430   */\n      iszero\n      tag_218\n      jumpi\n        /* \"#utility.yul\":9410:9428   */\n      tag_219\n      tag_94\n      jump\t// in\n    tag_219:\n        /* \"#utility.yul\":9374:9430   */\n    tag_218:\n        /* \"#utility.yul\":9460:9464   */\n      0x20\n        /* \"#utility.yul\":9452:9458   */\n      dup3\n        /* \"#utility.yul\":9448:9465   */\n      mul\n        /* \"#utility.yul\":9440:9465   */\n      swap1\n      pop\n        /* \"#utility.yul\":9213:9472   */\n      swap2\n      swap1\n      pop\n      jump\t// out\n        /* \"#utility.yul\":9478:9595   */\n    tag_107:\n        /* \"#utility.yul\":9587:9588   */\n      0x00\n        /* \"#utility.yul\":9584:9585   */\n      dup1\n        /* \"#utility.yul\":9577:9589   */\n      revert\n        /* \"#utility.yul\":9601:10022   */\n    tag_108:\n        /* \"#utility.yul\":9690:9695   */\n      0x00\n        /* \"#utility.yul\":9715:9781   */\n      tag_222\n        /* \"#utility.yul\":9731:9780   */\n      tag_223\n        /* \"#utility.yul\":9773:9779   */\n      dup5\n        /* \"#utility.yul\":9731:9780   */\n      tag_97\n      jump\t// in\n    tag_223:\n        /* \"#utility.yul\":9715:9781   */\n      tag_96\n      jump\t// in\n    tag_222:\n        /* \"#utility.yul\":9706:9781   */\n      swap1\n      pop\n        /* \"#utility.yul\":9804:9810   */\n      dup3\n        /* \"#utility.yul\":9797:9802   */\n      dup2\n        /* \"#utility.yul\":9790:9811   */\n      mstore\n        /* \"#utility.yul\":9842:9846   */\n      0x20\n        /* \"#utility.yul\":9835:9840   */\n      dup2\n        /* \"#utility.yul\":9831:9847   */\n      add\n        /* \"#utility.yul\":9880:9883   */\n      dup5\n        /* \"#utility.yul\":9871:9877   */\n      dup5\n        /* \"#utility.yul\":9866:9869   */\n      dup5\n        /* \"#utility.yul\":9862:9878   */\n      add\n        /* \"#utility.yul\":9859:9884   */\n      gt\n        /* \"#utility.yul\":9856:9968   */\n      iszero\n      tag_224\n      jumpi\n        /* \"#utility.yul\":9887:9966   */\n      tag_225\n      tag_93\n      jump\t// in\n    tag_225:\n        /* \"#utility.yul\":9856:9968   */\n    tag_224:\n        /* \"#utility.yul\":9977:10016   */\n      tag_226\n        /* \"#utility.yul\":10009:10015   */\n      dup5\n        /* \"#utility.yul\":10004:10007   */\n      dup3\n        /* \"#utility.yul\":9999:10002   */\n      dup6\n        /* \"#utility.yul\":9977:10016   */\n      tag_89\n      jump\t// in\n    tag_226:\n        /* \"#utility.yul\":9696:10022   */\n      pop\n        /* \"#utility.yul\":9601:10022   */\n      swap4\n      swap3\n      pop\n      pop\n      pop\n      jump\t// out\n        /* \"#utility.yul\":10042:10397   */\n    tag_109:\n        /* \"#utility.yul\":10109:10114   */\n      0x00\n        /* \"#utility.yul\":10158:10161   */\n      dup3\n        /* \"#utility.yul\":10151:10155   */\n      0x1f\n        /* \"#utility.yul\":10143:10149   */\n      dup4\n        /* \"#utility.yul\":10139:10156   */\n      add\n        /* \"#utility.yul\":10135:10162   */\n      slt\n        /* \"#utility.yul\":10125:10247   */\n      tag_228\n      jumpi\n        /* \"#utility.yul\":10166:10245   */\n      tag_229\n      tag_92\n      jump\t// in\n    tag_229:\n        /* \"#utility.yul\":10125:10247   */\n    tag_228:\n        /* \"#utility.yul\":10276:10282   */\n      dup2\n        /* \"#utility.yul\":10270:10283   */\n      mload\n        /* \"#utility.yul\":10301:10391   */\n      tag_230\n        /* \"#utility.yul\":10387:10390   */\n      dup5\n        /* \"#utility.yul\":10379:10385   */\n      dup3\n        /* \"#utility.yul\":10372:10376   */\n      0x20\n        /* \"#utility.yul\":10364:10370   */\n      dup7\n        /* \"#utility.yul\":10360:10377   */\n      add\n        /* \"#utility.yul\":10301:10391   */\n      tag_108\n      jump\t// in\n    tag_230:\n        /* \"#utility.yul\":10292:10391   */\n      swap2\n      pop\n        /* \"#utility.yul\":10115:10397   */\n      pop\n        /* \"#utility.yul\":10042:10397   */\n      swap3\n      swap2\n      pop\n      pop\n      jump\t// out\n        /* \"#utility.yul\":10420:11313   */\n    tag_110:\n        /* \"#utility.yul\":10535:10540   */\n      0x00\n        /* \"#utility.yul\":10560:10649   */\n      tag_232\n        /* \"#utility.yul\":10576:10648   */\n      tag_233\n        /* \"#utility.yul\":10641:10647   */\n      dup5\n        /* \"#utility.yul\":10576:10648   */\n      tag_106\n      jump\t// in\n    tag_233:\n        /* \"#utility.yul\":10560:10649   */\n      tag_96\n      jump\t// in\n    tag_232:\n        /* \"#utility.yul\":10551:10649   */\n      swap1\n      pop\n        /* \"#utility.yul\":10669:10674   */\n      dup1\n        /* \"#utility.yul\":10722:10726   */\n      0x20\n        /* \"#utility.yul\":10714:10720   */\n      dup5\n        /* \"#utility.yul\":10710:10727   */\n      mul\n        /* \"#utility.yul\":10702:10708   */\n      dup4\n        /* \"#utility.yul\":10698:10728   */\n      add\n        /* \"#utility.yul\":10751:10754   */\n      dup6\n        /* \"#utility.yul\":10743:10749   */\n      dup2\n        /* \"#utility.yul\":10740:10755   */\n      gt\n        /* \"#utility.yul\":10737:10859   */\n      iszero\n      tag_234\n      jumpi\n        /* \"#utility.yul\":10770:10849   */\n      tag_235\n      tag_107\n      jump\t// in\n    tag_235:\n        /* \"#utility.yul\":10737:10859   */\n    tag_234:\n        /* \"#utility.yul\":10885:10891   */\n      dup4\n        /* \"#utility.yul\":10868:11307   */\n    tag_236:\n        /* \"#utility.yul\":10902:10908   */\n      dup2\n        /* \"#utility.yul\":10897:10900   */\n      dup2\n        /* \"#utility.yul\":10894:10909   */\n      lt\n        /* \"#utility.yul\":10868:11307   */\n      iszero\n      tag_238\n      jumpi\n        /* \"#utility.yul\":10984:10987   */\n      dup1\n        /* \"#utility.yul\":10978:10988   */\n      mload\n        /* \"#utility.yul\":11020:11038   */\n      0xffffffffffffffff\n        /* \"#utility.yul\":11007:11018   */\n      dup2\n        /* \"#utility.yul\":11004:11039   */\n      gt\n        /* \"#utility.yul\":11001:11123   */\n      iszero\n      tag_239\n      jumpi\n        /* \"#utility.yul\":11042:11121   */\n      tag_240\n      tag_92\n      jump\t// in\n    tag_240:\n        /* \"#utility.yul\":11001:11123   */\n    tag_239:\n        /* \"#utility.yul\":11166:11177   */\n      dup1\n        /* \"#utility.yul\":11158:11164   */\n      dup7\n        /* \"#utility.yul\":11154:11178   */\n      add\n        /* \"#utility.yul\":11204:11262   */\n      tag_241\n        /* \"#utility.yul\":11258:11261   */\n      dup10\n        /* \"#utility.yul\":11246:11256   */\n      dup3\n        /* \"#utility.yul\":11204:11262   */\n      tag_109\n      jump\t// in\n    tag_241:\n        /* \"#utility.yul\":11199:11202   */\n      dup6\n        /* \"#utility.yul\":11192:11263   */\n      mstore\n        /* \"#utility.yul\":11292:11296   */\n      0x20\n        /* \"#utility.yul\":11287:11290   */\n      dup6\n        /* \"#utility.yul\":11283:11297   */\n      add\n        /* \"#utility.yul\":11276:11297   */\n      swap5\n      pop\n        /* \"#utility.yul\":10944:11307   */\n      pop\n      pop\n        /* \"#utility.yul\":10928:10932   */\n      0x20\n        /* \"#utility.yul\":10923:10926   */\n      dup2\n        /* \"#utility.yul\":10919:10933   */\n      add\n        /* \"#utility.yul\":10912:10933   */\n      swap1\n      pop\n        /* \"#utility.yul\":10868:11307   */\n      jump(tag_236)\n    tag_238:\n        /* \"#utility.yul\":10872:10893   */\n      pop\n        /* \"#utility.yul\":10541:11313   */\n      pop\n      pop\n        /* \"#utility.yul\":10420:11313   */\n      swap4\n      swap3\n      pop\n      pop\n      pop\n      jump\t// out\n        /* \"#utility.yul\":11336:11717   */\n    tag_111:\n        /* \"#utility.yul\":11426:11431   */\n      0x00\n        /* \"#utility.yul\":11475:11478   */\n      dup3\n        /* \"#utility.yul\":11468:11472   */\n      0x1f\n        /* \"#utility.yul\":11460:11466   */\n      dup4\n        /* \"#utility.yul\":11456:11473   */\n      add\n        /* \"#utility.yul\":11452:11479   */\n      slt\n        /* \"#utility.yul\":11442:11564   */\n      tag_243\n      jumpi\n        /* \"#utility.yul\":11483:11562   */\n      tag_244\n      tag_92\n      jump\t// in\n    tag_244:\n        /* \"#utility.yul\":11442:11564   */\n    tag_243:\n        /* \"#utility.yul\":11587:11591   */\n      0x03\n        /* \"#utility.yul\":11609:11711   */\n      tag_245\n        /* \"#utility.yul\":11707:11710   */\n      dup5\n        /* \"#utility.yul\":11699:11705   */\n      dup3\n        /* \"#utility.yul\":11691:11697   */\n      dup6\n        /* \"#utility.yul\":11609:11711   */\n      tag_110\n      jump\t// in\n    tag_245:\n        /* \"#utility.yul\":11600:11711   */\n      swap2\n      pop\n        /* \"#utility.yul\":11432:11717   */\n      pop\n        /* \"#utility.yul\":11336:11717   */\n      swap3\n      swap2\n      pop\n      pop\n      jump\t// out\n        /* \"#utility.yul\":11723:12293   */\n    tag_65:\n        /* \"#utility.yul\":11826:11832   */\n      0x00\n        /* \"#utility.yul\":11875:11877   */\n      0x20\n        /* \"#utility.yul\":11863:11872   */\n      dup3\n        /* \"#utility.yul\":11854:11861   */\n      dup5\n        /* \"#utility.yul\":11850:11873   */\n      sub\n        /* \"#utility.yul\":11846:11878   */\n      slt\n        /* \"#utility.yul\":11843:11962   */\n      iszero\n      tag_247\n      jumpi\n        /* \"#utility.yul\":11881:11960   */\n      tag_248\n      tag_81\n      jump\t// in\n    tag_248:\n        /* \"#utility.yul\":11843:11962   */\n    tag_247:\n        /* \"#utility.yul\":12022:12023   */\n      0x00\n        /* \"#utility.yul\":12011:12020   */\n      dup3\n        /* \"#utility.yul\":12007:12024   */\n      add\n        /* \"#utility.yul\":12001:12025   */\n      mload\n        /* \"#utility.yul\":12052:12070   */\n      0xffffffffffffffff\n        /* \"#utility.yul\":12044:12050   */\n      dup2\n        /* \"#utility.yul\":12041:12071   */\n      gt\n        /* \"#utility.yul\":12038:12155   */\n      iszero\n      tag_249\n      jumpi\n        /* \"#utility.yul\":12074:12153   */\n      tag_250\n      tag_82\n      jump\t// in\n    tag_250:\n        /* \"#utility.yul\":12038:12155   */\n    tag_249:\n        /* \"#utility.yul\":12179:12276   */\n      tag_251\n        /* \"#utility.yul\":12268:12275   */\n      dup5\n        /* \"#utility.yul\":12259:12265   */\n      dup3\n        /* \"#utility.yul\":12248:12257   */\n      dup6\n        /* \"#utility.yul\":12244:12266   */\n      add\n        /* \"#utility.yul\":12179:12276   */\n      tag_111\n      jump\t// in\n    tag_251:\n        /* \"#utility.yul\":12169:12276   */\n      swap2\n      pop\n        /* \"#utility.yul\":11972:12286   */\n      pop\n        /* \"#utility.yul\":11723:12293   */\n      swap3\n      swap2\n      pop\n      pop\n      jump\t// out\n        /* \"#utility.yul\":12299:12479   */\n    tag_68:\n        /* \"#utility.yul\":12347:12424   */\n      0x4e487b7100000000000000000000000000000000000000000000000000000000\n        /* \"#utility.yul\":12344:12345   */\n      0x00\n        /* \"#utility.yul\":12337:12425   */\n      mstore\n        /* \"#utility.yul\":12444:12448   */\n      0x32\n        /* \"#utility.yul\":12441:12442   */\n      0x04\n        /* \"#utility.yul\":12434:12449   */\n      mstore\n        /* \"#utility.yul\":12468:12472   */\n      0x24\n        /* \"#utility.yul\":12465:12466   */\n      0x00\n        /* \"#utility.yul\":12458:12473   */\n      revert\n\n    auxdata: 0xa2646970667358221220184c40a2afb7a9b4c58698d5daf4a6a40873411e8a304d19adc42928b3b1625964736f6c63430008080033\n}\n",
				"bytecode": {
					"linkReferences": {},
					"object": "60806040527350c7a09925375438d2cee94c5c59266c6ffaaf8c600160006101000a81548173ffffffffffffffffffffffffffffffffffffffff021916908373ffffffffffffffffffffffffffffffffffffffff16021790555073dbddb8575f6bda11f1dc548a1b546463cc567c3d600260006101000a81548173ffffffffffffffffffffffffffffffffffffffff021916908373ffffffffffffffffffffffffffffffffffffffff1602179055503480156100ba57600080fd5b50610bc9806100ca6000396000f3fe608060405234801561001057600080fd5b506004361061007c5760003560e01c80638f84aa091161005b5780638f84aa09146100ff578063a7beb5d01461011d578063bb4a376b1461014d578063e917ec961461016b5761007c565b8062ce8e3e14610081578063365b98b21461009f5780636fd3d9e2146100cf575b600080fd5b610089610175565b60405161009691906105ea565b60405180910390f35b6100b960048036038101906100b49190610656565b610203565b6040516100c69190610692565b60405180910390f35b6100e960048036038101906100e49190610656565b610242565b6040516100f69190610746565b60405180910390f35b6101076102ee565b6040516101149190610692565b60405180910390f35b6101376004803603810190610132919061089d565b610314565b60405161014491906108f5565b60405180910390f35b6101556103cb565b6040516101629190610746565b60405180910390f35b610173610495565b005b606060038054806020026020016040519081016040528092919081815260200182805480156101f957602002820191906000526020600020905b8160009054906101000a900473ffffffffffffffffffffffffffffffffffffffff1673ffffffffffffffffffffffffffffffffffffffff16815260200190600101908083116101af575b5050505050905090565b6003818154811061021357600080fd5b906000526020600020016000915054906101000a900473ffffffffffffffffffffffffffffffffffffffff1681565b6000818154811061025257600080fd5b90600052602060002001600091509050805461026d9061093f565b80601f01602080910402602001604051908101604052809291908181526020018280546102999061093f565b80156102e65780601f106102bb576101008083540402835291602001916102e6565b820191906000526020600020905b8154815290600101906020018083116102c957829003601f168201915b505050505081565b600260009054906101000a900473ffffffffffffffffffffffffffffffffffffffff1681565b6000600160009054906101000a900473ffffffffffffffffffffffffffffffffffffffff1673ffffffffffffffffffffffffffffffffffffffff1663278a7f33836040518263ffffffff1660e01b81526004016103719190610746565b60206040518083038186803b15801561038957600080fd5b505afa15801561039d573d6000803e3d6000fd5b505050506040513d601f19601f820116820180604052508101906103c191906109aa565b60ff169050919050565b60606000600160009054906101000a900473ffffffffffffffffffffffffffffffffffffffff1673ffffffffffffffffffffffffffffffffffffffff166348441d5f6040518163ffffffff1660e01b815260040160006040518083038186803b15801561043757600080fd5b505afa15801561044b573d6000803e3d6000fd5b505050506040513d6000823e3d601f19601f820116820180604052508101906104749190610b1b565b90508060016003811061048a57610489610b64565b5b602002015191505090565b6003339080600181540180825580915050600190039060005260206000200160009091909190916101000a81548173ffffffffffffffffffffffffffffffffffffffff021916908373ffffffffffffffffffffffffffffffffffffffff160217905550565b600081519050919050565b600082825260208201905092915050565b6000819050602082019050919050565b600073ffffffffffffffffffffffffffffffffffffffff82169050919050565b600061055182610526565b9050919050565b61056181610546565b82525050565b60006105738383610558565b60208301905092915050565b6000602082019050919050565b6000610597826104fa565b6105a18185610505565b93506105ac83610516565b8060005b838110156105dd5781516105c48882610567565b97506105cf8361057f565b9250506001810190506105b0565b5085935050505092915050565b60006020820190508181036000830152610604818461058c565b905092915050565b6000604051905090565b600080fd5b600080fd5b6000819050919050565b61063381610620565b811461063e57600080fd5b50565b6000813590506106508161062a565b92915050565b60006020828403121561066c5761066b610616565b5b600061067a84828501610641565b91505092915050565b61068c81610546565b82525050565b60006020820190506106a76000830184610683565b92915050565b600081519050919050565b600082825260208201905092915050565b60005b838110156106e75780820151818401526020810190506106cc565b838111156106f6576000848401525b50505050565b6000601f19601f8301169050919050565b6000610718826106ad565b61072281856106b8565b93506107328185602086016106c9565b61073b816106fc565b840191505092915050565b60006020820190508181036000830152610760818461070d565b905092915050565b600080fd5b600080fd5b7f4e487b7100000000000000000000000000000000000000000000000000000000600052604160045260246000fd5b6107aa826106fc565b810181811067ffffffffffffffff821117156107c9576107c8610772565b5b80604052505050565b60006107dc61060c565b90506107e882826107a1565b919050565b600067ffffffffffffffff82111561080857610807610772565b5b610811826106fc565b9050602081019050919050565b82818337600083830152505050565b600061084061083b846107ed565b6107d2565b90508281526020810184848401111561085c5761085b61076d565b5b61086784828561081e565b509392505050565b600082601f83011261088457610883610768565b5b813561089484826020860161082d565b91505092915050565b6000602082840312156108b3576108b2610616565b5b600082013567ffffffffffffffff8111156108d1576108d061061b565b5b6108dd8482850161086f565b91505092915050565b6108ef81610620565b82525050565b600060208201905061090a60008301846108e6565b92915050565b7f4e487b7100000000000000000000000000000000000000000000000000000000600052602260045260246000fd5b6000600282049050600182168061095757607f821691505b6020821081141561096b5761096a610910565b5b50919050565b600060ff82169050919050565b61098781610971565b811461099257600080fd5b50565b6000815190506109a48161097e565b92915050565b6000602082840312156109c0576109bf610616565b5b60006109ce84828501610995565b91505092915050565b600067ffffffffffffffff8211156109f2576109f1610772565b5b602082029050919050565b600080fd5b6000610a15610a10846107ed565b6107d2565b905082815260208101848484011115610a3157610a3061076d565b5b610a3c8482856106c9565b509392505050565b600082601f830112610a5957610a58610768565b5b8151610a69848260208601610a02565b91505092915050565b6000610a85610a80846109d7565b6107d2565b90508060208402830185811115610a9f57610a9e6109fd565b5b835b81811015610ae657805167ffffffffffffffff811115610ac457610ac3610768565b5b808601610ad18982610a44565b85526020850194505050602081019050610aa1565b5050509392505050565b600082601f830112610b0557610b04610768565b5b6003610b12848285610a72565b91505092915050565b600060208284031215610b3157610b30610616565b5b600082015167ffffffffffffffff811115610b4f57610b4e61061b565b5b610b5b84828501610af0565b91505092915050565b7f4e487b7100000000000000000000000000000000000000000000000000000000600052603260045260246000fdfea2646970667358221220184c40a2afb7a9b4c58698d5daf4a6a40873411e8a304d19adc42928b3b1625964736f6c63430008080033",
					"opcodes": "PUSH1 0x80 PUSH1 0x40 MSTORE PUSH20 0x50C7A09925375438D2CEE94C5C59266C6FFAAF8C PUSH1 0x1 PUSH1 0x0 PUSH2 0x100 EXP DUP2 SLOAD DUP2 PUSH20 0xFFFFFFFFFFFFFFFFFFFFFFFFFFFFFFFFFFFFFFFF MUL NOT AND SWAP1 DUP4 PUSH20 0xFFFFFFFFFFFFFFFFFFFFFFFFFFFFFFFFFFFFFFFF AND MUL OR SWAP1 SSTORE POP PUSH20 0xDBDDB8575F6BDA11F1DC548A1B546463CC567C3D PUSH1 0x2 PUSH1 0x0 PUSH2 0x100 EXP DUP2 SLOAD DUP2 PUSH20 0xFFFFFFFFFFFFFFFFFFFFFFFFFFFFFFFFFFFFFFFF MUL NOT AND SWAP1 DUP4 PUSH20 0xFFFFFFFFFFFFFFFFFFFFFFFFFFFFFFFFFFFFFFFF AND MUL OR SWAP1 SSTORE POP CALLVALUE DUP1 ISZERO PUSH2 0xBA JUMPI PUSH1 0x0 DUP1 REVERT JUMPDEST POP PUSH2 0xBC9 DUP1 PUSH2 0xCA PUSH1 0x0 CODECOPY PUSH1 0x0 RETURN INVALID PUSH1 0x80 PUSH1 0x40 MSTORE CALLVALUE DUP1 ISZERO PUSH2 0x10 JUMPI PUSH1 0x0 DUP1 REVERT JUMPDEST POP PUSH1 0x4 CALLDATASIZE LT PUSH2 0x7C JUMPI PUSH1 0x0 CALLDATALOAD PUSH1 0xE0 SHR DUP1 PUSH4 0x8F84AA09 GT PUSH2 0x5B JUMPI DUP1 PUSH4 0x8F84AA09 EQ PUSH2 0xFF JUMPI DUP1 PUSH4 0xA7BEB5D0 EQ PUSH2 0x11D JUMPI DUP1 PUSH4 0xBB4A376B EQ PUSH2 0x14D JUMPI DUP1 PUSH4 0xE917EC96 EQ PUSH2 0x16B JUMPI PUSH2 0x7C JUMP JUMPDEST DUP1 PUSH3 0xCE8E3E EQ PUSH2 0x81 JUMPI DUP1 PUSH4 0x365B98B2 EQ PUSH2 0x9F JUMPI DUP1 PUSH4 0x6FD3D9E2 EQ PUSH2 0xCF JUMPI JUMPDEST PUSH1 0x0 DUP1 REVERT JUMPDEST PUSH2 0x89 PUSH2 0x175 JUMP JUMPDEST PUSH1 0x40 MLOAD PUSH2 0x96 SWAP2 SWAP1 PUSH2 0x5EA JUMP JUMPDEST PUSH1 0x40 MLOAD DUP1 SWAP2 SUB SWAP1 RETURN JUMPDEST PUSH2 0xB9 PUSH1 0x4 DUP1 CALLDATASIZE SUB DUP2 ADD SWAP1 PUSH2 0xB4 SWAP2 SWAP1 PUSH2 0x656 JUMP JUMPDEST PUSH2 0x203 JUMP JUMPDEST PUSH1 0x40 MLOAD PUSH2 0xC6 SWAP2 SWAP1 PUSH2 0x692 JUMP JUMPDEST PUSH1 0x40 MLOAD DUP1 SWAP2 SUB SWAP1 RETURN JUMPDEST PUSH2 0xE9 PUSH1 0x4 DUP1 CALLDATASIZE SUB DUP2 ADD SWAP1 PUSH2 0xE4 SWAP2 SWAP1 PUSH2 0x656 JUMP JUMPDEST PUSH2 0x242 JUMP JUMPDEST PUSH1 0x40 MLOAD PUSH2 0xF6 SWAP2 SWAP1 PUSH2 0x746 JUMP JUMPDEST PUSH1 0x40 MLOAD DUP1 SWAP2 SUB SWAP1 RETURN JUMPDEST PUSH2 0x107 PUSH2 0x2EE JUMP JUMPDEST PUSH1 0x40 MLOAD PUSH2 0x114 SWAP2 SWAP1 PUSH2 0x692 JUMP JUMPDEST PUSH1 0x40 MLOAD DUP1 SWAP2 SUB SWAP1 RETURN JUMPDEST PUSH2 0x137 PUSH1 0x4 DUP1 CALLDATASIZE SUB DUP2 ADD SWAP1 PUSH2 0x132 SWAP2 SWAP1 PUSH2 0x89D JUMP JUMPDEST PUSH2 0x314 JUMP JUMPDEST PUSH1 0x40 MLOAD PUSH2 0x144 SWAP2 SWAP1 PUSH2 0x8F5 JUMP JUMPDEST PUSH1 0x40 MLOAD DUP1 SWAP2 SUB SWAP1 RETURN JUMPDEST PUSH2 0x155 PUSH2 0x3CB JUMP JUMPDEST PUSH1 0x40 MLOAD PUSH2 0x162 SWAP2 SWAP1 PUSH2 0x746 JUMP JUMPDEST PUSH1 0x40 MLOAD DUP1 SWAP2 SUB SWAP1 RETURN JUMPDEST PUSH2 0x173 PUSH2 0x495 JUMP JUMPDEST STOP JUMPDEST PUSH1 0x60 PUSH1 0x3 DUP1 SLOAD DUP1 PUSH1 0x20 MUL PUSH1 0x20 ADD PUSH1 0x40 MLOAD SWAP1 DUP2 ADD PUSH1 0x40 MSTORE DUP1 SWAP3 SWAP2 SWAP1 DUP2 DUP2 MSTORE PUSH1 0x20 ADD DUP3 DUP1 SLOAD DUP1 ISZERO PUSH2 0x1F9 JUMPI PUSH1 0x20 MUL DUP3 ADD SWAP2 SWAP1 PUSH1 0x0 MSTORE PUSH1 0x20 PUSH1 0x0 KECCAK256 SWAP1 JUMPDEST DUP2 PUSH1 0x0 SWAP1 SLOAD SWAP1 PUSH2 0x100 EXP SWAP1 DIV PUSH20 0xFFFFFFFFFFFFFFFFFFFFFFFFFFFFFFFFFFFFFFFF AND PUSH20 0xFFFFFFFFFFFFFFFFFFFFFFFFFFFFFFFFFFFFFFFF AND DUP2 MSTORE PUSH1 0x20 ADD SWAP1 PUSH1 0x1 ADD SWAP1 DUP1 DUP4 GT PUSH2 0x1AF JUMPI JUMPDEST POP POP POP POP POP SWAP1 POP SWAP1 JUMP JUMPDEST PUSH1 0x3 DUP2 DUP2 SLOAD DUP2 LT PUSH2 0x213 JUMPI PUSH1 0x0 DUP1 REVERT JUMPDEST SWAP1 PUSH1 0x0 MSTORE PUSH1 0x20 PUSH1 0x0 KECCAK256 ADD PUSH1 0x0 SWAP2 POP SLOAD SWAP1 PUSH2 0x100 EXP SWAP1 DIV PUSH20 0xFFFFFFFFFFFFFFFFFFFFFFFFFFFFFFFFFFFFFFFF AND DUP2 JUMP JUMPDEST PUSH1 0x0 DUP2 DUP2 SLOAD DUP2 LT PUSH2 0x252 JUMPI PUSH1 0x0 DUP1 REVERT JUMPDEST SWAP1 PUSH1 0x0 MSTORE PUSH1 0x20 PUSH1 0x0 KECCAK256 ADD PUSH1 0x0 SWAP2 POP SWAP1 POP DUP1 SLOAD PUSH2 0x26D SWAP1 PUSH2 0x93F JUMP JUMPDEST DUP1 PUSH1 0x1F ADD PUSH1 0x20 DUP1 SWAP2 DIV MUL PUSH1 0x20 ADD PUSH1 0x40 MLOAD SWAP1 DUP2 ADD PUSH1 0x40 MSTORE DUP1 SWAP3 SWAP2 SWAP1 DUP2 DUP2 MSTORE PUSH1 0x20 ADD DUP3 DUP1 SLOAD PUSH2 0x299 SWAP1 PUSH2 0x93F JUMP JUMPDEST DUP1 ISZERO PUSH2 0x2E6 JUMPI DUP1 PUSH1 0x1F LT PUSH2 0x2BB JUMPI PUSH2 0x100 DUP1 DUP4 SLOAD DIV MUL DUP4 MSTORE SWAP2 PUSH1 0x20 ADD SWAP2 PUSH2 0x2E6 JUMP JUMPDEST DUP3 ADD SWAP2 SWAP1 PUSH1 0x0 MSTORE PUSH1 0x20 PUSH1 0x0 KECCAK256 SWAP1 JUMPDEST DUP2 SLOAD DUP2 MSTORE SWAP1 PUSH1 0x1 ADD SWAP1 PUSH1 0x20 ADD DUP1 DUP4 GT PUSH2 0x2C9 JUMPI DUP3 SWAP1 SUB PUSH1 0x1F AND DUP3 ADD SWAP2 JUMPDEST POP POP POP POP POP DUP2 JUMP JUMPDEST PUSH1 0x2 PUSH1 0x0 SWAP1 SLOAD SWAP1 PUSH2 0x100 EXP SWAP1 DIV PUSH20 0xFFFFFFFFFFFFFFFFFFFFFFFFFFFFFFFFFFFFFFFF AND DUP2 JUMP JUMPDEST PUSH1 0x0 PUSH1 0x1 PUSH1 0x0 SWAP1 SLOAD SWAP1 PUSH2 0x100 EXP SWAP1 DIV PUSH20 0xFFFFFFFFFFFFFFFFFFFFFFFFFFFFFFFFFFFFFFFF AND PUSH20 0xFFFFFFFFFFFFFFFFFFFFFFFFFFFFFFFFFFFFFFFF AND PUSH4 0x278A7F33 DUP4 PUSH1 0x40 MLOAD DUP3 PUSH4 0xFFFFFFFF AND PUSH1 0xE0 SHL DUP2 MSTORE PUSH1 0x4 ADD PUSH2 0x371 SWAP2 SWAP1 PUSH2 0x746 JUMP JUMPDEST PUSH1 0x20 PUSH1 0x40 MLOAD DUP1 DUP4 SUB DUP2 DUP7 DUP1 EXTCODESIZE ISZERO DUP1 ISZERO PUSH2 0x389 JUMPI PUSH1 0x0 DUP1 REVERT JUMPDEST POP GAS STATICCALL ISZERO DUP1 ISZERO PUSH2 0x39D JUMPI RETURNDATASIZE PUSH1 0x0 DUP1 RETURNDATACOPY RETURNDATASIZE PUSH1 0x0 REVERT JUMPDEST POP POP POP POP PUSH1 0x40 MLOAD RETURNDATASIZE PUSH1 0x1F NOT PUSH1 0x1F DUP3 ADD AND DUP3 ADD DUP1 PUSH1 0x40 MSTORE POP DUP2 ADD SWAP1 PUSH2 0x3C1 SWAP2 SWAP1 PUSH2 0x9AA JUMP JUMPDEST PUSH1 0xFF AND SWAP1 POP SWAP2 SWAP1 POP JUMP JUMPDEST PUSH1 0x60 PUSH1 0x0 PUSH1 0x1 PUSH1 0x0 SWAP1 SLOAD SWAP1 PUSH2 0x100 EXP SWAP1 DIV PUSH20 0xFFFFFFFFFFFFFFFFFFFFFFFFFFFFFFFFFFFFFFFF AND PUSH20 0xFFFFFFFFFFFFFFFFFFFFFFFFFFFFFFFFFFFFFFFF AND PUSH4 0x48441D5F PUSH1 0x40 MLOAD DUP2 PUSH4 0xFFFFFFFF AND PUSH1 0xE0 SHL DUP2 MSTORE PUSH1 0x4 ADD PUSH1 0x0 PUSH1 0x40 MLOAD DUP1 DUP4 SUB DUP2 DUP7 DUP1 EXTCODESIZE ISZERO DUP1 ISZERO PUSH2 0x437 JUMPI PUSH1 0x0 DUP1 REVERT JUMPDEST POP GAS STATICCALL ISZERO DUP1 ISZERO PUSH2 0x44B JUMPI RETURNDATASIZE PUSH1 0x0 DUP1 RETURNDATACOPY RETURNDATASIZE PUSH1 0x0 REVERT JUMPDEST POP POP POP POP PUSH1 0x40 MLOAD RETURNDATASIZE PUSH1 0x0 DUP3 RETURNDATACOPY RETURNDATASIZE PUSH1 0x1F NOT PUSH1 0x1F DUP3 ADD AND DUP3 ADD DUP1 PUSH1 0x40 MSTORE POP DUP2 ADD SWAP1 PUSH2 0x474 SWAP2 SWAP1 PUSH2 0xB1B JUMP JUMPDEST SWAP1 POP DUP1 PUSH1 0x1 PUSH1 0x3 DUP2 LT PUSH2 0x48A JUMPI PUSH2 0x489 PUSH2 0xB64 JUMP JUMPDEST JUMPDEST PUSH1 0x20 MUL ADD MLOAD SWAP2 POP POP SWAP1 JUMP JUMPDEST PUSH1 0x3 CALLER SWAP1 DUP1 PUSH1 0x1 DUP2 SLOAD ADD DUP1 DUP3 SSTORE DUP1 SWAP2 POP POP PUSH1 0x1 SWAP1 SUB SWAP1 PUSH1 0x0 MSTORE PUSH1 0x20 PUSH1 0x0 KECCAK256 ADD PUSH1 0x0 SWAP1 SWAP2 SWAP1 SWAP2 SWAP1 SWAP2 PUSH2 0x100 EXP DUP2 SLOAD DUP2 PUSH20 0xFFFFFFFFFFFFFFFFFFFFFFFFFFFFFFFFFFFFFFFF MUL NOT AND SWAP1 DUP4 PUSH20 0xFFFFFFFFFFFFFFFFFFFFFFFFFFFFFFFFFFFFFFFF AND MUL OR SWAP1 SSTORE POP JUMP JUMPDEST PUSH1 0x0 DUP2 MLOAD SWAP1 POP SWAP2 SWAP1 POP JUMP JUMPDEST PUSH1 0x0 DUP3 DUP3 MSTORE PUSH1 0x20 DUP3 ADD SWAP1 POP SWAP3 SWAP2 POP POP JUMP JUMPDEST PUSH1 0x0 DUP2 SWAP1 POP PUSH1 0x20 DUP3 ADD SWAP1 POP SWAP2 SWAP1 POP JUMP JUMPDEST PUSH1 0x0 PUSH20 0xFFFFFFFFFFFFFFFFFFFFFFFFFFFFFFFFFFFFFFFF DUP3 AND SWAP1 POP SWAP2 SWAP1 POP JUMP JUMPDEST PUSH1 0x0 PUSH2 0x551 DUP3 PUSH2 0x526 JUMP JUMPDEST SWAP1 POP SWAP2 SWAP1 POP JUMP JUMPDEST PUSH2 0x561 DUP2 PUSH2 0x546 JUMP JUMPDEST DUP3 MSTORE POP POP JUMP JUMPDEST PUSH1 0x0 PUSH2 0x573 DUP4 DUP4 PUSH2 0x558 JUMP JUMPDEST PUSH1 0x20 DUP4 ADD SWAP1 POP SWAP3 SWAP2 POP POP JUMP JUMPDEST PUSH1 0x0 PUSH1 0x20 DUP3 ADD SWAP1 POP SWAP2 SWAP1 POP JUMP JUMPDEST PUSH1 0x0 PUSH2 0x597 DUP3 PUSH2 0x4FA JUMP JUMPDEST PUSH2 0x5A1 DUP2 DUP6 PUSH2 0x505 JUMP JUMPDEST SWAP4 POP PUSH2 0x5AC DUP4 PUSH2 0x516 JUMP JUMPDEST DUP1 PUSH1 0x0 JUMPDEST DUP4 DUP2 LT ISZERO PUSH2 0x5DD JUMPI DUP2 MLOAD PUSH2 0x5C4 DUP9 DUP3 PUSH2 0x567 JUMP JUMPDEST SWAP8 POP PUSH2 0x5CF DUP4 PUSH2 0x57F JUMP JUMPDEST SWAP3 POP POP PUSH1 0x1 DUP2 ADD SWAP1 POP PUSH2 0x5B0 JUMP JUMPDEST POP DUP6 SWAP4 POP POP POP POP SWAP3 SWAP2 POP POP JUMP JUMPDEST PUSH1 0x0 PUSH1 0x20 DUP3 ADD SWAP1 POP DUP2 DUP2 SUB PUSH1 0x0 DUP4 ADD MSTORE PUSH2 0x604 DUP2 DUP5 PUSH2 0x58C JUMP JUMPDEST SWAP1 POP SWAP3 SWAP2 POP POP JUMP JUMPDEST PUSH1 0x0 PUSH1 0x40 MLOAD SWAP1 POP SWAP1 JUMP JUMPDEST PUSH1 0x0 DUP1 REVERT JUMPDEST PUSH1 0x0 DUP1 REVERT JUMPDEST PUSH1 0x0 DUP2 SWAP1 POP SWAP2 SWAP1 POP JUMP JUMPDEST PUSH2 0x633 DUP2 PUSH2 0x620 JUMP JUMPDEST DUP2 EQ PUSH2 0x63E JUMPI PUSH1 0x0 DUP1 REVERT JUMPDEST POP JUMP JUMPDEST PUSH1 0x0 DUP2 CALLDATALOAD SWAP1 POP PUSH2 0x650 DUP2 PUSH2 0x62A JUMP JUMPDEST SWAP3 SWAP2 POP POP JUMP JUMPDEST PUSH1 0x0 PUSH1 0x20 DUP3 DUP5 SUB SLT ISZERO PUSH2 0x66C JUMPI PUSH2 0x66B PUSH2 0x616 JUMP JUMPDEST JUMPDEST PUSH1 0x0 PUSH2 0x67A DUP5 DUP3 DUP6 ADD PUSH2 0x641 JUMP JUMPDEST SWAP2 POP POP SWAP3 SWAP2 POP POP JUMP JUMPDEST PUSH2 0x68C DUP2 PUSH2 0x546 JUMP JUMPDEST DUP3 MSTORE POP POP JUMP JUMPDEST PUSH1 0x0 PUSH1 0x20 DUP3 ADD SWAP1 POP PUSH2 0x6A7 PUSH1 0x0 DUP4 ADD DUP5 PUSH2 0x683 JUMP JUMPDEST SWAP3 SWAP2 POP POP JUMP JUMPDEST PUSH1 0x0 DUP2 MLOAD SWAP1 POP SWAP2 SWAP1 POP JUMP JUMPDEST PUSH1 0x0 DUP3 DUP3 MSTORE PUSH1 0x20 DUP3 ADD SWAP1 POP SWAP3 SWAP2 POP POP JUMP JUMPDEST PUSH1 0x0 JUMPDEST DUP4 DUP2 LT ISZERO PUSH2 0x6E7 JUMPI DUP1 DUP3 ADD MLOAD DUP2 DUP5 ADD MSTORE PUSH1 0x20 DUP2 ADD SWAP1 POP PUSH2 0x6CC JUMP JUMPDEST DUP4 DUP2 GT ISZERO PUSH2 0x6F6 JUMPI PUSH1 0x0 DUP5 DUP5 ADD MSTORE JUMPDEST POP POP POP POP JUMP JUMPDEST PUSH1 0x0 PUSH1 0x1F NOT PUSH1 0x1F DUP4 ADD AND SWAP1 POP SWAP2 SWAP1 POP JUMP JUMPDEST PUSH1 0x0 PUSH2 0x718 DUP3 PUSH2 0x6AD JUMP JUMPDEST PUSH2 0x722 DUP2 DUP6 PUSH2 0x6B8 JUMP JUMPDEST SWAP4 POP PUSH2 0x732 DUP2 DUP6 PUSH1 0x20 DUP7 ADD PUSH2 0x6C9 JUMP JUMPDEST PUSH2 0x73B DUP2 PUSH2 0x6FC JUMP JUMPDEST DUP5 ADD SWAP2 POP POP SWAP3 SWAP2 POP POP JUMP JUMPDEST PUSH1 0x0 PUSH1 0x20 DUP3 ADD SWAP1 POP DUP2 DUP2 SUB PUSH1 0x0 DUP4 ADD MSTORE PUSH2 0x760 DUP2 DUP5 PUSH2 0x70D JUMP JUMPDEST SWAP1 POP SWAP3 SWAP2 POP POP JUMP JUMPDEST PUSH1 0x0 DUP1 REVERT JUMPDEST PUSH1 0x0 DUP1 REVERT JUMPDEST PUSH32 0x4E487B7100000000000000000000000000000000000000000000000000000000 PUSH1 0x0 MSTORE PUSH1 0x41 PUSH1 0x4 MSTORE PUSH1 0x24 PUSH1 0x0 REVERT JUMPDEST PUSH2 0x7AA DUP3 PUSH2 0x6FC JUMP JUMPDEST DUP2 ADD DUP2 DUP2 LT PUSH8 0xFFFFFFFFFFFFFFFF DUP3 GT OR ISZERO PUSH2 0x7C9 JUMPI PUSH2 0x7C8 PUSH2 0x772 JUMP JUMPDEST JUMPDEST DUP1 PUSH1 0x40 MSTORE POP POP POP JUMP JUMPDEST PUSH1 0x0 PUSH2 0x7DC PUSH2 0x60C JUMP JUMPDEST SWAP1 POP PUSH2 0x7E8 DUP3 DUP3 PUSH2 0x7A1 JUMP JUMPDEST SWAP2 SWAP1 POP JUMP JUMPDEST PUSH1 0x0 PUSH8 0xFFFFFFFFFFFFFFFF DUP3 GT ISZERO PUSH2 0x808 JUMPI PUSH2 0x807 PUSH2 0x772 JUMP JUMPDEST JUMPDEST PUSH2 0x811 DUP3 PUSH2 0x6FC JUMP JUMPDEST SWAP1 POP PUSH1 0x20 DUP2 ADD SWAP1 POP SWAP2 SWAP1 POP JUMP JUMPDEST DUP3 DUP2 DUP4 CALLDATACOPY PUSH1 0x0 DUP4 DUP4 ADD MSTORE POP POP POP JUMP JUMPDEST PUSH1 0x0 PUSH2 0x840 PUSH2 0x83B DUP5 PUSH2 0x7ED JUMP JUMPDEST PUSH2 0x7D2 JUMP JUMPDEST SWAP1 POP DUP3 DUP2 MSTORE PUSH1 0x20 DUP2 ADD DUP5 DUP5 DUP5 ADD GT ISZERO PUSH2 0x85C JUMPI PUSH2 0x85B PUSH2 0x76D JUMP JUMPDEST JUMPDEST PUSH2 0x867 DUP5 DUP3 DUP6 PUSH2 0x81E JUMP JUMPDEST POP SWAP4 SWAP3 POP POP POP JUMP JUMPDEST PUSH1 0x0 DUP3 PUSH1 0x1F DUP4 ADD SLT PUSH2 0x884 JUMPI PUSH2 0x883 PUSH2 0x768 JUMP JUMPDEST JUMPDEST DUP2 CALLDATALOAD PUSH2 0x894 DUP5 DUP3 PUSH1 0x20 DUP7 ADD PUSH2 0x82D JUMP JUMPDEST SWAP2 POP POP SWAP3 SWAP2 POP POP JUMP JUMPDEST PUSH1 0x0 PUSH1 0x20 DUP3 DUP5 SUB SLT ISZERO PUSH2 0x8B3 JUMPI PUSH2 0x8B2 PUSH2 0x616 JUMP JUMPDEST JUMPDEST PUSH1 0x0 DUP3 ADD CALLDATALOAD PUSH8 0xFFFFFFFFFFFFFFFF DUP2 GT ISZERO PUSH2 0x8D1 JUMPI PUSH2 0x8D0 PUSH2 0x61B JUMP JUMPDEST JUMPDEST PUSH2 0x8DD DUP5 DUP3 DUP6 ADD PUSH2 0x86F JUMP JUMPDEST SWAP2 POP POP SWAP3 SWAP2 POP POP JUMP JUMPDEST PUSH2 0x8EF DUP2 PUSH2 0x620 JUMP JUMPDEST DUP3 MSTORE POP POP JUMP JUMPDEST PUSH1 0x0 PUSH1 0x20 DUP3 ADD SWAP1 POP PUSH2 0x90A PUSH1 0x0 DUP4 ADD DUP5 PUSH2 0x8E6 JUMP JUMPDEST SWAP3 SWAP2 POP POP JUMP JUMPDEST PUSH32 0x4E487B7100000000000000000000000000000000000000000000000000000000 PUSH1 0x0 MSTORE PUSH1 0x22 PUSH1 0x4 MSTORE PUSH1 0x24 PUSH1 0x0 REVERT JUMPDEST PUSH1 0x0 PUSH1 0x2 DUP3 DIV SWAP1 POP PUSH1 0x1 DUP3 AND DUP1 PUSH2 0x957 JUMPI PUSH1 0x7F DUP3 AND SWAP2 POP JUMPDEST PUSH1 0x20 DUP3 LT DUP2 EQ ISZERO PUSH2 0x96B JUMPI PUSH2 0x96A PUSH2 0x910 JUMP JUMPDEST JUMPDEST POP SWAP2 SWAP1 POP JUMP JUMPDEST PUSH1 0x0 PUSH1 0xFF DUP3 AND SWAP1 POP SWAP2 SWAP1 POP JUMP JUMPDEST PUSH2 0x987 DUP2 PUSH2 0x971 JUMP JUMPDEST DUP2 EQ PUSH2 0x992 JUMPI PUSH1 0x0 DUP1 REVERT JUMPDEST POP JUMP JUMPDEST PUSH1 0x0 DUP2 MLOAD SWAP1 POP PUSH2 0x9A4 DUP2 PUSH2 0x97E JUMP JUMPDEST SWAP3 SWAP2 POP POP JUMP JUMPDEST PUSH1 0x0 PUSH1 0x20 DUP3 DUP5 SUB SLT ISZERO PUSH2 0x9C0 JUMPI PUSH2 0x9BF PUSH2 0x616 JUMP JUMPDEST JUMPDEST PUSH1 0x0 PUSH2 0x9CE DUP5 DUP3 DUP6 ADD PUSH2 0x995 JUMP JUMPDEST SWAP2 POP POP SWAP3 SWAP2 POP POP JUMP JUMPDEST PUSH1 0x0 PUSH8 0xFFFFFFFFFFFFFFFF DUP3 GT ISZERO PUSH2 0x9F2 JUMPI PUSH2 0x9F1 PUSH2 0x772 JUMP JUMPDEST JUMPDEST PUSH1 0x20 DUP3 MUL SWAP1 POP SWAP2 SWAP1 POP JUMP JUMPDEST PUSH1 0x0 DUP1 REVERT JUMPDEST PUSH1 0x0 PUSH2 0xA15 PUSH2 0xA10 DUP5 PUSH2 0x7ED JUMP JUMPDEST PUSH2 0x7D2 JUMP JUMPDEST SWAP1 POP DUP3 DUP2 MSTORE PUSH1 0x20 DUP2 ADD DUP5 DUP5 DUP5 ADD GT ISZERO PUSH2 0xA31 JUMPI PUSH2 0xA30 PUSH2 0x76D JUMP JUMPDEST JUMPDEST PUSH2 0xA3C DUP5 DUP3 DUP6 PUSH2 0x6C9 JUMP JUMPDEST POP SWAP4 SWAP3 POP POP POP JUMP JUMPDEST PUSH1 0x0 DUP3 PUSH1 0x1F DUP4 ADD SLT PUSH2 0xA59 JUMPI PUSH2 0xA58 PUSH2 0x768 JUMP JUMPDEST JUMPDEST DUP2 MLOAD PUSH2 0xA69 DUP5 DUP3 PUSH1 0x20 DUP7 ADD PUSH2 0xA02 JUMP JUMPDEST SWAP2 POP POP SWAP3 SWAP2 POP POP JUMP JUMPDEST PUSH1 0x0 PUSH2 0xA85 PUSH2 0xA80 DUP5 PUSH2 0x9D7 JUMP JUMPDEST PUSH2 0x7D2 JUMP JUMPDEST SWAP1 POP DUP1 PUSH1 0x20 DUP5 MUL DUP4 ADD DUP6 DUP2 GT ISZERO PUSH2 0xA9F JUMPI PUSH2 0xA9E PUSH2 0x9FD JUMP JUMPDEST JUMPDEST DUP4 JUMPDEST DUP2 DUP2 LT ISZERO PUSH2 0xAE6 JUMPI DUP1 MLOAD PUSH8 0xFFFFFFFFFFFFFFFF DUP2 GT ISZERO PUSH2 0xAC4 JUMPI PUSH2 0xAC3 PUSH2 0x768 JUMP JUMPDEST JUMPDEST DUP1 DUP7 ADD PUSH2 0xAD1 DUP10 DUP3 PUSH2 0xA44 JUMP JUMPDEST DUP6 MSTORE PUSH1 0x20 DUP6 ADD SWAP5 POP POP POP PUSH1 0x20 DUP2 ADD SWAP1 POP PUSH2 0xAA1 JUMP JUMPDEST POP POP POP SWAP4 SWAP3 POP POP POP JUMP JUMPDEST PUSH1 0x0 DUP3 PUSH1 0x1F DUP4 ADD SLT PUSH2 0xB05 JUMPI PUSH2 0xB04 PUSH2 0x768 JUMP JUMPDEST JUMPDEST PUSH1 0x3 PUSH2 0xB12 DUP5 DUP3 DUP6 PUSH2 0xA72 JUMP JUMPDEST SWAP2 POP POP SWAP3 SWAP2 POP POP JUMP JUMPDEST PUSH1 0x0 PUSH1 0x20 DUP3 DUP5 SUB SLT ISZERO PUSH2 0xB31 JUMPI PUSH2 0xB30 PUSH2 0x616 JUMP JUMPDEST JUMPDEST PUSH1 0x0 DUP3 ADD MLOAD PUSH8 0xFFFFFFFFFFFFFFFF DUP2 GT ISZERO PUSH2 0xB4F JUMPI PUSH2 0xB4E PUSH2 0x61B JUMP JUMPDEST JUMPDEST PUSH2 0xB5B DUP5 DUP3 DUP6 ADD PUSH2 0xAF0 JUMP JUMPDEST SWAP2 POP POP SWAP3 SWAP2 POP POP JUMP JUMPDEST PUSH32 0x4E487B7100000000000000000000000000000000000000000000000000000000 PUSH1 0x0 MSTORE PUSH1 0x32 PUSH1 0x4 MSTORE PUSH1 0x24 PUSH1 0x0 REVERT INVALID LOG2 PUSH5 0x6970667358 0x22 SLT KECCAK256 XOR 0x4C BLOCKHASH LOG2 0xAF 0xB7 0xA9 0xB4 0xC5 DUP7 SWAP9 0xD5 0xDA DELEGATECALL 0xA6 LOG4 ADDMOD PUSH20 0x411E8A304D19ADC42928B3B1625964736F6C6343 STOP ADDMOD ADDMOD STOP CALLER "
				},
				"gasEstimates": {
					"creation": {
						"codeDepositCost": "603400",
						"executionCost": "49172",
						"totalCost": "652572"
					},
					"external": {
						"createGatcha()": "48788",
						"getUsers()": "infinite",
						"ownerAddress()": "2514",
						"rarityList(uint256)": "infinite",
						"rarityListFunc()": "infinite",
						"rarityRateFunc(string)": "infinite",
						"users(uint256)": "4979"
					}
				},
				"methodIdentifiers": {
					"createGatcha()": "e917ec96",
					"getUsers()": "00ce8e3e",
					"ownerAddress()": "8f84aa09",
					"rarityList(uint256)": "6fd3d9e2",
					"rarityListFunc()": "bb4a376b",
					"rarityRateFunc(string)": "a7beb5d0",
					"users(uint256)": "365b98b2"
				}
			},
			"storageLayout": {
				"storage": [
					{
						"astId": 5,
						"contract": "contracts/TestInterview.sol:TestInterview",
						"label": "rarityList",
						"offset": 0,
						"slot": "0",
						"type": "t_array(t_string_storage)dyn_storage"
					},
					{
						"astId": 11,
						"contract": "contracts/TestInterview.sol:TestInterview",
						"label": "objINFT",
						"offset": 0,
						"slot": "1",
						"type": "t_contract(INFT)104"
					},
					{
						"astId": 14,
						"contract": "contracts/TestInterview.sol:TestInterview",
						"label": "ownerAddress",
						"offset": 0,
						"slot": "2",
						"type": "t_address"
					},
					{
						"astId": 17,
						"contract": "contracts/TestInterview.sol:TestInterview",
						"label": "users",
						"offset": 0,
						"slot": "3",
						"type": "t_array(t_address)dyn_storage"
					}
				],
				"types": {
					"t_address": {
						"encoding": "inplace",
						"label": "address",
						"numberOfBytes": "20"
					},
					"t_array(t_address)dyn_storage": {
						"base": "t_address",
						"encoding": "dynamic_array",
						"label": "address[]",
						"numberOfBytes": "32"
					},
					"t_array(t_string_storage)dyn_storage": {
						"base": "t_string_storage",
						"encoding": "dynamic_array",
						"label": "string[]",
						"numberOfBytes": "32"
					},
					"t_contract(INFT)104": {
						"encoding": "inplace",
						"label": "contract INFT",
						"numberOfBytes": "20"
					},
					"t_string_storage": {
						"encoding": "bytes",
						"label": "string",
						"numberOfBytes": "32"
					}
				}
			},
			"userdoc": {
				"kind": "user",
				"methods": {},
				"version": 1
			}
		}
	}
}