{
	"contracts/TestInterview.sol": {
		"TestInterview": {
			"abi": [
				{
					"inputs": [
						{
							"internalType": "uint256",
							"name": "",
							"type": "uint256"
						}
					],
					"name": "rarityList",
					"outputs": [
						{
							"internalType": "string",
							"name": "",
							"type": "string"
						}
					],
					"stateMutability": "view",
					"type": "function"
				},
				{
					"inputs": [],
					"name": "rarityListFunc",
					"outputs": [
						{
							"internalType": "string",
							"name": "",
							"type": "string"
						}
					],
					"stateMutability": "view",
					"type": "function"
				}
			],
			"devdoc": {
				"kind": "dev",
				"methods": {},
				"version": 1
			},
			"evm": {
				"assembly": "    /* \"contracts/TestInterview.sol\":208:677  contract TestInterview {... */\n  mstore(0x40, 0x80)\n  callvalue\n  dup1\n  iszero\n  tag_1\n  jumpi\n  0x00\n  dup1\n  revert\ntag_1:\n  pop\n  dataSize(sub_0)\n  dup1\n  dataOffset(sub_0)\n  0x00\n  codecopy\n  0x00\n  return\nstop\n\nsub_0: assembly {\n        /* \"contracts/TestInterview.sol\":208:677  contract TestInterview {... */\n      mstore(0x40, 0x80)\n      callvalue\n      dup1\n      iszero\n      tag_1\n      jumpi\n      0x00\n      dup1\n      revert\n    tag_1:\n      pop\n      jumpi(tag_2, lt(calldatasize, 0x04))\n      shr(0xe0, calldataload(0x00))\n      dup1\n      0x6fd3d9e2\n      eq\n      tag_3\n      jumpi\n      dup1\n      0xbb4a376b\n      eq\n      tag_4\n      jumpi\n    tag_2:\n      0x00\n      dup1\n      revert\n        /* \"contracts/TestInterview.sol\":238:264  string[] public rarityList */\n    tag_3:\n      tag_5\n      0x04\n      dup1\n      calldatasize\n      sub\n      dup2\n      add\n      swap1\n      tag_6\n      swap2\n      swap1\n      tag_7\n      jump\t// in\n    tag_6:\n      tag_8\n      jump\t// in\n    tag_5:\n      mload(0x40)\n      tag_9\n      swap2\n      swap1\n      tag_10\n      jump\t// in\n    tag_9:\n      mload(0x40)\n      dup1\n      swap2\n      sub\n      swap1\n      return\n        /* \"contracts/TestInterview.sol\":273:674  function rarityListFunc () public view returns(string memory) {... */\n    tag_4:\n      tag_11\n      tag_12\n      jump\t// in\n    tag_11:\n      mload(0x40)\n      tag_13\n      swap2\n      swap1\n      tag_10\n      jump\t// in\n    tag_13:\n      mload(0x40)\n      dup1\n      swap2\n      sub\n      swap1\n      return\n        /* \"contracts/TestInterview.sol\":238:264  string[] public rarityList */\n    tag_8:\n      0x00\n      dup2\n      dup2\n      sload\n      dup2\n      lt\n      tag_14\n      jumpi\n      0x00\n      dup1\n      revert\n    tag_14:\n      swap1\n      0x00\n      mstore\n      keccak256(0x00, 0x20)\n      add\n      0x00\n      swap2\n      pop\n      swap1\n      pop\n      dup1\n      sload\n      tag_16\n      swap1\n      tag_17\n      jump\t// in\n    tag_16:\n      dup1\n      0x1f\n      add\n      0x20\n      dup1\n      swap2\n      div\n      mul\n      0x20\n      add\n      mload(0x40)\n      swap1\n      dup2\n      add\n      0x40\n      mstore\n      dup1\n      swap3\n      swap2\n      swap1\n      dup2\n      dup2\n      mstore\n      0x20\n      add\n      dup3\n      dup1\n      sload\n      tag_18\n      swap1\n      tag_17\n      jump\t// in\n    tag_18:\n      dup1\n      iszero\n      tag_19\n      jumpi\n      dup1\n      0x1f\n      lt\n      tag_20\n      jumpi\n      0x0100\n      dup1\n      dup4\n      sload\n      div\n      mul\n      dup4\n      mstore\n      swap2\n      0x20\n      add\n      swap2\n      jump(tag_19)\n    tag_20:\n      dup3\n      add\n      swap2\n      swap1\n      0x00\n      mstore\n      keccak256(0x00, 0x20)\n      swap1\n    tag_21:\n      dup2\n      sload\n      dup2\n      mstore\n      swap1\n      0x01\n      add\n      swap1\n      0x20\n      add\n      dup1\n      dup4\n      gt\n      tag_21\n      jumpi\n      dup3\n      swap1\n      sub\n      0x1f\n      and\n      dup3\n      add\n      swap2\n    tag_19:\n      pop\n      pop\n      pop\n      pop\n      pop\n      dup2\n      jump\t// out\n        /* \"contracts/TestInterview.sol\":273:674  function rarityListFunc () public view returns(string memory) {... */\n    tag_12:\n        /* \"contracts/TestInterview.sol\":320:333  string memory */\n      0x60\n        /* \"contracts/TestInterview.sol\":346:360  INFT priceFeed */\n      0x00\n        /* \"contracts/TestInterview.sol\":368:410  0x50C7a09925375438D2cEe94C5c59266c6fFAAf8C */\n      0x50c7a09925375438d2cee94c5c59266c6ffaaf8c\n        /* \"contracts/TestInterview.sol\":346:411  INFT priceFeed = INFT(0x50C7a09925375438D2cEe94C5c59266c6fFAAf8C) */\n      swap1\n      pop\n        /* \"contracts/TestInterview.sol\":422:454  string[3] memory localRarityList */\n      0x00\n        /* \"contracts/TestInterview.sol\":457:466  priceFeed */\n      dup2\n        /* \"contracts/TestInterview.sol\":457:480  priceFeed.getRarityList */\n      0xffffffffffffffffffffffffffffffffffffffff\n      and\n      0x48441d5f\n        /* \"contracts/TestInterview.sol\":457:482  priceFeed.getRarityList() */\n      mload(0x40)\n      dup2\n      0xffffffff\n      and\n      0xe0\n      shl\n      dup2\n      mstore\n      0x04\n      add\n      0x00\n      mload(0x40)\n      dup1\n      dup4\n      sub\n      dup2\n      dup7\n      dup1\n      extcodesize\n      iszero\n      dup1\n      iszero\n      tag_23\n      jumpi\n      0x00\n      dup1\n      revert\n    tag_23:\n      pop\n      gas\n      staticcall\n      iszero\n      dup1\n      iszero\n      tag_25\n      jumpi\n      returndatasize\n      0x00\n      dup1\n      returndatacopy\n      revert(0x00, returndatasize)\n    tag_25:\n      pop\n      pop\n      pop\n      pop\n      mload(0x40)\n      returndatasize\n      0x00\n      dup3\n      returndatacopy\n      returndatasize\n      not(0x1f)\n      0x1f\n      dup3\n      add\n      and\n      dup3\n      add\n      dup1\n      0x40\n      mstore\n      pop\n      dup2\n      add\n      swap1\n      tag_26\n      swap2\n      swap1\n      tag_27\n      jump\t// in\n    tag_26:\n        /* \"contracts/TestInterview.sol\":422:482  string[3] memory localRarityList = priceFeed.getRarityList() */\n      swap1\n      pop\n        /* \"contracts/TestInterview.sol\":648:663  localRarityList */\n      dup1\n        /* \"contracts/TestInterview.sol\":664:665  1 */\n      0x01\n        /* \"contracts/TestInterview.sol\":648:666  localRarityList[1] */\n      0x03\n      dup2\n      lt\n      tag_28\n      jumpi\n      tag_29\n      tag_30\n      jump\t// in\n    tag_29:\n    tag_28:\n      0x20\n      mul\n      add\n      mload\n        /* \"contracts/TestInterview.sol\":641:666  return localRarityList[1] */\n      swap3\n      pop\n      pop\n      pop\n        /* \"contracts/TestInterview.sol\":273:674  function rarityListFunc () public view returns(string memory) {... */\n      swap1\n      jump\t// out\n        /* \"#utility.yul\":7:82   */\n    tag_31:\n        /* \"#utility.yul\":40:46   */\n      0x00\n        /* \"#utility.yul\":73:75   */\n      0x40\n        /* \"#utility.yul\":67:76   */\n      mload\n        /* \"#utility.yul\":57:76   */\n      swap1\n      pop\n        /* \"#utility.yul\":7:82   */\n      swap1\n      jump\t// out\n        /* \"#utility.yul\":88:205   */\n    tag_32:\n        /* \"#utility.yul\":197:198   */\n      0x00\n        /* \"#utility.yul\":194:195   */\n      dup1\n        /* \"#utility.yul\":187:199   */\n      revert\n        /* \"#utility.yul\":211:328   */\n    tag_33:\n        /* \"#utility.yul\":320:321   */\n      0x00\n        /* \"#utility.yul\":317:318   */\n      dup1\n        /* \"#utility.yul\":310:322   */\n      revert\n        /* \"#utility.yul\":334:411   */\n    tag_34:\n        /* \"#utility.yul\":371:378   */\n      0x00\n        /* \"#utility.yul\":400:405   */\n      dup2\n        /* \"#utility.yul\":389:405   */\n      swap1\n      pop\n        /* \"#utility.yul\":334:411   */\n      swap2\n      swap1\n      pop\n      jump\t// out\n        /* \"#utility.yul\":417:539   */\n    tag_35:\n        /* \"#utility.yul\":490:514   */\n      tag_61\n        /* \"#utility.yul\":508:513   */\n      dup2\n        /* \"#utility.yul\":490:514   */\n      tag_34\n      jump\t// in\n    tag_61:\n        /* \"#utility.yul\":483:488   */\n      dup2\n        /* \"#utility.yul\":480:515   */\n      eq\n        /* \"#utility.yul\":470:533   */\n      tag_62\n      jumpi\n        /* \"#utility.yul\":529:530   */\n      0x00\n        /* \"#utility.yul\":526:527   */\n      dup1\n        /* \"#utility.yul\":519:531   */\n      revert\n        /* \"#utility.yul\":470:533   */\n    tag_62:\n        /* \"#utility.yul\":417:539   */\n      pop\n      jump\t// out\n        /* \"#utility.yul\":545:684   */\n    tag_36:\n        /* \"#utility.yul\":591:596   */\n      0x00\n        /* \"#utility.yul\":629:635   */\n      dup2\n        /* \"#utility.yul\":616:636   */\n      calldataload\n        /* \"#utility.yul\":607:636   */\n      swap1\n      pop\n        /* \"#utility.yul\":645:678   */\n      tag_64\n        /* \"#utility.yul\":672:677   */\n      dup2\n        /* \"#utility.yul\":645:678   */\n      tag_35\n      jump\t// in\n    tag_64:\n        /* \"#utility.yul\":545:684   */\n      swap3\n      swap2\n      pop\n      pop\n      jump\t// out\n        /* \"#utility.yul\":690:1019   */\n    tag_7:\n        /* \"#utility.yul\":749:755   */\n      0x00\n        /* \"#utility.yul\":798:800   */\n      0x20\n        /* \"#utility.yul\":786:795   */\n      dup3\n        /* \"#utility.yul\":777:784   */\n      dup5\n        /* \"#utility.yul\":773:796   */\n      sub\n        /* \"#utility.yul\":769:801   */\n      slt\n        /* \"#utility.yul\":766:885   */\n      iszero\n      tag_66\n      jumpi\n        /* \"#utility.yul\":804:883   */\n      tag_67\n      tag_32\n      jump\t// in\n    tag_67:\n        /* \"#utility.yul\":766:885   */\n    tag_66:\n        /* \"#utility.yul\":924:925   */\n      0x00\n        /* \"#utility.yul\":949:1002   */\n      tag_68\n        /* \"#utility.yul\":994:1001   */\n      dup5\n        /* \"#utility.yul\":985:991   */\n      dup3\n        /* \"#utility.yul\":974:983   */\n      dup6\n        /* \"#utility.yul\":970:992   */\n      add\n        /* \"#utility.yul\":949:1002   */\n      tag_36\n      jump\t// in\n    tag_68:\n        /* \"#utility.yul\":939:1002   */\n      swap2\n      pop\n        /* \"#utility.yul\":895:1012   */\n      pop\n        /* \"#utility.yul\":690:1019   */\n      swap3\n      swap2\n      pop\n      pop\n      jump\t// out\n        /* \"#utility.yul\":1025:1124   */\n    tag_37:\n        /* \"#utility.yul\":1077:1083   */\n      0x00\n        /* \"#utility.yul\":1111:1116   */\n      dup2\n        /* \"#utility.yul\":1105:1117   */\n      mload\n        /* \"#utility.yul\":1095:1117   */\n      swap1\n      pop\n        /* \"#utility.yul\":1025:1124   */\n      swap2\n      swap1\n      pop\n      jump\t// out\n        /* \"#utility.yul\":1130:1299   */\n    tag_38:\n        /* \"#utility.yul\":1214:1225   */\n      0x00\n        /* \"#utility.yul\":1248:1254   */\n      dup3\n        /* \"#utility.yul\":1243:1246   */\n      dup3\n        /* \"#utility.yul\":1236:1255   */\n      mstore\n        /* \"#utility.yul\":1288:1292   */\n      0x20\n        /* \"#utility.yul\":1283:1286   */\n      dup3\n        /* \"#utility.yul\":1279:1293   */\n      add\n        /* \"#utility.yul\":1264:1293   */\n      swap1\n      pop\n        /* \"#utility.yul\":1130:1299   */\n      swap3\n      swap2\n      pop\n      pop\n      jump\t// out\n        /* \"#utility.yul\":1305:1612   */\n    tag_39:\n        /* \"#utility.yul\":1373:1374   */\n      0x00\n        /* \"#utility.yul\":1383:1496   */\n    tag_72:\n        /* \"#utility.yul\":1397:1403   */\n      dup4\n        /* \"#utility.yul\":1394:1395   */\n      dup2\n        /* \"#utility.yul\":1391:1404   */\n      lt\n        /* \"#utility.yul\":1383:1496   */\n      iszero\n      tag_74\n      jumpi\n        /* \"#utility.yul\":1482:1483   */\n      dup1\n        /* \"#utility.yul\":1477:1480   */\n      dup3\n        /* \"#utility.yul\":1473:1484   */\n      add\n        /* \"#utility.yul\":1467:1485   */\n      mload\n        /* \"#utility.yul\":1463:1464   */\n      dup2\n        /* \"#utility.yul\":1458:1461   */\n      dup5\n        /* \"#utility.yul\":1454:1465   */\n      add\n        /* \"#utility.yul\":1447:1486   */\n      mstore\n        /* \"#utility.yul\":1419:1421   */\n      0x20\n        /* \"#utility.yul\":1416:1417   */\n      dup2\n        /* \"#utility.yul\":1412:1422   */\n      add\n        /* \"#utility.yul\":1407:1422   */\n      swap1\n      pop\n        /* \"#utility.yul\":1383:1496   */\n      jump(tag_72)\n    tag_74:\n        /* \"#utility.yul\":1514:1520   */\n      dup4\n        /* \"#utility.yul\":1511:1512   */\n      dup2\n        /* \"#utility.yul\":1508:1521   */\n      gt\n        /* \"#utility.yul\":1505:1606   */\n      iszero\n      tag_75\n      jumpi\n        /* \"#utility.yul\":1594:1595   */\n      0x00\n        /* \"#utility.yul\":1585:1591   */\n      dup5\n        /* \"#utility.yul\":1580:1583   */\n      dup5\n        /* \"#utility.yul\":1576:1592   */\n      add\n        /* \"#utility.yul\":1569:1596   */\n      mstore\n        /* \"#utility.yul\":1505:1606   */\n    tag_75:\n        /* \"#utility.yul\":1354:1612   */\n      pop\n        /* \"#utility.yul\":1305:1612   */\n      pop\n      pop\n      pop\n      jump\t// out\n        /* \"#utility.yul\":1618:1720   */\n    tag_40:\n        /* \"#utility.yul\":1659:1665   */\n      0x00\n        /* \"#utility.yul\":1710:1712   */\n      0x1f\n        /* \"#utility.yul\":1706:1713   */\n      not\n        /* \"#utility.yul\":1701:1703   */\n      0x1f\n        /* \"#utility.yul\":1694:1699   */\n      dup4\n        /* \"#utility.yul\":1690:1704   */\n      add\n        /* \"#utility.yul\":1686:1714   */\n      and\n        /* \"#utility.yul\":1676:1714   */\n      swap1\n      pop\n        /* \"#utility.yul\":1618:1720   */\n      swap2\n      swap1\n      pop\n      jump\t// out\n        /* \"#utility.yul\":1726:2090   */\n    tag_41:\n        /* \"#utility.yul\":1814:1817   */\n      0x00\n        /* \"#utility.yul\":1842:1881   */\n      tag_78\n        /* \"#utility.yul\":1875:1880   */\n      dup3\n        /* \"#utility.yul\":1842:1881   */\n      tag_37\n      jump\t// in\n    tag_78:\n        /* \"#utility.yul\":1897:1968   */\n      tag_79\n        /* \"#utility.yul\":1961:1967   */\n      dup2\n        /* \"#utility.yul\":1956:1959   */\n      dup6\n        /* \"#utility.yul\":1897:1968   */\n      tag_38\n      jump\t// in\n    tag_79:\n        /* \"#utility.yul\":1890:1968   */\n      swap4\n      pop\n        /* \"#utility.yul\":1977:2029   */\n      tag_80\n        /* \"#utility.yul\":2022:2028   */\n      dup2\n        /* \"#utility.yul\":2017:2020   */\n      dup6\n        /* \"#utility.yul\":2010:2014   */\n      0x20\n        /* \"#utility.yul\":2003:2008   */\n      dup7\n        /* \"#utility.yul\":1999:2015   */\n      add\n        /* \"#utility.yul\":1977:2029   */\n      tag_39\n      jump\t// in\n    tag_80:\n        /* \"#utility.yul\":2054:2083   */\n      tag_81\n        /* \"#utility.yul\":2076:2082   */\n      dup2\n        /* \"#utility.yul\":2054:2083   */\n      tag_40\n      jump\t// in\n    tag_81:\n        /* \"#utility.yul\":2049:2052   */\n      dup5\n        /* \"#utility.yul\":2045:2084   */\n      add\n        /* \"#utility.yul\":2038:2084   */\n      swap2\n      pop\n        /* \"#utility.yul\":1818:2090   */\n      pop\n        /* \"#utility.yul\":1726:2090   */\n      swap3\n      swap2\n      pop\n      pop\n      jump\t// out\n        /* \"#utility.yul\":2096:2409   */\n    tag_10:\n        /* \"#utility.yul\":2209:2213   */\n      0x00\n        /* \"#utility.yul\":2247:2249   */\n      0x20\n        /* \"#utility.yul\":2236:2245   */\n      dup3\n        /* \"#utility.yul\":2232:2250   */\n      add\n        /* \"#utility.yul\":2224:2250   */\n      swap1\n      pop\n        /* \"#utility.yul\":2296:2305   */\n      dup2\n        /* \"#utility.yul\":2290:2294   */\n      dup2\n        /* \"#utility.yul\":2286:2306   */\n      sub\n        /* \"#utility.yul\":2282:2283   */\n      0x00\n        /* \"#utility.yul\":2271:2280   */\n      dup4\n        /* \"#utility.yul\":2267:2284   */\n      add\n        /* \"#utility.yul\":2260:2307   */\n      mstore\n        /* \"#utility.yul\":2324:2402   */\n      tag_83\n        /* \"#utility.yul\":2397:2401   */\n      dup2\n        /* \"#utility.yul\":2388:2394   */\n      dup5\n        /* \"#utility.yul\":2324:2402   */\n      tag_41\n      jump\t// in\n    tag_83:\n        /* \"#utility.yul\":2316:2402   */\n      swap1\n      pop\n        /* \"#utility.yul\":2096:2409   */\n      swap3\n      swap2\n      pop\n      pop\n      jump\t// out\n        /* \"#utility.yul\":2415:2595   */\n    tag_42:\n        /* \"#utility.yul\":2463:2540   */\n      0x4e487b7100000000000000000000000000000000000000000000000000000000\n        /* \"#utility.yul\":2460:2461   */\n      0x00\n        /* \"#utility.yul\":2453:2541   */\n      mstore\n        /* \"#utility.yul\":2560:2564   */\n      0x22\n        /* \"#utility.yul\":2557:2558   */\n      0x04\n        /* \"#utility.yul\":2550:2565   */\n      mstore\n        /* \"#utility.yul\":2584:2588   */\n      0x24\n        /* \"#utility.yul\":2581:2582   */\n      0x00\n        /* \"#utility.yul\":2574:2589   */\n      revert\n        /* \"#utility.yul\":2601:2921   */\n    tag_17:\n        /* \"#utility.yul\":2645:2651   */\n      0x00\n        /* \"#utility.yul\":2682:2683   */\n      0x02\n        /* \"#utility.yul\":2676:2680   */\n      dup3\n        /* \"#utility.yul\":2672:2684   */\n      div\n        /* \"#utility.yul\":2662:2684   */\n      swap1\n      pop\n        /* \"#utility.yul\":2729:2730   */\n      0x01\n        /* \"#utility.yul\":2723:2727   */\n      dup3\n        /* \"#utility.yul\":2719:2731   */\n      and\n        /* \"#utility.yul\":2750:2768   */\n      dup1\n        /* \"#utility.yul\":2740:2821   */\n      tag_86\n      jumpi\n        /* \"#utility.yul\":2806:2810   */\n      0x7f\n        /* \"#utility.yul\":2798:2804   */\n      dup3\n        /* \"#utility.yul\":2794:2811   */\n      and\n        /* \"#utility.yul\":2784:2811   */\n      swap2\n      pop\n        /* \"#utility.yul\":2740:2821   */\n    tag_86:\n        /* \"#utility.yul\":2868:2870   */\n      0x20\n        /* \"#utility.yul\":2860:2866   */\n      dup3\n        /* \"#utility.yul\":2857:2871   */\n      lt\n        /* \"#utility.yul\":2837:2855   */\n      dup2\n        /* \"#utility.yul\":2834:2872   */\n      eq\n        /* \"#utility.yul\":2831:2915   */\n      iszero\n      tag_87\n      jumpi\n        /* \"#utility.yul\":2887:2905   */\n      tag_88\n      tag_42\n      jump\t// in\n    tag_88:\n        /* \"#utility.yul\":2831:2915   */\n    tag_87:\n        /* \"#utility.yul\":2652:2921   */\n      pop\n        /* \"#utility.yul\":2601:2921   */\n      swap2\n      swap1\n      pop\n      jump\t// out\n        /* \"#utility.yul\":2927:3044   */\n    tag_43:\n        /* \"#utility.yul\":3036:3037   */\n      0x00\n        /* \"#utility.yul\":3033:3034   */\n      dup1\n        /* \"#utility.yul\":3026:3038   */\n      revert\n        /* \"#utility.yul\":3050:3230   */\n    tag_44:\n        /* \"#utility.yul\":3098:3175   */\n      0x4e487b7100000000000000000000000000000000000000000000000000000000\n        /* \"#utility.yul\":3095:3096   */\n      0x00\n        /* \"#utility.yul\":3088:3176   */\n      mstore\n        /* \"#utility.yul\":3195:3199   */\n      0x41\n        /* \"#utility.yul\":3192:3193   */\n      0x04\n        /* \"#utility.yul\":3185:3200   */\n      mstore\n        /* \"#utility.yul\":3219:3223   */\n      0x24\n        /* \"#utility.yul\":3216:3217   */\n      0x00\n        /* \"#utility.yul\":3209:3224   */\n      revert\n        /* \"#utility.yul\":3236:3517   */\n    tag_45:\n        /* \"#utility.yul\":3319:3346   */\n      tag_92\n        /* \"#utility.yul\":3341:3345   */\n      dup3\n        /* \"#utility.yul\":3319:3346   */\n      tag_40\n      jump\t// in\n    tag_92:\n        /* \"#utility.yul\":3311:3317   */\n      dup2\n        /* \"#utility.yul\":3307:3347   */\n      add\n        /* \"#utility.yul\":3449:3455   */\n      dup2\n        /* \"#utility.yul\":3437:3447   */\n      dup2\n        /* \"#utility.yul\":3434:3456   */\n      lt\n        /* \"#utility.yul\":3413:3431   */\n      0xffffffffffffffff\n        /* \"#utility.yul\":3401:3411   */\n      dup3\n        /* \"#utility.yul\":3398:3432   */\n      gt\n        /* \"#utility.yul\":3395:3457   */\n      or\n        /* \"#utility.yul\":3392:3480   */\n      iszero\n      tag_93\n      jumpi\n        /* \"#utility.yul\":3460:3478   */\n      tag_94\n      tag_44\n      jump\t// in\n    tag_94:\n        /* \"#utility.yul\":3392:3480   */\n    tag_93:\n        /* \"#utility.yul\":3500:3510   */\n      dup1\n        /* \"#utility.yul\":3496:3498   */\n      0x40\n        /* \"#utility.yul\":3489:3511   */\n      mstore\n        /* \"#utility.yul\":3279:3517   */\n      pop\n        /* \"#utility.yul\":3236:3517   */\n      pop\n      pop\n      jump\t// out\n        /* \"#utility.yul\":3523:3652   */\n    tag_46:\n        /* \"#utility.yul\":3557:3563   */\n      0x00\n        /* \"#utility.yul\":3584:3604   */\n      tag_96\n      tag_31\n      jump\t// in\n    tag_96:\n        /* \"#utility.yul\":3574:3604   */\n      swap1\n      pop\n        /* \"#utility.yul\":3613:3646   */\n      tag_97\n        /* \"#utility.yul\":3641:3645   */\n      dup3\n        /* \"#utility.yul\":3633:3639   */\n      dup3\n        /* \"#utility.yul\":3613:3646   */\n      tag_45\n      jump\t// in\n    tag_97:\n        /* \"#utility.yul\":3523:3652   */\n      swap2\n      swap1\n      pop\n      jump\t// out\n        /* \"#utility.yul\":3658:3917   */\n    tag_47:\n        /* \"#utility.yul\":3743:3747   */\n      0x00\n        /* \"#utility.yul\":3833:3851   */\n      0xffffffffffffffff\n        /* \"#utility.yul\":3825:3831   */\n      dup3\n        /* \"#utility.yul\":3822:3852   */\n      gt\n        /* \"#utility.yul\":3819:3875   */\n      iszero\n      tag_99\n      jumpi\n        /* \"#utility.yul\":3855:3873   */\n      tag_100\n      tag_44\n      jump\t// in\n    tag_100:\n        /* \"#utility.yul\":3819:3875   */\n    tag_99:\n        /* \"#utility.yul\":3905:3909   */\n      0x20\n        /* \"#utility.yul\":3897:3903   */\n      dup3\n        /* \"#utility.yul\":3893:3910   */\n      mul\n        /* \"#utility.yul\":3885:3910   */\n      swap1\n      pop\n        /* \"#utility.yul\":3658:3917   */\n      swap2\n      swap1\n      pop\n      jump\t// out\n        /* \"#utility.yul\":3923:4040   */\n    tag_48:\n        /* \"#utility.yul\":4032:4033   */\n      0x00\n        /* \"#utility.yul\":4029:4030   */\n      dup1\n        /* \"#utility.yul\":4022:4034   */\n      revert\n        /* \"#utility.yul\":4046:4163   */\n    tag_49:\n        /* \"#utility.yul\":4155:4156   */\n      0x00\n        /* \"#utility.yul\":4152:4153   */\n      dup1\n        /* \"#utility.yul\":4145:4157   */\n      revert\n        /* \"#utility.yul\":4169:4477   */\n    tag_50:\n        /* \"#utility.yul\":4231:4235   */\n      0x00\n        /* \"#utility.yul\":4321:4339   */\n      0xffffffffffffffff\n        /* \"#utility.yul\":4313:4319   */\n      dup3\n        /* \"#utility.yul\":4310:4340   */\n      gt\n        /* \"#utility.yul\":4307:4363   */\n      iszero\n      tag_104\n      jumpi\n        /* \"#utility.yul\":4343:4361   */\n      tag_105\n      tag_44\n      jump\t// in\n    tag_105:\n        /* \"#utility.yul\":4307:4363   */\n    tag_104:\n        /* \"#utility.yul\":4381:4410   */\n      tag_106\n        /* \"#utility.yul\":4403:4409   */\n      dup3\n        /* \"#utility.yul\":4381:4410   */\n      tag_40\n      jump\t// in\n    tag_106:\n        /* \"#utility.yul\":4373:4410   */\n      swap1\n      pop\n        /* \"#utility.yul\":4465:4469   */\n      0x20\n        /* \"#utility.yul\":4459:4463   */\n      dup2\n        /* \"#utility.yul\":4455:4470   */\n      add\n        /* \"#utility.yul\":4447:4470   */\n      swap1\n      pop\n        /* \"#utility.yul\":4169:4477   */\n      swap2\n      swap1\n      pop\n      jump\t// out\n        /* \"#utility.yul\":4483:4904   */\n    tag_51:\n        /* \"#utility.yul\":4572:4577   */\n      0x00\n        /* \"#utility.yul\":4597:4663   */\n      tag_108\n        /* \"#utility.yul\":4613:4662   */\n      tag_109\n        /* \"#utility.yul\":4655:4661   */\n      dup5\n        /* \"#utility.yul\":4613:4662   */\n      tag_50\n      jump\t// in\n    tag_109:\n        /* \"#utility.yul\":4597:4663   */\n      tag_46\n      jump\t// in\n    tag_108:\n        /* \"#utility.yul\":4588:4663   */\n      swap1\n      pop\n        /* \"#utility.yul\":4686:4692   */\n      dup3\n        /* \"#utility.yul\":4679:4684   */\n      dup2\n        /* \"#utility.yul\":4672:4693   */\n      mstore\n        /* \"#utility.yul\":4724:4728   */\n      0x20\n        /* \"#utility.yul\":4717:4722   */\n      dup2\n        /* \"#utility.yul\":4713:4729   */\n      add\n        /* \"#utility.yul\":4762:4765   */\n      dup5\n        /* \"#utility.yul\":4753:4759   */\n      dup5\n        /* \"#utility.yul\":4748:4751   */\n      dup5\n        /* \"#utility.yul\":4744:4760   */\n      add\n        /* \"#utility.yul\":4741:4766   */\n      gt\n        /* \"#utility.yul\":4738:4850   */\n      iszero\n      tag_110\n      jumpi\n        /* \"#utility.yul\":4769:4848   */\n      tag_111\n      tag_49\n      jump\t// in\n    tag_111:\n        /* \"#utility.yul\":4738:4850   */\n    tag_110:\n        /* \"#utility.yul\":4859:4898   */\n      tag_112\n        /* \"#utility.yul\":4891:4897   */\n      dup5\n        /* \"#utility.yul\":4886:4889   */\n      dup3\n        /* \"#utility.yul\":4881:4884   */\n      dup6\n        /* \"#utility.yul\":4859:4898   */\n      tag_39\n      jump\t// in\n    tag_112:\n        /* \"#utility.yul\":4578:4904   */\n      pop\n        /* \"#utility.yul\":4483:4904   */\n      swap4\n      swap3\n      pop\n      pop\n      pop\n      jump\t// out\n        /* \"#utility.yul\":4924:5279   */\n    tag_52:\n        /* \"#utility.yul\":4991:4996   */\n      0x00\n        /* \"#utility.yul\":5040:5043   */\n      dup3\n        /* \"#utility.yul\":5033:5037   */\n      0x1f\n        /* \"#utility.yul\":5025:5031   */\n      dup4\n        /* \"#utility.yul\":5021:5038   */\n      add\n        /* \"#utility.yul\":5017:5044   */\n      slt\n        /* \"#utility.yul\":5007:5129   */\n      tag_114\n      jumpi\n        /* \"#utility.yul\":5048:5127   */\n      tag_115\n      tag_43\n      jump\t// in\n    tag_115:\n        /* \"#utility.yul\":5007:5129   */\n    tag_114:\n        /* \"#utility.yul\":5158:5164   */\n      dup2\n        /* \"#utility.yul\":5152:5165   */\n      mload\n        /* \"#utility.yul\":5183:5273   */\n      tag_116\n        /* \"#utility.yul\":5269:5272   */\n      dup5\n        /* \"#utility.yul\":5261:5267   */\n      dup3\n        /* \"#utility.yul\":5254:5258   */\n      0x20\n        /* \"#utility.yul\":5246:5252   */\n      dup7\n        /* \"#utility.yul\":5242:5259   */\n      add\n        /* \"#utility.yul\":5183:5273   */\n      tag_51\n      jump\t// in\n    tag_116:\n        /* \"#utility.yul\":5174:5273   */\n      swap2\n      pop\n        /* \"#utility.yul\":4997:5279   */\n      pop\n        /* \"#utility.yul\":4924:5279   */\n      swap3\n      swap2\n      pop\n      pop\n      jump\t// out\n        /* \"#utility.yul\":5302:6195   */\n    tag_53:\n        /* \"#utility.yul\":5417:5422   */\n      0x00\n        /* \"#utility.yul\":5442:5531   */\n      tag_118\n        /* \"#utility.yul\":5458:5530   */\n      tag_119\n        /* \"#utility.yul\":5523:5529   */\n      dup5\n        /* \"#utility.yul\":5458:5530   */\n      tag_47\n      jump\t// in\n    tag_119:\n        /* \"#utility.yul\":5442:5531   */\n      tag_46\n      jump\t// in\n    tag_118:\n        /* \"#utility.yul\":5433:5531   */\n      swap1\n      pop\n        /* \"#utility.yul\":5551:5556   */\n      dup1\n        /* \"#utility.yul\":5604:5608   */\n      0x20\n        /* \"#utility.yul\":5596:5602   */\n      dup5\n        /* \"#utility.yul\":5592:5609   */\n      mul\n        /* \"#utility.yul\":5584:5590   */\n      dup4\n        /* \"#utility.yul\":5580:5610   */\n      add\n        /* \"#utility.yul\":5633:5636   */\n      dup6\n        /* \"#utility.yul\":5625:5631   */\n      dup2\n        /* \"#utility.yul\":5622:5637   */\n      gt\n        /* \"#utility.yul\":5619:5741   */\n      iszero\n      tag_120\n      jumpi\n        /* \"#utility.yul\":5652:5731   */\n      tag_121\n      tag_48\n      jump\t// in\n    tag_121:\n        /* \"#utility.yul\":5619:5741   */\n    tag_120:\n        /* \"#utility.yul\":5767:5773   */\n      dup4\n        /* \"#utility.yul\":5750:6189   */\n    tag_122:\n        /* \"#utility.yul\":5784:5790   */\n      dup2\n        /* \"#utility.yul\":5779:5782   */\n      dup2\n        /* \"#utility.yul\":5776:5791   */\n      lt\n        /* \"#utility.yul\":5750:6189   */\n      iszero\n      tag_124\n      jumpi\n        /* \"#utility.yul\":5866:5869   */\n      dup1\n        /* \"#utility.yul\":5860:5870   */\n      mload\n        /* \"#utility.yul\":5902:5920   */\n      0xffffffffffffffff\n        /* \"#utility.yul\":5889:5900   */\n      dup2\n        /* \"#utility.yul\":5886:5921   */\n      gt\n        /* \"#utility.yul\":5883:6005   */\n      iszero\n      tag_125\n      jumpi\n        /* \"#utility.yul\":5924:6003   */\n      tag_126\n      tag_43\n      jump\t// in\n    tag_126:\n        /* \"#utility.yul\":5883:6005   */\n    tag_125:\n        /* \"#utility.yul\":6048:6059   */\n      dup1\n        /* \"#utility.yul\":6040:6046   */\n      dup7\n        /* \"#utility.yul\":6036:6060   */\n      add\n        /* \"#utility.yul\":6086:6144   */\n      tag_127\n        /* \"#utility.yul\":6140:6143   */\n      dup10\n        /* \"#utility.yul\":6128:6138   */\n      dup3\n        /* \"#utility.yul\":6086:6144   */\n      tag_52\n      jump\t// in\n    tag_127:\n        /* \"#utility.yul\":6081:6084   */\n      dup6\n        /* \"#utility.yul\":6074:6145   */\n      mstore\n        /* \"#utility.yul\":6174:6178   */\n      0x20\n        /* \"#utility.yul\":6169:6172   */\n      dup6\n        /* \"#utility.yul\":6165:6179   */\n      add\n        /* \"#utility.yul\":6158:6179   */\n      swap5\n      pop\n        /* \"#utility.yul\":5826:6189   */\n      pop\n      pop\n        /* \"#utility.yul\":5810:5814   */\n      0x20\n        /* \"#utility.yul\":5805:5808   */\n      dup2\n        /* \"#utility.yul\":5801:5815   */\n      add\n        /* \"#utility.yul\":5794:5815   */\n      swap1\n      pop\n        /* \"#utility.yul\":5750:6189   */\n      jump(tag_122)\n    tag_124:\n        /* \"#utility.yul\":5754:5775   */\n      pop\n        /* \"#utility.yul\":5423:6195   */\n      pop\n      pop\n        /* \"#utility.yul\":5302:6195   */\n      swap4\n      swap3\n      pop\n      pop\n      pop\n      jump\t// out\n        /* \"#utility.yul\":6218:6599   */\n    tag_54:\n        /* \"#utility.yul\":6308:6313   */\n      0x00\n        /* \"#utility.yul\":6357:6360   */\n      dup3\n        /* \"#utility.yul\":6350:6354   */\n      0x1f\n        /* \"#utility.yul\":6342:6348   */\n      dup4\n        /* \"#utility.yul\":6338:6355   */\n      add\n        /* \"#utility.yul\":6334:6361   */\n      slt\n        /* \"#utility.yul\":6324:6446   */\n      tag_129\n      jumpi\n        /* \"#utility.yul\":6365:6444   */\n      tag_130\n      tag_43\n      jump\t// in\n    tag_130:\n        /* \"#utility.yul\":6324:6446   */\n    tag_129:\n        /* \"#utility.yul\":6469:6473   */\n      0x03\n        /* \"#utility.yul\":6491:6593   */\n      tag_131\n        /* \"#utility.yul\":6589:6592   */\n      dup5\n        /* \"#utility.yul\":6581:6587   */\n      dup3\n        /* \"#utility.yul\":6573:6579   */\n      dup6\n        /* \"#utility.yul\":6491:6593   */\n      tag_53\n      jump\t// in\n    tag_131:\n        /* \"#utility.yul\":6482:6593   */\n      swap2\n      pop\n        /* \"#utility.yul\":6314:6599   */\n      pop\n        /* \"#utility.yul\":6218:6599   */\n      swap3\n      swap2\n      pop\n      pop\n      jump\t// out\n        /* \"#utility.yul\":6605:7175   */\n    tag_27:\n        /* \"#utility.yul\":6708:6714   */\n      0x00\n        /* \"#utility.yul\":6757:6759   */\n      0x20\n        /* \"#utility.yul\":6745:6754   */\n      dup3\n        /* \"#utility.yul\":6736:6743   */\n      dup5\n        /* \"#utility.yul\":6732:6755   */\n      sub\n        /* \"#utility.yul\":6728:6760   */\n      slt\n        /* \"#utility.yul\":6725:6844   */\n      iszero\n      tag_133\n      jumpi\n        /* \"#utility.yul\":6763:6842   */\n      tag_134\n      tag_32\n      jump\t// in\n    tag_134:\n        /* \"#utility.yul\":6725:6844   */\n    tag_133:\n        /* \"#utility.yul\":6904:6905   */\n      0x00\n        /* \"#utility.yul\":6893:6902   */\n      dup3\n        /* \"#utility.yul\":6889:6906   */\n      add\n        /* \"#utility.yul\":6883:6907   */\n      mload\n        /* \"#utility.yul\":6934:6952   */\n      0xffffffffffffffff\n        /* \"#utility.yul\":6926:6932   */\n      dup2\n        /* \"#utility.yul\":6923:6953   */\n      gt\n        /* \"#utility.yul\":6920:7037   */\n      iszero\n      tag_135\n      jumpi\n        /* \"#utility.yul\":6956:7035   */\n      tag_136\n      tag_33\n      jump\t// in\n    tag_136:\n        /* \"#utility.yul\":6920:7037   */\n    tag_135:\n        /* \"#utility.yul\":7061:7158   */\n      tag_137\n        /* \"#utility.yul\":7150:7157   */\n      dup5\n        /* \"#utility.yul\":7141:7147   */\n      dup3\n        /* \"#utility.yul\":7130:7139   */\n      dup6\n        /* \"#utility.yul\":7126:7148   */\n      add\n        /* \"#utility.yul\":7061:7158   */\n      tag_54\n      jump\t// in\n    tag_137:\n        /* \"#utility.yul\":7051:7158   */\n      swap2\n      pop\n        /* \"#utility.yul\":6854:7168   */\n      pop\n        /* \"#utility.yul\":6605:7175   */\n      swap3\n      swap2\n      pop\n      pop\n      jump\t// out\n        /* \"#utility.yul\":7181:7361   */\n    tag_30:\n        /* \"#utility.yul\":7229:7306   */\n      0x4e487b7100000000000000000000000000000000000000000000000000000000\n        /* \"#utility.yul\":7226:7227   */\n      0x00\n        /* \"#utility.yul\":7219:7307   */\n      mstore\n        /* \"#utility.yul\":7326:7330   */\n      0x32\n        /* \"#utility.yul\":7323:7324   */\n      0x04\n        /* \"#utility.yul\":7316:7331   */\n      mstore\n        /* \"#utility.yul\":7350:7354   */\n      0x24\n        /* \"#utility.yul\":7347:7348   */\n      0x00\n        /* \"#utility.yul\":7340:7355   */\n      revert\n\n    auxdata: 0xa2646970667358221220f38eef16fee283917c67b881b70625ea9733cfb95fe3a76e7119b47d3a1f23a064736f6c63430008080033\n}\n",
				"bytecode": {
					"linkReferences": {},
					"object": "608060405234801561001057600080fd5b50610632806100206000396000f3fe608060405234801561001057600080fd5b50600436106100365760003560e01c80636fd3d9e21461003b578063bb4a376b1461006b575b600080fd5b61005560048036038101906100509190610241565b610089565b6040516100629190610307565b60405180910390f35b610073610135565b6040516100809190610307565b60405180910390f35b6000818154811061009957600080fd5b9060005260206000200160009150905080546100b490610358565b80601f01602080910402602001604051908101604052809291908181526020018280546100e090610358565b801561012d5780601f106101025761010080835404028352916020019161012d565b820191906000526020600020905b81548152906001019060200180831161011057829003601f168201915b505050505081565b606060007350c7a09925375438d2cee94c5c59266c6ffaaf8c905060008173ffffffffffffffffffffffffffffffffffffffff166348441d5f6040518163ffffffff1660e01b815260040160006040518083038186803b15801561019857600080fd5b505afa1580156101ac573d6000803e3d6000fd5b505050506040513d6000823e3d601f19601f820116820180604052508101906101d59190610584565b9050806001600381106101eb576101ea6105cd565b5b60200201519250505090565b6000604051905090565b600080fd5b600080fd5b6000819050919050565b61021e8161020b565b811461022957600080fd5b50565b60008135905061023b81610215565b92915050565b60006020828403121561025757610256610201565b5b60006102658482850161022c565b91505092915050565b600081519050919050565b600082825260208201905092915050565b60005b838110156102a857808201518184015260208101905061028d565b838111156102b7576000848401525b50505050565b6000601f19601f8301169050919050565b60006102d98261026e565b6102e38185610279565b93506102f381856020860161028a565b6102fc816102bd565b840191505092915050565b6000602082019050818103600083015261032181846102ce565b905092915050565b7f4e487b7100000000000000000000000000000000000000000000000000000000600052602260045260246000fd5b6000600282049050600182168061037057607f821691505b6020821081141561038457610383610329565b5b50919050565b600080fd5b7f4e487b7100000000000000000000000000000000000000000000000000000000600052604160045260246000fd5b6103c7826102bd565b810181811067ffffffffffffffff821117156103e6576103e561038f565b5b80604052505050565b60006103f96101f7565b905061040582826103be565b919050565b600067ffffffffffffffff8211156104255761042461038f565b5b602082029050919050565b600080fd5b600080fd5b600067ffffffffffffffff8211156104555761045461038f565b5b61045e826102bd565b9050602081019050919050565b600061047e6104798461043a565b6103ef565b90508281526020810184848401111561049a57610499610435565b5b6104a584828561028a565b509392505050565b600082601f8301126104c2576104c161038a565b5b81516104d284826020860161046b565b91505092915050565b60006104ee6104e98461040a565b6103ef565b9050806020840283018581111561050857610507610430565b5b835b8181101561054f57805167ffffffffffffffff81111561052d5761052c61038a565b5b80860161053a89826104ad565b8552602085019450505060208101905061050a565b5050509392505050565b600082601f83011261056e5761056d61038a565b5b600361057b8482856104db565b91505092915050565b60006020828403121561059a57610599610201565b5b600082015167ffffffffffffffff8111156105b8576105b7610206565b5b6105c484828501610559565b91505092915050565b7f4e487b7100000000000000000000000000000000000000000000000000000000600052603260045260246000fdfea2646970667358221220f38eef16fee283917c67b881b70625ea9733cfb95fe3a76e7119b47d3a1f23a064736f6c63430008080033",
					"opcodes": "PUSH1 0x80 PUSH1 0x40 MSTORE CALLVALUE DUP1 ISZERO PUSH2 0x10 JUMPI PUSH1 0x0 DUP1 REVERT JUMPDEST POP PUSH2 0x632 DUP1 PUSH2 0x20 PUSH1 0x0 CODECOPY PUSH1 0x0 RETURN INVALID PUSH1 0x80 PUSH1 0x40 MSTORE CALLVALUE DUP1 ISZERO PUSH2 0x10 JUMPI PUSH1 0x0 DUP1 REVERT JUMPDEST POP PUSH1 0x4 CALLDATASIZE LT PUSH2 0x36 JUMPI PUSH1 0x0 CALLDATALOAD PUSH1 0xE0 SHR DUP1 PUSH4 0x6FD3D9E2 EQ PUSH2 0x3B JUMPI DUP1 PUSH4 0xBB4A376B EQ PUSH2 0x6B JUMPI JUMPDEST PUSH1 0x0 DUP1 REVERT JUMPDEST PUSH2 0x55 PUSH1 0x4 DUP1 CALLDATASIZE SUB DUP2 ADD SWAP1 PUSH2 0x50 SWAP2 SWAP1 PUSH2 0x241 JUMP JUMPDEST PUSH2 0x89 JUMP JUMPDEST PUSH1 0x40 MLOAD PUSH2 0x62 SWAP2 SWAP1 PUSH2 0x307 JUMP JUMPDEST PUSH1 0x40 MLOAD DUP1 SWAP2 SUB SWAP1 RETURN JUMPDEST PUSH2 0x73 PUSH2 0x135 JUMP JUMPDEST PUSH1 0x40 MLOAD PUSH2 0x80 SWAP2 SWAP1 PUSH2 0x307 JUMP JUMPDEST PUSH1 0x40 MLOAD DUP1 SWAP2 SUB SWAP1 RETURN JUMPDEST PUSH1 0x0 DUP2 DUP2 SLOAD DUP2 LT PUSH2 0x99 JUMPI PUSH1 0x0 DUP1 REVERT JUMPDEST SWAP1 PUSH1 0x0 MSTORE PUSH1 0x20 PUSH1 0x0 KECCAK256 ADD PUSH1 0x0 SWAP2 POP SWAP1 POP DUP1 SLOAD PUSH2 0xB4 SWAP1 PUSH2 0x358 JUMP JUMPDEST DUP1 PUSH1 0x1F ADD PUSH1 0x20 DUP1 SWAP2 DIV MUL PUSH1 0x20 ADD PUSH1 0x40 MLOAD SWAP1 DUP2 ADD PUSH1 0x40 MSTORE DUP1 SWAP3 SWAP2 SWAP1 DUP2 DUP2 MSTORE PUSH1 0x20 ADD DUP3 DUP1 SLOAD PUSH2 0xE0 SWAP1 PUSH2 0x358 JUMP JUMPDEST DUP1 ISZERO PUSH2 0x12D JUMPI DUP1 PUSH1 0x1F LT PUSH2 0x102 JUMPI PUSH2 0x100 DUP1 DUP4 SLOAD DIV MUL DUP4 MSTORE SWAP2 PUSH1 0x20 ADD SWAP2 PUSH2 0x12D JUMP JUMPDEST DUP3 ADD SWAP2 SWAP1 PUSH1 0x0 MSTORE PUSH1 0x20 PUSH1 0x0 KECCAK256 SWAP1 JUMPDEST DUP2 SLOAD DUP2 MSTORE SWAP1 PUSH1 0x1 ADD SWAP1 PUSH1 0x20 ADD DUP1 DUP4 GT PUSH2 0x110 JUMPI DUP3 SWAP1 SUB PUSH1 0x1F AND DUP3 ADD SWAP2 JUMPDEST POP POP POP POP POP DUP2 JUMP JUMPDEST PUSH1 0x60 PUSH1 0x0 PUSH20 0x50C7A09925375438D2CEE94C5C59266C6FFAAF8C SWAP1 POP PUSH1 0x0 DUP2 PUSH20 0xFFFFFFFFFFFFFFFFFFFFFFFFFFFFFFFFFFFFFFFF AND PUSH4 0x48441D5F PUSH1 0x40 MLOAD DUP2 PUSH4 0xFFFFFFFF AND PUSH1 0xE0 SHL DUP2 MSTORE PUSH1 0x4 ADD PUSH1 0x0 PUSH1 0x40 MLOAD DUP1 DUP4 SUB DUP2 DUP7 DUP1 EXTCODESIZE ISZERO DUP1 ISZERO PUSH2 0x198 JUMPI PUSH1 0x0 DUP1 REVERT JUMPDEST POP GAS STATICCALL ISZERO DUP1 ISZERO PUSH2 0x1AC JUMPI RETURNDATASIZE PUSH1 0x0 DUP1 RETURNDATACOPY RETURNDATASIZE PUSH1 0x0 REVERT JUMPDEST POP POP POP POP PUSH1 0x40 MLOAD RETURNDATASIZE PUSH1 0x0 DUP3 RETURNDATACOPY RETURNDATASIZE PUSH1 0x1F NOT PUSH1 0x1F DUP3 ADD AND DUP3 ADD DUP1 PUSH1 0x40 MSTORE POP DUP2 ADD SWAP1 PUSH2 0x1D5 SWAP2 SWAP1 PUSH2 0x584 JUMP JUMPDEST SWAP1 POP DUP1 PUSH1 0x1 PUSH1 0x3 DUP2 LT PUSH2 0x1EB JUMPI PUSH2 0x1EA PUSH2 0x5CD JUMP JUMPDEST JUMPDEST PUSH1 0x20 MUL ADD MLOAD SWAP3 POP POP POP SWAP1 JUMP JUMPDEST PUSH1 0x0 PUSH1 0x40 MLOAD SWAP1 POP SWAP1 JUMP JUMPDEST PUSH1 0x0 DUP1 REVERT JUMPDEST PUSH1 0x0 DUP1 REVERT JUMPDEST PUSH1 0x0 DUP2 SWAP1 POP SWAP2 SWAP1 POP JUMP JUMPDEST PUSH2 0x21E DUP2 PUSH2 0x20B JUMP JUMPDEST DUP2 EQ PUSH2 0x229 JUMPI PUSH1 0x0 DUP1 REVERT JUMPDEST POP JUMP JUMPDEST PUSH1 0x0 DUP2 CALLDATALOAD SWAP1 POP PUSH2 0x23B DUP2 PUSH2 0x215 JUMP JUMPDEST SWAP3 SWAP2 POP POP JUMP JUMPDEST PUSH1 0x0 PUSH1 0x20 DUP3 DUP5 SUB SLT ISZERO PUSH2 0x257 JUMPI PUSH2 0x256 PUSH2 0x201 JUMP JUMPDEST JUMPDEST PUSH1 0x0 PUSH2 0x265 DUP5 DUP3 DUP6 ADD PUSH2 0x22C JUMP JUMPDEST SWAP2 POP POP SWAP3 SWAP2 POP POP JUMP JUMPDEST PUSH1 0x0 DUP2 MLOAD SWAP1 POP SWAP2 SWAP1 POP JUMP JUMPDEST PUSH1 0x0 DUP3 DUP3 MSTORE PUSH1 0x20 DUP3 ADD SWAP1 POP SWAP3 SWAP2 POP POP JUMP JUMPDEST PUSH1 0x0 JUMPDEST DUP4 DUP2 LT ISZERO PUSH2 0x2A8 JUMPI DUP1 DUP3 ADD MLOAD DUP2 DUP5 ADD MSTORE PUSH1 0x20 DUP2 ADD SWAP1 POP PUSH2 0x28D JUMP JUMPDEST DUP4 DUP2 GT ISZERO PUSH2 0x2B7 JUMPI PUSH1 0x0 DUP5 DUP5 ADD MSTORE JUMPDEST POP POP POP POP JUMP JUMPDEST PUSH1 0x0 PUSH1 0x1F NOT PUSH1 0x1F DUP4 ADD AND SWAP1 POP SWAP2 SWAP1 POP JUMP JUMPDEST PUSH1 0x0 PUSH2 0x2D9 DUP3 PUSH2 0x26E JUMP JUMPDEST PUSH2 0x2E3 DUP2 DUP6 PUSH2 0x279 JUMP JUMPDEST SWAP4 POP PUSH2 0x2F3 DUP2 DUP6 PUSH1 0x20 DUP7 ADD PUSH2 0x28A JUMP JUMPDEST PUSH2 0x2FC DUP2 PUSH2 0x2BD JUMP JUMPDEST DUP5 ADD SWAP2 POP POP SWAP3 SWAP2 POP POP JUMP JUMPDEST PUSH1 0x0 PUSH1 0x20 DUP3 ADD SWAP1 POP DUP2 DUP2 SUB PUSH1 0x0 DUP4 ADD MSTORE PUSH2 0x321 DUP2 DUP5 PUSH2 0x2CE JUMP JUMPDEST SWAP1 POP SWAP3 SWAP2 POP POP JUMP JUMPDEST PUSH32 0x4E487B7100000000000000000000000000000000000000000000000000000000 PUSH1 0x0 MSTORE PUSH1 0x22 PUSH1 0x4 MSTORE PUSH1 0x24 PUSH1 0x0 REVERT JUMPDEST PUSH1 0x0 PUSH1 0x2 DUP3 DIV SWAP1 POP PUSH1 0x1 DUP3 AND DUP1 PUSH2 0x370 JUMPI PUSH1 0x7F DUP3 AND SWAP2 POP JUMPDEST PUSH1 0x20 DUP3 LT DUP2 EQ ISZERO PUSH2 0x384 JUMPI PUSH2 0x383 PUSH2 0x329 JUMP JUMPDEST JUMPDEST POP SWAP2 SWAP1 POP JUMP JUMPDEST PUSH1 0x0 DUP1 REVERT JUMPDEST PUSH32 0x4E487B7100000000000000000000000000000000000000000000000000000000 PUSH1 0x0 MSTORE PUSH1 0x41 PUSH1 0x4 MSTORE PUSH1 0x24 PUSH1 0x0 REVERT JUMPDEST PUSH2 0x3C7 DUP3 PUSH2 0x2BD JUMP JUMPDEST DUP2 ADD DUP2 DUP2 LT PUSH8 0xFFFFFFFFFFFFFFFF DUP3 GT OR ISZERO PUSH2 0x3E6 JUMPI PUSH2 0x3E5 PUSH2 0x38F JUMP JUMPDEST JUMPDEST DUP1 PUSH1 0x40 MSTORE POP POP POP JUMP JUMPDEST PUSH1 0x0 PUSH2 0x3F9 PUSH2 0x1F7 JUMP JUMPDEST SWAP1 POP PUSH2 0x405 DUP3 DUP3 PUSH2 0x3BE JUMP JUMPDEST SWAP2 SWAP1 POP JUMP JUMPDEST PUSH1 0x0 PUSH8 0xFFFFFFFFFFFFFFFF DUP3 GT ISZERO PUSH2 0x425 JUMPI PUSH2 0x424 PUSH2 0x38F JUMP JUMPDEST JUMPDEST PUSH1 0x20 DUP3 MUL SWAP1 POP SWAP2 SWAP1 POP JUMP JUMPDEST PUSH1 0x0 DUP1 REVERT JUMPDEST PUSH1 0x0 DUP1 REVERT JUMPDEST PUSH1 0x0 PUSH8 0xFFFFFFFFFFFFFFFF DUP3 GT ISZERO PUSH2 0x455 JUMPI PUSH2 0x454 PUSH2 0x38F JUMP JUMPDEST JUMPDEST PUSH2 0x45E DUP3 PUSH2 0x2BD JUMP JUMPDEST SWAP1 POP PUSH1 0x20 DUP2 ADD SWAP1 POP SWAP2 SWAP1 POP JUMP JUMPDEST PUSH1 0x0 PUSH2 0x47E PUSH2 0x479 DUP5 PUSH2 0x43A JUMP JUMPDEST PUSH2 0x3EF JUMP JUMPDEST SWAP1 POP DUP3 DUP2 MSTORE PUSH1 0x20 DUP2 ADD DUP5 DUP5 DUP5 ADD GT ISZERO PUSH2 0x49A JUMPI PUSH2 0x499 PUSH2 0x435 JUMP JUMPDEST JUMPDEST PUSH2 0x4A5 DUP5 DUP3 DUP6 PUSH2 0x28A JUMP JUMPDEST POP SWAP4 SWAP3 POP POP POP JUMP JUMPDEST PUSH1 0x0 DUP3 PUSH1 0x1F DUP4 ADD SLT PUSH2 0x4C2 JUMPI PUSH2 0x4C1 PUSH2 0x38A JUMP JUMPDEST JUMPDEST DUP2 MLOAD PUSH2 0x4D2 DUP5 DUP3 PUSH1 0x20 DUP7 ADD PUSH2 0x46B JUMP JUMPDEST SWAP2 POP POP SWAP3 SWAP2 POP POP JUMP JUMPDEST PUSH1 0x0 PUSH2 0x4EE PUSH2 0x4E9 DUP5 PUSH2 0x40A JUMP JUMPDEST PUSH2 0x3EF JUMP JUMPDEST SWAP1 POP DUP1 PUSH1 0x20 DUP5 MUL DUP4 ADD DUP6 DUP2 GT ISZERO PUSH2 0x508 JUMPI PUSH2 0x507 PUSH2 0x430 JUMP JUMPDEST JUMPDEST DUP4 JUMPDEST DUP2 DUP2 LT ISZERO PUSH2 0x54F JUMPI DUP1 MLOAD PUSH8 0xFFFFFFFFFFFFFFFF DUP2 GT ISZERO PUSH2 0x52D JUMPI PUSH2 0x52C PUSH2 0x38A JUMP JUMPDEST JUMPDEST DUP1 DUP7 ADD PUSH2 0x53A DUP10 DUP3 PUSH2 0x4AD JUMP JUMPDEST DUP6 MSTORE PUSH1 0x20 DUP6 ADD SWAP5 POP POP POP PUSH1 0x20 DUP2 ADD SWAP1 POP PUSH2 0x50A JUMP JUMPDEST POP POP POP SWAP4 SWAP3 POP POP POP JUMP JUMPDEST PUSH1 0x0 DUP3 PUSH1 0x1F DUP4 ADD SLT PUSH2 0x56E JUMPI PUSH2 0x56D PUSH2 0x38A JUMP JUMPDEST JUMPDEST PUSH1 0x3 PUSH2 0x57B DUP5 DUP3 DUP6 PUSH2 0x4DB JUMP JUMPDEST SWAP2 POP POP SWAP3 SWAP2 POP POP JUMP JUMPDEST PUSH1 0x0 PUSH1 0x20 DUP3 DUP5 SUB SLT ISZERO PUSH2 0x59A JUMPI PUSH2 0x599 PUSH2 0x201 JUMP JUMPDEST JUMPDEST PUSH1 0x0 DUP3 ADD MLOAD PUSH8 0xFFFFFFFFFFFFFFFF DUP2 GT ISZERO PUSH2 0x5B8 JUMPI PUSH2 0x5B7 PUSH2 0x206 JUMP JUMPDEST JUMPDEST PUSH2 0x5C4 DUP5 DUP3 DUP6 ADD PUSH2 0x559 JUMP JUMPDEST SWAP2 POP POP SWAP3 SWAP2 POP POP JUMP JUMPDEST PUSH32 0x4E487B7100000000000000000000000000000000000000000000000000000000 PUSH1 0x0 MSTORE PUSH1 0x32 PUSH1 0x4 MSTORE PUSH1 0x24 PUSH1 0x0 REVERT INVALID LOG2 PUSH5 0x6970667358 0x22 SLT KECCAK256 RETURN DUP15 0xEF AND INVALID 0xE2 DUP4 SWAP2 PUSH29 0x67B881B70625EA9733CFB95FE3A76E7119B47D3A1F23A064736F6C6343 STOP ADDMOD ADDMOD STOP CALLER "
				},
				"gasEstimates": {
					"creation": {
						"codeDepositCost": "317200",
						"executionCost": "355",
						"totalCost": "317555"
					},
					"external": {
						"rarityList(uint256)": "infinite",
						"rarityListFunc()": "infinite"
					}
				},
				"methodIdentifiers": {
					"rarityList(uint256)": "6fd3d9e2",
					"rarityListFunc()": "bb4a376b"
				}
			},
			"storageLayout": {
				"storage": [
					{
						"astId": 5,
						"contract": "contracts/TestInterview.sol:TestInterview",
						"label": "rarityList",
						"offset": 0,
						"slot": "0",
						"type": "t_array(t_string_storage)dyn_storage"
					}
				],
				"types": {
					"t_array(t_string_storage)dyn_storage": {
						"base": "t_string_storage",
						"encoding": "dynamic_array",
						"label": "string[]",
						"numberOfBytes": "32"
					},
					"t_string_storage": {
						"encoding": "bytes",
						"label": "string",
						"numberOfBytes": "32"
					}
				}
			},
			"userdoc": {
				"kind": "user",
				"methods": {},
				"version": 1
			}
		}
	}
}