{
	"contracts/TestInterview.sol": {
		"TestInterview": {
			"abi": [
				{
					"inputs": [],
					"stateMutability": "nonpayable",
					"type": "constructor"
				},
				{
					"inputs": [],
					"name": "adminAddress",
					"outputs": [
						{
							"internalType": "address",
							"name": "",
							"type": "address"
						}
					],
					"stateMutability": "view",
					"type": "function"
				},
				{
					"inputs": [
						{
							"internalType": "uint256",
							"name": "_newLimit",
							"type": "uint256"
						}
					],
					"name": "changeGatchaLimit",
					"outputs": [],
					"stateMutability": "nonpayable",
					"type": "function"
				},
				{
					"inputs": [],
					"name": "createGatcha",
					"outputs": [],
					"stateMutability": "nonpayable",
					"type": "function"
				},
				{
					"inputs": [
						{
							"internalType": "uint256",
							"name": "_indexUser",
							"type": "uint256"
						}
					],
					"name": "getUsers",
					"outputs": [
						{
							"components": [
								{
									"internalType": "string",
									"name": "name",
									"type": "string"
								},
								{
									"internalType": "uint256",
									"name": "min",
									"type": "uint256"
								},
								{
									"internalType": "uint256",
									"name": "max",
									"type": "uint256"
								}
							],
							"internalType": "struct TestInterview.Rarity[]",
							"name": "",
							"type": "tuple[]"
						}
					],
					"stateMutability": "view",
					"type": "function"
				},
				{
					"inputs": [],
					"name": "limitGatcha",
					"outputs": [
						{
							"internalType": "uint256",
							"name": "",
							"type": "uint256"
						}
					],
					"stateMutability": "view",
					"type": "function"
				},
				{
					"inputs": [],
					"name": "ownerAddress",
					"outputs": [
						{
							"internalType": "address",
							"name": "",
							"type": "address"
						}
					],
					"stateMutability": "view",
					"type": "function"
				},
				{
					"inputs": [
						{
							"internalType": "uint256",
							"name": "",
							"type": "uint256"
						}
					],
					"name": "rarityList",
					"outputs": [
						{
							"internalType": "string",
							"name": "name",
							"type": "string"
						},
						{
							"internalType": "uint256",
							"name": "min",
							"type": "uint256"
						},
						{
							"internalType": "uint256",
							"name": "max",
							"type": "uint256"
						}
					],
					"stateMutability": "view",
					"type": "function"
				},
				{
					"inputs": [],
					"name": "rarityListFunc",
					"outputs": [
						{
							"internalType": "string",
							"name": "",
							"type": "string"
						}
					],
					"stateMutability": "view",
					"type": "function"
				},
				{
					"inputs": [
						{
							"internalType": "string",
							"name": "_nameRarity",
							"type": "string"
						}
					],
					"name": "rarityRateFunc",
					"outputs": [
						{
							"internalType": "uint256",
							"name": "",
							"type": "uint256"
						}
					],
					"stateMutability": "view",
					"type": "function"
				},
				{
					"inputs": [
						{
							"internalType": "uint256",
							"name": "",
							"type": "uint256"
						}
					],
					"name": "registeredUsers",
					"outputs": [
						{
							"internalType": "address",
							"name": "userAddress",
							"type": "address"
						},
						{
							"internalType": "uint256",
							"name": "counterVisited",
							"type": "uint256"
						}
					],
					"stateMutability": "view",
					"type": "function"
				}
			],
			"devdoc": {
				"kind": "dev",
				"methods": {},
				"version": 1
			},
			"evm": {
				"assembly": "    /* \"contracts/TestInterview.sol\":208:2832  contract TestInterview {... */\n  mstore(0x40, 0x80)\n    /* \"contracts/TestInterview.sol\":258:300  0x50C7a09925375438D2cEe94C5c59266c6fFAAf8C */\n  0x50c7a09925375438d2cee94c5c59266c6ffaaf8c\n    /* \"contracts/TestInterview.sol\":238:301  INFT objINFT = INFT(0x50C7a09925375438D2cEe94C5c59266c6fFAAf8C) */\n  0x00\n  dup1\n  0x0100\n  exp\n  dup2\n  sload\n  dup2\n  0xffffffffffffffffffffffffffffffffffffffff\n  mul\n  not\n  and\n  swap1\n  dup4\n  0xffffffffffffffffffffffffffffffffffffffff\n  and\n  mul\n  or\n  swap1\n  sstore\n  pop\n    /* \"contracts/TestInterview.sol\":338:380  0xdBDdb8575F6bda11F1DC548A1B546463CC567C3d */\n  0xdbddb8575f6bda11f1dc548a1b546463cc567c3d\n    /* \"contracts/TestInterview.sol\":308:380  address public ownerAddress = 0xdBDdb8575F6bda11F1DC548A1B546463CC567C3d */\n  0x01\n  exp(0x0100, 0x00)\n  dup2\n  sload\n  dup2\n  0xffffffffffffffffffffffffffffffffffffffff\n  mul\n  not\n  and\n  swap1\n  dup4\n  0xffffffffffffffffffffffffffffffffffffffff\n  and\n  mul\n  or\n  swap1\n  sstore\n  pop\n    /* \"contracts/TestInterview.sol\":447:448  2 */\n  0x02\n    /* \"contracts/TestInterview.sol\":421:448  uint public limitGatcha = 2 */\n  0x03\n  sstore\n    /* \"contracts/TestInterview.sol\":801:1360  constructor() {... */\n  callvalue\n  dup1\n  iszero\n  tag_1\n  jumpi\n  0x00\n  dup1\n  revert\ntag_1:\n  pop\n    /* \"contracts/TestInterview.sol\":841:851  msg.sender */\n  caller\n    /* \"contracts/TestInterview.sol\":826:838  adminAddress */\n  0x02\n  0x00\n    /* \"contracts/TestInterview.sol\":826:851  adminAddress = msg.sender */\n  0x0100\n  exp\n  dup2\n  sload\n  dup2\n  0xffffffffffffffffffffffffffffffffffffffff\n  mul\n  not\n  and\n  swap1\n  dup4\n  0xffffffffffffffffffffffffffffffffffffffff\n  and\n  mul\n  or\n  swap1\n  sstore\n  pop\n    /* \"contracts/TestInterview.sol\":862:894  string[3] memory localRarityList */\n  0x00\n    /* \"contracts/TestInterview.sol\":897:904  objINFT */\n  dup1\n  0x00\n  swap1\n  sload\n  swap1\n  0x0100\n  exp\n  swap1\n  div\n  0xffffffffffffffffffffffffffffffffffffffff\n  and\n    /* \"contracts/TestInterview.sol\":897:918  objINFT.getRarityList */\n  0xffffffffffffffffffffffffffffffffffffffff\n  and\n  0x48441d5f\n    /* \"contracts/TestInterview.sol\":897:920  objINFT.getRarityList() */\n  mload(0x40)\n  dup2\n  0xffffffff\n  and\n  0xe0\n  shl\n  dup2\n  mstore\n  0x04\n  add\n  0x00\n  mload(0x40)\n  dup1\n  dup4\n  sub\n  dup2\n  dup7\n  dup1\n  extcodesize\n  iszero\n  dup1\n  iszero\n  tag_4\n  jumpi\n  0x00\n  dup1\n  revert\ntag_4:\n  pop\n  gas\n  staticcall\n  iszero\n  dup1\n  iszero\n  tag_6\n  jumpi\n  returndatasize\n  0x00\n  dup1\n  returndatacopy\n  revert(0x00, returndatasize)\ntag_6:\n  pop\n  pop\n  pop\n  pop\n  mload(0x40)\n  returndatasize\n  0x00\n  dup3\n  returndatacopy\n  returndatasize\n  not(0x1f)\n  0x1f\n  dup3\n  add\n  and\n  dup3\n  add\n  dup1\n  0x40\n  mstore\n  pop\n  dup2\n  add\n  swap1\n  tag_7\n  swap2\n  swap1\n  tag_8\n  jump\t// in\ntag_7:\n    /* \"contracts/TestInterview.sol\":862:920  string[3] memory localRarityList = objINFT.getRarityList() */\n  swap1\n  pop\n    /* \"contracts/TestInterview.sol\":933:949  uint256 minValue */\n  0x00\n    /* \"contracts/TestInterview.sol\":970:983  uint256 index */\n  dup1\n    /* \"contracts/TestInterview.sol\":966:1353  for(uint256 index = 0; index < localRarityList.length; index++)... */\ntag_9:\n    /* \"contracts/TestInterview.sol\":997:1019  localRarityList.length */\n  0x03\n    /* \"contracts/TestInterview.sol\":989:994  index */\n  dup2\n    /* \"contracts/TestInterview.sol\":989:1019  index < localRarityList.length */\n  lt\n    /* \"contracts/TestInterview.sol\":966:1353  for(uint256 index = 0; index < localRarityList.length; index++)... */\n  iszero\n  tag_10\n  jumpi\n    /* \"contracts/TestInterview.sol\":1054:1069  uint rarityRate */\n  0x00\n    /* \"contracts/TestInterview.sol\":1072:1079  objINFT */\n  dup1\n  0x00\n  swap1\n  sload\n  swap1\n  0x0100\n  exp\n  swap1\n  div\n  0xffffffffffffffffffffffffffffffffffffffff\n  and\n    /* \"contracts/TestInterview.sol\":1072:1093  objINFT.getRarityRate */\n  0xffffffffffffffffffffffffffffffffffffffff\n  and\n  0x278a7f33\n    /* \"contracts/TestInterview.sol\":1094:1109  localRarityList */\n  dup6\n    /* \"contracts/TestInterview.sol\":1110:1115  index */\n  dup5\n    /* \"contracts/TestInterview.sol\":1094:1116  localRarityList[index] */\n  0x03\n  dup2\n  lt\n  tag_12\n  jumpi\n  tag_13\n  tag_14\n  jump\t// in\ntag_13:\ntag_12:\n  0x20\n  mul\n  add\n  mload\n    /* \"contracts/TestInterview.sol\":1072:1117  objINFT.getRarityRate(localRarityList[index]) */\n  mload(0x40)\n  dup3\n  0xffffffff\n  and\n  0xe0\n  shl\n  dup2\n  mstore\n  0x04\n  add\n  tag_15\n  swap2\n  swap1\n  tag_16\n  jump\t// in\ntag_15:\n  0x20\n  mload(0x40)\n  dup1\n  dup4\n  sub\n  dup2\n  dup7\n  dup1\n  extcodesize\n  iszero\n  dup1\n  iszero\n  tag_17\n  jumpi\n  0x00\n  dup1\n  revert\ntag_17:\n  pop\n  gas\n  staticcall\n  iszero\n  dup1\n  iszero\n  tag_19\n  jumpi\n  returndatasize\n  0x00\n  dup1\n  returndatacopy\n  revert(0x00, returndatasize)\ntag_19:\n  pop\n  pop\n  pop\n  pop\n  mload(0x40)\n  returndatasize\n  not(0x1f)\n  0x1f\n  dup3\n  add\n  and\n  dup3\n  add\n  dup1\n  0x40\n  mstore\n  pop\n  dup2\n  add\n  swap1\n  tag_20\n  swap2\n  swap1\n  tag_21\n  jump\t// in\ntag_20:\n    /* \"contracts/TestInterview.sol\":1054:1117  uint rarityRate = objINFT.getRarityRate(localRarityList[index]) */\n  0xff\n  and\n  swap1\n  pop\n    /* \"contracts/TestInterview.sol\":1132:1142  rarityList */\n  0x04\n    /* \"contracts/TestInterview.sol\":1148:1304  Rarity({... */\n  mload(0x40)\n  dup1\n  0x60\n  add\n  0x40\n  mstore\n  dup1\n    /* \"contracts/TestInterview.sol\":1181:1196  localRarityList */\n  dup7\n    /* \"contracts/TestInterview.sol\":1197:1202  index */\n  dup6\n    /* \"contracts/TestInterview.sol\":1181:1203  localRarityList[index] */\n  0x03\n  dup2\n  lt\n  tag_22\n  jumpi\n  tag_23\n  tag_14\n  jump\t// in\ntag_23:\ntag_22:\n  0x20\n  mul\n  add\n  mload\n    /* \"contracts/TestInterview.sol\":1148:1304  Rarity({... */\n  dup2\n  mstore\n  0x20\n  add\n    /* \"contracts/TestInterview.sol\":1228:1236  minValue */\n  dup6\n    /* \"contracts/TestInterview.sol\":1148:1304  Rarity({... */\n  dup2\n  mstore\n  0x20\n  add\n    /* \"contracts/TestInterview.sol\":1287:1288  1 */\n  0x01\n    /* \"contracts/TestInterview.sol\":1273:1283  rarityRate */\n  dup5\n    /* \"contracts/TestInterview.sol\":1262:1270  minValue */\n  dup8\n    /* \"contracts/TestInterview.sol\":1262:1283  minValue + rarityRate */\n  tag_24\n  swap2\n  swap1\n  tag_25\n  jump\t// in\ntag_24:\n    /* \"contracts/TestInterview.sol\":1261:1288  (minValue + rarityRate) - 1 */\n  tag_26\n  swap2\n  swap1\n  tag_27\n  jump\t// in\ntag_26:\n    /* \"contracts/TestInterview.sol\":1148:1304  Rarity({... */\n  dup2\n  mstore\n  pop\n    /* \"contracts/TestInterview.sol\":1132:1305  rarityList.push(Rarity({... */\n  swap1\n  dup1\n  0x01\n  dup2\n  sload\n  add\n  dup1\n  dup3\n  sstore\n  dup1\n  swap2\n  pop\n  pop\n  0x01\n  swap1\n  sub\n  swap1\n  0x00\n  mstore\n  keccak256(0x00, 0x20)\n  swap1\n  0x03\n  mul\n  add\n  0x00\n  swap1\n  swap2\n  swap1\n  swap2\n  swap1\n  swap2\n  pop\n  0x00\n  dup3\n  add\n  mload\n  dup2\n  0x00\n  add\n  swap1\n  dup1\n  mload\n  swap1\n  0x20\n  add\n  swap1\n  tag_29\n  swap3\n  swap2\n  swap1\n  tag_30\n  jump\t// in\ntag_29:\n  pop\n  0x20\n  dup3\n  add\n  mload\n  dup2\n  0x01\n  add\n  sstore\n  0x40\n  dup3\n  add\n  mload\n  dup2\n  0x02\n  add\n  sstore\n  pop\n  pop\n    /* \"contracts/TestInterview.sol\":1331:1341  rarityRate */\n  dup1\n    /* \"contracts/TestInterview.sol\":1320:1341  minValue = rarityRate */\n  swap3\n  pop\n    /* \"contracts/TestInterview.sol\":1039:1353  {... */\n  pop\n    /* \"contracts/TestInterview.sol\":1021:1028  index++ */\n  dup1\n  dup1\n  tag_31\n  swap1\n  tag_32\n  jump\t// in\ntag_31:\n  swap2\n  pop\n  pop\n    /* \"contracts/TestInterview.sol\":966:1353  for(uint256 index = 0; index < localRarityList.length; index++)... */\n  jump(tag_9)\ntag_10:\n  pop\n    /* \"contracts/TestInterview.sol\":815:1360  {... */\n  pop\n  pop\n    /* \"contracts/TestInterview.sol\":208:2832  contract TestInterview {... */\n  jump(tag_33)\ntag_30:\n  dup3\n  dup1\n  sload\n  tag_34\n  swap1\n  tag_35\n  jump\t// in\ntag_34:\n  swap1\n  0x00\n  mstore\n  keccak256(0x00, 0x20)\n  swap1\n  0x1f\n  add\n  0x20\n  swap1\n  div\n  dup2\n  add\n  swap3\n  dup3\n  tag_37\n  jumpi\n  0x00\n  dup6\n  sstore\n  jump(tag_36)\ntag_37:\n  dup3\n  0x1f\n  lt\n  tag_38\n  jumpi\n  dup1\n  mload\n  not(0xff)\n  and\n  dup4\n  dup1\n  add\n  or\n  dup6\n  sstore\n  jump(tag_36)\ntag_38:\n  dup3\n  dup1\n  add\n  0x01\n  add\n  dup6\n  sstore\n  dup3\n  iszero\n  tag_36\n  jumpi\n  swap2\n  dup3\n  add\ntag_39:\n  dup3\n  dup2\n  gt\n  iszero\n  tag_40\n  jumpi\n  dup3\n  mload\n  dup3\n  sstore\n  swap2\n  0x20\n  add\n  swap2\n  swap1\n  0x01\n  add\n  swap1\n  jump(tag_39)\ntag_40:\ntag_36:\n  pop\n  swap1\n  pop\n  tag_41\n  swap2\n  swap1\n  tag_42\n  jump\t// in\ntag_41:\n  pop\n  swap1\n  jump\t// out\ntag_42:\ntag_43:\n  dup1\n  dup3\n  gt\n  iszero\n  tag_44\n  jumpi\n  0x00\n  dup2\n  0x00\n  swap1\n  sstore\n  pop\n  0x01\n  add\n  jump(tag_43)\ntag_44:\n  pop\n  swap1\n  jump\t// out\n    /* \"#utility.yul\":7:82   */\ntag_45:\n    /* \"#utility.yul\":40:46   */\n  0x00\n    /* \"#utility.yul\":73:75   */\n  0x40\n    /* \"#utility.yul\":67:76   */\n  mload\n    /* \"#utility.yul\":57:76   */\n  swap1\n  pop\n    /* \"#utility.yul\":7:82   */\n  swap1\n  jump\t// out\n    /* \"#utility.yul\":88:205   */\ntag_46:\n    /* \"#utility.yul\":197:198   */\n  0x00\n    /* \"#utility.yul\":194:195   */\n  dup1\n    /* \"#utility.yul\":187:199   */\n  revert\n    /* \"#utility.yul\":211:328   */\ntag_47:\n    /* \"#utility.yul\":320:321   */\n  0x00\n    /* \"#utility.yul\":317:318   */\n  dup1\n    /* \"#utility.yul\":310:322   */\n  revert\n    /* \"#utility.yul\":334:451   */\ntag_48:\n    /* \"#utility.yul\":443:444   */\n  0x00\n    /* \"#utility.yul\":440:441   */\n  dup1\n    /* \"#utility.yul\":433:445   */\n  revert\n    /* \"#utility.yul\":457:559   */\ntag_49:\n    /* \"#utility.yul\":498:504   */\n  0x00\n    /* \"#utility.yul\":549:551   */\n  0x1f\n    /* \"#utility.yul\":545:552   */\n  not\n    /* \"#utility.yul\":540:542   */\n  0x1f\n    /* \"#utility.yul\":533:538   */\n  dup4\n    /* \"#utility.yul\":529:543   */\n  add\n    /* \"#utility.yul\":525:553   */\n  and\n    /* \"#utility.yul\":515:553   */\n  swap1\n  pop\n    /* \"#utility.yul\":457:559   */\n  swap2\n  swap1\n  pop\n  jump\t// out\n    /* \"#utility.yul\":565:745   */\ntag_50:\n    /* \"#utility.yul\":613:690   */\n  0x4e487b7100000000000000000000000000000000000000000000000000000000\n    /* \"#utility.yul\":610:611   */\n  0x00\n    /* \"#utility.yul\":603:691   */\n  mstore\n    /* \"#utility.yul\":710:714   */\n  0x41\n    /* \"#utility.yul\":707:708   */\n  0x04\n    /* \"#utility.yul\":700:715   */\n  mstore\n    /* \"#utility.yul\":734:738   */\n  0x24\n    /* \"#utility.yul\":731:732   */\n  0x00\n    /* \"#utility.yul\":724:739   */\n  revert\n    /* \"#utility.yul\":751:1032   */\ntag_51:\n    /* \"#utility.yul\":834:861   */\n  tag_79\n    /* \"#utility.yul\":856:860   */\n  dup3\n    /* \"#utility.yul\":834:861   */\n  tag_49\n  jump\t// in\ntag_79:\n    /* \"#utility.yul\":826:832   */\n  dup2\n    /* \"#utility.yul\":822:862   */\n  add\n    /* \"#utility.yul\":964:970   */\n  dup2\n    /* \"#utility.yul\":952:962   */\n  dup2\n    /* \"#utility.yul\":949:971   */\n  lt\n    /* \"#utility.yul\":928:946   */\n  0xffffffffffffffff\n    /* \"#utility.yul\":916:926   */\n  dup3\n    /* \"#utility.yul\":913:947   */\n  gt\n    /* \"#utility.yul\":910:972   */\n  or\n    /* \"#utility.yul\":907:995   */\n  iszero\n  tag_80\n  jumpi\n    /* \"#utility.yul\":975:993   */\n  tag_81\n  tag_50\n  jump\t// in\ntag_81:\n    /* \"#utility.yul\":907:995   */\ntag_80:\n    /* \"#utility.yul\":1015:1025   */\n  dup1\n    /* \"#utility.yul\":1011:1013   */\n  0x40\n    /* \"#utility.yul\":1004:1026   */\n  mstore\n    /* \"#utility.yul\":794:1032   */\n  pop\n    /* \"#utility.yul\":751:1032   */\n  pop\n  pop\n  jump\t// out\n    /* \"#utility.yul\":1038:1167   */\ntag_52:\n    /* \"#utility.yul\":1072:1078   */\n  0x00\n    /* \"#utility.yul\":1099:1119   */\n  tag_83\n  tag_45\n  jump\t// in\ntag_83:\n    /* \"#utility.yul\":1089:1119   */\n  swap1\n  pop\n    /* \"#utility.yul\":1128:1161   */\n  tag_84\n    /* \"#utility.yul\":1156:1160   */\n  dup3\n    /* \"#utility.yul\":1148:1154   */\n  dup3\n    /* \"#utility.yul\":1128:1161   */\n  tag_51\n  jump\t// in\ntag_84:\n    /* \"#utility.yul\":1038:1167   */\n  swap2\n  swap1\n  pop\n  jump\t// out\n    /* \"#utility.yul\":1173:1432   */\ntag_53:\n    /* \"#utility.yul\":1258:1262   */\n  0x00\n    /* \"#utility.yul\":1348:1366   */\n  0xffffffffffffffff\n    /* \"#utility.yul\":1340:1346   */\n  dup3\n    /* \"#utility.yul\":1337:1367   */\n  gt\n    /* \"#utility.yul\":1334:1390   */\n  iszero\n  tag_86\n  jumpi\n    /* \"#utility.yul\":1370:1388   */\n  tag_87\n  tag_50\n  jump\t// in\ntag_87:\n    /* \"#utility.yul\":1334:1390   */\ntag_86:\n    /* \"#utility.yul\":1420:1424   */\n  0x20\n    /* \"#utility.yul\":1412:1418   */\n  dup3\n    /* \"#utility.yul\":1408:1425   */\n  mul\n    /* \"#utility.yul\":1400:1425   */\n  swap1\n  pop\n    /* \"#utility.yul\":1173:1432   */\n  swap2\n  swap1\n  pop\n  jump\t// out\n    /* \"#utility.yul\":1438:1555   */\ntag_54:\n    /* \"#utility.yul\":1547:1548   */\n  0x00\n    /* \"#utility.yul\":1544:1545   */\n  dup1\n    /* \"#utility.yul\":1537:1549   */\n  revert\n    /* \"#utility.yul\":1561:1678   */\ntag_55:\n    /* \"#utility.yul\":1670:1671   */\n  0x00\n    /* \"#utility.yul\":1667:1668   */\n  dup1\n    /* \"#utility.yul\":1660:1672   */\n  revert\n    /* \"#utility.yul\":1684:1992   */\ntag_56:\n    /* \"#utility.yul\":1746:1750   */\n  0x00\n    /* \"#utility.yul\":1836:1854   */\n  0xffffffffffffffff\n    /* \"#utility.yul\":1828:1834   */\n  dup3\n    /* \"#utility.yul\":1825:1855   */\n  gt\n    /* \"#utility.yul\":1822:1878   */\n  iszero\n  tag_91\n  jumpi\n    /* \"#utility.yul\":1858:1876   */\n  tag_92\n  tag_50\n  jump\t// in\ntag_92:\n    /* \"#utility.yul\":1822:1878   */\ntag_91:\n    /* \"#utility.yul\":1896:1925   */\n  tag_93\n    /* \"#utility.yul\":1918:1924   */\n  dup3\n    /* \"#utility.yul\":1896:1925   */\n  tag_49\n  jump\t// in\ntag_93:\n    /* \"#utility.yul\":1888:1925   */\n  swap1\n  pop\n    /* \"#utility.yul\":1980:1984   */\n  0x20\n    /* \"#utility.yul\":1974:1978   */\n  dup2\n    /* \"#utility.yul\":1970:1985   */\n  add\n    /* \"#utility.yul\":1962:1985   */\n  swap1\n  pop\n    /* \"#utility.yul\":1684:1992   */\n  swap2\n  swap1\n  pop\n  jump\t// out\n    /* \"#utility.yul\":1998:2305   */\ntag_57:\n    /* \"#utility.yul\":2066:2067   */\n  0x00\n    /* \"#utility.yul\":2076:2189   */\ntag_95:\n    /* \"#utility.yul\":2090:2096   */\n  dup4\n    /* \"#utility.yul\":2087:2088   */\n  dup2\n    /* \"#utility.yul\":2084:2097   */\n  lt\n    /* \"#utility.yul\":2076:2189   */\n  iszero\n  tag_97\n  jumpi\n    /* \"#utility.yul\":2175:2176   */\n  dup1\n    /* \"#utility.yul\":2170:2173   */\n  dup3\n    /* \"#utility.yul\":2166:2177   */\n  add\n    /* \"#utility.yul\":2160:2178   */\n  mload\n    /* \"#utility.yul\":2156:2157   */\n  dup2\n    /* \"#utility.yul\":2151:2154   */\n  dup5\n    /* \"#utility.yul\":2147:2158   */\n  add\n    /* \"#utility.yul\":2140:2179   */\n  mstore\n    /* \"#utility.yul\":2112:2114   */\n  0x20\n    /* \"#utility.yul\":2109:2110   */\n  dup2\n    /* \"#utility.yul\":2105:2115   */\n  add\n    /* \"#utility.yul\":2100:2115   */\n  swap1\n  pop\n    /* \"#utility.yul\":2076:2189   */\n  jump(tag_95)\ntag_97:\n    /* \"#utility.yul\":2207:2213   */\n  dup4\n    /* \"#utility.yul\":2204:2205   */\n  dup2\n    /* \"#utility.yul\":2201:2214   */\n  gt\n    /* \"#utility.yul\":2198:2299   */\n  iszero\n  tag_98\n  jumpi\n    /* \"#utility.yul\":2287:2288   */\n  0x00\n    /* \"#utility.yul\":2278:2284   */\n  dup5\n    /* \"#utility.yul\":2273:2276   */\n  dup5\n    /* \"#utility.yul\":2269:2285   */\n  add\n    /* \"#utility.yul\":2262:2289   */\n  mstore\n    /* \"#utility.yul\":2198:2299   */\ntag_98:\n    /* \"#utility.yul\":2047:2305   */\n  pop\n    /* \"#utility.yul\":1998:2305   */\n  pop\n  pop\n  pop\n  jump\t// out\n    /* \"#utility.yul\":2311:2732   */\ntag_58:\n    /* \"#utility.yul\":2400:2405   */\n  0x00\n    /* \"#utility.yul\":2425:2491   */\n  tag_100\n    /* \"#utility.yul\":2441:2490   */\n  tag_101\n    /* \"#utility.yul\":2483:2489   */\n  dup5\n    /* \"#utility.yul\":2441:2490   */\n  tag_56\n  jump\t// in\ntag_101:\n    /* \"#utility.yul\":2425:2491   */\n  tag_52\n  jump\t// in\ntag_100:\n    /* \"#utility.yul\":2416:2491   */\n  swap1\n  pop\n    /* \"#utility.yul\":2514:2520   */\n  dup3\n    /* \"#utility.yul\":2507:2512   */\n  dup2\n    /* \"#utility.yul\":2500:2521   */\n  mstore\n    /* \"#utility.yul\":2552:2556   */\n  0x20\n    /* \"#utility.yul\":2545:2550   */\n  dup2\n    /* \"#utility.yul\":2541:2557   */\n  add\n    /* \"#utility.yul\":2590:2593   */\n  dup5\n    /* \"#utility.yul\":2581:2587   */\n  dup5\n    /* \"#utility.yul\":2576:2579   */\n  dup5\n    /* \"#utility.yul\":2572:2588   */\n  add\n    /* \"#utility.yul\":2569:2594   */\n  gt\n    /* \"#utility.yul\":2566:2678   */\n  iszero\n  tag_102\n  jumpi\n    /* \"#utility.yul\":2597:2676   */\n  tag_103\n  tag_55\n  jump\t// in\ntag_103:\n    /* \"#utility.yul\":2566:2678   */\ntag_102:\n    /* \"#utility.yul\":2687:2726   */\n  tag_104\n    /* \"#utility.yul\":2719:2725   */\n  dup5\n    /* \"#utility.yul\":2714:2717   */\n  dup3\n    /* \"#utility.yul\":2709:2712   */\n  dup6\n    /* \"#utility.yul\":2687:2726   */\n  tag_57\n  jump\t// in\ntag_104:\n    /* \"#utility.yul\":2406:2732   */\n  pop\n    /* \"#utility.yul\":2311:2732   */\n  swap4\n  swap3\n  pop\n  pop\n  pop\n  jump\t// out\n    /* \"#utility.yul\":2752:3107   */\ntag_59:\n    /* \"#utility.yul\":2819:2824   */\n  0x00\n    /* \"#utility.yul\":2868:2871   */\n  dup3\n    /* \"#utility.yul\":2861:2865   */\n  0x1f\n    /* \"#utility.yul\":2853:2859   */\n  dup4\n    /* \"#utility.yul\":2849:2866   */\n  add\n    /* \"#utility.yul\":2845:2872   */\n  slt\n    /* \"#utility.yul\":2835:2957   */\n  tag_106\n  jumpi\n    /* \"#utility.yul\":2876:2955   */\n  tag_107\n  tag_48\n  jump\t// in\ntag_107:\n    /* \"#utility.yul\":2835:2957   */\ntag_106:\n    /* \"#utility.yul\":2986:2992   */\n  dup2\n    /* \"#utility.yul\":2980:2993   */\n  mload\n    /* \"#utility.yul\":3011:3101   */\n  tag_108\n    /* \"#utility.yul\":3097:3100   */\n  dup5\n    /* \"#utility.yul\":3089:3095   */\n  dup3\n    /* \"#utility.yul\":3082:3086   */\n  0x20\n    /* \"#utility.yul\":3074:3080   */\n  dup7\n    /* \"#utility.yul\":3070:3087   */\n  add\n    /* \"#utility.yul\":3011:3101   */\n  tag_58\n  jump\t// in\ntag_108:\n    /* \"#utility.yul\":3002:3101   */\n  swap2\n  pop\n    /* \"#utility.yul\":2825:3107   */\n  pop\n    /* \"#utility.yul\":2752:3107   */\n  swap3\n  swap2\n  pop\n  pop\n  jump\t// out\n    /* \"#utility.yul\":3130:4023   */\ntag_60:\n    /* \"#utility.yul\":3245:3250   */\n  0x00\n    /* \"#utility.yul\":3270:3359   */\n  tag_110\n    /* \"#utility.yul\":3286:3358   */\n  tag_111\n    /* \"#utility.yul\":3351:3357   */\n  dup5\n    /* \"#utility.yul\":3286:3358   */\n  tag_53\n  jump\t// in\ntag_111:\n    /* \"#utility.yul\":3270:3359   */\n  tag_52\n  jump\t// in\ntag_110:\n    /* \"#utility.yul\":3261:3359   */\n  swap1\n  pop\n    /* \"#utility.yul\":3379:3384   */\n  dup1\n    /* \"#utility.yul\":3432:3436   */\n  0x20\n    /* \"#utility.yul\":3424:3430   */\n  dup5\n    /* \"#utility.yul\":3420:3437   */\n  mul\n    /* \"#utility.yul\":3412:3418   */\n  dup4\n    /* \"#utility.yul\":3408:3438   */\n  add\n    /* \"#utility.yul\":3461:3464   */\n  dup6\n    /* \"#utility.yul\":3453:3459   */\n  dup2\n    /* \"#utility.yul\":3450:3465   */\n  gt\n    /* \"#utility.yul\":3447:3569   */\n  iszero\n  tag_112\n  jumpi\n    /* \"#utility.yul\":3480:3559   */\n  tag_113\n  tag_54\n  jump\t// in\ntag_113:\n    /* \"#utility.yul\":3447:3569   */\ntag_112:\n    /* \"#utility.yul\":3595:3601   */\n  dup4\n    /* \"#utility.yul\":3578:4017   */\ntag_114:\n    /* \"#utility.yul\":3612:3618   */\n  dup2\n    /* \"#utility.yul\":3607:3610   */\n  dup2\n    /* \"#utility.yul\":3604:3619   */\n  lt\n    /* \"#utility.yul\":3578:4017   */\n  iszero\n  tag_116\n  jumpi\n    /* \"#utility.yul\":3694:3697   */\n  dup1\n    /* \"#utility.yul\":3688:3698   */\n  mload\n    /* \"#utility.yul\":3730:3748   */\n  0xffffffffffffffff\n    /* \"#utility.yul\":3717:3728   */\n  dup2\n    /* \"#utility.yul\":3714:3749   */\n  gt\n    /* \"#utility.yul\":3711:3833   */\n  iszero\n  tag_117\n  jumpi\n    /* \"#utility.yul\":3752:3831   */\n  tag_118\n  tag_48\n  jump\t// in\ntag_118:\n    /* \"#utility.yul\":3711:3833   */\ntag_117:\n    /* \"#utility.yul\":3876:3887   */\n  dup1\n    /* \"#utility.yul\":3868:3874   */\n  dup7\n    /* \"#utility.yul\":3864:3888   */\n  add\n    /* \"#utility.yul\":3914:3972   */\n  tag_119\n    /* \"#utility.yul\":3968:3971   */\n  dup10\n    /* \"#utility.yul\":3956:3966   */\n  dup3\n    /* \"#utility.yul\":3914:3972   */\n  tag_59\n  jump\t// in\ntag_119:\n    /* \"#utility.yul\":3909:3912   */\n  dup6\n    /* \"#utility.yul\":3902:3973   */\n  mstore\n    /* \"#utility.yul\":4002:4006   */\n  0x20\n    /* \"#utility.yul\":3997:4000   */\n  dup6\n    /* \"#utility.yul\":3993:4007   */\n  add\n    /* \"#utility.yul\":3986:4007   */\n  swap5\n  pop\n    /* \"#utility.yul\":3654:4017   */\n  pop\n  pop\n    /* \"#utility.yul\":3638:3642   */\n  0x20\n    /* \"#utility.yul\":3633:3636   */\n  dup2\n    /* \"#utility.yul\":3629:3643   */\n  add\n    /* \"#utility.yul\":3622:3643   */\n  swap1\n  pop\n    /* \"#utility.yul\":3578:4017   */\n  jump(tag_114)\ntag_116:\n    /* \"#utility.yul\":3582:3603   */\n  pop\n    /* \"#utility.yul\":3251:4023   */\n  pop\n  pop\n    /* \"#utility.yul\":3130:4023   */\n  swap4\n  swap3\n  pop\n  pop\n  pop\n  jump\t// out\n    /* \"#utility.yul\":4046:4427   */\ntag_61:\n    /* \"#utility.yul\":4136:4141   */\n  0x00\n    /* \"#utility.yul\":4185:4188   */\n  dup3\n    /* \"#utility.yul\":4178:4182   */\n  0x1f\n    /* \"#utility.yul\":4170:4176   */\n  dup4\n    /* \"#utility.yul\":4166:4183   */\n  add\n    /* \"#utility.yul\":4162:4189   */\n  slt\n    /* \"#utility.yul\":4152:4274   */\n  tag_121\n  jumpi\n    /* \"#utility.yul\":4193:4272   */\n  tag_122\n  tag_48\n  jump\t// in\ntag_122:\n    /* \"#utility.yul\":4152:4274   */\ntag_121:\n    /* \"#utility.yul\":4297:4301   */\n  0x03\n    /* \"#utility.yul\":4319:4421   */\n  tag_123\n    /* \"#utility.yul\":4417:4420   */\n  dup5\n    /* \"#utility.yul\":4409:4415   */\n  dup3\n    /* \"#utility.yul\":4401:4407   */\n  dup6\n    /* \"#utility.yul\":4319:4421   */\n  tag_60\n  jump\t// in\ntag_123:\n    /* \"#utility.yul\":4310:4421   */\n  swap2\n  pop\n    /* \"#utility.yul\":4142:4427   */\n  pop\n    /* \"#utility.yul\":4046:4427   */\n  swap3\n  swap2\n  pop\n  pop\n  jump\t// out\n    /* \"#utility.yul\":4433:5003   */\ntag_8:\n    /* \"#utility.yul\":4536:4542   */\n  0x00\n    /* \"#utility.yul\":4585:4587   */\n  0x20\n    /* \"#utility.yul\":4573:4582   */\n  dup3\n    /* \"#utility.yul\":4564:4571   */\n  dup5\n    /* \"#utility.yul\":4560:4583   */\n  sub\n    /* \"#utility.yul\":4556:4588   */\n  slt\n    /* \"#utility.yul\":4553:4672   */\n  iszero\n  tag_125\n  jumpi\n    /* \"#utility.yul\":4591:4670   */\n  tag_126\n  tag_46\n  jump\t// in\ntag_126:\n    /* \"#utility.yul\":4553:4672   */\ntag_125:\n    /* \"#utility.yul\":4732:4733   */\n  0x00\n    /* \"#utility.yul\":4721:4730   */\n  dup3\n    /* \"#utility.yul\":4717:4734   */\n  add\n    /* \"#utility.yul\":4711:4735   */\n  mload\n    /* \"#utility.yul\":4762:4780   */\n  0xffffffffffffffff\n    /* \"#utility.yul\":4754:4760   */\n  dup2\n    /* \"#utility.yul\":4751:4781   */\n  gt\n    /* \"#utility.yul\":4748:4865   */\n  iszero\n  tag_127\n  jumpi\n    /* \"#utility.yul\":4784:4863   */\n  tag_128\n  tag_47\n  jump\t// in\ntag_128:\n    /* \"#utility.yul\":4748:4865   */\ntag_127:\n    /* \"#utility.yul\":4889:4986   */\n  tag_129\n    /* \"#utility.yul\":4978:4985   */\n  dup5\n    /* \"#utility.yul\":4969:4975   */\n  dup3\n    /* \"#utility.yul\":4958:4967   */\n  dup6\n    /* \"#utility.yul\":4954:4976   */\n  add\n    /* \"#utility.yul\":4889:4986   */\n  tag_61\n  jump\t// in\ntag_129:\n    /* \"#utility.yul\":4879:4986   */\n  swap2\n  pop\n    /* \"#utility.yul\":4682:4996   */\n  pop\n    /* \"#utility.yul\":4433:5003   */\n  swap3\n  swap2\n  pop\n  pop\n  jump\t// out\n    /* \"#utility.yul\":5009:5189   */\ntag_14:\n    /* \"#utility.yul\":5057:5134   */\n  0x4e487b7100000000000000000000000000000000000000000000000000000000\n    /* \"#utility.yul\":5054:5055   */\n  0x00\n    /* \"#utility.yul\":5047:5135   */\n  mstore\n    /* \"#utility.yul\":5154:5158   */\n  0x32\n    /* \"#utility.yul\":5151:5152   */\n  0x04\n    /* \"#utility.yul\":5144:5159   */\n  mstore\n    /* \"#utility.yul\":5178:5182   */\n  0x24\n    /* \"#utility.yul\":5175:5176   */\n  0x00\n    /* \"#utility.yul\":5168:5183   */\n  revert\n    /* \"#utility.yul\":5195:5294   */\ntag_62:\n    /* \"#utility.yul\":5247:5253   */\n  0x00\n    /* \"#utility.yul\":5281:5286   */\n  dup2\n    /* \"#utility.yul\":5275:5287   */\n  mload\n    /* \"#utility.yul\":5265:5287   */\n  swap1\n  pop\n    /* \"#utility.yul\":5195:5294   */\n  swap2\n  swap1\n  pop\n  jump\t// out\n    /* \"#utility.yul\":5300:5469   */\ntag_63:\n    /* \"#utility.yul\":5384:5395   */\n  0x00\n    /* \"#utility.yul\":5418:5424   */\n  dup3\n    /* \"#utility.yul\":5413:5416   */\n  dup3\n    /* \"#utility.yul\":5406:5425   */\n  mstore\n    /* \"#utility.yul\":5458:5462   */\n  0x20\n    /* \"#utility.yul\":5453:5456   */\n  dup3\n    /* \"#utility.yul\":5449:5463   */\n  add\n    /* \"#utility.yul\":5434:5463   */\n  swap1\n  pop\n    /* \"#utility.yul\":5300:5469   */\n  swap3\n  swap2\n  pop\n  pop\n  jump\t// out\n    /* \"#utility.yul\":5475:5839   */\ntag_64:\n    /* \"#utility.yul\":5563:5566   */\n  0x00\n    /* \"#utility.yul\":5591:5630   */\n  tag_134\n    /* \"#utility.yul\":5624:5629   */\n  dup3\n    /* \"#utility.yul\":5591:5630   */\n  tag_62\n  jump\t// in\ntag_134:\n    /* \"#utility.yul\":5646:5717   */\n  tag_135\n    /* \"#utility.yul\":5710:5716   */\n  dup2\n    /* \"#utility.yul\":5705:5708   */\n  dup6\n    /* \"#utility.yul\":5646:5717   */\n  tag_63\n  jump\t// in\ntag_135:\n    /* \"#utility.yul\":5639:5717   */\n  swap4\n  pop\n    /* \"#utility.yul\":5726:5778   */\n  tag_136\n    /* \"#utility.yul\":5771:5777   */\n  dup2\n    /* \"#utility.yul\":5766:5769   */\n  dup6\n    /* \"#utility.yul\":5759:5763   */\n  0x20\n    /* \"#utility.yul\":5752:5757   */\n  dup7\n    /* \"#utility.yul\":5748:5764   */\n  add\n    /* \"#utility.yul\":5726:5778   */\n  tag_57\n  jump\t// in\ntag_136:\n    /* \"#utility.yul\":5803:5832   */\n  tag_137\n    /* \"#utility.yul\":5825:5831   */\n  dup2\n    /* \"#utility.yul\":5803:5832   */\n  tag_49\n  jump\t// in\ntag_137:\n    /* \"#utility.yul\":5798:5801   */\n  dup5\n    /* \"#utility.yul\":5794:5833   */\n  add\n    /* \"#utility.yul\":5787:5833   */\n  swap2\n  pop\n    /* \"#utility.yul\":5567:5839   */\n  pop\n    /* \"#utility.yul\":5475:5839   */\n  swap3\n  swap2\n  pop\n  pop\n  jump\t// out\n    /* \"#utility.yul\":5845:6158   */\ntag_16:\n    /* \"#utility.yul\":5958:5962   */\n  0x00\n    /* \"#utility.yul\":5996:5998   */\n  0x20\n    /* \"#utility.yul\":5985:5994   */\n  dup3\n    /* \"#utility.yul\":5981:5999   */\n  add\n    /* \"#utility.yul\":5973:5999   */\n  swap1\n  pop\n    /* \"#utility.yul\":6045:6054   */\n  dup2\n    /* \"#utility.yul\":6039:6043   */\n  dup2\n    /* \"#utility.yul\":6035:6055   */\n  sub\n    /* \"#utility.yul\":6031:6032   */\n  0x00\n    /* \"#utility.yul\":6020:6029   */\n  dup4\n    /* \"#utility.yul\":6016:6033   */\n  add\n    /* \"#utility.yul\":6009:6056   */\n  mstore\n    /* \"#utility.yul\":6073:6151   */\n  tag_139\n    /* \"#utility.yul\":6146:6150   */\n  dup2\n    /* \"#utility.yul\":6137:6143   */\n  dup5\n    /* \"#utility.yul\":6073:6151   */\n  tag_64\n  jump\t// in\ntag_139:\n    /* \"#utility.yul\":6065:6151   */\n  swap1\n  pop\n    /* \"#utility.yul\":5845:6158   */\n  swap3\n  swap2\n  pop\n  pop\n  jump\t// out\n    /* \"#utility.yul\":6164:6250   */\ntag_65:\n    /* \"#utility.yul\":6199:6206   */\n  0x00\n    /* \"#utility.yul\":6239:6243   */\n  0xff\n    /* \"#utility.yul\":6232:6237   */\n  dup3\n    /* \"#utility.yul\":6228:6244   */\n  and\n    /* \"#utility.yul\":6217:6244   */\n  swap1\n  pop\n    /* \"#utility.yul\":6164:6250   */\n  swap2\n  swap1\n  pop\n  jump\t// out\n    /* \"#utility.yul\":6256:6374   */\ntag_66:\n    /* \"#utility.yul\":6327:6349   */\n  tag_142\n    /* \"#utility.yul\":6343:6348   */\n  dup2\n    /* \"#utility.yul\":6327:6349   */\n  tag_65\n  jump\t// in\ntag_142:\n    /* \"#utility.yul\":6320:6325   */\n  dup2\n    /* \"#utility.yul\":6317:6350   */\n  eq\n    /* \"#utility.yul\":6307:6368   */\n  tag_143\n  jumpi\n    /* \"#utility.yul\":6364:6365   */\n  0x00\n    /* \"#utility.yul\":6361:6362   */\n  dup1\n    /* \"#utility.yul\":6354:6366   */\n  revert\n    /* \"#utility.yul\":6307:6368   */\ntag_143:\n    /* \"#utility.yul\":6256:6374   */\n  pop\n  jump\t// out\n    /* \"#utility.yul\":6380:6519   */\ntag_67:\n    /* \"#utility.yul\":6435:6440   */\n  0x00\n    /* \"#utility.yul\":6466:6472   */\n  dup2\n    /* \"#utility.yul\":6460:6473   */\n  mload\n    /* \"#utility.yul\":6451:6473   */\n  swap1\n  pop\n    /* \"#utility.yul\":6482:6513   */\n  tag_145\n    /* \"#utility.yul\":6507:6512   */\n  dup2\n    /* \"#utility.yul\":6482:6513   */\n  tag_66\n  jump\t// in\ntag_145:\n    /* \"#utility.yul\":6380:6519   */\n  swap3\n  swap2\n  pop\n  pop\n  jump\t// out\n    /* \"#utility.yul\":6525:6872   */\ntag_21:\n    /* \"#utility.yul\":6593:6599   */\n  0x00\n    /* \"#utility.yul\":6642:6644   */\n  0x20\n    /* \"#utility.yul\":6630:6639   */\n  dup3\n    /* \"#utility.yul\":6621:6628   */\n  dup5\n    /* \"#utility.yul\":6617:6640   */\n  sub\n    /* \"#utility.yul\":6613:6645   */\n  slt\n    /* \"#utility.yul\":6610:6729   */\n  iszero\n  tag_147\n  jumpi\n    /* \"#utility.yul\":6648:6727   */\n  tag_148\n  tag_46\n  jump\t// in\ntag_148:\n    /* \"#utility.yul\":6610:6729   */\ntag_147:\n    /* \"#utility.yul\":6768:6769   */\n  0x00\n    /* \"#utility.yul\":6793:6855   */\n  tag_149\n    /* \"#utility.yul\":6847:6854   */\n  dup5\n    /* \"#utility.yul\":6838:6844   */\n  dup3\n    /* \"#utility.yul\":6827:6836   */\n  dup6\n    /* \"#utility.yul\":6823:6845   */\n  add\n    /* \"#utility.yul\":6793:6855   */\n  tag_67\n  jump\t// in\ntag_149:\n    /* \"#utility.yul\":6783:6855   */\n  swap2\n  pop\n    /* \"#utility.yul\":6739:6865   */\n  pop\n    /* \"#utility.yul\":6525:6872   */\n  swap3\n  swap2\n  pop\n  pop\n  jump\t// out\n    /* \"#utility.yul\":6878:6955   */\ntag_68:\n    /* \"#utility.yul\":6915:6922   */\n  0x00\n    /* \"#utility.yul\":6944:6949   */\n  dup2\n    /* \"#utility.yul\":6933:6949   */\n  swap1\n  pop\n    /* \"#utility.yul\":6878:6955   */\n  swap2\n  swap1\n  pop\n  jump\t// out\n    /* \"#utility.yul\":6961:7141   */\ntag_69:\n    /* \"#utility.yul\":7009:7086   */\n  0x4e487b7100000000000000000000000000000000000000000000000000000000\n    /* \"#utility.yul\":7006:7007   */\n  0x00\n    /* \"#utility.yul\":6999:7087   */\n  mstore\n    /* \"#utility.yul\":7106:7110   */\n  0x11\n    /* \"#utility.yul\":7103:7104   */\n  0x04\n    /* \"#utility.yul\":7096:7111   */\n  mstore\n    /* \"#utility.yul\":7130:7134   */\n  0x24\n    /* \"#utility.yul\":7127:7128   */\n  0x00\n    /* \"#utility.yul\":7120:7135   */\n  revert\n    /* \"#utility.yul\":7147:7452   */\ntag_25:\n    /* \"#utility.yul\":7187:7190   */\n  0x00\n    /* \"#utility.yul\":7206:7226   */\n  tag_153\n    /* \"#utility.yul\":7224:7225   */\n  dup3\n    /* \"#utility.yul\":7206:7226   */\n  tag_68\n  jump\t// in\ntag_153:\n    /* \"#utility.yul\":7201:7226   */\n  swap2\n  pop\n    /* \"#utility.yul\":7240:7260   */\n  tag_154\n    /* \"#utility.yul\":7258:7259   */\n  dup4\n    /* \"#utility.yul\":7240:7260   */\n  tag_68\n  jump\t// in\ntag_154:\n    /* \"#utility.yul\":7235:7260   */\n  swap3\n  pop\n    /* \"#utility.yul\":7394:7395   */\n  dup3\n    /* \"#utility.yul\":7326:7392   */\n  0xffffffffffffffffffffffffffffffffffffffffffffffffffffffffffffffff\n    /* \"#utility.yul\":7322:7396   */\n  sub\n    /* \"#utility.yul\":7319:7320   */\n  dup3\n    /* \"#utility.yul\":7316:7397   */\n  gt\n    /* \"#utility.yul\":7313:7420   */\n  iszero\n  tag_155\n  jumpi\n    /* \"#utility.yul\":7400:7418   */\n  tag_156\n  tag_69\n  jump\t// in\ntag_156:\n    /* \"#utility.yul\":7313:7420   */\ntag_155:\n    /* \"#utility.yul\":7444:7445   */\n  dup3\n    /* \"#utility.yul\":7441:7442   */\n  dup3\n    /* \"#utility.yul\":7437:7446   */\n  add\n    /* \"#utility.yul\":7430:7446   */\n  swap1\n  pop\n    /* \"#utility.yul\":7147:7452   */\n  swap3\n  swap2\n  pop\n  pop\n  jump\t// out\n    /* \"#utility.yul\":7458:7649   */\ntag_27:\n    /* \"#utility.yul\":7498:7502   */\n  0x00\n    /* \"#utility.yul\":7518:7538   */\n  tag_158\n    /* \"#utility.yul\":7536:7537   */\n  dup3\n    /* \"#utility.yul\":7518:7538   */\n  tag_68\n  jump\t// in\ntag_158:\n    /* \"#utility.yul\":7513:7538   */\n  swap2\n  pop\n    /* \"#utility.yul\":7552:7572   */\n  tag_159\n    /* \"#utility.yul\":7570:7571   */\n  dup4\n    /* \"#utility.yul\":7552:7572   */\n  tag_68\n  jump\t// in\ntag_159:\n    /* \"#utility.yul\":7547:7572   */\n  swap3\n  pop\n    /* \"#utility.yul\":7591:7592   */\n  dup3\n    /* \"#utility.yul\":7588:7589   */\n  dup3\n    /* \"#utility.yul\":7585:7593   */\n  lt\n    /* \"#utility.yul\":7582:7616   */\n  iszero\n  tag_160\n  jumpi\n    /* \"#utility.yul\":7596:7614   */\n  tag_161\n  tag_69\n  jump\t// in\ntag_161:\n    /* \"#utility.yul\":7582:7616   */\ntag_160:\n    /* \"#utility.yul\":7641:7642   */\n  dup3\n    /* \"#utility.yul\":7638:7639   */\n  dup3\n    /* \"#utility.yul\":7634:7643   */\n  sub\n    /* \"#utility.yul\":7626:7643   */\n  swap1\n  pop\n    /* \"#utility.yul\":7458:7649   */\n  swap3\n  swap2\n  pop\n  pop\n  jump\t// out\n    /* \"#utility.yul\":7655:7888   */\ntag_32:\n    /* \"#utility.yul\":7694:7697   */\n  0x00\n    /* \"#utility.yul\":7717:7741   */\n  tag_163\n    /* \"#utility.yul\":7735:7740   */\n  dup3\n    /* \"#utility.yul\":7717:7741   */\n  tag_68\n  jump\t// in\ntag_163:\n    /* \"#utility.yul\":7708:7741   */\n  swap2\n  pop\n    /* \"#utility.yul\":7763:7829   */\n  0xffffffffffffffffffffffffffffffffffffffffffffffffffffffffffffffff\n    /* \"#utility.yul\":7756:7761   */\n  dup3\n    /* \"#utility.yul\":7753:7830   */\n  eq\n    /* \"#utility.yul\":7750:7853   */\n  iszero\n  tag_164\n  jumpi\n    /* \"#utility.yul\":7833:7851   */\n  tag_165\n  tag_69\n  jump\t// in\ntag_165:\n    /* \"#utility.yul\":7750:7853   */\ntag_164:\n    /* \"#utility.yul\":7880:7881   */\n  0x01\n    /* \"#utility.yul\":7873:7878   */\n  dup3\n    /* \"#utility.yul\":7869:7882   */\n  add\n    /* \"#utility.yul\":7862:7882   */\n  swap1\n  pop\n    /* \"#utility.yul\":7655:7888   */\n  swap2\n  swap1\n  pop\n  jump\t// out\n    /* \"#utility.yul\":7894:8074   */\ntag_70:\n    /* \"#utility.yul\":7942:8019   */\n  0x4e487b7100000000000000000000000000000000000000000000000000000000\n    /* \"#utility.yul\":7939:7940   */\n  0x00\n    /* \"#utility.yul\":7932:8020   */\n  mstore\n    /* \"#utility.yul\":8039:8043   */\n  0x22\n    /* \"#utility.yul\":8036:8037   */\n  0x04\n    /* \"#utility.yul\":8029:8044   */\n  mstore\n    /* \"#utility.yul\":8063:8067   */\n  0x24\n    /* \"#utility.yul\":8060:8061   */\n  0x00\n    /* \"#utility.yul\":8053:8068   */\n  revert\n    /* \"#utility.yul\":8080:8400   */\ntag_35:\n    /* \"#utility.yul\":8124:8130   */\n  0x00\n    /* \"#utility.yul\":8161:8162   */\n  0x02\n    /* \"#utility.yul\":8155:8159   */\n  dup3\n    /* \"#utility.yul\":8151:8163   */\n  div\n    /* \"#utility.yul\":8141:8163   */\n  swap1\n  pop\n    /* \"#utility.yul\":8208:8209   */\n  0x01\n    /* \"#utility.yul\":8202:8206   */\n  dup3\n    /* \"#utility.yul\":8198:8210   */\n  and\n    /* \"#utility.yul\":8229:8247   */\n  dup1\n    /* \"#utility.yul\":8219:8300   */\n  tag_168\n  jumpi\n    /* \"#utility.yul\":8285:8289   */\n  0x7f\n    /* \"#utility.yul\":8277:8283   */\n  dup3\n    /* \"#utility.yul\":8273:8290   */\n  and\n    /* \"#utility.yul\":8263:8290   */\n  swap2\n  pop\n    /* \"#utility.yul\":8219:8300   */\ntag_168:\n    /* \"#utility.yul\":8347:8349   */\n  0x20\n    /* \"#utility.yul\":8339:8345   */\n  dup3\n    /* \"#utility.yul\":8336:8350   */\n  lt\n    /* \"#utility.yul\":8316:8334   */\n  dup2\n    /* \"#utility.yul\":8313:8351   */\n  eq\n    /* \"#utility.yul\":8310:8394   */\n  iszero\n  tag_169\n  jumpi\n    /* \"#utility.yul\":8366:8384   */\n  tag_170\n  tag_70\n  jump\t// in\ntag_170:\n    /* \"#utility.yul\":8310:8394   */\ntag_169:\n    /* \"#utility.yul\":8131:8400   */\n  pop\n    /* \"#utility.yul\":8080:8400   */\n  swap2\n  swap1\n  pop\n  jump\t// out\n    /* \"contracts/TestInterview.sol\":208:2832  contract TestInterview {... */\ntag_33:\n  dataSize(sub_0)\n  dup1\n  dataOffset(sub_0)\n  0x00\n  codecopy\n  0x00\n  return\nstop\n\nsub_0: assembly {\n        /* \"contracts/TestInterview.sol\":208:2832  contract TestInterview {... */\n      mstore(0x40, 0x80)\n      callvalue\n      dup1\n      iszero\n      tag_1\n      jumpi\n      0x00\n      dup1\n      revert\n    tag_1:\n      pop\n      jumpi(tag_2, lt(calldatasize, 0x04))\n      shr(0xe0, calldataload(0x00))\n      dup1\n      0xa7beb5d0\n      gt\n      tag_13\n      jumpi\n      dup1\n      0xa7beb5d0\n      eq\n      tag_8\n      jumpi\n      dup1\n      0xbb4a376b\n      eq\n      tag_9\n      jumpi\n      dup1\n      0xc15d3ead\n      eq\n      tag_10\n      jumpi\n      dup1\n      0xe917ec96\n      eq\n      tag_11\n      jumpi\n      dup1\n      0xfc6f9468\n      eq\n      tag_12\n      jumpi\n      jump(tag_2)\n    tag_13:\n      dup1\n      0x06cd309b\n      eq\n      tag_3\n      jumpi\n      dup1\n      0x5d73ab9a\n      eq\n      tag_4\n      jumpi\n      dup1\n      0x6fd3d9e2\n      eq\n      tag_5\n      jumpi\n      dup1\n      0x7259e0f8\n      eq\n      tag_6\n      jumpi\n      dup1\n      0x8f84aa09\n      eq\n      tag_7\n      jumpi\n    tag_2:\n      0x00\n      dup1\n      revert\n        /* \"contracts/TestInterview.sol\":421:448  uint public limitGatcha = 2 */\n    tag_3:\n      tag_14\n      tag_15\n      jump\t// in\n    tag_14:\n      mload(0x40)\n      tag_16\n      swap2\n      swap1\n      tag_17\n      jump\t// in\n    tag_16:\n      mload(0x40)\n      dup1\n      swap2\n      sub\n      swap1\n      return\n        /* \"contracts/TestInterview.sol\":2718:2829  function getUsers(uint256 _indexUser) public view returns(Rarity[] memory) {... */\n    tag_4:\n      tag_18\n      0x04\n      dup1\n      calldatasize\n      sub\n      dup2\n      add\n      swap1\n      tag_19\n      swap2\n      swap1\n      tag_20\n      jump\t// in\n    tag_19:\n      tag_21\n      jump\t// in\n    tag_18:\n      mload(0x40)\n      tag_22\n      swap2\n      swap1\n      tag_23\n      jump\t// in\n    tag_22:\n      mload(0x40)\n      dup1\n      swap2\n      sub\n      swap1\n      return\n        /* \"contracts/TestInterview.sol\":553:579  Rarity[] public rarityList */\n    tag_5:\n      tag_24\n      0x04\n      dup1\n      calldatasize\n      sub\n      dup2\n      add\n      swap1\n      tag_25\n      swap2\n      swap1\n      tag_20\n      jump\t// in\n    tag_25:\n      tag_26\n      jump\t// in\n    tag_24:\n      mload(0x40)\n      tag_27\n      swap4\n      swap3\n      swap2\n      swap1\n      tag_28\n      jump\t// in\n    tag_27:\n      mload(0x40)\n      dup1\n      swap2\n      sub\n      swap1\n      return\n        /* \"contracts/TestInterview.sol\":753:792  RegisteredUser[] public registeredUsers */\n    tag_6:\n      tag_29\n      0x04\n      dup1\n      calldatasize\n      sub\n      dup2\n      add\n      swap1\n      tag_30\n      swap2\n      swap1\n      tag_20\n      jump\t// in\n    tag_30:\n      tag_31\n      jump\t// in\n    tag_29:\n      mload(0x40)\n      tag_32\n      swap3\n      swap2\n      swap1\n      tag_33\n      jump\t// in\n    tag_32:\n      mload(0x40)\n      dup1\n      swap2\n      sub\n      swap1\n      return\n        /* \"contracts/TestInterview.sol\":308:380  address public ownerAddress = 0xdBDdb8575F6bda11F1DC548A1B546463CC567C3d */\n    tag_7:\n      tag_34\n      tag_35\n      jump\t// in\n    tag_34:\n      mload(0x40)\n      tag_36\n      swap2\n      swap1\n      tag_37\n      jump\t// in\n    tag_36:\n      mload(0x40)\n      dup1\n      swap2\n      sub\n      swap1\n      return\n        /* \"contracts/TestInterview.sol\":2569:2710  function rarityRateFunc (string memory _nameRarity) public view returns(uint256) {... */\n    tag_8:\n      tag_38\n      0x04\n      dup1\n      calldatasize\n      sub\n      dup2\n      add\n      swap1\n      tag_39\n      swap2\n      swap1\n      tag_40\n      jump\t// in\n    tag_39:\n      tag_41\n      jump\t// in\n    tag_38:\n      mload(0x40)\n      tag_42\n      swap2\n      swap1\n      tag_17\n      jump\t// in\n    tag_42:\n      mload(0x40)\n      dup1\n      swap2\n      sub\n      swap1\n      return\n        /* \"contracts/TestInterview.sol\":2386:2561  function rarityListFunc () public view returns(string memory) {... */\n    tag_9:\n      tag_43\n      tag_44\n      jump\t// in\n    tag_43:\n      mload(0x40)\n      tag_45\n      swap2\n      swap1\n      tag_46\n      jump\t// in\n    tag_45:\n      mload(0x40)\n      dup1\n      swap2\n      sub\n      swap1\n      return\n        /* \"contracts/TestInterview.sol\":2177:2378  function changeGatchaLimit(uint256 _newLimit) public {... */\n    tag_10:\n      tag_47\n      0x04\n      dup1\n      calldatasize\n      sub\n      dup2\n      add\n      swap1\n      tag_48\n      swap2\n      swap1\n      tag_20\n      jump\t// in\n    tag_48:\n      tag_49\n      jump\t// in\n    tag_47:\n      stop\n        /* \"contracts/TestInterview.sol\":1368:1575  function createGatcha () public checkUserLimit {... */\n    tag_11:\n      tag_50\n      tag_51\n      jump\t// in\n    tag_50:\n      stop\n        /* \"contracts/TestInterview.sol\":387:414  address public adminAddress */\n    tag_12:\n      tag_52\n      tag_53\n      jump\t// in\n    tag_52:\n      mload(0x40)\n      tag_54\n      swap2\n      swap1\n      tag_37\n      jump\t// in\n    tag_54:\n      mload(0x40)\n      dup1\n      swap2\n      sub\n      swap1\n      return\n        /* \"contracts/TestInterview.sol\":421:448  uint public limitGatcha = 2 */\n    tag_15:\n      sload(0x03)\n      dup2\n      jump\t// out\n        /* \"contracts/TestInterview.sol\":2718:2829  function getUsers(uint256 _indexUser) public view returns(Rarity[] memory) {... */\n    tag_21:\n        /* \"contracts/TestInterview.sol\":2776:2791  Rarity[] memory */\n      0x60\n        /* \"contracts/TestInterview.sol\":2811:2821  rarityList */\n      0x04\n        /* \"contracts/TestInterview.sol\":2804:2821  return rarityList */\n      dup1\n      sload\n      dup1\n      0x20\n      mul\n      0x20\n      add\n      mload(0x40)\n      swap1\n      dup2\n      add\n      0x40\n      mstore\n      dup1\n      swap3\n      swap2\n      swap1\n      dup2\n      dup2\n      mstore\n      0x20\n      add\n      0x00\n      swap1\n    tag_56:\n      dup3\n      dup3\n      lt\n      iszero\n      tag_57\n      jumpi\n      dup4\n      dup3\n      swap1\n      0x00\n      mstore\n      keccak256(0x00, 0x20)\n      swap1\n      0x03\n      mul\n      add\n      mload(0x40)\n      dup1\n      0x60\n      add\n      0x40\n      mstore\n      swap1\n      dup2\n      0x00\n      dup3\n      add\n      dup1\n      sload\n      tag_59\n      swap1\n      tag_60\n      jump\t// in\n    tag_59:\n      dup1\n      0x1f\n      add\n      0x20\n      dup1\n      swap2\n      div\n      mul\n      0x20\n      add\n      mload(0x40)\n      swap1\n      dup2\n      add\n      0x40\n      mstore\n      dup1\n      swap3\n      swap2\n      swap1\n      dup2\n      dup2\n      mstore\n      0x20\n      add\n      dup3\n      dup1\n      sload\n      tag_61\n      swap1\n      tag_60\n      jump\t// in\n    tag_61:\n      dup1\n      iszero\n      tag_62\n      jumpi\n      dup1\n      0x1f\n      lt\n      tag_63\n      jumpi\n      0x0100\n      dup1\n      dup4\n      sload\n      div\n      mul\n      dup4\n      mstore\n      swap2\n      0x20\n      add\n      swap2\n      jump(tag_62)\n    tag_63:\n      dup3\n      add\n      swap2\n      swap1\n      0x00\n      mstore\n      keccak256(0x00, 0x20)\n      swap1\n    tag_64:\n      dup2\n      sload\n      dup2\n      mstore\n      swap1\n      0x01\n      add\n      swap1\n      0x20\n      add\n      dup1\n      dup4\n      gt\n      tag_64\n      jumpi\n      dup3\n      swap1\n      sub\n      0x1f\n      and\n      dup3\n      add\n      swap2\n    tag_62:\n      pop\n      pop\n      pop\n      pop\n      pop\n      dup2\n      mstore\n      0x20\n      add\n      0x01\n      dup3\n      add\n      sload\n      dup2\n      mstore\n      0x20\n      add\n      0x02\n      dup3\n      add\n      sload\n      dup2\n      mstore\n      pop\n      pop\n      dup2\n      mstore\n      0x20\n      add\n      swap1\n      0x01\n      add\n      swap1\n      jump(tag_56)\n    tag_57:\n      pop\n      pop\n      pop\n      pop\n      swap1\n      pop\n        /* \"contracts/TestInterview.sol\":2718:2829  function getUsers(uint256 _indexUser) public view returns(Rarity[] memory) {... */\n      swap2\n      swap1\n      pop\n      jump\t// out\n        /* \"contracts/TestInterview.sol\":553:579  Rarity[] public rarityList */\n    tag_26:\n      0x04\n      dup2\n      dup2\n      sload\n      dup2\n      lt\n      tag_65\n      jumpi\n      0x00\n      dup1\n      revert\n    tag_65:\n      swap1\n      0x00\n      mstore\n      keccak256(0x00, 0x20)\n      swap1\n      0x03\n      mul\n      add\n      0x00\n      swap2\n      pop\n      swap1\n      pop\n      dup1\n      0x00\n      add\n      dup1\n      sload\n      tag_67\n      swap1\n      tag_60\n      jump\t// in\n    tag_67:\n      dup1\n      0x1f\n      add\n      0x20\n      dup1\n      swap2\n      div\n      mul\n      0x20\n      add\n      mload(0x40)\n      swap1\n      dup2\n      add\n      0x40\n      mstore\n      dup1\n      swap3\n      swap2\n      swap1\n      dup2\n      dup2\n      mstore\n      0x20\n      add\n      dup3\n      dup1\n      sload\n      tag_68\n      swap1\n      tag_60\n      jump\t// in\n    tag_68:\n      dup1\n      iszero\n      tag_69\n      jumpi\n      dup1\n      0x1f\n      lt\n      tag_70\n      jumpi\n      0x0100\n      dup1\n      dup4\n      sload\n      div\n      mul\n      dup4\n      mstore\n      swap2\n      0x20\n      add\n      swap2\n      jump(tag_69)\n    tag_70:\n      dup3\n      add\n      swap2\n      swap1\n      0x00\n      mstore\n      keccak256(0x00, 0x20)\n      swap1\n    tag_71:\n      dup2\n      sload\n      dup2\n      mstore\n      swap1\n      0x01\n      add\n      swap1\n      0x20\n      add\n      dup1\n      dup4\n      gt\n      tag_71\n      jumpi\n      dup3\n      swap1\n      sub\n      0x1f\n      and\n      dup3\n      add\n      swap2\n    tag_69:\n      pop\n      pop\n      pop\n      pop\n      pop\n      swap1\n      dup1\n      0x01\n      add\n      sload\n      swap1\n      dup1\n      0x02\n      add\n      sload\n      swap1\n      pop\n      dup4\n      jump\t// out\n        /* \"contracts/TestInterview.sol\":753:792  RegisteredUser[] public registeredUsers */\n    tag_31:\n      0x05\n      dup2\n      dup2\n      sload\n      dup2\n      lt\n      tag_72\n      jumpi\n      0x00\n      dup1\n      revert\n    tag_72:\n      swap1\n      0x00\n      mstore\n      keccak256(0x00, 0x20)\n      swap1\n      0x02\n      mul\n      add\n      0x00\n      swap2\n      pop\n      swap1\n      pop\n      dup1\n      0x00\n      add\n      0x00\n      swap1\n      sload\n      swap1\n      0x0100\n      exp\n      swap1\n      div\n      0xffffffffffffffffffffffffffffffffffffffff\n      and\n      swap1\n      dup1\n      0x01\n      add\n      sload\n      swap1\n      pop\n      dup3\n      jump\t// out\n        /* \"contracts/TestInterview.sol\":308:380  address public ownerAddress = 0xdBDdb8575F6bda11F1DC548A1B546463CC567C3d */\n    tag_35:\n      0x01\n      0x00\n      swap1\n      sload\n      swap1\n      0x0100\n      exp\n      swap1\n      div\n      0xffffffffffffffffffffffffffffffffffffffff\n      and\n      dup2\n      jump\t// out\n        /* \"contracts/TestInterview.sol\":2569:2710  function rarityRateFunc (string memory _nameRarity) public view returns(uint256) {... */\n    tag_41:\n        /* \"contracts/TestInterview.sol\":2641:2648  uint256 */\n      0x00\n        /* \"contracts/TestInterview.sol\":2668:2675  objINFT */\n      dup1\n      0x00\n      swap1\n      sload\n      swap1\n      0x0100\n      exp\n      swap1\n      div\n      0xffffffffffffffffffffffffffffffffffffffff\n      and\n        /* \"contracts/TestInterview.sol\":2668:2689  objINFT.getRarityRate */\n      0xffffffffffffffffffffffffffffffffffffffff\n      and\n      0x278a7f33\n        /* \"contracts/TestInterview.sol\":2690:2701  _nameRarity */\n      dup4\n        /* \"contracts/TestInterview.sol\":2668:2702  objINFT.getRarityRate(_nameRarity) */\n      mload(0x40)\n      dup3\n      0xffffffff\n      and\n      0xe0\n      shl\n      dup2\n      mstore\n      0x04\n      add\n      tag_75\n      swap2\n      swap1\n      tag_46\n      jump\t// in\n    tag_75:\n      0x20\n      mload(0x40)\n      dup1\n      dup4\n      sub\n      dup2\n      dup7\n      dup1\n      extcodesize\n      iszero\n      dup1\n      iszero\n      tag_76\n      jumpi\n      0x00\n      dup1\n      revert\n    tag_76:\n      pop\n      gas\n      staticcall\n      iszero\n      dup1\n      iszero\n      tag_78\n      jumpi\n      returndatasize\n      0x00\n      dup1\n      returndatacopy\n      revert(0x00, returndatasize)\n    tag_78:\n      pop\n      pop\n      pop\n      pop\n      mload(0x40)\n      returndatasize\n      not(0x1f)\n      0x1f\n      dup3\n      add\n      and\n      dup3\n      add\n      dup1\n      0x40\n      mstore\n      pop\n      dup2\n      add\n      swap1\n      tag_79\n      swap2\n      swap1\n      tag_80\n      jump\t// in\n    tag_79:\n        /* \"contracts/TestInterview.sol\":2661:2702  return objINFT.getRarityRate(_nameRarity) */\n      0xff\n      and\n      swap1\n      pop\n        /* \"contracts/TestInterview.sol\":2569:2710  function rarityRateFunc (string memory _nameRarity) public view returns(uint256) {... */\n      swap2\n      swap1\n      pop\n      jump\t// out\n        /* \"contracts/TestInterview.sol\":2386:2561  function rarityListFunc () public view returns(string memory) {... */\n    tag_44:\n        /* \"contracts/TestInterview.sol\":2433:2446  string memory */\n      0x60\n        /* \"contracts/TestInterview.sol\":2459:2491  string[3] memory localRarityList */\n      0x00\n        /* \"contracts/TestInterview.sol\":2494:2501  objINFT */\n      dup1\n      0x00\n      swap1\n      sload\n      swap1\n      0x0100\n      exp\n      swap1\n      div\n      0xffffffffffffffffffffffffffffffffffffffff\n      and\n        /* \"contracts/TestInterview.sol\":2494:2515  objINFT.getRarityList */\n      0xffffffffffffffffffffffffffffffffffffffff\n      and\n      0x48441d5f\n        /* \"contracts/TestInterview.sol\":2494:2517  objINFT.getRarityList() */\n      mload(0x40)\n      dup2\n      0xffffffff\n      and\n      0xe0\n      shl\n      dup2\n      mstore\n      0x04\n      add\n      0x00\n      mload(0x40)\n      dup1\n      dup4\n      sub\n      dup2\n      dup7\n      dup1\n      extcodesize\n      iszero\n      dup1\n      iszero\n      tag_82\n      jumpi\n      0x00\n      dup1\n      revert\n    tag_82:\n      pop\n      gas\n      staticcall\n      iszero\n      dup1\n      iszero\n      tag_84\n      jumpi\n      returndatasize\n      0x00\n      dup1\n      returndatacopy\n      revert(0x00, returndatasize)\n    tag_84:\n      pop\n      pop\n      pop\n      pop\n      mload(0x40)\n      returndatasize\n      0x00\n      dup3\n      returndatacopy\n      returndatasize\n      not(0x1f)\n      0x1f\n      dup3\n      add\n      and\n      dup3\n      add\n      dup1\n      0x40\n      mstore\n      pop\n      dup2\n      add\n      swap1\n      tag_85\n      swap2\n      swap1\n      tag_86\n      jump\t// in\n    tag_85:\n        /* \"contracts/TestInterview.sol\":2459:2517  string[3] memory localRarityList = objINFT.getRarityList() */\n      swap1\n      pop\n        /* \"contracts/TestInterview.sol\":2535:2550  localRarityList */\n      dup1\n        /* \"contracts/TestInterview.sol\":2551:2552  0 */\n      0x00\n        /* \"contracts/TestInterview.sol\":2535:2553  localRarityList[0] */\n      0x03\n      dup2\n      lt\n      tag_87\n      jumpi\n      tag_88\n      tag_89\n      jump\t// in\n    tag_88:\n    tag_87:\n      0x20\n      mul\n      add\n      mload\n        /* \"contracts/TestInterview.sol\":2528:2553  return localRarityList[0] */\n      swap2\n      pop\n      pop\n        /* \"contracts/TestInterview.sol\":2386:2561  function rarityListFunc () public view returns(string memory) {... */\n      swap1\n      jump\t// out\n        /* \"contracts/TestInterview.sol\":2177:2378  function changeGatchaLimit(uint256 _newLimit) public {... */\n    tag_49:\n        /* \"contracts/TestInterview.sol\":2263:2275  adminAddress */\n      0x02\n      0x00\n      swap1\n      sload\n      swap1\n      0x0100\n      exp\n      swap1\n      div\n      0xffffffffffffffffffffffffffffffffffffffff\n      and\n        /* \"contracts/TestInterview.sol\":2249:2275  msg.sender == adminAddress */\n      0xffffffffffffffffffffffffffffffffffffffff\n      and\n        /* \"contracts/TestInterview.sol\":2249:2259  msg.sender */\n      caller\n        /* \"contracts/TestInterview.sol\":2249:2275  msg.sender == adminAddress */\n      0xffffffffffffffffffffffffffffffffffffffff\n      and\n      eq\n        /* \"contracts/TestInterview.sol\":2249:2305  msg.sender == adminAddress || msg.sender == ownerAddress */\n      dup1\n      tag_91\n      jumpi\n      pop\n        /* \"contracts/TestInterview.sol\":2293:2305  ownerAddress */\n      0x01\n      0x00\n      swap1\n      sload\n      swap1\n      0x0100\n      exp\n      swap1\n      div\n      0xffffffffffffffffffffffffffffffffffffffff\n      and\n        /* \"contracts/TestInterview.sol\":2279:2305  msg.sender == ownerAddress */\n      0xffffffffffffffffffffffffffffffffffffffff\n      and\n        /* \"contracts/TestInterview.sol\":2279:2289  msg.sender */\n      caller\n        /* \"contracts/TestInterview.sol\":2279:2305  msg.sender == ownerAddress */\n      0xffffffffffffffffffffffffffffffffffffffff\n      and\n      eq\n        /* \"contracts/TestInterview.sol\":2249:2305  msg.sender == adminAddress || msg.sender == ownerAddress */\n    tag_91:\n        /* \"contracts/TestInterview.sol\":2241:2336  require(msg.sender == adminAddress || msg.sender == ownerAddress, \"Not Authorized, Admin Only\") */\n      tag_92\n      jumpi\n      mload(0x40)\n      0x08c379a000000000000000000000000000000000000000000000000000000000\n      dup2\n      mstore\n      0x04\n      add\n      tag_93\n      swap1\n      tag_94\n      jump\t// in\n    tag_93:\n      mload(0x40)\n      dup1\n      swap2\n      sub\n      swap1\n      revert\n    tag_92:\n        /* \"contracts/TestInterview.sol\":2361:2370  _newLimit */\n      dup1\n        /* \"contracts/TestInterview.sol\":2347:2358  limitGatcha */\n      0x03\n        /* \"contracts/TestInterview.sol\":2347:2370  limitGatcha = _newLimit */\n      dup2\n      swap1\n      sstore\n      pop\n        /* \"contracts/TestInterview.sol\":2177:2378  function changeGatchaLimit(uint256 _newLimit) public {... */\n      pop\n      jump\t// out\n        /* \"contracts/TestInterview.sol\":1368:1575  function createGatcha () public checkUserLimit {... */\n    tag_51:\n        /* \"contracts/TestInterview.sol\":1621:1633  bool isFound */\n      0x00\n        /* \"contracts/TestInterview.sol\":1652:1665  uint256 index */\n      dup1\n        /* \"contracts/TestInterview.sol\":1680:2096  while(isFound == false && registeredUsers.length > 0 && index <registeredUsers.length )... */\n    tag_96:\n        /* \"contracts/TestInterview.sol\":1697:1702  false */\n      0x00\n        /* \"contracts/TestInterview.sol\":1686:1702  isFound == false */\n      iszero\n      iszero\n        /* \"contracts/TestInterview.sol\":1686:1693  isFound */\n      dup3\n        /* \"contracts/TestInterview.sol\":1686:1702  isFound == false */\n      iszero\n      iszero\n      eq\n        /* \"contracts/TestInterview.sol\":1686:1732  isFound == false && registeredUsers.length > 0 */\n      dup1\n      iszero\n      tag_98\n      jumpi\n      pop\n        /* \"contracts/TestInterview.sol\":1731:1732  0 */\n      0x00\n        /* \"contracts/TestInterview.sol\":1706:1721  registeredUsers */\n      0x05\n        /* \"contracts/TestInterview.sol\":1706:1728  registeredUsers.length */\n      dup1\n      sload\n      swap1\n      pop\n        /* \"contracts/TestInterview.sol\":1706:1732  registeredUsers.length > 0 */\n      gt\n        /* \"contracts/TestInterview.sol\":1686:1732  isFound == false && registeredUsers.length > 0 */\n    tag_98:\n        /* \"contracts/TestInterview.sol\":1686:1765  isFound == false && registeredUsers.length > 0 && index <registeredUsers.length */\n      dup1\n      iszero\n      tag_99\n      jumpi\n      pop\n        /* \"contracts/TestInterview.sol\":1743:1758  registeredUsers */\n      0x05\n        /* \"contracts/TestInterview.sol\":1743:1765  registeredUsers.length */\n      dup1\n      sload\n      swap1\n      pop\n        /* \"contracts/TestInterview.sol\":1736:1741  index */\n      dup2\n        /* \"contracts/TestInterview.sol\":1736:1765  index <registeredUsers.length */\n      lt\n        /* \"contracts/TestInterview.sol\":1686:1765  isFound == false && registeredUsers.length > 0 && index <registeredUsers.length */\n    tag_99:\n        /* \"contracts/TestInterview.sol\":1680:2096  while(isFound == false && registeredUsers.length > 0 && index <registeredUsers.length )... */\n      iszero\n      tag_97\n      jumpi\n        /* \"contracts/TestInterview.sol\":1833:1843  msg.sender */\n      caller\n        /* \"contracts/TestInterview.sol\":1795:1843  registeredUsers[index].userAddress == msg.sender */\n      0xffffffffffffffffffffffffffffffffffffffff\n      and\n        /* \"contracts/TestInterview.sol\":1795:1810  registeredUsers */\n      0x05\n        /* \"contracts/TestInterview.sol\":1811:1816  index */\n      dup3\n        /* \"contracts/TestInterview.sol\":1795:1817  registeredUsers[index] */\n      dup2\n      sload\n      dup2\n      lt\n      tag_100\n      jumpi\n      tag_101\n      tag_89\n      jump\t// in\n    tag_101:\n    tag_100:\n      swap1\n      0x00\n      mstore\n      keccak256(0x00, 0x20)\n      swap1\n      0x02\n      mul\n      add\n        /* \"contracts/TestInterview.sol\":1795:1829  registeredUsers[index].userAddress */\n      0x00\n      add\n      0x00\n      swap1\n      sload\n      swap1\n      0x0100\n      exp\n      swap1\n      div\n      0xffffffffffffffffffffffffffffffffffffffff\n      and\n        /* \"contracts/TestInterview.sol\":1795:1843  registeredUsers[index].userAddress == msg.sender */\n      0xffffffffffffffffffffffffffffffffffffffff\n      and\n      eq\n        /* \"contracts/TestInterview.sol\":1792:2062  if(registeredUsers[index].userAddress == msg.sender)... */\n      iszero\n      tag_103\n      jumpi\n        /* \"contracts/TestInterview.sol\":1887:1891  true */\n      0x01\n        /* \"contracts/TestInterview.sol\":1877:1891  isFound = true */\n      swap2\n      pop\n        /* \"contracts/TestInterview.sol\":1910:1925  registeredUsers */\n      0x05\n        /* \"contracts/TestInterview.sol\":1926:1931  index */\n      dup2\n        /* \"contracts/TestInterview.sol\":1910:1932  registeredUsers[index] */\n      dup2\n      sload\n      dup2\n      lt\n      tag_104\n      jumpi\n      tag_105\n      tag_89\n      jump\t// in\n    tag_105:\n    tag_104:\n      swap1\n      0x00\n      mstore\n      keccak256(0x00, 0x20)\n      swap1\n      0x02\n      mul\n      add\n        /* \"contracts/TestInterview.sol\":1910:1947  registeredUsers[index].counterVisited */\n      0x01\n      add\n      0x00\n        /* \"contracts/TestInterview.sol\":1910:1950  registeredUsers[index].counterVisited ++ */\n      dup2\n      sload\n      dup1\n      swap3\n      swap2\n      swap1\n      tag_107\n      swap1\n      tag_108\n      jump\t// in\n    tag_107:\n      swap2\n      swap1\n      pop\n      sstore\n      pop\n        /* \"contracts/TestInterview.sol\":2018:2029  limitGatcha */\n      sload(0x03)\n        /* \"contracts/TestInterview.sol\":1977:1992  registeredUsers */\n      0x05\n        /* \"contracts/TestInterview.sol\":1993:1998  index */\n      dup3\n        /* \"contracts/TestInterview.sol\":1977:1999  registeredUsers[index] */\n      dup2\n      sload\n      dup2\n      lt\n      tag_109\n      jumpi\n      tag_110\n      tag_89\n      jump\t// in\n    tag_110:\n    tag_109:\n      swap1\n      0x00\n      mstore\n      keccak256(0x00, 0x20)\n      swap1\n      0x02\n      mul\n      add\n        /* \"contracts/TestInterview.sol\":1977:2014  registeredUsers[index].counterVisited */\n      0x01\n      add\n      sload\n        /* \"contracts/TestInterview.sol\":1977:2029  registeredUsers[index].counterVisited <= limitGatcha */\n      gt\n      iszero\n        /* \"contracts/TestInterview.sol\":1969:2046  require(registeredUsers[index].counterVisited <= limitGatcha, \"Out of Limit\") */\n      tag_112\n      jumpi\n      mload(0x40)\n      0x08c379a000000000000000000000000000000000000000000000000000000000\n      dup2\n      mstore\n      0x04\n      add\n      tag_113\n      swap1\n      tag_114\n      jump\t// in\n    tag_113:\n      mload(0x40)\n      dup1\n      swap2\n      sub\n      swap1\n      revert\n    tag_112:\n        /* \"contracts/TestInterview.sol\":1792:2062  if(registeredUsers[index].userAddress == msg.sender)... */\n    tag_103:\n        /* \"contracts/TestInterview.sol\":2076:2084  index ++ */\n      dup1\n      dup1\n      tag_115\n      swap1\n      tag_108\n      jump\t// in\n    tag_115:\n      swap2\n      pop\n      pop\n        /* \"contracts/TestInterview.sol\":1680:2096  while(isFound == false && registeredUsers.length > 0 && index <registeredUsers.length )... */\n      jump(tag_96)\n    tag_97:\n        /* \"contracts/TestInterview.sol\":2106:2113  objINFT */\n      0x00\n      dup1\n      sload\n      swap1\n      0x0100\n      exp\n      swap1\n      div\n      0xffffffffffffffffffffffffffffffffffffffff\n      and\n        /* \"contracts/TestInterview.sol\":2106:2122  objINFT.safeMint */\n      0xffffffffffffffffffffffffffffffffffffffff\n      and\n      0x40d097c3\n        /* \"contracts/TestInterview.sol\":2123:2135  ownerAddress */\n      0x01\n      0x00\n      swap1\n      sload\n      swap1\n      0x0100\n      exp\n      swap1\n      div\n      0xffffffffffffffffffffffffffffffffffffffff\n      and\n        /* \"contracts/TestInterview.sol\":2106:2136  objINFT.safeMint(ownerAddress) */\n      mload(0x40)\n      dup3\n      0xffffffff\n      and\n      0xe0\n      shl\n      dup2\n      mstore\n      0x04\n      add\n      tag_116\n      swap2\n      swap1\n      tag_37\n      jump\t// in\n    tag_116:\n      0x00\n      mload(0x40)\n      dup1\n      dup4\n      sub\n      dup2\n      0x00\n      dup8\n      dup1\n      extcodesize\n      iszero\n      dup1\n      iszero\n      tag_117\n      jumpi\n      0x00\n      dup1\n      revert\n    tag_117:\n      pop\n      gas\n      call\n      iszero\n      dup1\n      iszero\n      tag_119\n      jumpi\n      returndatasize\n      0x00\n      dup1\n      returndatacopy\n      revert(0x00, returndatasize)\n    tag_119:\n      pop\n      pop\n      pop\n      pop\n        /* \"contracts/TestInterview.sol\":2151:2158  isFound */\n      dup2\n        /* \"contracts/TestInterview.sol\":2147:2161  if(!isFound) _ */\n      tag_120\n      jumpi\n        /* \"contracts/TestInterview.sol\":1426:1459  RegisteredUser memory newRegister */\n      0x00\n        /* \"contracts/TestInterview.sol\":1462:1523  RegisteredUser({userAddress : msg.sender, counterVisited :1}) */\n      mload(0x40)\n      dup1\n      0x40\n      add\n      0x40\n      mstore\n      dup1\n        /* \"contracts/TestInterview.sol\":1492:1502  msg.sender */\n      caller\n        /* \"contracts/TestInterview.sol\":1462:1523  RegisteredUser({userAddress : msg.sender, counterVisited :1}) */\n      0xffffffffffffffffffffffffffffffffffffffff\n      and\n      dup2\n      mstore\n      0x20\n      add\n        /* \"contracts/TestInterview.sol\":1520:1521  1 */\n      0x01\n        /* \"contracts/TestInterview.sol\":1462:1523  RegisteredUser({userAddress : msg.sender, counterVisited :1}) */\n      dup2\n      mstore\n      pop\n        /* \"contracts/TestInterview.sol\":1426:1523  RegisteredUser memory newRegister = RegisteredUser({userAddress : msg.sender, counterVisited :1}) */\n      swap1\n      pop\n        /* \"contracts/TestInterview.sol\":1534:1549  registeredUsers */\n      0x05\n        /* \"contracts/TestInterview.sol\":1555:1566  newRegister */\n      dup2\n        /* \"contracts/TestInterview.sol\":1534:1567  registeredUsers.push(newRegister) */\n      swap1\n      dup1\n      0x01\n      dup2\n      sload\n      add\n      dup1\n      dup3\n      sstore\n      dup1\n      swap2\n      pop\n      pop\n      0x01\n      swap1\n      sub\n      swap1\n      0x00\n      mstore\n      keccak256(0x00, 0x20)\n      swap1\n      0x02\n      mul\n      add\n      0x00\n      swap1\n      swap2\n      swap1\n      swap2\n      swap1\n      swap2\n      pop\n      0x00\n      dup3\n      add\n      mload\n      dup2\n      0x00\n      add\n      exp(0x0100, 0x00)\n      dup2\n      sload\n      dup2\n      0xffffffffffffffffffffffffffffffffffffffff\n      mul\n      not\n      and\n      swap1\n      dup4\n      0xffffffffffffffffffffffffffffffffffffffff\n      and\n      mul\n      or\n      swap1\n      sstore\n      pop\n      0x20\n      dup3\n      add\n      mload\n      dup2\n      0x01\n      add\n      sstore\n      pop\n      pop\n        /* \"contracts/TestInterview.sol\":1415:1575  {... */\n      pop\n        /* \"contracts/TestInterview.sol\":2147:2161  if(!isFound) _ */\n    tag_120:\n        /* \"contracts/TestInterview.sol\":1610:2169  {... */\n      pop\n      pop\n        /* \"contracts/TestInterview.sol\":1368:1575  function createGatcha () public checkUserLimit {... */\n      jump\t// out\n        /* \"contracts/TestInterview.sol\":387:414  address public adminAddress */\n    tag_53:\n      0x02\n      0x00\n      swap1\n      sload\n      swap1\n      0x0100\n      exp\n      swap1\n      div\n      0xffffffffffffffffffffffffffffffffffffffff\n      and\n      dup2\n      jump\t// out\n        /* \"#utility.yul\":7:84   */\n    tag_123:\n        /* \"#utility.yul\":44:51   */\n      0x00\n        /* \"#utility.yul\":73:78   */\n      dup2\n        /* \"#utility.yul\":62:78   */\n      swap1\n      pop\n        /* \"#utility.yul\":7:84   */\n      swap2\n      swap1\n      pop\n      jump\t// out\n        /* \"#utility.yul\":90:208   */\n    tag_124:\n        /* \"#utility.yul\":177:201   */\n      tag_175\n        /* \"#utility.yul\":195:200   */\n      dup2\n        /* \"#utility.yul\":177:201   */\n      tag_123\n      jump\t// in\n    tag_175:\n        /* \"#utility.yul\":172:175   */\n      dup3\n        /* \"#utility.yul\":165:202   */\n      mstore\n        /* \"#utility.yul\":90:208   */\n      pop\n      pop\n      jump\t// out\n        /* \"#utility.yul\":214:436   */\n    tag_17:\n        /* \"#utility.yul\":307:311   */\n      0x00\n        /* \"#utility.yul\":345:347   */\n      0x20\n        /* \"#utility.yul\":334:343   */\n      dup3\n        /* \"#utility.yul\":330:348   */\n      add\n        /* \"#utility.yul\":322:348   */\n      swap1\n      pop\n        /* \"#utility.yul\":358:429   */\n      tag_177\n        /* \"#utility.yul\":426:427   */\n      0x00\n        /* \"#utility.yul\":415:424   */\n      dup4\n        /* \"#utility.yul\":411:428   */\n      add\n        /* \"#utility.yul\":402:408   */\n      dup5\n        /* \"#utility.yul\":358:429   */\n      tag_124\n      jump\t// in\n    tag_177:\n        /* \"#utility.yul\":214:436   */\n      swap3\n      swap2\n      pop\n      pop\n      jump\t// out\n        /* \"#utility.yul\":442:517   */\n    tag_125:\n        /* \"#utility.yul\":475:481   */\n      0x00\n        /* \"#utility.yul\":508:510   */\n      0x40\n        /* \"#utility.yul\":502:511   */\n      mload\n        /* \"#utility.yul\":492:511   */\n      swap1\n      pop\n        /* \"#utility.yul\":442:517   */\n      swap1\n      jump\t// out\n        /* \"#utility.yul\":523:640   */\n    tag_126:\n        /* \"#utility.yul\":632:633   */\n      0x00\n        /* \"#utility.yul\":629:630   */\n      dup1\n        /* \"#utility.yul\":622:634   */\n      revert\n        /* \"#utility.yul\":646:763   */\n    tag_127:\n        /* \"#utility.yul\":755:756   */\n      0x00\n        /* \"#utility.yul\":752:753   */\n      dup1\n        /* \"#utility.yul\":745:757   */\n      revert\n        /* \"#utility.yul\":769:891   */\n    tag_128:\n        /* \"#utility.yul\":842:866   */\n      tag_182\n        /* \"#utility.yul\":860:865   */\n      dup2\n        /* \"#utility.yul\":842:866   */\n      tag_123\n      jump\t// in\n    tag_182:\n        /* \"#utility.yul\":835:840   */\n      dup2\n        /* \"#utility.yul\":832:867   */\n      eq\n        /* \"#utility.yul\":822:885   */\n      tag_183\n      jumpi\n        /* \"#utility.yul\":881:882   */\n      0x00\n        /* \"#utility.yul\":878:879   */\n      dup1\n        /* \"#utility.yul\":871:883   */\n      revert\n        /* \"#utility.yul\":822:885   */\n    tag_183:\n        /* \"#utility.yul\":769:891   */\n      pop\n      jump\t// out\n        /* \"#utility.yul\":897:1036   */\n    tag_129:\n        /* \"#utility.yul\":943:948   */\n      0x00\n        /* \"#utility.yul\":981:987   */\n      dup2\n        /* \"#utility.yul\":968:988   */\n      calldataload\n        /* \"#utility.yul\":959:988   */\n      swap1\n      pop\n        /* \"#utility.yul\":997:1030   */\n      tag_185\n        /* \"#utility.yul\":1024:1029   */\n      dup2\n        /* \"#utility.yul\":997:1030   */\n      tag_128\n      jump\t// in\n    tag_185:\n        /* \"#utility.yul\":897:1036   */\n      swap3\n      swap2\n      pop\n      pop\n      jump\t// out\n        /* \"#utility.yul\":1042:1371   */\n    tag_20:\n        /* \"#utility.yul\":1101:1107   */\n      0x00\n        /* \"#utility.yul\":1150:1152   */\n      0x20\n        /* \"#utility.yul\":1138:1147   */\n      dup3\n        /* \"#utility.yul\":1129:1136   */\n      dup5\n        /* \"#utility.yul\":1125:1148   */\n      sub\n        /* \"#utility.yul\":1121:1153   */\n      slt\n        /* \"#utility.yul\":1118:1237   */\n      iszero\n      tag_187\n      jumpi\n        /* \"#utility.yul\":1156:1235   */\n      tag_188\n      tag_126\n      jump\t// in\n    tag_188:\n        /* \"#utility.yul\":1118:1237   */\n    tag_187:\n        /* \"#utility.yul\":1276:1277   */\n      0x00\n        /* \"#utility.yul\":1301:1354   */\n      tag_189\n        /* \"#utility.yul\":1346:1353   */\n      dup5\n        /* \"#utility.yul\":1337:1343   */\n      dup3\n        /* \"#utility.yul\":1326:1335   */\n      dup6\n        /* \"#utility.yul\":1322:1344   */\n      add\n        /* \"#utility.yul\":1301:1354   */\n      tag_129\n      jump\t// in\n    tag_189:\n        /* \"#utility.yul\":1291:1354   */\n      swap2\n      pop\n        /* \"#utility.yul\":1247:1364   */\n      pop\n        /* \"#utility.yul\":1042:1371   */\n      swap3\n      swap2\n      pop\n      pop\n      jump\t// out\n        /* \"#utility.yul\":1377:1513   */\n    tag_130:\n        /* \"#utility.yul\":1466:1472   */\n      0x00\n        /* \"#utility.yul\":1500:1505   */\n      dup2\n        /* \"#utility.yul\":1494:1506   */\n      mload\n        /* \"#utility.yul\":1484:1506   */\n      swap1\n      pop\n        /* \"#utility.yul\":1377:1513   */\n      swap2\n      swap1\n      pop\n      jump\t// out\n        /* \"#utility.yul\":1519:1725   */\n    tag_131:\n        /* \"#utility.yul\":1640:1651   */\n      0x00\n        /* \"#utility.yul\":1674:1680   */\n      dup3\n        /* \"#utility.yul\":1669:1672   */\n      dup3\n        /* \"#utility.yul\":1662:1681   */\n      mstore\n        /* \"#utility.yul\":1714:1718   */\n      0x20\n        /* \"#utility.yul\":1709:1712   */\n      dup3\n        /* \"#utility.yul\":1705:1719   */\n      add\n        /* \"#utility.yul\":1690:1719   */\n      swap1\n      pop\n        /* \"#utility.yul\":1519:1725   */\n      swap3\n      swap2\n      pop\n      pop\n      jump\t// out\n        /* \"#utility.yul\":1731:1885   */\n    tag_132:\n        /* \"#utility.yul\":1820:1824   */\n      0x00\n        /* \"#utility.yul\":1843:1846   */\n      dup2\n        /* \"#utility.yul\":1835:1846   */\n      swap1\n      pop\n        /* \"#utility.yul\":1873:1877   */\n      0x20\n        /* \"#utility.yul\":1868:1871   */\n      dup3\n        /* \"#utility.yul\":1864:1878   */\n      add\n        /* \"#utility.yul\":1856:1878   */\n      swap1\n      pop\n        /* \"#utility.yul\":1731:1885   */\n      swap2\n      swap1\n      pop\n      jump\t// out\n        /* \"#utility.yul\":1891:1990   */\n    tag_133:\n        /* \"#utility.yul\":1943:1949   */\n      0x00\n        /* \"#utility.yul\":1977:1982   */\n      dup2\n        /* \"#utility.yul\":1971:1983   */\n      mload\n        /* \"#utility.yul\":1961:1983   */\n      swap1\n      pop\n        /* \"#utility.yul\":1891:1990   */\n      swap2\n      swap1\n      pop\n      jump\t// out\n        /* \"#utility.yul\":1996:2155   */\n    tag_134:\n        /* \"#utility.yul\":2070:2081   */\n      0x00\n        /* \"#utility.yul\":2104:2110   */\n      dup3\n        /* \"#utility.yul\":2099:2102   */\n      dup3\n        /* \"#utility.yul\":2092:2111   */\n      mstore\n        /* \"#utility.yul\":2144:2148   */\n      0x20\n        /* \"#utility.yul\":2139:2142   */\n      dup3\n        /* \"#utility.yul\":2135:2149   */\n      add\n        /* \"#utility.yul\":2120:2149   */\n      swap1\n      pop\n        /* \"#utility.yul\":1996:2155   */\n      swap3\n      swap2\n      pop\n      pop\n      jump\t// out\n        /* \"#utility.yul\":2161:2468   */\n    tag_135:\n        /* \"#utility.yul\":2229:2230   */\n      0x00\n        /* \"#utility.yul\":2239:2352   */\n    tag_196:\n        /* \"#utility.yul\":2253:2259   */\n      dup4\n        /* \"#utility.yul\":2250:2251   */\n      dup2\n        /* \"#utility.yul\":2247:2260   */\n      lt\n        /* \"#utility.yul\":2239:2352   */\n      iszero\n      tag_198\n      jumpi\n        /* \"#utility.yul\":2338:2339   */\n      dup1\n        /* \"#utility.yul\":2333:2336   */\n      dup3\n        /* \"#utility.yul\":2329:2340   */\n      add\n        /* \"#utility.yul\":2323:2341   */\n      mload\n        /* \"#utility.yul\":2319:2320   */\n      dup2\n        /* \"#utility.yul\":2314:2317   */\n      dup5\n        /* \"#utility.yul\":2310:2321   */\n      add\n        /* \"#utility.yul\":2303:2342   */\n      mstore\n        /* \"#utility.yul\":2275:2277   */\n      0x20\n        /* \"#utility.yul\":2272:2273   */\n      dup2\n        /* \"#utility.yul\":2268:2278   */\n      add\n        /* \"#utility.yul\":2263:2278   */\n      swap1\n      pop\n        /* \"#utility.yul\":2239:2352   */\n      jump(tag_196)\n    tag_198:\n        /* \"#utility.yul\":2370:2376   */\n      dup4\n        /* \"#utility.yul\":2367:2368   */\n      dup2\n        /* \"#utility.yul\":2364:2377   */\n      gt\n        /* \"#utility.yul\":2361:2462   */\n      iszero\n      tag_199\n      jumpi\n        /* \"#utility.yul\":2450:2451   */\n      0x00\n        /* \"#utility.yul\":2441:2447   */\n      dup5\n        /* \"#utility.yul\":2436:2439   */\n      dup5\n        /* \"#utility.yul\":2432:2448   */\n      add\n        /* \"#utility.yul\":2425:2452   */\n      mstore\n        /* \"#utility.yul\":2361:2462   */\n    tag_199:\n        /* \"#utility.yul\":2210:2468   */\n      pop\n        /* \"#utility.yul\":2161:2468   */\n      pop\n      pop\n      pop\n      jump\t// out\n        /* \"#utility.yul\":2474:2576   */\n    tag_136:\n        /* \"#utility.yul\":2515:2521   */\n      0x00\n        /* \"#utility.yul\":2566:2568   */\n      0x1f\n        /* \"#utility.yul\":2562:2569   */\n      not\n        /* \"#utility.yul\":2557:2559   */\n      0x1f\n        /* \"#utility.yul\":2550:2555   */\n      dup4\n        /* \"#utility.yul\":2546:2560   */\n      add\n        /* \"#utility.yul\":2542:2570   */\n      and\n        /* \"#utility.yul\":2532:2570   */\n      swap1\n      pop\n        /* \"#utility.yul\":2474:2576   */\n      swap2\n      swap1\n      pop\n      jump\t// out\n        /* \"#utility.yul\":2582:2926   */\n    tag_137:\n        /* \"#utility.yul\":2660:2663   */\n      0x00\n        /* \"#utility.yul\":2688:2727   */\n      tag_202\n        /* \"#utility.yul\":2721:2726   */\n      dup3\n        /* \"#utility.yul\":2688:2727   */\n      tag_133\n      jump\t// in\n    tag_202:\n        /* \"#utility.yul\":2743:2804   */\n      tag_203\n        /* \"#utility.yul\":2797:2803   */\n      dup2\n        /* \"#utility.yul\":2792:2795   */\n      dup6\n        /* \"#utility.yul\":2743:2804   */\n      tag_134\n      jump\t// in\n    tag_203:\n        /* \"#utility.yul\":2736:2804   */\n      swap4\n      pop\n        /* \"#utility.yul\":2813:2865   */\n      tag_204\n        /* \"#utility.yul\":2858:2864   */\n      dup2\n        /* \"#utility.yul\":2853:2856   */\n      dup6\n        /* \"#utility.yul\":2846:2850   */\n      0x20\n        /* \"#utility.yul\":2839:2844   */\n      dup7\n        /* \"#utility.yul\":2835:2851   */\n      add\n        /* \"#utility.yul\":2813:2865   */\n      tag_135\n      jump\t// in\n    tag_204:\n        /* \"#utility.yul\":2890:2919   */\n      tag_205\n        /* \"#utility.yul\":2912:2918   */\n      dup2\n        /* \"#utility.yul\":2890:2919   */\n      tag_136\n      jump\t// in\n    tag_205:\n        /* \"#utility.yul\":2885:2888   */\n      dup5\n        /* \"#utility.yul\":2881:2920   */\n      add\n        /* \"#utility.yul\":2874:2920   */\n      swap2\n      pop\n        /* \"#utility.yul\":2664:2926   */\n      pop\n        /* \"#utility.yul\":2582:2926   */\n      swap3\n      swap2\n      pop\n      pop\n      jump\t// out\n        /* \"#utility.yul\":2932:3040   */\n    tag_138:\n        /* \"#utility.yul\":3009:3033   */\n      tag_207\n        /* \"#utility.yul\":3027:3032   */\n      dup2\n        /* \"#utility.yul\":3009:3033   */\n      tag_123\n      jump\t// in\n    tag_207:\n        /* \"#utility.yul\":3004:3007   */\n      dup3\n        /* \"#utility.yul\":2997:3034   */\n      mstore\n        /* \"#utility.yul\":2932:3040   */\n      pop\n      pop\n      jump\t// out\n        /* \"#utility.yul\":3112:3874   */\n    tag_139:\n        /* \"#utility.yul\":3215:3218   */\n      0x00\n        /* \"#utility.yul\":3251:3255   */\n      0x60\n        /* \"#utility.yul\":3246:3249   */\n      dup4\n        /* \"#utility.yul\":3242:3256   */\n      add\n        /* \"#utility.yul\":3338:3342   */\n      0x00\n        /* \"#utility.yul\":3331:3336   */\n      dup4\n        /* \"#utility.yul\":3327:3343   */\n      add\n        /* \"#utility.yul\":3321:3344   */\n      mload\n        /* \"#utility.yul\":3391:3394   */\n      dup5\n        /* \"#utility.yul\":3385:3389   */\n      dup3\n        /* \"#utility.yul\":3381:3395   */\n      sub\n        /* \"#utility.yul\":3374:3378   */\n      0x00\n        /* \"#utility.yul\":3369:3372   */\n      dup7\n        /* \"#utility.yul\":3365:3379   */\n      add\n        /* \"#utility.yul\":3358:3396   */\n      mstore\n        /* \"#utility.yul\":3417:3490   */\n      tag_209\n        /* \"#utility.yul\":3485:3489   */\n      dup3\n        /* \"#utility.yul\":3471:3483   */\n      dup3\n        /* \"#utility.yul\":3417:3490   */\n      tag_137\n      jump\t// in\n    tag_209:\n        /* \"#utility.yul\":3409:3490   */\n      swap2\n      pop\n        /* \"#utility.yul\":3266:3501   */\n      pop\n        /* \"#utility.yul\":3582:3586   */\n      0x20\n        /* \"#utility.yul\":3575:3580   */\n      dup4\n        /* \"#utility.yul\":3571:3587   */\n      add\n        /* \"#utility.yul\":3565:3588   */\n      mload\n        /* \"#utility.yul\":3601:3664   */\n      tag_210\n        /* \"#utility.yul\":3658:3662   */\n      0x20\n        /* \"#utility.yul\":3653:3656   */\n      dup7\n        /* \"#utility.yul\":3649:3663   */\n      add\n        /* \"#utility.yul\":3635:3647   */\n      dup3\n        /* \"#utility.yul\":3601:3664   */\n      tag_138\n      jump\t// in\n    tag_210:\n        /* \"#utility.yul\":3511:3674   */\n      pop\n        /* \"#utility.yul\":3755:3759   */\n      0x40\n        /* \"#utility.yul\":3748:3753   */\n      dup4\n        /* \"#utility.yul\":3744:3760   */\n      add\n        /* \"#utility.yul\":3738:3761   */\n      mload\n        /* \"#utility.yul\":3774:3837   */\n      tag_211\n        /* \"#utility.yul\":3831:3835   */\n      0x40\n        /* \"#utility.yul\":3826:3829   */\n      dup7\n        /* \"#utility.yul\":3822:3836   */\n      add\n        /* \"#utility.yul\":3808:3820   */\n      dup3\n        /* \"#utility.yul\":3774:3837   */\n      tag_138\n      jump\t// in\n    tag_211:\n        /* \"#utility.yul\":3684:3847   */\n      pop\n        /* \"#utility.yul\":3864:3868   */\n      dup1\n        /* \"#utility.yul\":3857:3868   */\n      swap2\n      pop\n        /* \"#utility.yul\":3220:3874   */\n      pop\n        /* \"#utility.yul\":3112:3874   */\n      swap3\n      swap2\n      pop\n      pop\n      jump\t// out\n        /* \"#utility.yul\":3880:4124   */\n    tag_140:\n        /* \"#utility.yul\":3993:4003   */\n      0x00\n        /* \"#utility.yul\":4028:4118   */\n      tag_213\n        /* \"#utility.yul\":4114:4117   */\n      dup4\n        /* \"#utility.yul\":4106:4112   */\n      dup4\n        /* \"#utility.yul\":4028:4118   */\n      tag_139\n      jump\t// in\n    tag_213:\n        /* \"#utility.yul\":4014:4118   */\n      swap1\n      pop\n        /* \"#utility.yul\":3880:4124   */\n      swap3\n      swap2\n      pop\n      pop\n      jump\t// out\n        /* \"#utility.yul\":4130:4265   */\n    tag_141:\n        /* \"#utility.yul\":4222:4226   */\n      0x00\n        /* \"#utility.yul\":4254:4258   */\n      0x20\n        /* \"#utility.yul\":4249:4252   */\n      dup3\n        /* \"#utility.yul\":4245:4259   */\n      add\n        /* \"#utility.yul\":4237:4259   */\n      swap1\n      pop\n        /* \"#utility.yul\":4130:4265   */\n      swap2\n      swap1\n      pop\n      jump\t// out\n        /* \"#utility.yul\":4341:5428   */\n    tag_142:\n        /* \"#utility.yul\":4504:4507   */\n      0x00\n        /* \"#utility.yul\":4533:4609   */\n      tag_216\n        /* \"#utility.yul\":4603:4608   */\n      dup3\n        /* \"#utility.yul\":4533:4609   */\n      tag_130\n      jump\t// in\n    tag_216:\n        /* \"#utility.yul\":4625:4733   */\n      tag_217\n        /* \"#utility.yul\":4726:4732   */\n      dup2\n        /* \"#utility.yul\":4721:4724   */\n      dup6\n        /* \"#utility.yul\":4625:4733   */\n      tag_131\n      jump\t// in\n    tag_217:\n        /* \"#utility.yul\":4618:4733   */\n      swap4\n      pop\n        /* \"#utility.yul\":4759:4762   */\n      dup4\n        /* \"#utility.yul\":4804:4808   */\n      0x20\n        /* \"#utility.yul\":4796:4802   */\n      dup3\n        /* \"#utility.yul\":4792:4809   */\n      mul\n        /* \"#utility.yul\":4787:4790   */\n      dup6\n        /* \"#utility.yul\":4783:4810   */\n      add\n        /* \"#utility.yul\":4834:4912   */\n      tag_218\n        /* \"#utility.yul\":4906:4911   */\n      dup6\n        /* \"#utility.yul\":4834:4912   */\n      tag_132\n      jump\t// in\n    tag_218:\n        /* \"#utility.yul\":4935:4942   */\n      dup1\n        /* \"#utility.yul\":4966:4967   */\n      0x00\n        /* \"#utility.yul\":4951:5383   */\n    tag_219:\n        /* \"#utility.yul\":4976:4982   */\n      dup6\n        /* \"#utility.yul\":4973:4974   */\n      dup2\n        /* \"#utility.yul\":4970:4983   */\n      lt\n        /* \"#utility.yul\":4951:5383   */\n      iszero\n      tag_221\n      jumpi\n        /* \"#utility.yul\":5047:5056   */\n      dup5\n        /* \"#utility.yul\":5041:5045   */\n      dup5\n        /* \"#utility.yul\":5037:5057   */\n      sub\n        /* \"#utility.yul\":5032:5035   */\n      dup10\n        /* \"#utility.yul\":5025:5058   */\n      mstore\n        /* \"#utility.yul\":5098:5104   */\n      dup2\n        /* \"#utility.yul\":5092:5105   */\n      mload\n        /* \"#utility.yul\":5126:5234   */\n      tag_222\n        /* \"#utility.yul\":5229:5233   */\n      dup6\n        /* \"#utility.yul\":5214:5227   */\n      dup3\n        /* \"#utility.yul\":5126:5234   */\n      tag_140\n      jump\t// in\n    tag_222:\n        /* \"#utility.yul\":5118:5234   */\n      swap5\n      pop\n        /* \"#utility.yul\":5257:5339   */\n      tag_223\n        /* \"#utility.yul\":5332:5338   */\n      dup4\n        /* \"#utility.yul\":5257:5339   */\n      tag_141\n      jump\t// in\n    tag_223:\n        /* \"#utility.yul\":5247:5339   */\n      swap3\n      pop\n        /* \"#utility.yul\":5368:5372   */\n      0x20\n        /* \"#utility.yul\":5363:5366   */\n      dup11\n        /* \"#utility.yul\":5359:5373   */\n      add\n        /* \"#utility.yul\":5352:5373   */\n      swap10\n      pop\n        /* \"#utility.yul\":5011:5383   */\n      pop\n        /* \"#utility.yul\":4998:4999   */\n      0x01\n        /* \"#utility.yul\":4995:4996   */\n      dup2\n        /* \"#utility.yul\":4991:5000   */\n      add\n        /* \"#utility.yul\":4986:5000   */\n      swap1\n      pop\n        /* \"#utility.yul\":4951:5383   */\n      jump(tag_219)\n    tag_221:\n        /* \"#utility.yul\":4955:4969   */\n      pop\n        /* \"#utility.yul\":5399:5403   */\n      dup3\n        /* \"#utility.yul\":5392:5403   */\n      swap8\n      pop\n        /* \"#utility.yul\":5419:5422   */\n      dup8\n        /* \"#utility.yul\":5412:5422   */\n      swap6\n      pop\n        /* \"#utility.yul\":4509:5428   */\n      pop\n      pop\n      pop\n      pop\n      pop\n        /* \"#utility.yul\":4341:5428   */\n      swap3\n      swap2\n      pop\n      pop\n      jump\t// out\n        /* \"#utility.yul\":5434:5895   */\n    tag_23:\n        /* \"#utility.yul\":5621:5625   */\n      0x00\n        /* \"#utility.yul\":5659:5661   */\n      0x20\n        /* \"#utility.yul\":5648:5657   */\n      dup3\n        /* \"#utility.yul\":5644:5662   */\n      add\n        /* \"#utility.yul\":5636:5662   */\n      swap1\n      pop\n        /* \"#utility.yul\":5708:5717   */\n      dup2\n        /* \"#utility.yul\":5702:5706   */\n      dup2\n        /* \"#utility.yul\":5698:5718   */\n      sub\n        /* \"#utility.yul\":5694:5695   */\n      0x00\n        /* \"#utility.yul\":5683:5692   */\n      dup4\n        /* \"#utility.yul\":5679:5696   */\n      add\n        /* \"#utility.yul\":5672:5719   */\n      mstore\n        /* \"#utility.yul\":5736:5888   */\n      tag_225\n        /* \"#utility.yul\":5883:5887   */\n      dup2\n        /* \"#utility.yul\":5874:5880   */\n      dup5\n        /* \"#utility.yul\":5736:5888   */\n      tag_142\n      jump\t// in\n    tag_225:\n        /* \"#utility.yul\":5728:5888   */\n      swap1\n      pop\n        /* \"#utility.yul\":5434:5895   */\n      swap3\n      swap2\n      pop\n      pop\n      jump\t// out\n        /* \"#utility.yul\":5901:6070   */\n    tag_143:\n        /* \"#utility.yul\":5985:5996   */\n      0x00\n        /* \"#utility.yul\":6019:6025   */\n      dup3\n        /* \"#utility.yul\":6014:6017   */\n      dup3\n        /* \"#utility.yul\":6007:6026   */\n      mstore\n        /* \"#utility.yul\":6059:6063   */\n      0x20\n        /* \"#utility.yul\":6054:6057   */\n      dup3\n        /* \"#utility.yul\":6050:6064   */\n      add\n        /* \"#utility.yul\":6035:6064   */\n      swap1\n      pop\n        /* \"#utility.yul\":5901:6070   */\n      swap3\n      swap2\n      pop\n      pop\n      jump\t// out\n        /* \"#utility.yul\":6076:6440   */\n    tag_144:\n        /* \"#utility.yul\":6164:6167   */\n      0x00\n        /* \"#utility.yul\":6192:6231   */\n      tag_228\n        /* \"#utility.yul\":6225:6230   */\n      dup3\n        /* \"#utility.yul\":6192:6231   */\n      tag_133\n      jump\t// in\n    tag_228:\n        /* \"#utility.yul\":6247:6318   */\n      tag_229\n        /* \"#utility.yul\":6311:6317   */\n      dup2\n        /* \"#utility.yul\":6306:6309   */\n      dup6\n        /* \"#utility.yul\":6247:6318   */\n      tag_143\n      jump\t// in\n    tag_229:\n        /* \"#utility.yul\":6240:6318   */\n      swap4\n      pop\n        /* \"#utility.yul\":6327:6379   */\n      tag_230\n        /* \"#utility.yul\":6372:6378   */\n      dup2\n        /* \"#utility.yul\":6367:6370   */\n      dup6\n        /* \"#utility.yul\":6360:6364   */\n      0x20\n        /* \"#utility.yul\":6353:6358   */\n      dup7\n        /* \"#utility.yul\":6349:6365   */\n      add\n        /* \"#utility.yul\":6327:6379   */\n      tag_135\n      jump\t// in\n    tag_230:\n        /* \"#utility.yul\":6404:6433   */\n      tag_231\n        /* \"#utility.yul\":6426:6432   */\n      dup2\n        /* \"#utility.yul\":6404:6433   */\n      tag_136\n      jump\t// in\n    tag_231:\n        /* \"#utility.yul\":6399:6402   */\n      dup5\n        /* \"#utility.yul\":6395:6434   */\n      add\n        /* \"#utility.yul\":6388:6434   */\n      swap2\n      pop\n        /* \"#utility.yul\":6168:6440   */\n      pop\n        /* \"#utility.yul\":6076:6440   */\n      swap3\n      swap2\n      pop\n      pop\n      jump\t// out\n        /* \"#utility.yul\":6446:6979   */\n    tag_28:\n        /* \"#utility.yul\":6615:6619   */\n      0x00\n        /* \"#utility.yul\":6653:6655   */\n      0x60\n        /* \"#utility.yul\":6642:6651   */\n      dup3\n        /* \"#utility.yul\":6638:6656   */\n      add\n        /* \"#utility.yul\":6630:6656   */\n      swap1\n      pop\n        /* \"#utility.yul\":6702:6711   */\n      dup2\n        /* \"#utility.yul\":6696:6700   */\n      dup2\n        /* \"#utility.yul\":6692:6712   */\n      sub\n        /* \"#utility.yul\":6688:6689   */\n      0x00\n        /* \"#utility.yul\":6677:6686   */\n      dup4\n        /* \"#utility.yul\":6673:6690   */\n      add\n        /* \"#utility.yul\":6666:6713   */\n      mstore\n        /* \"#utility.yul\":6730:6808   */\n      tag_233\n        /* \"#utility.yul\":6803:6807   */\n      dup2\n        /* \"#utility.yul\":6794:6800   */\n      dup7\n        /* \"#utility.yul\":6730:6808   */\n      tag_144\n      jump\t// in\n    tag_233:\n        /* \"#utility.yul\":6722:6808   */\n      swap1\n      pop\n        /* \"#utility.yul\":6818:6890   */\n      tag_234\n        /* \"#utility.yul\":6886:6888   */\n      0x20\n        /* \"#utility.yul\":6875:6884   */\n      dup4\n        /* \"#utility.yul\":6871:6889   */\n      add\n        /* \"#utility.yul\":6862:6868   */\n      dup6\n        /* \"#utility.yul\":6818:6890   */\n      tag_124\n      jump\t// in\n    tag_234:\n        /* \"#utility.yul\":6900:6972   */\n      tag_235\n        /* \"#utility.yul\":6968:6970   */\n      0x40\n        /* \"#utility.yul\":6957:6966   */\n      dup4\n        /* \"#utility.yul\":6953:6971   */\n      add\n        /* \"#utility.yul\":6944:6950   */\n      dup5\n        /* \"#utility.yul\":6900:6972   */\n      tag_124\n      jump\t// in\n    tag_235:\n        /* \"#utility.yul\":6446:6979   */\n      swap5\n      swap4\n      pop\n      pop\n      pop\n      pop\n      jump\t// out\n        /* \"#utility.yul\":6985:7111   */\n    tag_145:\n        /* \"#utility.yul\":7022:7029   */\n      0x00\n        /* \"#utility.yul\":7062:7104   */\n      0xffffffffffffffffffffffffffffffffffffffff\n        /* \"#utility.yul\":7055:7060   */\n      dup3\n        /* \"#utility.yul\":7051:7105   */\n      and\n        /* \"#utility.yul\":7040:7105   */\n      swap1\n      pop\n        /* \"#utility.yul\":6985:7111   */\n      swap2\n      swap1\n      pop\n      jump\t// out\n        /* \"#utility.yul\":7117:7213   */\n    tag_146:\n        /* \"#utility.yul\":7154:7161   */\n      0x00\n        /* \"#utility.yul\":7183:7207   */\n      tag_238\n        /* \"#utility.yul\":7201:7206   */\n      dup3\n        /* \"#utility.yul\":7183:7207   */\n      tag_145\n      jump\t// in\n    tag_238:\n        /* \"#utility.yul\":7172:7207   */\n      swap1\n      pop\n        /* \"#utility.yul\":7117:7213   */\n      swap2\n      swap1\n      pop\n      jump\t// out\n        /* \"#utility.yul\":7219:7337   */\n    tag_147:\n        /* \"#utility.yul\":7306:7330   */\n      tag_240\n        /* \"#utility.yul\":7324:7329   */\n      dup2\n        /* \"#utility.yul\":7306:7330   */\n      tag_146\n      jump\t// in\n    tag_240:\n        /* \"#utility.yul\":7301:7304   */\n      dup3\n        /* \"#utility.yul\":7294:7331   */\n      mstore\n        /* \"#utility.yul\":7219:7337   */\n      pop\n      pop\n      jump\t// out\n        /* \"#utility.yul\":7343:7675   */\n    tag_33:\n        /* \"#utility.yul\":7464:7468   */\n      0x00\n        /* \"#utility.yul\":7502:7504   */\n      0x40\n        /* \"#utility.yul\":7491:7500   */\n      dup3\n        /* \"#utility.yul\":7487:7505   */\n      add\n        /* \"#utility.yul\":7479:7505   */\n      swap1\n      pop\n        /* \"#utility.yul\":7515:7586   */\n      tag_242\n        /* \"#utility.yul\":7583:7584   */\n      0x00\n        /* \"#utility.yul\":7572:7581   */\n      dup4\n        /* \"#utility.yul\":7568:7585   */\n      add\n        /* \"#utility.yul\":7559:7565   */\n      dup6\n        /* \"#utility.yul\":7515:7586   */\n      tag_147\n      jump\t// in\n    tag_242:\n        /* \"#utility.yul\":7596:7668   */\n      tag_243\n        /* \"#utility.yul\":7664:7666   */\n      0x20\n        /* \"#utility.yul\":7653:7662   */\n      dup4\n        /* \"#utility.yul\":7649:7667   */\n      add\n        /* \"#utility.yul\":7640:7646   */\n      dup5\n        /* \"#utility.yul\":7596:7668   */\n      tag_124\n      jump\t// in\n    tag_243:\n        /* \"#utility.yul\":7343:7675   */\n      swap4\n      swap3\n      pop\n      pop\n      pop\n      jump\t// out\n        /* \"#utility.yul\":7681:7903   */\n    tag_37:\n        /* \"#utility.yul\":7774:7778   */\n      0x00\n        /* \"#utility.yul\":7812:7814   */\n      0x20\n        /* \"#utility.yul\":7801:7810   */\n      dup3\n        /* \"#utility.yul\":7797:7815   */\n      add\n        /* \"#utility.yul\":7789:7815   */\n      swap1\n      pop\n        /* \"#utility.yul\":7825:7896   */\n      tag_245\n        /* \"#utility.yul\":7893:7894   */\n      0x00\n        /* \"#utility.yul\":7882:7891   */\n      dup4\n        /* \"#utility.yul\":7878:7895   */\n      add\n        /* \"#utility.yul\":7869:7875   */\n      dup5\n        /* \"#utility.yul\":7825:7896   */\n      tag_147\n      jump\t// in\n    tag_245:\n        /* \"#utility.yul\":7681:7903   */\n      swap3\n      swap2\n      pop\n      pop\n      jump\t// out\n        /* \"#utility.yul\":7909:8026   */\n    tag_148:\n        /* \"#utility.yul\":8018:8019   */\n      0x00\n        /* \"#utility.yul\":8015:8016   */\n      dup1\n        /* \"#utility.yul\":8008:8020   */\n      revert\n        /* \"#utility.yul\":8032:8149   */\n    tag_149:\n        /* \"#utility.yul\":8141:8142   */\n      0x00\n        /* \"#utility.yul\":8138:8139   */\n      dup1\n        /* \"#utility.yul\":8131:8143   */\n      revert\n        /* \"#utility.yul\":8155:8335   */\n    tag_150:\n        /* \"#utility.yul\":8203:8280   */\n      0x4e487b7100000000000000000000000000000000000000000000000000000000\n        /* \"#utility.yul\":8200:8201   */\n      0x00\n        /* \"#utility.yul\":8193:8281   */\n      mstore\n        /* \"#utility.yul\":8300:8304   */\n      0x41\n        /* \"#utility.yul\":8297:8298   */\n      0x04\n        /* \"#utility.yul\":8290:8305   */\n      mstore\n        /* \"#utility.yul\":8324:8328   */\n      0x24\n        /* \"#utility.yul\":8321:8322   */\n      0x00\n        /* \"#utility.yul\":8314:8329   */\n      revert\n        /* \"#utility.yul\":8341:8622   */\n    tag_151:\n        /* \"#utility.yul\":8424:8451   */\n      tag_250\n        /* \"#utility.yul\":8446:8450   */\n      dup3\n        /* \"#utility.yul\":8424:8451   */\n      tag_136\n      jump\t// in\n    tag_250:\n        /* \"#utility.yul\":8416:8422   */\n      dup2\n        /* \"#utility.yul\":8412:8452   */\n      add\n        /* \"#utility.yul\":8554:8560   */\n      dup2\n        /* \"#utility.yul\":8542:8552   */\n      dup2\n        /* \"#utility.yul\":8539:8561   */\n      lt\n        /* \"#utility.yul\":8518:8536   */\n      0xffffffffffffffff\n        /* \"#utility.yul\":8506:8516   */\n      dup3\n        /* \"#utility.yul\":8503:8537   */\n      gt\n        /* \"#utility.yul\":8500:8562   */\n      or\n        /* \"#utility.yul\":8497:8585   */\n      iszero\n      tag_251\n      jumpi\n        /* \"#utility.yul\":8565:8583   */\n      tag_252\n      tag_150\n      jump\t// in\n    tag_252:\n        /* \"#utility.yul\":8497:8585   */\n    tag_251:\n        /* \"#utility.yul\":8605:8615   */\n      dup1\n        /* \"#utility.yul\":8601:8603   */\n      0x40\n        /* \"#utility.yul\":8594:8616   */\n      mstore\n        /* \"#utility.yul\":8384:8622   */\n      pop\n        /* \"#utility.yul\":8341:8622   */\n      pop\n      pop\n      jump\t// out\n        /* \"#utility.yul\":8628:8757   */\n    tag_152:\n        /* \"#utility.yul\":8662:8668   */\n      0x00\n        /* \"#utility.yul\":8689:8709   */\n      tag_254\n      tag_125\n      jump\t// in\n    tag_254:\n        /* \"#utility.yul\":8679:8709   */\n      swap1\n      pop\n        /* \"#utility.yul\":8718:8751   */\n      tag_255\n        /* \"#utility.yul\":8746:8750   */\n      dup3\n        /* \"#utility.yul\":8738:8744   */\n      dup3\n        /* \"#utility.yul\":8718:8751   */\n      tag_151\n      jump\t// in\n    tag_255:\n        /* \"#utility.yul\":8628:8757   */\n      swap2\n      swap1\n      pop\n      jump\t// out\n        /* \"#utility.yul\":8763:9071   */\n    tag_153:\n        /* \"#utility.yul\":8825:8829   */\n      0x00\n        /* \"#utility.yul\":8915:8933   */\n      0xffffffffffffffff\n        /* \"#utility.yul\":8907:8913   */\n      dup3\n        /* \"#utility.yul\":8904:8934   */\n      gt\n        /* \"#utility.yul\":8901:8957   */\n      iszero\n      tag_257\n      jumpi\n        /* \"#utility.yul\":8937:8955   */\n      tag_258\n      tag_150\n      jump\t// in\n    tag_258:\n        /* \"#utility.yul\":8901:8957   */\n    tag_257:\n        /* \"#utility.yul\":8975:9004   */\n      tag_259\n        /* \"#utility.yul\":8997:9003   */\n      dup3\n        /* \"#utility.yul\":8975:9004   */\n      tag_136\n      jump\t// in\n    tag_259:\n        /* \"#utility.yul\":8967:9004   */\n      swap1\n      pop\n        /* \"#utility.yul\":9059:9063   */\n      0x20\n        /* \"#utility.yul\":9053:9057   */\n      dup2\n        /* \"#utility.yul\":9049:9064   */\n      add\n        /* \"#utility.yul\":9041:9064   */\n      swap1\n      pop\n        /* \"#utility.yul\":8763:9071   */\n      swap2\n      swap1\n      pop\n      jump\t// out\n        /* \"#utility.yul\":9077:9231   */\n    tag_154:\n        /* \"#utility.yul\":9161:9167   */\n      dup3\n        /* \"#utility.yul\":9156:9159   */\n      dup2\n        /* \"#utility.yul\":9151:9154   */\n      dup4\n        /* \"#utility.yul\":9138:9168   */\n      calldatacopy\n        /* \"#utility.yul\":9223:9224   */\n      0x00\n        /* \"#utility.yul\":9214:9220   */\n      dup4\n        /* \"#utility.yul\":9209:9212   */\n      dup4\n        /* \"#utility.yul\":9205:9221   */\n      add\n        /* \"#utility.yul\":9198:9225   */\n      mstore\n        /* \"#utility.yul\":9077:9231   */\n      pop\n      pop\n      pop\n      jump\t// out\n        /* \"#utility.yul\":9237:9649   */\n    tag_155:\n        /* \"#utility.yul\":9315:9320   */\n      0x00\n        /* \"#utility.yul\":9340:9406   */\n      tag_262\n        /* \"#utility.yul\":9356:9405   */\n      tag_263\n        /* \"#utility.yul\":9398:9404   */\n      dup5\n        /* \"#utility.yul\":9356:9405   */\n      tag_153\n      jump\t// in\n    tag_263:\n        /* \"#utility.yul\":9340:9406   */\n      tag_152\n      jump\t// in\n    tag_262:\n        /* \"#utility.yul\":9331:9406   */\n      swap1\n      pop\n        /* \"#utility.yul\":9429:9435   */\n      dup3\n        /* \"#utility.yul\":9422:9427   */\n      dup2\n        /* \"#utility.yul\":9415:9436   */\n      mstore\n        /* \"#utility.yul\":9467:9471   */\n      0x20\n        /* \"#utility.yul\":9460:9465   */\n      dup2\n        /* \"#utility.yul\":9456:9472   */\n      add\n        /* \"#utility.yul\":9505:9508   */\n      dup5\n        /* \"#utility.yul\":9496:9502   */\n      dup5\n        /* \"#utility.yul\":9491:9494   */\n      dup5\n        /* \"#utility.yul\":9487:9503   */\n      add\n        /* \"#utility.yul\":9484:9509   */\n      gt\n        /* \"#utility.yul\":9481:9593   */\n      iszero\n      tag_264\n      jumpi\n        /* \"#utility.yul\":9512:9591   */\n      tag_265\n      tag_149\n      jump\t// in\n    tag_265:\n        /* \"#utility.yul\":9481:9593   */\n    tag_264:\n        /* \"#utility.yul\":9602:9643   */\n      tag_266\n        /* \"#utility.yul\":9636:9642   */\n      dup5\n        /* \"#utility.yul\":9631:9634   */\n      dup3\n        /* \"#utility.yul\":9626:9629   */\n      dup6\n        /* \"#utility.yul\":9602:9643   */\n      tag_154\n      jump\t// in\n    tag_266:\n        /* \"#utility.yul\":9321:9649   */\n      pop\n        /* \"#utility.yul\":9237:9649   */\n      swap4\n      swap3\n      pop\n      pop\n      pop\n      jump\t// out\n        /* \"#utility.yul\":9669:10009   */\n    tag_156:\n        /* \"#utility.yul\":9725:9730   */\n      0x00\n        /* \"#utility.yul\":9774:9777   */\n      dup3\n        /* \"#utility.yul\":9767:9771   */\n      0x1f\n        /* \"#utility.yul\":9759:9765   */\n      dup4\n        /* \"#utility.yul\":9755:9772   */\n      add\n        /* \"#utility.yul\":9751:9778   */\n      slt\n        /* \"#utility.yul\":9741:9863   */\n      tag_268\n      jumpi\n        /* \"#utility.yul\":9782:9861   */\n      tag_269\n      tag_148\n      jump\t// in\n    tag_269:\n        /* \"#utility.yul\":9741:9863   */\n    tag_268:\n        /* \"#utility.yul\":9899:9905   */\n      dup2\n        /* \"#utility.yul\":9886:9906   */\n      calldataload\n        /* \"#utility.yul\":9924:10003   */\n      tag_270\n        /* \"#utility.yul\":9999:10002   */\n      dup5\n        /* \"#utility.yul\":9991:9997   */\n      dup3\n        /* \"#utility.yul\":9984:9988   */\n      0x20\n        /* \"#utility.yul\":9976:9982   */\n      dup7\n        /* \"#utility.yul\":9972:9989   */\n      add\n        /* \"#utility.yul\":9924:10003   */\n      tag_155\n      jump\t// in\n    tag_270:\n        /* \"#utility.yul\":9915:10003   */\n      swap2\n      pop\n        /* \"#utility.yul\":9731:10009   */\n      pop\n        /* \"#utility.yul\":9669:10009   */\n      swap3\n      swap2\n      pop\n      pop\n      jump\t// out\n        /* \"#utility.yul\":10015:10524   */\n    tag_40:\n        /* \"#utility.yul\":10084:10090   */\n      0x00\n        /* \"#utility.yul\":10133:10135   */\n      0x20\n        /* \"#utility.yul\":10121:10130   */\n      dup3\n        /* \"#utility.yul\":10112:10119   */\n      dup5\n        /* \"#utility.yul\":10108:10131   */\n      sub\n        /* \"#utility.yul\":10104:10136   */\n      slt\n        /* \"#utility.yul\":10101:10220   */\n      iszero\n      tag_272\n      jumpi\n        /* \"#utility.yul\":10139:10218   */\n      tag_273\n      tag_126\n      jump\t// in\n    tag_273:\n        /* \"#utility.yul\":10101:10220   */\n    tag_272:\n        /* \"#utility.yul\":10287:10288   */\n      0x00\n        /* \"#utility.yul\":10276:10285   */\n      dup3\n        /* \"#utility.yul\":10272:10289   */\n      add\n        /* \"#utility.yul\":10259:10290   */\n      calldataload\n        /* \"#utility.yul\":10317:10335   */\n      0xffffffffffffffff\n        /* \"#utility.yul\":10309:10315   */\n      dup2\n        /* \"#utility.yul\":10306:10336   */\n      gt\n        /* \"#utility.yul\":10303:10420   */\n      iszero\n      tag_274\n      jumpi\n        /* \"#utility.yul\":10339:10418   */\n      tag_275\n      tag_127\n      jump\t// in\n    tag_275:\n        /* \"#utility.yul\":10303:10420   */\n    tag_274:\n        /* \"#utility.yul\":10444:10507   */\n      tag_276\n        /* \"#utility.yul\":10499:10506   */\n      dup5\n        /* \"#utility.yul\":10490:10496   */\n      dup3\n        /* \"#utility.yul\":10479:10488   */\n      dup6\n        /* \"#utility.yul\":10475:10497   */\n      add\n        /* \"#utility.yul\":10444:10507   */\n      tag_156\n      jump\t// in\n    tag_276:\n        /* \"#utility.yul\":10434:10507   */\n      swap2\n      pop\n        /* \"#utility.yul\":10230:10517   */\n      pop\n        /* \"#utility.yul\":10015:10524   */\n      swap3\n      swap2\n      pop\n      pop\n      jump\t// out\n        /* \"#utility.yul\":10530:10843   */\n    tag_46:\n        /* \"#utility.yul\":10643:10647   */\n      0x00\n        /* \"#utility.yul\":10681:10683   */\n      0x20\n        /* \"#utility.yul\":10670:10679   */\n      dup3\n        /* \"#utility.yul\":10666:10684   */\n      add\n        /* \"#utility.yul\":10658:10684   */\n      swap1\n      pop\n        /* \"#utility.yul\":10730:10739   */\n      dup2\n        /* \"#utility.yul\":10724:10728   */\n      dup2\n        /* \"#utility.yul\":10720:10740   */\n      sub\n        /* \"#utility.yul\":10716:10717   */\n      0x00\n        /* \"#utility.yul\":10705:10714   */\n      dup4\n        /* \"#utility.yul\":10701:10718   */\n      add\n        /* \"#utility.yul\":10694:10741   */\n      mstore\n        /* \"#utility.yul\":10758:10836   */\n      tag_278\n        /* \"#utility.yul\":10831:10835   */\n      dup2\n        /* \"#utility.yul\":10822:10828   */\n      dup5\n        /* \"#utility.yul\":10758:10836   */\n      tag_144\n      jump\t// in\n    tag_278:\n        /* \"#utility.yul\":10750:10836   */\n      swap1\n      pop\n        /* \"#utility.yul\":10530:10843   */\n      swap3\n      swap2\n      pop\n      pop\n      jump\t// out\n        /* \"#utility.yul\":10849:11029   */\n    tag_157:\n        /* \"#utility.yul\":10897:10974   */\n      0x4e487b7100000000000000000000000000000000000000000000000000000000\n        /* \"#utility.yul\":10894:10895   */\n      0x00\n        /* \"#utility.yul\":10887:10975   */\n      mstore\n        /* \"#utility.yul\":10994:10998   */\n      0x22\n        /* \"#utility.yul\":10991:10992   */\n      0x04\n        /* \"#utility.yul\":10984:10999   */\n      mstore\n        /* \"#utility.yul\":11018:11022   */\n      0x24\n        /* \"#utility.yul\":11015:11016   */\n      0x00\n        /* \"#utility.yul\":11008:11023   */\n      revert\n        /* \"#utility.yul\":11035:11355   */\n    tag_60:\n        /* \"#utility.yul\":11079:11085   */\n      0x00\n        /* \"#utility.yul\":11116:11117   */\n      0x02\n        /* \"#utility.yul\":11110:11114   */\n      dup3\n        /* \"#utility.yul\":11106:11118   */\n      div\n        /* \"#utility.yul\":11096:11118   */\n      swap1\n      pop\n        /* \"#utility.yul\":11163:11164   */\n      0x01\n        /* \"#utility.yul\":11157:11161   */\n      dup3\n        /* \"#utility.yul\":11153:11165   */\n      and\n        /* \"#utility.yul\":11184:11202   */\n      dup1\n        /* \"#utility.yul\":11174:11255   */\n      tag_281\n      jumpi\n        /* \"#utility.yul\":11240:11244   */\n      0x7f\n        /* \"#utility.yul\":11232:11238   */\n      dup3\n        /* \"#utility.yul\":11228:11245   */\n      and\n        /* \"#utility.yul\":11218:11245   */\n      swap2\n      pop\n        /* \"#utility.yul\":11174:11255   */\n    tag_281:\n        /* \"#utility.yul\":11302:11304   */\n      0x20\n        /* \"#utility.yul\":11294:11300   */\n      dup3\n        /* \"#utility.yul\":11291:11305   */\n      lt\n        /* \"#utility.yul\":11271:11289   */\n      dup2\n        /* \"#utility.yul\":11268:11306   */\n      eq\n        /* \"#utility.yul\":11265:11349   */\n      iszero\n      tag_282\n      jumpi\n        /* \"#utility.yul\":11321:11339   */\n      tag_283\n      tag_157\n      jump\t// in\n    tag_283:\n        /* \"#utility.yul\":11265:11349   */\n    tag_282:\n        /* \"#utility.yul\":11086:11355   */\n      pop\n        /* \"#utility.yul\":11035:11355   */\n      swap2\n      swap1\n      pop\n      jump\t// out\n        /* \"#utility.yul\":11361:11447   */\n    tag_158:\n        /* \"#utility.yul\":11396:11403   */\n      0x00\n        /* \"#utility.yul\":11436:11440   */\n      0xff\n        /* \"#utility.yul\":11429:11434   */\n      dup3\n        /* \"#utility.yul\":11425:11441   */\n      and\n        /* \"#utility.yul\":11414:11441   */\n      swap1\n      pop\n        /* \"#utility.yul\":11361:11447   */\n      swap2\n      swap1\n      pop\n      jump\t// out\n        /* \"#utility.yul\":11453:11571   */\n    tag_159:\n        /* \"#utility.yul\":11524:11546   */\n      tag_286\n        /* \"#utility.yul\":11540:11545   */\n      dup2\n        /* \"#utility.yul\":11524:11546   */\n      tag_158\n      jump\t// in\n    tag_286:\n        /* \"#utility.yul\":11517:11522   */\n      dup2\n        /* \"#utility.yul\":11514:11547   */\n      eq\n        /* \"#utility.yul\":11504:11565   */\n      tag_287\n      jumpi\n        /* \"#utility.yul\":11561:11562   */\n      0x00\n        /* \"#utility.yul\":11558:11559   */\n      dup1\n        /* \"#utility.yul\":11551:11563   */\n      revert\n        /* \"#utility.yul\":11504:11565   */\n    tag_287:\n        /* \"#utility.yul\":11453:11571   */\n      pop\n      jump\t// out\n        /* \"#utility.yul\":11577:11716   */\n    tag_160:\n        /* \"#utility.yul\":11632:11637   */\n      0x00\n        /* \"#utility.yul\":11663:11669   */\n      dup2\n        /* \"#utility.yul\":11657:11670   */\n      mload\n        /* \"#utility.yul\":11648:11670   */\n      swap1\n      pop\n        /* \"#utility.yul\":11679:11710   */\n      tag_289\n        /* \"#utility.yul\":11704:11709   */\n      dup2\n        /* \"#utility.yul\":11679:11710   */\n      tag_159\n      jump\t// in\n    tag_289:\n        /* \"#utility.yul\":11577:11716   */\n      swap3\n      swap2\n      pop\n      pop\n      jump\t// out\n        /* \"#utility.yul\":11722:12069   */\n    tag_80:\n        /* \"#utility.yul\":11790:11796   */\n      0x00\n        /* \"#utility.yul\":11839:11841   */\n      0x20\n        /* \"#utility.yul\":11827:11836   */\n      dup3\n        /* \"#utility.yul\":11818:11825   */\n      dup5\n        /* \"#utility.yul\":11814:11837   */\n      sub\n        /* \"#utility.yul\":11810:11842   */\n      slt\n        /* \"#utility.yul\":11807:11926   */\n      iszero\n      tag_291\n      jumpi\n        /* \"#utility.yul\":11845:11924   */\n      tag_292\n      tag_126\n      jump\t// in\n    tag_292:\n        /* \"#utility.yul\":11807:11926   */\n    tag_291:\n        /* \"#utility.yul\":11965:11966   */\n      0x00\n        /* \"#utility.yul\":11990:12052   */\n      tag_293\n        /* \"#utility.yul\":12044:12051   */\n      dup5\n        /* \"#utility.yul\":12035:12041   */\n      dup3\n        /* \"#utility.yul\":12024:12033   */\n      dup6\n        /* \"#utility.yul\":12020:12042   */\n      add\n        /* \"#utility.yul\":11990:12052   */\n      tag_160\n      jump\t// in\n    tag_293:\n        /* \"#utility.yul\":11980:12052   */\n      swap2\n      pop\n        /* \"#utility.yul\":11936:12062   */\n      pop\n        /* \"#utility.yul\":11722:12069   */\n      swap3\n      swap2\n      pop\n      pop\n      jump\t// out\n        /* \"#utility.yul\":12075:12334   */\n    tag_161:\n        /* \"#utility.yul\":12160:12164   */\n      0x00\n        /* \"#utility.yul\":12250:12268   */\n      0xffffffffffffffff\n        /* \"#utility.yul\":12242:12248   */\n      dup3\n        /* \"#utility.yul\":12239:12269   */\n      gt\n        /* \"#utility.yul\":12236:12292   */\n      iszero\n      tag_295\n      jumpi\n        /* \"#utility.yul\":12272:12290   */\n      tag_296\n      tag_150\n      jump\t// in\n    tag_296:\n        /* \"#utility.yul\":12236:12292   */\n    tag_295:\n        /* \"#utility.yul\":12322:12326   */\n      0x20\n        /* \"#utility.yul\":12314:12320   */\n      dup3\n        /* \"#utility.yul\":12310:12327   */\n      mul\n        /* \"#utility.yul\":12302:12327   */\n      swap1\n      pop\n        /* \"#utility.yul\":12075:12334   */\n      swap2\n      swap1\n      pop\n      jump\t// out\n        /* \"#utility.yul\":12340:12457   */\n    tag_162:\n        /* \"#utility.yul\":12449:12450   */\n      0x00\n        /* \"#utility.yul\":12446:12447   */\n      dup1\n        /* \"#utility.yul\":12439:12451   */\n      revert\n        /* \"#utility.yul\":12463:12884   */\n    tag_163:\n        /* \"#utility.yul\":12552:12557   */\n      0x00\n        /* \"#utility.yul\":12577:12643   */\n      tag_299\n        /* \"#utility.yul\":12593:12642   */\n      tag_300\n        /* \"#utility.yul\":12635:12641   */\n      dup5\n        /* \"#utility.yul\":12593:12642   */\n      tag_153\n      jump\t// in\n    tag_300:\n        /* \"#utility.yul\":12577:12643   */\n      tag_152\n      jump\t// in\n    tag_299:\n        /* \"#utility.yul\":12568:12643   */\n      swap1\n      pop\n        /* \"#utility.yul\":12666:12672   */\n      dup3\n        /* \"#utility.yul\":12659:12664   */\n      dup2\n        /* \"#utility.yul\":12652:12673   */\n      mstore\n        /* \"#utility.yul\":12704:12708   */\n      0x20\n        /* \"#utility.yul\":12697:12702   */\n      dup2\n        /* \"#utility.yul\":12693:12709   */\n      add\n        /* \"#utility.yul\":12742:12745   */\n      dup5\n        /* \"#utility.yul\":12733:12739   */\n      dup5\n        /* \"#utility.yul\":12728:12731   */\n      dup5\n        /* \"#utility.yul\":12724:12740   */\n      add\n        /* \"#utility.yul\":12721:12746   */\n      gt\n        /* \"#utility.yul\":12718:12830   */\n      iszero\n      tag_301\n      jumpi\n        /* \"#utility.yul\":12749:12828   */\n      tag_302\n      tag_149\n      jump\t// in\n    tag_302:\n        /* \"#utility.yul\":12718:12830   */\n    tag_301:\n        /* \"#utility.yul\":12839:12878   */\n      tag_303\n        /* \"#utility.yul\":12871:12877   */\n      dup5\n        /* \"#utility.yul\":12866:12869   */\n      dup3\n        /* \"#utility.yul\":12861:12864   */\n      dup6\n        /* \"#utility.yul\":12839:12878   */\n      tag_135\n      jump\t// in\n    tag_303:\n        /* \"#utility.yul\":12558:12884   */\n      pop\n        /* \"#utility.yul\":12463:12884   */\n      swap4\n      swap3\n      pop\n      pop\n      pop\n      jump\t// out\n        /* \"#utility.yul\":12904:13259   */\n    tag_164:\n        /* \"#utility.yul\":12971:12976   */\n      0x00\n        /* \"#utility.yul\":13020:13023   */\n      dup3\n        /* \"#utility.yul\":13013:13017   */\n      0x1f\n        /* \"#utility.yul\":13005:13011   */\n      dup4\n        /* \"#utility.yul\":13001:13018   */\n      add\n        /* \"#utility.yul\":12997:13024   */\n      slt\n        /* \"#utility.yul\":12987:13109   */\n      tag_305\n      jumpi\n        /* \"#utility.yul\":13028:13107   */\n      tag_306\n      tag_148\n      jump\t// in\n    tag_306:\n        /* \"#utility.yul\":12987:13109   */\n    tag_305:\n        /* \"#utility.yul\":13138:13144   */\n      dup2\n        /* \"#utility.yul\":13132:13145   */\n      mload\n        /* \"#utility.yul\":13163:13253   */\n      tag_307\n        /* \"#utility.yul\":13249:13252   */\n      dup5\n        /* \"#utility.yul\":13241:13247   */\n      dup3\n        /* \"#utility.yul\":13234:13238   */\n      0x20\n        /* \"#utility.yul\":13226:13232   */\n      dup7\n        /* \"#utility.yul\":13222:13239   */\n      add\n        /* \"#utility.yul\":13163:13253   */\n      tag_163\n      jump\t// in\n    tag_307:\n        /* \"#utility.yul\":13154:13253   */\n      swap2\n      pop\n        /* \"#utility.yul\":12977:13259   */\n      pop\n        /* \"#utility.yul\":12904:13259   */\n      swap3\n      swap2\n      pop\n      pop\n      jump\t// out\n        /* \"#utility.yul\":13282:14175   */\n    tag_165:\n        /* \"#utility.yul\":13397:13402   */\n      0x00\n        /* \"#utility.yul\":13422:13511   */\n      tag_309\n        /* \"#utility.yul\":13438:13510   */\n      tag_310\n        /* \"#utility.yul\":13503:13509   */\n      dup5\n        /* \"#utility.yul\":13438:13510   */\n      tag_161\n      jump\t// in\n    tag_310:\n        /* \"#utility.yul\":13422:13511   */\n      tag_152\n      jump\t// in\n    tag_309:\n        /* \"#utility.yul\":13413:13511   */\n      swap1\n      pop\n        /* \"#utility.yul\":13531:13536   */\n      dup1\n        /* \"#utility.yul\":13584:13588   */\n      0x20\n        /* \"#utility.yul\":13576:13582   */\n      dup5\n        /* \"#utility.yul\":13572:13589   */\n      mul\n        /* \"#utility.yul\":13564:13570   */\n      dup4\n        /* \"#utility.yul\":13560:13590   */\n      add\n        /* \"#utility.yul\":13613:13616   */\n      dup6\n        /* \"#utility.yul\":13605:13611   */\n      dup2\n        /* \"#utility.yul\":13602:13617   */\n      gt\n        /* \"#utility.yul\":13599:13721   */\n      iszero\n      tag_311\n      jumpi\n        /* \"#utility.yul\":13632:13711   */\n      tag_312\n      tag_162\n      jump\t// in\n    tag_312:\n        /* \"#utility.yul\":13599:13721   */\n    tag_311:\n        /* \"#utility.yul\":13747:13753   */\n      dup4\n        /* \"#utility.yul\":13730:14169   */\n    tag_313:\n        /* \"#utility.yul\":13764:13770   */\n      dup2\n        /* \"#utility.yul\":13759:13762   */\n      dup2\n        /* \"#utility.yul\":13756:13771   */\n      lt\n        /* \"#utility.yul\":13730:14169   */\n      iszero\n      tag_315\n      jumpi\n        /* \"#utility.yul\":13846:13849   */\n      dup1\n        /* \"#utility.yul\":13840:13850   */\n      mload\n        /* \"#utility.yul\":13882:13900   */\n      0xffffffffffffffff\n        /* \"#utility.yul\":13869:13880   */\n      dup2\n        /* \"#utility.yul\":13866:13901   */\n      gt\n        /* \"#utility.yul\":13863:13985   */\n      iszero\n      tag_316\n      jumpi\n        /* \"#utility.yul\":13904:13983   */\n      tag_317\n      tag_148\n      jump\t// in\n    tag_317:\n        /* \"#utility.yul\":13863:13985   */\n    tag_316:\n        /* \"#utility.yul\":14028:14039   */\n      dup1\n        /* \"#utility.yul\":14020:14026   */\n      dup7\n        /* \"#utility.yul\":14016:14040   */\n      add\n        /* \"#utility.yul\":14066:14124   */\n      tag_318\n        /* \"#utility.yul\":14120:14123   */\n      dup10\n        /* \"#utility.yul\":14108:14118   */\n      dup3\n        /* \"#utility.yul\":14066:14124   */\n      tag_164\n      jump\t// in\n    tag_318:\n        /* \"#utility.yul\":14061:14064   */\n      dup6\n        /* \"#utility.yul\":14054:14125   */\n      mstore\n        /* \"#utility.yul\":14154:14158   */\n      0x20\n        /* \"#utility.yul\":14149:14152   */\n      dup6\n        /* \"#utility.yul\":14145:14159   */\n      add\n        /* \"#utility.yul\":14138:14159   */\n      swap5\n      pop\n        /* \"#utility.yul\":13806:14169   */\n      pop\n      pop\n        /* \"#utility.yul\":13790:13794   */\n      0x20\n        /* \"#utility.yul\":13785:13788   */\n      dup2\n        /* \"#utility.yul\":13781:13795   */\n      add\n        /* \"#utility.yul\":13774:13795   */\n      swap1\n      pop\n        /* \"#utility.yul\":13730:14169   */\n      jump(tag_313)\n    tag_315:\n        /* \"#utility.yul\":13734:13755   */\n      pop\n        /* \"#utility.yul\":13403:14175   */\n      pop\n      pop\n        /* \"#utility.yul\":13282:14175   */\n      swap4\n      swap3\n      pop\n      pop\n      pop\n      jump\t// out\n        /* \"#utility.yul\":14198:14579   */\n    tag_166:\n        /* \"#utility.yul\":14288:14293   */\n      0x00\n        /* \"#utility.yul\":14337:14340   */\n      dup3\n        /* \"#utility.yul\":14330:14334   */\n      0x1f\n        /* \"#utility.yul\":14322:14328   */\n      dup4\n        /* \"#utility.yul\":14318:14335   */\n      add\n        /* \"#utility.yul\":14314:14341   */\n      slt\n        /* \"#utility.yul\":14304:14426   */\n      tag_320\n      jumpi\n        /* \"#utility.yul\":14345:14424   */\n      tag_321\n      tag_148\n      jump\t// in\n    tag_321:\n        /* \"#utility.yul\":14304:14426   */\n    tag_320:\n        /* \"#utility.yul\":14449:14453   */\n      0x03\n        /* \"#utility.yul\":14471:14573   */\n      tag_322\n        /* \"#utility.yul\":14569:14572   */\n      dup5\n        /* \"#utility.yul\":14561:14567   */\n      dup3\n        /* \"#utility.yul\":14553:14559   */\n      dup6\n        /* \"#utility.yul\":14471:14573   */\n      tag_165\n      jump\t// in\n    tag_322:\n        /* \"#utility.yul\":14462:14573   */\n      swap2\n      pop\n        /* \"#utility.yul\":14294:14579   */\n      pop\n        /* \"#utility.yul\":14198:14579   */\n      swap3\n      swap2\n      pop\n      pop\n      jump\t// out\n        /* \"#utility.yul\":14585:15155   */\n    tag_86:\n        /* \"#utility.yul\":14688:14694   */\n      0x00\n        /* \"#utility.yul\":14737:14739   */\n      0x20\n        /* \"#utility.yul\":14725:14734   */\n      dup3\n        /* \"#utility.yul\":14716:14723   */\n      dup5\n        /* \"#utility.yul\":14712:14735   */\n      sub\n        /* \"#utility.yul\":14708:14740   */\n      slt\n        /* \"#utility.yul\":14705:14824   */\n      iszero\n      tag_324\n      jumpi\n        /* \"#utility.yul\":14743:14822   */\n      tag_325\n      tag_126\n      jump\t// in\n    tag_325:\n        /* \"#utility.yul\":14705:14824   */\n    tag_324:\n        /* \"#utility.yul\":14884:14885   */\n      0x00\n        /* \"#utility.yul\":14873:14882   */\n      dup3\n        /* \"#utility.yul\":14869:14886   */\n      add\n        /* \"#utility.yul\":14863:14887   */\n      mload\n        /* \"#utility.yul\":14914:14932   */\n      0xffffffffffffffff\n        /* \"#utility.yul\":14906:14912   */\n      dup2\n        /* \"#utility.yul\":14903:14933   */\n      gt\n        /* \"#utility.yul\":14900:15017   */\n      iszero\n      tag_326\n      jumpi\n        /* \"#utility.yul\":14936:15015   */\n      tag_327\n      tag_127\n      jump\t// in\n    tag_327:\n        /* \"#utility.yul\":14900:15017   */\n    tag_326:\n        /* \"#utility.yul\":15041:15138   */\n      tag_328\n        /* \"#utility.yul\":15130:15137   */\n      dup5\n        /* \"#utility.yul\":15121:15127   */\n      dup3\n        /* \"#utility.yul\":15110:15119   */\n      dup6\n        /* \"#utility.yul\":15106:15128   */\n      add\n        /* \"#utility.yul\":15041:15138   */\n      tag_166\n      jump\t// in\n    tag_328:\n        /* \"#utility.yul\":15031:15138   */\n      swap2\n      pop\n        /* \"#utility.yul\":14834:15148   */\n      pop\n        /* \"#utility.yul\":14585:15155   */\n      swap3\n      swap2\n      pop\n      pop\n      jump\t// out\n        /* \"#utility.yul\":15161:15341   */\n    tag_89:\n        /* \"#utility.yul\":15209:15286   */\n      0x4e487b7100000000000000000000000000000000000000000000000000000000\n        /* \"#utility.yul\":15206:15207   */\n      0x00\n        /* \"#utility.yul\":15199:15287   */\n      mstore\n        /* \"#utility.yul\":15306:15310   */\n      0x32\n        /* \"#utility.yul\":15303:15304   */\n      0x04\n        /* \"#utility.yul\":15296:15311   */\n      mstore\n        /* \"#utility.yul\":15330:15334   */\n      0x24\n        /* \"#utility.yul\":15327:15328   */\n      0x00\n        /* \"#utility.yul\":15320:15335   */\n      revert\n        /* \"#utility.yul\":15347:15523   */\n    tag_167:\n        /* \"#utility.yul\":15487:15515   */\n      0x4e6f7420417574686f72697a65642c2041646d696e204f6e6c79000000000000\n        /* \"#utility.yul\":15483:15484   */\n      0x00\n        /* \"#utility.yul\":15475:15481   */\n      dup3\n        /* \"#utility.yul\":15471:15485   */\n      add\n        /* \"#utility.yul\":15464:15516   */\n      mstore\n        /* \"#utility.yul\":15347:15523   */\n      pop\n      jump\t// out\n        /* \"#utility.yul\":15529:15895   */\n    tag_168:\n        /* \"#utility.yul\":15671:15674   */\n      0x00\n        /* \"#utility.yul\":15692:15759   */\n      tag_332\n        /* \"#utility.yul\":15756:15758   */\n      0x1a\n        /* \"#utility.yul\":15751:15754   */\n      dup4\n        /* \"#utility.yul\":15692:15759   */\n      tag_143\n      jump\t// in\n    tag_332:\n        /* \"#utility.yul\":15685:15759   */\n      swap2\n      pop\n        /* \"#utility.yul\":15768:15861   */\n      tag_333\n        /* \"#utility.yul\":15857:15860   */\n      dup3\n        /* \"#utility.yul\":15768:15861   */\n      tag_167\n      jump\t// in\n    tag_333:\n        /* \"#utility.yul\":15886:15888   */\n      0x20\n        /* \"#utility.yul\":15881:15884   */\n      dup3\n        /* \"#utility.yul\":15877:15889   */\n      add\n        /* \"#utility.yul\":15870:15889   */\n      swap1\n      pop\n        /* \"#utility.yul\":15529:15895   */\n      swap2\n      swap1\n      pop\n      jump\t// out\n        /* \"#utility.yul\":15901:16320   */\n    tag_94:\n        /* \"#utility.yul\":16067:16071   */\n      0x00\n        /* \"#utility.yul\":16105:16107   */\n      0x20\n        /* \"#utility.yul\":16094:16103   */\n      dup3\n        /* \"#utility.yul\":16090:16108   */\n      add\n        /* \"#utility.yul\":16082:16108   */\n      swap1\n      pop\n        /* \"#utility.yul\":16154:16163   */\n      dup2\n        /* \"#utility.yul\":16148:16152   */\n      dup2\n        /* \"#utility.yul\":16144:16164   */\n      sub\n        /* \"#utility.yul\":16140:16141   */\n      0x00\n        /* \"#utility.yul\":16129:16138   */\n      dup4\n        /* \"#utility.yul\":16125:16142   */\n      add\n        /* \"#utility.yul\":16118:16165   */\n      mstore\n        /* \"#utility.yul\":16182:16313   */\n      tag_335\n        /* \"#utility.yul\":16308:16312   */\n      dup2\n        /* \"#utility.yul\":16182:16313   */\n      tag_168\n      jump\t// in\n    tag_335:\n        /* \"#utility.yul\":16174:16313   */\n      swap1\n      pop\n        /* \"#utility.yul\":15901:16320   */\n      swap2\n      swap1\n      pop\n      jump\t// out\n        /* \"#utility.yul\":16326:16506   */\n    tag_169:\n        /* \"#utility.yul\":16374:16451   */\n      0x4e487b7100000000000000000000000000000000000000000000000000000000\n        /* \"#utility.yul\":16371:16372   */\n      0x00\n        /* \"#utility.yul\":16364:16452   */\n      mstore\n        /* \"#utility.yul\":16471:16475   */\n      0x11\n        /* \"#utility.yul\":16468:16469   */\n      0x04\n        /* \"#utility.yul\":16461:16476   */\n      mstore\n        /* \"#utility.yul\":16495:16499   */\n      0x24\n        /* \"#utility.yul\":16492:16493   */\n      0x00\n        /* \"#utility.yul\":16485:16500   */\n      revert\n        /* \"#utility.yul\":16512:16745   */\n    tag_108:\n        /* \"#utility.yul\":16551:16554   */\n      0x00\n        /* \"#utility.yul\":16574:16598   */\n      tag_338\n        /* \"#utility.yul\":16592:16597   */\n      dup3\n        /* \"#utility.yul\":16574:16598   */\n      tag_123\n      jump\t// in\n    tag_338:\n        /* \"#utility.yul\":16565:16598   */\n      swap2\n      pop\n        /* \"#utility.yul\":16620:16686   */\n      0xffffffffffffffffffffffffffffffffffffffffffffffffffffffffffffffff\n        /* \"#utility.yul\":16613:16618   */\n      dup3\n        /* \"#utility.yul\":16610:16687   */\n      eq\n        /* \"#utility.yul\":16607:16710   */\n      iszero\n      tag_339\n      jumpi\n        /* \"#utility.yul\":16690:16708   */\n      tag_340\n      tag_169\n      jump\t// in\n    tag_340:\n        /* \"#utility.yul\":16607:16710   */\n    tag_339:\n        /* \"#utility.yul\":16737:16738   */\n      0x01\n        /* \"#utility.yul\":16730:16735   */\n      dup3\n        /* \"#utility.yul\":16726:16739   */\n      add\n        /* \"#utility.yul\":16719:16739   */\n      swap1\n      pop\n        /* \"#utility.yul\":16512:16745   */\n      swap2\n      swap1\n      pop\n      jump\t// out\n        /* \"#utility.yul\":16751:16913   */\n    tag_170:\n        /* \"#utility.yul\":16891:16905   */\n      0x4f7574206f66204c696d69740000000000000000000000000000000000000000\n        /* \"#utility.yul\":16887:16888   */\n      0x00\n        /* \"#utility.yul\":16879:16885   */\n      dup3\n        /* \"#utility.yul\":16875:16889   */\n      add\n        /* \"#utility.yul\":16868:16906   */\n      mstore\n        /* \"#utility.yul\":16751:16913   */\n      pop\n      jump\t// out\n        /* \"#utility.yul\":16919:17285   */\n    tag_171:\n        /* \"#utility.yul\":17061:17064   */\n      0x00\n        /* \"#utility.yul\":17082:17149   */\n      tag_343\n        /* \"#utility.yul\":17146:17148   */\n      0x0c\n        /* \"#utility.yul\":17141:17144   */\n      dup4\n        /* \"#utility.yul\":17082:17149   */\n      tag_143\n      jump\t// in\n    tag_343:\n        /* \"#utility.yul\":17075:17149   */\n      swap2\n      pop\n        /* \"#utility.yul\":17158:17251   */\n      tag_344\n        /* \"#utility.yul\":17247:17250   */\n      dup3\n        /* \"#utility.yul\":17158:17251   */\n      tag_170\n      jump\t// in\n    tag_344:\n        /* \"#utility.yul\":17276:17278   */\n      0x20\n        /* \"#utility.yul\":17271:17274   */\n      dup3\n        /* \"#utility.yul\":17267:17279   */\n      add\n        /* \"#utility.yul\":17260:17279   */\n      swap1\n      pop\n        /* \"#utility.yul\":16919:17285   */\n      swap2\n      swap1\n      pop\n      jump\t// out\n        /* \"#utility.yul\":17291:17710   */\n    tag_114:\n        /* \"#utility.yul\":17457:17461   */\n      0x00\n        /* \"#utility.yul\":17495:17497   */\n      0x20\n        /* \"#utility.yul\":17484:17493   */\n      dup3\n        /* \"#utility.yul\":17480:17498   */\n      add\n        /* \"#utility.yul\":17472:17498   */\n      swap1\n      pop\n        /* \"#utility.yul\":17544:17553   */\n      dup2\n        /* \"#utility.yul\":17538:17542   */\n      dup2\n        /* \"#utility.yul\":17534:17554   */\n      sub\n        /* \"#utility.yul\":17530:17531   */\n      0x00\n        /* \"#utility.yul\":17519:17528   */\n      dup4\n        /* \"#utility.yul\":17515:17532   */\n      add\n        /* \"#utility.yul\":17508:17555   */\n      mstore\n        /* \"#utility.yul\":17572:17703   */\n      tag_346\n        /* \"#utility.yul\":17698:17702   */\n      dup2\n        /* \"#utility.yul\":17572:17703   */\n      tag_171\n      jump\t// in\n    tag_346:\n        /* \"#utility.yul\":17564:17703   */\n      swap1\n      pop\n        /* \"#utility.yul\":17291:17710   */\n      swap2\n      swap1\n      pop\n      jump\t// out\n\n    auxdata: 0xa2646970667358221220c1058fcadfcb3f245372bab6d21086189d7467d4b804753c9d59a88328f645ab64736f6c63430008080033\n}\n",
				"bytecode": {
					"linkReferences": {},
					"object": "60806040527350c7a09925375438d2cee94c5c59266c6ffaaf8c6000806101000a81548173ffffffffffffffffffffffffffffffffffffffff021916908373ffffffffffffffffffffffffffffffffffffffff16021790555073dbddb8575f6bda11f1dc548a1b546463cc567c3d600160006101000a81548173ffffffffffffffffffffffffffffffffffffffff021916908373ffffffffffffffffffffffffffffffffffffffff1602179055506002600355348015620000bf57600080fd5b5033600260006101000a81548173ffffffffffffffffffffffffffffffffffffffff021916908373ffffffffffffffffffffffffffffffffffffffff16021790555060008060009054906101000a900473ffffffffffffffffffffffffffffffffffffffff1673ffffffffffffffffffffffffffffffffffffffff166348441d5f6040518163ffffffff1660e01b815260040160006040518083038186803b1580156200016b57600080fd5b505afa15801562000180573d6000803e3d6000fd5b505050506040513d6000823e3d601f19601f82011682018060405250810190620001ab919062000696565b90506000805b6003811015620003565760008060009054906101000a900473ffffffffffffffffffffffffffffffffffffffff1673ffffffffffffffffffffffffffffffffffffffff1663278a7f3385846003811062000210576200020f620006e7565b5b60200201516040518263ffffffff1660e01b815260040162000233919062000773565b60206040518083038186803b1580156200024c57600080fd5b505afa15801562000261573d6000803e3d6000fd5b505050506040513d601f19601f82011682018060405250810190620002879190620007d5565b60ff16905060046040518060600160405280868560038110620002af57620002ae620006e7565b5b6020020151815260200185815260200160018487620002cf919062000840565b620002db91906200089d565b81525090806001815401808255809150506001900390600052602060002090600302016000909190919091506000820151816000019080519060200190620003259291906200035f565b50602082015181600101556040820151816002015550508092505080806200034d90620008d8565b915050620001b1565b5050506200098b565b8280546200036d9062000955565b90600052602060002090601f016020900481019282620003915760008555620003dd565b82601f10620003ac57805160ff1916838001178555620003dd565b82800160010185558215620003dd579182015b82811115620003dc578251825591602001919060010190620003bf565b5b509050620003ec9190620003f0565b5090565b5b808211156200040b576000816000905550600101620003f1565b5090565b6000604051905090565b600080fd5b600080fd5b600080fd5b6000601f19601f8301169050919050565b7f4e487b7100000000000000000000000000000000000000000000000000000000600052604160045260246000fd5b620004738262000428565b810181811067ffffffffffffffff8211171562000495576200049462000439565b5b80604052505050565b6000620004aa6200040f565b9050620004b8828262000468565b919050565b600067ffffffffffffffff821115620004db57620004da62000439565b5b602082029050919050565b600080fd5b600080fd5b600067ffffffffffffffff8211156200050e576200050d62000439565b5b620005198262000428565b9050602081019050919050565b60005b838110156200054657808201518184015260208101905062000529565b8381111562000556576000848401525b50505050565b6000620005736200056d84620004f0565b6200049e565b905082815260208101848484011115620005925762000591620004eb565b5b6200059f84828562000526565b509392505050565b600082601f830112620005bf57620005be62000423565b5b8151620005d18482602086016200055c565b91505092915050565b6000620005f1620005eb84620004bd565b6200049e565b905080602084028301858111156200060e576200060d620004e6565b5b835b818110156200065c57805167ffffffffffffffff81111562000637576200063662000423565b5b808601620006468982620005a7565b8552602085019450505060208101905062000610565b5050509392505050565b600082601f8301126200067e576200067d62000423565b5b60036200068d848285620005da565b91505092915050565b600060208284031215620006af57620006ae62000419565b5b600082015167ffffffffffffffff811115620006d057620006cf6200041e565b5b620006de8482850162000666565b91505092915050565b7f4e487b7100000000000000000000000000000000000000000000000000000000600052603260045260246000fd5b600081519050919050565b600082825260208201905092915050565b60006200073f8262000716565b6200074b818562000721565b93506200075d81856020860162000526565b620007688162000428565b840191505092915050565b600060208201905081810360008301526200078f818462000732565b905092915050565b600060ff82169050919050565b620007af8162000797565b8114620007bb57600080fd5b50565b600081519050620007cf81620007a4565b92915050565b600060208284031215620007ee57620007ed62000419565b5b6000620007fe84828501620007be565b91505092915050565b6000819050919050565b7f4e487b7100000000000000000000000000000000000000000000000000000000600052601160045260246000fd5b60006200084d8262000807565b91506200085a8362000807565b9250827fffffffffffffffffffffffffffffffffffffffffffffffffffffffffffffffff0382111562000892576200089162000811565b5b828201905092915050565b6000620008aa8262000807565b9150620008b78362000807565b925082821015620008cd57620008cc62000811565b5b828203905092915050565b6000620008e58262000807565b91507fffffffffffffffffffffffffffffffffffffffffffffffffffffffffffffffff8214156200091b576200091a62000811565b5b600182019050919050565b7f4e487b7100000000000000000000000000000000000000000000000000000000600052602260045260246000fd5b600060028204905060018216806200096e57607f821691505b6020821081141562000985576200098462000926565b5b50919050565b6112e6806200099b6000396000f3fe608060405234801561001057600080fd5b506004361061009e5760003560e01c8063a7beb5d011610066578063a7beb5d014610172578063bb4a376b146101a2578063c15d3ead146101c0578063e917ec96146101dc578063fc6f9468146101e65761009e565b806306cd309b146100a35780635d73ab9a146100c15780636fd3d9e2146100f15780637259e0f8146101235780638f84aa0914610154575b600080fd5b6100ab610204565b6040516100b891906109cc565b60405180910390f35b6100db60048036038101906100d69190610a27565b61020a565b6040516100e89190610c0e565b60405180910390f35b61010b60048036038101906101069190610a27565b610311565b60405161011a93929190610c7a565b60405180910390f35b61013d60048036038101906101389190610a27565b6103d3565b60405161014b929190610cf9565b60405180910390f35b61015c610427565b6040516101699190610d22565b60405180910390f35b61018c60048036038101906101879190610e72565b61044d565b60405161019991906109cc565b60405180910390f35b6101aa610503565b6040516101b79190610ebb565b60405180910390f35b6101da60048036038101906101d59190610a27565b6105cc565b005b6101e46106be565b005b6101ee61098d565b6040516101fb9190610d22565b60405180910390f35b60035481565b60606004805480602002602001604051908101604052809291908181526020016000905b82821015610306578382906000526020600020906003020160405180606001604052908160008201805461026190610f0c565b80601f016020809104026020016040519081016040528092919081815260200182805461028d90610f0c565b80156102da5780601f106102af576101008083540402835291602001916102da565b820191906000526020600020905b8154815290600101906020018083116102bd57829003601f168201915b50505050508152602001600182015481526020016002820154815250508152602001906001019061022e565b505050509050919050565b6004818154811061032157600080fd5b906000526020600020906003020160009150905080600001805461034490610f0c565b80601f016020809104026020016040519081016040528092919081815260200182805461037090610f0c565b80156103bd5780601f10610392576101008083540402835291602001916103bd565b820191906000526020600020905b8154815290600101906020018083116103a057829003601f168201915b5050505050908060010154908060020154905083565b600581815481106103e357600080fd5b90600052602060002090600202016000915090508060000160009054906101000a900473ffffffffffffffffffffffffffffffffffffffff16908060010154905082565b600160009054906101000a900473ffffffffffffffffffffffffffffffffffffffff1681565b60008060009054906101000a900473ffffffffffffffffffffffffffffffffffffffff1673ffffffffffffffffffffffffffffffffffffffff1663278a7f33836040518263ffffffff1660e01b81526004016104a99190610ebb565b60206040518083038186803b1580156104c157600080fd5b505afa1580156104d5573d6000803e3d6000fd5b505050506040513d601f19601f820116820180604052508101906104f99190610f77565b60ff169050919050565b606060008060009054906101000a900473ffffffffffffffffffffffffffffffffffffffff1673ffffffffffffffffffffffffffffffffffffffff166348441d5f6040518163ffffffff1660e01b815260040160006040518083038186803b15801561056e57600080fd5b505afa158015610582573d6000803e3d6000fd5b505050506040513d6000823e3d601f19601f820116820180604052508101906105ab91906110e8565b9050806000600381106105c1576105c0611131565b5b602002015191505090565b600260009054906101000a900473ffffffffffffffffffffffffffffffffffffffff1673ffffffffffffffffffffffffffffffffffffffff163373ffffffffffffffffffffffffffffffffffffffff1614806106755750600160009054906101000a900473ffffffffffffffffffffffffffffffffffffffff1673ffffffffffffffffffffffffffffffffffffffff163373ffffffffffffffffffffffffffffffffffffffff16145b6106b4576040517f08c379a00000000000000000000000000000000000000000000000000000000081526004016106ab906111ac565b60405180910390fd5b8060038190555050565b6000805b600015158215151480156106db57506000600580549050115b80156106eb575060058054905081105b15610826573373ffffffffffffffffffffffffffffffffffffffff166005828154811061071b5761071a611131565b5b906000526020600020906002020160000160009054906101000a900473ffffffffffffffffffffffffffffffffffffffff1673ffffffffffffffffffffffffffffffffffffffff16141561081357600191506005818154811061078157610780611131565b5b906000526020600020906002020160010160008154809291906107a3906111fb565b9190505550600354600582815481106107bf576107be611131565b5b9060005260206000209060020201600101541115610812576040517f08c379a000000000000000000000000000000000000000000000000000000000815260040161080990611290565b60405180910390fd5b5b808061081e906111fb565b9150506106c2565b60008054906101000a900473ffffffffffffffffffffffffffffffffffffffff1673ffffffffffffffffffffffffffffffffffffffff166340d097c3600160009054906101000a900473ffffffffffffffffffffffffffffffffffffffff166040518263ffffffff1660e01b81526004016108a19190610d22565b600060405180830381600087803b1580156108bb57600080fd5b505af11580156108cf573d6000803e3d6000fd5b505050508161098957600060405180604001604052803373ffffffffffffffffffffffffffffffffffffffff16815260200160018152509050600581908060018154018082558091505060019003906000526020600020906002020160009091909190915060008201518160000160006101000a81548173ffffffffffffffffffffffffffffffffffffffff021916908373ffffffffffffffffffffffffffffffffffffffff160217905550602082015181600101555050505b5050565b600260009054906101000a900473ffffffffffffffffffffffffffffffffffffffff1681565b6000819050919050565b6109c6816109b3565b82525050565b60006020820190506109e160008301846109bd565b92915050565b6000604051905090565b600080fd5b600080fd5b610a04816109b3565b8114610a0f57600080fd5b50565b600081359050610a21816109fb565b92915050565b600060208284031215610a3d57610a3c6109f1565b5b6000610a4b84828501610a12565b91505092915050565b600081519050919050565b600082825260208201905092915050565b6000819050602082019050919050565b600081519050919050565b600082825260208201905092915050565b60005b83811015610aba578082015181840152602081019050610a9f565b83811115610ac9576000848401525b50505050565b6000601f19601f8301169050919050565b6000610aeb82610a80565b610af58185610a8b565b9350610b05818560208601610a9c565b610b0e81610acf565b840191505092915050565b610b22816109b3565b82525050565b60006060830160008301518482036000860152610b458282610ae0565b9150506020830151610b5a6020860182610b19565b506040830151610b6d6040860182610b19565b508091505092915050565b6000610b848383610b28565b905092915050565b6000602082019050919050565b6000610ba482610a54565b610bae8185610a5f565b935083602082028501610bc085610a70565b8060005b85811015610bfc5784840389528151610bdd8582610b78565b9450610be883610b8c565b925060208a01995050600181019050610bc4565b50829750879550505050505092915050565b60006020820190508181036000830152610c288184610b99565b905092915050565b600082825260208201905092915050565b6000610c4c82610a80565b610c568185610c30565b9350610c66818560208601610a9c565b610c6f81610acf565b840191505092915050565b60006060820190508181036000830152610c948186610c41565b9050610ca360208301856109bd565b610cb060408301846109bd565b949350505050565b600073ffffffffffffffffffffffffffffffffffffffff82169050919050565b6000610ce382610cb8565b9050919050565b610cf381610cd8565b82525050565b6000604082019050610d0e6000830185610cea565b610d1b60208301846109bd565b9392505050565b6000602082019050610d376000830184610cea565b92915050565b600080fd5b600080fd5b7f4e487b7100000000000000000000000000000000000000000000000000000000600052604160045260246000fd5b610d7f82610acf565b810181811067ffffffffffffffff82111715610d9e57610d9d610d47565b5b80604052505050565b6000610db16109e7565b9050610dbd8282610d76565b919050565b600067ffffffffffffffff821115610ddd57610ddc610d47565b5b610de682610acf565b9050602081019050919050565b82818337600083830152505050565b6000610e15610e1084610dc2565b610da7565b905082815260208101848484011115610e3157610e30610d42565b5b610e3c848285610df3565b509392505050565b600082601f830112610e5957610e58610d3d565b5b8135610e69848260208601610e02565b91505092915050565b600060208284031215610e8857610e876109f1565b5b600082013567ffffffffffffffff811115610ea657610ea56109f6565b5b610eb284828501610e44565b91505092915050565b60006020820190508181036000830152610ed58184610c41565b905092915050565b7f4e487b7100000000000000000000000000000000000000000000000000000000600052602260045260246000fd5b60006002820490506001821680610f2457607f821691505b60208210811415610f3857610f37610edd565b5b50919050565b600060ff82169050919050565b610f5481610f3e565b8114610f5f57600080fd5b50565b600081519050610f7181610f4b565b92915050565b600060208284031215610f8d57610f8c6109f1565b5b6000610f9b84828501610f62565b91505092915050565b600067ffffffffffffffff821115610fbf57610fbe610d47565b5b602082029050919050565b600080fd5b6000610fe2610fdd84610dc2565b610da7565b905082815260208101848484011115610ffe57610ffd610d42565b5b611009848285610a9c565b509392505050565b600082601f83011261102657611025610d3d565b5b8151611036848260208601610fcf565b91505092915050565b600061105261104d84610fa4565b610da7565b9050806020840283018581111561106c5761106b610fca565b5b835b818110156110b357805167ffffffffffffffff81111561109157611090610d3d565b5b80860161109e8982611011565b8552602085019450505060208101905061106e565b5050509392505050565b600082601f8301126110d2576110d1610d3d565b5b60036110df84828561103f565b91505092915050565b6000602082840312156110fe576110fd6109f1565b5b600082015167ffffffffffffffff81111561111c5761111b6109f6565b5b611128848285016110bd565b91505092915050565b7f4e487b7100000000000000000000000000000000000000000000000000000000600052603260045260246000fd5b7f4e6f7420417574686f72697a65642c2041646d696e204f6e6c79000000000000600082015250565b6000611196601a83610c30565b91506111a182611160565b602082019050919050565b600060208201905081810360008301526111c581611189565b9050919050565b7f4e487b7100000000000000000000000000000000000000000000000000000000600052601160045260246000fd5b6000611206826109b3565b91507fffffffffffffffffffffffffffffffffffffffffffffffffffffffffffffffff821415611239576112386111cc565b5b600182019050919050565b7f4f7574206f66204c696d69740000000000000000000000000000000000000000600082015250565b600061127a600c83610c30565b915061128582611244565b602082019050919050565b600060208201905081810360008301526112a98161126d565b905091905056fea2646970667358221220c1058fcadfcb3f245372bab6d21086189d7467d4b804753c9d59a88328f645ab64736f6c63430008080033",
					"opcodes": "PUSH1 0x80 PUSH1 0x40 MSTORE PUSH20 0x50C7A09925375438D2CEE94C5C59266C6FFAAF8C PUSH1 0x0 DUP1 PUSH2 0x100 EXP DUP2 SLOAD DUP2 PUSH20 0xFFFFFFFFFFFFFFFFFFFFFFFFFFFFFFFFFFFFFFFF MUL NOT AND SWAP1 DUP4 PUSH20 0xFFFFFFFFFFFFFFFFFFFFFFFFFFFFFFFFFFFFFFFF AND MUL OR SWAP1 SSTORE POP PUSH20 0xDBDDB8575F6BDA11F1DC548A1B546463CC567C3D PUSH1 0x1 PUSH1 0x0 PUSH2 0x100 EXP DUP2 SLOAD DUP2 PUSH20 0xFFFFFFFFFFFFFFFFFFFFFFFFFFFFFFFFFFFFFFFF MUL NOT AND SWAP1 DUP4 PUSH20 0xFFFFFFFFFFFFFFFFFFFFFFFFFFFFFFFFFFFFFFFF AND MUL OR SWAP1 SSTORE POP PUSH1 0x2 PUSH1 0x3 SSTORE CALLVALUE DUP1 ISZERO PUSH3 0xBF JUMPI PUSH1 0x0 DUP1 REVERT JUMPDEST POP CALLER PUSH1 0x2 PUSH1 0x0 PUSH2 0x100 EXP DUP2 SLOAD DUP2 PUSH20 0xFFFFFFFFFFFFFFFFFFFFFFFFFFFFFFFFFFFFFFFF MUL NOT AND SWAP1 DUP4 PUSH20 0xFFFFFFFFFFFFFFFFFFFFFFFFFFFFFFFFFFFFFFFF AND MUL OR SWAP1 SSTORE POP PUSH1 0x0 DUP1 PUSH1 0x0 SWAP1 SLOAD SWAP1 PUSH2 0x100 EXP SWAP1 DIV PUSH20 0xFFFFFFFFFFFFFFFFFFFFFFFFFFFFFFFFFFFFFFFF AND PUSH20 0xFFFFFFFFFFFFFFFFFFFFFFFFFFFFFFFFFFFFFFFF AND PUSH4 0x48441D5F PUSH1 0x40 MLOAD DUP2 PUSH4 0xFFFFFFFF AND PUSH1 0xE0 SHL DUP2 MSTORE PUSH1 0x4 ADD PUSH1 0x0 PUSH1 0x40 MLOAD DUP1 DUP4 SUB DUP2 DUP7 DUP1 EXTCODESIZE ISZERO DUP1 ISZERO PUSH3 0x16B JUMPI PUSH1 0x0 DUP1 REVERT JUMPDEST POP GAS STATICCALL ISZERO DUP1 ISZERO PUSH3 0x180 JUMPI RETURNDATASIZE PUSH1 0x0 DUP1 RETURNDATACOPY RETURNDATASIZE PUSH1 0x0 REVERT JUMPDEST POP POP POP POP PUSH1 0x40 MLOAD RETURNDATASIZE PUSH1 0x0 DUP3 RETURNDATACOPY RETURNDATASIZE PUSH1 0x1F NOT PUSH1 0x1F DUP3 ADD AND DUP3 ADD DUP1 PUSH1 0x40 MSTORE POP DUP2 ADD SWAP1 PUSH3 0x1AB SWAP2 SWAP1 PUSH3 0x696 JUMP JUMPDEST SWAP1 POP PUSH1 0x0 DUP1 JUMPDEST PUSH1 0x3 DUP2 LT ISZERO PUSH3 0x356 JUMPI PUSH1 0x0 DUP1 PUSH1 0x0 SWAP1 SLOAD SWAP1 PUSH2 0x100 EXP SWAP1 DIV PUSH20 0xFFFFFFFFFFFFFFFFFFFFFFFFFFFFFFFFFFFFFFFF AND PUSH20 0xFFFFFFFFFFFFFFFFFFFFFFFFFFFFFFFFFFFFFFFF AND PUSH4 0x278A7F33 DUP6 DUP5 PUSH1 0x3 DUP2 LT PUSH3 0x210 JUMPI PUSH3 0x20F PUSH3 0x6E7 JUMP JUMPDEST JUMPDEST PUSH1 0x20 MUL ADD MLOAD PUSH1 0x40 MLOAD DUP3 PUSH4 0xFFFFFFFF AND PUSH1 0xE0 SHL DUP2 MSTORE PUSH1 0x4 ADD PUSH3 0x233 SWAP2 SWAP1 PUSH3 0x773 JUMP JUMPDEST PUSH1 0x20 PUSH1 0x40 MLOAD DUP1 DUP4 SUB DUP2 DUP7 DUP1 EXTCODESIZE ISZERO DUP1 ISZERO PUSH3 0x24C JUMPI PUSH1 0x0 DUP1 REVERT JUMPDEST POP GAS STATICCALL ISZERO DUP1 ISZERO PUSH3 0x261 JUMPI RETURNDATASIZE PUSH1 0x0 DUP1 RETURNDATACOPY RETURNDATASIZE PUSH1 0x0 REVERT JUMPDEST POP POP POP POP PUSH1 0x40 MLOAD RETURNDATASIZE PUSH1 0x1F NOT PUSH1 0x1F DUP3 ADD AND DUP3 ADD DUP1 PUSH1 0x40 MSTORE POP DUP2 ADD SWAP1 PUSH3 0x287 SWAP2 SWAP1 PUSH3 0x7D5 JUMP JUMPDEST PUSH1 0xFF AND SWAP1 POP PUSH1 0x4 PUSH1 0x40 MLOAD DUP1 PUSH1 0x60 ADD PUSH1 0x40 MSTORE DUP1 DUP7 DUP6 PUSH1 0x3 DUP2 LT PUSH3 0x2AF JUMPI PUSH3 0x2AE PUSH3 0x6E7 JUMP JUMPDEST JUMPDEST PUSH1 0x20 MUL ADD MLOAD DUP2 MSTORE PUSH1 0x20 ADD DUP6 DUP2 MSTORE PUSH1 0x20 ADD PUSH1 0x1 DUP5 DUP8 PUSH3 0x2CF SWAP2 SWAP1 PUSH3 0x840 JUMP JUMPDEST PUSH3 0x2DB SWAP2 SWAP1 PUSH3 0x89D JUMP JUMPDEST DUP2 MSTORE POP SWAP1 DUP1 PUSH1 0x1 DUP2 SLOAD ADD DUP1 DUP3 SSTORE DUP1 SWAP2 POP POP PUSH1 0x1 SWAP1 SUB SWAP1 PUSH1 0x0 MSTORE PUSH1 0x20 PUSH1 0x0 KECCAK256 SWAP1 PUSH1 0x3 MUL ADD PUSH1 0x0 SWAP1 SWAP2 SWAP1 SWAP2 SWAP1 SWAP2 POP PUSH1 0x0 DUP3 ADD MLOAD DUP2 PUSH1 0x0 ADD SWAP1 DUP1 MLOAD SWAP1 PUSH1 0x20 ADD SWAP1 PUSH3 0x325 SWAP3 SWAP2 SWAP1 PUSH3 0x35F JUMP JUMPDEST POP PUSH1 0x20 DUP3 ADD MLOAD DUP2 PUSH1 0x1 ADD SSTORE PUSH1 0x40 DUP3 ADD MLOAD DUP2 PUSH1 0x2 ADD SSTORE POP POP DUP1 SWAP3 POP POP DUP1 DUP1 PUSH3 0x34D SWAP1 PUSH3 0x8D8 JUMP JUMPDEST SWAP2 POP POP PUSH3 0x1B1 JUMP JUMPDEST POP POP POP PUSH3 0x98B JUMP JUMPDEST DUP3 DUP1 SLOAD PUSH3 0x36D SWAP1 PUSH3 0x955 JUMP JUMPDEST SWAP1 PUSH1 0x0 MSTORE PUSH1 0x20 PUSH1 0x0 KECCAK256 SWAP1 PUSH1 0x1F ADD PUSH1 0x20 SWAP1 DIV DUP2 ADD SWAP3 DUP3 PUSH3 0x391 JUMPI PUSH1 0x0 DUP6 SSTORE PUSH3 0x3DD JUMP JUMPDEST DUP3 PUSH1 0x1F LT PUSH3 0x3AC JUMPI DUP1 MLOAD PUSH1 0xFF NOT AND DUP4 DUP1 ADD OR DUP6 SSTORE PUSH3 0x3DD JUMP JUMPDEST DUP3 DUP1 ADD PUSH1 0x1 ADD DUP6 SSTORE DUP3 ISZERO PUSH3 0x3DD JUMPI SWAP2 DUP3 ADD JUMPDEST DUP3 DUP2 GT ISZERO PUSH3 0x3DC JUMPI DUP3 MLOAD DUP3 SSTORE SWAP2 PUSH1 0x20 ADD SWAP2 SWAP1 PUSH1 0x1 ADD SWAP1 PUSH3 0x3BF JUMP JUMPDEST JUMPDEST POP SWAP1 POP PUSH3 0x3EC SWAP2 SWAP1 PUSH3 0x3F0 JUMP JUMPDEST POP SWAP1 JUMP JUMPDEST JUMPDEST DUP1 DUP3 GT ISZERO PUSH3 0x40B JUMPI PUSH1 0x0 DUP2 PUSH1 0x0 SWAP1 SSTORE POP PUSH1 0x1 ADD PUSH3 0x3F1 JUMP JUMPDEST POP SWAP1 JUMP JUMPDEST PUSH1 0x0 PUSH1 0x40 MLOAD SWAP1 POP SWAP1 JUMP JUMPDEST PUSH1 0x0 DUP1 REVERT JUMPDEST PUSH1 0x0 DUP1 REVERT JUMPDEST PUSH1 0x0 DUP1 REVERT JUMPDEST PUSH1 0x0 PUSH1 0x1F NOT PUSH1 0x1F DUP4 ADD AND SWAP1 POP SWAP2 SWAP1 POP JUMP JUMPDEST PUSH32 0x4E487B7100000000000000000000000000000000000000000000000000000000 PUSH1 0x0 MSTORE PUSH1 0x41 PUSH1 0x4 MSTORE PUSH1 0x24 PUSH1 0x0 REVERT JUMPDEST PUSH3 0x473 DUP3 PUSH3 0x428 JUMP JUMPDEST DUP2 ADD DUP2 DUP2 LT PUSH8 0xFFFFFFFFFFFFFFFF DUP3 GT OR ISZERO PUSH3 0x495 JUMPI PUSH3 0x494 PUSH3 0x439 JUMP JUMPDEST JUMPDEST DUP1 PUSH1 0x40 MSTORE POP POP POP JUMP JUMPDEST PUSH1 0x0 PUSH3 0x4AA PUSH3 0x40F JUMP JUMPDEST SWAP1 POP PUSH3 0x4B8 DUP3 DUP3 PUSH3 0x468 JUMP JUMPDEST SWAP2 SWAP1 POP JUMP JUMPDEST PUSH1 0x0 PUSH8 0xFFFFFFFFFFFFFFFF DUP3 GT ISZERO PUSH3 0x4DB JUMPI PUSH3 0x4DA PUSH3 0x439 JUMP JUMPDEST JUMPDEST PUSH1 0x20 DUP3 MUL SWAP1 POP SWAP2 SWAP1 POP JUMP JUMPDEST PUSH1 0x0 DUP1 REVERT JUMPDEST PUSH1 0x0 DUP1 REVERT JUMPDEST PUSH1 0x0 PUSH8 0xFFFFFFFFFFFFFFFF DUP3 GT ISZERO PUSH3 0x50E JUMPI PUSH3 0x50D PUSH3 0x439 JUMP JUMPDEST JUMPDEST PUSH3 0x519 DUP3 PUSH3 0x428 JUMP JUMPDEST SWAP1 POP PUSH1 0x20 DUP2 ADD SWAP1 POP SWAP2 SWAP1 POP JUMP JUMPDEST PUSH1 0x0 JUMPDEST DUP4 DUP2 LT ISZERO PUSH3 0x546 JUMPI DUP1 DUP3 ADD MLOAD DUP2 DUP5 ADD MSTORE PUSH1 0x20 DUP2 ADD SWAP1 POP PUSH3 0x529 JUMP JUMPDEST DUP4 DUP2 GT ISZERO PUSH3 0x556 JUMPI PUSH1 0x0 DUP5 DUP5 ADD MSTORE JUMPDEST POP POP POP POP JUMP JUMPDEST PUSH1 0x0 PUSH3 0x573 PUSH3 0x56D DUP5 PUSH3 0x4F0 JUMP JUMPDEST PUSH3 0x49E JUMP JUMPDEST SWAP1 POP DUP3 DUP2 MSTORE PUSH1 0x20 DUP2 ADD DUP5 DUP5 DUP5 ADD GT ISZERO PUSH3 0x592 JUMPI PUSH3 0x591 PUSH3 0x4EB JUMP JUMPDEST JUMPDEST PUSH3 0x59F DUP5 DUP3 DUP6 PUSH3 0x526 JUMP JUMPDEST POP SWAP4 SWAP3 POP POP POP JUMP JUMPDEST PUSH1 0x0 DUP3 PUSH1 0x1F DUP4 ADD SLT PUSH3 0x5BF JUMPI PUSH3 0x5BE PUSH3 0x423 JUMP JUMPDEST JUMPDEST DUP2 MLOAD PUSH3 0x5D1 DUP5 DUP3 PUSH1 0x20 DUP7 ADD PUSH3 0x55C JUMP JUMPDEST SWAP2 POP POP SWAP3 SWAP2 POP POP JUMP JUMPDEST PUSH1 0x0 PUSH3 0x5F1 PUSH3 0x5EB DUP5 PUSH3 0x4BD JUMP JUMPDEST PUSH3 0x49E JUMP JUMPDEST SWAP1 POP DUP1 PUSH1 0x20 DUP5 MUL DUP4 ADD DUP6 DUP2 GT ISZERO PUSH3 0x60E JUMPI PUSH3 0x60D PUSH3 0x4E6 JUMP JUMPDEST JUMPDEST DUP4 JUMPDEST DUP2 DUP2 LT ISZERO PUSH3 0x65C JUMPI DUP1 MLOAD PUSH8 0xFFFFFFFFFFFFFFFF DUP2 GT ISZERO PUSH3 0x637 JUMPI PUSH3 0x636 PUSH3 0x423 JUMP JUMPDEST JUMPDEST DUP1 DUP7 ADD PUSH3 0x646 DUP10 DUP3 PUSH3 0x5A7 JUMP JUMPDEST DUP6 MSTORE PUSH1 0x20 DUP6 ADD SWAP5 POP POP POP PUSH1 0x20 DUP2 ADD SWAP1 POP PUSH3 0x610 JUMP JUMPDEST POP POP POP SWAP4 SWAP3 POP POP POP JUMP JUMPDEST PUSH1 0x0 DUP3 PUSH1 0x1F DUP4 ADD SLT PUSH3 0x67E JUMPI PUSH3 0x67D PUSH3 0x423 JUMP JUMPDEST JUMPDEST PUSH1 0x3 PUSH3 0x68D DUP5 DUP3 DUP6 PUSH3 0x5DA JUMP JUMPDEST SWAP2 POP POP SWAP3 SWAP2 POP POP JUMP JUMPDEST PUSH1 0x0 PUSH1 0x20 DUP3 DUP5 SUB SLT ISZERO PUSH3 0x6AF JUMPI PUSH3 0x6AE PUSH3 0x419 JUMP JUMPDEST JUMPDEST PUSH1 0x0 DUP3 ADD MLOAD PUSH8 0xFFFFFFFFFFFFFFFF DUP2 GT ISZERO PUSH3 0x6D0 JUMPI PUSH3 0x6CF PUSH3 0x41E JUMP JUMPDEST JUMPDEST PUSH3 0x6DE DUP5 DUP3 DUP6 ADD PUSH3 0x666 JUMP JUMPDEST SWAP2 POP POP SWAP3 SWAP2 POP POP JUMP JUMPDEST PUSH32 0x4E487B7100000000000000000000000000000000000000000000000000000000 PUSH1 0x0 MSTORE PUSH1 0x32 PUSH1 0x4 MSTORE PUSH1 0x24 PUSH1 0x0 REVERT JUMPDEST PUSH1 0x0 DUP2 MLOAD SWAP1 POP SWAP2 SWAP1 POP JUMP JUMPDEST PUSH1 0x0 DUP3 DUP3 MSTORE PUSH1 0x20 DUP3 ADD SWAP1 POP SWAP3 SWAP2 POP POP JUMP JUMPDEST PUSH1 0x0 PUSH3 0x73F DUP3 PUSH3 0x716 JUMP JUMPDEST PUSH3 0x74B DUP2 DUP6 PUSH3 0x721 JUMP JUMPDEST SWAP4 POP PUSH3 0x75D DUP2 DUP6 PUSH1 0x20 DUP7 ADD PUSH3 0x526 JUMP JUMPDEST PUSH3 0x768 DUP2 PUSH3 0x428 JUMP JUMPDEST DUP5 ADD SWAP2 POP POP SWAP3 SWAP2 POP POP JUMP JUMPDEST PUSH1 0x0 PUSH1 0x20 DUP3 ADD SWAP1 POP DUP2 DUP2 SUB PUSH1 0x0 DUP4 ADD MSTORE PUSH3 0x78F DUP2 DUP5 PUSH3 0x732 JUMP JUMPDEST SWAP1 POP SWAP3 SWAP2 POP POP JUMP JUMPDEST PUSH1 0x0 PUSH1 0xFF DUP3 AND SWAP1 POP SWAP2 SWAP1 POP JUMP JUMPDEST PUSH3 0x7AF DUP2 PUSH3 0x797 JUMP JUMPDEST DUP2 EQ PUSH3 0x7BB JUMPI PUSH1 0x0 DUP1 REVERT JUMPDEST POP JUMP JUMPDEST PUSH1 0x0 DUP2 MLOAD SWAP1 POP PUSH3 0x7CF DUP2 PUSH3 0x7A4 JUMP JUMPDEST SWAP3 SWAP2 POP POP JUMP JUMPDEST PUSH1 0x0 PUSH1 0x20 DUP3 DUP5 SUB SLT ISZERO PUSH3 0x7EE JUMPI PUSH3 0x7ED PUSH3 0x419 JUMP JUMPDEST JUMPDEST PUSH1 0x0 PUSH3 0x7FE DUP5 DUP3 DUP6 ADD PUSH3 0x7BE JUMP JUMPDEST SWAP2 POP POP SWAP3 SWAP2 POP POP JUMP JUMPDEST PUSH1 0x0 DUP2 SWAP1 POP SWAP2 SWAP1 POP JUMP JUMPDEST PUSH32 0x4E487B7100000000000000000000000000000000000000000000000000000000 PUSH1 0x0 MSTORE PUSH1 0x11 PUSH1 0x4 MSTORE PUSH1 0x24 PUSH1 0x0 REVERT JUMPDEST PUSH1 0x0 PUSH3 0x84D DUP3 PUSH3 0x807 JUMP JUMPDEST SWAP2 POP PUSH3 0x85A DUP4 PUSH3 0x807 JUMP JUMPDEST SWAP3 POP DUP3 PUSH32 0xFFFFFFFFFFFFFFFFFFFFFFFFFFFFFFFFFFFFFFFFFFFFFFFFFFFFFFFFFFFFFFFF SUB DUP3 GT ISZERO PUSH3 0x892 JUMPI PUSH3 0x891 PUSH3 0x811 JUMP JUMPDEST JUMPDEST DUP3 DUP3 ADD SWAP1 POP SWAP3 SWAP2 POP POP JUMP JUMPDEST PUSH1 0x0 PUSH3 0x8AA DUP3 PUSH3 0x807 JUMP JUMPDEST SWAP2 POP PUSH3 0x8B7 DUP4 PUSH3 0x807 JUMP JUMPDEST SWAP3 POP DUP3 DUP3 LT ISZERO PUSH3 0x8CD JUMPI PUSH3 0x8CC PUSH3 0x811 JUMP JUMPDEST JUMPDEST DUP3 DUP3 SUB SWAP1 POP SWAP3 SWAP2 POP POP JUMP JUMPDEST PUSH1 0x0 PUSH3 0x8E5 DUP3 PUSH3 0x807 JUMP JUMPDEST SWAP2 POP PUSH32 0xFFFFFFFFFFFFFFFFFFFFFFFFFFFFFFFFFFFFFFFFFFFFFFFFFFFFFFFFFFFFFFFF DUP3 EQ ISZERO PUSH3 0x91B JUMPI PUSH3 0x91A PUSH3 0x811 JUMP JUMPDEST JUMPDEST PUSH1 0x1 DUP3 ADD SWAP1 POP SWAP2 SWAP1 POP JUMP JUMPDEST PUSH32 0x4E487B7100000000000000000000000000000000000000000000000000000000 PUSH1 0x0 MSTORE PUSH1 0x22 PUSH1 0x4 MSTORE PUSH1 0x24 PUSH1 0x0 REVERT JUMPDEST PUSH1 0x0 PUSH1 0x2 DUP3 DIV SWAP1 POP PUSH1 0x1 DUP3 AND DUP1 PUSH3 0x96E JUMPI PUSH1 0x7F DUP3 AND SWAP2 POP JUMPDEST PUSH1 0x20 DUP3 LT DUP2 EQ ISZERO PUSH3 0x985 JUMPI PUSH3 0x984 PUSH3 0x926 JUMP JUMPDEST JUMPDEST POP SWAP2 SWAP1 POP JUMP JUMPDEST PUSH2 0x12E6 DUP1 PUSH3 0x99B PUSH1 0x0 CODECOPY PUSH1 0x0 RETURN INVALID PUSH1 0x80 PUSH1 0x40 MSTORE CALLVALUE DUP1 ISZERO PUSH2 0x10 JUMPI PUSH1 0x0 DUP1 REVERT JUMPDEST POP PUSH1 0x4 CALLDATASIZE LT PUSH2 0x9E JUMPI PUSH1 0x0 CALLDATALOAD PUSH1 0xE0 SHR DUP1 PUSH4 0xA7BEB5D0 GT PUSH2 0x66 JUMPI DUP1 PUSH4 0xA7BEB5D0 EQ PUSH2 0x172 JUMPI DUP1 PUSH4 0xBB4A376B EQ PUSH2 0x1A2 JUMPI DUP1 PUSH4 0xC15D3EAD EQ PUSH2 0x1C0 JUMPI DUP1 PUSH4 0xE917EC96 EQ PUSH2 0x1DC JUMPI DUP1 PUSH4 0xFC6F9468 EQ PUSH2 0x1E6 JUMPI PUSH2 0x9E JUMP JUMPDEST DUP1 PUSH4 0x6CD309B EQ PUSH2 0xA3 JUMPI DUP1 PUSH4 0x5D73AB9A EQ PUSH2 0xC1 JUMPI DUP1 PUSH4 0x6FD3D9E2 EQ PUSH2 0xF1 JUMPI DUP1 PUSH4 0x7259E0F8 EQ PUSH2 0x123 JUMPI DUP1 PUSH4 0x8F84AA09 EQ PUSH2 0x154 JUMPI JUMPDEST PUSH1 0x0 DUP1 REVERT JUMPDEST PUSH2 0xAB PUSH2 0x204 JUMP JUMPDEST PUSH1 0x40 MLOAD PUSH2 0xB8 SWAP2 SWAP1 PUSH2 0x9CC JUMP JUMPDEST PUSH1 0x40 MLOAD DUP1 SWAP2 SUB SWAP1 RETURN JUMPDEST PUSH2 0xDB PUSH1 0x4 DUP1 CALLDATASIZE SUB DUP2 ADD SWAP1 PUSH2 0xD6 SWAP2 SWAP1 PUSH2 0xA27 JUMP JUMPDEST PUSH2 0x20A JUMP JUMPDEST PUSH1 0x40 MLOAD PUSH2 0xE8 SWAP2 SWAP1 PUSH2 0xC0E JUMP JUMPDEST PUSH1 0x40 MLOAD DUP1 SWAP2 SUB SWAP1 RETURN JUMPDEST PUSH2 0x10B PUSH1 0x4 DUP1 CALLDATASIZE SUB DUP2 ADD SWAP1 PUSH2 0x106 SWAP2 SWAP1 PUSH2 0xA27 JUMP JUMPDEST PUSH2 0x311 JUMP JUMPDEST PUSH1 0x40 MLOAD PUSH2 0x11A SWAP4 SWAP3 SWAP2 SWAP1 PUSH2 0xC7A JUMP JUMPDEST PUSH1 0x40 MLOAD DUP1 SWAP2 SUB SWAP1 RETURN JUMPDEST PUSH2 0x13D PUSH1 0x4 DUP1 CALLDATASIZE SUB DUP2 ADD SWAP1 PUSH2 0x138 SWAP2 SWAP1 PUSH2 0xA27 JUMP JUMPDEST PUSH2 0x3D3 JUMP JUMPDEST PUSH1 0x40 MLOAD PUSH2 0x14B SWAP3 SWAP2 SWAP1 PUSH2 0xCF9 JUMP JUMPDEST PUSH1 0x40 MLOAD DUP1 SWAP2 SUB SWAP1 RETURN JUMPDEST PUSH2 0x15C PUSH2 0x427 JUMP JUMPDEST PUSH1 0x40 MLOAD PUSH2 0x169 SWAP2 SWAP1 PUSH2 0xD22 JUMP JUMPDEST PUSH1 0x40 MLOAD DUP1 SWAP2 SUB SWAP1 RETURN JUMPDEST PUSH2 0x18C PUSH1 0x4 DUP1 CALLDATASIZE SUB DUP2 ADD SWAP1 PUSH2 0x187 SWAP2 SWAP1 PUSH2 0xE72 JUMP JUMPDEST PUSH2 0x44D JUMP JUMPDEST PUSH1 0x40 MLOAD PUSH2 0x199 SWAP2 SWAP1 PUSH2 0x9CC JUMP JUMPDEST PUSH1 0x40 MLOAD DUP1 SWAP2 SUB SWAP1 RETURN JUMPDEST PUSH2 0x1AA PUSH2 0x503 JUMP JUMPDEST PUSH1 0x40 MLOAD PUSH2 0x1B7 SWAP2 SWAP1 PUSH2 0xEBB JUMP JUMPDEST PUSH1 0x40 MLOAD DUP1 SWAP2 SUB SWAP1 RETURN JUMPDEST PUSH2 0x1DA PUSH1 0x4 DUP1 CALLDATASIZE SUB DUP2 ADD SWAP1 PUSH2 0x1D5 SWAP2 SWAP1 PUSH2 0xA27 JUMP JUMPDEST PUSH2 0x5CC JUMP JUMPDEST STOP JUMPDEST PUSH2 0x1E4 PUSH2 0x6BE JUMP JUMPDEST STOP JUMPDEST PUSH2 0x1EE PUSH2 0x98D JUMP JUMPDEST PUSH1 0x40 MLOAD PUSH2 0x1FB SWAP2 SWAP1 PUSH2 0xD22 JUMP JUMPDEST PUSH1 0x40 MLOAD DUP1 SWAP2 SUB SWAP1 RETURN JUMPDEST PUSH1 0x3 SLOAD DUP2 JUMP JUMPDEST PUSH1 0x60 PUSH1 0x4 DUP1 SLOAD DUP1 PUSH1 0x20 MUL PUSH1 0x20 ADD PUSH1 0x40 MLOAD SWAP1 DUP2 ADD PUSH1 0x40 MSTORE DUP1 SWAP3 SWAP2 SWAP1 DUP2 DUP2 MSTORE PUSH1 0x20 ADD PUSH1 0x0 SWAP1 JUMPDEST DUP3 DUP3 LT ISZERO PUSH2 0x306 JUMPI DUP4 DUP3 SWAP1 PUSH1 0x0 MSTORE PUSH1 0x20 PUSH1 0x0 KECCAK256 SWAP1 PUSH1 0x3 MUL ADD PUSH1 0x40 MLOAD DUP1 PUSH1 0x60 ADD PUSH1 0x40 MSTORE SWAP1 DUP2 PUSH1 0x0 DUP3 ADD DUP1 SLOAD PUSH2 0x261 SWAP1 PUSH2 0xF0C JUMP JUMPDEST DUP1 PUSH1 0x1F ADD PUSH1 0x20 DUP1 SWAP2 DIV MUL PUSH1 0x20 ADD PUSH1 0x40 MLOAD SWAP1 DUP2 ADD PUSH1 0x40 MSTORE DUP1 SWAP3 SWAP2 SWAP1 DUP2 DUP2 MSTORE PUSH1 0x20 ADD DUP3 DUP1 SLOAD PUSH2 0x28D SWAP1 PUSH2 0xF0C JUMP JUMPDEST DUP1 ISZERO PUSH2 0x2DA JUMPI DUP1 PUSH1 0x1F LT PUSH2 0x2AF JUMPI PUSH2 0x100 DUP1 DUP4 SLOAD DIV MUL DUP4 MSTORE SWAP2 PUSH1 0x20 ADD SWAP2 PUSH2 0x2DA JUMP JUMPDEST DUP3 ADD SWAP2 SWAP1 PUSH1 0x0 MSTORE PUSH1 0x20 PUSH1 0x0 KECCAK256 SWAP1 JUMPDEST DUP2 SLOAD DUP2 MSTORE SWAP1 PUSH1 0x1 ADD SWAP1 PUSH1 0x20 ADD DUP1 DUP4 GT PUSH2 0x2BD JUMPI DUP3 SWAP1 SUB PUSH1 0x1F AND DUP3 ADD SWAP2 JUMPDEST POP POP POP POP POP DUP2 MSTORE PUSH1 0x20 ADD PUSH1 0x1 DUP3 ADD SLOAD DUP2 MSTORE PUSH1 0x20 ADD PUSH1 0x2 DUP3 ADD SLOAD DUP2 MSTORE POP POP DUP2 MSTORE PUSH1 0x20 ADD SWAP1 PUSH1 0x1 ADD SWAP1 PUSH2 0x22E JUMP JUMPDEST POP POP POP POP SWAP1 POP SWAP2 SWAP1 POP JUMP JUMPDEST PUSH1 0x4 DUP2 DUP2 SLOAD DUP2 LT PUSH2 0x321 JUMPI PUSH1 0x0 DUP1 REVERT JUMPDEST SWAP1 PUSH1 0x0 MSTORE PUSH1 0x20 PUSH1 0x0 KECCAK256 SWAP1 PUSH1 0x3 MUL ADD PUSH1 0x0 SWAP2 POP SWAP1 POP DUP1 PUSH1 0x0 ADD DUP1 SLOAD PUSH2 0x344 SWAP1 PUSH2 0xF0C JUMP JUMPDEST DUP1 PUSH1 0x1F ADD PUSH1 0x20 DUP1 SWAP2 DIV MUL PUSH1 0x20 ADD PUSH1 0x40 MLOAD SWAP1 DUP2 ADD PUSH1 0x40 MSTORE DUP1 SWAP3 SWAP2 SWAP1 DUP2 DUP2 MSTORE PUSH1 0x20 ADD DUP3 DUP1 SLOAD PUSH2 0x370 SWAP1 PUSH2 0xF0C JUMP JUMPDEST DUP1 ISZERO PUSH2 0x3BD JUMPI DUP1 PUSH1 0x1F LT PUSH2 0x392 JUMPI PUSH2 0x100 DUP1 DUP4 SLOAD DIV MUL DUP4 MSTORE SWAP2 PUSH1 0x20 ADD SWAP2 PUSH2 0x3BD JUMP JUMPDEST DUP3 ADD SWAP2 SWAP1 PUSH1 0x0 MSTORE PUSH1 0x20 PUSH1 0x0 KECCAK256 SWAP1 JUMPDEST DUP2 SLOAD DUP2 MSTORE SWAP1 PUSH1 0x1 ADD SWAP1 PUSH1 0x20 ADD DUP1 DUP4 GT PUSH2 0x3A0 JUMPI DUP3 SWAP1 SUB PUSH1 0x1F AND DUP3 ADD SWAP2 JUMPDEST POP POP POP POP POP SWAP1 DUP1 PUSH1 0x1 ADD SLOAD SWAP1 DUP1 PUSH1 0x2 ADD SLOAD SWAP1 POP DUP4 JUMP JUMPDEST PUSH1 0x5 DUP2 DUP2 SLOAD DUP2 LT PUSH2 0x3E3 JUMPI PUSH1 0x0 DUP1 REVERT JUMPDEST SWAP1 PUSH1 0x0 MSTORE PUSH1 0x20 PUSH1 0x0 KECCAK256 SWAP1 PUSH1 0x2 MUL ADD PUSH1 0x0 SWAP2 POP SWAP1 POP DUP1 PUSH1 0x0 ADD PUSH1 0x0 SWAP1 SLOAD SWAP1 PUSH2 0x100 EXP SWAP1 DIV PUSH20 0xFFFFFFFFFFFFFFFFFFFFFFFFFFFFFFFFFFFFFFFF AND SWAP1 DUP1 PUSH1 0x1 ADD SLOAD SWAP1 POP DUP3 JUMP JUMPDEST PUSH1 0x1 PUSH1 0x0 SWAP1 SLOAD SWAP1 PUSH2 0x100 EXP SWAP1 DIV PUSH20 0xFFFFFFFFFFFFFFFFFFFFFFFFFFFFFFFFFFFFFFFF AND DUP2 JUMP JUMPDEST PUSH1 0x0 DUP1 PUSH1 0x0 SWAP1 SLOAD SWAP1 PUSH2 0x100 EXP SWAP1 DIV PUSH20 0xFFFFFFFFFFFFFFFFFFFFFFFFFFFFFFFFFFFFFFFF AND PUSH20 0xFFFFFFFFFFFFFFFFFFFFFFFFFFFFFFFFFFFFFFFF AND PUSH4 0x278A7F33 DUP4 PUSH1 0x40 MLOAD DUP3 PUSH4 0xFFFFFFFF AND PUSH1 0xE0 SHL DUP2 MSTORE PUSH1 0x4 ADD PUSH2 0x4A9 SWAP2 SWAP1 PUSH2 0xEBB JUMP JUMPDEST PUSH1 0x20 PUSH1 0x40 MLOAD DUP1 DUP4 SUB DUP2 DUP7 DUP1 EXTCODESIZE ISZERO DUP1 ISZERO PUSH2 0x4C1 JUMPI PUSH1 0x0 DUP1 REVERT JUMPDEST POP GAS STATICCALL ISZERO DUP1 ISZERO PUSH2 0x4D5 JUMPI RETURNDATASIZE PUSH1 0x0 DUP1 RETURNDATACOPY RETURNDATASIZE PUSH1 0x0 REVERT JUMPDEST POP POP POP POP PUSH1 0x40 MLOAD RETURNDATASIZE PUSH1 0x1F NOT PUSH1 0x1F DUP3 ADD AND DUP3 ADD DUP1 PUSH1 0x40 MSTORE POP DUP2 ADD SWAP1 PUSH2 0x4F9 SWAP2 SWAP1 PUSH2 0xF77 JUMP JUMPDEST PUSH1 0xFF AND SWAP1 POP SWAP2 SWAP1 POP JUMP JUMPDEST PUSH1 0x60 PUSH1 0x0 DUP1 PUSH1 0x0 SWAP1 SLOAD SWAP1 PUSH2 0x100 EXP SWAP1 DIV PUSH20 0xFFFFFFFFFFFFFFFFFFFFFFFFFFFFFFFFFFFFFFFF AND PUSH20 0xFFFFFFFFFFFFFFFFFFFFFFFFFFFFFFFFFFFFFFFF AND PUSH4 0x48441D5F PUSH1 0x40 MLOAD DUP2 PUSH4 0xFFFFFFFF AND PUSH1 0xE0 SHL DUP2 MSTORE PUSH1 0x4 ADD PUSH1 0x0 PUSH1 0x40 MLOAD DUP1 DUP4 SUB DUP2 DUP7 DUP1 EXTCODESIZE ISZERO DUP1 ISZERO PUSH2 0x56E JUMPI PUSH1 0x0 DUP1 REVERT JUMPDEST POP GAS STATICCALL ISZERO DUP1 ISZERO PUSH2 0x582 JUMPI RETURNDATASIZE PUSH1 0x0 DUP1 RETURNDATACOPY RETURNDATASIZE PUSH1 0x0 REVERT JUMPDEST POP POP POP POP PUSH1 0x40 MLOAD RETURNDATASIZE PUSH1 0x0 DUP3 RETURNDATACOPY RETURNDATASIZE PUSH1 0x1F NOT PUSH1 0x1F DUP3 ADD AND DUP3 ADD DUP1 PUSH1 0x40 MSTORE POP DUP2 ADD SWAP1 PUSH2 0x5AB SWAP2 SWAP1 PUSH2 0x10E8 JUMP JUMPDEST SWAP1 POP DUP1 PUSH1 0x0 PUSH1 0x3 DUP2 LT PUSH2 0x5C1 JUMPI PUSH2 0x5C0 PUSH2 0x1131 JUMP JUMPDEST JUMPDEST PUSH1 0x20 MUL ADD MLOAD SWAP2 POP POP SWAP1 JUMP JUMPDEST PUSH1 0x2 PUSH1 0x0 SWAP1 SLOAD SWAP1 PUSH2 0x100 EXP SWAP1 DIV PUSH20 0xFFFFFFFFFFFFFFFFFFFFFFFFFFFFFFFFFFFFFFFF AND PUSH20 0xFFFFFFFFFFFFFFFFFFFFFFFFFFFFFFFFFFFFFFFF AND CALLER PUSH20 0xFFFFFFFFFFFFFFFFFFFFFFFFFFFFFFFFFFFFFFFF AND EQ DUP1 PUSH2 0x675 JUMPI POP PUSH1 0x1 PUSH1 0x0 SWAP1 SLOAD SWAP1 PUSH2 0x100 EXP SWAP1 DIV PUSH20 0xFFFFFFFFFFFFFFFFFFFFFFFFFFFFFFFFFFFFFFFF AND PUSH20 0xFFFFFFFFFFFFFFFFFFFFFFFFFFFFFFFFFFFFFFFF AND CALLER PUSH20 0xFFFFFFFFFFFFFFFFFFFFFFFFFFFFFFFFFFFFFFFF AND EQ JUMPDEST PUSH2 0x6B4 JUMPI PUSH1 0x40 MLOAD PUSH32 0x8C379A000000000000000000000000000000000000000000000000000000000 DUP2 MSTORE PUSH1 0x4 ADD PUSH2 0x6AB SWAP1 PUSH2 0x11AC JUMP JUMPDEST PUSH1 0x40 MLOAD DUP1 SWAP2 SUB SWAP1 REVERT JUMPDEST DUP1 PUSH1 0x3 DUP2 SWAP1 SSTORE POP POP JUMP JUMPDEST PUSH1 0x0 DUP1 JUMPDEST PUSH1 0x0 ISZERO ISZERO DUP3 ISZERO ISZERO EQ DUP1 ISZERO PUSH2 0x6DB JUMPI POP PUSH1 0x0 PUSH1 0x5 DUP1 SLOAD SWAP1 POP GT JUMPDEST DUP1 ISZERO PUSH2 0x6EB JUMPI POP PUSH1 0x5 DUP1 SLOAD SWAP1 POP DUP2 LT JUMPDEST ISZERO PUSH2 0x826 JUMPI CALLER PUSH20 0xFFFFFFFFFFFFFFFFFFFFFFFFFFFFFFFFFFFFFFFF AND PUSH1 0x5 DUP3 DUP2 SLOAD DUP2 LT PUSH2 0x71B JUMPI PUSH2 0x71A PUSH2 0x1131 JUMP JUMPDEST JUMPDEST SWAP1 PUSH1 0x0 MSTORE PUSH1 0x20 PUSH1 0x0 KECCAK256 SWAP1 PUSH1 0x2 MUL ADD PUSH1 0x0 ADD PUSH1 0x0 SWAP1 SLOAD SWAP1 PUSH2 0x100 EXP SWAP1 DIV PUSH20 0xFFFFFFFFFFFFFFFFFFFFFFFFFFFFFFFFFFFFFFFF AND PUSH20 0xFFFFFFFFFFFFFFFFFFFFFFFFFFFFFFFFFFFFFFFF AND EQ ISZERO PUSH2 0x813 JUMPI PUSH1 0x1 SWAP2 POP PUSH1 0x5 DUP2 DUP2 SLOAD DUP2 LT PUSH2 0x781 JUMPI PUSH2 0x780 PUSH2 0x1131 JUMP JUMPDEST JUMPDEST SWAP1 PUSH1 0x0 MSTORE PUSH1 0x20 PUSH1 0x0 KECCAK256 SWAP1 PUSH1 0x2 MUL ADD PUSH1 0x1 ADD PUSH1 0x0 DUP2 SLOAD DUP1 SWAP3 SWAP2 SWAP1 PUSH2 0x7A3 SWAP1 PUSH2 0x11FB JUMP JUMPDEST SWAP2 SWAP1 POP SSTORE POP PUSH1 0x3 SLOAD PUSH1 0x5 DUP3 DUP2 SLOAD DUP2 LT PUSH2 0x7BF JUMPI PUSH2 0x7BE PUSH2 0x1131 JUMP JUMPDEST JUMPDEST SWAP1 PUSH1 0x0 MSTORE PUSH1 0x20 PUSH1 0x0 KECCAK256 SWAP1 PUSH1 0x2 MUL ADD PUSH1 0x1 ADD SLOAD GT ISZERO PUSH2 0x812 JUMPI PUSH1 0x40 MLOAD PUSH32 0x8C379A000000000000000000000000000000000000000000000000000000000 DUP2 MSTORE PUSH1 0x4 ADD PUSH2 0x809 SWAP1 PUSH2 0x1290 JUMP JUMPDEST PUSH1 0x40 MLOAD DUP1 SWAP2 SUB SWAP1 REVERT JUMPDEST JUMPDEST DUP1 DUP1 PUSH2 0x81E SWAP1 PUSH2 0x11FB JUMP JUMPDEST SWAP2 POP POP PUSH2 0x6C2 JUMP JUMPDEST PUSH1 0x0 DUP1 SLOAD SWAP1 PUSH2 0x100 EXP SWAP1 DIV PUSH20 0xFFFFFFFFFFFFFFFFFFFFFFFFFFFFFFFFFFFFFFFF AND PUSH20 0xFFFFFFFFFFFFFFFFFFFFFFFFFFFFFFFFFFFFFFFF AND PUSH4 0x40D097C3 PUSH1 0x1 PUSH1 0x0 SWAP1 SLOAD SWAP1 PUSH2 0x100 EXP SWAP1 DIV PUSH20 0xFFFFFFFFFFFFFFFFFFFFFFFFFFFFFFFFFFFFFFFF AND PUSH1 0x40 MLOAD DUP3 PUSH4 0xFFFFFFFF AND PUSH1 0xE0 SHL DUP2 MSTORE PUSH1 0x4 ADD PUSH2 0x8A1 SWAP2 SWAP1 PUSH2 0xD22 JUMP JUMPDEST PUSH1 0x0 PUSH1 0x40 MLOAD DUP1 DUP4 SUB DUP2 PUSH1 0x0 DUP8 DUP1 EXTCODESIZE ISZERO DUP1 ISZERO PUSH2 0x8BB JUMPI PUSH1 0x0 DUP1 REVERT JUMPDEST POP GAS CALL ISZERO DUP1 ISZERO PUSH2 0x8CF JUMPI RETURNDATASIZE PUSH1 0x0 DUP1 RETURNDATACOPY RETURNDATASIZE PUSH1 0x0 REVERT JUMPDEST POP POP POP POP DUP2 PUSH2 0x989 JUMPI PUSH1 0x0 PUSH1 0x40 MLOAD DUP1 PUSH1 0x40 ADD PUSH1 0x40 MSTORE DUP1 CALLER PUSH20 0xFFFFFFFFFFFFFFFFFFFFFFFFFFFFFFFFFFFFFFFF AND DUP2 MSTORE PUSH1 0x20 ADD PUSH1 0x1 DUP2 MSTORE POP SWAP1 POP PUSH1 0x5 DUP2 SWAP1 DUP1 PUSH1 0x1 DUP2 SLOAD ADD DUP1 DUP3 SSTORE DUP1 SWAP2 POP POP PUSH1 0x1 SWAP1 SUB SWAP1 PUSH1 0x0 MSTORE PUSH1 0x20 PUSH1 0x0 KECCAK256 SWAP1 PUSH1 0x2 MUL ADD PUSH1 0x0 SWAP1 SWAP2 SWAP1 SWAP2 SWAP1 SWAP2 POP PUSH1 0x0 DUP3 ADD MLOAD DUP2 PUSH1 0x0 ADD PUSH1 0x0 PUSH2 0x100 EXP DUP2 SLOAD DUP2 PUSH20 0xFFFFFFFFFFFFFFFFFFFFFFFFFFFFFFFFFFFFFFFF MUL NOT AND SWAP1 DUP4 PUSH20 0xFFFFFFFFFFFFFFFFFFFFFFFFFFFFFFFFFFFFFFFF AND MUL OR SWAP1 SSTORE POP PUSH1 0x20 DUP3 ADD MLOAD DUP2 PUSH1 0x1 ADD SSTORE POP POP POP JUMPDEST POP POP JUMP JUMPDEST PUSH1 0x2 PUSH1 0x0 SWAP1 SLOAD SWAP1 PUSH2 0x100 EXP SWAP1 DIV PUSH20 0xFFFFFFFFFFFFFFFFFFFFFFFFFFFFFFFFFFFFFFFF AND DUP2 JUMP JUMPDEST PUSH1 0x0 DUP2 SWAP1 POP SWAP2 SWAP1 POP JUMP JUMPDEST PUSH2 0x9C6 DUP2 PUSH2 0x9B3 JUMP JUMPDEST DUP3 MSTORE POP POP JUMP JUMPDEST PUSH1 0x0 PUSH1 0x20 DUP3 ADD SWAP1 POP PUSH2 0x9E1 PUSH1 0x0 DUP4 ADD DUP5 PUSH2 0x9BD JUMP JUMPDEST SWAP3 SWAP2 POP POP JUMP JUMPDEST PUSH1 0x0 PUSH1 0x40 MLOAD SWAP1 POP SWAP1 JUMP JUMPDEST PUSH1 0x0 DUP1 REVERT JUMPDEST PUSH1 0x0 DUP1 REVERT JUMPDEST PUSH2 0xA04 DUP2 PUSH2 0x9B3 JUMP JUMPDEST DUP2 EQ PUSH2 0xA0F JUMPI PUSH1 0x0 DUP1 REVERT JUMPDEST POP JUMP JUMPDEST PUSH1 0x0 DUP2 CALLDATALOAD SWAP1 POP PUSH2 0xA21 DUP2 PUSH2 0x9FB JUMP JUMPDEST SWAP3 SWAP2 POP POP JUMP JUMPDEST PUSH1 0x0 PUSH1 0x20 DUP3 DUP5 SUB SLT ISZERO PUSH2 0xA3D JUMPI PUSH2 0xA3C PUSH2 0x9F1 JUMP JUMPDEST JUMPDEST PUSH1 0x0 PUSH2 0xA4B DUP5 DUP3 DUP6 ADD PUSH2 0xA12 JUMP JUMPDEST SWAP2 POP POP SWAP3 SWAP2 POP POP JUMP JUMPDEST PUSH1 0x0 DUP2 MLOAD SWAP1 POP SWAP2 SWAP1 POP JUMP JUMPDEST PUSH1 0x0 DUP3 DUP3 MSTORE PUSH1 0x20 DUP3 ADD SWAP1 POP SWAP3 SWAP2 POP POP JUMP JUMPDEST PUSH1 0x0 DUP2 SWAP1 POP PUSH1 0x20 DUP3 ADD SWAP1 POP SWAP2 SWAP1 POP JUMP JUMPDEST PUSH1 0x0 DUP2 MLOAD SWAP1 POP SWAP2 SWAP1 POP JUMP JUMPDEST PUSH1 0x0 DUP3 DUP3 MSTORE PUSH1 0x20 DUP3 ADD SWAP1 POP SWAP3 SWAP2 POP POP JUMP JUMPDEST PUSH1 0x0 JUMPDEST DUP4 DUP2 LT ISZERO PUSH2 0xABA JUMPI DUP1 DUP3 ADD MLOAD DUP2 DUP5 ADD MSTORE PUSH1 0x20 DUP2 ADD SWAP1 POP PUSH2 0xA9F JUMP JUMPDEST DUP4 DUP2 GT ISZERO PUSH2 0xAC9 JUMPI PUSH1 0x0 DUP5 DUP5 ADD MSTORE JUMPDEST POP POP POP POP JUMP JUMPDEST PUSH1 0x0 PUSH1 0x1F NOT PUSH1 0x1F DUP4 ADD AND SWAP1 POP SWAP2 SWAP1 POP JUMP JUMPDEST PUSH1 0x0 PUSH2 0xAEB DUP3 PUSH2 0xA80 JUMP JUMPDEST PUSH2 0xAF5 DUP2 DUP6 PUSH2 0xA8B JUMP JUMPDEST SWAP4 POP PUSH2 0xB05 DUP2 DUP6 PUSH1 0x20 DUP7 ADD PUSH2 0xA9C JUMP JUMPDEST PUSH2 0xB0E DUP2 PUSH2 0xACF JUMP JUMPDEST DUP5 ADD SWAP2 POP POP SWAP3 SWAP2 POP POP JUMP JUMPDEST PUSH2 0xB22 DUP2 PUSH2 0x9B3 JUMP JUMPDEST DUP3 MSTORE POP POP JUMP JUMPDEST PUSH1 0x0 PUSH1 0x60 DUP4 ADD PUSH1 0x0 DUP4 ADD MLOAD DUP5 DUP3 SUB PUSH1 0x0 DUP7 ADD MSTORE PUSH2 0xB45 DUP3 DUP3 PUSH2 0xAE0 JUMP JUMPDEST SWAP2 POP POP PUSH1 0x20 DUP4 ADD MLOAD PUSH2 0xB5A PUSH1 0x20 DUP7 ADD DUP3 PUSH2 0xB19 JUMP JUMPDEST POP PUSH1 0x40 DUP4 ADD MLOAD PUSH2 0xB6D PUSH1 0x40 DUP7 ADD DUP3 PUSH2 0xB19 JUMP JUMPDEST POP DUP1 SWAP2 POP POP SWAP3 SWAP2 POP POP JUMP JUMPDEST PUSH1 0x0 PUSH2 0xB84 DUP4 DUP4 PUSH2 0xB28 JUMP JUMPDEST SWAP1 POP SWAP3 SWAP2 POP POP JUMP JUMPDEST PUSH1 0x0 PUSH1 0x20 DUP3 ADD SWAP1 POP SWAP2 SWAP1 POP JUMP JUMPDEST PUSH1 0x0 PUSH2 0xBA4 DUP3 PUSH2 0xA54 JUMP JUMPDEST PUSH2 0xBAE DUP2 DUP6 PUSH2 0xA5F JUMP JUMPDEST SWAP4 POP DUP4 PUSH1 0x20 DUP3 MUL DUP6 ADD PUSH2 0xBC0 DUP6 PUSH2 0xA70 JUMP JUMPDEST DUP1 PUSH1 0x0 JUMPDEST DUP6 DUP2 LT ISZERO PUSH2 0xBFC JUMPI DUP5 DUP5 SUB DUP10 MSTORE DUP2 MLOAD PUSH2 0xBDD DUP6 DUP3 PUSH2 0xB78 JUMP JUMPDEST SWAP5 POP PUSH2 0xBE8 DUP4 PUSH2 0xB8C JUMP JUMPDEST SWAP3 POP PUSH1 0x20 DUP11 ADD SWAP10 POP POP PUSH1 0x1 DUP2 ADD SWAP1 POP PUSH2 0xBC4 JUMP JUMPDEST POP DUP3 SWAP8 POP DUP8 SWAP6 POP POP POP POP POP POP SWAP3 SWAP2 POP POP JUMP JUMPDEST PUSH1 0x0 PUSH1 0x20 DUP3 ADD SWAP1 POP DUP2 DUP2 SUB PUSH1 0x0 DUP4 ADD MSTORE PUSH2 0xC28 DUP2 DUP5 PUSH2 0xB99 JUMP JUMPDEST SWAP1 POP SWAP3 SWAP2 POP POP JUMP JUMPDEST PUSH1 0x0 DUP3 DUP3 MSTORE PUSH1 0x20 DUP3 ADD SWAP1 POP SWAP3 SWAP2 POP POP JUMP JUMPDEST PUSH1 0x0 PUSH2 0xC4C DUP3 PUSH2 0xA80 JUMP JUMPDEST PUSH2 0xC56 DUP2 DUP6 PUSH2 0xC30 JUMP JUMPDEST SWAP4 POP PUSH2 0xC66 DUP2 DUP6 PUSH1 0x20 DUP7 ADD PUSH2 0xA9C JUMP JUMPDEST PUSH2 0xC6F DUP2 PUSH2 0xACF JUMP JUMPDEST DUP5 ADD SWAP2 POP POP SWAP3 SWAP2 POP POP JUMP JUMPDEST PUSH1 0x0 PUSH1 0x60 DUP3 ADD SWAP1 POP DUP2 DUP2 SUB PUSH1 0x0 DUP4 ADD MSTORE PUSH2 0xC94 DUP2 DUP7 PUSH2 0xC41 JUMP JUMPDEST SWAP1 POP PUSH2 0xCA3 PUSH1 0x20 DUP4 ADD DUP6 PUSH2 0x9BD JUMP JUMPDEST PUSH2 0xCB0 PUSH1 0x40 DUP4 ADD DUP5 PUSH2 0x9BD JUMP JUMPDEST SWAP5 SWAP4 POP POP POP POP JUMP JUMPDEST PUSH1 0x0 PUSH20 0xFFFFFFFFFFFFFFFFFFFFFFFFFFFFFFFFFFFFFFFF DUP3 AND SWAP1 POP SWAP2 SWAP1 POP JUMP JUMPDEST PUSH1 0x0 PUSH2 0xCE3 DUP3 PUSH2 0xCB8 JUMP JUMPDEST SWAP1 POP SWAP2 SWAP1 POP JUMP JUMPDEST PUSH2 0xCF3 DUP2 PUSH2 0xCD8 JUMP JUMPDEST DUP3 MSTORE POP POP JUMP JUMPDEST PUSH1 0x0 PUSH1 0x40 DUP3 ADD SWAP1 POP PUSH2 0xD0E PUSH1 0x0 DUP4 ADD DUP6 PUSH2 0xCEA JUMP JUMPDEST PUSH2 0xD1B PUSH1 0x20 DUP4 ADD DUP5 PUSH2 0x9BD JUMP JUMPDEST SWAP4 SWAP3 POP POP POP JUMP JUMPDEST PUSH1 0x0 PUSH1 0x20 DUP3 ADD SWAP1 POP PUSH2 0xD37 PUSH1 0x0 DUP4 ADD DUP5 PUSH2 0xCEA JUMP JUMPDEST SWAP3 SWAP2 POP POP JUMP JUMPDEST PUSH1 0x0 DUP1 REVERT JUMPDEST PUSH1 0x0 DUP1 REVERT JUMPDEST PUSH32 0x4E487B7100000000000000000000000000000000000000000000000000000000 PUSH1 0x0 MSTORE PUSH1 0x41 PUSH1 0x4 MSTORE PUSH1 0x24 PUSH1 0x0 REVERT JUMPDEST PUSH2 0xD7F DUP3 PUSH2 0xACF JUMP JUMPDEST DUP2 ADD DUP2 DUP2 LT PUSH8 0xFFFFFFFFFFFFFFFF DUP3 GT OR ISZERO PUSH2 0xD9E JUMPI PUSH2 0xD9D PUSH2 0xD47 JUMP JUMPDEST JUMPDEST DUP1 PUSH1 0x40 MSTORE POP POP POP JUMP JUMPDEST PUSH1 0x0 PUSH2 0xDB1 PUSH2 0x9E7 JUMP JUMPDEST SWAP1 POP PUSH2 0xDBD DUP3 DUP3 PUSH2 0xD76 JUMP JUMPDEST SWAP2 SWAP1 POP JUMP JUMPDEST PUSH1 0x0 PUSH8 0xFFFFFFFFFFFFFFFF DUP3 GT ISZERO PUSH2 0xDDD JUMPI PUSH2 0xDDC PUSH2 0xD47 JUMP JUMPDEST JUMPDEST PUSH2 0xDE6 DUP3 PUSH2 0xACF JUMP JUMPDEST SWAP1 POP PUSH1 0x20 DUP2 ADD SWAP1 POP SWAP2 SWAP1 POP JUMP JUMPDEST DUP3 DUP2 DUP4 CALLDATACOPY PUSH1 0x0 DUP4 DUP4 ADD MSTORE POP POP POP JUMP JUMPDEST PUSH1 0x0 PUSH2 0xE15 PUSH2 0xE10 DUP5 PUSH2 0xDC2 JUMP JUMPDEST PUSH2 0xDA7 JUMP JUMPDEST SWAP1 POP DUP3 DUP2 MSTORE PUSH1 0x20 DUP2 ADD DUP5 DUP5 DUP5 ADD GT ISZERO PUSH2 0xE31 JUMPI PUSH2 0xE30 PUSH2 0xD42 JUMP JUMPDEST JUMPDEST PUSH2 0xE3C DUP5 DUP3 DUP6 PUSH2 0xDF3 JUMP JUMPDEST POP SWAP4 SWAP3 POP POP POP JUMP JUMPDEST PUSH1 0x0 DUP3 PUSH1 0x1F DUP4 ADD SLT PUSH2 0xE59 JUMPI PUSH2 0xE58 PUSH2 0xD3D JUMP JUMPDEST JUMPDEST DUP2 CALLDATALOAD PUSH2 0xE69 DUP5 DUP3 PUSH1 0x20 DUP7 ADD PUSH2 0xE02 JUMP JUMPDEST SWAP2 POP POP SWAP3 SWAP2 POP POP JUMP JUMPDEST PUSH1 0x0 PUSH1 0x20 DUP3 DUP5 SUB SLT ISZERO PUSH2 0xE88 JUMPI PUSH2 0xE87 PUSH2 0x9F1 JUMP JUMPDEST JUMPDEST PUSH1 0x0 DUP3 ADD CALLDATALOAD PUSH8 0xFFFFFFFFFFFFFFFF DUP2 GT ISZERO PUSH2 0xEA6 JUMPI PUSH2 0xEA5 PUSH2 0x9F6 JUMP JUMPDEST JUMPDEST PUSH2 0xEB2 DUP5 DUP3 DUP6 ADD PUSH2 0xE44 JUMP JUMPDEST SWAP2 POP POP SWAP3 SWAP2 POP POP JUMP JUMPDEST PUSH1 0x0 PUSH1 0x20 DUP3 ADD SWAP1 POP DUP2 DUP2 SUB PUSH1 0x0 DUP4 ADD MSTORE PUSH2 0xED5 DUP2 DUP5 PUSH2 0xC41 JUMP JUMPDEST SWAP1 POP SWAP3 SWAP2 POP POP JUMP JUMPDEST PUSH32 0x4E487B7100000000000000000000000000000000000000000000000000000000 PUSH1 0x0 MSTORE PUSH1 0x22 PUSH1 0x4 MSTORE PUSH1 0x24 PUSH1 0x0 REVERT JUMPDEST PUSH1 0x0 PUSH1 0x2 DUP3 DIV SWAP1 POP PUSH1 0x1 DUP3 AND DUP1 PUSH2 0xF24 JUMPI PUSH1 0x7F DUP3 AND SWAP2 POP JUMPDEST PUSH1 0x20 DUP3 LT DUP2 EQ ISZERO PUSH2 0xF38 JUMPI PUSH2 0xF37 PUSH2 0xEDD JUMP JUMPDEST JUMPDEST POP SWAP2 SWAP1 POP JUMP JUMPDEST PUSH1 0x0 PUSH1 0xFF DUP3 AND SWAP1 POP SWAP2 SWAP1 POP JUMP JUMPDEST PUSH2 0xF54 DUP2 PUSH2 0xF3E JUMP JUMPDEST DUP2 EQ PUSH2 0xF5F JUMPI PUSH1 0x0 DUP1 REVERT JUMPDEST POP JUMP JUMPDEST PUSH1 0x0 DUP2 MLOAD SWAP1 POP PUSH2 0xF71 DUP2 PUSH2 0xF4B JUMP JUMPDEST SWAP3 SWAP2 POP POP JUMP JUMPDEST PUSH1 0x0 PUSH1 0x20 DUP3 DUP5 SUB SLT ISZERO PUSH2 0xF8D JUMPI PUSH2 0xF8C PUSH2 0x9F1 JUMP JUMPDEST JUMPDEST PUSH1 0x0 PUSH2 0xF9B DUP5 DUP3 DUP6 ADD PUSH2 0xF62 JUMP JUMPDEST SWAP2 POP POP SWAP3 SWAP2 POP POP JUMP JUMPDEST PUSH1 0x0 PUSH8 0xFFFFFFFFFFFFFFFF DUP3 GT ISZERO PUSH2 0xFBF JUMPI PUSH2 0xFBE PUSH2 0xD47 JUMP JUMPDEST JUMPDEST PUSH1 0x20 DUP3 MUL SWAP1 POP SWAP2 SWAP1 POP JUMP JUMPDEST PUSH1 0x0 DUP1 REVERT JUMPDEST PUSH1 0x0 PUSH2 0xFE2 PUSH2 0xFDD DUP5 PUSH2 0xDC2 JUMP JUMPDEST PUSH2 0xDA7 JUMP JUMPDEST SWAP1 POP DUP3 DUP2 MSTORE PUSH1 0x20 DUP2 ADD DUP5 DUP5 DUP5 ADD GT ISZERO PUSH2 0xFFE JUMPI PUSH2 0xFFD PUSH2 0xD42 JUMP JUMPDEST JUMPDEST PUSH2 0x1009 DUP5 DUP3 DUP6 PUSH2 0xA9C JUMP JUMPDEST POP SWAP4 SWAP3 POP POP POP JUMP JUMPDEST PUSH1 0x0 DUP3 PUSH1 0x1F DUP4 ADD SLT PUSH2 0x1026 JUMPI PUSH2 0x1025 PUSH2 0xD3D JUMP JUMPDEST JUMPDEST DUP2 MLOAD PUSH2 0x1036 DUP5 DUP3 PUSH1 0x20 DUP7 ADD PUSH2 0xFCF JUMP JUMPDEST SWAP2 POP POP SWAP3 SWAP2 POP POP JUMP JUMPDEST PUSH1 0x0 PUSH2 0x1052 PUSH2 0x104D DUP5 PUSH2 0xFA4 JUMP JUMPDEST PUSH2 0xDA7 JUMP JUMPDEST SWAP1 POP DUP1 PUSH1 0x20 DUP5 MUL DUP4 ADD DUP6 DUP2 GT ISZERO PUSH2 0x106C JUMPI PUSH2 0x106B PUSH2 0xFCA JUMP JUMPDEST JUMPDEST DUP4 JUMPDEST DUP2 DUP2 LT ISZERO PUSH2 0x10B3 JUMPI DUP1 MLOAD PUSH8 0xFFFFFFFFFFFFFFFF DUP2 GT ISZERO PUSH2 0x1091 JUMPI PUSH2 0x1090 PUSH2 0xD3D JUMP JUMPDEST JUMPDEST DUP1 DUP7 ADD PUSH2 0x109E DUP10 DUP3 PUSH2 0x1011 JUMP JUMPDEST DUP6 MSTORE PUSH1 0x20 DUP6 ADD SWAP5 POP POP POP PUSH1 0x20 DUP2 ADD SWAP1 POP PUSH2 0x106E JUMP JUMPDEST POP POP POP SWAP4 SWAP3 POP POP POP JUMP JUMPDEST PUSH1 0x0 DUP3 PUSH1 0x1F DUP4 ADD SLT PUSH2 0x10D2 JUMPI PUSH2 0x10D1 PUSH2 0xD3D JUMP JUMPDEST JUMPDEST PUSH1 0x3 PUSH2 0x10DF DUP5 DUP3 DUP6 PUSH2 0x103F JUMP JUMPDEST SWAP2 POP POP SWAP3 SWAP2 POP POP JUMP JUMPDEST PUSH1 0x0 PUSH1 0x20 DUP3 DUP5 SUB SLT ISZERO PUSH2 0x10FE JUMPI PUSH2 0x10FD PUSH2 0x9F1 JUMP JUMPDEST JUMPDEST PUSH1 0x0 DUP3 ADD MLOAD PUSH8 0xFFFFFFFFFFFFFFFF DUP2 GT ISZERO PUSH2 0x111C JUMPI PUSH2 0x111B PUSH2 0x9F6 JUMP JUMPDEST JUMPDEST PUSH2 0x1128 DUP5 DUP3 DUP6 ADD PUSH2 0x10BD JUMP JUMPDEST SWAP2 POP POP SWAP3 SWAP2 POP POP JUMP JUMPDEST PUSH32 0x4E487B7100000000000000000000000000000000000000000000000000000000 PUSH1 0x0 MSTORE PUSH1 0x32 PUSH1 0x4 MSTORE PUSH1 0x24 PUSH1 0x0 REVERT JUMPDEST PUSH32 0x4E6F7420417574686F72697A65642C2041646D696E204F6E6C79000000000000 PUSH1 0x0 DUP3 ADD MSTORE POP JUMP JUMPDEST PUSH1 0x0 PUSH2 0x1196 PUSH1 0x1A DUP4 PUSH2 0xC30 JUMP JUMPDEST SWAP2 POP PUSH2 0x11A1 DUP3 PUSH2 0x1160 JUMP JUMPDEST PUSH1 0x20 DUP3 ADD SWAP1 POP SWAP2 SWAP1 POP JUMP JUMPDEST PUSH1 0x0 PUSH1 0x20 DUP3 ADD SWAP1 POP DUP2 DUP2 SUB PUSH1 0x0 DUP4 ADD MSTORE PUSH2 0x11C5 DUP2 PUSH2 0x1189 JUMP JUMPDEST SWAP1 POP SWAP2 SWAP1 POP JUMP JUMPDEST PUSH32 0x4E487B7100000000000000000000000000000000000000000000000000000000 PUSH1 0x0 MSTORE PUSH1 0x11 PUSH1 0x4 MSTORE PUSH1 0x24 PUSH1 0x0 REVERT JUMPDEST PUSH1 0x0 PUSH2 0x1206 DUP3 PUSH2 0x9B3 JUMP JUMPDEST SWAP2 POP PUSH32 0xFFFFFFFFFFFFFFFFFFFFFFFFFFFFFFFFFFFFFFFFFFFFFFFFFFFFFFFFFFFFFFFF DUP3 EQ ISZERO PUSH2 0x1239 JUMPI PUSH2 0x1238 PUSH2 0x11CC JUMP JUMPDEST JUMPDEST PUSH1 0x1 DUP3 ADD SWAP1 POP SWAP2 SWAP1 POP JUMP JUMPDEST PUSH32 0x4F7574206F66204C696D69740000000000000000000000000000000000000000 PUSH1 0x0 DUP3 ADD MSTORE POP JUMP JUMPDEST PUSH1 0x0 PUSH2 0x127A PUSH1 0xC DUP4 PUSH2 0xC30 JUMP JUMPDEST SWAP2 POP PUSH2 0x1285 DUP3 PUSH2 0x1244 JUMP JUMPDEST PUSH1 0x20 DUP3 ADD SWAP1 POP SWAP2 SWAP1 POP JUMP JUMPDEST PUSH1 0x0 PUSH1 0x20 DUP3 ADD SWAP1 POP DUP2 DUP2 SUB PUSH1 0x0 DUP4 ADD MSTORE PUSH2 0x12A9 DUP2 PUSH2 0x126D JUMP JUMPDEST SWAP1 POP SWAP2 SWAP1 POP JUMP INVALID LOG2 PUSH5 0x6970667358 0x22 SLT KECCAK256 0xC1 SDIV DUP16 0xCA 0xDF 0xCB EXTCODEHASH 0x24 MSTORE8 PUSH19 0xBAB6D21086189D7467D4B804753C9D59A88328 0xF6 GASLIMIT 0xAB PUSH5 0x736F6C6343 STOP ADDMOD ADDMOD STOP CALLER "
				},
				"gasEstimates": {
					"creation": {
						"codeDepositCost": "967600",
						"executionCost": "infinite",
						"totalCost": "infinite"
					},
					"external": {
						"adminAddress()": "2602",
						"changeGatchaLimit(uint256)": "26909",
						"createGatcha()": "infinite",
						"getUsers(uint256)": "infinite",
						"limitGatcha()": "2430",
						"ownerAddress()": "2603",
						"rarityList(uint256)": "infinite",
						"rarityListFunc()": "infinite",
						"rarityRateFunc(string)": "infinite",
						"registeredUsers(uint256)": "infinite"
					}
				},
				"methodIdentifiers": {
					"adminAddress()": "fc6f9468",
					"changeGatchaLimit(uint256)": "c15d3ead",
					"createGatcha()": "e917ec96",
					"getUsers(uint256)": "5d73ab9a",
					"limitGatcha()": "06cd309b",
					"ownerAddress()": "8f84aa09",
					"rarityList(uint256)": "6fd3d9e2",
					"rarityListFunc()": "bb4a376b",
					"rarityRateFunc(string)": "a7beb5d0",
					"registeredUsers(uint256)": "7259e0f8"
				}
			},
			"storageLayout": {
				"storage": [
					{
						"astId": 8,
						"contract": "contracts/TestInterview.sol:TestInterview",
						"label": "objINFT",
						"offset": 0,
						"slot": "0",
						"type": "t_contract(INFT)293"
					},
					{
						"astId": 11,
						"contract": "contracts/TestInterview.sol:TestInterview",
						"label": "ownerAddress",
						"offset": 0,
						"slot": "1",
						"type": "t_address"
					},
					{
						"astId": 13,
						"contract": "contracts/TestInterview.sol:TestInterview",
						"label": "adminAddress",
						"offset": 0,
						"slot": "2",
						"type": "t_address"
					},
					{
						"astId": 16,
						"contract": "contracts/TestInterview.sol:TestInterview",
						"label": "limitGatcha",
						"offset": 0,
						"slot": "3",
						"type": "t_uint256"
					},
					{
						"astId": 27,
						"contract": "contracts/TestInterview.sol:TestInterview",
						"label": "rarityList",
						"offset": 0,
						"slot": "4",
						"type": "t_array(t_struct(Rarity)23_storage)dyn_storage"
					},
					{
						"astId": 36,
						"contract": "contracts/TestInterview.sol:TestInterview",
						"label": "registeredUsers",
						"offset": 0,
						"slot": "5",
						"type": "t_array(t_struct(RegisteredUser)32_storage)dyn_storage"
					}
				],
				"types": {
					"t_address": {
						"encoding": "inplace",
						"label": "address",
						"numberOfBytes": "20"
					},
					"t_array(t_struct(Rarity)23_storage)dyn_storage": {
						"base": "t_struct(Rarity)23_storage",
						"encoding": "dynamic_array",
						"label": "struct TestInterview.Rarity[]",
						"numberOfBytes": "32"
					},
					"t_array(t_struct(RegisteredUser)32_storage)dyn_storage": {
						"base": "t_struct(RegisteredUser)32_storage",
						"encoding": "dynamic_array",
						"label": "struct TestInterview.RegisteredUser[]",
						"numberOfBytes": "32"
					},
					"t_contract(INFT)293": {
						"encoding": "inplace",
						"label": "contract INFT",
						"numberOfBytes": "20"
					},
					"t_string_storage": {
						"encoding": "bytes",
						"label": "string",
						"numberOfBytes": "32"
					},
					"t_struct(Rarity)23_storage": {
						"encoding": "inplace",
						"label": "struct TestInterview.Rarity",
						"members": [
							{
								"astId": 18,
								"contract": "contracts/TestInterview.sol:TestInterview",
								"label": "name",
								"offset": 0,
								"slot": "0",
								"type": "t_string_storage"
							},
							{
								"astId": 20,
								"contract": "contracts/TestInterview.sol:TestInterview",
								"label": "min",
								"offset": 0,
								"slot": "1",
								"type": "t_uint256"
							},
							{
								"astId": 22,
								"contract": "contracts/TestInterview.sol:TestInterview",
								"label": "max",
								"offset": 0,
								"slot": "2",
								"type": "t_uint256"
							}
						],
						"numberOfBytes": "96"
					},
					"t_struct(RegisteredUser)32_storage": {
						"encoding": "inplace",
						"label": "struct TestInterview.RegisteredUser",
						"members": [
							{
								"astId": 29,
								"contract": "contracts/TestInterview.sol:TestInterview",
								"label": "userAddress",
								"offset": 0,
								"slot": "0",
								"type": "t_address"
							},
							{
								"astId": 31,
								"contract": "contracts/TestInterview.sol:TestInterview",
								"label": "counterVisited",
								"offset": 0,
								"slot": "1",
								"type": "t_uint256"
							}
						],
						"numberOfBytes": "64"
					},
					"t_uint256": {
						"encoding": "inplace",
						"label": "uint256",
						"numberOfBytes": "32"
					}
				}
			},
			"userdoc": {
				"kind": "user",
				"methods": {},
				"version": 1
			}
		}
	}
}