{
	"contracts/TestInterview.sol": {
		"TestInterview": {
			"abi": [
				{
					"inputs": [],
					"stateMutability": "nonpayable",
					"type": "constructor"
				},
				{
					"inputs": [],
					"name": "adminAddress",
					"outputs": [
						{
							"internalType": "address",
							"name": "",
							"type": "address"
						}
					],
					"stateMutability": "view",
					"type": "function"
				},
				{
					"inputs": [
						{
							"internalType": "uint256",
							"name": "_newLimit",
							"type": "uint256"
						}
					],
					"name": "changeGatchaLimit",
					"outputs": [],
					"stateMutability": "nonpayable",
					"type": "function"
				},
				{
					"inputs": [],
					"name": "createGatcha",
					"outputs": [],
					"stateMutability": "nonpayable",
					"type": "function"
				},
				{
					"inputs": [],
					"name": "limitGatcha",
					"outputs": [
						{
							"internalType": "uint256",
							"name": "",
							"type": "uint256"
						}
					],
					"stateMutability": "view",
					"type": "function"
				},
				{
					"inputs": [],
					"name": "ownerAddress",
					"outputs": [
						{
							"internalType": "address",
							"name": "",
							"type": "address"
						}
					],
					"stateMutability": "view",
					"type": "function"
				},
				{
					"inputs": [
						{
							"internalType": "uint256",
							"name": "",
							"type": "uint256"
						}
					],
					"name": "rarityList",
					"outputs": [
						{
							"internalType": "string",
							"name": "name",
							"type": "string"
						},
						{
							"internalType": "uint256",
							"name": "min",
							"type": "uint256"
						},
						{
							"internalType": "uint256",
							"name": "max",
							"type": "uint256"
						}
					],
					"stateMutability": "view",
					"type": "function"
				},
				{
					"inputs": [
						{
							"internalType": "uint256",
							"name": "",
							"type": "uint256"
						}
					],
					"name": "rarityUsers",
					"outputs": [
						{
							"internalType": "address",
							"name": "userAddress",
							"type": "address"
						},
						{
							"internalType": "uint256",
							"name": "rarityScore",
							"type": "uint256"
						},
						{
							"internalType": "string",
							"name": "rarityName",
							"type": "string"
						}
					],
					"stateMutability": "view",
					"type": "function"
				},
				{
					"inputs": [
						{
							"internalType": "uint256",
							"name": "",
							"type": "uint256"
						}
					],
					"name": "registeredUsers",
					"outputs": [
						{
							"internalType": "address",
							"name": "userAddress",
							"type": "address"
						},
						{
							"internalType": "uint256",
							"name": "counterVisited",
							"type": "uint256"
						}
					],
					"stateMutability": "view",
					"type": "function"
				},
				{
					"inputs": [
						{
							"internalType": "address",
							"name": "_selectedAddress",
							"type": "address"
						}
					],
					"name": "searchGatchaByAddress",
					"outputs": [
						{
							"internalType": "string[]",
							"name": "",
							"type": "string[]"
						}
					],
					"stateMutability": "view",
					"type": "function"
				},
				{
					"inputs": [],
					"name": "searchGatchaOwnAddress",
					"outputs": [
						{
							"internalType": "string[]",
							"name": "",
							"type": "string[]"
						}
					],
					"stateMutability": "view",
					"type": "function"
				}
			],
			"devdoc": {
				"kind": "dev",
				"methods": {},
				"version": 1
			},
			"evm": {
				"assembly": "    /* \"contracts/TestInterview.sol\":208:5855  contract TestInterview {... */\n  mstore(0x40, 0x80)\n    /* \"contracts/TestInterview.sol\":258:300  0x50C7a09925375438D2cEe94C5c59266c6fFAAf8C */\n  0x50c7a09925375438d2cee94c5c59266c6ffaaf8c\n    /* \"contracts/TestInterview.sol\":238:301  INFT objINFT = INFT(0x50C7a09925375438D2cEe94C5c59266c6fFAAf8C) */\n  0x00\n  dup1\n  0x0100\n  exp\n  dup2\n  sload\n  dup2\n  0xffffffffffffffffffffffffffffffffffffffff\n  mul\n  not\n  and\n  swap1\n  dup4\n  0xffffffffffffffffffffffffffffffffffffffff\n  and\n  mul\n  or\n  swap1\n  sstore\n  pop\n    /* \"contracts/TestInterview.sol\":338:380  0xdBDdb8575F6bda11F1DC548A1B546463CC567C3d */\n  0xdbddb8575f6bda11f1dc548a1b546463cc567c3d\n    /* \"contracts/TestInterview.sol\":308:380  address public ownerAddress = 0xdBDdb8575F6bda11F1DC548A1B546463CC567C3d */\n  0x01\n  exp(0x0100, 0x00)\n  dup2\n  sload\n  dup2\n  0xffffffffffffffffffffffffffffffffffffffff\n  mul\n  not\n  and\n  swap1\n  dup4\n  0xffffffffffffffffffffffffffffffffffffffff\n  and\n  mul\n  or\n  swap1\n  sstore\n  pop\n    /* \"contracts/TestInterview.sol\":447:448  2 */\n  0x02\n    /* \"contracts/TestInterview.sol\":421:448  uint public limitGatcha = 2 */\n  0x03\n  sstore\n    /* \"contracts/TestInterview.sol\":896:1500  constructor() {... */\n  callvalue\n  dup1\n  iszero\n  tag_1\n  jumpi\n  0x00\n  dup1\n  revert\ntag_1:\n  pop\n    /* \"contracts/TestInterview.sol\":936:946  msg.sender */\n  caller\n    /* \"contracts/TestInterview.sol\":921:933  adminAddress */\n  0x02\n  0x00\n    /* \"contracts/TestInterview.sol\":921:946  adminAddress = msg.sender */\n  0x0100\n  exp\n  dup2\n  sload\n  dup2\n  0xffffffffffffffffffffffffffffffffffffffff\n  mul\n  not\n  and\n  swap1\n  dup4\n  0xffffffffffffffffffffffffffffffffffffffff\n  and\n  mul\n  or\n  swap1\n  sstore\n  pop\n    /* \"contracts/TestInterview.sol\":957:989  string[3] memory localRarityList */\n  0x00\n    /* \"contracts/TestInterview.sol\":992:999  objINFT */\n  dup1\n  0x00\n  swap1\n  sload\n  swap1\n  0x0100\n  exp\n  swap1\n  div\n  0xffffffffffffffffffffffffffffffffffffffff\n  and\n    /* \"contracts/TestInterview.sol\":992:1013  objINFT.getRarityList */\n  0xffffffffffffffffffffffffffffffffffffffff\n  and\n  0x48441d5f\n    /* \"contracts/TestInterview.sol\":992:1015  objINFT.getRarityList() */\n  mload(0x40)\n  dup2\n  0xffffffff\n  and\n  0xe0\n  shl\n  dup2\n  mstore\n  0x04\n  add\n  0x00\n  mload(0x40)\n  dup1\n  dup4\n  sub\n  dup2\n  dup7\n  dup1\n  extcodesize\n  iszero\n  dup1\n  iszero\n  tag_4\n  jumpi\n  0x00\n  dup1\n  revert\ntag_4:\n  pop\n  gas\n  staticcall\n  iszero\n  dup1\n  iszero\n  tag_6\n  jumpi\n  returndatasize\n  0x00\n  dup1\n  returndatacopy\n  revert(0x00, returndatasize)\ntag_6:\n  pop\n  pop\n  pop\n  pop\n  mload(0x40)\n  returndatasize\n  0x00\n  dup3\n  returndatacopy\n  returndatasize\n  not(0x1f)\n  0x1f\n  dup3\n  add\n  and\n  dup3\n  add\n  dup1\n  0x40\n  mstore\n  pop\n  dup2\n  add\n  swap1\n  tag_7\n  swap2\n  swap1\n  tag_8\n  jump\t// in\ntag_7:\n    /* \"contracts/TestInterview.sol\":957:1015  string[3] memory localRarityList = objINFT.getRarityList() */\n  swap1\n  pop\n    /* \"contracts/TestInterview.sol\":1028:1044  uint256 minValue */\n  0x00\n    /* \"contracts/TestInterview.sol\":1109:1122  uint256 index */\n  dup1\n    /* \"contracts/TestInterview.sol\":1105:1493  for(uint256 index = 0; index < localRarityList.length; index++)... */\ntag_9:\n    /* \"contracts/TestInterview.sol\":1136:1158  localRarityList.length */\n  0x03\n    /* \"contracts/TestInterview.sol\":1128:1133  index */\n  dup2\n    /* \"contracts/TestInterview.sol\":1128:1158  index < localRarityList.length */\n  lt\n    /* \"contracts/TestInterview.sol\":1105:1493  for(uint256 index = 0; index < localRarityList.length; index++)... */\n  iszero\n  tag_10\n  jumpi\n    /* \"contracts/TestInterview.sol\":1193:1208  uint rarityRate */\n  0x00\n    /* \"contracts/TestInterview.sol\":1211:1218  objINFT */\n  dup1\n  0x00\n  swap1\n  sload\n  swap1\n  0x0100\n  exp\n  swap1\n  div\n  0xffffffffffffffffffffffffffffffffffffffff\n  and\n    /* \"contracts/TestInterview.sol\":1211:1232  objINFT.getRarityRate */\n  0xffffffffffffffffffffffffffffffffffffffff\n  and\n  0x278a7f33\n    /* \"contracts/TestInterview.sol\":1233:1248  localRarityList */\n  dup6\n    /* \"contracts/TestInterview.sol\":1249:1254  index */\n  dup5\n    /* \"contracts/TestInterview.sol\":1233:1255  localRarityList[index] */\n  0x03\n  dup2\n  lt\n  tag_12\n  jumpi\n  tag_13\n  tag_14\n  jump\t// in\ntag_13:\ntag_12:\n  0x20\n  mul\n  add\n  mload\n    /* \"contracts/TestInterview.sol\":1211:1256  objINFT.getRarityRate(localRarityList[index]) */\n  mload(0x40)\n  dup3\n  0xffffffff\n  and\n  0xe0\n  shl\n  dup2\n  mstore\n  0x04\n  add\n  tag_15\n  swap2\n  swap1\n  tag_16\n  jump\t// in\ntag_15:\n  0x20\n  mload(0x40)\n  dup1\n  dup4\n  sub\n  dup2\n  dup7\n  dup1\n  extcodesize\n  iszero\n  dup1\n  iszero\n  tag_17\n  jumpi\n  0x00\n  dup1\n  revert\ntag_17:\n  pop\n  gas\n  staticcall\n  iszero\n  dup1\n  iszero\n  tag_19\n  jumpi\n  returndatasize\n  0x00\n  dup1\n  returndatacopy\n  revert(0x00, returndatasize)\ntag_19:\n  pop\n  pop\n  pop\n  pop\n  mload(0x40)\n  returndatasize\n  not(0x1f)\n  0x1f\n  dup3\n  add\n  and\n  dup3\n  add\n  dup1\n  0x40\n  mstore\n  pop\n  dup2\n  add\n  swap1\n  tag_20\n  swap2\n  swap1\n  tag_21\n  jump\t// in\ntag_20:\n    /* \"contracts/TestInterview.sol\":1193:1256  uint rarityRate = objINFT.getRarityRate(localRarityList[index]) */\n  0xff\n  and\n  swap1\n  pop\n    /* \"contracts/TestInterview.sol\":1271:1281  rarityList */\n  0x04\n    /* \"contracts/TestInterview.sol\":1287:1443  Rarity({... */\n  mload(0x40)\n  dup1\n  0x60\n  add\n  0x40\n  mstore\n  dup1\n    /* \"contracts/TestInterview.sol\":1320:1335  localRarityList */\n  dup7\n    /* \"contracts/TestInterview.sol\":1336:1341  index */\n  dup6\n    /* \"contracts/TestInterview.sol\":1320:1342  localRarityList[index] */\n  0x03\n  dup2\n  lt\n  tag_22\n  jumpi\n  tag_23\n  tag_14\n  jump\t// in\ntag_23:\ntag_22:\n  0x20\n  mul\n  add\n  mload\n    /* \"contracts/TestInterview.sol\":1287:1443  Rarity({... */\n  dup2\n  mstore\n  0x20\n  add\n    /* \"contracts/TestInterview.sol\":1367:1375  minValue */\n  dup6\n    /* \"contracts/TestInterview.sol\":1287:1443  Rarity({... */\n  dup2\n  mstore\n  0x20\n  add\n    /* \"contracts/TestInterview.sol\":1426:1427  1 */\n  0x01\n    /* \"contracts/TestInterview.sol\":1412:1422  rarityRate */\n  dup5\n    /* \"contracts/TestInterview.sol\":1401:1409  minValue */\n  dup8\n    /* \"contracts/TestInterview.sol\":1401:1422  minValue + rarityRate */\n  tag_24\n  swap2\n  swap1\n  tag_25\n  jump\t// in\ntag_24:\n    /* \"contracts/TestInterview.sol\":1400:1427  (minValue + rarityRate) - 1 */\n  tag_26\n  swap2\n  swap1\n  tag_27\n  jump\t// in\ntag_26:\n    /* \"contracts/TestInterview.sol\":1287:1443  Rarity({... */\n  dup2\n  mstore\n  pop\n    /* \"contracts/TestInterview.sol\":1271:1444  rarityList.push(Rarity({... */\n  swap1\n  dup1\n  0x01\n  dup2\n  sload\n  add\n  dup1\n  dup3\n  sstore\n  dup1\n  swap2\n  pop\n  pop\n  0x01\n  swap1\n  sub\n  swap1\n  0x00\n  mstore\n  keccak256(0x00, 0x20)\n  swap1\n  0x03\n  mul\n  add\n  0x00\n  swap1\n  swap2\n  swap1\n  swap2\n  swap1\n  swap2\n  pop\n  0x00\n  dup3\n  add\n  mload\n  dup2\n  0x00\n  add\n  swap1\n  dup1\n  mload\n  swap1\n  0x20\n  add\n  swap1\n  tag_29\n  swap3\n  swap2\n  swap1\n  tag_30\n  jump\t// in\ntag_29:\n  pop\n  0x20\n  dup3\n  add\n  mload\n  dup2\n  0x01\n  add\n  sstore\n  0x40\n  dup3\n  add\n  mload\n  dup2\n  0x02\n  add\n  sstore\n  pop\n  pop\n    /* \"contracts/TestInterview.sol\":1471:1481  rarityRate */\n  dup1\n    /* \"contracts/TestInterview.sol\":1459:1481  minValue += rarityRate */\n  dup4\n  tag_31\n  swap2\n  swap1\n  tag_25\n  jump\t// in\ntag_31:\n  swap3\n  pop\n    /* \"contracts/TestInterview.sol\":1178:1493  {... */\n  pop\n    /* \"contracts/TestInterview.sol\":1160:1167  index++ */\n  dup1\n  dup1\n  tag_32\n  swap1\n  tag_33\n  jump\t// in\ntag_32:\n  swap2\n  pop\n  pop\n    /* \"contracts/TestInterview.sol\":1105:1493  for(uint256 index = 0; index < localRarityList.length; index++)... */\n  jump(tag_9)\ntag_10:\n  pop\n    /* \"contracts/TestInterview.sol\":910:1500  {... */\n  pop\n  pop\n    /* \"contracts/TestInterview.sol\":208:5855  contract TestInterview {... */\n  jump(tag_34)\ntag_30:\n  dup3\n  dup1\n  sload\n  tag_35\n  swap1\n  tag_36\n  jump\t// in\ntag_35:\n  swap1\n  0x00\n  mstore\n  keccak256(0x00, 0x20)\n  swap1\n  0x1f\n  add\n  0x20\n  swap1\n  div\n  dup2\n  add\n  swap3\n  dup3\n  tag_38\n  jumpi\n  0x00\n  dup6\n  sstore\n  jump(tag_37)\ntag_38:\n  dup3\n  0x1f\n  lt\n  tag_39\n  jumpi\n  dup1\n  mload\n  not(0xff)\n  and\n  dup4\n  dup1\n  add\n  or\n  dup6\n  sstore\n  jump(tag_37)\ntag_39:\n  dup3\n  dup1\n  add\n  0x01\n  add\n  dup6\n  sstore\n  dup3\n  iszero\n  tag_37\n  jumpi\n  swap2\n  dup3\n  add\ntag_40:\n  dup3\n  dup2\n  gt\n  iszero\n  tag_41\n  jumpi\n  dup3\n  mload\n  dup3\n  sstore\n  swap2\n  0x20\n  add\n  swap2\n  swap1\n  0x01\n  add\n  swap1\n  jump(tag_40)\ntag_41:\ntag_37:\n  pop\n  swap1\n  pop\n  tag_42\n  swap2\n  swap1\n  tag_43\n  jump\t// in\ntag_42:\n  pop\n  swap1\n  jump\t// out\ntag_43:\ntag_44:\n  dup1\n  dup3\n  gt\n  iszero\n  tag_45\n  jumpi\n  0x00\n  dup2\n  0x00\n  swap1\n  sstore\n  pop\n  0x01\n  add\n  jump(tag_44)\ntag_45:\n  pop\n  swap1\n  jump\t// out\n    /* \"#utility.yul\":7:82   */\ntag_46:\n    /* \"#utility.yul\":40:46   */\n  0x00\n    /* \"#utility.yul\":73:75   */\n  0x40\n    /* \"#utility.yul\":67:76   */\n  mload\n    /* \"#utility.yul\":57:76   */\n  swap1\n  pop\n    /* \"#utility.yul\":7:82   */\n  swap1\n  jump\t// out\n    /* \"#utility.yul\":88:205   */\ntag_47:\n    /* \"#utility.yul\":197:198   */\n  0x00\n    /* \"#utility.yul\":194:195   */\n  dup1\n    /* \"#utility.yul\":187:199   */\n  revert\n    /* \"#utility.yul\":211:328   */\ntag_48:\n    /* \"#utility.yul\":320:321   */\n  0x00\n    /* \"#utility.yul\":317:318   */\n  dup1\n    /* \"#utility.yul\":310:322   */\n  revert\n    /* \"#utility.yul\":334:451   */\ntag_49:\n    /* \"#utility.yul\":443:444   */\n  0x00\n    /* \"#utility.yul\":440:441   */\n  dup1\n    /* \"#utility.yul\":433:445   */\n  revert\n    /* \"#utility.yul\":457:559   */\ntag_50:\n    /* \"#utility.yul\":498:504   */\n  0x00\n    /* \"#utility.yul\":549:551   */\n  0x1f\n    /* \"#utility.yul\":545:552   */\n  not\n    /* \"#utility.yul\":540:542   */\n  0x1f\n    /* \"#utility.yul\":533:538   */\n  dup4\n    /* \"#utility.yul\":529:543   */\n  add\n    /* \"#utility.yul\":525:553   */\n  and\n    /* \"#utility.yul\":515:553   */\n  swap1\n  pop\n    /* \"#utility.yul\":457:559   */\n  swap2\n  swap1\n  pop\n  jump\t// out\n    /* \"#utility.yul\":565:745   */\ntag_51:\n    /* \"#utility.yul\":613:690   */\n  0x4e487b7100000000000000000000000000000000000000000000000000000000\n    /* \"#utility.yul\":610:611   */\n  0x00\n    /* \"#utility.yul\":603:691   */\n  mstore\n    /* \"#utility.yul\":710:714   */\n  0x41\n    /* \"#utility.yul\":707:708   */\n  0x04\n    /* \"#utility.yul\":700:715   */\n  mstore\n    /* \"#utility.yul\":734:738   */\n  0x24\n    /* \"#utility.yul\":731:732   */\n  0x00\n    /* \"#utility.yul\":724:739   */\n  revert\n    /* \"#utility.yul\":751:1032   */\ntag_52:\n    /* \"#utility.yul\":834:861   */\n  tag_80\n    /* \"#utility.yul\":856:860   */\n  dup3\n    /* \"#utility.yul\":834:861   */\n  tag_50\n  jump\t// in\ntag_80:\n    /* \"#utility.yul\":826:832   */\n  dup2\n    /* \"#utility.yul\":822:862   */\n  add\n    /* \"#utility.yul\":964:970   */\n  dup2\n    /* \"#utility.yul\":952:962   */\n  dup2\n    /* \"#utility.yul\":949:971   */\n  lt\n    /* \"#utility.yul\":928:946   */\n  0xffffffffffffffff\n    /* \"#utility.yul\":916:926   */\n  dup3\n    /* \"#utility.yul\":913:947   */\n  gt\n    /* \"#utility.yul\":910:972   */\n  or\n    /* \"#utility.yul\":907:995   */\n  iszero\n  tag_81\n  jumpi\n    /* \"#utility.yul\":975:993   */\n  tag_82\n  tag_51\n  jump\t// in\ntag_82:\n    /* \"#utility.yul\":907:995   */\ntag_81:\n    /* \"#utility.yul\":1015:1025   */\n  dup1\n    /* \"#utility.yul\":1011:1013   */\n  0x40\n    /* \"#utility.yul\":1004:1026   */\n  mstore\n    /* \"#utility.yul\":794:1032   */\n  pop\n    /* \"#utility.yul\":751:1032   */\n  pop\n  pop\n  jump\t// out\n    /* \"#utility.yul\":1038:1167   */\ntag_53:\n    /* \"#utility.yul\":1072:1078   */\n  0x00\n    /* \"#utility.yul\":1099:1119   */\n  tag_84\n  tag_46\n  jump\t// in\ntag_84:\n    /* \"#utility.yul\":1089:1119   */\n  swap1\n  pop\n    /* \"#utility.yul\":1128:1161   */\n  tag_85\n    /* \"#utility.yul\":1156:1160   */\n  dup3\n    /* \"#utility.yul\":1148:1154   */\n  dup3\n    /* \"#utility.yul\":1128:1161   */\n  tag_52\n  jump\t// in\ntag_85:\n    /* \"#utility.yul\":1038:1167   */\n  swap2\n  swap1\n  pop\n  jump\t// out\n    /* \"#utility.yul\":1173:1432   */\ntag_54:\n    /* \"#utility.yul\":1258:1262   */\n  0x00\n    /* \"#utility.yul\":1348:1366   */\n  0xffffffffffffffff\n    /* \"#utility.yul\":1340:1346   */\n  dup3\n    /* \"#utility.yul\":1337:1367   */\n  gt\n    /* \"#utility.yul\":1334:1390   */\n  iszero\n  tag_87\n  jumpi\n    /* \"#utility.yul\":1370:1388   */\n  tag_88\n  tag_51\n  jump\t// in\ntag_88:\n    /* \"#utility.yul\":1334:1390   */\ntag_87:\n    /* \"#utility.yul\":1420:1424   */\n  0x20\n    /* \"#utility.yul\":1412:1418   */\n  dup3\n    /* \"#utility.yul\":1408:1425   */\n  mul\n    /* \"#utility.yul\":1400:1425   */\n  swap1\n  pop\n    /* \"#utility.yul\":1173:1432   */\n  swap2\n  swap1\n  pop\n  jump\t// out\n    /* \"#utility.yul\":1438:1555   */\ntag_55:\n    /* \"#utility.yul\":1547:1548   */\n  0x00\n    /* \"#utility.yul\":1544:1545   */\n  dup1\n    /* \"#utility.yul\":1537:1549   */\n  revert\n    /* \"#utility.yul\":1561:1678   */\ntag_56:\n    /* \"#utility.yul\":1670:1671   */\n  0x00\n    /* \"#utility.yul\":1667:1668   */\n  dup1\n    /* \"#utility.yul\":1660:1672   */\n  revert\n    /* \"#utility.yul\":1684:1992   */\ntag_57:\n    /* \"#utility.yul\":1746:1750   */\n  0x00\n    /* \"#utility.yul\":1836:1854   */\n  0xffffffffffffffff\n    /* \"#utility.yul\":1828:1834   */\n  dup3\n    /* \"#utility.yul\":1825:1855   */\n  gt\n    /* \"#utility.yul\":1822:1878   */\n  iszero\n  tag_92\n  jumpi\n    /* \"#utility.yul\":1858:1876   */\n  tag_93\n  tag_51\n  jump\t// in\ntag_93:\n    /* \"#utility.yul\":1822:1878   */\ntag_92:\n    /* \"#utility.yul\":1896:1925   */\n  tag_94\n    /* \"#utility.yul\":1918:1924   */\n  dup3\n    /* \"#utility.yul\":1896:1925   */\n  tag_50\n  jump\t// in\ntag_94:\n    /* \"#utility.yul\":1888:1925   */\n  swap1\n  pop\n    /* \"#utility.yul\":1980:1984   */\n  0x20\n    /* \"#utility.yul\":1974:1978   */\n  dup2\n    /* \"#utility.yul\":1970:1985   */\n  add\n    /* \"#utility.yul\":1962:1985   */\n  swap1\n  pop\n    /* \"#utility.yul\":1684:1992   */\n  swap2\n  swap1\n  pop\n  jump\t// out\n    /* \"#utility.yul\":1998:2305   */\ntag_58:\n    /* \"#utility.yul\":2066:2067   */\n  0x00\n    /* \"#utility.yul\":2076:2189   */\ntag_96:\n    /* \"#utility.yul\":2090:2096   */\n  dup4\n    /* \"#utility.yul\":2087:2088   */\n  dup2\n    /* \"#utility.yul\":2084:2097   */\n  lt\n    /* \"#utility.yul\":2076:2189   */\n  iszero\n  tag_98\n  jumpi\n    /* \"#utility.yul\":2175:2176   */\n  dup1\n    /* \"#utility.yul\":2170:2173   */\n  dup3\n    /* \"#utility.yul\":2166:2177   */\n  add\n    /* \"#utility.yul\":2160:2178   */\n  mload\n    /* \"#utility.yul\":2156:2157   */\n  dup2\n    /* \"#utility.yul\":2151:2154   */\n  dup5\n    /* \"#utility.yul\":2147:2158   */\n  add\n    /* \"#utility.yul\":2140:2179   */\n  mstore\n    /* \"#utility.yul\":2112:2114   */\n  0x20\n    /* \"#utility.yul\":2109:2110   */\n  dup2\n    /* \"#utility.yul\":2105:2115   */\n  add\n    /* \"#utility.yul\":2100:2115   */\n  swap1\n  pop\n    /* \"#utility.yul\":2076:2189   */\n  jump(tag_96)\ntag_98:\n    /* \"#utility.yul\":2207:2213   */\n  dup4\n    /* \"#utility.yul\":2204:2205   */\n  dup2\n    /* \"#utility.yul\":2201:2214   */\n  gt\n    /* \"#utility.yul\":2198:2299   */\n  iszero\n  tag_99\n  jumpi\n    /* \"#utility.yul\":2287:2288   */\n  0x00\n    /* \"#utility.yul\":2278:2284   */\n  dup5\n    /* \"#utility.yul\":2273:2276   */\n  dup5\n    /* \"#utility.yul\":2269:2285   */\n  add\n    /* \"#utility.yul\":2262:2289   */\n  mstore\n    /* \"#utility.yul\":2198:2299   */\ntag_99:\n    /* \"#utility.yul\":2047:2305   */\n  pop\n    /* \"#utility.yul\":1998:2305   */\n  pop\n  pop\n  pop\n  jump\t// out\n    /* \"#utility.yul\":2311:2732   */\ntag_59:\n    /* \"#utility.yul\":2400:2405   */\n  0x00\n    /* \"#utility.yul\":2425:2491   */\n  tag_101\n    /* \"#utility.yul\":2441:2490   */\n  tag_102\n    /* \"#utility.yul\":2483:2489   */\n  dup5\n    /* \"#utility.yul\":2441:2490   */\n  tag_57\n  jump\t// in\ntag_102:\n    /* \"#utility.yul\":2425:2491   */\n  tag_53\n  jump\t// in\ntag_101:\n    /* \"#utility.yul\":2416:2491   */\n  swap1\n  pop\n    /* \"#utility.yul\":2514:2520   */\n  dup3\n    /* \"#utility.yul\":2507:2512   */\n  dup2\n    /* \"#utility.yul\":2500:2521   */\n  mstore\n    /* \"#utility.yul\":2552:2556   */\n  0x20\n    /* \"#utility.yul\":2545:2550   */\n  dup2\n    /* \"#utility.yul\":2541:2557   */\n  add\n    /* \"#utility.yul\":2590:2593   */\n  dup5\n    /* \"#utility.yul\":2581:2587   */\n  dup5\n    /* \"#utility.yul\":2576:2579   */\n  dup5\n    /* \"#utility.yul\":2572:2588   */\n  add\n    /* \"#utility.yul\":2569:2594   */\n  gt\n    /* \"#utility.yul\":2566:2678   */\n  iszero\n  tag_103\n  jumpi\n    /* \"#utility.yul\":2597:2676   */\n  tag_104\n  tag_56\n  jump\t// in\ntag_104:\n    /* \"#utility.yul\":2566:2678   */\ntag_103:\n    /* \"#utility.yul\":2687:2726   */\n  tag_105\n    /* \"#utility.yul\":2719:2725   */\n  dup5\n    /* \"#utility.yul\":2714:2717   */\n  dup3\n    /* \"#utility.yul\":2709:2712   */\n  dup6\n    /* \"#utility.yul\":2687:2726   */\n  tag_58\n  jump\t// in\ntag_105:\n    /* \"#utility.yul\":2406:2732   */\n  pop\n    /* \"#utility.yul\":2311:2732   */\n  swap4\n  swap3\n  pop\n  pop\n  pop\n  jump\t// out\n    /* \"#utility.yul\":2752:3107   */\ntag_60:\n    /* \"#utility.yul\":2819:2824   */\n  0x00\n    /* \"#utility.yul\":2868:2871   */\n  dup3\n    /* \"#utility.yul\":2861:2865   */\n  0x1f\n    /* \"#utility.yul\":2853:2859   */\n  dup4\n    /* \"#utility.yul\":2849:2866   */\n  add\n    /* \"#utility.yul\":2845:2872   */\n  slt\n    /* \"#utility.yul\":2835:2957   */\n  tag_107\n  jumpi\n    /* \"#utility.yul\":2876:2955   */\n  tag_108\n  tag_49\n  jump\t// in\ntag_108:\n    /* \"#utility.yul\":2835:2957   */\ntag_107:\n    /* \"#utility.yul\":2986:2992   */\n  dup2\n    /* \"#utility.yul\":2980:2993   */\n  mload\n    /* \"#utility.yul\":3011:3101   */\n  tag_109\n    /* \"#utility.yul\":3097:3100   */\n  dup5\n    /* \"#utility.yul\":3089:3095   */\n  dup3\n    /* \"#utility.yul\":3082:3086   */\n  0x20\n    /* \"#utility.yul\":3074:3080   */\n  dup7\n    /* \"#utility.yul\":3070:3087   */\n  add\n    /* \"#utility.yul\":3011:3101   */\n  tag_59\n  jump\t// in\ntag_109:\n    /* \"#utility.yul\":3002:3101   */\n  swap2\n  pop\n    /* \"#utility.yul\":2825:3107   */\n  pop\n    /* \"#utility.yul\":2752:3107   */\n  swap3\n  swap2\n  pop\n  pop\n  jump\t// out\n    /* \"#utility.yul\":3130:4023   */\ntag_61:\n    /* \"#utility.yul\":3245:3250   */\n  0x00\n    /* \"#utility.yul\":3270:3359   */\n  tag_111\n    /* \"#utility.yul\":3286:3358   */\n  tag_112\n    /* \"#utility.yul\":3351:3357   */\n  dup5\n    /* \"#utility.yul\":3286:3358   */\n  tag_54\n  jump\t// in\ntag_112:\n    /* \"#utility.yul\":3270:3359   */\n  tag_53\n  jump\t// in\ntag_111:\n    /* \"#utility.yul\":3261:3359   */\n  swap1\n  pop\n    /* \"#utility.yul\":3379:3384   */\n  dup1\n    /* \"#utility.yul\":3432:3436   */\n  0x20\n    /* \"#utility.yul\":3424:3430   */\n  dup5\n    /* \"#utility.yul\":3420:3437   */\n  mul\n    /* \"#utility.yul\":3412:3418   */\n  dup4\n    /* \"#utility.yul\":3408:3438   */\n  add\n    /* \"#utility.yul\":3461:3464   */\n  dup6\n    /* \"#utility.yul\":3453:3459   */\n  dup2\n    /* \"#utility.yul\":3450:3465   */\n  gt\n    /* \"#utility.yul\":3447:3569   */\n  iszero\n  tag_113\n  jumpi\n    /* \"#utility.yul\":3480:3559   */\n  tag_114\n  tag_55\n  jump\t// in\ntag_114:\n    /* \"#utility.yul\":3447:3569   */\ntag_113:\n    /* \"#utility.yul\":3595:3601   */\n  dup4\n    /* \"#utility.yul\":3578:4017   */\ntag_115:\n    /* \"#utility.yul\":3612:3618   */\n  dup2\n    /* \"#utility.yul\":3607:3610   */\n  dup2\n    /* \"#utility.yul\":3604:3619   */\n  lt\n    /* \"#utility.yul\":3578:4017   */\n  iszero\n  tag_117\n  jumpi\n    /* \"#utility.yul\":3694:3697   */\n  dup1\n    /* \"#utility.yul\":3688:3698   */\n  mload\n    /* \"#utility.yul\":3730:3748   */\n  0xffffffffffffffff\n    /* \"#utility.yul\":3717:3728   */\n  dup2\n    /* \"#utility.yul\":3714:3749   */\n  gt\n    /* \"#utility.yul\":3711:3833   */\n  iszero\n  tag_118\n  jumpi\n    /* \"#utility.yul\":3752:3831   */\n  tag_119\n  tag_49\n  jump\t// in\ntag_119:\n    /* \"#utility.yul\":3711:3833   */\ntag_118:\n    /* \"#utility.yul\":3876:3887   */\n  dup1\n    /* \"#utility.yul\":3868:3874   */\n  dup7\n    /* \"#utility.yul\":3864:3888   */\n  add\n    /* \"#utility.yul\":3914:3972   */\n  tag_120\n    /* \"#utility.yul\":3968:3971   */\n  dup10\n    /* \"#utility.yul\":3956:3966   */\n  dup3\n    /* \"#utility.yul\":3914:3972   */\n  tag_60\n  jump\t// in\ntag_120:\n    /* \"#utility.yul\":3909:3912   */\n  dup6\n    /* \"#utility.yul\":3902:3973   */\n  mstore\n    /* \"#utility.yul\":4002:4006   */\n  0x20\n    /* \"#utility.yul\":3997:4000   */\n  dup6\n    /* \"#utility.yul\":3993:4007   */\n  add\n    /* \"#utility.yul\":3986:4007   */\n  swap5\n  pop\n    /* \"#utility.yul\":3654:4017   */\n  pop\n  pop\n    /* \"#utility.yul\":3638:3642   */\n  0x20\n    /* \"#utility.yul\":3633:3636   */\n  dup2\n    /* \"#utility.yul\":3629:3643   */\n  add\n    /* \"#utility.yul\":3622:3643   */\n  swap1\n  pop\n    /* \"#utility.yul\":3578:4017   */\n  jump(tag_115)\ntag_117:\n    /* \"#utility.yul\":3582:3603   */\n  pop\n    /* \"#utility.yul\":3251:4023   */\n  pop\n  pop\n    /* \"#utility.yul\":3130:4023   */\n  swap4\n  swap3\n  pop\n  pop\n  pop\n  jump\t// out\n    /* \"#utility.yul\":4046:4427   */\ntag_62:\n    /* \"#utility.yul\":4136:4141   */\n  0x00\n    /* \"#utility.yul\":4185:4188   */\n  dup3\n    /* \"#utility.yul\":4178:4182   */\n  0x1f\n    /* \"#utility.yul\":4170:4176   */\n  dup4\n    /* \"#utility.yul\":4166:4183   */\n  add\n    /* \"#utility.yul\":4162:4189   */\n  slt\n    /* \"#utility.yul\":4152:4274   */\n  tag_122\n  jumpi\n    /* \"#utility.yul\":4193:4272   */\n  tag_123\n  tag_49\n  jump\t// in\ntag_123:\n    /* \"#utility.yul\":4152:4274   */\ntag_122:\n    /* \"#utility.yul\":4297:4301   */\n  0x03\n    /* \"#utility.yul\":4319:4421   */\n  tag_124\n    /* \"#utility.yul\":4417:4420   */\n  dup5\n    /* \"#utility.yul\":4409:4415   */\n  dup3\n    /* \"#utility.yul\":4401:4407   */\n  dup6\n    /* \"#utility.yul\":4319:4421   */\n  tag_61\n  jump\t// in\ntag_124:\n    /* \"#utility.yul\":4310:4421   */\n  swap2\n  pop\n    /* \"#utility.yul\":4142:4427   */\n  pop\n    /* \"#utility.yul\":4046:4427   */\n  swap3\n  swap2\n  pop\n  pop\n  jump\t// out\n    /* \"#utility.yul\":4433:5003   */\ntag_8:\n    /* \"#utility.yul\":4536:4542   */\n  0x00\n    /* \"#utility.yul\":4585:4587   */\n  0x20\n    /* \"#utility.yul\":4573:4582   */\n  dup3\n    /* \"#utility.yul\":4564:4571   */\n  dup5\n    /* \"#utility.yul\":4560:4583   */\n  sub\n    /* \"#utility.yul\":4556:4588   */\n  slt\n    /* \"#utility.yul\":4553:4672   */\n  iszero\n  tag_126\n  jumpi\n    /* \"#utility.yul\":4591:4670   */\n  tag_127\n  tag_47\n  jump\t// in\ntag_127:\n    /* \"#utility.yul\":4553:4672   */\ntag_126:\n    /* \"#utility.yul\":4732:4733   */\n  0x00\n    /* \"#utility.yul\":4721:4730   */\n  dup3\n    /* \"#utility.yul\":4717:4734   */\n  add\n    /* \"#utility.yul\":4711:4735   */\n  mload\n    /* \"#utility.yul\":4762:4780   */\n  0xffffffffffffffff\n    /* \"#utility.yul\":4754:4760   */\n  dup2\n    /* \"#utility.yul\":4751:4781   */\n  gt\n    /* \"#utility.yul\":4748:4865   */\n  iszero\n  tag_128\n  jumpi\n    /* \"#utility.yul\":4784:4863   */\n  tag_129\n  tag_48\n  jump\t// in\ntag_129:\n    /* \"#utility.yul\":4748:4865   */\ntag_128:\n    /* \"#utility.yul\":4889:4986   */\n  tag_130\n    /* \"#utility.yul\":4978:4985   */\n  dup5\n    /* \"#utility.yul\":4969:4975   */\n  dup3\n    /* \"#utility.yul\":4958:4967   */\n  dup6\n    /* \"#utility.yul\":4954:4976   */\n  add\n    /* \"#utility.yul\":4889:4986   */\n  tag_62\n  jump\t// in\ntag_130:\n    /* \"#utility.yul\":4879:4986   */\n  swap2\n  pop\n    /* \"#utility.yul\":4682:4996   */\n  pop\n    /* \"#utility.yul\":4433:5003   */\n  swap3\n  swap2\n  pop\n  pop\n  jump\t// out\n    /* \"#utility.yul\":5009:5189   */\ntag_14:\n    /* \"#utility.yul\":5057:5134   */\n  0x4e487b7100000000000000000000000000000000000000000000000000000000\n    /* \"#utility.yul\":5054:5055   */\n  0x00\n    /* \"#utility.yul\":5047:5135   */\n  mstore\n    /* \"#utility.yul\":5154:5158   */\n  0x32\n    /* \"#utility.yul\":5151:5152   */\n  0x04\n    /* \"#utility.yul\":5144:5159   */\n  mstore\n    /* \"#utility.yul\":5178:5182   */\n  0x24\n    /* \"#utility.yul\":5175:5176   */\n  0x00\n    /* \"#utility.yul\":5168:5183   */\n  revert\n    /* \"#utility.yul\":5195:5294   */\ntag_63:\n    /* \"#utility.yul\":5247:5253   */\n  0x00\n    /* \"#utility.yul\":5281:5286   */\n  dup2\n    /* \"#utility.yul\":5275:5287   */\n  mload\n    /* \"#utility.yul\":5265:5287   */\n  swap1\n  pop\n    /* \"#utility.yul\":5195:5294   */\n  swap2\n  swap1\n  pop\n  jump\t// out\n    /* \"#utility.yul\":5300:5469   */\ntag_64:\n    /* \"#utility.yul\":5384:5395   */\n  0x00\n    /* \"#utility.yul\":5418:5424   */\n  dup3\n    /* \"#utility.yul\":5413:5416   */\n  dup3\n    /* \"#utility.yul\":5406:5425   */\n  mstore\n    /* \"#utility.yul\":5458:5462   */\n  0x20\n    /* \"#utility.yul\":5453:5456   */\n  dup3\n    /* \"#utility.yul\":5449:5463   */\n  add\n    /* \"#utility.yul\":5434:5463   */\n  swap1\n  pop\n    /* \"#utility.yul\":5300:5469   */\n  swap3\n  swap2\n  pop\n  pop\n  jump\t// out\n    /* \"#utility.yul\":5475:5839   */\ntag_65:\n    /* \"#utility.yul\":5563:5566   */\n  0x00\n    /* \"#utility.yul\":5591:5630   */\n  tag_135\n    /* \"#utility.yul\":5624:5629   */\n  dup3\n    /* \"#utility.yul\":5591:5630   */\n  tag_63\n  jump\t// in\ntag_135:\n    /* \"#utility.yul\":5646:5717   */\n  tag_136\n    /* \"#utility.yul\":5710:5716   */\n  dup2\n    /* \"#utility.yul\":5705:5708   */\n  dup6\n    /* \"#utility.yul\":5646:5717   */\n  tag_64\n  jump\t// in\ntag_136:\n    /* \"#utility.yul\":5639:5717   */\n  swap4\n  pop\n    /* \"#utility.yul\":5726:5778   */\n  tag_137\n    /* \"#utility.yul\":5771:5777   */\n  dup2\n    /* \"#utility.yul\":5766:5769   */\n  dup6\n    /* \"#utility.yul\":5759:5763   */\n  0x20\n    /* \"#utility.yul\":5752:5757   */\n  dup7\n    /* \"#utility.yul\":5748:5764   */\n  add\n    /* \"#utility.yul\":5726:5778   */\n  tag_58\n  jump\t// in\ntag_137:\n    /* \"#utility.yul\":5803:5832   */\n  tag_138\n    /* \"#utility.yul\":5825:5831   */\n  dup2\n    /* \"#utility.yul\":5803:5832   */\n  tag_50\n  jump\t// in\ntag_138:\n    /* \"#utility.yul\":5798:5801   */\n  dup5\n    /* \"#utility.yul\":5794:5833   */\n  add\n    /* \"#utility.yul\":5787:5833   */\n  swap2\n  pop\n    /* \"#utility.yul\":5567:5839   */\n  pop\n    /* \"#utility.yul\":5475:5839   */\n  swap3\n  swap2\n  pop\n  pop\n  jump\t// out\n    /* \"#utility.yul\":5845:6158   */\ntag_16:\n    /* \"#utility.yul\":5958:5962   */\n  0x00\n    /* \"#utility.yul\":5996:5998   */\n  0x20\n    /* \"#utility.yul\":5985:5994   */\n  dup3\n    /* \"#utility.yul\":5981:5999   */\n  add\n    /* \"#utility.yul\":5973:5999   */\n  swap1\n  pop\n    /* \"#utility.yul\":6045:6054   */\n  dup2\n    /* \"#utility.yul\":6039:6043   */\n  dup2\n    /* \"#utility.yul\":6035:6055   */\n  sub\n    /* \"#utility.yul\":6031:6032   */\n  0x00\n    /* \"#utility.yul\":6020:6029   */\n  dup4\n    /* \"#utility.yul\":6016:6033   */\n  add\n    /* \"#utility.yul\":6009:6056   */\n  mstore\n    /* \"#utility.yul\":6073:6151   */\n  tag_140\n    /* \"#utility.yul\":6146:6150   */\n  dup2\n    /* \"#utility.yul\":6137:6143   */\n  dup5\n    /* \"#utility.yul\":6073:6151   */\n  tag_65\n  jump\t// in\ntag_140:\n    /* \"#utility.yul\":6065:6151   */\n  swap1\n  pop\n    /* \"#utility.yul\":5845:6158   */\n  swap3\n  swap2\n  pop\n  pop\n  jump\t// out\n    /* \"#utility.yul\":6164:6250   */\ntag_66:\n    /* \"#utility.yul\":6199:6206   */\n  0x00\n    /* \"#utility.yul\":6239:6243   */\n  0xff\n    /* \"#utility.yul\":6232:6237   */\n  dup3\n    /* \"#utility.yul\":6228:6244   */\n  and\n    /* \"#utility.yul\":6217:6244   */\n  swap1\n  pop\n    /* \"#utility.yul\":6164:6250   */\n  swap2\n  swap1\n  pop\n  jump\t// out\n    /* \"#utility.yul\":6256:6374   */\ntag_67:\n    /* \"#utility.yul\":6327:6349   */\n  tag_143\n    /* \"#utility.yul\":6343:6348   */\n  dup2\n    /* \"#utility.yul\":6327:6349   */\n  tag_66\n  jump\t// in\ntag_143:\n    /* \"#utility.yul\":6320:6325   */\n  dup2\n    /* \"#utility.yul\":6317:6350   */\n  eq\n    /* \"#utility.yul\":6307:6368   */\n  tag_144\n  jumpi\n    /* \"#utility.yul\":6364:6365   */\n  0x00\n    /* \"#utility.yul\":6361:6362   */\n  dup1\n    /* \"#utility.yul\":6354:6366   */\n  revert\n    /* \"#utility.yul\":6307:6368   */\ntag_144:\n    /* \"#utility.yul\":6256:6374   */\n  pop\n  jump\t// out\n    /* \"#utility.yul\":6380:6519   */\ntag_68:\n    /* \"#utility.yul\":6435:6440   */\n  0x00\n    /* \"#utility.yul\":6466:6472   */\n  dup2\n    /* \"#utility.yul\":6460:6473   */\n  mload\n    /* \"#utility.yul\":6451:6473   */\n  swap1\n  pop\n    /* \"#utility.yul\":6482:6513   */\n  tag_146\n    /* \"#utility.yul\":6507:6512   */\n  dup2\n    /* \"#utility.yul\":6482:6513   */\n  tag_67\n  jump\t// in\ntag_146:\n    /* \"#utility.yul\":6380:6519   */\n  swap3\n  swap2\n  pop\n  pop\n  jump\t// out\n    /* \"#utility.yul\":6525:6872   */\ntag_21:\n    /* \"#utility.yul\":6593:6599   */\n  0x00\n    /* \"#utility.yul\":6642:6644   */\n  0x20\n    /* \"#utility.yul\":6630:6639   */\n  dup3\n    /* \"#utility.yul\":6621:6628   */\n  dup5\n    /* \"#utility.yul\":6617:6640   */\n  sub\n    /* \"#utility.yul\":6613:6645   */\n  slt\n    /* \"#utility.yul\":6610:6729   */\n  iszero\n  tag_148\n  jumpi\n    /* \"#utility.yul\":6648:6727   */\n  tag_149\n  tag_47\n  jump\t// in\ntag_149:\n    /* \"#utility.yul\":6610:6729   */\ntag_148:\n    /* \"#utility.yul\":6768:6769   */\n  0x00\n    /* \"#utility.yul\":6793:6855   */\n  tag_150\n    /* \"#utility.yul\":6847:6854   */\n  dup5\n    /* \"#utility.yul\":6838:6844   */\n  dup3\n    /* \"#utility.yul\":6827:6836   */\n  dup6\n    /* \"#utility.yul\":6823:6845   */\n  add\n    /* \"#utility.yul\":6793:6855   */\n  tag_68\n  jump\t// in\ntag_150:\n    /* \"#utility.yul\":6783:6855   */\n  swap2\n  pop\n    /* \"#utility.yul\":6739:6865   */\n  pop\n    /* \"#utility.yul\":6525:6872   */\n  swap3\n  swap2\n  pop\n  pop\n  jump\t// out\n    /* \"#utility.yul\":6878:6955   */\ntag_69:\n    /* \"#utility.yul\":6915:6922   */\n  0x00\n    /* \"#utility.yul\":6944:6949   */\n  dup2\n    /* \"#utility.yul\":6933:6949   */\n  swap1\n  pop\n    /* \"#utility.yul\":6878:6955   */\n  swap2\n  swap1\n  pop\n  jump\t// out\n    /* \"#utility.yul\":6961:7141   */\ntag_70:\n    /* \"#utility.yul\":7009:7086   */\n  0x4e487b7100000000000000000000000000000000000000000000000000000000\n    /* \"#utility.yul\":7006:7007   */\n  0x00\n    /* \"#utility.yul\":6999:7087   */\n  mstore\n    /* \"#utility.yul\":7106:7110   */\n  0x11\n    /* \"#utility.yul\":7103:7104   */\n  0x04\n    /* \"#utility.yul\":7096:7111   */\n  mstore\n    /* \"#utility.yul\":7130:7134   */\n  0x24\n    /* \"#utility.yul\":7127:7128   */\n  0x00\n    /* \"#utility.yul\":7120:7135   */\n  revert\n    /* \"#utility.yul\":7147:7452   */\ntag_25:\n    /* \"#utility.yul\":7187:7190   */\n  0x00\n    /* \"#utility.yul\":7206:7226   */\n  tag_154\n    /* \"#utility.yul\":7224:7225   */\n  dup3\n    /* \"#utility.yul\":7206:7226   */\n  tag_69\n  jump\t// in\ntag_154:\n    /* \"#utility.yul\":7201:7226   */\n  swap2\n  pop\n    /* \"#utility.yul\":7240:7260   */\n  tag_155\n    /* \"#utility.yul\":7258:7259   */\n  dup4\n    /* \"#utility.yul\":7240:7260   */\n  tag_69\n  jump\t// in\ntag_155:\n    /* \"#utility.yul\":7235:7260   */\n  swap3\n  pop\n    /* \"#utility.yul\":7394:7395   */\n  dup3\n    /* \"#utility.yul\":7326:7392   */\n  0xffffffffffffffffffffffffffffffffffffffffffffffffffffffffffffffff\n    /* \"#utility.yul\":7322:7396   */\n  sub\n    /* \"#utility.yul\":7319:7320   */\n  dup3\n    /* \"#utility.yul\":7316:7397   */\n  gt\n    /* \"#utility.yul\":7313:7420   */\n  iszero\n  tag_156\n  jumpi\n    /* \"#utility.yul\":7400:7418   */\n  tag_157\n  tag_70\n  jump\t// in\ntag_157:\n    /* \"#utility.yul\":7313:7420   */\ntag_156:\n    /* \"#utility.yul\":7444:7445   */\n  dup3\n    /* \"#utility.yul\":7441:7442   */\n  dup3\n    /* \"#utility.yul\":7437:7446   */\n  add\n    /* \"#utility.yul\":7430:7446   */\n  swap1\n  pop\n    /* \"#utility.yul\":7147:7452   */\n  swap3\n  swap2\n  pop\n  pop\n  jump\t// out\n    /* \"#utility.yul\":7458:7649   */\ntag_27:\n    /* \"#utility.yul\":7498:7502   */\n  0x00\n    /* \"#utility.yul\":7518:7538   */\n  tag_159\n    /* \"#utility.yul\":7536:7537   */\n  dup3\n    /* \"#utility.yul\":7518:7538   */\n  tag_69\n  jump\t// in\ntag_159:\n    /* \"#utility.yul\":7513:7538   */\n  swap2\n  pop\n    /* \"#utility.yul\":7552:7572   */\n  tag_160\n    /* \"#utility.yul\":7570:7571   */\n  dup4\n    /* \"#utility.yul\":7552:7572   */\n  tag_69\n  jump\t// in\ntag_160:\n    /* \"#utility.yul\":7547:7572   */\n  swap3\n  pop\n    /* \"#utility.yul\":7591:7592   */\n  dup3\n    /* \"#utility.yul\":7588:7589   */\n  dup3\n    /* \"#utility.yul\":7585:7593   */\n  lt\n    /* \"#utility.yul\":7582:7616   */\n  iszero\n  tag_161\n  jumpi\n    /* \"#utility.yul\":7596:7614   */\n  tag_162\n  tag_70\n  jump\t// in\ntag_162:\n    /* \"#utility.yul\":7582:7616   */\ntag_161:\n    /* \"#utility.yul\":7641:7642   */\n  dup3\n    /* \"#utility.yul\":7638:7639   */\n  dup3\n    /* \"#utility.yul\":7634:7643   */\n  sub\n    /* \"#utility.yul\":7626:7643   */\n  swap1\n  pop\n    /* \"#utility.yul\":7458:7649   */\n  swap3\n  swap2\n  pop\n  pop\n  jump\t// out\n    /* \"#utility.yul\":7655:7888   */\ntag_33:\n    /* \"#utility.yul\":7694:7697   */\n  0x00\n    /* \"#utility.yul\":7717:7741   */\n  tag_164\n    /* \"#utility.yul\":7735:7740   */\n  dup3\n    /* \"#utility.yul\":7717:7741   */\n  tag_69\n  jump\t// in\ntag_164:\n    /* \"#utility.yul\":7708:7741   */\n  swap2\n  pop\n    /* \"#utility.yul\":7763:7829   */\n  0xffffffffffffffffffffffffffffffffffffffffffffffffffffffffffffffff\n    /* \"#utility.yul\":7756:7761   */\n  dup3\n    /* \"#utility.yul\":7753:7830   */\n  eq\n    /* \"#utility.yul\":7750:7853   */\n  iszero\n  tag_165\n  jumpi\n    /* \"#utility.yul\":7833:7851   */\n  tag_166\n  tag_70\n  jump\t// in\ntag_166:\n    /* \"#utility.yul\":7750:7853   */\ntag_165:\n    /* \"#utility.yul\":7880:7881   */\n  0x01\n    /* \"#utility.yul\":7873:7878   */\n  dup3\n    /* \"#utility.yul\":7869:7882   */\n  add\n    /* \"#utility.yul\":7862:7882   */\n  swap1\n  pop\n    /* \"#utility.yul\":7655:7888   */\n  swap2\n  swap1\n  pop\n  jump\t// out\n    /* \"#utility.yul\":7894:8074   */\ntag_71:\n    /* \"#utility.yul\":7942:8019   */\n  0x4e487b7100000000000000000000000000000000000000000000000000000000\n    /* \"#utility.yul\":7939:7940   */\n  0x00\n    /* \"#utility.yul\":7932:8020   */\n  mstore\n    /* \"#utility.yul\":8039:8043   */\n  0x22\n    /* \"#utility.yul\":8036:8037   */\n  0x04\n    /* \"#utility.yul\":8029:8044   */\n  mstore\n    /* \"#utility.yul\":8063:8067   */\n  0x24\n    /* \"#utility.yul\":8060:8061   */\n  0x00\n    /* \"#utility.yul\":8053:8068   */\n  revert\n    /* \"#utility.yul\":8080:8400   */\ntag_36:\n    /* \"#utility.yul\":8124:8130   */\n  0x00\n    /* \"#utility.yul\":8161:8162   */\n  0x02\n    /* \"#utility.yul\":8155:8159   */\n  dup3\n    /* \"#utility.yul\":8151:8163   */\n  div\n    /* \"#utility.yul\":8141:8163   */\n  swap1\n  pop\n    /* \"#utility.yul\":8208:8209   */\n  0x01\n    /* \"#utility.yul\":8202:8206   */\n  dup3\n    /* \"#utility.yul\":8198:8210   */\n  and\n    /* \"#utility.yul\":8229:8247   */\n  dup1\n    /* \"#utility.yul\":8219:8300   */\n  tag_169\n  jumpi\n    /* \"#utility.yul\":8285:8289   */\n  0x7f\n    /* \"#utility.yul\":8277:8283   */\n  dup3\n    /* \"#utility.yul\":8273:8290   */\n  and\n    /* \"#utility.yul\":8263:8290   */\n  swap2\n  pop\n    /* \"#utility.yul\":8219:8300   */\ntag_169:\n    /* \"#utility.yul\":8347:8349   */\n  0x20\n    /* \"#utility.yul\":8339:8345   */\n  dup3\n    /* \"#utility.yul\":8336:8350   */\n  lt\n    /* \"#utility.yul\":8316:8334   */\n  dup2\n    /* \"#utility.yul\":8313:8351   */\n  eq\n    /* \"#utility.yul\":8310:8394   */\n  iszero\n  tag_170\n  jumpi\n    /* \"#utility.yul\":8366:8384   */\n  tag_171\n  tag_71\n  jump\t// in\ntag_171:\n    /* \"#utility.yul\":8310:8394   */\ntag_170:\n    /* \"#utility.yul\":8131:8400   */\n  pop\n    /* \"#utility.yul\":8080:8400   */\n  swap2\n  swap1\n  pop\n  jump\t// out\n    /* \"contracts/TestInterview.sol\":208:5855  contract TestInterview {... */\ntag_34:\n  dataSize(sub_0)\n  dup1\n  dataOffset(sub_0)\n  0x00\n  codecopy\n  0x00\n  return\nstop\n\nsub_0: assembly {\n        /* \"contracts/TestInterview.sol\":208:5855  contract TestInterview {... */\n      mstore(0x40, 0x80)\n      callvalue\n      dup1\n      iszero\n      tag_1\n      jumpi\n      0x00\n      dup1\n      revert\n    tag_1:\n      pop\n      jumpi(tag_2, lt(calldatasize, 0x04))\n      shr(0xe0, calldataload(0x00))\n      dup1\n      0xb9093138\n      gt\n      tag_13\n      jumpi\n      dup1\n      0xb9093138\n      eq\n      tag_8\n      jumpi\n      dup1\n      0xc15d3ead\n      eq\n      tag_9\n      jumpi\n      dup1\n      0xd1a35ef2\n      eq\n      tag_10\n      jumpi\n      dup1\n      0xe917ec96\n      eq\n      tag_11\n      jumpi\n      dup1\n      0xfc6f9468\n      eq\n      tag_12\n      jumpi\n      jump(tag_2)\n    tag_13:\n      dup1\n      0x06cd309b\n      eq\n      tag_3\n      jumpi\n      dup1\n      0x6fd3d9e2\n      eq\n      tag_4\n      jumpi\n      dup1\n      0x7259e0f8\n      eq\n      tag_5\n      jumpi\n      dup1\n      0x8f84aa09\n      eq\n      tag_6\n      jumpi\n      dup1\n      0xaddb2cc0\n      eq\n      tag_7\n      jumpi\n    tag_2:\n      0x00\n      dup1\n      revert\n        /* \"contracts/TestInterview.sol\":421:448  uint public limitGatcha = 2 */\n    tag_3:\n      tag_14\n      tag_15\n      jump\t// in\n    tag_14:\n      mload(0x40)\n      tag_16\n      swap2\n      swap1\n      tag_17\n      jump\t// in\n    tag_16:\n      mload(0x40)\n      dup1\n      swap2\n      sub\n      swap1\n      return\n        /* \"contracts/TestInterview.sol\":553:579  Rarity[] public rarityList */\n    tag_4:\n      tag_18\n      0x04\n      dup1\n      calldatasize\n      sub\n      dup2\n      add\n      swap1\n      tag_19\n      swap2\n      swap1\n      tag_20\n      jump\t// in\n    tag_19:\n      tag_21\n      jump\t// in\n    tag_18:\n      mload(0x40)\n      tag_22\n      swap4\n      swap3\n      swap2\n      swap1\n      tag_23\n      jump\t// in\n    tag_22:\n      mload(0x40)\n      dup1\n      swap2\n      sub\n      swap1\n      return\n        /* \"contracts/TestInterview.sol\":810:849  RegisteredUser[] public registeredUsers */\n    tag_5:\n      tag_24\n      0x04\n      dup1\n      calldatasize\n      sub\n      dup2\n      add\n      swap1\n      tag_25\n      swap2\n      swap1\n      tag_20\n      jump\t// in\n    tag_25:\n      tag_26\n      jump\t// in\n    tag_24:\n      mload(0x40)\n      tag_27\n      swap3\n      swap2\n      swap1\n      tag_28\n      jump\t// in\n    tag_27:\n      mload(0x40)\n      dup1\n      swap2\n      sub\n      swap1\n      return\n        /* \"contracts/TestInterview.sol\":308:380  address public ownerAddress = 0xdBDdb8575F6bda11F1DC548A1B546463CC567C3d */\n    tag_6:\n      tag_29\n      tag_30\n      jump\t// in\n    tag_29:\n      mload(0x40)\n      tag_31\n      swap2\n      swap1\n      tag_32\n      jump\t// in\n    tag_31:\n      mload(0x40)\n      dup1\n      swap2\n      sub\n      swap1\n      return\n        /* \"contracts/TestInterview.sol\":4340:5087  function searchGatchaByAddress(address _selectedAddress) public view returns(string[] memory){... */\n    tag_7:\n      tag_33\n      0x04\n      dup1\n      calldatasize\n      sub\n      dup2\n      add\n      swap1\n      tag_34\n      swap2\n      swap1\n      tag_35\n      jump\t// in\n    tag_34:\n      tag_36\n      jump\t// in\n    tag_33:\n      mload(0x40)\n      tag_37\n      swap2\n      swap1\n      tag_38\n      jump\t// in\n    tag_37:\n      mload(0x40)\n      dup1\n      swap2\n      sub\n      swap1\n      return\n        /* \"contracts/TestInterview.sol\":5140:5852  function searchGatchaOwnAddress() public view returns(string[] memory){... */\n    tag_8:\n      tag_39\n      tag_40\n      jump\t// in\n    tag_39:\n      mload(0x40)\n      tag_41\n      swap2\n      swap1\n      tag_38\n      jump\t// in\n    tag_41:\n      mload(0x40)\n      dup1\n      swap2\n      sub\n      swap1\n      return\n        /* \"contracts/TestInterview.sol\":4098:4299  function changeGatchaLimit(uint256 _newLimit) public {... */\n    tag_9:\n      tag_42\n      0x04\n      dup1\n      calldatasize\n      sub\n      dup2\n      add\n      swap1\n      tag_43\n      swap2\n      swap1\n      tag_20\n      jump\t// in\n    tag_43:\n      tag_44\n      jump\t// in\n    tag_42:\n      stop\n        /* \"contracts/TestInterview.sol\":856:887  RarityUser[] public rarityUsers */\n    tag_10:\n      tag_45\n      0x04\n      dup1\n      calldatasize\n      sub\n      dup2\n      add\n      swap1\n      tag_46\n      swap2\n      swap1\n      tag_20\n      jump\t// in\n    tag_46:\n      tag_47\n      jump\t// in\n    tag_45:\n      mload(0x40)\n      tag_48\n      swap4\n      swap3\n      swap2\n      swap1\n      tag_49\n      jump\t// in\n    tag_48:\n      mload(0x40)\n      dup1\n      swap2\n      sub\n      swap1\n      return\n        /* \"contracts/TestInterview.sol\":2337:2923  function createGatcha () public checkUserLimit{... */\n    tag_11:\n      tag_50\n      tag_51\n      jump\t// in\n    tag_50:\n      stop\n        /* \"contracts/TestInterview.sol\":387:414  address public adminAddress */\n    tag_12:\n      tag_52\n      tag_53\n      jump\t// in\n    tag_52:\n      mload(0x40)\n      tag_54\n      swap2\n      swap1\n      tag_32\n      jump\t// in\n    tag_54:\n      mload(0x40)\n      dup1\n      swap2\n      sub\n      swap1\n      return\n        /* \"contracts/TestInterview.sol\":421:448  uint public limitGatcha = 2 */\n    tag_15:\n      sload(0x03)\n      dup2\n      jump\t// out\n        /* \"contracts/TestInterview.sol\":553:579  Rarity[] public rarityList */\n    tag_21:\n      0x04\n      dup2\n      dup2\n      sload\n      dup2\n      lt\n      tag_55\n      jumpi\n      0x00\n      dup1\n      revert\n    tag_55:\n      swap1\n      0x00\n      mstore\n      keccak256(0x00, 0x20)\n      swap1\n      0x03\n      mul\n      add\n      0x00\n      swap2\n      pop\n      swap1\n      pop\n      dup1\n      0x00\n      add\n      dup1\n      sload\n      tag_57\n      swap1\n      tag_58\n      jump\t// in\n    tag_57:\n      dup1\n      0x1f\n      add\n      0x20\n      dup1\n      swap2\n      div\n      mul\n      0x20\n      add\n      mload(0x40)\n      swap1\n      dup2\n      add\n      0x40\n      mstore\n      dup1\n      swap3\n      swap2\n      swap1\n      dup2\n      dup2\n      mstore\n      0x20\n      add\n      dup3\n      dup1\n      sload\n      tag_59\n      swap1\n      tag_58\n      jump\t// in\n    tag_59:\n      dup1\n      iszero\n      tag_60\n      jumpi\n      dup1\n      0x1f\n      lt\n      tag_61\n      jumpi\n      0x0100\n      dup1\n      dup4\n      sload\n      div\n      mul\n      dup4\n      mstore\n      swap2\n      0x20\n      add\n      swap2\n      jump(tag_60)\n    tag_61:\n      dup3\n      add\n      swap2\n      swap1\n      0x00\n      mstore\n      keccak256(0x00, 0x20)\n      swap1\n    tag_62:\n      dup2\n      sload\n      dup2\n      mstore\n      swap1\n      0x01\n      add\n      swap1\n      0x20\n      add\n      dup1\n      dup4\n      gt\n      tag_62\n      jumpi\n      dup3\n      swap1\n      sub\n      0x1f\n      and\n      dup3\n      add\n      swap2\n    tag_60:\n      pop\n      pop\n      pop\n      pop\n      pop\n      swap1\n      dup1\n      0x01\n      add\n      sload\n      swap1\n      dup1\n      0x02\n      add\n      sload\n      swap1\n      pop\n      dup4\n      jump\t// out\n        /* \"contracts/TestInterview.sol\":810:849  RegisteredUser[] public registeredUsers */\n    tag_26:\n      0x05\n      dup2\n      dup2\n      sload\n      dup2\n      lt\n      tag_63\n      jumpi\n      0x00\n      dup1\n      revert\n    tag_63:\n      swap1\n      0x00\n      mstore\n      keccak256(0x00, 0x20)\n      swap1\n      0x02\n      mul\n      add\n      0x00\n      swap2\n      pop\n      swap1\n      pop\n      dup1\n      0x00\n      add\n      0x00\n      swap1\n      sload\n      swap1\n      0x0100\n      exp\n      swap1\n      div\n      0xffffffffffffffffffffffffffffffffffffffff\n      and\n      swap1\n      dup1\n      0x01\n      add\n      sload\n      swap1\n      pop\n      dup3\n      jump\t// out\n        /* \"contracts/TestInterview.sol\":308:380  address public ownerAddress = 0xdBDdb8575F6bda11F1DC548A1B546463CC567C3d */\n    tag_30:\n      0x01\n      0x00\n      swap1\n      sload\n      swap1\n      0x0100\n      exp\n      swap1\n      div\n      0xffffffffffffffffffffffffffffffffffffffff\n      and\n      dup2\n      jump\t// out\n        /* \"contracts/TestInterview.sol\":4340:5087  function searchGatchaByAddress(address _selectedAddress) public view returns(string[] memory){... */\n    tag_36:\n        /* \"contracts/TestInterview.sol\":4417:4432  string[] memory */\n      0x60\n        /* \"contracts/TestInterview.sol\":4444:4463  uint256 countRarity */\n      0x00\n        /* \"contracts/TestInterview.sol\":4504:4517  uint256 index */\n      dup1\n        /* \"contracts/TestInterview.sol\":4500:4673  for(uint256 index = 0; index < rarityUsers.length; index++) {... */\n    tag_66:\n        /* \"contracts/TestInterview.sol\":4531:4542  rarityUsers */\n      0x06\n        /* \"contracts/TestInterview.sol\":4531:4549  rarityUsers.length */\n      dup1\n      sload\n      swap1\n      pop\n        /* \"contracts/TestInterview.sol\":4523:4528  index */\n      dup2\n        /* \"contracts/TestInterview.sol\":4523:4549  index < rarityUsers.length */\n      lt\n        /* \"contracts/TestInterview.sol\":4500:4673  for(uint256 index = 0; index < rarityUsers.length; index++) {... */\n      iszero\n      tag_67\n      jumpi\n        /* \"contracts/TestInterview.sol\":4612:4628  _selectedAddress */\n      dup4\n        /* \"contracts/TestInterview.sol\":4578:4628  rarityUsers[index].userAddress == _selectedAddress */\n      0xffffffffffffffffffffffffffffffffffffffff\n      and\n        /* \"contracts/TestInterview.sol\":4578:4589  rarityUsers */\n      0x06\n        /* \"contracts/TestInterview.sol\":4590:4595  index */\n      dup3\n        /* \"contracts/TestInterview.sol\":4578:4596  rarityUsers[index] */\n      dup2\n      sload\n      dup2\n      lt\n      tag_69\n      jumpi\n      tag_70\n      tag_71\n      jump\t// in\n    tag_70:\n    tag_69:\n      swap1\n      0x00\n      mstore\n      keccak256(0x00, 0x20)\n      swap1\n      0x03\n      mul\n      add\n        /* \"contracts/TestInterview.sol\":4578:4608  rarityUsers[index].userAddress */\n      0x00\n      add\n      0x00\n      swap1\n      sload\n      swap1\n      0x0100\n      exp\n      swap1\n      div\n      0xffffffffffffffffffffffffffffffffffffffff\n      and\n        /* \"contracts/TestInterview.sol\":4578:4628  rarityUsers[index].userAddress == _selectedAddress */\n      0xffffffffffffffffffffffffffffffffffffffff\n      and\n      eq\n        /* \"contracts/TestInterview.sol\":4575:4661  if(rarityUsers[index].userAddress == _selectedAddress) ... */\n      iszero\n      tag_73\n      jumpi\n        /* \"contracts/TestInterview.sol\":4648:4661  countRarity++ */\n      dup2\n      dup1\n      tag_74\n      swap1\n      tag_75\n      jump\t// in\n    tag_74:\n      swap3\n      pop\n      pop\n        /* \"contracts/TestInterview.sol\":4575:4661  if(rarityUsers[index].userAddress == _selectedAddress) ... */\n    tag_73:\n        /* \"contracts/TestInterview.sol\":4551:4558  index++ */\n      dup1\n      dup1\n      tag_76\n      swap1\n      tag_75\n      jump\t// in\n    tag_76:\n      swap2\n      pop\n      pop\n        /* \"contracts/TestInterview.sol\":4500:4673  for(uint256 index = 0; index < rarityUsers.length; index++) {... */\n      jump(tag_66)\n    tag_67:\n      pop\n        /* \"contracts/TestInterview.sol\":4685:4711  string[] memory rarityName */\n      0x00\n        /* \"contracts/TestInterview.sol\":4727:4738  countRarity */\n      dup2\n        /* \"contracts/TestInterview.sol\":4714:4739  new string[](countRarity) */\n      0xffffffffffffffff\n      dup2\n      gt\n      iszero\n      tag_77\n      jumpi\n      tag_78\n      tag_79\n      jump\t// in\n    tag_78:\n    tag_77:\n      mload(0x40)\n      swap1\n      dup1\n      dup3\n      mstore\n      dup1\n      0x20\n      mul\n      0x20\n      add\n      dup3\n      add\n      0x40\n      mstore\n      dup1\n      iszero\n      tag_80\n      jumpi\n      dup2\n      0x20\n      add\n    tag_81:\n      0x60\n      dup2\n      mstore\n      0x20\n      add\n      swap1\n      0x01\n      swap1\n      sub\n      swap1\n      dup2\n      tag_81\n      jumpi\n      swap1\n      pop\n    tag_80:\n      pop\n        /* \"contracts/TestInterview.sol\":4685:4739  string[] memory rarityName = new string[](countRarity) */\n      swap1\n      pop\n        /* \"contracts/TestInterview.sol\":4750:4766  uint256 subIndex */\n      0x00\n        /* \"contracts/TestInterview.sol\":4785:4798  uint256 index */\n      dup1\n        /* \"contracts/TestInterview.sol\":4781:5052  for(uint256 index = 0; index < rarityUsers.length; index++) {... */\n    tag_82:\n        /* \"contracts/TestInterview.sol\":4812:4823  rarityUsers */\n      0x06\n        /* \"contracts/TestInterview.sol\":4812:4830  rarityUsers.length */\n      dup1\n      sload\n      swap1\n      pop\n        /* \"contracts/TestInterview.sol\":4804:4809  index */\n      dup2\n        /* \"contracts/TestInterview.sol\":4804:4830  index < rarityUsers.length */\n      lt\n        /* \"contracts/TestInterview.sol\":4781:5052  for(uint256 index = 0; index < rarityUsers.length; index++) {... */\n      iszero\n      tag_83\n      jumpi\n        /* \"contracts/TestInterview.sol\":4893:4909  _selectedAddress */\n      dup6\n        /* \"contracts/TestInterview.sol\":4859:4909  rarityUsers[index].userAddress == _selectedAddress */\n      0xffffffffffffffffffffffffffffffffffffffff\n      and\n        /* \"contracts/TestInterview.sol\":4859:4870  rarityUsers */\n      0x06\n        /* \"contracts/TestInterview.sol\":4871:4876  index */\n      dup3\n        /* \"contracts/TestInterview.sol\":4859:4877  rarityUsers[index] */\n      dup2\n      sload\n      dup2\n      lt\n      tag_85\n      jumpi\n      tag_86\n      tag_71\n      jump\t// in\n    tag_86:\n    tag_85:\n      swap1\n      0x00\n      mstore\n      keccak256(0x00, 0x20)\n      swap1\n      0x03\n      mul\n      add\n        /* \"contracts/TestInterview.sol\":4859:4889  rarityUsers[index].userAddress */\n      0x00\n      add\n      0x00\n      swap1\n      sload\n      swap1\n      0x0100\n      exp\n      swap1\n      div\n      0xffffffffffffffffffffffffffffffffffffffff\n      and\n        /* \"contracts/TestInterview.sol\":4859:4909  rarityUsers[index].userAddress == _selectedAddress */\n      0xffffffffffffffffffffffffffffffffffffffff\n      and\n      eq\n        /* \"contracts/TestInterview.sol\":4856:5041  if(rarityUsers[index].userAddress == _selectedAddress) ... */\n      iszero\n      tag_88\n      jumpi\n        /* \"contracts/TestInterview.sol\":4967:4978  rarityUsers */\n      0x06\n        /* \"contracts/TestInterview.sol\":4979:4984  index */\n      dup2\n        /* \"contracts/TestInterview.sol\":4967:4985  rarityUsers[index] */\n      dup2\n      sload\n      dup2\n      lt\n      tag_89\n      jumpi\n      tag_90\n      tag_71\n      jump\t// in\n    tag_90:\n    tag_89:\n      swap1\n      0x00\n      mstore\n      keccak256(0x00, 0x20)\n      swap1\n      0x03\n      mul\n      add\n        /* \"contracts/TestInterview.sol\":4967:4996  rarityUsers[index].rarityName */\n      0x02\n      add\n        /* \"contracts/TestInterview.sol\":4944:4996  rarityName[subIndex] = rarityUsers[index].rarityName */\n      dup1\n      sload\n      tag_92\n      swap1\n      tag_58\n      jump\t// in\n    tag_92:\n      dup1\n      0x1f\n      add\n      0x20\n      dup1\n      swap2\n      div\n      mul\n      0x20\n      add\n      mload(0x40)\n      swap1\n      dup2\n      add\n      0x40\n      mstore\n      dup1\n      swap3\n      swap2\n      swap1\n      dup2\n      dup2\n      mstore\n      0x20\n      add\n      dup3\n      dup1\n      sload\n      tag_93\n      swap1\n      tag_58\n      jump\t// in\n    tag_93:\n      dup1\n      iszero\n      tag_94\n      jumpi\n      dup1\n      0x1f\n      lt\n      tag_95\n      jumpi\n      0x0100\n      dup1\n      dup4\n      sload\n      div\n      mul\n      dup4\n      mstore\n      swap2\n      0x20\n      add\n      swap2\n      jump(tag_94)\n    tag_95:\n      dup3\n      add\n      swap2\n      swap1\n      0x00\n      mstore\n      keccak256(0x00, 0x20)\n      swap1\n    tag_96:\n      dup2\n      sload\n      dup2\n      mstore\n      swap1\n      0x01\n      add\n      swap1\n      0x20\n      add\n      dup1\n      dup4\n      gt\n      tag_96\n      jumpi\n      dup3\n      swap1\n      sub\n      0x1f\n      and\n      dup3\n      add\n      swap2\n    tag_94:\n      pop\n      pop\n      pop\n      pop\n      pop\n        /* \"contracts/TestInterview.sol\":4944:4954  rarityName */\n      dup4\n        /* \"contracts/TestInterview.sol\":4955:4963  subIndex */\n      dup4\n        /* \"contracts/TestInterview.sol\":4944:4964  rarityName[subIndex] */\n      dup2\n      mload\n      dup2\n      lt\n      tag_97\n      jumpi\n      tag_98\n      tag_71\n      jump\t// in\n    tag_98:\n    tag_97:\n      0x20\n      mul\n      0x20\n      add\n      add\n        /* \"contracts/TestInterview.sol\":4944:4996  rarityName[subIndex] = rarityUsers[index].rarityName */\n      dup2\n      swap1\n      mstore\n      pop\n        /* \"contracts/TestInterview.sol\":5015:5025  subIndex++ */\n      dup2\n      dup1\n      tag_99\n      swap1\n      tag_75\n      jump\t// in\n    tag_99:\n      swap3\n      pop\n      pop\n        /* \"contracts/TestInterview.sol\":4856:5041  if(rarityUsers[index].userAddress == _selectedAddress) ... */\n    tag_88:\n        /* \"contracts/TestInterview.sol\":4832:4839  index++ */\n      dup1\n      dup1\n      tag_100\n      swap1\n      tag_75\n      jump\t// in\n    tag_100:\n      swap2\n      pop\n      pop\n        /* \"contracts/TestInterview.sol\":4781:5052  for(uint256 index = 0; index < rarityUsers.length; index++) {... */\n      jump(tag_82)\n    tag_83:\n      pop\n        /* \"contracts/TestInterview.sol\":5069:5079  rarityName */\n      dup2\n        /* \"contracts/TestInterview.sol\":5062:5079  return rarityName */\n      swap4\n      pop\n      pop\n      pop\n      pop\n        /* \"contracts/TestInterview.sol\":4340:5087  function searchGatchaByAddress(address _selectedAddress) public view returns(string[] memory){... */\n      swap2\n      swap1\n      pop\n      jump\t// out\n        /* \"contracts/TestInterview.sol\":5140:5852  function searchGatchaOwnAddress() public view returns(string[] memory){... */\n    tag_40:\n        /* \"contracts/TestInterview.sol\":5194:5209  string[] memory */\n      0x60\n        /* \"contracts/TestInterview.sol\":5221:5240  uint256 countRarity */\n      0x00\n        /* \"contracts/TestInterview.sol\":5281:5294  uint256 index */\n      dup1\n        /* \"contracts/TestInterview.sol\":5277:5444  for(uint256 index = 0; index < rarityUsers.length; index++) {... */\n    tag_102:\n        /* \"contracts/TestInterview.sol\":5308:5319  rarityUsers */\n      0x06\n        /* \"contracts/TestInterview.sol\":5308:5326  rarityUsers.length */\n      dup1\n      sload\n      swap1\n      pop\n        /* \"contracts/TestInterview.sol\":5300:5305  index */\n      dup2\n        /* \"contracts/TestInterview.sol\":5300:5326  index < rarityUsers.length */\n      lt\n        /* \"contracts/TestInterview.sol\":5277:5444  for(uint256 index = 0; index < rarityUsers.length; index++) {... */\n      iszero\n      tag_103\n      jumpi\n        /* \"contracts/TestInterview.sol\":5389:5399  msg.sender */\n      caller\n        /* \"contracts/TestInterview.sol\":5355:5399  rarityUsers[index].userAddress == msg.sender */\n      0xffffffffffffffffffffffffffffffffffffffff\n      and\n        /* \"contracts/TestInterview.sol\":5355:5366  rarityUsers */\n      0x06\n        /* \"contracts/TestInterview.sol\":5367:5372  index */\n      dup3\n        /* \"contracts/TestInterview.sol\":5355:5373  rarityUsers[index] */\n      dup2\n      sload\n      dup2\n      lt\n      tag_105\n      jumpi\n      tag_106\n      tag_71\n      jump\t// in\n    tag_106:\n    tag_105:\n      swap1\n      0x00\n      mstore\n      keccak256(0x00, 0x20)\n      swap1\n      0x03\n      mul\n      add\n        /* \"contracts/TestInterview.sol\":5355:5385  rarityUsers[index].userAddress */\n      0x00\n      add\n      0x00\n      swap1\n      sload\n      swap1\n      0x0100\n      exp\n      swap1\n      div\n      0xffffffffffffffffffffffffffffffffffffffff\n      and\n        /* \"contracts/TestInterview.sol\":5355:5399  rarityUsers[index].userAddress == msg.sender */\n      0xffffffffffffffffffffffffffffffffffffffff\n      and\n      eq\n        /* \"contracts/TestInterview.sol\":5352:5432  if(rarityUsers[index].userAddress == msg.sender) ... */\n      iszero\n      tag_108\n      jumpi\n        /* \"contracts/TestInterview.sol\":5419:5432  countRarity++ */\n      dup2\n      dup1\n      tag_109\n      swap1\n      tag_75\n      jump\t// in\n    tag_109:\n      swap3\n      pop\n      pop\n        /* \"contracts/TestInterview.sol\":5352:5432  if(rarityUsers[index].userAddress == msg.sender) ... */\n    tag_108:\n        /* \"contracts/TestInterview.sol\":5328:5335  index++ */\n      dup1\n      dup1\n      tag_110\n      swap1\n      tag_75\n      jump\t// in\n    tag_110:\n      swap2\n      pop\n      pop\n        /* \"contracts/TestInterview.sol\":5277:5444  for(uint256 index = 0; index < rarityUsers.length; index++) {... */\n      jump(tag_102)\n    tag_103:\n      pop\n        /* \"contracts/TestInterview.sol\":5456:5482  string[] memory rarityName */\n      0x00\n        /* \"contracts/TestInterview.sol\":5498:5509  countRarity */\n      dup2\n        /* \"contracts/TestInterview.sol\":5485:5510  new string[](countRarity) */\n      0xffffffffffffffff\n      dup2\n      gt\n      iszero\n      tag_111\n      jumpi\n      tag_112\n      tag_79\n      jump\t// in\n    tag_112:\n    tag_111:\n      mload(0x40)\n      swap1\n      dup1\n      dup3\n      mstore\n      dup1\n      0x20\n      mul\n      0x20\n      add\n      dup3\n      add\n      0x40\n      mstore\n      dup1\n      iszero\n      tag_113\n      jumpi\n      dup2\n      0x20\n      add\n    tag_114:\n      0x60\n      dup2\n      mstore\n      0x20\n      add\n      swap1\n      0x01\n      swap1\n      sub\n      swap1\n      dup2\n      tag_114\n      jumpi\n      swap1\n      pop\n    tag_113:\n      pop\n        /* \"contracts/TestInterview.sol\":5456:5510  string[] memory rarityName = new string[](countRarity) */\n      swap1\n      pop\n        /* \"contracts/TestInterview.sol\":5521:5537  uint256 subIndex */\n      0x00\n        /* \"contracts/TestInterview.sol\":5556:5569  uint256 index */\n      dup1\n        /* \"contracts/TestInterview.sol\":5552:5817  for(uint256 index = 0; index < rarityUsers.length; index++) {... */\n    tag_115:\n        /* \"contracts/TestInterview.sol\":5583:5594  rarityUsers */\n      0x06\n        /* \"contracts/TestInterview.sol\":5583:5601  rarityUsers.length */\n      dup1\n      sload\n      swap1\n      pop\n        /* \"contracts/TestInterview.sol\":5575:5580  index */\n      dup2\n        /* \"contracts/TestInterview.sol\":5575:5601  index < rarityUsers.length */\n      lt\n        /* \"contracts/TestInterview.sol\":5552:5817  for(uint256 index = 0; index < rarityUsers.length; index++) {... */\n      iszero\n      tag_116\n      jumpi\n        /* \"contracts/TestInterview.sol\":5664:5674  msg.sender */\n      caller\n        /* \"contracts/TestInterview.sol\":5630:5674  rarityUsers[index].userAddress == msg.sender */\n      0xffffffffffffffffffffffffffffffffffffffff\n      and\n        /* \"contracts/TestInterview.sol\":5630:5641  rarityUsers */\n      0x06\n        /* \"contracts/TestInterview.sol\":5642:5647  index */\n      dup3\n        /* \"contracts/TestInterview.sol\":5630:5648  rarityUsers[index] */\n      dup2\n      sload\n      dup2\n      lt\n      tag_118\n      jumpi\n      tag_119\n      tag_71\n      jump\t// in\n    tag_119:\n    tag_118:\n      swap1\n      0x00\n      mstore\n      keccak256(0x00, 0x20)\n      swap1\n      0x03\n      mul\n      add\n        /* \"contracts/TestInterview.sol\":5630:5660  rarityUsers[index].userAddress */\n      0x00\n      add\n      0x00\n      swap1\n      sload\n      swap1\n      0x0100\n      exp\n      swap1\n      div\n      0xffffffffffffffffffffffffffffffffffffffff\n      and\n        /* \"contracts/TestInterview.sol\":5630:5674  rarityUsers[index].userAddress == msg.sender */\n      0xffffffffffffffffffffffffffffffffffffffff\n      and\n      eq\n        /* \"contracts/TestInterview.sol\":5627:5806  if(rarityUsers[index].userAddress == msg.sender) ... */\n      iszero\n      tag_121\n      jumpi\n        /* \"contracts/TestInterview.sol\":5732:5743  rarityUsers */\n      0x06\n        /* \"contracts/TestInterview.sol\":5744:5749  index */\n      dup2\n        /* \"contracts/TestInterview.sol\":5732:5750  rarityUsers[index] */\n      dup2\n      sload\n      dup2\n      lt\n      tag_122\n      jumpi\n      tag_123\n      tag_71\n      jump\t// in\n    tag_123:\n    tag_122:\n      swap1\n      0x00\n      mstore\n      keccak256(0x00, 0x20)\n      swap1\n      0x03\n      mul\n      add\n        /* \"contracts/TestInterview.sol\":5732:5761  rarityUsers[index].rarityName */\n      0x02\n      add\n        /* \"contracts/TestInterview.sol\":5709:5761  rarityName[subIndex] = rarityUsers[index].rarityName */\n      dup1\n      sload\n      tag_125\n      swap1\n      tag_58\n      jump\t// in\n    tag_125:\n      dup1\n      0x1f\n      add\n      0x20\n      dup1\n      swap2\n      div\n      mul\n      0x20\n      add\n      mload(0x40)\n      swap1\n      dup2\n      add\n      0x40\n      mstore\n      dup1\n      swap3\n      swap2\n      swap1\n      dup2\n      dup2\n      mstore\n      0x20\n      add\n      dup3\n      dup1\n      sload\n      tag_126\n      swap1\n      tag_58\n      jump\t// in\n    tag_126:\n      dup1\n      iszero\n      tag_127\n      jumpi\n      dup1\n      0x1f\n      lt\n      tag_128\n      jumpi\n      0x0100\n      dup1\n      dup4\n      sload\n      div\n      mul\n      dup4\n      mstore\n      swap2\n      0x20\n      add\n      swap2\n      jump(tag_127)\n    tag_128:\n      dup3\n      add\n      swap2\n      swap1\n      0x00\n      mstore\n      keccak256(0x00, 0x20)\n      swap1\n    tag_129:\n      dup2\n      sload\n      dup2\n      mstore\n      swap1\n      0x01\n      add\n      swap1\n      0x20\n      add\n      dup1\n      dup4\n      gt\n      tag_129\n      jumpi\n      dup3\n      swap1\n      sub\n      0x1f\n      and\n      dup3\n      add\n      swap2\n    tag_127:\n      pop\n      pop\n      pop\n      pop\n      pop\n        /* \"contracts/TestInterview.sol\":5709:5719  rarityName */\n      dup4\n        /* \"contracts/TestInterview.sol\":5720:5728  subIndex */\n      dup4\n        /* \"contracts/TestInterview.sol\":5709:5729  rarityName[subIndex] */\n      dup2\n      mload\n      dup2\n      lt\n      tag_130\n      jumpi\n      tag_131\n      tag_71\n      jump\t// in\n    tag_131:\n    tag_130:\n      0x20\n      mul\n      0x20\n      add\n      add\n        /* \"contracts/TestInterview.sol\":5709:5761  rarityName[subIndex] = rarityUsers[index].rarityName */\n      dup2\n      swap1\n      mstore\n      pop\n        /* \"contracts/TestInterview.sol\":5780:5790  subIndex++ */\n      dup2\n      dup1\n      tag_132\n      swap1\n      tag_75\n      jump\t// in\n    tag_132:\n      swap3\n      pop\n      pop\n        /* \"contracts/TestInterview.sol\":5627:5806  if(rarityUsers[index].userAddress == msg.sender) ... */\n    tag_121:\n        /* \"contracts/TestInterview.sol\":5603:5610  index++ */\n      dup1\n      dup1\n      tag_133\n      swap1\n      tag_75\n      jump\t// in\n    tag_133:\n      swap2\n      pop\n      pop\n        /* \"contracts/TestInterview.sol\":5552:5817  for(uint256 index = 0; index < rarityUsers.length; index++) {... */\n      jump(tag_115)\n    tag_116:\n      pop\n        /* \"contracts/TestInterview.sol\":5834:5844  rarityName */\n      dup2\n        /* \"contracts/TestInterview.sol\":5827:5844  return rarityName */\n      swap4\n      pop\n      pop\n      pop\n      pop\n        /* \"contracts/TestInterview.sol\":5140:5852  function searchGatchaOwnAddress() public view returns(string[] memory){... */\n      swap1\n      jump\t// out\n        /* \"contracts/TestInterview.sol\":4098:4299  function changeGatchaLimit(uint256 _newLimit) public {... */\n    tag_44:\n        /* \"contracts/TestInterview.sol\":4184:4196  adminAddress */\n      0x02\n      0x00\n      swap1\n      sload\n      swap1\n      0x0100\n      exp\n      swap1\n      div\n      0xffffffffffffffffffffffffffffffffffffffff\n      and\n        /* \"contracts/TestInterview.sol\":4170:4196  msg.sender == adminAddress */\n      0xffffffffffffffffffffffffffffffffffffffff\n      and\n        /* \"contracts/TestInterview.sol\":4170:4180  msg.sender */\n      caller\n        /* \"contracts/TestInterview.sol\":4170:4196  msg.sender == adminAddress */\n      0xffffffffffffffffffffffffffffffffffffffff\n      and\n      eq\n        /* \"contracts/TestInterview.sol\":4170:4226  msg.sender == adminAddress || msg.sender == ownerAddress */\n      dup1\n      tag_135\n      jumpi\n      pop\n        /* \"contracts/TestInterview.sol\":4214:4226  ownerAddress */\n      0x01\n      0x00\n      swap1\n      sload\n      swap1\n      0x0100\n      exp\n      swap1\n      div\n      0xffffffffffffffffffffffffffffffffffffffff\n      and\n        /* \"contracts/TestInterview.sol\":4200:4226  msg.sender == ownerAddress */\n      0xffffffffffffffffffffffffffffffffffffffff\n      and\n        /* \"contracts/TestInterview.sol\":4200:4210  msg.sender */\n      caller\n        /* \"contracts/TestInterview.sol\":4200:4226  msg.sender == ownerAddress */\n      0xffffffffffffffffffffffffffffffffffffffff\n      and\n      eq\n        /* \"contracts/TestInterview.sol\":4170:4226  msg.sender == adminAddress || msg.sender == ownerAddress */\n    tag_135:\n        /* \"contracts/TestInterview.sol\":4162:4257  require(msg.sender == adminAddress || msg.sender == ownerAddress, \"Not Authorized, Admin Only\") */\n      tag_136\n      jumpi\n      mload(0x40)\n      0x08c379a000000000000000000000000000000000000000000000000000000000\n      dup2\n      mstore\n      0x04\n      add\n      tag_137\n      swap1\n      tag_138\n      jump\t// in\n    tag_137:\n      mload(0x40)\n      dup1\n      swap2\n      sub\n      swap1\n      revert\n    tag_136:\n        /* \"contracts/TestInterview.sol\":4282:4291  _newLimit */\n      dup1\n        /* \"contracts/TestInterview.sol\":4268:4279  limitGatcha */\n      0x03\n        /* \"contracts/TestInterview.sol\":4268:4291  limitGatcha = _newLimit */\n      dup2\n      swap1\n      sstore\n      pop\n        /* \"contracts/TestInterview.sol\":4098:4299  function changeGatchaLimit(uint256 _newLimit) public {... */\n      pop\n      jump\t// out\n        /* \"contracts/TestInterview.sol\":856:887  RarityUser[] public rarityUsers */\n    tag_47:\n      0x06\n      dup2\n      dup2\n      sload\n      dup2\n      lt\n      tag_139\n      jumpi\n      0x00\n      dup1\n      revert\n    tag_139:\n      swap1\n      0x00\n      mstore\n      keccak256(0x00, 0x20)\n      swap1\n      0x03\n      mul\n      add\n      0x00\n      swap2\n      pop\n      swap1\n      pop\n      dup1\n      0x00\n      add\n      0x00\n      swap1\n      sload\n      swap1\n      0x0100\n      exp\n      swap1\n      div\n      0xffffffffffffffffffffffffffffffffffffffff\n      and\n      swap1\n      dup1\n      0x01\n      add\n      sload\n      swap1\n      dup1\n      0x02\n      add\n      dup1\n      sload\n      tag_141\n      swap1\n      tag_58\n      jump\t// in\n    tag_141:\n      dup1\n      0x1f\n      add\n      0x20\n      dup1\n      swap2\n      div\n      mul\n      0x20\n      add\n      mload(0x40)\n      swap1\n      dup2\n      add\n      0x40\n      mstore\n      dup1\n      swap3\n      swap2\n      swap1\n      dup2\n      dup2\n      mstore\n      0x20\n      add\n      dup3\n      dup1\n      sload\n      tag_142\n      swap1\n      tag_58\n      jump\t// in\n    tag_142:\n      dup1\n      iszero\n      tag_143\n      jumpi\n      dup1\n      0x1f\n      lt\n      tag_144\n      jumpi\n      0x0100\n      dup1\n      dup4\n      sload\n      div\n      mul\n      dup4\n      mstore\n      swap2\n      0x20\n      add\n      swap2\n      jump(tag_143)\n    tag_144:\n      dup3\n      add\n      swap2\n      swap1\n      0x00\n      mstore\n      keccak256(0x00, 0x20)\n      swap1\n    tag_145:\n      dup2\n      sload\n      dup2\n      mstore\n      swap1\n      0x01\n      add\n      swap1\n      0x20\n      add\n      dup1\n      dup4\n      gt\n      tag_145\n      jumpi\n      dup3\n      swap1\n      sub\n      0x1f\n      and\n      dup3\n      add\n      swap2\n    tag_143:\n      pop\n      pop\n      pop\n      pop\n      pop\n      swap1\n      pop\n      dup4\n      jump\t// out\n        /* \"contracts/TestInterview.sol\":2337:2923  function createGatcha () public checkUserLimit{... */\n    tag_51:\n        /* \"contracts/TestInterview.sol\":3007:3019  bool isFound */\n      0x00\n        /* \"contracts/TestInterview.sol\":3038:3051  uint256 index */\n      dup1\n        /* \"contracts/TestInterview.sol\":3066:3884  while(isFound == false && registeredUsers.length > 0 && index <registeredUsers.length )... */\n    tag_147:\n        /* \"contracts/TestInterview.sol\":3083:3088  false */\n      0x00\n        /* \"contracts/TestInterview.sol\":3072:3088  isFound == false */\n      iszero\n      iszero\n        /* \"contracts/TestInterview.sol\":3072:3079  isFound */\n      dup3\n        /* \"contracts/TestInterview.sol\":3072:3088  isFound == false */\n      iszero\n      iszero\n      eq\n        /* \"contracts/TestInterview.sol\":3072:3118  isFound == false && registeredUsers.length > 0 */\n      dup1\n      iszero\n      tag_149\n      jumpi\n      pop\n        /* \"contracts/TestInterview.sol\":3117:3118  0 */\n      0x00\n        /* \"contracts/TestInterview.sol\":3092:3107  registeredUsers */\n      0x05\n        /* \"contracts/TestInterview.sol\":3092:3114  registeredUsers.length */\n      dup1\n      sload\n      swap1\n      pop\n        /* \"contracts/TestInterview.sol\":3092:3118  registeredUsers.length > 0 */\n      gt\n        /* \"contracts/TestInterview.sol\":3072:3118  isFound == false && registeredUsers.length > 0 */\n    tag_149:\n        /* \"contracts/TestInterview.sol\":3072:3151  isFound == false && registeredUsers.length > 0 && index <registeredUsers.length */\n      dup1\n      iszero\n      tag_150\n      jumpi\n      pop\n        /* \"contracts/TestInterview.sol\":3129:3144  registeredUsers */\n      0x05\n        /* \"contracts/TestInterview.sol\":3129:3151  registeredUsers.length */\n      dup1\n      sload\n      swap1\n      pop\n        /* \"contracts/TestInterview.sol\":3122:3127  index */\n      dup2\n        /* \"contracts/TestInterview.sol\":3122:3151  index <registeredUsers.length */\n      lt\n        /* \"contracts/TestInterview.sol\":3072:3151  isFound == false && registeredUsers.length > 0 && index <registeredUsers.length */\n    tag_150:\n        /* \"contracts/TestInterview.sol\":3066:3884  while(isFound == false && registeredUsers.length > 0 && index <registeredUsers.length )... */\n      iszero\n      tag_148\n      jumpi\n        /* \"contracts/TestInterview.sol\":3219:3229  msg.sender */\n      caller\n        /* \"contracts/TestInterview.sol\":3181:3229  registeredUsers[index].userAddress == msg.sender */\n      0xffffffffffffffffffffffffffffffffffffffff\n      and\n        /* \"contracts/TestInterview.sol\":3181:3196  registeredUsers */\n      0x05\n        /* \"contracts/TestInterview.sol\":3197:3202  index */\n      dup3\n        /* \"contracts/TestInterview.sol\":3181:3203  registeredUsers[index] */\n      dup2\n      sload\n      dup2\n      lt\n      tag_151\n      jumpi\n      tag_152\n      tag_71\n      jump\t// in\n    tag_152:\n    tag_151:\n      swap1\n      0x00\n      mstore\n      keccak256(0x00, 0x20)\n      swap1\n      0x02\n      mul\n      add\n        /* \"contracts/TestInterview.sol\":3181:3215  registeredUsers[index].userAddress */\n      0x00\n      add\n      0x00\n      swap1\n      sload\n      swap1\n      0x0100\n      exp\n      swap1\n      div\n      0xffffffffffffffffffffffffffffffffffffffff\n      and\n        /* \"contracts/TestInterview.sol\":3181:3229  registeredUsers[index].userAddress == msg.sender */\n      0xffffffffffffffffffffffffffffffffffffffff\n      and\n      eq\n        /* \"contracts/TestInterview.sol\":3178:3850  if(registeredUsers[index].userAddress == msg.sender)... */\n      iszero\n      tag_154\n      jumpi\n        /* \"contracts/TestInterview.sol\":3273:3277  true */\n      0x01\n        /* \"contracts/TestInterview.sol\":3263:3277  isFound = true */\n      swap2\n      pop\n        /* \"contracts/TestInterview.sol\":3296:3311  registeredUsers */\n      0x05\n        /* \"contracts/TestInterview.sol\":3312:3317  index */\n      dup2\n        /* \"contracts/TestInterview.sol\":3296:3318  registeredUsers[index] */\n      dup2\n      sload\n      dup2\n      lt\n      tag_155\n      jumpi\n      tag_156\n      tag_71\n      jump\t// in\n    tag_156:\n    tag_155:\n      swap1\n      0x00\n      mstore\n      keccak256(0x00, 0x20)\n      swap1\n      0x02\n      mul\n      add\n        /* \"contracts/TestInterview.sol\":3296:3333  registeredUsers[index].counterVisited */\n      0x01\n      add\n      0x00\n        /* \"contracts/TestInterview.sol\":3296:3336  registeredUsers[index].counterVisited ++ */\n      dup2\n      sload\n      dup1\n      swap3\n      swap2\n      swap1\n      tag_158\n      swap1\n      tag_75\n      jump\t// in\n    tag_158:\n      swap2\n      swap1\n      pop\n      sstore\n      pop\n        /* \"contracts/TestInterview.sol\":3404:3415  limitGatcha */\n      sload(0x03)\n        /* \"contracts/TestInterview.sol\":3363:3378  registeredUsers */\n      0x05\n        /* \"contracts/TestInterview.sol\":3379:3384  index */\n      dup3\n        /* \"contracts/TestInterview.sol\":3363:3385  registeredUsers[index] */\n      dup2\n      sload\n      dup2\n      lt\n      tag_159\n      jumpi\n      tag_160\n      tag_71\n      jump\t// in\n    tag_160:\n    tag_159:\n      swap1\n      0x00\n      mstore\n      keccak256(0x00, 0x20)\n      swap1\n      0x02\n      mul\n      add\n        /* \"contracts/TestInterview.sol\":3363:3400  registeredUsers[index].counterVisited */\n      0x01\n      add\n      sload\n        /* \"contracts/TestInterview.sol\":3363:3415  registeredUsers[index].counterVisited <= limitGatcha */\n      gt\n      iszero\n        /* \"contracts/TestInterview.sol\":3355:3432  require(registeredUsers[index].counterVisited <= limitGatcha, \"Out of Limit\") */\n      tag_162\n      jumpi\n      mload(0x40)\n      0x08c379a000000000000000000000000000000000000000000000000000000000\n      dup2\n      mstore\n      0x04\n      add\n      tag_163\n      swap1\n      tag_164\n      jump\t// in\n    tag_163:\n      mload(0x40)\n      dup1\n      swap2\n      sub\n      swap1\n      revert\n    tag_162:\n        /* \"contracts/TestInterview.sol\":3451:3470  uint256 rarityScore */\n      0x00\n        /* \"contracts/TestInterview.sol\":3473:3494  generateRarityScore() */\n      tag_165\n        /* \"contracts/TestInterview.sol\":3473:3492  generateRarityScore */\n      tag_166\n        /* \"contracts/TestInterview.sol\":3473:3494  generateRarityScore() */\n      jump\t// in\n    tag_165:\n        /* \"contracts/TestInterview.sol\":3451:3494  uint256 rarityScore = generateRarityScore() */\n      swap1\n      pop\n        /* \"contracts/TestInterview.sol\":3513:3537  string memory rarityName */\n      0x00\n        /* \"contracts/TestInterview.sol\":3540:3566  getRarityName(rarityScore) */\n      tag_167\n        /* \"contracts/TestInterview.sol\":3554:3565  rarityScore */\n      dup3\n        /* \"contracts/TestInterview.sol\":3540:3553  getRarityName */\n      tag_168\n        /* \"contracts/TestInterview.sol\":3540:3566  getRarityName(rarityScore) */\n      jump\t// in\n    tag_167:\n        /* \"contracts/TestInterview.sol\":3513:3566  string memory rarityName = getRarityName(rarityScore) */\n      swap1\n      pop\n        /* \"contracts/TestInterview.sol\":3585:3612  RarityUser memory newRarity */\n      0x00\n        /* \"contracts/TestInterview.sol\":3615:3788  RarityUser({... */\n      mload(0x40)\n      dup1\n      0x60\n      add\n      0x40\n      mstore\n      dup1\n        /* \"contracts/TestInterview.sol\":3663:3673  msg.sender */\n      caller\n        /* \"contracts/TestInterview.sol\":3615:3788  RarityUser({... */\n      0xffffffffffffffffffffffffffffffffffffffff\n      and\n      dup2\n      mstore\n      0x20\n      add\n        /* \"contracts/TestInterview.sol\":3711:3722  rarityScore */\n      dup5\n        /* \"contracts/TestInterview.sol\":3615:3788  RarityUser({... */\n      dup2\n      mstore\n      0x20\n      add\n        /* \"contracts/TestInterview.sol\":3758:3768  rarityName */\n      dup4\n        /* \"contracts/TestInterview.sol\":3615:3788  RarityUser({... */\n      dup2\n      mstore\n      pop\n        /* \"contracts/TestInterview.sol\":3585:3788  RarityUser memory newRarity = RarityUser({... */\n      swap1\n      pop\n        /* \"contracts/TestInterview.sol\":3807:3818  rarityUsers */\n      0x06\n        /* \"contracts/TestInterview.sol\":3824:3833  newRarity */\n      dup2\n        /* \"contracts/TestInterview.sol\":3807:3834  rarityUsers.push(newRarity) */\n      swap1\n      dup1\n      0x01\n      dup2\n      sload\n      add\n      dup1\n      dup3\n      sstore\n      dup1\n      swap2\n      pop\n      pop\n      0x01\n      swap1\n      sub\n      swap1\n      0x00\n      mstore\n      keccak256(0x00, 0x20)\n      swap1\n      0x03\n      mul\n      add\n      0x00\n      swap1\n      swap2\n      swap1\n      swap2\n      swap1\n      swap2\n      pop\n      0x00\n      dup3\n      add\n      mload\n      dup2\n      0x00\n      add\n      exp(0x0100, 0x00)\n      dup2\n      sload\n      dup2\n      0xffffffffffffffffffffffffffffffffffffffff\n      mul\n      not\n      and\n      swap1\n      dup4\n      0xffffffffffffffffffffffffffffffffffffffff\n      and\n      mul\n      or\n      swap1\n      sstore\n      pop\n      0x20\n      dup3\n      add\n      mload\n      dup2\n      0x01\n      add\n      sstore\n      0x40\n      dup3\n      add\n      mload\n      dup2\n      0x02\n      add\n      swap1\n      dup1\n      mload\n      swap1\n      0x20\n      add\n      swap1\n      tag_170\n      swap3\n      swap2\n      swap1\n      tag_171\n      jump\t// in\n    tag_170:\n      pop\n      pop\n      pop\n        /* \"contracts/TestInterview.sol\":3244:3850  {... */\n      pop\n      pop\n      pop\n        /* \"contracts/TestInterview.sol\":3178:3850  if(registeredUsers[index].userAddress == msg.sender)... */\n    tag_154:\n        /* \"contracts/TestInterview.sol\":3864:3872  index ++ */\n      dup1\n      dup1\n      tag_172\n      swap1\n      tag_75\n      jump\t// in\n    tag_172:\n      swap2\n      pop\n      pop\n        /* \"contracts/TestInterview.sol\":3066:3884  while(isFound == false && registeredUsers.length > 0 && index <registeredUsers.length )... */\n      jump(tag_147)\n    tag_148:\n        /* \"contracts/TestInterview.sol\":3894:3901  objINFT */\n      0x00\n      dup1\n      sload\n      swap1\n      0x0100\n      exp\n      swap1\n      div\n      0xffffffffffffffffffffffffffffffffffffffff\n      and\n        /* \"contracts/TestInterview.sol\":3894:3910  objINFT.safeMint */\n      0xffffffffffffffffffffffffffffffffffffffff\n      and\n      0x40d097c3\n        /* \"contracts/TestInterview.sol\":3911:3923  ownerAddress */\n      0x01\n      0x00\n      swap1\n      sload\n      swap1\n      0x0100\n      exp\n      swap1\n      div\n      0xffffffffffffffffffffffffffffffffffffffff\n      and\n        /* \"contracts/TestInterview.sol\":3894:3924  objINFT.safeMint(ownerAddress) */\n      mload(0x40)\n      dup3\n      0xffffffff\n      and\n      0xe0\n      shl\n      dup2\n      mstore\n      0x04\n      add\n      tag_173\n      swap2\n      swap1\n      tag_32\n      jump\t// in\n    tag_173:\n      0x00\n      mload(0x40)\n      dup1\n      dup4\n      sub\n      dup2\n      0x00\n      dup8\n      dup1\n      extcodesize\n      iszero\n      dup1\n      iszero\n      tag_174\n      jumpi\n      0x00\n      dup1\n      revert\n    tag_174:\n      pop\n      gas\n      call\n      iszero\n      dup1\n      iszero\n      tag_176\n      jumpi\n      returndatasize\n      0x00\n      dup1\n      returndatacopy\n      revert(0x00, returndatasize)\n    tag_176:\n      pop\n      pop\n      pop\n      pop\n        /* \"contracts/TestInterview.sol\":3939:3946  isFound */\n      dup2\n        /* \"contracts/TestInterview.sol\":3935:3949  if(!isFound) _ */\n      tag_177\n      jumpi\n        /* \"contracts/TestInterview.sol\":2394:2413  uint256 rarityScore */\n      0x00\n        /* \"contracts/TestInterview.sol\":2416:2437  generateRarityScore() */\n      tag_179\n        /* \"contracts/TestInterview.sol\":2416:2435  generateRarityScore */\n      tag_166\n        /* \"contracts/TestInterview.sol\":2416:2437  generateRarityScore() */\n      jump\t// in\n    tag_179:\n        /* \"contracts/TestInterview.sol\":2394:2437  uint256 rarityScore = generateRarityScore() */\n      swap1\n      pop\n        /* \"contracts/TestInterview.sol\":2448:2472  string memory rarityName */\n      0x00\n        /* \"contracts/TestInterview.sol\":2475:2501  getRarityName(rarityScore) */\n      tag_180\n        /* \"contracts/TestInterview.sol\":2489:2500  rarityScore */\n      dup3\n        /* \"contracts/TestInterview.sol\":2475:2488  getRarityName */\n      tag_168\n        /* \"contracts/TestInterview.sol\":2475:2501  getRarityName(rarityScore) */\n      jump\t// in\n    tag_180:\n        /* \"contracts/TestInterview.sol\":2448:2501  string memory rarityName = getRarityName(rarityScore) */\n      swap1\n      pop\n        /* \"contracts/TestInterview.sol\":2514:2547  RegisteredUser memory newRegister */\n      0x00\n        /* \"contracts/TestInterview.sol\":2550:2649  RegisteredUser({... */\n      mload(0x40)\n      dup1\n      0x40\n      add\n      0x40\n      mstore\n      dup1\n        /* \"contracts/TestInterview.sol\":2594:2604  msg.sender */\n      caller\n        /* \"contracts/TestInterview.sol\":2550:2649  RegisteredUser({... */\n      0xffffffffffffffffffffffffffffffffffffffff\n      and\n      dup2\n      mstore\n      0x20\n      add\n        /* \"contracts/TestInterview.sol\":2636:2637  1 */\n      0x01\n        /* \"contracts/TestInterview.sol\":2550:2649  RegisteredUser({... */\n      dup2\n      mstore\n      pop\n        /* \"contracts/TestInterview.sol\":2514:2649  RegisteredUser memory newRegister = RegisteredUser({... */\n      swap1\n      pop\n        /* \"contracts/TestInterview.sol\":2660:2675  registeredUsers */\n      0x05\n        /* \"contracts/TestInterview.sol\":2681:2692  newRegister */\n      dup2\n        /* \"contracts/TestInterview.sol\":2660:2693  registeredUsers.push(newRegister) */\n      swap1\n      dup1\n      0x01\n      dup2\n      sload\n      add\n      dup1\n      dup3\n      sstore\n      dup1\n      swap2\n      pop\n      pop\n      0x01\n      swap1\n      sub\n      swap1\n      0x00\n      mstore\n      keccak256(0x00, 0x20)\n      swap1\n      0x02\n      mul\n      add\n      0x00\n      swap1\n      swap2\n      swap1\n      swap2\n      swap1\n      swap2\n      pop\n      0x00\n      dup3\n      add\n      mload\n      dup2\n      0x00\n      add\n      exp(0x0100, 0x00)\n      dup2\n      sload\n      dup2\n      0xffffffffffffffffffffffffffffffffffffffff\n      mul\n      not\n      and\n      swap1\n      dup4\n      0xffffffffffffffffffffffffffffffffffffffff\n      and\n      mul\n      or\n      swap1\n      sstore\n      pop\n      0x20\n      dup3\n      add\n      mload\n      dup2\n      0x01\n      add\n      sstore\n      pop\n      pop\n        /* \"contracts/TestInterview.sol\":2706:2733  RarityUser memory newRarity */\n      0x00\n        /* \"contracts/TestInterview.sol\":2736:2877  RarityUser({... */\n      mload(0x40)\n      dup1\n      0x60\n      add\n      0x40\n      mstore\n      dup1\n        /* \"contracts/TestInterview.sol\":2776:2786  msg.sender */\n      caller\n        /* \"contracts/TestInterview.sol\":2736:2877  RarityUser({... */\n      0xffffffffffffffffffffffffffffffffffffffff\n      and\n      dup2\n      mstore\n      0x20\n      add\n        /* \"contracts/TestInterview.sol\":2816:2827  rarityScore */\n      dup6\n        /* \"contracts/TestInterview.sol\":2736:2877  RarityUser({... */\n      dup2\n      mstore\n      0x20\n      add\n        /* \"contracts/TestInterview.sol\":2855:2865  rarityName */\n      dup5\n        /* \"contracts/TestInterview.sol\":2736:2877  RarityUser({... */\n      dup2\n      mstore\n      pop\n        /* \"contracts/TestInterview.sol\":2706:2877  RarityUser memory newRarity = RarityUser({... */\n      swap1\n      pop\n        /* \"contracts/TestInterview.sol\":2888:2899  rarityUsers */\n      0x06\n        /* \"contracts/TestInterview.sol\":2905:2914  newRarity */\n      dup2\n        /* \"contracts/TestInterview.sol\":2888:2915  rarityUsers.push(newRarity) */\n      swap1\n      dup1\n      0x01\n      dup2\n      sload\n      add\n      dup1\n      dup3\n      sstore\n      dup1\n      swap2\n      pop\n      pop\n      0x01\n      swap1\n      sub\n      swap1\n      0x00\n      mstore\n      keccak256(0x00, 0x20)\n      swap1\n      0x03\n      mul\n      add\n      0x00\n      swap1\n      swap2\n      swap1\n      swap2\n      swap1\n      swap2\n      pop\n      0x00\n      dup3\n      add\n      mload\n      dup2\n      0x00\n      add\n      exp(0x0100, 0x00)\n      dup2\n      sload\n      dup2\n      0xffffffffffffffffffffffffffffffffffffffff\n      mul\n      not\n      and\n      swap1\n      dup4\n      0xffffffffffffffffffffffffffffffffffffffff\n      and\n      mul\n      or\n      swap1\n      sstore\n      pop\n      0x20\n      dup3\n      add\n      mload\n      dup2\n      0x01\n      add\n      sstore\n      0x40\n      dup3\n      add\n      mload\n      dup2\n      0x02\n      add\n      swap1\n      dup1\n      mload\n      swap1\n      0x20\n      add\n      swap1\n      tag_183\n      swap3\n      swap2\n      swap1\n      tag_171\n      jump\t// in\n    tag_183:\n      pop\n      pop\n      pop\n        /* \"contracts/TestInterview.sol\":2383:2923  {... */\n      pop\n      pop\n      pop\n      pop\n        /* \"contracts/TestInterview.sol\":3935:3949  if(!isFound) _ */\n    tag_177:\n        /* \"contracts/TestInterview.sol\":2996:3957  {... */\n      pop\n      pop\n        /* \"contracts/TestInterview.sol\":2337:2923  function createGatcha () public checkUserLimit{... */\n      jump\t// out\n        /* \"contracts/TestInterview.sol\":387:414  address public adminAddress */\n    tag_53:\n      0x02\n      0x00\n      swap1\n      sload\n      swap1\n      0x0100\n      exp\n      swap1\n      div\n      0xffffffffffffffffffffffffffffffffffffffff\n      and\n      dup2\n      jump\t// out\n        /* \"contracts/TestInterview.sol\":1548:1770  function generateRarityScore() private view returns(uint256){... */\n    tag_166:\n        /* \"contracts/TestInterview.sol\":1600:1607  uint256 */\n      0x00\n        /* \"contracts/TestInterview.sol\":1619:1641  uint256 selectedNumber */\n      dup1\n        /* \"contracts/TestInterview.sol\":1727:1730  100 */\n      0x64\n        /* \"contracts/TestInterview.sol\":1676:1686  msg.sender */\n      caller\n        /* \"contracts/TestInterview.sol\":1688:1703  block.timestamp */\n      timestamp\n        /* \"contracts/TestInterview.sol\":1705:1721  block.difficulty */\n      difficulty\n        /* \"contracts/TestInterview.sol\":1659:1722  abi.encodePacked(msg.sender, block.timestamp, block.difficulty) */\n      add(0x20, mload(0x40))\n      tag_185\n      swap4\n      swap3\n      swap2\n      swap1\n      tag_186\n      jump\t// in\n    tag_185:\n      mload(0x40)\n      0x20\n      dup2\n      dup4\n      sub\n      sub\n      dup2\n      mstore\n      swap1\n      0x40\n      mstore\n        /* \"contracts/TestInterview.sol\":1649:1723  keccak256(abi.encodePacked(msg.sender, block.timestamp, block.difficulty)) */\n      dup1\n      mload\n      swap1\n      0x20\n      add\n      keccak256\n        /* \"contracts/TestInterview.sol\":1644:1724  uint(keccak256(abi.encodePacked(msg.sender, block.timestamp, block.difficulty))) */\n      0x00\n      shr\n        /* \"contracts/TestInterview.sol\":1644:1730  uint(keccak256(abi.encodePacked(msg.sender, block.timestamp, block.difficulty))) % 100 */\n      tag_187\n      swap2\n      swap1\n      tag_188\n      jump\t// in\n    tag_187:\n        /* \"contracts/TestInterview.sol\":1619:1730  uint256 selectedNumber = uint(keccak256(abi.encodePacked(msg.sender, block.timestamp, block.difficulty))) % 100 */\n      swap1\n      pop\n        /* \"contracts/TestInterview.sol\":1748:1762  selectedNumber */\n      dup1\n        /* \"contracts/TestInterview.sol\":1741:1762  return selectedNumber */\n      swap2\n      pop\n      pop\n        /* \"contracts/TestInterview.sol\":1548:1770  function generateRarityScore() private view returns(uint256){... */\n      swap1\n      jump\t// out\n        /* \"contracts/TestInterview.sol\":1815:2272  function getRarityName(uint256 _score) private view returns(string memory ) {... */\n    tag_168:\n        /* \"contracts/TestInterview.sol\":1875:1888  string memory */\n      0x60\n        /* \"contracts/TestInterview.sol\":1902:1914  bool isFound */\n      0x00\n        /* \"contracts/TestInterview.sol\":1933:1946  uint256 index */\n      dup1\n        /* \"contracts/TestInterview.sol\":1961:2236  while(!isFound && index < rarityList.length) {... */\n    tag_190:\n        /* \"contracts/TestInterview.sol\":1968:1975  isFound */\n      dup2\n        /* \"contracts/TestInterview.sol\":1967:1975  !isFound */\n      iszero\n        /* \"contracts/TestInterview.sol\":1967:2004  !isFound && index < rarityList.length */\n      dup1\n      iszero\n      tag_192\n      jumpi\n      pop\n        /* \"contracts/TestInterview.sol\":1987:1997  rarityList */\n      0x04\n        /* \"contracts/TestInterview.sol\":1987:2004  rarityList.length */\n      dup1\n      sload\n      swap1\n      pop\n        /* \"contracts/TestInterview.sol\":1979:1984  index */\n      dup2\n        /* \"contracts/TestInterview.sol\":1979:2004  index < rarityList.length */\n      lt\n        /* \"contracts/TestInterview.sol\":1967:2004  !isFound && index < rarityList.length */\n    tag_192:\n        /* \"contracts/TestInterview.sol\":1961:2236  while(!isFound && index < rarityList.length) {... */\n      iszero\n      tag_191\n      jumpi\n        /* \"contracts/TestInterview.sol\":2034:2044  rarityList */\n      0x04\n        /* \"contracts/TestInterview.sol\":2045:2050  index */\n      dup2\n        /* \"contracts/TestInterview.sol\":2034:2051  rarityList[index] */\n      dup2\n      sload\n      dup2\n      lt\n      tag_193\n      jumpi\n      tag_194\n      tag_71\n      jump\t// in\n    tag_194:\n    tag_193:\n      swap1\n      0x00\n      mstore\n      keccak256(0x00, 0x20)\n      swap1\n      0x03\n      mul\n      add\n        /* \"contracts/TestInterview.sol\":2034:2055  rarityList[index].min */\n      0x01\n      add\n      sload\n        /* \"contracts/TestInterview.sol\":2024:2030  _score */\n      dup5\n        /* \"contracts/TestInterview.sol\":2024:2055  _score >= rarityList[index].min */\n      lt\n      iszero\n        /* \"contracts/TestInterview.sol\":2024:2090  _score >= rarityList[index].min && _score <= rarityList[index].max */\n      dup1\n      iszero\n      tag_196\n      jumpi\n      pop\n        /* \"contracts/TestInterview.sol\":2069:2079  rarityList */\n      0x04\n        /* \"contracts/TestInterview.sol\":2080:2085  index */\n      dup2\n        /* \"contracts/TestInterview.sol\":2069:2086  rarityList[index] */\n      dup2\n      sload\n      dup2\n      lt\n      tag_197\n      jumpi\n      tag_198\n      tag_71\n      jump\t// in\n    tag_198:\n    tag_197:\n      swap1\n      0x00\n      mstore\n      keccak256(0x00, 0x20)\n      swap1\n      0x03\n      mul\n      add\n        /* \"contracts/TestInterview.sol\":2069:2090  rarityList[index].max */\n      0x02\n      add\n      sload\n        /* \"contracts/TestInterview.sol\":2059:2065  _score */\n      dup5\n        /* \"contracts/TestInterview.sol\":2059:2090  _score <= rarityList[index].max */\n      gt\n      iszero\n        /* \"contracts/TestInterview.sol\":2024:2090  _score >= rarityList[index].min && _score <= rarityList[index].max */\n    tag_196:\n        /* \"contracts/TestInterview.sol\":2021:2202  if(_score >= rarityList[index].min && _score <= rarityList[index].max)... */\n      iszero\n      tag_200\n      jumpi\n        /* \"contracts/TestInterview.sol\":2134:2138  true */\n      0x01\n        /* \"contracts/TestInterview.sol\":2124:2138  isFound = true */\n      swap2\n      pop\n        /* \"contracts/TestInterview.sol\":2164:2174  rarityList */\n      0x04\n        /* \"contracts/TestInterview.sol\":2175:2180  index */\n      dup2\n        /* \"contracts/TestInterview.sol\":2164:2181  rarityList[index] */\n      dup2\n      sload\n      dup2\n      lt\n      tag_201\n      jumpi\n      tag_202\n      tag_71\n      jump\t// in\n    tag_202:\n    tag_201:\n      swap1\n      0x00\n      mstore\n      keccak256(0x00, 0x20)\n      swap1\n      0x03\n      mul\n      add\n        /* \"contracts/TestInterview.sol\":2164:2186  rarityList[index].name */\n      0x00\n      add\n        /* \"contracts/TestInterview.sol\":2157:2186  return rarityList[index].name */\n      dup1\n      sload\n      tag_204\n      swap1\n      tag_58\n      jump\t// in\n    tag_204:\n      dup1\n      0x1f\n      add\n      0x20\n      dup1\n      swap2\n      div\n      mul\n      0x20\n      add\n      mload(0x40)\n      swap1\n      dup2\n      add\n      0x40\n      mstore\n      dup1\n      swap3\n      swap2\n      swap1\n      dup2\n      dup2\n      mstore\n      0x20\n      add\n      dup3\n      dup1\n      sload\n      tag_205\n      swap1\n      tag_58\n      jump\t// in\n    tag_205:\n      dup1\n      iszero\n      tag_206\n      jumpi\n      dup1\n      0x1f\n      lt\n      tag_207\n      jumpi\n      0x0100\n      dup1\n      dup4\n      sload\n      div\n      mul\n      dup4\n      mstore\n      swap2\n      0x20\n      add\n      swap2\n      jump(tag_206)\n    tag_207:\n      dup3\n      add\n      swap2\n      swap1\n      0x00\n      mstore\n      keccak256(0x00, 0x20)\n      swap1\n    tag_208:\n      dup2\n      sload\n      dup2\n      mstore\n      swap1\n      0x01\n      add\n      swap1\n      0x20\n      add\n      dup1\n      dup4\n      gt\n      tag_208\n      jumpi\n      dup3\n      swap1\n      sub\n      0x1f\n      and\n      dup3\n      add\n      swap2\n    tag_206:\n      pop\n      pop\n      pop\n      pop\n      pop\n      swap3\n      pop\n      pop\n      pop\n      jump(tag_189)\n        /* \"contracts/TestInterview.sol\":2021:2202  if(_score >= rarityList[index].min && _score <= rarityList[index].max)... */\n    tag_200:\n        /* \"contracts/TestInterview.sol\":2216:2224  index ++ */\n      dup1\n      dup1\n      tag_209\n      swap1\n      tag_75\n      jump\t// in\n    tag_209:\n      swap2\n      pop\n      pop\n        /* \"contracts/TestInterview.sol\":1961:2236  while(!isFound && index < rarityList.length) {... */\n      jump(tag_190)\n    tag_191:\n        /* \"contracts/TestInterview.sol\":2246:2264  return \"Not Found\" */\n      mload(0x40)\n      dup1\n      0x40\n      add\n      0x40\n      mstore\n      dup1\n      0x09\n      dup2\n      mstore\n      0x20\n      add\n      0x4e6f7420466f756e640000000000000000000000000000000000000000000000\n      dup2\n      mstore\n      pop\n      swap3\n      pop\n      pop\n      pop\n        /* \"contracts/TestInterview.sol\":1815:2272  function getRarityName(uint256 _score) private view returns(string memory ) {... */\n    tag_189:\n      swap2\n      swap1\n      pop\n      jump\t// out\n    tag_171:\n      dup3\n      dup1\n      sload\n      tag_210\n      swap1\n      tag_58\n      jump\t// in\n    tag_210:\n      swap1\n      0x00\n      mstore\n      keccak256(0x00, 0x20)\n      swap1\n      0x1f\n      add\n      0x20\n      swap1\n      div\n      dup2\n      add\n      swap3\n      dup3\n      tag_212\n      jumpi\n      0x00\n      dup6\n      sstore\n      jump(tag_211)\n    tag_212:\n      dup3\n      0x1f\n      lt\n      tag_213\n      jumpi\n      dup1\n      mload\n      not(0xff)\n      and\n      dup4\n      dup1\n      add\n      or\n      dup6\n      sstore\n      jump(tag_211)\n    tag_213:\n      dup3\n      dup1\n      add\n      0x01\n      add\n      dup6\n      sstore\n      dup3\n      iszero\n      tag_211\n      jumpi\n      swap2\n      dup3\n      add\n    tag_214:\n      dup3\n      dup2\n      gt\n      iszero\n      tag_215\n      jumpi\n      dup3\n      mload\n      dup3\n      sstore\n      swap2\n      0x20\n      add\n      swap2\n      swap1\n      0x01\n      add\n      swap1\n      jump(tag_214)\n    tag_215:\n    tag_211:\n      pop\n      swap1\n      pop\n      tag_216\n      swap2\n      swap1\n      tag_217\n      jump\t// in\n    tag_216:\n      pop\n      swap1\n      jump\t// out\n    tag_217:\n    tag_218:\n      dup1\n      dup3\n      gt\n      iszero\n      tag_219\n      jumpi\n      0x00\n      dup2\n      0x00\n      swap1\n      sstore\n      pop\n      0x01\n      add\n      jump(tag_218)\n    tag_219:\n      pop\n      swap1\n      jump\t// out\n        /* \"#utility.yul\":7:84   */\n    tag_220:\n        /* \"#utility.yul\":44:51   */\n      0x00\n        /* \"#utility.yul\":73:78   */\n      dup2\n        /* \"#utility.yul\":62:78   */\n      swap1\n      pop\n        /* \"#utility.yul\":7:84   */\n      swap2\n      swap1\n      pop\n      jump\t// out\n        /* \"#utility.yul\":90:208   */\n    tag_221:\n        /* \"#utility.yul\":177:201   */\n      tag_261\n        /* \"#utility.yul\":195:200   */\n      dup2\n        /* \"#utility.yul\":177:201   */\n      tag_220\n      jump\t// in\n    tag_261:\n        /* \"#utility.yul\":172:175   */\n      dup3\n        /* \"#utility.yul\":165:202   */\n      mstore\n        /* \"#utility.yul\":90:208   */\n      pop\n      pop\n      jump\t// out\n        /* \"#utility.yul\":214:436   */\n    tag_17:\n        /* \"#utility.yul\":307:311   */\n      0x00\n        /* \"#utility.yul\":345:347   */\n      0x20\n        /* \"#utility.yul\":334:343   */\n      dup3\n        /* \"#utility.yul\":330:348   */\n      add\n        /* \"#utility.yul\":322:348   */\n      swap1\n      pop\n        /* \"#utility.yul\":358:429   */\n      tag_263\n        /* \"#utility.yul\":426:427   */\n      0x00\n        /* \"#utility.yul\":415:424   */\n      dup4\n        /* \"#utility.yul\":411:428   */\n      add\n        /* \"#utility.yul\":402:408   */\n      dup5\n        /* \"#utility.yul\":358:429   */\n      tag_221\n      jump\t// in\n    tag_263:\n        /* \"#utility.yul\":214:436   */\n      swap3\n      swap2\n      pop\n      pop\n      jump\t// out\n        /* \"#utility.yul\":523:640   */\n    tag_223:\n        /* \"#utility.yul\":632:633   */\n      0x00\n        /* \"#utility.yul\":629:630   */\n      dup1\n        /* \"#utility.yul\":622:634   */\n      revert\n        /* \"#utility.yul\":769:891   */\n    tag_225:\n        /* \"#utility.yul\":842:866   */\n      tag_268\n        /* \"#utility.yul\":860:865   */\n      dup2\n        /* \"#utility.yul\":842:866   */\n      tag_220\n      jump\t// in\n    tag_268:\n        /* \"#utility.yul\":835:840   */\n      dup2\n        /* \"#utility.yul\":832:867   */\n      eq\n        /* \"#utility.yul\":822:885   */\n      tag_269\n      jumpi\n        /* \"#utility.yul\":881:882   */\n      0x00\n        /* \"#utility.yul\":878:879   */\n      dup1\n        /* \"#utility.yul\":871:883   */\n      revert\n        /* \"#utility.yul\":822:885   */\n    tag_269:\n        /* \"#utility.yul\":769:891   */\n      pop\n      jump\t// out\n        /* \"#utility.yul\":897:1036   */\n    tag_226:\n        /* \"#utility.yul\":943:948   */\n      0x00\n        /* \"#utility.yul\":981:987   */\n      dup2\n        /* \"#utility.yul\":968:988   */\n      calldataload\n        /* \"#utility.yul\":959:988   */\n      swap1\n      pop\n        /* \"#utility.yul\":997:1030   */\n      tag_271\n        /* \"#utility.yul\":1024:1029   */\n      dup2\n        /* \"#utility.yul\":997:1030   */\n      tag_225\n      jump\t// in\n    tag_271:\n        /* \"#utility.yul\":897:1036   */\n      swap3\n      swap2\n      pop\n      pop\n      jump\t// out\n        /* \"#utility.yul\":1042:1371   */\n    tag_20:\n        /* \"#utility.yul\":1101:1107   */\n      0x00\n        /* \"#utility.yul\":1150:1152   */\n      0x20\n        /* \"#utility.yul\":1138:1147   */\n      dup3\n        /* \"#utility.yul\":1129:1136   */\n      dup5\n        /* \"#utility.yul\":1125:1148   */\n      sub\n        /* \"#utility.yul\":1121:1153   */\n      slt\n        /* \"#utility.yul\":1118:1237   */\n      iszero\n      tag_273\n      jumpi\n        /* \"#utility.yul\":1156:1235   */\n      tag_274\n      tag_223\n      jump\t// in\n    tag_274:\n        /* \"#utility.yul\":1118:1237   */\n    tag_273:\n        /* \"#utility.yul\":1276:1277   */\n      0x00\n        /* \"#utility.yul\":1301:1354   */\n      tag_275\n        /* \"#utility.yul\":1346:1353   */\n      dup5\n        /* \"#utility.yul\":1337:1343   */\n      dup3\n        /* \"#utility.yul\":1326:1335   */\n      dup6\n        /* \"#utility.yul\":1322:1344   */\n      add\n        /* \"#utility.yul\":1301:1354   */\n      tag_226\n      jump\t// in\n    tag_275:\n        /* \"#utility.yul\":1291:1354   */\n      swap2\n      pop\n        /* \"#utility.yul\":1247:1364   */\n      pop\n        /* \"#utility.yul\":1042:1371   */\n      swap3\n      swap2\n      pop\n      pop\n      jump\t// out\n        /* \"#utility.yul\":1377:1476   */\n    tag_227:\n        /* \"#utility.yul\":1429:1435   */\n      0x00\n        /* \"#utility.yul\":1463:1468   */\n      dup2\n        /* \"#utility.yul\":1457:1469   */\n      mload\n        /* \"#utility.yul\":1447:1469   */\n      swap1\n      pop\n        /* \"#utility.yul\":1377:1476   */\n      swap2\n      swap1\n      pop\n      jump\t// out\n        /* \"#utility.yul\":1482:1651   */\n    tag_228:\n        /* \"#utility.yul\":1566:1577   */\n      0x00\n        /* \"#utility.yul\":1600:1606   */\n      dup3\n        /* \"#utility.yul\":1595:1598   */\n      dup3\n        /* \"#utility.yul\":1588:1607   */\n      mstore\n        /* \"#utility.yul\":1640:1644   */\n      0x20\n        /* \"#utility.yul\":1635:1638   */\n      dup3\n        /* \"#utility.yul\":1631:1645   */\n      add\n        /* \"#utility.yul\":1616:1645   */\n      swap1\n      pop\n        /* \"#utility.yul\":1482:1651   */\n      swap3\n      swap2\n      pop\n      pop\n      jump\t// out\n        /* \"#utility.yul\":1657:1964   */\n    tag_229:\n        /* \"#utility.yul\":1725:1726   */\n      0x00\n        /* \"#utility.yul\":1735:1848   */\n    tag_279:\n        /* \"#utility.yul\":1749:1755   */\n      dup4\n        /* \"#utility.yul\":1746:1747   */\n      dup2\n        /* \"#utility.yul\":1743:1756   */\n      lt\n        /* \"#utility.yul\":1735:1848   */\n      iszero\n      tag_281\n      jumpi\n        /* \"#utility.yul\":1834:1835   */\n      dup1\n        /* \"#utility.yul\":1829:1832   */\n      dup3\n        /* \"#utility.yul\":1825:1836   */\n      add\n        /* \"#utility.yul\":1819:1837   */\n      mload\n        /* \"#utility.yul\":1815:1816   */\n      dup2\n        /* \"#utility.yul\":1810:1813   */\n      dup5\n        /* \"#utility.yul\":1806:1817   */\n      add\n        /* \"#utility.yul\":1799:1838   */\n      mstore\n        /* \"#utility.yul\":1771:1773   */\n      0x20\n        /* \"#utility.yul\":1768:1769   */\n      dup2\n        /* \"#utility.yul\":1764:1774   */\n      add\n        /* \"#utility.yul\":1759:1774   */\n      swap1\n      pop\n        /* \"#utility.yul\":1735:1848   */\n      jump(tag_279)\n    tag_281:\n        /* \"#utility.yul\":1866:1872   */\n      dup4\n        /* \"#utility.yul\":1863:1864   */\n      dup2\n        /* \"#utility.yul\":1860:1873   */\n      gt\n        /* \"#utility.yul\":1857:1958   */\n      iszero\n      tag_282\n      jumpi\n        /* \"#utility.yul\":1946:1947   */\n      0x00\n        /* \"#utility.yul\":1937:1943   */\n      dup5\n        /* \"#utility.yul\":1932:1935   */\n      dup5\n        /* \"#utility.yul\":1928:1944   */\n      add\n        /* \"#utility.yul\":1921:1948   */\n      mstore\n        /* \"#utility.yul\":1857:1958   */\n    tag_282:\n        /* \"#utility.yul\":1706:1964   */\n      pop\n        /* \"#utility.yul\":1657:1964   */\n      pop\n      pop\n      pop\n      jump\t// out\n        /* \"#utility.yul\":1970:2072   */\n    tag_230:\n        /* \"#utility.yul\":2011:2017   */\n      0x00\n        /* \"#utility.yul\":2062:2064   */\n      0x1f\n        /* \"#utility.yul\":2058:2065   */\n      not\n        /* \"#utility.yul\":2053:2055   */\n      0x1f\n        /* \"#utility.yul\":2046:2051   */\n      dup4\n        /* \"#utility.yul\":2042:2056   */\n      add\n        /* \"#utility.yul\":2038:2066   */\n      and\n        /* \"#utility.yul\":2028:2066   */\n      swap1\n      pop\n        /* \"#utility.yul\":1970:2072   */\n      swap2\n      swap1\n      pop\n      jump\t// out\n        /* \"#utility.yul\":2078:2442   */\n    tag_231:\n        /* \"#utility.yul\":2166:2169   */\n      0x00\n        /* \"#utility.yul\":2194:2233   */\n      tag_285\n        /* \"#utility.yul\":2227:2232   */\n      dup3\n        /* \"#utility.yul\":2194:2233   */\n      tag_227\n      jump\t// in\n    tag_285:\n        /* \"#utility.yul\":2249:2320   */\n      tag_286\n        /* \"#utility.yul\":2313:2319   */\n      dup2\n        /* \"#utility.yul\":2308:2311   */\n      dup6\n        /* \"#utility.yul\":2249:2320   */\n      tag_228\n      jump\t// in\n    tag_286:\n        /* \"#utility.yul\":2242:2320   */\n      swap4\n      pop\n        /* \"#utility.yul\":2329:2381   */\n      tag_287\n        /* \"#utility.yul\":2374:2380   */\n      dup2\n        /* \"#utility.yul\":2369:2372   */\n      dup6\n        /* \"#utility.yul\":2362:2366   */\n      0x20\n        /* \"#utility.yul\":2355:2360   */\n      dup7\n        /* \"#utility.yul\":2351:2367   */\n      add\n        /* \"#utility.yul\":2329:2381   */\n      tag_229\n      jump\t// in\n    tag_287:\n        /* \"#utility.yul\":2406:2435   */\n      tag_288\n        /* \"#utility.yul\":2428:2434   */\n      dup2\n        /* \"#utility.yul\":2406:2435   */\n      tag_230\n      jump\t// in\n    tag_288:\n        /* \"#utility.yul\":2401:2404   */\n      dup5\n        /* \"#utility.yul\":2397:2436   */\n      add\n        /* \"#utility.yul\":2390:2436   */\n      swap2\n      pop\n        /* \"#utility.yul\":2170:2442   */\n      pop\n        /* \"#utility.yul\":2078:2442   */\n      swap3\n      swap2\n      pop\n      pop\n      jump\t// out\n        /* \"#utility.yul\":2448:2981   */\n    tag_23:\n        /* \"#utility.yul\":2617:2621   */\n      0x00\n        /* \"#utility.yul\":2655:2657   */\n      0x60\n        /* \"#utility.yul\":2644:2653   */\n      dup3\n        /* \"#utility.yul\":2640:2658   */\n      add\n        /* \"#utility.yul\":2632:2658   */\n      swap1\n      pop\n        /* \"#utility.yul\":2704:2713   */\n      dup2\n        /* \"#utility.yul\":2698:2702   */\n      dup2\n        /* \"#utility.yul\":2694:2714   */\n      sub\n        /* \"#utility.yul\":2690:2691   */\n      0x00\n        /* \"#utility.yul\":2679:2688   */\n      dup4\n        /* \"#utility.yul\":2675:2692   */\n      add\n        /* \"#utility.yul\":2668:2715   */\n      mstore\n        /* \"#utility.yul\":2732:2810   */\n      tag_290\n        /* \"#utility.yul\":2805:2809   */\n      dup2\n        /* \"#utility.yul\":2796:2802   */\n      dup7\n        /* \"#utility.yul\":2732:2810   */\n      tag_231\n      jump\t// in\n    tag_290:\n        /* \"#utility.yul\":2724:2810   */\n      swap1\n      pop\n        /* \"#utility.yul\":2820:2892   */\n      tag_291\n        /* \"#utility.yul\":2888:2890   */\n      0x20\n        /* \"#utility.yul\":2877:2886   */\n      dup4\n        /* \"#utility.yul\":2873:2891   */\n      add\n        /* \"#utility.yul\":2864:2870   */\n      dup6\n        /* \"#utility.yul\":2820:2892   */\n      tag_221\n      jump\t// in\n    tag_291:\n        /* \"#utility.yul\":2902:2974   */\n      tag_292\n        /* \"#utility.yul\":2970:2972   */\n      0x40\n        /* \"#utility.yul\":2959:2968   */\n      dup4\n        /* \"#utility.yul\":2955:2973   */\n      add\n        /* \"#utility.yul\":2946:2952   */\n      dup5\n        /* \"#utility.yul\":2902:2974   */\n      tag_221\n      jump\t// in\n    tag_292:\n        /* \"#utility.yul\":2448:2981   */\n      swap5\n      swap4\n      pop\n      pop\n      pop\n      pop\n      jump\t// out\n        /* \"#utility.yul\":2987:3113   */\n    tag_232:\n        /* \"#utility.yul\":3024:3031   */\n      0x00\n        /* \"#utility.yul\":3064:3106   */\n      0xffffffffffffffffffffffffffffffffffffffff\n        /* \"#utility.yul\":3057:3062   */\n      dup3\n        /* \"#utility.yul\":3053:3107   */\n      and\n        /* \"#utility.yul\":3042:3107   */\n      swap1\n      pop\n        /* \"#utility.yul\":2987:3113   */\n      swap2\n      swap1\n      pop\n      jump\t// out\n        /* \"#utility.yul\":3119:3215   */\n    tag_233:\n        /* \"#utility.yul\":3156:3163   */\n      0x00\n        /* \"#utility.yul\":3185:3209   */\n      tag_295\n        /* \"#utility.yul\":3203:3208   */\n      dup3\n        /* \"#utility.yul\":3185:3209   */\n      tag_232\n      jump\t// in\n    tag_295:\n        /* \"#utility.yul\":3174:3209   */\n      swap1\n      pop\n        /* \"#utility.yul\":3119:3215   */\n      swap2\n      swap1\n      pop\n      jump\t// out\n        /* \"#utility.yul\":3221:3339   */\n    tag_234:\n        /* \"#utility.yul\":3308:3332   */\n      tag_297\n        /* \"#utility.yul\":3326:3331   */\n      dup2\n        /* \"#utility.yul\":3308:3332   */\n      tag_233\n      jump\t// in\n    tag_297:\n        /* \"#utility.yul\":3303:3306   */\n      dup3\n        /* \"#utility.yul\":3296:3333   */\n      mstore\n        /* \"#utility.yul\":3221:3339   */\n      pop\n      pop\n      jump\t// out\n        /* \"#utility.yul\":3345:3677   */\n    tag_28:\n        /* \"#utility.yul\":3466:3470   */\n      0x00\n        /* \"#utility.yul\":3504:3506   */\n      0x40\n        /* \"#utility.yul\":3493:3502   */\n      dup3\n        /* \"#utility.yul\":3489:3507   */\n      add\n        /* \"#utility.yul\":3481:3507   */\n      swap1\n      pop\n        /* \"#utility.yul\":3517:3588   */\n      tag_299\n        /* \"#utility.yul\":3585:3586   */\n      0x00\n        /* \"#utility.yul\":3574:3583   */\n      dup4\n        /* \"#utility.yul\":3570:3587   */\n      add\n        /* \"#utility.yul\":3561:3567   */\n      dup6\n        /* \"#utility.yul\":3517:3588   */\n      tag_234\n      jump\t// in\n    tag_299:\n        /* \"#utility.yul\":3598:3670   */\n      tag_300\n        /* \"#utility.yul\":3666:3668   */\n      0x20\n        /* \"#utility.yul\":3655:3664   */\n      dup4\n        /* \"#utility.yul\":3651:3669   */\n      add\n        /* \"#utility.yul\":3642:3648   */\n      dup5\n        /* \"#utility.yul\":3598:3670   */\n      tag_221\n      jump\t// in\n    tag_300:\n        /* \"#utility.yul\":3345:3677   */\n      swap4\n      swap3\n      pop\n      pop\n      pop\n      jump\t// out\n        /* \"#utility.yul\":3683:3905   */\n    tag_32:\n        /* \"#utility.yul\":3776:3780   */\n      0x00\n        /* \"#utility.yul\":3814:3816   */\n      0x20\n        /* \"#utility.yul\":3803:3812   */\n      dup3\n        /* \"#utility.yul\":3799:3817   */\n      add\n        /* \"#utility.yul\":3791:3817   */\n      swap1\n      pop\n        /* \"#utility.yul\":3827:3898   */\n      tag_302\n        /* \"#utility.yul\":3895:3896   */\n      0x00\n        /* \"#utility.yul\":3884:3893   */\n      dup4\n        /* \"#utility.yul\":3880:3897   */\n      add\n        /* \"#utility.yul\":3871:3877   */\n      dup5\n        /* \"#utility.yul\":3827:3898   */\n      tag_234\n      jump\t// in\n    tag_302:\n        /* \"#utility.yul\":3683:3905   */\n      swap3\n      swap2\n      pop\n      pop\n      jump\t// out\n        /* \"#utility.yul\":3911:4033   */\n    tag_235:\n        /* \"#utility.yul\":3984:4008   */\n      tag_304\n        /* \"#utility.yul\":4002:4007   */\n      dup2\n        /* \"#utility.yul\":3984:4008   */\n      tag_233\n      jump\t// in\n    tag_304:\n        /* \"#utility.yul\":3977:3982   */\n      dup2\n        /* \"#utility.yul\":3974:4009   */\n      eq\n        /* \"#utility.yul\":3964:4027   */\n      tag_305\n      jumpi\n        /* \"#utility.yul\":4023:4024   */\n      0x00\n        /* \"#utility.yul\":4020:4021   */\n      dup1\n        /* \"#utility.yul\":4013:4025   */\n      revert\n        /* \"#utility.yul\":3964:4027   */\n    tag_305:\n        /* \"#utility.yul\":3911:4033   */\n      pop\n      jump\t// out\n        /* \"#utility.yul\":4039:4178   */\n    tag_236:\n        /* \"#utility.yul\":4085:4090   */\n      0x00\n        /* \"#utility.yul\":4123:4129   */\n      dup2\n        /* \"#utility.yul\":4110:4130   */\n      calldataload\n        /* \"#utility.yul\":4101:4130   */\n      swap1\n      pop\n        /* \"#utility.yul\":4139:4172   */\n      tag_307\n        /* \"#utility.yul\":4166:4171   */\n      dup2\n        /* \"#utility.yul\":4139:4172   */\n      tag_235\n      jump\t// in\n    tag_307:\n        /* \"#utility.yul\":4039:4178   */\n      swap3\n      swap2\n      pop\n      pop\n      jump\t// out\n        /* \"#utility.yul\":4184:4513   */\n    tag_35:\n        /* \"#utility.yul\":4243:4249   */\n      0x00\n        /* \"#utility.yul\":4292:4294   */\n      0x20\n        /* \"#utility.yul\":4280:4289   */\n      dup3\n        /* \"#utility.yul\":4271:4278   */\n      dup5\n        /* \"#utility.yul\":4267:4290   */\n      sub\n        /* \"#utility.yul\":4263:4295   */\n      slt\n        /* \"#utility.yul\":4260:4379   */\n      iszero\n      tag_309\n      jumpi\n        /* \"#utility.yul\":4298:4377   */\n      tag_310\n      tag_223\n      jump\t// in\n    tag_310:\n        /* \"#utility.yul\":4260:4379   */\n    tag_309:\n        /* \"#utility.yul\":4418:4419   */\n      0x00\n        /* \"#utility.yul\":4443:4496   */\n      tag_311\n        /* \"#utility.yul\":4488:4495   */\n      dup5\n        /* \"#utility.yul\":4479:4485   */\n      dup3\n        /* \"#utility.yul\":4468:4477   */\n      dup6\n        /* \"#utility.yul\":4464:4486   */\n      add\n        /* \"#utility.yul\":4443:4496   */\n      tag_236\n      jump\t// in\n    tag_311:\n        /* \"#utility.yul\":4433:4496   */\n      swap2\n      pop\n        /* \"#utility.yul\":4389:4506   */\n      pop\n        /* \"#utility.yul\":4184:4513   */\n      swap3\n      swap2\n      pop\n      pop\n      jump\t// out\n        /* \"#utility.yul\":4519:4643   */\n    tag_237:\n        /* \"#utility.yul\":4596:4602   */\n      0x00\n        /* \"#utility.yul\":4630:4635   */\n      dup2\n        /* \"#utility.yul\":4624:4636   */\n      mload\n        /* \"#utility.yul\":4614:4636   */\n      swap1\n      pop\n        /* \"#utility.yul\":4519:4643   */\n      swap2\n      swap1\n      pop\n      jump\t// out\n        /* \"#utility.yul\":4649:4843   */\n    tag_238:\n        /* \"#utility.yul\":4758:4769   */\n      0x00\n        /* \"#utility.yul\":4792:4798   */\n      dup3\n        /* \"#utility.yul\":4787:4790   */\n      dup3\n        /* \"#utility.yul\":4780:4799   */\n      mstore\n        /* \"#utility.yul\":4832:4836   */\n      0x20\n        /* \"#utility.yul\":4827:4830   */\n      dup3\n        /* \"#utility.yul\":4823:4837   */\n      add\n        /* \"#utility.yul\":4808:4837   */\n      swap1\n      pop\n        /* \"#utility.yul\":4649:4843   */\n      swap3\n      swap2\n      pop\n      pop\n      jump\t// out\n        /* \"#utility.yul\":4849:4991   */\n    tag_239:\n        /* \"#utility.yul\":4926:4930   */\n      0x00\n        /* \"#utility.yul\":4949:4952   */\n      dup2\n        /* \"#utility.yul\":4941:4952   */\n      swap1\n      pop\n        /* \"#utility.yul\":4979:4983   */\n      0x20\n        /* \"#utility.yul\":4974:4977   */\n      dup3\n        /* \"#utility.yul\":4970:4984   */\n      add\n        /* \"#utility.yul\":4962:4984   */\n      swap1\n      pop\n        /* \"#utility.yul\":4849:4991   */\n      swap2\n      swap1\n      pop\n      jump\t// out\n        /* \"#utility.yul\":4997:5156   */\n    tag_240:\n        /* \"#utility.yul\":5071:5082   */\n      0x00\n        /* \"#utility.yul\":5105:5111   */\n      dup3\n        /* \"#utility.yul\":5100:5103   */\n      dup3\n        /* \"#utility.yul\":5093:5112   */\n      mstore\n        /* \"#utility.yul\":5145:5149   */\n      0x20\n        /* \"#utility.yul\":5140:5143   */\n      dup3\n        /* \"#utility.yul\":5136:5150   */\n      add\n        /* \"#utility.yul\":5121:5150   */\n      swap1\n      pop\n        /* \"#utility.yul\":4997:5156   */\n      swap3\n      swap2\n      pop\n      pop\n      jump\t// out\n        /* \"#utility.yul\":5162:5506   */\n    tag_241:\n        /* \"#utility.yul\":5240:5243   */\n      0x00\n        /* \"#utility.yul\":5268:5307   */\n      tag_317\n        /* \"#utility.yul\":5301:5306   */\n      dup3\n        /* \"#utility.yul\":5268:5307   */\n      tag_227\n      jump\t// in\n    tag_317:\n        /* \"#utility.yul\":5323:5384   */\n      tag_318\n        /* \"#utility.yul\":5377:5383   */\n      dup2\n        /* \"#utility.yul\":5372:5375   */\n      dup6\n        /* \"#utility.yul\":5323:5384   */\n      tag_240\n      jump\t// in\n    tag_318:\n        /* \"#utility.yul\":5316:5384   */\n      swap4\n      pop\n        /* \"#utility.yul\":5393:5445   */\n      tag_319\n        /* \"#utility.yul\":5438:5444   */\n      dup2\n        /* \"#utility.yul\":5433:5436   */\n      dup6\n        /* \"#utility.yul\":5426:5430   */\n      0x20\n        /* \"#utility.yul\":5419:5424   */\n      dup7\n        /* \"#utility.yul\":5415:5431   */\n      add\n        /* \"#utility.yul\":5393:5445   */\n      tag_229\n      jump\t// in\n    tag_319:\n        /* \"#utility.yul\":5470:5499   */\n      tag_320\n        /* \"#utility.yul\":5492:5498   */\n      dup2\n        /* \"#utility.yul\":5470:5499   */\n      tag_230\n      jump\t// in\n    tag_320:\n        /* \"#utility.yul\":5465:5468   */\n      dup5\n        /* \"#utility.yul\":5461:5500   */\n      add\n        /* \"#utility.yul\":5454:5500   */\n      swap2\n      pop\n        /* \"#utility.yul\":5244:5506   */\n      pop\n        /* \"#utility.yul\":5162:5506   */\n      swap3\n      swap2\n      pop\n      pop\n      jump\t// out\n        /* \"#utility.yul\":5512:5708   */\n    tag_242:\n        /* \"#utility.yul\":5601:5611   */\n      0x00\n        /* \"#utility.yul\":5636:5702   */\n      tag_322\n        /* \"#utility.yul\":5698:5701   */\n      dup4\n        /* \"#utility.yul\":5690:5696   */\n      dup4\n        /* \"#utility.yul\":5636:5702   */\n      tag_241\n      jump\t// in\n    tag_322:\n        /* \"#utility.yul\":5622:5702   */\n      swap1\n      pop\n        /* \"#utility.yul\":5512:5708   */\n      swap3\n      swap2\n      pop\n      pop\n      jump\t// out\n        /* \"#utility.yul\":5714:5837   */\n    tag_243:\n        /* \"#utility.yul\":5794:5798   */\n      0x00\n        /* \"#utility.yul\":5826:5830   */\n      0x20\n        /* \"#utility.yul\":5821:5824   */\n      dup3\n        /* \"#utility.yul\":5817:5831   */\n      add\n        /* \"#utility.yul\":5809:5831   */\n      swap1\n      pop\n        /* \"#utility.yul\":5714:5837   */\n      swap2\n      swap1\n      pop\n      jump\t// out\n        /* \"#utility.yul\":5871:6862   */\n    tag_244:\n        /* \"#utility.yul\":6010:6013   */\n      0x00\n        /* \"#utility.yul\":6039:6103   */\n      tag_325\n        /* \"#utility.yul\":6097:6102   */\n      dup3\n        /* \"#utility.yul\":6039:6103   */\n      tag_237\n      jump\t// in\n    tag_325:\n        /* \"#utility.yul\":6119:6215   */\n      tag_326\n        /* \"#utility.yul\":6208:6214   */\n      dup2\n        /* \"#utility.yul\":6203:6206   */\n      dup6\n        /* \"#utility.yul\":6119:6215   */\n      tag_238\n      jump\t// in\n    tag_326:\n        /* \"#utility.yul\":6112:6215   */\n      swap4\n      pop\n        /* \"#utility.yul\":6241:6244   */\n      dup4\n        /* \"#utility.yul\":6286:6290   */\n      0x20\n        /* \"#utility.yul\":6278:6284   */\n      dup3\n        /* \"#utility.yul\":6274:6291   */\n      mul\n        /* \"#utility.yul\":6269:6272   */\n      dup6\n        /* \"#utility.yul\":6265:6292   */\n      add\n        /* \"#utility.yul\":6316:6382   */\n      tag_327\n        /* \"#utility.yul\":6376:6381   */\n      dup6\n        /* \"#utility.yul\":6316:6382   */\n      tag_239\n      jump\t// in\n    tag_327:\n        /* \"#utility.yul\":6405:6412   */\n      dup1\n        /* \"#utility.yul\":6436:6437   */\n      0x00\n        /* \"#utility.yul\":6421:6817   */\n    tag_328:\n        /* \"#utility.yul\":6446:6452   */\n      dup6\n        /* \"#utility.yul\":6443:6444   */\n      dup2\n        /* \"#utility.yul\":6440:6453   */\n      lt\n        /* \"#utility.yul\":6421:6817   */\n      iszero\n      tag_330\n      jumpi\n        /* \"#utility.yul\":6517:6526   */\n      dup5\n        /* \"#utility.yul\":6511:6515   */\n      dup5\n        /* \"#utility.yul\":6507:6527   */\n      sub\n        /* \"#utility.yul\":6502:6505   */\n      dup10\n        /* \"#utility.yul\":6495:6528   */\n      mstore\n        /* \"#utility.yul\":6568:6574   */\n      dup2\n        /* \"#utility.yul\":6562:6575   */\n      mload\n        /* \"#utility.yul\":6596:6680   */\n      tag_331\n        /* \"#utility.yul\":6675:6679   */\n      dup6\n        /* \"#utility.yul\":6660:6673   */\n      dup3\n        /* \"#utility.yul\":6596:6680   */\n      tag_242\n      jump\t// in\n    tag_331:\n        /* \"#utility.yul\":6588:6680   */\n      swap5\n      pop\n        /* \"#utility.yul\":6703:6773   */\n      tag_332\n        /* \"#utility.yul\":6766:6772   */\n      dup4\n        /* \"#utility.yul\":6703:6773   */\n      tag_243\n      jump\t// in\n    tag_332:\n        /* \"#utility.yul\":6693:6773   */\n      swap3\n      pop\n        /* \"#utility.yul\":6802:6806   */\n      0x20\n        /* \"#utility.yul\":6797:6800   */\n      dup11\n        /* \"#utility.yul\":6793:6807   */\n      add\n        /* \"#utility.yul\":6786:6807   */\n      swap10\n      pop\n        /* \"#utility.yul\":6481:6817   */\n      pop\n        /* \"#utility.yul\":6468:6469   */\n      0x01\n        /* \"#utility.yul\":6465:6466   */\n      dup2\n        /* \"#utility.yul\":6461:6470   */\n      add\n        /* \"#utility.yul\":6456:6470   */\n      swap1\n      pop\n        /* \"#utility.yul\":6421:6817   */\n      jump(tag_328)\n    tag_330:\n        /* \"#utility.yul\":6425:6439   */\n      pop\n        /* \"#utility.yul\":6833:6837   */\n      dup3\n        /* \"#utility.yul\":6826:6837   */\n      swap8\n      pop\n        /* \"#utility.yul\":6853:6856   */\n      dup8\n        /* \"#utility.yul\":6846:6856   */\n      swap6\n      pop\n        /* \"#utility.yul\":6015:6862   */\n      pop\n      pop\n      pop\n      pop\n      pop\n        /* \"#utility.yul\":5871:6862   */\n      swap3\n      swap2\n      pop\n      pop\n      jump\t// out\n        /* \"#utility.yul\":6868:7281   */\n    tag_38:\n        /* \"#utility.yul\":7031:7035   */\n      0x00\n        /* \"#utility.yul\":7069:7071   */\n      0x20\n        /* \"#utility.yul\":7058:7067   */\n      dup3\n        /* \"#utility.yul\":7054:7072   */\n      add\n        /* \"#utility.yul\":7046:7072   */\n      swap1\n      pop\n        /* \"#utility.yul\":7118:7127   */\n      dup2\n        /* \"#utility.yul\":7112:7116   */\n      dup2\n        /* \"#utility.yul\":7108:7128   */\n      sub\n        /* \"#utility.yul\":7104:7105   */\n      0x00\n        /* \"#utility.yul\":7093:7102   */\n      dup4\n        /* \"#utility.yul\":7089:7106   */\n      add\n        /* \"#utility.yul\":7082:7129   */\n      mstore\n        /* \"#utility.yul\":7146:7274   */\n      tag_334\n        /* \"#utility.yul\":7269:7273   */\n      dup2\n        /* \"#utility.yul\":7260:7266   */\n      dup5\n        /* \"#utility.yul\":7146:7274   */\n      tag_244\n      jump\t// in\n    tag_334:\n        /* \"#utility.yul\":7138:7274   */\n      swap1\n      pop\n        /* \"#utility.yul\":6868:7281   */\n      swap3\n      swap2\n      pop\n      pop\n      jump\t// out\n        /* \"#utility.yul\":7287:7820   */\n    tag_49:\n        /* \"#utility.yul\":7456:7460   */\n      0x00\n        /* \"#utility.yul\":7494:7496   */\n      0x60\n        /* \"#utility.yul\":7483:7492   */\n      dup3\n        /* \"#utility.yul\":7479:7497   */\n      add\n        /* \"#utility.yul\":7471:7497   */\n      swap1\n      pop\n        /* \"#utility.yul\":7507:7578   */\n      tag_336\n        /* \"#utility.yul\":7575:7576   */\n      0x00\n        /* \"#utility.yul\":7564:7573   */\n      dup4\n        /* \"#utility.yul\":7560:7577   */\n      add\n        /* \"#utility.yul\":7551:7557   */\n      dup7\n        /* \"#utility.yul\":7507:7578   */\n      tag_234\n      jump\t// in\n    tag_336:\n        /* \"#utility.yul\":7588:7660   */\n      tag_337\n        /* \"#utility.yul\":7656:7658   */\n      0x20\n        /* \"#utility.yul\":7645:7654   */\n      dup4\n        /* \"#utility.yul\":7641:7659   */\n      add\n        /* \"#utility.yul\":7632:7638   */\n      dup6\n        /* \"#utility.yul\":7588:7660   */\n      tag_221\n      jump\t// in\n    tag_337:\n        /* \"#utility.yul\":7707:7716   */\n      dup2\n        /* \"#utility.yul\":7701:7705   */\n      dup2\n        /* \"#utility.yul\":7697:7717   */\n      sub\n        /* \"#utility.yul\":7692:7694   */\n      0x40\n        /* \"#utility.yul\":7681:7690   */\n      dup4\n        /* \"#utility.yul\":7677:7695   */\n      add\n        /* \"#utility.yul\":7670:7718   */\n      mstore\n        /* \"#utility.yul\":7735:7813   */\n      tag_338\n        /* \"#utility.yul\":7808:7812   */\n      dup2\n        /* \"#utility.yul\":7799:7805   */\n      dup5\n        /* \"#utility.yul\":7735:7813   */\n      tag_231\n      jump\t// in\n    tag_338:\n        /* \"#utility.yul\":7727:7813   */\n      swap1\n      pop\n        /* \"#utility.yul\":7287:7820   */\n      swap5\n      swap4\n      pop\n      pop\n      pop\n      pop\n      jump\t// out\n        /* \"#utility.yul\":7826:8006   */\n    tag_245:\n        /* \"#utility.yul\":7874:7951   */\n      0x4e487b7100000000000000000000000000000000000000000000000000000000\n        /* \"#utility.yul\":7871:7872   */\n      0x00\n        /* \"#utility.yul\":7864:7952   */\n      mstore\n        /* \"#utility.yul\":7971:7975   */\n      0x22\n        /* \"#utility.yul\":7968:7969   */\n      0x04\n        /* \"#utility.yul\":7961:7976   */\n      mstore\n        /* \"#utility.yul\":7995:7999   */\n      0x24\n        /* \"#utility.yul\":7992:7993   */\n      0x00\n        /* \"#utility.yul\":7985:8000   */\n      revert\n        /* \"#utility.yul\":8012:8332   */\n    tag_58:\n        /* \"#utility.yul\":8056:8062   */\n      0x00\n        /* \"#utility.yul\":8093:8094   */\n      0x02\n        /* \"#utility.yul\":8087:8091   */\n      dup3\n        /* \"#utility.yul\":8083:8095   */\n      div\n        /* \"#utility.yul\":8073:8095   */\n      swap1\n      pop\n        /* \"#utility.yul\":8140:8141   */\n      0x01\n        /* \"#utility.yul\":8134:8138   */\n      dup3\n        /* \"#utility.yul\":8130:8142   */\n      and\n        /* \"#utility.yul\":8161:8179   */\n      dup1\n        /* \"#utility.yul\":8151:8232   */\n      tag_341\n      jumpi\n        /* \"#utility.yul\":8217:8221   */\n      0x7f\n        /* \"#utility.yul\":8209:8215   */\n      dup3\n        /* \"#utility.yul\":8205:8222   */\n      and\n        /* \"#utility.yul\":8195:8222   */\n      swap2\n      pop\n        /* \"#utility.yul\":8151:8232   */\n    tag_341:\n        /* \"#utility.yul\":8279:8281   */\n      0x20\n        /* \"#utility.yul\":8271:8277   */\n      dup3\n        /* \"#utility.yul\":8268:8282   */\n      lt\n        /* \"#utility.yul\":8248:8266   */\n      dup2\n        /* \"#utility.yul\":8245:8283   */\n      eq\n        /* \"#utility.yul\":8242:8326   */\n      iszero\n      tag_342\n      jumpi\n        /* \"#utility.yul\":8298:8316   */\n      tag_343\n      tag_245\n      jump\t// in\n    tag_343:\n        /* \"#utility.yul\":8242:8326   */\n    tag_342:\n        /* \"#utility.yul\":8063:8332   */\n      pop\n        /* \"#utility.yul\":8012:8332   */\n      swap2\n      swap1\n      pop\n      jump\t// out\n        /* \"#utility.yul\":8338:8518   */\n    tag_71:\n        /* \"#utility.yul\":8386:8463   */\n      0x4e487b7100000000000000000000000000000000000000000000000000000000\n        /* \"#utility.yul\":8383:8384   */\n      0x00\n        /* \"#utility.yul\":8376:8464   */\n      mstore\n        /* \"#utility.yul\":8483:8487   */\n      0x32\n        /* \"#utility.yul\":8480:8481   */\n      0x04\n        /* \"#utility.yul\":8473:8488   */\n      mstore\n        /* \"#utility.yul\":8507:8511   */\n      0x24\n        /* \"#utility.yul\":8504:8505   */\n      0x00\n        /* \"#utility.yul\":8497:8512   */\n      revert\n        /* \"#utility.yul\":8524:8704   */\n    tag_246:\n        /* \"#utility.yul\":8572:8649   */\n      0x4e487b7100000000000000000000000000000000000000000000000000000000\n        /* \"#utility.yul\":8569:8570   */\n      0x00\n        /* \"#utility.yul\":8562:8650   */\n      mstore\n        /* \"#utility.yul\":8669:8673   */\n      0x11\n        /* \"#utility.yul\":8666:8667   */\n      0x04\n        /* \"#utility.yul\":8659:8674   */\n      mstore\n        /* \"#utility.yul\":8693:8697   */\n      0x24\n        /* \"#utility.yul\":8690:8691   */\n      0x00\n        /* \"#utility.yul\":8683:8698   */\n      revert\n        /* \"#utility.yul\":8710:8943   */\n    tag_75:\n        /* \"#utility.yul\":8749:8752   */\n      0x00\n        /* \"#utility.yul\":8772:8796   */\n      tag_347\n        /* \"#utility.yul\":8790:8795   */\n      dup3\n        /* \"#utility.yul\":8772:8796   */\n      tag_220\n      jump\t// in\n    tag_347:\n        /* \"#utility.yul\":8763:8796   */\n      swap2\n      pop\n        /* \"#utility.yul\":8818:8884   */\n      0xffffffffffffffffffffffffffffffffffffffffffffffffffffffffffffffff\n        /* \"#utility.yul\":8811:8816   */\n      dup3\n        /* \"#utility.yul\":8808:8885   */\n      eq\n        /* \"#utility.yul\":8805:8908   */\n      iszero\n      tag_348\n      jumpi\n        /* \"#utility.yul\":8888:8906   */\n      tag_349\n      tag_246\n      jump\t// in\n    tag_349:\n        /* \"#utility.yul\":8805:8908   */\n    tag_348:\n        /* \"#utility.yul\":8935:8936   */\n      0x01\n        /* \"#utility.yul\":8928:8933   */\n      dup3\n        /* \"#utility.yul\":8924:8937   */\n      add\n        /* \"#utility.yul\":8917:8937   */\n      swap1\n      pop\n        /* \"#utility.yul\":8710:8943   */\n      swap2\n      swap1\n      pop\n      jump\t// out\n        /* \"#utility.yul\":8949:9129   */\n    tag_79:\n        /* \"#utility.yul\":8997:9074   */\n      0x4e487b7100000000000000000000000000000000000000000000000000000000\n        /* \"#utility.yul\":8994:8995   */\n      0x00\n        /* \"#utility.yul\":8987:9075   */\n      mstore\n        /* \"#utility.yul\":9094:9098   */\n      0x41\n        /* \"#utility.yul\":9091:9092   */\n      0x04\n        /* \"#utility.yul\":9084:9099   */\n      mstore\n        /* \"#utility.yul\":9118:9122   */\n      0x24\n        /* \"#utility.yul\":9115:9116   */\n      0x00\n        /* \"#utility.yul\":9108:9123   */\n      revert\n        /* \"#utility.yul\":9135:9311   */\n    tag_247:\n        /* \"#utility.yul\":9275:9303   */\n      0x4e6f7420417574686f72697a65642c2041646d696e204f6e6c79000000000000\n        /* \"#utility.yul\":9271:9272   */\n      0x00\n        /* \"#utility.yul\":9263:9269   */\n      dup3\n        /* \"#utility.yul\":9259:9273   */\n      add\n        /* \"#utility.yul\":9252:9304   */\n      mstore\n        /* \"#utility.yul\":9135:9311   */\n      pop\n      jump\t// out\n        /* \"#utility.yul\":9317:9683   */\n    tag_248:\n        /* \"#utility.yul\":9459:9462   */\n      0x00\n        /* \"#utility.yul\":9480:9547   */\n      tag_353\n        /* \"#utility.yul\":9544:9546   */\n      0x1a\n        /* \"#utility.yul\":9539:9542   */\n      dup4\n        /* \"#utility.yul\":9480:9547   */\n      tag_228\n      jump\t// in\n    tag_353:\n        /* \"#utility.yul\":9473:9547   */\n      swap2\n      pop\n        /* \"#utility.yul\":9556:9649   */\n      tag_354\n        /* \"#utility.yul\":9645:9648   */\n      dup3\n        /* \"#utility.yul\":9556:9649   */\n      tag_247\n      jump\t// in\n    tag_354:\n        /* \"#utility.yul\":9674:9676   */\n      0x20\n        /* \"#utility.yul\":9669:9672   */\n      dup3\n        /* \"#utility.yul\":9665:9677   */\n      add\n        /* \"#utility.yul\":9658:9677   */\n      swap1\n      pop\n        /* \"#utility.yul\":9317:9683   */\n      swap2\n      swap1\n      pop\n      jump\t// out\n        /* \"#utility.yul\":9689:10108   */\n    tag_138:\n        /* \"#utility.yul\":9855:9859   */\n      0x00\n        /* \"#utility.yul\":9893:9895   */\n      0x20\n        /* \"#utility.yul\":9882:9891   */\n      dup3\n        /* \"#utility.yul\":9878:9896   */\n      add\n        /* \"#utility.yul\":9870:9896   */\n      swap1\n      pop\n        /* \"#utility.yul\":9942:9951   */\n      dup2\n        /* \"#utility.yul\":9936:9940   */\n      dup2\n        /* \"#utility.yul\":9932:9952   */\n      sub\n        /* \"#utility.yul\":9928:9929   */\n      0x00\n        /* \"#utility.yul\":9917:9926   */\n      dup4\n        /* \"#utility.yul\":9913:9930   */\n      add\n        /* \"#utility.yul\":9906:9953   */\n      mstore\n        /* \"#utility.yul\":9970:10101   */\n      tag_356\n        /* \"#utility.yul\":10096:10100   */\n      dup2\n        /* \"#utility.yul\":9970:10101   */\n      tag_248\n      jump\t// in\n    tag_356:\n        /* \"#utility.yul\":9962:10101   */\n      swap1\n      pop\n        /* \"#utility.yul\":9689:10108   */\n      swap2\n      swap1\n      pop\n      jump\t// out\n        /* \"#utility.yul\":10114:10276   */\n    tag_249:\n        /* \"#utility.yul\":10254:10268   */\n      0x4f7574206f66204c696d69740000000000000000000000000000000000000000\n        /* \"#utility.yul\":10250:10251   */\n      0x00\n        /* \"#utility.yul\":10242:10248   */\n      dup3\n        /* \"#utility.yul\":10238:10252   */\n      add\n        /* \"#utility.yul\":10231:10269   */\n      mstore\n        /* \"#utility.yul\":10114:10276   */\n      pop\n      jump\t// out\n        /* \"#utility.yul\":10282:10648   */\n    tag_250:\n        /* \"#utility.yul\":10424:10427   */\n      0x00\n        /* \"#utility.yul\":10445:10512   */\n      tag_359\n        /* \"#utility.yul\":10509:10511   */\n      0x0c\n        /* \"#utility.yul\":10504:10507   */\n      dup4\n        /* \"#utility.yul\":10445:10512   */\n      tag_228\n      jump\t// in\n    tag_359:\n        /* \"#utility.yul\":10438:10512   */\n      swap2\n      pop\n        /* \"#utility.yul\":10521:10614   */\n      tag_360\n        /* \"#utility.yul\":10610:10613   */\n      dup3\n        /* \"#utility.yul\":10521:10614   */\n      tag_249\n      jump\t// in\n    tag_360:\n        /* \"#utility.yul\":10639:10641   */\n      0x20\n        /* \"#utility.yul\":10634:10637   */\n      dup3\n        /* \"#utility.yul\":10630:10642   */\n      add\n        /* \"#utility.yul\":10623:10642   */\n      swap1\n      pop\n        /* \"#utility.yul\":10282:10648   */\n      swap2\n      swap1\n      pop\n      jump\t// out\n        /* \"#utility.yul\":10654:11073   */\n    tag_164:\n        /* \"#utility.yul\":10820:10824   */\n      0x00\n        /* \"#utility.yul\":10858:10860   */\n      0x20\n        /* \"#utility.yul\":10847:10856   */\n      dup3\n        /* \"#utility.yul\":10843:10861   */\n      add\n        /* \"#utility.yul\":10835:10861   */\n      swap1\n      pop\n        /* \"#utility.yul\":10907:10916   */\n      dup2\n        /* \"#utility.yul\":10901:10905   */\n      dup2\n        /* \"#utility.yul\":10897:10917   */\n      sub\n        /* \"#utility.yul\":10893:10894   */\n      0x00\n        /* \"#utility.yul\":10882:10891   */\n      dup4\n        /* \"#utility.yul\":10878:10895   */\n      add\n        /* \"#utility.yul\":10871:10918   */\n      mstore\n        /* \"#utility.yul\":10935:11066   */\n      tag_362\n        /* \"#utility.yul\":11061:11065   */\n      dup2\n        /* \"#utility.yul\":10935:11066   */\n      tag_250\n      jump\t// in\n    tag_362:\n        /* \"#utility.yul\":10927:11066   */\n      swap1\n      pop\n        /* \"#utility.yul\":10654:11073   */\n      swap2\n      swap1\n      pop\n      jump\t// out\n        /* \"#utility.yul\":11079:11173   */\n    tag_251:\n        /* \"#utility.yul\":11112:11120   */\n      0x00\n        /* \"#utility.yul\":11160:11165   */\n      dup2\n        /* \"#utility.yul\":11156:11158   */\n      0x60\n        /* \"#utility.yul\":11152:11166   */\n      shl\n        /* \"#utility.yul\":11131:11166   */\n      swap1\n      pop\n        /* \"#utility.yul\":11079:11173   */\n      swap2\n      swap1\n      pop\n      jump\t// out\n        /* \"#utility.yul\":11179:11273   */\n    tag_252:\n        /* \"#utility.yul\":11218:11225   */\n      0x00\n        /* \"#utility.yul\":11247:11267   */\n      tag_365\n        /* \"#utility.yul\":11261:11266   */\n      dup3\n        /* \"#utility.yul\":11247:11267   */\n      tag_251\n      jump\t// in\n    tag_365:\n        /* \"#utility.yul\":11236:11267   */\n      swap1\n      pop\n        /* \"#utility.yul\":11179:11273   */\n      swap2\n      swap1\n      pop\n      jump\t// out\n        /* \"#utility.yul\":11279:11379   */\n    tag_253:\n        /* \"#utility.yul\":11318:11325   */\n      0x00\n        /* \"#utility.yul\":11347:11373   */\n      tag_367\n        /* \"#utility.yul\":11367:11372   */\n      dup3\n        /* \"#utility.yul\":11347:11373   */\n      tag_252\n      jump\t// in\n    tag_367:\n        /* \"#utility.yul\":11336:11373   */\n      swap1\n      pop\n        /* \"#utility.yul\":11279:11379   */\n      swap2\n      swap1\n      pop\n      jump\t// out\n        /* \"#utility.yul\":11385:11542   */\n    tag_254:\n        /* \"#utility.yul\":11490:11535   */\n      tag_369\n        /* \"#utility.yul\":11510:11534   */\n      tag_370\n        /* \"#utility.yul\":11528:11533   */\n      dup3\n        /* \"#utility.yul\":11510:11534   */\n      tag_233\n      jump\t// in\n    tag_370:\n        /* \"#utility.yul\":11490:11535   */\n      tag_253\n      jump\t// in\n    tag_369:\n        /* \"#utility.yul\":11485:11488   */\n      dup3\n        /* \"#utility.yul\":11478:11536   */\n      mstore\n        /* \"#utility.yul\":11385:11542   */\n      pop\n      pop\n      jump\t// out\n        /* \"#utility.yul\":11548:11627   */\n    tag_255:\n        /* \"#utility.yul\":11587:11594   */\n      0x00\n        /* \"#utility.yul\":11616:11621   */\n      dup2\n        /* \"#utility.yul\":11605:11621   */\n      swap1\n      pop\n        /* \"#utility.yul\":11548:11627   */\n      swap2\n      swap1\n      pop\n      jump\t// out\n        /* \"#utility.yul\":11633:11790   */\n    tag_256:\n        /* \"#utility.yul\":11738:11783   */\n      tag_373\n        /* \"#utility.yul\":11758:11782   */\n      tag_374\n        /* \"#utility.yul\":11776:11781   */\n      dup3\n        /* \"#utility.yul\":11758:11782   */\n      tag_220\n      jump\t// in\n    tag_374:\n        /* \"#utility.yul\":11738:11783   */\n      tag_255\n      jump\t// in\n    tag_373:\n        /* \"#utility.yul\":11733:11736   */\n      dup3\n        /* \"#utility.yul\":11726:11784   */\n      mstore\n        /* \"#utility.yul\":11633:11790   */\n      pop\n      pop\n      jump\t// out\n        /* \"#utility.yul\":11796:12334   */\n    tag_186:\n        /* \"#utility.yul\":11964:11967   */\n      0x00\n        /* \"#utility.yul\":11979:12054   */\n      tag_376\n        /* \"#utility.yul\":12050:12053   */\n      dup3\n        /* \"#utility.yul\":12041:12047   */\n      dup7\n        /* \"#utility.yul\":11979:12054   */\n      tag_254\n      jump\t// in\n    tag_376:\n        /* \"#utility.yul\":12079:12081   */\n      0x14\n        /* \"#utility.yul\":12074:12077   */\n      dup3\n        /* \"#utility.yul\":12070:12082   */\n      add\n        /* \"#utility.yul\":12063:12082   */\n      swap2\n      pop\n        /* \"#utility.yul\":12092:12167   */\n      tag_377\n        /* \"#utility.yul\":12163:12166   */\n      dup3\n        /* \"#utility.yul\":12154:12160   */\n      dup6\n        /* \"#utility.yul\":12092:12167   */\n      tag_256\n      jump\t// in\n    tag_377:\n        /* \"#utility.yul\":12192:12194   */\n      0x20\n        /* \"#utility.yul\":12187:12190   */\n      dup3\n        /* \"#utility.yul\":12183:12195   */\n      add\n        /* \"#utility.yul\":12176:12195   */\n      swap2\n      pop\n        /* \"#utility.yul\":12205:12280   */\n      tag_378\n        /* \"#utility.yul\":12276:12279   */\n      dup3\n        /* \"#utility.yul\":12267:12273   */\n      dup5\n        /* \"#utility.yul\":12205:12280   */\n      tag_256\n      jump\t// in\n    tag_378:\n        /* \"#utility.yul\":12305:12307   */\n      0x20\n        /* \"#utility.yul\":12300:12303   */\n      dup3\n        /* \"#utility.yul\":12296:12308   */\n      add\n        /* \"#utility.yul\":12289:12308   */\n      swap2\n      pop\n        /* \"#utility.yul\":12325:12328   */\n      dup2\n        /* \"#utility.yul\":12318:12328   */\n      swap1\n      pop\n        /* \"#utility.yul\":11796:12334   */\n      swap5\n      swap4\n      pop\n      pop\n      pop\n      pop\n      jump\t// out\n        /* \"#utility.yul\":12340:12520   */\n    tag_257:\n        /* \"#utility.yul\":12388:12465   */\n      0x4e487b7100000000000000000000000000000000000000000000000000000000\n        /* \"#utility.yul\":12385:12386   */\n      0x00\n        /* \"#utility.yul\":12378:12466   */\n      mstore\n        /* \"#utility.yul\":12485:12489   */\n      0x12\n        /* \"#utility.yul\":12482:12483   */\n      0x04\n        /* \"#utility.yul\":12475:12490   */\n      mstore\n        /* \"#utility.yul\":12509:12513   */\n      0x24\n        /* \"#utility.yul\":12506:12507   */\n      0x00\n        /* \"#utility.yul\":12499:12514   */\n      revert\n        /* \"#utility.yul\":12526:12702   */\n    tag_188:\n        /* \"#utility.yul\":12558:12559   */\n      0x00\n        /* \"#utility.yul\":12575:12595   */\n      tag_381\n        /* \"#utility.yul\":12593:12594   */\n      dup3\n        /* \"#utility.yul\":12575:12595   */\n      tag_220\n      jump\t// in\n    tag_381:\n        /* \"#utility.yul\":12570:12595   */\n      swap2\n      pop\n        /* \"#utility.yul\":12609:12629   */\n      tag_382\n        /* \"#utility.yul\":12627:12628   */\n      dup4\n        /* \"#utility.yul\":12609:12629   */\n      tag_220\n      jump\t// in\n    tag_382:\n        /* \"#utility.yul\":12604:12629   */\n      swap3\n      pop\n        /* \"#utility.yul\":12648:12649   */\n      dup3\n        /* \"#utility.yul\":12638:12673   */\n      tag_383\n      jumpi\n        /* \"#utility.yul\":12653:12671   */\n      tag_384\n      tag_257\n      jump\t// in\n    tag_384:\n        /* \"#utility.yul\":12638:12673   */\n    tag_383:\n        /* \"#utility.yul\":12694:12695   */\n      dup3\n        /* \"#utility.yul\":12691:12692   */\n      dup3\n        /* \"#utility.yul\":12687:12696   */\n      mod\n        /* \"#utility.yul\":12682:12696   */\n      swap1\n      pop\n        /* \"#utility.yul\":12526:12702   */\n      swap3\n      swap2\n      pop\n      pop\n      jump\t// out\n\n    auxdata: 0xa26469706673582212203d3df6f918a1dcfd189412938240477c6623810c7eb2c0b60233f1023c99897264736f6c63430008080033\n}\n",
				"bytecode": {
					"linkReferences": {},
					"object": "60806040527350c7a09925375438d2cee94c5c59266c6ffaaf8c6000806101000a81548173ffffffffffffffffffffffffffffffffffffffff021916908373ffffffffffffffffffffffffffffffffffffffff16021790555073dbddb8575f6bda11f1dc548a1b546463cc567c3d600160006101000a81548173ffffffffffffffffffffffffffffffffffffffff021916908373ffffffffffffffffffffffffffffffffffffffff1602179055506002600355348015620000bf57600080fd5b5033600260006101000a81548173ffffffffffffffffffffffffffffffffffffffff021916908373ffffffffffffffffffffffffffffffffffffffff16021790555060008060009054906101000a900473ffffffffffffffffffffffffffffffffffffffff1673ffffffffffffffffffffffffffffffffffffffff166348441d5f6040518163ffffffff1660e01b815260040160006040518083038186803b1580156200016b57600080fd5b505afa15801562000180573d6000803e3d6000fd5b505050506040513d6000823e3d601f19601f82011682018060405250810190620001ab9190620006a3565b90506000805b6003811015620003635760008060009054906101000a900473ffffffffffffffffffffffffffffffffffffffff1673ffffffffffffffffffffffffffffffffffffffff1663278a7f3385846003811062000210576200020f620006f4565b5b60200201516040518263ffffffff1660e01b815260040162000233919062000780565b60206040518083038186803b1580156200024c57600080fd5b505afa15801562000261573d6000803e3d6000fd5b505050506040513d601f19601f82011682018060405250810190620002879190620007e2565b60ff16905060046040518060600160405280868560038110620002af57620002ae620006f4565b5b6020020151815260200185815260200160018487620002cf91906200084d565b620002db9190620008aa565b81525090806001815401808255809150506001900390600052602060002090600302016000909190919091506000820151816000019080519060200190620003259291906200036c565b506020820151816001015560408201518160020155505080836200034a91906200084d565b92505080806200035a90620008e5565b915050620001b1565b50505062000998565b8280546200037a9062000962565b90600052602060002090601f0160209004810192826200039e5760008555620003ea565b82601f10620003b957805160ff1916838001178555620003ea565b82800160010185558215620003ea579182015b82811115620003e9578251825591602001919060010190620003cc565b5b509050620003f99190620003fd565b5090565b5b8082111562000418576000816000905550600101620003fe565b5090565b6000604051905090565b600080fd5b600080fd5b600080fd5b6000601f19601f8301169050919050565b7f4e487b7100000000000000000000000000000000000000000000000000000000600052604160045260246000fd5b620004808262000435565b810181811067ffffffffffffffff82111715620004a257620004a162000446565b5b80604052505050565b6000620004b76200041c565b9050620004c5828262000475565b919050565b600067ffffffffffffffff821115620004e857620004e762000446565b5b602082029050919050565b600080fd5b600080fd5b600067ffffffffffffffff8211156200051b576200051a62000446565b5b620005268262000435565b9050602081019050919050565b60005b838110156200055357808201518184015260208101905062000536565b8381111562000563576000848401525b50505050565b6000620005806200057a84620004fd565b620004ab565b9050828152602081018484840111156200059f576200059e620004f8565b5b620005ac84828562000533565b509392505050565b600082601f830112620005cc57620005cb62000430565b5b8151620005de84826020860162000569565b91505092915050565b6000620005fe620005f884620004ca565b620004ab565b905080602084028301858111156200061b576200061a620004f3565b5b835b818110156200066957805167ffffffffffffffff81111562000644576200064362000430565b5b808601620006538982620005b4565b855260208501945050506020810190506200061d565b5050509392505050565b600082601f8301126200068b576200068a62000430565b5b60036200069a848285620005e7565b91505092915050565b600060208284031215620006bc57620006bb62000426565b5b600082015167ffffffffffffffff811115620006dd57620006dc6200042b565b5b620006eb8482850162000673565b91505092915050565b7f4e487b7100000000000000000000000000000000000000000000000000000000600052603260045260246000fd5b600081519050919050565b600082825260208201905092915050565b60006200074c8262000723565b6200075881856200072e565b93506200076a81856020860162000533565b620007758162000435565b840191505092915050565b600060208201905081810360008301526200079c81846200073f565b905092915050565b600060ff82169050919050565b620007bc81620007a4565b8114620007c857600080fd5b50565b600081519050620007dc81620007b1565b92915050565b600060208284031215620007fb57620007fa62000426565b5b60006200080b84828501620007cb565b91505092915050565b6000819050919050565b7f4e487b7100000000000000000000000000000000000000000000000000000000600052601160045260246000fd5b60006200085a8262000814565b9150620008678362000814565b9250827fffffffffffffffffffffffffffffffffffffffffffffffffffffffffffffffff038211156200089f576200089e6200081e565b5b828201905092915050565b6000620008b78262000814565b9150620008c48362000814565b925082821015620008da57620008d96200081e565b5b828203905092915050565b6000620008f28262000814565b91507fffffffffffffffffffffffffffffffffffffffffffffffffffffffffffffffff8214156200092857620009276200081e565b5b600182019050919050565b7f4e487b7100000000000000000000000000000000000000000000000000000000600052602260045260246000fd5b600060028204905060018216806200097b57607f821691505b6020821081141562000992576200099162000933565b5b50919050565b61186480620009a86000396000f3fe608060405234801561001057600080fd5b506004361061009e5760003560e01c8063b909313811610066578063b909313814610172578063c15d3ead14610190578063d1a35ef2146101ac578063e917ec96146101de578063fc6f9468146101e85761009e565b806306cd309b146100a35780636fd3d9e2146100c15780637259e0f8146100f35780638f84aa0914610124578063addb2cc014610142575b600080fd5b6100ab610206565b6040516100b8919061117f565b60405180910390f35b6100db60048036038101906100d691906111cb565b61020c565b6040516100ea93929190611291565b60405180910390f35b61010d600480360381019061010891906111cb565b6102ce565b60405161011b929190611310565b60405180910390f35b61012c610322565b6040516101399190611339565b60405180910390f35b61015c60048036038101906101579190611380565b610348565b60405161016991906114b9565b60405180910390f35b61017a6105cd565b60405161018791906114b9565b60405180910390f35b6101aa60048036038101906101a591906111cb565b610850565b005b6101c660048036038101906101c191906111cb565b610942565b6040516101d5939291906114db565b60405180910390f35b6101e6610a24565b005b6101f0610ecd565b6040516101fd9190611339565b60405180910390f35b60035481565b6004818154811061021c57600080fd5b906000526020600020906003020160009150905080600001805461023f90611548565b80601f016020809104026020016040519081016040528092919081815260200182805461026b90611548565b80156102b85780601f1061028d576101008083540402835291602001916102b8565b820191906000526020600020905b81548152906001019060200180831161029b57829003601f168201915b5050505050908060010154908060020154905083565b600581815481106102de57600080fd5b90600052602060002090600202016000915090508060000160009054906101000a900473ffffffffffffffffffffffffffffffffffffffff16908060010154905082565b600160009054906101000a900473ffffffffffffffffffffffffffffffffffffffff1681565b60606000805b6006805490508110156103f6578373ffffffffffffffffffffffffffffffffffffffff16600682815481106103865761038561157a565b5b906000526020600020906003020160000160009054906101000a900473ffffffffffffffffffffffffffffffffffffffff1673ffffffffffffffffffffffffffffffffffffffff1614156103e35781806103df906115d8565b9250505b80806103ee906115d8565b91505061034e565b5060008167ffffffffffffffff81111561041357610412611621565b5b60405190808252806020026020018201604052801561044657816020015b60608152602001906001900390816104315790505b5090506000805b6006805490508110156105c1578573ffffffffffffffffffffffffffffffffffffffff16600682815481106104855761048461157a565b5b906000526020600020906003020160000160009054906101000a900473ffffffffffffffffffffffffffffffffffffffff1673ffffffffffffffffffffffffffffffffffffffff1614156105ae57600681815481106104e7576104e661157a565b5b9060005260206000209060030201600201805461050390611548565b80601f016020809104026020016040519081016040528092919081815260200182805461052f90611548565b801561057c5780601f106105515761010080835404028352916020019161057c565b820191906000526020600020905b81548152906001019060200180831161055f57829003601f168201915b50505050508383815181106105945761059361157a565b5b602002602001018190525081806105aa906115d8565b9250505b80806105b9906115d8565b91505061044d565b50819350505050919050565b60606000805b60068054905081101561067b573373ffffffffffffffffffffffffffffffffffffffff166006828154811061060b5761060a61157a565b5b906000526020600020906003020160000160009054906101000a900473ffffffffffffffffffffffffffffffffffffffff1673ffffffffffffffffffffffffffffffffffffffff161415610668578180610664906115d8565b9250505b8080610673906115d8565b9150506105d3565b5060008167ffffffffffffffff81111561069857610697611621565b5b6040519080825280602002602001820160405280156106cb57816020015b60608152602001906001900390816106b65790505b5090506000805b600680549050811015610846573373ffffffffffffffffffffffffffffffffffffffff166006828154811061070a5761070961157a565b5b906000526020600020906003020160000160009054906101000a900473ffffffffffffffffffffffffffffffffffffffff1673ffffffffffffffffffffffffffffffffffffffff161415610833576006818154811061076c5761076b61157a565b5b9060005260206000209060030201600201805461078890611548565b80601f01602080910402602001604051908101604052809291908181526020018280546107b490611548565b80156108015780601f106107d657610100808354040283529160200191610801565b820191906000526020600020905b8154815290600101906020018083116107e457829003601f168201915b50505050508383815181106108195761081861157a565b5b6020026020010181905250818061082f906115d8565b9250505b808061083e906115d8565b9150506106d2565b5081935050505090565b600260009054906101000a900473ffffffffffffffffffffffffffffffffffffffff1673ffffffffffffffffffffffffffffffffffffffff163373ffffffffffffffffffffffffffffffffffffffff1614806108f95750600160009054906101000a900473ffffffffffffffffffffffffffffffffffffffff1673ffffffffffffffffffffffffffffffffffffffff163373ffffffffffffffffffffffffffffffffffffffff16145b610938576040517f08c379a000000000000000000000000000000000000000000000000000000000815260040161092f9061169c565b60405180910390fd5b8060038190555050565b6006818154811061095257600080fd5b90600052602060002090600302016000915090508060000160009054906101000a900473ffffffffffffffffffffffffffffffffffffffff16908060010154908060020180546109a190611548565b80601f01602080910402602001604051908101604052809291908181526020018280546109cd90611548565b8015610a1a5780601f106109ef57610100808354040283529160200191610a1a565b820191906000526020600020905b8154815290600101906020018083116109fd57829003601f168201915b5050505050905083565b6000805b60001515821515148015610a4157506000600580549050115b8015610a51575060058054905081105b15610c79573373ffffffffffffffffffffffffffffffffffffffff1660058281548110610a8157610a8061157a565b5b906000526020600020906002020160000160009054906101000a900473ffffffffffffffffffffffffffffffffffffffff1673ffffffffffffffffffffffffffffffffffffffff161415610c66576001915060058181548110610ae757610ae661157a565b5b90600052602060002090600202016001016000815480929190610b09906115d8565b919050555060035460058281548110610b2557610b2461157a565b5b9060005260206000209060020201600101541115610b78576040517f08c379a0000000000000000000000000000000000000000000000000000000008152600401610b6f90611708565b60405180910390fd5b6000610b82610ef3565b90506000610b8f82610f39565b9050600060405180606001604052803373ffffffffffffffffffffffffffffffffffffffff168152602001848152602001838152509050600681908060018154018082558091505060019003906000526020600020906003020160009091909190915060008201518160000160006101000a81548173ffffffffffffffffffffffffffffffffffffffff021916908373ffffffffffffffffffffffffffffffffffffffff160217905550602082015181600101556040820151816002019080519060200190610c5f9291906110c3565b5050505050505b8080610c71906115d8565b915050610a28565b60008054906101000a900473ffffffffffffffffffffffffffffffffffffffff1673ffffffffffffffffffffffffffffffffffffffff166340d097c3600160009054906101000a900473ffffffffffffffffffffffffffffffffffffffff166040518263ffffffff1660e01b8152600401610cf49190611339565b600060405180830381600087803b158015610d0e57600080fd5b505af1158015610d22573d6000803e3d6000fd5b5050505081610ec9576000610d35610ef3565b90506000610d4282610f39565b9050600060405180604001604052803373ffffffffffffffffffffffffffffffffffffffff16815260200160018152509050600581908060018154018082558091505060019003906000526020600020906002020160009091909190915060008201518160000160006101000a81548173ffffffffffffffffffffffffffffffffffffffff021916908373ffffffffffffffffffffffffffffffffffffffff160217905550602082015181600101555050600060405180606001604052803373ffffffffffffffffffffffffffffffffffffffff168152602001858152602001848152509050600681908060018154018082558091505060019003906000526020600020906003020160009091909190915060008201518160000160006101000a81548173ffffffffffffffffffffffffffffffffffffffff021916908373ffffffffffffffffffffffffffffffffffffffff160217905550602082015181600101556040820151816002019080519060200190610ec19291906110c3565b505050505050505b5050565b600260009054906101000a900473ffffffffffffffffffffffffffffffffffffffff1681565b6000806064334244604051602001610f0d93929190611791565b6040516020818303038152906040528051906020012060001c610f3091906117fd565b90508091505090565b60606000805b81158015610f51575060048054905081105b156110835760048181548110610f6a57610f6961157a565b5b9060005260206000209060030201600101548410158015610fb0575060048181548110610f9a57610f9961157a565b5b9060005260206000209060030201600201548411155b15611070576001915060048181548110610fcd57610fcc61157a565b5b90600052602060002090600302016000018054610fe990611548565b80601f016020809104026020016040519081016040528092919081815260200182805461101590611548565b80156110625780601f1061103757610100808354040283529160200191611062565b820191906000526020600020905b81548152906001019060200180831161104557829003601f168201915b5050505050925050506110be565b808061107b906115d8565b915050610f3f565b6040518060400160405280600981526020017f4e6f7420466f756e640000000000000000000000000000000000000000000000815250925050505b919050565b8280546110cf90611548565b90600052602060002090601f0160209004810192826110f15760008555611138565b82601f1061110a57805160ff1916838001178555611138565b82800160010185558215611138579182015b8281111561113757825182559160200191906001019061111c565b5b5090506111459190611149565b5090565b5b8082111561116257600081600090555060010161114a565b5090565b6000819050919050565b61117981611166565b82525050565b60006020820190506111946000830184611170565b92915050565b600080fd5b6111a881611166565b81146111b357600080fd5b50565b6000813590506111c58161119f565b92915050565b6000602082840312156111e1576111e061119a565b5b60006111ef848285016111b6565b91505092915050565b600081519050919050565b600082825260208201905092915050565b60005b83811015611232578082015181840152602081019050611217565b83811115611241576000848401525b50505050565b6000601f19601f8301169050919050565b6000611263826111f8565b61126d8185611203565b935061127d818560208601611214565b61128681611247565b840191505092915050565b600060608201905081810360008301526112ab8186611258565b90506112ba6020830185611170565b6112c76040830184611170565b949350505050565b600073ffffffffffffffffffffffffffffffffffffffff82169050919050565b60006112fa826112cf565b9050919050565b61130a816112ef565b82525050565b60006040820190506113256000830185611301565b6113326020830184611170565b9392505050565b600060208201905061134e6000830184611301565b92915050565b61135d816112ef565b811461136857600080fd5b50565b60008135905061137a81611354565b92915050565b6000602082840312156113965761139561119a565b5b60006113a48482850161136b565b91505092915050565b600081519050919050565b600082825260208201905092915050565b6000819050602082019050919050565b600082825260208201905092915050565b60006113f5826111f8565b6113ff81856113d9565b935061140f818560208601611214565b61141881611247565b840191505092915050565b600061142f83836113ea565b905092915050565b6000602082019050919050565b600061144f826113ad565b61145981856113b8565b93508360208202850161146b856113c9565b8060005b858110156114a757848403895281516114888582611423565b945061149383611437565b925060208a0199505060018101905061146f565b50829750879550505050505092915050565b600060208201905081810360008301526114d38184611444565b905092915050565b60006060820190506114f06000830186611301565b6114fd6020830185611170565b818103604083015261150f8184611258565b9050949350505050565b7f4e487b7100000000000000000000000000000000000000000000000000000000600052602260045260246000fd5b6000600282049050600182168061156057607f821691505b6020821081141561157457611573611519565b5b50919050565b7f4e487b7100000000000000000000000000000000000000000000000000000000600052603260045260246000fd5b7f4e487b7100000000000000000000000000000000000000000000000000000000600052601160045260246000fd5b60006115e382611166565b91507fffffffffffffffffffffffffffffffffffffffffffffffffffffffffffffffff821415611616576116156115a9565b5b600182019050919050565b7f4e487b7100000000000000000000000000000000000000000000000000000000600052604160045260246000fd5b7f4e6f7420417574686f72697a65642c2041646d696e204f6e6c79000000000000600082015250565b6000611686601a83611203565b915061169182611650565b602082019050919050565b600060208201905081810360008301526116b581611679565b9050919050565b7f4f7574206f66204c696d69740000000000000000000000000000000000000000600082015250565b60006116f2600c83611203565b91506116fd826116bc565b602082019050919050565b60006020820190508181036000830152611721816116e5565b9050919050565b60008160601b9050919050565b600061174082611728565b9050919050565b600061175282611735565b9050919050565b61176a611765826112ef565b611747565b82525050565b6000819050919050565b61178b61178682611166565b611770565b82525050565b600061179d8286611759565b6014820191506117ad828561177a565b6020820191506117bd828461177a565b602082019150819050949350505050565b7f4e487b7100000000000000000000000000000000000000000000000000000000600052601260045260246000fd5b600061180882611166565b915061181383611166565b925082611823576118226117ce565b5b82820690509291505056fea26469706673582212203d3df6f918a1dcfd189412938240477c6623810c7eb2c0b60233f1023c99897264736f6c63430008080033",
					"opcodes": "PUSH1 0x80 PUSH1 0x40 MSTORE PUSH20 0x50C7A09925375438D2CEE94C5C59266C6FFAAF8C PUSH1 0x0 DUP1 PUSH2 0x100 EXP DUP2 SLOAD DUP2 PUSH20 0xFFFFFFFFFFFFFFFFFFFFFFFFFFFFFFFFFFFFFFFF MUL NOT AND SWAP1 DUP4 PUSH20 0xFFFFFFFFFFFFFFFFFFFFFFFFFFFFFFFFFFFFFFFF AND MUL OR SWAP1 SSTORE POP PUSH20 0xDBDDB8575F6BDA11F1DC548A1B546463CC567C3D PUSH1 0x1 PUSH1 0x0 PUSH2 0x100 EXP DUP2 SLOAD DUP2 PUSH20 0xFFFFFFFFFFFFFFFFFFFFFFFFFFFFFFFFFFFFFFFF MUL NOT AND SWAP1 DUP4 PUSH20 0xFFFFFFFFFFFFFFFFFFFFFFFFFFFFFFFFFFFFFFFF AND MUL OR SWAP1 SSTORE POP PUSH1 0x2 PUSH1 0x3 SSTORE CALLVALUE DUP1 ISZERO PUSH3 0xBF JUMPI PUSH1 0x0 DUP1 REVERT JUMPDEST POP CALLER PUSH1 0x2 PUSH1 0x0 PUSH2 0x100 EXP DUP2 SLOAD DUP2 PUSH20 0xFFFFFFFFFFFFFFFFFFFFFFFFFFFFFFFFFFFFFFFF MUL NOT AND SWAP1 DUP4 PUSH20 0xFFFFFFFFFFFFFFFFFFFFFFFFFFFFFFFFFFFFFFFF AND MUL OR SWAP1 SSTORE POP PUSH1 0x0 DUP1 PUSH1 0x0 SWAP1 SLOAD SWAP1 PUSH2 0x100 EXP SWAP1 DIV PUSH20 0xFFFFFFFFFFFFFFFFFFFFFFFFFFFFFFFFFFFFFFFF AND PUSH20 0xFFFFFFFFFFFFFFFFFFFFFFFFFFFFFFFFFFFFFFFF AND PUSH4 0x48441D5F PUSH1 0x40 MLOAD DUP2 PUSH4 0xFFFFFFFF AND PUSH1 0xE0 SHL DUP2 MSTORE PUSH1 0x4 ADD PUSH1 0x0 PUSH1 0x40 MLOAD DUP1 DUP4 SUB DUP2 DUP7 DUP1 EXTCODESIZE ISZERO DUP1 ISZERO PUSH3 0x16B JUMPI PUSH1 0x0 DUP1 REVERT JUMPDEST POP GAS STATICCALL ISZERO DUP1 ISZERO PUSH3 0x180 JUMPI RETURNDATASIZE PUSH1 0x0 DUP1 RETURNDATACOPY RETURNDATASIZE PUSH1 0x0 REVERT JUMPDEST POP POP POP POP PUSH1 0x40 MLOAD RETURNDATASIZE PUSH1 0x0 DUP3 RETURNDATACOPY RETURNDATASIZE PUSH1 0x1F NOT PUSH1 0x1F DUP3 ADD AND DUP3 ADD DUP1 PUSH1 0x40 MSTORE POP DUP2 ADD SWAP1 PUSH3 0x1AB SWAP2 SWAP1 PUSH3 0x6A3 JUMP JUMPDEST SWAP1 POP PUSH1 0x0 DUP1 JUMPDEST PUSH1 0x3 DUP2 LT ISZERO PUSH3 0x363 JUMPI PUSH1 0x0 DUP1 PUSH1 0x0 SWAP1 SLOAD SWAP1 PUSH2 0x100 EXP SWAP1 DIV PUSH20 0xFFFFFFFFFFFFFFFFFFFFFFFFFFFFFFFFFFFFFFFF AND PUSH20 0xFFFFFFFFFFFFFFFFFFFFFFFFFFFFFFFFFFFFFFFF AND PUSH4 0x278A7F33 DUP6 DUP5 PUSH1 0x3 DUP2 LT PUSH3 0x210 JUMPI PUSH3 0x20F PUSH3 0x6F4 JUMP JUMPDEST JUMPDEST PUSH1 0x20 MUL ADD MLOAD PUSH1 0x40 MLOAD DUP3 PUSH4 0xFFFFFFFF AND PUSH1 0xE0 SHL DUP2 MSTORE PUSH1 0x4 ADD PUSH3 0x233 SWAP2 SWAP1 PUSH3 0x780 JUMP JUMPDEST PUSH1 0x20 PUSH1 0x40 MLOAD DUP1 DUP4 SUB DUP2 DUP7 DUP1 EXTCODESIZE ISZERO DUP1 ISZERO PUSH3 0x24C JUMPI PUSH1 0x0 DUP1 REVERT JUMPDEST POP GAS STATICCALL ISZERO DUP1 ISZERO PUSH3 0x261 JUMPI RETURNDATASIZE PUSH1 0x0 DUP1 RETURNDATACOPY RETURNDATASIZE PUSH1 0x0 REVERT JUMPDEST POP POP POP POP PUSH1 0x40 MLOAD RETURNDATASIZE PUSH1 0x1F NOT PUSH1 0x1F DUP3 ADD AND DUP3 ADD DUP1 PUSH1 0x40 MSTORE POP DUP2 ADD SWAP1 PUSH3 0x287 SWAP2 SWAP1 PUSH3 0x7E2 JUMP JUMPDEST PUSH1 0xFF AND SWAP1 POP PUSH1 0x4 PUSH1 0x40 MLOAD DUP1 PUSH1 0x60 ADD PUSH1 0x40 MSTORE DUP1 DUP7 DUP6 PUSH1 0x3 DUP2 LT PUSH3 0x2AF JUMPI PUSH3 0x2AE PUSH3 0x6F4 JUMP JUMPDEST JUMPDEST PUSH1 0x20 MUL ADD MLOAD DUP2 MSTORE PUSH1 0x20 ADD DUP6 DUP2 MSTORE PUSH1 0x20 ADD PUSH1 0x1 DUP5 DUP8 PUSH3 0x2CF SWAP2 SWAP1 PUSH3 0x84D JUMP JUMPDEST PUSH3 0x2DB SWAP2 SWAP1 PUSH3 0x8AA JUMP JUMPDEST DUP2 MSTORE POP SWAP1 DUP1 PUSH1 0x1 DUP2 SLOAD ADD DUP1 DUP3 SSTORE DUP1 SWAP2 POP POP PUSH1 0x1 SWAP1 SUB SWAP1 PUSH1 0x0 MSTORE PUSH1 0x20 PUSH1 0x0 KECCAK256 SWAP1 PUSH1 0x3 MUL ADD PUSH1 0x0 SWAP1 SWAP2 SWAP1 SWAP2 SWAP1 SWAP2 POP PUSH1 0x0 DUP3 ADD MLOAD DUP2 PUSH1 0x0 ADD SWAP1 DUP1 MLOAD SWAP1 PUSH1 0x20 ADD SWAP1 PUSH3 0x325 SWAP3 SWAP2 SWAP1 PUSH3 0x36C JUMP JUMPDEST POP PUSH1 0x20 DUP3 ADD MLOAD DUP2 PUSH1 0x1 ADD SSTORE PUSH1 0x40 DUP3 ADD MLOAD DUP2 PUSH1 0x2 ADD SSTORE POP POP DUP1 DUP4 PUSH3 0x34A SWAP2 SWAP1 PUSH3 0x84D JUMP JUMPDEST SWAP3 POP POP DUP1 DUP1 PUSH3 0x35A SWAP1 PUSH3 0x8E5 JUMP JUMPDEST SWAP2 POP POP PUSH3 0x1B1 JUMP JUMPDEST POP POP POP PUSH3 0x998 JUMP JUMPDEST DUP3 DUP1 SLOAD PUSH3 0x37A SWAP1 PUSH3 0x962 JUMP JUMPDEST SWAP1 PUSH1 0x0 MSTORE PUSH1 0x20 PUSH1 0x0 KECCAK256 SWAP1 PUSH1 0x1F ADD PUSH1 0x20 SWAP1 DIV DUP2 ADD SWAP3 DUP3 PUSH3 0x39E JUMPI PUSH1 0x0 DUP6 SSTORE PUSH3 0x3EA JUMP JUMPDEST DUP3 PUSH1 0x1F LT PUSH3 0x3B9 JUMPI DUP1 MLOAD PUSH1 0xFF NOT AND DUP4 DUP1 ADD OR DUP6 SSTORE PUSH3 0x3EA JUMP JUMPDEST DUP3 DUP1 ADD PUSH1 0x1 ADD DUP6 SSTORE DUP3 ISZERO PUSH3 0x3EA JUMPI SWAP2 DUP3 ADD JUMPDEST DUP3 DUP2 GT ISZERO PUSH3 0x3E9 JUMPI DUP3 MLOAD DUP3 SSTORE SWAP2 PUSH1 0x20 ADD SWAP2 SWAP1 PUSH1 0x1 ADD SWAP1 PUSH3 0x3CC JUMP JUMPDEST JUMPDEST POP SWAP1 POP PUSH3 0x3F9 SWAP2 SWAP1 PUSH3 0x3FD JUMP JUMPDEST POP SWAP1 JUMP JUMPDEST JUMPDEST DUP1 DUP3 GT ISZERO PUSH3 0x418 JUMPI PUSH1 0x0 DUP2 PUSH1 0x0 SWAP1 SSTORE POP PUSH1 0x1 ADD PUSH3 0x3FE JUMP JUMPDEST POP SWAP1 JUMP JUMPDEST PUSH1 0x0 PUSH1 0x40 MLOAD SWAP1 POP SWAP1 JUMP JUMPDEST PUSH1 0x0 DUP1 REVERT JUMPDEST PUSH1 0x0 DUP1 REVERT JUMPDEST PUSH1 0x0 DUP1 REVERT JUMPDEST PUSH1 0x0 PUSH1 0x1F NOT PUSH1 0x1F DUP4 ADD AND SWAP1 POP SWAP2 SWAP1 POP JUMP JUMPDEST PUSH32 0x4E487B7100000000000000000000000000000000000000000000000000000000 PUSH1 0x0 MSTORE PUSH1 0x41 PUSH1 0x4 MSTORE PUSH1 0x24 PUSH1 0x0 REVERT JUMPDEST PUSH3 0x480 DUP3 PUSH3 0x435 JUMP JUMPDEST DUP2 ADD DUP2 DUP2 LT PUSH8 0xFFFFFFFFFFFFFFFF DUP3 GT OR ISZERO PUSH3 0x4A2 JUMPI PUSH3 0x4A1 PUSH3 0x446 JUMP JUMPDEST JUMPDEST DUP1 PUSH1 0x40 MSTORE POP POP POP JUMP JUMPDEST PUSH1 0x0 PUSH3 0x4B7 PUSH3 0x41C JUMP JUMPDEST SWAP1 POP PUSH3 0x4C5 DUP3 DUP3 PUSH3 0x475 JUMP JUMPDEST SWAP2 SWAP1 POP JUMP JUMPDEST PUSH1 0x0 PUSH8 0xFFFFFFFFFFFFFFFF DUP3 GT ISZERO PUSH3 0x4E8 JUMPI PUSH3 0x4E7 PUSH3 0x446 JUMP JUMPDEST JUMPDEST PUSH1 0x20 DUP3 MUL SWAP1 POP SWAP2 SWAP1 POP JUMP JUMPDEST PUSH1 0x0 DUP1 REVERT JUMPDEST PUSH1 0x0 DUP1 REVERT JUMPDEST PUSH1 0x0 PUSH8 0xFFFFFFFFFFFFFFFF DUP3 GT ISZERO PUSH3 0x51B JUMPI PUSH3 0x51A PUSH3 0x446 JUMP JUMPDEST JUMPDEST PUSH3 0x526 DUP3 PUSH3 0x435 JUMP JUMPDEST SWAP1 POP PUSH1 0x20 DUP2 ADD SWAP1 POP SWAP2 SWAP1 POP JUMP JUMPDEST PUSH1 0x0 JUMPDEST DUP4 DUP2 LT ISZERO PUSH3 0x553 JUMPI DUP1 DUP3 ADD MLOAD DUP2 DUP5 ADD MSTORE PUSH1 0x20 DUP2 ADD SWAP1 POP PUSH3 0x536 JUMP JUMPDEST DUP4 DUP2 GT ISZERO PUSH3 0x563 JUMPI PUSH1 0x0 DUP5 DUP5 ADD MSTORE JUMPDEST POP POP POP POP JUMP JUMPDEST PUSH1 0x0 PUSH3 0x580 PUSH3 0x57A DUP5 PUSH3 0x4FD JUMP JUMPDEST PUSH3 0x4AB JUMP JUMPDEST SWAP1 POP DUP3 DUP2 MSTORE PUSH1 0x20 DUP2 ADD DUP5 DUP5 DUP5 ADD GT ISZERO PUSH3 0x59F JUMPI PUSH3 0x59E PUSH3 0x4F8 JUMP JUMPDEST JUMPDEST PUSH3 0x5AC DUP5 DUP3 DUP6 PUSH3 0x533 JUMP JUMPDEST POP SWAP4 SWAP3 POP POP POP JUMP JUMPDEST PUSH1 0x0 DUP3 PUSH1 0x1F DUP4 ADD SLT PUSH3 0x5CC JUMPI PUSH3 0x5CB PUSH3 0x430 JUMP JUMPDEST JUMPDEST DUP2 MLOAD PUSH3 0x5DE DUP5 DUP3 PUSH1 0x20 DUP7 ADD PUSH3 0x569 JUMP JUMPDEST SWAP2 POP POP SWAP3 SWAP2 POP POP JUMP JUMPDEST PUSH1 0x0 PUSH3 0x5FE PUSH3 0x5F8 DUP5 PUSH3 0x4CA JUMP JUMPDEST PUSH3 0x4AB JUMP JUMPDEST SWAP1 POP DUP1 PUSH1 0x20 DUP5 MUL DUP4 ADD DUP6 DUP2 GT ISZERO PUSH3 0x61B JUMPI PUSH3 0x61A PUSH3 0x4F3 JUMP JUMPDEST JUMPDEST DUP4 JUMPDEST DUP2 DUP2 LT ISZERO PUSH3 0x669 JUMPI DUP1 MLOAD PUSH8 0xFFFFFFFFFFFFFFFF DUP2 GT ISZERO PUSH3 0x644 JUMPI PUSH3 0x643 PUSH3 0x430 JUMP JUMPDEST JUMPDEST DUP1 DUP7 ADD PUSH3 0x653 DUP10 DUP3 PUSH3 0x5B4 JUMP JUMPDEST DUP6 MSTORE PUSH1 0x20 DUP6 ADD SWAP5 POP POP POP PUSH1 0x20 DUP2 ADD SWAP1 POP PUSH3 0x61D JUMP JUMPDEST POP POP POP SWAP4 SWAP3 POP POP POP JUMP JUMPDEST PUSH1 0x0 DUP3 PUSH1 0x1F DUP4 ADD SLT PUSH3 0x68B JUMPI PUSH3 0x68A PUSH3 0x430 JUMP JUMPDEST JUMPDEST PUSH1 0x3 PUSH3 0x69A DUP5 DUP3 DUP6 PUSH3 0x5E7 JUMP JUMPDEST SWAP2 POP POP SWAP3 SWAP2 POP POP JUMP JUMPDEST PUSH1 0x0 PUSH1 0x20 DUP3 DUP5 SUB SLT ISZERO PUSH3 0x6BC JUMPI PUSH3 0x6BB PUSH3 0x426 JUMP JUMPDEST JUMPDEST PUSH1 0x0 DUP3 ADD MLOAD PUSH8 0xFFFFFFFFFFFFFFFF DUP2 GT ISZERO PUSH3 0x6DD JUMPI PUSH3 0x6DC PUSH3 0x42B JUMP JUMPDEST JUMPDEST PUSH3 0x6EB DUP5 DUP3 DUP6 ADD PUSH3 0x673 JUMP JUMPDEST SWAP2 POP POP SWAP3 SWAP2 POP POP JUMP JUMPDEST PUSH32 0x4E487B7100000000000000000000000000000000000000000000000000000000 PUSH1 0x0 MSTORE PUSH1 0x32 PUSH1 0x4 MSTORE PUSH1 0x24 PUSH1 0x0 REVERT JUMPDEST PUSH1 0x0 DUP2 MLOAD SWAP1 POP SWAP2 SWAP1 POP JUMP JUMPDEST PUSH1 0x0 DUP3 DUP3 MSTORE PUSH1 0x20 DUP3 ADD SWAP1 POP SWAP3 SWAP2 POP POP JUMP JUMPDEST PUSH1 0x0 PUSH3 0x74C DUP3 PUSH3 0x723 JUMP JUMPDEST PUSH3 0x758 DUP2 DUP6 PUSH3 0x72E JUMP JUMPDEST SWAP4 POP PUSH3 0x76A DUP2 DUP6 PUSH1 0x20 DUP7 ADD PUSH3 0x533 JUMP JUMPDEST PUSH3 0x775 DUP2 PUSH3 0x435 JUMP JUMPDEST DUP5 ADD SWAP2 POP POP SWAP3 SWAP2 POP POP JUMP JUMPDEST PUSH1 0x0 PUSH1 0x20 DUP3 ADD SWAP1 POP DUP2 DUP2 SUB PUSH1 0x0 DUP4 ADD MSTORE PUSH3 0x79C DUP2 DUP5 PUSH3 0x73F JUMP JUMPDEST SWAP1 POP SWAP3 SWAP2 POP POP JUMP JUMPDEST PUSH1 0x0 PUSH1 0xFF DUP3 AND SWAP1 POP SWAP2 SWAP1 POP JUMP JUMPDEST PUSH3 0x7BC DUP2 PUSH3 0x7A4 JUMP JUMPDEST DUP2 EQ PUSH3 0x7C8 JUMPI PUSH1 0x0 DUP1 REVERT JUMPDEST POP JUMP JUMPDEST PUSH1 0x0 DUP2 MLOAD SWAP1 POP PUSH3 0x7DC DUP2 PUSH3 0x7B1 JUMP JUMPDEST SWAP3 SWAP2 POP POP JUMP JUMPDEST PUSH1 0x0 PUSH1 0x20 DUP3 DUP5 SUB SLT ISZERO PUSH3 0x7FB JUMPI PUSH3 0x7FA PUSH3 0x426 JUMP JUMPDEST JUMPDEST PUSH1 0x0 PUSH3 0x80B DUP5 DUP3 DUP6 ADD PUSH3 0x7CB JUMP JUMPDEST SWAP2 POP POP SWAP3 SWAP2 POP POP JUMP JUMPDEST PUSH1 0x0 DUP2 SWAP1 POP SWAP2 SWAP1 POP JUMP JUMPDEST PUSH32 0x4E487B7100000000000000000000000000000000000000000000000000000000 PUSH1 0x0 MSTORE PUSH1 0x11 PUSH1 0x4 MSTORE PUSH1 0x24 PUSH1 0x0 REVERT JUMPDEST PUSH1 0x0 PUSH3 0x85A DUP3 PUSH3 0x814 JUMP JUMPDEST SWAP2 POP PUSH3 0x867 DUP4 PUSH3 0x814 JUMP JUMPDEST SWAP3 POP DUP3 PUSH32 0xFFFFFFFFFFFFFFFFFFFFFFFFFFFFFFFFFFFFFFFFFFFFFFFFFFFFFFFFFFFFFFFF SUB DUP3 GT ISZERO PUSH3 0x89F JUMPI PUSH3 0x89E PUSH3 0x81E JUMP JUMPDEST JUMPDEST DUP3 DUP3 ADD SWAP1 POP SWAP3 SWAP2 POP POP JUMP JUMPDEST PUSH1 0x0 PUSH3 0x8B7 DUP3 PUSH3 0x814 JUMP JUMPDEST SWAP2 POP PUSH3 0x8C4 DUP4 PUSH3 0x814 JUMP JUMPDEST SWAP3 POP DUP3 DUP3 LT ISZERO PUSH3 0x8DA JUMPI PUSH3 0x8D9 PUSH3 0x81E JUMP JUMPDEST JUMPDEST DUP3 DUP3 SUB SWAP1 POP SWAP3 SWAP2 POP POP JUMP JUMPDEST PUSH1 0x0 PUSH3 0x8F2 DUP3 PUSH3 0x814 JUMP JUMPDEST SWAP2 POP PUSH32 0xFFFFFFFFFFFFFFFFFFFFFFFFFFFFFFFFFFFFFFFFFFFFFFFFFFFFFFFFFFFFFFFF DUP3 EQ ISZERO PUSH3 0x928 JUMPI PUSH3 0x927 PUSH3 0x81E JUMP JUMPDEST JUMPDEST PUSH1 0x1 DUP3 ADD SWAP1 POP SWAP2 SWAP1 POP JUMP JUMPDEST PUSH32 0x4E487B7100000000000000000000000000000000000000000000000000000000 PUSH1 0x0 MSTORE PUSH1 0x22 PUSH1 0x4 MSTORE PUSH1 0x24 PUSH1 0x0 REVERT JUMPDEST PUSH1 0x0 PUSH1 0x2 DUP3 DIV SWAP1 POP PUSH1 0x1 DUP3 AND DUP1 PUSH3 0x97B JUMPI PUSH1 0x7F DUP3 AND SWAP2 POP JUMPDEST PUSH1 0x20 DUP3 LT DUP2 EQ ISZERO PUSH3 0x992 JUMPI PUSH3 0x991 PUSH3 0x933 JUMP JUMPDEST JUMPDEST POP SWAP2 SWAP1 POP JUMP JUMPDEST PUSH2 0x1864 DUP1 PUSH3 0x9A8 PUSH1 0x0 CODECOPY PUSH1 0x0 RETURN INVALID PUSH1 0x80 PUSH1 0x40 MSTORE CALLVALUE DUP1 ISZERO PUSH2 0x10 JUMPI PUSH1 0x0 DUP1 REVERT JUMPDEST POP PUSH1 0x4 CALLDATASIZE LT PUSH2 0x9E JUMPI PUSH1 0x0 CALLDATALOAD PUSH1 0xE0 SHR DUP1 PUSH4 0xB9093138 GT PUSH2 0x66 JUMPI DUP1 PUSH4 0xB9093138 EQ PUSH2 0x172 JUMPI DUP1 PUSH4 0xC15D3EAD EQ PUSH2 0x190 JUMPI DUP1 PUSH4 0xD1A35EF2 EQ PUSH2 0x1AC JUMPI DUP1 PUSH4 0xE917EC96 EQ PUSH2 0x1DE JUMPI DUP1 PUSH4 0xFC6F9468 EQ PUSH2 0x1E8 JUMPI PUSH2 0x9E JUMP JUMPDEST DUP1 PUSH4 0x6CD309B EQ PUSH2 0xA3 JUMPI DUP1 PUSH4 0x6FD3D9E2 EQ PUSH2 0xC1 JUMPI DUP1 PUSH4 0x7259E0F8 EQ PUSH2 0xF3 JUMPI DUP1 PUSH4 0x8F84AA09 EQ PUSH2 0x124 JUMPI DUP1 PUSH4 0xADDB2CC0 EQ PUSH2 0x142 JUMPI JUMPDEST PUSH1 0x0 DUP1 REVERT JUMPDEST PUSH2 0xAB PUSH2 0x206 JUMP JUMPDEST PUSH1 0x40 MLOAD PUSH2 0xB8 SWAP2 SWAP1 PUSH2 0x117F JUMP JUMPDEST PUSH1 0x40 MLOAD DUP1 SWAP2 SUB SWAP1 RETURN JUMPDEST PUSH2 0xDB PUSH1 0x4 DUP1 CALLDATASIZE SUB DUP2 ADD SWAP1 PUSH2 0xD6 SWAP2 SWAP1 PUSH2 0x11CB JUMP JUMPDEST PUSH2 0x20C JUMP JUMPDEST PUSH1 0x40 MLOAD PUSH2 0xEA SWAP4 SWAP3 SWAP2 SWAP1 PUSH2 0x1291 JUMP JUMPDEST PUSH1 0x40 MLOAD DUP1 SWAP2 SUB SWAP1 RETURN JUMPDEST PUSH2 0x10D PUSH1 0x4 DUP1 CALLDATASIZE SUB DUP2 ADD SWAP1 PUSH2 0x108 SWAP2 SWAP1 PUSH2 0x11CB JUMP JUMPDEST PUSH2 0x2CE JUMP JUMPDEST PUSH1 0x40 MLOAD PUSH2 0x11B SWAP3 SWAP2 SWAP1 PUSH2 0x1310 JUMP JUMPDEST PUSH1 0x40 MLOAD DUP1 SWAP2 SUB SWAP1 RETURN JUMPDEST PUSH2 0x12C PUSH2 0x322 JUMP JUMPDEST PUSH1 0x40 MLOAD PUSH2 0x139 SWAP2 SWAP1 PUSH2 0x1339 JUMP JUMPDEST PUSH1 0x40 MLOAD DUP1 SWAP2 SUB SWAP1 RETURN JUMPDEST PUSH2 0x15C PUSH1 0x4 DUP1 CALLDATASIZE SUB DUP2 ADD SWAP1 PUSH2 0x157 SWAP2 SWAP1 PUSH2 0x1380 JUMP JUMPDEST PUSH2 0x348 JUMP JUMPDEST PUSH1 0x40 MLOAD PUSH2 0x169 SWAP2 SWAP1 PUSH2 0x14B9 JUMP JUMPDEST PUSH1 0x40 MLOAD DUP1 SWAP2 SUB SWAP1 RETURN JUMPDEST PUSH2 0x17A PUSH2 0x5CD JUMP JUMPDEST PUSH1 0x40 MLOAD PUSH2 0x187 SWAP2 SWAP1 PUSH2 0x14B9 JUMP JUMPDEST PUSH1 0x40 MLOAD DUP1 SWAP2 SUB SWAP1 RETURN JUMPDEST PUSH2 0x1AA PUSH1 0x4 DUP1 CALLDATASIZE SUB DUP2 ADD SWAP1 PUSH2 0x1A5 SWAP2 SWAP1 PUSH2 0x11CB JUMP JUMPDEST PUSH2 0x850 JUMP JUMPDEST STOP JUMPDEST PUSH2 0x1C6 PUSH1 0x4 DUP1 CALLDATASIZE SUB DUP2 ADD SWAP1 PUSH2 0x1C1 SWAP2 SWAP1 PUSH2 0x11CB JUMP JUMPDEST PUSH2 0x942 JUMP JUMPDEST PUSH1 0x40 MLOAD PUSH2 0x1D5 SWAP4 SWAP3 SWAP2 SWAP1 PUSH2 0x14DB JUMP JUMPDEST PUSH1 0x40 MLOAD DUP1 SWAP2 SUB SWAP1 RETURN JUMPDEST PUSH2 0x1E6 PUSH2 0xA24 JUMP JUMPDEST STOP JUMPDEST PUSH2 0x1F0 PUSH2 0xECD JUMP JUMPDEST PUSH1 0x40 MLOAD PUSH2 0x1FD SWAP2 SWAP1 PUSH2 0x1339 JUMP JUMPDEST PUSH1 0x40 MLOAD DUP1 SWAP2 SUB SWAP1 RETURN JUMPDEST PUSH1 0x3 SLOAD DUP2 JUMP JUMPDEST PUSH1 0x4 DUP2 DUP2 SLOAD DUP2 LT PUSH2 0x21C JUMPI PUSH1 0x0 DUP1 REVERT JUMPDEST SWAP1 PUSH1 0x0 MSTORE PUSH1 0x20 PUSH1 0x0 KECCAK256 SWAP1 PUSH1 0x3 MUL ADD PUSH1 0x0 SWAP2 POP SWAP1 POP DUP1 PUSH1 0x0 ADD DUP1 SLOAD PUSH2 0x23F SWAP1 PUSH2 0x1548 JUMP JUMPDEST DUP1 PUSH1 0x1F ADD PUSH1 0x20 DUP1 SWAP2 DIV MUL PUSH1 0x20 ADD PUSH1 0x40 MLOAD SWAP1 DUP2 ADD PUSH1 0x40 MSTORE DUP1 SWAP3 SWAP2 SWAP1 DUP2 DUP2 MSTORE PUSH1 0x20 ADD DUP3 DUP1 SLOAD PUSH2 0x26B SWAP1 PUSH2 0x1548 JUMP JUMPDEST DUP1 ISZERO PUSH2 0x2B8 JUMPI DUP1 PUSH1 0x1F LT PUSH2 0x28D JUMPI PUSH2 0x100 DUP1 DUP4 SLOAD DIV MUL DUP4 MSTORE SWAP2 PUSH1 0x20 ADD SWAP2 PUSH2 0x2B8 JUMP JUMPDEST DUP3 ADD SWAP2 SWAP1 PUSH1 0x0 MSTORE PUSH1 0x20 PUSH1 0x0 KECCAK256 SWAP1 JUMPDEST DUP2 SLOAD DUP2 MSTORE SWAP1 PUSH1 0x1 ADD SWAP1 PUSH1 0x20 ADD DUP1 DUP4 GT PUSH2 0x29B JUMPI DUP3 SWAP1 SUB PUSH1 0x1F AND DUP3 ADD SWAP2 JUMPDEST POP POP POP POP POP SWAP1 DUP1 PUSH1 0x1 ADD SLOAD SWAP1 DUP1 PUSH1 0x2 ADD SLOAD SWAP1 POP DUP4 JUMP JUMPDEST PUSH1 0x5 DUP2 DUP2 SLOAD DUP2 LT PUSH2 0x2DE JUMPI PUSH1 0x0 DUP1 REVERT JUMPDEST SWAP1 PUSH1 0x0 MSTORE PUSH1 0x20 PUSH1 0x0 KECCAK256 SWAP1 PUSH1 0x2 MUL ADD PUSH1 0x0 SWAP2 POP SWAP1 POP DUP1 PUSH1 0x0 ADD PUSH1 0x0 SWAP1 SLOAD SWAP1 PUSH2 0x100 EXP SWAP1 DIV PUSH20 0xFFFFFFFFFFFFFFFFFFFFFFFFFFFFFFFFFFFFFFFF AND SWAP1 DUP1 PUSH1 0x1 ADD SLOAD SWAP1 POP DUP3 JUMP JUMPDEST PUSH1 0x1 PUSH1 0x0 SWAP1 SLOAD SWAP1 PUSH2 0x100 EXP SWAP1 DIV PUSH20 0xFFFFFFFFFFFFFFFFFFFFFFFFFFFFFFFFFFFFFFFF AND DUP2 JUMP JUMPDEST PUSH1 0x60 PUSH1 0x0 DUP1 JUMPDEST PUSH1 0x6 DUP1 SLOAD SWAP1 POP DUP2 LT ISZERO PUSH2 0x3F6 JUMPI DUP4 PUSH20 0xFFFFFFFFFFFFFFFFFFFFFFFFFFFFFFFFFFFFFFFF AND PUSH1 0x6 DUP3 DUP2 SLOAD DUP2 LT PUSH2 0x386 JUMPI PUSH2 0x385 PUSH2 0x157A JUMP JUMPDEST JUMPDEST SWAP1 PUSH1 0x0 MSTORE PUSH1 0x20 PUSH1 0x0 KECCAK256 SWAP1 PUSH1 0x3 MUL ADD PUSH1 0x0 ADD PUSH1 0x0 SWAP1 SLOAD SWAP1 PUSH2 0x100 EXP SWAP1 DIV PUSH20 0xFFFFFFFFFFFFFFFFFFFFFFFFFFFFFFFFFFFFFFFF AND PUSH20 0xFFFFFFFFFFFFFFFFFFFFFFFFFFFFFFFFFFFFFFFF AND EQ ISZERO PUSH2 0x3E3 JUMPI DUP2 DUP1 PUSH2 0x3DF SWAP1 PUSH2 0x15D8 JUMP JUMPDEST SWAP3 POP POP JUMPDEST DUP1 DUP1 PUSH2 0x3EE SWAP1 PUSH2 0x15D8 JUMP JUMPDEST SWAP2 POP POP PUSH2 0x34E JUMP JUMPDEST POP PUSH1 0x0 DUP2 PUSH8 0xFFFFFFFFFFFFFFFF DUP2 GT ISZERO PUSH2 0x413 JUMPI PUSH2 0x412 PUSH2 0x1621 JUMP JUMPDEST JUMPDEST PUSH1 0x40 MLOAD SWAP1 DUP1 DUP3 MSTORE DUP1 PUSH1 0x20 MUL PUSH1 0x20 ADD DUP3 ADD PUSH1 0x40 MSTORE DUP1 ISZERO PUSH2 0x446 JUMPI DUP2 PUSH1 0x20 ADD JUMPDEST PUSH1 0x60 DUP2 MSTORE PUSH1 0x20 ADD SWAP1 PUSH1 0x1 SWAP1 SUB SWAP1 DUP2 PUSH2 0x431 JUMPI SWAP1 POP JUMPDEST POP SWAP1 POP PUSH1 0x0 DUP1 JUMPDEST PUSH1 0x6 DUP1 SLOAD SWAP1 POP DUP2 LT ISZERO PUSH2 0x5C1 JUMPI DUP6 PUSH20 0xFFFFFFFFFFFFFFFFFFFFFFFFFFFFFFFFFFFFFFFF AND PUSH1 0x6 DUP3 DUP2 SLOAD DUP2 LT PUSH2 0x485 JUMPI PUSH2 0x484 PUSH2 0x157A JUMP JUMPDEST JUMPDEST SWAP1 PUSH1 0x0 MSTORE PUSH1 0x20 PUSH1 0x0 KECCAK256 SWAP1 PUSH1 0x3 MUL ADD PUSH1 0x0 ADD PUSH1 0x0 SWAP1 SLOAD SWAP1 PUSH2 0x100 EXP SWAP1 DIV PUSH20 0xFFFFFFFFFFFFFFFFFFFFFFFFFFFFFFFFFFFFFFFF AND PUSH20 0xFFFFFFFFFFFFFFFFFFFFFFFFFFFFFFFFFFFFFFFF AND EQ ISZERO PUSH2 0x5AE JUMPI PUSH1 0x6 DUP2 DUP2 SLOAD DUP2 LT PUSH2 0x4E7 JUMPI PUSH2 0x4E6 PUSH2 0x157A JUMP JUMPDEST JUMPDEST SWAP1 PUSH1 0x0 MSTORE PUSH1 0x20 PUSH1 0x0 KECCAK256 SWAP1 PUSH1 0x3 MUL ADD PUSH1 0x2 ADD DUP1 SLOAD PUSH2 0x503 SWAP1 PUSH2 0x1548 JUMP JUMPDEST DUP1 PUSH1 0x1F ADD PUSH1 0x20 DUP1 SWAP2 DIV MUL PUSH1 0x20 ADD PUSH1 0x40 MLOAD SWAP1 DUP2 ADD PUSH1 0x40 MSTORE DUP1 SWAP3 SWAP2 SWAP1 DUP2 DUP2 MSTORE PUSH1 0x20 ADD DUP3 DUP1 SLOAD PUSH2 0x52F SWAP1 PUSH2 0x1548 JUMP JUMPDEST DUP1 ISZERO PUSH2 0x57C JUMPI DUP1 PUSH1 0x1F LT PUSH2 0x551 JUMPI PUSH2 0x100 DUP1 DUP4 SLOAD DIV MUL DUP4 MSTORE SWAP2 PUSH1 0x20 ADD SWAP2 PUSH2 0x57C JUMP JUMPDEST DUP3 ADD SWAP2 SWAP1 PUSH1 0x0 MSTORE PUSH1 0x20 PUSH1 0x0 KECCAK256 SWAP1 JUMPDEST DUP2 SLOAD DUP2 MSTORE SWAP1 PUSH1 0x1 ADD SWAP1 PUSH1 0x20 ADD DUP1 DUP4 GT PUSH2 0x55F JUMPI DUP3 SWAP1 SUB PUSH1 0x1F AND DUP3 ADD SWAP2 JUMPDEST POP POP POP POP POP DUP4 DUP4 DUP2 MLOAD DUP2 LT PUSH2 0x594 JUMPI PUSH2 0x593 PUSH2 0x157A JUMP JUMPDEST JUMPDEST PUSH1 0x20 MUL PUSH1 0x20 ADD ADD DUP2 SWAP1 MSTORE POP DUP2 DUP1 PUSH2 0x5AA SWAP1 PUSH2 0x15D8 JUMP JUMPDEST SWAP3 POP POP JUMPDEST DUP1 DUP1 PUSH2 0x5B9 SWAP1 PUSH2 0x15D8 JUMP JUMPDEST SWAP2 POP POP PUSH2 0x44D JUMP JUMPDEST POP DUP2 SWAP4 POP POP POP POP SWAP2 SWAP1 POP JUMP JUMPDEST PUSH1 0x60 PUSH1 0x0 DUP1 JUMPDEST PUSH1 0x6 DUP1 SLOAD SWAP1 POP DUP2 LT ISZERO PUSH2 0x67B JUMPI CALLER PUSH20 0xFFFFFFFFFFFFFFFFFFFFFFFFFFFFFFFFFFFFFFFF AND PUSH1 0x6 DUP3 DUP2 SLOAD DUP2 LT PUSH2 0x60B JUMPI PUSH2 0x60A PUSH2 0x157A JUMP JUMPDEST JUMPDEST SWAP1 PUSH1 0x0 MSTORE PUSH1 0x20 PUSH1 0x0 KECCAK256 SWAP1 PUSH1 0x3 MUL ADD PUSH1 0x0 ADD PUSH1 0x0 SWAP1 SLOAD SWAP1 PUSH2 0x100 EXP SWAP1 DIV PUSH20 0xFFFFFFFFFFFFFFFFFFFFFFFFFFFFFFFFFFFFFFFF AND PUSH20 0xFFFFFFFFFFFFFFFFFFFFFFFFFFFFFFFFFFFFFFFF AND EQ ISZERO PUSH2 0x668 JUMPI DUP2 DUP1 PUSH2 0x664 SWAP1 PUSH2 0x15D8 JUMP JUMPDEST SWAP3 POP POP JUMPDEST DUP1 DUP1 PUSH2 0x673 SWAP1 PUSH2 0x15D8 JUMP JUMPDEST SWAP2 POP POP PUSH2 0x5D3 JUMP JUMPDEST POP PUSH1 0x0 DUP2 PUSH8 0xFFFFFFFFFFFFFFFF DUP2 GT ISZERO PUSH2 0x698 JUMPI PUSH2 0x697 PUSH2 0x1621 JUMP JUMPDEST JUMPDEST PUSH1 0x40 MLOAD SWAP1 DUP1 DUP3 MSTORE DUP1 PUSH1 0x20 MUL PUSH1 0x20 ADD DUP3 ADD PUSH1 0x40 MSTORE DUP1 ISZERO PUSH2 0x6CB JUMPI DUP2 PUSH1 0x20 ADD JUMPDEST PUSH1 0x60 DUP2 MSTORE PUSH1 0x20 ADD SWAP1 PUSH1 0x1 SWAP1 SUB SWAP1 DUP2 PUSH2 0x6B6 JUMPI SWAP1 POP JUMPDEST POP SWAP1 POP PUSH1 0x0 DUP1 JUMPDEST PUSH1 0x6 DUP1 SLOAD SWAP1 POP DUP2 LT ISZERO PUSH2 0x846 JUMPI CALLER PUSH20 0xFFFFFFFFFFFFFFFFFFFFFFFFFFFFFFFFFFFFFFFF AND PUSH1 0x6 DUP3 DUP2 SLOAD DUP2 LT PUSH2 0x70A JUMPI PUSH2 0x709 PUSH2 0x157A JUMP JUMPDEST JUMPDEST SWAP1 PUSH1 0x0 MSTORE PUSH1 0x20 PUSH1 0x0 KECCAK256 SWAP1 PUSH1 0x3 MUL ADD PUSH1 0x0 ADD PUSH1 0x0 SWAP1 SLOAD SWAP1 PUSH2 0x100 EXP SWAP1 DIV PUSH20 0xFFFFFFFFFFFFFFFFFFFFFFFFFFFFFFFFFFFFFFFF AND PUSH20 0xFFFFFFFFFFFFFFFFFFFFFFFFFFFFFFFFFFFFFFFF AND EQ ISZERO PUSH2 0x833 JUMPI PUSH1 0x6 DUP2 DUP2 SLOAD DUP2 LT PUSH2 0x76C JUMPI PUSH2 0x76B PUSH2 0x157A JUMP JUMPDEST JUMPDEST SWAP1 PUSH1 0x0 MSTORE PUSH1 0x20 PUSH1 0x0 KECCAK256 SWAP1 PUSH1 0x3 MUL ADD PUSH1 0x2 ADD DUP1 SLOAD PUSH2 0x788 SWAP1 PUSH2 0x1548 JUMP JUMPDEST DUP1 PUSH1 0x1F ADD PUSH1 0x20 DUP1 SWAP2 DIV MUL PUSH1 0x20 ADD PUSH1 0x40 MLOAD SWAP1 DUP2 ADD PUSH1 0x40 MSTORE DUP1 SWAP3 SWAP2 SWAP1 DUP2 DUP2 MSTORE PUSH1 0x20 ADD DUP3 DUP1 SLOAD PUSH2 0x7B4 SWAP1 PUSH2 0x1548 JUMP JUMPDEST DUP1 ISZERO PUSH2 0x801 JUMPI DUP1 PUSH1 0x1F LT PUSH2 0x7D6 JUMPI PUSH2 0x100 DUP1 DUP4 SLOAD DIV MUL DUP4 MSTORE SWAP2 PUSH1 0x20 ADD SWAP2 PUSH2 0x801 JUMP JUMPDEST DUP3 ADD SWAP2 SWAP1 PUSH1 0x0 MSTORE PUSH1 0x20 PUSH1 0x0 KECCAK256 SWAP1 JUMPDEST DUP2 SLOAD DUP2 MSTORE SWAP1 PUSH1 0x1 ADD SWAP1 PUSH1 0x20 ADD DUP1 DUP4 GT PUSH2 0x7E4 JUMPI DUP3 SWAP1 SUB PUSH1 0x1F AND DUP3 ADD SWAP2 JUMPDEST POP POP POP POP POP DUP4 DUP4 DUP2 MLOAD DUP2 LT PUSH2 0x819 JUMPI PUSH2 0x818 PUSH2 0x157A JUMP JUMPDEST JUMPDEST PUSH1 0x20 MUL PUSH1 0x20 ADD ADD DUP2 SWAP1 MSTORE POP DUP2 DUP1 PUSH2 0x82F SWAP1 PUSH2 0x15D8 JUMP JUMPDEST SWAP3 POP POP JUMPDEST DUP1 DUP1 PUSH2 0x83E SWAP1 PUSH2 0x15D8 JUMP JUMPDEST SWAP2 POP POP PUSH2 0x6D2 JUMP JUMPDEST POP DUP2 SWAP4 POP POP POP POP SWAP1 JUMP JUMPDEST PUSH1 0x2 PUSH1 0x0 SWAP1 SLOAD SWAP1 PUSH2 0x100 EXP SWAP1 DIV PUSH20 0xFFFFFFFFFFFFFFFFFFFFFFFFFFFFFFFFFFFFFFFF AND PUSH20 0xFFFFFFFFFFFFFFFFFFFFFFFFFFFFFFFFFFFFFFFF AND CALLER PUSH20 0xFFFFFFFFFFFFFFFFFFFFFFFFFFFFFFFFFFFFFFFF AND EQ DUP1 PUSH2 0x8F9 JUMPI POP PUSH1 0x1 PUSH1 0x0 SWAP1 SLOAD SWAP1 PUSH2 0x100 EXP SWAP1 DIV PUSH20 0xFFFFFFFFFFFFFFFFFFFFFFFFFFFFFFFFFFFFFFFF AND PUSH20 0xFFFFFFFFFFFFFFFFFFFFFFFFFFFFFFFFFFFFFFFF AND CALLER PUSH20 0xFFFFFFFFFFFFFFFFFFFFFFFFFFFFFFFFFFFFFFFF AND EQ JUMPDEST PUSH2 0x938 JUMPI PUSH1 0x40 MLOAD PUSH32 0x8C379A000000000000000000000000000000000000000000000000000000000 DUP2 MSTORE PUSH1 0x4 ADD PUSH2 0x92F SWAP1 PUSH2 0x169C JUMP JUMPDEST PUSH1 0x40 MLOAD DUP1 SWAP2 SUB SWAP1 REVERT JUMPDEST DUP1 PUSH1 0x3 DUP2 SWAP1 SSTORE POP POP JUMP JUMPDEST PUSH1 0x6 DUP2 DUP2 SLOAD DUP2 LT PUSH2 0x952 JUMPI PUSH1 0x0 DUP1 REVERT JUMPDEST SWAP1 PUSH1 0x0 MSTORE PUSH1 0x20 PUSH1 0x0 KECCAK256 SWAP1 PUSH1 0x3 MUL ADD PUSH1 0x0 SWAP2 POP SWAP1 POP DUP1 PUSH1 0x0 ADD PUSH1 0x0 SWAP1 SLOAD SWAP1 PUSH2 0x100 EXP SWAP1 DIV PUSH20 0xFFFFFFFFFFFFFFFFFFFFFFFFFFFFFFFFFFFFFFFF AND SWAP1 DUP1 PUSH1 0x1 ADD SLOAD SWAP1 DUP1 PUSH1 0x2 ADD DUP1 SLOAD PUSH2 0x9A1 SWAP1 PUSH2 0x1548 JUMP JUMPDEST DUP1 PUSH1 0x1F ADD PUSH1 0x20 DUP1 SWAP2 DIV MUL PUSH1 0x20 ADD PUSH1 0x40 MLOAD SWAP1 DUP2 ADD PUSH1 0x40 MSTORE DUP1 SWAP3 SWAP2 SWAP1 DUP2 DUP2 MSTORE PUSH1 0x20 ADD DUP3 DUP1 SLOAD PUSH2 0x9CD SWAP1 PUSH2 0x1548 JUMP JUMPDEST DUP1 ISZERO PUSH2 0xA1A JUMPI DUP1 PUSH1 0x1F LT PUSH2 0x9EF JUMPI PUSH2 0x100 DUP1 DUP4 SLOAD DIV MUL DUP4 MSTORE SWAP2 PUSH1 0x20 ADD SWAP2 PUSH2 0xA1A JUMP JUMPDEST DUP3 ADD SWAP2 SWAP1 PUSH1 0x0 MSTORE PUSH1 0x20 PUSH1 0x0 KECCAK256 SWAP1 JUMPDEST DUP2 SLOAD DUP2 MSTORE SWAP1 PUSH1 0x1 ADD SWAP1 PUSH1 0x20 ADD DUP1 DUP4 GT PUSH2 0x9FD JUMPI DUP3 SWAP1 SUB PUSH1 0x1F AND DUP3 ADD SWAP2 JUMPDEST POP POP POP POP POP SWAP1 POP DUP4 JUMP JUMPDEST PUSH1 0x0 DUP1 JUMPDEST PUSH1 0x0 ISZERO ISZERO DUP3 ISZERO ISZERO EQ DUP1 ISZERO PUSH2 0xA41 JUMPI POP PUSH1 0x0 PUSH1 0x5 DUP1 SLOAD SWAP1 POP GT JUMPDEST DUP1 ISZERO PUSH2 0xA51 JUMPI POP PUSH1 0x5 DUP1 SLOAD SWAP1 POP DUP2 LT JUMPDEST ISZERO PUSH2 0xC79 JUMPI CALLER PUSH20 0xFFFFFFFFFFFFFFFFFFFFFFFFFFFFFFFFFFFFFFFF AND PUSH1 0x5 DUP3 DUP2 SLOAD DUP2 LT PUSH2 0xA81 JUMPI PUSH2 0xA80 PUSH2 0x157A JUMP JUMPDEST JUMPDEST SWAP1 PUSH1 0x0 MSTORE PUSH1 0x20 PUSH1 0x0 KECCAK256 SWAP1 PUSH1 0x2 MUL ADD PUSH1 0x0 ADD PUSH1 0x0 SWAP1 SLOAD SWAP1 PUSH2 0x100 EXP SWAP1 DIV PUSH20 0xFFFFFFFFFFFFFFFFFFFFFFFFFFFFFFFFFFFFFFFF AND PUSH20 0xFFFFFFFFFFFFFFFFFFFFFFFFFFFFFFFFFFFFFFFF AND EQ ISZERO PUSH2 0xC66 JUMPI PUSH1 0x1 SWAP2 POP PUSH1 0x5 DUP2 DUP2 SLOAD DUP2 LT PUSH2 0xAE7 JUMPI PUSH2 0xAE6 PUSH2 0x157A JUMP JUMPDEST JUMPDEST SWAP1 PUSH1 0x0 MSTORE PUSH1 0x20 PUSH1 0x0 KECCAK256 SWAP1 PUSH1 0x2 MUL ADD PUSH1 0x1 ADD PUSH1 0x0 DUP2 SLOAD DUP1 SWAP3 SWAP2 SWAP1 PUSH2 0xB09 SWAP1 PUSH2 0x15D8 JUMP JUMPDEST SWAP2 SWAP1 POP SSTORE POP PUSH1 0x3 SLOAD PUSH1 0x5 DUP3 DUP2 SLOAD DUP2 LT PUSH2 0xB25 JUMPI PUSH2 0xB24 PUSH2 0x157A JUMP JUMPDEST JUMPDEST SWAP1 PUSH1 0x0 MSTORE PUSH1 0x20 PUSH1 0x0 KECCAK256 SWAP1 PUSH1 0x2 MUL ADD PUSH1 0x1 ADD SLOAD GT ISZERO PUSH2 0xB78 JUMPI PUSH1 0x40 MLOAD PUSH32 0x8C379A000000000000000000000000000000000000000000000000000000000 DUP2 MSTORE PUSH1 0x4 ADD PUSH2 0xB6F SWAP1 PUSH2 0x1708 JUMP JUMPDEST PUSH1 0x40 MLOAD DUP1 SWAP2 SUB SWAP1 REVERT JUMPDEST PUSH1 0x0 PUSH2 0xB82 PUSH2 0xEF3 JUMP JUMPDEST SWAP1 POP PUSH1 0x0 PUSH2 0xB8F DUP3 PUSH2 0xF39 JUMP JUMPDEST SWAP1 POP PUSH1 0x0 PUSH1 0x40 MLOAD DUP1 PUSH1 0x60 ADD PUSH1 0x40 MSTORE DUP1 CALLER PUSH20 0xFFFFFFFFFFFFFFFFFFFFFFFFFFFFFFFFFFFFFFFF AND DUP2 MSTORE PUSH1 0x20 ADD DUP5 DUP2 MSTORE PUSH1 0x20 ADD DUP4 DUP2 MSTORE POP SWAP1 POP PUSH1 0x6 DUP2 SWAP1 DUP1 PUSH1 0x1 DUP2 SLOAD ADD DUP1 DUP3 SSTORE DUP1 SWAP2 POP POP PUSH1 0x1 SWAP1 SUB SWAP1 PUSH1 0x0 MSTORE PUSH1 0x20 PUSH1 0x0 KECCAK256 SWAP1 PUSH1 0x3 MUL ADD PUSH1 0x0 SWAP1 SWAP2 SWAP1 SWAP2 SWAP1 SWAP2 POP PUSH1 0x0 DUP3 ADD MLOAD DUP2 PUSH1 0x0 ADD PUSH1 0x0 PUSH2 0x100 EXP DUP2 SLOAD DUP2 PUSH20 0xFFFFFFFFFFFFFFFFFFFFFFFFFFFFFFFFFFFFFFFF MUL NOT AND SWAP1 DUP4 PUSH20 0xFFFFFFFFFFFFFFFFFFFFFFFFFFFFFFFFFFFFFFFF AND MUL OR SWAP1 SSTORE POP PUSH1 0x20 DUP3 ADD MLOAD DUP2 PUSH1 0x1 ADD SSTORE PUSH1 0x40 DUP3 ADD MLOAD DUP2 PUSH1 0x2 ADD SWAP1 DUP1 MLOAD SWAP1 PUSH1 0x20 ADD SWAP1 PUSH2 0xC5F SWAP3 SWAP2 SWAP1 PUSH2 0x10C3 JUMP JUMPDEST POP POP POP POP POP POP JUMPDEST DUP1 DUP1 PUSH2 0xC71 SWAP1 PUSH2 0x15D8 JUMP JUMPDEST SWAP2 POP POP PUSH2 0xA28 JUMP JUMPDEST PUSH1 0x0 DUP1 SLOAD SWAP1 PUSH2 0x100 EXP SWAP1 DIV PUSH20 0xFFFFFFFFFFFFFFFFFFFFFFFFFFFFFFFFFFFFFFFF AND PUSH20 0xFFFFFFFFFFFFFFFFFFFFFFFFFFFFFFFFFFFFFFFF AND PUSH4 0x40D097C3 PUSH1 0x1 PUSH1 0x0 SWAP1 SLOAD SWAP1 PUSH2 0x100 EXP SWAP1 DIV PUSH20 0xFFFFFFFFFFFFFFFFFFFFFFFFFFFFFFFFFFFFFFFF AND PUSH1 0x40 MLOAD DUP3 PUSH4 0xFFFFFFFF AND PUSH1 0xE0 SHL DUP2 MSTORE PUSH1 0x4 ADD PUSH2 0xCF4 SWAP2 SWAP1 PUSH2 0x1339 JUMP JUMPDEST PUSH1 0x0 PUSH1 0x40 MLOAD DUP1 DUP4 SUB DUP2 PUSH1 0x0 DUP8 DUP1 EXTCODESIZE ISZERO DUP1 ISZERO PUSH2 0xD0E JUMPI PUSH1 0x0 DUP1 REVERT JUMPDEST POP GAS CALL ISZERO DUP1 ISZERO PUSH2 0xD22 JUMPI RETURNDATASIZE PUSH1 0x0 DUP1 RETURNDATACOPY RETURNDATASIZE PUSH1 0x0 REVERT JUMPDEST POP POP POP POP DUP2 PUSH2 0xEC9 JUMPI PUSH1 0x0 PUSH2 0xD35 PUSH2 0xEF3 JUMP JUMPDEST SWAP1 POP PUSH1 0x0 PUSH2 0xD42 DUP3 PUSH2 0xF39 JUMP JUMPDEST SWAP1 POP PUSH1 0x0 PUSH1 0x40 MLOAD DUP1 PUSH1 0x40 ADD PUSH1 0x40 MSTORE DUP1 CALLER PUSH20 0xFFFFFFFFFFFFFFFFFFFFFFFFFFFFFFFFFFFFFFFF AND DUP2 MSTORE PUSH1 0x20 ADD PUSH1 0x1 DUP2 MSTORE POP SWAP1 POP PUSH1 0x5 DUP2 SWAP1 DUP1 PUSH1 0x1 DUP2 SLOAD ADD DUP1 DUP3 SSTORE DUP1 SWAP2 POP POP PUSH1 0x1 SWAP1 SUB SWAP1 PUSH1 0x0 MSTORE PUSH1 0x20 PUSH1 0x0 KECCAK256 SWAP1 PUSH1 0x2 MUL ADD PUSH1 0x0 SWAP1 SWAP2 SWAP1 SWAP2 SWAP1 SWAP2 POP PUSH1 0x0 DUP3 ADD MLOAD DUP2 PUSH1 0x0 ADD PUSH1 0x0 PUSH2 0x100 EXP DUP2 SLOAD DUP2 PUSH20 0xFFFFFFFFFFFFFFFFFFFFFFFFFFFFFFFFFFFFFFFF MUL NOT AND SWAP1 DUP4 PUSH20 0xFFFFFFFFFFFFFFFFFFFFFFFFFFFFFFFFFFFFFFFF AND MUL OR SWAP1 SSTORE POP PUSH1 0x20 DUP3 ADD MLOAD DUP2 PUSH1 0x1 ADD SSTORE POP POP PUSH1 0x0 PUSH1 0x40 MLOAD DUP1 PUSH1 0x60 ADD PUSH1 0x40 MSTORE DUP1 CALLER PUSH20 0xFFFFFFFFFFFFFFFFFFFFFFFFFFFFFFFFFFFFFFFF AND DUP2 MSTORE PUSH1 0x20 ADD DUP6 DUP2 MSTORE PUSH1 0x20 ADD DUP5 DUP2 MSTORE POP SWAP1 POP PUSH1 0x6 DUP2 SWAP1 DUP1 PUSH1 0x1 DUP2 SLOAD ADD DUP1 DUP3 SSTORE DUP1 SWAP2 POP POP PUSH1 0x1 SWAP1 SUB SWAP1 PUSH1 0x0 MSTORE PUSH1 0x20 PUSH1 0x0 KECCAK256 SWAP1 PUSH1 0x3 MUL ADD PUSH1 0x0 SWAP1 SWAP2 SWAP1 SWAP2 SWAP1 SWAP2 POP PUSH1 0x0 DUP3 ADD MLOAD DUP2 PUSH1 0x0 ADD PUSH1 0x0 PUSH2 0x100 EXP DUP2 SLOAD DUP2 PUSH20 0xFFFFFFFFFFFFFFFFFFFFFFFFFFFFFFFFFFFFFFFF MUL NOT AND SWAP1 DUP4 PUSH20 0xFFFFFFFFFFFFFFFFFFFFFFFFFFFFFFFFFFFFFFFF AND MUL OR SWAP1 SSTORE POP PUSH1 0x20 DUP3 ADD MLOAD DUP2 PUSH1 0x1 ADD SSTORE PUSH1 0x40 DUP3 ADD MLOAD DUP2 PUSH1 0x2 ADD SWAP1 DUP1 MLOAD SWAP1 PUSH1 0x20 ADD SWAP1 PUSH2 0xEC1 SWAP3 SWAP2 SWAP1 PUSH2 0x10C3 JUMP JUMPDEST POP POP POP POP POP POP POP JUMPDEST POP POP JUMP JUMPDEST PUSH1 0x2 PUSH1 0x0 SWAP1 SLOAD SWAP1 PUSH2 0x100 EXP SWAP1 DIV PUSH20 0xFFFFFFFFFFFFFFFFFFFFFFFFFFFFFFFFFFFFFFFF AND DUP2 JUMP JUMPDEST PUSH1 0x0 DUP1 PUSH1 0x64 CALLER TIMESTAMP DIFFICULTY PUSH1 0x40 MLOAD PUSH1 0x20 ADD PUSH2 0xF0D SWAP4 SWAP3 SWAP2 SWAP1 PUSH2 0x1791 JUMP JUMPDEST PUSH1 0x40 MLOAD PUSH1 0x20 DUP2 DUP4 SUB SUB DUP2 MSTORE SWAP1 PUSH1 0x40 MSTORE DUP1 MLOAD SWAP1 PUSH1 0x20 ADD KECCAK256 PUSH1 0x0 SHR PUSH2 0xF30 SWAP2 SWAP1 PUSH2 0x17FD JUMP JUMPDEST SWAP1 POP DUP1 SWAP2 POP POP SWAP1 JUMP JUMPDEST PUSH1 0x60 PUSH1 0x0 DUP1 JUMPDEST DUP2 ISZERO DUP1 ISZERO PUSH2 0xF51 JUMPI POP PUSH1 0x4 DUP1 SLOAD SWAP1 POP DUP2 LT JUMPDEST ISZERO PUSH2 0x1083 JUMPI PUSH1 0x4 DUP2 DUP2 SLOAD DUP2 LT PUSH2 0xF6A JUMPI PUSH2 0xF69 PUSH2 0x157A JUMP JUMPDEST JUMPDEST SWAP1 PUSH1 0x0 MSTORE PUSH1 0x20 PUSH1 0x0 KECCAK256 SWAP1 PUSH1 0x3 MUL ADD PUSH1 0x1 ADD SLOAD DUP5 LT ISZERO DUP1 ISZERO PUSH2 0xFB0 JUMPI POP PUSH1 0x4 DUP2 DUP2 SLOAD DUP2 LT PUSH2 0xF9A JUMPI PUSH2 0xF99 PUSH2 0x157A JUMP JUMPDEST JUMPDEST SWAP1 PUSH1 0x0 MSTORE PUSH1 0x20 PUSH1 0x0 KECCAK256 SWAP1 PUSH1 0x3 MUL ADD PUSH1 0x2 ADD SLOAD DUP5 GT ISZERO JUMPDEST ISZERO PUSH2 0x1070 JUMPI PUSH1 0x1 SWAP2 POP PUSH1 0x4 DUP2 DUP2 SLOAD DUP2 LT PUSH2 0xFCD JUMPI PUSH2 0xFCC PUSH2 0x157A JUMP JUMPDEST JUMPDEST SWAP1 PUSH1 0x0 MSTORE PUSH1 0x20 PUSH1 0x0 KECCAK256 SWAP1 PUSH1 0x3 MUL ADD PUSH1 0x0 ADD DUP1 SLOAD PUSH2 0xFE9 SWAP1 PUSH2 0x1548 JUMP JUMPDEST DUP1 PUSH1 0x1F ADD PUSH1 0x20 DUP1 SWAP2 DIV MUL PUSH1 0x20 ADD PUSH1 0x40 MLOAD SWAP1 DUP2 ADD PUSH1 0x40 MSTORE DUP1 SWAP3 SWAP2 SWAP1 DUP2 DUP2 MSTORE PUSH1 0x20 ADD DUP3 DUP1 SLOAD PUSH2 0x1015 SWAP1 PUSH2 0x1548 JUMP JUMPDEST DUP1 ISZERO PUSH2 0x1062 JUMPI DUP1 PUSH1 0x1F LT PUSH2 0x1037 JUMPI PUSH2 0x100 DUP1 DUP4 SLOAD DIV MUL DUP4 MSTORE SWAP2 PUSH1 0x20 ADD SWAP2 PUSH2 0x1062 JUMP JUMPDEST DUP3 ADD SWAP2 SWAP1 PUSH1 0x0 MSTORE PUSH1 0x20 PUSH1 0x0 KECCAK256 SWAP1 JUMPDEST DUP2 SLOAD DUP2 MSTORE SWAP1 PUSH1 0x1 ADD SWAP1 PUSH1 0x20 ADD DUP1 DUP4 GT PUSH2 0x1045 JUMPI DUP3 SWAP1 SUB PUSH1 0x1F AND DUP3 ADD SWAP2 JUMPDEST POP POP POP POP POP SWAP3 POP POP POP PUSH2 0x10BE JUMP JUMPDEST DUP1 DUP1 PUSH2 0x107B SWAP1 PUSH2 0x15D8 JUMP JUMPDEST SWAP2 POP POP PUSH2 0xF3F JUMP JUMPDEST PUSH1 0x40 MLOAD DUP1 PUSH1 0x40 ADD PUSH1 0x40 MSTORE DUP1 PUSH1 0x9 DUP2 MSTORE PUSH1 0x20 ADD PUSH32 0x4E6F7420466F756E640000000000000000000000000000000000000000000000 DUP2 MSTORE POP SWAP3 POP POP POP JUMPDEST SWAP2 SWAP1 POP JUMP JUMPDEST DUP3 DUP1 SLOAD PUSH2 0x10CF SWAP1 PUSH2 0x1548 JUMP JUMPDEST SWAP1 PUSH1 0x0 MSTORE PUSH1 0x20 PUSH1 0x0 KECCAK256 SWAP1 PUSH1 0x1F ADD PUSH1 0x20 SWAP1 DIV DUP2 ADD SWAP3 DUP3 PUSH2 0x10F1 JUMPI PUSH1 0x0 DUP6 SSTORE PUSH2 0x1138 JUMP JUMPDEST DUP3 PUSH1 0x1F LT PUSH2 0x110A JUMPI DUP1 MLOAD PUSH1 0xFF NOT AND DUP4 DUP1 ADD OR DUP6 SSTORE PUSH2 0x1138 JUMP JUMPDEST DUP3 DUP1 ADD PUSH1 0x1 ADD DUP6 SSTORE DUP3 ISZERO PUSH2 0x1138 JUMPI SWAP2 DUP3 ADD JUMPDEST DUP3 DUP2 GT ISZERO PUSH2 0x1137 JUMPI DUP3 MLOAD DUP3 SSTORE SWAP2 PUSH1 0x20 ADD SWAP2 SWAP1 PUSH1 0x1 ADD SWAP1 PUSH2 0x111C JUMP JUMPDEST JUMPDEST POP SWAP1 POP PUSH2 0x1145 SWAP2 SWAP1 PUSH2 0x1149 JUMP JUMPDEST POP SWAP1 JUMP JUMPDEST JUMPDEST DUP1 DUP3 GT ISZERO PUSH2 0x1162 JUMPI PUSH1 0x0 DUP2 PUSH1 0x0 SWAP1 SSTORE POP PUSH1 0x1 ADD PUSH2 0x114A JUMP JUMPDEST POP SWAP1 JUMP JUMPDEST PUSH1 0x0 DUP2 SWAP1 POP SWAP2 SWAP1 POP JUMP JUMPDEST PUSH2 0x1179 DUP2 PUSH2 0x1166 JUMP JUMPDEST DUP3 MSTORE POP POP JUMP JUMPDEST PUSH1 0x0 PUSH1 0x20 DUP3 ADD SWAP1 POP PUSH2 0x1194 PUSH1 0x0 DUP4 ADD DUP5 PUSH2 0x1170 JUMP JUMPDEST SWAP3 SWAP2 POP POP JUMP JUMPDEST PUSH1 0x0 DUP1 REVERT JUMPDEST PUSH2 0x11A8 DUP2 PUSH2 0x1166 JUMP JUMPDEST DUP2 EQ PUSH2 0x11B3 JUMPI PUSH1 0x0 DUP1 REVERT JUMPDEST POP JUMP JUMPDEST PUSH1 0x0 DUP2 CALLDATALOAD SWAP1 POP PUSH2 0x11C5 DUP2 PUSH2 0x119F JUMP JUMPDEST SWAP3 SWAP2 POP POP JUMP JUMPDEST PUSH1 0x0 PUSH1 0x20 DUP3 DUP5 SUB SLT ISZERO PUSH2 0x11E1 JUMPI PUSH2 0x11E0 PUSH2 0x119A JUMP JUMPDEST JUMPDEST PUSH1 0x0 PUSH2 0x11EF DUP5 DUP3 DUP6 ADD PUSH2 0x11B6 JUMP JUMPDEST SWAP2 POP POP SWAP3 SWAP2 POP POP JUMP JUMPDEST PUSH1 0x0 DUP2 MLOAD SWAP1 POP SWAP2 SWAP1 POP JUMP JUMPDEST PUSH1 0x0 DUP3 DUP3 MSTORE PUSH1 0x20 DUP3 ADD SWAP1 POP SWAP3 SWAP2 POP POP JUMP JUMPDEST PUSH1 0x0 JUMPDEST DUP4 DUP2 LT ISZERO PUSH2 0x1232 JUMPI DUP1 DUP3 ADD MLOAD DUP2 DUP5 ADD MSTORE PUSH1 0x20 DUP2 ADD SWAP1 POP PUSH2 0x1217 JUMP JUMPDEST DUP4 DUP2 GT ISZERO PUSH2 0x1241 JUMPI PUSH1 0x0 DUP5 DUP5 ADD MSTORE JUMPDEST POP POP POP POP JUMP JUMPDEST PUSH1 0x0 PUSH1 0x1F NOT PUSH1 0x1F DUP4 ADD AND SWAP1 POP SWAP2 SWAP1 POP JUMP JUMPDEST PUSH1 0x0 PUSH2 0x1263 DUP3 PUSH2 0x11F8 JUMP JUMPDEST PUSH2 0x126D DUP2 DUP6 PUSH2 0x1203 JUMP JUMPDEST SWAP4 POP PUSH2 0x127D DUP2 DUP6 PUSH1 0x20 DUP7 ADD PUSH2 0x1214 JUMP JUMPDEST PUSH2 0x1286 DUP2 PUSH2 0x1247 JUMP JUMPDEST DUP5 ADD SWAP2 POP POP SWAP3 SWAP2 POP POP JUMP JUMPDEST PUSH1 0x0 PUSH1 0x60 DUP3 ADD SWAP1 POP DUP2 DUP2 SUB PUSH1 0x0 DUP4 ADD MSTORE PUSH2 0x12AB DUP2 DUP7 PUSH2 0x1258 JUMP JUMPDEST SWAP1 POP PUSH2 0x12BA PUSH1 0x20 DUP4 ADD DUP6 PUSH2 0x1170 JUMP JUMPDEST PUSH2 0x12C7 PUSH1 0x40 DUP4 ADD DUP5 PUSH2 0x1170 JUMP JUMPDEST SWAP5 SWAP4 POP POP POP POP JUMP JUMPDEST PUSH1 0x0 PUSH20 0xFFFFFFFFFFFFFFFFFFFFFFFFFFFFFFFFFFFFFFFF DUP3 AND SWAP1 POP SWAP2 SWAP1 POP JUMP JUMPDEST PUSH1 0x0 PUSH2 0x12FA DUP3 PUSH2 0x12CF JUMP JUMPDEST SWAP1 POP SWAP2 SWAP1 POP JUMP JUMPDEST PUSH2 0x130A DUP2 PUSH2 0x12EF JUMP JUMPDEST DUP3 MSTORE POP POP JUMP JUMPDEST PUSH1 0x0 PUSH1 0x40 DUP3 ADD SWAP1 POP PUSH2 0x1325 PUSH1 0x0 DUP4 ADD DUP6 PUSH2 0x1301 JUMP JUMPDEST PUSH2 0x1332 PUSH1 0x20 DUP4 ADD DUP5 PUSH2 0x1170 JUMP JUMPDEST SWAP4 SWAP3 POP POP POP JUMP JUMPDEST PUSH1 0x0 PUSH1 0x20 DUP3 ADD SWAP1 POP PUSH2 0x134E PUSH1 0x0 DUP4 ADD DUP5 PUSH2 0x1301 JUMP JUMPDEST SWAP3 SWAP2 POP POP JUMP JUMPDEST PUSH2 0x135D DUP2 PUSH2 0x12EF JUMP JUMPDEST DUP2 EQ PUSH2 0x1368 JUMPI PUSH1 0x0 DUP1 REVERT JUMPDEST POP JUMP JUMPDEST PUSH1 0x0 DUP2 CALLDATALOAD SWAP1 POP PUSH2 0x137A DUP2 PUSH2 0x1354 JUMP JUMPDEST SWAP3 SWAP2 POP POP JUMP JUMPDEST PUSH1 0x0 PUSH1 0x20 DUP3 DUP5 SUB SLT ISZERO PUSH2 0x1396 JUMPI PUSH2 0x1395 PUSH2 0x119A JUMP JUMPDEST JUMPDEST PUSH1 0x0 PUSH2 0x13A4 DUP5 DUP3 DUP6 ADD PUSH2 0x136B JUMP JUMPDEST SWAP2 POP POP SWAP3 SWAP2 POP POP JUMP JUMPDEST PUSH1 0x0 DUP2 MLOAD SWAP1 POP SWAP2 SWAP1 POP JUMP JUMPDEST PUSH1 0x0 DUP3 DUP3 MSTORE PUSH1 0x20 DUP3 ADD SWAP1 POP SWAP3 SWAP2 POP POP JUMP JUMPDEST PUSH1 0x0 DUP2 SWAP1 POP PUSH1 0x20 DUP3 ADD SWAP1 POP SWAP2 SWAP1 POP JUMP JUMPDEST PUSH1 0x0 DUP3 DUP3 MSTORE PUSH1 0x20 DUP3 ADD SWAP1 POP SWAP3 SWAP2 POP POP JUMP JUMPDEST PUSH1 0x0 PUSH2 0x13F5 DUP3 PUSH2 0x11F8 JUMP JUMPDEST PUSH2 0x13FF DUP2 DUP6 PUSH2 0x13D9 JUMP JUMPDEST SWAP4 POP PUSH2 0x140F DUP2 DUP6 PUSH1 0x20 DUP7 ADD PUSH2 0x1214 JUMP JUMPDEST PUSH2 0x1418 DUP2 PUSH2 0x1247 JUMP JUMPDEST DUP5 ADD SWAP2 POP POP SWAP3 SWAP2 POP POP JUMP JUMPDEST PUSH1 0x0 PUSH2 0x142F DUP4 DUP4 PUSH2 0x13EA JUMP JUMPDEST SWAP1 POP SWAP3 SWAP2 POP POP JUMP JUMPDEST PUSH1 0x0 PUSH1 0x20 DUP3 ADD SWAP1 POP SWAP2 SWAP1 POP JUMP JUMPDEST PUSH1 0x0 PUSH2 0x144F DUP3 PUSH2 0x13AD JUMP JUMPDEST PUSH2 0x1459 DUP2 DUP6 PUSH2 0x13B8 JUMP JUMPDEST SWAP4 POP DUP4 PUSH1 0x20 DUP3 MUL DUP6 ADD PUSH2 0x146B DUP6 PUSH2 0x13C9 JUMP JUMPDEST DUP1 PUSH1 0x0 JUMPDEST DUP6 DUP2 LT ISZERO PUSH2 0x14A7 JUMPI DUP5 DUP5 SUB DUP10 MSTORE DUP2 MLOAD PUSH2 0x1488 DUP6 DUP3 PUSH2 0x1423 JUMP JUMPDEST SWAP5 POP PUSH2 0x1493 DUP4 PUSH2 0x1437 JUMP JUMPDEST SWAP3 POP PUSH1 0x20 DUP11 ADD SWAP10 POP POP PUSH1 0x1 DUP2 ADD SWAP1 POP PUSH2 0x146F JUMP JUMPDEST POP DUP3 SWAP8 POP DUP8 SWAP6 POP POP POP POP POP POP SWAP3 SWAP2 POP POP JUMP JUMPDEST PUSH1 0x0 PUSH1 0x20 DUP3 ADD SWAP1 POP DUP2 DUP2 SUB PUSH1 0x0 DUP4 ADD MSTORE PUSH2 0x14D3 DUP2 DUP5 PUSH2 0x1444 JUMP JUMPDEST SWAP1 POP SWAP3 SWAP2 POP POP JUMP JUMPDEST PUSH1 0x0 PUSH1 0x60 DUP3 ADD SWAP1 POP PUSH2 0x14F0 PUSH1 0x0 DUP4 ADD DUP7 PUSH2 0x1301 JUMP JUMPDEST PUSH2 0x14FD PUSH1 0x20 DUP4 ADD DUP6 PUSH2 0x1170 JUMP JUMPDEST DUP2 DUP2 SUB PUSH1 0x40 DUP4 ADD MSTORE PUSH2 0x150F DUP2 DUP5 PUSH2 0x1258 JUMP JUMPDEST SWAP1 POP SWAP5 SWAP4 POP POP POP POP JUMP JUMPDEST PUSH32 0x4E487B7100000000000000000000000000000000000000000000000000000000 PUSH1 0x0 MSTORE PUSH1 0x22 PUSH1 0x4 MSTORE PUSH1 0x24 PUSH1 0x0 REVERT JUMPDEST PUSH1 0x0 PUSH1 0x2 DUP3 DIV SWAP1 POP PUSH1 0x1 DUP3 AND DUP1 PUSH2 0x1560 JUMPI PUSH1 0x7F DUP3 AND SWAP2 POP JUMPDEST PUSH1 0x20 DUP3 LT DUP2 EQ ISZERO PUSH2 0x1574 JUMPI PUSH2 0x1573 PUSH2 0x1519 JUMP JUMPDEST JUMPDEST POP SWAP2 SWAP1 POP JUMP JUMPDEST PUSH32 0x4E487B7100000000000000000000000000000000000000000000000000000000 PUSH1 0x0 MSTORE PUSH1 0x32 PUSH1 0x4 MSTORE PUSH1 0x24 PUSH1 0x0 REVERT JUMPDEST PUSH32 0x4E487B7100000000000000000000000000000000000000000000000000000000 PUSH1 0x0 MSTORE PUSH1 0x11 PUSH1 0x4 MSTORE PUSH1 0x24 PUSH1 0x0 REVERT JUMPDEST PUSH1 0x0 PUSH2 0x15E3 DUP3 PUSH2 0x1166 JUMP JUMPDEST SWAP2 POP PUSH32 0xFFFFFFFFFFFFFFFFFFFFFFFFFFFFFFFFFFFFFFFFFFFFFFFFFFFFFFFFFFFFFFFF DUP3 EQ ISZERO PUSH2 0x1616 JUMPI PUSH2 0x1615 PUSH2 0x15A9 JUMP JUMPDEST JUMPDEST PUSH1 0x1 DUP3 ADD SWAP1 POP SWAP2 SWAP1 POP JUMP JUMPDEST PUSH32 0x4E487B7100000000000000000000000000000000000000000000000000000000 PUSH1 0x0 MSTORE PUSH1 0x41 PUSH1 0x4 MSTORE PUSH1 0x24 PUSH1 0x0 REVERT JUMPDEST PUSH32 0x4E6F7420417574686F72697A65642C2041646D696E204F6E6C79000000000000 PUSH1 0x0 DUP3 ADD MSTORE POP JUMP JUMPDEST PUSH1 0x0 PUSH2 0x1686 PUSH1 0x1A DUP4 PUSH2 0x1203 JUMP JUMPDEST SWAP2 POP PUSH2 0x1691 DUP3 PUSH2 0x1650 JUMP JUMPDEST PUSH1 0x20 DUP3 ADD SWAP1 POP SWAP2 SWAP1 POP JUMP JUMPDEST PUSH1 0x0 PUSH1 0x20 DUP3 ADD SWAP1 POP DUP2 DUP2 SUB PUSH1 0x0 DUP4 ADD MSTORE PUSH2 0x16B5 DUP2 PUSH2 0x1679 JUMP JUMPDEST SWAP1 POP SWAP2 SWAP1 POP JUMP JUMPDEST PUSH32 0x4F7574206F66204C696D69740000000000000000000000000000000000000000 PUSH1 0x0 DUP3 ADD MSTORE POP JUMP JUMPDEST PUSH1 0x0 PUSH2 0x16F2 PUSH1 0xC DUP4 PUSH2 0x1203 JUMP JUMPDEST SWAP2 POP PUSH2 0x16FD DUP3 PUSH2 0x16BC JUMP JUMPDEST PUSH1 0x20 DUP3 ADD SWAP1 POP SWAP2 SWAP1 POP JUMP JUMPDEST PUSH1 0x0 PUSH1 0x20 DUP3 ADD SWAP1 POP DUP2 DUP2 SUB PUSH1 0x0 DUP4 ADD MSTORE PUSH2 0x1721 DUP2 PUSH2 0x16E5 JUMP JUMPDEST SWAP1 POP SWAP2 SWAP1 POP JUMP JUMPDEST PUSH1 0x0 DUP2 PUSH1 0x60 SHL SWAP1 POP SWAP2 SWAP1 POP JUMP JUMPDEST PUSH1 0x0 PUSH2 0x1740 DUP3 PUSH2 0x1728 JUMP JUMPDEST SWAP1 POP SWAP2 SWAP1 POP JUMP JUMPDEST PUSH1 0x0 PUSH2 0x1752 DUP3 PUSH2 0x1735 JUMP JUMPDEST SWAP1 POP SWAP2 SWAP1 POP JUMP JUMPDEST PUSH2 0x176A PUSH2 0x1765 DUP3 PUSH2 0x12EF JUMP JUMPDEST PUSH2 0x1747 JUMP JUMPDEST DUP3 MSTORE POP POP JUMP JUMPDEST PUSH1 0x0 DUP2 SWAP1 POP SWAP2 SWAP1 POP JUMP JUMPDEST PUSH2 0x178B PUSH2 0x1786 DUP3 PUSH2 0x1166 JUMP JUMPDEST PUSH2 0x1770 JUMP JUMPDEST DUP3 MSTORE POP POP JUMP JUMPDEST PUSH1 0x0 PUSH2 0x179D DUP3 DUP7 PUSH2 0x1759 JUMP JUMPDEST PUSH1 0x14 DUP3 ADD SWAP2 POP PUSH2 0x17AD DUP3 DUP6 PUSH2 0x177A JUMP JUMPDEST PUSH1 0x20 DUP3 ADD SWAP2 POP PUSH2 0x17BD DUP3 DUP5 PUSH2 0x177A JUMP JUMPDEST PUSH1 0x20 DUP3 ADD SWAP2 POP DUP2 SWAP1 POP SWAP5 SWAP4 POP POP POP POP JUMP JUMPDEST PUSH32 0x4E487B7100000000000000000000000000000000000000000000000000000000 PUSH1 0x0 MSTORE PUSH1 0x12 PUSH1 0x4 MSTORE PUSH1 0x24 PUSH1 0x0 REVERT JUMPDEST PUSH1 0x0 PUSH2 0x1808 DUP3 PUSH2 0x1166 JUMP JUMPDEST SWAP2 POP PUSH2 0x1813 DUP4 PUSH2 0x1166 JUMP JUMPDEST SWAP3 POP DUP3 PUSH2 0x1823 JUMPI PUSH2 0x1822 PUSH2 0x17CE JUMP JUMPDEST JUMPDEST DUP3 DUP3 MOD SWAP1 POP SWAP3 SWAP2 POP POP JUMP INVALID LOG2 PUSH5 0x6970667358 0x22 SLT KECCAK256 RETURNDATASIZE RETURNDATASIZE 0xF6 0xF9 XOR LOG1 0xDC REVERT XOR SWAP5 SLT SWAP4 DUP3 BLOCKHASH SELFBALANCE PUSH29 0x6623810C7EB2C0B60233F1023C99897264736F6C634300080800330000 "
				},
				"gasEstimates": {
					"creation": {
						"codeDepositCost": "1248800",
						"executionCost": "infinite",
						"totalCost": "infinite"
					},
					"external": {
						"adminAddress()": "2602",
						"changeGatchaLimit(uint256)": "26887",
						"createGatcha()": "infinite",
						"limitGatcha()": "2430",
						"ownerAddress()": "2581",
						"rarityList(uint256)": "infinite",
						"rarityUsers(uint256)": "infinite",
						"registeredUsers(uint256)": "infinite",
						"searchGatchaByAddress(address)": "infinite",
						"searchGatchaOwnAddress()": "infinite"
					},
					"internal": {
						"generateRarityScore()": "infinite",
						"getRarityName(uint256)": "infinite"
					}
				},
				"methodIdentifiers": {
					"adminAddress()": "fc6f9468",
					"changeGatchaLimit(uint256)": "c15d3ead",
					"createGatcha()": "e917ec96",
					"limitGatcha()": "06cd309b",
					"ownerAddress()": "8f84aa09",
					"rarityList(uint256)": "6fd3d9e2",
					"rarityUsers(uint256)": "d1a35ef2",
					"registeredUsers(uint256)": "7259e0f8",
					"searchGatchaByAddress(address)": "addb2cc0",
					"searchGatchaOwnAddress()": "b9093138"
				}
			},
			"storageLayout": {
				"storage": [
					{
						"astId": 8,
						"contract": "contracts/TestInterview.sol:TestInterview",
						"label": "objINFT",
						"offset": 0,
						"slot": "0",
						"type": "t_contract(INFT)572"
					},
					{
						"astId": 11,
						"contract": "contracts/TestInterview.sol:TestInterview",
						"label": "ownerAddress",
						"offset": 0,
						"slot": "1",
						"type": "t_address"
					},
					{
						"astId": 13,
						"contract": "contracts/TestInterview.sol:TestInterview",
						"label": "adminAddress",
						"offset": 0,
						"slot": "2",
						"type": "t_address"
					},
					{
						"astId": 16,
						"contract": "contracts/TestInterview.sol:TestInterview",
						"label": "limitGatcha",
						"offset": 0,
						"slot": "3",
						"type": "t_uint256"
					},
					{
						"astId": 27,
						"contract": "contracts/TestInterview.sol:TestInterview",
						"label": "rarityList",
						"offset": 0,
						"slot": "4",
						"type": "t_array(t_struct(Rarity)23_storage)dyn_storage"
					},
					{
						"astId": 43,
						"contract": "contracts/TestInterview.sol:TestInterview",
						"label": "registeredUsers",
						"offset": 0,
						"slot": "5",
						"type": "t_array(t_struct(RegisteredUser)32_storage)dyn_storage"
					},
					{
						"astId": 47,
						"contract": "contracts/TestInterview.sol:TestInterview",
						"label": "rarityUsers",
						"offset": 0,
						"slot": "6",
						"type": "t_array(t_struct(RarityUser)39_storage)dyn_storage"
					}
				],
				"types": {
					"t_address": {
						"encoding": "inplace",
						"label": "address",
						"numberOfBytes": "20"
					},
					"t_array(t_struct(Rarity)23_storage)dyn_storage": {
						"base": "t_struct(Rarity)23_storage",
						"encoding": "dynamic_array",
						"label": "struct TestInterview.Rarity[]",
						"numberOfBytes": "32"
					},
					"t_array(t_struct(RarityUser)39_storage)dyn_storage": {
						"base": "t_struct(RarityUser)39_storage",
						"encoding": "dynamic_array",
						"label": "struct TestInterview.RarityUser[]",
						"numberOfBytes": "32"
					},
					"t_array(t_struct(RegisteredUser)32_storage)dyn_storage": {
						"base": "t_struct(RegisteredUser)32_storage",
						"encoding": "dynamic_array",
						"label": "struct TestInterview.RegisteredUser[]",
						"numberOfBytes": "32"
					},
					"t_contract(INFT)572": {
						"encoding": "inplace",
						"label": "contract INFT",
						"numberOfBytes": "20"
					},
					"t_string_storage": {
						"encoding": "bytes",
						"label": "string",
						"numberOfBytes": "32"
					},
					"t_struct(Rarity)23_storage": {
						"encoding": "inplace",
						"label": "struct TestInterview.Rarity",
						"members": [
							{
								"astId": 18,
								"contract": "contracts/TestInterview.sol:TestInterview",
								"label": "name",
								"offset": 0,
								"slot": "0",
								"type": "t_string_storage"
							},
							{
								"astId": 20,
								"contract": "contracts/TestInterview.sol:TestInterview",
								"label": "min",
								"offset": 0,
								"slot": "1",
								"type": "t_uint256"
							},
							{
								"astId": 22,
								"contract": "contracts/TestInterview.sol:TestInterview",
								"label": "max",
								"offset": 0,
								"slot": "2",
								"type": "t_uint256"
							}
						],
						"numberOfBytes": "96"
					},
					"t_struct(RarityUser)39_storage": {
						"encoding": "inplace",
						"label": "struct TestInterview.RarityUser",
						"members": [
							{
								"astId": 34,
								"contract": "contracts/TestInterview.sol:TestInterview",
								"label": "userAddress",
								"offset": 0,
								"slot": "0",
								"type": "t_address"
							},
							{
								"astId": 36,
								"contract": "contracts/TestInterview.sol:TestInterview",
								"label": "rarityScore",
								"offset": 0,
								"slot": "1",
								"type": "t_uint256"
							},
							{
								"astId": 38,
								"contract": "contracts/TestInterview.sol:TestInterview",
								"label": "rarityName",
								"offset": 0,
								"slot": "2",
								"type": "t_string_storage"
							}
						],
						"numberOfBytes": "96"
					},
					"t_struct(RegisteredUser)32_storage": {
						"encoding": "inplace",
						"label": "struct TestInterview.RegisteredUser",
						"members": [
							{
								"astId": 29,
								"contract": "contracts/TestInterview.sol:TestInterview",
								"label": "userAddress",
								"offset": 0,
								"slot": "0",
								"type": "t_address"
							},
							{
								"astId": 31,
								"contract": "contracts/TestInterview.sol:TestInterview",
								"label": "counterVisited",
								"offset": 0,
								"slot": "1",
								"type": "t_uint256"
							}
						],
						"numberOfBytes": "64"
					},
					"t_uint256": {
						"encoding": "inplace",
						"label": "uint256",
						"numberOfBytes": "32"
					}
				}
			},
			"userdoc": {
				"kind": "user",
				"methods": {},
				"version": 1
			}
		}
	}
}