{
	"contracts/TestInterview.sol": {
		"TestInterview": {
			"abi": [
				{
					"inputs": [],
					"name": "createGatcha",
					"outputs": [],
					"stateMutability": "nonpayable",
					"type": "function"
				},
				{
					"inputs": [
						{
							"internalType": "uint256",
							"name": "_indexUser",
							"type": "uint256"
						}
					],
					"name": "getUsers",
					"outputs": [
						{
							"components": [
								{
									"internalType": "address",
									"name": "userAddress",
									"type": "address"
								},
								{
									"internalType": "uint256",
									"name": "counterVisited",
									"type": "uint256"
								}
							],
							"internalType": "struct TestInterview.RegisteredUser",
							"name": "",
							"type": "tuple"
						}
					],
					"stateMutability": "view",
					"type": "function"
				},
				{
					"inputs": [],
					"name": "ownerAddress",
					"outputs": [
						{
							"internalType": "address",
							"name": "",
							"type": "address"
						}
					],
					"stateMutability": "view",
					"type": "function"
				},
				{
					"inputs": [
						{
							"internalType": "uint256",
							"name": "",
							"type": "uint256"
						}
					],
					"name": "rarityList",
					"outputs": [
						{
							"internalType": "string",
							"name": "",
							"type": "string"
						}
					],
					"stateMutability": "view",
					"type": "function"
				},
				{
					"inputs": [],
					"name": "rarityListFunc",
					"outputs": [
						{
							"internalType": "string",
							"name": "",
							"type": "string"
						}
					],
					"stateMutability": "view",
					"type": "function"
				},
				{
					"inputs": [
						{
							"internalType": "string",
							"name": "_nameRarity",
							"type": "string"
						}
					],
					"name": "rarityRateFunc",
					"outputs": [
						{
							"internalType": "uint256",
							"name": "",
							"type": "uint256"
						}
					],
					"stateMutability": "view",
					"type": "function"
				},
				{
					"inputs": [
						{
							"internalType": "uint256",
							"name": "",
							"type": "uint256"
						}
					],
					"name": "registeredUsers",
					"outputs": [
						{
							"internalType": "address",
							"name": "userAddress",
							"type": "address"
						},
						{
							"internalType": "uint256",
							"name": "counterVisited",
							"type": "uint256"
						}
					],
					"stateMutability": "view",
					"type": "function"
				}
			],
			"devdoc": {
				"kind": "dev",
				"methods": {},
				"version": 1
			},
			"evm": {
				"assembly": "    /* \"contracts/TestInterview.sol\":208:1723  contract TestInterview {... */\n  mstore(0x40, 0x80)\n    /* \"contracts/TestInterview.sol\":291:333  0x50C7a09925375438D2cEe94C5c59266c6fFAAf8C */\n  0x50c7a09925375438d2cee94c5c59266c6ffaaf8c\n    /* \"contracts/TestInterview.sol\":271:334  INFT objINFT = INFT(0x50C7a09925375438D2cEe94C5c59266c6fFAAf8C) */\n  0x01\n  exp(0x0100, 0x00)\n  dup2\n  sload\n  dup2\n  0xffffffffffffffffffffffffffffffffffffffff\n  mul\n  not\n  and\n  swap1\n  dup4\n  0xffffffffffffffffffffffffffffffffffffffff\n  and\n  mul\n  or\n  swap1\n  sstore\n  pop\n    /* \"contracts/TestInterview.sol\":371:413  0xdBDdb8575F6bda11F1DC548A1B546463CC567C3d */\n  0xdbddb8575f6bda11f1dc548a1b546463cc567c3d\n    /* \"contracts/TestInterview.sol\":341:413  address public ownerAddress = 0xdBDdb8575F6bda11F1DC548A1B546463CC567C3d */\n  0x02\n  exp(0x0100, 0x00)\n  dup2\n  sload\n  dup2\n  0xffffffffffffffffffffffffffffffffffffffff\n  mul\n  not\n  and\n  swap1\n  dup4\n  0xffffffffffffffffffffffffffffffffffffffff\n  and\n  mul\n  or\n  swap1\n  sstore\n  pop\n    /* \"contracts/TestInterview.sol\":208:1723  contract TestInterview {... */\n  callvalue\n  dup1\n  iszero\n  tag_1\n  jumpi\n  0x00\n  dup1\n  revert\ntag_1:\n  pop\n  dataSize(sub_0)\n  dup1\n  dataOffset(sub_0)\n  0x00\n  codecopy\n  0x00\n  return\nstop\n\nsub_0: assembly {\n        /* \"contracts/TestInterview.sol\":208:1723  contract TestInterview {... */\n      mstore(0x40, 0x80)\n      callvalue\n      dup1\n      iszero\n      tag_1\n      jumpi\n      0x00\n      dup1\n      revert\n    tag_1:\n      pop\n      jumpi(tag_2, lt(calldatasize, 0x04))\n      shr(0xe0, calldataload(0x00))\n      dup1\n      0x8f84aa09\n      gt\n      tag_10\n      jumpi\n      dup1\n      0x8f84aa09\n      eq\n      tag_6\n      jumpi\n      dup1\n      0xa7beb5d0\n      eq\n      tag_7\n      jumpi\n      dup1\n      0xbb4a376b\n      eq\n      tag_8\n      jumpi\n      dup1\n      0xe917ec96\n      eq\n      tag_9\n      jumpi\n      jump(tag_2)\n    tag_10:\n      dup1\n      0x5d73ab9a\n      eq\n      tag_3\n      jumpi\n      dup1\n      0x6fd3d9e2\n      eq\n      tag_4\n      jumpi\n      dup1\n      0x7259e0f8\n      eq\n      tag_5\n      jumpi\n    tag_2:\n      0x00\n      dup1\n      revert\n        /* \"contracts/TestInterview.sol\":1586:1720  function getUsers(uint256 _indexUser) public view returns(RegisteredUser memory) {... */\n    tag_3:\n      tag_11\n      0x04\n      dup1\n      calldatasize\n      sub\n      dup2\n      add\n      swap1\n      tag_12\n      swap2\n      swap1\n      tag_13\n      jump\t// in\n    tag_12:\n      tag_14\n      jump\t// in\n    tag_11:\n      mload(0x40)\n      tag_15\n      swap2\n      swap1\n      tag_16\n      jump\t// in\n    tag_15:\n      mload(0x40)\n      dup1\n      swap2\n      sub\n      swap1\n      return\n        /* \"contracts/TestInterview.sol\":238:264  string[] public rarityList */\n    tag_4:\n      tag_17\n      0x04\n      dup1\n      calldatasize\n      sub\n      dup2\n      add\n      swap1\n      tag_18\n      swap2\n      swap1\n      tag_13\n      jump\t// in\n    tag_18:\n      tag_19\n      jump\t// in\n    tag_17:\n      mload(0x40)\n      tag_20\n      swap2\n      swap1\n      tag_21\n      jump\t// in\n    tag_20:\n      mload(0x40)\n      dup1\n      swap2\n      sub\n      swap1\n      return\n        /* \"contracts/TestInterview.sol\":523:562  RegisteredUser[] public registeredUsers */\n    tag_5:\n      tag_22\n      0x04\n      dup1\n      calldatasize\n      sub\n      dup2\n      add\n      swap1\n      tag_23\n      swap2\n      swap1\n      tag_13\n      jump\t// in\n    tag_23:\n      tag_24\n      jump\t// in\n    tag_22:\n      mload(0x40)\n      tag_25\n      swap3\n      swap2\n      swap1\n      tag_26\n      jump\t// in\n    tag_25:\n      mload(0x40)\n      dup1\n      swap2\n      sub\n      swap1\n      return\n        /* \"contracts/TestInterview.sol\":341:413  address public ownerAddress = 0xdBDdb8575F6bda11F1DC548A1B546463CC567C3d */\n    tag_6:\n      tag_27\n      tag_28\n      jump\t// in\n    tag_27:\n      mload(0x40)\n      tag_29\n      swap2\n      swap1\n      tag_30\n      jump\t// in\n    tag_29:\n      mload(0x40)\n      dup1\n      swap2\n      sub\n      swap1\n      return\n        /* \"contracts/TestInterview.sol\":758:899  function rarityRateFunc (string memory _nameRarity) public view returns(uint256) {... */\n    tag_7:\n      tag_31\n      0x04\n      dup1\n      calldatasize\n      sub\n      dup2\n      add\n      swap1\n      tag_32\n      swap2\n      swap1\n      tag_33\n      jump\t// in\n    tag_32:\n      tag_34\n      jump\t// in\n    tag_31:\n      mload(0x40)\n      tag_35\n      swap2\n      swap1\n      tag_36\n      jump\t// in\n    tag_35:\n      mload(0x40)\n      dup1\n      swap2\n      sub\n      swap1\n      return\n        /* \"contracts/TestInterview.sol\":573:750  function rarityListFunc () public view returns(string memory) {... */\n    tag_8:\n      tag_37\n      tag_38\n      jump\t// in\n    tag_37:\n      mload(0x40)\n      tag_39\n      swap2\n      swap1\n      tag_21\n      jump\t// in\n    tag_39:\n      mload(0x40)\n      dup1\n      swap2\n      sub\n      swap1\n      return\n        /* \"contracts/TestInterview.sol\":907:1576  function createGatcha () public {... */\n    tag_9:\n      tag_40\n      tag_41\n      jump\t// in\n    tag_40:\n      stop\n        /* \"contracts/TestInterview.sol\":1586:1720  function getUsers(uint256 _indexUser) public view returns(RegisteredUser memory) {... */\n    tag_14:\n        /* \"contracts/TestInterview.sol\":1644:1665  RegisteredUser memory */\n      tag_42\n      tag_43\n      jump\t// in\n    tag_42:\n        /* \"contracts/TestInterview.sol\":1685:1700  registeredUsers */\n      0x03\n        /* \"contracts/TestInterview.sol\":1701:1711  _indexUser */\n      dup3\n        /* \"contracts/TestInterview.sol\":1685:1712  registeredUsers[_indexUser] */\n      dup2\n      sload\n      dup2\n      lt\n      tag_45\n      jumpi\n      tag_46\n      tag_47\n      jump\t// in\n    tag_46:\n    tag_45:\n      swap1\n      0x00\n      mstore\n      keccak256(0x00, 0x20)\n      swap1\n      0x02\n      mul\n      add\n        /* \"contracts/TestInterview.sol\":1678:1712  return registeredUsers[_indexUser] */\n      mload(0x40)\n      dup1\n      0x40\n      add\n      0x40\n      mstore\n      swap1\n      dup2\n      0x00\n      dup3\n      add\n      0x00\n      swap1\n      sload\n      swap1\n      0x0100\n      exp\n      swap1\n      div\n      0xffffffffffffffffffffffffffffffffffffffff\n      and\n      0xffffffffffffffffffffffffffffffffffffffff\n      and\n      0xffffffffffffffffffffffffffffffffffffffff\n      and\n      dup2\n      mstore\n      0x20\n      add\n      0x01\n      dup3\n      add\n      sload\n      dup2\n      mstore\n      pop\n      pop\n      swap1\n      pop\n        /* \"contracts/TestInterview.sol\":1586:1720  function getUsers(uint256 _indexUser) public view returns(RegisteredUser memory) {... */\n      swap2\n      swap1\n      pop\n      jump\t// out\n        /* \"contracts/TestInterview.sol\":238:264  string[] public rarityList */\n    tag_19:\n      0x00\n      dup2\n      dup2\n      sload\n      dup2\n      lt\n      tag_49\n      jumpi\n      0x00\n      dup1\n      revert\n    tag_49:\n      swap1\n      0x00\n      mstore\n      keccak256(0x00, 0x20)\n      add\n      0x00\n      swap2\n      pop\n      swap1\n      pop\n      dup1\n      sload\n      tag_51\n      swap1\n      tag_52\n      jump\t// in\n    tag_51:\n      dup1\n      0x1f\n      add\n      0x20\n      dup1\n      swap2\n      div\n      mul\n      0x20\n      add\n      mload(0x40)\n      swap1\n      dup2\n      add\n      0x40\n      mstore\n      dup1\n      swap3\n      swap2\n      swap1\n      dup2\n      dup2\n      mstore\n      0x20\n      add\n      dup3\n      dup1\n      sload\n      tag_53\n      swap1\n      tag_52\n      jump\t// in\n    tag_53:\n      dup1\n      iszero\n      tag_54\n      jumpi\n      dup1\n      0x1f\n      lt\n      tag_55\n      jumpi\n      0x0100\n      dup1\n      dup4\n      sload\n      div\n      mul\n      dup4\n      mstore\n      swap2\n      0x20\n      add\n      swap2\n      jump(tag_54)\n    tag_55:\n      dup3\n      add\n      swap2\n      swap1\n      0x00\n      mstore\n      keccak256(0x00, 0x20)\n      swap1\n    tag_56:\n      dup2\n      sload\n      dup2\n      mstore\n      swap1\n      0x01\n      add\n      swap1\n      0x20\n      add\n      dup1\n      dup4\n      gt\n      tag_56\n      jumpi\n      dup3\n      swap1\n      sub\n      0x1f\n      and\n      dup3\n      add\n      swap2\n    tag_54:\n      pop\n      pop\n      pop\n      pop\n      pop\n      dup2\n      jump\t// out\n        /* \"contracts/TestInterview.sol\":523:562  RegisteredUser[] public registeredUsers */\n    tag_24:\n      0x03\n      dup2\n      dup2\n      sload\n      dup2\n      lt\n      tag_57\n      jumpi\n      0x00\n      dup1\n      revert\n    tag_57:\n      swap1\n      0x00\n      mstore\n      keccak256(0x00, 0x20)\n      swap1\n      0x02\n      mul\n      add\n      0x00\n      swap2\n      pop\n      swap1\n      pop\n      dup1\n      0x00\n      add\n      0x00\n      swap1\n      sload\n      swap1\n      0x0100\n      exp\n      swap1\n      div\n      0xffffffffffffffffffffffffffffffffffffffff\n      and\n      swap1\n      dup1\n      0x01\n      add\n      sload\n      swap1\n      pop\n      dup3\n      jump\t// out\n        /* \"contracts/TestInterview.sol\":341:413  address public ownerAddress = 0xdBDdb8575F6bda11F1DC548A1B546463CC567C3d */\n    tag_28:\n      0x02\n      0x00\n      swap1\n      sload\n      swap1\n      0x0100\n      exp\n      swap1\n      div\n      0xffffffffffffffffffffffffffffffffffffffff\n      and\n      dup2\n      jump\t// out\n        /* \"contracts/TestInterview.sol\":758:899  function rarityRateFunc (string memory _nameRarity) public view returns(uint256) {... */\n    tag_34:\n        /* \"contracts/TestInterview.sol\":830:837  uint256 */\n      0x00\n        /* \"contracts/TestInterview.sol\":857:864  objINFT */\n      0x01\n      0x00\n      swap1\n      sload\n      swap1\n      0x0100\n      exp\n      swap1\n      div\n      0xffffffffffffffffffffffffffffffffffffffff\n      and\n        /* \"contracts/TestInterview.sol\":857:878  objINFT.getRarityRate */\n      0xffffffffffffffffffffffffffffffffffffffff\n      and\n      0x278a7f33\n        /* \"contracts/TestInterview.sol\":879:890  _nameRarity */\n      dup4\n        /* \"contracts/TestInterview.sol\":857:891  objINFT.getRarityRate(_nameRarity) */\n      mload(0x40)\n      dup3\n      0xffffffff\n      and\n      0xe0\n      shl\n      dup2\n      mstore\n      0x04\n      add\n      tag_60\n      swap2\n      swap1\n      tag_21\n      jump\t// in\n    tag_60:\n      0x20\n      mload(0x40)\n      dup1\n      dup4\n      sub\n      dup2\n      dup7\n      dup1\n      extcodesize\n      iszero\n      dup1\n      iszero\n      tag_61\n      jumpi\n      0x00\n      dup1\n      revert\n    tag_61:\n      pop\n      gas\n      staticcall\n      iszero\n      dup1\n      iszero\n      tag_63\n      jumpi\n      returndatasize\n      0x00\n      dup1\n      returndatacopy\n      revert(0x00, returndatasize)\n    tag_63:\n      pop\n      pop\n      pop\n      pop\n      mload(0x40)\n      returndatasize\n      not(0x1f)\n      0x1f\n      dup3\n      add\n      and\n      dup3\n      add\n      dup1\n      0x40\n      mstore\n      pop\n      dup2\n      add\n      swap1\n      tag_64\n      swap2\n      swap1\n      tag_65\n      jump\t// in\n    tag_64:\n        /* \"contracts/TestInterview.sol\":850:891  return objINFT.getRarityRate(_nameRarity) */\n      0xff\n      and\n      swap1\n      pop\n        /* \"contracts/TestInterview.sol\":758:899  function rarityRateFunc (string memory _nameRarity) public view returns(uint256) {... */\n      swap2\n      swap1\n      pop\n      jump\t// out\n        /* \"contracts/TestInterview.sol\":573:750  function rarityListFunc () public view returns(string memory) {... */\n    tag_38:\n        /* \"contracts/TestInterview.sol\":620:633  string memory */\n      0x60\n        /* \"contracts/TestInterview.sol\":646:678  string[3] memory localRarityList */\n      0x00\n        /* \"contracts/TestInterview.sol\":681:688  objINFT */\n      0x01\n      0x00\n      swap1\n      sload\n      swap1\n      0x0100\n      exp\n      swap1\n      div\n      0xffffffffffffffffffffffffffffffffffffffff\n      and\n        /* \"contracts/TestInterview.sol\":681:702  objINFT.getRarityList */\n      0xffffffffffffffffffffffffffffffffffffffff\n      and\n      0x48441d5f\n        /* \"contracts/TestInterview.sol\":681:704  objINFT.getRarityList() */\n      mload(0x40)\n      dup2\n      0xffffffff\n      and\n      0xe0\n      shl\n      dup2\n      mstore\n      0x04\n      add\n      0x00\n      mload(0x40)\n      dup1\n      dup4\n      sub\n      dup2\n      dup7\n      dup1\n      extcodesize\n      iszero\n      dup1\n      iszero\n      tag_67\n      jumpi\n      0x00\n      dup1\n      revert\n    tag_67:\n      pop\n      gas\n      staticcall\n      iszero\n      dup1\n      iszero\n      tag_69\n      jumpi\n      returndatasize\n      0x00\n      dup1\n      returndatacopy\n      revert(0x00, returndatasize)\n    tag_69:\n      pop\n      pop\n      pop\n      pop\n      mload(0x40)\n      returndatasize\n      0x00\n      dup3\n      returndatacopy\n      returndatasize\n      not(0x1f)\n      0x1f\n      dup3\n      add\n      and\n      dup3\n      add\n      dup1\n      0x40\n      mstore\n      pop\n      dup2\n      add\n      swap1\n      tag_70\n      swap2\n      swap1\n      tag_71\n      jump\t// in\n    tag_70:\n        /* \"contracts/TestInterview.sol\":646:704  string[3] memory localRarityList = objINFT.getRarityList() */\n      swap1\n      pop\n        /* \"contracts/TestInterview.sol\":724:739  localRarityList */\n      dup1\n        /* \"contracts/TestInterview.sol\":740:741  1 */\n      0x01\n        /* \"contracts/TestInterview.sol\":724:742  localRarityList[1] */\n      0x03\n      dup2\n      lt\n      tag_72\n      jumpi\n      tag_73\n      tag_47\n      jump\t// in\n    tag_73:\n    tag_72:\n      0x20\n      mul\n      add\n      mload\n        /* \"contracts/TestInterview.sol\":717:742  return localRarityList[1] */\n      swap2\n      pop\n      pop\n        /* \"contracts/TestInterview.sol\":573:750  function rarityListFunc () public view returns(string memory) {... */\n      swap1\n      jump\t// out\n        /* \"contracts/TestInterview.sol\":907:1576  function createGatcha () public {... */\n    tag_41:\n        /* \"contracts/TestInterview.sol\":986:998  bool isFound */\n      0x00\n        /* \"contracts/TestInterview.sol\":1021:1034  uint256 index */\n      dup1\n        /* \"contracts/TestInterview.sol\":1017:1354  for(uint256 index = 0; index < registeredUsers.length; index ++ ) {... */\n    tag_75:\n        /* \"contracts/TestInterview.sol\":1048:1063  registeredUsers */\n      0x03\n        /* \"contracts/TestInterview.sol\":1048:1070  registeredUsers.length */\n      dup1\n      sload\n      swap1\n      pop\n        /* \"contracts/TestInterview.sol\":1040:1045  index */\n      dup2\n        /* \"contracts/TestInterview.sol\":1040:1070  index < registeredUsers.length */\n      lt\n        /* \"contracts/TestInterview.sol\":1017:1354  for(uint256 index = 0; index < registeredUsers.length; index ++ ) {... */\n      iszero\n      tag_76\n      jumpi\n        /* \"contracts/TestInterview.sol\":1098:1135  RegisteredUser memory localRegistered */\n      0x00\n        /* \"contracts/TestInterview.sol\":1138:1153  registeredUsers */\n      0x03\n        /* \"contracts/TestInterview.sol\":1154:1159  index */\n      dup3\n        /* \"contracts/TestInterview.sol\":1138:1160  registeredUsers[index] */\n      dup2\n      sload\n      dup2\n      lt\n      tag_78\n      jumpi\n      tag_79\n      tag_47\n      jump\t// in\n    tag_79:\n    tag_78:\n      swap1\n      0x00\n      mstore\n      keccak256(0x00, 0x20)\n      swap1\n      0x02\n      mul\n      add\n        /* \"contracts/TestInterview.sol\":1098:1160  RegisteredUser memory localRegistered = registeredUsers[index] */\n      mload(0x40)\n      dup1\n      0x40\n      add\n      0x40\n      mstore\n      swap1\n      dup2\n      0x00\n      dup3\n      add\n      0x00\n      swap1\n      sload\n      swap1\n      0x0100\n      exp\n      swap1\n      div\n      0xffffffffffffffffffffffffffffffffffffffff\n      and\n      0xffffffffffffffffffffffffffffffffffffffff\n      and\n      0xffffffffffffffffffffffffffffffffffffffff\n      and\n      dup2\n      mstore\n      0x20\n      add\n      0x01\n      dup3\n      add\n      sload\n      dup2\n      mstore\n      pop\n      pop\n      swap1\n      pop\n        /* \"contracts/TestInterview.sol\":1216:1226  msg.sender */\n      caller\n        /* \"contracts/TestInterview.sol\":1178:1226  registeredUsers[index].userAddress == msg.sender */\n      0xffffffffffffffffffffffffffffffffffffffff\n      and\n        /* \"contracts/TestInterview.sol\":1178:1193  registeredUsers */\n      0x03\n        /* \"contracts/TestInterview.sol\":1194:1199  index */\n      dup4\n        /* \"contracts/TestInterview.sol\":1178:1200  registeredUsers[index] */\n      dup2\n      sload\n      dup2\n      lt\n      tag_81\n      jumpi\n      tag_82\n      tag_47\n      jump\t// in\n    tag_82:\n    tag_81:\n      swap1\n      0x00\n      mstore\n      keccak256(0x00, 0x20)\n      swap1\n      0x02\n      mul\n      add\n        /* \"contracts/TestInterview.sol\":1178:1212  registeredUsers[index].userAddress */\n      0x00\n      add\n      0x00\n      swap1\n      sload\n      swap1\n      0x0100\n      exp\n      swap1\n      div\n      0xffffffffffffffffffffffffffffffffffffffff\n      and\n        /* \"contracts/TestInterview.sol\":1178:1226  registeredUsers[index].userAddress == msg.sender */\n      0xffffffffffffffffffffffffffffffffffffffff\n      and\n      eq\n        /* \"contracts/TestInterview.sol\":1175:1343  if(registeredUsers[index].userAddress == msg.sender)... */\n      iszero\n      tag_84\n      jumpi\n        /* \"contracts/TestInterview.sol\":1270:1274  true */\n      0x01\n        /* \"contracts/TestInterview.sol\":1260:1274  isFound = true */\n      swap3\n      pop\n        /* \"contracts/TestInterview.sol\":1326:1327  2 */\n      0x02\n        /* \"contracts/TestInterview.sol\":1293:1308  localRegistered */\n      dup2\n        /* \"contracts/TestInterview.sol\":1293:1323  localRegistered.counterVisited */\n      0x20\n      add\n        /* \"contracts/TestInterview.sol\":1293:1327  localRegistered.counterVisited = 2 */\n      dup2\n      dup2\n      mstore\n      pop\n      pop\n        /* \"contracts/TestInterview.sol\":1175:1343  if(registeredUsers[index].userAddress == msg.sender)... */\n    tag_84:\n        /* \"contracts/TestInterview.sol\":1083:1354  {... */\n      pop\n        /* \"contracts/TestInterview.sol\":1072:1080  index ++ */\n      dup1\n      dup1\n      tag_85\n      swap1\n      tag_86\n      jump\t// in\n    tag_85:\n      swap2\n      pop\n      pop\n        /* \"contracts/TestInterview.sol\":1017:1354  for(uint256 index = 0; index < registeredUsers.length; index ++ ) {... */\n      jump(tag_75)\n    tag_76:\n      pop\n        /* \"contracts/TestInterview.sol\":1380:1385  false */\n      0x00\n        /* \"contracts/TestInterview.sol\":1369:1385  isFound == false */\n      iszero\n      iszero\n        /* \"contracts/TestInterview.sol\":1369:1376  isFound */\n      dup2\n        /* \"contracts/TestInterview.sol\":1369:1385  isFound == false */\n      iszero\n      iszero\n      eq\n        /* \"contracts/TestInterview.sol\":1366:1559  if(isFound == false) {... */\n      iszero\n      tag_87\n      jumpi\n        /* \"contracts/TestInterview.sol\":1402:1435  RegisteredUser memory newRegister */\n      0x00\n        /* \"contracts/TestInterview.sol\":1438:1499  RegisteredUser({userAddress : msg.sender, counterVisited :0}) */\n      mload(0x40)\n      dup1\n      0x40\n      add\n      0x40\n      mstore\n      dup1\n        /* \"contracts/TestInterview.sol\":1468:1478  msg.sender */\n      caller\n        /* \"contracts/TestInterview.sol\":1438:1499  RegisteredUser({userAddress : msg.sender, counterVisited :0}) */\n      0xffffffffffffffffffffffffffffffffffffffff\n      and\n      dup2\n      mstore\n      0x20\n      add\n        /* \"contracts/TestInterview.sol\":1496:1497  0 */\n      0x00\n        /* \"contracts/TestInterview.sol\":1438:1499  RegisteredUser({userAddress : msg.sender, counterVisited :0}) */\n      dup2\n      mstore\n      pop\n        /* \"contracts/TestInterview.sol\":1402:1499  RegisteredUser memory newRegister = RegisteredUser({userAddress : msg.sender, counterVisited :0}) */\n      swap1\n      pop\n        /* \"contracts/TestInterview.sol\":1514:1529  registeredUsers */\n      0x03\n        /* \"contracts/TestInterview.sol\":1535:1546  newRegister */\n      dup2\n        /* \"contracts/TestInterview.sol\":1514:1547  registeredUsers.push(newRegister) */\n      swap1\n      dup1\n      0x01\n      dup2\n      sload\n      add\n      dup1\n      dup3\n      sstore\n      dup1\n      swap2\n      pop\n      pop\n      0x01\n      swap1\n      sub\n      swap1\n      0x00\n      mstore\n      keccak256(0x00, 0x20)\n      swap1\n      0x02\n      mul\n      add\n      0x00\n      swap1\n      swap2\n      swap1\n      swap2\n      swap1\n      swap2\n      pop\n      0x00\n      dup3\n      add\n      mload\n      dup2\n      0x00\n      add\n      exp(0x0100, 0x00)\n      dup2\n      sload\n      dup2\n      0xffffffffffffffffffffffffffffffffffffffff\n      mul\n      not\n      and\n      swap1\n      dup4\n      0xffffffffffffffffffffffffffffffffffffffff\n      and\n      mul\n      or\n      swap1\n      sstore\n      pop\n      0x20\n      dup3\n      add\n      mload\n      dup2\n      0x01\n      add\n      sstore\n      pop\n      pop\n        /* \"contracts/TestInterview.sol\":1387:1559  {... */\n      pop\n        /* \"contracts/TestInterview.sol\":1366:1559  if(isFound == false) {... */\n    tag_87:\n        /* \"contracts/TestInterview.sol\":939:1576  {... */\n      pop\n        /* \"contracts/TestInterview.sol\":907:1576  function createGatcha () public {... */\n      jump\t// out\n    tag_43:\n      mload(0x40)\n      dup1\n      0x40\n      add\n      0x40\n      mstore\n      dup1\n      and(0xffffffffffffffffffffffffffffffffffffffff, 0x00)\n      dup2\n      mstore\n      0x20\n      add\n      0x00\n      dup2\n      mstore\n      pop\n      swap1\n      jump\t// out\n        /* \"#utility.yul\":7:82   */\n    tag_89:\n        /* \"#utility.yul\":40:46   */\n      0x00\n        /* \"#utility.yul\":73:75   */\n      0x40\n        /* \"#utility.yul\":67:76   */\n      mload\n        /* \"#utility.yul\":57:76   */\n      swap1\n      pop\n        /* \"#utility.yul\":7:82   */\n      swap1\n      jump\t// out\n        /* \"#utility.yul\":88:205   */\n    tag_90:\n        /* \"#utility.yul\":197:198   */\n      0x00\n        /* \"#utility.yul\":194:195   */\n      dup1\n        /* \"#utility.yul\":187:199   */\n      revert\n        /* \"#utility.yul\":211:328   */\n    tag_91:\n        /* \"#utility.yul\":320:321   */\n      0x00\n        /* \"#utility.yul\":317:318   */\n      dup1\n        /* \"#utility.yul\":310:322   */\n      revert\n        /* \"#utility.yul\":334:411   */\n    tag_92:\n        /* \"#utility.yul\":371:378   */\n      0x00\n        /* \"#utility.yul\":400:405   */\n      dup2\n        /* \"#utility.yul\":389:405   */\n      swap1\n      pop\n        /* \"#utility.yul\":334:411   */\n      swap2\n      swap1\n      pop\n      jump\t// out\n        /* \"#utility.yul\":417:539   */\n    tag_93:\n        /* \"#utility.yul\":490:514   */\n      tag_133\n        /* \"#utility.yul\":508:513   */\n      dup2\n        /* \"#utility.yul\":490:514   */\n      tag_92\n      jump\t// in\n    tag_133:\n        /* \"#utility.yul\":483:488   */\n      dup2\n        /* \"#utility.yul\":480:515   */\n      eq\n        /* \"#utility.yul\":470:533   */\n      tag_134\n      jumpi\n        /* \"#utility.yul\":529:530   */\n      0x00\n        /* \"#utility.yul\":526:527   */\n      dup1\n        /* \"#utility.yul\":519:531   */\n      revert\n        /* \"#utility.yul\":470:533   */\n    tag_134:\n        /* \"#utility.yul\":417:539   */\n      pop\n      jump\t// out\n        /* \"#utility.yul\":545:684   */\n    tag_94:\n        /* \"#utility.yul\":591:596   */\n      0x00\n        /* \"#utility.yul\":629:635   */\n      dup2\n        /* \"#utility.yul\":616:636   */\n      calldataload\n        /* \"#utility.yul\":607:636   */\n      swap1\n      pop\n        /* \"#utility.yul\":645:678   */\n      tag_136\n        /* \"#utility.yul\":672:677   */\n      dup2\n        /* \"#utility.yul\":645:678   */\n      tag_93\n      jump\t// in\n    tag_136:\n        /* \"#utility.yul\":545:684   */\n      swap3\n      swap2\n      pop\n      pop\n      jump\t// out\n        /* \"#utility.yul\":690:1019   */\n    tag_13:\n        /* \"#utility.yul\":749:755   */\n      0x00\n        /* \"#utility.yul\":798:800   */\n      0x20\n        /* \"#utility.yul\":786:795   */\n      dup3\n        /* \"#utility.yul\":777:784   */\n      dup5\n        /* \"#utility.yul\":773:796   */\n      sub\n        /* \"#utility.yul\":769:801   */\n      slt\n        /* \"#utility.yul\":766:885   */\n      iszero\n      tag_138\n      jumpi\n        /* \"#utility.yul\":804:883   */\n      tag_139\n      tag_90\n      jump\t// in\n    tag_139:\n        /* \"#utility.yul\":766:885   */\n    tag_138:\n        /* \"#utility.yul\":924:925   */\n      0x00\n        /* \"#utility.yul\":949:1002   */\n      tag_140\n        /* \"#utility.yul\":994:1001   */\n      dup5\n        /* \"#utility.yul\":985:991   */\n      dup3\n        /* \"#utility.yul\":974:983   */\n      dup6\n        /* \"#utility.yul\":970:992   */\n      add\n        /* \"#utility.yul\":949:1002   */\n      tag_94\n      jump\t// in\n    tag_140:\n        /* \"#utility.yul\":939:1002   */\n      swap2\n      pop\n        /* \"#utility.yul\":895:1012   */\n      pop\n        /* \"#utility.yul\":690:1019   */\n      swap3\n      swap2\n      pop\n      pop\n      jump\t// out\n        /* \"#utility.yul\":1025:1151   */\n    tag_95:\n        /* \"#utility.yul\":1062:1069   */\n      0x00\n        /* \"#utility.yul\":1102:1144   */\n      0xffffffffffffffffffffffffffffffffffffffff\n        /* \"#utility.yul\":1095:1100   */\n      dup3\n        /* \"#utility.yul\":1091:1145   */\n      and\n        /* \"#utility.yul\":1080:1145   */\n      swap1\n      pop\n        /* \"#utility.yul\":1025:1151   */\n      swap2\n      swap1\n      pop\n      jump\t// out\n        /* \"#utility.yul\":1157:1253   */\n    tag_96:\n        /* \"#utility.yul\":1194:1201   */\n      0x00\n        /* \"#utility.yul\":1223:1247   */\n      tag_143\n        /* \"#utility.yul\":1241:1246   */\n      dup3\n        /* \"#utility.yul\":1223:1247   */\n      tag_95\n      jump\t// in\n    tag_143:\n        /* \"#utility.yul\":1212:1247   */\n      swap1\n      pop\n        /* \"#utility.yul\":1157:1253   */\n      swap2\n      swap1\n      pop\n      jump\t// out\n        /* \"#utility.yul\":1259:1367   */\n    tag_97:\n        /* \"#utility.yul\":1336:1360   */\n      tag_145\n        /* \"#utility.yul\":1354:1359   */\n      dup2\n        /* \"#utility.yul\":1336:1360   */\n      tag_96\n      jump\t// in\n    tag_145:\n        /* \"#utility.yul\":1331:1334   */\n      dup3\n        /* \"#utility.yul\":1324:1361   */\n      mstore\n        /* \"#utility.yul\":1259:1367   */\n      pop\n      pop\n      jump\t// out\n        /* \"#utility.yul\":1373:1481   */\n    tag_98:\n        /* \"#utility.yul\":1450:1474   */\n      tag_147\n        /* \"#utility.yul\":1468:1473   */\n      dup2\n        /* \"#utility.yul\":1450:1474   */\n      tag_92\n      jump\t// in\n    tag_147:\n        /* \"#utility.yul\":1445:1448   */\n      dup3\n        /* \"#utility.yul\":1438:1475   */\n      mstore\n        /* \"#utility.yul\":1373:1481   */\n      pop\n      pop\n      jump\t// out\n        /* \"#utility.yul\":1569:2103   */\n    tag_99:\n        /* \"#utility.yul\":1726:1730   */\n      0x40\n        /* \"#utility.yul\":1721:1724   */\n      dup3\n        /* \"#utility.yul\":1717:1731   */\n      add\n        /* \"#utility.yul\":1820:1824   */\n      0x00\n        /* \"#utility.yul\":1813:1818   */\n      dup3\n        /* \"#utility.yul\":1809:1825   */\n      add\n        /* \"#utility.yul\":1803:1826   */\n      mload\n        /* \"#utility.yul\":1839:1902   */\n      tag_149\n        /* \"#utility.yul\":1896:1900   */\n      0x00\n        /* \"#utility.yul\":1891:1894   */\n      dup6\n        /* \"#utility.yul\":1887:1901   */\n      add\n        /* \"#utility.yul\":1873:1885   */\n      dup3\n        /* \"#utility.yul\":1839:1902   */\n      tag_97\n      jump\t// in\n    tag_149:\n        /* \"#utility.yul\":1741:1912   */\n      pop\n        /* \"#utility.yul\":2004:2008   */\n      0x20\n        /* \"#utility.yul\":1997:2002   */\n      dup3\n        /* \"#utility.yul\":1993:2009   */\n      add\n        /* \"#utility.yul\":1987:2010   */\n      mload\n        /* \"#utility.yul\":2023:2086   */\n      tag_150\n        /* \"#utility.yul\":2080:2084   */\n      0x20\n        /* \"#utility.yul\":2075:2078   */\n      dup6\n        /* \"#utility.yul\":2071:2085   */\n      add\n        /* \"#utility.yul\":2057:2069   */\n      dup3\n        /* \"#utility.yul\":2023:2086   */\n      tag_98\n      jump\t// in\n    tag_150:\n        /* \"#utility.yul\":1922:2096   */\n      pop\n        /* \"#utility.yul\":1695:2103   */\n      pop\n        /* \"#utility.yul\":1569:2103   */\n      pop\n      pop\n      jump\t// out\n        /* \"#utility.yul\":2109:2451   */\n    tag_16:\n        /* \"#utility.yul\":2262:2266   */\n      0x00\n        /* \"#utility.yul\":2300:2302   */\n      0x40\n        /* \"#utility.yul\":2289:2298   */\n      dup3\n        /* \"#utility.yul\":2285:2303   */\n      add\n        /* \"#utility.yul\":2277:2303   */\n      swap1\n      pop\n        /* \"#utility.yul\":2313:2444   */\n      tag_152\n        /* \"#utility.yul\":2441:2442   */\n      0x00\n        /* \"#utility.yul\":2430:2439   */\n      dup4\n        /* \"#utility.yul\":2426:2443   */\n      add\n        /* \"#utility.yul\":2417:2423   */\n      dup5\n        /* \"#utility.yul\":2313:2444   */\n      tag_99\n      jump\t// in\n    tag_152:\n        /* \"#utility.yul\":2109:2451   */\n      swap3\n      swap2\n      pop\n      pop\n      jump\t// out\n        /* \"#utility.yul\":2457:2556   */\n    tag_100:\n        /* \"#utility.yul\":2509:2515   */\n      0x00\n        /* \"#utility.yul\":2543:2548   */\n      dup2\n        /* \"#utility.yul\":2537:2549   */\n      mload\n        /* \"#utility.yul\":2527:2549   */\n      swap1\n      pop\n        /* \"#utility.yul\":2457:2556   */\n      swap2\n      swap1\n      pop\n      jump\t// out\n        /* \"#utility.yul\":2562:2731   */\n    tag_101:\n        /* \"#utility.yul\":2646:2657   */\n      0x00\n        /* \"#utility.yul\":2680:2686   */\n      dup3\n        /* \"#utility.yul\":2675:2678   */\n      dup3\n        /* \"#utility.yul\":2668:2687   */\n      mstore\n        /* \"#utility.yul\":2720:2724   */\n      0x20\n        /* \"#utility.yul\":2715:2718   */\n      dup3\n        /* \"#utility.yul\":2711:2725   */\n      add\n        /* \"#utility.yul\":2696:2725   */\n      swap1\n      pop\n        /* \"#utility.yul\":2562:2731   */\n      swap3\n      swap2\n      pop\n      pop\n      jump\t// out\n        /* \"#utility.yul\":2737:3044   */\n    tag_102:\n        /* \"#utility.yul\":2805:2806   */\n      0x00\n        /* \"#utility.yul\":2815:2928   */\n    tag_156:\n        /* \"#utility.yul\":2829:2835   */\n      dup4\n        /* \"#utility.yul\":2826:2827   */\n      dup2\n        /* \"#utility.yul\":2823:2836   */\n      lt\n        /* \"#utility.yul\":2815:2928   */\n      iszero\n      tag_158\n      jumpi\n        /* \"#utility.yul\":2914:2915   */\n      dup1\n        /* \"#utility.yul\":2909:2912   */\n      dup3\n        /* \"#utility.yul\":2905:2916   */\n      add\n        /* \"#utility.yul\":2899:2917   */\n      mload\n        /* \"#utility.yul\":2895:2896   */\n      dup2\n        /* \"#utility.yul\":2890:2893   */\n      dup5\n        /* \"#utility.yul\":2886:2897   */\n      add\n        /* \"#utility.yul\":2879:2918   */\n      mstore\n        /* \"#utility.yul\":2851:2853   */\n      0x20\n        /* \"#utility.yul\":2848:2849   */\n      dup2\n        /* \"#utility.yul\":2844:2854   */\n      add\n        /* \"#utility.yul\":2839:2854   */\n      swap1\n      pop\n        /* \"#utility.yul\":2815:2928   */\n      jump(tag_156)\n    tag_158:\n        /* \"#utility.yul\":2946:2952   */\n      dup4\n        /* \"#utility.yul\":2943:2944   */\n      dup2\n        /* \"#utility.yul\":2940:2953   */\n      gt\n        /* \"#utility.yul\":2937:3038   */\n      iszero\n      tag_159\n      jumpi\n        /* \"#utility.yul\":3026:3027   */\n      0x00\n        /* \"#utility.yul\":3017:3023   */\n      dup5\n        /* \"#utility.yul\":3012:3015   */\n      dup5\n        /* \"#utility.yul\":3008:3024   */\n      add\n        /* \"#utility.yul\":3001:3028   */\n      mstore\n        /* \"#utility.yul\":2937:3038   */\n    tag_159:\n        /* \"#utility.yul\":2786:3044   */\n      pop\n        /* \"#utility.yul\":2737:3044   */\n      pop\n      pop\n      pop\n      jump\t// out\n        /* \"#utility.yul\":3050:3152   */\n    tag_103:\n        /* \"#utility.yul\":3091:3097   */\n      0x00\n        /* \"#utility.yul\":3142:3144   */\n      0x1f\n        /* \"#utility.yul\":3138:3145   */\n      not\n        /* \"#utility.yul\":3133:3135   */\n      0x1f\n        /* \"#utility.yul\":3126:3131   */\n      dup4\n        /* \"#utility.yul\":3122:3136   */\n      add\n        /* \"#utility.yul\":3118:3146   */\n      and\n        /* \"#utility.yul\":3108:3146   */\n      swap1\n      pop\n        /* \"#utility.yul\":3050:3152   */\n      swap2\n      swap1\n      pop\n      jump\t// out\n        /* \"#utility.yul\":3158:3522   */\n    tag_104:\n        /* \"#utility.yul\":3246:3249   */\n      0x00\n        /* \"#utility.yul\":3274:3313   */\n      tag_162\n        /* \"#utility.yul\":3307:3312   */\n      dup3\n        /* \"#utility.yul\":3274:3313   */\n      tag_100\n      jump\t// in\n    tag_162:\n        /* \"#utility.yul\":3329:3400   */\n      tag_163\n        /* \"#utility.yul\":3393:3399   */\n      dup2\n        /* \"#utility.yul\":3388:3391   */\n      dup6\n        /* \"#utility.yul\":3329:3400   */\n      tag_101\n      jump\t// in\n    tag_163:\n        /* \"#utility.yul\":3322:3400   */\n      swap4\n      pop\n        /* \"#utility.yul\":3409:3461   */\n      tag_164\n        /* \"#utility.yul\":3454:3460   */\n      dup2\n        /* \"#utility.yul\":3449:3452   */\n      dup6\n        /* \"#utility.yul\":3442:3446   */\n      0x20\n        /* \"#utility.yul\":3435:3440   */\n      dup7\n        /* \"#utility.yul\":3431:3447   */\n      add\n        /* \"#utility.yul\":3409:3461   */\n      tag_102\n      jump\t// in\n    tag_164:\n        /* \"#utility.yul\":3486:3515   */\n      tag_165\n        /* \"#utility.yul\":3508:3514   */\n      dup2\n        /* \"#utility.yul\":3486:3515   */\n      tag_103\n      jump\t// in\n    tag_165:\n        /* \"#utility.yul\":3481:3484   */\n      dup5\n        /* \"#utility.yul\":3477:3516   */\n      add\n        /* \"#utility.yul\":3470:3516   */\n      swap2\n      pop\n        /* \"#utility.yul\":3250:3522   */\n      pop\n        /* \"#utility.yul\":3158:3522   */\n      swap3\n      swap2\n      pop\n      pop\n      jump\t// out\n        /* \"#utility.yul\":3528:3841   */\n    tag_21:\n        /* \"#utility.yul\":3641:3645   */\n      0x00\n        /* \"#utility.yul\":3679:3681   */\n      0x20\n        /* \"#utility.yul\":3668:3677   */\n      dup3\n        /* \"#utility.yul\":3664:3682   */\n      add\n        /* \"#utility.yul\":3656:3682   */\n      swap1\n      pop\n        /* \"#utility.yul\":3728:3737   */\n      dup2\n        /* \"#utility.yul\":3722:3726   */\n      dup2\n        /* \"#utility.yul\":3718:3738   */\n      sub\n        /* \"#utility.yul\":3714:3715   */\n      0x00\n        /* \"#utility.yul\":3703:3712   */\n      dup4\n        /* \"#utility.yul\":3699:3716   */\n      add\n        /* \"#utility.yul\":3692:3739   */\n      mstore\n        /* \"#utility.yul\":3756:3834   */\n      tag_167\n        /* \"#utility.yul\":3829:3833   */\n      dup2\n        /* \"#utility.yul\":3820:3826   */\n      dup5\n        /* \"#utility.yul\":3756:3834   */\n      tag_104\n      jump\t// in\n    tag_167:\n        /* \"#utility.yul\":3748:3834   */\n      swap1\n      pop\n        /* \"#utility.yul\":3528:3841   */\n      swap3\n      swap2\n      pop\n      pop\n      jump\t// out\n        /* \"#utility.yul\":3847:3965   */\n    tag_105:\n        /* \"#utility.yul\":3934:3958   */\n      tag_169\n        /* \"#utility.yul\":3952:3957   */\n      dup2\n        /* \"#utility.yul\":3934:3958   */\n      tag_96\n      jump\t// in\n    tag_169:\n        /* \"#utility.yul\":3929:3932   */\n      dup3\n        /* \"#utility.yul\":3922:3959   */\n      mstore\n        /* \"#utility.yul\":3847:3965   */\n      pop\n      pop\n      jump\t// out\n        /* \"#utility.yul\":3971:4089   */\n    tag_106:\n        /* \"#utility.yul\":4058:4082   */\n      tag_171\n        /* \"#utility.yul\":4076:4081   */\n      dup2\n        /* \"#utility.yul\":4058:4082   */\n      tag_92\n      jump\t// in\n    tag_171:\n        /* \"#utility.yul\":4053:4056   */\n      dup3\n        /* \"#utility.yul\":4046:4083   */\n      mstore\n        /* \"#utility.yul\":3971:4089   */\n      pop\n      pop\n      jump\t// out\n        /* \"#utility.yul\":4095:4427   */\n    tag_26:\n        /* \"#utility.yul\":4216:4220   */\n      0x00\n        /* \"#utility.yul\":4254:4256   */\n      0x40\n        /* \"#utility.yul\":4243:4252   */\n      dup3\n        /* \"#utility.yul\":4239:4257   */\n      add\n        /* \"#utility.yul\":4231:4257   */\n      swap1\n      pop\n        /* \"#utility.yul\":4267:4338   */\n      tag_173\n        /* \"#utility.yul\":4335:4336   */\n      0x00\n        /* \"#utility.yul\":4324:4333   */\n      dup4\n        /* \"#utility.yul\":4320:4337   */\n      add\n        /* \"#utility.yul\":4311:4317   */\n      dup6\n        /* \"#utility.yul\":4267:4338   */\n      tag_105\n      jump\t// in\n    tag_173:\n        /* \"#utility.yul\":4348:4420   */\n      tag_174\n        /* \"#utility.yul\":4416:4418   */\n      0x20\n        /* \"#utility.yul\":4405:4414   */\n      dup4\n        /* \"#utility.yul\":4401:4419   */\n      add\n        /* \"#utility.yul\":4392:4398   */\n      dup5\n        /* \"#utility.yul\":4348:4420   */\n      tag_106\n      jump\t// in\n    tag_174:\n        /* \"#utility.yul\":4095:4427   */\n      swap4\n      swap3\n      pop\n      pop\n      pop\n      jump\t// out\n        /* \"#utility.yul\":4433:4655   */\n    tag_30:\n        /* \"#utility.yul\":4526:4530   */\n      0x00\n        /* \"#utility.yul\":4564:4566   */\n      0x20\n        /* \"#utility.yul\":4553:4562   */\n      dup3\n        /* \"#utility.yul\":4549:4567   */\n      add\n        /* \"#utility.yul\":4541:4567   */\n      swap1\n      pop\n        /* \"#utility.yul\":4577:4648   */\n      tag_176\n        /* \"#utility.yul\":4645:4646   */\n      0x00\n        /* \"#utility.yul\":4634:4643   */\n      dup4\n        /* \"#utility.yul\":4630:4647   */\n      add\n        /* \"#utility.yul\":4621:4627   */\n      dup5\n        /* \"#utility.yul\":4577:4648   */\n      tag_105\n      jump\t// in\n    tag_176:\n        /* \"#utility.yul\":4433:4655   */\n      swap3\n      swap2\n      pop\n      pop\n      jump\t// out\n        /* \"#utility.yul\":4661:4778   */\n    tag_107:\n        /* \"#utility.yul\":4770:4771   */\n      0x00\n        /* \"#utility.yul\":4767:4768   */\n      dup1\n        /* \"#utility.yul\":4760:4772   */\n      revert\n        /* \"#utility.yul\":4784:4901   */\n    tag_108:\n        /* \"#utility.yul\":4893:4894   */\n      0x00\n        /* \"#utility.yul\":4890:4891   */\n      dup1\n        /* \"#utility.yul\":4883:4895   */\n      revert\n        /* \"#utility.yul\":4907:5087   */\n    tag_109:\n        /* \"#utility.yul\":4955:5032   */\n      0x4e487b7100000000000000000000000000000000000000000000000000000000\n        /* \"#utility.yul\":4952:4953   */\n      0x00\n        /* \"#utility.yul\":4945:5033   */\n      mstore\n        /* \"#utility.yul\":5052:5056   */\n      0x41\n        /* \"#utility.yul\":5049:5050   */\n      0x04\n        /* \"#utility.yul\":5042:5057   */\n      mstore\n        /* \"#utility.yul\":5076:5080   */\n      0x24\n        /* \"#utility.yul\":5073:5074   */\n      0x00\n        /* \"#utility.yul\":5066:5081   */\n      revert\n        /* \"#utility.yul\":5093:5374   */\n    tag_110:\n        /* \"#utility.yul\":5176:5203   */\n      tag_181\n        /* \"#utility.yul\":5198:5202   */\n      dup3\n        /* \"#utility.yul\":5176:5203   */\n      tag_103\n      jump\t// in\n    tag_181:\n        /* \"#utility.yul\":5168:5174   */\n      dup2\n        /* \"#utility.yul\":5164:5204   */\n      add\n        /* \"#utility.yul\":5306:5312   */\n      dup2\n        /* \"#utility.yul\":5294:5304   */\n      dup2\n        /* \"#utility.yul\":5291:5313   */\n      lt\n        /* \"#utility.yul\":5270:5288   */\n      0xffffffffffffffff\n        /* \"#utility.yul\":5258:5268   */\n      dup3\n        /* \"#utility.yul\":5255:5289   */\n      gt\n        /* \"#utility.yul\":5252:5314   */\n      or\n        /* \"#utility.yul\":5249:5337   */\n      iszero\n      tag_182\n      jumpi\n        /* \"#utility.yul\":5317:5335   */\n      tag_183\n      tag_109\n      jump\t// in\n    tag_183:\n        /* \"#utility.yul\":5249:5337   */\n    tag_182:\n        /* \"#utility.yul\":5357:5367   */\n      dup1\n        /* \"#utility.yul\":5353:5355   */\n      0x40\n        /* \"#utility.yul\":5346:5368   */\n      mstore\n        /* \"#utility.yul\":5136:5374   */\n      pop\n        /* \"#utility.yul\":5093:5374   */\n      pop\n      pop\n      jump\t// out\n        /* \"#utility.yul\":5380:5509   */\n    tag_111:\n        /* \"#utility.yul\":5414:5420   */\n      0x00\n        /* \"#utility.yul\":5441:5461   */\n      tag_185\n      tag_89\n      jump\t// in\n    tag_185:\n        /* \"#utility.yul\":5431:5461   */\n      swap1\n      pop\n        /* \"#utility.yul\":5470:5503   */\n      tag_186\n        /* \"#utility.yul\":5498:5502   */\n      dup3\n        /* \"#utility.yul\":5490:5496   */\n      dup3\n        /* \"#utility.yul\":5470:5503   */\n      tag_110\n      jump\t// in\n    tag_186:\n        /* \"#utility.yul\":5380:5509   */\n      swap2\n      swap1\n      pop\n      jump\t// out\n        /* \"#utility.yul\":5515:5823   */\n    tag_112:\n        /* \"#utility.yul\":5577:5581   */\n      0x00\n        /* \"#utility.yul\":5667:5685   */\n      0xffffffffffffffff\n        /* \"#utility.yul\":5659:5665   */\n      dup3\n        /* \"#utility.yul\":5656:5686   */\n      gt\n        /* \"#utility.yul\":5653:5709   */\n      iszero\n      tag_188\n      jumpi\n        /* \"#utility.yul\":5689:5707   */\n      tag_189\n      tag_109\n      jump\t// in\n    tag_189:\n        /* \"#utility.yul\":5653:5709   */\n    tag_188:\n        /* \"#utility.yul\":5727:5756   */\n      tag_190\n        /* \"#utility.yul\":5749:5755   */\n      dup3\n        /* \"#utility.yul\":5727:5756   */\n      tag_103\n      jump\t// in\n    tag_190:\n        /* \"#utility.yul\":5719:5756   */\n      swap1\n      pop\n        /* \"#utility.yul\":5811:5815   */\n      0x20\n        /* \"#utility.yul\":5805:5809   */\n      dup2\n        /* \"#utility.yul\":5801:5816   */\n      add\n        /* \"#utility.yul\":5793:5816   */\n      swap1\n      pop\n        /* \"#utility.yul\":5515:5823   */\n      swap2\n      swap1\n      pop\n      jump\t// out\n        /* \"#utility.yul\":5829:5983   */\n    tag_113:\n        /* \"#utility.yul\":5913:5919   */\n      dup3\n        /* \"#utility.yul\":5908:5911   */\n      dup2\n        /* \"#utility.yul\":5903:5906   */\n      dup4\n        /* \"#utility.yul\":5890:5920   */\n      calldatacopy\n        /* \"#utility.yul\":5975:5976   */\n      0x00\n        /* \"#utility.yul\":5966:5972   */\n      dup4\n        /* \"#utility.yul\":5961:5964   */\n      dup4\n        /* \"#utility.yul\":5957:5973   */\n      add\n        /* \"#utility.yul\":5950:5977   */\n      mstore\n        /* \"#utility.yul\":5829:5983   */\n      pop\n      pop\n      pop\n      jump\t// out\n        /* \"#utility.yul\":5989:6401   */\n    tag_114:\n        /* \"#utility.yul\":6067:6072   */\n      0x00\n        /* \"#utility.yul\":6092:6158   */\n      tag_193\n        /* \"#utility.yul\":6108:6157   */\n      tag_194\n        /* \"#utility.yul\":6150:6156   */\n      dup5\n        /* \"#utility.yul\":6108:6157   */\n      tag_112\n      jump\t// in\n    tag_194:\n        /* \"#utility.yul\":6092:6158   */\n      tag_111\n      jump\t// in\n    tag_193:\n        /* \"#utility.yul\":6083:6158   */\n      swap1\n      pop\n        /* \"#utility.yul\":6181:6187   */\n      dup3\n        /* \"#utility.yul\":6174:6179   */\n      dup2\n        /* \"#utility.yul\":6167:6188   */\n      mstore\n        /* \"#utility.yul\":6219:6223   */\n      0x20\n        /* \"#utility.yul\":6212:6217   */\n      dup2\n        /* \"#utility.yul\":6208:6224   */\n      add\n        /* \"#utility.yul\":6257:6260   */\n      dup5\n        /* \"#utility.yul\":6248:6254   */\n      dup5\n        /* \"#utility.yul\":6243:6246   */\n      dup5\n        /* \"#utility.yul\":6239:6255   */\n      add\n        /* \"#utility.yul\":6236:6261   */\n      gt\n        /* \"#utility.yul\":6233:6345   */\n      iszero\n      tag_195\n      jumpi\n        /* \"#utility.yul\":6264:6343   */\n      tag_196\n      tag_108\n      jump\t// in\n    tag_196:\n        /* \"#utility.yul\":6233:6345   */\n    tag_195:\n        /* \"#utility.yul\":6354:6395   */\n      tag_197\n        /* \"#utility.yul\":6388:6394   */\n      dup5\n        /* \"#utility.yul\":6383:6386   */\n      dup3\n        /* \"#utility.yul\":6378:6381   */\n      dup6\n        /* \"#utility.yul\":6354:6395   */\n      tag_113\n      jump\t// in\n    tag_197:\n        /* \"#utility.yul\":6073:6401   */\n      pop\n        /* \"#utility.yul\":5989:6401   */\n      swap4\n      swap3\n      pop\n      pop\n      pop\n      jump\t// out\n        /* \"#utility.yul\":6421:6761   */\n    tag_115:\n        /* \"#utility.yul\":6477:6482   */\n      0x00\n        /* \"#utility.yul\":6526:6529   */\n      dup3\n        /* \"#utility.yul\":6519:6523   */\n      0x1f\n        /* \"#utility.yul\":6511:6517   */\n      dup4\n        /* \"#utility.yul\":6507:6524   */\n      add\n        /* \"#utility.yul\":6503:6530   */\n      slt\n        /* \"#utility.yul\":6493:6615   */\n      tag_199\n      jumpi\n        /* \"#utility.yul\":6534:6613   */\n      tag_200\n      tag_107\n      jump\t// in\n    tag_200:\n        /* \"#utility.yul\":6493:6615   */\n    tag_199:\n        /* \"#utility.yul\":6651:6657   */\n      dup2\n        /* \"#utility.yul\":6638:6658   */\n      calldataload\n        /* \"#utility.yul\":6676:6755   */\n      tag_201\n        /* \"#utility.yul\":6751:6754   */\n      dup5\n        /* \"#utility.yul\":6743:6749   */\n      dup3\n        /* \"#utility.yul\":6736:6740   */\n      0x20\n        /* \"#utility.yul\":6728:6734   */\n      dup7\n        /* \"#utility.yul\":6724:6741   */\n      add\n        /* \"#utility.yul\":6676:6755   */\n      tag_114\n      jump\t// in\n    tag_201:\n        /* \"#utility.yul\":6667:6755   */\n      swap2\n      pop\n        /* \"#utility.yul\":6483:6761   */\n      pop\n        /* \"#utility.yul\":6421:6761   */\n      swap3\n      swap2\n      pop\n      pop\n      jump\t// out\n        /* \"#utility.yul\":6767:7276   */\n    tag_33:\n        /* \"#utility.yul\":6836:6842   */\n      0x00\n        /* \"#utility.yul\":6885:6887   */\n      0x20\n        /* \"#utility.yul\":6873:6882   */\n      dup3\n        /* \"#utility.yul\":6864:6871   */\n      dup5\n        /* \"#utility.yul\":6860:6883   */\n      sub\n        /* \"#utility.yul\":6856:6888   */\n      slt\n        /* \"#utility.yul\":6853:6972   */\n      iszero\n      tag_203\n      jumpi\n        /* \"#utility.yul\":6891:6970   */\n      tag_204\n      tag_90\n      jump\t// in\n    tag_204:\n        /* \"#utility.yul\":6853:6972   */\n    tag_203:\n        /* \"#utility.yul\":7039:7040   */\n      0x00\n        /* \"#utility.yul\":7028:7037   */\n      dup3\n        /* \"#utility.yul\":7024:7041   */\n      add\n        /* \"#utility.yul\":7011:7042   */\n      calldataload\n        /* \"#utility.yul\":7069:7087   */\n      0xffffffffffffffff\n        /* \"#utility.yul\":7061:7067   */\n      dup2\n        /* \"#utility.yul\":7058:7088   */\n      gt\n        /* \"#utility.yul\":7055:7172   */\n      iszero\n      tag_205\n      jumpi\n        /* \"#utility.yul\":7091:7170   */\n      tag_206\n      tag_91\n      jump\t// in\n    tag_206:\n        /* \"#utility.yul\":7055:7172   */\n    tag_205:\n        /* \"#utility.yul\":7196:7259   */\n      tag_207\n        /* \"#utility.yul\":7251:7258   */\n      dup5\n        /* \"#utility.yul\":7242:7248   */\n      dup3\n        /* \"#utility.yul\":7231:7240   */\n      dup6\n        /* \"#utility.yul\":7227:7249   */\n      add\n        /* \"#utility.yul\":7196:7259   */\n      tag_115\n      jump\t// in\n    tag_207:\n        /* \"#utility.yul\":7186:7259   */\n      swap2\n      pop\n        /* \"#utility.yul\":6982:7269   */\n      pop\n        /* \"#utility.yul\":6767:7276   */\n      swap3\n      swap2\n      pop\n      pop\n      jump\t// out\n        /* \"#utility.yul\":7282:7504   */\n    tag_36:\n        /* \"#utility.yul\":7375:7379   */\n      0x00\n        /* \"#utility.yul\":7413:7415   */\n      0x20\n        /* \"#utility.yul\":7402:7411   */\n      dup3\n        /* \"#utility.yul\":7398:7416   */\n      add\n        /* \"#utility.yul\":7390:7416   */\n      swap1\n      pop\n        /* \"#utility.yul\":7426:7497   */\n      tag_209\n        /* \"#utility.yul\":7494:7495   */\n      0x00\n        /* \"#utility.yul\":7483:7492   */\n      dup4\n        /* \"#utility.yul\":7479:7496   */\n      add\n        /* \"#utility.yul\":7470:7476   */\n      dup5\n        /* \"#utility.yul\":7426:7497   */\n      tag_106\n      jump\t// in\n    tag_209:\n        /* \"#utility.yul\":7282:7504   */\n      swap3\n      swap2\n      pop\n      pop\n      jump\t// out\n        /* \"#utility.yul\":7510:7690   */\n    tag_47:\n        /* \"#utility.yul\":7558:7635   */\n      0x4e487b7100000000000000000000000000000000000000000000000000000000\n        /* \"#utility.yul\":7555:7556   */\n      0x00\n        /* \"#utility.yul\":7548:7636   */\n      mstore\n        /* \"#utility.yul\":7655:7659   */\n      0x32\n        /* \"#utility.yul\":7652:7653   */\n      0x04\n        /* \"#utility.yul\":7645:7660   */\n      mstore\n        /* \"#utility.yul\":7679:7683   */\n      0x24\n        /* \"#utility.yul\":7676:7677   */\n      0x00\n        /* \"#utility.yul\":7669:7684   */\n      revert\n        /* \"#utility.yul\":7696:7876   */\n    tag_116:\n        /* \"#utility.yul\":7744:7821   */\n      0x4e487b7100000000000000000000000000000000000000000000000000000000\n        /* \"#utility.yul\":7741:7742   */\n      0x00\n        /* \"#utility.yul\":7734:7822   */\n      mstore\n        /* \"#utility.yul\":7841:7845   */\n      0x22\n        /* \"#utility.yul\":7838:7839   */\n      0x04\n        /* \"#utility.yul\":7831:7846   */\n      mstore\n        /* \"#utility.yul\":7865:7869   */\n      0x24\n        /* \"#utility.yul\":7862:7863   */\n      0x00\n        /* \"#utility.yul\":7855:7870   */\n      revert\n        /* \"#utility.yul\":7882:8202   */\n    tag_52:\n        /* \"#utility.yul\":7926:7932   */\n      0x00\n        /* \"#utility.yul\":7963:7964   */\n      0x02\n        /* \"#utility.yul\":7957:7961   */\n      dup3\n        /* \"#utility.yul\":7953:7965   */\n      div\n        /* \"#utility.yul\":7943:7965   */\n      swap1\n      pop\n        /* \"#utility.yul\":8010:8011   */\n      0x01\n        /* \"#utility.yul\":8004:8008   */\n      dup3\n        /* \"#utility.yul\":8000:8012   */\n      and\n        /* \"#utility.yul\":8031:8049   */\n      dup1\n        /* \"#utility.yul\":8021:8102   */\n      tag_213\n      jumpi\n        /* \"#utility.yul\":8087:8091   */\n      0x7f\n        /* \"#utility.yul\":8079:8085   */\n      dup3\n        /* \"#utility.yul\":8075:8092   */\n      and\n        /* \"#utility.yul\":8065:8092   */\n      swap2\n      pop\n        /* \"#utility.yul\":8021:8102   */\n    tag_213:\n        /* \"#utility.yul\":8149:8151   */\n      0x20\n        /* \"#utility.yul\":8141:8147   */\n      dup3\n        /* \"#utility.yul\":8138:8152   */\n      lt\n        /* \"#utility.yul\":8118:8136   */\n      dup2\n        /* \"#utility.yul\":8115:8153   */\n      eq\n        /* \"#utility.yul\":8112:8196   */\n      iszero\n      tag_214\n      jumpi\n        /* \"#utility.yul\":8168:8186   */\n      tag_215\n      tag_116\n      jump\t// in\n    tag_215:\n        /* \"#utility.yul\":8112:8196   */\n    tag_214:\n        /* \"#utility.yul\":7933:8202   */\n      pop\n        /* \"#utility.yul\":7882:8202   */\n      swap2\n      swap1\n      pop\n      jump\t// out\n        /* \"#utility.yul\":8208:8294   */\n    tag_117:\n        /* \"#utility.yul\":8243:8250   */\n      0x00\n        /* \"#utility.yul\":8283:8287   */\n      0xff\n        /* \"#utility.yul\":8276:8281   */\n      dup3\n        /* \"#utility.yul\":8272:8288   */\n      and\n        /* \"#utility.yul\":8261:8288   */\n      swap1\n      pop\n        /* \"#utility.yul\":8208:8294   */\n      swap2\n      swap1\n      pop\n      jump\t// out\n        /* \"#utility.yul\":8300:8418   */\n    tag_118:\n        /* \"#utility.yul\":8371:8393   */\n      tag_218\n        /* \"#utility.yul\":8387:8392   */\n      dup2\n        /* \"#utility.yul\":8371:8393   */\n      tag_117\n      jump\t// in\n    tag_218:\n        /* \"#utility.yul\":8364:8369   */\n      dup2\n        /* \"#utility.yul\":8361:8394   */\n      eq\n        /* \"#utility.yul\":8351:8412   */\n      tag_219\n      jumpi\n        /* \"#utility.yul\":8408:8409   */\n      0x00\n        /* \"#utility.yul\":8405:8406   */\n      dup1\n        /* \"#utility.yul\":8398:8410   */\n      revert\n        /* \"#utility.yul\":8351:8412   */\n    tag_219:\n        /* \"#utility.yul\":8300:8418   */\n      pop\n      jump\t// out\n        /* \"#utility.yul\":8424:8563   */\n    tag_119:\n        /* \"#utility.yul\":8479:8484   */\n      0x00\n        /* \"#utility.yul\":8510:8516   */\n      dup2\n        /* \"#utility.yul\":8504:8517   */\n      mload\n        /* \"#utility.yul\":8495:8517   */\n      swap1\n      pop\n        /* \"#utility.yul\":8526:8557   */\n      tag_221\n        /* \"#utility.yul\":8551:8556   */\n      dup2\n        /* \"#utility.yul\":8526:8557   */\n      tag_118\n      jump\t// in\n    tag_221:\n        /* \"#utility.yul\":8424:8563   */\n      swap3\n      swap2\n      pop\n      pop\n      jump\t// out\n        /* \"#utility.yul\":8569:8916   */\n    tag_65:\n        /* \"#utility.yul\":8637:8643   */\n      0x00\n        /* \"#utility.yul\":8686:8688   */\n      0x20\n        /* \"#utility.yul\":8674:8683   */\n      dup3\n        /* \"#utility.yul\":8665:8672   */\n      dup5\n        /* \"#utility.yul\":8661:8684   */\n      sub\n        /* \"#utility.yul\":8657:8689   */\n      slt\n        /* \"#utility.yul\":8654:8773   */\n      iszero\n      tag_223\n      jumpi\n        /* \"#utility.yul\":8692:8771   */\n      tag_224\n      tag_90\n      jump\t// in\n    tag_224:\n        /* \"#utility.yul\":8654:8773   */\n    tag_223:\n        /* \"#utility.yul\":8812:8813   */\n      0x00\n        /* \"#utility.yul\":8837:8899   */\n      tag_225\n        /* \"#utility.yul\":8891:8898   */\n      dup5\n        /* \"#utility.yul\":8882:8888   */\n      dup3\n        /* \"#utility.yul\":8871:8880   */\n      dup6\n        /* \"#utility.yul\":8867:8889   */\n      add\n        /* \"#utility.yul\":8837:8899   */\n      tag_119\n      jump\t// in\n    tag_225:\n        /* \"#utility.yul\":8827:8899   */\n      swap2\n      pop\n        /* \"#utility.yul\":8783:8909   */\n      pop\n        /* \"#utility.yul\":8569:8916   */\n      swap3\n      swap2\n      pop\n      pop\n      jump\t// out\n        /* \"#utility.yul\":8922:9181   */\n    tag_120:\n        /* \"#utility.yul\":9007:9011   */\n      0x00\n        /* \"#utility.yul\":9097:9115   */\n      0xffffffffffffffff\n        /* \"#utility.yul\":9089:9095   */\n      dup3\n        /* \"#utility.yul\":9086:9116   */\n      gt\n        /* \"#utility.yul\":9083:9139   */\n      iszero\n      tag_227\n      jumpi\n        /* \"#utility.yul\":9119:9137   */\n      tag_228\n      tag_109\n      jump\t// in\n    tag_228:\n        /* \"#utility.yul\":9083:9139   */\n    tag_227:\n        /* \"#utility.yul\":9169:9173   */\n      0x20\n        /* \"#utility.yul\":9161:9167   */\n      dup3\n        /* \"#utility.yul\":9157:9174   */\n      mul\n        /* \"#utility.yul\":9149:9174   */\n      swap1\n      pop\n        /* \"#utility.yul\":8922:9181   */\n      swap2\n      swap1\n      pop\n      jump\t// out\n        /* \"#utility.yul\":9187:9304   */\n    tag_121:\n        /* \"#utility.yul\":9296:9297   */\n      0x00\n        /* \"#utility.yul\":9293:9294   */\n      dup1\n        /* \"#utility.yul\":9286:9298   */\n      revert\n        /* \"#utility.yul\":9310:9731   */\n    tag_122:\n        /* \"#utility.yul\":9399:9404   */\n      0x00\n        /* \"#utility.yul\":9424:9490   */\n      tag_231\n        /* \"#utility.yul\":9440:9489   */\n      tag_232\n        /* \"#utility.yul\":9482:9488   */\n      dup5\n        /* \"#utility.yul\":9440:9489   */\n      tag_112\n      jump\t// in\n    tag_232:\n        /* \"#utility.yul\":9424:9490   */\n      tag_111\n      jump\t// in\n    tag_231:\n        /* \"#utility.yul\":9415:9490   */\n      swap1\n      pop\n        /* \"#utility.yul\":9513:9519   */\n      dup3\n        /* \"#utility.yul\":9506:9511   */\n      dup2\n        /* \"#utility.yul\":9499:9520   */\n      mstore\n        /* \"#utility.yul\":9551:9555   */\n      0x20\n        /* \"#utility.yul\":9544:9549   */\n      dup2\n        /* \"#utility.yul\":9540:9556   */\n      add\n        /* \"#utility.yul\":9589:9592   */\n      dup5\n        /* \"#utility.yul\":9580:9586   */\n      dup5\n        /* \"#utility.yul\":9575:9578   */\n      dup5\n        /* \"#utility.yul\":9571:9587   */\n      add\n        /* \"#utility.yul\":9568:9593   */\n      gt\n        /* \"#utility.yul\":9565:9677   */\n      iszero\n      tag_233\n      jumpi\n        /* \"#utility.yul\":9596:9675   */\n      tag_234\n      tag_108\n      jump\t// in\n    tag_234:\n        /* \"#utility.yul\":9565:9677   */\n    tag_233:\n        /* \"#utility.yul\":9686:9725   */\n      tag_235\n        /* \"#utility.yul\":9718:9724   */\n      dup5\n        /* \"#utility.yul\":9713:9716   */\n      dup3\n        /* \"#utility.yul\":9708:9711   */\n      dup6\n        /* \"#utility.yul\":9686:9725   */\n      tag_102\n      jump\t// in\n    tag_235:\n        /* \"#utility.yul\":9405:9731   */\n      pop\n        /* \"#utility.yul\":9310:9731   */\n      swap4\n      swap3\n      pop\n      pop\n      pop\n      jump\t// out\n        /* \"#utility.yul\":9751:10106   */\n    tag_123:\n        /* \"#utility.yul\":9818:9823   */\n      0x00\n        /* \"#utility.yul\":9867:9870   */\n      dup3\n        /* \"#utility.yul\":9860:9864   */\n      0x1f\n        /* \"#utility.yul\":9852:9858   */\n      dup4\n        /* \"#utility.yul\":9848:9865   */\n      add\n        /* \"#utility.yul\":9844:9871   */\n      slt\n        /* \"#utility.yul\":9834:9956   */\n      tag_237\n      jumpi\n        /* \"#utility.yul\":9875:9954   */\n      tag_238\n      tag_107\n      jump\t// in\n    tag_238:\n        /* \"#utility.yul\":9834:9956   */\n    tag_237:\n        /* \"#utility.yul\":9985:9991   */\n      dup2\n        /* \"#utility.yul\":9979:9992   */\n      mload\n        /* \"#utility.yul\":10010:10100   */\n      tag_239\n        /* \"#utility.yul\":10096:10099   */\n      dup5\n        /* \"#utility.yul\":10088:10094   */\n      dup3\n        /* \"#utility.yul\":10081:10085   */\n      0x20\n        /* \"#utility.yul\":10073:10079   */\n      dup7\n        /* \"#utility.yul\":10069:10086   */\n      add\n        /* \"#utility.yul\":10010:10100   */\n      tag_122\n      jump\t// in\n    tag_239:\n        /* \"#utility.yul\":10001:10100   */\n      swap2\n      pop\n        /* \"#utility.yul\":9824:10106   */\n      pop\n        /* \"#utility.yul\":9751:10106   */\n      swap3\n      swap2\n      pop\n      pop\n      jump\t// out\n        /* \"#utility.yul\":10129:11022   */\n    tag_124:\n        /* \"#utility.yul\":10244:10249   */\n      0x00\n        /* \"#utility.yul\":10269:10358   */\n      tag_241\n        /* \"#utility.yul\":10285:10357   */\n      tag_242\n        /* \"#utility.yul\":10350:10356   */\n      dup5\n        /* \"#utility.yul\":10285:10357   */\n      tag_120\n      jump\t// in\n    tag_242:\n        /* \"#utility.yul\":10269:10358   */\n      tag_111\n      jump\t// in\n    tag_241:\n        /* \"#utility.yul\":10260:10358   */\n      swap1\n      pop\n        /* \"#utility.yul\":10378:10383   */\n      dup1\n        /* \"#utility.yul\":10431:10435   */\n      0x20\n        /* \"#utility.yul\":10423:10429   */\n      dup5\n        /* \"#utility.yul\":10419:10436   */\n      mul\n        /* \"#utility.yul\":10411:10417   */\n      dup4\n        /* \"#utility.yul\":10407:10437   */\n      add\n        /* \"#utility.yul\":10460:10463   */\n      dup6\n        /* \"#utility.yul\":10452:10458   */\n      dup2\n        /* \"#utility.yul\":10449:10464   */\n      gt\n        /* \"#utility.yul\":10446:10568   */\n      iszero\n      tag_243\n      jumpi\n        /* \"#utility.yul\":10479:10558   */\n      tag_244\n      tag_121\n      jump\t// in\n    tag_244:\n        /* \"#utility.yul\":10446:10568   */\n    tag_243:\n        /* \"#utility.yul\":10594:10600   */\n      dup4\n        /* \"#utility.yul\":10577:11016   */\n    tag_245:\n        /* \"#utility.yul\":10611:10617   */\n      dup2\n        /* \"#utility.yul\":10606:10609   */\n      dup2\n        /* \"#utility.yul\":10603:10618   */\n      lt\n        /* \"#utility.yul\":10577:11016   */\n      iszero\n      tag_247\n      jumpi\n        /* \"#utility.yul\":10693:10696   */\n      dup1\n        /* \"#utility.yul\":10687:10697   */\n      mload\n        /* \"#utility.yul\":10729:10747   */\n      0xffffffffffffffff\n        /* \"#utility.yul\":10716:10727   */\n      dup2\n        /* \"#utility.yul\":10713:10748   */\n      gt\n        /* \"#utility.yul\":10710:10832   */\n      iszero\n      tag_248\n      jumpi\n        /* \"#utility.yul\":10751:10830   */\n      tag_249\n      tag_107\n      jump\t// in\n    tag_249:\n        /* \"#utility.yul\":10710:10832   */\n    tag_248:\n        /* \"#utility.yul\":10875:10886   */\n      dup1\n        /* \"#utility.yul\":10867:10873   */\n      dup7\n        /* \"#utility.yul\":10863:10887   */\n      add\n        /* \"#utility.yul\":10913:10971   */\n      tag_250\n        /* \"#utility.yul\":10967:10970   */\n      dup10\n        /* \"#utility.yul\":10955:10965   */\n      dup3\n        /* \"#utility.yul\":10913:10971   */\n      tag_123\n      jump\t// in\n    tag_250:\n        /* \"#utility.yul\":10908:10911   */\n      dup6\n        /* \"#utility.yul\":10901:10972   */\n      mstore\n        /* \"#utility.yul\":11001:11005   */\n      0x20\n        /* \"#utility.yul\":10996:10999   */\n      dup6\n        /* \"#utility.yul\":10992:11006   */\n      add\n        /* \"#utility.yul\":10985:11006   */\n      swap5\n      pop\n        /* \"#utility.yul\":10653:11016   */\n      pop\n      pop\n        /* \"#utility.yul\":10637:10641   */\n      0x20\n        /* \"#utility.yul\":10632:10635   */\n      dup2\n        /* \"#utility.yul\":10628:10642   */\n      add\n        /* \"#utility.yul\":10621:10642   */\n      swap1\n      pop\n        /* \"#utility.yul\":10577:11016   */\n      jump(tag_245)\n    tag_247:\n        /* \"#utility.yul\":10581:10602   */\n      pop\n        /* \"#utility.yul\":10250:11022   */\n      pop\n      pop\n        /* \"#utility.yul\":10129:11022   */\n      swap4\n      swap3\n      pop\n      pop\n      pop\n      jump\t// out\n        /* \"#utility.yul\":11045:11426   */\n    tag_125:\n        /* \"#utility.yul\":11135:11140   */\n      0x00\n        /* \"#utility.yul\":11184:11187   */\n      dup3\n        /* \"#utility.yul\":11177:11181   */\n      0x1f\n        /* \"#utility.yul\":11169:11175   */\n      dup4\n        /* \"#utility.yul\":11165:11182   */\n      add\n        /* \"#utility.yul\":11161:11188   */\n      slt\n        /* \"#utility.yul\":11151:11273   */\n      tag_252\n      jumpi\n        /* \"#utility.yul\":11192:11271   */\n      tag_253\n      tag_107\n      jump\t// in\n    tag_253:\n        /* \"#utility.yul\":11151:11273   */\n    tag_252:\n        /* \"#utility.yul\":11296:11300   */\n      0x03\n        /* \"#utility.yul\":11318:11420   */\n      tag_254\n        /* \"#utility.yul\":11416:11419   */\n      dup5\n        /* \"#utility.yul\":11408:11414   */\n      dup3\n        /* \"#utility.yul\":11400:11406   */\n      dup6\n        /* \"#utility.yul\":11318:11420   */\n      tag_124\n      jump\t// in\n    tag_254:\n        /* \"#utility.yul\":11309:11420   */\n      swap2\n      pop\n        /* \"#utility.yul\":11141:11426   */\n      pop\n        /* \"#utility.yul\":11045:11426   */\n      swap3\n      swap2\n      pop\n      pop\n      jump\t// out\n        /* \"#utility.yul\":11432:12002   */\n    tag_71:\n        /* \"#utility.yul\":11535:11541   */\n      0x00\n        /* \"#utility.yul\":11584:11586   */\n      0x20\n        /* \"#utility.yul\":11572:11581   */\n      dup3\n        /* \"#utility.yul\":11563:11570   */\n      dup5\n        /* \"#utility.yul\":11559:11582   */\n      sub\n        /* \"#utility.yul\":11555:11587   */\n      slt\n        /* \"#utility.yul\":11552:11671   */\n      iszero\n      tag_256\n      jumpi\n        /* \"#utility.yul\":11590:11669   */\n      tag_257\n      tag_90\n      jump\t// in\n    tag_257:\n        /* \"#utility.yul\":11552:11671   */\n    tag_256:\n        /* \"#utility.yul\":11731:11732   */\n      0x00\n        /* \"#utility.yul\":11720:11729   */\n      dup3\n        /* \"#utility.yul\":11716:11733   */\n      add\n        /* \"#utility.yul\":11710:11734   */\n      mload\n        /* \"#utility.yul\":11761:11779   */\n      0xffffffffffffffff\n        /* \"#utility.yul\":11753:11759   */\n      dup2\n        /* \"#utility.yul\":11750:11780   */\n      gt\n        /* \"#utility.yul\":11747:11864   */\n      iszero\n      tag_258\n      jumpi\n        /* \"#utility.yul\":11783:11862   */\n      tag_259\n      tag_91\n      jump\t// in\n    tag_259:\n        /* \"#utility.yul\":11747:11864   */\n    tag_258:\n        /* \"#utility.yul\":11888:11985   */\n      tag_260\n        /* \"#utility.yul\":11977:11984   */\n      dup5\n        /* \"#utility.yul\":11968:11974   */\n      dup3\n        /* \"#utility.yul\":11957:11966   */\n      dup6\n        /* \"#utility.yul\":11953:11975   */\n      add\n        /* \"#utility.yul\":11888:11985   */\n      tag_125\n      jump\t// in\n    tag_260:\n        /* \"#utility.yul\":11878:11985   */\n      swap2\n      pop\n        /* \"#utility.yul\":11681:11995   */\n      pop\n        /* \"#utility.yul\":11432:12002   */\n      swap3\n      swap2\n      pop\n      pop\n      jump\t// out\n        /* \"#utility.yul\":12008:12188   */\n    tag_126:\n        /* \"#utility.yul\":12056:12133   */\n      0x4e487b7100000000000000000000000000000000000000000000000000000000\n        /* \"#utility.yul\":12053:12054   */\n      0x00\n        /* \"#utility.yul\":12046:12134   */\n      mstore\n        /* \"#utility.yul\":12153:12157   */\n      0x11\n        /* \"#utility.yul\":12150:12151   */\n      0x04\n        /* \"#utility.yul\":12143:12158   */\n      mstore\n        /* \"#utility.yul\":12177:12181   */\n      0x24\n        /* \"#utility.yul\":12174:12175   */\n      0x00\n        /* \"#utility.yul\":12167:12182   */\n      revert\n        /* \"#utility.yul\":12194:12427   */\n    tag_86:\n        /* \"#utility.yul\":12233:12236   */\n      0x00\n        /* \"#utility.yul\":12256:12280   */\n      tag_263\n        /* \"#utility.yul\":12274:12279   */\n      dup3\n        /* \"#utility.yul\":12256:12280   */\n      tag_92\n      jump\t// in\n    tag_263:\n        /* \"#utility.yul\":12247:12280   */\n      swap2\n      pop\n        /* \"#utility.yul\":12302:12368   */\n      0xffffffffffffffffffffffffffffffffffffffffffffffffffffffffffffffff\n        /* \"#utility.yul\":12295:12300   */\n      dup3\n        /* \"#utility.yul\":12292:12369   */\n      eq\n        /* \"#utility.yul\":12289:12392   */\n      iszero\n      tag_264\n      jumpi\n        /* \"#utility.yul\":12372:12390   */\n      tag_265\n      tag_126\n      jump\t// in\n    tag_265:\n        /* \"#utility.yul\":12289:12392   */\n    tag_264:\n        /* \"#utility.yul\":12419:12420   */\n      0x01\n        /* \"#utility.yul\":12412:12417   */\n      dup3\n        /* \"#utility.yul\":12408:12421   */\n      add\n        /* \"#utility.yul\":12401:12421   */\n      swap1\n      pop\n        /* \"#utility.yul\":12194:12427   */\n      swap2\n      swap1\n      pop\n      jump\t// out\n\n    auxdata: 0xa2646970667358221220b78219c307d80cae5d2214688654f1dc6a15739a5602b45d2c712323a8e9d4f164736f6c63430008080033\n}\n",
				"bytecode": {
					"linkReferences": {},
					"object": "60806040527350c7a09925375438d2cee94c5c59266c6ffaaf8c600160006101000a81548173ffffffffffffffffffffffffffffffffffffffff021916908373ffffffffffffffffffffffffffffffffffffffff16021790555073dbddb8575f6bda11f1dc548a1b546463cc567c3d600260006101000a81548173ffffffffffffffffffffffffffffffffffffffff021916908373ffffffffffffffffffffffffffffffffffffffff1602179055503480156100ba57600080fd5b50610df5806100ca6000396000f3fe608060405234801561001057600080fd5b506004361061007d5760003560e01c80638f84aa091161005b5780638f84aa0914610113578063a7beb5d014610131578063bb4a376b14610161578063e917ec961461017f5761007d565b80635d73ab9a146100825780636fd3d9e2146100b25780637259e0f8146100e2575b600080fd5b61009c60048036038101906100979190610747565b610189565b6040516100a991906107f3565b60405180910390f35b6100cc60048036038101906100c79190610747565b610225565b6040516100d991906108a7565b60405180910390f35b6100fc60048036038101906100f79190610747565b6102d1565b60405161010a9291906108e7565b60405180910390f35b61011b610325565b6040516101289190610910565b60405180910390f35b61014b60048036038101906101469190610a60565b61034b565b6040516101589190610aa9565b60405180910390f35b610169610402565b60405161017691906108a7565b60405180910390f35b6101876104cc565b005b6101916106cd565b600382815481106101a5576101a4610ac4565b5b90600052602060002090600202016040518060400160405290816000820160009054906101000a900473ffffffffffffffffffffffffffffffffffffffff1673ffffffffffffffffffffffffffffffffffffffff1673ffffffffffffffffffffffffffffffffffffffff1681526020016001820154815250509050919050565b6000818154811061023557600080fd5b90600052602060002001600091509050805461025090610b22565b80601f016020809104026020016040519081016040528092919081815260200182805461027c90610b22565b80156102c95780601f1061029e576101008083540402835291602001916102c9565b820191906000526020600020905b8154815290600101906020018083116102ac57829003601f168201915b505050505081565b600381815481106102e157600080fd5b90600052602060002090600202016000915090508060000160009054906101000a900473ffffffffffffffffffffffffffffffffffffffff16908060010154905082565b600260009054906101000a900473ffffffffffffffffffffffffffffffffffffffff1681565b6000600160009054906101000a900473ffffffffffffffffffffffffffffffffffffffff1673ffffffffffffffffffffffffffffffffffffffff1663278a7f33836040518263ffffffff1660e01b81526004016103a891906108a7565b60206040518083038186803b1580156103c057600080fd5b505afa1580156103d4573d6000803e3d6000fd5b505050506040513d601f19601f820116820180604052508101906103f89190610b8d565b60ff169050919050565b60606000600160009054906101000a900473ffffffffffffffffffffffffffffffffffffffff1673ffffffffffffffffffffffffffffffffffffffff166348441d5f6040518163ffffffff1660e01b815260040160006040518083038186803b15801561046e57600080fd5b505afa158015610482573d6000803e3d6000fd5b505050506040513d6000823e3d601f19601f820116820180604052508101906104ab9190610cfe565b9050806001600381106104c1576104c0610ac4565b5b602002015191505090565b6000805b60038054905081101561060b576000600382815481106104f3576104f2610ac4565b5b90600052602060002090600202016040518060400160405290816000820160009054906101000a900473ffffffffffffffffffffffffffffffffffffffff1673ffffffffffffffffffffffffffffffffffffffff1673ffffffffffffffffffffffffffffffffffffffff16815260200160018201548152505090503373ffffffffffffffffffffffffffffffffffffffff166003838154811061059957610598610ac4565b5b906000526020600020906002020160000160009054906101000a900473ffffffffffffffffffffffffffffffffffffffff1673ffffffffffffffffffffffffffffffffffffffff1614156105f7576001925060028160200181815250505b50808061060390610d76565b9150506104d0565b506000151581151514156106ca57600060405180604001604052803373ffffffffffffffffffffffffffffffffffffffff16815260200160008152509050600381908060018154018082558091505060019003906000526020600020906002020160009091909190915060008201518160000160006101000a81548173ffffffffffffffffffffffffffffffffffffffff021916908373ffffffffffffffffffffffffffffffffffffffff160217905550602082015181600101555050505b50565b6040518060400160405280600073ffffffffffffffffffffffffffffffffffffffff168152602001600081525090565b6000604051905090565b600080fd5b600080fd5b6000819050919050565b61072481610711565b811461072f57600080fd5b50565b6000813590506107418161071b565b92915050565b60006020828403121561075d5761075c610707565b5b600061076b84828501610732565b91505092915050565b600073ffffffffffffffffffffffffffffffffffffffff82169050919050565b600061079f82610774565b9050919050565b6107af81610794565b82525050565b6107be81610711565b82525050565b6040820160008201516107da60008501826107a6565b5060208201516107ed60208501826107b5565b50505050565b600060408201905061080860008301846107c4565b92915050565b600081519050919050565b600082825260208201905092915050565b60005b8381101561084857808201518184015260208101905061082d565b83811115610857576000848401525b50505050565b6000601f19601f8301169050919050565b60006108798261080e565b6108838185610819565b935061089381856020860161082a565b61089c8161085d565b840191505092915050565b600060208201905081810360008301526108c1818461086e565b905092915050565b6108d281610794565b82525050565b6108e181610711565b82525050565b60006040820190506108fc60008301856108c9565b61090960208301846108d8565b9392505050565b600060208201905061092560008301846108c9565b92915050565b600080fd5b600080fd5b7f4e487b7100000000000000000000000000000000000000000000000000000000600052604160045260246000fd5b61096d8261085d565b810181811067ffffffffffffffff8211171561098c5761098b610935565b5b80604052505050565b600061099f6106fd565b90506109ab8282610964565b919050565b600067ffffffffffffffff8211156109cb576109ca610935565b5b6109d48261085d565b9050602081019050919050565b82818337600083830152505050565b6000610a036109fe846109b0565b610995565b905082815260208101848484011115610a1f57610a1e610930565b5b610a2a8482856109e1565b509392505050565b600082601f830112610a4757610a4661092b565b5b8135610a578482602086016109f0565b91505092915050565b600060208284031215610a7657610a75610707565b5b600082013567ffffffffffffffff811115610a9457610a9361070c565b5b610aa084828501610a32565b91505092915050565b6000602082019050610abe60008301846108d8565b92915050565b7f4e487b7100000000000000000000000000000000000000000000000000000000600052603260045260246000fd5b7f4e487b7100000000000000000000000000000000000000000000000000000000600052602260045260246000fd5b60006002820490506001821680610b3a57607f821691505b60208210811415610b4e57610b4d610af3565b5b50919050565b600060ff82169050919050565b610b6a81610b54565b8114610b7557600080fd5b50565b600081519050610b8781610b61565b92915050565b600060208284031215610ba357610ba2610707565b5b6000610bb184828501610b78565b91505092915050565b600067ffffffffffffffff821115610bd557610bd4610935565b5b602082029050919050565b600080fd5b6000610bf8610bf3846109b0565b610995565b905082815260208101848484011115610c1457610c13610930565b5b610c1f84828561082a565b509392505050565b600082601f830112610c3c57610c3b61092b565b5b8151610c4c848260208601610be5565b91505092915050565b6000610c68610c6384610bba565b610995565b90508060208402830185811115610c8257610c81610be0565b5b835b81811015610cc957805167ffffffffffffffff811115610ca757610ca661092b565b5b808601610cb48982610c27565b85526020850194505050602081019050610c84565b5050509392505050565b600082601f830112610ce857610ce761092b565b5b6003610cf5848285610c55565b91505092915050565b600060208284031215610d1457610d13610707565b5b600082015167ffffffffffffffff811115610d3257610d3161070c565b5b610d3e84828501610cd3565b91505092915050565b7f4e487b7100000000000000000000000000000000000000000000000000000000600052601160045260246000fd5b6000610d8182610711565b91507fffffffffffffffffffffffffffffffffffffffffffffffffffffffffffffffff821415610db457610db3610d47565b5b60018201905091905056fea2646970667358221220b78219c307d80cae5d2214688654f1dc6a15739a5602b45d2c712323a8e9d4f164736f6c63430008080033",
					"opcodes": "PUSH1 0x80 PUSH1 0x40 MSTORE PUSH20 0x50C7A09925375438D2CEE94C5C59266C6FFAAF8C PUSH1 0x1 PUSH1 0x0 PUSH2 0x100 EXP DUP2 SLOAD DUP2 PUSH20 0xFFFFFFFFFFFFFFFFFFFFFFFFFFFFFFFFFFFFFFFF MUL NOT AND SWAP1 DUP4 PUSH20 0xFFFFFFFFFFFFFFFFFFFFFFFFFFFFFFFFFFFFFFFF AND MUL OR SWAP1 SSTORE POP PUSH20 0xDBDDB8575F6BDA11F1DC548A1B546463CC567C3D PUSH1 0x2 PUSH1 0x0 PUSH2 0x100 EXP DUP2 SLOAD DUP2 PUSH20 0xFFFFFFFFFFFFFFFFFFFFFFFFFFFFFFFFFFFFFFFF MUL NOT AND SWAP1 DUP4 PUSH20 0xFFFFFFFFFFFFFFFFFFFFFFFFFFFFFFFFFFFFFFFF AND MUL OR SWAP1 SSTORE POP CALLVALUE DUP1 ISZERO PUSH2 0xBA JUMPI PUSH1 0x0 DUP1 REVERT JUMPDEST POP PUSH2 0xDF5 DUP1 PUSH2 0xCA PUSH1 0x0 CODECOPY PUSH1 0x0 RETURN INVALID PUSH1 0x80 PUSH1 0x40 MSTORE CALLVALUE DUP1 ISZERO PUSH2 0x10 JUMPI PUSH1 0x0 DUP1 REVERT JUMPDEST POP PUSH1 0x4 CALLDATASIZE LT PUSH2 0x7D JUMPI PUSH1 0x0 CALLDATALOAD PUSH1 0xE0 SHR DUP1 PUSH4 0x8F84AA09 GT PUSH2 0x5B JUMPI DUP1 PUSH4 0x8F84AA09 EQ PUSH2 0x113 JUMPI DUP1 PUSH4 0xA7BEB5D0 EQ PUSH2 0x131 JUMPI DUP1 PUSH4 0xBB4A376B EQ PUSH2 0x161 JUMPI DUP1 PUSH4 0xE917EC96 EQ PUSH2 0x17F JUMPI PUSH2 0x7D JUMP JUMPDEST DUP1 PUSH4 0x5D73AB9A EQ PUSH2 0x82 JUMPI DUP1 PUSH4 0x6FD3D9E2 EQ PUSH2 0xB2 JUMPI DUP1 PUSH4 0x7259E0F8 EQ PUSH2 0xE2 JUMPI JUMPDEST PUSH1 0x0 DUP1 REVERT JUMPDEST PUSH2 0x9C PUSH1 0x4 DUP1 CALLDATASIZE SUB DUP2 ADD SWAP1 PUSH2 0x97 SWAP2 SWAP1 PUSH2 0x747 JUMP JUMPDEST PUSH2 0x189 JUMP JUMPDEST PUSH1 0x40 MLOAD PUSH2 0xA9 SWAP2 SWAP1 PUSH2 0x7F3 JUMP JUMPDEST PUSH1 0x40 MLOAD DUP1 SWAP2 SUB SWAP1 RETURN JUMPDEST PUSH2 0xCC PUSH1 0x4 DUP1 CALLDATASIZE SUB DUP2 ADD SWAP1 PUSH2 0xC7 SWAP2 SWAP1 PUSH2 0x747 JUMP JUMPDEST PUSH2 0x225 JUMP JUMPDEST PUSH1 0x40 MLOAD PUSH2 0xD9 SWAP2 SWAP1 PUSH2 0x8A7 JUMP JUMPDEST PUSH1 0x40 MLOAD DUP1 SWAP2 SUB SWAP1 RETURN JUMPDEST PUSH2 0xFC PUSH1 0x4 DUP1 CALLDATASIZE SUB DUP2 ADD SWAP1 PUSH2 0xF7 SWAP2 SWAP1 PUSH2 0x747 JUMP JUMPDEST PUSH2 0x2D1 JUMP JUMPDEST PUSH1 0x40 MLOAD PUSH2 0x10A SWAP3 SWAP2 SWAP1 PUSH2 0x8E7 JUMP JUMPDEST PUSH1 0x40 MLOAD DUP1 SWAP2 SUB SWAP1 RETURN JUMPDEST PUSH2 0x11B PUSH2 0x325 JUMP JUMPDEST PUSH1 0x40 MLOAD PUSH2 0x128 SWAP2 SWAP1 PUSH2 0x910 JUMP JUMPDEST PUSH1 0x40 MLOAD DUP1 SWAP2 SUB SWAP1 RETURN JUMPDEST PUSH2 0x14B PUSH1 0x4 DUP1 CALLDATASIZE SUB DUP2 ADD SWAP1 PUSH2 0x146 SWAP2 SWAP1 PUSH2 0xA60 JUMP JUMPDEST PUSH2 0x34B JUMP JUMPDEST PUSH1 0x40 MLOAD PUSH2 0x158 SWAP2 SWAP1 PUSH2 0xAA9 JUMP JUMPDEST PUSH1 0x40 MLOAD DUP1 SWAP2 SUB SWAP1 RETURN JUMPDEST PUSH2 0x169 PUSH2 0x402 JUMP JUMPDEST PUSH1 0x40 MLOAD PUSH2 0x176 SWAP2 SWAP1 PUSH2 0x8A7 JUMP JUMPDEST PUSH1 0x40 MLOAD DUP1 SWAP2 SUB SWAP1 RETURN JUMPDEST PUSH2 0x187 PUSH2 0x4CC JUMP JUMPDEST STOP JUMPDEST PUSH2 0x191 PUSH2 0x6CD JUMP JUMPDEST PUSH1 0x3 DUP3 DUP2 SLOAD DUP2 LT PUSH2 0x1A5 JUMPI PUSH2 0x1A4 PUSH2 0xAC4 JUMP JUMPDEST JUMPDEST SWAP1 PUSH1 0x0 MSTORE PUSH1 0x20 PUSH1 0x0 KECCAK256 SWAP1 PUSH1 0x2 MUL ADD PUSH1 0x40 MLOAD DUP1 PUSH1 0x40 ADD PUSH1 0x40 MSTORE SWAP1 DUP2 PUSH1 0x0 DUP3 ADD PUSH1 0x0 SWAP1 SLOAD SWAP1 PUSH2 0x100 EXP SWAP1 DIV PUSH20 0xFFFFFFFFFFFFFFFFFFFFFFFFFFFFFFFFFFFFFFFF AND PUSH20 0xFFFFFFFFFFFFFFFFFFFFFFFFFFFFFFFFFFFFFFFF AND PUSH20 0xFFFFFFFFFFFFFFFFFFFFFFFFFFFFFFFFFFFFFFFF AND DUP2 MSTORE PUSH1 0x20 ADD PUSH1 0x1 DUP3 ADD SLOAD DUP2 MSTORE POP POP SWAP1 POP SWAP2 SWAP1 POP JUMP JUMPDEST PUSH1 0x0 DUP2 DUP2 SLOAD DUP2 LT PUSH2 0x235 JUMPI PUSH1 0x0 DUP1 REVERT JUMPDEST SWAP1 PUSH1 0x0 MSTORE PUSH1 0x20 PUSH1 0x0 KECCAK256 ADD PUSH1 0x0 SWAP2 POP SWAP1 POP DUP1 SLOAD PUSH2 0x250 SWAP1 PUSH2 0xB22 JUMP JUMPDEST DUP1 PUSH1 0x1F ADD PUSH1 0x20 DUP1 SWAP2 DIV MUL PUSH1 0x20 ADD PUSH1 0x40 MLOAD SWAP1 DUP2 ADD PUSH1 0x40 MSTORE DUP1 SWAP3 SWAP2 SWAP1 DUP2 DUP2 MSTORE PUSH1 0x20 ADD DUP3 DUP1 SLOAD PUSH2 0x27C SWAP1 PUSH2 0xB22 JUMP JUMPDEST DUP1 ISZERO PUSH2 0x2C9 JUMPI DUP1 PUSH1 0x1F LT PUSH2 0x29E JUMPI PUSH2 0x100 DUP1 DUP4 SLOAD DIV MUL DUP4 MSTORE SWAP2 PUSH1 0x20 ADD SWAP2 PUSH2 0x2C9 JUMP JUMPDEST DUP3 ADD SWAP2 SWAP1 PUSH1 0x0 MSTORE PUSH1 0x20 PUSH1 0x0 KECCAK256 SWAP1 JUMPDEST DUP2 SLOAD DUP2 MSTORE SWAP1 PUSH1 0x1 ADD SWAP1 PUSH1 0x20 ADD DUP1 DUP4 GT PUSH2 0x2AC JUMPI DUP3 SWAP1 SUB PUSH1 0x1F AND DUP3 ADD SWAP2 JUMPDEST POP POP POP POP POP DUP2 JUMP JUMPDEST PUSH1 0x3 DUP2 DUP2 SLOAD DUP2 LT PUSH2 0x2E1 JUMPI PUSH1 0x0 DUP1 REVERT JUMPDEST SWAP1 PUSH1 0x0 MSTORE PUSH1 0x20 PUSH1 0x0 KECCAK256 SWAP1 PUSH1 0x2 MUL ADD PUSH1 0x0 SWAP2 POP SWAP1 POP DUP1 PUSH1 0x0 ADD PUSH1 0x0 SWAP1 SLOAD SWAP1 PUSH2 0x100 EXP SWAP1 DIV PUSH20 0xFFFFFFFFFFFFFFFFFFFFFFFFFFFFFFFFFFFFFFFF AND SWAP1 DUP1 PUSH1 0x1 ADD SLOAD SWAP1 POP DUP3 JUMP JUMPDEST PUSH1 0x2 PUSH1 0x0 SWAP1 SLOAD SWAP1 PUSH2 0x100 EXP SWAP1 DIV PUSH20 0xFFFFFFFFFFFFFFFFFFFFFFFFFFFFFFFFFFFFFFFF AND DUP2 JUMP JUMPDEST PUSH1 0x0 PUSH1 0x1 PUSH1 0x0 SWAP1 SLOAD SWAP1 PUSH2 0x100 EXP SWAP1 DIV PUSH20 0xFFFFFFFFFFFFFFFFFFFFFFFFFFFFFFFFFFFFFFFF AND PUSH20 0xFFFFFFFFFFFFFFFFFFFFFFFFFFFFFFFFFFFFFFFF AND PUSH4 0x278A7F33 DUP4 PUSH1 0x40 MLOAD DUP3 PUSH4 0xFFFFFFFF AND PUSH1 0xE0 SHL DUP2 MSTORE PUSH1 0x4 ADD PUSH2 0x3A8 SWAP2 SWAP1 PUSH2 0x8A7 JUMP JUMPDEST PUSH1 0x20 PUSH1 0x40 MLOAD DUP1 DUP4 SUB DUP2 DUP7 DUP1 EXTCODESIZE ISZERO DUP1 ISZERO PUSH2 0x3C0 JUMPI PUSH1 0x0 DUP1 REVERT JUMPDEST POP GAS STATICCALL ISZERO DUP1 ISZERO PUSH2 0x3D4 JUMPI RETURNDATASIZE PUSH1 0x0 DUP1 RETURNDATACOPY RETURNDATASIZE PUSH1 0x0 REVERT JUMPDEST POP POP POP POP PUSH1 0x40 MLOAD RETURNDATASIZE PUSH1 0x1F NOT PUSH1 0x1F DUP3 ADD AND DUP3 ADD DUP1 PUSH1 0x40 MSTORE POP DUP2 ADD SWAP1 PUSH2 0x3F8 SWAP2 SWAP1 PUSH2 0xB8D JUMP JUMPDEST PUSH1 0xFF AND SWAP1 POP SWAP2 SWAP1 POP JUMP JUMPDEST PUSH1 0x60 PUSH1 0x0 PUSH1 0x1 PUSH1 0x0 SWAP1 SLOAD SWAP1 PUSH2 0x100 EXP SWAP1 DIV PUSH20 0xFFFFFFFFFFFFFFFFFFFFFFFFFFFFFFFFFFFFFFFF AND PUSH20 0xFFFFFFFFFFFFFFFFFFFFFFFFFFFFFFFFFFFFFFFF AND PUSH4 0x48441D5F PUSH1 0x40 MLOAD DUP2 PUSH4 0xFFFFFFFF AND PUSH1 0xE0 SHL DUP2 MSTORE PUSH1 0x4 ADD PUSH1 0x0 PUSH1 0x40 MLOAD DUP1 DUP4 SUB DUP2 DUP7 DUP1 EXTCODESIZE ISZERO DUP1 ISZERO PUSH2 0x46E JUMPI PUSH1 0x0 DUP1 REVERT JUMPDEST POP GAS STATICCALL ISZERO DUP1 ISZERO PUSH2 0x482 JUMPI RETURNDATASIZE PUSH1 0x0 DUP1 RETURNDATACOPY RETURNDATASIZE PUSH1 0x0 REVERT JUMPDEST POP POP POP POP PUSH1 0x40 MLOAD RETURNDATASIZE PUSH1 0x0 DUP3 RETURNDATACOPY RETURNDATASIZE PUSH1 0x1F NOT PUSH1 0x1F DUP3 ADD AND DUP3 ADD DUP1 PUSH1 0x40 MSTORE POP DUP2 ADD SWAP1 PUSH2 0x4AB SWAP2 SWAP1 PUSH2 0xCFE JUMP JUMPDEST SWAP1 POP DUP1 PUSH1 0x1 PUSH1 0x3 DUP2 LT PUSH2 0x4C1 JUMPI PUSH2 0x4C0 PUSH2 0xAC4 JUMP JUMPDEST JUMPDEST PUSH1 0x20 MUL ADD MLOAD SWAP2 POP POP SWAP1 JUMP JUMPDEST PUSH1 0x0 DUP1 JUMPDEST PUSH1 0x3 DUP1 SLOAD SWAP1 POP DUP2 LT ISZERO PUSH2 0x60B JUMPI PUSH1 0x0 PUSH1 0x3 DUP3 DUP2 SLOAD DUP2 LT PUSH2 0x4F3 JUMPI PUSH2 0x4F2 PUSH2 0xAC4 JUMP JUMPDEST JUMPDEST SWAP1 PUSH1 0x0 MSTORE PUSH1 0x20 PUSH1 0x0 KECCAK256 SWAP1 PUSH1 0x2 MUL ADD PUSH1 0x40 MLOAD DUP1 PUSH1 0x40 ADD PUSH1 0x40 MSTORE SWAP1 DUP2 PUSH1 0x0 DUP3 ADD PUSH1 0x0 SWAP1 SLOAD SWAP1 PUSH2 0x100 EXP SWAP1 DIV PUSH20 0xFFFFFFFFFFFFFFFFFFFFFFFFFFFFFFFFFFFFFFFF AND PUSH20 0xFFFFFFFFFFFFFFFFFFFFFFFFFFFFFFFFFFFFFFFF AND PUSH20 0xFFFFFFFFFFFFFFFFFFFFFFFFFFFFFFFFFFFFFFFF AND DUP2 MSTORE PUSH1 0x20 ADD PUSH1 0x1 DUP3 ADD SLOAD DUP2 MSTORE POP POP SWAP1 POP CALLER PUSH20 0xFFFFFFFFFFFFFFFFFFFFFFFFFFFFFFFFFFFFFFFF AND PUSH1 0x3 DUP4 DUP2 SLOAD DUP2 LT PUSH2 0x599 JUMPI PUSH2 0x598 PUSH2 0xAC4 JUMP JUMPDEST JUMPDEST SWAP1 PUSH1 0x0 MSTORE PUSH1 0x20 PUSH1 0x0 KECCAK256 SWAP1 PUSH1 0x2 MUL ADD PUSH1 0x0 ADD PUSH1 0x0 SWAP1 SLOAD SWAP1 PUSH2 0x100 EXP SWAP1 DIV PUSH20 0xFFFFFFFFFFFFFFFFFFFFFFFFFFFFFFFFFFFFFFFF AND PUSH20 0xFFFFFFFFFFFFFFFFFFFFFFFFFFFFFFFFFFFFFFFF AND EQ ISZERO PUSH2 0x5F7 JUMPI PUSH1 0x1 SWAP3 POP PUSH1 0x2 DUP2 PUSH1 0x20 ADD DUP2 DUP2 MSTORE POP POP JUMPDEST POP DUP1 DUP1 PUSH2 0x603 SWAP1 PUSH2 0xD76 JUMP JUMPDEST SWAP2 POP POP PUSH2 0x4D0 JUMP JUMPDEST POP PUSH1 0x0 ISZERO ISZERO DUP2 ISZERO ISZERO EQ ISZERO PUSH2 0x6CA JUMPI PUSH1 0x0 PUSH1 0x40 MLOAD DUP1 PUSH1 0x40 ADD PUSH1 0x40 MSTORE DUP1 CALLER PUSH20 0xFFFFFFFFFFFFFFFFFFFFFFFFFFFFFFFFFFFFFFFF AND DUP2 MSTORE PUSH1 0x20 ADD PUSH1 0x0 DUP2 MSTORE POP SWAP1 POP PUSH1 0x3 DUP2 SWAP1 DUP1 PUSH1 0x1 DUP2 SLOAD ADD DUP1 DUP3 SSTORE DUP1 SWAP2 POP POP PUSH1 0x1 SWAP1 SUB SWAP1 PUSH1 0x0 MSTORE PUSH1 0x20 PUSH1 0x0 KECCAK256 SWAP1 PUSH1 0x2 MUL ADD PUSH1 0x0 SWAP1 SWAP2 SWAP1 SWAP2 SWAP1 SWAP2 POP PUSH1 0x0 DUP3 ADD MLOAD DUP2 PUSH1 0x0 ADD PUSH1 0x0 PUSH2 0x100 EXP DUP2 SLOAD DUP2 PUSH20 0xFFFFFFFFFFFFFFFFFFFFFFFFFFFFFFFFFFFFFFFF MUL NOT AND SWAP1 DUP4 PUSH20 0xFFFFFFFFFFFFFFFFFFFFFFFFFFFFFFFFFFFFFFFF AND MUL OR SWAP1 SSTORE POP PUSH1 0x20 DUP3 ADD MLOAD DUP2 PUSH1 0x1 ADD SSTORE POP POP POP JUMPDEST POP JUMP JUMPDEST PUSH1 0x40 MLOAD DUP1 PUSH1 0x40 ADD PUSH1 0x40 MSTORE DUP1 PUSH1 0x0 PUSH20 0xFFFFFFFFFFFFFFFFFFFFFFFFFFFFFFFFFFFFFFFF AND DUP2 MSTORE PUSH1 0x20 ADD PUSH1 0x0 DUP2 MSTORE POP SWAP1 JUMP JUMPDEST PUSH1 0x0 PUSH1 0x40 MLOAD SWAP1 POP SWAP1 JUMP JUMPDEST PUSH1 0x0 DUP1 REVERT JUMPDEST PUSH1 0x0 DUP1 REVERT JUMPDEST PUSH1 0x0 DUP2 SWAP1 POP SWAP2 SWAP1 POP JUMP JUMPDEST PUSH2 0x724 DUP2 PUSH2 0x711 JUMP JUMPDEST DUP2 EQ PUSH2 0x72F JUMPI PUSH1 0x0 DUP1 REVERT JUMPDEST POP JUMP JUMPDEST PUSH1 0x0 DUP2 CALLDATALOAD SWAP1 POP PUSH2 0x741 DUP2 PUSH2 0x71B JUMP JUMPDEST SWAP3 SWAP2 POP POP JUMP JUMPDEST PUSH1 0x0 PUSH1 0x20 DUP3 DUP5 SUB SLT ISZERO PUSH2 0x75D JUMPI PUSH2 0x75C PUSH2 0x707 JUMP JUMPDEST JUMPDEST PUSH1 0x0 PUSH2 0x76B DUP5 DUP3 DUP6 ADD PUSH2 0x732 JUMP JUMPDEST SWAP2 POP POP SWAP3 SWAP2 POP POP JUMP JUMPDEST PUSH1 0x0 PUSH20 0xFFFFFFFFFFFFFFFFFFFFFFFFFFFFFFFFFFFFFFFF DUP3 AND SWAP1 POP SWAP2 SWAP1 POP JUMP JUMPDEST PUSH1 0x0 PUSH2 0x79F DUP3 PUSH2 0x774 JUMP JUMPDEST SWAP1 POP SWAP2 SWAP1 POP JUMP JUMPDEST PUSH2 0x7AF DUP2 PUSH2 0x794 JUMP JUMPDEST DUP3 MSTORE POP POP JUMP JUMPDEST PUSH2 0x7BE DUP2 PUSH2 0x711 JUMP JUMPDEST DUP3 MSTORE POP POP JUMP JUMPDEST PUSH1 0x40 DUP3 ADD PUSH1 0x0 DUP3 ADD MLOAD PUSH2 0x7DA PUSH1 0x0 DUP6 ADD DUP3 PUSH2 0x7A6 JUMP JUMPDEST POP PUSH1 0x20 DUP3 ADD MLOAD PUSH2 0x7ED PUSH1 0x20 DUP6 ADD DUP3 PUSH2 0x7B5 JUMP JUMPDEST POP POP POP POP JUMP JUMPDEST PUSH1 0x0 PUSH1 0x40 DUP3 ADD SWAP1 POP PUSH2 0x808 PUSH1 0x0 DUP4 ADD DUP5 PUSH2 0x7C4 JUMP JUMPDEST SWAP3 SWAP2 POP POP JUMP JUMPDEST PUSH1 0x0 DUP2 MLOAD SWAP1 POP SWAP2 SWAP1 POP JUMP JUMPDEST PUSH1 0x0 DUP3 DUP3 MSTORE PUSH1 0x20 DUP3 ADD SWAP1 POP SWAP3 SWAP2 POP POP JUMP JUMPDEST PUSH1 0x0 JUMPDEST DUP4 DUP2 LT ISZERO PUSH2 0x848 JUMPI DUP1 DUP3 ADD MLOAD DUP2 DUP5 ADD MSTORE PUSH1 0x20 DUP2 ADD SWAP1 POP PUSH2 0x82D JUMP JUMPDEST DUP4 DUP2 GT ISZERO PUSH2 0x857 JUMPI PUSH1 0x0 DUP5 DUP5 ADD MSTORE JUMPDEST POP POP POP POP JUMP JUMPDEST PUSH1 0x0 PUSH1 0x1F NOT PUSH1 0x1F DUP4 ADD AND SWAP1 POP SWAP2 SWAP1 POP JUMP JUMPDEST PUSH1 0x0 PUSH2 0x879 DUP3 PUSH2 0x80E JUMP JUMPDEST PUSH2 0x883 DUP2 DUP6 PUSH2 0x819 JUMP JUMPDEST SWAP4 POP PUSH2 0x893 DUP2 DUP6 PUSH1 0x20 DUP7 ADD PUSH2 0x82A JUMP JUMPDEST PUSH2 0x89C DUP2 PUSH2 0x85D JUMP JUMPDEST DUP5 ADD SWAP2 POP POP SWAP3 SWAP2 POP POP JUMP JUMPDEST PUSH1 0x0 PUSH1 0x20 DUP3 ADD SWAP1 POP DUP2 DUP2 SUB PUSH1 0x0 DUP4 ADD MSTORE PUSH2 0x8C1 DUP2 DUP5 PUSH2 0x86E JUMP JUMPDEST SWAP1 POP SWAP3 SWAP2 POP POP JUMP JUMPDEST PUSH2 0x8D2 DUP2 PUSH2 0x794 JUMP JUMPDEST DUP3 MSTORE POP POP JUMP JUMPDEST PUSH2 0x8E1 DUP2 PUSH2 0x711 JUMP JUMPDEST DUP3 MSTORE POP POP JUMP JUMPDEST PUSH1 0x0 PUSH1 0x40 DUP3 ADD SWAP1 POP PUSH2 0x8FC PUSH1 0x0 DUP4 ADD DUP6 PUSH2 0x8C9 JUMP JUMPDEST PUSH2 0x909 PUSH1 0x20 DUP4 ADD DUP5 PUSH2 0x8D8 JUMP JUMPDEST SWAP4 SWAP3 POP POP POP JUMP JUMPDEST PUSH1 0x0 PUSH1 0x20 DUP3 ADD SWAP1 POP PUSH2 0x925 PUSH1 0x0 DUP4 ADD DUP5 PUSH2 0x8C9 JUMP JUMPDEST SWAP3 SWAP2 POP POP JUMP JUMPDEST PUSH1 0x0 DUP1 REVERT JUMPDEST PUSH1 0x0 DUP1 REVERT JUMPDEST PUSH32 0x4E487B7100000000000000000000000000000000000000000000000000000000 PUSH1 0x0 MSTORE PUSH1 0x41 PUSH1 0x4 MSTORE PUSH1 0x24 PUSH1 0x0 REVERT JUMPDEST PUSH2 0x96D DUP3 PUSH2 0x85D JUMP JUMPDEST DUP2 ADD DUP2 DUP2 LT PUSH8 0xFFFFFFFFFFFFFFFF DUP3 GT OR ISZERO PUSH2 0x98C JUMPI PUSH2 0x98B PUSH2 0x935 JUMP JUMPDEST JUMPDEST DUP1 PUSH1 0x40 MSTORE POP POP POP JUMP JUMPDEST PUSH1 0x0 PUSH2 0x99F PUSH2 0x6FD JUMP JUMPDEST SWAP1 POP PUSH2 0x9AB DUP3 DUP3 PUSH2 0x964 JUMP JUMPDEST SWAP2 SWAP1 POP JUMP JUMPDEST PUSH1 0x0 PUSH8 0xFFFFFFFFFFFFFFFF DUP3 GT ISZERO PUSH2 0x9CB JUMPI PUSH2 0x9CA PUSH2 0x935 JUMP JUMPDEST JUMPDEST PUSH2 0x9D4 DUP3 PUSH2 0x85D JUMP JUMPDEST SWAP1 POP PUSH1 0x20 DUP2 ADD SWAP1 POP SWAP2 SWAP1 POP JUMP JUMPDEST DUP3 DUP2 DUP4 CALLDATACOPY PUSH1 0x0 DUP4 DUP4 ADD MSTORE POP POP POP JUMP JUMPDEST PUSH1 0x0 PUSH2 0xA03 PUSH2 0x9FE DUP5 PUSH2 0x9B0 JUMP JUMPDEST PUSH2 0x995 JUMP JUMPDEST SWAP1 POP DUP3 DUP2 MSTORE PUSH1 0x20 DUP2 ADD DUP5 DUP5 DUP5 ADD GT ISZERO PUSH2 0xA1F JUMPI PUSH2 0xA1E PUSH2 0x930 JUMP JUMPDEST JUMPDEST PUSH2 0xA2A DUP5 DUP3 DUP6 PUSH2 0x9E1 JUMP JUMPDEST POP SWAP4 SWAP3 POP POP POP JUMP JUMPDEST PUSH1 0x0 DUP3 PUSH1 0x1F DUP4 ADD SLT PUSH2 0xA47 JUMPI PUSH2 0xA46 PUSH2 0x92B JUMP JUMPDEST JUMPDEST DUP2 CALLDATALOAD PUSH2 0xA57 DUP5 DUP3 PUSH1 0x20 DUP7 ADD PUSH2 0x9F0 JUMP JUMPDEST SWAP2 POP POP SWAP3 SWAP2 POP POP JUMP JUMPDEST PUSH1 0x0 PUSH1 0x20 DUP3 DUP5 SUB SLT ISZERO PUSH2 0xA76 JUMPI PUSH2 0xA75 PUSH2 0x707 JUMP JUMPDEST JUMPDEST PUSH1 0x0 DUP3 ADD CALLDATALOAD PUSH8 0xFFFFFFFFFFFFFFFF DUP2 GT ISZERO PUSH2 0xA94 JUMPI PUSH2 0xA93 PUSH2 0x70C JUMP JUMPDEST JUMPDEST PUSH2 0xAA0 DUP5 DUP3 DUP6 ADD PUSH2 0xA32 JUMP JUMPDEST SWAP2 POP POP SWAP3 SWAP2 POP POP JUMP JUMPDEST PUSH1 0x0 PUSH1 0x20 DUP3 ADD SWAP1 POP PUSH2 0xABE PUSH1 0x0 DUP4 ADD DUP5 PUSH2 0x8D8 JUMP JUMPDEST SWAP3 SWAP2 POP POP JUMP JUMPDEST PUSH32 0x4E487B7100000000000000000000000000000000000000000000000000000000 PUSH1 0x0 MSTORE PUSH1 0x32 PUSH1 0x4 MSTORE PUSH1 0x24 PUSH1 0x0 REVERT JUMPDEST PUSH32 0x4E487B7100000000000000000000000000000000000000000000000000000000 PUSH1 0x0 MSTORE PUSH1 0x22 PUSH1 0x4 MSTORE PUSH1 0x24 PUSH1 0x0 REVERT JUMPDEST PUSH1 0x0 PUSH1 0x2 DUP3 DIV SWAP1 POP PUSH1 0x1 DUP3 AND DUP1 PUSH2 0xB3A JUMPI PUSH1 0x7F DUP3 AND SWAP2 POP JUMPDEST PUSH1 0x20 DUP3 LT DUP2 EQ ISZERO PUSH2 0xB4E JUMPI PUSH2 0xB4D PUSH2 0xAF3 JUMP JUMPDEST JUMPDEST POP SWAP2 SWAP1 POP JUMP JUMPDEST PUSH1 0x0 PUSH1 0xFF DUP3 AND SWAP1 POP SWAP2 SWAP1 POP JUMP JUMPDEST PUSH2 0xB6A DUP2 PUSH2 0xB54 JUMP JUMPDEST DUP2 EQ PUSH2 0xB75 JUMPI PUSH1 0x0 DUP1 REVERT JUMPDEST POP JUMP JUMPDEST PUSH1 0x0 DUP2 MLOAD SWAP1 POP PUSH2 0xB87 DUP2 PUSH2 0xB61 JUMP JUMPDEST SWAP3 SWAP2 POP POP JUMP JUMPDEST PUSH1 0x0 PUSH1 0x20 DUP3 DUP5 SUB SLT ISZERO PUSH2 0xBA3 JUMPI PUSH2 0xBA2 PUSH2 0x707 JUMP JUMPDEST JUMPDEST PUSH1 0x0 PUSH2 0xBB1 DUP5 DUP3 DUP6 ADD PUSH2 0xB78 JUMP JUMPDEST SWAP2 POP POP SWAP3 SWAP2 POP POP JUMP JUMPDEST PUSH1 0x0 PUSH8 0xFFFFFFFFFFFFFFFF DUP3 GT ISZERO PUSH2 0xBD5 JUMPI PUSH2 0xBD4 PUSH2 0x935 JUMP JUMPDEST JUMPDEST PUSH1 0x20 DUP3 MUL SWAP1 POP SWAP2 SWAP1 POP JUMP JUMPDEST PUSH1 0x0 DUP1 REVERT JUMPDEST PUSH1 0x0 PUSH2 0xBF8 PUSH2 0xBF3 DUP5 PUSH2 0x9B0 JUMP JUMPDEST PUSH2 0x995 JUMP JUMPDEST SWAP1 POP DUP3 DUP2 MSTORE PUSH1 0x20 DUP2 ADD DUP5 DUP5 DUP5 ADD GT ISZERO PUSH2 0xC14 JUMPI PUSH2 0xC13 PUSH2 0x930 JUMP JUMPDEST JUMPDEST PUSH2 0xC1F DUP5 DUP3 DUP6 PUSH2 0x82A JUMP JUMPDEST POP SWAP4 SWAP3 POP POP POP JUMP JUMPDEST PUSH1 0x0 DUP3 PUSH1 0x1F DUP4 ADD SLT PUSH2 0xC3C JUMPI PUSH2 0xC3B PUSH2 0x92B JUMP JUMPDEST JUMPDEST DUP2 MLOAD PUSH2 0xC4C DUP5 DUP3 PUSH1 0x20 DUP7 ADD PUSH2 0xBE5 JUMP JUMPDEST SWAP2 POP POP SWAP3 SWAP2 POP POP JUMP JUMPDEST PUSH1 0x0 PUSH2 0xC68 PUSH2 0xC63 DUP5 PUSH2 0xBBA JUMP JUMPDEST PUSH2 0x995 JUMP JUMPDEST SWAP1 POP DUP1 PUSH1 0x20 DUP5 MUL DUP4 ADD DUP6 DUP2 GT ISZERO PUSH2 0xC82 JUMPI PUSH2 0xC81 PUSH2 0xBE0 JUMP JUMPDEST JUMPDEST DUP4 JUMPDEST DUP2 DUP2 LT ISZERO PUSH2 0xCC9 JUMPI DUP1 MLOAD PUSH8 0xFFFFFFFFFFFFFFFF DUP2 GT ISZERO PUSH2 0xCA7 JUMPI PUSH2 0xCA6 PUSH2 0x92B JUMP JUMPDEST JUMPDEST DUP1 DUP7 ADD PUSH2 0xCB4 DUP10 DUP3 PUSH2 0xC27 JUMP JUMPDEST DUP6 MSTORE PUSH1 0x20 DUP6 ADD SWAP5 POP POP POP PUSH1 0x20 DUP2 ADD SWAP1 POP PUSH2 0xC84 JUMP JUMPDEST POP POP POP SWAP4 SWAP3 POP POP POP JUMP JUMPDEST PUSH1 0x0 DUP3 PUSH1 0x1F DUP4 ADD SLT PUSH2 0xCE8 JUMPI PUSH2 0xCE7 PUSH2 0x92B JUMP JUMPDEST JUMPDEST PUSH1 0x3 PUSH2 0xCF5 DUP5 DUP3 DUP6 PUSH2 0xC55 JUMP JUMPDEST SWAP2 POP POP SWAP3 SWAP2 POP POP JUMP JUMPDEST PUSH1 0x0 PUSH1 0x20 DUP3 DUP5 SUB SLT ISZERO PUSH2 0xD14 JUMPI PUSH2 0xD13 PUSH2 0x707 JUMP JUMPDEST JUMPDEST PUSH1 0x0 DUP3 ADD MLOAD PUSH8 0xFFFFFFFFFFFFFFFF DUP2 GT ISZERO PUSH2 0xD32 JUMPI PUSH2 0xD31 PUSH2 0x70C JUMP JUMPDEST JUMPDEST PUSH2 0xD3E DUP5 DUP3 DUP6 ADD PUSH2 0xCD3 JUMP JUMPDEST SWAP2 POP POP SWAP3 SWAP2 POP POP JUMP JUMPDEST PUSH32 0x4E487B7100000000000000000000000000000000000000000000000000000000 PUSH1 0x0 MSTORE PUSH1 0x11 PUSH1 0x4 MSTORE PUSH1 0x24 PUSH1 0x0 REVERT JUMPDEST PUSH1 0x0 PUSH2 0xD81 DUP3 PUSH2 0x711 JUMP JUMPDEST SWAP2 POP PUSH32 0xFFFFFFFFFFFFFFFFFFFFFFFFFFFFFFFFFFFFFFFFFFFFFFFFFFFFFFFFFFFFFFFF DUP3 EQ ISZERO PUSH2 0xDB4 JUMPI PUSH2 0xDB3 PUSH2 0xD47 JUMP JUMPDEST JUMPDEST PUSH1 0x1 DUP3 ADD SWAP1 POP SWAP2 SWAP1 POP JUMP INVALID LOG2 PUSH5 0x6970667358 0x22 SLT KECCAK256 0xB7 DUP3 NOT 0xC3 SMOD 0xD8 0xC 0xAE 0x5D 0x22 EQ PUSH9 0x8654F1DC6A15739A56 MUL 0xB4 0x5D 0x2C PUSH18 0x2323A8E9D4F164736F6C6343000808003300 "
				},
				"gasEstimates": {
					"creation": {
						"codeDepositCost": "714600",
						"executionCost": "49281",
						"totalCost": "763881"
					},
					"external": {
						"createGatcha()": "infinite",
						"getUsers(uint256)": "infinite",
						"ownerAddress()": "2514",
						"rarityList(uint256)": "infinite",
						"rarityListFunc()": "infinite",
						"rarityRateFunc(string)": "infinite",
						"registeredUsers(uint256)": "infinite"
					}
				},
				"methodIdentifiers": {
					"createGatcha()": "e917ec96",
					"getUsers(uint256)": "5d73ab9a",
					"ownerAddress()": "8f84aa09",
					"rarityList(uint256)": "6fd3d9e2",
					"rarityListFunc()": "bb4a376b",
					"rarityRateFunc(string)": "a7beb5d0",
					"registeredUsers(uint256)": "7259e0f8"
				}
			},
			"storageLayout": {
				"storage": [
					{
						"astId": 5,
						"contract": "contracts/TestInterview.sol:TestInterview",
						"label": "rarityList",
						"offset": 0,
						"slot": "0",
						"type": "t_array(t_string_storage)dyn_storage"
					},
					{
						"astId": 11,
						"contract": "contracts/TestInterview.sol:TestInterview",
						"label": "objINFT",
						"offset": 0,
						"slot": "1",
						"type": "t_contract(INFT)170"
					},
					{
						"astId": 14,
						"contract": "contracts/TestInterview.sol:TestInterview",
						"label": "ownerAddress",
						"offset": 0,
						"slot": "2",
						"type": "t_address"
					},
					{
						"astId": 23,
						"contract": "contracts/TestInterview.sol:TestInterview",
						"label": "registeredUsers",
						"offset": 0,
						"slot": "3",
						"type": "t_array(t_struct(RegisteredUser)19_storage)dyn_storage"
					}
				],
				"types": {
					"t_address": {
						"encoding": "inplace",
						"label": "address",
						"numberOfBytes": "20"
					},
					"t_array(t_string_storage)dyn_storage": {
						"base": "t_string_storage",
						"encoding": "dynamic_array",
						"label": "string[]",
						"numberOfBytes": "32"
					},
					"t_array(t_struct(RegisteredUser)19_storage)dyn_storage": {
						"base": "t_struct(RegisteredUser)19_storage",
						"encoding": "dynamic_array",
						"label": "struct TestInterview.RegisteredUser[]",
						"numberOfBytes": "32"
					},
					"t_contract(INFT)170": {
						"encoding": "inplace",
						"label": "contract INFT",
						"numberOfBytes": "20"
					},
					"t_string_storage": {
						"encoding": "bytes",
						"label": "string",
						"numberOfBytes": "32"
					},
					"t_struct(RegisteredUser)19_storage": {
						"encoding": "inplace",
						"label": "struct TestInterview.RegisteredUser",
						"members": [
							{
								"astId": 16,
								"contract": "contracts/TestInterview.sol:TestInterview",
								"label": "userAddress",
								"offset": 0,
								"slot": "0",
								"type": "t_address"
							},
							{
								"astId": 18,
								"contract": "contracts/TestInterview.sol:TestInterview",
								"label": "counterVisited",
								"offset": 0,
								"slot": "1",
								"type": "t_uint256"
							}
						],
						"numberOfBytes": "64"
					},
					"t_uint256": {
						"encoding": "inplace",
						"label": "uint256",
						"numberOfBytes": "32"
					}
				}
			},
			"userdoc": {
				"kind": "user",
				"methods": {},
				"version": 1
			}
		}
	}
}